{
  "abi": [
    {
      "inputs": [
        {
          "internalType": "address",
          "name": "_usdcAddress",
          "type": "address"
        },
        {
          "internalType": "address",
          "name": "_tokenMessengerAddress",
          "type": "address"
        }
      ],
      "stateMutability": "nonpayable",
      "type": "constructor"
    },
    {
      "anonymous": false,
      "inputs": [
        {
          "indexed": true,
          "internalType": "address",
          "name": "previousOwner",
          "type": "address"
        },
        {
          "indexed": true,
          "internalType": "address",
          "name": "newOwner",
          "type": "address"
        }
      ],
      "name": "OwnershipTransferred",
      "type": "event"
    },
    {
      "inputs": [],
      "name": "collectFees",
      "outputs": [],
      "stateMutability": "nonpayable",
      "type": "function"
    },
    {
      "inputs": [],
      "name": "owner",
      "outputs": [
        {
          "internalType": "address",
          "name": "",
          "type": "address"
        }
      ],
      "stateMutability": "view",
      "type": "function"
    },
    {
      "inputs": [],
      "name": "renounceOwnership",
      "outputs": [],
      "stateMutability": "nonpayable",
      "type": "function"
    },
    {
      "inputs": [
        {
          "internalType": "uint256",
          "name": "amount",
          "type": "uint256"
        },
        {
          "internalType": "uint32",
          "name": "destinationChainId",
          "type": "uint32"
        }
      ],
      "name": "sendAssetsToBridge",
      "outputs": [],
      "stateMutability": "nonpayable",
      "type": "function"
    },
    {
      "inputs": [],
      "name": "tokenMessengerAddress",
      "outputs": [
        {
          "internalType": "address",
          "name": "",
          "type": "address"
        }
      ],
      "stateMutability": "view",
      "type": "function"
    },
    {
      "inputs": [
        {
          "internalType": "address",
          "name": "newOwner",
          "type": "address"
        }
      ],
      "name": "transferOwnership",
      "outputs": [],
      "stateMutability": "nonpayable",
      "type": "function"
    },
    {
      "inputs": [],
      "name": "usdcAddress",
      "outputs": [
        {
          "internalType": "address",
          "name": "",
          "type": "address"
        }
      ],
      "stateMutability": "view",
      "type": "function"
    }
  ],
  "bytecode": "60803460bc57601f61079a38819003918201601f19168301916001600160401b0383118484101760c157808492604094855283398101031260bc57604b602060458360d7565b920160d7565b60008054336001600160a01b0319808316821784556040519590946001600160a01b03949093859391908416907f8be0079c531659141344cd1fd0a4f28419497f9722a3daafe3b4186f6b6457e09080a316836001541617600155169060025416176002556106af90816100eb8239f35b600080fd5b634e487b7160e01b600052604160045260246000fd5b51906001600160a01b038216820360bc5756fe608060408181526004908136101561001657600080fd5b600092833560e01c90816302d45457146105a75750806365c005c214610310578063715018a6146102b35780638da5cb5b1461028b5780638f5c27e21461026257838163c87965721461013f575063f2fde38b1461007357600080fd5b3461013b57602036600319011261013b576001600160a01b03823581811693919290849003610137576100a4610621565b83156100e557505082546001600160a01b0319811683178455167f8be0079c531659141344cd1fd0a4f28419497f9722a3daafe3b4186f6b6457e08380a380f35b906020608492519162461bcd60e51b8352820152602660248201527f4f776e61626c653a206e6577206f776e657220697320746865207a65726f206160448201526564647265737360d01b6064820152fd5b8480fd5b8280fd5b9190503461025e578160031936011261025e5761015a610621565b60015481516370a0823160e01b8152308186015260209490916001600160a01b0390811691908684602481865afa93841561025457908794939291879461021b575b508654865163a9059cbb60e01b815291166001600160a01b031691810191825260208201939093529194859283919082906040015b03925af190811561021257506101e5578280f35b8161020492903d1061020b575b6101fc81836105cc565b810190610604565b5038808280f35b503d6101f2565b513d85823e3d90fd5b8581969295503d831161024d575b61023381836105cc565b81010312610249579251869390926101d161019c565b8580fd5b503d610229565b85513d88823e3d90fd5b5080fd5b83823461025e578160031936011261025e5760025490516001600160a01b039091168152602090f35b83823461025e578160031936011261025e57905490516001600160a01b039091168152602090f35b833461030d578060031936011261030d576102cc610621565b80546001600160a01b03198116825581906001600160a01b03167f8be0079c531659141344cd1fd0a4f28419497f9722a3daafe3b4186f6b6457e08280a380f35b80fd5b503461013b578060031936011261013b5782823560249283359163ffffffff83168093036105a35760015482516323b872dd60e01b815233888201523087820152604481018390526020956001600160a01b03939287918391606491839188165af19081156104e8578991610586575b501561054457620f424081111561050457620f423f1981019081116104f257600154600254845163095ea7b360e01b81529084166001600160a01b03168982019081526020810184905290918791839186169082908d90829060400103925af180156104e8576104cb575b50816002541691835194868601913383528787528587019867ffffffffffffffff9a888b108c8c11176104ba5750508794899460849486948e94868b528b519251928a81106104a6575b5060015416926337e9a82760e11b875260448c015260648b0152858a015260a48901525af190811561049d575061046a578480f35b813d8311610496575b61047d81856105cc565b8101031261013b57519081160361030d57388080808480f35b503d610473565b513d87823e3d90fd5b600019908b0360031b1b9092169138610435565b634e487b7160e01b8d52604190528bfd5b6104e190863d881161020b576101fc81836105cc565b50386103eb565b84513d8b823e3d90fd5b634e487b7160e01b8852601187528588fd5b60648786888187519362461bcd60e51b85528401528201527f6d696e696d756d20616d6f756e742c206d6f7265207468616e203120555344436044820152fd5b825162461bcd60e51b81528088018690526017818801527f4661696c656420746f207472616e7366657220757364630000000000000000006044820152606490fd5b61059d9150863d881161020b576101fc81836105cc565b38610380565b8380fd5b84903461025e578160031936011261025e576001546001600160a01b03168152602090f35b90601f8019910116810190811067ffffffffffffffff8211176105ee57604052565b634e487b7160e01b600052604160045260246000fd5b9081602091031261061c5751801515810361061c5790565b600080fd5b6000546001600160a01b0316330361063557565b606460405162461bcd60e51b815260206004820152602060248201527f4f776e61626c653a2063616c6c6572206973206e6f7420746865206f776e65726044820152fdfea26469706673582212205cc3937b2b5ae804ffe10edd3afc87d59df9d877ea2c650055a227cb3335003d64736f6c63430008190033",
  "bytecodeSha1": "5faa440fb4e5064e4e4527145cfde725ade97ec7",
  "compiler": {
    "evm_version": "istanbul",
    "optimizer": {
      "enabled": true,
      "runs": 200
    },
    "version": "0.8.25+commit.b61c2a91"
  },
  "contractName": "Bridge",
  "language": "Solidity",
  "natspec": {
    "kind": "dev",
    "methods": {
      "owner()": {
        "details": "Returns the address of the current owner."
      },
      "renounceOwnership()": {
        "details": "Leaves the contract without owner. It will not be possible to call `onlyOwner` functions anymore. Can only be called by the current owner. NOTE: Renouncing ownership will leave the contract without an owner, thereby removing any functionality that is only available to the owner."
      },
      "transferOwnership(address)": {
        "details": "Transfers ownership of the contract to a new account (`newOwner`). Can only be called by the current owner."
      }
    },
    "version": 1
  },
  "opcodes": "PUSH1 0x80 PUSH1 0x40 DUP2 DUP2 MSTORE PUSH1 0x4 SWAP1 DUP2 CALLDATASIZE LT ISZERO PUSH2 0x16 JUMPI PUSH1 0x0 DUP1 REVERT JUMPDEST PUSH1 0x0 SWAP3 DUP4 CALLDATALOAD PUSH1 0xE0 SHR SWAP1 DUP2 PUSH4 0x2D45457 EQ PUSH2 0x5A7 JUMPI POP DUP1 PUSH4 0x65C005C2 EQ PUSH2 0x310 JUMPI DUP1 PUSH4 0x715018A6 EQ PUSH2 0x2B3 JUMPI DUP1 PUSH4 0x8DA5CB5B EQ PUSH2 0x28B JUMPI DUP1 PUSH4 0x8F5C27E2 EQ PUSH2 0x262 JUMPI DUP4 DUP2 PUSH4 0xC8796572 EQ PUSH2 0x13F JUMPI POP PUSH4 0xF2FDE38B EQ PUSH2 0x73 JUMPI PUSH1 0x0 DUP1 REVERT JUMPDEST CALLVALUE PUSH2 0x13B JUMPI PUSH1 0x20 CALLDATASIZE PUSH1 0x3 NOT ADD SLT PUSH2 0x13B JUMPI PUSH1 0x1 PUSH1 0x1 PUSH1 0xA0 SHL SUB DUP3 CALLDATALOAD DUP2 DUP2 AND SWAP4 SWAP2 SWAP3 SWAP1 DUP5 SWAP1 SUB PUSH2 0x137 JUMPI PUSH2 0xA4 PUSH2 0x621 JUMP JUMPDEST DUP4 ISZERO PUSH2 0xE5 JUMPI POP POP DUP3 SLOAD PUSH1 0x1 PUSH1 0x1 PUSH1 0xA0 SHL SUB NOT DUP2 AND DUP4 OR DUP5 SSTORE AND PUSH32 0x8BE0079C531659141344CD1FD0A4F28419497F9722A3DAAFE3B4186F6B6457E0 DUP4 DUP1 LOG3 DUP1 RETURN JUMPDEST SWAP1 PUSH1 0x20 PUSH1 0x84 SWAP3 MLOAD SWAP2 PUSH3 0x461BCD PUSH1 0xE5 SHL DUP4 MSTORE DUP3 ADD MSTORE PUSH1 0x26 PUSH1 0x24 DUP3 ADD MSTORE PUSH32 0x4F776E61626C653A206E6577206F776E657220697320746865207A65726F2061 PUSH1 0x44 DUP3 ADD MSTORE PUSH6 0x646472657373 PUSH1 0xD0 SHL PUSH1 0x64 DUP3 ADD MSTORE REVERT JUMPDEST DUP5 DUP1 REVERT JUMPDEST DUP3 DUP1 REVERT JUMPDEST SWAP2 SWAP1 POP CALLVALUE PUSH2 0x25E JUMPI DUP2 PUSH1 0x3 NOT CALLDATASIZE ADD SLT PUSH2 0x25E JUMPI PUSH2 0x15A PUSH2 0x621 JUMP JUMPDEST PUSH1 0x1 SLOAD DUP2 MLOAD PUSH4 0x70A08231 PUSH1 0xE0 SHL DUP2 MSTORE ADDRESS DUP2 DUP7 ADD MSTORE PUSH1 0x20 SWAP5 SWAP1 SWAP2 PUSH1 0x1 PUSH1 0x1 PUSH1 0xA0 SHL SUB SWAP1 DUP2 AND SWAP2 SWAP1 DUP7 DUP5 PUSH1 0x24 DUP2 DUP7 GAS STATICCALL SWAP4 DUP5 ISZERO PUSH2 0x254 JUMPI SWAP1 DUP8 SWAP5 SWAP4 SWAP3 SWAP2 DUP8 SWAP5 PUSH2 0x21B JUMPI JUMPDEST POP DUP7 SLOAD DUP7 MLOAD PUSH4 0xA9059CBB PUSH1 0xE0 SHL DUP2 MSTORE SWAP2 AND PUSH1 0x1 PUSH1 0x1 PUSH1 0xA0 SHL SUB AND SWAP2 DUP2 ADD SWAP2 DUP3 MSTORE PUSH1 0x20 DUP3 ADD SWAP4 SWAP1 SWAP4 MSTORE SWAP2 SWAP5 DUP6 SWAP3 DUP4 SWAP2 SWAP1 DUP3 SWAP1 PUSH1 0x40 ADD JUMPDEST SUB SWAP3 GAS CALL SWAP1 DUP2 ISZERO PUSH2 0x212 JUMPI POP PUSH2 0x1E5 JUMPI DUP3 DUP1 RETURN JUMPDEST DUP2 PUSH2 0x204 SWAP3 SWAP1 RETURNDATASIZE LT PUSH2 0x20B JUMPI JUMPDEST PUSH2 0x1FC DUP2 DUP4 PUSH2 0x5CC JUMP JUMPDEST DUP2 ADD SWAP1 PUSH2 0x604 JUMP JUMPDEST POP CODESIZE DUP1 DUP3 DUP1 RETURN JUMPDEST POP RETURNDATASIZE PUSH2 0x1F2 JUMP JUMPDEST MLOAD RETURNDATASIZE DUP6 DUP3 RETURNDATACOPY RETURNDATASIZE SWAP1 REVERT JUMPDEST DUP6 DUP2 SWAP7 SWAP3 SWAP6 POP RETURNDATASIZE DUP4 GT PUSH2 0x24D JUMPI JUMPDEST PUSH2 0x233 DUP2 DUP4 PUSH2 0x5CC JUMP JUMPDEST DUP2 ADD SUB SLT PUSH2 0x249 JUMPI SWAP3 MLOAD DUP7 SWAP4 SWAP1 SWAP3 PUSH2 0x1D1 PUSH2 0x19C JUMP JUMPDEST DUP6 DUP1 REVERT JUMPDEST POP RETURNDATASIZE PUSH2 0x229 JUMP JUMPDEST DUP6 MLOAD RETURNDATASIZE DUP9 DUP3 RETURNDATACOPY RETURNDATASIZE SWAP1 REVERT JUMPDEST POP DUP1 REVERT JUMPDEST DUP4 DUP3 CALLVALUE PUSH2 0x25E JUMPI DUP2 PUSH1 0x3 NOT CALLDATASIZE ADD SLT PUSH2 0x25E JUMPI PUSH1 0x2 SLOAD SWAP1 MLOAD PUSH1 0x1 PUSH1 0x1 PUSH1 0xA0 SHL SUB SWAP1 SWAP2 AND DUP2 MSTORE PUSH1 0x20 SWAP1 RETURN JUMPDEST DUP4 DUP3 CALLVALUE PUSH2 0x25E JUMPI DUP2 PUSH1 0x3 NOT CALLDATASIZE ADD SLT PUSH2 0x25E JUMPI SWAP1 SLOAD SWAP1 MLOAD PUSH1 0x1 PUSH1 0x1 PUSH1 0xA0 SHL SUB SWAP1 SWAP2 AND DUP2 MSTORE PUSH1 0x20 SWAP1 RETURN JUMPDEST DUP4 CALLVALUE PUSH2 0x30D JUMPI DUP1 PUSH1 0x3 NOT CALLDATASIZE ADD SLT PUSH2 0x30D JUMPI PUSH2 0x2CC PUSH2 0x621 JUMP JUMPDEST DUP1 SLOAD PUSH1 0x1 PUSH1 0x1 PUSH1 0xA0 SHL SUB NOT DUP2 AND DUP3 SSTORE DUP2 SWAP1 PUSH1 0x1 PUSH1 0x1 PUSH1 0xA0 SHL SUB AND PUSH32 0x8BE0079C531659141344CD1FD0A4F28419497F9722A3DAAFE3B4186F6B6457E0 DUP3 DUP1 LOG3 DUP1 RETURN JUMPDEST DUP1 REVERT JUMPDEST POP CALLVALUE PUSH2 0x13B JUMPI DUP1 PUSH1 0x3 NOT CALLDATASIZE ADD SLT PUSH2 0x13B JUMPI DUP3 DUP3 CALLDATALOAD PUSH1 0x24 SWAP3 DUP4 CALLDATALOAD SWAP2 PUSH4 0xFFFFFFFF DUP4 AND DUP1 SWAP4 SUB PUSH2 0x5A3 JUMPI PUSH1 0x1 SLOAD DUP3 MLOAD PUSH4 0x23B872DD PUSH1 0xE0 SHL DUP2 MSTORE CALLER DUP9 DUP3 ADD MSTORE ADDRESS DUP8 DUP3 ADD MSTORE PUSH1 0x44 DUP2 ADD DUP4 SWAP1 MSTORE PUSH1 0x20 SWAP6 PUSH1 0x1 PUSH1 0x1 PUSH1 0xA0 SHL SUB SWAP4 SWAP3 DUP8 SWAP2 DUP4 SWAP2 PUSH1 0x64 SWAP2 DUP4 SWAP2 DUP9 AND GAS CALL SWAP1 DUP2 ISZERO PUSH2 0x4E8 JUMPI DUP10 SWAP2 PUSH2 0x586 JUMPI JUMPDEST POP ISZERO PUSH2 0x544 JUMPI PUSH3 0xF4240 DUP2 GT ISZERO PUSH2 0x504 JUMPI PUSH3 0xF423F NOT DUP2 ADD SWAP1 DUP2 GT PUSH2 0x4F2 JUMPI PUSH1 0x1 SLOAD PUSH1 0x2 SLOAD DUP5 MLOAD PUSH4 0x95EA7B3 PUSH1 0xE0 SHL DUP2 MSTORE SWAP1 DUP5 AND PUSH1 0x1 PUSH1 0x1 PUSH1 0xA0 SHL SUB AND DUP10 DUP3 ADD SWAP1 DUP2 MSTORE PUSH1 0x20 DUP2 ADD DUP5 SWAP1 MSTORE SWAP1 SWAP2 DUP8 SWAP2 DUP4 SWAP2 DUP7 AND SWAP1 DUP3 SWAP1 DUP14 SWAP1 DUP3 SWAP1 PUSH1 0x40 ADD SUB SWAP3 GAS CALL DUP1 ISZERO PUSH2 0x4E8 JUMPI PUSH2 0x4CB JUMPI JUMPDEST POP DUP2 PUSH1 0x2 SLOAD AND SWAP2 DUP4 MLOAD SWAP5 DUP7 DUP7 ADD SWAP2 CALLER DUP4 MSTORE DUP8 DUP8 MSTORE DUP6 DUP8 ADD SWAP9 PUSH8 0xFFFFFFFFFFFFFFFF SWAP11 DUP9 DUP12 LT DUP13 DUP13 GT OR PUSH2 0x4BA JUMPI POP POP DUP8 SWAP5 DUP10 SWAP5 PUSH1 0x84 SWAP5 DUP7 SWAP5 DUP15 SWAP5 DUP7 DUP12 MSTORE DUP12 MLOAD SWAP3 MLOAD SWAP3 DUP11 DUP2 LT PUSH2 0x4A6 JUMPI JUMPDEST POP PUSH1 0x1 SLOAD AND SWAP3 PUSH4 0x37E9A827 PUSH1 0xE1 SHL DUP8 MSTORE PUSH1 0x44 DUP13 ADD MSTORE PUSH1 0x64 DUP12 ADD MSTORE DUP6 DUP11 ADD MSTORE PUSH1 0xA4 DUP10 ADD MSTORE GAS CALL SWAP1 DUP2 ISZERO PUSH2 0x49D JUMPI POP PUSH2 0x46A JUMPI DUP5 DUP1 RETURN JUMPDEST DUP2 RETURNDATASIZE DUP4 GT PUSH2 0x496 JUMPI JUMPDEST PUSH2 0x47D DUP2 DUP6 PUSH2 0x5CC JUMP JUMPDEST DUP2 ADD SUB SLT PUSH2 0x13B JUMPI MLOAD SWAP1 DUP2 AND SUB PUSH2 0x30D JUMPI CODESIZE DUP1 DUP1 DUP1 DUP5 DUP1 RETURN JUMPDEST POP RETURNDATASIZE PUSH2 0x473 JUMP JUMPDEST MLOAD RETURNDATASIZE DUP8 DUP3 RETURNDATACOPY RETURNDATASIZE SWAP1 REVERT JUMPDEST PUSH1 0x0 NOT SWAP1 DUP12 SUB PUSH1 0x3 SHL SHL SWAP1 SWAP3 AND SWAP2 CODESIZE PUSH2 0x435 JUMP JUMPDEST PUSH4 0x4E487B71 PUSH1 0xE0 SHL DUP14 MSTORE PUSH1 0x41 SWAP1 MSTORE DUP12 REVERT JUMPDEST PUSH2 0x4E1 SWAP1 DUP7 RETURNDATASIZE DUP9 GT PUSH2 0x20B JUMPI PUSH2 0x1FC DUP2 DUP4 PUSH2 0x5CC JUMP JUMPDEST POP CODESIZE PUSH2 0x3EB JUMP JUMPDEST DUP5 MLOAD RETURNDATASIZE DUP12 DUP3 RETURNDATACOPY RETURNDATASIZE SWAP1 REVERT JUMPDEST PUSH4 0x4E487B71 PUSH1 0xE0 SHL DUP9 MSTORE PUSH1 0x11 DUP8 MSTORE DUP6 DUP9 REVERT JUMPDEST PUSH1 0x64 DUP8 DUP7 DUP9 DUP2 DUP8 MLOAD SWAP4 PUSH3 0x461BCD PUSH1 0xE5 SHL DUP6 MSTORE DUP5 ADD MSTORE DUP3 ADD MSTORE PUSH32 0x6D696E696D756D20616D6F756E742C206D6F7265207468616E20312055534443 PUSH1 0x44 DUP3 ADD MSTORE REVERT JUMPDEST DUP3 MLOAD PUSH3 0x461BCD PUSH1 0xE5 SHL DUP2 MSTORE DUP1 DUP9 ADD DUP7 SWAP1 MSTORE PUSH1 0x17 DUP2 DUP9 ADD MSTORE PUSH32 0x4661696C656420746F207472616E736665722075736463000000000000000000 PUSH1 0x44 DUP3 ADD MSTORE PUSH1 0x64 SWAP1 REVERT JUMPDEST PUSH2 0x59D SWAP2 POP DUP7 RETURNDATASIZE DUP9 GT PUSH2 0x20B JUMPI PUSH2 0x1FC DUP2 DUP4 PUSH2 0x5CC JUMP JUMPDEST CODESIZE PUSH2 0x380 JUMP JUMPDEST DUP4 DUP1 REVERT JUMPDEST DUP5 SWAP1 CALLVALUE PUSH2 0x25E JUMPI DUP2 PUSH1 0x3 NOT CALLDATASIZE ADD SLT PUSH2 0x25E JUMPI PUSH1 0x1 SLOAD PUSH1 0x1 PUSH1 0x1 PUSH1 0xA0 SHL SUB AND DUP2 MSTORE PUSH1 0x20 SWAP1 RETURN JUMPDEST SWAP1 PUSH1 0x1F DUP1 NOT SWAP2 ADD AND DUP2 ADD SWAP1 DUP2 LT PUSH8 0xFFFFFFFFFFFFFFFF DUP3 GT OR PUSH2 0x5EE JUMPI PUSH1 0x40 MSTORE JUMP JUMPDEST PUSH4 0x4E487B71 PUSH1 0xE0 SHL PUSH1 0x0 MSTORE PUSH1 0x41 PUSH1 0x4 MSTORE PUSH1 0x24 PUSH1 0x0 REVERT JUMPDEST SWAP1 DUP2 PUSH1 0x20 SWAP2 SUB SLT PUSH2 0x61C JUMPI MLOAD DUP1 ISZERO ISZERO DUP2 SUB PUSH2 0x61C JUMPI SWAP1 JUMP JUMPDEST PUSH1 0x0 DUP1 REVERT JUMPDEST PUSH1 0x0 SLOAD PUSH1 0x1 PUSH1 0x1 PUSH1 0xA0 SHL SUB AND CALLER SUB PUSH2 0x635 JUMPI JUMP JUMPDEST PUSH1 0x64 PUSH1 0x40 MLOAD PUSH3 0x461BCD PUSH1 0xE5 SHL DUP2 MSTORE PUSH1 0x20 PUSH1 0x4 DUP3 ADD MSTORE PUSH1 0x20 PUSH1 0x24 DUP3 ADD MSTORE PUSH32 0x4F776E61626C653A2063616C6C6572206973206E6F7420746865206F776E6572 PUSH1 0x44 DUP3 ADD MSTORE REVERT INVALID LOG2 PUSH5 0x6970667358 0x22 SLT KECCAK256 TLOAD 0xC3 SWAP4 PUSH28 0x2B5AE804FFE10EDD3AFC87D59DF9D877EA2C650055A227CB3335003D PUSH5 0x736F6C6343 STOP ADDMOD NOT STOP CALLER ",
  "sha1": "46b11f83276beacf7102a4720ab9e68103f36273",
  "source": "// SPDX-License-Identifier: MIT\npragma solidity ^0.8.0;\n\nimport \"../interfaces/IERC20.sol\";\nimport \"../interfaces/ITokenMessenger.sol\";\nimport \"@openzeppelin/contracts/access/Ownable.sol\";\n\ncontract Bridge is Ownable {\n    address public usdcAddress;\n    address public tokenMessengerAddress;\n\n    constructor(address _usdcAddress, address _tokenMessengerAddress) {\n        usdcAddress = _usdcAddress;\n        tokenMessengerAddress = _tokenMessengerAddress;\n    }\n\n    function sendAssetsToBridge(\n        uint256 amount,\n        uint32 destinationChainId\n    ) public {\n        require(\n            IERC20(usdcAddress).transferFrom(msg.sender, address(this), amount),\n            \"Failed to transfer usdc\"\n        );\n        require(amount > 1 * 10 ** 6, \"minimum amount, more than 1 USDC\");\n\n        uint256 finalAmount = amount - 1 * 10 ** 6;\n\n        IERC20(usdcAddress).approve(tokenMessengerAddress, finalAmount);\n        ITokenMessenger(tokenMessengerAddress).depositForBurn(\n            finalAmount,\n            destinationChainId,\n            bytes32(abi.encode(msg.sender)),\n            usdcAddress\n        );\n    }\n\n    function collectFees() external onlyOwner {\n        uint256 balanceUsdc = IERC20(usdcAddress).balanceOf(address(this));\n        IERC20(usdcAddress).transfer(owner(), balanceUsdc);\n    }\n}\n",
  "sourcePath": "contracts/Bridge.sol",
  "type": "contract"
}