{
  "abi": [
    {
      "inputs": [
        {
          "internalType": "address",
          "name": "_router",
          "type": "address"
        },
        {
          "internalType": "address",
          "name": "_link",
          "type": "address"
        },
        {
          "internalType": "uint64",
          "name": "_MASTER_CONTRACT_CHAIN_ID",
          "type": "uint64"
        }
      ],
      "stateMutability": "nonpayable",
      "type": "constructor"
    },
    {
      "inputs": [
        {
          "internalType": "address",
          "name": "nodeAddress",
          "type": "address"
        }
      ],
      "name": "DestinationNodeNotValid",
      "type": "error"
    },
    {
      "inputs": [
        {
          "internalType": "address",
          "name": "owner",
          "type": "address"
        },
        {
          "internalType": "address",
          "name": "target",
          "type": "address"
        },
        {
          "internalType": "uint256",
          "name": "value",
          "type": "uint256"
        }
      ],
      "name": "FailedToWithdrawEth",
      "type": "error"
    },
    {
      "inputs": [],
      "name": "InvalidReceiverAddress",
      "type": "error"
    },
    {
      "inputs": [
        {
          "internalType": "address",
          "name": "router",
          "type": "address"
        }
      ],
      "name": "InvalidRouter",
      "type": "error"
    },
    {
      "inputs": [
        {
          "internalType": "uint256",
          "name": "currentBalance",
          "type": "uint256"
        },
        {
          "internalType": "uint256",
          "name": "calculatedFees",
          "type": "uint256"
        }
      ],
      "name": "NotEnoughBalance",
      "type": "error"
    },
    {
      "inputs": [],
      "name": "NothingToWithdraw",
      "type": "error"
    },
    {
      "inputs": [
        {
          "internalType": "address",
          "name": "sender",
          "type": "address"
        }
      ],
      "name": "SenderNotAllowed",
      "type": "error"
    },
    {
      "inputs": [
        {
          "internalType": "uint64",
          "name": "sourceChainSelector",
          "type": "uint64"
        }
      ],
      "name": "SourceChainNotAllowed",
      "type": "error"
    },
    {
      "anonymous": false,
      "inputs": [
        {
          "indexed": true,
          "internalType": "address",
          "name": "owner",
          "type": "address"
        },
        {
          "indexed": true,
          "internalType": "address",
          "name": "spender",
          "type": "address"
        },
        {
          "indexed": false,
          "internalType": "uint256",
          "name": "value",
          "type": "uint256"
        }
      ],
      "name": "Approval",
      "type": "event"
    },
    {
      "anonymous": false,
      "inputs": [
        {
          "indexed": true,
          "internalType": "address",
          "name": "from",
          "type": "address"
        },
        {
          "indexed": true,
          "internalType": "address",
          "name": "to",
          "type": "address"
        }
      ],
      "name": "OwnershipTransferRequested",
      "type": "event"
    },
    {
      "anonymous": false,
      "inputs": [
        {
          "indexed": true,
          "internalType": "address",
          "name": "from",
          "type": "address"
        },
        {
          "indexed": true,
          "internalType": "address",
          "name": "to",
          "type": "address"
        }
      ],
      "name": "OwnershipTransferred",
      "type": "event"
    },
    {
      "anonymous": false,
      "inputs": [
        {
          "indexed": true,
          "internalType": "address",
          "name": "from",
          "type": "address"
        },
        {
          "indexed": true,
          "internalType": "address",
          "name": "to",
          "type": "address"
        },
        {
          "indexed": false,
          "internalType": "uint256",
          "name": "value",
          "type": "uint256"
        }
      ],
      "name": "Transfer",
      "type": "event"
    },
    {
      "inputs": [],
      "name": "MASTER_CONTRACT_CHAIN_ID",
      "outputs": [
        {
          "internalType": "uint64",
          "name": "",
          "type": "uint64"
        }
      ],
      "stateMutability": "view",
      "type": "function"
    },
    {
      "inputs": [],
      "name": "_resmumeOperationsFromSameChain",
      "outputs": [],
      "stateMutability": "nonpayable",
      "type": "function"
    },
    {
      "inputs": [
        {
          "internalType": "address",
          "name": "userAddress",
          "type": "address"
        },
        {
          "internalType": "uint256",
          "name": "shares",
          "type": "uint256"
        }
      ],
      "name": "aWarpTokenMinterFromSameChain",
      "outputs": [],
      "stateMutability": "nonpayable",
      "type": "function"
    },
    {
      "inputs": [],
      "name": "acceptOwnership",
      "outputs": [],
      "stateMutability": "nonpayable",
      "type": "function"
    },
    {
      "inputs": [],
      "name": "activeNode",
      "outputs": [
        {
          "internalType": "address",
          "name": "",
          "type": "address"
        }
      ],
      "stateMutability": "view",
      "type": "function"
    },
    {
      "inputs": [
        {
          "internalType": "address",
          "name": "nodeAddress",
          "type": "address"
        },
        {
          "internalType": "uint64",
          "name": "chainCCIPid",
          "type": "uint64"
        },
        {
          "internalType": "bool",
          "name": "isActiveNode",
          "type": "bool"
        }
      ],
      "name": "addValidNode",
      "outputs": [],
      "stateMutability": "nonpayable",
      "type": "function"
    },
    {
      "inputs": [],
      "name": "allowMoreNodes",
      "outputs": [
        {
          "internalType": "bool",
          "name": "",
          "type": "bool"
        }
      ],
      "stateMutability": "view",
      "type": "function"
    },
    {
      "inputs": [
        {
          "internalType": "address",
          "name": "owner",
          "type": "address"
        },
        {
          "internalType": "address",
          "name": "spender",
          "type": "address"
        }
      ],
      "name": "allowance",
      "outputs": [
        {
          "internalType": "uint256",
          "name": "",
          "type": "uint256"
        }
      ],
      "stateMutability": "view",
      "type": "function"
    },
    {
      "inputs": [
        {
          "internalType": "address",
          "name": "spender",
          "type": "address"
        },
        {
          "internalType": "uint256",
          "name": "amount",
          "type": "uint256"
        }
      ],
      "name": "approve",
      "outputs": [
        {
          "internalType": "bool",
          "name": "",
          "type": "bool"
        }
      ],
      "stateMutability": "nonpayable",
      "type": "function"
    },
    {
      "inputs": [
        {
          "internalType": "address",
          "name": "account",
          "type": "address"
        }
      ],
      "name": "balanceOf",
      "outputs": [
        {
          "internalType": "uint256",
          "name": "",
          "type": "uint256"
        }
      ],
      "stateMutability": "view",
      "type": "function"
    },
    {
      "inputs": [
        {
          "components": [
            {
              "internalType": "bytes32",
              "name": "messageId",
              "type": "bytes32"
            },
            {
              "internalType": "uint64",
              "name": "sourceChainSelector",
              "type": "uint64"
            },
            {
              "internalType": "bytes",
              "name": "sender",
              "type": "bytes"
            },
            {
              "internalType": "bytes",
              "name": "data",
              "type": "bytes"
            },
            {
              "components": [
                {
                  "internalType": "address",
                  "name": "token",
                  "type": "address"
                },
                {
                  "internalType": "uint256",
                  "name": "amount",
                  "type": "uint256"
                }
              ],
              "internalType": "struct Client.EVMTokenAmount[]",
              "name": "destTokenAmounts",
              "type": "tuple[]"
            }
          ],
          "internalType": "struct Client.Any2EVMMessage",
          "name": "message",
          "type": "tuple"
        }
      ],
      "name": "ccipReceive",
      "outputs": [],
      "stateMutability": "nonpayable",
      "type": "function"
    },
    {
      "inputs": [
        {
          "internalType": "address",
          "name": "_activeNode",
          "type": "address"
        },
        {
          "internalType": "address",
          "name": "destinationNode",
          "type": "address"
        }
      ],
      "name": "checkApprovedWarp",
      "outputs": [
        {
          "internalType": "bool",
          "name": "",
          "type": "bool"
        }
      ],
      "stateMutability": "view",
      "type": "function"
    },
    {
      "inputs": [],
      "name": "decimals",
      "outputs": [
        {
          "internalType": "uint8",
          "name": "",
          "type": "uint8"
        }
      ],
      "stateMutability": "view",
      "type": "function"
    },
    {
      "inputs": [
        {
          "internalType": "address",
          "name": "spender",
          "type": "address"
        },
        {
          "internalType": "uint256",
          "name": "subtractedValue",
          "type": "uint256"
        }
      ],
      "name": "decreaseAllowance",
      "outputs": [
        {
          "internalType": "bool",
          "name": "",
          "type": "bool"
        }
      ],
      "stateMutability": "nonpayable",
      "type": "function"
    },
    {
      "inputs": [],
      "name": "getChainIdFromActiveNode",
      "outputs": [
        {
          "internalType": "uint64",
          "name": "",
          "type": "uint64"
        }
      ],
      "stateMutability": "view",
      "type": "function"
    },
    {
      "inputs": [
        {
          "internalType": "uint64",
          "name": "destinationCCIPid",
          "type": "uint64"
        },
        {
          "internalType": "address",
          "name": "receiver",
          "type": "address"
        },
        {
          "internalType": "address",
          "name": "s_linkTokenAddress",
          "type": "address"
        },
        {
          "internalType": "address",
          "name": "routerAddress",
          "type": "address"
        },
        {
          "internalType": "bytes",
          "name": "_data",
          "type": "bytes"
        }
      ],
      "name": "getLinkFees",
      "outputs": [
        {
          "internalType": "uint256",
          "name": "",
          "type": "uint256"
        }
      ],
      "stateMutability": "view",
      "type": "function"
    },
    {
      "inputs": [],
      "name": "getRouter",
      "outputs": [
        {
          "internalType": "address",
          "name": "",
          "type": "address"
        }
      ],
      "stateMutability": "view",
      "type": "function"
    },
    {
      "inputs": [
        {
          "internalType": "address",
          "name": "spender",
          "type": "address"
        },
        {
          "internalType": "uint256",
          "name": "addedValue",
          "type": "uint256"
        }
      ],
      "name": "increaseAllowance",
      "outputs": [
        {
          "internalType": "bool",
          "name": "",
          "type": "bool"
        }
      ],
      "stateMutability": "nonpayable",
      "type": "function"
    },
    {
      "inputs": [],
      "name": "lastActiveNode",
      "outputs": [
        {
          "internalType": "address",
          "name": "",
          "type": "address"
        }
      ],
      "stateMutability": "view",
      "type": "function"
    },
    {
      "inputs": [],
      "name": "lastTimeWarped",
      "outputs": [
        {
          "internalType": "uint256",
          "name": "",
          "type": "uint256"
        }
      ],
      "stateMutability": "view",
      "type": "function"
    },
    {
      "inputs": [],
      "name": "name",
      "outputs": [
        {
          "internalType": "string",
          "name": "",
          "type": "string"
        }
      ],
      "stateMutability": "view",
      "type": "function"
    },
    {
      "inputs": [
        {
          "internalType": "uint256",
          "name": "totalUsdcSupply",
          "type": "uint256"
        },
        {
          "internalType": "uint256",
          "name": "totalUsdcBorrow",
          "type": "uint256"
        },
        {
          "internalType": "uint256",
          "name": "supplyRate",
          "type": "uint256"
        }
      ],
      "name": "nodeAaveFeedFromSameChain",
      "outputs": [],
      "stateMutability": "nonpayable",
      "type": "function"
    },
    {
      "inputs": [],
      "name": "owner",
      "outputs": [
        {
          "internalType": "address",
          "name": "",
          "type": "address"
        }
      ],
      "stateMutability": "view",
      "type": "function"
    },
    {
      "inputs": [],
      "name": "stopAddingNodes",
      "outputs": [],
      "stateMutability": "nonpayable",
      "type": "function"
    },
    {
      "inputs": [
        {
          "internalType": "bytes4",
          "name": "interfaceId",
          "type": "bytes4"
        }
      ],
      "name": "supportsInterface",
      "outputs": [
        {
          "internalType": "bool",
          "name": "",
          "type": "bool"
        }
      ],
      "stateMutability": "pure",
      "type": "function"
    },
    {
      "inputs": [],
      "name": "symbol",
      "outputs": [
        {
          "internalType": "string",
          "name": "",
          "type": "string"
        }
      ],
      "stateMutability": "view",
      "type": "function"
    },
    {
      "inputs": [],
      "name": "totalSupply",
      "outputs": [
        {
          "internalType": "uint256",
          "name": "",
          "type": "uint256"
        }
      ],
      "stateMutability": "view",
      "type": "function"
    },
    {
      "inputs": [
        {
          "internalType": "address",
          "name": "to",
          "type": "address"
        },
        {
          "internalType": "uint256",
          "name": "amount",
          "type": "uint256"
        }
      ],
      "name": "transfer",
      "outputs": [
        {
          "internalType": "bool",
          "name": "",
          "type": "bool"
        }
      ],
      "stateMutability": "nonpayable",
      "type": "function"
    },
    {
      "inputs": [
        {
          "internalType": "address",
          "name": "from",
          "type": "address"
        },
        {
          "internalType": "address",
          "name": "to",
          "type": "address"
        },
        {
          "internalType": "uint256",
          "name": "amount",
          "type": "uint256"
        }
      ],
      "name": "transferFrom",
      "outputs": [
        {
          "internalType": "bool",
          "name": "",
          "type": "bool"
        }
      ],
      "stateMutability": "nonpayable",
      "type": "function"
    },
    {
      "inputs": [
        {
          "internalType": "address",
          "name": "to",
          "type": "address"
        }
      ],
      "name": "transferOwnership",
      "outputs": [],
      "stateMutability": "nonpayable",
      "type": "function"
    },
    {
      "inputs": [
        {
          "internalType": "address",
          "name": "",
          "type": "address"
        }
      ],
      "name": "validNodes",
      "outputs": [
        {
          "internalType": "bool",
          "name": "isValidNode",
          "type": "bool"
        },
        {
          "internalType": "bool",
          "name": "isActiveNode",
          "type": "bool"
        },
        {
          "internalType": "uint64",
          "name": "chainCCIPid",
          "type": "uint64"
        },
        {
          "internalType": "uint256",
          "name": "lastDataFromAave",
          "type": "uint256"
        },
        {
          "internalType": "uint256",
          "name": "totalUsdcSupply",
          "type": "uint256"
        },
        {
          "internalType": "uint256",
          "name": "totalUsdcBorrow",
          "type": "uint256"
        },
        {
          "internalType": "uint256",
          "name": "supplyRate",
          "type": "uint256"
        }
      ],
      "stateMutability": "view",
      "type": "function"
    },
    {
      "inputs": [
        {
          "internalType": "uint64",
          "name": "_destinationCCIPid",
          "type": "uint64"
        },
        {
          "internalType": "address",
          "name": "_destinationNodeAddress",
          "type": "address"
        }
      ],
      "name": "warpAssets",
      "outputs": [],
      "stateMutability": "nonpayable",
      "type": "function"
    },
    {
      "inputs": [
        {
          "internalType": "uint256",
          "name": "shares",
          "type": "uint256"
        }
      ],
      "name": "withdraw",
      "outputs": [],
      "stateMutability": "nonpayable",
      "type": "function"
    },
    {
      "stateMutability": "payable",
      "type": "receive"
    }
  ],
  "bytecode": "60c0346200044557601f19906001600160401b0390601f9062002ab138819003838101861683019190858311848410176200044a578084926060946040528339810103126200044557620000538162000480565b9060209260406200006685840162000480565b92015194808616860362000445576200007e62000460565b91600983526815d85c9c165a595b1960ba1b868401526200009e62000460565b6004808252630615752560e41b88830152986001600160a01b0396808816156200042d576080523315620003e957600080546001600160a01b03199081163317825586519099919290868111620002f9576005908154986001998a81811c91168015620003de575b86821014620003ca5790818984931162000379575b508590898311600114620003185787926200030c575b5050600019600383901b1c191690891b1781555b8451968711620002f957600654908882811c92168015620002ee575b84831014620002da578798999a9b9c9d508682116200027d575b50508194861160011462000217575050926200020b575b5050600019600383901b1c191690821b176006555b60ff1960095416176009551690600754161760075560a05260405161261b908162000496823960805181818161035e015261078d015260a0518181816104970152818161054d0152818161072901528181610d42015281816114960152611e410152f35b01519050388062000192565b600683528183208897909594939116915b82821062000263575050841162000249575b505050811b01600655620001a7565b015160001960f88460031b161c191690553880806200023a565b848401518655889790950194938401939081019062000228565b9091929394959650600685528385209087808a01821c830193868b10620002d0575b918a998c93999897969594929901901c01915b828110620002c157506200017b565b8581558998508a9101620002b2565b935082936200029f565b50634e487b7160e01b845260228d52602484fd5b91607f169162000161565b634e487b7160e01b845260418d52602484fd5b01519050388062000131565b90858c94169185895287892092895b8982821062000362575050841162000348575b505050811b01815562000145565b015160001960f88460031b161c191690553880806200033a565b8385015186558f9790950194938401930162000327565b90915083875285872089808501861c820192888610620003c0575b918d918695949301871c01915b828110620003b15750506200011b565b8981558594508d9101620003a1565b9250819262000394565b8f876022602492634e487b7160e01b835252fd5b90607f169062000106565b60405162461bcd60e51b8152808b01899052601860248201527f43616e6e6f7420736574206f776e657220746f207a65726f00000000000000006044820152606490fd5b6040516335fdcccd60e21b81526000818d0152602490fd5b600080fd5b634e487b7160e01b600052604160045260246000fd5b60408051919082016001600160401b038111838210176200044a57604052565b51906001600160a01b0382168203620004455756fe60806040818152600480361015610021575b505050361561001f57600080fd5b005b600092833560e01c90816301ffc9a714611e885750806304783ea414611e0857806306fdde0314611d3b578063095ea7b314611d1157806310a78df814611bf95780631803c2f514611bcc57806318160ddd14611baf5780631d88092814611a4557806323b872dd146119795780632e1a7d4d146113a8578063313ce5671461138c578063395093511461133d578063544b17091461120b578381635c292be514610cb75750806361ac3f9914610c8a578063654e8e0c14610c665780636c1dc07714610c3d5780636c98d51314610c1757806370a0823114610bdf57806379ba509714610b3857806385572ffb1461074d5780638cf19d19146107095780638da5cb5b146106e157806395d89b41146105c65780639637120f1461051b578063995714ae14610467578063a457c2d7146103be578063a9059cbb1461038d578063b0f479a114610349578063b2d92955146102c2578063dd62ed3e14610274578063e12b948b146102515763f2fde38b03610011573461024d57602036600319011261024d576101b0611edc565b906101b9612593565b6001600160a01b039182169233841461020a575050600180546001600160a01b031916831790558254167fed8889f560326eb138920d842192f0eb3dd22b4f139c87a2c57538e05bae12788380a380f35b906020606492519162461bcd60e51b8352820152601760248201527f43616e6e6f74207472616e7366657220746f2073656c660000000000000000006044820152fd5b8280fd5b505034610270578160031936011261027057602090600b549051908152f35b5080fd5b505034610270578060031936011261027057602091610291611edc565b8261029a611ef2565b6001600160a01b03928316845260038652922091166000908152908352819020549051908152f35b50903461024d57602036600319011261024d5760e09281906001600160a01b036102ea611edc565b16815260086020522080549260018201546002830154916003840154930154936001600160401b0381519660ff81161515885260ff8160081c161515602089015260101c16908601526060850152608084015260a083015260c0820152f35b505034610270578160031936011261027057517f00000000000000000000000000000000000000000000000000000000000000006001600160a01b03168152602090f35b5050346102705780600319360112610270576020906103b76103ad611edc565b6024359033612224565b5160018152f35b5082346104645782600319360112610464576103d8611edc565b91836024359233815260036020522060018060a01b038416600052602052836000205490828210610413576020856103b78585038733612438565b608490602086519162461bcd60e51b8352820152602560248201527f45524332303a2064656372656173656420616c6c6f77616e63652062656c6f77604482015264207a65726f60d81b6064820152fd5b80fd5b503461024d578260031936011261024d5733835260086020526104bd6001600160401b03808486205460101c16907f0000000000000000000000000000000000000000000000000000000000000000161461206a565b338352600860205260ff82842054161561050557503382526008602052812061010061ff0019825416179055336bffffffffffffffffffffffff60a01b600a541617600a5580f35b6024915190636a9ff79f60e11b82523390820152fd5b50903461024d57606036600319011261024d5733835260086020526105736001600160401b03808386205460101c16907f0000000000000000000000000000000000000000000000000000000000000000161461206a565b338352600860205260ff8184205416156105af573383526008602052822042600182015581356002820155602435600382015560443591015580f35b602492505190636a9ff79f60e11b82523390820152fd5b5091346104645780600319360112610464578151918160065492600184811c918186169586156106d7575b60209687851081146106c4578899509688969785829a52918260001461069d575050600114610641575b50505061063d929161062e910385611ff3565b51928284938452830190611f08565b0390f35b9190869350600683527ff652222313e28459528d920b65115c16c04f3efc82aaedc97be59f3f377c0d3f5b828410610685575050508201018161062e61063d61061b565b8054848a01860152889550879490930192810161066c565b60ff19168782015293151560051b8601909301935084925061062e915061063d905061061b565b634e487b7160e01b835260228a52602483fd5b92607f16926105f1565b505034610270578160031936011261027057905490516001600160a01b039091168152602090f35b505034610270578160031936011261027057602090516001600160401b037f0000000000000000000000000000000000000000000000000000000000000000168152f35b50903461024d576020916003198381360112610909578135906001600160401b0390818311610a605760a090833603011261098b576001600160a01b03927f000000000000000000000000000000000000000000000000000000000000000084163303610b21578451916107c083611f5e565b838201358352602490818501358181168103610afc57888501526044850135818111610a68576107f590843691880101612014565b938781019485526064860135828111610b195761081790853691890101612014565b9560608201968752608481013590838211610b1d570136602382011215610b195784810135928311610b05578851926108558b8260051b0185611ff3565b808452848b85019160061b83010191368311610b01578501905b828210610ac2575050506080015282518781805181010312610a64576108978887920161253a565b168089526008885260ff878a20541615610aad575083518781805181010312610a64576108c78860ff920161254e565b168061090d57505050505191606083805181010312610909576108fc6060916108f461090696860161254e565b50840161253a565b9201519116612394565b80f35b8480fd5b600181989795939496981460001461098f57505050508151838180518101031261098b5761093d8486920161253a565b16855260088352842061010061ff0019825416179055519080828051810103126109875761096b910161253a565b166bffffffffffffffffffffffff60a01b600a541617600a5580f35b8380fd5b8580fd5b6002909794959796939614600014610a6c57505194608086805181010312610a60576109bc82870161254e565b508386015195608060608201519101519682518481805181010312610a68576109e78587920161253a565b16895260088452426001878b20015582518481805181010312610a6857610a108587920161253a565b1689526002868a20015581518381805181010312610a6457610a348486920161253a565b1688526003858920015551908082805181010312610a6057610a56910161253a565b1684528320015580f35b8680fd5b8880fd5b8980fd5b8560196064928588519362461bcd60e51b85528401528201527f696e76616c696420636f6d6d616e642066726f6d204e6f6465000000000000006044820152fd5b8651636a9ff79f60e11b815280840191909152fd5b8a82360312610b01578a5190610ad782611fbd565b8235908b82168203610afc57828e928e9452828501358382015281520191019061086f565b600080fd5b8c80fd5b83604186634e487b7160e01b600052526000fd5b8a80fd5b8b80fd5b6024908551906335fdcccd60e21b82523390820152fd5b50903461024d578260031936011261024d57600154916001600160a01b03918284163303610ba357505082546001600160a01b03198082163390811786559316600155167f8be0079c531659141344cd1fd0a4f28419497f9722a3daafe3b4186f6b6457e08380a380f35b906020606492519162461bcd60e51b8352820152601660248201527526bab9ba10313290383937b837b9b2b21037bbb732b960511b6044820152fd5b5050346102705760203660031901126102705760209181906001600160a01b03610c07611edc565b1681526002845220549051908152f35b8334610464578060031936011261046457610c30612593565b60ff196009541660095580f35b505034610270578160031936011261027057600a5490516001600160a01b039091168152602090f35b50503461027057816003193601126102705760209060ff6009541690519015158152f35b505034610270578160031936011261027057600954905160089190911c6001600160a01b03168152602090f35b92905034611207578060031936011261120757610cd2611f48565b91610cdb611ef2565b82519060206001818401526001600160401b0380961692838682015260018060a01b038093169660608881840152808352610d1583611fd8565b84600a54168a5260088452878a2061ff0019815416905584600a541692838b52888b2054838160101c16937f0000000000000000000000000000000000000000000000000000000000000000168414600014610e0257505050505050600a5416803b1561098b5785928360449286519788958694634bb297ff60e11b865285015260248401525af1908115610df95750610de5575b50505b600a805460098054610100600160a81b031916600883901b610100600160a81b03161790556001600160a01b031916905542600b5580f35b610dee90611faa565b610464578038610daa565b513d84823e3d90fd5b91949a509297985060ff91955095939516156111f057846007541682819360808a51610e2d81611f5e565b828152828d820152828c8201528d8382015201528851978a890152898852610e5488611fbd565b8851610e5f81611f8f565b60008152610e7c8a51610e7181611f8f565b621e8480815261255c565b938a5199610e898b611f5e565b8a528b8a0152898901528701526080860152855163b0f479a160e01b815287818481305afa9081156111e6579085918a916111ac575b501693888751926320487ded60e01b8452898480610ee08b8a8a84016120c4565b03818a5afa9384156111a257908a918395611170575b5060648a51809481936323b872dd60e01b8352338a8401523060248401528860448401525af1908115611166578a91611149575b501561110657600754169086516370a0823160e01b9081815230858201528981602481875afa9081156110fc578b916110cf575b5082116110535750865163095ea7b360e01b81526001600160a01b038616818501908152602081019290925289939290918991839182908790829060400103925af18015611049579188959391610fd29897959361101c575b5086516396f4e9f960e01b81529788958694859384016120c4565b03925af19081156110135750610fea575b5050610dad565b813d831161100c575b610ffd8183611ff3565b81010312610464573880610fe3565b503d610ff3565b513d85823e3d90fd5b61103b90873d8911611042575b6110338183611ff3565b810190612190565b5038610fb7565b503d611029565b87513d85823e3d90fd5b9089888a80879560248451809981938252308a8301525afa9283156110c45792611093575b5051634787a10360e11b815292830152602482015260449150fd5b90915084813d83116110bd575b6110aa8183611ff3565b81010312610afc57604493519085611078565b503d6110a0565b8251903d90823e3d90fd5b90508981813d83116110f5575b6110e68183611ff3565b81010312610afc575138610f5e565b503d6110dc565b89513d8d823e3d90fd5b865162461bcd60e51b8152808401899052601a60248201527f4e6f742070726f7669646564204c696e6b20666f7220666565730000000000006044820152606490fd5b6111609150893d8b11611042576110338183611ff3565b38610f2a565b88513d8c823e3d90fd5b9250935081813d831161119b575b6111888183611ff3565b81010312610afc57888a91519338610ef6565b503d61117e565b89513d84823e3d90fd5b809250898092503d83116111df575b6111c58183611ff3565b81010312610a6457518481168103610a6457849038610ebf565b503d6111bb565b87513d8b823e3d90fd5b8651636a9ff79f60e11b8152808401879052602490fd5b5050fd5b5091346104645760a036600319011261046457611226611f48565b9161122f611ef2565b6001600160a01b03936044358581169190829003610afc5760643590868216809203610afc57608435976001600160401b038911610a605761127a6112f69697989936908301612014565b87519460209a8b97168787015286865261129386611fbd565b885161129e81611f8f565b600081526112bb8a516112b081611f8f565b620f4240815261255c565b928a51976112c889611f5e565b885288880152898701526060860152608085015286516320487ded60e01b81529586948593849384016120c4565b03915afa9283156110c4579261130e575b5051908152f35b9091508281813d8311611336575b6113268183611ff3565b81010312610afc57519038611307565b503d61131c565b5050346102705780600319360112610270576103b76020928261135e611edc565b91338152600386522060018060a01b038216600052845261138560243584600020546121a8565b9033612438565b5050346102705781600319360112610270576020905160128152f35b50829034610270576020928360031936011261024d57600a546001600160a01b039081168452600880865282852054843592911c60ff1615611941573385526002865282852054821161190857825195858188015233848801526060838189015280885261141588611fd8565b33156118bb5733875260028252848720549784891061186d57848899989697983388526002855203878720558488540388558587518681527fddf252ad1be2c89b69c2b068fc378daa952ba7f163c4a11628f55a4df523b3ef853392a383600a5416918287526008845287872054916001600160401b0392838160101c16937f000000000000000000000000000000000000000000000000000000000000000016841460001461151657505050505050600a5416803b1561024d5783516315e005b760e31b8152339581019586526020860192909252909384919082908490829060400103925af1908115610df9575061150d575080f35b61090690611faa565b909295965060ff9193975098939816156111f057846007541682819360808a5161153f81611f5e565b828152828d820152828c8201528d8382015201528851978a89015289885261156688611fbd565b885161157181611f8f565b8b81526115828a51610e7181611f8f565b938a519961158f8b611f5e565b8a528b8a0152898901528701526080860152855163b0f479a160e01b815287818481305afa9081156111e6579085918a91611833575b501693888751926320487ded60e01b84528984806115e68b8a8a84016120c4565b03818a5afa9384156111a257908a918395611802575b5060648a51809481936323b872dd60e01b8352338a8401523060248401528860448401525af1908115611166578a916117e5575b50156111065790889291600754169087516370a0823160e01b9081815230858201528a81602481875afa9081156117db5786916117ae575b50821161172f5750875163095ea7b360e01b81526001600160a01b038716848201908152602081019290925291899183919082908790829060400103925af180156110495791889593916116d898979593611712575086516396f4e9f960e01b81529788958694859384016120c4565b03925af190811561101357506116ed57505080f35b813d831161170b575b6117008183611ff3565b810103126104645780f35b503d6116f6565b61172890873d8911611042576110338183611ff3565b508a610fb7565b899192828a9260248451809481938252308a8301525afa9283156117a4578693611770575b505051634787a10360e11b815292830152602482015260449150fd5b9080929350813d831161179d575b6117888183611ff3565b81010312610909576044945051908580611754565b503d61177e565b82513d88823e3d90fd5b90508a81813d83116117d4575b6117c58183611ff3565b8101031261098b57518c611668565b503d6117bb565b8a513d88823e3d90fd5b6117fc9150893d8b11611042576110338183611ff3565b8a611630565b8281939296503d831161182c575b61181a8183611ff3565b8101031261027057899051938c6115fc565b503d611810565b809250898092503d8311611866575b61184c8183611ff3565b81010312610a6457518481168103610a645784908a6115c5565b503d611842565b855162461bcd60e51b8152808801849052602260248201527f45524332303a206275726e20616d6f756e7420657863656564732062616c616e604482015261636560f01b6064820152608490fd5b845162461bcd60e51b8152808701839052602160248201527f45524332303a206275726e2066726f6d20746865207a65726f206164647265736044820152607360f81b6064820152608490fd5b825162461bcd60e51b815280850187905260136024820152724e6f7420656e6f756768742062616c616e636560681b6044820152606490fd5b825162461bcd60e51b815280850187905260126024820152714e6f6465206973206e6f742041637469766560701b6044820152606490fd5b5082903461027057606036600319011261027057611995611edc565b61199d611ef2565b6001600160a01b038216845260036020908152858520338652905292849020546044359392600182016119d9575b6020866103b7878787612224565b848210611a0257509183916119f7602096956103b795033383612438565b9193948193506119cb565b606490602087519162461bcd60e51b8352820152601d60248201527f45524332303a20696e73756666696369656e7420616c6c6f77616e63650000006044820152fd5b509134610464578160031936011261046457611a5f611edc565b92611a68611ef2565b9060018060a01b03809516928381526008956020968088528683209560018060ff8954851c161515149788611ba2575b5087611b8e575b87611b6f575b87611b38575b87611b1e575b5086611b05575b86611af0575b86611acf575b888789519015158152f35b83528752858220830154931681528490200154119050388080808080611ac4565b80845281895287842085015415159650611abe565b858316845281895287842054821c60ff16159650611ab8565b8684168552828a528885205460ff16151514965038611ab1565b96508286168452818952868885200154610e108101809111611b5c57421096611aab565b634e487b7160e01b855260118652602485fd5b9650808452868885200154610e108101809111611b5c57421096611aa5565b868416855288852081015415159750611a9f565b8101541515975038611a98565b503461024d578260031936011261024d5760209250549051908152f35b5050346102705781600319360112610270576020906001600160401b03611bf16121cb565b915191168152f35b503461024d57606036600319011261024d57611c13611edc565b90602435906001600160401b0382168203610909576044359182151591828403610a6057611c3f612593565b60ff6009541615611cd65750600190818060a01b03851695868852600860205287209261ff0069ffffffffffffffff000085549360101b169269ffffffffffffffffffff19169160081b161717179055611c97578280f35b60098054610100600160a81b03191660089290921b610100600160a81b0316919091179055600a80546001600160a01b03191691909117905538808280f35b606490602087519162461bcd60e51b83528201526015602482015274139bc81b5bdc99481b9bd9195cc8185b1b1bddd959605a1b6044820152fd5b5050346102705780600319360112610270576020906103b7611d31611edc565b6024359033612438565b5091346104645780600319360112610464578151918160055492600184811c91818616958615611dfe575b60209687851081146106c4578899509688969785829a52918260001461069d575050600114611da25750505061063d929161062e910385611ff3565b9190869350600583527f036b6384b5eca791c62761152d0c79bb0604c104a5fb6f4eb0703f3154bb3db05b828410611de6575050508201018161062e61063d61061b565b8054848a018601528895508794909301928101611dcd565b92607f1692611d66565b503461024d578160031936011261024d57611e21611edc565b913384526008602052611e676001600160401b03808387205460101c16907f0000000000000000000000000000000000000000000000000000000000000000161461206a565b338452600860205260ff8185205416156105af578361090660243585612394565b9250503461024d57602036600319011261024d573563ffffffff60e01b811680910361024d57602092506385572ffb60e01b8114908115611ecb575b5015158152f35b6301ffc9a760e01b14905038611ec4565b600435906001600160a01b0382168203610afc57565b602435906001600160a01b0382168203610afc57565b919082519283825260005b848110611f34575050826000602080949584010152601f8019910116010190565b602081830181015184830182015201611f13565b600435906001600160401b0382168203610afc57565b60a081019081106001600160401b03821117611f7957604052565b634e487b7160e01b600052604160045260246000fd5b602081019081106001600160401b03821117611f7957604052565b6001600160401b038111611f7957604052565b604081019081106001600160401b03821117611f7957604052565b608081019081106001600160401b03821117611f7957604052565b90601f801991011681019081106001600160401b03821117611f7957604052565b81601f82011215610afc578035906001600160401b038211611f795760405192612048601f8401601f191660200185611ff3565b82845260208383010111610afc57816000926020809301838601378301015290565b1561207157565b60405162461bcd60e51b815260206004820152602560248201527f52657175697265206d617374657220616e64206e6f646520696e2073616d652060448201526431b430b4b760d91b6064820152608490fd5b906001600160401b0390939293168152604060209181838201526120f3855160a08484015260e0830190611f08565b9161210f8487015193603f199485858303016060860152611f08565b8187015194848483030160808501528080875193848152019601926000905b83821061216757505050505060c06080612164959660018060a01b0360608201511660a085015201519282850301910152611f08565b90565b845180516001600160a01b0316895283015188840152968701969382019360019091019061212e565b90816020910312610afc57518015158103610afc5790565b919082018092116121b557565b634e487b7160e01b600052601160045260246000fd5b600a546001600160a01b039081169081156121fe575060005260086020526001600160401b0360406000205460101c1690565b905060095460081c1660005260086020526001600160401b0360406000205460101c1690565b6001600160a01b0390811691821561234157169182156122f0576000828152600260205260408120549180831061229c57604082827fddf252ad1be2c89b69c2b068fc378daa952ba7f163c4a11628f55a4df523b3ef95876020965260028652038282205586815220818154019055604051908152a3565b60405162461bcd60e51b815260206004820152602660248201527f45524332303a207472616e7366657220616d6f756e7420657863656564732062604482015265616c616e636560d01b6064820152608490fd5b60405162461bcd60e51b815260206004820152602360248201527f45524332303a207472616e7366657220746f20746865207a65726f206164647260448201526265737360e81b6064820152608490fd5b60405162461bcd60e51b815260206004820152602560248201527f45524332303a207472616e736665722066726f6d20746865207a65726f206164604482015264647265737360d81b6064820152608490fd5b6001600160a01b03169081156123f3577fddf252ad1be2c89b69c2b068fc378daa952ba7f163c4a11628f55a4df523b3ef6020826123d66000946004546121a8565b6004558484526002825260408420818154019055604051908152a3565b60405162461bcd60e51b815260206004820152601f60248201527f45524332303a206d696e7420746f20746865207a65726f2061646472657373006044820152606490fd5b6001600160a01b039081169182156124e957169182156124995760207f8c5be1e5ebec7d5bd14f71427d1e84f3dd0314c0f7b2291e5b200ac8c7c3b925918360005260038252604060002085600052825280604060002055604051908152a3565b60405162461bcd60e51b815260206004820152602260248201527f45524332303a20617070726f766520746f20746865207a65726f206164647265604482015261737360f01b6064820152608490fd5b60405162461bcd60e51b8152602060048201526024808201527f45524332303a20617070726f76652066726f6d20746865207a65726f206164646044820152637265737360e01b6064820152608490fd5b51906001600160a01b0382168203610afc57565b519060ff82168203610afc57565b604051906397a657c960e01b602083015251602482015260248152606081018181106001600160401b03821117611f795760405290565b6000546001600160a01b031633036125a757565b60405162461bcd60e51b815260206004820152601660248201527527b7363c9031b0b63630b1363290313c9037bbb732b960511b6044820152606490fdfea2646970667358221220424abf01f28c727fd5118f4ea086fbc62dea9dbd7a02d35b2b65378154e7fdaa64736f6c63430008130033",
  "bytecodeSha1": "5ea6d940dec26062739bc4fda13f3b52b04776e5",
  "compiler": {
    "evm_version": "istanbul",
    "optimizer": {
      "enabled": true,
      "runs": 200
    },
    "version": "0.8.19+commit.7dd6d404"
  },
  "contractName": "MasterNode",
  "language": "Solidity",
  "natspec": {
    "kind": "dev",
    "methods": {
      "acceptOwnership()": {
        "notice": "Allows an ownership transfer to be completed by the recipient."
      },
      "allowance(address,address)": {
        "details": "See {IERC20-allowance}."
      },
      "approve(address,uint256)": {
        "details": "See {IERC20-approve}. NOTE: If `amount` is the maximum `uint256`, the allowance is not updated on `transferFrom`. This is semantically equivalent to an infinite approval. Requirements: - `spender` cannot be the zero address."
      },
      "balanceOf(address)": {
        "details": "See {IERC20-balanceOf}."
      },
      "ccipReceive((bytes32,uint64,bytes,bytes,(address,uint256)[]))": {
        "details": "Note ensure you check the msg.sender is the OffRampRouter",
        "notice": "Called by the Router to deliver a message. If this reverts, any token transfers also revert. The message will move to a FAILED state and become available for manual execution.",
        "params": {
          "message": "CCIP Message"
        }
      },
      "constructor": {
        "notice": "Constructor initializes the contract with the router address.",
        "params": {
          "_link": "The address of the link contract.",
          "_router": "The address of the router contract."
        }
      },
      "decimals()": {
        "details": "Returns the number of decimals used to get its user representation. For example, if `decimals` equals `2`, a balance of `505` tokens should be displayed to a user as `5.05` (`505 / 10 ** 2`). Tokens usually opt for a value of 18, imitating the relationship between Ether and Wei. This is the value {ERC20} uses, unless this function is overridden; NOTE: This information is only used for _display_ purposes: it in no way affects any of the arithmetic of the contract, including {IERC20-balanceOf} and {IERC20-transfer}."
      },
      "decreaseAllowance(address,uint256)": {
        "details": "Atomically decreases the allowance granted to `spender` by the caller. This is an alternative to {approve} that can be used as a mitigation for problems described in {IERC20-approve}. Emits an {Approval} event indicating the updated allowance. Requirements: - `spender` cannot be the zero address. - `spender` must have allowance for the caller of at least `subtractedValue`."
      },
      "getRouter()": {
        "notice": "Return the current router",
        "returns": {
          "_0": "CCIP router address"
        }
      },
      "increaseAllowance(address,uint256)": {
        "details": "Atomically increases the allowance granted to `spender` by the caller. This is an alternative to {approve} that can be used as a mitigation for problems described in {IERC20-approve}. Emits an {Approval} event indicating the updated allowance. Requirements: - `spender` cannot be the zero address."
      },
      "name()": {
        "details": "Returns the name of the token."
      },
      "owner()": {
        "notice": "Get the current owner"
      },
      "supportsInterface(bytes4)": {
        "details": "Should indicate whether the contract implements IAny2EVMMessageReceiver e.g. return interfaceId == type(IAny2EVMMessageReceiver).interfaceId || interfaceId == type(IERC165).interfaceId This allows CCIP to check if ccipReceive is available before calling it. If this returns false or reverts, only tokens are transferred to the receiver. If this returns true, tokens are transferred and ccipReceive is called atomically. Additionally, if the receiver address does not have code associated with it at the time of execution (EXTCODESIZE returns 0), only tokens will be transferred.",
        "notice": "IERC165 supports an interfaceId",
        "params": {
          "interfaceId": "The interfaceId to check"
        },
        "returns": {
          "_0": "true if the interfaceId is supported"
        }
      },
      "symbol()": {
        "details": "Returns the symbol of the token, usually a shorter version of the name."
      },
      "totalSupply()": {
        "details": "See {IERC20-totalSupply}."
      },
      "transfer(address,uint256)": {
        "details": "See {IERC20-transfer}. Requirements: - `to` cannot be the zero address. - the caller must have a balance of at least `amount`."
      },
      "transferFrom(address,address,uint256)": {
        "details": "See {IERC20-transferFrom}. Emits an {Approval} event indicating the updated allowance. This is not required by the EIP. See the note at the beginning of {ERC20}. NOTE: Does not update the allowance if the current allowance is the maximum `uint256`. Requirements: - `from` and `to` cannot be the zero address. - `from` must have a balance of at least `amount`. - the caller must have allowance for ``from``'s tokens of at least `amount`."
      },
      "transferOwnership(address)": {
        "notice": "Allows an owner to begin transferring ownership to a new address."
      }
    },
    "title": "- A simple messenger contract for transferring/receiving tokens and data across chains.",
    "version": 1
  },
  "opcodes": "PUSH1 0x80 PUSH1 0x40 DUP2 DUP2 MSTORE PUSH1 0x4 DUP1 CALLDATASIZE LT ISZERO PUSH2 0x21 JUMPI JUMPDEST POP POP POP CALLDATASIZE ISZERO PUSH2 0x1F JUMPI PUSH1 0x0 DUP1 REVERT JUMPDEST STOP JUMPDEST PUSH1 0x0 SWAP3 DUP4 CALLDATALOAD PUSH1 0xE0 SHR SWAP1 DUP2 PUSH4 0x1FFC9A7 EQ PUSH2 0x1E88 JUMPI POP DUP1 PUSH4 0x4783EA4 EQ PUSH2 0x1E08 JUMPI DUP1 PUSH4 0x6FDDE03 EQ PUSH2 0x1D3B JUMPI DUP1 PUSH4 0x95EA7B3 EQ PUSH2 0x1D11 JUMPI DUP1 PUSH4 0x10A78DF8 EQ PUSH2 0x1BF9 JUMPI DUP1 PUSH4 0x1803C2F5 EQ PUSH2 0x1BCC JUMPI DUP1 PUSH4 0x18160DDD EQ PUSH2 0x1BAF JUMPI DUP1 PUSH4 0x1D880928 EQ PUSH2 0x1A45 JUMPI DUP1 PUSH4 0x23B872DD EQ PUSH2 0x1979 JUMPI DUP1 PUSH4 0x2E1A7D4D EQ PUSH2 0x13A8 JUMPI DUP1 PUSH4 0x313CE567 EQ PUSH2 0x138C JUMPI DUP1 PUSH4 0x39509351 EQ PUSH2 0x133D JUMPI DUP1 PUSH4 0x544B1709 EQ PUSH2 0x120B JUMPI DUP4 DUP2 PUSH4 0x5C292BE5 EQ PUSH2 0xCB7 JUMPI POP DUP1 PUSH4 0x61AC3F99 EQ PUSH2 0xC8A JUMPI DUP1 PUSH4 0x654E8E0C EQ PUSH2 0xC66 JUMPI DUP1 PUSH4 0x6C1DC077 EQ PUSH2 0xC3D JUMPI DUP1 PUSH4 0x6C98D513 EQ PUSH2 0xC17 JUMPI DUP1 PUSH4 0x70A08231 EQ PUSH2 0xBDF JUMPI DUP1 PUSH4 0x79BA5097 EQ PUSH2 0xB38 JUMPI DUP1 PUSH4 0x85572FFB EQ PUSH2 0x74D JUMPI DUP1 PUSH4 0x8CF19D19 EQ PUSH2 0x709 JUMPI DUP1 PUSH4 0x8DA5CB5B EQ PUSH2 0x6E1 JUMPI DUP1 PUSH4 0x95D89B41 EQ PUSH2 0x5C6 JUMPI DUP1 PUSH4 0x9637120F EQ PUSH2 0x51B JUMPI DUP1 PUSH4 0x995714AE EQ PUSH2 0x467 JUMPI DUP1 PUSH4 0xA457C2D7 EQ PUSH2 0x3BE JUMPI DUP1 PUSH4 0xA9059CBB EQ PUSH2 0x38D JUMPI DUP1 PUSH4 0xB0F479A1 EQ PUSH2 0x349 JUMPI DUP1 PUSH4 0xB2D92955 EQ PUSH2 0x2C2 JUMPI DUP1 PUSH4 0xDD62ED3E EQ PUSH2 0x274 JUMPI DUP1 PUSH4 0xE12B948B EQ PUSH2 0x251 JUMPI PUSH4 0xF2FDE38B SUB PUSH2 0x11 JUMPI CALLVALUE PUSH2 0x24D JUMPI PUSH1 0x20 CALLDATASIZE PUSH1 0x3 NOT ADD SLT PUSH2 0x24D JUMPI PUSH2 0x1B0 PUSH2 0x1EDC JUMP JUMPDEST SWAP1 PUSH2 0x1B9 PUSH2 0x2593 JUMP JUMPDEST PUSH1 0x1 PUSH1 0x1 PUSH1 0xA0 SHL SUB SWAP2 DUP3 AND SWAP3 CALLER DUP5 EQ PUSH2 0x20A JUMPI POP POP PUSH1 0x1 DUP1 SLOAD PUSH1 0x1 PUSH1 0x1 PUSH1 0xA0 SHL SUB NOT AND DUP4 OR SWAP1 SSTORE DUP3 SLOAD AND PUSH32 0xED8889F560326EB138920D842192F0EB3DD22B4F139C87A2C57538E05BAE1278 DUP4 DUP1 LOG3 DUP1 RETURN JUMPDEST SWAP1 PUSH1 0x20 PUSH1 0x64 SWAP3 MLOAD SWAP2 PUSH3 0x461BCD PUSH1 0xE5 SHL DUP4 MSTORE DUP3 ADD MSTORE PUSH1 0x17 PUSH1 0x24 DUP3 ADD MSTORE PUSH32 0x43616E6E6F74207472616E7366657220746F2073656C66000000000000000000 PUSH1 0x44 DUP3 ADD MSTORE REVERT JUMPDEST DUP3 DUP1 REVERT JUMPDEST POP POP CALLVALUE PUSH2 0x270 JUMPI DUP2 PUSH1 0x3 NOT CALLDATASIZE ADD SLT PUSH2 0x270 JUMPI PUSH1 0x20 SWAP1 PUSH1 0xB SLOAD SWAP1 MLOAD SWAP1 DUP2 MSTORE RETURN JUMPDEST POP DUP1 REVERT JUMPDEST POP POP CALLVALUE PUSH2 0x270 JUMPI DUP1 PUSH1 0x3 NOT CALLDATASIZE ADD SLT PUSH2 0x270 JUMPI PUSH1 0x20 SWAP2 PUSH2 0x291 PUSH2 0x1EDC JUMP JUMPDEST DUP3 PUSH2 0x29A PUSH2 0x1EF2 JUMP JUMPDEST PUSH1 0x1 PUSH1 0x1 PUSH1 0xA0 SHL SUB SWAP3 DUP4 AND DUP5 MSTORE PUSH1 0x3 DUP7 MSTORE SWAP3 KECCAK256 SWAP2 AND PUSH1 0x0 SWAP1 DUP2 MSTORE SWAP1 DUP4 MSTORE DUP2 SWAP1 KECCAK256 SLOAD SWAP1 MLOAD SWAP1 DUP2 MSTORE RETURN JUMPDEST POP SWAP1 CALLVALUE PUSH2 0x24D JUMPI PUSH1 0x20 CALLDATASIZE PUSH1 0x3 NOT ADD SLT PUSH2 0x24D JUMPI PUSH1 0xE0 SWAP3 DUP2 SWAP1 PUSH1 0x1 PUSH1 0x1 PUSH1 0xA0 SHL SUB PUSH2 0x2EA PUSH2 0x1EDC JUMP JUMPDEST AND DUP2 MSTORE PUSH1 0x8 PUSH1 0x20 MSTORE KECCAK256 DUP1 SLOAD SWAP3 PUSH1 0x1 DUP3 ADD SLOAD PUSH1 0x2 DUP4 ADD SLOAD SWAP2 PUSH1 0x3 DUP5 ADD SLOAD SWAP4 ADD SLOAD SWAP4 PUSH1 0x1 PUSH1 0x1 PUSH1 0x40 SHL SUB DUP2 MLOAD SWAP7 PUSH1 0xFF DUP2 AND ISZERO ISZERO DUP9 MSTORE PUSH1 0xFF DUP2 PUSH1 0x8 SHR AND ISZERO ISZERO PUSH1 0x20 DUP10 ADD MSTORE PUSH1 0x10 SHR AND SWAP1 DUP7 ADD MSTORE PUSH1 0x60 DUP6 ADD MSTORE PUSH1 0x80 DUP5 ADD MSTORE PUSH1 0xA0 DUP4 ADD MSTORE PUSH1 0xC0 DUP3 ADD MSTORE RETURN JUMPDEST POP POP CALLVALUE PUSH2 0x270 JUMPI DUP2 PUSH1 0x3 NOT CALLDATASIZE ADD SLT PUSH2 0x270 JUMPI MLOAD PUSH32 0x0 PUSH1 0x1 PUSH1 0x1 PUSH1 0xA0 SHL SUB AND DUP2 MSTORE PUSH1 0x20 SWAP1 RETURN JUMPDEST POP POP CALLVALUE PUSH2 0x270 JUMPI DUP1 PUSH1 0x3 NOT CALLDATASIZE ADD SLT PUSH2 0x270 JUMPI PUSH1 0x20 SWAP1 PUSH2 0x3B7 PUSH2 0x3AD PUSH2 0x1EDC JUMP JUMPDEST PUSH1 0x24 CALLDATALOAD SWAP1 CALLER PUSH2 0x2224 JUMP JUMPDEST MLOAD PUSH1 0x1 DUP2 MSTORE RETURN JUMPDEST POP DUP3 CALLVALUE PUSH2 0x464 JUMPI DUP3 PUSH1 0x3 NOT CALLDATASIZE ADD SLT PUSH2 0x464 JUMPI PUSH2 0x3D8 PUSH2 0x1EDC JUMP JUMPDEST SWAP2 DUP4 PUSH1 0x24 CALLDATALOAD SWAP3 CALLER DUP2 MSTORE PUSH1 0x3 PUSH1 0x20 MSTORE KECCAK256 PUSH1 0x1 DUP1 PUSH1 0xA0 SHL SUB DUP5 AND PUSH1 0x0 MSTORE PUSH1 0x20 MSTORE DUP4 PUSH1 0x0 KECCAK256 SLOAD SWAP1 DUP3 DUP3 LT PUSH2 0x413 JUMPI PUSH1 0x20 DUP6 PUSH2 0x3B7 DUP6 DUP6 SUB DUP8 CALLER PUSH2 0x2438 JUMP JUMPDEST PUSH1 0x84 SWAP1 PUSH1 0x20 DUP7 MLOAD SWAP2 PUSH3 0x461BCD PUSH1 0xE5 SHL DUP4 MSTORE DUP3 ADD MSTORE PUSH1 0x25 PUSH1 0x24 DUP3 ADD MSTORE PUSH32 0x45524332303A2064656372656173656420616C6C6F77616E63652062656C6F77 PUSH1 0x44 DUP3 ADD MSTORE PUSH5 0x207A65726F PUSH1 0xD8 SHL PUSH1 0x64 DUP3 ADD MSTORE REVERT JUMPDEST DUP1 REVERT JUMPDEST POP CALLVALUE PUSH2 0x24D JUMPI DUP3 PUSH1 0x3 NOT CALLDATASIZE ADD SLT PUSH2 0x24D JUMPI CALLER DUP4 MSTORE PUSH1 0x8 PUSH1 0x20 MSTORE PUSH2 0x4BD PUSH1 0x1 PUSH1 0x1 PUSH1 0x40 SHL SUB DUP1 DUP5 DUP7 KECCAK256 SLOAD PUSH1 0x10 SHR AND SWAP1 PUSH32 0x0 AND EQ PUSH2 0x206A JUMP JUMPDEST CALLER DUP4 MSTORE PUSH1 0x8 PUSH1 0x20 MSTORE PUSH1 0xFF DUP3 DUP5 KECCAK256 SLOAD AND ISZERO PUSH2 0x505 JUMPI POP CALLER DUP3 MSTORE PUSH1 0x8 PUSH1 0x20 MSTORE DUP2 KECCAK256 PUSH2 0x100 PUSH2 0xFF00 NOT DUP3 SLOAD AND OR SWAP1 SSTORE CALLER PUSH12 0xFFFFFFFFFFFFFFFFFFFFFFFF PUSH1 0xA0 SHL PUSH1 0xA SLOAD AND OR PUSH1 0xA SSTORE DUP1 RETURN JUMPDEST PUSH1 0x24 SWAP2 MLOAD SWAP1 PUSH4 0x6A9FF79F PUSH1 0xE1 SHL DUP3 MSTORE CALLER SWAP1 DUP3 ADD MSTORE REVERT JUMPDEST POP SWAP1 CALLVALUE PUSH2 0x24D JUMPI PUSH1 0x60 CALLDATASIZE PUSH1 0x3 NOT ADD SLT PUSH2 0x24D JUMPI CALLER DUP4 MSTORE PUSH1 0x8 PUSH1 0x20 MSTORE PUSH2 0x573 PUSH1 0x1 PUSH1 0x1 PUSH1 0x40 SHL SUB DUP1 DUP4 DUP7 KECCAK256 SLOAD PUSH1 0x10 SHR AND SWAP1 PUSH32 0x0 AND EQ PUSH2 0x206A JUMP JUMPDEST CALLER DUP4 MSTORE PUSH1 0x8 PUSH1 0x20 MSTORE PUSH1 0xFF DUP2 DUP5 KECCAK256 SLOAD AND ISZERO PUSH2 0x5AF JUMPI CALLER DUP4 MSTORE PUSH1 0x8 PUSH1 0x20 MSTORE DUP3 KECCAK256 TIMESTAMP PUSH1 0x1 DUP3 ADD SSTORE DUP2 CALLDATALOAD PUSH1 0x2 DUP3 ADD SSTORE PUSH1 0x24 CALLDATALOAD PUSH1 0x3 DUP3 ADD SSTORE PUSH1 0x44 CALLDATALOAD SWAP2 ADD SSTORE DUP1 RETURN JUMPDEST PUSH1 0x24 SWAP3 POP MLOAD SWAP1 PUSH4 0x6A9FF79F PUSH1 0xE1 SHL DUP3 MSTORE CALLER SWAP1 DUP3 ADD MSTORE REVERT JUMPDEST POP SWAP2 CALLVALUE PUSH2 0x464 JUMPI DUP1 PUSH1 0x3 NOT CALLDATASIZE ADD SLT PUSH2 0x464 JUMPI DUP2 MLOAD SWAP2 DUP2 PUSH1 0x6 SLOAD SWAP3 PUSH1 0x1 DUP5 DUP2 SHR SWAP2 DUP2 DUP7 AND SWAP6 DUP7 ISZERO PUSH2 0x6D7 JUMPI JUMPDEST PUSH1 0x20 SWAP7 DUP8 DUP6 LT DUP2 EQ PUSH2 0x6C4 JUMPI DUP9 SWAP10 POP SWAP7 DUP9 SWAP7 SWAP8 DUP6 DUP3 SWAP11 MSTORE SWAP2 DUP3 PUSH1 0x0 EQ PUSH2 0x69D JUMPI POP POP PUSH1 0x1 EQ PUSH2 0x641 JUMPI JUMPDEST POP POP POP PUSH2 0x63D SWAP3 SWAP2 PUSH2 0x62E SWAP2 SUB DUP6 PUSH2 0x1FF3 JUMP JUMPDEST MLOAD SWAP3 DUP3 DUP5 SWAP4 DUP5 MSTORE DUP4 ADD SWAP1 PUSH2 0x1F08 JUMP JUMPDEST SUB SWAP1 RETURN JUMPDEST SWAP2 SWAP1 DUP7 SWAP4 POP PUSH1 0x6 DUP4 MSTORE PUSH32 0xF652222313E28459528D920B65115C16C04F3EFC82AAEDC97BE59F3F377C0D3F JUMPDEST DUP3 DUP5 LT PUSH2 0x685 JUMPI POP POP POP DUP3 ADD ADD DUP2 PUSH2 0x62E PUSH2 0x63D PUSH2 0x61B JUMP JUMPDEST DUP1 SLOAD DUP5 DUP11 ADD DUP7 ADD MSTORE DUP9 SWAP6 POP DUP8 SWAP5 SWAP1 SWAP4 ADD SWAP3 DUP2 ADD PUSH2 0x66C JUMP JUMPDEST PUSH1 0xFF NOT AND DUP8 DUP3 ADD MSTORE SWAP4 ISZERO ISZERO PUSH1 0x5 SHL DUP7 ADD SWAP1 SWAP4 ADD SWAP4 POP DUP5 SWAP3 POP PUSH2 0x62E SWAP2 POP PUSH2 0x63D SWAP1 POP PUSH2 0x61B JUMP JUMPDEST PUSH4 0x4E487B71 PUSH1 0xE0 SHL DUP4 MSTORE PUSH1 0x22 DUP11 MSTORE PUSH1 0x24 DUP4 REVERT JUMPDEST SWAP3 PUSH1 0x7F AND SWAP3 PUSH2 0x5F1 JUMP JUMPDEST POP POP CALLVALUE PUSH2 0x270 JUMPI DUP2 PUSH1 0x3 NOT CALLDATASIZE ADD SLT PUSH2 0x270 JUMPI SWAP1 SLOAD SWAP1 MLOAD PUSH1 0x1 PUSH1 0x1 PUSH1 0xA0 SHL SUB SWAP1 SWAP2 AND DUP2 MSTORE PUSH1 0x20 SWAP1 RETURN JUMPDEST POP POP CALLVALUE PUSH2 0x270 JUMPI DUP2 PUSH1 0x3 NOT CALLDATASIZE ADD SLT PUSH2 0x270 JUMPI PUSH1 0x20 SWAP1 MLOAD PUSH1 0x1 PUSH1 0x1 PUSH1 0x40 SHL SUB PUSH32 0x0 AND DUP2 MSTORE RETURN JUMPDEST POP SWAP1 CALLVALUE PUSH2 0x24D JUMPI PUSH1 0x20 SWAP2 PUSH1 0x3 NOT DUP4 DUP2 CALLDATASIZE ADD SLT PUSH2 0x909 JUMPI DUP2 CALLDATALOAD SWAP1 PUSH1 0x1 PUSH1 0x1 PUSH1 0x40 SHL SUB SWAP1 DUP2 DUP4 GT PUSH2 0xA60 JUMPI PUSH1 0xA0 SWAP1 DUP4 CALLDATASIZE SUB ADD SLT PUSH2 0x98B JUMPI PUSH1 0x1 PUSH1 0x1 PUSH1 0xA0 SHL SUB SWAP3 PUSH32 0x0 DUP5 AND CALLER SUB PUSH2 0xB21 JUMPI DUP5 MLOAD SWAP2 PUSH2 0x7C0 DUP4 PUSH2 0x1F5E JUMP JUMPDEST DUP4 DUP3 ADD CALLDATALOAD DUP4 MSTORE PUSH1 0x24 SWAP1 DUP2 DUP6 ADD CALLDATALOAD DUP2 DUP2 AND DUP2 SUB PUSH2 0xAFC JUMPI DUP9 DUP6 ADD MSTORE PUSH1 0x44 DUP6 ADD CALLDATALOAD DUP2 DUP2 GT PUSH2 0xA68 JUMPI PUSH2 0x7F5 SWAP1 DUP5 CALLDATASIZE SWAP2 DUP9 ADD ADD PUSH2 0x2014 JUMP JUMPDEST SWAP4 DUP8 DUP2 ADD SWAP5 DUP6 MSTORE PUSH1 0x64 DUP7 ADD CALLDATALOAD DUP3 DUP2 GT PUSH2 0xB19 JUMPI PUSH2 0x817 SWAP1 DUP6 CALLDATASIZE SWAP2 DUP10 ADD ADD PUSH2 0x2014 JUMP JUMPDEST SWAP6 PUSH1 0x60 DUP3 ADD SWAP7 DUP8 MSTORE PUSH1 0x84 DUP2 ADD CALLDATALOAD SWAP1 DUP4 DUP3 GT PUSH2 0xB1D JUMPI ADD CALLDATASIZE PUSH1 0x23 DUP3 ADD SLT ISZERO PUSH2 0xB19 JUMPI DUP5 DUP2 ADD CALLDATALOAD SWAP3 DUP4 GT PUSH2 0xB05 JUMPI DUP9 MLOAD SWAP3 PUSH2 0x855 DUP12 DUP3 PUSH1 0x5 SHL ADD DUP6 PUSH2 0x1FF3 JUMP JUMPDEST DUP1 DUP5 MSTORE DUP5 DUP12 DUP6 ADD SWAP2 PUSH1 0x6 SHL DUP4 ADD ADD SWAP2 CALLDATASIZE DUP4 GT PUSH2 0xB01 JUMPI DUP6 ADD SWAP1 JUMPDEST DUP3 DUP3 LT PUSH2 0xAC2 JUMPI POP POP POP PUSH1 0x80 ADD MSTORE DUP3 MLOAD DUP8 DUP2 DUP1 MLOAD DUP2 ADD SUB SLT PUSH2 0xA64 JUMPI PUSH2 0x897 DUP9 DUP8 SWAP3 ADD PUSH2 0x253A JUMP JUMPDEST AND DUP1 DUP10 MSTORE PUSH1 0x8 DUP9 MSTORE PUSH1 0xFF DUP8 DUP11 KECCAK256 SLOAD AND ISZERO PUSH2 0xAAD JUMPI POP DUP4 MLOAD DUP8 DUP2 DUP1 MLOAD DUP2 ADD SUB SLT PUSH2 0xA64 JUMPI PUSH2 0x8C7 DUP9 PUSH1 0xFF SWAP3 ADD PUSH2 0x254E JUMP JUMPDEST AND DUP1 PUSH2 0x90D JUMPI POP POP POP POP MLOAD SWAP2 PUSH1 0x60 DUP4 DUP1 MLOAD DUP2 ADD SUB SLT PUSH2 0x909 JUMPI PUSH2 0x8FC PUSH1 0x60 SWAP2 PUSH2 0x8F4 PUSH2 0x906 SWAP7 DUP7 ADD PUSH2 0x254E JUMP JUMPDEST POP DUP5 ADD PUSH2 0x253A JUMP JUMPDEST SWAP3 ADD MLOAD SWAP2 AND PUSH2 0x2394 JUMP JUMPDEST DUP1 RETURN JUMPDEST DUP5 DUP1 REVERT JUMPDEST PUSH1 0x1 DUP2 SWAP9 SWAP8 SWAP6 SWAP4 SWAP5 SWAP7 SWAP9 EQ PUSH1 0x0 EQ PUSH2 0x98F JUMPI POP POP POP POP DUP2 MLOAD DUP4 DUP2 DUP1 MLOAD DUP2 ADD SUB SLT PUSH2 0x98B JUMPI PUSH2 0x93D DUP5 DUP7 SWAP3 ADD PUSH2 0x253A JUMP JUMPDEST AND DUP6 MSTORE PUSH1 0x8 DUP4 MSTORE DUP5 KECCAK256 PUSH2 0x100 PUSH2 0xFF00 NOT DUP3 SLOAD AND OR SWAP1 SSTORE MLOAD SWAP1 DUP1 DUP3 DUP1 MLOAD DUP2 ADD SUB SLT PUSH2 0x987 JUMPI PUSH2 0x96B SWAP2 ADD PUSH2 0x253A JUMP JUMPDEST AND PUSH12 0xFFFFFFFFFFFFFFFFFFFFFFFF PUSH1 0xA0 SHL PUSH1 0xA SLOAD AND OR PUSH1 0xA SSTORE DUP1 RETURN JUMPDEST DUP4 DUP1 REVERT JUMPDEST DUP6 DUP1 REVERT JUMPDEST PUSH1 0x2 SWAP1 SWAP8 SWAP5 SWAP6 SWAP8 SWAP7 SWAP4 SWAP7 EQ PUSH1 0x0 EQ PUSH2 0xA6C JUMPI POP MLOAD SWAP5 PUSH1 0x80 DUP7 DUP1 MLOAD DUP2 ADD SUB SLT PUSH2 0xA60 JUMPI PUSH2 0x9BC DUP3 DUP8 ADD PUSH2 0x254E JUMP JUMPDEST POP DUP4 DUP7 ADD MLOAD SWAP6 PUSH1 0x80 PUSH1 0x60 DUP3 ADD MLOAD SWAP2 ADD MLOAD SWAP7 DUP3 MLOAD DUP5 DUP2 DUP1 MLOAD DUP2 ADD SUB SLT PUSH2 0xA68 JUMPI PUSH2 0x9E7 DUP6 DUP8 SWAP3 ADD PUSH2 0x253A JUMP JUMPDEST AND DUP10 MSTORE PUSH1 0x8 DUP5 MSTORE TIMESTAMP PUSH1 0x1 DUP8 DUP12 KECCAK256 ADD SSTORE DUP3 MLOAD DUP5 DUP2 DUP1 MLOAD DUP2 ADD SUB SLT PUSH2 0xA68 JUMPI PUSH2 0xA10 DUP6 DUP8 SWAP3 ADD PUSH2 0x253A JUMP JUMPDEST AND DUP10 MSTORE PUSH1 0x2 DUP7 DUP11 KECCAK256 ADD SSTORE DUP2 MLOAD DUP4 DUP2 DUP1 MLOAD DUP2 ADD SUB SLT PUSH2 0xA64 JUMPI PUSH2 0xA34 DUP5 DUP7 SWAP3 ADD PUSH2 0x253A JUMP JUMPDEST AND DUP9 MSTORE PUSH1 0x3 DUP6 DUP10 KECCAK256 ADD SSTORE MLOAD SWAP1 DUP1 DUP3 DUP1 MLOAD DUP2 ADD SUB SLT PUSH2 0xA60 JUMPI PUSH2 0xA56 SWAP2 ADD PUSH2 0x253A JUMP JUMPDEST AND DUP5 MSTORE DUP4 KECCAK256 ADD SSTORE DUP1 RETURN JUMPDEST DUP7 DUP1 REVERT JUMPDEST DUP9 DUP1 REVERT JUMPDEST DUP10 DUP1 REVERT JUMPDEST DUP6 PUSH1 0x19 PUSH1 0x64 SWAP3 DUP6 DUP9 MLOAD SWAP4 PUSH3 0x461BCD PUSH1 0xE5 SHL DUP6 MSTORE DUP5 ADD MSTORE DUP3 ADD MSTORE PUSH32 0x696E76616C696420636F6D6D616E642066726F6D204E6F646500000000000000 PUSH1 0x44 DUP3 ADD MSTORE REVERT JUMPDEST DUP7 MLOAD PUSH4 0x6A9FF79F PUSH1 0xE1 SHL DUP2 MSTORE DUP1 DUP5 ADD SWAP2 SWAP1 SWAP2 MSTORE REVERT JUMPDEST DUP11 DUP3 CALLDATASIZE SUB SLT PUSH2 0xB01 JUMPI DUP11 MLOAD SWAP1 PUSH2 0xAD7 DUP3 PUSH2 0x1FBD JUMP JUMPDEST DUP3 CALLDATALOAD SWAP1 DUP12 DUP3 AND DUP3 SUB PUSH2 0xAFC JUMPI DUP3 DUP15 SWAP3 DUP15 SWAP5 MSTORE DUP3 DUP6 ADD CALLDATALOAD DUP4 DUP3 ADD MSTORE DUP2 MSTORE ADD SWAP2 ADD SWAP1 PUSH2 0x86F JUMP JUMPDEST PUSH1 0x0 DUP1 REVERT JUMPDEST DUP13 DUP1 REVERT JUMPDEST DUP4 PUSH1 0x41 DUP7 PUSH4 0x4E487B71 PUSH1 0xE0 SHL PUSH1 0x0 MSTORE MSTORE PUSH1 0x0 REVERT JUMPDEST DUP11 DUP1 REVERT JUMPDEST DUP12 DUP1 REVERT JUMPDEST PUSH1 0x24 SWAP1 DUP6 MLOAD SWAP1 PUSH4 0x35FDCCCD PUSH1 0xE2 SHL DUP3 MSTORE CALLER SWAP1 DUP3 ADD MSTORE REVERT JUMPDEST POP SWAP1 CALLVALUE PUSH2 0x24D JUMPI DUP3 PUSH1 0x3 NOT CALLDATASIZE ADD SLT PUSH2 0x24D JUMPI PUSH1 0x1 SLOAD SWAP2 PUSH1 0x1 PUSH1 0x1 PUSH1 0xA0 SHL SUB SWAP2 DUP3 DUP5 AND CALLER SUB PUSH2 0xBA3 JUMPI POP POP DUP3 SLOAD PUSH1 0x1 PUSH1 0x1 PUSH1 0xA0 SHL SUB NOT DUP1 DUP3 AND CALLER SWAP1 DUP2 OR DUP7 SSTORE SWAP4 AND PUSH1 0x1 SSTORE AND PUSH32 0x8BE0079C531659141344CD1FD0A4F28419497F9722A3DAAFE3B4186F6B6457E0 DUP4 DUP1 LOG3 DUP1 RETURN JUMPDEST SWAP1 PUSH1 0x20 PUSH1 0x64 SWAP3 MLOAD SWAP2 PUSH3 0x461BCD PUSH1 0xE5 SHL DUP4 MSTORE DUP3 ADD MSTORE PUSH1 0x16 PUSH1 0x24 DUP3 ADD MSTORE PUSH22 0x26BAB9BA10313290383937B837B9B2B21037BBB732B9 PUSH1 0x51 SHL PUSH1 0x44 DUP3 ADD MSTORE REVERT JUMPDEST POP POP CALLVALUE PUSH2 0x270 JUMPI PUSH1 0x20 CALLDATASIZE PUSH1 0x3 NOT ADD SLT PUSH2 0x270 JUMPI PUSH1 0x20 SWAP2 DUP2 SWAP1 PUSH1 0x1 PUSH1 0x1 PUSH1 0xA0 SHL SUB PUSH2 0xC07 PUSH2 0x1EDC JUMP JUMPDEST AND DUP2 MSTORE PUSH1 0x2 DUP5 MSTORE KECCAK256 SLOAD SWAP1 MLOAD SWAP1 DUP2 MSTORE RETURN JUMPDEST DUP4 CALLVALUE PUSH2 0x464 JUMPI DUP1 PUSH1 0x3 NOT CALLDATASIZE ADD SLT PUSH2 0x464 JUMPI PUSH2 0xC30 PUSH2 0x2593 JUMP JUMPDEST PUSH1 0xFF NOT PUSH1 0x9 SLOAD AND PUSH1 0x9 SSTORE DUP1 RETURN JUMPDEST POP POP CALLVALUE PUSH2 0x270 JUMPI DUP2 PUSH1 0x3 NOT CALLDATASIZE ADD SLT PUSH2 0x270 JUMPI PUSH1 0xA SLOAD SWAP1 MLOAD PUSH1 0x1 PUSH1 0x1 PUSH1 0xA0 SHL SUB SWAP1 SWAP2 AND DUP2 MSTORE PUSH1 0x20 SWAP1 RETURN JUMPDEST POP POP CALLVALUE PUSH2 0x270 JUMPI DUP2 PUSH1 0x3 NOT CALLDATASIZE ADD SLT PUSH2 0x270 JUMPI PUSH1 0x20 SWAP1 PUSH1 0xFF PUSH1 0x9 SLOAD AND SWAP1 MLOAD SWAP1 ISZERO ISZERO DUP2 MSTORE RETURN JUMPDEST POP POP CALLVALUE PUSH2 0x270 JUMPI DUP2 PUSH1 0x3 NOT CALLDATASIZE ADD SLT PUSH2 0x270 JUMPI PUSH1 0x9 SLOAD SWAP1 MLOAD PUSH1 0x8 SWAP2 SWAP1 SWAP2 SHR PUSH1 0x1 PUSH1 0x1 PUSH1 0xA0 SHL SUB AND DUP2 MSTORE PUSH1 0x20 SWAP1 RETURN JUMPDEST SWAP3 SWAP1 POP CALLVALUE PUSH2 0x1207 JUMPI DUP1 PUSH1 0x3 NOT CALLDATASIZE ADD SLT PUSH2 0x1207 JUMPI PUSH2 0xCD2 PUSH2 0x1F48 JUMP JUMPDEST SWAP2 PUSH2 0xCDB PUSH2 0x1EF2 JUMP JUMPDEST DUP3 MLOAD SWAP1 PUSH1 0x20 PUSH1 0x1 DUP2 DUP5 ADD MSTORE PUSH1 0x1 PUSH1 0x1 PUSH1 0x40 SHL SUB DUP1 SWAP7 AND SWAP3 DUP4 DUP7 DUP3 ADD MSTORE PUSH1 0x1 DUP1 PUSH1 0xA0 SHL SUB DUP1 SWAP4 AND SWAP7 PUSH1 0x60 DUP9 DUP2 DUP5 ADD MSTORE DUP1 DUP4 MSTORE PUSH2 0xD15 DUP4 PUSH2 0x1FD8 JUMP JUMPDEST DUP5 PUSH1 0xA SLOAD AND DUP11 MSTORE PUSH1 0x8 DUP5 MSTORE DUP8 DUP11 KECCAK256 PUSH2 0xFF00 NOT DUP2 SLOAD AND SWAP1 SSTORE DUP5 PUSH1 0xA SLOAD AND SWAP3 DUP4 DUP12 MSTORE DUP9 DUP12 KECCAK256 SLOAD DUP4 DUP2 PUSH1 0x10 SHR AND SWAP4 PUSH32 0x0 AND DUP5 EQ PUSH1 0x0 EQ PUSH2 0xE02 JUMPI POP POP POP POP POP POP PUSH1 0xA SLOAD AND DUP1 EXTCODESIZE ISZERO PUSH2 0x98B JUMPI DUP6 SWAP3 DUP4 PUSH1 0x44 SWAP3 DUP7 MLOAD SWAP8 DUP9 SWAP6 DUP7 SWAP5 PUSH4 0x4BB297FF PUSH1 0xE1 SHL DUP7 MSTORE DUP6 ADD MSTORE PUSH1 0x24 DUP5 ADD MSTORE GAS CALL SWAP1 DUP2 ISZERO PUSH2 0xDF9 JUMPI POP PUSH2 0xDE5 JUMPI JUMPDEST POP POP JUMPDEST PUSH1 0xA DUP1 SLOAD PUSH1 0x9 DUP1 SLOAD PUSH2 0x100 PUSH1 0x1 PUSH1 0xA8 SHL SUB NOT AND PUSH1 0x8 DUP4 SWAP1 SHL PUSH2 0x100 PUSH1 0x1 PUSH1 0xA8 SHL SUB AND OR SWAP1 SSTORE PUSH1 0x1 PUSH1 0x1 PUSH1 0xA0 SHL SUB NOT AND SWAP1 SSTORE TIMESTAMP PUSH1 0xB SSTORE DUP1 RETURN JUMPDEST PUSH2 0xDEE SWAP1 PUSH2 0x1FAA JUMP JUMPDEST PUSH2 0x464 JUMPI DUP1 CODESIZE PUSH2 0xDAA JUMP JUMPDEST MLOAD RETURNDATASIZE DUP5 DUP3 RETURNDATACOPY RETURNDATASIZE SWAP1 REVERT JUMPDEST SWAP2 SWAP5 SWAP11 POP SWAP3 SWAP8 SWAP9 POP PUSH1 0xFF SWAP2 SWAP6 POP SWAP6 SWAP4 SWAP6 AND ISZERO PUSH2 0x11F0 JUMPI DUP5 PUSH1 0x7 SLOAD AND DUP3 DUP2 SWAP4 PUSH1 0x80 DUP11 MLOAD PUSH2 0xE2D DUP2 PUSH2 0x1F5E JUMP JUMPDEST DUP3 DUP2 MSTORE DUP3 DUP14 DUP3 ADD MSTORE DUP3 DUP13 DUP3 ADD MSTORE DUP14 DUP4 DUP3 ADD MSTORE ADD MSTORE DUP9 MLOAD SWAP8 DUP11 DUP10 ADD MSTORE DUP10 DUP9 MSTORE PUSH2 0xE54 DUP9 PUSH2 0x1FBD JUMP JUMPDEST DUP9 MLOAD PUSH2 0xE5F DUP2 PUSH2 0x1F8F JUMP JUMPDEST PUSH1 0x0 DUP2 MSTORE PUSH2 0xE7C DUP11 MLOAD PUSH2 0xE71 DUP2 PUSH2 0x1F8F JUMP JUMPDEST PUSH3 0x1E8480 DUP2 MSTORE PUSH2 0x255C JUMP JUMPDEST SWAP4 DUP11 MLOAD SWAP10 PUSH2 0xE89 DUP12 PUSH2 0x1F5E JUMP JUMPDEST DUP11 MSTORE DUP12 DUP11 ADD MSTORE DUP10 DUP10 ADD MSTORE DUP8 ADD MSTORE PUSH1 0x80 DUP7 ADD MSTORE DUP6 MLOAD PUSH4 0xB0F479A1 PUSH1 0xE0 SHL DUP2 MSTORE DUP8 DUP2 DUP5 DUP2 ADDRESS GAS STATICCALL SWAP1 DUP2 ISZERO PUSH2 0x11E6 JUMPI SWAP1 DUP6 SWAP2 DUP11 SWAP2 PUSH2 0x11AC JUMPI JUMPDEST POP AND SWAP4 DUP9 DUP8 MLOAD SWAP3 PUSH4 0x20487DED PUSH1 0xE0 SHL DUP5 MSTORE DUP10 DUP5 DUP1 PUSH2 0xEE0 DUP12 DUP11 DUP11 DUP5 ADD PUSH2 0x20C4 JUMP JUMPDEST SUB DUP2 DUP11 GAS STATICCALL SWAP4 DUP5 ISZERO PUSH2 0x11A2 JUMPI SWAP1 DUP11 SWAP2 DUP4 SWAP6 PUSH2 0x1170 JUMPI JUMPDEST POP PUSH1 0x64 DUP11 MLOAD DUP1 SWAP5 DUP2 SWAP4 PUSH4 0x23B872DD PUSH1 0xE0 SHL DUP4 MSTORE CALLER DUP11 DUP5 ADD MSTORE ADDRESS PUSH1 0x24 DUP5 ADD MSTORE DUP9 PUSH1 0x44 DUP5 ADD MSTORE GAS CALL SWAP1 DUP2 ISZERO PUSH2 0x1166 JUMPI DUP11 SWAP2 PUSH2 0x1149 JUMPI JUMPDEST POP ISZERO PUSH2 0x1106 JUMPI PUSH1 0x7 SLOAD AND SWAP1 DUP7 MLOAD PUSH4 0x70A08231 PUSH1 0xE0 SHL SWAP1 DUP2 DUP2 MSTORE ADDRESS DUP6 DUP3 ADD MSTORE DUP10 DUP2 PUSH1 0x24 DUP2 DUP8 GAS STATICCALL SWAP1 DUP2 ISZERO PUSH2 0x10FC JUMPI DUP12 SWAP2 PUSH2 0x10CF JUMPI JUMPDEST POP DUP3 GT PUSH2 0x1053 JUMPI POP DUP7 MLOAD PUSH4 0x95EA7B3 PUSH1 0xE0 SHL DUP2 MSTORE PUSH1 0x1 PUSH1 0x1 PUSH1 0xA0 SHL SUB DUP7 AND DUP2 DUP6 ADD SWAP1 DUP2 MSTORE PUSH1 0x20 DUP2 ADD SWAP3 SWAP1 SWAP3 MSTORE DUP10 SWAP4 SWAP3 SWAP1 SWAP2 DUP10 SWAP2 DUP4 SWAP2 DUP3 SWAP1 DUP8 SWAP1 DUP3 SWAP1 PUSH1 0x40 ADD SUB SWAP3 GAS CALL DUP1 ISZERO PUSH2 0x1049 JUMPI SWAP2 DUP9 SWAP6 SWAP4 SWAP2 PUSH2 0xFD2 SWAP9 SWAP8 SWAP6 SWAP4 PUSH2 0x101C JUMPI JUMPDEST POP DUP7 MLOAD PUSH4 0x96F4E9F9 PUSH1 0xE0 SHL DUP2 MSTORE SWAP8 DUP9 SWAP6 DUP7 SWAP5 DUP6 SWAP4 DUP5 ADD PUSH2 0x20C4 JUMP JUMPDEST SUB SWAP3 GAS CALL SWAP1 DUP2 ISZERO PUSH2 0x1013 JUMPI POP PUSH2 0xFEA JUMPI JUMPDEST POP POP PUSH2 0xDAD JUMP JUMPDEST DUP2 RETURNDATASIZE DUP4 GT PUSH2 0x100C JUMPI JUMPDEST PUSH2 0xFFD DUP2 DUP4 PUSH2 0x1FF3 JUMP JUMPDEST DUP2 ADD SUB SLT PUSH2 0x464 JUMPI CODESIZE DUP1 PUSH2 0xFE3 JUMP JUMPDEST POP RETURNDATASIZE PUSH2 0xFF3 JUMP JUMPDEST MLOAD RETURNDATASIZE DUP6 DUP3 RETURNDATACOPY RETURNDATASIZE SWAP1 REVERT JUMPDEST PUSH2 0x103B SWAP1 DUP8 RETURNDATASIZE DUP10 GT PUSH2 0x1042 JUMPI JUMPDEST PUSH2 0x1033 DUP2 DUP4 PUSH2 0x1FF3 JUMP JUMPDEST DUP2 ADD SWAP1 PUSH2 0x2190 JUMP JUMPDEST POP CODESIZE PUSH2 0xFB7 JUMP JUMPDEST POP RETURNDATASIZE PUSH2 0x1029 JUMP JUMPDEST DUP8 MLOAD RETURNDATASIZE DUP6 DUP3 RETURNDATACOPY RETURNDATASIZE SWAP1 REVERT JUMPDEST SWAP1 DUP10 DUP9 DUP11 DUP1 DUP8 SWAP6 PUSH1 0x24 DUP5 MLOAD DUP1 SWAP10 DUP2 SWAP4 DUP3 MSTORE ADDRESS DUP11 DUP4 ADD MSTORE GAS STATICCALL SWAP3 DUP4 ISZERO PUSH2 0x10C4 JUMPI SWAP3 PUSH2 0x1093 JUMPI JUMPDEST POP MLOAD PUSH4 0x4787A103 PUSH1 0xE1 SHL DUP2 MSTORE SWAP3 DUP4 ADD MSTORE PUSH1 0x24 DUP3 ADD MSTORE PUSH1 0x44 SWAP2 POP REVERT JUMPDEST SWAP1 SWAP2 POP DUP5 DUP2 RETURNDATASIZE DUP4 GT PUSH2 0x10BD JUMPI JUMPDEST PUSH2 0x10AA DUP2 DUP4 PUSH2 0x1FF3 JUMP JUMPDEST DUP2 ADD SUB SLT PUSH2 0xAFC JUMPI PUSH1 0x44 SWAP4 MLOAD SWAP1 DUP6 PUSH2 0x1078 JUMP JUMPDEST POP RETURNDATASIZE PUSH2 0x10A0 JUMP JUMPDEST DUP3 MLOAD SWAP1 RETURNDATASIZE SWAP1 DUP3 RETURNDATACOPY RETURNDATASIZE SWAP1 REVERT JUMPDEST SWAP1 POP DUP10 DUP2 DUP2 RETURNDATASIZE DUP4 GT PUSH2 0x10F5 JUMPI JUMPDEST PUSH2 0x10E6 DUP2 DUP4 PUSH2 0x1FF3 JUMP JUMPDEST DUP2 ADD SUB SLT PUSH2 0xAFC JUMPI MLOAD CODESIZE PUSH2 0xF5E JUMP JUMPDEST POP RETURNDATASIZE PUSH2 0x10DC JUMP JUMPDEST DUP10 MLOAD RETURNDATASIZE DUP14 DUP3 RETURNDATACOPY RETURNDATASIZE SWAP1 REVERT JUMPDEST DUP7 MLOAD PUSH3 0x461BCD PUSH1 0xE5 SHL DUP2 MSTORE DUP1 DUP5 ADD DUP10 SWAP1 MSTORE PUSH1 0x1A PUSH1 0x24 DUP3 ADD MSTORE PUSH32 0x4E6F742070726F7669646564204C696E6B20666F722066656573000000000000 PUSH1 0x44 DUP3 ADD MSTORE PUSH1 0x64 SWAP1 REVERT JUMPDEST PUSH2 0x1160 SWAP2 POP DUP10 RETURNDATASIZE DUP12 GT PUSH2 0x1042 JUMPI PUSH2 0x1033 DUP2 DUP4 PUSH2 0x1FF3 JUMP JUMPDEST CODESIZE PUSH2 0xF2A JUMP JUMPDEST DUP9 MLOAD RETURNDATASIZE DUP13 DUP3 RETURNDATACOPY RETURNDATASIZE SWAP1 REVERT JUMPDEST SWAP3 POP SWAP4 POP DUP2 DUP2 RETURNDATASIZE DUP4 GT PUSH2 0x119B JUMPI JUMPDEST PUSH2 0x1188 DUP2 DUP4 PUSH2 0x1FF3 JUMP JUMPDEST DUP2 ADD SUB SLT PUSH2 0xAFC JUMPI DUP9 DUP11 SWAP2 MLOAD SWAP4 CODESIZE PUSH2 0xEF6 JUMP JUMPDEST POP RETURNDATASIZE PUSH2 0x117E JUMP JUMPDEST DUP10 MLOAD RETURNDATASIZE DUP5 DUP3 RETURNDATACOPY RETURNDATASIZE SWAP1 REVERT JUMPDEST DUP1 SWAP3 POP DUP10 DUP1 SWAP3 POP RETURNDATASIZE DUP4 GT PUSH2 0x11DF JUMPI JUMPDEST PUSH2 0x11C5 DUP2 DUP4 PUSH2 0x1FF3 JUMP JUMPDEST DUP2 ADD SUB SLT PUSH2 0xA64 JUMPI MLOAD DUP5 DUP2 AND DUP2 SUB PUSH2 0xA64 JUMPI DUP5 SWAP1 CODESIZE PUSH2 0xEBF JUMP JUMPDEST POP RETURNDATASIZE PUSH2 0x11BB JUMP JUMPDEST DUP8 MLOAD RETURNDATASIZE DUP12 DUP3 RETURNDATACOPY RETURNDATASIZE SWAP1 REVERT JUMPDEST DUP7 MLOAD PUSH4 0x6A9FF79F PUSH1 0xE1 SHL DUP2 MSTORE DUP1 DUP5 ADD DUP8 SWAP1 MSTORE PUSH1 0x24 SWAP1 REVERT JUMPDEST POP POP REVERT JUMPDEST POP SWAP2 CALLVALUE PUSH2 0x464 JUMPI PUSH1 0xA0 CALLDATASIZE PUSH1 0x3 NOT ADD SLT PUSH2 0x464 JUMPI PUSH2 0x1226 PUSH2 0x1F48 JUMP JUMPDEST SWAP2 PUSH2 0x122F PUSH2 0x1EF2 JUMP JUMPDEST PUSH1 0x1 PUSH1 0x1 PUSH1 0xA0 SHL SUB SWAP4 PUSH1 0x44 CALLDATALOAD DUP6 DUP2 AND SWAP2 SWAP1 DUP3 SWAP1 SUB PUSH2 0xAFC JUMPI PUSH1 0x64 CALLDATALOAD SWAP1 DUP7 DUP3 AND DUP1 SWAP3 SUB PUSH2 0xAFC JUMPI PUSH1 0x84 CALLDATALOAD SWAP8 PUSH1 0x1 PUSH1 0x1 PUSH1 0x40 SHL SUB DUP10 GT PUSH2 0xA60 JUMPI PUSH2 0x127A PUSH2 0x12F6 SWAP7 SWAP8 SWAP9 SWAP10 CALLDATASIZE SWAP1 DUP4 ADD PUSH2 0x2014 JUMP JUMPDEST DUP8 MLOAD SWAP5 PUSH1 0x20 SWAP11 DUP12 SWAP8 AND DUP8 DUP8 ADD MSTORE DUP7 DUP7 MSTORE PUSH2 0x1293 DUP7 PUSH2 0x1FBD JUMP JUMPDEST DUP9 MLOAD PUSH2 0x129E DUP2 PUSH2 0x1F8F JUMP JUMPDEST PUSH1 0x0 DUP2 MSTORE PUSH2 0x12BB DUP11 MLOAD PUSH2 0x12B0 DUP2 PUSH2 0x1F8F JUMP JUMPDEST PUSH3 0xF4240 DUP2 MSTORE PUSH2 0x255C JUMP JUMPDEST SWAP3 DUP11 MLOAD SWAP8 PUSH2 0x12C8 DUP10 PUSH2 0x1F5E JUMP JUMPDEST DUP9 MSTORE DUP9 DUP9 ADD MSTORE DUP10 DUP8 ADD MSTORE PUSH1 0x60 DUP7 ADD MSTORE PUSH1 0x80 DUP6 ADD MSTORE DUP7 MLOAD PUSH4 0x20487DED PUSH1 0xE0 SHL DUP2 MSTORE SWAP6 DUP7 SWAP5 DUP6 SWAP4 DUP5 SWAP4 DUP5 ADD PUSH2 0x20C4 JUMP JUMPDEST SUB SWAP2 GAS STATICCALL SWAP3 DUP4 ISZERO PUSH2 0x10C4 JUMPI SWAP3 PUSH2 0x130E JUMPI JUMPDEST POP MLOAD SWAP1 DUP2 MSTORE RETURN JUMPDEST SWAP1 SWAP2 POP DUP3 DUP2 DUP2 RETURNDATASIZE DUP4 GT PUSH2 0x1336 JUMPI JUMPDEST PUSH2 0x1326 DUP2 DUP4 PUSH2 0x1FF3 JUMP JUMPDEST DUP2 ADD SUB SLT PUSH2 0xAFC JUMPI MLOAD SWAP1 CODESIZE PUSH2 0x1307 JUMP JUMPDEST POP RETURNDATASIZE PUSH2 0x131C JUMP JUMPDEST POP POP CALLVALUE PUSH2 0x270 JUMPI DUP1 PUSH1 0x3 NOT CALLDATASIZE ADD SLT PUSH2 0x270 JUMPI PUSH2 0x3B7 PUSH1 0x20 SWAP3 DUP3 PUSH2 0x135E PUSH2 0x1EDC JUMP JUMPDEST SWAP2 CALLER DUP2 MSTORE PUSH1 0x3 DUP7 MSTORE KECCAK256 PUSH1 0x1 DUP1 PUSH1 0xA0 SHL SUB DUP3 AND PUSH1 0x0 MSTORE DUP5 MSTORE PUSH2 0x1385 PUSH1 0x24 CALLDATALOAD DUP5 PUSH1 0x0 KECCAK256 SLOAD PUSH2 0x21A8 JUMP JUMPDEST SWAP1 CALLER PUSH2 0x2438 JUMP JUMPDEST POP POP CALLVALUE PUSH2 0x270 JUMPI DUP2 PUSH1 0x3 NOT CALLDATASIZE ADD SLT PUSH2 0x270 JUMPI PUSH1 0x20 SWAP1 MLOAD PUSH1 0x12 DUP2 MSTORE RETURN JUMPDEST POP DUP3 SWAP1 CALLVALUE PUSH2 0x270 JUMPI PUSH1 0x20 SWAP3 DUP4 PUSH1 0x3 NOT CALLDATASIZE ADD SLT PUSH2 0x24D JUMPI PUSH1 0xA SLOAD PUSH1 0x1 PUSH1 0x1 PUSH1 0xA0 SHL SUB SWAP1 DUP2 AND DUP5 MSTORE PUSH1 0x8 DUP1 DUP7 MSTORE DUP3 DUP6 KECCAK256 SLOAD DUP5 CALLDATALOAD SWAP3 SWAP2 SHR PUSH1 0xFF AND ISZERO PUSH2 0x1941 JUMPI CALLER DUP6 MSTORE PUSH1 0x2 DUP7 MSTORE DUP3 DUP6 KECCAK256 SLOAD DUP3 GT PUSH2 0x1908 JUMPI DUP3 MLOAD SWAP6 DUP6 DUP2 DUP9 ADD MSTORE CALLER DUP5 DUP9 ADD MSTORE PUSH1 0x60 DUP4 DUP2 DUP10 ADD MSTORE DUP1 DUP9 MSTORE PUSH2 0x1415 DUP9 PUSH2 0x1FD8 JUMP JUMPDEST CALLER ISZERO PUSH2 0x18BB JUMPI CALLER DUP8 MSTORE PUSH1 0x2 DUP3 MSTORE DUP5 DUP8 KECCAK256 SLOAD SWAP8 DUP5 DUP10 LT PUSH2 0x186D JUMPI DUP5 DUP9 SWAP10 SWAP9 SWAP7 SWAP8 SWAP9 CALLER DUP9 MSTORE PUSH1 0x2 DUP6 MSTORE SUB DUP8 DUP8 KECCAK256 SSTORE DUP5 DUP9 SLOAD SUB DUP9 SSTORE DUP6 DUP8 MLOAD DUP7 DUP2 MSTORE PUSH32 0xDDF252AD1BE2C89B69C2B068FC378DAA952BA7F163C4A11628F55A4DF523B3EF DUP6 CALLER SWAP3 LOG3 DUP4 PUSH1 0xA SLOAD AND SWAP2 DUP3 DUP8 MSTORE PUSH1 0x8 DUP5 MSTORE DUP8 DUP8 KECCAK256 SLOAD SWAP2 PUSH1 0x1 PUSH1 0x1 PUSH1 0x40 SHL SUB SWAP3 DUP4 DUP2 PUSH1 0x10 SHR AND SWAP4 PUSH32 0x0 AND DUP5 EQ PUSH1 0x0 EQ PUSH2 0x1516 JUMPI POP POP POP POP POP POP PUSH1 0xA SLOAD AND DUP1 EXTCODESIZE ISZERO PUSH2 0x24D JUMPI DUP4 MLOAD PUSH4 0x15E005B7 PUSH1 0xE3 SHL DUP2 MSTORE CALLER SWAP6 DUP2 ADD SWAP6 DUP7 MSTORE PUSH1 0x20 DUP7 ADD SWAP3 SWAP1 SWAP3 MSTORE SWAP1 SWAP4 DUP5 SWAP2 SWAP1 DUP3 SWAP1 DUP5 SWAP1 DUP3 SWAP1 PUSH1 0x40 ADD SUB SWAP3 GAS CALL SWAP1 DUP2 ISZERO PUSH2 0xDF9 JUMPI POP PUSH2 0x150D JUMPI POP DUP1 RETURN JUMPDEST PUSH2 0x906 SWAP1 PUSH2 0x1FAA JUMP JUMPDEST SWAP1 SWAP3 SWAP6 SWAP7 POP PUSH1 0xFF SWAP2 SWAP4 SWAP8 POP SWAP9 SWAP4 SWAP9 AND ISZERO PUSH2 0x11F0 JUMPI DUP5 PUSH1 0x7 SLOAD AND DUP3 DUP2 SWAP4 PUSH1 0x80 DUP11 MLOAD PUSH2 0x153F DUP2 PUSH2 0x1F5E JUMP JUMPDEST DUP3 DUP2 MSTORE DUP3 DUP14 DUP3 ADD MSTORE DUP3 DUP13 DUP3 ADD MSTORE DUP14 DUP4 DUP3 ADD MSTORE ADD MSTORE DUP9 MLOAD SWAP8 DUP11 DUP10 ADD MSTORE DUP10 DUP9 MSTORE PUSH2 0x1566 DUP9 PUSH2 0x1FBD JUMP JUMPDEST DUP9 MLOAD PUSH2 0x1571 DUP2 PUSH2 0x1F8F JUMP JUMPDEST DUP12 DUP2 MSTORE PUSH2 0x1582 DUP11 MLOAD PUSH2 0xE71 DUP2 PUSH2 0x1F8F JUMP JUMPDEST SWAP4 DUP11 MLOAD SWAP10 PUSH2 0x158F DUP12 PUSH2 0x1F5E JUMP JUMPDEST DUP11 MSTORE DUP12 DUP11 ADD MSTORE DUP10 DUP10 ADD MSTORE DUP8 ADD MSTORE PUSH1 0x80 DUP7 ADD MSTORE DUP6 MLOAD PUSH4 0xB0F479A1 PUSH1 0xE0 SHL DUP2 MSTORE DUP8 DUP2 DUP5 DUP2 ADDRESS GAS STATICCALL SWAP1 DUP2 ISZERO PUSH2 0x11E6 JUMPI SWAP1 DUP6 SWAP2 DUP11 SWAP2 PUSH2 0x1833 JUMPI JUMPDEST POP AND SWAP4 DUP9 DUP8 MLOAD SWAP3 PUSH4 0x20487DED PUSH1 0xE0 SHL DUP5 MSTORE DUP10 DUP5 DUP1 PUSH2 0x15E6 DUP12 DUP11 DUP11 DUP5 ADD PUSH2 0x20C4 JUMP JUMPDEST SUB DUP2 DUP11 GAS STATICCALL SWAP4 DUP5 ISZERO PUSH2 0x11A2 JUMPI SWAP1 DUP11 SWAP2 DUP4 SWAP6 PUSH2 0x1802 JUMPI JUMPDEST POP PUSH1 0x64 DUP11 MLOAD DUP1 SWAP5 DUP2 SWAP4 PUSH4 0x23B872DD PUSH1 0xE0 SHL DUP4 MSTORE CALLER DUP11 DUP5 ADD MSTORE ADDRESS PUSH1 0x24 DUP5 ADD MSTORE DUP9 PUSH1 0x44 DUP5 ADD MSTORE GAS CALL SWAP1 DUP2 ISZERO PUSH2 0x1166 JUMPI DUP11 SWAP2 PUSH2 0x17E5 JUMPI JUMPDEST POP ISZERO PUSH2 0x1106 JUMPI SWAP1 DUP9 SWAP3 SWAP2 PUSH1 0x7 SLOAD AND SWAP1 DUP8 MLOAD PUSH4 0x70A08231 PUSH1 0xE0 SHL SWAP1 DUP2 DUP2 MSTORE ADDRESS DUP6 DUP3 ADD MSTORE DUP11 DUP2 PUSH1 0x24 DUP2 DUP8 GAS STATICCALL SWAP1 DUP2 ISZERO PUSH2 0x17DB JUMPI DUP7 SWAP2 PUSH2 0x17AE JUMPI JUMPDEST POP DUP3 GT PUSH2 0x172F JUMPI POP DUP8 MLOAD PUSH4 0x95EA7B3 PUSH1 0xE0 SHL DUP2 MSTORE PUSH1 0x1 PUSH1 0x1 PUSH1 0xA0 SHL SUB DUP8 AND DUP5 DUP3 ADD SWAP1 DUP2 MSTORE PUSH1 0x20 DUP2 ADD SWAP3 SWAP1 SWAP3 MSTORE SWAP2 DUP10 SWAP2 DUP4 SWAP2 SWAP1 DUP3 SWAP1 DUP8 SWAP1 DUP3 SWAP1 PUSH1 0x40 ADD SUB SWAP3 GAS CALL DUP1 ISZERO PUSH2 0x1049 JUMPI SWAP2 DUP9 SWAP6 SWAP4 SWAP2 PUSH2 0x16D8 SWAP9 SWAP8 SWAP6 SWAP4 PUSH2 0x1712 JUMPI POP DUP7 MLOAD PUSH4 0x96F4E9F9 PUSH1 0xE0 SHL DUP2 MSTORE SWAP8 DUP9 SWAP6 DUP7 SWAP5 DUP6 SWAP4 DUP5 ADD PUSH2 0x20C4 JUMP JUMPDEST SUB SWAP3 GAS CALL SWAP1 DUP2 ISZERO PUSH2 0x1013 JUMPI POP PUSH2 0x16ED JUMPI POP POP DUP1 RETURN JUMPDEST DUP2 RETURNDATASIZE DUP4 GT PUSH2 0x170B JUMPI JUMPDEST PUSH2 0x1700 DUP2 DUP4 PUSH2 0x1FF3 JUMP JUMPDEST DUP2 ADD SUB SLT PUSH2 0x464 JUMPI DUP1 RETURN JUMPDEST POP RETURNDATASIZE PUSH2 0x16F6 JUMP JUMPDEST PUSH2 0x1728 SWAP1 DUP8 RETURNDATASIZE DUP10 GT PUSH2 0x1042 JUMPI PUSH2 0x1033 DUP2 DUP4 PUSH2 0x1FF3 JUMP JUMPDEST POP DUP11 PUSH2 0xFB7 JUMP JUMPDEST DUP10 SWAP2 SWAP3 DUP3 DUP11 SWAP3 PUSH1 0x24 DUP5 MLOAD DUP1 SWAP5 DUP2 SWAP4 DUP3 MSTORE ADDRESS DUP11 DUP4 ADD MSTORE GAS STATICCALL SWAP3 DUP4 ISZERO PUSH2 0x17A4 JUMPI DUP7 SWAP4 PUSH2 0x1770 JUMPI JUMPDEST POP POP MLOAD PUSH4 0x4787A103 PUSH1 0xE1 SHL DUP2 MSTORE SWAP3 DUP4 ADD MSTORE PUSH1 0x24 DUP3 ADD MSTORE PUSH1 0x44 SWAP2 POP REVERT JUMPDEST SWAP1 DUP1 SWAP3 SWAP4 POP DUP2 RETURNDATASIZE DUP4 GT PUSH2 0x179D JUMPI JUMPDEST PUSH2 0x1788 DUP2 DUP4 PUSH2 0x1FF3 JUMP JUMPDEST DUP2 ADD SUB SLT PUSH2 0x909 JUMPI PUSH1 0x44 SWAP5 POP MLOAD SWAP1 DUP6 DUP1 PUSH2 0x1754 JUMP JUMPDEST POP RETURNDATASIZE PUSH2 0x177E JUMP JUMPDEST DUP3 MLOAD RETURNDATASIZE DUP9 DUP3 RETURNDATACOPY RETURNDATASIZE SWAP1 REVERT JUMPDEST SWAP1 POP DUP11 DUP2 DUP2 RETURNDATASIZE DUP4 GT PUSH2 0x17D4 JUMPI JUMPDEST PUSH2 0x17C5 DUP2 DUP4 PUSH2 0x1FF3 JUMP JUMPDEST DUP2 ADD SUB SLT PUSH2 0x98B JUMPI MLOAD DUP13 PUSH2 0x1668 JUMP JUMPDEST POP RETURNDATASIZE PUSH2 0x17BB JUMP JUMPDEST DUP11 MLOAD RETURNDATASIZE DUP9 DUP3 RETURNDATACOPY RETURNDATASIZE SWAP1 REVERT JUMPDEST PUSH2 0x17FC SWAP2 POP DUP10 RETURNDATASIZE DUP12 GT PUSH2 0x1042 JUMPI PUSH2 0x1033 DUP2 DUP4 PUSH2 0x1FF3 JUMP JUMPDEST DUP11 PUSH2 0x1630 JUMP JUMPDEST DUP3 DUP2 SWAP4 SWAP3 SWAP7 POP RETURNDATASIZE DUP4 GT PUSH2 0x182C JUMPI JUMPDEST PUSH2 0x181A DUP2 DUP4 PUSH2 0x1FF3 JUMP JUMPDEST DUP2 ADD SUB SLT PUSH2 0x270 JUMPI DUP10 SWAP1 MLOAD SWAP4 DUP13 PUSH2 0x15FC JUMP JUMPDEST POP RETURNDATASIZE PUSH2 0x1810 JUMP JUMPDEST DUP1 SWAP3 POP DUP10 DUP1 SWAP3 POP RETURNDATASIZE DUP4 GT PUSH2 0x1866 JUMPI JUMPDEST PUSH2 0x184C DUP2 DUP4 PUSH2 0x1FF3 JUMP JUMPDEST DUP2 ADD SUB SLT PUSH2 0xA64 JUMPI MLOAD DUP5 DUP2 AND DUP2 SUB PUSH2 0xA64 JUMPI DUP5 SWAP1 DUP11 PUSH2 0x15C5 JUMP JUMPDEST POP RETURNDATASIZE PUSH2 0x1842 JUMP JUMPDEST DUP6 MLOAD PUSH3 0x461BCD PUSH1 0xE5 SHL DUP2 MSTORE DUP1 DUP9 ADD DUP5 SWAP1 MSTORE PUSH1 0x22 PUSH1 0x24 DUP3 ADD MSTORE PUSH32 0x45524332303A206275726E20616D6F756E7420657863656564732062616C616E PUSH1 0x44 DUP3 ADD MSTORE PUSH2 0x6365 PUSH1 0xF0 SHL PUSH1 0x64 DUP3 ADD MSTORE PUSH1 0x84 SWAP1 REVERT JUMPDEST DUP5 MLOAD PUSH3 0x461BCD PUSH1 0xE5 SHL DUP2 MSTORE DUP1 DUP8 ADD DUP4 SWAP1 MSTORE PUSH1 0x21 PUSH1 0x24 DUP3 ADD MSTORE PUSH32 0x45524332303A206275726E2066726F6D20746865207A65726F20616464726573 PUSH1 0x44 DUP3 ADD MSTORE PUSH1 0x73 PUSH1 0xF8 SHL PUSH1 0x64 DUP3 ADD MSTORE PUSH1 0x84 SWAP1 REVERT JUMPDEST DUP3 MLOAD PUSH3 0x461BCD PUSH1 0xE5 SHL DUP2 MSTORE DUP1 DUP6 ADD DUP8 SWAP1 MSTORE PUSH1 0x13 PUSH1 0x24 DUP3 ADD MSTORE PUSH19 0x4E6F7420656E6F756768742062616C616E6365 PUSH1 0x68 SHL PUSH1 0x44 DUP3 ADD MSTORE PUSH1 0x64 SWAP1 REVERT JUMPDEST DUP3 MLOAD PUSH3 0x461BCD PUSH1 0xE5 SHL DUP2 MSTORE DUP1 DUP6 ADD DUP8 SWAP1 MSTORE PUSH1 0x12 PUSH1 0x24 DUP3 ADD MSTORE PUSH18 0x4E6F6465206973206E6F7420416374697665 PUSH1 0x70 SHL PUSH1 0x44 DUP3 ADD MSTORE PUSH1 0x64 SWAP1 REVERT JUMPDEST POP DUP3 SWAP1 CALLVALUE PUSH2 0x270 JUMPI PUSH1 0x60 CALLDATASIZE PUSH1 0x3 NOT ADD SLT PUSH2 0x270 JUMPI PUSH2 0x1995 PUSH2 0x1EDC JUMP JUMPDEST PUSH2 0x199D PUSH2 0x1EF2 JUMP JUMPDEST PUSH1 0x1 PUSH1 0x1 PUSH1 0xA0 SHL SUB DUP3 AND DUP5 MSTORE PUSH1 0x3 PUSH1 0x20 SWAP1 DUP2 MSTORE DUP6 DUP6 KECCAK256 CALLER DUP7 MSTORE SWAP1 MSTORE SWAP3 DUP5 SWAP1 KECCAK256 SLOAD PUSH1 0x44 CALLDATALOAD SWAP4 SWAP3 PUSH1 0x1 DUP3 ADD PUSH2 0x19D9 JUMPI JUMPDEST PUSH1 0x20 DUP7 PUSH2 0x3B7 DUP8 DUP8 DUP8 PUSH2 0x2224 JUMP JUMPDEST DUP5 DUP3 LT PUSH2 0x1A02 JUMPI POP SWAP2 DUP4 SWAP2 PUSH2 0x19F7 PUSH1 0x20 SWAP7 SWAP6 PUSH2 0x3B7 SWAP6 SUB CALLER DUP4 PUSH2 0x2438 JUMP JUMPDEST SWAP2 SWAP4 SWAP5 DUP2 SWAP4 POP PUSH2 0x19CB JUMP JUMPDEST PUSH1 0x64 SWAP1 PUSH1 0x20 DUP8 MLOAD SWAP2 PUSH3 0x461BCD PUSH1 0xE5 SHL DUP4 MSTORE DUP3 ADD MSTORE PUSH1 0x1D PUSH1 0x24 DUP3 ADD MSTORE PUSH32 0x45524332303A20696E73756666696369656E7420616C6C6F77616E6365000000 PUSH1 0x44 DUP3 ADD MSTORE REVERT JUMPDEST POP SWAP2 CALLVALUE PUSH2 0x464 JUMPI DUP2 PUSH1 0x3 NOT CALLDATASIZE ADD SLT PUSH2 0x464 JUMPI PUSH2 0x1A5F PUSH2 0x1EDC JUMP JUMPDEST SWAP3 PUSH2 0x1A68 PUSH2 0x1EF2 JUMP JUMPDEST SWAP1 PUSH1 0x1 DUP1 PUSH1 0xA0 SHL SUB DUP1 SWAP6 AND SWAP3 DUP4 DUP2 MSTORE PUSH1 0x8 SWAP6 PUSH1 0x20 SWAP7 DUP1 DUP9 MSTORE DUP7 DUP4 KECCAK256 SWAP6 PUSH1 0x1 DUP1 PUSH1 0xFF DUP10 SLOAD DUP6 SHR AND ISZERO ISZERO EQ SWAP8 DUP9 PUSH2 0x1BA2 JUMPI JUMPDEST POP DUP8 PUSH2 0x1B8E JUMPI JUMPDEST DUP8 PUSH2 0x1B6F JUMPI JUMPDEST DUP8 PUSH2 0x1B38 JUMPI JUMPDEST DUP8 PUSH2 0x1B1E JUMPI JUMPDEST POP DUP7 PUSH2 0x1B05 JUMPI JUMPDEST DUP7 PUSH2 0x1AF0 JUMPI JUMPDEST DUP7 PUSH2 0x1ACF JUMPI JUMPDEST DUP9 DUP8 DUP10 MLOAD SWAP1 ISZERO ISZERO DUP2 MSTORE RETURN JUMPDEST DUP4 MSTORE DUP8 MSTORE DUP6 DUP3 KECCAK256 DUP4 ADD SLOAD SWAP4 AND DUP2 MSTORE DUP5 SWAP1 KECCAK256 ADD SLOAD GT SWAP1 POP CODESIZE DUP1 DUP1 DUP1 DUP1 DUP1 PUSH2 0x1AC4 JUMP JUMPDEST DUP1 DUP5 MSTORE DUP2 DUP10 MSTORE DUP8 DUP5 KECCAK256 DUP6 ADD SLOAD ISZERO ISZERO SWAP7 POP PUSH2 0x1ABE JUMP JUMPDEST DUP6 DUP4 AND DUP5 MSTORE DUP2 DUP10 MSTORE DUP8 DUP5 KECCAK256 SLOAD DUP3 SHR PUSH1 0xFF AND ISZERO SWAP7 POP PUSH2 0x1AB8 JUMP JUMPDEST DUP7 DUP5 AND DUP6 MSTORE DUP3 DUP11 MSTORE DUP9 DUP6 KECCAK256 SLOAD PUSH1 0xFF AND ISZERO ISZERO EQ SWAP7 POP CODESIZE PUSH2 0x1AB1 JUMP JUMPDEST SWAP7 POP DUP3 DUP7 AND DUP5 MSTORE DUP2 DUP10 MSTORE DUP7 DUP9 DUP6 KECCAK256 ADD SLOAD PUSH2 0xE10 DUP2 ADD DUP1 SWAP2 GT PUSH2 0x1B5C JUMPI TIMESTAMP LT SWAP7 PUSH2 0x1AAB JUMP JUMPDEST PUSH4 0x4E487B71 PUSH1 0xE0 SHL DUP6 MSTORE PUSH1 0x11 DUP7 MSTORE PUSH1 0x24 DUP6 REVERT JUMPDEST SWAP7 POP DUP1 DUP5 MSTORE DUP7 DUP9 DUP6 KECCAK256 ADD SLOAD PUSH2 0xE10 DUP2 ADD DUP1 SWAP2 GT PUSH2 0x1B5C JUMPI TIMESTAMP LT SWAP7 PUSH2 0x1AA5 JUMP JUMPDEST DUP7 DUP5 AND DUP6 MSTORE DUP9 DUP6 KECCAK256 DUP2 ADD SLOAD ISZERO ISZERO SWAP8 POP PUSH2 0x1A9F JUMP JUMPDEST DUP2 ADD SLOAD ISZERO ISZERO SWAP8 POP CODESIZE PUSH2 0x1A98 JUMP JUMPDEST POP CALLVALUE PUSH2 0x24D JUMPI DUP3 PUSH1 0x3 NOT CALLDATASIZE ADD SLT PUSH2 0x24D JUMPI PUSH1 0x20 SWAP3 POP SLOAD SWAP1 MLOAD SWAP1 DUP2 MSTORE RETURN JUMPDEST POP POP CALLVALUE PUSH2 0x270 JUMPI DUP2 PUSH1 0x3 NOT CALLDATASIZE ADD SLT PUSH2 0x270 JUMPI PUSH1 0x20 SWAP1 PUSH1 0x1 PUSH1 0x1 PUSH1 0x40 SHL SUB PUSH2 0x1BF1 PUSH2 0x21CB JUMP JUMPDEST SWAP2 MLOAD SWAP2 AND DUP2 MSTORE RETURN JUMPDEST POP CALLVALUE PUSH2 0x24D JUMPI PUSH1 0x60 CALLDATASIZE PUSH1 0x3 NOT ADD SLT PUSH2 0x24D JUMPI PUSH2 0x1C13 PUSH2 0x1EDC JUMP JUMPDEST SWAP1 PUSH1 0x24 CALLDATALOAD SWAP1 PUSH1 0x1 PUSH1 0x1 PUSH1 0x40 SHL SUB DUP3 AND DUP3 SUB PUSH2 0x909 JUMPI PUSH1 0x44 CALLDATALOAD SWAP2 DUP3 ISZERO ISZERO SWAP2 DUP3 DUP5 SUB PUSH2 0xA60 JUMPI PUSH2 0x1C3F PUSH2 0x2593 JUMP JUMPDEST PUSH1 0xFF PUSH1 0x9 SLOAD AND ISZERO PUSH2 0x1CD6 JUMPI POP PUSH1 0x1 SWAP1 DUP2 DUP1 PUSH1 0xA0 SHL SUB DUP6 AND SWAP6 DUP7 DUP9 MSTORE PUSH1 0x8 PUSH1 0x20 MSTORE DUP8 KECCAK256 SWAP3 PUSH2 0xFF00 PUSH10 0xFFFFFFFFFFFFFFFF0000 DUP6 SLOAD SWAP4 PUSH1 0x10 SHL AND SWAP3 PUSH10 0xFFFFFFFFFFFFFFFFFFFF NOT AND SWAP2 PUSH1 0x8 SHL AND OR OR OR SWAP1 SSTORE PUSH2 0x1C97 JUMPI DUP3 DUP1 RETURN JUMPDEST PUSH1 0x9 DUP1 SLOAD PUSH2 0x100 PUSH1 0x1 PUSH1 0xA8 SHL SUB NOT AND PUSH1 0x8 SWAP3 SWAP1 SWAP3 SHL PUSH2 0x100 PUSH1 0x1 PUSH1 0xA8 SHL SUB AND SWAP2 SWAP1 SWAP2 OR SWAP1 SSTORE PUSH1 0xA DUP1 SLOAD PUSH1 0x1 PUSH1 0x1 PUSH1 0xA0 SHL SUB NOT AND SWAP2 SWAP1 SWAP2 OR SWAP1 SSTORE CODESIZE DUP1 DUP3 DUP1 RETURN JUMPDEST PUSH1 0x64 SWAP1 PUSH1 0x20 DUP8 MLOAD SWAP2 PUSH3 0x461BCD PUSH1 0xE5 SHL DUP4 MSTORE DUP3 ADD MSTORE PUSH1 0x15 PUSH1 0x24 DUP3 ADD MSTORE PUSH21 0x139BC81B5BDC99481B9BD9195CC8185B1B1BDDD959 PUSH1 0x5A SHL PUSH1 0x44 DUP3 ADD MSTORE REVERT JUMPDEST POP POP CALLVALUE PUSH2 0x270 JUMPI DUP1 PUSH1 0x3 NOT CALLDATASIZE ADD SLT PUSH2 0x270 JUMPI PUSH1 0x20 SWAP1 PUSH2 0x3B7 PUSH2 0x1D31 PUSH2 0x1EDC JUMP JUMPDEST PUSH1 0x24 CALLDATALOAD SWAP1 CALLER PUSH2 0x2438 JUMP JUMPDEST POP SWAP2 CALLVALUE PUSH2 0x464 JUMPI DUP1 PUSH1 0x3 NOT CALLDATASIZE ADD SLT PUSH2 0x464 JUMPI DUP2 MLOAD SWAP2 DUP2 PUSH1 0x5 SLOAD SWAP3 PUSH1 0x1 DUP5 DUP2 SHR SWAP2 DUP2 DUP7 AND SWAP6 DUP7 ISZERO PUSH2 0x1DFE JUMPI JUMPDEST PUSH1 0x20 SWAP7 DUP8 DUP6 LT DUP2 EQ PUSH2 0x6C4 JUMPI DUP9 SWAP10 POP SWAP7 DUP9 SWAP7 SWAP8 DUP6 DUP3 SWAP11 MSTORE SWAP2 DUP3 PUSH1 0x0 EQ PUSH2 0x69D JUMPI POP POP PUSH1 0x1 EQ PUSH2 0x1DA2 JUMPI POP POP POP PUSH2 0x63D SWAP3 SWAP2 PUSH2 0x62E SWAP2 SUB DUP6 PUSH2 0x1FF3 JUMP JUMPDEST SWAP2 SWAP1 DUP7 SWAP4 POP PUSH1 0x5 DUP4 MSTORE PUSH32 0x36B6384B5ECA791C62761152D0C79BB0604C104A5FB6F4EB0703F3154BB3DB0 JUMPDEST DUP3 DUP5 LT PUSH2 0x1DE6 JUMPI POP POP POP DUP3 ADD ADD DUP2 PUSH2 0x62E PUSH2 0x63D PUSH2 0x61B JUMP JUMPDEST DUP1 SLOAD DUP5 DUP11 ADD DUP7 ADD MSTORE DUP9 SWAP6 POP DUP8 SWAP5 SWAP1 SWAP4 ADD SWAP3 DUP2 ADD PUSH2 0x1DCD JUMP JUMPDEST SWAP3 PUSH1 0x7F AND SWAP3 PUSH2 0x1D66 JUMP JUMPDEST POP CALLVALUE PUSH2 0x24D JUMPI DUP2 PUSH1 0x3 NOT CALLDATASIZE ADD SLT PUSH2 0x24D JUMPI PUSH2 0x1E21 PUSH2 0x1EDC JUMP JUMPDEST SWAP2 CALLER DUP5 MSTORE PUSH1 0x8 PUSH1 0x20 MSTORE PUSH2 0x1E67 PUSH1 0x1 PUSH1 0x1 PUSH1 0x40 SHL SUB DUP1 DUP4 DUP8 KECCAK256 SLOAD PUSH1 0x10 SHR AND SWAP1 PUSH32 0x0 AND EQ PUSH2 0x206A JUMP JUMPDEST CALLER DUP5 MSTORE PUSH1 0x8 PUSH1 0x20 MSTORE PUSH1 0xFF DUP2 DUP6 KECCAK256 SLOAD AND ISZERO PUSH2 0x5AF JUMPI DUP4 PUSH2 0x906 PUSH1 0x24 CALLDATALOAD DUP6 PUSH2 0x2394 JUMP JUMPDEST SWAP3 POP POP CALLVALUE PUSH2 0x24D JUMPI PUSH1 0x20 CALLDATASIZE PUSH1 0x3 NOT ADD SLT PUSH2 0x24D JUMPI CALLDATALOAD PUSH4 0xFFFFFFFF PUSH1 0xE0 SHL DUP2 AND DUP1 SWAP2 SUB PUSH2 0x24D JUMPI PUSH1 0x20 SWAP3 POP PUSH4 0x85572FFB PUSH1 0xE0 SHL DUP2 EQ SWAP1 DUP2 ISZERO PUSH2 0x1ECB JUMPI JUMPDEST POP ISZERO ISZERO DUP2 MSTORE RETURN JUMPDEST PUSH4 0x1FFC9A7 PUSH1 0xE0 SHL EQ SWAP1 POP CODESIZE PUSH2 0x1EC4 JUMP JUMPDEST PUSH1 0x4 CALLDATALOAD SWAP1 PUSH1 0x1 PUSH1 0x1 PUSH1 0xA0 SHL SUB DUP3 AND DUP3 SUB PUSH2 0xAFC JUMPI JUMP JUMPDEST PUSH1 0x24 CALLDATALOAD SWAP1 PUSH1 0x1 PUSH1 0x1 PUSH1 0xA0 SHL SUB DUP3 AND DUP3 SUB PUSH2 0xAFC JUMPI JUMP JUMPDEST SWAP2 SWAP1 DUP3 MLOAD SWAP3 DUP4 DUP3 MSTORE PUSH1 0x0 JUMPDEST DUP5 DUP2 LT PUSH2 0x1F34 JUMPI POP POP DUP3 PUSH1 0x0 PUSH1 0x20 DUP1 SWAP5 SWAP6 DUP5 ADD ADD MSTORE PUSH1 0x1F DUP1 NOT SWAP2 ADD AND ADD ADD SWAP1 JUMP JUMPDEST PUSH1 0x20 DUP2 DUP4 ADD DUP2 ADD MLOAD DUP5 DUP4 ADD DUP3 ADD MSTORE ADD PUSH2 0x1F13 JUMP JUMPDEST PUSH1 0x4 CALLDATALOAD SWAP1 PUSH1 0x1 PUSH1 0x1 PUSH1 0x40 SHL SUB DUP3 AND DUP3 SUB PUSH2 0xAFC JUMPI JUMP JUMPDEST PUSH1 0xA0 DUP2 ADD SWAP1 DUP2 LT PUSH1 0x1 PUSH1 0x1 PUSH1 0x40 SHL SUB DUP3 GT OR PUSH2 0x1F79 JUMPI PUSH1 0x40 MSTORE JUMP JUMPDEST PUSH4 0x4E487B71 PUSH1 0xE0 SHL PUSH1 0x0 MSTORE PUSH1 0x41 PUSH1 0x4 MSTORE PUSH1 0x24 PUSH1 0x0 REVERT JUMPDEST PUSH1 0x20 DUP2 ADD SWAP1 DUP2 LT PUSH1 0x1 PUSH1 0x1 PUSH1 0x40 SHL SUB DUP3 GT OR PUSH2 0x1F79 JUMPI PUSH1 0x40 MSTORE JUMP JUMPDEST PUSH1 0x1 PUSH1 0x1 PUSH1 0x40 SHL SUB DUP2 GT PUSH2 0x1F79 JUMPI PUSH1 0x40 MSTORE JUMP JUMPDEST PUSH1 0x40 DUP2 ADD SWAP1 DUP2 LT PUSH1 0x1 PUSH1 0x1 PUSH1 0x40 SHL SUB DUP3 GT OR PUSH2 0x1F79 JUMPI PUSH1 0x40 MSTORE JUMP JUMPDEST PUSH1 0x80 DUP2 ADD SWAP1 DUP2 LT PUSH1 0x1 PUSH1 0x1 PUSH1 0x40 SHL SUB DUP3 GT OR PUSH2 0x1F79 JUMPI PUSH1 0x40 MSTORE JUMP JUMPDEST SWAP1 PUSH1 0x1F DUP1 NOT SWAP2 ADD AND DUP2 ADD SWAP1 DUP2 LT PUSH1 0x1 PUSH1 0x1 PUSH1 0x40 SHL SUB DUP3 GT OR PUSH2 0x1F79 JUMPI PUSH1 0x40 MSTORE JUMP JUMPDEST DUP2 PUSH1 0x1F DUP3 ADD SLT ISZERO PUSH2 0xAFC JUMPI DUP1 CALLDATALOAD SWAP1 PUSH1 0x1 PUSH1 0x1 PUSH1 0x40 SHL SUB DUP3 GT PUSH2 0x1F79 JUMPI PUSH1 0x40 MLOAD SWAP3 PUSH2 0x2048 PUSH1 0x1F DUP5 ADD PUSH1 0x1F NOT AND PUSH1 0x20 ADD DUP6 PUSH2 0x1FF3 JUMP JUMPDEST DUP3 DUP5 MSTORE PUSH1 0x20 DUP4 DUP4 ADD ADD GT PUSH2 0xAFC JUMPI DUP2 PUSH1 0x0 SWAP3 PUSH1 0x20 DUP1 SWAP4 ADD DUP4 DUP7 ADD CALLDATACOPY DUP4 ADD ADD MSTORE SWAP1 JUMP JUMPDEST ISZERO PUSH2 0x2071 JUMPI JUMP JUMPDEST PUSH1 0x40 MLOAD PUSH3 0x461BCD PUSH1 0xE5 SHL DUP2 MSTORE PUSH1 0x20 PUSH1 0x4 DUP3 ADD MSTORE PUSH1 0x25 PUSH1 0x24 DUP3 ADD MSTORE PUSH32 0x52657175697265206D617374657220616E64206E6F646520696E2073616D6520 PUSH1 0x44 DUP3 ADD MSTORE PUSH5 0x31B430B4B7 PUSH1 0xD9 SHL PUSH1 0x64 DUP3 ADD MSTORE PUSH1 0x84 SWAP1 REVERT JUMPDEST SWAP1 PUSH1 0x1 PUSH1 0x1 PUSH1 0x40 SHL SUB SWAP1 SWAP4 SWAP3 SWAP4 AND DUP2 MSTORE PUSH1 0x40 PUSH1 0x20 SWAP2 DUP2 DUP4 DUP3 ADD MSTORE PUSH2 0x20F3 DUP6 MLOAD PUSH1 0xA0 DUP5 DUP5 ADD MSTORE PUSH1 0xE0 DUP4 ADD SWAP1 PUSH2 0x1F08 JUMP JUMPDEST SWAP2 PUSH2 0x210F DUP5 DUP8 ADD MLOAD SWAP4 PUSH1 0x3F NOT SWAP5 DUP6 DUP6 DUP4 SUB ADD PUSH1 0x60 DUP7 ADD MSTORE PUSH2 0x1F08 JUMP JUMPDEST DUP2 DUP8 ADD MLOAD SWAP5 DUP5 DUP5 DUP4 SUB ADD PUSH1 0x80 DUP6 ADD MSTORE DUP1 DUP1 DUP8 MLOAD SWAP4 DUP5 DUP2 MSTORE ADD SWAP7 ADD SWAP3 PUSH1 0x0 SWAP1 JUMPDEST DUP4 DUP3 LT PUSH2 0x2167 JUMPI POP POP POP POP POP PUSH1 0xC0 PUSH1 0x80 PUSH2 0x2164 SWAP6 SWAP7 PUSH1 0x1 DUP1 PUSH1 0xA0 SHL SUB PUSH1 0x60 DUP3 ADD MLOAD AND PUSH1 0xA0 DUP6 ADD MSTORE ADD MLOAD SWAP3 DUP3 DUP6 SUB ADD SWAP2 ADD MSTORE PUSH2 0x1F08 JUMP JUMPDEST SWAP1 JUMP JUMPDEST DUP5 MLOAD DUP1 MLOAD PUSH1 0x1 PUSH1 0x1 PUSH1 0xA0 SHL SUB AND DUP10 MSTORE DUP4 ADD MLOAD DUP9 DUP5 ADD MSTORE SWAP7 DUP8 ADD SWAP7 SWAP4 DUP3 ADD SWAP4 PUSH1 0x1 SWAP1 SWAP2 ADD SWAP1 PUSH2 0x212E JUMP JUMPDEST SWAP1 DUP2 PUSH1 0x20 SWAP2 SUB SLT PUSH2 0xAFC JUMPI MLOAD DUP1 ISZERO ISZERO DUP2 SUB PUSH2 0xAFC JUMPI SWAP1 JUMP JUMPDEST SWAP2 SWAP1 DUP3 ADD DUP1 SWAP3 GT PUSH2 0x21B5 JUMPI JUMP JUMPDEST PUSH4 0x4E487B71 PUSH1 0xE0 SHL PUSH1 0x0 MSTORE PUSH1 0x11 PUSH1 0x4 MSTORE PUSH1 0x24 PUSH1 0x0 REVERT JUMPDEST PUSH1 0xA SLOAD PUSH1 0x1 PUSH1 0x1 PUSH1 0xA0 SHL SUB SWAP1 DUP2 AND SWAP1 DUP2 ISZERO PUSH2 0x21FE JUMPI POP PUSH1 0x0 MSTORE PUSH1 0x8 PUSH1 0x20 MSTORE PUSH1 0x1 PUSH1 0x1 PUSH1 0x40 SHL SUB PUSH1 0x40 PUSH1 0x0 KECCAK256 SLOAD PUSH1 0x10 SHR AND SWAP1 JUMP JUMPDEST SWAP1 POP PUSH1 0x9 SLOAD PUSH1 0x8 SHR AND PUSH1 0x0 MSTORE PUSH1 0x8 PUSH1 0x20 MSTORE PUSH1 0x1 PUSH1 0x1 PUSH1 0x40 SHL SUB PUSH1 0x40 PUSH1 0x0 KECCAK256 SLOAD PUSH1 0x10 SHR AND SWAP1 JUMP JUMPDEST PUSH1 0x1 PUSH1 0x1 PUSH1 0xA0 SHL SUB SWAP1 DUP2 AND SWAP2 DUP3 ISZERO PUSH2 0x2341 JUMPI AND SWAP2 DUP3 ISZERO PUSH2 0x22F0 JUMPI PUSH1 0x0 DUP3 DUP2 MSTORE PUSH1 0x2 PUSH1 0x20 MSTORE PUSH1 0x40 DUP2 KECCAK256 SLOAD SWAP2 DUP1 DUP4 LT PUSH2 0x229C JUMPI PUSH1 0x40 DUP3 DUP3 PUSH32 0xDDF252AD1BE2C89B69C2B068FC378DAA952BA7F163C4A11628F55A4DF523B3EF SWAP6 DUP8 PUSH1 0x20 SWAP7 MSTORE PUSH1 0x2 DUP7 MSTORE SUB DUP3 DUP3 KECCAK256 SSTORE DUP7 DUP2 MSTORE KECCAK256 DUP2 DUP2 SLOAD ADD SWAP1 SSTORE PUSH1 0x40 MLOAD SWAP1 DUP2 MSTORE LOG3 JUMP JUMPDEST PUSH1 0x40 MLOAD PUSH3 0x461BCD PUSH1 0xE5 SHL DUP2 MSTORE PUSH1 0x20 PUSH1 0x4 DUP3 ADD MSTORE PUSH1 0x26 PUSH1 0x24 DUP3 ADD MSTORE PUSH32 0x45524332303A207472616E7366657220616D6F756E7420657863656564732062 PUSH1 0x44 DUP3 ADD MSTORE PUSH6 0x616C616E6365 PUSH1 0xD0 SHL PUSH1 0x64 DUP3 ADD MSTORE PUSH1 0x84 SWAP1 REVERT JUMPDEST PUSH1 0x40 MLOAD PUSH3 0x461BCD PUSH1 0xE5 SHL DUP2 MSTORE PUSH1 0x20 PUSH1 0x4 DUP3 ADD MSTORE PUSH1 0x23 PUSH1 0x24 DUP3 ADD MSTORE PUSH32 0x45524332303A207472616E7366657220746F20746865207A65726F2061646472 PUSH1 0x44 DUP3 ADD MSTORE PUSH3 0x657373 PUSH1 0xE8 SHL PUSH1 0x64 DUP3 ADD MSTORE PUSH1 0x84 SWAP1 REVERT JUMPDEST PUSH1 0x40 MLOAD PUSH3 0x461BCD PUSH1 0xE5 SHL DUP2 MSTORE PUSH1 0x20 PUSH1 0x4 DUP3 ADD MSTORE PUSH1 0x25 PUSH1 0x24 DUP3 ADD MSTORE PUSH32 0x45524332303A207472616E736665722066726F6D20746865207A65726F206164 PUSH1 0x44 DUP3 ADD MSTORE PUSH5 0x6472657373 PUSH1 0xD8 SHL PUSH1 0x64 DUP3 ADD MSTORE PUSH1 0x84 SWAP1 REVERT JUMPDEST PUSH1 0x1 PUSH1 0x1 PUSH1 0xA0 SHL SUB AND SWAP1 DUP2 ISZERO PUSH2 0x23F3 JUMPI PUSH32 0xDDF252AD1BE2C89B69C2B068FC378DAA952BA7F163C4A11628F55A4DF523B3EF PUSH1 0x20 DUP3 PUSH2 0x23D6 PUSH1 0x0 SWAP5 PUSH1 0x4 SLOAD PUSH2 0x21A8 JUMP JUMPDEST PUSH1 0x4 SSTORE DUP5 DUP5 MSTORE PUSH1 0x2 DUP3 MSTORE PUSH1 0x40 DUP5 KECCAK256 DUP2 DUP2 SLOAD ADD SWAP1 SSTORE PUSH1 0x40 MLOAD SWAP1 DUP2 MSTORE LOG3 JUMP JUMPDEST PUSH1 0x40 MLOAD PUSH3 0x461BCD PUSH1 0xE5 SHL DUP2 MSTORE PUSH1 0x20 PUSH1 0x4 DUP3 ADD MSTORE PUSH1 0x1F PUSH1 0x24 DUP3 ADD MSTORE PUSH32 0x45524332303A206D696E7420746F20746865207A65726F206164647265737300 PUSH1 0x44 DUP3 ADD MSTORE PUSH1 0x64 SWAP1 REVERT JUMPDEST PUSH1 0x1 PUSH1 0x1 PUSH1 0xA0 SHL SUB SWAP1 DUP2 AND SWAP2 DUP3 ISZERO PUSH2 0x24E9 JUMPI AND SWAP2 DUP3 ISZERO PUSH2 0x2499 JUMPI PUSH1 0x20 PUSH32 0x8C5BE1E5EBEC7D5BD14F71427D1E84F3DD0314C0F7B2291E5B200AC8C7C3B925 SWAP2 DUP4 PUSH1 0x0 MSTORE PUSH1 0x3 DUP3 MSTORE PUSH1 0x40 PUSH1 0x0 KECCAK256 DUP6 PUSH1 0x0 MSTORE DUP3 MSTORE DUP1 PUSH1 0x40 PUSH1 0x0 KECCAK256 SSTORE PUSH1 0x40 MLOAD SWAP1 DUP2 MSTORE LOG3 JUMP JUMPDEST PUSH1 0x40 MLOAD PUSH3 0x461BCD PUSH1 0xE5 SHL DUP2 MSTORE PUSH1 0x20 PUSH1 0x4 DUP3 ADD MSTORE PUSH1 0x22 PUSH1 0x24 DUP3 ADD MSTORE PUSH32 0x45524332303A20617070726F766520746F20746865207A65726F206164647265 PUSH1 0x44 DUP3 ADD MSTORE PUSH2 0x7373 PUSH1 0xF0 SHL PUSH1 0x64 DUP3 ADD MSTORE PUSH1 0x84 SWAP1 REVERT JUMPDEST PUSH1 0x40 MLOAD PUSH3 0x461BCD PUSH1 0xE5 SHL DUP2 MSTORE PUSH1 0x20 PUSH1 0x4 DUP3 ADD MSTORE PUSH1 0x24 DUP1 DUP3 ADD MSTORE PUSH32 0x45524332303A20617070726F76652066726F6D20746865207A65726F20616464 PUSH1 0x44 DUP3 ADD MSTORE PUSH4 0x72657373 PUSH1 0xE0 SHL PUSH1 0x64 DUP3 ADD MSTORE PUSH1 0x84 SWAP1 REVERT JUMPDEST MLOAD SWAP1 PUSH1 0x1 PUSH1 0x1 PUSH1 0xA0 SHL SUB DUP3 AND DUP3 SUB PUSH2 0xAFC JUMPI JUMP JUMPDEST MLOAD SWAP1 PUSH1 0xFF DUP3 AND DUP3 SUB PUSH2 0xAFC JUMPI JUMP JUMPDEST PUSH1 0x40 MLOAD SWAP1 PUSH4 0x97A657C9 PUSH1 0xE0 SHL PUSH1 0x20 DUP4 ADD MSTORE MLOAD PUSH1 0x24 DUP3 ADD MSTORE PUSH1 0x24 DUP2 MSTORE PUSH1 0x60 DUP2 ADD DUP2 DUP2 LT PUSH1 0x1 PUSH1 0x1 PUSH1 0x40 SHL SUB DUP3 GT OR PUSH2 0x1F79 JUMPI PUSH1 0x40 MSTORE SWAP1 JUMP JUMPDEST PUSH1 0x0 SLOAD PUSH1 0x1 PUSH1 0x1 PUSH1 0xA0 SHL SUB AND CALLER SUB PUSH2 0x25A7 JUMPI JUMP JUMPDEST PUSH1 0x40 MLOAD PUSH3 0x461BCD PUSH1 0xE5 SHL DUP2 MSTORE PUSH1 0x20 PUSH1 0x4 DUP3 ADD MSTORE PUSH1 0x16 PUSH1 0x24 DUP3 ADD MSTORE PUSH22 0x27B7363C9031B0B63630B1363290313C9037BBB732B9 PUSH1 0x51 SHL PUSH1 0x44 DUP3 ADD MSTORE PUSH1 0x64 SWAP1 REVERT INVALID LOG2 PUSH5 0x6970667358 0x22 SLT KECCAK256 TIMESTAMP 0x4A 0xBF ADD CALLCODE DUP13 PUSH19 0x7FD5118F4EA086FBC62DEA9DBD7A02D35B2B65 CALLDATACOPY DUP2 SLOAD 0xE7 REVERT 0xAA PUSH5 0x736F6C6343 STOP ADDMOD SGT STOP CALLER ",
  "sha1": "0c86331d792fc602c91a0d185eff41c78b16ac19",
  "source": "// SPDX-License-Identifier: MIT\npragma solidity 0.8.19;\n\nimport {IRouterClient} from \"@chainlink/contracts/src/v0.8/ccip/interfaces/IRouterClient.sol\";\nimport {OwnerIsCreator} from \"@chainlink/contracts/src/v0.8/shared/access/OwnerIsCreator.sol\";\nimport {Client} from \"@chainlink/contracts/src/v0.8/ccip/libraries/Client.sol\";\nimport {CCIPReceiver} from \"@chainlink/contracts/src/v0.8/ccip/applications/CCIPReceiver.sol\";\n\nimport {LinkTokenInterface} from \"@chainlink/contracts/src/v0.8/shared/interfaces/LinkTokenInterface.sol\";\n\nimport \"@openzeppelin/contracts/token/ERC20/ERC20.sol\";\nimport \"./utils_node/UtilsMasterNode.sol\";\n\n// Node interface\nimport \"../interfaces/INode.sol\";\n\n/// @title - A simple messenger contract for transferring/receiving tokens and data across chains.\ncontract MasterNode is CCIPReceiver, OwnerIsCreator, ERC20, UtilsMasterNode {\n    // Custom errors to provide more descriptive revert messages.\n    error NotEnoughBalance(uint256 currentBalance, uint256 calculatedFees); // Used to make sure contract has enough balance to cover the fees.\n    error NothingToWithdraw(); // Used when trying to withdraw Ether but there's nothing to withdraw.\n    error FailedToWithdrawEth(address owner, address target, uint256 value); // Used when the withdrawal of Ether fails.\n    error DestinationNodeNotValid(address nodeAddress); // Used when the destination address has not been allowlisted by the contract owner.\n    error SourceChainNotAllowed(uint64 sourceChainSelector); // Used when the source chain has not been allowlisted by the contract owner.\n    error SenderNotAllowed(address sender); // Used when the sender has not been allowlisted by the contract owner.\n    error InvalidReceiverAddress(); // Used when the receiver address is 0.\n\n    LinkTokenInterface private s_linkToken;\n\n    uint64 public immutable MASTER_CONTRACT_CHAIN_ID;\n\n    struct ValidNodes {\n        bool isValidNode;\n        bool isActiveNode;\n        uint64 chainCCIPid;\n        uint256 lastDataFromAave;\n        uint256 totalUsdcSupply;\n        uint256 totalUsdcBorrow;\n        uint256 supplyRate;\n    }\n\n    mapping(address => ValidNodes) public validNodes;\n\n    bool public allowMoreNodes = true;\n    address public lastActiveNode;\n    address public activeNode;\n    uint256 public lastTimeWarped;\n\n    /// @notice Constructor initializes the contract with the router address.\n    /// @param _router The address of the router contract.\n    /// @param _link The address of the link contract.\n    constructor(\n        address _router,\n        address _link,\n        uint64 _MASTER_CONTRACT_CHAIN_ID\n    ) CCIPReceiver(_router) ERC20(\"WarpYield\", \"aWRP\") {\n        s_linkToken = LinkTokenInterface(_link);\n        MASTER_CONTRACT_CHAIN_ID = _MASTER_CONTRACT_CHAIN_ID;\n    }\n\n    modifier onlyValidNodes(address nodeAddress) {\n        if (!validNodes[nodeAddress].isValidNode) {\n            revert DestinationNodeNotValid(nodeAddress);\n        }\n        _;\n    }\n\n    modifier masterAndNodeInSameChain() {\n        require(\n            validNodes[msg.sender].chainCCIPid == MASTER_CONTRACT_CHAIN_ID,\n            \"Require master and node in same chain\"\n        );\n        _;\n    }\n\n    function stopAddingNodes() external onlyOwner {\n        allowMoreNodes = false;\n    }\n\n    function addValidNode(\n        address nodeAddress,\n        uint64 chainCCIPid,\n        bool isActiveNode\n    ) external onlyOwner {\n        require(allowMoreNodes, \"No more nodes allowed\");\n        validNodes[nodeAddress].isValidNode = true;\n        validNodes[nodeAddress].isActiveNode = isActiveNode;\n        validNodes[nodeAddress].chainCCIPid = chainCCIPid;\n\n        if (isActiveNode) {\n            lastActiveNode = nodeAddress;\n            activeNode = nodeAddress;\n        }\n    }\n\n    /////////////////////////////////////////////////////////////////////////\n    ////////////////////  INCOMING DEPOSIT => MINT aWRP  ///////////////////\n    ////////////////////////  COMMAND == 0  ///////////////////////////////\n    //////////////////////////////////////////////////////////////////////\n\n    function _aWarpTokenMinter(\n        Client.Any2EVMMessage memory _any2EvmMessage\n    ) internal {\n        (, address userAddress, uint256 shares) = abi.decode(\n            _any2EvmMessage.data,\n            (uint8, address, uint256)\n        );\n\n        _mint(userAddress, shares);\n    }\n\n    ///////////////////  DEPOSIT, MASTER AND NODE IN SAME CHAIN  /////////////////\n\n    function aWarpTokenMinterFromSameChain(\n        address userAddress,\n        uint256 shares\n    ) external masterAndNodeInSameChain onlyValidNodes(msg.sender) {\n        _mint(userAddress, shares);\n    }\n\n    /////////////////////////////////////////////////////////////////////////\n    //////////////////////  RESUME PROTOCOL OPERATIONS  ////////////////////\n    ////////////////////////  COMMAND == 1  ///////////////////////////////\n    //////////////////////////////////////////////////////////////////////\n\n    function _resmumeOperations(\n        Client.Any2EVMMessage memory _any2EvmMessage\n    ) internal {\n        validNodes[abi.decode(_any2EvmMessage.sender, (address))]\n            .isActiveNode = true;\n\n        activeNode = abi.decode(_any2EvmMessage.sender, (address));\n    }\n\n    ///////////  RESUME OPERATIONS, MASTER AND NODE IN SAME CHAIN  //////////\n\n    function _resmumeOperationsFromSameChain()\n        external\n        masterAndNodeInSameChain\n        onlyValidNodes(msg.sender)\n    {\n        validNodes[msg.sender].isActiveNode = true;\n        activeNode = msg.sender;\n    }\n\n    /////////////////////////////////////////////////////////////////////////\n    /////////////////////////  DATA AAVE FROM NODE  ////////////////////////\n    ////////////////////////  COMMAND == 2  ///////////////////////////////\n    //////////////////////////////////////////////////////////////////////\n\n    function _nodeAaveFeed(\n        Client.Any2EVMMessage memory _any2EvmMessage\n    ) internal {\n        (\n            ,\n            uint256 totalUsdcSupply,\n            uint256 totalUsdcBorrow,\n            uint256 supplyRate\n        ) = abi.decode(\n                _any2EvmMessage.data,\n                (uint8, uint256, uint256, uint256)\n            );\n\n        validNodes[abi.decode(_any2EvmMessage.sender, (address))]\n            .lastDataFromAave = block.timestamp;\n        validNodes[abi.decode(_any2EvmMessage.sender, (address))]\n            .totalUsdcSupply = totalUsdcSupply;\n        validNodes[abi.decode(_any2EvmMessage.sender, (address))]\n            .totalUsdcBorrow = totalUsdcBorrow;\n        validNodes[abi.decode(_any2EvmMessage.sender, (address))]\n            .supplyRate = supplyRate;\n    }\n\n    ////////////////  DATA AAVE, MASTER AND NODE IN SAME CHAIN  //////////////\n\n    function nodeAaveFeedFromSameChain(\n        uint256 totalUsdcSupply,\n        uint256 totalUsdcBorrow,\n        uint256 supplyRate\n    ) external masterAndNodeInSameChain onlyValidNodes(msg.sender) {\n        validNodes[msg.sender].lastDataFromAave = block.timestamp;\n        validNodes[msg.sender].totalUsdcSupply = totalUsdcSupply;\n        validNodes[msg.sender].totalUsdcBorrow = totalUsdcBorrow;\n        validNodes[msg.sender].supplyRate = supplyRate;\n    }\n\n    //////////////////////////////////////////////////////////////////////////\n    /////////////////////////////////////////////////////////////////////////\n    ////////////////////////  INCOMING MESAGE HANDLER  /////////////////////\n    /////////////////  THIS FUNC IS CALLED BY CHAINLINK  //////////////////\n    //////////////////////////////////////////////////////////////////////\n    /////////////////////////////////////////////////////////////////////\n\n    function _ccipReceive(\n        Client.Any2EVMMessage memory _any2EvmMessage\n    )\n        internal\n        override\n        onlyValidNodes(abi.decode(_any2EvmMessage.sender, (address)))\n    {\n        uint8 command = _internalCommandRouter(_any2EvmMessage);\n        if (command == 0) {\n            _aWarpTokenMinter(_any2EvmMessage);\n        } else if (command == 1) {\n            _resmumeOperations(_any2EvmMessage);\n        } else if (command == 2) {\n            _nodeAaveFeed(_any2EvmMessage);\n        } else {\n            revert(\"invalid command from Node\");\n        }\n    }\n\n    /////////////////////////////////////////////////////////////////////////\n    ////////////////////////////////////////////////////////////////////////\n    ///////////////////////  OUTGOING MESAGES HANDLER  ////////////////////\n    //////////////////////////////////////////////////////////////////////\n    /////////////////////////////////////////////////////////////////////\n\n    function _sendMessage(\n        uint64 _destinationChainSelector,\n        address _receiver,\n        bytes memory _data\n    ) internal onlyValidNodes(_receiver) returns (bytes32 messageId) {\n        // Create an EVM2AnyMessage struct in memory with necessary information for sending a cross-chain message\n        // address(linkToken) means fees are paid in LINK\n        Client.EVM2AnyMessage memory evm2AnyMessage = _buildCCIPMessage(\n            _receiver,\n            _data,\n            address(s_linkToken)\n        );\n\n        // Initialize a router client instance to interact with cross-chain router\n        IRouterClient router = IRouterClient(this.getRouter());\n\n        // Get the fee required to send the CCIP message\n        uint256 fees = router.getFee(_destinationChainSelector, evm2AnyMessage);\n\n        require(\n            s_linkToken.transferFrom(msg.sender, address(this), fees),\n            \"Not provided Link for fees\"\n        );\n\n        if (fees > s_linkToken.balanceOf(address(this)))\n            revert NotEnoughBalance(s_linkToken.balanceOf(address(this)), fees);\n\n        // approve the Router to transfer LINK tokens on contract's behalf. It will spend the fees in LINK\n        s_linkToken.approve(address(router), fees);\n\n        // Send the message through the router and store the returned message ID\n        messageId = router.ccipSend(_destinationChainSelector, evm2AnyMessage);\n\n        // Return the message ID\n        return messageId;\n    }\n\n    /// @notice Construct a CCIP message.\n    /// @dev This function will create an EVM2AnyMessage struct with all the necessary information for programmable tokens transfer.\n    /// @param _receiver The address of the receiver.\n    /// @param _data The bytes data to be sent.\n    /// @param _feeTokenAddress The address of the token used for fees. Set address(0) for native gas.\n    /// @return Client.EVM2AnyMessage Returns an EVM2AnyMessage struct which contains information for sending a CCIP message.\n    function _buildCCIPMessage(\n        address _receiver,\n        bytes memory _data,\n        address _feeTokenAddress\n    ) private pure returns (Client.EVM2AnyMessage memory) {\n        return\n            Client.EVM2AnyMessage({\n                receiver: abi.encode(_receiver), // ABI-encoded receiver address\n                data: _data, // ABI-encoded string\n                tokenAmounts: new Client.EVMTokenAmount[](0), // The amount and type of token being transferred\n                extraArgs: Client._argsToBytes(\n                    // Additional arguments, setting gas limit\n                    Client.EVMExtraArgsV1({gasLimit: 2_000_000})\n                ),\n                // Set the feeToken to a feeTokenAddress, indicating specific asset will be used for fees\n                feeToken: _feeTokenAddress\n            });\n    }\n\n    /// @notice Fallback function to allow the contract to receive Ether.\n    /// @dev This function has no function body, making it a default function for receiving Ether.\n    /// It is automatically called when Ether is sent to the contract without any data.\n    receive() external payable {}\n\n    /////////////////////////////////////////////////////////////////////////\n    ///////////////////////////////  WARP ASSETS  //////////////////////////\n    ///////////////////////////////////////////////////////////////////////\n\n    function warpAssets(\n        uint64 _destinationCCIPid,\n        address _destinationNodeAddress\n    ) external {\n        uint8 commandWarpAssets = 1;\n\n        bytes memory data = abi.encode(\n            commandWarpAssets,\n            _destinationCCIPid,\n            _destinationNodeAddress\n        );\n        validNodes[activeNode].isActiveNode = false;\n\n        if (validNodes[activeNode].chainCCIPid == MASTER_CONTRACT_CHAIN_ID) {\n            INode(activeNode).warpAssetsFromSameChain(\n                _destinationCCIPid,\n                _destinationNodeAddress\n            );\n        } else {\n            _sendMessage(validNodes[activeNode].chainCCIPid, activeNode, data);\n        }\n\n        lastActiveNode = activeNode;\n        activeNode = address(0);\n        lastTimeWarped = block.timestamp;\n    }\n\n    /////////////////////////////////////////////////////////////////////////\n    /////////////////////////////  WITHDRAW  ///////////////////////////////\n    ///////////////////////////////////////////////////////////////////////\n\n    function withdraw(uint256 shares) external {\n        require(validNodes[activeNode].isActiveNode, \"Node is not Active\");\n\n        require(shares <= balanceOf(msg.sender), \"Not enought balance\");\n\n        uint8 commandWitdraw = 0;\n\n        bytes memory data = abi.encode(commandWitdraw, msg.sender, shares);\n\n        _burn(msg.sender, shares);\n\n        if (validNodes[activeNode].chainCCIPid == MASTER_CONTRACT_CHAIN_ID) {\n            INode(activeNode).withdrawFromSameChain(msg.sender, shares);\n        } else {\n            _sendMessage(validNodes[activeNode].chainCCIPid, activeNode, data);\n        }\n    }\n\n    /////////////////////////////////////////////////////////////////////////\n    /////////////////////////////   UTILS   ////////////////////////////////\n    ///////////////////////////////////////////////////////////////////////\n\n    function checkApprovedWarp(\n        address _activeNode,\n        address destinationNode\n    ) public view returns (bool) {\n        //require 24 after last warp\n        return\n            validNodes[_activeNode].isActiveNode == true &&\n            validNodes[_activeNode].lastDataFromAave > 0 &&\n            validNodes[destinationNode].lastDataFromAave > 0 &&\n            validNodes[_activeNode].lastDataFromAave + 3600 > block.timestamp &&\n            validNodes[destinationNode].lastDataFromAave + 3600 >\n            block.timestamp &&\n            validNodes[destinationNode].isValidNode == true &&\n            validNodes[destinationNode].isActiveNode == false &&\n            validNodes[_activeNode].supplyRate > 0 &&\n            validNodes[_activeNode].supplyRate <\n            validNodes[destinationNode].supplyRate;\n    }\n\n    // get ChainId from active node or last active node in case vault is warping, only for frontend, no impact in contract\n    function getChainIdFromActiveNode() external view returns (uint64) {\n        if (activeNode == address(0)) {\n            return validNodes[lastActiveNode].chainCCIPid;\n        }\n\n        return validNodes[activeNode].chainCCIPid;\n    }\n}\n",
  "sourcePath": "contracts/MasterNode.sol",
  "type": "contract"
}