{
  "abi": [
    {
      "inputs": [
        {
          "internalType": "address",
          "name": "_router",
          "type": "address"
        },
        {
          "internalType": "address",
          "name": "_link",
          "type": "address"
        },
        {
          "internalType": "uint64",
          "name": "_MASTER_CONTRACT_CHAIN_ID",
          "type": "uint64"
        }
      ],
      "stateMutability": "nonpayable",
      "type": "constructor"
    },
    {
      "inputs": [
        {
          "internalType": "address",
          "name": "nodeAddress",
          "type": "address"
        }
      ],
      "name": "DestinationNodeNotValid",
      "type": "error"
    },
    {
      "inputs": [
        {
          "internalType": "address",
          "name": "owner",
          "type": "address"
        },
        {
          "internalType": "address",
          "name": "target",
          "type": "address"
        },
        {
          "internalType": "uint256",
          "name": "value",
          "type": "uint256"
        }
      ],
      "name": "FailedToWithdrawEth",
      "type": "error"
    },
    {
      "inputs": [],
      "name": "InvalidReceiverAddress",
      "type": "error"
    },
    {
      "inputs": [
        {
          "internalType": "address",
          "name": "router",
          "type": "address"
        }
      ],
      "name": "InvalidRouter",
      "type": "error"
    },
    {
      "inputs": [
        {
          "internalType": "uint256",
          "name": "currentBalance",
          "type": "uint256"
        },
        {
          "internalType": "uint256",
          "name": "calculatedFees",
          "type": "uint256"
        }
      ],
      "name": "NotEnoughBalance",
      "type": "error"
    },
    {
      "inputs": [],
      "name": "NothingToWithdraw",
      "type": "error"
    },
    {
      "inputs": [
        {
          "internalType": "address",
          "name": "sender",
          "type": "address"
        }
      ],
      "name": "SenderNotAllowed",
      "type": "error"
    },
    {
      "inputs": [
        {
          "internalType": "uint64",
          "name": "sourceChainSelector",
          "type": "uint64"
        }
      ],
      "name": "SourceChainNotAllowed",
      "type": "error"
    },
    {
      "anonymous": false,
      "inputs": [
        {
          "indexed": true,
          "internalType": "address",
          "name": "owner",
          "type": "address"
        },
        {
          "indexed": true,
          "internalType": "address",
          "name": "spender",
          "type": "address"
        },
        {
          "indexed": false,
          "internalType": "uint256",
          "name": "value",
          "type": "uint256"
        }
      ],
      "name": "Approval",
      "type": "event"
    },
    {
      "anonymous": false,
      "inputs": [
        {
          "indexed": true,
          "internalType": "address",
          "name": "from",
          "type": "address"
        },
        {
          "indexed": true,
          "internalType": "address",
          "name": "to",
          "type": "address"
        }
      ],
      "name": "OwnershipTransferRequested",
      "type": "event"
    },
    {
      "anonymous": false,
      "inputs": [
        {
          "indexed": true,
          "internalType": "address",
          "name": "from",
          "type": "address"
        },
        {
          "indexed": true,
          "internalType": "address",
          "name": "to",
          "type": "address"
        }
      ],
      "name": "OwnershipTransferred",
      "type": "event"
    },
    {
      "anonymous": false,
      "inputs": [
        {
          "indexed": true,
          "internalType": "address",
          "name": "from",
          "type": "address"
        },
        {
          "indexed": true,
          "internalType": "address",
          "name": "to",
          "type": "address"
        },
        {
          "indexed": false,
          "internalType": "uint256",
          "name": "value",
          "type": "uint256"
        }
      ],
      "name": "Transfer",
      "type": "event"
    },
    {
      "inputs": [],
      "name": "MASTER_CONTRACT_CHAIN_ID",
      "outputs": [
        {
          "internalType": "uint64",
          "name": "",
          "type": "uint64"
        }
      ],
      "stateMutability": "view",
      "type": "function"
    },
    {
      "inputs": [],
      "name": "_resmumeOperationsFromSameChain",
      "outputs": [],
      "stateMutability": "nonpayable",
      "type": "function"
    },
    {
      "inputs": [
        {
          "internalType": "address",
          "name": "userAddress",
          "type": "address"
        },
        {
          "internalType": "uint256",
          "name": "shares",
          "type": "uint256"
        }
      ],
      "name": "aWarpTokenMinterFromSameChain",
      "outputs": [],
      "stateMutability": "nonpayable",
      "type": "function"
    },
    {
      "inputs": [],
      "name": "acceptOwnership",
      "outputs": [],
      "stateMutability": "nonpayable",
      "type": "function"
    },
    {
      "inputs": [],
      "name": "activeNode",
      "outputs": [
        {
          "internalType": "address",
          "name": "",
          "type": "address"
        }
      ],
      "stateMutability": "view",
      "type": "function"
    },
    {
      "inputs": [
        {
          "internalType": "address",
          "name": "nodeAddress",
          "type": "address"
        },
        {
          "internalType": "uint64",
          "name": "chainCCIPid",
          "type": "uint64"
        },
        {
          "internalType": "bool",
          "name": "isActiveNode",
          "type": "bool"
        }
      ],
      "name": "addValidNode",
      "outputs": [],
      "stateMutability": "nonpayable",
      "type": "function"
    },
    {
      "inputs": [],
      "name": "allowMoreNodes",
      "outputs": [
        {
          "internalType": "bool",
          "name": "",
          "type": "bool"
        }
      ],
      "stateMutability": "view",
      "type": "function"
    },
    {
      "inputs": [
        {
          "internalType": "address",
          "name": "owner",
          "type": "address"
        },
        {
          "internalType": "address",
          "name": "spender",
          "type": "address"
        }
      ],
      "name": "allowance",
      "outputs": [
        {
          "internalType": "uint256",
          "name": "",
          "type": "uint256"
        }
      ],
      "stateMutability": "view",
      "type": "function"
    },
    {
      "inputs": [
        {
          "internalType": "address",
          "name": "spender",
          "type": "address"
        },
        {
          "internalType": "uint256",
          "name": "amount",
          "type": "uint256"
        }
      ],
      "name": "approve",
      "outputs": [
        {
          "internalType": "bool",
          "name": "",
          "type": "bool"
        }
      ],
      "stateMutability": "nonpayable",
      "type": "function"
    },
    {
      "inputs": [
        {
          "internalType": "address",
          "name": "account",
          "type": "address"
        }
      ],
      "name": "balanceOf",
      "outputs": [
        {
          "internalType": "uint256",
          "name": "",
          "type": "uint256"
        }
      ],
      "stateMutability": "view",
      "type": "function"
    },
    {
      "inputs": [
        {
          "internalType": "uint256",
          "name": "totalUsdcSupply",
          "type": "uint256"
        },
        {
          "internalType": "uint256",
          "name": "totalUsdcBorrow",
          "type": "uint256"
        },
        {
          "internalType": "uint256",
          "name": "supplyRate",
          "type": "uint256"
        },
        {
          "internalType": "uint256",
          "name": "addCapital",
          "type": "uint256"
        }
      ],
      "name": "calculateNewSupplyRates",
      "outputs": [
        {
          "internalType": "uint256",
          "name": "",
          "type": "uint256"
        }
      ],
      "stateMutability": "pure",
      "type": "function"
    },
    {
      "inputs": [
        {
          "components": [
            {
              "internalType": "bytes32",
              "name": "messageId",
              "type": "bytes32"
            },
            {
              "internalType": "uint64",
              "name": "sourceChainSelector",
              "type": "uint64"
            },
            {
              "internalType": "bytes",
              "name": "sender",
              "type": "bytes"
            },
            {
              "internalType": "bytes",
              "name": "data",
              "type": "bytes"
            },
            {
              "components": [
                {
                  "internalType": "address",
                  "name": "token",
                  "type": "address"
                },
                {
                  "internalType": "uint256",
                  "name": "amount",
                  "type": "uint256"
                }
              ],
              "internalType": "struct Client.EVMTokenAmount[]",
              "name": "destTokenAmounts",
              "type": "tuple[]"
            }
          ],
          "internalType": "struct Client.Any2EVMMessage",
          "name": "message",
          "type": "tuple"
        }
      ],
      "name": "ccipReceive",
      "outputs": [],
      "stateMutability": "nonpayable",
      "type": "function"
    },
    {
      "inputs": [
        {
          "internalType": "address",
          "name": "_activeNode",
          "type": "address"
        },
        {
          "internalType": "address",
          "name": "destinationNode",
          "type": "address"
        }
      ],
      "name": "checkApprovedWarp",
      "outputs": [
        {
          "internalType": "bool",
          "name": "",
          "type": "bool"
        }
      ],
      "stateMutability": "view",
      "type": "function"
    },
    {
      "inputs": [],
      "name": "decimals",
      "outputs": [
        {
          "internalType": "uint8",
          "name": "",
          "type": "uint8"
        }
      ],
      "stateMutability": "view",
      "type": "function"
    },
    {
      "inputs": [
        {
          "internalType": "address",
          "name": "spender",
          "type": "address"
        },
        {
          "internalType": "uint256",
          "name": "subtractedValue",
          "type": "uint256"
        }
      ],
      "name": "decreaseAllowance",
      "outputs": [
        {
          "internalType": "bool",
          "name": "",
          "type": "bool"
        }
      ],
      "stateMutability": "nonpayable",
      "type": "function"
    },
    {
      "inputs": [],
      "name": "getChainIdFromActiveNode",
      "outputs": [
        {
          "internalType": "uint64",
          "name": "",
          "type": "uint64"
        }
      ],
      "stateMutability": "view",
      "type": "function"
    },
    {
      "inputs": [
        {
          "internalType": "uint64",
          "name": "destinationCCIPid",
          "type": "uint64"
        },
        {
          "internalType": "address",
          "name": "receiver",
          "type": "address"
        },
        {
          "internalType": "address",
          "name": "s_linkTokenAddress",
          "type": "address"
        },
        {
          "internalType": "address",
          "name": "routerAddress",
          "type": "address"
        },
        {
          "internalType": "bytes",
          "name": "_data",
          "type": "bytes"
        }
      ],
      "name": "getLinkFees",
      "outputs": [
        {
          "internalType": "uint256",
          "name": "",
          "type": "uint256"
        }
      ],
      "stateMutability": "view",
      "type": "function"
    },
    {
      "inputs": [],
      "name": "getRouter",
      "outputs": [
        {
          "internalType": "address",
          "name": "",
          "type": "address"
        }
      ],
      "stateMutability": "view",
      "type": "function"
    },
    {
      "inputs": [
        {
          "internalType": "address",
          "name": "spender",
          "type": "address"
        },
        {
          "internalType": "uint256",
          "name": "addedValue",
          "type": "uint256"
        }
      ],
      "name": "increaseAllowance",
      "outputs": [
        {
          "internalType": "bool",
          "name": "",
          "type": "bool"
        }
      ],
      "stateMutability": "nonpayable",
      "type": "function"
    },
    {
      "inputs": [],
      "name": "isProtocolInTestMode",
      "outputs": [
        {
          "internalType": "bool",
          "name": "",
          "type": "bool"
        }
      ],
      "stateMutability": "view",
      "type": "function"
    },
    {
      "inputs": [],
      "name": "lastActiveNode",
      "outputs": [
        {
          "internalType": "address",
          "name": "",
          "type": "address"
        }
      ],
      "stateMutability": "view",
      "type": "function"
    },
    {
      "inputs": [],
      "name": "lastTimeWarped",
      "outputs": [
        {
          "internalType": "uint256",
          "name": "",
          "type": "uint256"
        }
      ],
      "stateMutability": "view",
      "type": "function"
    },
    {
      "inputs": [],
      "name": "name",
      "outputs": [
        {
          "internalType": "string",
          "name": "",
          "type": "string"
        }
      ],
      "stateMutability": "view",
      "type": "function"
    },
    {
      "inputs": [
        {
          "internalType": "uint256",
          "name": "totalUsdcSupply",
          "type": "uint256"
        },
        {
          "internalType": "uint256",
          "name": "totalUsdcBorrow",
          "type": "uint256"
        },
        {
          "internalType": "uint256",
          "name": "supplyRate",
          "type": "uint256"
        },
        {
          "internalType": "uint256",
          "name": "totalAusdcNode",
          "type": "uint256"
        }
      ],
      "name": "nodeAaveFeedFromSameChain",
      "outputs": [],
      "stateMutability": "nonpayable",
      "type": "function"
    },
    {
      "inputs": [],
      "name": "owner",
      "outputs": [
        {
          "internalType": "address",
          "name": "",
          "type": "address"
        }
      ],
      "stateMutability": "view",
      "type": "function"
    },
    {
      "inputs": [],
      "name": "stopAddingNodes",
      "outputs": [],
      "stateMutability": "nonpayable",
      "type": "function"
    },
    {
      "inputs": [
        {
          "internalType": "bytes4",
          "name": "interfaceId",
          "type": "bytes4"
        }
      ],
      "name": "supportsInterface",
      "outputs": [
        {
          "internalType": "bool",
          "name": "",
          "type": "bool"
        }
      ],
      "stateMutability": "pure",
      "type": "function"
    },
    {
      "inputs": [],
      "name": "symbol",
      "outputs": [
        {
          "internalType": "string",
          "name": "",
          "type": "string"
        }
      ],
      "stateMutability": "view",
      "type": "function"
    },
    {
      "inputs": [],
      "name": "totalSupply",
      "outputs": [
        {
          "internalType": "uint256",
          "name": "",
          "type": "uint256"
        }
      ],
      "stateMutability": "view",
      "type": "function"
    },
    {
      "inputs": [
        {
          "internalType": "address",
          "name": "to",
          "type": "address"
        },
        {
          "internalType": "uint256",
          "name": "amount",
          "type": "uint256"
        }
      ],
      "name": "transfer",
      "outputs": [
        {
          "internalType": "bool",
          "name": "",
          "type": "bool"
        }
      ],
      "stateMutability": "nonpayable",
      "type": "function"
    },
    {
      "inputs": [
        {
          "internalType": "address",
          "name": "from",
          "type": "address"
        },
        {
          "internalType": "address",
          "name": "to",
          "type": "address"
        },
        {
          "internalType": "uint256",
          "name": "amount",
          "type": "uint256"
        }
      ],
      "name": "transferFrom",
      "outputs": [
        {
          "internalType": "bool",
          "name": "",
          "type": "bool"
        }
      ],
      "stateMutability": "nonpayable",
      "type": "function"
    },
    {
      "inputs": [
        {
          "internalType": "address",
          "name": "to",
          "type": "address"
        }
      ],
      "name": "transferOwnership",
      "outputs": [],
      "stateMutability": "nonpayable",
      "type": "function"
    },
    {
      "inputs": [
        {
          "internalType": "address",
          "name": "",
          "type": "address"
        }
      ],
      "name": "validNodes",
      "outputs": [
        {
          "internalType": "bool",
          "name": "isValidNode",
          "type": "bool"
        },
        {
          "internalType": "bool",
          "name": "isActiveNode",
          "type": "bool"
        },
        {
          "internalType": "uint64",
          "name": "chainCCIPid",
          "type": "uint64"
        },
        {
          "internalType": "uint256",
          "name": "lastDataFromAave",
          "type": "uint256"
        },
        {
          "internalType": "uint256",
          "name": "totalUsdcSupply",
          "type": "uint256"
        },
        {
          "internalType": "uint256",
          "name": "totalUsdcBorrow",
          "type": "uint256"
        },
        {
          "internalType": "uint256",
          "name": "supplyRate",
          "type": "uint256"
        },
        {
          "internalType": "uint256",
          "name": "totalAusdcNode",
          "type": "uint256"
        }
      ],
      "stateMutability": "view",
      "type": "function"
    },
    {
      "inputs": [
        {
          "internalType": "uint64",
          "name": "_destinationCCIPid",
          "type": "uint64"
        },
        {
          "internalType": "address",
          "name": "_destinationNodeAddress",
          "type": "address"
        }
      ],
      "name": "warpAssets",
      "outputs": [],
      "stateMutability": "nonpayable",
      "type": "function"
    },
    {
      "inputs": [
        {
          "internalType": "uint256",
          "name": "shares",
          "type": "uint256"
        }
      ],
      "name": "withdraw",
      "outputs": [],
      "stateMutability": "nonpayable",
      "type": "function"
    },
    {
      "stateMutability": "payable",
      "type": "receive"
    }
  ],
  "bytecode": "60c034620004a057601f62002db738819003918201601f19168301916001600160401b038311848410176200035a57808492606094604052833981010312620004a0576200004d81620004c5565b9060406200005e60208301620004c5565b910151906001600160401b0382168203620004a0576200007d620004a5565b92600984526815d85c9c165a595b1960ba1b60208501526200009e620004a5565b60048152630615752560e41b6020820152906001600160a01b03811615620004875760805233156200044257600080546001600160a01b0319163317905583516001600160401b0381116200035a57600554600181811c9116801562000437575b60208210146200033957601f8111620003e9575b50602094601f82116001146200037c5794819293949560009262000370575b50508160011b916000199060031b1c1916176005555b8051906001600160401b0382116200035a57600654600181811c911680156200034f575b60208210146200033957601f8111620002e0575b50602090601f83116001146200024d5775010000000000000000000000000000000000000000019392916000918362000241575b50508160011b916000199060031b1c1916176006555b600780546001600160b01b03191660089290921b610100600160a81b03169190911791909117905560a0526040516128bc9081620004db82396080518181816103c80152610747015260a051818181610501015281816106e301528181610d410152818161152f01528181611d3e0152611ebc0152f35b015190503880620001b4565b6006600090815260008051602062002d97833981519152929190601f198516905b818110620002c75750916001939185750100000000000000000000000000000000000000000197969410620002ad575b505050811b01600655620001ca565b015160001960f88460031b161c191690553880806200029e565b929360206001819287860151815501950193016200026e565b600660005260008051602062002d97833981519152601f840160051c810191602085106200032e575b601f0160051c01905b81811062000321575062000180565b6000815560010162000312565b909150819062000309565b634e487b7160e01b600052602260045260246000fd5b90607f16906200016c565b634e487b7160e01b600052604160045260246000fd5b01519050388062000132565b601f19821695600560005260206000209160005b888110620003d057508360019596979810620003b6575b505050811b0160055562000148565b015160001960f88460031b161c19169055388080620003a7565b9192602060018192868501518155019401920162000390565b60056000526020600020601f830160051c810191602084106200042c575b601f0160051c01905b8181106200041f575062000113565b6000815560010162000410565b909150819062000407565b90607f1690620000ff565b60405162461bcd60e51b815260206004820152601860248201527f43616e6e6f7420736574206f776e657220746f207a65726f00000000000000006044820152606490fd5b6040516335fdcccd60e21b815260006004820152602490fd5b600080fd5b60408051919082016001600160401b038111838210176200035a57604052565b51906001600160a01b0382168203620004a05756fe60806040818152600480361015610021575b505050361561001f57600080fd5b005b600092833560e01c90816301ffc9a714611f1a5750806304783ea414611e8357806306fdde0314611db657806308a767fe14611d0b578063095ea7b314611ce157806310a78df814611be65780631803c2f514611bb957806318160ddd14611b9c5780631d88092814611b6557806323b872dd14611a995780632e1a7d4d14611440578063313ce5671461142457806339509351146113d5578063544b1709146112a35780635c292be514610c9057806361ac3f9914610c67578063654e8e0c14610c405780636c1dc07714610c175780636c98d51314610bee57806370a0823114610bb657806379ba509714610b0f57806385572ffb146107075780638cf19d19146106c35780638da5cb5b1461069b57806395d89b4114610580578063995714ae146104d1578063a457c2d714610428578063a9059cbb146103f7578063b0f479a1146103b3578063b2d9295514610320578063c1586af8146102fa578063dd62ed3e146102ac578063ddf8560314610288578063e12b948b146102655763f2fde38b036100115734610261576020366003190112610261576101c4611f6e565b906101cd612834565b6001600160a01b039182169233841461021e575050600180546001600160a01b031916831790558254167fed8889f560326eb138920d842192f0eb3dd22b4f139c87a2c57538e05bae12788380a380f35b906020606492519162461bcd60e51b8352820152601760248201527f43616e6e6f74207472616e7366657220746f2073656c660000000000000000006044820152fd5b8280fd5b505034610284578160031936011261028457602090600a549051908152f35b5080fd5b50503461028457816003193601126102845760209060ff6007541690519015158152f35b5050346102845780600319360112610284576020916102c9611f6e565b826102d2611f84565b6001600160a01b03928316845260038652922091166000908152908352819020549051908152f35b5050346102845760209061031961031036611fda565b929190916127dc565b9051908152f35b509034610261576020366003190112610261576101009281906001600160a01b03610349611f6e565b168152600b6020522080549260018201546002830154906005600385015493850154940154946001600160401b0381519760ff81161515895260ff8160081c16151560208a015260101c16908701526060860152608085015260a084015260c083015260e0820152f35b505034610284578160031936011261028457517f00000000000000000000000000000000000000000000000000000000000000006001600160a01b03168152602090f35b505034610284578060031936011261028457602090610421610417611f6e565b602435903361246d565b5160018152f35b5082346104ce57826003193601126104ce57610442611f6e565b91836024359233815260036020522060018060a01b03841660005260205283600020549082821061047d576020856104218585038733612681565b608490602086519162461bcd60e51b8352820152602560248201527f45524332303a2064656372656173656420616c6c6f77616e63652062656c6f77604482015264207a65726f60d81b6064820152fd5b80fd5b5034610261578260031936011261026157338352600b6020526105276001600160401b03808486205460101c16907f0000000000000000000000000000000000000000000000000000000000000000161461211a565b338352600b60205260ff82842054161561056a5750338252600b602052812061010061ff0019825416179055336001600160601b0360a01b600954161760095580f35b6024915190636a9ff79f60e11b82523390820152fd5b5091346104ce57806003193601126104ce578151918160065492600184811c91818616958615610691575b602096878510811461067e578899509688969785829a5291826000146106575750506001146105fb575b5050506105f792916105e89103856120a3565b51928284938452830190611f9a565b0390f35b9190869350600683527ff652222313e28459528d920b65115c16c04f3efc82aaedc97be59f3f377c0d3f5b82841061063f57505050820101816105e86105f76105d5565b8054848a018601528895508794909301928101610626565b60ff19168782015293151560051b860190930193508492506105e891506105f790506105d5565b634e487b7160e01b835260228a52602483fd5b92607f16926105ab565b505034610284578160031936011261028457905490516001600160a01b039091168152602090f35b505034610284578160031936011261028457602090516001600160401b037f0000000000000000000000000000000000000000000000000000000000000000168152f35b5090346102615760209160031983813601126108c3578135906001600160401b0390818311610a435760a0908336030112610940576001600160a01b03927f000000000000000000000000000000000000000000000000000000000000000084163303610af85784519161077a8361200e565b838201358352602490818501358181168103610ad757888501526044850135818111610a3b576107af908436918801016120c4565b938781019485526064860135828111610a3f576107d1908536918901016120c4565b9560608201968752608481013590838211610af4570136602382011215610a3f5784810135928311610ae05788519261080f8b8260051b01856120a3565b808452848b85019160061b83010191368311610adc578501905b828210610a9d575050506080015282518781805181010312610a375761085188879201612783565b16808952600b885260ff878a20541615610a88575083518781805181010312610a37576108818860ff9201612797565b16806108c7575050505051916060838051810103126108c3576108b66060916108ae6108c0968601612797565b508401612783565b92015191166125dd565b80f35b8480fd5b6001819897959394969814600014610944575050505081518381805181010312610940576108f784869201612783565b168552600b8352842061010061ff00198254161790555190808280518101031261093c576109259101612783565b166001600160601b0360a01b600954161760095580f35b8380fd5b8580fd5b9296939492600203610a4757505160a081805181010312610a435761096a858201612797565b508381015195606082015160a060808401519301519784518881805181010312610a3f5761099a89889201612783565b168a52600b8852426001888c20015584518881805181010312610a3f576109c389889201612783565b168a526002878b20015583518781805181010312610a3b576109e788879201612783565b1689526003868a20015582518681805181010312610a3757610a0b87869201612783565b168852848820015551838180518101031261094057600593610a2d9101612783565b1684528320015580f35b8880fd5b8980fd5b8a80fd5b8680fd5b8660196064928888519362461bcd60e51b85528401528201527f696e76616c696420636f6d6d616e642066726f6d204e6f6465000000000000006044820152fd5b8651636a9ff79f60e11b815280840191909152fd5b8a82360312610adc578a5190610ab28261206d565b8235908b82168203610ad757828e928e94528285013583820152815201910190610829565b600080fd5b8c80fd5b83604186634e487b7160e01b600052526000fd5b8b80fd5b6024908551906335fdcccd60e21b82523390820152fd5b509034610261578260031936011261026157600154916001600160a01b03918284163303610b7a57505082546001600160a01b03198082163390811786559316600155167f8be0079c531659141344cd1fd0a4f28419497f9722a3daafe3b4186f6b6457e08380a380f35b906020606492519162461bcd60e51b8352820152601660248201527526bab9ba10313290383937b837b9b2b21037bbb732b960511b6044820152fd5b5050346102845760203660031901126102845760209181906001600160a01b03610bde611f6e565b1681526002845220549051908152f35b83346104ce57806003193601126104ce57610c07612834565b6007805460ff60a81b1916905580f35b50503461028457816003193601126102845760095490516001600160a01b039091168152602090f35b50503461028457816003193601126102845760209060ff60075460a81c1690519015158152f35b50503461028457816003193601126102845760085490516001600160a01b039091168152602090f35b50829034610284578260031936011261028457610cab611ff8565b610cb3611f84565b9360018060a01b0392838616928386526020600b815260ff84882054161561126157869760ff60079897985416156111fa575b5083516001828201526001600160401b038093169283868301526060908782840152818352610d1483612088565b89600954168952600b845286892061ff00198154169055896009541692838a52878a2054828160101c16927f0000000000000000000000000000000000000000000000000000000000000000168314600014610def575050505050508560095416803b156109405785928360449286519788958694634bb297ff60e11b865285015260248401525af1908115610de65750610dd2575b50505b6009546001600160601b0360a01b9181168260085416176008551660095542600a5580f35b610ddb9061205a565b610284578183610daa565b513d84823e3d90fd5b9195509296975060ff919593985016156111e3578760075460081c1684819560808951610e1b8161200e565b828152828c820152828b8201528d83820152015287519689880152888752610e428761206d565b8751610e4d8161203f565b60008152610e6a8951610e5f8161203f565b621e848081526127a5565b93895198610e778a61200e565b89528a890152888801528601526080850152845163b0f479a160e01b815286818381305afa9081156111d9579088918a9161119f575b5086516320487ded60e01b81529116938990888380610ecf8a89898401612174565b0381895afa928315611195579089918394611163575b5060648951809481936323b872dd60e01b835233898401523060248401528760448401525af1908115611159578a9161113c575b50156110f9578760075460081c169086516370a0823160e01b9081815230858201528981602481875afa9081156110ef578c916110c2575b5082116110465750865163095ea7b360e01b81526001600160a01b03861681850190815260208101929092528a939290918991839182908790829060400103925af1801561103c579188959391610fc59897959361100f575b5086516396f4e9f960e01b8152978895869485938401612174565b03925af19081156110065750610fdd575b5050610dad565b813d8311610fff575b610ff081836120a3565b81010312610284578280610fd6565b503d610fe6565b513d86823e3d90fd5b61102e90873d8911611035575b61102681836120a3565b810190612240565b508b610faa565b503d61101c565b87513d85823e3d90fd5b908a888a80879560248451809981938252308a8301525afa9283156110b75792611086575b5051634787a10360e11b815292830152602482015260449150fd5b90915084813d83116110b0575b61109d81836120a3565b81010312610ad75760449351908561106b565b503d611093565b8251903d90823e3d90fd5b90508981813d83116110e8575b6110d981836120a3565b81010312610ad757518c610f51565b503d6110cf565b89513d8e823e3d90fd5b855162461bcd60e51b8152808301889052601a60248201527f4e6f742070726f7669646564204c696e6b20666f7220666565730000000000006044820152606490fd5b6111539150883d8a116110355761102681836120a3565b8a610f19565b87513d8c823e3d90fd5b9250925081813d831161118e575b61117b81836120a3565b81010312610ad757878a9151928c610ee5565b503d611171565b88513d84823e3d90fd5b809250888092503d83116111d2575b6111b881836120a3565b81010312610a3757518781168103610a375787908a610ead565b503d6111ae565b86513d8b823e3d90fd5b8551636a9ff79f60e11b8152808301869052602490fd5b61120e91929394959650876009541661227b565b1561121f5790869493929188610ce6565b9050606492519162461bcd60e51b8352820152601960248201527f436f6e646974696f6e20746f2077617270206e6f74206d6574000000000000006044820152fd5b9050606492519162461bcd60e51b8352820152601d60248201527f44657374696e6174696f6e204e6f6465206973206e6f74207661696c640000006044820152fd5b5091346104ce5760a03660031901126104ce576112be611ff8565b916112c7611f84565b6001600160a01b03936044358581169190829003610ad75760643590868216809203610ad757608435976001600160401b038911610a435761131261138e96979899369083016120c4565b87519460209a8b97168787015286865261132b8661206d565b88516113368161203f565b600081526113538a516113488161203f565b620f424081526127a5565b928a51976113608961200e565b885288880152898701526060860152608085015286516320487ded60e01b8152958694859384938401612174565b03915afa9283156110b757926113a6575b5051908152f35b9091508281813d83116113ce575b6113be81836120a3565b81010312610ad75751903861139f565b503d6113b4565b505034610284578060031936011261028457610421602092826113f6611f6e565b91338152600386522060018060a01b038216600052845261141d6024358460002054612258565b9033612681565b5050346102845781600319360112610284576020905160128152f35b508290346102845760209283600319360112610261576009546001600160a01b039081168452600b8552818420548335919060081c60ff1615611a615733855260028652828520548211611a285782519585818801523384880152606083818901528088526114ae88612088565b33156119db5733875260028252848720549784891061198d57848899989697983388526002855203878720558488540388558587518681527fddf252ad1be2c89b69c2b068fc378daa952ba7f163c4a11628f55a4df523b3ef853392a3836009541691828752600b845287872054916001600160401b0392838160101c16937f00000000000000000000000000000000000000000000000000000000000000001684146000146115af5750505050505060095416803b156102615783516315e005b760e31b8152339581019586526020860192909252909384919082908490829060400103925af1908115610de657506115a6575080f35b6108c09061205a565b909295965060ff919397509893981615611976578460075460081c1682819360808a516115db8161200e565b828152828d820152828c8201528d8382015201528851978a8901528988526116028861206d565b885161160d8161203f565b8b815261161e8a51610e5f8161203f565b938a519961162b8b61200e565b8a528b8a0152898901528701526080860152855163b0f479a160e01b815287818481305afa90811561196c579085918a91611932575b501693888751926320487ded60e01b84528984806116828b8a8a8401612174565b03818a5afa93841561192857908a9183956118f7575b5060648a51809481936323b872dd60e01b8352338a8401523060248401528860448401525af19081156118ed578a916118d0575b501561188d579088929160075460081c169087516370a0823160e01b9081815230858201528a81602481875afa908115611883578691611856575b5082116117d75750875163095ea7b360e01b81526001600160a01b038716848201908152602081019290925291899183919082908790829060400103925af1801561103c579188959391611777989795936117ba575086516396f4e9f960e01b8152978895869485938401612174565b03925af19081156117b1575061178c57505080f35b813d83116117aa575b61179f81836120a3565b810103126104ce5780f35b503d611795565b513d85823e3d90fd5b6117d090873d89116110355761102681836120a3565b508a610faa565b899192828a9260248451809481938252308a8301525afa92831561184c578693611818575b505051634787a10360e11b815292830152602482015260449150fd5b9080929350813d8311611845575b61183081836120a3565b810103126108c35760449450519085806117fc565b503d611826565b82513d88823e3d90fd5b90508a81813d831161187c575b61186d81836120a3565b8101031261094057518c611707565b503d611863565b8a513d88823e3d90fd5b865162461bcd60e51b8152808401899052601a60248201527f4e6f742070726f7669646564204c696e6b20666f7220666565730000000000006044820152606490fd5b6118e79150893d8b116110355761102681836120a3565b8a6116cc565b88513d8c823e3d90fd5b8281939296503d8311611921575b61190f81836120a3565b8101031261028457899051938c611698565b503d611905565b89513d84823e3d90fd5b809250898092503d8311611965575b61194b81836120a3565b81010312610a3757518481168103610a375784908a611661565b503d611941565b87513d8b823e3d90fd5b8651636a9ff79f60e11b8152808401879052602490fd5b855162461bcd60e51b8152808801849052602260248201527f45524332303a206275726e20616d6f756e7420657863656564732062616c616e604482015261636560f01b6064820152608490fd5b845162461bcd60e51b8152808701839052602160248201527f45524332303a206275726e2066726f6d20746865207a65726f206164647265736044820152607360f81b6064820152608490fd5b825162461bcd60e51b815280850187905260136024820152724e6f7420656e6f756768742062616c616e636560681b6044820152606490fd5b825162461bcd60e51b815280850187905260126024820152714e6f6465206973206e6f742041637469766560701b6044820152606490fd5b5082903461028457606036600319011261028457611ab5611f6e565b611abd611f84565b6001600160a01b03821684526003602090815285852033865290529284902054604435939260018201611af9575b60208661042187878761246d565b848210611b225750918391611b176020969561042195033383612681565b919394819350611aeb565b606490602087519162461bcd60e51b8352820152601d60248201527f45524332303a20696e73756666696369656e7420616c6c6f77616e63650000006044820152fd5b505034610284578060031936011261028457602090611b93611b85611f6e565b611b8d611f84565b9061227b565b90519015158152f35b503461026157826003193601126102615760209250549051908152f35b5050346102845781600319360112610284576020906001600160401b03611bde612417565b915191168152f35b503461026157606036600319011261026157611c00611f6e565b906024356001600160401b03811681036108c3576044359283151592838503610a4357611c2b612834565b60ff60075460a81c1615611ca6575090600191828060a01b031694858752600b60205286209261ff0069ffffffffffffffff000085549360101b169269ffffffffffffffffffff19169160081b161717179055611c86575080f35b6001600160601b0360a01b81816008541617600855600954161760095580f35b606490602087519162461bcd60e51b83528201526015602482015274139bc81b5bdc99481b9bd9195cc8185b1b1bddd959605a1b6044820152fd5b505034610284578060031936011261028457602090610421611d01611f6e565b6024359033612681565b5082903461028457611d1c36611fda565b939091338652600b602052611d646001600160401b03808989205460101c16907f0000000000000000000000000000000000000000000000000000000000000000161461211a565b338652600b60205260ff878720541615611da0576005949596338852600b60205287209342600186015560028501556003840155820155015580f35b8651636a9ff79f60e11b81523381840152602490fd5b5091346104ce57806003193601126104ce578151918160055492600184811c91818616958615611e79575b602096878510811461067e578899509688969785829a529182600014610657575050600114611e1d575050506105f792916105e89103856120a3565b9190869350600583527f036b6384b5eca791c62761152d0c79bb0604c104a5fb6f4eb0703f3154bb3db05b828410611e6157505050820101816105e86105f76105d5565b8054848a018601528895508794909301928101611e48565b92607f1692611de1565b5034610261578160031936011261026157611e9c611f6e565b91338452600b602052611ee26001600160401b03808387205460101c16907f0000000000000000000000000000000000000000000000000000000000000000161461211a565b338452600b60205260ff818520541615611f0357836108c0602435856125dd565b602492505190636a9ff79f60e11b82523390820152fd5b92505034610261576020366003190112610261573563ffffffff60e01b811680910361026157602092506385572ffb60e01b8114908115611f5d575b5015158152f35b6301ffc9a760e01b14905038611f56565b600435906001600160a01b0382168203610ad757565b602435906001600160a01b0382168203610ad757565b919082519283825260005b848110611fc6575050826000602080949584010152601f8019910116010190565b602081830181015184830182015201611fa5565b6080906003190112610ad75760043590602435906044359060643590565b600435906001600160401b0382168203610ad757565b60a081019081106001600160401b0382111761202957604052565b634e487b7160e01b600052604160045260246000fd5b602081019081106001600160401b0382111761202957604052565b6001600160401b03811161202957604052565b604081019081106001600160401b0382111761202957604052565b608081019081106001600160401b0382111761202957604052565b90601f801991011681019081106001600160401b0382111761202957604052565b81601f82011215610ad7578035906001600160401b03821161202957604051926120f8601f8401601f1916602001856120a3565b82845260208383010111610ad757816000926020809301838601378301015290565b1561212157565b60405162461bcd60e51b815260206004820152602560248201527f52657175697265206d617374657220616e64206e6f646520696e2073616d652060448201526431b430b4b760d91b6064820152608490fd5b906001600160401b0390939293168152604060209181838201526121a3855160a08484015260e0830190611f9a565b916121bf8487015193603f199485858303016060860152611f9a565b8187015194848483030160808501528080875193848152019601926000905b83821061221757505050505060c06080612214959660018060a01b0360608201511660a085015201519282850301910152611f9a565b90565b845180516001600160a01b031689528301518884015296870196938201936001909101906121de565b90816020910312610ad757518015158103610ad75790565b9190820180921161226557565b634e487b7160e01b600052601160045260246000fd5b60018060a01b03809216916000838152600b90602091808352604092838320946122bb600287015460038801549760049860058a830154920154926127dc565b96600a5462015180810180911161239357421198896123f9575b896123e1575b896123cb575b896123a6575b89612370575b89612357575b8961233f575b5088612328575b88612311575b505050505050505090565b168352522001541090503880808080808080612306565b818116855283835285852087015415159850612300565b85528383528585205460081c60ff16159850386122f9565b8086528484528686205460ff16151560011499506122f3565b809950855283835260018686200154610e108101809111612393574210986122ed565b634e487b7160e01b865260118852602486fd5b9850818116855283835260018686200154610e108101809111612393574210986122e7565b80865284845286862060010154151599506122e1565b818316865284845286862060010154151599506122db565b81831686528484528686205460081c60ff16151560011499506122d5565b6009546001600160a01b0390811690811561244a5750600052600b6020526001600160401b0360406000205460101c1690565b905060085416600052600b6020526001600160401b0360406000205460101c1690565b6001600160a01b0390811691821561258a571691821561253957600082815260026020526040812054918083106124e557604082827fddf252ad1be2c89b69c2b068fc378daa952ba7f163c4a11628f55a4df523b3ef95876020965260028652038282205586815220818154019055604051908152a3565b60405162461bcd60e51b815260206004820152602660248201527f45524332303a207472616e7366657220616d6f756e7420657863656564732062604482015265616c616e636560d01b6064820152608490fd5b60405162461bcd60e51b815260206004820152602360248201527f45524332303a207472616e7366657220746f20746865207a65726f206164647260448201526265737360e81b6064820152608490fd5b60405162461bcd60e51b815260206004820152602560248201527f45524332303a207472616e736665722066726f6d20746865207a65726f206164604482015264647265737360d81b6064820152608490fd5b6001600160a01b031690811561263c577fddf252ad1be2c89b69c2b068fc378daa952ba7f163c4a11628f55a4df523b3ef60208261261f600094600454612258565b6004558484526002825260408420818154019055604051908152a3565b60405162461bcd60e51b815260206004820152601f60248201527f45524332303a206d696e7420746f20746865207a65726f2061646472657373006044820152606490fd5b6001600160a01b0390811691821561273257169182156126e25760207f8c5be1e5ebec7d5bd14f71427d1e84f3dd0314c0f7b2291e5b200ac8c7c3b925918360005260038252604060002085600052825280604060002055604051908152a3565b60405162461bcd60e51b815260206004820152602260248201527f45524332303a20617070726f766520746f20746865207a65726f206164647265604482015261737360f01b6064820152608490fd5b60405162461bcd60e51b8152602060048201526024808201527f45524332303a20617070726f76652066726f6d20746865207a65726f206164646044820152637265737360e01b6064820152608490fd5b51906001600160a01b0382168203610ad757565b519060ff82168203610ad757565b604051906397a657c960e01b602083015251602482015260248152606081018181106001600160401b038211176120295760405290565b926127e79193612258565b670de0b6b3a7640000928381029080820485149015171561226557811561281e570490818102918183041490151715612265570490565b634e487b7160e01b600052601260045260246000fd5b6000546001600160a01b0316330361284857565b60405162461bcd60e51b815260206004820152601660248201527527b7363c9031b0b63630b1363290313c9037bbb732b960511b6044820152606490fdfea26469706673582212204a373fcc2a03e47a61655fa4bf0aca8ae1415658bfe07b0b78ce35cf3fa28cd164736f6c63430008130033f652222313e28459528d920b65115c16c04f3efc82aaedc97be59f3f377c0d3f",
  "bytecodeSha1": "8cc455145e5a53b62d7cfd6cd8512ea3d6b2ce12",
  "compiler": {
    "evm_version": "istanbul",
    "optimizer": {
      "enabled": true,
      "runs": 200
    },
    "version": "0.8.19+commit.7dd6d404"
  },
  "contractName": "MasterNode",
  "language": "Solidity",
  "natspec": {
    "kind": "dev",
    "methods": {
      "acceptOwnership()": {
        "notice": "Allows an ownership transfer to be completed by the recipient."
      },
      "allowance(address,address)": {
        "details": "See {IERC20-allowance}."
      },
      "approve(address,uint256)": {
        "details": "See {IERC20-approve}. NOTE: If `amount` is the maximum `uint256`, the allowance is not updated on `transferFrom`. This is semantically equivalent to an infinite approval. Requirements: - `spender` cannot be the zero address."
      },
      "balanceOf(address)": {
        "details": "See {IERC20-balanceOf}."
      },
      "ccipReceive((bytes32,uint64,bytes,bytes,(address,uint256)[]))": {
        "details": "Note ensure you check the msg.sender is the OffRampRouter",
        "notice": "Called by the Router to deliver a message. If this reverts, any token transfers also revert. The message will move to a FAILED state and become available for manual execution.",
        "params": {
          "message": "CCIP Message"
        }
      },
      "decimals()": {
        "details": "Returns the number of decimals used to get its user representation. For example, if `decimals` equals `2`, a balance of `505` tokens should be displayed to a user as `5.05` (`505 / 10 ** 2`). Tokens usually opt for a value of 18, imitating the relationship between Ether and Wei. This is the value {ERC20} uses, unless this function is overridden; NOTE: This information is only used for _display_ purposes: it in no way affects any of the arithmetic of the contract, including {IERC20-balanceOf} and {IERC20-transfer}."
      },
      "decreaseAllowance(address,uint256)": {
        "details": "Atomically decreases the allowance granted to `spender` by the caller. This is an alternative to {approve} that can be used as a mitigation for problems described in {IERC20-approve}. Emits an {Approval} event indicating the updated allowance. Requirements: - `spender` cannot be the zero address. - `spender` must have allowance for the caller of at least `subtractedValue`."
      },
      "getRouter()": {
        "notice": "Return the current router",
        "returns": {
          "_0": "CCIP router address"
        }
      },
      "increaseAllowance(address,uint256)": {
        "details": "Atomically increases the allowance granted to `spender` by the caller. This is an alternative to {approve} that can be used as a mitigation for problems described in {IERC20-approve}. Emits an {Approval} event indicating the updated allowance. Requirements: - `spender` cannot be the zero address."
      },
      "name()": {
        "details": "Returns the name of the token."
      },
      "owner()": {
        "notice": "Get the current owner"
      },
      "supportsInterface(bytes4)": {
        "details": "Should indicate whether the contract implements IAny2EVMMessageReceiver e.g. return interfaceId == type(IAny2EVMMessageReceiver).interfaceId || interfaceId == type(IERC165).interfaceId This allows CCIP to check if ccipReceive is available before calling it. If this returns false or reverts, only tokens are transferred to the receiver. If this returns true, tokens are transferred and ccipReceive is called atomically. Additionally, if the receiver address does not have code associated with it at the time of execution (EXTCODESIZE returns 0), only tokens will be transferred.",
        "notice": "IERC165 supports an interfaceId",
        "params": {
          "interfaceId": "The interfaceId to check"
        },
        "returns": {
          "_0": "true if the interfaceId is supported"
        }
      },
      "symbol()": {
        "details": "Returns the symbol of the token, usually a shorter version of the name."
      },
      "totalSupply()": {
        "details": "See {IERC20-totalSupply}."
      },
      "transfer(address,uint256)": {
        "details": "See {IERC20-transfer}. Requirements: - `to` cannot be the zero address. - the caller must have a balance of at least `amount`."
      },
      "transferFrom(address,address,uint256)": {
        "details": "See {IERC20-transferFrom}. Emits an {Approval} event indicating the updated allowance. This is not required by the EIP. See the note at the beginning of {ERC20}. NOTE: Does not update the allowance if the current allowance is the maximum `uint256`. Requirements: - `from` and `to` cannot be the zero address. - `from` must have a balance of at least `amount`. - the caller must have allowance for ``from``'s tokens of at least `amount`."
      },
      "transferOwnership(address)": {
        "notice": "Allows an owner to begin transferring ownership to a new address."
      }
    },
    "title": "- A simple messenger contract for transferring/receiving tokens and data across chains.",
    "version": 1
  },
  "opcodes": "PUSH1 0x80 PUSH1 0x40 DUP2 DUP2 MSTORE PUSH1 0x4 DUP1 CALLDATASIZE LT ISZERO PUSH2 0x21 JUMPI JUMPDEST POP POP POP CALLDATASIZE ISZERO PUSH2 0x1F JUMPI PUSH1 0x0 DUP1 REVERT JUMPDEST STOP JUMPDEST PUSH1 0x0 SWAP3 DUP4 CALLDATALOAD PUSH1 0xE0 SHR SWAP1 DUP2 PUSH4 0x1FFC9A7 EQ PUSH2 0x1F1A JUMPI POP DUP1 PUSH4 0x4783EA4 EQ PUSH2 0x1E83 JUMPI DUP1 PUSH4 0x6FDDE03 EQ PUSH2 0x1DB6 JUMPI DUP1 PUSH4 0x8A767FE EQ PUSH2 0x1D0B JUMPI DUP1 PUSH4 0x95EA7B3 EQ PUSH2 0x1CE1 JUMPI DUP1 PUSH4 0x10A78DF8 EQ PUSH2 0x1BE6 JUMPI DUP1 PUSH4 0x1803C2F5 EQ PUSH2 0x1BB9 JUMPI DUP1 PUSH4 0x18160DDD EQ PUSH2 0x1B9C JUMPI DUP1 PUSH4 0x1D880928 EQ PUSH2 0x1B65 JUMPI DUP1 PUSH4 0x23B872DD EQ PUSH2 0x1A99 JUMPI DUP1 PUSH4 0x2E1A7D4D EQ PUSH2 0x1440 JUMPI DUP1 PUSH4 0x313CE567 EQ PUSH2 0x1424 JUMPI DUP1 PUSH4 0x39509351 EQ PUSH2 0x13D5 JUMPI DUP1 PUSH4 0x544B1709 EQ PUSH2 0x12A3 JUMPI DUP1 PUSH4 0x5C292BE5 EQ PUSH2 0xC90 JUMPI DUP1 PUSH4 0x61AC3F99 EQ PUSH2 0xC67 JUMPI DUP1 PUSH4 0x654E8E0C EQ PUSH2 0xC40 JUMPI DUP1 PUSH4 0x6C1DC077 EQ PUSH2 0xC17 JUMPI DUP1 PUSH4 0x6C98D513 EQ PUSH2 0xBEE JUMPI DUP1 PUSH4 0x70A08231 EQ PUSH2 0xBB6 JUMPI DUP1 PUSH4 0x79BA5097 EQ PUSH2 0xB0F JUMPI DUP1 PUSH4 0x85572FFB EQ PUSH2 0x707 JUMPI DUP1 PUSH4 0x8CF19D19 EQ PUSH2 0x6C3 JUMPI DUP1 PUSH4 0x8DA5CB5B EQ PUSH2 0x69B JUMPI DUP1 PUSH4 0x95D89B41 EQ PUSH2 0x580 JUMPI DUP1 PUSH4 0x995714AE EQ PUSH2 0x4D1 JUMPI DUP1 PUSH4 0xA457C2D7 EQ PUSH2 0x428 JUMPI DUP1 PUSH4 0xA9059CBB EQ PUSH2 0x3F7 JUMPI DUP1 PUSH4 0xB0F479A1 EQ PUSH2 0x3B3 JUMPI DUP1 PUSH4 0xB2D92955 EQ PUSH2 0x320 JUMPI DUP1 PUSH4 0xC1586AF8 EQ PUSH2 0x2FA JUMPI DUP1 PUSH4 0xDD62ED3E EQ PUSH2 0x2AC JUMPI DUP1 PUSH4 0xDDF85603 EQ PUSH2 0x288 JUMPI DUP1 PUSH4 0xE12B948B EQ PUSH2 0x265 JUMPI PUSH4 0xF2FDE38B SUB PUSH2 0x11 JUMPI CALLVALUE PUSH2 0x261 JUMPI PUSH1 0x20 CALLDATASIZE PUSH1 0x3 NOT ADD SLT PUSH2 0x261 JUMPI PUSH2 0x1C4 PUSH2 0x1F6E JUMP JUMPDEST SWAP1 PUSH2 0x1CD PUSH2 0x2834 JUMP JUMPDEST PUSH1 0x1 PUSH1 0x1 PUSH1 0xA0 SHL SUB SWAP2 DUP3 AND SWAP3 CALLER DUP5 EQ PUSH2 0x21E JUMPI POP POP PUSH1 0x1 DUP1 SLOAD PUSH1 0x1 PUSH1 0x1 PUSH1 0xA0 SHL SUB NOT AND DUP4 OR SWAP1 SSTORE DUP3 SLOAD AND PUSH32 0xED8889F560326EB138920D842192F0EB3DD22B4F139C87A2C57538E05BAE1278 DUP4 DUP1 LOG3 DUP1 RETURN JUMPDEST SWAP1 PUSH1 0x20 PUSH1 0x64 SWAP3 MLOAD SWAP2 PUSH3 0x461BCD PUSH1 0xE5 SHL DUP4 MSTORE DUP3 ADD MSTORE PUSH1 0x17 PUSH1 0x24 DUP3 ADD MSTORE PUSH32 0x43616E6E6F74207472616E7366657220746F2073656C66000000000000000000 PUSH1 0x44 DUP3 ADD MSTORE REVERT JUMPDEST DUP3 DUP1 REVERT JUMPDEST POP POP CALLVALUE PUSH2 0x284 JUMPI DUP2 PUSH1 0x3 NOT CALLDATASIZE ADD SLT PUSH2 0x284 JUMPI PUSH1 0x20 SWAP1 PUSH1 0xA SLOAD SWAP1 MLOAD SWAP1 DUP2 MSTORE RETURN JUMPDEST POP DUP1 REVERT JUMPDEST POP POP CALLVALUE PUSH2 0x284 JUMPI DUP2 PUSH1 0x3 NOT CALLDATASIZE ADD SLT PUSH2 0x284 JUMPI PUSH1 0x20 SWAP1 PUSH1 0xFF PUSH1 0x7 SLOAD AND SWAP1 MLOAD SWAP1 ISZERO ISZERO DUP2 MSTORE RETURN JUMPDEST POP POP CALLVALUE PUSH2 0x284 JUMPI DUP1 PUSH1 0x3 NOT CALLDATASIZE ADD SLT PUSH2 0x284 JUMPI PUSH1 0x20 SWAP2 PUSH2 0x2C9 PUSH2 0x1F6E JUMP JUMPDEST DUP3 PUSH2 0x2D2 PUSH2 0x1F84 JUMP JUMPDEST PUSH1 0x1 PUSH1 0x1 PUSH1 0xA0 SHL SUB SWAP3 DUP4 AND DUP5 MSTORE PUSH1 0x3 DUP7 MSTORE SWAP3 KECCAK256 SWAP2 AND PUSH1 0x0 SWAP1 DUP2 MSTORE SWAP1 DUP4 MSTORE DUP2 SWAP1 KECCAK256 SLOAD SWAP1 MLOAD SWAP1 DUP2 MSTORE RETURN JUMPDEST POP POP CALLVALUE PUSH2 0x284 JUMPI PUSH1 0x20 SWAP1 PUSH2 0x319 PUSH2 0x310 CALLDATASIZE PUSH2 0x1FDA JUMP JUMPDEST SWAP3 SWAP2 SWAP1 SWAP2 PUSH2 0x27DC JUMP JUMPDEST SWAP1 MLOAD SWAP1 DUP2 MSTORE RETURN JUMPDEST POP SWAP1 CALLVALUE PUSH2 0x261 JUMPI PUSH1 0x20 CALLDATASIZE PUSH1 0x3 NOT ADD SLT PUSH2 0x261 JUMPI PUSH2 0x100 SWAP3 DUP2 SWAP1 PUSH1 0x1 PUSH1 0x1 PUSH1 0xA0 SHL SUB PUSH2 0x349 PUSH2 0x1F6E JUMP JUMPDEST AND DUP2 MSTORE PUSH1 0xB PUSH1 0x20 MSTORE KECCAK256 DUP1 SLOAD SWAP3 PUSH1 0x1 DUP3 ADD SLOAD PUSH1 0x2 DUP4 ADD SLOAD SWAP1 PUSH1 0x5 PUSH1 0x3 DUP6 ADD SLOAD SWAP4 DUP6 ADD SLOAD SWAP5 ADD SLOAD SWAP5 PUSH1 0x1 PUSH1 0x1 PUSH1 0x40 SHL SUB DUP2 MLOAD SWAP8 PUSH1 0xFF DUP2 AND ISZERO ISZERO DUP10 MSTORE PUSH1 0xFF DUP2 PUSH1 0x8 SHR AND ISZERO ISZERO PUSH1 0x20 DUP11 ADD MSTORE PUSH1 0x10 SHR AND SWAP1 DUP8 ADD MSTORE PUSH1 0x60 DUP7 ADD MSTORE PUSH1 0x80 DUP6 ADD MSTORE PUSH1 0xA0 DUP5 ADD MSTORE PUSH1 0xC0 DUP4 ADD MSTORE PUSH1 0xE0 DUP3 ADD MSTORE RETURN JUMPDEST POP POP CALLVALUE PUSH2 0x284 JUMPI DUP2 PUSH1 0x3 NOT CALLDATASIZE ADD SLT PUSH2 0x284 JUMPI MLOAD PUSH32 0x0 PUSH1 0x1 PUSH1 0x1 PUSH1 0xA0 SHL SUB AND DUP2 MSTORE PUSH1 0x20 SWAP1 RETURN JUMPDEST POP POP CALLVALUE PUSH2 0x284 JUMPI DUP1 PUSH1 0x3 NOT CALLDATASIZE ADD SLT PUSH2 0x284 JUMPI PUSH1 0x20 SWAP1 PUSH2 0x421 PUSH2 0x417 PUSH2 0x1F6E JUMP JUMPDEST PUSH1 0x24 CALLDATALOAD SWAP1 CALLER PUSH2 0x246D JUMP JUMPDEST MLOAD PUSH1 0x1 DUP2 MSTORE RETURN JUMPDEST POP DUP3 CALLVALUE PUSH2 0x4CE JUMPI DUP3 PUSH1 0x3 NOT CALLDATASIZE ADD SLT PUSH2 0x4CE JUMPI PUSH2 0x442 PUSH2 0x1F6E JUMP JUMPDEST SWAP2 DUP4 PUSH1 0x24 CALLDATALOAD SWAP3 CALLER DUP2 MSTORE PUSH1 0x3 PUSH1 0x20 MSTORE KECCAK256 PUSH1 0x1 DUP1 PUSH1 0xA0 SHL SUB DUP5 AND PUSH1 0x0 MSTORE PUSH1 0x20 MSTORE DUP4 PUSH1 0x0 KECCAK256 SLOAD SWAP1 DUP3 DUP3 LT PUSH2 0x47D JUMPI PUSH1 0x20 DUP6 PUSH2 0x421 DUP6 DUP6 SUB DUP8 CALLER PUSH2 0x2681 JUMP JUMPDEST PUSH1 0x84 SWAP1 PUSH1 0x20 DUP7 MLOAD SWAP2 PUSH3 0x461BCD PUSH1 0xE5 SHL DUP4 MSTORE DUP3 ADD MSTORE PUSH1 0x25 PUSH1 0x24 DUP3 ADD MSTORE PUSH32 0x45524332303A2064656372656173656420616C6C6F77616E63652062656C6F77 PUSH1 0x44 DUP3 ADD MSTORE PUSH5 0x207A65726F PUSH1 0xD8 SHL PUSH1 0x64 DUP3 ADD MSTORE REVERT JUMPDEST DUP1 REVERT JUMPDEST POP CALLVALUE PUSH2 0x261 JUMPI DUP3 PUSH1 0x3 NOT CALLDATASIZE ADD SLT PUSH2 0x261 JUMPI CALLER DUP4 MSTORE PUSH1 0xB PUSH1 0x20 MSTORE PUSH2 0x527 PUSH1 0x1 PUSH1 0x1 PUSH1 0x40 SHL SUB DUP1 DUP5 DUP7 KECCAK256 SLOAD PUSH1 0x10 SHR AND SWAP1 PUSH32 0x0 AND EQ PUSH2 0x211A JUMP JUMPDEST CALLER DUP4 MSTORE PUSH1 0xB PUSH1 0x20 MSTORE PUSH1 0xFF DUP3 DUP5 KECCAK256 SLOAD AND ISZERO PUSH2 0x56A JUMPI POP CALLER DUP3 MSTORE PUSH1 0xB PUSH1 0x20 MSTORE DUP2 KECCAK256 PUSH2 0x100 PUSH2 0xFF00 NOT DUP3 SLOAD AND OR SWAP1 SSTORE CALLER PUSH1 0x1 PUSH1 0x1 PUSH1 0x60 SHL SUB PUSH1 0xA0 SHL PUSH1 0x9 SLOAD AND OR PUSH1 0x9 SSTORE DUP1 RETURN JUMPDEST PUSH1 0x24 SWAP2 MLOAD SWAP1 PUSH4 0x6A9FF79F PUSH1 0xE1 SHL DUP3 MSTORE CALLER SWAP1 DUP3 ADD MSTORE REVERT JUMPDEST POP SWAP2 CALLVALUE PUSH2 0x4CE JUMPI DUP1 PUSH1 0x3 NOT CALLDATASIZE ADD SLT PUSH2 0x4CE JUMPI DUP2 MLOAD SWAP2 DUP2 PUSH1 0x6 SLOAD SWAP3 PUSH1 0x1 DUP5 DUP2 SHR SWAP2 DUP2 DUP7 AND SWAP6 DUP7 ISZERO PUSH2 0x691 JUMPI JUMPDEST PUSH1 0x20 SWAP7 DUP8 DUP6 LT DUP2 EQ PUSH2 0x67E JUMPI DUP9 SWAP10 POP SWAP7 DUP9 SWAP7 SWAP8 DUP6 DUP3 SWAP11 MSTORE SWAP2 DUP3 PUSH1 0x0 EQ PUSH2 0x657 JUMPI POP POP PUSH1 0x1 EQ PUSH2 0x5FB JUMPI JUMPDEST POP POP POP PUSH2 0x5F7 SWAP3 SWAP2 PUSH2 0x5E8 SWAP2 SUB DUP6 PUSH2 0x20A3 JUMP JUMPDEST MLOAD SWAP3 DUP3 DUP5 SWAP4 DUP5 MSTORE DUP4 ADD SWAP1 PUSH2 0x1F9A JUMP JUMPDEST SUB SWAP1 RETURN JUMPDEST SWAP2 SWAP1 DUP7 SWAP4 POP PUSH1 0x6 DUP4 MSTORE PUSH32 0xF652222313E28459528D920B65115C16C04F3EFC82AAEDC97BE59F3F377C0D3F JUMPDEST DUP3 DUP5 LT PUSH2 0x63F JUMPI POP POP POP DUP3 ADD ADD DUP2 PUSH2 0x5E8 PUSH2 0x5F7 PUSH2 0x5D5 JUMP JUMPDEST DUP1 SLOAD DUP5 DUP11 ADD DUP7 ADD MSTORE DUP9 SWAP6 POP DUP8 SWAP5 SWAP1 SWAP4 ADD SWAP3 DUP2 ADD PUSH2 0x626 JUMP JUMPDEST PUSH1 0xFF NOT AND DUP8 DUP3 ADD MSTORE SWAP4 ISZERO ISZERO PUSH1 0x5 SHL DUP7 ADD SWAP1 SWAP4 ADD SWAP4 POP DUP5 SWAP3 POP PUSH2 0x5E8 SWAP2 POP PUSH2 0x5F7 SWAP1 POP PUSH2 0x5D5 JUMP JUMPDEST PUSH4 0x4E487B71 PUSH1 0xE0 SHL DUP4 MSTORE PUSH1 0x22 DUP11 MSTORE PUSH1 0x24 DUP4 REVERT JUMPDEST SWAP3 PUSH1 0x7F AND SWAP3 PUSH2 0x5AB JUMP JUMPDEST POP POP CALLVALUE PUSH2 0x284 JUMPI DUP2 PUSH1 0x3 NOT CALLDATASIZE ADD SLT PUSH2 0x284 JUMPI SWAP1 SLOAD SWAP1 MLOAD PUSH1 0x1 PUSH1 0x1 PUSH1 0xA0 SHL SUB SWAP1 SWAP2 AND DUP2 MSTORE PUSH1 0x20 SWAP1 RETURN JUMPDEST POP POP CALLVALUE PUSH2 0x284 JUMPI DUP2 PUSH1 0x3 NOT CALLDATASIZE ADD SLT PUSH2 0x284 JUMPI PUSH1 0x20 SWAP1 MLOAD PUSH1 0x1 PUSH1 0x1 PUSH1 0x40 SHL SUB PUSH32 0x0 AND DUP2 MSTORE RETURN JUMPDEST POP SWAP1 CALLVALUE PUSH2 0x261 JUMPI PUSH1 0x20 SWAP2 PUSH1 0x3 NOT DUP4 DUP2 CALLDATASIZE ADD SLT PUSH2 0x8C3 JUMPI DUP2 CALLDATALOAD SWAP1 PUSH1 0x1 PUSH1 0x1 PUSH1 0x40 SHL SUB SWAP1 DUP2 DUP4 GT PUSH2 0xA43 JUMPI PUSH1 0xA0 SWAP1 DUP4 CALLDATASIZE SUB ADD SLT PUSH2 0x940 JUMPI PUSH1 0x1 PUSH1 0x1 PUSH1 0xA0 SHL SUB SWAP3 PUSH32 0x0 DUP5 AND CALLER SUB PUSH2 0xAF8 JUMPI DUP5 MLOAD SWAP2 PUSH2 0x77A DUP4 PUSH2 0x200E JUMP JUMPDEST DUP4 DUP3 ADD CALLDATALOAD DUP4 MSTORE PUSH1 0x24 SWAP1 DUP2 DUP6 ADD CALLDATALOAD DUP2 DUP2 AND DUP2 SUB PUSH2 0xAD7 JUMPI DUP9 DUP6 ADD MSTORE PUSH1 0x44 DUP6 ADD CALLDATALOAD DUP2 DUP2 GT PUSH2 0xA3B JUMPI PUSH2 0x7AF SWAP1 DUP5 CALLDATASIZE SWAP2 DUP9 ADD ADD PUSH2 0x20C4 JUMP JUMPDEST SWAP4 DUP8 DUP2 ADD SWAP5 DUP6 MSTORE PUSH1 0x64 DUP7 ADD CALLDATALOAD DUP3 DUP2 GT PUSH2 0xA3F JUMPI PUSH2 0x7D1 SWAP1 DUP6 CALLDATASIZE SWAP2 DUP10 ADD ADD PUSH2 0x20C4 JUMP JUMPDEST SWAP6 PUSH1 0x60 DUP3 ADD SWAP7 DUP8 MSTORE PUSH1 0x84 DUP2 ADD CALLDATALOAD SWAP1 DUP4 DUP3 GT PUSH2 0xAF4 JUMPI ADD CALLDATASIZE PUSH1 0x23 DUP3 ADD SLT ISZERO PUSH2 0xA3F JUMPI DUP5 DUP2 ADD CALLDATALOAD SWAP3 DUP4 GT PUSH2 0xAE0 JUMPI DUP9 MLOAD SWAP3 PUSH2 0x80F DUP12 DUP3 PUSH1 0x5 SHL ADD DUP6 PUSH2 0x20A3 JUMP JUMPDEST DUP1 DUP5 MSTORE DUP5 DUP12 DUP6 ADD SWAP2 PUSH1 0x6 SHL DUP4 ADD ADD SWAP2 CALLDATASIZE DUP4 GT PUSH2 0xADC JUMPI DUP6 ADD SWAP1 JUMPDEST DUP3 DUP3 LT PUSH2 0xA9D JUMPI POP POP POP PUSH1 0x80 ADD MSTORE DUP3 MLOAD DUP8 DUP2 DUP1 MLOAD DUP2 ADD SUB SLT PUSH2 0xA37 JUMPI PUSH2 0x851 DUP9 DUP8 SWAP3 ADD PUSH2 0x2783 JUMP JUMPDEST AND DUP1 DUP10 MSTORE PUSH1 0xB DUP9 MSTORE PUSH1 0xFF DUP8 DUP11 KECCAK256 SLOAD AND ISZERO PUSH2 0xA88 JUMPI POP DUP4 MLOAD DUP8 DUP2 DUP1 MLOAD DUP2 ADD SUB SLT PUSH2 0xA37 JUMPI PUSH2 0x881 DUP9 PUSH1 0xFF SWAP3 ADD PUSH2 0x2797 JUMP JUMPDEST AND DUP1 PUSH2 0x8C7 JUMPI POP POP POP POP MLOAD SWAP2 PUSH1 0x60 DUP4 DUP1 MLOAD DUP2 ADD SUB SLT PUSH2 0x8C3 JUMPI PUSH2 0x8B6 PUSH1 0x60 SWAP2 PUSH2 0x8AE PUSH2 0x8C0 SWAP7 DUP7 ADD PUSH2 0x2797 JUMP JUMPDEST POP DUP5 ADD PUSH2 0x2783 JUMP JUMPDEST SWAP3 ADD MLOAD SWAP2 AND PUSH2 0x25DD JUMP JUMPDEST DUP1 RETURN JUMPDEST DUP5 DUP1 REVERT JUMPDEST PUSH1 0x1 DUP2 SWAP9 SWAP8 SWAP6 SWAP4 SWAP5 SWAP7 SWAP9 EQ PUSH1 0x0 EQ PUSH2 0x944 JUMPI POP POP POP POP DUP2 MLOAD DUP4 DUP2 DUP1 MLOAD DUP2 ADD SUB SLT PUSH2 0x940 JUMPI PUSH2 0x8F7 DUP5 DUP7 SWAP3 ADD PUSH2 0x2783 JUMP JUMPDEST AND DUP6 MSTORE PUSH1 0xB DUP4 MSTORE DUP5 KECCAK256 PUSH2 0x100 PUSH2 0xFF00 NOT DUP3 SLOAD AND OR SWAP1 SSTORE MLOAD SWAP1 DUP1 DUP3 DUP1 MLOAD DUP2 ADD SUB SLT PUSH2 0x93C JUMPI PUSH2 0x925 SWAP2 ADD PUSH2 0x2783 JUMP JUMPDEST AND PUSH1 0x1 PUSH1 0x1 PUSH1 0x60 SHL SUB PUSH1 0xA0 SHL PUSH1 0x9 SLOAD AND OR PUSH1 0x9 SSTORE DUP1 RETURN JUMPDEST DUP4 DUP1 REVERT JUMPDEST DUP6 DUP1 REVERT JUMPDEST SWAP3 SWAP7 SWAP4 SWAP5 SWAP3 PUSH1 0x2 SUB PUSH2 0xA47 JUMPI POP MLOAD PUSH1 0xA0 DUP2 DUP1 MLOAD DUP2 ADD SUB SLT PUSH2 0xA43 JUMPI PUSH2 0x96A DUP6 DUP3 ADD PUSH2 0x2797 JUMP JUMPDEST POP DUP4 DUP2 ADD MLOAD SWAP6 PUSH1 0x60 DUP3 ADD MLOAD PUSH1 0xA0 PUSH1 0x80 DUP5 ADD MLOAD SWAP4 ADD MLOAD SWAP8 DUP5 MLOAD DUP9 DUP2 DUP1 MLOAD DUP2 ADD SUB SLT PUSH2 0xA3F JUMPI PUSH2 0x99A DUP10 DUP9 SWAP3 ADD PUSH2 0x2783 JUMP JUMPDEST AND DUP11 MSTORE PUSH1 0xB DUP9 MSTORE TIMESTAMP PUSH1 0x1 DUP9 DUP13 KECCAK256 ADD SSTORE DUP5 MLOAD DUP9 DUP2 DUP1 MLOAD DUP2 ADD SUB SLT PUSH2 0xA3F JUMPI PUSH2 0x9C3 DUP10 DUP9 SWAP3 ADD PUSH2 0x2783 JUMP JUMPDEST AND DUP11 MSTORE PUSH1 0x2 DUP8 DUP12 KECCAK256 ADD SSTORE DUP4 MLOAD DUP8 DUP2 DUP1 MLOAD DUP2 ADD SUB SLT PUSH2 0xA3B JUMPI PUSH2 0x9E7 DUP9 DUP8 SWAP3 ADD PUSH2 0x2783 JUMP JUMPDEST AND DUP10 MSTORE PUSH1 0x3 DUP7 DUP11 KECCAK256 ADD SSTORE DUP3 MLOAD DUP7 DUP2 DUP1 MLOAD DUP2 ADD SUB SLT PUSH2 0xA37 JUMPI PUSH2 0xA0B DUP8 DUP7 SWAP3 ADD PUSH2 0x2783 JUMP JUMPDEST AND DUP9 MSTORE DUP5 DUP9 KECCAK256 ADD SSTORE MLOAD DUP4 DUP2 DUP1 MLOAD DUP2 ADD SUB SLT PUSH2 0x940 JUMPI PUSH1 0x5 SWAP4 PUSH2 0xA2D SWAP2 ADD PUSH2 0x2783 JUMP JUMPDEST AND DUP5 MSTORE DUP4 KECCAK256 ADD SSTORE DUP1 RETURN JUMPDEST DUP9 DUP1 REVERT JUMPDEST DUP10 DUP1 REVERT JUMPDEST DUP11 DUP1 REVERT JUMPDEST DUP7 DUP1 REVERT JUMPDEST DUP7 PUSH1 0x19 PUSH1 0x64 SWAP3 DUP9 DUP9 MLOAD SWAP4 PUSH3 0x461BCD PUSH1 0xE5 SHL DUP6 MSTORE DUP5 ADD MSTORE DUP3 ADD MSTORE PUSH32 0x696E76616C696420636F6D6D616E642066726F6D204E6F646500000000000000 PUSH1 0x44 DUP3 ADD MSTORE REVERT JUMPDEST DUP7 MLOAD PUSH4 0x6A9FF79F PUSH1 0xE1 SHL DUP2 MSTORE DUP1 DUP5 ADD SWAP2 SWAP1 SWAP2 MSTORE REVERT JUMPDEST DUP11 DUP3 CALLDATASIZE SUB SLT PUSH2 0xADC JUMPI DUP11 MLOAD SWAP1 PUSH2 0xAB2 DUP3 PUSH2 0x206D JUMP JUMPDEST DUP3 CALLDATALOAD SWAP1 DUP12 DUP3 AND DUP3 SUB PUSH2 0xAD7 JUMPI DUP3 DUP15 SWAP3 DUP15 SWAP5 MSTORE DUP3 DUP6 ADD CALLDATALOAD DUP4 DUP3 ADD MSTORE DUP2 MSTORE ADD SWAP2 ADD SWAP1 PUSH2 0x829 JUMP JUMPDEST PUSH1 0x0 DUP1 REVERT JUMPDEST DUP13 DUP1 REVERT JUMPDEST DUP4 PUSH1 0x41 DUP7 PUSH4 0x4E487B71 PUSH1 0xE0 SHL PUSH1 0x0 MSTORE MSTORE PUSH1 0x0 REVERT JUMPDEST DUP12 DUP1 REVERT JUMPDEST PUSH1 0x24 SWAP1 DUP6 MLOAD SWAP1 PUSH4 0x35FDCCCD PUSH1 0xE2 SHL DUP3 MSTORE CALLER SWAP1 DUP3 ADD MSTORE REVERT JUMPDEST POP SWAP1 CALLVALUE PUSH2 0x261 JUMPI DUP3 PUSH1 0x3 NOT CALLDATASIZE ADD SLT PUSH2 0x261 JUMPI PUSH1 0x1 SLOAD SWAP2 PUSH1 0x1 PUSH1 0x1 PUSH1 0xA0 SHL SUB SWAP2 DUP3 DUP5 AND CALLER SUB PUSH2 0xB7A JUMPI POP POP DUP3 SLOAD PUSH1 0x1 PUSH1 0x1 PUSH1 0xA0 SHL SUB NOT DUP1 DUP3 AND CALLER SWAP1 DUP2 OR DUP7 SSTORE SWAP4 AND PUSH1 0x1 SSTORE AND PUSH32 0x8BE0079C531659141344CD1FD0A4F28419497F9722A3DAAFE3B4186F6B6457E0 DUP4 DUP1 LOG3 DUP1 RETURN JUMPDEST SWAP1 PUSH1 0x20 PUSH1 0x64 SWAP3 MLOAD SWAP2 PUSH3 0x461BCD PUSH1 0xE5 SHL DUP4 MSTORE DUP3 ADD MSTORE PUSH1 0x16 PUSH1 0x24 DUP3 ADD MSTORE PUSH22 0x26BAB9BA10313290383937B837B9B2B21037BBB732B9 PUSH1 0x51 SHL PUSH1 0x44 DUP3 ADD MSTORE REVERT JUMPDEST POP POP CALLVALUE PUSH2 0x284 JUMPI PUSH1 0x20 CALLDATASIZE PUSH1 0x3 NOT ADD SLT PUSH2 0x284 JUMPI PUSH1 0x20 SWAP2 DUP2 SWAP1 PUSH1 0x1 PUSH1 0x1 PUSH1 0xA0 SHL SUB PUSH2 0xBDE PUSH2 0x1F6E JUMP JUMPDEST AND DUP2 MSTORE PUSH1 0x2 DUP5 MSTORE KECCAK256 SLOAD SWAP1 MLOAD SWAP1 DUP2 MSTORE RETURN JUMPDEST DUP4 CALLVALUE PUSH2 0x4CE JUMPI DUP1 PUSH1 0x3 NOT CALLDATASIZE ADD SLT PUSH2 0x4CE JUMPI PUSH2 0xC07 PUSH2 0x2834 JUMP JUMPDEST PUSH1 0x7 DUP1 SLOAD PUSH1 0xFF PUSH1 0xA8 SHL NOT AND SWAP1 SSTORE DUP1 RETURN JUMPDEST POP POP CALLVALUE PUSH2 0x284 JUMPI DUP2 PUSH1 0x3 NOT CALLDATASIZE ADD SLT PUSH2 0x284 JUMPI PUSH1 0x9 SLOAD SWAP1 MLOAD PUSH1 0x1 PUSH1 0x1 PUSH1 0xA0 SHL SUB SWAP1 SWAP2 AND DUP2 MSTORE PUSH1 0x20 SWAP1 RETURN JUMPDEST POP POP CALLVALUE PUSH2 0x284 JUMPI DUP2 PUSH1 0x3 NOT CALLDATASIZE ADD SLT PUSH2 0x284 JUMPI PUSH1 0x20 SWAP1 PUSH1 0xFF PUSH1 0x7 SLOAD PUSH1 0xA8 SHR AND SWAP1 MLOAD SWAP1 ISZERO ISZERO DUP2 MSTORE RETURN JUMPDEST POP POP CALLVALUE PUSH2 0x284 JUMPI DUP2 PUSH1 0x3 NOT CALLDATASIZE ADD SLT PUSH2 0x284 JUMPI PUSH1 0x8 SLOAD SWAP1 MLOAD PUSH1 0x1 PUSH1 0x1 PUSH1 0xA0 SHL SUB SWAP1 SWAP2 AND DUP2 MSTORE PUSH1 0x20 SWAP1 RETURN JUMPDEST POP DUP3 SWAP1 CALLVALUE PUSH2 0x284 JUMPI DUP3 PUSH1 0x3 NOT CALLDATASIZE ADD SLT PUSH2 0x284 JUMPI PUSH2 0xCAB PUSH2 0x1FF8 JUMP JUMPDEST PUSH2 0xCB3 PUSH2 0x1F84 JUMP JUMPDEST SWAP4 PUSH1 0x1 DUP1 PUSH1 0xA0 SHL SUB SWAP3 DUP4 DUP7 AND SWAP3 DUP4 DUP7 MSTORE PUSH1 0x20 PUSH1 0xB DUP2 MSTORE PUSH1 0xFF DUP5 DUP9 KECCAK256 SLOAD AND ISZERO PUSH2 0x1261 JUMPI DUP7 SWAP8 PUSH1 0xFF PUSH1 0x7 SWAP9 SWAP8 SWAP9 SLOAD AND ISZERO PUSH2 0x11FA JUMPI JUMPDEST POP DUP4 MLOAD PUSH1 0x1 DUP3 DUP3 ADD MSTORE PUSH1 0x1 PUSH1 0x1 PUSH1 0x40 SHL SUB DUP1 SWAP4 AND SWAP3 DUP4 DUP7 DUP4 ADD MSTORE PUSH1 0x60 SWAP1 DUP8 DUP3 DUP5 ADD MSTORE DUP2 DUP4 MSTORE PUSH2 0xD14 DUP4 PUSH2 0x2088 JUMP JUMPDEST DUP10 PUSH1 0x9 SLOAD AND DUP10 MSTORE PUSH1 0xB DUP5 MSTORE DUP7 DUP10 KECCAK256 PUSH2 0xFF00 NOT DUP2 SLOAD AND SWAP1 SSTORE DUP10 PUSH1 0x9 SLOAD AND SWAP3 DUP4 DUP11 MSTORE DUP8 DUP11 KECCAK256 SLOAD DUP3 DUP2 PUSH1 0x10 SHR AND SWAP3 PUSH32 0x0 AND DUP4 EQ PUSH1 0x0 EQ PUSH2 0xDEF JUMPI POP POP POP POP POP POP DUP6 PUSH1 0x9 SLOAD AND DUP1 EXTCODESIZE ISZERO PUSH2 0x940 JUMPI DUP6 SWAP3 DUP4 PUSH1 0x44 SWAP3 DUP7 MLOAD SWAP8 DUP9 SWAP6 DUP7 SWAP5 PUSH4 0x4BB297FF PUSH1 0xE1 SHL DUP7 MSTORE DUP6 ADD MSTORE PUSH1 0x24 DUP5 ADD MSTORE GAS CALL SWAP1 DUP2 ISZERO PUSH2 0xDE6 JUMPI POP PUSH2 0xDD2 JUMPI JUMPDEST POP POP JUMPDEST PUSH1 0x9 SLOAD PUSH1 0x1 PUSH1 0x1 PUSH1 0x60 SHL SUB PUSH1 0xA0 SHL SWAP2 DUP2 AND DUP3 PUSH1 0x8 SLOAD AND OR PUSH1 0x8 SSTORE AND PUSH1 0x9 SSTORE TIMESTAMP PUSH1 0xA SSTORE DUP1 RETURN JUMPDEST PUSH2 0xDDB SWAP1 PUSH2 0x205A JUMP JUMPDEST PUSH2 0x284 JUMPI DUP2 DUP4 PUSH2 0xDAA JUMP JUMPDEST MLOAD RETURNDATASIZE DUP5 DUP3 RETURNDATACOPY RETURNDATASIZE SWAP1 REVERT JUMPDEST SWAP2 SWAP6 POP SWAP3 SWAP7 SWAP8 POP PUSH1 0xFF SWAP2 SWAP6 SWAP4 SWAP9 POP AND ISZERO PUSH2 0x11E3 JUMPI DUP8 PUSH1 0x7 SLOAD PUSH1 0x8 SHR AND DUP5 DUP2 SWAP6 PUSH1 0x80 DUP10 MLOAD PUSH2 0xE1B DUP2 PUSH2 0x200E JUMP JUMPDEST DUP3 DUP2 MSTORE DUP3 DUP13 DUP3 ADD MSTORE DUP3 DUP12 DUP3 ADD MSTORE DUP14 DUP4 DUP3 ADD MSTORE ADD MSTORE DUP8 MLOAD SWAP7 DUP10 DUP9 ADD MSTORE DUP9 DUP8 MSTORE PUSH2 0xE42 DUP8 PUSH2 0x206D JUMP JUMPDEST DUP8 MLOAD PUSH2 0xE4D DUP2 PUSH2 0x203F JUMP JUMPDEST PUSH1 0x0 DUP2 MSTORE PUSH2 0xE6A DUP10 MLOAD PUSH2 0xE5F DUP2 PUSH2 0x203F JUMP JUMPDEST PUSH3 0x1E8480 DUP2 MSTORE PUSH2 0x27A5 JUMP JUMPDEST SWAP4 DUP10 MLOAD SWAP9 PUSH2 0xE77 DUP11 PUSH2 0x200E JUMP JUMPDEST DUP10 MSTORE DUP11 DUP10 ADD MSTORE DUP9 DUP9 ADD MSTORE DUP7 ADD MSTORE PUSH1 0x80 DUP6 ADD MSTORE DUP5 MLOAD PUSH4 0xB0F479A1 PUSH1 0xE0 SHL DUP2 MSTORE DUP7 DUP2 DUP4 DUP2 ADDRESS GAS STATICCALL SWAP1 DUP2 ISZERO PUSH2 0x11D9 JUMPI SWAP1 DUP9 SWAP2 DUP11 SWAP2 PUSH2 0x119F JUMPI JUMPDEST POP DUP7 MLOAD PUSH4 0x20487DED PUSH1 0xE0 SHL DUP2 MSTORE SWAP2 AND SWAP4 DUP10 SWAP1 DUP9 DUP4 DUP1 PUSH2 0xECF DUP11 DUP10 DUP10 DUP5 ADD PUSH2 0x2174 JUMP JUMPDEST SUB DUP2 DUP10 GAS STATICCALL SWAP3 DUP4 ISZERO PUSH2 0x1195 JUMPI SWAP1 DUP10 SWAP2 DUP4 SWAP5 PUSH2 0x1163 JUMPI JUMPDEST POP PUSH1 0x64 DUP10 MLOAD DUP1 SWAP5 DUP2 SWAP4 PUSH4 0x23B872DD PUSH1 0xE0 SHL DUP4 MSTORE CALLER DUP10 DUP5 ADD MSTORE ADDRESS PUSH1 0x24 DUP5 ADD MSTORE DUP8 PUSH1 0x44 DUP5 ADD MSTORE GAS CALL SWAP1 DUP2 ISZERO PUSH2 0x1159 JUMPI DUP11 SWAP2 PUSH2 0x113C JUMPI JUMPDEST POP ISZERO PUSH2 0x10F9 JUMPI DUP8 PUSH1 0x7 SLOAD PUSH1 0x8 SHR AND SWAP1 DUP7 MLOAD PUSH4 0x70A08231 PUSH1 0xE0 SHL SWAP1 DUP2 DUP2 MSTORE ADDRESS DUP6 DUP3 ADD MSTORE DUP10 DUP2 PUSH1 0x24 DUP2 DUP8 GAS STATICCALL SWAP1 DUP2 ISZERO PUSH2 0x10EF JUMPI DUP13 SWAP2 PUSH2 0x10C2 JUMPI JUMPDEST POP DUP3 GT PUSH2 0x1046 JUMPI POP DUP7 MLOAD PUSH4 0x95EA7B3 PUSH1 0xE0 SHL DUP2 MSTORE PUSH1 0x1 PUSH1 0x1 PUSH1 0xA0 SHL SUB DUP7 AND DUP2 DUP6 ADD SWAP1 DUP2 MSTORE PUSH1 0x20 DUP2 ADD SWAP3 SWAP1 SWAP3 MSTORE DUP11 SWAP4 SWAP3 SWAP1 SWAP2 DUP10 SWAP2 DUP4 SWAP2 DUP3 SWAP1 DUP8 SWAP1 DUP3 SWAP1 PUSH1 0x40 ADD SUB SWAP3 GAS CALL DUP1 ISZERO PUSH2 0x103C JUMPI SWAP2 DUP9 SWAP6 SWAP4 SWAP2 PUSH2 0xFC5 SWAP9 SWAP8 SWAP6 SWAP4 PUSH2 0x100F JUMPI JUMPDEST POP DUP7 MLOAD PUSH4 0x96F4E9F9 PUSH1 0xE0 SHL DUP2 MSTORE SWAP8 DUP9 SWAP6 DUP7 SWAP5 DUP6 SWAP4 DUP5 ADD PUSH2 0x2174 JUMP JUMPDEST SUB SWAP3 GAS CALL SWAP1 DUP2 ISZERO PUSH2 0x1006 JUMPI POP PUSH2 0xFDD JUMPI JUMPDEST POP POP PUSH2 0xDAD JUMP JUMPDEST DUP2 RETURNDATASIZE DUP4 GT PUSH2 0xFFF JUMPI JUMPDEST PUSH2 0xFF0 DUP2 DUP4 PUSH2 0x20A3 JUMP JUMPDEST DUP2 ADD SUB SLT PUSH2 0x284 JUMPI DUP3 DUP1 PUSH2 0xFD6 JUMP JUMPDEST POP RETURNDATASIZE PUSH2 0xFE6 JUMP JUMPDEST MLOAD RETURNDATASIZE DUP7 DUP3 RETURNDATACOPY RETURNDATASIZE SWAP1 REVERT JUMPDEST PUSH2 0x102E SWAP1 DUP8 RETURNDATASIZE DUP10 GT PUSH2 0x1035 JUMPI JUMPDEST PUSH2 0x1026 DUP2 DUP4 PUSH2 0x20A3 JUMP JUMPDEST DUP2 ADD SWAP1 PUSH2 0x2240 JUMP JUMPDEST POP DUP12 PUSH2 0xFAA JUMP JUMPDEST POP RETURNDATASIZE PUSH2 0x101C JUMP JUMPDEST DUP8 MLOAD RETURNDATASIZE DUP6 DUP3 RETURNDATACOPY RETURNDATASIZE SWAP1 REVERT JUMPDEST SWAP1 DUP11 DUP9 DUP11 DUP1 DUP8 SWAP6 PUSH1 0x24 DUP5 MLOAD DUP1 SWAP10 DUP2 SWAP4 DUP3 MSTORE ADDRESS DUP11 DUP4 ADD MSTORE GAS STATICCALL SWAP3 DUP4 ISZERO PUSH2 0x10B7 JUMPI SWAP3 PUSH2 0x1086 JUMPI JUMPDEST POP MLOAD PUSH4 0x4787A103 PUSH1 0xE1 SHL DUP2 MSTORE SWAP3 DUP4 ADD MSTORE PUSH1 0x24 DUP3 ADD MSTORE PUSH1 0x44 SWAP2 POP REVERT JUMPDEST SWAP1 SWAP2 POP DUP5 DUP2 RETURNDATASIZE DUP4 GT PUSH2 0x10B0 JUMPI JUMPDEST PUSH2 0x109D DUP2 DUP4 PUSH2 0x20A3 JUMP JUMPDEST DUP2 ADD SUB SLT PUSH2 0xAD7 JUMPI PUSH1 0x44 SWAP4 MLOAD SWAP1 DUP6 PUSH2 0x106B JUMP JUMPDEST POP RETURNDATASIZE PUSH2 0x1093 JUMP JUMPDEST DUP3 MLOAD SWAP1 RETURNDATASIZE SWAP1 DUP3 RETURNDATACOPY RETURNDATASIZE SWAP1 REVERT JUMPDEST SWAP1 POP DUP10 DUP2 DUP2 RETURNDATASIZE DUP4 GT PUSH2 0x10E8 JUMPI JUMPDEST PUSH2 0x10D9 DUP2 DUP4 PUSH2 0x20A3 JUMP JUMPDEST DUP2 ADD SUB SLT PUSH2 0xAD7 JUMPI MLOAD DUP13 PUSH2 0xF51 JUMP JUMPDEST POP RETURNDATASIZE PUSH2 0x10CF JUMP JUMPDEST DUP10 MLOAD RETURNDATASIZE DUP15 DUP3 RETURNDATACOPY RETURNDATASIZE SWAP1 REVERT JUMPDEST DUP6 MLOAD PUSH3 0x461BCD PUSH1 0xE5 SHL DUP2 MSTORE DUP1 DUP4 ADD DUP9 SWAP1 MSTORE PUSH1 0x1A PUSH1 0x24 DUP3 ADD MSTORE PUSH32 0x4E6F742070726F7669646564204C696E6B20666F722066656573000000000000 PUSH1 0x44 DUP3 ADD MSTORE PUSH1 0x64 SWAP1 REVERT JUMPDEST PUSH2 0x1153 SWAP2 POP DUP9 RETURNDATASIZE DUP11 GT PUSH2 0x1035 JUMPI PUSH2 0x1026 DUP2 DUP4 PUSH2 0x20A3 JUMP JUMPDEST DUP11 PUSH2 0xF19 JUMP JUMPDEST DUP8 MLOAD RETURNDATASIZE DUP13 DUP3 RETURNDATACOPY RETURNDATASIZE SWAP1 REVERT JUMPDEST SWAP3 POP SWAP3 POP DUP2 DUP2 RETURNDATASIZE DUP4 GT PUSH2 0x118E JUMPI JUMPDEST PUSH2 0x117B DUP2 DUP4 PUSH2 0x20A3 JUMP JUMPDEST DUP2 ADD SUB SLT PUSH2 0xAD7 JUMPI DUP8 DUP11 SWAP2 MLOAD SWAP3 DUP13 PUSH2 0xEE5 JUMP JUMPDEST POP RETURNDATASIZE PUSH2 0x1171 JUMP JUMPDEST DUP9 MLOAD RETURNDATASIZE DUP5 DUP3 RETURNDATACOPY RETURNDATASIZE SWAP1 REVERT JUMPDEST DUP1 SWAP3 POP DUP9 DUP1 SWAP3 POP RETURNDATASIZE DUP4 GT PUSH2 0x11D2 JUMPI JUMPDEST PUSH2 0x11B8 DUP2 DUP4 PUSH2 0x20A3 JUMP JUMPDEST DUP2 ADD SUB SLT PUSH2 0xA37 JUMPI MLOAD DUP8 DUP2 AND DUP2 SUB PUSH2 0xA37 JUMPI DUP8 SWAP1 DUP11 PUSH2 0xEAD JUMP JUMPDEST POP RETURNDATASIZE PUSH2 0x11AE JUMP JUMPDEST DUP7 MLOAD RETURNDATASIZE DUP12 DUP3 RETURNDATACOPY RETURNDATASIZE SWAP1 REVERT JUMPDEST DUP6 MLOAD PUSH4 0x6A9FF79F PUSH1 0xE1 SHL DUP2 MSTORE DUP1 DUP4 ADD DUP7 SWAP1 MSTORE PUSH1 0x24 SWAP1 REVERT JUMPDEST PUSH2 0x120E SWAP2 SWAP3 SWAP4 SWAP5 SWAP6 SWAP7 POP DUP8 PUSH1 0x9 SLOAD AND PUSH2 0x227B JUMP JUMPDEST ISZERO PUSH2 0x121F JUMPI SWAP1 DUP7 SWAP5 SWAP4 SWAP3 SWAP2 DUP9 PUSH2 0xCE6 JUMP JUMPDEST SWAP1 POP PUSH1 0x64 SWAP3 MLOAD SWAP2 PUSH3 0x461BCD PUSH1 0xE5 SHL DUP4 MSTORE DUP3 ADD MSTORE PUSH1 0x19 PUSH1 0x24 DUP3 ADD MSTORE PUSH32 0x436F6E646974696F6E20746F2077617270206E6F74206D657400000000000000 PUSH1 0x44 DUP3 ADD MSTORE REVERT JUMPDEST SWAP1 POP PUSH1 0x64 SWAP3 MLOAD SWAP2 PUSH3 0x461BCD PUSH1 0xE5 SHL DUP4 MSTORE DUP3 ADD MSTORE PUSH1 0x1D PUSH1 0x24 DUP3 ADD MSTORE PUSH32 0x44657374696E6174696F6E204E6F6465206973206E6F74207661696C64000000 PUSH1 0x44 DUP3 ADD MSTORE REVERT JUMPDEST POP SWAP2 CALLVALUE PUSH2 0x4CE JUMPI PUSH1 0xA0 CALLDATASIZE PUSH1 0x3 NOT ADD SLT PUSH2 0x4CE JUMPI PUSH2 0x12BE PUSH2 0x1FF8 JUMP JUMPDEST SWAP2 PUSH2 0x12C7 PUSH2 0x1F84 JUMP JUMPDEST PUSH1 0x1 PUSH1 0x1 PUSH1 0xA0 SHL SUB SWAP4 PUSH1 0x44 CALLDATALOAD DUP6 DUP2 AND SWAP2 SWAP1 DUP3 SWAP1 SUB PUSH2 0xAD7 JUMPI PUSH1 0x64 CALLDATALOAD SWAP1 DUP7 DUP3 AND DUP1 SWAP3 SUB PUSH2 0xAD7 JUMPI PUSH1 0x84 CALLDATALOAD SWAP8 PUSH1 0x1 PUSH1 0x1 PUSH1 0x40 SHL SUB DUP10 GT PUSH2 0xA43 JUMPI PUSH2 0x1312 PUSH2 0x138E SWAP7 SWAP8 SWAP9 SWAP10 CALLDATASIZE SWAP1 DUP4 ADD PUSH2 0x20C4 JUMP JUMPDEST DUP8 MLOAD SWAP5 PUSH1 0x20 SWAP11 DUP12 SWAP8 AND DUP8 DUP8 ADD MSTORE DUP7 DUP7 MSTORE PUSH2 0x132B DUP7 PUSH2 0x206D JUMP JUMPDEST DUP9 MLOAD PUSH2 0x1336 DUP2 PUSH2 0x203F JUMP JUMPDEST PUSH1 0x0 DUP2 MSTORE PUSH2 0x1353 DUP11 MLOAD PUSH2 0x1348 DUP2 PUSH2 0x203F JUMP JUMPDEST PUSH3 0xF4240 DUP2 MSTORE PUSH2 0x27A5 JUMP JUMPDEST SWAP3 DUP11 MLOAD SWAP8 PUSH2 0x1360 DUP10 PUSH2 0x200E JUMP JUMPDEST DUP9 MSTORE DUP9 DUP9 ADD MSTORE DUP10 DUP8 ADD MSTORE PUSH1 0x60 DUP7 ADD MSTORE PUSH1 0x80 DUP6 ADD MSTORE DUP7 MLOAD PUSH4 0x20487DED PUSH1 0xE0 SHL DUP2 MSTORE SWAP6 DUP7 SWAP5 DUP6 SWAP4 DUP5 SWAP4 DUP5 ADD PUSH2 0x2174 JUMP JUMPDEST SUB SWAP2 GAS STATICCALL SWAP3 DUP4 ISZERO PUSH2 0x10B7 JUMPI SWAP3 PUSH2 0x13A6 JUMPI JUMPDEST POP MLOAD SWAP1 DUP2 MSTORE RETURN JUMPDEST SWAP1 SWAP2 POP DUP3 DUP2 DUP2 RETURNDATASIZE DUP4 GT PUSH2 0x13CE JUMPI JUMPDEST PUSH2 0x13BE DUP2 DUP4 PUSH2 0x20A3 JUMP JUMPDEST DUP2 ADD SUB SLT PUSH2 0xAD7 JUMPI MLOAD SWAP1 CODESIZE PUSH2 0x139F JUMP JUMPDEST POP RETURNDATASIZE PUSH2 0x13B4 JUMP JUMPDEST POP POP CALLVALUE PUSH2 0x284 JUMPI DUP1 PUSH1 0x3 NOT CALLDATASIZE ADD SLT PUSH2 0x284 JUMPI PUSH2 0x421 PUSH1 0x20 SWAP3 DUP3 PUSH2 0x13F6 PUSH2 0x1F6E JUMP JUMPDEST SWAP2 CALLER DUP2 MSTORE PUSH1 0x3 DUP7 MSTORE KECCAK256 PUSH1 0x1 DUP1 PUSH1 0xA0 SHL SUB DUP3 AND PUSH1 0x0 MSTORE DUP5 MSTORE PUSH2 0x141D PUSH1 0x24 CALLDATALOAD DUP5 PUSH1 0x0 KECCAK256 SLOAD PUSH2 0x2258 JUMP JUMPDEST SWAP1 CALLER PUSH2 0x2681 JUMP JUMPDEST POP POP CALLVALUE PUSH2 0x284 JUMPI DUP2 PUSH1 0x3 NOT CALLDATASIZE ADD SLT PUSH2 0x284 JUMPI PUSH1 0x20 SWAP1 MLOAD PUSH1 0x12 DUP2 MSTORE RETURN JUMPDEST POP DUP3 SWAP1 CALLVALUE PUSH2 0x284 JUMPI PUSH1 0x20 SWAP3 DUP4 PUSH1 0x3 NOT CALLDATASIZE ADD SLT PUSH2 0x261 JUMPI PUSH1 0x9 SLOAD PUSH1 0x1 PUSH1 0x1 PUSH1 0xA0 SHL SUB SWAP1 DUP2 AND DUP5 MSTORE PUSH1 0xB DUP6 MSTORE DUP2 DUP5 KECCAK256 SLOAD DUP4 CALLDATALOAD SWAP2 SWAP1 PUSH1 0x8 SHR PUSH1 0xFF AND ISZERO PUSH2 0x1A61 JUMPI CALLER DUP6 MSTORE PUSH1 0x2 DUP7 MSTORE DUP3 DUP6 KECCAK256 SLOAD DUP3 GT PUSH2 0x1A28 JUMPI DUP3 MLOAD SWAP6 DUP6 DUP2 DUP9 ADD MSTORE CALLER DUP5 DUP9 ADD MSTORE PUSH1 0x60 DUP4 DUP2 DUP10 ADD MSTORE DUP1 DUP9 MSTORE PUSH2 0x14AE DUP9 PUSH2 0x2088 JUMP JUMPDEST CALLER ISZERO PUSH2 0x19DB JUMPI CALLER DUP8 MSTORE PUSH1 0x2 DUP3 MSTORE DUP5 DUP8 KECCAK256 SLOAD SWAP8 DUP5 DUP10 LT PUSH2 0x198D JUMPI DUP5 DUP9 SWAP10 SWAP9 SWAP7 SWAP8 SWAP9 CALLER DUP9 MSTORE PUSH1 0x2 DUP6 MSTORE SUB DUP8 DUP8 KECCAK256 SSTORE DUP5 DUP9 SLOAD SUB DUP9 SSTORE DUP6 DUP8 MLOAD DUP7 DUP2 MSTORE PUSH32 0xDDF252AD1BE2C89B69C2B068FC378DAA952BA7F163C4A11628F55A4DF523B3EF DUP6 CALLER SWAP3 LOG3 DUP4 PUSH1 0x9 SLOAD AND SWAP2 DUP3 DUP8 MSTORE PUSH1 0xB DUP5 MSTORE DUP8 DUP8 KECCAK256 SLOAD SWAP2 PUSH1 0x1 PUSH1 0x1 PUSH1 0x40 SHL SUB SWAP3 DUP4 DUP2 PUSH1 0x10 SHR AND SWAP4 PUSH32 0x0 AND DUP5 EQ PUSH1 0x0 EQ PUSH2 0x15AF JUMPI POP POP POP POP POP POP PUSH1 0x9 SLOAD AND DUP1 EXTCODESIZE ISZERO PUSH2 0x261 JUMPI DUP4 MLOAD PUSH4 0x15E005B7 PUSH1 0xE3 SHL DUP2 MSTORE CALLER SWAP6 DUP2 ADD SWAP6 DUP7 MSTORE PUSH1 0x20 DUP7 ADD SWAP3 SWAP1 SWAP3 MSTORE SWAP1 SWAP4 DUP5 SWAP2 SWAP1 DUP3 SWAP1 DUP5 SWAP1 DUP3 SWAP1 PUSH1 0x40 ADD SUB SWAP3 GAS CALL SWAP1 DUP2 ISZERO PUSH2 0xDE6 JUMPI POP PUSH2 0x15A6 JUMPI POP DUP1 RETURN JUMPDEST PUSH2 0x8C0 SWAP1 PUSH2 0x205A JUMP JUMPDEST SWAP1 SWAP3 SWAP6 SWAP7 POP PUSH1 0xFF SWAP2 SWAP4 SWAP8 POP SWAP9 SWAP4 SWAP9 AND ISZERO PUSH2 0x1976 JUMPI DUP5 PUSH1 0x7 SLOAD PUSH1 0x8 SHR AND DUP3 DUP2 SWAP4 PUSH1 0x80 DUP11 MLOAD PUSH2 0x15DB DUP2 PUSH2 0x200E JUMP JUMPDEST DUP3 DUP2 MSTORE DUP3 DUP14 DUP3 ADD MSTORE DUP3 DUP13 DUP3 ADD MSTORE DUP14 DUP4 DUP3 ADD MSTORE ADD MSTORE DUP9 MLOAD SWAP8 DUP11 DUP10 ADD MSTORE DUP10 DUP9 MSTORE PUSH2 0x1602 DUP9 PUSH2 0x206D JUMP JUMPDEST DUP9 MLOAD PUSH2 0x160D DUP2 PUSH2 0x203F JUMP JUMPDEST DUP12 DUP2 MSTORE PUSH2 0x161E DUP11 MLOAD PUSH2 0xE5F DUP2 PUSH2 0x203F JUMP JUMPDEST SWAP4 DUP11 MLOAD SWAP10 PUSH2 0x162B DUP12 PUSH2 0x200E JUMP JUMPDEST DUP11 MSTORE DUP12 DUP11 ADD MSTORE DUP10 DUP10 ADD MSTORE DUP8 ADD MSTORE PUSH1 0x80 DUP7 ADD MSTORE DUP6 MLOAD PUSH4 0xB0F479A1 PUSH1 0xE0 SHL DUP2 MSTORE DUP8 DUP2 DUP5 DUP2 ADDRESS GAS STATICCALL SWAP1 DUP2 ISZERO PUSH2 0x196C JUMPI SWAP1 DUP6 SWAP2 DUP11 SWAP2 PUSH2 0x1932 JUMPI JUMPDEST POP AND SWAP4 DUP9 DUP8 MLOAD SWAP3 PUSH4 0x20487DED PUSH1 0xE0 SHL DUP5 MSTORE DUP10 DUP5 DUP1 PUSH2 0x1682 DUP12 DUP11 DUP11 DUP5 ADD PUSH2 0x2174 JUMP JUMPDEST SUB DUP2 DUP11 GAS STATICCALL SWAP4 DUP5 ISZERO PUSH2 0x1928 JUMPI SWAP1 DUP11 SWAP2 DUP4 SWAP6 PUSH2 0x18F7 JUMPI JUMPDEST POP PUSH1 0x64 DUP11 MLOAD DUP1 SWAP5 DUP2 SWAP4 PUSH4 0x23B872DD PUSH1 0xE0 SHL DUP4 MSTORE CALLER DUP11 DUP5 ADD MSTORE ADDRESS PUSH1 0x24 DUP5 ADD MSTORE DUP9 PUSH1 0x44 DUP5 ADD MSTORE GAS CALL SWAP1 DUP2 ISZERO PUSH2 0x18ED JUMPI DUP11 SWAP2 PUSH2 0x18D0 JUMPI JUMPDEST POP ISZERO PUSH2 0x188D JUMPI SWAP1 DUP9 SWAP3 SWAP2 PUSH1 0x7 SLOAD PUSH1 0x8 SHR AND SWAP1 DUP8 MLOAD PUSH4 0x70A08231 PUSH1 0xE0 SHL SWAP1 DUP2 DUP2 MSTORE ADDRESS DUP6 DUP3 ADD MSTORE DUP11 DUP2 PUSH1 0x24 DUP2 DUP8 GAS STATICCALL SWAP1 DUP2 ISZERO PUSH2 0x1883 JUMPI DUP7 SWAP2 PUSH2 0x1856 JUMPI JUMPDEST POP DUP3 GT PUSH2 0x17D7 JUMPI POP DUP8 MLOAD PUSH4 0x95EA7B3 PUSH1 0xE0 SHL DUP2 MSTORE PUSH1 0x1 PUSH1 0x1 PUSH1 0xA0 SHL SUB DUP8 AND DUP5 DUP3 ADD SWAP1 DUP2 MSTORE PUSH1 0x20 DUP2 ADD SWAP3 SWAP1 SWAP3 MSTORE SWAP2 DUP10 SWAP2 DUP4 SWAP2 SWAP1 DUP3 SWAP1 DUP8 SWAP1 DUP3 SWAP1 PUSH1 0x40 ADD SUB SWAP3 GAS CALL DUP1 ISZERO PUSH2 0x103C JUMPI SWAP2 DUP9 SWAP6 SWAP4 SWAP2 PUSH2 0x1777 SWAP9 SWAP8 SWAP6 SWAP4 PUSH2 0x17BA JUMPI POP DUP7 MLOAD PUSH4 0x96F4E9F9 PUSH1 0xE0 SHL DUP2 MSTORE SWAP8 DUP9 SWAP6 DUP7 SWAP5 DUP6 SWAP4 DUP5 ADD PUSH2 0x2174 JUMP JUMPDEST SUB SWAP3 GAS CALL SWAP1 DUP2 ISZERO PUSH2 0x17B1 JUMPI POP PUSH2 0x178C JUMPI POP POP DUP1 RETURN JUMPDEST DUP2 RETURNDATASIZE DUP4 GT PUSH2 0x17AA JUMPI JUMPDEST PUSH2 0x179F DUP2 DUP4 PUSH2 0x20A3 JUMP JUMPDEST DUP2 ADD SUB SLT PUSH2 0x4CE JUMPI DUP1 RETURN JUMPDEST POP RETURNDATASIZE PUSH2 0x1795 JUMP JUMPDEST MLOAD RETURNDATASIZE DUP6 DUP3 RETURNDATACOPY RETURNDATASIZE SWAP1 REVERT JUMPDEST PUSH2 0x17D0 SWAP1 DUP8 RETURNDATASIZE DUP10 GT PUSH2 0x1035 JUMPI PUSH2 0x1026 DUP2 DUP4 PUSH2 0x20A3 JUMP JUMPDEST POP DUP11 PUSH2 0xFAA JUMP JUMPDEST DUP10 SWAP2 SWAP3 DUP3 DUP11 SWAP3 PUSH1 0x24 DUP5 MLOAD DUP1 SWAP5 DUP2 SWAP4 DUP3 MSTORE ADDRESS DUP11 DUP4 ADD MSTORE GAS STATICCALL SWAP3 DUP4 ISZERO PUSH2 0x184C JUMPI DUP7 SWAP4 PUSH2 0x1818 JUMPI JUMPDEST POP POP MLOAD PUSH4 0x4787A103 PUSH1 0xE1 SHL DUP2 MSTORE SWAP3 DUP4 ADD MSTORE PUSH1 0x24 DUP3 ADD MSTORE PUSH1 0x44 SWAP2 POP REVERT JUMPDEST SWAP1 DUP1 SWAP3 SWAP4 POP DUP2 RETURNDATASIZE DUP4 GT PUSH2 0x1845 JUMPI JUMPDEST PUSH2 0x1830 DUP2 DUP4 PUSH2 0x20A3 JUMP JUMPDEST DUP2 ADD SUB SLT PUSH2 0x8C3 JUMPI PUSH1 0x44 SWAP5 POP MLOAD SWAP1 DUP6 DUP1 PUSH2 0x17FC JUMP JUMPDEST POP RETURNDATASIZE PUSH2 0x1826 JUMP JUMPDEST DUP3 MLOAD RETURNDATASIZE DUP9 DUP3 RETURNDATACOPY RETURNDATASIZE SWAP1 REVERT JUMPDEST SWAP1 POP DUP11 DUP2 DUP2 RETURNDATASIZE DUP4 GT PUSH2 0x187C JUMPI JUMPDEST PUSH2 0x186D DUP2 DUP4 PUSH2 0x20A3 JUMP JUMPDEST DUP2 ADD SUB SLT PUSH2 0x940 JUMPI MLOAD DUP13 PUSH2 0x1707 JUMP JUMPDEST POP RETURNDATASIZE PUSH2 0x1863 JUMP JUMPDEST DUP11 MLOAD RETURNDATASIZE DUP9 DUP3 RETURNDATACOPY RETURNDATASIZE SWAP1 REVERT JUMPDEST DUP7 MLOAD PUSH3 0x461BCD PUSH1 0xE5 SHL DUP2 MSTORE DUP1 DUP5 ADD DUP10 SWAP1 MSTORE PUSH1 0x1A PUSH1 0x24 DUP3 ADD MSTORE PUSH32 0x4E6F742070726F7669646564204C696E6B20666F722066656573000000000000 PUSH1 0x44 DUP3 ADD MSTORE PUSH1 0x64 SWAP1 REVERT JUMPDEST PUSH2 0x18E7 SWAP2 POP DUP10 RETURNDATASIZE DUP12 GT PUSH2 0x1035 JUMPI PUSH2 0x1026 DUP2 DUP4 PUSH2 0x20A3 JUMP JUMPDEST DUP11 PUSH2 0x16CC JUMP JUMPDEST DUP9 MLOAD RETURNDATASIZE DUP13 DUP3 RETURNDATACOPY RETURNDATASIZE SWAP1 REVERT JUMPDEST DUP3 DUP2 SWAP4 SWAP3 SWAP7 POP RETURNDATASIZE DUP4 GT PUSH2 0x1921 JUMPI JUMPDEST PUSH2 0x190F DUP2 DUP4 PUSH2 0x20A3 JUMP JUMPDEST DUP2 ADD SUB SLT PUSH2 0x284 JUMPI DUP10 SWAP1 MLOAD SWAP4 DUP13 PUSH2 0x1698 JUMP JUMPDEST POP RETURNDATASIZE PUSH2 0x1905 JUMP JUMPDEST DUP10 MLOAD RETURNDATASIZE DUP5 DUP3 RETURNDATACOPY RETURNDATASIZE SWAP1 REVERT JUMPDEST DUP1 SWAP3 POP DUP10 DUP1 SWAP3 POP RETURNDATASIZE DUP4 GT PUSH2 0x1965 JUMPI JUMPDEST PUSH2 0x194B DUP2 DUP4 PUSH2 0x20A3 JUMP JUMPDEST DUP2 ADD SUB SLT PUSH2 0xA37 JUMPI MLOAD DUP5 DUP2 AND DUP2 SUB PUSH2 0xA37 JUMPI DUP5 SWAP1 DUP11 PUSH2 0x1661 JUMP JUMPDEST POP RETURNDATASIZE PUSH2 0x1941 JUMP JUMPDEST DUP8 MLOAD RETURNDATASIZE DUP12 DUP3 RETURNDATACOPY RETURNDATASIZE SWAP1 REVERT JUMPDEST DUP7 MLOAD PUSH4 0x6A9FF79F PUSH1 0xE1 SHL DUP2 MSTORE DUP1 DUP5 ADD DUP8 SWAP1 MSTORE PUSH1 0x24 SWAP1 REVERT JUMPDEST DUP6 MLOAD PUSH3 0x461BCD PUSH1 0xE5 SHL DUP2 MSTORE DUP1 DUP9 ADD DUP5 SWAP1 MSTORE PUSH1 0x22 PUSH1 0x24 DUP3 ADD MSTORE PUSH32 0x45524332303A206275726E20616D6F756E7420657863656564732062616C616E PUSH1 0x44 DUP3 ADD MSTORE PUSH2 0x6365 PUSH1 0xF0 SHL PUSH1 0x64 DUP3 ADD MSTORE PUSH1 0x84 SWAP1 REVERT JUMPDEST DUP5 MLOAD PUSH3 0x461BCD PUSH1 0xE5 SHL DUP2 MSTORE DUP1 DUP8 ADD DUP4 SWAP1 MSTORE PUSH1 0x21 PUSH1 0x24 DUP3 ADD MSTORE PUSH32 0x45524332303A206275726E2066726F6D20746865207A65726F20616464726573 PUSH1 0x44 DUP3 ADD MSTORE PUSH1 0x73 PUSH1 0xF8 SHL PUSH1 0x64 DUP3 ADD MSTORE PUSH1 0x84 SWAP1 REVERT JUMPDEST DUP3 MLOAD PUSH3 0x461BCD PUSH1 0xE5 SHL DUP2 MSTORE DUP1 DUP6 ADD DUP8 SWAP1 MSTORE PUSH1 0x13 PUSH1 0x24 DUP3 ADD MSTORE PUSH19 0x4E6F7420656E6F756768742062616C616E6365 PUSH1 0x68 SHL PUSH1 0x44 DUP3 ADD MSTORE PUSH1 0x64 SWAP1 REVERT JUMPDEST DUP3 MLOAD PUSH3 0x461BCD PUSH1 0xE5 SHL DUP2 MSTORE DUP1 DUP6 ADD DUP8 SWAP1 MSTORE PUSH1 0x12 PUSH1 0x24 DUP3 ADD MSTORE PUSH18 0x4E6F6465206973206E6F7420416374697665 PUSH1 0x70 SHL PUSH1 0x44 DUP3 ADD MSTORE PUSH1 0x64 SWAP1 REVERT JUMPDEST POP DUP3 SWAP1 CALLVALUE PUSH2 0x284 JUMPI PUSH1 0x60 CALLDATASIZE PUSH1 0x3 NOT ADD SLT PUSH2 0x284 JUMPI PUSH2 0x1AB5 PUSH2 0x1F6E JUMP JUMPDEST PUSH2 0x1ABD PUSH2 0x1F84 JUMP JUMPDEST PUSH1 0x1 PUSH1 0x1 PUSH1 0xA0 SHL SUB DUP3 AND DUP5 MSTORE PUSH1 0x3 PUSH1 0x20 SWAP1 DUP2 MSTORE DUP6 DUP6 KECCAK256 CALLER DUP7 MSTORE SWAP1 MSTORE SWAP3 DUP5 SWAP1 KECCAK256 SLOAD PUSH1 0x44 CALLDATALOAD SWAP4 SWAP3 PUSH1 0x1 DUP3 ADD PUSH2 0x1AF9 JUMPI JUMPDEST PUSH1 0x20 DUP7 PUSH2 0x421 DUP8 DUP8 DUP8 PUSH2 0x246D JUMP JUMPDEST DUP5 DUP3 LT PUSH2 0x1B22 JUMPI POP SWAP2 DUP4 SWAP2 PUSH2 0x1B17 PUSH1 0x20 SWAP7 SWAP6 PUSH2 0x421 SWAP6 SUB CALLER DUP4 PUSH2 0x2681 JUMP JUMPDEST SWAP2 SWAP4 SWAP5 DUP2 SWAP4 POP PUSH2 0x1AEB JUMP JUMPDEST PUSH1 0x64 SWAP1 PUSH1 0x20 DUP8 MLOAD SWAP2 PUSH3 0x461BCD PUSH1 0xE5 SHL DUP4 MSTORE DUP3 ADD MSTORE PUSH1 0x1D PUSH1 0x24 DUP3 ADD MSTORE PUSH32 0x45524332303A20696E73756666696369656E7420616C6C6F77616E6365000000 PUSH1 0x44 DUP3 ADD MSTORE REVERT JUMPDEST POP POP CALLVALUE PUSH2 0x284 JUMPI DUP1 PUSH1 0x3 NOT CALLDATASIZE ADD SLT PUSH2 0x284 JUMPI PUSH1 0x20 SWAP1 PUSH2 0x1B93 PUSH2 0x1B85 PUSH2 0x1F6E JUMP JUMPDEST PUSH2 0x1B8D PUSH2 0x1F84 JUMP JUMPDEST SWAP1 PUSH2 0x227B JUMP JUMPDEST SWAP1 MLOAD SWAP1 ISZERO ISZERO DUP2 MSTORE RETURN JUMPDEST POP CALLVALUE PUSH2 0x261 JUMPI DUP3 PUSH1 0x3 NOT CALLDATASIZE ADD SLT PUSH2 0x261 JUMPI PUSH1 0x20 SWAP3 POP SLOAD SWAP1 MLOAD SWAP1 DUP2 MSTORE RETURN JUMPDEST POP POP CALLVALUE PUSH2 0x284 JUMPI DUP2 PUSH1 0x3 NOT CALLDATASIZE ADD SLT PUSH2 0x284 JUMPI PUSH1 0x20 SWAP1 PUSH1 0x1 PUSH1 0x1 PUSH1 0x40 SHL SUB PUSH2 0x1BDE PUSH2 0x2417 JUMP JUMPDEST SWAP2 MLOAD SWAP2 AND DUP2 MSTORE RETURN JUMPDEST POP CALLVALUE PUSH2 0x261 JUMPI PUSH1 0x60 CALLDATASIZE PUSH1 0x3 NOT ADD SLT PUSH2 0x261 JUMPI PUSH2 0x1C00 PUSH2 0x1F6E JUMP JUMPDEST SWAP1 PUSH1 0x24 CALLDATALOAD PUSH1 0x1 PUSH1 0x1 PUSH1 0x40 SHL SUB DUP2 AND DUP2 SUB PUSH2 0x8C3 JUMPI PUSH1 0x44 CALLDATALOAD SWAP3 DUP4 ISZERO ISZERO SWAP3 DUP4 DUP6 SUB PUSH2 0xA43 JUMPI PUSH2 0x1C2B PUSH2 0x2834 JUMP JUMPDEST PUSH1 0xFF PUSH1 0x7 SLOAD PUSH1 0xA8 SHR AND ISZERO PUSH2 0x1CA6 JUMPI POP SWAP1 PUSH1 0x1 SWAP2 DUP3 DUP1 PUSH1 0xA0 SHL SUB AND SWAP5 DUP6 DUP8 MSTORE PUSH1 0xB PUSH1 0x20 MSTORE DUP7 KECCAK256 SWAP3 PUSH2 0xFF00 PUSH10 0xFFFFFFFFFFFFFFFF0000 DUP6 SLOAD SWAP4 PUSH1 0x10 SHL AND SWAP3 PUSH10 0xFFFFFFFFFFFFFFFFFFFF NOT AND SWAP2 PUSH1 0x8 SHL AND OR OR OR SWAP1 SSTORE PUSH2 0x1C86 JUMPI POP DUP1 RETURN JUMPDEST PUSH1 0x1 PUSH1 0x1 PUSH1 0x60 SHL SUB PUSH1 0xA0 SHL DUP2 DUP2 PUSH1 0x8 SLOAD AND OR PUSH1 0x8 SSTORE PUSH1 0x9 SLOAD AND OR PUSH1 0x9 SSTORE DUP1 RETURN JUMPDEST PUSH1 0x64 SWAP1 PUSH1 0x20 DUP8 MLOAD SWAP2 PUSH3 0x461BCD PUSH1 0xE5 SHL DUP4 MSTORE DUP3 ADD MSTORE PUSH1 0x15 PUSH1 0x24 DUP3 ADD MSTORE PUSH21 0x139BC81B5BDC99481B9BD9195CC8185B1B1BDDD959 PUSH1 0x5A SHL PUSH1 0x44 DUP3 ADD MSTORE REVERT JUMPDEST POP POP CALLVALUE PUSH2 0x284 JUMPI DUP1 PUSH1 0x3 NOT CALLDATASIZE ADD SLT PUSH2 0x284 JUMPI PUSH1 0x20 SWAP1 PUSH2 0x421 PUSH2 0x1D01 PUSH2 0x1F6E JUMP JUMPDEST PUSH1 0x24 CALLDATALOAD SWAP1 CALLER PUSH2 0x2681 JUMP JUMPDEST POP DUP3 SWAP1 CALLVALUE PUSH2 0x284 JUMPI PUSH2 0x1D1C CALLDATASIZE PUSH2 0x1FDA JUMP JUMPDEST SWAP4 SWAP1 SWAP2 CALLER DUP7 MSTORE PUSH1 0xB PUSH1 0x20 MSTORE PUSH2 0x1D64 PUSH1 0x1 PUSH1 0x1 PUSH1 0x40 SHL SUB DUP1 DUP10 DUP10 KECCAK256 SLOAD PUSH1 0x10 SHR AND SWAP1 PUSH32 0x0 AND EQ PUSH2 0x211A JUMP JUMPDEST CALLER DUP7 MSTORE PUSH1 0xB PUSH1 0x20 MSTORE PUSH1 0xFF DUP8 DUP8 KECCAK256 SLOAD AND ISZERO PUSH2 0x1DA0 JUMPI PUSH1 0x5 SWAP5 SWAP6 SWAP7 CALLER DUP9 MSTORE PUSH1 0xB PUSH1 0x20 MSTORE DUP8 KECCAK256 SWAP4 TIMESTAMP PUSH1 0x1 DUP7 ADD SSTORE PUSH1 0x2 DUP6 ADD SSTORE PUSH1 0x3 DUP5 ADD SSTORE DUP3 ADD SSTORE ADD SSTORE DUP1 RETURN JUMPDEST DUP7 MLOAD PUSH4 0x6A9FF79F PUSH1 0xE1 SHL DUP2 MSTORE CALLER DUP2 DUP5 ADD MSTORE PUSH1 0x24 SWAP1 REVERT JUMPDEST POP SWAP2 CALLVALUE PUSH2 0x4CE JUMPI DUP1 PUSH1 0x3 NOT CALLDATASIZE ADD SLT PUSH2 0x4CE JUMPI DUP2 MLOAD SWAP2 DUP2 PUSH1 0x5 SLOAD SWAP3 PUSH1 0x1 DUP5 DUP2 SHR SWAP2 DUP2 DUP7 AND SWAP6 DUP7 ISZERO PUSH2 0x1E79 JUMPI JUMPDEST PUSH1 0x20 SWAP7 DUP8 DUP6 LT DUP2 EQ PUSH2 0x67E JUMPI DUP9 SWAP10 POP SWAP7 DUP9 SWAP7 SWAP8 DUP6 DUP3 SWAP11 MSTORE SWAP2 DUP3 PUSH1 0x0 EQ PUSH2 0x657 JUMPI POP POP PUSH1 0x1 EQ PUSH2 0x1E1D JUMPI POP POP POP PUSH2 0x5F7 SWAP3 SWAP2 PUSH2 0x5E8 SWAP2 SUB DUP6 PUSH2 0x20A3 JUMP JUMPDEST SWAP2 SWAP1 DUP7 SWAP4 POP PUSH1 0x5 DUP4 MSTORE PUSH32 0x36B6384B5ECA791C62761152D0C79BB0604C104A5FB6F4EB0703F3154BB3DB0 JUMPDEST DUP3 DUP5 LT PUSH2 0x1E61 JUMPI POP POP POP DUP3 ADD ADD DUP2 PUSH2 0x5E8 PUSH2 0x5F7 PUSH2 0x5D5 JUMP JUMPDEST DUP1 SLOAD DUP5 DUP11 ADD DUP7 ADD MSTORE DUP9 SWAP6 POP DUP8 SWAP5 SWAP1 SWAP4 ADD SWAP3 DUP2 ADD PUSH2 0x1E48 JUMP JUMPDEST SWAP3 PUSH1 0x7F AND SWAP3 PUSH2 0x1DE1 JUMP JUMPDEST POP CALLVALUE PUSH2 0x261 JUMPI DUP2 PUSH1 0x3 NOT CALLDATASIZE ADD SLT PUSH2 0x261 JUMPI PUSH2 0x1E9C PUSH2 0x1F6E JUMP JUMPDEST SWAP2 CALLER DUP5 MSTORE PUSH1 0xB PUSH1 0x20 MSTORE PUSH2 0x1EE2 PUSH1 0x1 PUSH1 0x1 PUSH1 0x40 SHL SUB DUP1 DUP4 DUP8 KECCAK256 SLOAD PUSH1 0x10 SHR AND SWAP1 PUSH32 0x0 AND EQ PUSH2 0x211A JUMP JUMPDEST CALLER DUP5 MSTORE PUSH1 0xB PUSH1 0x20 MSTORE PUSH1 0xFF DUP2 DUP6 KECCAK256 SLOAD AND ISZERO PUSH2 0x1F03 JUMPI DUP4 PUSH2 0x8C0 PUSH1 0x24 CALLDATALOAD DUP6 PUSH2 0x25DD JUMP JUMPDEST PUSH1 0x24 SWAP3 POP MLOAD SWAP1 PUSH4 0x6A9FF79F PUSH1 0xE1 SHL DUP3 MSTORE CALLER SWAP1 DUP3 ADD MSTORE REVERT JUMPDEST SWAP3 POP POP CALLVALUE PUSH2 0x261 JUMPI PUSH1 0x20 CALLDATASIZE PUSH1 0x3 NOT ADD SLT PUSH2 0x261 JUMPI CALLDATALOAD PUSH4 0xFFFFFFFF PUSH1 0xE0 SHL DUP2 AND DUP1 SWAP2 SUB PUSH2 0x261 JUMPI PUSH1 0x20 SWAP3 POP PUSH4 0x85572FFB PUSH1 0xE0 SHL DUP2 EQ SWAP1 DUP2 ISZERO PUSH2 0x1F5D JUMPI JUMPDEST POP ISZERO ISZERO DUP2 MSTORE RETURN JUMPDEST PUSH4 0x1FFC9A7 PUSH1 0xE0 SHL EQ SWAP1 POP CODESIZE PUSH2 0x1F56 JUMP JUMPDEST PUSH1 0x4 CALLDATALOAD SWAP1 PUSH1 0x1 PUSH1 0x1 PUSH1 0xA0 SHL SUB DUP3 AND DUP3 SUB PUSH2 0xAD7 JUMPI JUMP JUMPDEST PUSH1 0x24 CALLDATALOAD SWAP1 PUSH1 0x1 PUSH1 0x1 PUSH1 0xA0 SHL SUB DUP3 AND DUP3 SUB PUSH2 0xAD7 JUMPI JUMP JUMPDEST SWAP2 SWAP1 DUP3 MLOAD SWAP3 DUP4 DUP3 MSTORE PUSH1 0x0 JUMPDEST DUP5 DUP2 LT PUSH2 0x1FC6 JUMPI POP POP DUP3 PUSH1 0x0 PUSH1 0x20 DUP1 SWAP5 SWAP6 DUP5 ADD ADD MSTORE PUSH1 0x1F DUP1 NOT SWAP2 ADD AND ADD ADD SWAP1 JUMP JUMPDEST PUSH1 0x20 DUP2 DUP4 ADD DUP2 ADD MLOAD DUP5 DUP4 ADD DUP3 ADD MSTORE ADD PUSH2 0x1FA5 JUMP JUMPDEST PUSH1 0x80 SWAP1 PUSH1 0x3 NOT ADD SLT PUSH2 0xAD7 JUMPI PUSH1 0x4 CALLDATALOAD SWAP1 PUSH1 0x24 CALLDATALOAD SWAP1 PUSH1 0x44 CALLDATALOAD SWAP1 PUSH1 0x64 CALLDATALOAD SWAP1 JUMP JUMPDEST PUSH1 0x4 CALLDATALOAD SWAP1 PUSH1 0x1 PUSH1 0x1 PUSH1 0x40 SHL SUB DUP3 AND DUP3 SUB PUSH2 0xAD7 JUMPI JUMP JUMPDEST PUSH1 0xA0 DUP2 ADD SWAP1 DUP2 LT PUSH1 0x1 PUSH1 0x1 PUSH1 0x40 SHL SUB DUP3 GT OR PUSH2 0x2029 JUMPI PUSH1 0x40 MSTORE JUMP JUMPDEST PUSH4 0x4E487B71 PUSH1 0xE0 SHL PUSH1 0x0 MSTORE PUSH1 0x41 PUSH1 0x4 MSTORE PUSH1 0x24 PUSH1 0x0 REVERT JUMPDEST PUSH1 0x20 DUP2 ADD SWAP1 DUP2 LT PUSH1 0x1 PUSH1 0x1 PUSH1 0x40 SHL SUB DUP3 GT OR PUSH2 0x2029 JUMPI PUSH1 0x40 MSTORE JUMP JUMPDEST PUSH1 0x1 PUSH1 0x1 PUSH1 0x40 SHL SUB DUP2 GT PUSH2 0x2029 JUMPI PUSH1 0x40 MSTORE JUMP JUMPDEST PUSH1 0x40 DUP2 ADD SWAP1 DUP2 LT PUSH1 0x1 PUSH1 0x1 PUSH1 0x40 SHL SUB DUP3 GT OR PUSH2 0x2029 JUMPI PUSH1 0x40 MSTORE JUMP JUMPDEST PUSH1 0x80 DUP2 ADD SWAP1 DUP2 LT PUSH1 0x1 PUSH1 0x1 PUSH1 0x40 SHL SUB DUP3 GT OR PUSH2 0x2029 JUMPI PUSH1 0x40 MSTORE JUMP JUMPDEST SWAP1 PUSH1 0x1F DUP1 NOT SWAP2 ADD AND DUP2 ADD SWAP1 DUP2 LT PUSH1 0x1 PUSH1 0x1 PUSH1 0x40 SHL SUB DUP3 GT OR PUSH2 0x2029 JUMPI PUSH1 0x40 MSTORE JUMP JUMPDEST DUP2 PUSH1 0x1F DUP3 ADD SLT ISZERO PUSH2 0xAD7 JUMPI DUP1 CALLDATALOAD SWAP1 PUSH1 0x1 PUSH1 0x1 PUSH1 0x40 SHL SUB DUP3 GT PUSH2 0x2029 JUMPI PUSH1 0x40 MLOAD SWAP3 PUSH2 0x20F8 PUSH1 0x1F DUP5 ADD PUSH1 0x1F NOT AND PUSH1 0x20 ADD DUP6 PUSH2 0x20A3 JUMP JUMPDEST DUP3 DUP5 MSTORE PUSH1 0x20 DUP4 DUP4 ADD ADD GT PUSH2 0xAD7 JUMPI DUP2 PUSH1 0x0 SWAP3 PUSH1 0x20 DUP1 SWAP4 ADD DUP4 DUP7 ADD CALLDATACOPY DUP4 ADD ADD MSTORE SWAP1 JUMP JUMPDEST ISZERO PUSH2 0x2121 JUMPI JUMP JUMPDEST PUSH1 0x40 MLOAD PUSH3 0x461BCD PUSH1 0xE5 SHL DUP2 MSTORE PUSH1 0x20 PUSH1 0x4 DUP3 ADD MSTORE PUSH1 0x25 PUSH1 0x24 DUP3 ADD MSTORE PUSH32 0x52657175697265206D617374657220616E64206E6F646520696E2073616D6520 PUSH1 0x44 DUP3 ADD MSTORE PUSH5 0x31B430B4B7 PUSH1 0xD9 SHL PUSH1 0x64 DUP3 ADD MSTORE PUSH1 0x84 SWAP1 REVERT JUMPDEST SWAP1 PUSH1 0x1 PUSH1 0x1 PUSH1 0x40 SHL SUB SWAP1 SWAP4 SWAP3 SWAP4 AND DUP2 MSTORE PUSH1 0x40 PUSH1 0x20 SWAP2 DUP2 DUP4 DUP3 ADD MSTORE PUSH2 0x21A3 DUP6 MLOAD PUSH1 0xA0 DUP5 DUP5 ADD MSTORE PUSH1 0xE0 DUP4 ADD SWAP1 PUSH2 0x1F9A JUMP JUMPDEST SWAP2 PUSH2 0x21BF DUP5 DUP8 ADD MLOAD SWAP4 PUSH1 0x3F NOT SWAP5 DUP6 DUP6 DUP4 SUB ADD PUSH1 0x60 DUP7 ADD MSTORE PUSH2 0x1F9A JUMP JUMPDEST DUP2 DUP8 ADD MLOAD SWAP5 DUP5 DUP5 DUP4 SUB ADD PUSH1 0x80 DUP6 ADD MSTORE DUP1 DUP1 DUP8 MLOAD SWAP4 DUP5 DUP2 MSTORE ADD SWAP7 ADD SWAP3 PUSH1 0x0 SWAP1 JUMPDEST DUP4 DUP3 LT PUSH2 0x2217 JUMPI POP POP POP POP POP PUSH1 0xC0 PUSH1 0x80 PUSH2 0x2214 SWAP6 SWAP7 PUSH1 0x1 DUP1 PUSH1 0xA0 SHL SUB PUSH1 0x60 DUP3 ADD MLOAD AND PUSH1 0xA0 DUP6 ADD MSTORE ADD MLOAD SWAP3 DUP3 DUP6 SUB ADD SWAP2 ADD MSTORE PUSH2 0x1F9A JUMP JUMPDEST SWAP1 JUMP JUMPDEST DUP5 MLOAD DUP1 MLOAD PUSH1 0x1 PUSH1 0x1 PUSH1 0xA0 SHL SUB AND DUP10 MSTORE DUP4 ADD MLOAD DUP9 DUP5 ADD MSTORE SWAP7 DUP8 ADD SWAP7 SWAP4 DUP3 ADD SWAP4 PUSH1 0x1 SWAP1 SWAP2 ADD SWAP1 PUSH2 0x21DE JUMP JUMPDEST SWAP1 DUP2 PUSH1 0x20 SWAP2 SUB SLT PUSH2 0xAD7 JUMPI MLOAD DUP1 ISZERO ISZERO DUP2 SUB PUSH2 0xAD7 JUMPI SWAP1 JUMP JUMPDEST SWAP2 SWAP1 DUP3 ADD DUP1 SWAP3 GT PUSH2 0x2265 JUMPI JUMP JUMPDEST PUSH4 0x4E487B71 PUSH1 0xE0 SHL PUSH1 0x0 MSTORE PUSH1 0x11 PUSH1 0x4 MSTORE PUSH1 0x24 PUSH1 0x0 REVERT JUMPDEST PUSH1 0x1 DUP1 PUSH1 0xA0 SHL SUB DUP1 SWAP3 AND SWAP2 PUSH1 0x0 DUP4 DUP2 MSTORE PUSH1 0xB SWAP1 PUSH1 0x20 SWAP2 DUP1 DUP4 MSTORE PUSH1 0x40 SWAP3 DUP4 DUP4 KECCAK256 SWAP5 PUSH2 0x22BB PUSH1 0x2 DUP8 ADD SLOAD PUSH1 0x3 DUP9 ADD SLOAD SWAP8 PUSH1 0x4 SWAP9 PUSH1 0x5 DUP11 DUP4 ADD SLOAD SWAP3 ADD SLOAD SWAP3 PUSH2 0x27DC JUMP JUMPDEST SWAP7 PUSH1 0xA SLOAD PUSH3 0x15180 DUP2 ADD DUP1 SWAP2 GT PUSH2 0x2393 JUMPI TIMESTAMP GT SWAP9 DUP10 PUSH2 0x23F9 JUMPI JUMPDEST DUP10 PUSH2 0x23E1 JUMPI JUMPDEST DUP10 PUSH2 0x23CB JUMPI JUMPDEST DUP10 PUSH2 0x23A6 JUMPI JUMPDEST DUP10 PUSH2 0x2370 JUMPI JUMPDEST DUP10 PUSH2 0x2357 JUMPI JUMPDEST DUP10 PUSH2 0x233F JUMPI JUMPDEST POP DUP9 PUSH2 0x2328 JUMPI JUMPDEST DUP9 PUSH2 0x2311 JUMPI JUMPDEST POP POP POP POP POP POP POP POP SWAP1 JUMP JUMPDEST AND DUP4 MSTORE MSTORE KECCAK256 ADD SLOAD LT SWAP1 POP CODESIZE DUP1 DUP1 DUP1 DUP1 DUP1 DUP1 DUP1 PUSH2 0x2306 JUMP JUMPDEST DUP2 DUP2 AND DUP6 MSTORE DUP4 DUP4 MSTORE DUP6 DUP6 KECCAK256 DUP8 ADD SLOAD ISZERO ISZERO SWAP9 POP PUSH2 0x2300 JUMP JUMPDEST DUP6 MSTORE DUP4 DUP4 MSTORE DUP6 DUP6 KECCAK256 SLOAD PUSH1 0x8 SHR PUSH1 0xFF AND ISZERO SWAP9 POP CODESIZE PUSH2 0x22F9 JUMP JUMPDEST DUP1 DUP7 MSTORE DUP5 DUP5 MSTORE DUP7 DUP7 KECCAK256 SLOAD PUSH1 0xFF AND ISZERO ISZERO PUSH1 0x1 EQ SWAP10 POP PUSH2 0x22F3 JUMP JUMPDEST DUP1 SWAP10 POP DUP6 MSTORE DUP4 DUP4 MSTORE PUSH1 0x1 DUP7 DUP7 KECCAK256 ADD SLOAD PUSH2 0xE10 DUP2 ADD DUP1 SWAP2 GT PUSH2 0x2393 JUMPI TIMESTAMP LT SWAP9 PUSH2 0x22ED JUMP JUMPDEST PUSH4 0x4E487B71 PUSH1 0xE0 SHL DUP7 MSTORE PUSH1 0x11 DUP9 MSTORE PUSH1 0x24 DUP7 REVERT JUMPDEST SWAP9 POP DUP2 DUP2 AND DUP6 MSTORE DUP4 DUP4 MSTORE PUSH1 0x1 DUP7 DUP7 KECCAK256 ADD SLOAD PUSH2 0xE10 DUP2 ADD DUP1 SWAP2 GT PUSH2 0x2393 JUMPI TIMESTAMP LT SWAP9 PUSH2 0x22E7 JUMP JUMPDEST DUP1 DUP7 MSTORE DUP5 DUP5 MSTORE DUP7 DUP7 KECCAK256 PUSH1 0x1 ADD SLOAD ISZERO ISZERO SWAP10 POP PUSH2 0x22E1 JUMP JUMPDEST DUP2 DUP4 AND DUP7 MSTORE DUP5 DUP5 MSTORE DUP7 DUP7 KECCAK256 PUSH1 0x1 ADD SLOAD ISZERO ISZERO SWAP10 POP PUSH2 0x22DB JUMP JUMPDEST DUP2 DUP4 AND DUP7 MSTORE DUP5 DUP5 MSTORE DUP7 DUP7 KECCAK256 SLOAD PUSH1 0x8 SHR PUSH1 0xFF AND ISZERO ISZERO PUSH1 0x1 EQ SWAP10 POP PUSH2 0x22D5 JUMP JUMPDEST PUSH1 0x9 SLOAD PUSH1 0x1 PUSH1 0x1 PUSH1 0xA0 SHL SUB SWAP1 DUP2 AND SWAP1 DUP2 ISZERO PUSH2 0x244A JUMPI POP PUSH1 0x0 MSTORE PUSH1 0xB PUSH1 0x20 MSTORE PUSH1 0x1 PUSH1 0x1 PUSH1 0x40 SHL SUB PUSH1 0x40 PUSH1 0x0 KECCAK256 SLOAD PUSH1 0x10 SHR AND SWAP1 JUMP JUMPDEST SWAP1 POP PUSH1 0x8 SLOAD AND PUSH1 0x0 MSTORE PUSH1 0xB PUSH1 0x20 MSTORE PUSH1 0x1 PUSH1 0x1 PUSH1 0x40 SHL SUB PUSH1 0x40 PUSH1 0x0 KECCAK256 SLOAD PUSH1 0x10 SHR AND SWAP1 JUMP JUMPDEST PUSH1 0x1 PUSH1 0x1 PUSH1 0xA0 SHL SUB SWAP1 DUP2 AND SWAP2 DUP3 ISZERO PUSH2 0x258A JUMPI AND SWAP2 DUP3 ISZERO PUSH2 0x2539 JUMPI PUSH1 0x0 DUP3 DUP2 MSTORE PUSH1 0x2 PUSH1 0x20 MSTORE PUSH1 0x40 DUP2 KECCAK256 SLOAD SWAP2 DUP1 DUP4 LT PUSH2 0x24E5 JUMPI PUSH1 0x40 DUP3 DUP3 PUSH32 0xDDF252AD1BE2C89B69C2B068FC378DAA952BA7F163C4A11628F55A4DF523B3EF SWAP6 DUP8 PUSH1 0x20 SWAP7 MSTORE PUSH1 0x2 DUP7 MSTORE SUB DUP3 DUP3 KECCAK256 SSTORE DUP7 DUP2 MSTORE KECCAK256 DUP2 DUP2 SLOAD ADD SWAP1 SSTORE PUSH1 0x40 MLOAD SWAP1 DUP2 MSTORE LOG3 JUMP JUMPDEST PUSH1 0x40 MLOAD PUSH3 0x461BCD PUSH1 0xE5 SHL DUP2 MSTORE PUSH1 0x20 PUSH1 0x4 DUP3 ADD MSTORE PUSH1 0x26 PUSH1 0x24 DUP3 ADD MSTORE PUSH32 0x45524332303A207472616E7366657220616D6F756E7420657863656564732062 PUSH1 0x44 DUP3 ADD MSTORE PUSH6 0x616C616E6365 PUSH1 0xD0 SHL PUSH1 0x64 DUP3 ADD MSTORE PUSH1 0x84 SWAP1 REVERT JUMPDEST PUSH1 0x40 MLOAD PUSH3 0x461BCD PUSH1 0xE5 SHL DUP2 MSTORE PUSH1 0x20 PUSH1 0x4 DUP3 ADD MSTORE PUSH1 0x23 PUSH1 0x24 DUP3 ADD MSTORE PUSH32 0x45524332303A207472616E7366657220746F20746865207A65726F2061646472 PUSH1 0x44 DUP3 ADD MSTORE PUSH3 0x657373 PUSH1 0xE8 SHL PUSH1 0x64 DUP3 ADD MSTORE PUSH1 0x84 SWAP1 REVERT JUMPDEST PUSH1 0x40 MLOAD PUSH3 0x461BCD PUSH1 0xE5 SHL DUP2 MSTORE PUSH1 0x20 PUSH1 0x4 DUP3 ADD MSTORE PUSH1 0x25 PUSH1 0x24 DUP3 ADD MSTORE PUSH32 0x45524332303A207472616E736665722066726F6D20746865207A65726F206164 PUSH1 0x44 DUP3 ADD MSTORE PUSH5 0x6472657373 PUSH1 0xD8 SHL PUSH1 0x64 DUP3 ADD MSTORE PUSH1 0x84 SWAP1 REVERT JUMPDEST PUSH1 0x1 PUSH1 0x1 PUSH1 0xA0 SHL SUB AND SWAP1 DUP2 ISZERO PUSH2 0x263C JUMPI PUSH32 0xDDF252AD1BE2C89B69C2B068FC378DAA952BA7F163C4A11628F55A4DF523B3EF PUSH1 0x20 DUP3 PUSH2 0x261F PUSH1 0x0 SWAP5 PUSH1 0x4 SLOAD PUSH2 0x2258 JUMP JUMPDEST PUSH1 0x4 SSTORE DUP5 DUP5 MSTORE PUSH1 0x2 DUP3 MSTORE PUSH1 0x40 DUP5 KECCAK256 DUP2 DUP2 SLOAD ADD SWAP1 SSTORE PUSH1 0x40 MLOAD SWAP1 DUP2 MSTORE LOG3 JUMP JUMPDEST PUSH1 0x40 MLOAD PUSH3 0x461BCD PUSH1 0xE5 SHL DUP2 MSTORE PUSH1 0x20 PUSH1 0x4 DUP3 ADD MSTORE PUSH1 0x1F PUSH1 0x24 DUP3 ADD MSTORE PUSH32 0x45524332303A206D696E7420746F20746865207A65726F206164647265737300 PUSH1 0x44 DUP3 ADD MSTORE PUSH1 0x64 SWAP1 REVERT JUMPDEST PUSH1 0x1 PUSH1 0x1 PUSH1 0xA0 SHL SUB SWAP1 DUP2 AND SWAP2 DUP3 ISZERO PUSH2 0x2732 JUMPI AND SWAP2 DUP3 ISZERO PUSH2 0x26E2 JUMPI PUSH1 0x20 PUSH32 0x8C5BE1E5EBEC7D5BD14F71427D1E84F3DD0314C0F7B2291E5B200AC8C7C3B925 SWAP2 DUP4 PUSH1 0x0 MSTORE PUSH1 0x3 DUP3 MSTORE PUSH1 0x40 PUSH1 0x0 KECCAK256 DUP6 PUSH1 0x0 MSTORE DUP3 MSTORE DUP1 PUSH1 0x40 PUSH1 0x0 KECCAK256 SSTORE PUSH1 0x40 MLOAD SWAP1 DUP2 MSTORE LOG3 JUMP JUMPDEST PUSH1 0x40 MLOAD PUSH3 0x461BCD PUSH1 0xE5 SHL DUP2 MSTORE PUSH1 0x20 PUSH1 0x4 DUP3 ADD MSTORE PUSH1 0x22 PUSH1 0x24 DUP3 ADD MSTORE PUSH32 0x45524332303A20617070726F766520746F20746865207A65726F206164647265 PUSH1 0x44 DUP3 ADD MSTORE PUSH2 0x7373 PUSH1 0xF0 SHL PUSH1 0x64 DUP3 ADD MSTORE PUSH1 0x84 SWAP1 REVERT JUMPDEST PUSH1 0x40 MLOAD PUSH3 0x461BCD PUSH1 0xE5 SHL DUP2 MSTORE PUSH1 0x20 PUSH1 0x4 DUP3 ADD MSTORE PUSH1 0x24 DUP1 DUP3 ADD MSTORE PUSH32 0x45524332303A20617070726F76652066726F6D20746865207A65726F20616464 PUSH1 0x44 DUP3 ADD MSTORE PUSH4 0x72657373 PUSH1 0xE0 SHL PUSH1 0x64 DUP3 ADD MSTORE PUSH1 0x84 SWAP1 REVERT JUMPDEST MLOAD SWAP1 PUSH1 0x1 PUSH1 0x1 PUSH1 0xA0 SHL SUB DUP3 AND DUP3 SUB PUSH2 0xAD7 JUMPI JUMP JUMPDEST MLOAD SWAP1 PUSH1 0xFF DUP3 AND DUP3 SUB PUSH2 0xAD7 JUMPI JUMP JUMPDEST PUSH1 0x40 MLOAD SWAP1 PUSH4 0x97A657C9 PUSH1 0xE0 SHL PUSH1 0x20 DUP4 ADD MSTORE MLOAD PUSH1 0x24 DUP3 ADD MSTORE PUSH1 0x24 DUP2 MSTORE PUSH1 0x60 DUP2 ADD DUP2 DUP2 LT PUSH1 0x1 PUSH1 0x1 PUSH1 0x40 SHL SUB DUP3 GT OR PUSH2 0x2029 JUMPI PUSH1 0x40 MSTORE SWAP1 JUMP JUMPDEST SWAP3 PUSH2 0x27E7 SWAP2 SWAP4 PUSH2 0x2258 JUMP JUMPDEST PUSH8 0xDE0B6B3A7640000 SWAP3 DUP4 DUP2 MUL SWAP1 DUP1 DUP3 DIV DUP6 EQ SWAP1 ISZERO OR ISZERO PUSH2 0x2265 JUMPI DUP2 ISZERO PUSH2 0x281E JUMPI DIV SWAP1 DUP2 DUP2 MUL SWAP2 DUP2 DUP4 DIV EQ SWAP1 ISZERO OR ISZERO PUSH2 0x2265 JUMPI DIV SWAP1 JUMP JUMPDEST PUSH4 0x4E487B71 PUSH1 0xE0 SHL PUSH1 0x0 MSTORE PUSH1 0x12 PUSH1 0x4 MSTORE PUSH1 0x24 PUSH1 0x0 REVERT JUMPDEST PUSH1 0x0 SLOAD PUSH1 0x1 PUSH1 0x1 PUSH1 0xA0 SHL SUB AND CALLER SUB PUSH2 0x2848 JUMPI JUMP JUMPDEST PUSH1 0x40 MLOAD PUSH3 0x461BCD PUSH1 0xE5 SHL DUP2 MSTORE PUSH1 0x20 PUSH1 0x4 DUP3 ADD MSTORE PUSH1 0x16 PUSH1 0x24 DUP3 ADD MSTORE PUSH22 0x27B7363C9031B0B63630B1363290313C9037BBB732B9 PUSH1 0x51 SHL PUSH1 0x44 DUP3 ADD MSTORE PUSH1 0x64 SWAP1 REVERT INVALID LOG2 PUSH5 0x6970667358 0x22 SLT KECCAK256 0x4A CALLDATACOPY EXTCODEHASH 0xCC 0x2A SUB 0xE4 PUSH27 0x61655FA4BF0ACA8AE1415658BFE07B0B78CE35CF3FA28CD164736F PUSH13 0x63430008130033000000000000 ",
  "sha1": "d5048becd59a00328ba1f1011f3f215da4a9c06a",
  "source": "// SPDX-License-Identifier: MIT\npragma solidity 0.8.19;\n\nimport {IRouterClient} from \"@chainlink/contracts/src/v0.8/ccip/interfaces/IRouterClient.sol\";\nimport {OwnerIsCreator} from \"@chainlink/contracts/src/v0.8/shared/access/OwnerIsCreator.sol\";\nimport {Client} from \"@chainlink/contracts/src/v0.8/ccip/libraries/Client.sol\";\nimport {CCIPReceiver} from \"@chainlink/contracts/src/v0.8/ccip/applications/CCIPReceiver.sol\";\n\nimport {LinkTokenInterface} from \"@chainlink/contracts/src/v0.8/shared/interfaces/LinkTokenInterface.sol\";\n\nimport \"@openzeppelin/contracts/token/ERC20/ERC20.sol\";\nimport \"./utils_node/UtilsMasterNode.sol\";\n\n// Node interface\nimport \"../interfaces/INode.sol\";\n\n/// @title - A simple messenger contract for transferring/receiving tokens and data across chains.\ncontract MasterNode is CCIPReceiver, OwnerIsCreator, ERC20, UtilsMasterNode {\n    // Custom errors to provide more descriptive revert messages.\n    error NotEnoughBalance(uint256 currentBalance, uint256 calculatedFees); // Used to make sure contract has enough balance to cover the fees.\n    error NothingToWithdraw(); // Used when trying to withdraw Ether but there's nothing to withdraw.\n    error FailedToWithdrawEth(address owner, address target, uint256 value); // Used when the withdrawal of Ether fails.\n    error DestinationNodeNotValid(address nodeAddress); // Used when the destination address has not been allowlisted by the contract owner.\n    error SourceChainNotAllowed(uint64 sourceChainSelector); // Used when the source chain has not been allowlisted by the contract owner.\n    error SenderNotAllowed(address sender); // Used when the sender has not been allowlisted by the contract owner.\n    error InvalidReceiverAddress(); // Used when the receiver address is 0.\n\n    bool public isProtocolInTestMode = true;\n\n    LinkTokenInterface private s_linkToken;\n    uint64 public immutable MASTER_CONTRACT_CHAIN_ID;\n    bool public allowMoreNodes = true;\n    address public lastActiveNode;\n    address public activeNode;\n    uint256 public lastTimeWarped;\n\n    struct ValidNodes {\n        bool isValidNode;\n        bool isActiveNode;\n        uint64 chainCCIPid;\n        uint256 lastDataFromAave;\n        uint256 totalUsdcSupply;\n        uint256 totalUsdcBorrow;\n        uint256 supplyRate;\n        uint256 totalAusdcNode;\n    }\n\n    mapping(address => ValidNodes) public validNodes;\n\n    constructor(\n        address _router,\n        address _link,\n        uint64 _MASTER_CONTRACT_CHAIN_ID\n    ) CCIPReceiver(_router) ERC20(\"WarpYield\", \"aWRP\") {\n        s_linkToken = LinkTokenInterface(_link);\n        MASTER_CONTRACT_CHAIN_ID = _MASTER_CONTRACT_CHAIN_ID;\n    }\n\n    modifier onlyValidNodes(address nodeAddress) {\n        if (!validNodes[nodeAddress].isValidNode) {\n            revert DestinationNodeNotValid(nodeAddress);\n        }\n        _;\n    }\n\n    modifier masterAndNodeInSameChain() {\n        require(\n            validNodes[msg.sender].chainCCIPid == MASTER_CONTRACT_CHAIN_ID,\n            \"Require master and node in same chain\"\n        );\n        _;\n    }\n\n    function stopAddingNodes() external onlyOwner {\n        allowMoreNodes = false;\n    }\n\n    function addValidNode(\n        address nodeAddress,\n        uint64 chainCCIPid,\n        bool isActiveNode\n    ) external onlyOwner {\n        require(allowMoreNodes, \"No more nodes allowed\");\n        validNodes[nodeAddress].isValidNode = true;\n        validNodes[nodeAddress].isActiveNode = isActiveNode;\n        validNodes[nodeAddress].chainCCIPid = chainCCIPid;\n\n        if (isActiveNode) {\n            lastActiveNode = nodeAddress;\n            activeNode = nodeAddress;\n        }\n    }\n\n    /////////////////////////////////////////////////////////////////////////\n    ////////////////////  INCOMING DEPOSIT => MINT aWRP  ///////////////////\n    ////////////////////////  COMMAND == 0  ///////////////////////////////\n    //////////////////////////////////////////////////////////////////////\n\n    function _aWarpTokenMinter(\n        Client.Any2EVMMessage memory _any2EvmMessage\n    ) internal {\n        (, address userAddress, uint256 shares) = abi.decode(\n            _any2EvmMessage.data,\n            (uint8, address, uint256)\n        );\n\n        _mint(userAddress, shares);\n    }\n\n    ///////////////////  DEPOSIT, MASTER AND NODE IN SAME CHAIN  /////////////////\n\n    function aWarpTokenMinterFromSameChain(\n        address userAddress,\n        uint256 shares\n    ) external masterAndNodeInSameChain onlyValidNodes(msg.sender) {\n        _mint(userAddress, shares);\n    }\n\n    /////////////////////////////////////////////////////////////////////////\n    //////////////////////  RESUME PROTOCOL OPERATIONS  ////////////////////\n    ////////////////////////  COMMAND == 1  ///////////////////////////////\n    //////////////////////////////////////////////////////////////////////\n\n    function _resmumeOperations(\n        Client.Any2EVMMessage memory _any2EvmMessage\n    ) internal {\n        validNodes[abi.decode(_any2EvmMessage.sender, (address))]\n            .isActiveNode = true;\n\n        activeNode = abi.decode(_any2EvmMessage.sender, (address));\n    }\n\n    ///////////  RESUME OPERATIONS, MASTER AND NODE IN SAME CHAIN  //////////\n\n    function _resmumeOperationsFromSameChain()\n        external\n        masterAndNodeInSameChain\n        onlyValidNodes(msg.sender)\n    {\n        validNodes[msg.sender].isActiveNode = true;\n        activeNode = msg.sender;\n    }\n\n    /////////////////////////////////////////////////////////////////////////\n    /////////////////////////  DATA AAVE FROM NODE  ////////////////////////\n    ////////////////////////  COMMAND == 2  ///////////////////////////////\n    //////////////////////////////////////////////////////////////////////\n\n    function _nodeAaveFeed(\n        Client.Any2EVMMessage memory _any2EvmMessage\n    ) internal {\n        (\n            ,\n            uint256 totalUsdcSupply,\n            uint256 totalUsdcBorrow,\n            uint256 supplyRate,\n            uint256 totalAusdcNode\n        ) = abi.decode(\n                _any2EvmMessage.data,\n                (uint8, uint256, uint256, uint256, uint256)\n            );\n\n        validNodes[abi.decode(_any2EvmMessage.sender, (address))]\n            .lastDataFromAave = block.timestamp;\n        validNodes[abi.decode(_any2EvmMessage.sender, (address))]\n            .totalUsdcSupply = totalUsdcSupply;\n        validNodes[abi.decode(_any2EvmMessage.sender, (address))]\n            .totalUsdcBorrow = totalUsdcBorrow;\n        validNodes[abi.decode(_any2EvmMessage.sender, (address))]\n            .supplyRate = supplyRate;\n        validNodes[abi.decode(_any2EvmMessage.sender, (address))]\n            .totalAusdcNode = totalAusdcNode;\n    }\n\n    ////////////////  DATA AAVE, MASTER AND NODE IN SAME CHAIN  //////////////\n\n    function nodeAaveFeedFromSameChain(\n        uint256 totalUsdcSupply,\n        uint256 totalUsdcBorrow,\n        uint256 supplyRate,\n        uint256 totalAusdcNode\n    ) external masterAndNodeInSameChain onlyValidNodes(msg.sender) {\n        validNodes[msg.sender].lastDataFromAave = block.timestamp;\n        validNodes[msg.sender].totalUsdcSupply = totalUsdcSupply;\n        validNodes[msg.sender].totalUsdcBorrow = totalUsdcBorrow;\n        validNodes[msg.sender].supplyRate = supplyRate;\n        validNodes[msg.sender].totalAusdcNode = totalAusdcNode;\n    }\n\n    //////////////////////////////////////////////////////////////////////////\n    /////////////////////////////////////////////////////////////////////////\n    ////////////////////////  INCOMING MESAGE HANDLER  /////////////////////\n    /////////////////  THIS FUNC IS CALLED BY CHAINLINK  //////////////////\n    //////////////////////////////////////////////////////////////////////\n    /////////////////////////////////////////////////////////////////////\n\n    function _ccipReceive(\n        Client.Any2EVMMessage memory _any2EvmMessage\n    )\n        internal\n        override\n        onlyValidNodes(abi.decode(_any2EvmMessage.sender, (address)))\n    {\n        uint8 command = _internalCommandRouter(_any2EvmMessage);\n        if (command == 0) {\n            _aWarpTokenMinter(_any2EvmMessage);\n        } else if (command == 1) {\n            _resmumeOperations(_any2EvmMessage);\n        } else if (command == 2) {\n            _nodeAaveFeed(_any2EvmMessage);\n        } else {\n            revert(\"invalid command from Node\");\n        }\n    }\n\n    /////////////////////////////////////////////////////////////////////////\n    ////////////////////////////////////////////////////////////////////////\n    ///////////////////////  OUTGOING MESAGES HANDLER  ////////////////////\n    //////////////////////////////////////////////////////////////////////\n    /////////////////////////////////////////////////////////////////////\n\n    function _sendMessage(\n        uint64 _destinationChainSelector,\n        address _receiver,\n        bytes memory _data\n    ) internal onlyValidNodes(_receiver) returns (bytes32 messageId) {\n        // Create an EVM2AnyMessage struct in memory with necessary information for sending a cross-chain message\n        // address(linkToken) means fees are paid in LINK\n        Client.EVM2AnyMessage memory evm2AnyMessage = _buildCCIPMessage(\n            _receiver,\n            _data,\n            address(s_linkToken)\n        );\n\n        // Initialize a router client instance to interact with cross-chain router\n        IRouterClient router = IRouterClient(this.getRouter());\n\n        // Get the fee required to send the CCIP message\n        uint256 fees = router.getFee(_destinationChainSelector, evm2AnyMessage);\n\n        require(\n            s_linkToken.transferFrom(msg.sender, address(this), fees),\n            \"Not provided Link for fees\"\n        );\n\n        if (fees > s_linkToken.balanceOf(address(this)))\n            revert NotEnoughBalance(s_linkToken.balanceOf(address(this)), fees);\n\n        // approve the Router to transfer LINK tokens on contract's behalf. It will spend the fees in LINK\n        s_linkToken.approve(address(router), fees);\n\n        // Send the message through the router and store the returned message ID\n        messageId = router.ccipSend(_destinationChainSelector, evm2AnyMessage);\n\n        // Return the message ID\n        return messageId;\n    }\n\n    /// @notice Construct a CCIP message.\n    /// @dev This function will create an EVM2AnyMessage struct with all the necessary information for programmable tokens transfer.\n    /// @param _receiver The address of the receiver.\n    /// @param _data The bytes data to be sent.\n    /// @param _feeTokenAddress The address of the token used for fees. Set address(0) for native gas.\n    /// @return Client.EVM2AnyMessage Returns an EVM2AnyMessage struct which contains information for sending a CCIP message.\n    function _buildCCIPMessage(\n        address _receiver,\n        bytes memory _data,\n        address _feeTokenAddress\n    ) private pure returns (Client.EVM2AnyMessage memory) {\n        return\n            Client.EVM2AnyMessage({\n                receiver: abi.encode(_receiver), // ABI-encoded receiver address\n                data: _data, // ABI-encoded string\n                tokenAmounts: new Client.EVMTokenAmount[](0), // The amount and type of token being transferred\n                extraArgs: Client._argsToBytes(\n                    // Additional arguments, setting gas limit\n                    Client.EVMExtraArgsV1({gasLimit: 2_000_000})\n                ),\n                // Set the feeToken to a feeTokenAddress, indicating specific asset will be used for fees\n                feeToken: _feeTokenAddress\n            });\n    }\n\n    /// @notice Fallback function to allow the contract to receive Ether.\n    /// @dev This function has no function body, making it a default function for receiving Ether.\n    /// It is automatically called when Ether is sent to the contract without any data.\n    receive() external payable {}\n\n    /////////////////////////////////////////////////////////////////////////\n    ///////////////////////////////  WARP ASSETS  //////////////////////////\n    ///////////////////////////////////////////////////////////////////////\n\n    function warpAssets(\n        uint64 _destinationCCIPid,\n        address _destinationNodeAddress\n    ) external {\n        require(\n            validNodes[_destinationNodeAddress].isValidNode,\n            \"Destination Node is not vaild\"\n        );\n        // in test mode no requirements to warp assets\n        if (!isProtocolInTestMode) {\n            require(\n                checkApprovedWarp(activeNode, _destinationNodeAddress),\n                \"Condition to warp not met\"\n            );\n        }\n        uint8 commandWarpAssets = 1;\n\n        bytes memory data = abi.encode(\n            commandWarpAssets,\n            _destinationCCIPid,\n            _destinationNodeAddress\n        );\n        validNodes[activeNode].isActiveNode = false;\n\n        if (validNodes[activeNode].chainCCIPid == MASTER_CONTRACT_CHAIN_ID) {\n            INode(activeNode).warpAssetsFromSameChain(\n                _destinationCCIPid,\n                _destinationNodeAddress\n            );\n        } else {\n            _sendMessage(validNodes[activeNode].chainCCIPid, activeNode, data);\n        }\n\n        lastActiveNode = activeNode;\n        activeNode = address(0);\n        lastTimeWarped = block.timestamp;\n    }\n\n    /////////////////////////////////////////////////////////////////////////\n    /////////////////////////////  WITHDRAW  ///////////////////////////////\n    ///////////////////////////////////////////////////////////////////////\n\n    function withdraw(uint256 shares) external {\n        require(validNodes[activeNode].isActiveNode, \"Node is not Active\");\n\n        require(shares <= balanceOf(msg.sender), \"Not enought balance\");\n\n        uint8 commandWitdraw = 0;\n\n        bytes memory data = abi.encode(commandWitdraw, msg.sender, shares);\n\n        _burn(msg.sender, shares);\n\n        if (validNodes[activeNode].chainCCIPid == MASTER_CONTRACT_CHAIN_ID) {\n            INode(activeNode).withdrawFromSameChain(msg.sender, shares);\n        } else {\n            _sendMessage(validNodes[activeNode].chainCCIPid, activeNode, data);\n        }\n    }\n\n    /////////////////////////////////////////////////////////////////////////\n    /////////////////////////////   UTILS   ////////////////////////////////\n    ///////////////////////////////////////////////////////////////////////\n\n    function checkApprovedWarp(\n        address _activeNode,\n        address destinationNode\n    ) public view returns (bool) {\n        //require 24 after last warp\n        uint256 newSupplyRate = calculateNewSupplyRates(\n            validNodes[destinationNode].totalUsdcSupply,\n            validNodes[destinationNode].totalUsdcBorrow,\n            validNodes[destinationNode].supplyRate,\n            validNodes[destinationNode].totalAusdcNode\n        );\n\n        return\n            lastTimeWarped + (3600 * 24) < block.timestamp &&\n            validNodes[_activeNode].isActiveNode == true &&\n            validNodes[_activeNode].lastDataFromAave > 0 &&\n            validNodes[destinationNode].lastDataFromAave > 0 &&\n            validNodes[_activeNode].lastDataFromAave + 3600 > block.timestamp &&\n            validNodes[destinationNode].lastDataFromAave + 3600 >\n            block.timestamp &&\n            validNodes[destinationNode].isValidNode == true &&\n            validNodes[destinationNode].isActiveNode == false &&\n            validNodes[_activeNode].supplyRate > 0 &&\n            validNodes[_activeNode].supplyRate < newSupplyRate;\n    }\n\n    // get ChainId from active node or last active node in case vault is warping, only for frontend, no impact in contract\n    function getChainIdFromActiveNode() external view returns (uint64) {\n        if (activeNode == address(0)) {\n            return validNodes[lastActiveNode].chainCCIPid;\n        }\n\n        return validNodes[activeNode].chainCCIPid;\n    }\n}\n",
  "sourcePath": "contracts/MasterNode.sol",
  "type": "contract"
}