{
  "abi": [
    {
      "inputs": [
        {
          "internalType": "address",
          "name": "_router",
          "type": "address"
        },
        {
          "internalType": "address",
          "name": "_link",
          "type": "address"
        },
        {
          "internalType": "uint64",
          "name": "_MASTER_CONTRACT_CHAIN_ID",
          "type": "uint64"
        }
      ],
      "stateMutability": "nonpayable",
      "type": "constructor"
    },
    {
      "inputs": [
        {
          "internalType": "address",
          "name": "nodeAddress",
          "type": "address"
        }
      ],
      "name": "DestinationNodeNotValid",
      "type": "error"
    },
    {
      "inputs": [
        {
          "internalType": "address",
          "name": "owner",
          "type": "address"
        },
        {
          "internalType": "address",
          "name": "target",
          "type": "address"
        },
        {
          "internalType": "uint256",
          "name": "value",
          "type": "uint256"
        }
      ],
      "name": "FailedToWithdrawEth",
      "type": "error"
    },
    {
      "inputs": [],
      "name": "InvalidReceiverAddress",
      "type": "error"
    },
    {
      "inputs": [
        {
          "internalType": "address",
          "name": "router",
          "type": "address"
        }
      ],
      "name": "InvalidRouter",
      "type": "error"
    },
    {
      "inputs": [
        {
          "internalType": "uint256",
          "name": "currentBalance",
          "type": "uint256"
        },
        {
          "internalType": "uint256",
          "name": "calculatedFees",
          "type": "uint256"
        }
      ],
      "name": "NotEnoughBalance",
      "type": "error"
    },
    {
      "inputs": [],
      "name": "NothingToWithdraw",
      "type": "error"
    },
    {
      "inputs": [
        {
          "internalType": "address",
          "name": "sender",
          "type": "address"
        }
      ],
      "name": "SenderNotAllowed",
      "type": "error"
    },
    {
      "inputs": [
        {
          "internalType": "uint64",
          "name": "sourceChainSelector",
          "type": "uint64"
        }
      ],
      "name": "SourceChainNotAllowed",
      "type": "error"
    },
    {
      "anonymous": false,
      "inputs": [
        {
          "indexed": true,
          "internalType": "address",
          "name": "owner",
          "type": "address"
        },
        {
          "indexed": true,
          "internalType": "address",
          "name": "spender",
          "type": "address"
        },
        {
          "indexed": false,
          "internalType": "uint256",
          "name": "value",
          "type": "uint256"
        }
      ],
      "name": "Approval",
      "type": "event"
    },
    {
      "anonymous": false,
      "inputs": [
        {
          "indexed": true,
          "internalType": "address",
          "name": "from",
          "type": "address"
        },
        {
          "indexed": true,
          "internalType": "address",
          "name": "to",
          "type": "address"
        }
      ],
      "name": "OwnershipTransferRequested",
      "type": "event"
    },
    {
      "anonymous": false,
      "inputs": [
        {
          "indexed": true,
          "internalType": "address",
          "name": "from",
          "type": "address"
        },
        {
          "indexed": true,
          "internalType": "address",
          "name": "to",
          "type": "address"
        }
      ],
      "name": "OwnershipTransferred",
      "type": "event"
    },
    {
      "anonymous": false,
      "inputs": [
        {
          "indexed": true,
          "internalType": "address",
          "name": "from",
          "type": "address"
        },
        {
          "indexed": true,
          "internalType": "address",
          "name": "to",
          "type": "address"
        },
        {
          "indexed": false,
          "internalType": "uint256",
          "name": "value",
          "type": "uint256"
        }
      ],
      "name": "Transfer",
      "type": "event"
    },
    {
      "inputs": [],
      "name": "MASTER_CONTRACT_CHAIN_ID",
      "outputs": [
        {
          "internalType": "uint64",
          "name": "",
          "type": "uint64"
        }
      ],
      "stateMutability": "view",
      "type": "function"
    },
    {
      "inputs": [],
      "name": "_resmumeOperationsFromSameChain",
      "outputs": [],
      "stateMutability": "nonpayable",
      "type": "function"
    },
    {
      "inputs": [
        {
          "internalType": "address",
          "name": "userAddress",
          "type": "address"
        },
        {
          "internalType": "uint256",
          "name": "shares",
          "type": "uint256"
        }
      ],
      "name": "aWarpTokenMinterFromSameChain",
      "outputs": [],
      "stateMutability": "nonpayable",
      "type": "function"
    },
    {
      "inputs": [],
      "name": "acceptOwnership",
      "outputs": [],
      "stateMutability": "nonpayable",
      "type": "function"
    },
    {
      "inputs": [],
      "name": "activeNode",
      "outputs": [
        {
          "internalType": "address",
          "name": "",
          "type": "address"
        }
      ],
      "stateMutability": "view",
      "type": "function"
    },
    {
      "inputs": [
        {
          "internalType": "address",
          "name": "nodeAddress",
          "type": "address"
        },
        {
          "internalType": "uint64",
          "name": "chainCCIPid",
          "type": "uint64"
        },
        {
          "internalType": "bool",
          "name": "isActiveNode",
          "type": "bool"
        }
      ],
      "name": "addValidNode",
      "outputs": [],
      "stateMutability": "nonpayable",
      "type": "function"
    },
    {
      "inputs": [],
      "name": "allowMoreNodes",
      "outputs": [
        {
          "internalType": "bool",
          "name": "",
          "type": "bool"
        }
      ],
      "stateMutability": "view",
      "type": "function"
    },
    {
      "inputs": [
        {
          "internalType": "address",
          "name": "owner",
          "type": "address"
        },
        {
          "internalType": "address",
          "name": "spender",
          "type": "address"
        }
      ],
      "name": "allowance",
      "outputs": [
        {
          "internalType": "uint256",
          "name": "",
          "type": "uint256"
        }
      ],
      "stateMutability": "view",
      "type": "function"
    },
    {
      "inputs": [
        {
          "internalType": "address",
          "name": "spender",
          "type": "address"
        },
        {
          "internalType": "uint256",
          "name": "amount",
          "type": "uint256"
        }
      ],
      "name": "approve",
      "outputs": [
        {
          "internalType": "bool",
          "name": "",
          "type": "bool"
        }
      ],
      "stateMutability": "nonpayable",
      "type": "function"
    },
    {
      "inputs": [
        {
          "internalType": "address",
          "name": "account",
          "type": "address"
        }
      ],
      "name": "balanceOf",
      "outputs": [
        {
          "internalType": "uint256",
          "name": "",
          "type": "uint256"
        }
      ],
      "stateMutability": "view",
      "type": "function"
    },
    {
      "inputs": [
        {
          "internalType": "uint256",
          "name": "totalUsdcSupply",
          "type": "uint256"
        },
        {
          "internalType": "uint256",
          "name": "totalUsdcBorrow",
          "type": "uint256"
        },
        {
          "internalType": "uint256",
          "name": "supplyRate",
          "type": "uint256"
        },
        {
          "internalType": "uint256",
          "name": "addCapital",
          "type": "uint256"
        }
      ],
      "name": "calculateNewSupplyRates",
      "outputs": [
        {
          "internalType": "uint256",
          "name": "",
          "type": "uint256"
        }
      ],
      "stateMutability": "pure",
      "type": "function"
    },
    {
      "inputs": [
        {
          "components": [
            {
              "internalType": "bytes32",
              "name": "messageId",
              "type": "bytes32"
            },
            {
              "internalType": "uint64",
              "name": "sourceChainSelector",
              "type": "uint64"
            },
            {
              "internalType": "bytes",
              "name": "sender",
              "type": "bytes"
            },
            {
              "internalType": "bytes",
              "name": "data",
              "type": "bytes"
            },
            {
              "components": [
                {
                  "internalType": "address",
                  "name": "token",
                  "type": "address"
                },
                {
                  "internalType": "uint256",
                  "name": "amount",
                  "type": "uint256"
                }
              ],
              "internalType": "struct Client.EVMTokenAmount[]",
              "name": "destTokenAmounts",
              "type": "tuple[]"
            }
          ],
          "internalType": "struct Client.Any2EVMMessage",
          "name": "message",
          "type": "tuple"
        }
      ],
      "name": "ccipReceive",
      "outputs": [],
      "stateMutability": "nonpayable",
      "type": "function"
    },
    {
      "inputs": [
        {
          "internalType": "address",
          "name": "_activeNode",
          "type": "address"
        },
        {
          "internalType": "address",
          "name": "destinationNode",
          "type": "address"
        }
      ],
      "name": "checkApprovedWarp",
      "outputs": [
        {
          "internalType": "bool",
          "name": "",
          "type": "bool"
        }
      ],
      "stateMutability": "view",
      "type": "function"
    },
    {
      "inputs": [],
      "name": "decimals",
      "outputs": [
        {
          "internalType": "uint8",
          "name": "",
          "type": "uint8"
        }
      ],
      "stateMutability": "view",
      "type": "function"
    },
    {
      "inputs": [
        {
          "internalType": "address",
          "name": "spender",
          "type": "address"
        },
        {
          "internalType": "uint256",
          "name": "subtractedValue",
          "type": "uint256"
        }
      ],
      "name": "decreaseAllowance",
      "outputs": [
        {
          "internalType": "bool",
          "name": "",
          "type": "bool"
        }
      ],
      "stateMutability": "nonpayable",
      "type": "function"
    },
    {
      "inputs": [],
      "name": "getChainIdFromActiveNode",
      "outputs": [
        {
          "internalType": "uint64",
          "name": "",
          "type": "uint64"
        }
      ],
      "stateMutability": "view",
      "type": "function"
    },
    {
      "inputs": [
        {
          "internalType": "uint64",
          "name": "destinationCCIPid",
          "type": "uint64"
        },
        {
          "internalType": "address",
          "name": "receiver",
          "type": "address"
        },
        {
          "internalType": "address",
          "name": "s_linkTokenAddress",
          "type": "address"
        },
        {
          "internalType": "address",
          "name": "routerAddress",
          "type": "address"
        },
        {
          "internalType": "bytes",
          "name": "_data",
          "type": "bytes"
        }
      ],
      "name": "getLinkFees",
      "outputs": [
        {
          "internalType": "uint256",
          "name": "",
          "type": "uint256"
        }
      ],
      "stateMutability": "view",
      "type": "function"
    },
    {
      "inputs": [],
      "name": "getRouter",
      "outputs": [
        {
          "internalType": "address",
          "name": "",
          "type": "address"
        }
      ],
      "stateMutability": "view",
      "type": "function"
    },
    {
      "inputs": [
        {
          "internalType": "address",
          "name": "spender",
          "type": "address"
        },
        {
          "internalType": "uint256",
          "name": "addedValue",
          "type": "uint256"
        }
      ],
      "name": "increaseAllowance",
      "outputs": [
        {
          "internalType": "bool",
          "name": "",
          "type": "bool"
        }
      ],
      "stateMutability": "nonpayable",
      "type": "function"
    },
    {
      "inputs": [],
      "name": "isProtocolInTestMode",
      "outputs": [
        {
          "internalType": "bool",
          "name": "",
          "type": "bool"
        }
      ],
      "stateMutability": "view",
      "type": "function"
    },
    {
      "inputs": [],
      "name": "lastActiveNode",
      "outputs": [
        {
          "internalType": "address",
          "name": "",
          "type": "address"
        }
      ],
      "stateMutability": "view",
      "type": "function"
    },
    {
      "inputs": [],
      "name": "lastTimeWarped",
      "outputs": [
        {
          "internalType": "uint256",
          "name": "",
          "type": "uint256"
        }
      ],
      "stateMutability": "view",
      "type": "function"
    },
    {
      "inputs": [],
      "name": "name",
      "outputs": [
        {
          "internalType": "string",
          "name": "",
          "type": "string"
        }
      ],
      "stateMutability": "view",
      "type": "function"
    },
    {
      "inputs": [
        {
          "internalType": "uint256",
          "name": "totalUsdcSupply",
          "type": "uint256"
        },
        {
          "internalType": "uint256",
          "name": "totalUsdcBorrow",
          "type": "uint256"
        },
        {
          "internalType": "uint256",
          "name": "supplyRate",
          "type": "uint256"
        },
        {
          "internalType": "uint256",
          "name": "totalAusdcNode",
          "type": "uint256"
        }
      ],
      "name": "nodeAaveFeedFromSameChain",
      "outputs": [],
      "stateMutability": "nonpayable",
      "type": "function"
    },
    {
      "inputs": [],
      "name": "owner",
      "outputs": [
        {
          "internalType": "address",
          "name": "",
          "type": "address"
        }
      ],
      "stateMutability": "view",
      "type": "function"
    },
    {
      "inputs": [],
      "name": "stopAddingNodes",
      "outputs": [],
      "stateMutability": "nonpayable",
      "type": "function"
    },
    {
      "inputs": [
        {
          "internalType": "bytes4",
          "name": "interfaceId",
          "type": "bytes4"
        }
      ],
      "name": "supportsInterface",
      "outputs": [
        {
          "internalType": "bool",
          "name": "",
          "type": "bool"
        }
      ],
      "stateMutability": "pure",
      "type": "function"
    },
    {
      "inputs": [],
      "name": "symbol",
      "outputs": [
        {
          "internalType": "string",
          "name": "",
          "type": "string"
        }
      ],
      "stateMutability": "view",
      "type": "function"
    },
    {
      "inputs": [],
      "name": "totalSupply",
      "outputs": [
        {
          "internalType": "uint256",
          "name": "",
          "type": "uint256"
        }
      ],
      "stateMutability": "view",
      "type": "function"
    },
    {
      "inputs": [
        {
          "internalType": "address",
          "name": "to",
          "type": "address"
        },
        {
          "internalType": "uint256",
          "name": "amount",
          "type": "uint256"
        }
      ],
      "name": "transfer",
      "outputs": [
        {
          "internalType": "bool",
          "name": "",
          "type": "bool"
        }
      ],
      "stateMutability": "nonpayable",
      "type": "function"
    },
    {
      "inputs": [
        {
          "internalType": "address",
          "name": "from",
          "type": "address"
        },
        {
          "internalType": "address",
          "name": "to",
          "type": "address"
        },
        {
          "internalType": "uint256",
          "name": "amount",
          "type": "uint256"
        }
      ],
      "name": "transferFrom",
      "outputs": [
        {
          "internalType": "bool",
          "name": "",
          "type": "bool"
        }
      ],
      "stateMutability": "nonpayable",
      "type": "function"
    },
    {
      "inputs": [
        {
          "internalType": "address",
          "name": "to",
          "type": "address"
        }
      ],
      "name": "transferOwnership",
      "outputs": [],
      "stateMutability": "nonpayable",
      "type": "function"
    },
    {
      "inputs": [
        {
          "internalType": "address",
          "name": "",
          "type": "address"
        }
      ],
      "name": "validNodes",
      "outputs": [
        {
          "internalType": "bool",
          "name": "isValidNode",
          "type": "bool"
        },
        {
          "internalType": "bool",
          "name": "isActiveNode",
          "type": "bool"
        },
        {
          "internalType": "uint64",
          "name": "chainCCIPid",
          "type": "uint64"
        },
        {
          "internalType": "uint256",
          "name": "lastDataFromAave",
          "type": "uint256"
        },
        {
          "internalType": "uint256",
          "name": "totalUsdcSupply",
          "type": "uint256"
        },
        {
          "internalType": "uint256",
          "name": "totalUsdcBorrow",
          "type": "uint256"
        },
        {
          "internalType": "uint256",
          "name": "supplyRate",
          "type": "uint256"
        },
        {
          "internalType": "uint256",
          "name": "totalAusdcNode",
          "type": "uint256"
        }
      ],
      "stateMutability": "view",
      "type": "function"
    },
    {
      "inputs": [
        {
          "internalType": "uint64",
          "name": "_destinationCCIPid",
          "type": "uint64"
        },
        {
          "internalType": "address",
          "name": "_destinationNodeAddress",
          "type": "address"
        }
      ],
      "name": "warpAssets",
      "outputs": [],
      "stateMutability": "nonpayable",
      "type": "function"
    },
    {
      "inputs": [
        {
          "internalType": "uint256",
          "name": "shares",
          "type": "uint256"
        }
      ],
      "name": "withdraw",
      "outputs": [],
      "stateMutability": "nonpayable",
      "type": "function"
    },
    {
      "stateMutability": "payable",
      "type": "receive"
    }
  ],
  "bytecode": "60c034620004a057601f62002d6338819003918201601f19168301916001600160401b038311848410176200035a57808492606094604052833981010312620004a0576200004d81620004c5565b9060406200005e60208301620004c5565b910151906001600160401b0382168203620004a0576200007d620004a5565b92600984526815d85c9c165a595b1960ba1b60208501526200009e620004a5565b60048152630615752560e41b6020820152906001600160a01b03811615620004875760805233156200044257600080546001600160a01b0319163317905583516001600160401b0381116200035a57600554600181811c9116801562000437575b60208210146200033957601f8111620003e9575b50602094601f82116001146200037c5794819293949560009262000370575b50508160011b916000199060031b1c1916176005555b8051906001600160401b0382116200035a57600654600181811c911680156200034f575b60208210146200033957601f8111620002e0575b50602090601f83116001146200024d5775010000000000000000000000000000000000000000019392916000918362000241575b50508160011b916000199060031b1c1916176006555b600780546001600160b01b03191660089290921b610100600160a81b03169190911791909117905560a0526040516128689081620004db82396080518181816103ca0152610749015260a051818181610503015281816106e501528181610d2a015281816114db01528181611cea0152611e680152f35b015190503880620001b4565b6006600090815260008051602062002d43833981519152929190601f198516905b818110620002c75750916001939185750100000000000000000000000000000000000000000197969410620002ad575b505050811b01600655620001ca565b015160001960f88460031b161c191690553880806200029e565b929360206001819287860151815501950193016200026e565b600660005260008051602062002d43833981519152601f840160051c810191602085106200032e575b601f0160051c01905b81811062000321575062000180565b6000815560010162000312565b909150819062000309565b634e487b7160e01b600052602260045260246000fd5b90607f16906200016c565b634e487b7160e01b600052604160045260246000fd5b01519050388062000132565b601f19821695600560005260206000209160005b888110620003d057508360019596979810620003b6575b505050811b0160055562000148565b015160001960f88460031b161c19169055388080620003a7565b9192602060018192868501518155019401920162000390565b60056000526020600020601f830160051c810191602084106200042c575b601f0160051c01905b8181106200041f575062000113565b6000815560010162000410565b909150819062000407565b90607f1690620000ff565b60405162461bcd60e51b815260206004820152601860248201527f43616e6e6f7420736574206f776e657220746f207a65726f00000000000000006044820152606490fd5b6040516335fdcccd60e21b815260006004820152602490fd5b600080fd5b60408051919082016001600160401b038111838210176200035a57604052565b51906001600160a01b0382168203620004a05756fe60806040818152600480361015610021575b505050361561001f57600080fd5b005b600092833560e01c90816301ffc9a714611ec65750806304783ea414611e2f57806306fdde0314611d6257806308a767fe14611cb7578063095ea7b314611c8d57806310a78df814611b925780631803c2f514611b6557806318160ddd14611b485780631d88092814611b1157806323b872dd14611a455780632e1a7d4d146113ec578063313ce567146113d05780633950935114611381578063544b17091461124f578381635c292be514610c925750806361ac3f9914610c69578063654e8e0c14610c425780636c1dc07714610c195780636c98d51314610bf057806370a0823114610bb857806379ba509714610b1157806385572ffb146107095780638cf19d19146106c55780638da5cb5b1461069d57806395d89b4114610582578063995714ae146104d3578063a457c2d71461042a578063a9059cbb146103f9578063b0f479a1146103b5578063b2d9295514610322578063c1586af8146102fc578063dd62ed3e146102ae578063ddf856031461028a578063e12b948b146102675763f2fde38b036100115734610263576020366003190112610263576101c6611f1a565b906101cf6127e0565b6001600160a01b0391821692338414610220575050600180546001600160a01b031916831790558254167fed8889f560326eb138920d842192f0eb3dd22b4f139c87a2c57538e05bae12788380a380f35b906020606492519162461bcd60e51b8352820152601760248201527f43616e6e6f74207472616e7366657220746f2073656c660000000000000000006044820152fd5b8280fd5b505034610286578160031936011261028657602090600a549051908152f35b5080fd5b50503461028657816003193601126102865760209060ff6007541690519015158152f35b5050346102865780600319360112610286576020916102cb611f1a565b826102d4611f30565b6001600160a01b03928316845260038652922091166000908152908352819020549051908152f35b5050346102865760209061031b61031236611f86565b92919091612788565b9051908152f35b509034610263576020366003190112610263576101009281906001600160a01b0361034b611f1a565b168152600b6020522080549260018201546002830154906005600385015493850154940154946001600160401b0381519760ff81161515895260ff8160081c16151560208a015260101c16908701526060860152608085015260a084015260c083015260e0820152f35b505034610286578160031936011261028657517f00000000000000000000000000000000000000000000000000000000000000006001600160a01b03168152602090f35b505034610286578060031936011261028657602090610423610419611f1a565b6024359033612419565b5160018152f35b5082346104d057826003193601126104d057610444611f1a565b91836024359233815260036020522060018060a01b03841660005260205283600020549082821061047f57602085610423858503873361262d565b608490602086519162461bcd60e51b8352820152602560248201527f45524332303a2064656372656173656420616c6c6f77616e63652062656c6f77604482015264207a65726f60d81b6064820152fd5b80fd5b5034610263578260031936011261026357338352600b6020526105296001600160401b03808486205460101c16907f000000000000000000000000000000000000000000000000000000000000000016146120c6565b338352600b60205260ff82842054161561056c5750338252600b602052812061010061ff0019825416179055336001600160601b0360a01b600954161760095580f35b6024915190636a9ff79f60e11b82523390820152fd5b5091346104d057806003193601126104d0578151918160065492600184811c91818616958615610693575b6020968785108114610680578899509688969785829a5291826000146106595750506001146105fd575b5050506105f992916105ea91038561204f565b51928284938452830190611f46565b0390f35b9190869350600683527ff652222313e28459528d920b65115c16c04f3efc82aaedc97be59f3f377c0d3f5b82841061064157505050820101816105ea6105f96105d7565b8054848a018601528895508794909301928101610628565b60ff19168782015293151560051b860190930193508492506105ea91506105f990506105d7565b634e487b7160e01b835260228a52602483fd5b92607f16926105ad565b505034610286578160031936011261028657905490516001600160a01b039091168152602090f35b505034610286578160031936011261028657602090516001600160401b037f0000000000000000000000000000000000000000000000000000000000000000168152f35b5090346102635760209160031983813601126108c5578135906001600160401b0390818311610a455760a0908336030112610942576001600160a01b03927f000000000000000000000000000000000000000000000000000000000000000084163303610afa5784519161077c83611fba565b838201358352602490818501358181168103610ad957888501526044850135818111610a3d576107b190843691880101612070565b938781019485526064860135828111610a41576107d390853691890101612070565b9560608201968752608481013590838211610af6570136602382011215610a415784810135928311610ae2578851926108118b8260051b018561204f565b808452848b85019160061b83010191368311610ade578501905b828210610a9f575050506080015282518781805181010312610a39576108538887920161272f565b16808952600b885260ff878a20541615610a8a575083518781805181010312610a39576108838860ff9201612743565b16806108c9575050505051916060838051810103126108c5576108b86060916108b06108c2968601612743565b50840161272f565b9201519116612589565b80f35b8480fd5b6001819897959394969814600014610946575050505081518381805181010312610942576108f98486920161272f565b168552600b8352842061010061ff00198254161790555190808280518101031261093e57610927910161272f565b166001600160601b0360a01b600954161760095580f35b8380fd5b8580fd5b9296939492600203610a4957505160a081805181010312610a455761096c858201612743565b508381015195606082015160a060808401519301519784518881805181010312610a415761099c8988920161272f565b168a52600b8852426001888c20015584518881805181010312610a41576109c58988920161272f565b168a526002878b20015583518781805181010312610a3d576109e98887920161272f565b1689526003868a20015582518681805181010312610a3957610a0d8786920161272f565b168852848820015551838180518101031261094257600593610a2f910161272f565b1684528320015580f35b8880fd5b8980fd5b8a80fd5b8680fd5b8660196064928888519362461bcd60e51b85528401528201527f696e76616c696420636f6d6d616e642066726f6d204e6f6465000000000000006044820152fd5b8651636a9ff79f60e11b815280840191909152fd5b8a82360312610ade578a5190610ab482612019565b8235908b82168203610ad957828e928e9452828501358382015281520191019061082b565b600080fd5b8c80fd5b83604186634e487b7160e01b600052526000fd5b8b80fd5b6024908551906335fdcccd60e21b82523390820152fd5b509034610263578260031936011261026357600154916001600160a01b03918284163303610b7c57505082546001600160a01b03198082163390811786559316600155167f8be0079c531659141344cd1fd0a4f28419497f9722a3daafe3b4186f6b6457e08380a380f35b906020606492519162461bcd60e51b8352820152601660248201527526bab9ba10313290383937b837b9b2b21037bbb732b960511b6044820152fd5b5050346102865760203660031901126102865760209181906001600160a01b03610be0611f1a565b1681526002845220549051908152f35b83346104d057806003193601126104d057610c096127e0565b6007805460ff60a81b1916905580f35b50503461028657816003193601126102865760095490516001600160a01b039091168152602090f35b50503461028657816003193601126102865760209060ff60075460a81c1690519015158152f35b50503461028657816003193601126102865760085490516001600160a01b039091168152602090f35b82818534610286578060031936011261028657610cad611fa4565b90610cb6611f30565b9360ff60075416156111e3575b815160206001818301526001600160401b0380951691828582015260018060a01b03809816956060908782840152818352610cfd83612034565b89600954168952600b845286892061ff00198154169055896009541692838a52878a2054828160101c16927f0000000000000000000000000000000000000000000000000000000000000000168314600014610dd8575050505050508560095416803b156109425785928360449286519788958694634bb297ff60e11b865285015260248401525af1908115610dcf5750610dbb575b50505b6009546001600160601b0360a01b9181168260085416176008551660095542600a5580f35b610dc490612006565b610286578183610d93565b513d84823e3d90fd5b9195509296975060ff919593985016156111cc578760075460081c1684819560808951610e0481611fba565b828152828c820152828b8201528d83820152015287519689880152888752610e2b87612019565b8751610e3681611feb565b60008152610e538951610e4881611feb565b621e84808152612751565b93895198610e608a611fba565b89528a890152888801528601526080850152845163b0f479a160e01b815286818381305afa9081156111c2579088918a91611188575b5086516320487ded60e01b81529116938990888380610eb88a89898401612120565b0381895afa92831561117e57908991839461114c575b5060648951809481936323b872dd60e01b835233898401523060248401528760448401525af1908115611142578a91611125575b50156110e2578760075460081c169086516370a0823160e01b9081815230858201528981602481875afa9081156110d8578c916110ab575b50821161102f5750865163095ea7b360e01b81526001600160a01b03861681850190815260208101929092528a939290918991839182908790829060400103925af18015611025579188959391610fae98979593610ff8575b5086516396f4e9f960e01b8152978895869485938401612120565b03925af1908115610fef5750610fc6575b5050610d96565b813d8311610fe8575b610fd9818361204f565b81010312610286578280610fbf565b503d610fcf565b513d86823e3d90fd5b61101790873d891161101e575b61100f818361204f565b8101906121ec565b508b610f93565b503d611005565b87513d85823e3d90fd5b908a888a80879560248451809981938252308a8301525afa9283156110a0579261106f575b5051634787a10360e11b815292830152602482015260449150fd5b90915084813d8311611099575b611086818361204f565b81010312610ad957604493519085611054565b503d61107c565b8251903d90823e3d90fd5b90508981813d83116110d1575b6110c2818361204f565b81010312610ad957518c610f3a565b503d6110b8565b89513d8e823e3d90fd5b855162461bcd60e51b8152808301889052601a60248201527f4e6f742070726f7669646564204c696e6b20666f7220666565730000000000006044820152606490fd5b61113c9150883d8a1161101e5761100f818361204f565b8a610f02565b87513d8c823e3d90fd5b9250925081813d8311611177575b611164818361204f565b81010312610ad957878a9151928c610ece565b503d61115a565b88513d84823e3d90fd5b809250888092503d83116111bb575b6111a1818361204f565b81010312610a3957518781168103610a395787908a610e96565b503d611197565b86513d8b823e3d90fd5b8551636a9ff79f60e11b8152808301869052602490fd5b60095492935090916111ff9085906001600160a01b0316612227565b1561120d5790849291610cc3565b6020606492519162461bcd60e51b8352820152601960248201527f436f6e646974696f6e20746f2077617270206e6f74206d6574000000000000006044820152fd5b5091346104d05760a03660031901126104d05761126a611fa4565b91611273611f30565b6001600160a01b03936044358581169190829003610ad95760643590868216809203610ad957608435976001600160401b038911610a45576112be61133a9697989936908301612070565b87519460209a8b9716878701528686526112d786612019565b88516112e281611feb565b600081526112ff8a516112f481611feb565b620f42408152612751565b928a519761130c89611fba565b885288880152898701526060860152608085015286516320487ded60e01b8152958694859384938401612120565b03915afa9283156110a05792611352575b5051908152f35b9091508281813d831161137a575b61136a818361204f565b81010312610ad95751903861134b565b503d611360565b505034610286578060031936011261028657610423602092826113a2611f1a565b91338152600386522060018060a01b03821660005284526113c96024358460002054612204565b903361262d565b5050346102865781600319360112610286576020905160128152f35b508290346102865760209283600319360112610263576009546001600160a01b039081168452600b8552818420548335919060081c60ff1615611a0d57338552600286528285205482116119d457825195858188015233848801526060838189015280885261145a88612034565b33156119875733875260028252848720549784891061193957848899989697983388526002855203878720558488540388558587518681527fddf252ad1be2c89b69c2b068fc378daa952ba7f163c4a11628f55a4df523b3ef853392a3836009541691828752600b845287872054916001600160401b0392838160101c16937f000000000000000000000000000000000000000000000000000000000000000016841460001461155b5750505050505060095416803b156102635783516315e005b760e31b8152339581019586526020860192909252909384919082908490829060400103925af1908115610dcf5750611552575080f35b6108c290612006565b909295965060ff919397509893981615611922578460075460081c1682819360808a5161158781611fba565b828152828d820152828c8201528d8382015201528851978a8901528988526115ae88612019565b88516115b981611feb565b8b81526115ca8a51610e4881611feb565b938a51996115d78b611fba565b8a528b8a0152898901528701526080860152855163b0f479a160e01b815287818481305afa908115611918579085918a916118de575b501693888751926320487ded60e01b845289848061162e8b8a8a8401612120565b03818a5afa9384156118d457908a9183956118a3575b5060648a51809481936323b872dd60e01b8352338a8401523060248401528860448401525af1908115611899578a9161187c575b5015611839579088929160075460081c169087516370a0823160e01b9081815230858201528a81602481875afa90811561182f578691611802575b5082116117835750875163095ea7b360e01b81526001600160a01b038716848201908152602081019290925291899183919082908790829060400103925af1801561102557918895939161172398979593611766575086516396f4e9f960e01b8152978895869485938401612120565b03925af190811561175d575061173857505080f35b813d8311611756575b61174b818361204f565b810103126104d05780f35b503d611741565b513d85823e3d90fd5b61177c90873d891161101e5761100f818361204f565b508a610f93565b899192828a9260248451809481938252308a8301525afa9283156117f85786936117c4575b505051634787a10360e11b815292830152602482015260449150fd5b9080929350813d83116117f1575b6117dc818361204f565b810103126108c55760449450519085806117a8565b503d6117d2565b82513d88823e3d90fd5b90508a81813d8311611828575b611819818361204f565b8101031261094257518c6116b3565b503d61180f565b8a513d88823e3d90fd5b865162461bcd60e51b8152808401899052601a60248201527f4e6f742070726f7669646564204c696e6b20666f7220666565730000000000006044820152606490fd5b6118939150893d8b1161101e5761100f818361204f565b8a611678565b88513d8c823e3d90fd5b8281939296503d83116118cd575b6118bb818361204f565b8101031261028657899051938c611644565b503d6118b1565b89513d84823e3d90fd5b809250898092503d8311611911575b6118f7818361204f565b81010312610a3957518481168103610a395784908a61160d565b503d6118ed565b87513d8b823e3d90fd5b8651636a9ff79f60e11b8152808401879052602490fd5b855162461bcd60e51b8152808801849052602260248201527f45524332303a206275726e20616d6f756e7420657863656564732062616c616e604482015261636560f01b6064820152608490fd5b845162461bcd60e51b8152808701839052602160248201527f45524332303a206275726e2066726f6d20746865207a65726f206164647265736044820152607360f81b6064820152608490fd5b825162461bcd60e51b815280850187905260136024820152724e6f7420656e6f756768742062616c616e636560681b6044820152606490fd5b825162461bcd60e51b815280850187905260126024820152714e6f6465206973206e6f742041637469766560701b6044820152606490fd5b5082903461028657606036600319011261028657611a61611f1a565b611a69611f30565b6001600160a01b03821684526003602090815285852033865290529284902054604435939260018201611aa5575b602086610423878787612419565b848210611ace5750918391611ac3602096956104239503338361262d565b919394819350611a97565b606490602087519162461bcd60e51b8352820152601d60248201527f45524332303a20696e73756666696369656e7420616c6c6f77616e63650000006044820152fd5b505034610286578060031936011261028657602090611b3f611b31611f1a565b611b39611f30565b90612227565b90519015158152f35b503461026357826003193601126102635760209250549051908152f35b5050346102865781600319360112610286576020906001600160401b03611b8a6123c3565b915191168152f35b503461026357606036600319011261026357611bac611f1a565b906024356001600160401b03811681036108c5576044359283151592838503610a4557611bd76127e0565b60ff60075460a81c1615611c52575090600191828060a01b031694858752600b60205286209261ff0069ffffffffffffffff000085549360101b169269ffffffffffffffffffff19169160081b161717179055611c32575080f35b6001600160601b0360a01b81816008541617600855600954161760095580f35b606490602087519162461bcd60e51b83528201526015602482015274139bc81b5bdc99481b9bd9195cc8185b1b1bddd959605a1b6044820152fd5b505034610286578060031936011261028657602090610423611cad611f1a565b602435903361262d565b5082903461028657611cc836611f86565b939091338652600b602052611d106001600160401b03808989205460101c16907f000000000000000000000000000000000000000000000000000000000000000016146120c6565b338652600b60205260ff878720541615611d4c576005949596338852600b60205287209342600186015560028501556003840155820155015580f35b8651636a9ff79f60e11b81523381840152602490fd5b5091346104d057806003193601126104d0578151918160055492600184811c91818616958615611e25575b6020968785108114610680578899509688969785829a529182600014610659575050600114611dc9575050506105f992916105ea91038561204f565b9190869350600583527f036b6384b5eca791c62761152d0c79bb0604c104a5fb6f4eb0703f3154bb3db05b828410611e0d57505050820101816105ea6105f96105d7565b8054848a018601528895508794909301928101611df4565b92607f1692611d8d565b5034610263578160031936011261026357611e48611f1a565b91338452600b602052611e8e6001600160401b03808387205460101c16907f000000000000000000000000000000000000000000000000000000000000000016146120c6565b338452600b60205260ff818520541615611eaf57836108c260243585612589565b602492505190636a9ff79f60e11b82523390820152fd5b92505034610263576020366003190112610263573563ffffffff60e01b811680910361026357602092506385572ffb60e01b8114908115611f09575b5015158152f35b6301ffc9a760e01b14905038611f02565b600435906001600160a01b0382168203610ad957565b602435906001600160a01b0382168203610ad957565b919082519283825260005b848110611f72575050826000602080949584010152601f8019910116010190565b602081830181015184830182015201611f51565b6080906003190112610ad95760043590602435906044359060643590565b600435906001600160401b0382168203610ad957565b60a081019081106001600160401b03821117611fd557604052565b634e487b7160e01b600052604160045260246000fd5b602081019081106001600160401b03821117611fd557604052565b6001600160401b038111611fd557604052565b604081019081106001600160401b03821117611fd557604052565b608081019081106001600160401b03821117611fd557604052565b90601f801991011681019081106001600160401b03821117611fd557604052565b81601f82011215610ad9578035906001600160401b038211611fd557604051926120a4601f8401601f19166020018561204f565b82845260208383010111610ad957816000926020809301838601378301015290565b156120cd57565b60405162461bcd60e51b815260206004820152602560248201527f52657175697265206d617374657220616e64206e6f646520696e2073616d652060448201526431b430b4b760d91b6064820152608490fd5b906001600160401b03909392931681526040602091818382015261214f855160a08484015260e0830190611f46565b9161216b8487015193603f199485858303016060860152611f46565b8187015194848483030160808501528080875193848152019601926000905b8382106121c357505050505060c060806121c0959660018060a01b0360608201511660a085015201519282850301910152611f46565b90565b845180516001600160a01b0316895283015188840152968701969382019360019091019061218a565b90816020910312610ad957518015158103610ad95790565b9190820180921161221157565b634e487b7160e01b600052601160045260246000fd5b60018060a01b03809216916000838152600b9060209180835260409283832094612267600287015460038801549760049860058a83015492015492612788565b96600a5462015180810180911161233f57421198896123a5575b8961238d575b89612377575b89612352575b8961231c575b89612303575b896122eb575b50886122d4575b886122bd575b505050505050505090565b1683525220015410905038808080808080806122b2565b8181168552838352858520870154151598506122ac565b85528383528585205460081c60ff16159850386122a5565b8086528484528686205460ff161515600114995061229f565b809950855283835260018686200154610e10810180911161233f57421098612299565b634e487b7160e01b865260118852602486fd5b9850818116855283835260018686200154610e10810180911161233f57421098612293565b808652848452868620600101541515995061228d565b81831686528484528686206001015415159950612287565b81831686528484528686205460081c60ff1615156001149950612281565b6009546001600160a01b039081169081156123f65750600052600b6020526001600160401b0360406000205460101c1690565b905060085416600052600b6020526001600160401b0360406000205460101c1690565b6001600160a01b0390811691821561253657169182156124e5576000828152600260205260408120549180831061249157604082827fddf252ad1be2c89b69c2b068fc378daa952ba7f163c4a11628f55a4df523b3ef95876020965260028652038282205586815220818154019055604051908152a3565b60405162461bcd60e51b815260206004820152602660248201527f45524332303a207472616e7366657220616d6f756e7420657863656564732062604482015265616c616e636560d01b6064820152608490fd5b60405162461bcd60e51b815260206004820152602360248201527f45524332303a207472616e7366657220746f20746865207a65726f206164647260448201526265737360e81b6064820152608490fd5b60405162461bcd60e51b815260206004820152602560248201527f45524332303a207472616e736665722066726f6d20746865207a65726f206164604482015264647265737360d81b6064820152608490fd5b6001600160a01b03169081156125e8577fddf252ad1be2c89b69c2b068fc378daa952ba7f163c4a11628f55a4df523b3ef6020826125cb600094600454612204565b6004558484526002825260408420818154019055604051908152a3565b60405162461bcd60e51b815260206004820152601f60248201527f45524332303a206d696e7420746f20746865207a65726f2061646472657373006044820152606490fd5b6001600160a01b039081169182156126de571691821561268e5760207f8c5be1e5ebec7d5bd14f71427d1e84f3dd0314c0f7b2291e5b200ac8c7c3b925918360005260038252604060002085600052825280604060002055604051908152a3565b60405162461bcd60e51b815260206004820152602260248201527f45524332303a20617070726f766520746f20746865207a65726f206164647265604482015261737360f01b6064820152608490fd5b60405162461bcd60e51b8152602060048201526024808201527f45524332303a20617070726f76652066726f6d20746865207a65726f206164646044820152637265737360e01b6064820152608490fd5b51906001600160a01b0382168203610ad957565b519060ff82168203610ad957565b604051906397a657c960e01b602083015251602482015260248152606081018181106001600160401b03821117611fd55760405290565b926127939193612204565b670de0b6b3a764000092838102908082048514901517156122115781156127ca570490818102918183041490151715612211570490565b634e487b7160e01b600052601260045260246000fd5b6000546001600160a01b031633036127f457565b60405162461bcd60e51b815260206004820152601660248201527527b7363c9031b0b63630b1363290313c9037bbb732b960511b6044820152606490fdfea264697066735822122027600ab7a6ecb033946ca31b6028e42733a962356b2a5556f918e23ff9de51be64736f6c63430008130033f652222313e28459528d920b65115c16c04f3efc82aaedc97be59f3f377c0d3f",
  "bytecodeSha1": "908bd37aad04ae4577f9ca909449896037d8a285",
  "compiler": {
    "evm_version": "istanbul",
    "optimizer": {
      "enabled": true,
      "runs": 200
    },
    "version": "0.8.19+commit.7dd6d404"
  },
  "contractName": "MasterNode",
  "language": "Solidity",
  "natspec": {
    "kind": "dev",
    "methods": {
      "acceptOwnership()": {
        "notice": "Allows an ownership transfer to be completed by the recipient."
      },
      "allowance(address,address)": {
        "details": "See {IERC20-allowance}."
      },
      "approve(address,uint256)": {
        "details": "See {IERC20-approve}. NOTE: If `amount` is the maximum `uint256`, the allowance is not updated on `transferFrom`. This is semantically equivalent to an infinite approval. Requirements: - `spender` cannot be the zero address."
      },
      "balanceOf(address)": {
        "details": "See {IERC20-balanceOf}."
      },
      "ccipReceive((bytes32,uint64,bytes,bytes,(address,uint256)[]))": {
        "details": "Note ensure you check the msg.sender is the OffRampRouter",
        "notice": "Called by the Router to deliver a message. If this reverts, any token transfers also revert. The message will move to a FAILED state and become available for manual execution.",
        "params": {
          "message": "CCIP Message"
        }
      },
      "decimals()": {
        "details": "Returns the number of decimals used to get its user representation. For example, if `decimals` equals `2`, a balance of `505` tokens should be displayed to a user as `5.05` (`505 / 10 ** 2`). Tokens usually opt for a value of 18, imitating the relationship between Ether and Wei. This is the value {ERC20} uses, unless this function is overridden; NOTE: This information is only used for _display_ purposes: it in no way affects any of the arithmetic of the contract, including {IERC20-balanceOf} and {IERC20-transfer}."
      },
      "decreaseAllowance(address,uint256)": {
        "details": "Atomically decreases the allowance granted to `spender` by the caller. This is an alternative to {approve} that can be used as a mitigation for problems described in {IERC20-approve}. Emits an {Approval} event indicating the updated allowance. Requirements: - `spender` cannot be the zero address. - `spender` must have allowance for the caller of at least `subtractedValue`."
      },
      "getRouter()": {
        "notice": "Return the current router",
        "returns": {
          "_0": "CCIP router address"
        }
      },
      "increaseAllowance(address,uint256)": {
        "details": "Atomically increases the allowance granted to `spender` by the caller. This is an alternative to {approve} that can be used as a mitigation for problems described in {IERC20-approve}. Emits an {Approval} event indicating the updated allowance. Requirements: - `spender` cannot be the zero address."
      },
      "name()": {
        "details": "Returns the name of the token."
      },
      "owner()": {
        "notice": "Get the current owner"
      },
      "supportsInterface(bytes4)": {
        "details": "Should indicate whether the contract implements IAny2EVMMessageReceiver e.g. return interfaceId == type(IAny2EVMMessageReceiver).interfaceId || interfaceId == type(IERC165).interfaceId This allows CCIP to check if ccipReceive is available before calling it. If this returns false or reverts, only tokens are transferred to the receiver. If this returns true, tokens are transferred and ccipReceive is called atomically. Additionally, if the receiver address does not have code associated with it at the time of execution (EXTCODESIZE returns 0), only tokens will be transferred.",
        "notice": "IERC165 supports an interfaceId",
        "params": {
          "interfaceId": "The interfaceId to check"
        },
        "returns": {
          "_0": "true if the interfaceId is supported"
        }
      },
      "symbol()": {
        "details": "Returns the symbol of the token, usually a shorter version of the name."
      },
      "totalSupply()": {
        "details": "See {IERC20-totalSupply}."
      },
      "transfer(address,uint256)": {
        "details": "See {IERC20-transfer}. Requirements: - `to` cannot be the zero address. - the caller must have a balance of at least `amount`."
      },
      "transferFrom(address,address,uint256)": {
        "details": "See {IERC20-transferFrom}. Emits an {Approval} event indicating the updated allowance. This is not required by the EIP. See the note at the beginning of {ERC20}. NOTE: Does not update the allowance if the current allowance is the maximum `uint256`. Requirements: - `from` and `to` cannot be the zero address. - `from` must have a balance of at least `amount`. - the caller must have allowance for ``from``'s tokens of at least `amount`."
      },
      "transferOwnership(address)": {
        "notice": "Allows an owner to begin transferring ownership to a new address."
      }
    },
    "title": "- A simple messenger contract for transferring/receiving tokens and data across chains.",
    "version": 1
  },
  "opcodes": "PUSH1 0x80 PUSH1 0x40 DUP2 DUP2 MSTORE PUSH1 0x4 DUP1 CALLDATASIZE LT ISZERO PUSH2 0x21 JUMPI JUMPDEST POP POP POP CALLDATASIZE ISZERO PUSH2 0x1F JUMPI PUSH1 0x0 DUP1 REVERT JUMPDEST STOP JUMPDEST PUSH1 0x0 SWAP3 DUP4 CALLDATALOAD PUSH1 0xE0 SHR SWAP1 DUP2 PUSH4 0x1FFC9A7 EQ PUSH2 0x1EC6 JUMPI POP DUP1 PUSH4 0x4783EA4 EQ PUSH2 0x1E2F JUMPI DUP1 PUSH4 0x6FDDE03 EQ PUSH2 0x1D62 JUMPI DUP1 PUSH4 0x8A767FE EQ PUSH2 0x1CB7 JUMPI DUP1 PUSH4 0x95EA7B3 EQ PUSH2 0x1C8D JUMPI DUP1 PUSH4 0x10A78DF8 EQ PUSH2 0x1B92 JUMPI DUP1 PUSH4 0x1803C2F5 EQ PUSH2 0x1B65 JUMPI DUP1 PUSH4 0x18160DDD EQ PUSH2 0x1B48 JUMPI DUP1 PUSH4 0x1D880928 EQ PUSH2 0x1B11 JUMPI DUP1 PUSH4 0x23B872DD EQ PUSH2 0x1A45 JUMPI DUP1 PUSH4 0x2E1A7D4D EQ PUSH2 0x13EC JUMPI DUP1 PUSH4 0x313CE567 EQ PUSH2 0x13D0 JUMPI DUP1 PUSH4 0x39509351 EQ PUSH2 0x1381 JUMPI DUP1 PUSH4 0x544B1709 EQ PUSH2 0x124F JUMPI DUP4 DUP2 PUSH4 0x5C292BE5 EQ PUSH2 0xC92 JUMPI POP DUP1 PUSH4 0x61AC3F99 EQ PUSH2 0xC69 JUMPI DUP1 PUSH4 0x654E8E0C EQ PUSH2 0xC42 JUMPI DUP1 PUSH4 0x6C1DC077 EQ PUSH2 0xC19 JUMPI DUP1 PUSH4 0x6C98D513 EQ PUSH2 0xBF0 JUMPI DUP1 PUSH4 0x70A08231 EQ PUSH2 0xBB8 JUMPI DUP1 PUSH4 0x79BA5097 EQ PUSH2 0xB11 JUMPI DUP1 PUSH4 0x85572FFB EQ PUSH2 0x709 JUMPI DUP1 PUSH4 0x8CF19D19 EQ PUSH2 0x6C5 JUMPI DUP1 PUSH4 0x8DA5CB5B EQ PUSH2 0x69D JUMPI DUP1 PUSH4 0x95D89B41 EQ PUSH2 0x582 JUMPI DUP1 PUSH4 0x995714AE EQ PUSH2 0x4D3 JUMPI DUP1 PUSH4 0xA457C2D7 EQ PUSH2 0x42A JUMPI DUP1 PUSH4 0xA9059CBB EQ PUSH2 0x3F9 JUMPI DUP1 PUSH4 0xB0F479A1 EQ PUSH2 0x3B5 JUMPI DUP1 PUSH4 0xB2D92955 EQ PUSH2 0x322 JUMPI DUP1 PUSH4 0xC1586AF8 EQ PUSH2 0x2FC JUMPI DUP1 PUSH4 0xDD62ED3E EQ PUSH2 0x2AE JUMPI DUP1 PUSH4 0xDDF85603 EQ PUSH2 0x28A JUMPI DUP1 PUSH4 0xE12B948B EQ PUSH2 0x267 JUMPI PUSH4 0xF2FDE38B SUB PUSH2 0x11 JUMPI CALLVALUE PUSH2 0x263 JUMPI PUSH1 0x20 CALLDATASIZE PUSH1 0x3 NOT ADD SLT PUSH2 0x263 JUMPI PUSH2 0x1C6 PUSH2 0x1F1A JUMP JUMPDEST SWAP1 PUSH2 0x1CF PUSH2 0x27E0 JUMP JUMPDEST PUSH1 0x1 PUSH1 0x1 PUSH1 0xA0 SHL SUB SWAP2 DUP3 AND SWAP3 CALLER DUP5 EQ PUSH2 0x220 JUMPI POP POP PUSH1 0x1 DUP1 SLOAD PUSH1 0x1 PUSH1 0x1 PUSH1 0xA0 SHL SUB NOT AND DUP4 OR SWAP1 SSTORE DUP3 SLOAD AND PUSH32 0xED8889F560326EB138920D842192F0EB3DD22B4F139C87A2C57538E05BAE1278 DUP4 DUP1 LOG3 DUP1 RETURN JUMPDEST SWAP1 PUSH1 0x20 PUSH1 0x64 SWAP3 MLOAD SWAP2 PUSH3 0x461BCD PUSH1 0xE5 SHL DUP4 MSTORE DUP3 ADD MSTORE PUSH1 0x17 PUSH1 0x24 DUP3 ADD MSTORE PUSH32 0x43616E6E6F74207472616E7366657220746F2073656C66000000000000000000 PUSH1 0x44 DUP3 ADD MSTORE REVERT JUMPDEST DUP3 DUP1 REVERT JUMPDEST POP POP CALLVALUE PUSH2 0x286 JUMPI DUP2 PUSH1 0x3 NOT CALLDATASIZE ADD SLT PUSH2 0x286 JUMPI PUSH1 0x20 SWAP1 PUSH1 0xA SLOAD SWAP1 MLOAD SWAP1 DUP2 MSTORE RETURN JUMPDEST POP DUP1 REVERT JUMPDEST POP POP CALLVALUE PUSH2 0x286 JUMPI DUP2 PUSH1 0x3 NOT CALLDATASIZE ADD SLT PUSH2 0x286 JUMPI PUSH1 0x20 SWAP1 PUSH1 0xFF PUSH1 0x7 SLOAD AND SWAP1 MLOAD SWAP1 ISZERO ISZERO DUP2 MSTORE RETURN JUMPDEST POP POP CALLVALUE PUSH2 0x286 JUMPI DUP1 PUSH1 0x3 NOT CALLDATASIZE ADD SLT PUSH2 0x286 JUMPI PUSH1 0x20 SWAP2 PUSH2 0x2CB PUSH2 0x1F1A JUMP JUMPDEST DUP3 PUSH2 0x2D4 PUSH2 0x1F30 JUMP JUMPDEST PUSH1 0x1 PUSH1 0x1 PUSH1 0xA0 SHL SUB SWAP3 DUP4 AND DUP5 MSTORE PUSH1 0x3 DUP7 MSTORE SWAP3 KECCAK256 SWAP2 AND PUSH1 0x0 SWAP1 DUP2 MSTORE SWAP1 DUP4 MSTORE DUP2 SWAP1 KECCAK256 SLOAD SWAP1 MLOAD SWAP1 DUP2 MSTORE RETURN JUMPDEST POP POP CALLVALUE PUSH2 0x286 JUMPI PUSH1 0x20 SWAP1 PUSH2 0x31B PUSH2 0x312 CALLDATASIZE PUSH2 0x1F86 JUMP JUMPDEST SWAP3 SWAP2 SWAP1 SWAP2 PUSH2 0x2788 JUMP JUMPDEST SWAP1 MLOAD SWAP1 DUP2 MSTORE RETURN JUMPDEST POP SWAP1 CALLVALUE PUSH2 0x263 JUMPI PUSH1 0x20 CALLDATASIZE PUSH1 0x3 NOT ADD SLT PUSH2 0x263 JUMPI PUSH2 0x100 SWAP3 DUP2 SWAP1 PUSH1 0x1 PUSH1 0x1 PUSH1 0xA0 SHL SUB PUSH2 0x34B PUSH2 0x1F1A JUMP JUMPDEST AND DUP2 MSTORE PUSH1 0xB PUSH1 0x20 MSTORE KECCAK256 DUP1 SLOAD SWAP3 PUSH1 0x1 DUP3 ADD SLOAD PUSH1 0x2 DUP4 ADD SLOAD SWAP1 PUSH1 0x5 PUSH1 0x3 DUP6 ADD SLOAD SWAP4 DUP6 ADD SLOAD SWAP5 ADD SLOAD SWAP5 PUSH1 0x1 PUSH1 0x1 PUSH1 0x40 SHL SUB DUP2 MLOAD SWAP8 PUSH1 0xFF DUP2 AND ISZERO ISZERO DUP10 MSTORE PUSH1 0xFF DUP2 PUSH1 0x8 SHR AND ISZERO ISZERO PUSH1 0x20 DUP11 ADD MSTORE PUSH1 0x10 SHR AND SWAP1 DUP8 ADD MSTORE PUSH1 0x60 DUP7 ADD MSTORE PUSH1 0x80 DUP6 ADD MSTORE PUSH1 0xA0 DUP5 ADD MSTORE PUSH1 0xC0 DUP4 ADD MSTORE PUSH1 0xE0 DUP3 ADD MSTORE RETURN JUMPDEST POP POP CALLVALUE PUSH2 0x286 JUMPI DUP2 PUSH1 0x3 NOT CALLDATASIZE ADD SLT PUSH2 0x286 JUMPI MLOAD PUSH32 0x0 PUSH1 0x1 PUSH1 0x1 PUSH1 0xA0 SHL SUB AND DUP2 MSTORE PUSH1 0x20 SWAP1 RETURN JUMPDEST POP POP CALLVALUE PUSH2 0x286 JUMPI DUP1 PUSH1 0x3 NOT CALLDATASIZE ADD SLT PUSH2 0x286 JUMPI PUSH1 0x20 SWAP1 PUSH2 0x423 PUSH2 0x419 PUSH2 0x1F1A JUMP JUMPDEST PUSH1 0x24 CALLDATALOAD SWAP1 CALLER PUSH2 0x2419 JUMP JUMPDEST MLOAD PUSH1 0x1 DUP2 MSTORE RETURN JUMPDEST POP DUP3 CALLVALUE PUSH2 0x4D0 JUMPI DUP3 PUSH1 0x3 NOT CALLDATASIZE ADD SLT PUSH2 0x4D0 JUMPI PUSH2 0x444 PUSH2 0x1F1A JUMP JUMPDEST SWAP2 DUP4 PUSH1 0x24 CALLDATALOAD SWAP3 CALLER DUP2 MSTORE PUSH1 0x3 PUSH1 0x20 MSTORE KECCAK256 PUSH1 0x1 DUP1 PUSH1 0xA0 SHL SUB DUP5 AND PUSH1 0x0 MSTORE PUSH1 0x20 MSTORE DUP4 PUSH1 0x0 KECCAK256 SLOAD SWAP1 DUP3 DUP3 LT PUSH2 0x47F JUMPI PUSH1 0x20 DUP6 PUSH2 0x423 DUP6 DUP6 SUB DUP8 CALLER PUSH2 0x262D JUMP JUMPDEST PUSH1 0x84 SWAP1 PUSH1 0x20 DUP7 MLOAD SWAP2 PUSH3 0x461BCD PUSH1 0xE5 SHL DUP4 MSTORE DUP3 ADD MSTORE PUSH1 0x25 PUSH1 0x24 DUP3 ADD MSTORE PUSH32 0x45524332303A2064656372656173656420616C6C6F77616E63652062656C6F77 PUSH1 0x44 DUP3 ADD MSTORE PUSH5 0x207A65726F PUSH1 0xD8 SHL PUSH1 0x64 DUP3 ADD MSTORE REVERT JUMPDEST DUP1 REVERT JUMPDEST POP CALLVALUE PUSH2 0x263 JUMPI DUP3 PUSH1 0x3 NOT CALLDATASIZE ADD SLT PUSH2 0x263 JUMPI CALLER DUP4 MSTORE PUSH1 0xB PUSH1 0x20 MSTORE PUSH2 0x529 PUSH1 0x1 PUSH1 0x1 PUSH1 0x40 SHL SUB DUP1 DUP5 DUP7 KECCAK256 SLOAD PUSH1 0x10 SHR AND SWAP1 PUSH32 0x0 AND EQ PUSH2 0x20C6 JUMP JUMPDEST CALLER DUP4 MSTORE PUSH1 0xB PUSH1 0x20 MSTORE PUSH1 0xFF DUP3 DUP5 KECCAK256 SLOAD AND ISZERO PUSH2 0x56C JUMPI POP CALLER DUP3 MSTORE PUSH1 0xB PUSH1 0x20 MSTORE DUP2 KECCAK256 PUSH2 0x100 PUSH2 0xFF00 NOT DUP3 SLOAD AND OR SWAP1 SSTORE CALLER PUSH1 0x1 PUSH1 0x1 PUSH1 0x60 SHL SUB PUSH1 0xA0 SHL PUSH1 0x9 SLOAD AND OR PUSH1 0x9 SSTORE DUP1 RETURN JUMPDEST PUSH1 0x24 SWAP2 MLOAD SWAP1 PUSH4 0x6A9FF79F PUSH1 0xE1 SHL DUP3 MSTORE CALLER SWAP1 DUP3 ADD MSTORE REVERT JUMPDEST POP SWAP2 CALLVALUE PUSH2 0x4D0 JUMPI DUP1 PUSH1 0x3 NOT CALLDATASIZE ADD SLT PUSH2 0x4D0 JUMPI DUP2 MLOAD SWAP2 DUP2 PUSH1 0x6 SLOAD SWAP3 PUSH1 0x1 DUP5 DUP2 SHR SWAP2 DUP2 DUP7 AND SWAP6 DUP7 ISZERO PUSH2 0x693 JUMPI JUMPDEST PUSH1 0x20 SWAP7 DUP8 DUP6 LT DUP2 EQ PUSH2 0x680 JUMPI DUP9 SWAP10 POP SWAP7 DUP9 SWAP7 SWAP8 DUP6 DUP3 SWAP11 MSTORE SWAP2 DUP3 PUSH1 0x0 EQ PUSH2 0x659 JUMPI POP POP PUSH1 0x1 EQ PUSH2 0x5FD JUMPI JUMPDEST POP POP POP PUSH2 0x5F9 SWAP3 SWAP2 PUSH2 0x5EA SWAP2 SUB DUP6 PUSH2 0x204F JUMP JUMPDEST MLOAD SWAP3 DUP3 DUP5 SWAP4 DUP5 MSTORE DUP4 ADD SWAP1 PUSH2 0x1F46 JUMP JUMPDEST SUB SWAP1 RETURN JUMPDEST SWAP2 SWAP1 DUP7 SWAP4 POP PUSH1 0x6 DUP4 MSTORE PUSH32 0xF652222313E28459528D920B65115C16C04F3EFC82AAEDC97BE59F3F377C0D3F JUMPDEST DUP3 DUP5 LT PUSH2 0x641 JUMPI POP POP POP DUP3 ADD ADD DUP2 PUSH2 0x5EA PUSH2 0x5F9 PUSH2 0x5D7 JUMP JUMPDEST DUP1 SLOAD DUP5 DUP11 ADD DUP7 ADD MSTORE DUP9 SWAP6 POP DUP8 SWAP5 SWAP1 SWAP4 ADD SWAP3 DUP2 ADD PUSH2 0x628 JUMP JUMPDEST PUSH1 0xFF NOT AND DUP8 DUP3 ADD MSTORE SWAP4 ISZERO ISZERO PUSH1 0x5 SHL DUP7 ADD SWAP1 SWAP4 ADD SWAP4 POP DUP5 SWAP3 POP PUSH2 0x5EA SWAP2 POP PUSH2 0x5F9 SWAP1 POP PUSH2 0x5D7 JUMP JUMPDEST PUSH4 0x4E487B71 PUSH1 0xE0 SHL DUP4 MSTORE PUSH1 0x22 DUP11 MSTORE PUSH1 0x24 DUP4 REVERT JUMPDEST SWAP3 PUSH1 0x7F AND SWAP3 PUSH2 0x5AD JUMP JUMPDEST POP POP CALLVALUE PUSH2 0x286 JUMPI DUP2 PUSH1 0x3 NOT CALLDATASIZE ADD SLT PUSH2 0x286 JUMPI SWAP1 SLOAD SWAP1 MLOAD PUSH1 0x1 PUSH1 0x1 PUSH1 0xA0 SHL SUB SWAP1 SWAP2 AND DUP2 MSTORE PUSH1 0x20 SWAP1 RETURN JUMPDEST POP POP CALLVALUE PUSH2 0x286 JUMPI DUP2 PUSH1 0x3 NOT CALLDATASIZE ADD SLT PUSH2 0x286 JUMPI PUSH1 0x20 SWAP1 MLOAD PUSH1 0x1 PUSH1 0x1 PUSH1 0x40 SHL SUB PUSH32 0x0 AND DUP2 MSTORE RETURN JUMPDEST POP SWAP1 CALLVALUE PUSH2 0x263 JUMPI PUSH1 0x20 SWAP2 PUSH1 0x3 NOT DUP4 DUP2 CALLDATASIZE ADD SLT PUSH2 0x8C5 JUMPI DUP2 CALLDATALOAD SWAP1 PUSH1 0x1 PUSH1 0x1 PUSH1 0x40 SHL SUB SWAP1 DUP2 DUP4 GT PUSH2 0xA45 JUMPI PUSH1 0xA0 SWAP1 DUP4 CALLDATASIZE SUB ADD SLT PUSH2 0x942 JUMPI PUSH1 0x1 PUSH1 0x1 PUSH1 0xA0 SHL SUB SWAP3 PUSH32 0x0 DUP5 AND CALLER SUB PUSH2 0xAFA JUMPI DUP5 MLOAD SWAP2 PUSH2 0x77C DUP4 PUSH2 0x1FBA JUMP JUMPDEST DUP4 DUP3 ADD CALLDATALOAD DUP4 MSTORE PUSH1 0x24 SWAP1 DUP2 DUP6 ADD CALLDATALOAD DUP2 DUP2 AND DUP2 SUB PUSH2 0xAD9 JUMPI DUP9 DUP6 ADD MSTORE PUSH1 0x44 DUP6 ADD CALLDATALOAD DUP2 DUP2 GT PUSH2 0xA3D JUMPI PUSH2 0x7B1 SWAP1 DUP5 CALLDATASIZE SWAP2 DUP9 ADD ADD PUSH2 0x2070 JUMP JUMPDEST SWAP4 DUP8 DUP2 ADD SWAP5 DUP6 MSTORE PUSH1 0x64 DUP7 ADD CALLDATALOAD DUP3 DUP2 GT PUSH2 0xA41 JUMPI PUSH2 0x7D3 SWAP1 DUP6 CALLDATASIZE SWAP2 DUP10 ADD ADD PUSH2 0x2070 JUMP JUMPDEST SWAP6 PUSH1 0x60 DUP3 ADD SWAP7 DUP8 MSTORE PUSH1 0x84 DUP2 ADD CALLDATALOAD SWAP1 DUP4 DUP3 GT PUSH2 0xAF6 JUMPI ADD CALLDATASIZE PUSH1 0x23 DUP3 ADD SLT ISZERO PUSH2 0xA41 JUMPI DUP5 DUP2 ADD CALLDATALOAD SWAP3 DUP4 GT PUSH2 0xAE2 JUMPI DUP9 MLOAD SWAP3 PUSH2 0x811 DUP12 DUP3 PUSH1 0x5 SHL ADD DUP6 PUSH2 0x204F JUMP JUMPDEST DUP1 DUP5 MSTORE DUP5 DUP12 DUP6 ADD SWAP2 PUSH1 0x6 SHL DUP4 ADD ADD SWAP2 CALLDATASIZE DUP4 GT PUSH2 0xADE JUMPI DUP6 ADD SWAP1 JUMPDEST DUP3 DUP3 LT PUSH2 0xA9F JUMPI POP POP POP PUSH1 0x80 ADD MSTORE DUP3 MLOAD DUP8 DUP2 DUP1 MLOAD DUP2 ADD SUB SLT PUSH2 0xA39 JUMPI PUSH2 0x853 DUP9 DUP8 SWAP3 ADD PUSH2 0x272F JUMP JUMPDEST AND DUP1 DUP10 MSTORE PUSH1 0xB DUP9 MSTORE PUSH1 0xFF DUP8 DUP11 KECCAK256 SLOAD AND ISZERO PUSH2 0xA8A JUMPI POP DUP4 MLOAD DUP8 DUP2 DUP1 MLOAD DUP2 ADD SUB SLT PUSH2 0xA39 JUMPI PUSH2 0x883 DUP9 PUSH1 0xFF SWAP3 ADD PUSH2 0x2743 JUMP JUMPDEST AND DUP1 PUSH2 0x8C9 JUMPI POP POP POP POP MLOAD SWAP2 PUSH1 0x60 DUP4 DUP1 MLOAD DUP2 ADD SUB SLT PUSH2 0x8C5 JUMPI PUSH2 0x8B8 PUSH1 0x60 SWAP2 PUSH2 0x8B0 PUSH2 0x8C2 SWAP7 DUP7 ADD PUSH2 0x2743 JUMP JUMPDEST POP DUP5 ADD PUSH2 0x272F JUMP JUMPDEST SWAP3 ADD MLOAD SWAP2 AND PUSH2 0x2589 JUMP JUMPDEST DUP1 RETURN JUMPDEST DUP5 DUP1 REVERT JUMPDEST PUSH1 0x1 DUP2 SWAP9 SWAP8 SWAP6 SWAP4 SWAP5 SWAP7 SWAP9 EQ PUSH1 0x0 EQ PUSH2 0x946 JUMPI POP POP POP POP DUP2 MLOAD DUP4 DUP2 DUP1 MLOAD DUP2 ADD SUB SLT PUSH2 0x942 JUMPI PUSH2 0x8F9 DUP5 DUP7 SWAP3 ADD PUSH2 0x272F JUMP JUMPDEST AND DUP6 MSTORE PUSH1 0xB DUP4 MSTORE DUP5 KECCAK256 PUSH2 0x100 PUSH2 0xFF00 NOT DUP3 SLOAD AND OR SWAP1 SSTORE MLOAD SWAP1 DUP1 DUP3 DUP1 MLOAD DUP2 ADD SUB SLT PUSH2 0x93E JUMPI PUSH2 0x927 SWAP2 ADD PUSH2 0x272F JUMP JUMPDEST AND PUSH1 0x1 PUSH1 0x1 PUSH1 0x60 SHL SUB PUSH1 0xA0 SHL PUSH1 0x9 SLOAD AND OR PUSH1 0x9 SSTORE DUP1 RETURN JUMPDEST DUP4 DUP1 REVERT JUMPDEST DUP6 DUP1 REVERT JUMPDEST SWAP3 SWAP7 SWAP4 SWAP5 SWAP3 PUSH1 0x2 SUB PUSH2 0xA49 JUMPI POP MLOAD PUSH1 0xA0 DUP2 DUP1 MLOAD DUP2 ADD SUB SLT PUSH2 0xA45 JUMPI PUSH2 0x96C DUP6 DUP3 ADD PUSH2 0x2743 JUMP JUMPDEST POP DUP4 DUP2 ADD MLOAD SWAP6 PUSH1 0x60 DUP3 ADD MLOAD PUSH1 0xA0 PUSH1 0x80 DUP5 ADD MLOAD SWAP4 ADD MLOAD SWAP8 DUP5 MLOAD DUP9 DUP2 DUP1 MLOAD DUP2 ADD SUB SLT PUSH2 0xA41 JUMPI PUSH2 0x99C DUP10 DUP9 SWAP3 ADD PUSH2 0x272F JUMP JUMPDEST AND DUP11 MSTORE PUSH1 0xB DUP9 MSTORE TIMESTAMP PUSH1 0x1 DUP9 DUP13 KECCAK256 ADD SSTORE DUP5 MLOAD DUP9 DUP2 DUP1 MLOAD DUP2 ADD SUB SLT PUSH2 0xA41 JUMPI PUSH2 0x9C5 DUP10 DUP9 SWAP3 ADD PUSH2 0x272F JUMP JUMPDEST AND DUP11 MSTORE PUSH1 0x2 DUP8 DUP12 KECCAK256 ADD SSTORE DUP4 MLOAD DUP8 DUP2 DUP1 MLOAD DUP2 ADD SUB SLT PUSH2 0xA3D JUMPI PUSH2 0x9E9 DUP9 DUP8 SWAP3 ADD PUSH2 0x272F JUMP JUMPDEST AND DUP10 MSTORE PUSH1 0x3 DUP7 DUP11 KECCAK256 ADD SSTORE DUP3 MLOAD DUP7 DUP2 DUP1 MLOAD DUP2 ADD SUB SLT PUSH2 0xA39 JUMPI PUSH2 0xA0D DUP8 DUP7 SWAP3 ADD PUSH2 0x272F JUMP JUMPDEST AND DUP9 MSTORE DUP5 DUP9 KECCAK256 ADD SSTORE MLOAD DUP4 DUP2 DUP1 MLOAD DUP2 ADD SUB SLT PUSH2 0x942 JUMPI PUSH1 0x5 SWAP4 PUSH2 0xA2F SWAP2 ADD PUSH2 0x272F JUMP JUMPDEST AND DUP5 MSTORE DUP4 KECCAK256 ADD SSTORE DUP1 RETURN JUMPDEST DUP9 DUP1 REVERT JUMPDEST DUP10 DUP1 REVERT JUMPDEST DUP11 DUP1 REVERT JUMPDEST DUP7 DUP1 REVERT JUMPDEST DUP7 PUSH1 0x19 PUSH1 0x64 SWAP3 DUP9 DUP9 MLOAD SWAP4 PUSH3 0x461BCD PUSH1 0xE5 SHL DUP6 MSTORE DUP5 ADD MSTORE DUP3 ADD MSTORE PUSH32 0x696E76616C696420636F6D6D616E642066726F6D204E6F646500000000000000 PUSH1 0x44 DUP3 ADD MSTORE REVERT JUMPDEST DUP7 MLOAD PUSH4 0x6A9FF79F PUSH1 0xE1 SHL DUP2 MSTORE DUP1 DUP5 ADD SWAP2 SWAP1 SWAP2 MSTORE REVERT JUMPDEST DUP11 DUP3 CALLDATASIZE SUB SLT PUSH2 0xADE JUMPI DUP11 MLOAD SWAP1 PUSH2 0xAB4 DUP3 PUSH2 0x2019 JUMP JUMPDEST DUP3 CALLDATALOAD SWAP1 DUP12 DUP3 AND DUP3 SUB PUSH2 0xAD9 JUMPI DUP3 DUP15 SWAP3 DUP15 SWAP5 MSTORE DUP3 DUP6 ADD CALLDATALOAD DUP4 DUP3 ADD MSTORE DUP2 MSTORE ADD SWAP2 ADD SWAP1 PUSH2 0x82B JUMP JUMPDEST PUSH1 0x0 DUP1 REVERT JUMPDEST DUP13 DUP1 REVERT JUMPDEST DUP4 PUSH1 0x41 DUP7 PUSH4 0x4E487B71 PUSH1 0xE0 SHL PUSH1 0x0 MSTORE MSTORE PUSH1 0x0 REVERT JUMPDEST DUP12 DUP1 REVERT JUMPDEST PUSH1 0x24 SWAP1 DUP6 MLOAD SWAP1 PUSH4 0x35FDCCCD PUSH1 0xE2 SHL DUP3 MSTORE CALLER SWAP1 DUP3 ADD MSTORE REVERT JUMPDEST POP SWAP1 CALLVALUE PUSH2 0x263 JUMPI DUP3 PUSH1 0x3 NOT CALLDATASIZE ADD SLT PUSH2 0x263 JUMPI PUSH1 0x1 SLOAD SWAP2 PUSH1 0x1 PUSH1 0x1 PUSH1 0xA0 SHL SUB SWAP2 DUP3 DUP5 AND CALLER SUB PUSH2 0xB7C JUMPI POP POP DUP3 SLOAD PUSH1 0x1 PUSH1 0x1 PUSH1 0xA0 SHL SUB NOT DUP1 DUP3 AND CALLER SWAP1 DUP2 OR DUP7 SSTORE SWAP4 AND PUSH1 0x1 SSTORE AND PUSH32 0x8BE0079C531659141344CD1FD0A4F28419497F9722A3DAAFE3B4186F6B6457E0 DUP4 DUP1 LOG3 DUP1 RETURN JUMPDEST SWAP1 PUSH1 0x20 PUSH1 0x64 SWAP3 MLOAD SWAP2 PUSH3 0x461BCD PUSH1 0xE5 SHL DUP4 MSTORE DUP3 ADD MSTORE PUSH1 0x16 PUSH1 0x24 DUP3 ADD MSTORE PUSH22 0x26BAB9BA10313290383937B837B9B2B21037BBB732B9 PUSH1 0x51 SHL PUSH1 0x44 DUP3 ADD MSTORE REVERT JUMPDEST POP POP CALLVALUE PUSH2 0x286 JUMPI PUSH1 0x20 CALLDATASIZE PUSH1 0x3 NOT ADD SLT PUSH2 0x286 JUMPI PUSH1 0x20 SWAP2 DUP2 SWAP1 PUSH1 0x1 PUSH1 0x1 PUSH1 0xA0 SHL SUB PUSH2 0xBE0 PUSH2 0x1F1A JUMP JUMPDEST AND DUP2 MSTORE PUSH1 0x2 DUP5 MSTORE KECCAK256 SLOAD SWAP1 MLOAD SWAP1 DUP2 MSTORE RETURN JUMPDEST DUP4 CALLVALUE PUSH2 0x4D0 JUMPI DUP1 PUSH1 0x3 NOT CALLDATASIZE ADD SLT PUSH2 0x4D0 JUMPI PUSH2 0xC09 PUSH2 0x27E0 JUMP JUMPDEST PUSH1 0x7 DUP1 SLOAD PUSH1 0xFF PUSH1 0xA8 SHL NOT AND SWAP1 SSTORE DUP1 RETURN JUMPDEST POP POP CALLVALUE PUSH2 0x286 JUMPI DUP2 PUSH1 0x3 NOT CALLDATASIZE ADD SLT PUSH2 0x286 JUMPI PUSH1 0x9 SLOAD SWAP1 MLOAD PUSH1 0x1 PUSH1 0x1 PUSH1 0xA0 SHL SUB SWAP1 SWAP2 AND DUP2 MSTORE PUSH1 0x20 SWAP1 RETURN JUMPDEST POP POP CALLVALUE PUSH2 0x286 JUMPI DUP2 PUSH1 0x3 NOT CALLDATASIZE ADD SLT PUSH2 0x286 JUMPI PUSH1 0x20 SWAP1 PUSH1 0xFF PUSH1 0x7 SLOAD PUSH1 0xA8 SHR AND SWAP1 MLOAD SWAP1 ISZERO ISZERO DUP2 MSTORE RETURN JUMPDEST POP POP CALLVALUE PUSH2 0x286 JUMPI DUP2 PUSH1 0x3 NOT CALLDATASIZE ADD SLT PUSH2 0x286 JUMPI PUSH1 0x8 SLOAD SWAP1 MLOAD PUSH1 0x1 PUSH1 0x1 PUSH1 0xA0 SHL SUB SWAP1 SWAP2 AND DUP2 MSTORE PUSH1 0x20 SWAP1 RETURN JUMPDEST DUP3 DUP2 DUP6 CALLVALUE PUSH2 0x286 JUMPI DUP1 PUSH1 0x3 NOT CALLDATASIZE ADD SLT PUSH2 0x286 JUMPI PUSH2 0xCAD PUSH2 0x1FA4 JUMP JUMPDEST SWAP1 PUSH2 0xCB6 PUSH2 0x1F30 JUMP JUMPDEST SWAP4 PUSH1 0xFF PUSH1 0x7 SLOAD AND ISZERO PUSH2 0x11E3 JUMPI JUMPDEST DUP2 MLOAD PUSH1 0x20 PUSH1 0x1 DUP2 DUP4 ADD MSTORE PUSH1 0x1 PUSH1 0x1 PUSH1 0x40 SHL SUB DUP1 SWAP6 AND SWAP2 DUP3 DUP6 DUP3 ADD MSTORE PUSH1 0x1 DUP1 PUSH1 0xA0 SHL SUB DUP1 SWAP9 AND SWAP6 PUSH1 0x60 SWAP1 DUP8 DUP3 DUP5 ADD MSTORE DUP2 DUP4 MSTORE PUSH2 0xCFD DUP4 PUSH2 0x2034 JUMP JUMPDEST DUP10 PUSH1 0x9 SLOAD AND DUP10 MSTORE PUSH1 0xB DUP5 MSTORE DUP7 DUP10 KECCAK256 PUSH2 0xFF00 NOT DUP2 SLOAD AND SWAP1 SSTORE DUP10 PUSH1 0x9 SLOAD AND SWAP3 DUP4 DUP11 MSTORE DUP8 DUP11 KECCAK256 SLOAD DUP3 DUP2 PUSH1 0x10 SHR AND SWAP3 PUSH32 0x0 AND DUP4 EQ PUSH1 0x0 EQ PUSH2 0xDD8 JUMPI POP POP POP POP POP POP DUP6 PUSH1 0x9 SLOAD AND DUP1 EXTCODESIZE ISZERO PUSH2 0x942 JUMPI DUP6 SWAP3 DUP4 PUSH1 0x44 SWAP3 DUP7 MLOAD SWAP8 DUP9 SWAP6 DUP7 SWAP5 PUSH4 0x4BB297FF PUSH1 0xE1 SHL DUP7 MSTORE DUP6 ADD MSTORE PUSH1 0x24 DUP5 ADD MSTORE GAS CALL SWAP1 DUP2 ISZERO PUSH2 0xDCF JUMPI POP PUSH2 0xDBB JUMPI JUMPDEST POP POP JUMPDEST PUSH1 0x9 SLOAD PUSH1 0x1 PUSH1 0x1 PUSH1 0x60 SHL SUB PUSH1 0xA0 SHL SWAP2 DUP2 AND DUP3 PUSH1 0x8 SLOAD AND OR PUSH1 0x8 SSTORE AND PUSH1 0x9 SSTORE TIMESTAMP PUSH1 0xA SSTORE DUP1 RETURN JUMPDEST PUSH2 0xDC4 SWAP1 PUSH2 0x2006 JUMP JUMPDEST PUSH2 0x286 JUMPI DUP2 DUP4 PUSH2 0xD93 JUMP JUMPDEST MLOAD RETURNDATASIZE DUP5 DUP3 RETURNDATACOPY RETURNDATASIZE SWAP1 REVERT JUMPDEST SWAP2 SWAP6 POP SWAP3 SWAP7 SWAP8 POP PUSH1 0xFF SWAP2 SWAP6 SWAP4 SWAP9 POP AND ISZERO PUSH2 0x11CC JUMPI DUP8 PUSH1 0x7 SLOAD PUSH1 0x8 SHR AND DUP5 DUP2 SWAP6 PUSH1 0x80 DUP10 MLOAD PUSH2 0xE04 DUP2 PUSH2 0x1FBA JUMP JUMPDEST DUP3 DUP2 MSTORE DUP3 DUP13 DUP3 ADD MSTORE DUP3 DUP12 DUP3 ADD MSTORE DUP14 DUP4 DUP3 ADD MSTORE ADD MSTORE DUP8 MLOAD SWAP7 DUP10 DUP9 ADD MSTORE DUP9 DUP8 MSTORE PUSH2 0xE2B DUP8 PUSH2 0x2019 JUMP JUMPDEST DUP8 MLOAD PUSH2 0xE36 DUP2 PUSH2 0x1FEB JUMP JUMPDEST PUSH1 0x0 DUP2 MSTORE PUSH2 0xE53 DUP10 MLOAD PUSH2 0xE48 DUP2 PUSH2 0x1FEB JUMP JUMPDEST PUSH3 0x1E8480 DUP2 MSTORE PUSH2 0x2751 JUMP JUMPDEST SWAP4 DUP10 MLOAD SWAP9 PUSH2 0xE60 DUP11 PUSH2 0x1FBA JUMP JUMPDEST DUP10 MSTORE DUP11 DUP10 ADD MSTORE DUP9 DUP9 ADD MSTORE DUP7 ADD MSTORE PUSH1 0x80 DUP6 ADD MSTORE DUP5 MLOAD PUSH4 0xB0F479A1 PUSH1 0xE0 SHL DUP2 MSTORE DUP7 DUP2 DUP4 DUP2 ADDRESS GAS STATICCALL SWAP1 DUP2 ISZERO PUSH2 0x11C2 JUMPI SWAP1 DUP9 SWAP2 DUP11 SWAP2 PUSH2 0x1188 JUMPI JUMPDEST POP DUP7 MLOAD PUSH4 0x20487DED PUSH1 0xE0 SHL DUP2 MSTORE SWAP2 AND SWAP4 DUP10 SWAP1 DUP9 DUP4 DUP1 PUSH2 0xEB8 DUP11 DUP10 DUP10 DUP5 ADD PUSH2 0x2120 JUMP JUMPDEST SUB DUP2 DUP10 GAS STATICCALL SWAP3 DUP4 ISZERO PUSH2 0x117E JUMPI SWAP1 DUP10 SWAP2 DUP4 SWAP5 PUSH2 0x114C JUMPI JUMPDEST POP PUSH1 0x64 DUP10 MLOAD DUP1 SWAP5 DUP2 SWAP4 PUSH4 0x23B872DD PUSH1 0xE0 SHL DUP4 MSTORE CALLER DUP10 DUP5 ADD MSTORE ADDRESS PUSH1 0x24 DUP5 ADD MSTORE DUP8 PUSH1 0x44 DUP5 ADD MSTORE GAS CALL SWAP1 DUP2 ISZERO PUSH2 0x1142 JUMPI DUP11 SWAP2 PUSH2 0x1125 JUMPI JUMPDEST POP ISZERO PUSH2 0x10E2 JUMPI DUP8 PUSH1 0x7 SLOAD PUSH1 0x8 SHR AND SWAP1 DUP7 MLOAD PUSH4 0x70A08231 PUSH1 0xE0 SHL SWAP1 DUP2 DUP2 MSTORE ADDRESS DUP6 DUP3 ADD MSTORE DUP10 DUP2 PUSH1 0x24 DUP2 DUP8 GAS STATICCALL SWAP1 DUP2 ISZERO PUSH2 0x10D8 JUMPI DUP13 SWAP2 PUSH2 0x10AB JUMPI JUMPDEST POP DUP3 GT PUSH2 0x102F JUMPI POP DUP7 MLOAD PUSH4 0x95EA7B3 PUSH1 0xE0 SHL DUP2 MSTORE PUSH1 0x1 PUSH1 0x1 PUSH1 0xA0 SHL SUB DUP7 AND DUP2 DUP6 ADD SWAP1 DUP2 MSTORE PUSH1 0x20 DUP2 ADD SWAP3 SWAP1 SWAP3 MSTORE DUP11 SWAP4 SWAP3 SWAP1 SWAP2 DUP10 SWAP2 DUP4 SWAP2 DUP3 SWAP1 DUP8 SWAP1 DUP3 SWAP1 PUSH1 0x40 ADD SUB SWAP3 GAS CALL DUP1 ISZERO PUSH2 0x1025 JUMPI SWAP2 DUP9 SWAP6 SWAP4 SWAP2 PUSH2 0xFAE SWAP9 SWAP8 SWAP6 SWAP4 PUSH2 0xFF8 JUMPI JUMPDEST POP DUP7 MLOAD PUSH4 0x96F4E9F9 PUSH1 0xE0 SHL DUP2 MSTORE SWAP8 DUP9 SWAP6 DUP7 SWAP5 DUP6 SWAP4 DUP5 ADD PUSH2 0x2120 JUMP JUMPDEST SUB SWAP3 GAS CALL SWAP1 DUP2 ISZERO PUSH2 0xFEF JUMPI POP PUSH2 0xFC6 JUMPI JUMPDEST POP POP PUSH2 0xD96 JUMP JUMPDEST DUP2 RETURNDATASIZE DUP4 GT PUSH2 0xFE8 JUMPI JUMPDEST PUSH2 0xFD9 DUP2 DUP4 PUSH2 0x204F JUMP JUMPDEST DUP2 ADD SUB SLT PUSH2 0x286 JUMPI DUP3 DUP1 PUSH2 0xFBF JUMP JUMPDEST POP RETURNDATASIZE PUSH2 0xFCF JUMP JUMPDEST MLOAD RETURNDATASIZE DUP7 DUP3 RETURNDATACOPY RETURNDATASIZE SWAP1 REVERT JUMPDEST PUSH2 0x1017 SWAP1 DUP8 RETURNDATASIZE DUP10 GT PUSH2 0x101E JUMPI JUMPDEST PUSH2 0x100F DUP2 DUP4 PUSH2 0x204F JUMP JUMPDEST DUP2 ADD SWAP1 PUSH2 0x21EC JUMP JUMPDEST POP DUP12 PUSH2 0xF93 JUMP JUMPDEST POP RETURNDATASIZE PUSH2 0x1005 JUMP JUMPDEST DUP8 MLOAD RETURNDATASIZE DUP6 DUP3 RETURNDATACOPY RETURNDATASIZE SWAP1 REVERT JUMPDEST SWAP1 DUP11 DUP9 DUP11 DUP1 DUP8 SWAP6 PUSH1 0x24 DUP5 MLOAD DUP1 SWAP10 DUP2 SWAP4 DUP3 MSTORE ADDRESS DUP11 DUP4 ADD MSTORE GAS STATICCALL SWAP3 DUP4 ISZERO PUSH2 0x10A0 JUMPI SWAP3 PUSH2 0x106F JUMPI JUMPDEST POP MLOAD PUSH4 0x4787A103 PUSH1 0xE1 SHL DUP2 MSTORE SWAP3 DUP4 ADD MSTORE PUSH1 0x24 DUP3 ADD MSTORE PUSH1 0x44 SWAP2 POP REVERT JUMPDEST SWAP1 SWAP2 POP DUP5 DUP2 RETURNDATASIZE DUP4 GT PUSH2 0x1099 JUMPI JUMPDEST PUSH2 0x1086 DUP2 DUP4 PUSH2 0x204F JUMP JUMPDEST DUP2 ADD SUB SLT PUSH2 0xAD9 JUMPI PUSH1 0x44 SWAP4 MLOAD SWAP1 DUP6 PUSH2 0x1054 JUMP JUMPDEST POP RETURNDATASIZE PUSH2 0x107C JUMP JUMPDEST DUP3 MLOAD SWAP1 RETURNDATASIZE SWAP1 DUP3 RETURNDATACOPY RETURNDATASIZE SWAP1 REVERT JUMPDEST SWAP1 POP DUP10 DUP2 DUP2 RETURNDATASIZE DUP4 GT PUSH2 0x10D1 JUMPI JUMPDEST PUSH2 0x10C2 DUP2 DUP4 PUSH2 0x204F JUMP JUMPDEST DUP2 ADD SUB SLT PUSH2 0xAD9 JUMPI MLOAD DUP13 PUSH2 0xF3A JUMP JUMPDEST POP RETURNDATASIZE PUSH2 0x10B8 JUMP JUMPDEST DUP10 MLOAD RETURNDATASIZE DUP15 DUP3 RETURNDATACOPY RETURNDATASIZE SWAP1 REVERT JUMPDEST DUP6 MLOAD PUSH3 0x461BCD PUSH1 0xE5 SHL DUP2 MSTORE DUP1 DUP4 ADD DUP9 SWAP1 MSTORE PUSH1 0x1A PUSH1 0x24 DUP3 ADD MSTORE PUSH32 0x4E6F742070726F7669646564204C696E6B20666F722066656573000000000000 PUSH1 0x44 DUP3 ADD MSTORE PUSH1 0x64 SWAP1 REVERT JUMPDEST PUSH2 0x113C SWAP2 POP DUP9 RETURNDATASIZE DUP11 GT PUSH2 0x101E JUMPI PUSH2 0x100F DUP2 DUP4 PUSH2 0x204F JUMP JUMPDEST DUP11 PUSH2 0xF02 JUMP JUMPDEST DUP8 MLOAD RETURNDATASIZE DUP13 DUP3 RETURNDATACOPY RETURNDATASIZE SWAP1 REVERT JUMPDEST SWAP3 POP SWAP3 POP DUP2 DUP2 RETURNDATASIZE DUP4 GT PUSH2 0x1177 JUMPI JUMPDEST PUSH2 0x1164 DUP2 DUP4 PUSH2 0x204F JUMP JUMPDEST DUP2 ADD SUB SLT PUSH2 0xAD9 JUMPI DUP8 DUP11 SWAP2 MLOAD SWAP3 DUP13 PUSH2 0xECE JUMP JUMPDEST POP RETURNDATASIZE PUSH2 0x115A JUMP JUMPDEST DUP9 MLOAD RETURNDATASIZE DUP5 DUP3 RETURNDATACOPY RETURNDATASIZE SWAP1 REVERT JUMPDEST DUP1 SWAP3 POP DUP9 DUP1 SWAP3 POP RETURNDATASIZE DUP4 GT PUSH2 0x11BB JUMPI JUMPDEST PUSH2 0x11A1 DUP2 DUP4 PUSH2 0x204F JUMP JUMPDEST DUP2 ADD SUB SLT PUSH2 0xA39 JUMPI MLOAD DUP8 DUP2 AND DUP2 SUB PUSH2 0xA39 JUMPI DUP8 SWAP1 DUP11 PUSH2 0xE96 JUMP JUMPDEST POP RETURNDATASIZE PUSH2 0x1197 JUMP JUMPDEST DUP7 MLOAD RETURNDATASIZE DUP12 DUP3 RETURNDATACOPY RETURNDATASIZE SWAP1 REVERT JUMPDEST DUP6 MLOAD PUSH4 0x6A9FF79F PUSH1 0xE1 SHL DUP2 MSTORE DUP1 DUP4 ADD DUP7 SWAP1 MSTORE PUSH1 0x24 SWAP1 REVERT JUMPDEST PUSH1 0x9 SLOAD SWAP3 SWAP4 POP SWAP1 SWAP2 PUSH2 0x11FF SWAP1 DUP6 SWAP1 PUSH1 0x1 PUSH1 0x1 PUSH1 0xA0 SHL SUB AND PUSH2 0x2227 JUMP JUMPDEST ISZERO PUSH2 0x120D JUMPI SWAP1 DUP5 SWAP3 SWAP2 PUSH2 0xCC3 JUMP JUMPDEST PUSH1 0x20 PUSH1 0x64 SWAP3 MLOAD SWAP2 PUSH3 0x461BCD PUSH1 0xE5 SHL DUP4 MSTORE DUP3 ADD MSTORE PUSH1 0x19 PUSH1 0x24 DUP3 ADD MSTORE PUSH32 0x436F6E646974696F6E20746F2077617270206E6F74206D657400000000000000 PUSH1 0x44 DUP3 ADD MSTORE REVERT JUMPDEST POP SWAP2 CALLVALUE PUSH2 0x4D0 JUMPI PUSH1 0xA0 CALLDATASIZE PUSH1 0x3 NOT ADD SLT PUSH2 0x4D0 JUMPI PUSH2 0x126A PUSH2 0x1FA4 JUMP JUMPDEST SWAP2 PUSH2 0x1273 PUSH2 0x1F30 JUMP JUMPDEST PUSH1 0x1 PUSH1 0x1 PUSH1 0xA0 SHL SUB SWAP4 PUSH1 0x44 CALLDATALOAD DUP6 DUP2 AND SWAP2 SWAP1 DUP3 SWAP1 SUB PUSH2 0xAD9 JUMPI PUSH1 0x64 CALLDATALOAD SWAP1 DUP7 DUP3 AND DUP1 SWAP3 SUB PUSH2 0xAD9 JUMPI PUSH1 0x84 CALLDATALOAD SWAP8 PUSH1 0x1 PUSH1 0x1 PUSH1 0x40 SHL SUB DUP10 GT PUSH2 0xA45 JUMPI PUSH2 0x12BE PUSH2 0x133A SWAP7 SWAP8 SWAP9 SWAP10 CALLDATASIZE SWAP1 DUP4 ADD PUSH2 0x2070 JUMP JUMPDEST DUP8 MLOAD SWAP5 PUSH1 0x20 SWAP11 DUP12 SWAP8 AND DUP8 DUP8 ADD MSTORE DUP7 DUP7 MSTORE PUSH2 0x12D7 DUP7 PUSH2 0x2019 JUMP JUMPDEST DUP9 MLOAD PUSH2 0x12E2 DUP2 PUSH2 0x1FEB JUMP JUMPDEST PUSH1 0x0 DUP2 MSTORE PUSH2 0x12FF DUP11 MLOAD PUSH2 0x12F4 DUP2 PUSH2 0x1FEB JUMP JUMPDEST PUSH3 0xF4240 DUP2 MSTORE PUSH2 0x2751 JUMP JUMPDEST SWAP3 DUP11 MLOAD SWAP8 PUSH2 0x130C DUP10 PUSH2 0x1FBA JUMP JUMPDEST DUP9 MSTORE DUP9 DUP9 ADD MSTORE DUP10 DUP8 ADD MSTORE PUSH1 0x60 DUP7 ADD MSTORE PUSH1 0x80 DUP6 ADD MSTORE DUP7 MLOAD PUSH4 0x20487DED PUSH1 0xE0 SHL DUP2 MSTORE SWAP6 DUP7 SWAP5 DUP6 SWAP4 DUP5 SWAP4 DUP5 ADD PUSH2 0x2120 JUMP JUMPDEST SUB SWAP2 GAS STATICCALL SWAP3 DUP4 ISZERO PUSH2 0x10A0 JUMPI SWAP3 PUSH2 0x1352 JUMPI JUMPDEST POP MLOAD SWAP1 DUP2 MSTORE RETURN JUMPDEST SWAP1 SWAP2 POP DUP3 DUP2 DUP2 RETURNDATASIZE DUP4 GT PUSH2 0x137A JUMPI JUMPDEST PUSH2 0x136A DUP2 DUP4 PUSH2 0x204F JUMP JUMPDEST DUP2 ADD SUB SLT PUSH2 0xAD9 JUMPI MLOAD SWAP1 CODESIZE PUSH2 0x134B JUMP JUMPDEST POP RETURNDATASIZE PUSH2 0x1360 JUMP JUMPDEST POP POP CALLVALUE PUSH2 0x286 JUMPI DUP1 PUSH1 0x3 NOT CALLDATASIZE ADD SLT PUSH2 0x286 JUMPI PUSH2 0x423 PUSH1 0x20 SWAP3 DUP3 PUSH2 0x13A2 PUSH2 0x1F1A JUMP JUMPDEST SWAP2 CALLER DUP2 MSTORE PUSH1 0x3 DUP7 MSTORE KECCAK256 PUSH1 0x1 DUP1 PUSH1 0xA0 SHL SUB DUP3 AND PUSH1 0x0 MSTORE DUP5 MSTORE PUSH2 0x13C9 PUSH1 0x24 CALLDATALOAD DUP5 PUSH1 0x0 KECCAK256 SLOAD PUSH2 0x2204 JUMP JUMPDEST SWAP1 CALLER PUSH2 0x262D JUMP JUMPDEST POP POP CALLVALUE PUSH2 0x286 JUMPI DUP2 PUSH1 0x3 NOT CALLDATASIZE ADD SLT PUSH2 0x286 JUMPI PUSH1 0x20 SWAP1 MLOAD PUSH1 0x12 DUP2 MSTORE RETURN JUMPDEST POP DUP3 SWAP1 CALLVALUE PUSH2 0x286 JUMPI PUSH1 0x20 SWAP3 DUP4 PUSH1 0x3 NOT CALLDATASIZE ADD SLT PUSH2 0x263 JUMPI PUSH1 0x9 SLOAD PUSH1 0x1 PUSH1 0x1 PUSH1 0xA0 SHL SUB SWAP1 DUP2 AND DUP5 MSTORE PUSH1 0xB DUP6 MSTORE DUP2 DUP5 KECCAK256 SLOAD DUP4 CALLDATALOAD SWAP2 SWAP1 PUSH1 0x8 SHR PUSH1 0xFF AND ISZERO PUSH2 0x1A0D JUMPI CALLER DUP6 MSTORE PUSH1 0x2 DUP7 MSTORE DUP3 DUP6 KECCAK256 SLOAD DUP3 GT PUSH2 0x19D4 JUMPI DUP3 MLOAD SWAP6 DUP6 DUP2 DUP9 ADD MSTORE CALLER DUP5 DUP9 ADD MSTORE PUSH1 0x60 DUP4 DUP2 DUP10 ADD MSTORE DUP1 DUP9 MSTORE PUSH2 0x145A DUP9 PUSH2 0x2034 JUMP JUMPDEST CALLER ISZERO PUSH2 0x1987 JUMPI CALLER DUP8 MSTORE PUSH1 0x2 DUP3 MSTORE DUP5 DUP8 KECCAK256 SLOAD SWAP8 DUP5 DUP10 LT PUSH2 0x1939 JUMPI DUP5 DUP9 SWAP10 SWAP9 SWAP7 SWAP8 SWAP9 CALLER DUP9 MSTORE PUSH1 0x2 DUP6 MSTORE SUB DUP8 DUP8 KECCAK256 SSTORE DUP5 DUP9 SLOAD SUB DUP9 SSTORE DUP6 DUP8 MLOAD DUP7 DUP2 MSTORE PUSH32 0xDDF252AD1BE2C89B69C2B068FC378DAA952BA7F163C4A11628F55A4DF523B3EF DUP6 CALLER SWAP3 LOG3 DUP4 PUSH1 0x9 SLOAD AND SWAP2 DUP3 DUP8 MSTORE PUSH1 0xB DUP5 MSTORE DUP8 DUP8 KECCAK256 SLOAD SWAP2 PUSH1 0x1 PUSH1 0x1 PUSH1 0x40 SHL SUB SWAP3 DUP4 DUP2 PUSH1 0x10 SHR AND SWAP4 PUSH32 0x0 AND DUP5 EQ PUSH1 0x0 EQ PUSH2 0x155B JUMPI POP POP POP POP POP POP PUSH1 0x9 SLOAD AND DUP1 EXTCODESIZE ISZERO PUSH2 0x263 JUMPI DUP4 MLOAD PUSH4 0x15E005B7 PUSH1 0xE3 SHL DUP2 MSTORE CALLER SWAP6 DUP2 ADD SWAP6 DUP7 MSTORE PUSH1 0x20 DUP7 ADD SWAP3 SWAP1 SWAP3 MSTORE SWAP1 SWAP4 DUP5 SWAP2 SWAP1 DUP3 SWAP1 DUP5 SWAP1 DUP3 SWAP1 PUSH1 0x40 ADD SUB SWAP3 GAS CALL SWAP1 DUP2 ISZERO PUSH2 0xDCF JUMPI POP PUSH2 0x1552 JUMPI POP DUP1 RETURN JUMPDEST PUSH2 0x8C2 SWAP1 PUSH2 0x2006 JUMP JUMPDEST SWAP1 SWAP3 SWAP6 SWAP7 POP PUSH1 0xFF SWAP2 SWAP4 SWAP8 POP SWAP9 SWAP4 SWAP9 AND ISZERO PUSH2 0x1922 JUMPI DUP5 PUSH1 0x7 SLOAD PUSH1 0x8 SHR AND DUP3 DUP2 SWAP4 PUSH1 0x80 DUP11 MLOAD PUSH2 0x1587 DUP2 PUSH2 0x1FBA JUMP JUMPDEST DUP3 DUP2 MSTORE DUP3 DUP14 DUP3 ADD MSTORE DUP3 DUP13 DUP3 ADD MSTORE DUP14 DUP4 DUP3 ADD MSTORE ADD MSTORE DUP9 MLOAD SWAP8 DUP11 DUP10 ADD MSTORE DUP10 DUP9 MSTORE PUSH2 0x15AE DUP9 PUSH2 0x2019 JUMP JUMPDEST DUP9 MLOAD PUSH2 0x15B9 DUP2 PUSH2 0x1FEB JUMP JUMPDEST DUP12 DUP2 MSTORE PUSH2 0x15CA DUP11 MLOAD PUSH2 0xE48 DUP2 PUSH2 0x1FEB JUMP JUMPDEST SWAP4 DUP11 MLOAD SWAP10 PUSH2 0x15D7 DUP12 PUSH2 0x1FBA JUMP JUMPDEST DUP11 MSTORE DUP12 DUP11 ADD MSTORE DUP10 DUP10 ADD MSTORE DUP8 ADD MSTORE PUSH1 0x80 DUP7 ADD MSTORE DUP6 MLOAD PUSH4 0xB0F479A1 PUSH1 0xE0 SHL DUP2 MSTORE DUP8 DUP2 DUP5 DUP2 ADDRESS GAS STATICCALL SWAP1 DUP2 ISZERO PUSH2 0x1918 JUMPI SWAP1 DUP6 SWAP2 DUP11 SWAP2 PUSH2 0x18DE JUMPI JUMPDEST POP AND SWAP4 DUP9 DUP8 MLOAD SWAP3 PUSH4 0x20487DED PUSH1 0xE0 SHL DUP5 MSTORE DUP10 DUP5 DUP1 PUSH2 0x162E DUP12 DUP11 DUP11 DUP5 ADD PUSH2 0x2120 JUMP JUMPDEST SUB DUP2 DUP11 GAS STATICCALL SWAP4 DUP5 ISZERO PUSH2 0x18D4 JUMPI SWAP1 DUP11 SWAP2 DUP4 SWAP6 PUSH2 0x18A3 JUMPI JUMPDEST POP PUSH1 0x64 DUP11 MLOAD DUP1 SWAP5 DUP2 SWAP4 PUSH4 0x23B872DD PUSH1 0xE0 SHL DUP4 MSTORE CALLER DUP11 DUP5 ADD MSTORE ADDRESS PUSH1 0x24 DUP5 ADD MSTORE DUP9 PUSH1 0x44 DUP5 ADD MSTORE GAS CALL SWAP1 DUP2 ISZERO PUSH2 0x1899 JUMPI DUP11 SWAP2 PUSH2 0x187C JUMPI JUMPDEST POP ISZERO PUSH2 0x1839 JUMPI SWAP1 DUP9 SWAP3 SWAP2 PUSH1 0x7 SLOAD PUSH1 0x8 SHR AND SWAP1 DUP8 MLOAD PUSH4 0x70A08231 PUSH1 0xE0 SHL SWAP1 DUP2 DUP2 MSTORE ADDRESS DUP6 DUP3 ADD MSTORE DUP11 DUP2 PUSH1 0x24 DUP2 DUP8 GAS STATICCALL SWAP1 DUP2 ISZERO PUSH2 0x182F JUMPI DUP7 SWAP2 PUSH2 0x1802 JUMPI JUMPDEST POP DUP3 GT PUSH2 0x1783 JUMPI POP DUP8 MLOAD PUSH4 0x95EA7B3 PUSH1 0xE0 SHL DUP2 MSTORE PUSH1 0x1 PUSH1 0x1 PUSH1 0xA0 SHL SUB DUP8 AND DUP5 DUP3 ADD SWAP1 DUP2 MSTORE PUSH1 0x20 DUP2 ADD SWAP3 SWAP1 SWAP3 MSTORE SWAP2 DUP10 SWAP2 DUP4 SWAP2 SWAP1 DUP3 SWAP1 DUP8 SWAP1 DUP3 SWAP1 PUSH1 0x40 ADD SUB SWAP3 GAS CALL DUP1 ISZERO PUSH2 0x1025 JUMPI SWAP2 DUP9 SWAP6 SWAP4 SWAP2 PUSH2 0x1723 SWAP9 SWAP8 SWAP6 SWAP4 PUSH2 0x1766 JUMPI POP DUP7 MLOAD PUSH4 0x96F4E9F9 PUSH1 0xE0 SHL DUP2 MSTORE SWAP8 DUP9 SWAP6 DUP7 SWAP5 DUP6 SWAP4 DUP5 ADD PUSH2 0x2120 JUMP JUMPDEST SUB SWAP3 GAS CALL SWAP1 DUP2 ISZERO PUSH2 0x175D JUMPI POP PUSH2 0x1738 JUMPI POP POP DUP1 RETURN JUMPDEST DUP2 RETURNDATASIZE DUP4 GT PUSH2 0x1756 JUMPI JUMPDEST PUSH2 0x174B DUP2 DUP4 PUSH2 0x204F JUMP JUMPDEST DUP2 ADD SUB SLT PUSH2 0x4D0 JUMPI DUP1 RETURN JUMPDEST POP RETURNDATASIZE PUSH2 0x1741 JUMP JUMPDEST MLOAD RETURNDATASIZE DUP6 DUP3 RETURNDATACOPY RETURNDATASIZE SWAP1 REVERT JUMPDEST PUSH2 0x177C SWAP1 DUP8 RETURNDATASIZE DUP10 GT PUSH2 0x101E JUMPI PUSH2 0x100F DUP2 DUP4 PUSH2 0x204F JUMP JUMPDEST POP DUP11 PUSH2 0xF93 JUMP JUMPDEST DUP10 SWAP2 SWAP3 DUP3 DUP11 SWAP3 PUSH1 0x24 DUP5 MLOAD DUP1 SWAP5 DUP2 SWAP4 DUP3 MSTORE ADDRESS DUP11 DUP4 ADD MSTORE GAS STATICCALL SWAP3 DUP4 ISZERO PUSH2 0x17F8 JUMPI DUP7 SWAP4 PUSH2 0x17C4 JUMPI JUMPDEST POP POP MLOAD PUSH4 0x4787A103 PUSH1 0xE1 SHL DUP2 MSTORE SWAP3 DUP4 ADD MSTORE PUSH1 0x24 DUP3 ADD MSTORE PUSH1 0x44 SWAP2 POP REVERT JUMPDEST SWAP1 DUP1 SWAP3 SWAP4 POP DUP2 RETURNDATASIZE DUP4 GT PUSH2 0x17F1 JUMPI JUMPDEST PUSH2 0x17DC DUP2 DUP4 PUSH2 0x204F JUMP JUMPDEST DUP2 ADD SUB SLT PUSH2 0x8C5 JUMPI PUSH1 0x44 SWAP5 POP MLOAD SWAP1 DUP6 DUP1 PUSH2 0x17A8 JUMP JUMPDEST POP RETURNDATASIZE PUSH2 0x17D2 JUMP JUMPDEST DUP3 MLOAD RETURNDATASIZE DUP9 DUP3 RETURNDATACOPY RETURNDATASIZE SWAP1 REVERT JUMPDEST SWAP1 POP DUP11 DUP2 DUP2 RETURNDATASIZE DUP4 GT PUSH2 0x1828 JUMPI JUMPDEST PUSH2 0x1819 DUP2 DUP4 PUSH2 0x204F JUMP JUMPDEST DUP2 ADD SUB SLT PUSH2 0x942 JUMPI MLOAD DUP13 PUSH2 0x16B3 JUMP JUMPDEST POP RETURNDATASIZE PUSH2 0x180F JUMP JUMPDEST DUP11 MLOAD RETURNDATASIZE DUP9 DUP3 RETURNDATACOPY RETURNDATASIZE SWAP1 REVERT JUMPDEST DUP7 MLOAD PUSH3 0x461BCD PUSH1 0xE5 SHL DUP2 MSTORE DUP1 DUP5 ADD DUP10 SWAP1 MSTORE PUSH1 0x1A PUSH1 0x24 DUP3 ADD MSTORE PUSH32 0x4E6F742070726F7669646564204C696E6B20666F722066656573000000000000 PUSH1 0x44 DUP3 ADD MSTORE PUSH1 0x64 SWAP1 REVERT JUMPDEST PUSH2 0x1893 SWAP2 POP DUP10 RETURNDATASIZE DUP12 GT PUSH2 0x101E JUMPI PUSH2 0x100F DUP2 DUP4 PUSH2 0x204F JUMP JUMPDEST DUP11 PUSH2 0x1678 JUMP JUMPDEST DUP9 MLOAD RETURNDATASIZE DUP13 DUP3 RETURNDATACOPY RETURNDATASIZE SWAP1 REVERT JUMPDEST DUP3 DUP2 SWAP4 SWAP3 SWAP7 POP RETURNDATASIZE DUP4 GT PUSH2 0x18CD JUMPI JUMPDEST PUSH2 0x18BB DUP2 DUP4 PUSH2 0x204F JUMP JUMPDEST DUP2 ADD SUB SLT PUSH2 0x286 JUMPI DUP10 SWAP1 MLOAD SWAP4 DUP13 PUSH2 0x1644 JUMP JUMPDEST POP RETURNDATASIZE PUSH2 0x18B1 JUMP JUMPDEST DUP10 MLOAD RETURNDATASIZE DUP5 DUP3 RETURNDATACOPY RETURNDATASIZE SWAP1 REVERT JUMPDEST DUP1 SWAP3 POP DUP10 DUP1 SWAP3 POP RETURNDATASIZE DUP4 GT PUSH2 0x1911 JUMPI JUMPDEST PUSH2 0x18F7 DUP2 DUP4 PUSH2 0x204F JUMP JUMPDEST DUP2 ADD SUB SLT PUSH2 0xA39 JUMPI MLOAD DUP5 DUP2 AND DUP2 SUB PUSH2 0xA39 JUMPI DUP5 SWAP1 DUP11 PUSH2 0x160D JUMP JUMPDEST POP RETURNDATASIZE PUSH2 0x18ED JUMP JUMPDEST DUP8 MLOAD RETURNDATASIZE DUP12 DUP3 RETURNDATACOPY RETURNDATASIZE SWAP1 REVERT JUMPDEST DUP7 MLOAD PUSH4 0x6A9FF79F PUSH1 0xE1 SHL DUP2 MSTORE DUP1 DUP5 ADD DUP8 SWAP1 MSTORE PUSH1 0x24 SWAP1 REVERT JUMPDEST DUP6 MLOAD PUSH3 0x461BCD PUSH1 0xE5 SHL DUP2 MSTORE DUP1 DUP9 ADD DUP5 SWAP1 MSTORE PUSH1 0x22 PUSH1 0x24 DUP3 ADD MSTORE PUSH32 0x45524332303A206275726E20616D6F756E7420657863656564732062616C616E PUSH1 0x44 DUP3 ADD MSTORE PUSH2 0x6365 PUSH1 0xF0 SHL PUSH1 0x64 DUP3 ADD MSTORE PUSH1 0x84 SWAP1 REVERT JUMPDEST DUP5 MLOAD PUSH3 0x461BCD PUSH1 0xE5 SHL DUP2 MSTORE DUP1 DUP8 ADD DUP4 SWAP1 MSTORE PUSH1 0x21 PUSH1 0x24 DUP3 ADD MSTORE PUSH32 0x45524332303A206275726E2066726F6D20746865207A65726F20616464726573 PUSH1 0x44 DUP3 ADD MSTORE PUSH1 0x73 PUSH1 0xF8 SHL PUSH1 0x64 DUP3 ADD MSTORE PUSH1 0x84 SWAP1 REVERT JUMPDEST DUP3 MLOAD PUSH3 0x461BCD PUSH1 0xE5 SHL DUP2 MSTORE DUP1 DUP6 ADD DUP8 SWAP1 MSTORE PUSH1 0x13 PUSH1 0x24 DUP3 ADD MSTORE PUSH19 0x4E6F7420656E6F756768742062616C616E6365 PUSH1 0x68 SHL PUSH1 0x44 DUP3 ADD MSTORE PUSH1 0x64 SWAP1 REVERT JUMPDEST DUP3 MLOAD PUSH3 0x461BCD PUSH1 0xE5 SHL DUP2 MSTORE DUP1 DUP6 ADD DUP8 SWAP1 MSTORE PUSH1 0x12 PUSH1 0x24 DUP3 ADD MSTORE PUSH18 0x4E6F6465206973206E6F7420416374697665 PUSH1 0x70 SHL PUSH1 0x44 DUP3 ADD MSTORE PUSH1 0x64 SWAP1 REVERT JUMPDEST POP DUP3 SWAP1 CALLVALUE PUSH2 0x286 JUMPI PUSH1 0x60 CALLDATASIZE PUSH1 0x3 NOT ADD SLT PUSH2 0x286 JUMPI PUSH2 0x1A61 PUSH2 0x1F1A JUMP JUMPDEST PUSH2 0x1A69 PUSH2 0x1F30 JUMP JUMPDEST PUSH1 0x1 PUSH1 0x1 PUSH1 0xA0 SHL SUB DUP3 AND DUP5 MSTORE PUSH1 0x3 PUSH1 0x20 SWAP1 DUP2 MSTORE DUP6 DUP6 KECCAK256 CALLER DUP7 MSTORE SWAP1 MSTORE SWAP3 DUP5 SWAP1 KECCAK256 SLOAD PUSH1 0x44 CALLDATALOAD SWAP4 SWAP3 PUSH1 0x1 DUP3 ADD PUSH2 0x1AA5 JUMPI JUMPDEST PUSH1 0x20 DUP7 PUSH2 0x423 DUP8 DUP8 DUP8 PUSH2 0x2419 JUMP JUMPDEST DUP5 DUP3 LT PUSH2 0x1ACE JUMPI POP SWAP2 DUP4 SWAP2 PUSH2 0x1AC3 PUSH1 0x20 SWAP7 SWAP6 PUSH2 0x423 SWAP6 SUB CALLER DUP4 PUSH2 0x262D JUMP JUMPDEST SWAP2 SWAP4 SWAP5 DUP2 SWAP4 POP PUSH2 0x1A97 JUMP JUMPDEST PUSH1 0x64 SWAP1 PUSH1 0x20 DUP8 MLOAD SWAP2 PUSH3 0x461BCD PUSH1 0xE5 SHL DUP4 MSTORE DUP3 ADD MSTORE PUSH1 0x1D PUSH1 0x24 DUP3 ADD MSTORE PUSH32 0x45524332303A20696E73756666696369656E7420616C6C6F77616E6365000000 PUSH1 0x44 DUP3 ADD MSTORE REVERT JUMPDEST POP POP CALLVALUE PUSH2 0x286 JUMPI DUP1 PUSH1 0x3 NOT CALLDATASIZE ADD SLT PUSH2 0x286 JUMPI PUSH1 0x20 SWAP1 PUSH2 0x1B3F PUSH2 0x1B31 PUSH2 0x1F1A JUMP JUMPDEST PUSH2 0x1B39 PUSH2 0x1F30 JUMP JUMPDEST SWAP1 PUSH2 0x2227 JUMP JUMPDEST SWAP1 MLOAD SWAP1 ISZERO ISZERO DUP2 MSTORE RETURN JUMPDEST POP CALLVALUE PUSH2 0x263 JUMPI DUP3 PUSH1 0x3 NOT CALLDATASIZE ADD SLT PUSH2 0x263 JUMPI PUSH1 0x20 SWAP3 POP SLOAD SWAP1 MLOAD SWAP1 DUP2 MSTORE RETURN JUMPDEST POP POP CALLVALUE PUSH2 0x286 JUMPI DUP2 PUSH1 0x3 NOT CALLDATASIZE ADD SLT PUSH2 0x286 JUMPI PUSH1 0x20 SWAP1 PUSH1 0x1 PUSH1 0x1 PUSH1 0x40 SHL SUB PUSH2 0x1B8A PUSH2 0x23C3 JUMP JUMPDEST SWAP2 MLOAD SWAP2 AND DUP2 MSTORE RETURN JUMPDEST POP CALLVALUE PUSH2 0x263 JUMPI PUSH1 0x60 CALLDATASIZE PUSH1 0x3 NOT ADD SLT PUSH2 0x263 JUMPI PUSH2 0x1BAC PUSH2 0x1F1A JUMP JUMPDEST SWAP1 PUSH1 0x24 CALLDATALOAD PUSH1 0x1 PUSH1 0x1 PUSH1 0x40 SHL SUB DUP2 AND DUP2 SUB PUSH2 0x8C5 JUMPI PUSH1 0x44 CALLDATALOAD SWAP3 DUP4 ISZERO ISZERO SWAP3 DUP4 DUP6 SUB PUSH2 0xA45 JUMPI PUSH2 0x1BD7 PUSH2 0x27E0 JUMP JUMPDEST PUSH1 0xFF PUSH1 0x7 SLOAD PUSH1 0xA8 SHR AND ISZERO PUSH2 0x1C52 JUMPI POP SWAP1 PUSH1 0x1 SWAP2 DUP3 DUP1 PUSH1 0xA0 SHL SUB AND SWAP5 DUP6 DUP8 MSTORE PUSH1 0xB PUSH1 0x20 MSTORE DUP7 KECCAK256 SWAP3 PUSH2 0xFF00 PUSH10 0xFFFFFFFFFFFFFFFF0000 DUP6 SLOAD SWAP4 PUSH1 0x10 SHL AND SWAP3 PUSH10 0xFFFFFFFFFFFFFFFFFFFF NOT AND SWAP2 PUSH1 0x8 SHL AND OR OR OR SWAP1 SSTORE PUSH2 0x1C32 JUMPI POP DUP1 RETURN JUMPDEST PUSH1 0x1 PUSH1 0x1 PUSH1 0x60 SHL SUB PUSH1 0xA0 SHL DUP2 DUP2 PUSH1 0x8 SLOAD AND OR PUSH1 0x8 SSTORE PUSH1 0x9 SLOAD AND OR PUSH1 0x9 SSTORE DUP1 RETURN JUMPDEST PUSH1 0x64 SWAP1 PUSH1 0x20 DUP8 MLOAD SWAP2 PUSH3 0x461BCD PUSH1 0xE5 SHL DUP4 MSTORE DUP3 ADD MSTORE PUSH1 0x15 PUSH1 0x24 DUP3 ADD MSTORE PUSH21 0x139BC81B5BDC99481B9BD9195CC8185B1B1BDDD959 PUSH1 0x5A SHL PUSH1 0x44 DUP3 ADD MSTORE REVERT JUMPDEST POP POP CALLVALUE PUSH2 0x286 JUMPI DUP1 PUSH1 0x3 NOT CALLDATASIZE ADD SLT PUSH2 0x286 JUMPI PUSH1 0x20 SWAP1 PUSH2 0x423 PUSH2 0x1CAD PUSH2 0x1F1A JUMP JUMPDEST PUSH1 0x24 CALLDATALOAD SWAP1 CALLER PUSH2 0x262D JUMP JUMPDEST POP DUP3 SWAP1 CALLVALUE PUSH2 0x286 JUMPI PUSH2 0x1CC8 CALLDATASIZE PUSH2 0x1F86 JUMP JUMPDEST SWAP4 SWAP1 SWAP2 CALLER DUP7 MSTORE PUSH1 0xB PUSH1 0x20 MSTORE PUSH2 0x1D10 PUSH1 0x1 PUSH1 0x1 PUSH1 0x40 SHL SUB DUP1 DUP10 DUP10 KECCAK256 SLOAD PUSH1 0x10 SHR AND SWAP1 PUSH32 0x0 AND EQ PUSH2 0x20C6 JUMP JUMPDEST CALLER DUP7 MSTORE PUSH1 0xB PUSH1 0x20 MSTORE PUSH1 0xFF DUP8 DUP8 KECCAK256 SLOAD AND ISZERO PUSH2 0x1D4C JUMPI PUSH1 0x5 SWAP5 SWAP6 SWAP7 CALLER DUP9 MSTORE PUSH1 0xB PUSH1 0x20 MSTORE DUP8 KECCAK256 SWAP4 TIMESTAMP PUSH1 0x1 DUP7 ADD SSTORE PUSH1 0x2 DUP6 ADD SSTORE PUSH1 0x3 DUP5 ADD SSTORE DUP3 ADD SSTORE ADD SSTORE DUP1 RETURN JUMPDEST DUP7 MLOAD PUSH4 0x6A9FF79F PUSH1 0xE1 SHL DUP2 MSTORE CALLER DUP2 DUP5 ADD MSTORE PUSH1 0x24 SWAP1 REVERT JUMPDEST POP SWAP2 CALLVALUE PUSH2 0x4D0 JUMPI DUP1 PUSH1 0x3 NOT CALLDATASIZE ADD SLT PUSH2 0x4D0 JUMPI DUP2 MLOAD SWAP2 DUP2 PUSH1 0x5 SLOAD SWAP3 PUSH1 0x1 DUP5 DUP2 SHR SWAP2 DUP2 DUP7 AND SWAP6 DUP7 ISZERO PUSH2 0x1E25 JUMPI JUMPDEST PUSH1 0x20 SWAP7 DUP8 DUP6 LT DUP2 EQ PUSH2 0x680 JUMPI DUP9 SWAP10 POP SWAP7 DUP9 SWAP7 SWAP8 DUP6 DUP3 SWAP11 MSTORE SWAP2 DUP3 PUSH1 0x0 EQ PUSH2 0x659 JUMPI POP POP PUSH1 0x1 EQ PUSH2 0x1DC9 JUMPI POP POP POP PUSH2 0x5F9 SWAP3 SWAP2 PUSH2 0x5EA SWAP2 SUB DUP6 PUSH2 0x204F JUMP JUMPDEST SWAP2 SWAP1 DUP7 SWAP4 POP PUSH1 0x5 DUP4 MSTORE PUSH32 0x36B6384B5ECA791C62761152D0C79BB0604C104A5FB6F4EB0703F3154BB3DB0 JUMPDEST DUP3 DUP5 LT PUSH2 0x1E0D JUMPI POP POP POP DUP3 ADD ADD DUP2 PUSH2 0x5EA PUSH2 0x5F9 PUSH2 0x5D7 JUMP JUMPDEST DUP1 SLOAD DUP5 DUP11 ADD DUP7 ADD MSTORE DUP9 SWAP6 POP DUP8 SWAP5 SWAP1 SWAP4 ADD SWAP3 DUP2 ADD PUSH2 0x1DF4 JUMP JUMPDEST SWAP3 PUSH1 0x7F AND SWAP3 PUSH2 0x1D8D JUMP JUMPDEST POP CALLVALUE PUSH2 0x263 JUMPI DUP2 PUSH1 0x3 NOT CALLDATASIZE ADD SLT PUSH2 0x263 JUMPI PUSH2 0x1E48 PUSH2 0x1F1A JUMP JUMPDEST SWAP2 CALLER DUP5 MSTORE PUSH1 0xB PUSH1 0x20 MSTORE PUSH2 0x1E8E PUSH1 0x1 PUSH1 0x1 PUSH1 0x40 SHL SUB DUP1 DUP4 DUP8 KECCAK256 SLOAD PUSH1 0x10 SHR AND SWAP1 PUSH32 0x0 AND EQ PUSH2 0x20C6 JUMP JUMPDEST CALLER DUP5 MSTORE PUSH1 0xB PUSH1 0x20 MSTORE PUSH1 0xFF DUP2 DUP6 KECCAK256 SLOAD AND ISZERO PUSH2 0x1EAF JUMPI DUP4 PUSH2 0x8C2 PUSH1 0x24 CALLDATALOAD DUP6 PUSH2 0x2589 JUMP JUMPDEST PUSH1 0x24 SWAP3 POP MLOAD SWAP1 PUSH4 0x6A9FF79F PUSH1 0xE1 SHL DUP3 MSTORE CALLER SWAP1 DUP3 ADD MSTORE REVERT JUMPDEST SWAP3 POP POP CALLVALUE PUSH2 0x263 JUMPI PUSH1 0x20 CALLDATASIZE PUSH1 0x3 NOT ADD SLT PUSH2 0x263 JUMPI CALLDATALOAD PUSH4 0xFFFFFFFF PUSH1 0xE0 SHL DUP2 AND DUP1 SWAP2 SUB PUSH2 0x263 JUMPI PUSH1 0x20 SWAP3 POP PUSH4 0x85572FFB PUSH1 0xE0 SHL DUP2 EQ SWAP1 DUP2 ISZERO PUSH2 0x1F09 JUMPI JUMPDEST POP ISZERO ISZERO DUP2 MSTORE RETURN JUMPDEST PUSH4 0x1FFC9A7 PUSH1 0xE0 SHL EQ SWAP1 POP CODESIZE PUSH2 0x1F02 JUMP JUMPDEST PUSH1 0x4 CALLDATALOAD SWAP1 PUSH1 0x1 PUSH1 0x1 PUSH1 0xA0 SHL SUB DUP3 AND DUP3 SUB PUSH2 0xAD9 JUMPI JUMP JUMPDEST PUSH1 0x24 CALLDATALOAD SWAP1 PUSH1 0x1 PUSH1 0x1 PUSH1 0xA0 SHL SUB DUP3 AND DUP3 SUB PUSH2 0xAD9 JUMPI JUMP JUMPDEST SWAP2 SWAP1 DUP3 MLOAD SWAP3 DUP4 DUP3 MSTORE PUSH1 0x0 JUMPDEST DUP5 DUP2 LT PUSH2 0x1F72 JUMPI POP POP DUP3 PUSH1 0x0 PUSH1 0x20 DUP1 SWAP5 SWAP6 DUP5 ADD ADD MSTORE PUSH1 0x1F DUP1 NOT SWAP2 ADD AND ADD ADD SWAP1 JUMP JUMPDEST PUSH1 0x20 DUP2 DUP4 ADD DUP2 ADD MLOAD DUP5 DUP4 ADD DUP3 ADD MSTORE ADD PUSH2 0x1F51 JUMP JUMPDEST PUSH1 0x80 SWAP1 PUSH1 0x3 NOT ADD SLT PUSH2 0xAD9 JUMPI PUSH1 0x4 CALLDATALOAD SWAP1 PUSH1 0x24 CALLDATALOAD SWAP1 PUSH1 0x44 CALLDATALOAD SWAP1 PUSH1 0x64 CALLDATALOAD SWAP1 JUMP JUMPDEST PUSH1 0x4 CALLDATALOAD SWAP1 PUSH1 0x1 PUSH1 0x1 PUSH1 0x40 SHL SUB DUP3 AND DUP3 SUB PUSH2 0xAD9 JUMPI JUMP JUMPDEST PUSH1 0xA0 DUP2 ADD SWAP1 DUP2 LT PUSH1 0x1 PUSH1 0x1 PUSH1 0x40 SHL SUB DUP3 GT OR PUSH2 0x1FD5 JUMPI PUSH1 0x40 MSTORE JUMP JUMPDEST PUSH4 0x4E487B71 PUSH1 0xE0 SHL PUSH1 0x0 MSTORE PUSH1 0x41 PUSH1 0x4 MSTORE PUSH1 0x24 PUSH1 0x0 REVERT JUMPDEST PUSH1 0x20 DUP2 ADD SWAP1 DUP2 LT PUSH1 0x1 PUSH1 0x1 PUSH1 0x40 SHL SUB DUP3 GT OR PUSH2 0x1FD5 JUMPI PUSH1 0x40 MSTORE JUMP JUMPDEST PUSH1 0x1 PUSH1 0x1 PUSH1 0x40 SHL SUB DUP2 GT PUSH2 0x1FD5 JUMPI PUSH1 0x40 MSTORE JUMP JUMPDEST PUSH1 0x40 DUP2 ADD SWAP1 DUP2 LT PUSH1 0x1 PUSH1 0x1 PUSH1 0x40 SHL SUB DUP3 GT OR PUSH2 0x1FD5 JUMPI PUSH1 0x40 MSTORE JUMP JUMPDEST PUSH1 0x80 DUP2 ADD SWAP1 DUP2 LT PUSH1 0x1 PUSH1 0x1 PUSH1 0x40 SHL SUB DUP3 GT OR PUSH2 0x1FD5 JUMPI PUSH1 0x40 MSTORE JUMP JUMPDEST SWAP1 PUSH1 0x1F DUP1 NOT SWAP2 ADD AND DUP2 ADD SWAP1 DUP2 LT PUSH1 0x1 PUSH1 0x1 PUSH1 0x40 SHL SUB DUP3 GT OR PUSH2 0x1FD5 JUMPI PUSH1 0x40 MSTORE JUMP JUMPDEST DUP2 PUSH1 0x1F DUP3 ADD SLT ISZERO PUSH2 0xAD9 JUMPI DUP1 CALLDATALOAD SWAP1 PUSH1 0x1 PUSH1 0x1 PUSH1 0x40 SHL SUB DUP3 GT PUSH2 0x1FD5 JUMPI PUSH1 0x40 MLOAD SWAP3 PUSH2 0x20A4 PUSH1 0x1F DUP5 ADD PUSH1 0x1F NOT AND PUSH1 0x20 ADD DUP6 PUSH2 0x204F JUMP JUMPDEST DUP3 DUP5 MSTORE PUSH1 0x20 DUP4 DUP4 ADD ADD GT PUSH2 0xAD9 JUMPI DUP2 PUSH1 0x0 SWAP3 PUSH1 0x20 DUP1 SWAP4 ADD DUP4 DUP7 ADD CALLDATACOPY DUP4 ADD ADD MSTORE SWAP1 JUMP JUMPDEST ISZERO PUSH2 0x20CD JUMPI JUMP JUMPDEST PUSH1 0x40 MLOAD PUSH3 0x461BCD PUSH1 0xE5 SHL DUP2 MSTORE PUSH1 0x20 PUSH1 0x4 DUP3 ADD MSTORE PUSH1 0x25 PUSH1 0x24 DUP3 ADD MSTORE PUSH32 0x52657175697265206D617374657220616E64206E6F646520696E2073616D6520 PUSH1 0x44 DUP3 ADD MSTORE PUSH5 0x31B430B4B7 PUSH1 0xD9 SHL PUSH1 0x64 DUP3 ADD MSTORE PUSH1 0x84 SWAP1 REVERT JUMPDEST SWAP1 PUSH1 0x1 PUSH1 0x1 PUSH1 0x40 SHL SUB SWAP1 SWAP4 SWAP3 SWAP4 AND DUP2 MSTORE PUSH1 0x40 PUSH1 0x20 SWAP2 DUP2 DUP4 DUP3 ADD MSTORE PUSH2 0x214F DUP6 MLOAD PUSH1 0xA0 DUP5 DUP5 ADD MSTORE PUSH1 0xE0 DUP4 ADD SWAP1 PUSH2 0x1F46 JUMP JUMPDEST SWAP2 PUSH2 0x216B DUP5 DUP8 ADD MLOAD SWAP4 PUSH1 0x3F NOT SWAP5 DUP6 DUP6 DUP4 SUB ADD PUSH1 0x60 DUP7 ADD MSTORE PUSH2 0x1F46 JUMP JUMPDEST DUP2 DUP8 ADD MLOAD SWAP5 DUP5 DUP5 DUP4 SUB ADD PUSH1 0x80 DUP6 ADD MSTORE DUP1 DUP1 DUP8 MLOAD SWAP4 DUP5 DUP2 MSTORE ADD SWAP7 ADD SWAP3 PUSH1 0x0 SWAP1 JUMPDEST DUP4 DUP3 LT PUSH2 0x21C3 JUMPI POP POP POP POP POP PUSH1 0xC0 PUSH1 0x80 PUSH2 0x21C0 SWAP6 SWAP7 PUSH1 0x1 DUP1 PUSH1 0xA0 SHL SUB PUSH1 0x60 DUP3 ADD MLOAD AND PUSH1 0xA0 DUP6 ADD MSTORE ADD MLOAD SWAP3 DUP3 DUP6 SUB ADD SWAP2 ADD MSTORE PUSH2 0x1F46 JUMP JUMPDEST SWAP1 JUMP JUMPDEST DUP5 MLOAD DUP1 MLOAD PUSH1 0x1 PUSH1 0x1 PUSH1 0xA0 SHL SUB AND DUP10 MSTORE DUP4 ADD MLOAD DUP9 DUP5 ADD MSTORE SWAP7 DUP8 ADD SWAP7 SWAP4 DUP3 ADD SWAP4 PUSH1 0x1 SWAP1 SWAP2 ADD SWAP1 PUSH2 0x218A JUMP JUMPDEST SWAP1 DUP2 PUSH1 0x20 SWAP2 SUB SLT PUSH2 0xAD9 JUMPI MLOAD DUP1 ISZERO ISZERO DUP2 SUB PUSH2 0xAD9 JUMPI SWAP1 JUMP JUMPDEST SWAP2 SWAP1 DUP3 ADD DUP1 SWAP3 GT PUSH2 0x2211 JUMPI JUMP JUMPDEST PUSH4 0x4E487B71 PUSH1 0xE0 SHL PUSH1 0x0 MSTORE PUSH1 0x11 PUSH1 0x4 MSTORE PUSH1 0x24 PUSH1 0x0 REVERT JUMPDEST PUSH1 0x1 DUP1 PUSH1 0xA0 SHL SUB DUP1 SWAP3 AND SWAP2 PUSH1 0x0 DUP4 DUP2 MSTORE PUSH1 0xB SWAP1 PUSH1 0x20 SWAP2 DUP1 DUP4 MSTORE PUSH1 0x40 SWAP3 DUP4 DUP4 KECCAK256 SWAP5 PUSH2 0x2267 PUSH1 0x2 DUP8 ADD SLOAD PUSH1 0x3 DUP9 ADD SLOAD SWAP8 PUSH1 0x4 SWAP9 PUSH1 0x5 DUP11 DUP4 ADD SLOAD SWAP3 ADD SLOAD SWAP3 PUSH2 0x2788 JUMP JUMPDEST SWAP7 PUSH1 0xA SLOAD PUSH3 0x15180 DUP2 ADD DUP1 SWAP2 GT PUSH2 0x233F JUMPI TIMESTAMP GT SWAP9 DUP10 PUSH2 0x23A5 JUMPI JUMPDEST DUP10 PUSH2 0x238D JUMPI JUMPDEST DUP10 PUSH2 0x2377 JUMPI JUMPDEST DUP10 PUSH2 0x2352 JUMPI JUMPDEST DUP10 PUSH2 0x231C JUMPI JUMPDEST DUP10 PUSH2 0x2303 JUMPI JUMPDEST DUP10 PUSH2 0x22EB JUMPI JUMPDEST POP DUP9 PUSH2 0x22D4 JUMPI JUMPDEST DUP9 PUSH2 0x22BD JUMPI JUMPDEST POP POP POP POP POP POP POP POP SWAP1 JUMP JUMPDEST AND DUP4 MSTORE MSTORE KECCAK256 ADD SLOAD LT SWAP1 POP CODESIZE DUP1 DUP1 DUP1 DUP1 DUP1 DUP1 DUP1 PUSH2 0x22B2 JUMP JUMPDEST DUP2 DUP2 AND DUP6 MSTORE DUP4 DUP4 MSTORE DUP6 DUP6 KECCAK256 DUP8 ADD SLOAD ISZERO ISZERO SWAP9 POP PUSH2 0x22AC JUMP JUMPDEST DUP6 MSTORE DUP4 DUP4 MSTORE DUP6 DUP6 KECCAK256 SLOAD PUSH1 0x8 SHR PUSH1 0xFF AND ISZERO SWAP9 POP CODESIZE PUSH2 0x22A5 JUMP JUMPDEST DUP1 DUP7 MSTORE DUP5 DUP5 MSTORE DUP7 DUP7 KECCAK256 SLOAD PUSH1 0xFF AND ISZERO ISZERO PUSH1 0x1 EQ SWAP10 POP PUSH2 0x229F JUMP JUMPDEST DUP1 SWAP10 POP DUP6 MSTORE DUP4 DUP4 MSTORE PUSH1 0x1 DUP7 DUP7 KECCAK256 ADD SLOAD PUSH2 0xE10 DUP2 ADD DUP1 SWAP2 GT PUSH2 0x233F JUMPI TIMESTAMP LT SWAP9 PUSH2 0x2299 JUMP JUMPDEST PUSH4 0x4E487B71 PUSH1 0xE0 SHL DUP7 MSTORE PUSH1 0x11 DUP9 MSTORE PUSH1 0x24 DUP7 REVERT JUMPDEST SWAP9 POP DUP2 DUP2 AND DUP6 MSTORE DUP4 DUP4 MSTORE PUSH1 0x1 DUP7 DUP7 KECCAK256 ADD SLOAD PUSH2 0xE10 DUP2 ADD DUP1 SWAP2 GT PUSH2 0x233F JUMPI TIMESTAMP LT SWAP9 PUSH2 0x2293 JUMP JUMPDEST DUP1 DUP7 MSTORE DUP5 DUP5 MSTORE DUP7 DUP7 KECCAK256 PUSH1 0x1 ADD SLOAD ISZERO ISZERO SWAP10 POP PUSH2 0x228D JUMP JUMPDEST DUP2 DUP4 AND DUP7 MSTORE DUP5 DUP5 MSTORE DUP7 DUP7 KECCAK256 PUSH1 0x1 ADD SLOAD ISZERO ISZERO SWAP10 POP PUSH2 0x2287 JUMP JUMPDEST DUP2 DUP4 AND DUP7 MSTORE DUP5 DUP5 MSTORE DUP7 DUP7 KECCAK256 SLOAD PUSH1 0x8 SHR PUSH1 0xFF AND ISZERO ISZERO PUSH1 0x1 EQ SWAP10 POP PUSH2 0x2281 JUMP JUMPDEST PUSH1 0x9 SLOAD PUSH1 0x1 PUSH1 0x1 PUSH1 0xA0 SHL SUB SWAP1 DUP2 AND SWAP1 DUP2 ISZERO PUSH2 0x23F6 JUMPI POP PUSH1 0x0 MSTORE PUSH1 0xB PUSH1 0x20 MSTORE PUSH1 0x1 PUSH1 0x1 PUSH1 0x40 SHL SUB PUSH1 0x40 PUSH1 0x0 KECCAK256 SLOAD PUSH1 0x10 SHR AND SWAP1 JUMP JUMPDEST SWAP1 POP PUSH1 0x8 SLOAD AND PUSH1 0x0 MSTORE PUSH1 0xB PUSH1 0x20 MSTORE PUSH1 0x1 PUSH1 0x1 PUSH1 0x40 SHL SUB PUSH1 0x40 PUSH1 0x0 KECCAK256 SLOAD PUSH1 0x10 SHR AND SWAP1 JUMP JUMPDEST PUSH1 0x1 PUSH1 0x1 PUSH1 0xA0 SHL SUB SWAP1 DUP2 AND SWAP2 DUP3 ISZERO PUSH2 0x2536 JUMPI AND SWAP2 DUP3 ISZERO PUSH2 0x24E5 JUMPI PUSH1 0x0 DUP3 DUP2 MSTORE PUSH1 0x2 PUSH1 0x20 MSTORE PUSH1 0x40 DUP2 KECCAK256 SLOAD SWAP2 DUP1 DUP4 LT PUSH2 0x2491 JUMPI PUSH1 0x40 DUP3 DUP3 PUSH32 0xDDF252AD1BE2C89B69C2B068FC378DAA952BA7F163C4A11628F55A4DF523B3EF SWAP6 DUP8 PUSH1 0x20 SWAP7 MSTORE PUSH1 0x2 DUP7 MSTORE SUB DUP3 DUP3 KECCAK256 SSTORE DUP7 DUP2 MSTORE KECCAK256 DUP2 DUP2 SLOAD ADD SWAP1 SSTORE PUSH1 0x40 MLOAD SWAP1 DUP2 MSTORE LOG3 JUMP JUMPDEST PUSH1 0x40 MLOAD PUSH3 0x461BCD PUSH1 0xE5 SHL DUP2 MSTORE PUSH1 0x20 PUSH1 0x4 DUP3 ADD MSTORE PUSH1 0x26 PUSH1 0x24 DUP3 ADD MSTORE PUSH32 0x45524332303A207472616E7366657220616D6F756E7420657863656564732062 PUSH1 0x44 DUP3 ADD MSTORE PUSH6 0x616C616E6365 PUSH1 0xD0 SHL PUSH1 0x64 DUP3 ADD MSTORE PUSH1 0x84 SWAP1 REVERT JUMPDEST PUSH1 0x40 MLOAD PUSH3 0x461BCD PUSH1 0xE5 SHL DUP2 MSTORE PUSH1 0x20 PUSH1 0x4 DUP3 ADD MSTORE PUSH1 0x23 PUSH1 0x24 DUP3 ADD MSTORE PUSH32 0x45524332303A207472616E7366657220746F20746865207A65726F2061646472 PUSH1 0x44 DUP3 ADD MSTORE PUSH3 0x657373 PUSH1 0xE8 SHL PUSH1 0x64 DUP3 ADD MSTORE PUSH1 0x84 SWAP1 REVERT JUMPDEST PUSH1 0x40 MLOAD PUSH3 0x461BCD PUSH1 0xE5 SHL DUP2 MSTORE PUSH1 0x20 PUSH1 0x4 DUP3 ADD MSTORE PUSH1 0x25 PUSH1 0x24 DUP3 ADD MSTORE PUSH32 0x45524332303A207472616E736665722066726F6D20746865207A65726F206164 PUSH1 0x44 DUP3 ADD MSTORE PUSH5 0x6472657373 PUSH1 0xD8 SHL PUSH1 0x64 DUP3 ADD MSTORE PUSH1 0x84 SWAP1 REVERT JUMPDEST PUSH1 0x1 PUSH1 0x1 PUSH1 0xA0 SHL SUB AND SWAP1 DUP2 ISZERO PUSH2 0x25E8 JUMPI PUSH32 0xDDF252AD1BE2C89B69C2B068FC378DAA952BA7F163C4A11628F55A4DF523B3EF PUSH1 0x20 DUP3 PUSH2 0x25CB PUSH1 0x0 SWAP5 PUSH1 0x4 SLOAD PUSH2 0x2204 JUMP JUMPDEST PUSH1 0x4 SSTORE DUP5 DUP5 MSTORE PUSH1 0x2 DUP3 MSTORE PUSH1 0x40 DUP5 KECCAK256 DUP2 DUP2 SLOAD ADD SWAP1 SSTORE PUSH1 0x40 MLOAD SWAP1 DUP2 MSTORE LOG3 JUMP JUMPDEST PUSH1 0x40 MLOAD PUSH3 0x461BCD PUSH1 0xE5 SHL DUP2 MSTORE PUSH1 0x20 PUSH1 0x4 DUP3 ADD MSTORE PUSH1 0x1F PUSH1 0x24 DUP3 ADD MSTORE PUSH32 0x45524332303A206D696E7420746F20746865207A65726F206164647265737300 PUSH1 0x44 DUP3 ADD MSTORE PUSH1 0x64 SWAP1 REVERT JUMPDEST PUSH1 0x1 PUSH1 0x1 PUSH1 0xA0 SHL SUB SWAP1 DUP2 AND SWAP2 DUP3 ISZERO PUSH2 0x26DE JUMPI AND SWAP2 DUP3 ISZERO PUSH2 0x268E JUMPI PUSH1 0x20 PUSH32 0x8C5BE1E5EBEC7D5BD14F71427D1E84F3DD0314C0F7B2291E5B200AC8C7C3B925 SWAP2 DUP4 PUSH1 0x0 MSTORE PUSH1 0x3 DUP3 MSTORE PUSH1 0x40 PUSH1 0x0 KECCAK256 DUP6 PUSH1 0x0 MSTORE DUP3 MSTORE DUP1 PUSH1 0x40 PUSH1 0x0 KECCAK256 SSTORE PUSH1 0x40 MLOAD SWAP1 DUP2 MSTORE LOG3 JUMP JUMPDEST PUSH1 0x40 MLOAD PUSH3 0x461BCD PUSH1 0xE5 SHL DUP2 MSTORE PUSH1 0x20 PUSH1 0x4 DUP3 ADD MSTORE PUSH1 0x22 PUSH1 0x24 DUP3 ADD MSTORE PUSH32 0x45524332303A20617070726F766520746F20746865207A65726F206164647265 PUSH1 0x44 DUP3 ADD MSTORE PUSH2 0x7373 PUSH1 0xF0 SHL PUSH1 0x64 DUP3 ADD MSTORE PUSH1 0x84 SWAP1 REVERT JUMPDEST PUSH1 0x40 MLOAD PUSH3 0x461BCD PUSH1 0xE5 SHL DUP2 MSTORE PUSH1 0x20 PUSH1 0x4 DUP3 ADD MSTORE PUSH1 0x24 DUP1 DUP3 ADD MSTORE PUSH32 0x45524332303A20617070726F76652066726F6D20746865207A65726F20616464 PUSH1 0x44 DUP3 ADD MSTORE PUSH4 0x72657373 PUSH1 0xE0 SHL PUSH1 0x64 DUP3 ADD MSTORE PUSH1 0x84 SWAP1 REVERT JUMPDEST MLOAD SWAP1 PUSH1 0x1 PUSH1 0x1 PUSH1 0xA0 SHL SUB DUP3 AND DUP3 SUB PUSH2 0xAD9 JUMPI JUMP JUMPDEST MLOAD SWAP1 PUSH1 0xFF DUP3 AND DUP3 SUB PUSH2 0xAD9 JUMPI JUMP JUMPDEST PUSH1 0x40 MLOAD SWAP1 PUSH4 0x97A657C9 PUSH1 0xE0 SHL PUSH1 0x20 DUP4 ADD MSTORE MLOAD PUSH1 0x24 DUP3 ADD MSTORE PUSH1 0x24 DUP2 MSTORE PUSH1 0x60 DUP2 ADD DUP2 DUP2 LT PUSH1 0x1 PUSH1 0x1 PUSH1 0x40 SHL SUB DUP3 GT OR PUSH2 0x1FD5 JUMPI PUSH1 0x40 MSTORE SWAP1 JUMP JUMPDEST SWAP3 PUSH2 0x2793 SWAP2 SWAP4 PUSH2 0x2204 JUMP JUMPDEST PUSH8 0xDE0B6B3A7640000 SWAP3 DUP4 DUP2 MUL SWAP1 DUP1 DUP3 DIV DUP6 EQ SWAP1 ISZERO OR ISZERO PUSH2 0x2211 JUMPI DUP2 ISZERO PUSH2 0x27CA JUMPI DIV SWAP1 DUP2 DUP2 MUL SWAP2 DUP2 DUP4 DIV EQ SWAP1 ISZERO OR ISZERO PUSH2 0x2211 JUMPI DIV SWAP1 JUMP JUMPDEST PUSH4 0x4E487B71 PUSH1 0xE0 SHL PUSH1 0x0 MSTORE PUSH1 0x12 PUSH1 0x4 MSTORE PUSH1 0x24 PUSH1 0x0 REVERT JUMPDEST PUSH1 0x0 SLOAD PUSH1 0x1 PUSH1 0x1 PUSH1 0xA0 SHL SUB AND CALLER SUB PUSH2 0x27F4 JUMPI JUMP JUMPDEST PUSH1 0x40 MLOAD PUSH3 0x461BCD PUSH1 0xE5 SHL DUP2 MSTORE PUSH1 0x20 PUSH1 0x4 DUP3 ADD MSTORE PUSH1 0x16 PUSH1 0x24 DUP3 ADD MSTORE PUSH22 0x27B7363C9031B0B63630B1363290313C9037BBB732B9 PUSH1 0x51 SHL PUSH1 0x44 DUP3 ADD MSTORE PUSH1 0x64 SWAP1 REVERT INVALID LOG2 PUSH5 0x6970667358 0x22 SLT KECCAK256 0x27 PUSH1 0xA 0xB7 0xA6 0xEC 0xB0 CALLER SWAP5 PUSH13 0xA31B6028E42733A962356B2A55 JUMP 0xF9 XOR 0xE2 EXTCODEHASH 0xF9 0xDE MLOAD 0xBE PUSH5 0x736F6C6343 STOP ADDMOD SGT STOP CALLER ",
  "sha1": "50547b538baf3e44459778cde52b221d0feba9c0",
  "source": "// SPDX-License-Identifier: MIT\npragma solidity 0.8.19;\n\nimport {IRouterClient} from \"@chainlink/contracts/src/v0.8/ccip/interfaces/IRouterClient.sol\";\nimport {OwnerIsCreator} from \"@chainlink/contracts/src/v0.8/shared/access/OwnerIsCreator.sol\";\nimport {Client} from \"@chainlink/contracts/src/v0.8/ccip/libraries/Client.sol\";\nimport {CCIPReceiver} from \"@chainlink/contracts/src/v0.8/ccip/applications/CCIPReceiver.sol\";\n\nimport {LinkTokenInterface} from \"@chainlink/contracts/src/v0.8/shared/interfaces/LinkTokenInterface.sol\";\n\nimport \"@openzeppelin/contracts/token/ERC20/ERC20.sol\";\nimport \"./utils_node/UtilsMasterNode.sol\";\n\n// Node interface\nimport \"../interfaces/INode.sol\";\n\n/// @title - A simple messenger contract for transferring/receiving tokens and data across chains.\ncontract MasterNode is CCIPReceiver, OwnerIsCreator, ERC20, UtilsMasterNode {\n    // Custom errors to provide more descriptive revert messages.\n    error NotEnoughBalance(uint256 currentBalance, uint256 calculatedFees); // Used to make sure contract has enough balance to cover the fees.\n    error NothingToWithdraw(); // Used when trying to withdraw Ether but there's nothing to withdraw.\n    error FailedToWithdrawEth(address owner, address target, uint256 value); // Used when the withdrawal of Ether fails.\n    error DestinationNodeNotValid(address nodeAddress); // Used when the destination address has not been allowlisted by the contract owner.\n    error SourceChainNotAllowed(uint64 sourceChainSelector); // Used when the source chain has not been allowlisted by the contract owner.\n    error SenderNotAllowed(address sender); // Used when the sender has not been allowlisted by the contract owner.\n    error InvalidReceiverAddress(); // Used when the receiver address is 0.\n\n    bool public isProtocolInTestMode = true;\n\n    LinkTokenInterface private s_linkToken;\n    uint64 public immutable MASTER_CONTRACT_CHAIN_ID;\n    bool public allowMoreNodes = true;\n    address public lastActiveNode;\n    address public activeNode;\n    uint256 public lastTimeWarped;\n\n    struct ValidNodes {\n        bool isValidNode;\n        bool isActiveNode;\n        uint64 chainCCIPid;\n        uint256 lastDataFromAave;\n        uint256 totalUsdcSupply;\n        uint256 totalUsdcBorrow;\n        uint256 supplyRate;\n        uint256 totalAusdcNode;\n    }\n\n    mapping(address => ValidNodes) public validNodes;\n\n    constructor(\n        address _router,\n        address _link,\n        uint64 _MASTER_CONTRACT_CHAIN_ID\n    ) CCIPReceiver(_router) ERC20(\"WarpYield\", \"aWRP\") {\n        s_linkToken = LinkTokenInterface(_link);\n        MASTER_CONTRACT_CHAIN_ID = _MASTER_CONTRACT_CHAIN_ID;\n    }\n\n    modifier onlyValidNodes(address nodeAddress) {\n        if (!validNodes[nodeAddress].isValidNode) {\n            revert DestinationNodeNotValid(nodeAddress);\n        }\n        _;\n    }\n\n    modifier masterAndNodeInSameChain() {\n        require(\n            validNodes[msg.sender].chainCCIPid == MASTER_CONTRACT_CHAIN_ID,\n            \"Require master and node in same chain\"\n        );\n        _;\n    }\n\n    function stopAddingNodes() external onlyOwner {\n        allowMoreNodes = false;\n    }\n\n    function addValidNode(\n        address nodeAddress,\n        uint64 chainCCIPid,\n        bool isActiveNode\n    ) external onlyOwner {\n        require(allowMoreNodes, \"No more nodes allowed\");\n        validNodes[nodeAddress].isValidNode = true;\n        validNodes[nodeAddress].isActiveNode = isActiveNode;\n        validNodes[nodeAddress].chainCCIPid = chainCCIPid;\n\n        if (isActiveNode) {\n            lastActiveNode = nodeAddress;\n            activeNode = nodeAddress;\n        }\n    }\n\n    /////////////////////////////////////////////////////////////////////////\n    ////////////////////  INCOMING DEPOSIT => MINT aWRP  ///////////////////\n    ////////////////////////  COMMAND == 0  ///////////////////////////////\n    //////////////////////////////////////////////////////////////////////\n\n    function _aWarpTokenMinter(\n        Client.Any2EVMMessage memory _any2EvmMessage\n    ) internal {\n        (, address userAddress, uint256 shares) = abi.decode(\n            _any2EvmMessage.data,\n            (uint8, address, uint256)\n        );\n\n        _mint(userAddress, shares);\n    }\n\n    ///////////////////  DEPOSIT, MASTER AND NODE IN SAME CHAIN  /////////////////\n\n    function aWarpTokenMinterFromSameChain(\n        address userAddress,\n        uint256 shares\n    ) external masterAndNodeInSameChain onlyValidNodes(msg.sender) {\n        _mint(userAddress, shares);\n    }\n\n    /////////////////////////////////////////////////////////////////////////\n    //////////////////////  RESUME PROTOCOL OPERATIONS  ////////////////////\n    ////////////////////////  COMMAND == 1  ///////////////////////////////\n    //////////////////////////////////////////////////////////////////////\n\n    function _resmumeOperations(\n        Client.Any2EVMMessage memory _any2EvmMessage\n    ) internal {\n        validNodes[abi.decode(_any2EvmMessage.sender, (address))]\n            .isActiveNode = true;\n\n        activeNode = abi.decode(_any2EvmMessage.sender, (address));\n    }\n\n    ///////////  RESUME OPERATIONS, MASTER AND NODE IN SAME CHAIN  //////////\n\n    function _resmumeOperationsFromSameChain()\n        external\n        masterAndNodeInSameChain\n        onlyValidNodes(msg.sender)\n    {\n        validNodes[msg.sender].isActiveNode = true;\n        activeNode = msg.sender;\n    }\n\n    /////////////////////////////////////////////////////////////////////////\n    /////////////////////////  DATA AAVE FROM NODE  ////////////////////////\n    ////////////////////////  COMMAND == 2  ///////////////////////////////\n    //////////////////////////////////////////////////////////////////////\n\n    function _nodeAaveFeed(\n        Client.Any2EVMMessage memory _any2EvmMessage\n    ) internal {\n        (\n            ,\n            uint256 totalUsdcSupply,\n            uint256 totalUsdcBorrow,\n            uint256 supplyRate,\n            uint256 totalAusdcNode\n        ) = abi.decode(\n                _any2EvmMessage.data,\n                (uint8, uint256, uint256, uint256, uint256)\n            );\n\n        validNodes[abi.decode(_any2EvmMessage.sender, (address))]\n            .lastDataFromAave = block.timestamp;\n        validNodes[abi.decode(_any2EvmMessage.sender, (address))]\n            .totalUsdcSupply = totalUsdcSupply;\n        validNodes[abi.decode(_any2EvmMessage.sender, (address))]\n            .totalUsdcBorrow = totalUsdcBorrow;\n        validNodes[abi.decode(_any2EvmMessage.sender, (address))]\n            .supplyRate = supplyRate;\n        validNodes[abi.decode(_any2EvmMessage.sender, (address))]\n            .totalAusdcNode = totalAusdcNode;\n    }\n\n    ////////////////  DATA AAVE, MASTER AND NODE IN SAME CHAIN  //////////////\n\n    function nodeAaveFeedFromSameChain(\n        uint256 totalUsdcSupply,\n        uint256 totalUsdcBorrow,\n        uint256 supplyRate,\n        uint256 totalAusdcNode\n    ) external masterAndNodeInSameChain onlyValidNodes(msg.sender) {\n        validNodes[msg.sender].lastDataFromAave = block.timestamp;\n        validNodes[msg.sender].totalUsdcSupply = totalUsdcSupply;\n        validNodes[msg.sender].totalUsdcBorrow = totalUsdcBorrow;\n        validNodes[msg.sender].supplyRate = supplyRate;\n        validNodes[msg.sender].totalAusdcNode = totalAusdcNode;\n    }\n\n    //////////////////////////////////////////////////////////////////////////\n    /////////////////////////////////////////////////////////////////////////\n    ////////////////////////  INCOMING MESAGE HANDLER  /////////////////////\n    /////////////////  THIS FUNC IS CALLED BY CHAINLINK  //////////////////\n    //////////////////////////////////////////////////////////////////////\n    /////////////////////////////////////////////////////////////////////\n\n    function _ccipReceive(\n        Client.Any2EVMMessage memory _any2EvmMessage\n    )\n        internal\n        override\n        onlyValidNodes(abi.decode(_any2EvmMessage.sender, (address)))\n    {\n        uint8 command = _internalCommandRouter(_any2EvmMessage);\n        if (command == 0) {\n            _aWarpTokenMinter(_any2EvmMessage);\n        } else if (command == 1) {\n            _resmumeOperations(_any2EvmMessage);\n        } else if (command == 2) {\n            _nodeAaveFeed(_any2EvmMessage);\n        } else {\n            revert(\"invalid command from Node\");\n        }\n    }\n\n    /////////////////////////////////////////////////////////////////////////\n    ////////////////////////////////////////////////////////////////////////\n    ///////////////////////  OUTGOING MESAGES HANDLER  ////////////////////\n    //////////////////////////////////////////////////////////////////////\n    /////////////////////////////////////////////////////////////////////\n\n    function _sendMessage(\n        uint64 _destinationChainSelector,\n        address _receiver,\n        bytes memory _data\n    ) internal onlyValidNodes(_receiver) returns (bytes32 messageId) {\n        // Create an EVM2AnyMessage struct in memory with necessary information for sending a cross-chain message\n        // address(linkToken) means fees are paid in LINK\n        Client.EVM2AnyMessage memory evm2AnyMessage = _buildCCIPMessage(\n            _receiver,\n            _data,\n            address(s_linkToken)\n        );\n\n        // Initialize a router client instance to interact with cross-chain router\n        IRouterClient router = IRouterClient(this.getRouter());\n\n        // Get the fee required to send the CCIP message\n        uint256 fees = router.getFee(_destinationChainSelector, evm2AnyMessage);\n\n        require(\n            s_linkToken.transferFrom(msg.sender, address(this), fees),\n            \"Not provided Link for fees\"\n        );\n\n        if (fees > s_linkToken.balanceOf(address(this)))\n            revert NotEnoughBalance(s_linkToken.balanceOf(address(this)), fees);\n\n        // approve the Router to transfer LINK tokens on contract's behalf. It will spend the fees in LINK\n        s_linkToken.approve(address(router), fees);\n\n        // Send the message through the router and store the returned message ID\n        messageId = router.ccipSend(_destinationChainSelector, evm2AnyMessage);\n\n        // Return the message ID\n        return messageId;\n    }\n\n    /// @notice Construct a CCIP message.\n    /// @dev This function will create an EVM2AnyMessage struct with all the necessary information for programmable tokens transfer.\n    /// @param _receiver The address of the receiver.\n    /// @param _data The bytes data to be sent.\n    /// @param _feeTokenAddress The address of the token used for fees. Set address(0) for native gas.\n    /// @return Client.EVM2AnyMessage Returns an EVM2AnyMessage struct which contains information for sending a CCIP message.\n    function _buildCCIPMessage(\n        address _receiver,\n        bytes memory _data,\n        address _feeTokenAddress\n    ) private pure returns (Client.EVM2AnyMessage memory) {\n        return\n            Client.EVM2AnyMessage({\n                receiver: abi.encode(_receiver), // ABI-encoded receiver address\n                data: _data, // ABI-encoded string\n                tokenAmounts: new Client.EVMTokenAmount[](0), // The amount and type of token being transferred\n                extraArgs: Client._argsToBytes(\n                    // Additional arguments, setting gas limit\n                    Client.EVMExtraArgsV1({gasLimit: 2_000_000})\n                ),\n                // Set the feeToken to a feeTokenAddress, indicating specific asset will be used for fees\n                feeToken: _feeTokenAddress\n            });\n    }\n\n    /// @notice Fallback function to allow the contract to receive Ether.\n    /// @dev This function has no function body, making it a default function for receiving Ether.\n    /// It is automatically called when Ether is sent to the contract without any data.\n    receive() external payable {}\n\n    /////////////////////////////////////////////////////////////////////////\n    ///////////////////////////////  WARP ASSETS  //////////////////////////\n    ///////////////////////////////////////////////////////////////////////\n\n    function warpAssets(\n        uint64 _destinationCCIPid,\n        address _destinationNodeAddress\n    ) external {\n        // in test mode no requirements to warp assets\n        if (!isProtocolInTestMode) {\n            require(\n                checkApprovedWarp(activeNode, _destinationNodeAddress),\n                \"Condition to warp not met\"\n            );\n        }\n        uint8 commandWarpAssets = 1;\n\n        bytes memory data = abi.encode(\n            commandWarpAssets,\n            _destinationCCIPid,\n            _destinationNodeAddress\n        );\n        validNodes[activeNode].isActiveNode = false;\n\n        if (validNodes[activeNode].chainCCIPid == MASTER_CONTRACT_CHAIN_ID) {\n            INode(activeNode).warpAssetsFromSameChain(\n                _destinationCCIPid,\n                _destinationNodeAddress\n            );\n        } else {\n            _sendMessage(validNodes[activeNode].chainCCIPid, activeNode, data);\n        }\n\n        lastActiveNode = activeNode;\n        activeNode = address(0);\n        lastTimeWarped = block.timestamp;\n    }\n\n    /////////////////////////////////////////////////////////////////////////\n    /////////////////////////////  WITHDRAW  ///////////////////////////////\n    ///////////////////////////////////////////////////////////////////////\n\n    function withdraw(uint256 shares) external {\n        require(validNodes[activeNode].isActiveNode, \"Node is not Active\");\n\n        require(shares <= balanceOf(msg.sender), \"Not enought balance\");\n\n        uint8 commandWitdraw = 0;\n\n        bytes memory data = abi.encode(commandWitdraw, msg.sender, shares);\n\n        _burn(msg.sender, shares);\n\n        if (validNodes[activeNode].chainCCIPid == MASTER_CONTRACT_CHAIN_ID) {\n            INode(activeNode).withdrawFromSameChain(msg.sender, shares);\n        } else {\n            _sendMessage(validNodes[activeNode].chainCCIPid, activeNode, data);\n        }\n    }\n\n    /////////////////////////////////////////////////////////////////////////\n    /////////////////////////////   UTILS   ////////////////////////////////\n    ///////////////////////////////////////////////////////////////////////\n\n    function checkApprovedWarp(\n        address _activeNode,\n        address destinationNode\n    ) public view returns (bool) {\n        //require 24 after last warp\n        uint256 newSupplyRate = calculateNewSupplyRates(\n            validNodes[destinationNode].totalUsdcSupply,\n            validNodes[destinationNode].totalUsdcBorrow,\n            validNodes[destinationNode].supplyRate,\n            validNodes[destinationNode].totalAusdcNode\n        );\n\n        return\n            lastTimeWarped + (3600 * 24) < block.timestamp &&\n            validNodes[_activeNode].isActiveNode == true &&\n            validNodes[_activeNode].lastDataFromAave > 0 &&\n            validNodes[destinationNode].lastDataFromAave > 0 &&\n            validNodes[_activeNode].lastDataFromAave + 3600 > block.timestamp &&\n            validNodes[destinationNode].lastDataFromAave + 3600 >\n            block.timestamp &&\n            validNodes[destinationNode].isValidNode == true &&\n            validNodes[destinationNode].isActiveNode == false &&\n            validNodes[_activeNode].supplyRate > 0 &&\n            validNodes[_activeNode].supplyRate < newSupplyRate;\n    }\n\n    // get ChainId from active node or last active node in case vault is warping, only for frontend, no impact in contract\n    function getChainIdFromActiveNode() external view returns (uint64) {\n        if (activeNode == address(0)) {\n            return validNodes[lastActiveNode].chainCCIPid;\n        }\n\n        return validNodes[activeNode].chainCCIPid;\n    }\n}\n",
  "sourcePath": "contracts/MasterNode.sol",
  "type": "contract"
}