{
  "abi": [
    {
      "inputs": [
        {
          "internalType": "address",
          "name": "_router",
          "type": "address"
        },
        {
          "internalType": "address",
          "name": "_link",
          "type": "address"
        },
        {
          "internalType": "uint64",
          "name": "_MASTER_CONTRACT_CHAIN_ID",
          "type": "uint64"
        }
      ],
      "stateMutability": "nonpayable",
      "type": "constructor"
    },
    {
      "inputs": [
        {
          "internalType": "address",
          "name": "nodeAddress",
          "type": "address"
        }
      ],
      "name": "DestinationNodeNotValid",
      "type": "error"
    },
    {
      "inputs": [
        {
          "internalType": "address",
          "name": "owner",
          "type": "address"
        },
        {
          "internalType": "address",
          "name": "target",
          "type": "address"
        },
        {
          "internalType": "uint256",
          "name": "value",
          "type": "uint256"
        }
      ],
      "name": "FailedToWithdrawEth",
      "type": "error"
    },
    {
      "inputs": [],
      "name": "InvalidReceiverAddress",
      "type": "error"
    },
    {
      "inputs": [
        {
          "internalType": "address",
          "name": "router",
          "type": "address"
        }
      ],
      "name": "InvalidRouter",
      "type": "error"
    },
    {
      "inputs": [
        {
          "internalType": "uint256",
          "name": "currentBalance",
          "type": "uint256"
        },
        {
          "internalType": "uint256",
          "name": "calculatedFees",
          "type": "uint256"
        }
      ],
      "name": "NotEnoughBalance",
      "type": "error"
    },
    {
      "inputs": [],
      "name": "NothingToWithdraw",
      "type": "error"
    },
    {
      "inputs": [
        {
          "internalType": "address",
          "name": "sender",
          "type": "address"
        }
      ],
      "name": "SenderNotAllowed",
      "type": "error"
    },
    {
      "inputs": [
        {
          "internalType": "uint64",
          "name": "sourceChainSelector",
          "type": "uint64"
        }
      ],
      "name": "SourceChainNotAllowed",
      "type": "error"
    },
    {
      "anonymous": false,
      "inputs": [
        {
          "indexed": true,
          "internalType": "address",
          "name": "owner",
          "type": "address"
        },
        {
          "indexed": true,
          "internalType": "address",
          "name": "spender",
          "type": "address"
        },
        {
          "indexed": false,
          "internalType": "uint256",
          "name": "value",
          "type": "uint256"
        }
      ],
      "name": "Approval",
      "type": "event"
    },
    {
      "anonymous": false,
      "inputs": [
        {
          "indexed": true,
          "internalType": "address",
          "name": "from",
          "type": "address"
        },
        {
          "indexed": true,
          "internalType": "address",
          "name": "to",
          "type": "address"
        }
      ],
      "name": "OwnershipTransferRequested",
      "type": "event"
    },
    {
      "anonymous": false,
      "inputs": [
        {
          "indexed": true,
          "internalType": "address",
          "name": "from",
          "type": "address"
        },
        {
          "indexed": true,
          "internalType": "address",
          "name": "to",
          "type": "address"
        }
      ],
      "name": "OwnershipTransferred",
      "type": "event"
    },
    {
      "anonymous": false,
      "inputs": [
        {
          "indexed": true,
          "internalType": "address",
          "name": "from",
          "type": "address"
        },
        {
          "indexed": true,
          "internalType": "address",
          "name": "to",
          "type": "address"
        },
        {
          "indexed": false,
          "internalType": "uint256",
          "name": "value",
          "type": "uint256"
        }
      ],
      "name": "Transfer",
      "type": "event"
    },
    {
      "inputs": [],
      "name": "MASTER_CONTRACT_CHAIN_ID",
      "outputs": [
        {
          "internalType": "uint64",
          "name": "",
          "type": "uint64"
        }
      ],
      "stateMutability": "view",
      "type": "function"
    },
    {
      "inputs": [],
      "name": "_resmumeOperationsFromSameChain",
      "outputs": [],
      "stateMutability": "nonpayable",
      "type": "function"
    },
    {
      "inputs": [
        {
          "internalType": "address",
          "name": "userAddress",
          "type": "address"
        },
        {
          "internalType": "uint256",
          "name": "shares",
          "type": "uint256"
        }
      ],
      "name": "aWarpTokenMinterFromSameChain",
      "outputs": [],
      "stateMutability": "nonpayable",
      "type": "function"
    },
    {
      "inputs": [],
      "name": "acceptOwnership",
      "outputs": [],
      "stateMutability": "nonpayable",
      "type": "function"
    },
    {
      "inputs": [],
      "name": "activeNode",
      "outputs": [
        {
          "internalType": "address",
          "name": "",
          "type": "address"
        }
      ],
      "stateMutability": "view",
      "type": "function"
    },
    {
      "inputs": [
        {
          "internalType": "address",
          "name": "nodeAddress",
          "type": "address"
        },
        {
          "internalType": "uint64",
          "name": "chainCCIPid",
          "type": "uint64"
        },
        {
          "internalType": "bool",
          "name": "isActiveNode",
          "type": "bool"
        }
      ],
      "name": "addValidNode",
      "outputs": [],
      "stateMutability": "nonpayable",
      "type": "function"
    },
    {
      "inputs": [],
      "name": "allowMoreNodes",
      "outputs": [
        {
          "internalType": "bool",
          "name": "",
          "type": "bool"
        }
      ],
      "stateMutability": "view",
      "type": "function"
    },
    {
      "inputs": [
        {
          "internalType": "address",
          "name": "owner",
          "type": "address"
        },
        {
          "internalType": "address",
          "name": "spender",
          "type": "address"
        }
      ],
      "name": "allowance",
      "outputs": [
        {
          "internalType": "uint256",
          "name": "",
          "type": "uint256"
        }
      ],
      "stateMutability": "view",
      "type": "function"
    },
    {
      "inputs": [
        {
          "internalType": "address",
          "name": "spender",
          "type": "address"
        },
        {
          "internalType": "uint256",
          "name": "amount",
          "type": "uint256"
        }
      ],
      "name": "approve",
      "outputs": [
        {
          "internalType": "bool",
          "name": "",
          "type": "bool"
        }
      ],
      "stateMutability": "nonpayable",
      "type": "function"
    },
    {
      "inputs": [
        {
          "internalType": "address",
          "name": "account",
          "type": "address"
        }
      ],
      "name": "balanceOf",
      "outputs": [
        {
          "internalType": "uint256",
          "name": "",
          "type": "uint256"
        }
      ],
      "stateMutability": "view",
      "type": "function"
    },
    {
      "inputs": [
        {
          "components": [
            {
              "internalType": "bytes32",
              "name": "messageId",
              "type": "bytes32"
            },
            {
              "internalType": "uint64",
              "name": "sourceChainSelector",
              "type": "uint64"
            },
            {
              "internalType": "bytes",
              "name": "sender",
              "type": "bytes"
            },
            {
              "internalType": "bytes",
              "name": "data",
              "type": "bytes"
            },
            {
              "components": [
                {
                  "internalType": "address",
                  "name": "token",
                  "type": "address"
                },
                {
                  "internalType": "uint256",
                  "name": "amount",
                  "type": "uint256"
                }
              ],
              "internalType": "struct Client.EVMTokenAmount[]",
              "name": "destTokenAmounts",
              "type": "tuple[]"
            }
          ],
          "internalType": "struct Client.Any2EVMMessage",
          "name": "message",
          "type": "tuple"
        }
      ],
      "name": "ccipReceive",
      "outputs": [],
      "stateMutability": "nonpayable",
      "type": "function"
    },
    {
      "inputs": [
        {
          "internalType": "address",
          "name": "_activeNode",
          "type": "address"
        },
        {
          "internalType": "address",
          "name": "destinationNode",
          "type": "address"
        }
      ],
      "name": "checkApprovedWarp",
      "outputs": [
        {
          "internalType": "bool",
          "name": "",
          "type": "bool"
        }
      ],
      "stateMutability": "view",
      "type": "function"
    },
    {
      "inputs": [],
      "name": "decimals",
      "outputs": [
        {
          "internalType": "uint8",
          "name": "",
          "type": "uint8"
        }
      ],
      "stateMutability": "view",
      "type": "function"
    },
    {
      "inputs": [
        {
          "internalType": "address",
          "name": "spender",
          "type": "address"
        },
        {
          "internalType": "uint256",
          "name": "subtractedValue",
          "type": "uint256"
        }
      ],
      "name": "decreaseAllowance",
      "outputs": [
        {
          "internalType": "bool",
          "name": "",
          "type": "bool"
        }
      ],
      "stateMutability": "nonpayable",
      "type": "function"
    },
    {
      "inputs": [],
      "name": "getChainIdFromActiveNode",
      "outputs": [
        {
          "internalType": "uint64",
          "name": "",
          "type": "uint64"
        }
      ],
      "stateMutability": "view",
      "type": "function"
    },
    {
      "inputs": [
        {
          "internalType": "uint64",
          "name": "destinationCCIPid",
          "type": "uint64"
        },
        {
          "internalType": "address",
          "name": "receiver",
          "type": "address"
        },
        {
          "internalType": "address",
          "name": "s_linkTokenAddress",
          "type": "address"
        },
        {
          "internalType": "address",
          "name": "routerAddress",
          "type": "address"
        },
        {
          "internalType": "bytes",
          "name": "_data",
          "type": "bytes"
        }
      ],
      "name": "getLinkFees",
      "outputs": [
        {
          "internalType": "uint256",
          "name": "",
          "type": "uint256"
        }
      ],
      "stateMutability": "view",
      "type": "function"
    },
    {
      "inputs": [],
      "name": "getRouter",
      "outputs": [
        {
          "internalType": "address",
          "name": "",
          "type": "address"
        }
      ],
      "stateMutability": "view",
      "type": "function"
    },
    {
      "inputs": [
        {
          "internalType": "address",
          "name": "spender",
          "type": "address"
        },
        {
          "internalType": "uint256",
          "name": "addedValue",
          "type": "uint256"
        }
      ],
      "name": "increaseAllowance",
      "outputs": [
        {
          "internalType": "bool",
          "name": "",
          "type": "bool"
        }
      ],
      "stateMutability": "nonpayable",
      "type": "function"
    },
    {
      "inputs": [],
      "name": "lastActiveNode",
      "outputs": [
        {
          "internalType": "address",
          "name": "",
          "type": "address"
        }
      ],
      "stateMutability": "view",
      "type": "function"
    },
    {
      "inputs": [],
      "name": "name",
      "outputs": [
        {
          "internalType": "string",
          "name": "",
          "type": "string"
        }
      ],
      "stateMutability": "view",
      "type": "function"
    },
    {
      "inputs": [
        {
          "internalType": "uint256",
          "name": "totalUsdcSupply",
          "type": "uint256"
        },
        {
          "internalType": "uint256",
          "name": "totalUsdcBorrow",
          "type": "uint256"
        },
        {
          "internalType": "uint256",
          "name": "supplyRate",
          "type": "uint256"
        }
      ],
      "name": "nodeAaveFeedFromSameChain",
      "outputs": [],
      "stateMutability": "nonpayable",
      "type": "function"
    },
    {
      "inputs": [],
      "name": "owner",
      "outputs": [
        {
          "internalType": "address",
          "name": "",
          "type": "address"
        }
      ],
      "stateMutability": "view",
      "type": "function"
    },
    {
      "inputs": [],
      "name": "stopAddingNodes",
      "outputs": [],
      "stateMutability": "nonpayable",
      "type": "function"
    },
    {
      "inputs": [
        {
          "internalType": "bytes4",
          "name": "interfaceId",
          "type": "bytes4"
        }
      ],
      "name": "supportsInterface",
      "outputs": [
        {
          "internalType": "bool",
          "name": "",
          "type": "bool"
        }
      ],
      "stateMutability": "pure",
      "type": "function"
    },
    {
      "inputs": [],
      "name": "symbol",
      "outputs": [
        {
          "internalType": "string",
          "name": "",
          "type": "string"
        }
      ],
      "stateMutability": "view",
      "type": "function"
    },
    {
      "inputs": [],
      "name": "totalSupply",
      "outputs": [
        {
          "internalType": "uint256",
          "name": "",
          "type": "uint256"
        }
      ],
      "stateMutability": "view",
      "type": "function"
    },
    {
      "inputs": [
        {
          "internalType": "address",
          "name": "to",
          "type": "address"
        },
        {
          "internalType": "uint256",
          "name": "amount",
          "type": "uint256"
        }
      ],
      "name": "transfer",
      "outputs": [
        {
          "internalType": "bool",
          "name": "",
          "type": "bool"
        }
      ],
      "stateMutability": "nonpayable",
      "type": "function"
    },
    {
      "inputs": [
        {
          "internalType": "address",
          "name": "from",
          "type": "address"
        },
        {
          "internalType": "address",
          "name": "to",
          "type": "address"
        },
        {
          "internalType": "uint256",
          "name": "amount",
          "type": "uint256"
        }
      ],
      "name": "transferFrom",
      "outputs": [
        {
          "internalType": "bool",
          "name": "",
          "type": "bool"
        }
      ],
      "stateMutability": "nonpayable",
      "type": "function"
    },
    {
      "inputs": [
        {
          "internalType": "address",
          "name": "to",
          "type": "address"
        }
      ],
      "name": "transferOwnership",
      "outputs": [],
      "stateMutability": "nonpayable",
      "type": "function"
    },
    {
      "inputs": [
        {
          "internalType": "address",
          "name": "",
          "type": "address"
        }
      ],
      "name": "validNodes",
      "outputs": [
        {
          "internalType": "bool",
          "name": "isValidNode",
          "type": "bool"
        },
        {
          "internalType": "bool",
          "name": "isActiveNode",
          "type": "bool"
        },
        {
          "internalType": "uint64",
          "name": "chainCCIPid",
          "type": "uint64"
        },
        {
          "internalType": "uint256",
          "name": "lastDataFromAave",
          "type": "uint256"
        },
        {
          "internalType": "uint256",
          "name": "totalUsdcSupply",
          "type": "uint256"
        },
        {
          "internalType": "uint256",
          "name": "totalUsdcBorrow",
          "type": "uint256"
        },
        {
          "internalType": "uint256",
          "name": "supplyRate",
          "type": "uint256"
        }
      ],
      "stateMutability": "view",
      "type": "function"
    },
    {
      "inputs": [
        {
          "internalType": "uint64",
          "name": "_destinationCCIPid",
          "type": "uint64"
        },
        {
          "internalType": "address",
          "name": "_destinationNodeAddress",
          "type": "address"
        }
      ],
      "name": "warpAssets",
      "outputs": [],
      "stateMutability": "nonpayable",
      "type": "function"
    },
    {
      "inputs": [
        {
          "internalType": "uint256",
          "name": "shares",
          "type": "uint256"
        }
      ],
      "name": "withdraw",
      "outputs": [],
      "stateMutability": "nonpayable",
      "type": "function"
    },
    {
      "stateMutability": "payable",
      "type": "receive"
    }
  ],
  "bytecode": "60c0346200044557601f19906001600160401b0390601f9062002ae038819003838101861683019190858311848410176200044a578084926060946040528339810103126200044557620000538162000480565b9060209260406200006685840162000480565b92015194808616860362000445576200007e62000460565b91600983526815d85c9c165a595b1960ba1b868401526200009e62000460565b6004808252630615752560e41b88830152986001600160a01b0396808816156200042d576080523315620003e957600080546001600160a01b03199081163317825586519099919290868111620002f9576005908154986001998a81811c91168015620003de575b86821014620003ca5790818984931162000379575b508590898311600114620003185787926200030c575b5050600019600383901b1c191690891b1781555b8451968711620002f957600654908882811c92168015620002ee575b84831014620002da578798999a9b9c9d508682116200027d575b50508194861160011462000217575050926200020b575b5050600019600383901b1c191690821b176006555b60ff1960095416176009551690600754161760075560a05260405161264a90816200049682396080518181816103340152610763015260a05181818161046d01528181610523015281816106ff01528181610d96015281816114c50152611e700152f35b01519050388062000192565b600683528183208897909594939116915b82821062000263575050841162000249575b505050811b01600655620001a7565b015160001960f88460031b161c191690553880806200023a565b848401518655889790950194938401939081019062000228565b9091929394959650600685528385209087808a01821c830193868b10620002d0575b918a998c93999897969594929901901c01915b828110620002c157506200017b565b8581558998508a9101620002b2565b935082936200029f565b50634e487b7160e01b845260228d52602484fd5b91607f169162000161565b634e487b7160e01b845260418d52602484fd5b01519050388062000131565b90858c94169185895287892092895b8982821062000362575050841162000348575b505050811b01815562000145565b015160001960f88460031b161c191690553880806200033a565b8385015186558f9790950194938401930162000327565b90915083875285872089808501861c820192888610620003c0575b918d918695949301871c01915b828110620003b15750506200011b565b8981558594508d9101620003a1565b9250819262000394565b8f876022602492634e487b7160e01b835252fd5b90607f169062000106565b60405162461bcd60e51b8152808b01899052601860248201527f43616e6e6f7420736574206f776e657220746f207a65726f00000000000000006044820152606490fd5b6040516335fdcccd60e21b81526000818d0152602490fd5b600080fd5b634e487b7160e01b600052604160045260246000fd5b60408051919082016001600160401b038111838210176200044a57604052565b51906001600160a01b0382168203620004455756fe60806040818152600480361015610021575b505050361561001f57600080fd5b005b600092833560e01c90816301ffc9a714611eb75750806304783ea414611e3757806306fdde0314611d6a578063095ea7b314611d4057806310a78df814611c285780631803c2f514611bfb57806318160ddd14611bde5780631d88092814611a7457806323b872dd146119a85780632e1a7d4d146113d7578063313ce567146113bb578063395093511461136c578063544b17091461123a578381635c292be514610d0b5750806361ac3f9914610cde578063654e8e0c14610cba5780636c1dc07714610c915780636c98d51314610c6b57806370a0823114610c3357806379ba509714610b8c57806385572ffb146107235780638cf19d19146106df5780638da5cb5b146106b757806395d89b411461059c5780639637120f146104f1578063995714ae1461043d578063a457c2d714610394578063a9059cbb14610363578063b0f479a11461031f578063b2d9295514610298578063dd62ed3e146102465763f2fde38b036100115734610242576020366003190112610242576101a5611f0b565b906101ae6125c2565b6001600160a01b03918216923384146101ff575050600180546001600160a01b031916831790558254167fed8889f560326eb138920d842192f0eb3dd22b4f139c87a2c57538e05bae12788380a380f35b906020606492519162461bcd60e51b8352820152601760248201527f43616e6e6f74207472616e7366657220746f2073656c660000000000000000006044820152fd5b8280fd5b505034610294578060031936011261029457602091610263611f0b565b8261026c611f21565b6001600160a01b03928316845260038652922091166000908152908352819020549051908152f35b5080fd5b5090346102425760203660031901126102425760e09281906001600160a01b036102c0611f0b565b16815260086020522080549260018201546002830154916003840154930154936001600160401b0381519660ff81161515885260ff8160081c161515602089015260101c16908601526060850152608084015260a083015260c0820152f35b505034610294578160031936011261029457517f00000000000000000000000000000000000000000000000000000000000000006001600160a01b03168152602090f35b50503461029457806003193601126102945760209061038d610383611f0b565b6024359033612253565b5160018152f35b50823461043a578260031936011261043a576103ae611f0b565b91836024359233815260036020522060018060a01b0384166000526020528360002054908282106103e95760208561038d8585038733612467565b608490602086519162461bcd60e51b8352820152602560248201527f45524332303a2064656372656173656420616c6c6f77616e63652062656c6f77604482015264207a65726f60d81b6064820152fd5b80fd5b503461024257826003193601126102425733835260086020526104936001600160401b03808486205460101c16907f00000000000000000000000000000000000000000000000000000000000000001614612099565b338352600860205260ff8284205416156104db57503382526008602052812061010061ff0019825416179055336bffffffffffffffffffffffff60a01b600a541617600a5580f35b6024915190636a9ff79f60e11b82523390820152fd5b5090346102425760603660031901126102425733835260086020526105496001600160401b03808386205460101c16907f00000000000000000000000000000000000000000000000000000000000000001614612099565b338352600860205260ff818420541615610585573383526008602052822042600182015581356002820155602435600382015560443591015580f35b602492505190636a9ff79f60e11b82523390820152fd5b50913461043a578060031936011261043a578151918160065492600184811c918186169586156106ad575b602096878510811461069a578899509688969785829a529182600014610673575050600114610617575b5050506106139291610604910385612022565b51928284938452830190611f37565b0390f35b9190869350600683527ff652222313e28459528d920b65115c16c04f3efc82aaedc97be59f3f377c0d3f5b82841061065b57505050820101816106046106136105f1565b8054848a018601528895508794909301928101610642565b60ff19168782015293151560051b86019093019350849250610604915061061390506105f1565b634e487b7160e01b835260228a52602483fd5b92607f16926105c7565b505034610294578160031936011261029457905490516001600160a01b039091168152602090f35b505034610294578160031936011261029457602090516001600160401b037f0000000000000000000000000000000000000000000000000000000000000000168152f35b50903461024257602091600319838136011261090c578135906001600160401b0390818311610a635760a090833603011261098e576001600160a01b03927f000000000000000000000000000000000000000000000000000000000000000084163303610b755784519161079683611f8d565b838201358352602490818501358181168103610b5057888501526044850135818111610a6b576107cb90843691880101612043565b938781019485526064860135828111610b6d576107ed90853691890101612043565b9560608201968752608481013590838211610b71570136602382011215610b6d5784810135928311610b595788519261082b8b8260051b0185612022565b808452848b85019160061b83010191368311610b55578501905b828210610b16575050506080015282518781805181010312610a675761086d88879201612569565b168089526008885260ff878a20541615610b01575082518781805181010312610a675761089c88879201612569565b1688526008875260ff868920541615610ab05783518781805181010312610a67576108ca8860ff920161257d565b16806109105750505050519160608380518101031261090c576108ff6060916108f761090996860161257d565b508401612569565b92015191166123c3565b80f35b8480fd5b600181989795939496981460001461099257505050508151838180518101031261098e5761094084869201612569565b16855260088352842061010061ff00198254161790555190808280518101031261098a5761096e9101612569565b166bffffffffffffffffffffffff60a01b600a541617600a5580f35b8380fd5b8580fd5b6002909794959796939614600014610a6f57505194608086805181010312610a63576109bf82870161257d565b508386015195608060608201519101519682518481805181010312610a6b576109ea85879201612569565b16895260088452426001878b20015582518481805181010312610a6b57610a1385879201612569565b1689526002868a20015581518381805181010312610a6757610a3784869201612569565b1688526003858920015551908082805181010312610a6357610a599101612569565b1684528320015580f35b8680fd5b8880fd5b8980fd5b8560196064928588519362461bcd60e51b85528401528201527f696e76616c696420636f6d6d616e642066726f6d204e6f6465000000000000006044820152fd5b855162461bcd60e51b81529182018790526026908201527f496e636f6d696e67204d657373616765206e6f742066726f6d20612076616c6960448201526564206e6f646560d01b6064820152608490fd5b8651636a9ff79f60e11b815280840191909152fd5b8a82360312610b55578a5190610b2b82611fec565b8235908b82168203610b5057828e928e94528285013583820152815201910190610845565b600080fd5b8c80fd5b83604186634e487b7160e01b600052526000fd5b8a80fd5b8b80fd5b6024908551906335fdcccd60e21b82523390820152fd5b509034610242578260031936011261024257600154916001600160a01b03918284163303610bf757505082546001600160a01b03198082163390811786559316600155167f8be0079c531659141344cd1fd0a4f28419497f9722a3daafe3b4186f6b6457e08380a380f35b906020606492519162461bcd60e51b8352820152601660248201527526bab9ba10313290383937b837b9b2b21037bbb732b960511b6044820152fd5b5050346102945760203660031901126102945760209181906001600160a01b03610c5b611f0b565b1681526002845220549051908152f35b833461043a578060031936011261043a57610c846125c2565b60ff196009541660095580f35b505034610294578160031936011261029457600a5490516001600160a01b039091168152602090f35b50503461029457816003193601126102945760209060ff6009541690519015158152f35b505034610294578160031936011261029457600954905160089190911c6001600160a01b03168152602090f35b92905034611236578060031936011261123657610d26611f77565b91610d2f611f21565b82519060206001818401526001600160401b0380961692838682015260018060a01b038093169660608881840152808352610d6983612007565b84600a54168a5260088452878a2061ff0019815416905584600a541692838b52888b2054838160101c16937f0000000000000000000000000000000000000000000000000000000000000000168414600014610e3157505050505050600a5416803b1561098e5785928360449286519788958694634bb297ff60e11b865285015260248401525af1908115610e285750610e14575b50505b600a80546001600160a01b031916905580f35b610e1d90611fd9565b61043a578038610dfe565b513d84823e3d90fd5b91949a509297985060ff919550959395161561121f57846007541682819360808a51610e5c81611f8d565b828152828d820152828c8201528d8382015201528851978a890152898852610e8388611fec565b8851610e8e81611fbe565b60008152610eab8a51610ea081611fbe565b621e8480815261258b565b938a5199610eb88b611f8d565b8a528b8a0152898901528701526080860152855163b0f479a160e01b815287818481305afa908115611215579085918a916111db575b501693888751926320487ded60e01b8452898480610f0f8b8a8a84016120f3565b03818a5afa9384156111d157908a91839561119f575b5060648a51809481936323b872dd60e01b8352338a8401523060248401528860448401525af1908115611195578a91611178575b501561113557600754169086516370a0823160e01b9081815230858201528981602481875afa90811561112b578b916110fe575b5082116110825750865163095ea7b360e01b81526001600160a01b038616818501908152602081019290925289939290918991839182908790829060400103925af180156110785791889593916110019897959361104b575b5086516396f4e9f960e01b81529788958694859384016120f3565b03925af19081156110425750611019575b5050610e01565b813d831161103b575b61102c8183612022565b8101031261043a573880611012565b503d611022565b513d85823e3d90fd5b61106a90873d8911611071575b6110628183612022565b8101906121bf565b5038610fe6565b503d611058565b87513d85823e3d90fd5b9089888a80879560248451809981938252308a8301525afa9283156110f357926110c2575b5051634787a10360e11b815292830152602482015260449150fd5b90915084813d83116110ec575b6110d98183612022565b81010312610b50576044935190856110a7565b503d6110cf565b8251903d90823e3d90fd5b90508981813d8311611124575b6111158183612022565b81010312610b50575138610f8d565b503d61110b565b89513d8d823e3d90fd5b865162461bcd60e51b8152808401899052601a60248201527f4e6f742070726f7669646564204c696e6b20666f7220666565730000000000006044820152606490fd5b61118f9150893d8b11611071576110628183612022565b38610f59565b88513d8c823e3d90fd5b9250935081813d83116111ca575b6111b78183612022565b81010312610b5057888a91519338610f25565b503d6111ad565b89513d84823e3d90fd5b809250898092503d831161120e575b6111f48183612022565b81010312610a6757518481168103610a6757849038610eee565b503d6111ea565b87513d8b823e3d90fd5b8651636a9ff79f60e11b8152808401879052602490fd5b5050fd5b50913461043a5760a036600319011261043a57611255611f77565b9161125e611f21565b6001600160a01b03936044358581169190829003610b505760643590868216809203610b5057608435976001600160401b038911610a63576112a96113259697989936908301612043565b87519460209a8b9716878701528686526112c286611fec565b88516112cd81611fbe565b600081526112ea8a516112df81611fbe565b620f4240815261258b565b928a51976112f789611f8d565b885288880152898701526060860152608085015286516320487ded60e01b81529586948593849384016120f3565b03915afa9283156110f3579261133d575b5051908152f35b9091508281813d8311611365575b6113558183612022565b81010312610b5057519038611336565b503d61134b565b50503461029457806003193601126102945761038d6020928261138d611f0b565b91338152600386522060018060a01b03821660005284526113b460243584600020546121d7565b9033612467565b5050346102945781600319360112610294576020905160128152f35b50829034610294576020928360031936011261024257600a546001600160a01b039081168452600880865282852054843592911c60ff1615611970573385526002865282852054821161193757825195858188015233848801526060838189015280885261144488612007565b33156118ea5733875260028252848720549784891061189c57848899989697983388526002855203878720558488540388558587518681527fddf252ad1be2c89b69c2b068fc378daa952ba7f163c4a11628f55a4df523b3ef853392a383600a5416918287526008845287872054916001600160401b0392838160101c16937f000000000000000000000000000000000000000000000000000000000000000016841460001461154557505050505050600a5416803b156102425783516315e005b760e31b8152339581019586526020860192909252909384919082908490829060400103925af1908115610e28575061153c575080f35b61090990611fd9565b909295965060ff91939750989398161561121f57846007541682819360808a5161156e81611f8d565b828152828d820152828c8201528d8382015201528851978a89015289885261159588611fec565b88516115a081611fbe565b8b81526115b18a51610ea081611fbe565b938a51996115be8b611f8d565b8a528b8a0152898901528701526080860152855163b0f479a160e01b815287818481305afa908115611215579085918a91611862575b501693888751926320487ded60e01b84528984806116158b8a8a84016120f3565b03818a5afa9384156111d157908a918395611831575b5060648a51809481936323b872dd60e01b8352338a8401523060248401528860448401525af1908115611195578a91611814575b50156111355790889291600754169087516370a0823160e01b9081815230858201528a81602481875afa90811561180a5786916117dd575b50821161175e5750875163095ea7b360e01b81526001600160a01b038716848201908152602081019290925291899183919082908790829060400103925af1801561107857918895939161170798979593611741575086516396f4e9f960e01b81529788958694859384016120f3565b03925af1908115611042575061171c57505080f35b813d831161173a575b61172f8183612022565b8101031261043a5780f35b503d611725565b61175790873d8911611071576110628183612022565b508a610fe6565b899192828a9260248451809481938252308a8301525afa9283156117d357869361179f575b505051634787a10360e11b815292830152602482015260449150fd5b9080929350813d83116117cc575b6117b78183612022565b8101031261090c576044945051908580611783565b503d6117ad565b82513d88823e3d90fd5b90508a81813d8311611803575b6117f48183612022565b8101031261098e57518c611697565b503d6117ea565b8a513d88823e3d90fd5b61182b9150893d8b11611071576110628183612022565b8a61165f565b8281939296503d831161185b575b6118498183612022565b8101031261029457899051938c61162b565b503d61183f565b809250898092503d8311611895575b61187b8183612022565b81010312610a6757518481168103610a675784908a6115f4565b503d611871565b855162461bcd60e51b8152808801849052602260248201527f45524332303a206275726e20616d6f756e7420657863656564732062616c616e604482015261636560f01b6064820152608490fd5b845162461bcd60e51b8152808701839052602160248201527f45524332303a206275726e2066726f6d20746865207a65726f206164647265736044820152607360f81b6064820152608490fd5b825162461bcd60e51b815280850187905260136024820152724e6f7420656e6f756768742062616c616e636560681b6044820152606490fd5b825162461bcd60e51b815280850187905260126024820152714e6f6465206973206e6f742041637469766560701b6044820152606490fd5b50829034610294576060366003190112610294576119c4611f0b565b6119cc611f21565b6001600160a01b03821684526003602090815285852033865290529284902054604435939260018201611a08575b60208661038d878787612253565b848210611a315750918391611a266020969561038d95033383612467565b9193948193506119fa565b606490602087519162461bcd60e51b8352820152601d60248201527f45524332303a20696e73756666696369656e7420616c6c6f77616e63650000006044820152fd5b50913461043a578160031936011261043a57611a8e611f0b565b92611a97611f21565b9060018060a01b03809516928381526008956020968088528683209560018060ff8954851c161515149788611bd1575b5087611bbd575b87611b9e575b87611b67575b87611b4d575b5086611b34575b86611b1f575b86611afe575b888789519015158152f35b83528752858220830154931681528490200154119050388080808080611af3565b80845281895287842085015415159650611aed565b858316845281895287842054821c60ff16159650611ae7565b8684168552828a528885205460ff16151514965038611ae0565b96508286168452818952868885200154610e108101809111611b8b57421096611ada565b634e487b7160e01b855260118652602485fd5b9650808452868885200154610e108101809111611b8b57421096611ad4565b868416855288852081015415159750611ace565b8101541515975038611ac7565b503461024257826003193601126102425760209250549051908152f35b5050346102945781600319360112610294576020906001600160401b03611c206121fa565b915191168152f35b503461024257606036600319011261024257611c42611f0b565b90602435906001600160401b038216820361090c576044359182151591828403610a6357611c6e6125c2565b60ff6009541615611d055750600190818060a01b03851695868852600860205287209261ff0069ffffffffffffffff000085549360101b169269ffffffffffffffffffff19169160081b161717179055611cc6578280f35b60098054610100600160a81b03191660089290921b610100600160a81b0316919091179055600a80546001600160a01b03191691909117905538808280f35b606490602087519162461bcd60e51b83528201526015602482015274139bc81b5bdc99481b9bd9195cc8185b1b1bddd959605a1b6044820152fd5b50503461029457806003193601126102945760209061038d611d60611f0b565b6024359033612467565b50913461043a578060031936011261043a578151918160055492600184811c91818616958615611e2d575b602096878510811461069a578899509688969785829a529182600014610673575050600114611dd1575050506106139291610604910385612022565b9190869350600583527f036b6384b5eca791c62761152d0c79bb0604c104a5fb6f4eb0703f3154bb3db05b828410611e1557505050820101816106046106136105f1565b8054848a018601528895508794909301928101611dfc565b92607f1692611d95565b5034610242578160031936011261024257611e50611f0b565b913384526008602052611e966001600160401b03808387205460101c16907f00000000000000000000000000000000000000000000000000000000000000001614612099565b338452600860205260ff8185205416156105855783610909602435856123c3565b92505034610242576020366003190112610242573563ffffffff60e01b811680910361024257602092506385572ffb60e01b8114908115611efa575b5015158152f35b6301ffc9a760e01b14905038611ef3565b600435906001600160a01b0382168203610b5057565b602435906001600160a01b0382168203610b5057565b919082519283825260005b848110611f63575050826000602080949584010152601f8019910116010190565b602081830181015184830182015201611f42565b600435906001600160401b0382168203610b5057565b60a081019081106001600160401b03821117611fa857604052565b634e487b7160e01b600052604160045260246000fd5b602081019081106001600160401b03821117611fa857604052565b6001600160401b038111611fa857604052565b604081019081106001600160401b03821117611fa857604052565b608081019081106001600160401b03821117611fa857604052565b90601f801991011681019081106001600160401b03821117611fa857604052565b81601f82011215610b50578035906001600160401b038211611fa85760405192612077601f8401601f191660200185612022565b82845260208383010111610b5057816000926020809301838601378301015290565b156120a057565b60405162461bcd60e51b815260206004820152602560248201527f52657175697265206d617374657220616e64206e6f646520696e2073616d652060448201526431b430b4b760d91b6064820152608490fd5b906001600160401b039093929316815260406020918183820152612122855160a08484015260e0830190611f37565b9161213e8487015193603f199485858303016060860152611f37565b8187015194848483030160808501528080875193848152019601926000905b83821061219657505050505060c06080612193959660018060a01b0360608201511660a085015201519282850301910152611f37565b90565b845180516001600160a01b0316895283015188840152968701969382019360019091019061215d565b90816020910312610b5057518015158103610b505790565b919082018092116121e457565b634e487b7160e01b600052601160045260246000fd5b600a546001600160a01b0390811690811561222d575060005260086020526001600160401b0360406000205460101c1690565b905060095460081c1660005260086020526001600160401b0360406000205460101c1690565b6001600160a01b03908116918215612370571691821561231f57600082815260026020526040812054918083106122cb57604082827fddf252ad1be2c89b69c2b068fc378daa952ba7f163c4a11628f55a4df523b3ef95876020965260028652038282205586815220818154019055604051908152a3565b60405162461bcd60e51b815260206004820152602660248201527f45524332303a207472616e7366657220616d6f756e7420657863656564732062604482015265616c616e636560d01b6064820152608490fd5b60405162461bcd60e51b815260206004820152602360248201527f45524332303a207472616e7366657220746f20746865207a65726f206164647260448201526265737360e81b6064820152608490fd5b60405162461bcd60e51b815260206004820152602560248201527f45524332303a207472616e736665722066726f6d20746865207a65726f206164604482015264647265737360d81b6064820152608490fd5b6001600160a01b0316908115612422577fddf252ad1be2c89b69c2b068fc378daa952ba7f163c4a11628f55a4df523b3ef6020826124056000946004546121d7565b6004558484526002825260408420818154019055604051908152a3565b60405162461bcd60e51b815260206004820152601f60248201527f45524332303a206d696e7420746f20746865207a65726f2061646472657373006044820152606490fd5b6001600160a01b0390811691821561251857169182156124c85760207f8c5be1e5ebec7d5bd14f71427d1e84f3dd0314c0f7b2291e5b200ac8c7c3b925918360005260038252604060002085600052825280604060002055604051908152a3565b60405162461bcd60e51b815260206004820152602260248201527f45524332303a20617070726f766520746f20746865207a65726f206164647265604482015261737360f01b6064820152608490fd5b60405162461bcd60e51b8152602060048201526024808201527f45524332303a20617070726f76652066726f6d20746865207a65726f206164646044820152637265737360e01b6064820152608490fd5b51906001600160a01b0382168203610b5057565b519060ff82168203610b5057565b604051906397a657c960e01b602083015251602482015260248152606081018181106001600160401b03821117611fa85760405290565b6000546001600160a01b031633036125d657565b60405162461bcd60e51b815260206004820152601660248201527527b7363c9031b0b63630b1363290313c9037bbb732b960511b6044820152606490fdfea264697066735822122035ea8df3c4d2759ab972cc81abf188b2b89dd34252ec8bacc82084e85be23acd64736f6c63430008130033",
  "bytecodeSha1": "733703cc11a109161d314e59be56fba23731046f",
  "compiler": {
    "evm_version": "istanbul",
    "optimizer": {
      "enabled": true,
      "runs": 200
    },
    "version": "0.8.19+commit.7dd6d404"
  },
  "contractName": "MasterNode",
  "language": "Solidity",
  "natspec": {
    "kind": "dev",
    "methods": {
      "acceptOwnership()": {
        "notice": "Allows an ownership transfer to be completed by the recipient."
      },
      "allowance(address,address)": {
        "details": "See {IERC20-allowance}."
      },
      "approve(address,uint256)": {
        "details": "See {IERC20-approve}. NOTE: If `amount` is the maximum `uint256`, the allowance is not updated on `transferFrom`. This is semantically equivalent to an infinite approval. Requirements: - `spender` cannot be the zero address."
      },
      "balanceOf(address)": {
        "details": "See {IERC20-balanceOf}."
      },
      "ccipReceive((bytes32,uint64,bytes,bytes,(address,uint256)[]))": {
        "details": "Note ensure you check the msg.sender is the OffRampRouter",
        "notice": "Called by the Router to deliver a message. If this reverts, any token transfers also revert. The message will move to a FAILED state and become available for manual execution.",
        "params": {
          "message": "CCIP Message"
        }
      },
      "constructor": {
        "notice": "Constructor initializes the contract with the router address.",
        "params": {
          "_link": "The address of the link contract.",
          "_router": "The address of the router contract."
        }
      },
      "decimals()": {
        "details": "Returns the number of decimals used to get its user representation. For example, if `decimals` equals `2`, a balance of `505` tokens should be displayed to a user as `5.05` (`505 / 10 ** 2`). Tokens usually opt for a value of 18, imitating the relationship between Ether and Wei. This is the value {ERC20} uses, unless this function is overridden; NOTE: This information is only used for _display_ purposes: it in no way affects any of the arithmetic of the contract, including {IERC20-balanceOf} and {IERC20-transfer}."
      },
      "decreaseAllowance(address,uint256)": {
        "details": "Atomically decreases the allowance granted to `spender` by the caller. This is an alternative to {approve} that can be used as a mitigation for problems described in {IERC20-approve}. Emits an {Approval} event indicating the updated allowance. Requirements: - `spender` cannot be the zero address. - `spender` must have allowance for the caller of at least `subtractedValue`."
      },
      "getRouter()": {
        "notice": "Return the current router",
        "returns": {
          "_0": "CCIP router address"
        }
      },
      "increaseAllowance(address,uint256)": {
        "details": "Atomically increases the allowance granted to `spender` by the caller. This is an alternative to {approve} that can be used as a mitigation for problems described in {IERC20-approve}. Emits an {Approval} event indicating the updated allowance. Requirements: - `spender` cannot be the zero address."
      },
      "name()": {
        "details": "Returns the name of the token."
      },
      "owner()": {
        "notice": "Get the current owner"
      },
      "supportsInterface(bytes4)": {
        "details": "Should indicate whether the contract implements IAny2EVMMessageReceiver e.g. return interfaceId == type(IAny2EVMMessageReceiver).interfaceId || interfaceId == type(IERC165).interfaceId This allows CCIP to check if ccipReceive is available before calling it. If this returns false or reverts, only tokens are transferred to the receiver. If this returns true, tokens are transferred and ccipReceive is called atomically. Additionally, if the receiver address does not have code associated with it at the time of execution (EXTCODESIZE returns 0), only tokens will be transferred.",
        "notice": "IERC165 supports an interfaceId",
        "params": {
          "interfaceId": "The interfaceId to check"
        },
        "returns": {
          "_0": "true if the interfaceId is supported"
        }
      },
      "symbol()": {
        "details": "Returns the symbol of the token, usually a shorter version of the name."
      },
      "totalSupply()": {
        "details": "See {IERC20-totalSupply}."
      },
      "transfer(address,uint256)": {
        "details": "See {IERC20-transfer}. Requirements: - `to` cannot be the zero address. - the caller must have a balance of at least `amount`."
      },
      "transferFrom(address,address,uint256)": {
        "details": "See {IERC20-transferFrom}. Emits an {Approval} event indicating the updated allowance. This is not required by the EIP. See the note at the beginning of {ERC20}. NOTE: Does not update the allowance if the current allowance is the maximum `uint256`. Requirements: - `from` and `to` cannot be the zero address. - `from` must have a balance of at least `amount`. - the caller must have allowance for ``from``'s tokens of at least `amount`."
      },
      "transferOwnership(address)": {
        "notice": "Allows an owner to begin transferring ownership to a new address."
      }
    },
    "title": "- A simple messenger contract for transferring/receiving tokens and data across chains.",
    "version": 1
  },
  "opcodes": "PUSH1 0x80 PUSH1 0x40 DUP2 DUP2 MSTORE PUSH1 0x4 DUP1 CALLDATASIZE LT ISZERO PUSH2 0x21 JUMPI JUMPDEST POP POP POP CALLDATASIZE ISZERO PUSH2 0x1F JUMPI PUSH1 0x0 DUP1 REVERT JUMPDEST STOP JUMPDEST PUSH1 0x0 SWAP3 DUP4 CALLDATALOAD PUSH1 0xE0 SHR SWAP1 DUP2 PUSH4 0x1FFC9A7 EQ PUSH2 0x1EB7 JUMPI POP DUP1 PUSH4 0x4783EA4 EQ PUSH2 0x1E37 JUMPI DUP1 PUSH4 0x6FDDE03 EQ PUSH2 0x1D6A JUMPI DUP1 PUSH4 0x95EA7B3 EQ PUSH2 0x1D40 JUMPI DUP1 PUSH4 0x10A78DF8 EQ PUSH2 0x1C28 JUMPI DUP1 PUSH4 0x1803C2F5 EQ PUSH2 0x1BFB JUMPI DUP1 PUSH4 0x18160DDD EQ PUSH2 0x1BDE JUMPI DUP1 PUSH4 0x1D880928 EQ PUSH2 0x1A74 JUMPI DUP1 PUSH4 0x23B872DD EQ PUSH2 0x19A8 JUMPI DUP1 PUSH4 0x2E1A7D4D EQ PUSH2 0x13D7 JUMPI DUP1 PUSH4 0x313CE567 EQ PUSH2 0x13BB JUMPI DUP1 PUSH4 0x39509351 EQ PUSH2 0x136C JUMPI DUP1 PUSH4 0x544B1709 EQ PUSH2 0x123A JUMPI DUP4 DUP2 PUSH4 0x5C292BE5 EQ PUSH2 0xD0B JUMPI POP DUP1 PUSH4 0x61AC3F99 EQ PUSH2 0xCDE JUMPI DUP1 PUSH4 0x654E8E0C EQ PUSH2 0xCBA JUMPI DUP1 PUSH4 0x6C1DC077 EQ PUSH2 0xC91 JUMPI DUP1 PUSH4 0x6C98D513 EQ PUSH2 0xC6B JUMPI DUP1 PUSH4 0x70A08231 EQ PUSH2 0xC33 JUMPI DUP1 PUSH4 0x79BA5097 EQ PUSH2 0xB8C JUMPI DUP1 PUSH4 0x85572FFB EQ PUSH2 0x723 JUMPI DUP1 PUSH4 0x8CF19D19 EQ PUSH2 0x6DF JUMPI DUP1 PUSH4 0x8DA5CB5B EQ PUSH2 0x6B7 JUMPI DUP1 PUSH4 0x95D89B41 EQ PUSH2 0x59C JUMPI DUP1 PUSH4 0x9637120F EQ PUSH2 0x4F1 JUMPI DUP1 PUSH4 0x995714AE EQ PUSH2 0x43D JUMPI DUP1 PUSH4 0xA457C2D7 EQ PUSH2 0x394 JUMPI DUP1 PUSH4 0xA9059CBB EQ PUSH2 0x363 JUMPI DUP1 PUSH4 0xB0F479A1 EQ PUSH2 0x31F JUMPI DUP1 PUSH4 0xB2D92955 EQ PUSH2 0x298 JUMPI DUP1 PUSH4 0xDD62ED3E EQ PUSH2 0x246 JUMPI PUSH4 0xF2FDE38B SUB PUSH2 0x11 JUMPI CALLVALUE PUSH2 0x242 JUMPI PUSH1 0x20 CALLDATASIZE PUSH1 0x3 NOT ADD SLT PUSH2 0x242 JUMPI PUSH2 0x1A5 PUSH2 0x1F0B JUMP JUMPDEST SWAP1 PUSH2 0x1AE PUSH2 0x25C2 JUMP JUMPDEST PUSH1 0x1 PUSH1 0x1 PUSH1 0xA0 SHL SUB SWAP2 DUP3 AND SWAP3 CALLER DUP5 EQ PUSH2 0x1FF JUMPI POP POP PUSH1 0x1 DUP1 SLOAD PUSH1 0x1 PUSH1 0x1 PUSH1 0xA0 SHL SUB NOT AND DUP4 OR SWAP1 SSTORE DUP3 SLOAD AND PUSH32 0xED8889F560326EB138920D842192F0EB3DD22B4F139C87A2C57538E05BAE1278 DUP4 DUP1 LOG3 DUP1 RETURN JUMPDEST SWAP1 PUSH1 0x20 PUSH1 0x64 SWAP3 MLOAD SWAP2 PUSH3 0x461BCD PUSH1 0xE5 SHL DUP4 MSTORE DUP3 ADD MSTORE PUSH1 0x17 PUSH1 0x24 DUP3 ADD MSTORE PUSH32 0x43616E6E6F74207472616E7366657220746F2073656C66000000000000000000 PUSH1 0x44 DUP3 ADD MSTORE REVERT JUMPDEST DUP3 DUP1 REVERT JUMPDEST POP POP CALLVALUE PUSH2 0x294 JUMPI DUP1 PUSH1 0x3 NOT CALLDATASIZE ADD SLT PUSH2 0x294 JUMPI PUSH1 0x20 SWAP2 PUSH2 0x263 PUSH2 0x1F0B JUMP JUMPDEST DUP3 PUSH2 0x26C PUSH2 0x1F21 JUMP JUMPDEST PUSH1 0x1 PUSH1 0x1 PUSH1 0xA0 SHL SUB SWAP3 DUP4 AND DUP5 MSTORE PUSH1 0x3 DUP7 MSTORE SWAP3 KECCAK256 SWAP2 AND PUSH1 0x0 SWAP1 DUP2 MSTORE SWAP1 DUP4 MSTORE DUP2 SWAP1 KECCAK256 SLOAD SWAP1 MLOAD SWAP1 DUP2 MSTORE RETURN JUMPDEST POP DUP1 REVERT JUMPDEST POP SWAP1 CALLVALUE PUSH2 0x242 JUMPI PUSH1 0x20 CALLDATASIZE PUSH1 0x3 NOT ADD SLT PUSH2 0x242 JUMPI PUSH1 0xE0 SWAP3 DUP2 SWAP1 PUSH1 0x1 PUSH1 0x1 PUSH1 0xA0 SHL SUB PUSH2 0x2C0 PUSH2 0x1F0B JUMP JUMPDEST AND DUP2 MSTORE PUSH1 0x8 PUSH1 0x20 MSTORE KECCAK256 DUP1 SLOAD SWAP3 PUSH1 0x1 DUP3 ADD SLOAD PUSH1 0x2 DUP4 ADD SLOAD SWAP2 PUSH1 0x3 DUP5 ADD SLOAD SWAP4 ADD SLOAD SWAP4 PUSH1 0x1 PUSH1 0x1 PUSH1 0x40 SHL SUB DUP2 MLOAD SWAP7 PUSH1 0xFF DUP2 AND ISZERO ISZERO DUP9 MSTORE PUSH1 0xFF DUP2 PUSH1 0x8 SHR AND ISZERO ISZERO PUSH1 0x20 DUP10 ADD MSTORE PUSH1 0x10 SHR AND SWAP1 DUP7 ADD MSTORE PUSH1 0x60 DUP6 ADD MSTORE PUSH1 0x80 DUP5 ADD MSTORE PUSH1 0xA0 DUP4 ADD MSTORE PUSH1 0xC0 DUP3 ADD MSTORE RETURN JUMPDEST POP POP CALLVALUE PUSH2 0x294 JUMPI DUP2 PUSH1 0x3 NOT CALLDATASIZE ADD SLT PUSH2 0x294 JUMPI MLOAD PUSH32 0x0 PUSH1 0x1 PUSH1 0x1 PUSH1 0xA0 SHL SUB AND DUP2 MSTORE PUSH1 0x20 SWAP1 RETURN JUMPDEST POP POP CALLVALUE PUSH2 0x294 JUMPI DUP1 PUSH1 0x3 NOT CALLDATASIZE ADD SLT PUSH2 0x294 JUMPI PUSH1 0x20 SWAP1 PUSH2 0x38D PUSH2 0x383 PUSH2 0x1F0B JUMP JUMPDEST PUSH1 0x24 CALLDATALOAD SWAP1 CALLER PUSH2 0x2253 JUMP JUMPDEST MLOAD PUSH1 0x1 DUP2 MSTORE RETURN JUMPDEST POP DUP3 CALLVALUE PUSH2 0x43A JUMPI DUP3 PUSH1 0x3 NOT CALLDATASIZE ADD SLT PUSH2 0x43A JUMPI PUSH2 0x3AE PUSH2 0x1F0B JUMP JUMPDEST SWAP2 DUP4 PUSH1 0x24 CALLDATALOAD SWAP3 CALLER DUP2 MSTORE PUSH1 0x3 PUSH1 0x20 MSTORE KECCAK256 PUSH1 0x1 DUP1 PUSH1 0xA0 SHL SUB DUP5 AND PUSH1 0x0 MSTORE PUSH1 0x20 MSTORE DUP4 PUSH1 0x0 KECCAK256 SLOAD SWAP1 DUP3 DUP3 LT PUSH2 0x3E9 JUMPI PUSH1 0x20 DUP6 PUSH2 0x38D DUP6 DUP6 SUB DUP8 CALLER PUSH2 0x2467 JUMP JUMPDEST PUSH1 0x84 SWAP1 PUSH1 0x20 DUP7 MLOAD SWAP2 PUSH3 0x461BCD PUSH1 0xE5 SHL DUP4 MSTORE DUP3 ADD MSTORE PUSH1 0x25 PUSH1 0x24 DUP3 ADD MSTORE PUSH32 0x45524332303A2064656372656173656420616C6C6F77616E63652062656C6F77 PUSH1 0x44 DUP3 ADD MSTORE PUSH5 0x207A65726F PUSH1 0xD8 SHL PUSH1 0x64 DUP3 ADD MSTORE REVERT JUMPDEST DUP1 REVERT JUMPDEST POP CALLVALUE PUSH2 0x242 JUMPI DUP3 PUSH1 0x3 NOT CALLDATASIZE ADD SLT PUSH2 0x242 JUMPI CALLER DUP4 MSTORE PUSH1 0x8 PUSH1 0x20 MSTORE PUSH2 0x493 PUSH1 0x1 PUSH1 0x1 PUSH1 0x40 SHL SUB DUP1 DUP5 DUP7 KECCAK256 SLOAD PUSH1 0x10 SHR AND SWAP1 PUSH32 0x0 AND EQ PUSH2 0x2099 JUMP JUMPDEST CALLER DUP4 MSTORE PUSH1 0x8 PUSH1 0x20 MSTORE PUSH1 0xFF DUP3 DUP5 KECCAK256 SLOAD AND ISZERO PUSH2 0x4DB JUMPI POP CALLER DUP3 MSTORE PUSH1 0x8 PUSH1 0x20 MSTORE DUP2 KECCAK256 PUSH2 0x100 PUSH2 0xFF00 NOT DUP3 SLOAD AND OR SWAP1 SSTORE CALLER PUSH12 0xFFFFFFFFFFFFFFFFFFFFFFFF PUSH1 0xA0 SHL PUSH1 0xA SLOAD AND OR PUSH1 0xA SSTORE DUP1 RETURN JUMPDEST PUSH1 0x24 SWAP2 MLOAD SWAP1 PUSH4 0x6A9FF79F PUSH1 0xE1 SHL DUP3 MSTORE CALLER SWAP1 DUP3 ADD MSTORE REVERT JUMPDEST POP SWAP1 CALLVALUE PUSH2 0x242 JUMPI PUSH1 0x60 CALLDATASIZE PUSH1 0x3 NOT ADD SLT PUSH2 0x242 JUMPI CALLER DUP4 MSTORE PUSH1 0x8 PUSH1 0x20 MSTORE PUSH2 0x549 PUSH1 0x1 PUSH1 0x1 PUSH1 0x40 SHL SUB DUP1 DUP4 DUP7 KECCAK256 SLOAD PUSH1 0x10 SHR AND SWAP1 PUSH32 0x0 AND EQ PUSH2 0x2099 JUMP JUMPDEST CALLER DUP4 MSTORE PUSH1 0x8 PUSH1 0x20 MSTORE PUSH1 0xFF DUP2 DUP5 KECCAK256 SLOAD AND ISZERO PUSH2 0x585 JUMPI CALLER DUP4 MSTORE PUSH1 0x8 PUSH1 0x20 MSTORE DUP3 KECCAK256 TIMESTAMP PUSH1 0x1 DUP3 ADD SSTORE DUP2 CALLDATALOAD PUSH1 0x2 DUP3 ADD SSTORE PUSH1 0x24 CALLDATALOAD PUSH1 0x3 DUP3 ADD SSTORE PUSH1 0x44 CALLDATALOAD SWAP2 ADD SSTORE DUP1 RETURN JUMPDEST PUSH1 0x24 SWAP3 POP MLOAD SWAP1 PUSH4 0x6A9FF79F PUSH1 0xE1 SHL DUP3 MSTORE CALLER SWAP1 DUP3 ADD MSTORE REVERT JUMPDEST POP SWAP2 CALLVALUE PUSH2 0x43A JUMPI DUP1 PUSH1 0x3 NOT CALLDATASIZE ADD SLT PUSH2 0x43A JUMPI DUP2 MLOAD SWAP2 DUP2 PUSH1 0x6 SLOAD SWAP3 PUSH1 0x1 DUP5 DUP2 SHR SWAP2 DUP2 DUP7 AND SWAP6 DUP7 ISZERO PUSH2 0x6AD JUMPI JUMPDEST PUSH1 0x20 SWAP7 DUP8 DUP6 LT DUP2 EQ PUSH2 0x69A JUMPI DUP9 SWAP10 POP SWAP7 DUP9 SWAP7 SWAP8 DUP6 DUP3 SWAP11 MSTORE SWAP2 DUP3 PUSH1 0x0 EQ PUSH2 0x673 JUMPI POP POP PUSH1 0x1 EQ PUSH2 0x617 JUMPI JUMPDEST POP POP POP PUSH2 0x613 SWAP3 SWAP2 PUSH2 0x604 SWAP2 SUB DUP6 PUSH2 0x2022 JUMP JUMPDEST MLOAD SWAP3 DUP3 DUP5 SWAP4 DUP5 MSTORE DUP4 ADD SWAP1 PUSH2 0x1F37 JUMP JUMPDEST SUB SWAP1 RETURN JUMPDEST SWAP2 SWAP1 DUP7 SWAP4 POP PUSH1 0x6 DUP4 MSTORE PUSH32 0xF652222313E28459528D920B65115C16C04F3EFC82AAEDC97BE59F3F377C0D3F JUMPDEST DUP3 DUP5 LT PUSH2 0x65B JUMPI POP POP POP DUP3 ADD ADD DUP2 PUSH2 0x604 PUSH2 0x613 PUSH2 0x5F1 JUMP JUMPDEST DUP1 SLOAD DUP5 DUP11 ADD DUP7 ADD MSTORE DUP9 SWAP6 POP DUP8 SWAP5 SWAP1 SWAP4 ADD SWAP3 DUP2 ADD PUSH2 0x642 JUMP JUMPDEST PUSH1 0xFF NOT AND DUP8 DUP3 ADD MSTORE SWAP4 ISZERO ISZERO PUSH1 0x5 SHL DUP7 ADD SWAP1 SWAP4 ADD SWAP4 POP DUP5 SWAP3 POP PUSH2 0x604 SWAP2 POP PUSH2 0x613 SWAP1 POP PUSH2 0x5F1 JUMP JUMPDEST PUSH4 0x4E487B71 PUSH1 0xE0 SHL DUP4 MSTORE PUSH1 0x22 DUP11 MSTORE PUSH1 0x24 DUP4 REVERT JUMPDEST SWAP3 PUSH1 0x7F AND SWAP3 PUSH2 0x5C7 JUMP JUMPDEST POP POP CALLVALUE PUSH2 0x294 JUMPI DUP2 PUSH1 0x3 NOT CALLDATASIZE ADD SLT PUSH2 0x294 JUMPI SWAP1 SLOAD SWAP1 MLOAD PUSH1 0x1 PUSH1 0x1 PUSH1 0xA0 SHL SUB SWAP1 SWAP2 AND DUP2 MSTORE PUSH1 0x20 SWAP1 RETURN JUMPDEST POP POP CALLVALUE PUSH2 0x294 JUMPI DUP2 PUSH1 0x3 NOT CALLDATASIZE ADD SLT PUSH2 0x294 JUMPI PUSH1 0x20 SWAP1 MLOAD PUSH1 0x1 PUSH1 0x1 PUSH1 0x40 SHL SUB PUSH32 0x0 AND DUP2 MSTORE RETURN JUMPDEST POP SWAP1 CALLVALUE PUSH2 0x242 JUMPI PUSH1 0x20 SWAP2 PUSH1 0x3 NOT DUP4 DUP2 CALLDATASIZE ADD SLT PUSH2 0x90C JUMPI DUP2 CALLDATALOAD SWAP1 PUSH1 0x1 PUSH1 0x1 PUSH1 0x40 SHL SUB SWAP1 DUP2 DUP4 GT PUSH2 0xA63 JUMPI PUSH1 0xA0 SWAP1 DUP4 CALLDATASIZE SUB ADD SLT PUSH2 0x98E JUMPI PUSH1 0x1 PUSH1 0x1 PUSH1 0xA0 SHL SUB SWAP3 PUSH32 0x0 DUP5 AND CALLER SUB PUSH2 0xB75 JUMPI DUP5 MLOAD SWAP2 PUSH2 0x796 DUP4 PUSH2 0x1F8D JUMP JUMPDEST DUP4 DUP3 ADD CALLDATALOAD DUP4 MSTORE PUSH1 0x24 SWAP1 DUP2 DUP6 ADD CALLDATALOAD DUP2 DUP2 AND DUP2 SUB PUSH2 0xB50 JUMPI DUP9 DUP6 ADD MSTORE PUSH1 0x44 DUP6 ADD CALLDATALOAD DUP2 DUP2 GT PUSH2 0xA6B JUMPI PUSH2 0x7CB SWAP1 DUP5 CALLDATASIZE SWAP2 DUP9 ADD ADD PUSH2 0x2043 JUMP JUMPDEST SWAP4 DUP8 DUP2 ADD SWAP5 DUP6 MSTORE PUSH1 0x64 DUP7 ADD CALLDATALOAD DUP3 DUP2 GT PUSH2 0xB6D JUMPI PUSH2 0x7ED SWAP1 DUP6 CALLDATASIZE SWAP2 DUP10 ADD ADD PUSH2 0x2043 JUMP JUMPDEST SWAP6 PUSH1 0x60 DUP3 ADD SWAP7 DUP8 MSTORE PUSH1 0x84 DUP2 ADD CALLDATALOAD SWAP1 DUP4 DUP3 GT PUSH2 0xB71 JUMPI ADD CALLDATASIZE PUSH1 0x23 DUP3 ADD SLT ISZERO PUSH2 0xB6D JUMPI DUP5 DUP2 ADD CALLDATALOAD SWAP3 DUP4 GT PUSH2 0xB59 JUMPI DUP9 MLOAD SWAP3 PUSH2 0x82B DUP12 DUP3 PUSH1 0x5 SHL ADD DUP6 PUSH2 0x2022 JUMP JUMPDEST DUP1 DUP5 MSTORE DUP5 DUP12 DUP6 ADD SWAP2 PUSH1 0x6 SHL DUP4 ADD ADD SWAP2 CALLDATASIZE DUP4 GT PUSH2 0xB55 JUMPI DUP6 ADD SWAP1 JUMPDEST DUP3 DUP3 LT PUSH2 0xB16 JUMPI POP POP POP PUSH1 0x80 ADD MSTORE DUP3 MLOAD DUP8 DUP2 DUP1 MLOAD DUP2 ADD SUB SLT PUSH2 0xA67 JUMPI PUSH2 0x86D DUP9 DUP8 SWAP3 ADD PUSH2 0x2569 JUMP JUMPDEST AND DUP1 DUP10 MSTORE PUSH1 0x8 DUP9 MSTORE PUSH1 0xFF DUP8 DUP11 KECCAK256 SLOAD AND ISZERO PUSH2 0xB01 JUMPI POP DUP3 MLOAD DUP8 DUP2 DUP1 MLOAD DUP2 ADD SUB SLT PUSH2 0xA67 JUMPI PUSH2 0x89C DUP9 DUP8 SWAP3 ADD PUSH2 0x2569 JUMP JUMPDEST AND DUP9 MSTORE PUSH1 0x8 DUP8 MSTORE PUSH1 0xFF DUP7 DUP10 KECCAK256 SLOAD AND ISZERO PUSH2 0xAB0 JUMPI DUP4 MLOAD DUP8 DUP2 DUP1 MLOAD DUP2 ADD SUB SLT PUSH2 0xA67 JUMPI PUSH2 0x8CA DUP9 PUSH1 0xFF SWAP3 ADD PUSH2 0x257D JUMP JUMPDEST AND DUP1 PUSH2 0x910 JUMPI POP POP POP POP MLOAD SWAP2 PUSH1 0x60 DUP4 DUP1 MLOAD DUP2 ADD SUB SLT PUSH2 0x90C JUMPI PUSH2 0x8FF PUSH1 0x60 SWAP2 PUSH2 0x8F7 PUSH2 0x909 SWAP7 DUP7 ADD PUSH2 0x257D JUMP JUMPDEST POP DUP5 ADD PUSH2 0x2569 JUMP JUMPDEST SWAP3 ADD MLOAD SWAP2 AND PUSH2 0x23C3 JUMP JUMPDEST DUP1 RETURN JUMPDEST DUP5 DUP1 REVERT JUMPDEST PUSH1 0x1 DUP2 SWAP9 SWAP8 SWAP6 SWAP4 SWAP5 SWAP7 SWAP9 EQ PUSH1 0x0 EQ PUSH2 0x992 JUMPI POP POP POP POP DUP2 MLOAD DUP4 DUP2 DUP1 MLOAD DUP2 ADD SUB SLT PUSH2 0x98E JUMPI PUSH2 0x940 DUP5 DUP7 SWAP3 ADD PUSH2 0x2569 JUMP JUMPDEST AND DUP6 MSTORE PUSH1 0x8 DUP4 MSTORE DUP5 KECCAK256 PUSH2 0x100 PUSH2 0xFF00 NOT DUP3 SLOAD AND OR SWAP1 SSTORE MLOAD SWAP1 DUP1 DUP3 DUP1 MLOAD DUP2 ADD SUB SLT PUSH2 0x98A JUMPI PUSH2 0x96E SWAP2 ADD PUSH2 0x2569 JUMP JUMPDEST AND PUSH12 0xFFFFFFFFFFFFFFFFFFFFFFFF PUSH1 0xA0 SHL PUSH1 0xA SLOAD AND OR PUSH1 0xA SSTORE DUP1 RETURN JUMPDEST DUP4 DUP1 REVERT JUMPDEST DUP6 DUP1 REVERT JUMPDEST PUSH1 0x2 SWAP1 SWAP8 SWAP5 SWAP6 SWAP8 SWAP7 SWAP4 SWAP7 EQ PUSH1 0x0 EQ PUSH2 0xA6F JUMPI POP MLOAD SWAP5 PUSH1 0x80 DUP7 DUP1 MLOAD DUP2 ADD SUB SLT PUSH2 0xA63 JUMPI PUSH2 0x9BF DUP3 DUP8 ADD PUSH2 0x257D JUMP JUMPDEST POP DUP4 DUP7 ADD MLOAD SWAP6 PUSH1 0x80 PUSH1 0x60 DUP3 ADD MLOAD SWAP2 ADD MLOAD SWAP7 DUP3 MLOAD DUP5 DUP2 DUP1 MLOAD DUP2 ADD SUB SLT PUSH2 0xA6B JUMPI PUSH2 0x9EA DUP6 DUP8 SWAP3 ADD PUSH2 0x2569 JUMP JUMPDEST AND DUP10 MSTORE PUSH1 0x8 DUP5 MSTORE TIMESTAMP PUSH1 0x1 DUP8 DUP12 KECCAK256 ADD SSTORE DUP3 MLOAD DUP5 DUP2 DUP1 MLOAD DUP2 ADD SUB SLT PUSH2 0xA6B JUMPI PUSH2 0xA13 DUP6 DUP8 SWAP3 ADD PUSH2 0x2569 JUMP JUMPDEST AND DUP10 MSTORE PUSH1 0x2 DUP7 DUP11 KECCAK256 ADD SSTORE DUP2 MLOAD DUP4 DUP2 DUP1 MLOAD DUP2 ADD SUB SLT PUSH2 0xA67 JUMPI PUSH2 0xA37 DUP5 DUP7 SWAP3 ADD PUSH2 0x2569 JUMP JUMPDEST AND DUP9 MSTORE PUSH1 0x3 DUP6 DUP10 KECCAK256 ADD SSTORE MLOAD SWAP1 DUP1 DUP3 DUP1 MLOAD DUP2 ADD SUB SLT PUSH2 0xA63 JUMPI PUSH2 0xA59 SWAP2 ADD PUSH2 0x2569 JUMP JUMPDEST AND DUP5 MSTORE DUP4 KECCAK256 ADD SSTORE DUP1 RETURN JUMPDEST DUP7 DUP1 REVERT JUMPDEST DUP9 DUP1 REVERT JUMPDEST DUP10 DUP1 REVERT JUMPDEST DUP6 PUSH1 0x19 PUSH1 0x64 SWAP3 DUP6 DUP9 MLOAD SWAP4 PUSH3 0x461BCD PUSH1 0xE5 SHL DUP6 MSTORE DUP5 ADD MSTORE DUP3 ADD MSTORE PUSH32 0x696E76616C696420636F6D6D616E642066726F6D204E6F646500000000000000 PUSH1 0x44 DUP3 ADD MSTORE REVERT JUMPDEST DUP6 MLOAD PUSH3 0x461BCD PUSH1 0xE5 SHL DUP2 MSTORE SWAP2 DUP3 ADD DUP8 SWAP1 MSTORE PUSH1 0x26 SWAP1 DUP3 ADD MSTORE PUSH32 0x496E636F6D696E67204D657373616765206E6F742066726F6D20612076616C69 PUSH1 0x44 DUP3 ADD MSTORE PUSH6 0x64206E6F6465 PUSH1 0xD0 SHL PUSH1 0x64 DUP3 ADD MSTORE PUSH1 0x84 SWAP1 REVERT JUMPDEST DUP7 MLOAD PUSH4 0x6A9FF79F PUSH1 0xE1 SHL DUP2 MSTORE DUP1 DUP5 ADD SWAP2 SWAP1 SWAP2 MSTORE REVERT JUMPDEST DUP11 DUP3 CALLDATASIZE SUB SLT PUSH2 0xB55 JUMPI DUP11 MLOAD SWAP1 PUSH2 0xB2B DUP3 PUSH2 0x1FEC JUMP JUMPDEST DUP3 CALLDATALOAD SWAP1 DUP12 DUP3 AND DUP3 SUB PUSH2 0xB50 JUMPI DUP3 DUP15 SWAP3 DUP15 SWAP5 MSTORE DUP3 DUP6 ADD CALLDATALOAD DUP4 DUP3 ADD MSTORE DUP2 MSTORE ADD SWAP2 ADD SWAP1 PUSH2 0x845 JUMP JUMPDEST PUSH1 0x0 DUP1 REVERT JUMPDEST DUP13 DUP1 REVERT JUMPDEST DUP4 PUSH1 0x41 DUP7 PUSH4 0x4E487B71 PUSH1 0xE0 SHL PUSH1 0x0 MSTORE MSTORE PUSH1 0x0 REVERT JUMPDEST DUP11 DUP1 REVERT JUMPDEST DUP12 DUP1 REVERT JUMPDEST PUSH1 0x24 SWAP1 DUP6 MLOAD SWAP1 PUSH4 0x35FDCCCD PUSH1 0xE2 SHL DUP3 MSTORE CALLER SWAP1 DUP3 ADD MSTORE REVERT JUMPDEST POP SWAP1 CALLVALUE PUSH2 0x242 JUMPI DUP3 PUSH1 0x3 NOT CALLDATASIZE ADD SLT PUSH2 0x242 JUMPI PUSH1 0x1 SLOAD SWAP2 PUSH1 0x1 PUSH1 0x1 PUSH1 0xA0 SHL SUB SWAP2 DUP3 DUP5 AND CALLER SUB PUSH2 0xBF7 JUMPI POP POP DUP3 SLOAD PUSH1 0x1 PUSH1 0x1 PUSH1 0xA0 SHL SUB NOT DUP1 DUP3 AND CALLER SWAP1 DUP2 OR DUP7 SSTORE SWAP4 AND PUSH1 0x1 SSTORE AND PUSH32 0x8BE0079C531659141344CD1FD0A4F28419497F9722A3DAAFE3B4186F6B6457E0 DUP4 DUP1 LOG3 DUP1 RETURN JUMPDEST SWAP1 PUSH1 0x20 PUSH1 0x64 SWAP3 MLOAD SWAP2 PUSH3 0x461BCD PUSH1 0xE5 SHL DUP4 MSTORE DUP3 ADD MSTORE PUSH1 0x16 PUSH1 0x24 DUP3 ADD MSTORE PUSH22 0x26BAB9BA10313290383937B837B9B2B21037BBB732B9 PUSH1 0x51 SHL PUSH1 0x44 DUP3 ADD MSTORE REVERT JUMPDEST POP POP CALLVALUE PUSH2 0x294 JUMPI PUSH1 0x20 CALLDATASIZE PUSH1 0x3 NOT ADD SLT PUSH2 0x294 JUMPI PUSH1 0x20 SWAP2 DUP2 SWAP1 PUSH1 0x1 PUSH1 0x1 PUSH1 0xA0 SHL SUB PUSH2 0xC5B PUSH2 0x1F0B JUMP JUMPDEST AND DUP2 MSTORE PUSH1 0x2 DUP5 MSTORE KECCAK256 SLOAD SWAP1 MLOAD SWAP1 DUP2 MSTORE RETURN JUMPDEST DUP4 CALLVALUE PUSH2 0x43A JUMPI DUP1 PUSH1 0x3 NOT CALLDATASIZE ADD SLT PUSH2 0x43A JUMPI PUSH2 0xC84 PUSH2 0x25C2 JUMP JUMPDEST PUSH1 0xFF NOT PUSH1 0x9 SLOAD AND PUSH1 0x9 SSTORE DUP1 RETURN JUMPDEST POP POP CALLVALUE PUSH2 0x294 JUMPI DUP2 PUSH1 0x3 NOT CALLDATASIZE ADD SLT PUSH2 0x294 JUMPI PUSH1 0xA SLOAD SWAP1 MLOAD PUSH1 0x1 PUSH1 0x1 PUSH1 0xA0 SHL SUB SWAP1 SWAP2 AND DUP2 MSTORE PUSH1 0x20 SWAP1 RETURN JUMPDEST POP POP CALLVALUE PUSH2 0x294 JUMPI DUP2 PUSH1 0x3 NOT CALLDATASIZE ADD SLT PUSH2 0x294 JUMPI PUSH1 0x20 SWAP1 PUSH1 0xFF PUSH1 0x9 SLOAD AND SWAP1 MLOAD SWAP1 ISZERO ISZERO DUP2 MSTORE RETURN JUMPDEST POP POP CALLVALUE PUSH2 0x294 JUMPI DUP2 PUSH1 0x3 NOT CALLDATASIZE ADD SLT PUSH2 0x294 JUMPI PUSH1 0x9 SLOAD SWAP1 MLOAD PUSH1 0x8 SWAP2 SWAP1 SWAP2 SHR PUSH1 0x1 PUSH1 0x1 PUSH1 0xA0 SHL SUB AND DUP2 MSTORE PUSH1 0x20 SWAP1 RETURN JUMPDEST SWAP3 SWAP1 POP CALLVALUE PUSH2 0x1236 JUMPI DUP1 PUSH1 0x3 NOT CALLDATASIZE ADD SLT PUSH2 0x1236 JUMPI PUSH2 0xD26 PUSH2 0x1F77 JUMP JUMPDEST SWAP2 PUSH2 0xD2F PUSH2 0x1F21 JUMP JUMPDEST DUP3 MLOAD SWAP1 PUSH1 0x20 PUSH1 0x1 DUP2 DUP5 ADD MSTORE PUSH1 0x1 PUSH1 0x1 PUSH1 0x40 SHL SUB DUP1 SWAP7 AND SWAP3 DUP4 DUP7 DUP3 ADD MSTORE PUSH1 0x1 DUP1 PUSH1 0xA0 SHL SUB DUP1 SWAP4 AND SWAP7 PUSH1 0x60 DUP9 DUP2 DUP5 ADD MSTORE DUP1 DUP4 MSTORE PUSH2 0xD69 DUP4 PUSH2 0x2007 JUMP JUMPDEST DUP5 PUSH1 0xA SLOAD AND DUP11 MSTORE PUSH1 0x8 DUP5 MSTORE DUP8 DUP11 KECCAK256 PUSH2 0xFF00 NOT DUP2 SLOAD AND SWAP1 SSTORE DUP5 PUSH1 0xA SLOAD AND SWAP3 DUP4 DUP12 MSTORE DUP9 DUP12 KECCAK256 SLOAD DUP4 DUP2 PUSH1 0x10 SHR AND SWAP4 PUSH32 0x0 AND DUP5 EQ PUSH1 0x0 EQ PUSH2 0xE31 JUMPI POP POP POP POP POP POP PUSH1 0xA SLOAD AND DUP1 EXTCODESIZE ISZERO PUSH2 0x98E JUMPI DUP6 SWAP3 DUP4 PUSH1 0x44 SWAP3 DUP7 MLOAD SWAP8 DUP9 SWAP6 DUP7 SWAP5 PUSH4 0x4BB297FF PUSH1 0xE1 SHL DUP7 MSTORE DUP6 ADD MSTORE PUSH1 0x24 DUP5 ADD MSTORE GAS CALL SWAP1 DUP2 ISZERO PUSH2 0xE28 JUMPI POP PUSH2 0xE14 JUMPI JUMPDEST POP POP JUMPDEST PUSH1 0xA DUP1 SLOAD PUSH1 0x1 PUSH1 0x1 PUSH1 0xA0 SHL SUB NOT AND SWAP1 SSTORE DUP1 RETURN JUMPDEST PUSH2 0xE1D SWAP1 PUSH2 0x1FD9 JUMP JUMPDEST PUSH2 0x43A JUMPI DUP1 CODESIZE PUSH2 0xDFE JUMP JUMPDEST MLOAD RETURNDATASIZE DUP5 DUP3 RETURNDATACOPY RETURNDATASIZE SWAP1 REVERT JUMPDEST SWAP2 SWAP5 SWAP11 POP SWAP3 SWAP8 SWAP9 POP PUSH1 0xFF SWAP2 SWAP6 POP SWAP6 SWAP4 SWAP6 AND ISZERO PUSH2 0x121F JUMPI DUP5 PUSH1 0x7 SLOAD AND DUP3 DUP2 SWAP4 PUSH1 0x80 DUP11 MLOAD PUSH2 0xE5C DUP2 PUSH2 0x1F8D JUMP JUMPDEST DUP3 DUP2 MSTORE DUP3 DUP14 DUP3 ADD MSTORE DUP3 DUP13 DUP3 ADD MSTORE DUP14 DUP4 DUP3 ADD MSTORE ADD MSTORE DUP9 MLOAD SWAP8 DUP11 DUP10 ADD MSTORE DUP10 DUP9 MSTORE PUSH2 0xE83 DUP9 PUSH2 0x1FEC JUMP JUMPDEST DUP9 MLOAD PUSH2 0xE8E DUP2 PUSH2 0x1FBE JUMP JUMPDEST PUSH1 0x0 DUP2 MSTORE PUSH2 0xEAB DUP11 MLOAD PUSH2 0xEA0 DUP2 PUSH2 0x1FBE JUMP JUMPDEST PUSH3 0x1E8480 DUP2 MSTORE PUSH2 0x258B JUMP JUMPDEST SWAP4 DUP11 MLOAD SWAP10 PUSH2 0xEB8 DUP12 PUSH2 0x1F8D JUMP JUMPDEST DUP11 MSTORE DUP12 DUP11 ADD MSTORE DUP10 DUP10 ADD MSTORE DUP8 ADD MSTORE PUSH1 0x80 DUP7 ADD MSTORE DUP6 MLOAD PUSH4 0xB0F479A1 PUSH1 0xE0 SHL DUP2 MSTORE DUP8 DUP2 DUP5 DUP2 ADDRESS GAS STATICCALL SWAP1 DUP2 ISZERO PUSH2 0x1215 JUMPI SWAP1 DUP6 SWAP2 DUP11 SWAP2 PUSH2 0x11DB JUMPI JUMPDEST POP AND SWAP4 DUP9 DUP8 MLOAD SWAP3 PUSH4 0x20487DED PUSH1 0xE0 SHL DUP5 MSTORE DUP10 DUP5 DUP1 PUSH2 0xF0F DUP12 DUP11 DUP11 DUP5 ADD PUSH2 0x20F3 JUMP JUMPDEST SUB DUP2 DUP11 GAS STATICCALL SWAP4 DUP5 ISZERO PUSH2 0x11D1 JUMPI SWAP1 DUP11 SWAP2 DUP4 SWAP6 PUSH2 0x119F JUMPI JUMPDEST POP PUSH1 0x64 DUP11 MLOAD DUP1 SWAP5 DUP2 SWAP4 PUSH4 0x23B872DD PUSH1 0xE0 SHL DUP4 MSTORE CALLER DUP11 DUP5 ADD MSTORE ADDRESS PUSH1 0x24 DUP5 ADD MSTORE DUP9 PUSH1 0x44 DUP5 ADD MSTORE GAS CALL SWAP1 DUP2 ISZERO PUSH2 0x1195 JUMPI DUP11 SWAP2 PUSH2 0x1178 JUMPI JUMPDEST POP ISZERO PUSH2 0x1135 JUMPI PUSH1 0x7 SLOAD AND SWAP1 DUP7 MLOAD PUSH4 0x70A08231 PUSH1 0xE0 SHL SWAP1 DUP2 DUP2 MSTORE ADDRESS DUP6 DUP3 ADD MSTORE DUP10 DUP2 PUSH1 0x24 DUP2 DUP8 GAS STATICCALL SWAP1 DUP2 ISZERO PUSH2 0x112B JUMPI DUP12 SWAP2 PUSH2 0x10FE JUMPI JUMPDEST POP DUP3 GT PUSH2 0x1082 JUMPI POP DUP7 MLOAD PUSH4 0x95EA7B3 PUSH1 0xE0 SHL DUP2 MSTORE PUSH1 0x1 PUSH1 0x1 PUSH1 0xA0 SHL SUB DUP7 AND DUP2 DUP6 ADD SWAP1 DUP2 MSTORE PUSH1 0x20 DUP2 ADD SWAP3 SWAP1 SWAP3 MSTORE DUP10 SWAP4 SWAP3 SWAP1 SWAP2 DUP10 SWAP2 DUP4 SWAP2 DUP3 SWAP1 DUP8 SWAP1 DUP3 SWAP1 PUSH1 0x40 ADD SUB SWAP3 GAS CALL DUP1 ISZERO PUSH2 0x1078 JUMPI SWAP2 DUP9 SWAP6 SWAP4 SWAP2 PUSH2 0x1001 SWAP9 SWAP8 SWAP6 SWAP4 PUSH2 0x104B JUMPI JUMPDEST POP DUP7 MLOAD PUSH4 0x96F4E9F9 PUSH1 0xE0 SHL DUP2 MSTORE SWAP8 DUP9 SWAP6 DUP7 SWAP5 DUP6 SWAP4 DUP5 ADD PUSH2 0x20F3 JUMP JUMPDEST SUB SWAP3 GAS CALL SWAP1 DUP2 ISZERO PUSH2 0x1042 JUMPI POP PUSH2 0x1019 JUMPI JUMPDEST POP POP PUSH2 0xE01 JUMP JUMPDEST DUP2 RETURNDATASIZE DUP4 GT PUSH2 0x103B JUMPI JUMPDEST PUSH2 0x102C DUP2 DUP4 PUSH2 0x2022 JUMP JUMPDEST DUP2 ADD SUB SLT PUSH2 0x43A JUMPI CODESIZE DUP1 PUSH2 0x1012 JUMP JUMPDEST POP RETURNDATASIZE PUSH2 0x1022 JUMP JUMPDEST MLOAD RETURNDATASIZE DUP6 DUP3 RETURNDATACOPY RETURNDATASIZE SWAP1 REVERT JUMPDEST PUSH2 0x106A SWAP1 DUP8 RETURNDATASIZE DUP10 GT PUSH2 0x1071 JUMPI JUMPDEST PUSH2 0x1062 DUP2 DUP4 PUSH2 0x2022 JUMP JUMPDEST DUP2 ADD SWAP1 PUSH2 0x21BF JUMP JUMPDEST POP CODESIZE PUSH2 0xFE6 JUMP JUMPDEST POP RETURNDATASIZE PUSH2 0x1058 JUMP JUMPDEST DUP8 MLOAD RETURNDATASIZE DUP6 DUP3 RETURNDATACOPY RETURNDATASIZE SWAP1 REVERT JUMPDEST SWAP1 DUP10 DUP9 DUP11 DUP1 DUP8 SWAP6 PUSH1 0x24 DUP5 MLOAD DUP1 SWAP10 DUP2 SWAP4 DUP3 MSTORE ADDRESS DUP11 DUP4 ADD MSTORE GAS STATICCALL SWAP3 DUP4 ISZERO PUSH2 0x10F3 JUMPI SWAP3 PUSH2 0x10C2 JUMPI JUMPDEST POP MLOAD PUSH4 0x4787A103 PUSH1 0xE1 SHL DUP2 MSTORE SWAP3 DUP4 ADD MSTORE PUSH1 0x24 DUP3 ADD MSTORE PUSH1 0x44 SWAP2 POP REVERT JUMPDEST SWAP1 SWAP2 POP DUP5 DUP2 RETURNDATASIZE DUP4 GT PUSH2 0x10EC JUMPI JUMPDEST PUSH2 0x10D9 DUP2 DUP4 PUSH2 0x2022 JUMP JUMPDEST DUP2 ADD SUB SLT PUSH2 0xB50 JUMPI PUSH1 0x44 SWAP4 MLOAD SWAP1 DUP6 PUSH2 0x10A7 JUMP JUMPDEST POP RETURNDATASIZE PUSH2 0x10CF JUMP JUMPDEST DUP3 MLOAD SWAP1 RETURNDATASIZE SWAP1 DUP3 RETURNDATACOPY RETURNDATASIZE SWAP1 REVERT JUMPDEST SWAP1 POP DUP10 DUP2 DUP2 RETURNDATASIZE DUP4 GT PUSH2 0x1124 JUMPI JUMPDEST PUSH2 0x1115 DUP2 DUP4 PUSH2 0x2022 JUMP JUMPDEST DUP2 ADD SUB SLT PUSH2 0xB50 JUMPI MLOAD CODESIZE PUSH2 0xF8D JUMP JUMPDEST POP RETURNDATASIZE PUSH2 0x110B JUMP JUMPDEST DUP10 MLOAD RETURNDATASIZE DUP14 DUP3 RETURNDATACOPY RETURNDATASIZE SWAP1 REVERT JUMPDEST DUP7 MLOAD PUSH3 0x461BCD PUSH1 0xE5 SHL DUP2 MSTORE DUP1 DUP5 ADD DUP10 SWAP1 MSTORE PUSH1 0x1A PUSH1 0x24 DUP3 ADD MSTORE PUSH32 0x4E6F742070726F7669646564204C696E6B20666F722066656573000000000000 PUSH1 0x44 DUP3 ADD MSTORE PUSH1 0x64 SWAP1 REVERT JUMPDEST PUSH2 0x118F SWAP2 POP DUP10 RETURNDATASIZE DUP12 GT PUSH2 0x1071 JUMPI PUSH2 0x1062 DUP2 DUP4 PUSH2 0x2022 JUMP JUMPDEST CODESIZE PUSH2 0xF59 JUMP JUMPDEST DUP9 MLOAD RETURNDATASIZE DUP13 DUP3 RETURNDATACOPY RETURNDATASIZE SWAP1 REVERT JUMPDEST SWAP3 POP SWAP4 POP DUP2 DUP2 RETURNDATASIZE DUP4 GT PUSH2 0x11CA JUMPI JUMPDEST PUSH2 0x11B7 DUP2 DUP4 PUSH2 0x2022 JUMP JUMPDEST DUP2 ADD SUB SLT PUSH2 0xB50 JUMPI DUP9 DUP11 SWAP2 MLOAD SWAP4 CODESIZE PUSH2 0xF25 JUMP JUMPDEST POP RETURNDATASIZE PUSH2 0x11AD JUMP JUMPDEST DUP10 MLOAD RETURNDATASIZE DUP5 DUP3 RETURNDATACOPY RETURNDATASIZE SWAP1 REVERT JUMPDEST DUP1 SWAP3 POP DUP10 DUP1 SWAP3 POP RETURNDATASIZE DUP4 GT PUSH2 0x120E JUMPI JUMPDEST PUSH2 0x11F4 DUP2 DUP4 PUSH2 0x2022 JUMP JUMPDEST DUP2 ADD SUB SLT PUSH2 0xA67 JUMPI MLOAD DUP5 DUP2 AND DUP2 SUB PUSH2 0xA67 JUMPI DUP5 SWAP1 CODESIZE PUSH2 0xEEE JUMP JUMPDEST POP RETURNDATASIZE PUSH2 0x11EA JUMP JUMPDEST DUP8 MLOAD RETURNDATASIZE DUP12 DUP3 RETURNDATACOPY RETURNDATASIZE SWAP1 REVERT JUMPDEST DUP7 MLOAD PUSH4 0x6A9FF79F PUSH1 0xE1 SHL DUP2 MSTORE DUP1 DUP5 ADD DUP8 SWAP1 MSTORE PUSH1 0x24 SWAP1 REVERT JUMPDEST POP POP REVERT JUMPDEST POP SWAP2 CALLVALUE PUSH2 0x43A JUMPI PUSH1 0xA0 CALLDATASIZE PUSH1 0x3 NOT ADD SLT PUSH2 0x43A JUMPI PUSH2 0x1255 PUSH2 0x1F77 JUMP JUMPDEST SWAP2 PUSH2 0x125E PUSH2 0x1F21 JUMP JUMPDEST PUSH1 0x1 PUSH1 0x1 PUSH1 0xA0 SHL SUB SWAP4 PUSH1 0x44 CALLDATALOAD DUP6 DUP2 AND SWAP2 SWAP1 DUP3 SWAP1 SUB PUSH2 0xB50 JUMPI PUSH1 0x64 CALLDATALOAD SWAP1 DUP7 DUP3 AND DUP1 SWAP3 SUB PUSH2 0xB50 JUMPI PUSH1 0x84 CALLDATALOAD SWAP8 PUSH1 0x1 PUSH1 0x1 PUSH1 0x40 SHL SUB DUP10 GT PUSH2 0xA63 JUMPI PUSH2 0x12A9 PUSH2 0x1325 SWAP7 SWAP8 SWAP9 SWAP10 CALLDATASIZE SWAP1 DUP4 ADD PUSH2 0x2043 JUMP JUMPDEST DUP8 MLOAD SWAP5 PUSH1 0x20 SWAP11 DUP12 SWAP8 AND DUP8 DUP8 ADD MSTORE DUP7 DUP7 MSTORE PUSH2 0x12C2 DUP7 PUSH2 0x1FEC JUMP JUMPDEST DUP9 MLOAD PUSH2 0x12CD DUP2 PUSH2 0x1FBE JUMP JUMPDEST PUSH1 0x0 DUP2 MSTORE PUSH2 0x12EA DUP11 MLOAD PUSH2 0x12DF DUP2 PUSH2 0x1FBE JUMP JUMPDEST PUSH3 0xF4240 DUP2 MSTORE PUSH2 0x258B JUMP JUMPDEST SWAP3 DUP11 MLOAD SWAP8 PUSH2 0x12F7 DUP10 PUSH2 0x1F8D JUMP JUMPDEST DUP9 MSTORE DUP9 DUP9 ADD MSTORE DUP10 DUP8 ADD MSTORE PUSH1 0x60 DUP7 ADD MSTORE PUSH1 0x80 DUP6 ADD MSTORE DUP7 MLOAD PUSH4 0x20487DED PUSH1 0xE0 SHL DUP2 MSTORE SWAP6 DUP7 SWAP5 DUP6 SWAP4 DUP5 SWAP4 DUP5 ADD PUSH2 0x20F3 JUMP JUMPDEST SUB SWAP2 GAS STATICCALL SWAP3 DUP4 ISZERO PUSH2 0x10F3 JUMPI SWAP3 PUSH2 0x133D JUMPI JUMPDEST POP MLOAD SWAP1 DUP2 MSTORE RETURN JUMPDEST SWAP1 SWAP2 POP DUP3 DUP2 DUP2 RETURNDATASIZE DUP4 GT PUSH2 0x1365 JUMPI JUMPDEST PUSH2 0x1355 DUP2 DUP4 PUSH2 0x2022 JUMP JUMPDEST DUP2 ADD SUB SLT PUSH2 0xB50 JUMPI MLOAD SWAP1 CODESIZE PUSH2 0x1336 JUMP JUMPDEST POP RETURNDATASIZE PUSH2 0x134B JUMP JUMPDEST POP POP CALLVALUE PUSH2 0x294 JUMPI DUP1 PUSH1 0x3 NOT CALLDATASIZE ADD SLT PUSH2 0x294 JUMPI PUSH2 0x38D PUSH1 0x20 SWAP3 DUP3 PUSH2 0x138D PUSH2 0x1F0B JUMP JUMPDEST SWAP2 CALLER DUP2 MSTORE PUSH1 0x3 DUP7 MSTORE KECCAK256 PUSH1 0x1 DUP1 PUSH1 0xA0 SHL SUB DUP3 AND PUSH1 0x0 MSTORE DUP5 MSTORE PUSH2 0x13B4 PUSH1 0x24 CALLDATALOAD DUP5 PUSH1 0x0 KECCAK256 SLOAD PUSH2 0x21D7 JUMP JUMPDEST SWAP1 CALLER PUSH2 0x2467 JUMP JUMPDEST POP POP CALLVALUE PUSH2 0x294 JUMPI DUP2 PUSH1 0x3 NOT CALLDATASIZE ADD SLT PUSH2 0x294 JUMPI PUSH1 0x20 SWAP1 MLOAD PUSH1 0x12 DUP2 MSTORE RETURN JUMPDEST POP DUP3 SWAP1 CALLVALUE PUSH2 0x294 JUMPI PUSH1 0x20 SWAP3 DUP4 PUSH1 0x3 NOT CALLDATASIZE ADD SLT PUSH2 0x242 JUMPI PUSH1 0xA SLOAD PUSH1 0x1 PUSH1 0x1 PUSH1 0xA0 SHL SUB SWAP1 DUP2 AND DUP5 MSTORE PUSH1 0x8 DUP1 DUP7 MSTORE DUP3 DUP6 KECCAK256 SLOAD DUP5 CALLDATALOAD SWAP3 SWAP2 SHR PUSH1 0xFF AND ISZERO PUSH2 0x1970 JUMPI CALLER DUP6 MSTORE PUSH1 0x2 DUP7 MSTORE DUP3 DUP6 KECCAK256 SLOAD DUP3 GT PUSH2 0x1937 JUMPI DUP3 MLOAD SWAP6 DUP6 DUP2 DUP9 ADD MSTORE CALLER DUP5 DUP9 ADD MSTORE PUSH1 0x60 DUP4 DUP2 DUP10 ADD MSTORE DUP1 DUP9 MSTORE PUSH2 0x1444 DUP9 PUSH2 0x2007 JUMP JUMPDEST CALLER ISZERO PUSH2 0x18EA JUMPI CALLER DUP8 MSTORE PUSH1 0x2 DUP3 MSTORE DUP5 DUP8 KECCAK256 SLOAD SWAP8 DUP5 DUP10 LT PUSH2 0x189C JUMPI DUP5 DUP9 SWAP10 SWAP9 SWAP7 SWAP8 SWAP9 CALLER DUP9 MSTORE PUSH1 0x2 DUP6 MSTORE SUB DUP8 DUP8 KECCAK256 SSTORE DUP5 DUP9 SLOAD SUB DUP9 SSTORE DUP6 DUP8 MLOAD DUP7 DUP2 MSTORE PUSH32 0xDDF252AD1BE2C89B69C2B068FC378DAA952BA7F163C4A11628F55A4DF523B3EF DUP6 CALLER SWAP3 LOG3 DUP4 PUSH1 0xA SLOAD AND SWAP2 DUP3 DUP8 MSTORE PUSH1 0x8 DUP5 MSTORE DUP8 DUP8 KECCAK256 SLOAD SWAP2 PUSH1 0x1 PUSH1 0x1 PUSH1 0x40 SHL SUB SWAP3 DUP4 DUP2 PUSH1 0x10 SHR AND SWAP4 PUSH32 0x0 AND DUP5 EQ PUSH1 0x0 EQ PUSH2 0x1545 JUMPI POP POP POP POP POP POP PUSH1 0xA SLOAD AND DUP1 EXTCODESIZE ISZERO PUSH2 0x242 JUMPI DUP4 MLOAD PUSH4 0x15E005B7 PUSH1 0xE3 SHL DUP2 MSTORE CALLER SWAP6 DUP2 ADD SWAP6 DUP7 MSTORE PUSH1 0x20 DUP7 ADD SWAP3 SWAP1 SWAP3 MSTORE SWAP1 SWAP4 DUP5 SWAP2 SWAP1 DUP3 SWAP1 DUP5 SWAP1 DUP3 SWAP1 PUSH1 0x40 ADD SUB SWAP3 GAS CALL SWAP1 DUP2 ISZERO PUSH2 0xE28 JUMPI POP PUSH2 0x153C JUMPI POP DUP1 RETURN JUMPDEST PUSH2 0x909 SWAP1 PUSH2 0x1FD9 JUMP JUMPDEST SWAP1 SWAP3 SWAP6 SWAP7 POP PUSH1 0xFF SWAP2 SWAP4 SWAP8 POP SWAP9 SWAP4 SWAP9 AND ISZERO PUSH2 0x121F JUMPI DUP5 PUSH1 0x7 SLOAD AND DUP3 DUP2 SWAP4 PUSH1 0x80 DUP11 MLOAD PUSH2 0x156E DUP2 PUSH2 0x1F8D JUMP JUMPDEST DUP3 DUP2 MSTORE DUP3 DUP14 DUP3 ADD MSTORE DUP3 DUP13 DUP3 ADD MSTORE DUP14 DUP4 DUP3 ADD MSTORE ADD MSTORE DUP9 MLOAD SWAP8 DUP11 DUP10 ADD MSTORE DUP10 DUP9 MSTORE PUSH2 0x1595 DUP9 PUSH2 0x1FEC JUMP JUMPDEST DUP9 MLOAD PUSH2 0x15A0 DUP2 PUSH2 0x1FBE JUMP JUMPDEST DUP12 DUP2 MSTORE PUSH2 0x15B1 DUP11 MLOAD PUSH2 0xEA0 DUP2 PUSH2 0x1FBE JUMP JUMPDEST SWAP4 DUP11 MLOAD SWAP10 PUSH2 0x15BE DUP12 PUSH2 0x1F8D JUMP JUMPDEST DUP11 MSTORE DUP12 DUP11 ADD MSTORE DUP10 DUP10 ADD MSTORE DUP8 ADD MSTORE PUSH1 0x80 DUP7 ADD MSTORE DUP6 MLOAD PUSH4 0xB0F479A1 PUSH1 0xE0 SHL DUP2 MSTORE DUP8 DUP2 DUP5 DUP2 ADDRESS GAS STATICCALL SWAP1 DUP2 ISZERO PUSH2 0x1215 JUMPI SWAP1 DUP6 SWAP2 DUP11 SWAP2 PUSH2 0x1862 JUMPI JUMPDEST POP AND SWAP4 DUP9 DUP8 MLOAD SWAP3 PUSH4 0x20487DED PUSH1 0xE0 SHL DUP5 MSTORE DUP10 DUP5 DUP1 PUSH2 0x1615 DUP12 DUP11 DUP11 DUP5 ADD PUSH2 0x20F3 JUMP JUMPDEST SUB DUP2 DUP11 GAS STATICCALL SWAP4 DUP5 ISZERO PUSH2 0x11D1 JUMPI SWAP1 DUP11 SWAP2 DUP4 SWAP6 PUSH2 0x1831 JUMPI JUMPDEST POP PUSH1 0x64 DUP11 MLOAD DUP1 SWAP5 DUP2 SWAP4 PUSH4 0x23B872DD PUSH1 0xE0 SHL DUP4 MSTORE CALLER DUP11 DUP5 ADD MSTORE ADDRESS PUSH1 0x24 DUP5 ADD MSTORE DUP9 PUSH1 0x44 DUP5 ADD MSTORE GAS CALL SWAP1 DUP2 ISZERO PUSH2 0x1195 JUMPI DUP11 SWAP2 PUSH2 0x1814 JUMPI JUMPDEST POP ISZERO PUSH2 0x1135 JUMPI SWAP1 DUP9 SWAP3 SWAP2 PUSH1 0x7 SLOAD AND SWAP1 DUP8 MLOAD PUSH4 0x70A08231 PUSH1 0xE0 SHL SWAP1 DUP2 DUP2 MSTORE ADDRESS DUP6 DUP3 ADD MSTORE DUP11 DUP2 PUSH1 0x24 DUP2 DUP8 GAS STATICCALL SWAP1 DUP2 ISZERO PUSH2 0x180A JUMPI DUP7 SWAP2 PUSH2 0x17DD JUMPI JUMPDEST POP DUP3 GT PUSH2 0x175E JUMPI POP DUP8 MLOAD PUSH4 0x95EA7B3 PUSH1 0xE0 SHL DUP2 MSTORE PUSH1 0x1 PUSH1 0x1 PUSH1 0xA0 SHL SUB DUP8 AND DUP5 DUP3 ADD SWAP1 DUP2 MSTORE PUSH1 0x20 DUP2 ADD SWAP3 SWAP1 SWAP3 MSTORE SWAP2 DUP10 SWAP2 DUP4 SWAP2 SWAP1 DUP3 SWAP1 DUP8 SWAP1 DUP3 SWAP1 PUSH1 0x40 ADD SUB SWAP3 GAS CALL DUP1 ISZERO PUSH2 0x1078 JUMPI SWAP2 DUP9 SWAP6 SWAP4 SWAP2 PUSH2 0x1707 SWAP9 SWAP8 SWAP6 SWAP4 PUSH2 0x1741 JUMPI POP DUP7 MLOAD PUSH4 0x96F4E9F9 PUSH1 0xE0 SHL DUP2 MSTORE SWAP8 DUP9 SWAP6 DUP7 SWAP5 DUP6 SWAP4 DUP5 ADD PUSH2 0x20F3 JUMP JUMPDEST SUB SWAP3 GAS CALL SWAP1 DUP2 ISZERO PUSH2 0x1042 JUMPI POP PUSH2 0x171C JUMPI POP POP DUP1 RETURN JUMPDEST DUP2 RETURNDATASIZE DUP4 GT PUSH2 0x173A JUMPI JUMPDEST PUSH2 0x172F DUP2 DUP4 PUSH2 0x2022 JUMP JUMPDEST DUP2 ADD SUB SLT PUSH2 0x43A JUMPI DUP1 RETURN JUMPDEST POP RETURNDATASIZE PUSH2 0x1725 JUMP JUMPDEST PUSH2 0x1757 SWAP1 DUP8 RETURNDATASIZE DUP10 GT PUSH2 0x1071 JUMPI PUSH2 0x1062 DUP2 DUP4 PUSH2 0x2022 JUMP JUMPDEST POP DUP11 PUSH2 0xFE6 JUMP JUMPDEST DUP10 SWAP2 SWAP3 DUP3 DUP11 SWAP3 PUSH1 0x24 DUP5 MLOAD DUP1 SWAP5 DUP2 SWAP4 DUP3 MSTORE ADDRESS DUP11 DUP4 ADD MSTORE GAS STATICCALL SWAP3 DUP4 ISZERO PUSH2 0x17D3 JUMPI DUP7 SWAP4 PUSH2 0x179F JUMPI JUMPDEST POP POP MLOAD PUSH4 0x4787A103 PUSH1 0xE1 SHL DUP2 MSTORE SWAP3 DUP4 ADD MSTORE PUSH1 0x24 DUP3 ADD MSTORE PUSH1 0x44 SWAP2 POP REVERT JUMPDEST SWAP1 DUP1 SWAP3 SWAP4 POP DUP2 RETURNDATASIZE DUP4 GT PUSH2 0x17CC JUMPI JUMPDEST PUSH2 0x17B7 DUP2 DUP4 PUSH2 0x2022 JUMP JUMPDEST DUP2 ADD SUB SLT PUSH2 0x90C JUMPI PUSH1 0x44 SWAP5 POP MLOAD SWAP1 DUP6 DUP1 PUSH2 0x1783 JUMP JUMPDEST POP RETURNDATASIZE PUSH2 0x17AD JUMP JUMPDEST DUP3 MLOAD RETURNDATASIZE DUP9 DUP3 RETURNDATACOPY RETURNDATASIZE SWAP1 REVERT JUMPDEST SWAP1 POP DUP11 DUP2 DUP2 RETURNDATASIZE DUP4 GT PUSH2 0x1803 JUMPI JUMPDEST PUSH2 0x17F4 DUP2 DUP4 PUSH2 0x2022 JUMP JUMPDEST DUP2 ADD SUB SLT PUSH2 0x98E JUMPI MLOAD DUP13 PUSH2 0x1697 JUMP JUMPDEST POP RETURNDATASIZE PUSH2 0x17EA JUMP JUMPDEST DUP11 MLOAD RETURNDATASIZE DUP9 DUP3 RETURNDATACOPY RETURNDATASIZE SWAP1 REVERT JUMPDEST PUSH2 0x182B SWAP2 POP DUP10 RETURNDATASIZE DUP12 GT PUSH2 0x1071 JUMPI PUSH2 0x1062 DUP2 DUP4 PUSH2 0x2022 JUMP JUMPDEST DUP11 PUSH2 0x165F JUMP JUMPDEST DUP3 DUP2 SWAP4 SWAP3 SWAP7 POP RETURNDATASIZE DUP4 GT PUSH2 0x185B JUMPI JUMPDEST PUSH2 0x1849 DUP2 DUP4 PUSH2 0x2022 JUMP JUMPDEST DUP2 ADD SUB SLT PUSH2 0x294 JUMPI DUP10 SWAP1 MLOAD SWAP4 DUP13 PUSH2 0x162B JUMP JUMPDEST POP RETURNDATASIZE PUSH2 0x183F JUMP JUMPDEST DUP1 SWAP3 POP DUP10 DUP1 SWAP3 POP RETURNDATASIZE DUP4 GT PUSH2 0x1895 JUMPI JUMPDEST PUSH2 0x187B DUP2 DUP4 PUSH2 0x2022 JUMP JUMPDEST DUP2 ADD SUB SLT PUSH2 0xA67 JUMPI MLOAD DUP5 DUP2 AND DUP2 SUB PUSH2 0xA67 JUMPI DUP5 SWAP1 DUP11 PUSH2 0x15F4 JUMP JUMPDEST POP RETURNDATASIZE PUSH2 0x1871 JUMP JUMPDEST DUP6 MLOAD PUSH3 0x461BCD PUSH1 0xE5 SHL DUP2 MSTORE DUP1 DUP9 ADD DUP5 SWAP1 MSTORE PUSH1 0x22 PUSH1 0x24 DUP3 ADD MSTORE PUSH32 0x45524332303A206275726E20616D6F756E7420657863656564732062616C616E PUSH1 0x44 DUP3 ADD MSTORE PUSH2 0x6365 PUSH1 0xF0 SHL PUSH1 0x64 DUP3 ADD MSTORE PUSH1 0x84 SWAP1 REVERT JUMPDEST DUP5 MLOAD PUSH3 0x461BCD PUSH1 0xE5 SHL DUP2 MSTORE DUP1 DUP8 ADD DUP4 SWAP1 MSTORE PUSH1 0x21 PUSH1 0x24 DUP3 ADD MSTORE PUSH32 0x45524332303A206275726E2066726F6D20746865207A65726F20616464726573 PUSH1 0x44 DUP3 ADD MSTORE PUSH1 0x73 PUSH1 0xF8 SHL PUSH1 0x64 DUP3 ADD MSTORE PUSH1 0x84 SWAP1 REVERT JUMPDEST DUP3 MLOAD PUSH3 0x461BCD PUSH1 0xE5 SHL DUP2 MSTORE DUP1 DUP6 ADD DUP8 SWAP1 MSTORE PUSH1 0x13 PUSH1 0x24 DUP3 ADD MSTORE PUSH19 0x4E6F7420656E6F756768742062616C616E6365 PUSH1 0x68 SHL PUSH1 0x44 DUP3 ADD MSTORE PUSH1 0x64 SWAP1 REVERT JUMPDEST DUP3 MLOAD PUSH3 0x461BCD PUSH1 0xE5 SHL DUP2 MSTORE DUP1 DUP6 ADD DUP8 SWAP1 MSTORE PUSH1 0x12 PUSH1 0x24 DUP3 ADD MSTORE PUSH18 0x4E6F6465206973206E6F7420416374697665 PUSH1 0x70 SHL PUSH1 0x44 DUP3 ADD MSTORE PUSH1 0x64 SWAP1 REVERT JUMPDEST POP DUP3 SWAP1 CALLVALUE PUSH2 0x294 JUMPI PUSH1 0x60 CALLDATASIZE PUSH1 0x3 NOT ADD SLT PUSH2 0x294 JUMPI PUSH2 0x19C4 PUSH2 0x1F0B JUMP JUMPDEST PUSH2 0x19CC PUSH2 0x1F21 JUMP JUMPDEST PUSH1 0x1 PUSH1 0x1 PUSH1 0xA0 SHL SUB DUP3 AND DUP5 MSTORE PUSH1 0x3 PUSH1 0x20 SWAP1 DUP2 MSTORE DUP6 DUP6 KECCAK256 CALLER DUP7 MSTORE SWAP1 MSTORE SWAP3 DUP5 SWAP1 KECCAK256 SLOAD PUSH1 0x44 CALLDATALOAD SWAP4 SWAP3 PUSH1 0x1 DUP3 ADD PUSH2 0x1A08 JUMPI JUMPDEST PUSH1 0x20 DUP7 PUSH2 0x38D DUP8 DUP8 DUP8 PUSH2 0x2253 JUMP JUMPDEST DUP5 DUP3 LT PUSH2 0x1A31 JUMPI POP SWAP2 DUP4 SWAP2 PUSH2 0x1A26 PUSH1 0x20 SWAP7 SWAP6 PUSH2 0x38D SWAP6 SUB CALLER DUP4 PUSH2 0x2467 JUMP JUMPDEST SWAP2 SWAP4 SWAP5 DUP2 SWAP4 POP PUSH2 0x19FA JUMP JUMPDEST PUSH1 0x64 SWAP1 PUSH1 0x20 DUP8 MLOAD SWAP2 PUSH3 0x461BCD PUSH1 0xE5 SHL DUP4 MSTORE DUP3 ADD MSTORE PUSH1 0x1D PUSH1 0x24 DUP3 ADD MSTORE PUSH32 0x45524332303A20696E73756666696369656E7420616C6C6F77616E6365000000 PUSH1 0x44 DUP3 ADD MSTORE REVERT JUMPDEST POP SWAP2 CALLVALUE PUSH2 0x43A JUMPI DUP2 PUSH1 0x3 NOT CALLDATASIZE ADD SLT PUSH2 0x43A JUMPI PUSH2 0x1A8E PUSH2 0x1F0B JUMP JUMPDEST SWAP3 PUSH2 0x1A97 PUSH2 0x1F21 JUMP JUMPDEST SWAP1 PUSH1 0x1 DUP1 PUSH1 0xA0 SHL SUB DUP1 SWAP6 AND SWAP3 DUP4 DUP2 MSTORE PUSH1 0x8 SWAP6 PUSH1 0x20 SWAP7 DUP1 DUP9 MSTORE DUP7 DUP4 KECCAK256 SWAP6 PUSH1 0x1 DUP1 PUSH1 0xFF DUP10 SLOAD DUP6 SHR AND ISZERO ISZERO EQ SWAP8 DUP9 PUSH2 0x1BD1 JUMPI JUMPDEST POP DUP8 PUSH2 0x1BBD JUMPI JUMPDEST DUP8 PUSH2 0x1B9E JUMPI JUMPDEST DUP8 PUSH2 0x1B67 JUMPI JUMPDEST DUP8 PUSH2 0x1B4D JUMPI JUMPDEST POP DUP7 PUSH2 0x1B34 JUMPI JUMPDEST DUP7 PUSH2 0x1B1F JUMPI JUMPDEST DUP7 PUSH2 0x1AFE JUMPI JUMPDEST DUP9 DUP8 DUP10 MLOAD SWAP1 ISZERO ISZERO DUP2 MSTORE RETURN JUMPDEST DUP4 MSTORE DUP8 MSTORE DUP6 DUP3 KECCAK256 DUP4 ADD SLOAD SWAP4 AND DUP2 MSTORE DUP5 SWAP1 KECCAK256 ADD SLOAD GT SWAP1 POP CODESIZE DUP1 DUP1 DUP1 DUP1 DUP1 PUSH2 0x1AF3 JUMP JUMPDEST DUP1 DUP5 MSTORE DUP2 DUP10 MSTORE DUP8 DUP5 KECCAK256 DUP6 ADD SLOAD ISZERO ISZERO SWAP7 POP PUSH2 0x1AED JUMP JUMPDEST DUP6 DUP4 AND DUP5 MSTORE DUP2 DUP10 MSTORE DUP8 DUP5 KECCAK256 SLOAD DUP3 SHR PUSH1 0xFF AND ISZERO SWAP7 POP PUSH2 0x1AE7 JUMP JUMPDEST DUP7 DUP5 AND DUP6 MSTORE DUP3 DUP11 MSTORE DUP9 DUP6 KECCAK256 SLOAD PUSH1 0xFF AND ISZERO ISZERO EQ SWAP7 POP CODESIZE PUSH2 0x1AE0 JUMP JUMPDEST SWAP7 POP DUP3 DUP7 AND DUP5 MSTORE DUP2 DUP10 MSTORE DUP7 DUP9 DUP6 KECCAK256 ADD SLOAD PUSH2 0xE10 DUP2 ADD DUP1 SWAP2 GT PUSH2 0x1B8B JUMPI TIMESTAMP LT SWAP7 PUSH2 0x1ADA JUMP JUMPDEST PUSH4 0x4E487B71 PUSH1 0xE0 SHL DUP6 MSTORE PUSH1 0x11 DUP7 MSTORE PUSH1 0x24 DUP6 REVERT JUMPDEST SWAP7 POP DUP1 DUP5 MSTORE DUP7 DUP9 DUP6 KECCAK256 ADD SLOAD PUSH2 0xE10 DUP2 ADD DUP1 SWAP2 GT PUSH2 0x1B8B JUMPI TIMESTAMP LT SWAP7 PUSH2 0x1AD4 JUMP JUMPDEST DUP7 DUP5 AND DUP6 MSTORE DUP9 DUP6 KECCAK256 DUP2 ADD SLOAD ISZERO ISZERO SWAP8 POP PUSH2 0x1ACE JUMP JUMPDEST DUP2 ADD SLOAD ISZERO ISZERO SWAP8 POP CODESIZE PUSH2 0x1AC7 JUMP JUMPDEST POP CALLVALUE PUSH2 0x242 JUMPI DUP3 PUSH1 0x3 NOT CALLDATASIZE ADD SLT PUSH2 0x242 JUMPI PUSH1 0x20 SWAP3 POP SLOAD SWAP1 MLOAD SWAP1 DUP2 MSTORE RETURN JUMPDEST POP POP CALLVALUE PUSH2 0x294 JUMPI DUP2 PUSH1 0x3 NOT CALLDATASIZE ADD SLT PUSH2 0x294 JUMPI PUSH1 0x20 SWAP1 PUSH1 0x1 PUSH1 0x1 PUSH1 0x40 SHL SUB PUSH2 0x1C20 PUSH2 0x21FA JUMP JUMPDEST SWAP2 MLOAD SWAP2 AND DUP2 MSTORE RETURN JUMPDEST POP CALLVALUE PUSH2 0x242 JUMPI PUSH1 0x60 CALLDATASIZE PUSH1 0x3 NOT ADD SLT PUSH2 0x242 JUMPI PUSH2 0x1C42 PUSH2 0x1F0B JUMP JUMPDEST SWAP1 PUSH1 0x24 CALLDATALOAD SWAP1 PUSH1 0x1 PUSH1 0x1 PUSH1 0x40 SHL SUB DUP3 AND DUP3 SUB PUSH2 0x90C JUMPI PUSH1 0x44 CALLDATALOAD SWAP2 DUP3 ISZERO ISZERO SWAP2 DUP3 DUP5 SUB PUSH2 0xA63 JUMPI PUSH2 0x1C6E PUSH2 0x25C2 JUMP JUMPDEST PUSH1 0xFF PUSH1 0x9 SLOAD AND ISZERO PUSH2 0x1D05 JUMPI POP PUSH1 0x1 SWAP1 DUP2 DUP1 PUSH1 0xA0 SHL SUB DUP6 AND SWAP6 DUP7 DUP9 MSTORE PUSH1 0x8 PUSH1 0x20 MSTORE DUP8 KECCAK256 SWAP3 PUSH2 0xFF00 PUSH10 0xFFFFFFFFFFFFFFFF0000 DUP6 SLOAD SWAP4 PUSH1 0x10 SHL AND SWAP3 PUSH10 0xFFFFFFFFFFFFFFFFFFFF NOT AND SWAP2 PUSH1 0x8 SHL AND OR OR OR SWAP1 SSTORE PUSH2 0x1CC6 JUMPI DUP3 DUP1 RETURN JUMPDEST PUSH1 0x9 DUP1 SLOAD PUSH2 0x100 PUSH1 0x1 PUSH1 0xA8 SHL SUB NOT AND PUSH1 0x8 SWAP3 SWAP1 SWAP3 SHL PUSH2 0x100 PUSH1 0x1 PUSH1 0xA8 SHL SUB AND SWAP2 SWAP1 SWAP2 OR SWAP1 SSTORE PUSH1 0xA DUP1 SLOAD PUSH1 0x1 PUSH1 0x1 PUSH1 0xA0 SHL SUB NOT AND SWAP2 SWAP1 SWAP2 OR SWAP1 SSTORE CODESIZE DUP1 DUP3 DUP1 RETURN JUMPDEST PUSH1 0x64 SWAP1 PUSH1 0x20 DUP8 MLOAD SWAP2 PUSH3 0x461BCD PUSH1 0xE5 SHL DUP4 MSTORE DUP3 ADD MSTORE PUSH1 0x15 PUSH1 0x24 DUP3 ADD MSTORE PUSH21 0x139BC81B5BDC99481B9BD9195CC8185B1B1BDDD959 PUSH1 0x5A SHL PUSH1 0x44 DUP3 ADD MSTORE REVERT JUMPDEST POP POP CALLVALUE PUSH2 0x294 JUMPI DUP1 PUSH1 0x3 NOT CALLDATASIZE ADD SLT PUSH2 0x294 JUMPI PUSH1 0x20 SWAP1 PUSH2 0x38D PUSH2 0x1D60 PUSH2 0x1F0B JUMP JUMPDEST PUSH1 0x24 CALLDATALOAD SWAP1 CALLER PUSH2 0x2467 JUMP JUMPDEST POP SWAP2 CALLVALUE PUSH2 0x43A JUMPI DUP1 PUSH1 0x3 NOT CALLDATASIZE ADD SLT PUSH2 0x43A JUMPI DUP2 MLOAD SWAP2 DUP2 PUSH1 0x5 SLOAD SWAP3 PUSH1 0x1 DUP5 DUP2 SHR SWAP2 DUP2 DUP7 AND SWAP6 DUP7 ISZERO PUSH2 0x1E2D JUMPI JUMPDEST PUSH1 0x20 SWAP7 DUP8 DUP6 LT DUP2 EQ PUSH2 0x69A JUMPI DUP9 SWAP10 POP SWAP7 DUP9 SWAP7 SWAP8 DUP6 DUP3 SWAP11 MSTORE SWAP2 DUP3 PUSH1 0x0 EQ PUSH2 0x673 JUMPI POP POP PUSH1 0x1 EQ PUSH2 0x1DD1 JUMPI POP POP POP PUSH2 0x613 SWAP3 SWAP2 PUSH2 0x604 SWAP2 SUB DUP6 PUSH2 0x2022 JUMP JUMPDEST SWAP2 SWAP1 DUP7 SWAP4 POP PUSH1 0x5 DUP4 MSTORE PUSH32 0x36B6384B5ECA791C62761152D0C79BB0604C104A5FB6F4EB0703F3154BB3DB0 JUMPDEST DUP3 DUP5 LT PUSH2 0x1E15 JUMPI POP POP POP DUP3 ADD ADD DUP2 PUSH2 0x604 PUSH2 0x613 PUSH2 0x5F1 JUMP JUMPDEST DUP1 SLOAD DUP5 DUP11 ADD DUP7 ADD MSTORE DUP9 SWAP6 POP DUP8 SWAP5 SWAP1 SWAP4 ADD SWAP3 DUP2 ADD PUSH2 0x1DFC JUMP JUMPDEST SWAP3 PUSH1 0x7F AND SWAP3 PUSH2 0x1D95 JUMP JUMPDEST POP CALLVALUE PUSH2 0x242 JUMPI DUP2 PUSH1 0x3 NOT CALLDATASIZE ADD SLT PUSH2 0x242 JUMPI PUSH2 0x1E50 PUSH2 0x1F0B JUMP JUMPDEST SWAP2 CALLER DUP5 MSTORE PUSH1 0x8 PUSH1 0x20 MSTORE PUSH2 0x1E96 PUSH1 0x1 PUSH1 0x1 PUSH1 0x40 SHL SUB DUP1 DUP4 DUP8 KECCAK256 SLOAD PUSH1 0x10 SHR AND SWAP1 PUSH32 0x0 AND EQ PUSH2 0x2099 JUMP JUMPDEST CALLER DUP5 MSTORE PUSH1 0x8 PUSH1 0x20 MSTORE PUSH1 0xFF DUP2 DUP6 KECCAK256 SLOAD AND ISZERO PUSH2 0x585 JUMPI DUP4 PUSH2 0x909 PUSH1 0x24 CALLDATALOAD DUP6 PUSH2 0x23C3 JUMP JUMPDEST SWAP3 POP POP CALLVALUE PUSH2 0x242 JUMPI PUSH1 0x20 CALLDATASIZE PUSH1 0x3 NOT ADD SLT PUSH2 0x242 JUMPI CALLDATALOAD PUSH4 0xFFFFFFFF PUSH1 0xE0 SHL DUP2 AND DUP1 SWAP2 SUB PUSH2 0x242 JUMPI PUSH1 0x20 SWAP3 POP PUSH4 0x85572FFB PUSH1 0xE0 SHL DUP2 EQ SWAP1 DUP2 ISZERO PUSH2 0x1EFA JUMPI JUMPDEST POP ISZERO ISZERO DUP2 MSTORE RETURN JUMPDEST PUSH4 0x1FFC9A7 PUSH1 0xE0 SHL EQ SWAP1 POP CODESIZE PUSH2 0x1EF3 JUMP JUMPDEST PUSH1 0x4 CALLDATALOAD SWAP1 PUSH1 0x1 PUSH1 0x1 PUSH1 0xA0 SHL SUB DUP3 AND DUP3 SUB PUSH2 0xB50 JUMPI JUMP JUMPDEST PUSH1 0x24 CALLDATALOAD SWAP1 PUSH1 0x1 PUSH1 0x1 PUSH1 0xA0 SHL SUB DUP3 AND DUP3 SUB PUSH2 0xB50 JUMPI JUMP JUMPDEST SWAP2 SWAP1 DUP3 MLOAD SWAP3 DUP4 DUP3 MSTORE PUSH1 0x0 JUMPDEST DUP5 DUP2 LT PUSH2 0x1F63 JUMPI POP POP DUP3 PUSH1 0x0 PUSH1 0x20 DUP1 SWAP5 SWAP6 DUP5 ADD ADD MSTORE PUSH1 0x1F DUP1 NOT SWAP2 ADD AND ADD ADD SWAP1 JUMP JUMPDEST PUSH1 0x20 DUP2 DUP4 ADD DUP2 ADD MLOAD DUP5 DUP4 ADD DUP3 ADD MSTORE ADD PUSH2 0x1F42 JUMP JUMPDEST PUSH1 0x4 CALLDATALOAD SWAP1 PUSH1 0x1 PUSH1 0x1 PUSH1 0x40 SHL SUB DUP3 AND DUP3 SUB PUSH2 0xB50 JUMPI JUMP JUMPDEST PUSH1 0xA0 DUP2 ADD SWAP1 DUP2 LT PUSH1 0x1 PUSH1 0x1 PUSH1 0x40 SHL SUB DUP3 GT OR PUSH2 0x1FA8 JUMPI PUSH1 0x40 MSTORE JUMP JUMPDEST PUSH4 0x4E487B71 PUSH1 0xE0 SHL PUSH1 0x0 MSTORE PUSH1 0x41 PUSH1 0x4 MSTORE PUSH1 0x24 PUSH1 0x0 REVERT JUMPDEST PUSH1 0x20 DUP2 ADD SWAP1 DUP2 LT PUSH1 0x1 PUSH1 0x1 PUSH1 0x40 SHL SUB DUP3 GT OR PUSH2 0x1FA8 JUMPI PUSH1 0x40 MSTORE JUMP JUMPDEST PUSH1 0x1 PUSH1 0x1 PUSH1 0x40 SHL SUB DUP2 GT PUSH2 0x1FA8 JUMPI PUSH1 0x40 MSTORE JUMP JUMPDEST PUSH1 0x40 DUP2 ADD SWAP1 DUP2 LT PUSH1 0x1 PUSH1 0x1 PUSH1 0x40 SHL SUB DUP3 GT OR PUSH2 0x1FA8 JUMPI PUSH1 0x40 MSTORE JUMP JUMPDEST PUSH1 0x80 DUP2 ADD SWAP1 DUP2 LT PUSH1 0x1 PUSH1 0x1 PUSH1 0x40 SHL SUB DUP3 GT OR PUSH2 0x1FA8 JUMPI PUSH1 0x40 MSTORE JUMP JUMPDEST SWAP1 PUSH1 0x1F DUP1 NOT SWAP2 ADD AND DUP2 ADD SWAP1 DUP2 LT PUSH1 0x1 PUSH1 0x1 PUSH1 0x40 SHL SUB DUP3 GT OR PUSH2 0x1FA8 JUMPI PUSH1 0x40 MSTORE JUMP JUMPDEST DUP2 PUSH1 0x1F DUP3 ADD SLT ISZERO PUSH2 0xB50 JUMPI DUP1 CALLDATALOAD SWAP1 PUSH1 0x1 PUSH1 0x1 PUSH1 0x40 SHL SUB DUP3 GT PUSH2 0x1FA8 JUMPI PUSH1 0x40 MLOAD SWAP3 PUSH2 0x2077 PUSH1 0x1F DUP5 ADD PUSH1 0x1F NOT AND PUSH1 0x20 ADD DUP6 PUSH2 0x2022 JUMP JUMPDEST DUP3 DUP5 MSTORE PUSH1 0x20 DUP4 DUP4 ADD ADD GT PUSH2 0xB50 JUMPI DUP2 PUSH1 0x0 SWAP3 PUSH1 0x20 DUP1 SWAP4 ADD DUP4 DUP7 ADD CALLDATACOPY DUP4 ADD ADD MSTORE SWAP1 JUMP JUMPDEST ISZERO PUSH2 0x20A0 JUMPI JUMP JUMPDEST PUSH1 0x40 MLOAD PUSH3 0x461BCD PUSH1 0xE5 SHL DUP2 MSTORE PUSH1 0x20 PUSH1 0x4 DUP3 ADD MSTORE PUSH1 0x25 PUSH1 0x24 DUP3 ADD MSTORE PUSH32 0x52657175697265206D617374657220616E64206E6F646520696E2073616D6520 PUSH1 0x44 DUP3 ADD MSTORE PUSH5 0x31B430B4B7 PUSH1 0xD9 SHL PUSH1 0x64 DUP3 ADD MSTORE PUSH1 0x84 SWAP1 REVERT JUMPDEST SWAP1 PUSH1 0x1 PUSH1 0x1 PUSH1 0x40 SHL SUB SWAP1 SWAP4 SWAP3 SWAP4 AND DUP2 MSTORE PUSH1 0x40 PUSH1 0x20 SWAP2 DUP2 DUP4 DUP3 ADD MSTORE PUSH2 0x2122 DUP6 MLOAD PUSH1 0xA0 DUP5 DUP5 ADD MSTORE PUSH1 0xE0 DUP4 ADD SWAP1 PUSH2 0x1F37 JUMP JUMPDEST SWAP2 PUSH2 0x213E DUP5 DUP8 ADD MLOAD SWAP4 PUSH1 0x3F NOT SWAP5 DUP6 DUP6 DUP4 SUB ADD PUSH1 0x60 DUP7 ADD MSTORE PUSH2 0x1F37 JUMP JUMPDEST DUP2 DUP8 ADD MLOAD SWAP5 DUP5 DUP5 DUP4 SUB ADD PUSH1 0x80 DUP6 ADD MSTORE DUP1 DUP1 DUP8 MLOAD SWAP4 DUP5 DUP2 MSTORE ADD SWAP7 ADD SWAP3 PUSH1 0x0 SWAP1 JUMPDEST DUP4 DUP3 LT PUSH2 0x2196 JUMPI POP POP POP POP POP PUSH1 0xC0 PUSH1 0x80 PUSH2 0x2193 SWAP6 SWAP7 PUSH1 0x1 DUP1 PUSH1 0xA0 SHL SUB PUSH1 0x60 DUP3 ADD MLOAD AND PUSH1 0xA0 DUP6 ADD MSTORE ADD MLOAD SWAP3 DUP3 DUP6 SUB ADD SWAP2 ADD MSTORE PUSH2 0x1F37 JUMP JUMPDEST SWAP1 JUMP JUMPDEST DUP5 MLOAD DUP1 MLOAD PUSH1 0x1 PUSH1 0x1 PUSH1 0xA0 SHL SUB AND DUP10 MSTORE DUP4 ADD MLOAD DUP9 DUP5 ADD MSTORE SWAP7 DUP8 ADD SWAP7 SWAP4 DUP3 ADD SWAP4 PUSH1 0x1 SWAP1 SWAP2 ADD SWAP1 PUSH2 0x215D JUMP JUMPDEST SWAP1 DUP2 PUSH1 0x20 SWAP2 SUB SLT PUSH2 0xB50 JUMPI MLOAD DUP1 ISZERO ISZERO DUP2 SUB PUSH2 0xB50 JUMPI SWAP1 JUMP JUMPDEST SWAP2 SWAP1 DUP3 ADD DUP1 SWAP3 GT PUSH2 0x21E4 JUMPI JUMP JUMPDEST PUSH4 0x4E487B71 PUSH1 0xE0 SHL PUSH1 0x0 MSTORE PUSH1 0x11 PUSH1 0x4 MSTORE PUSH1 0x24 PUSH1 0x0 REVERT JUMPDEST PUSH1 0xA SLOAD PUSH1 0x1 PUSH1 0x1 PUSH1 0xA0 SHL SUB SWAP1 DUP2 AND SWAP1 DUP2 ISZERO PUSH2 0x222D JUMPI POP PUSH1 0x0 MSTORE PUSH1 0x8 PUSH1 0x20 MSTORE PUSH1 0x1 PUSH1 0x1 PUSH1 0x40 SHL SUB PUSH1 0x40 PUSH1 0x0 KECCAK256 SLOAD PUSH1 0x10 SHR AND SWAP1 JUMP JUMPDEST SWAP1 POP PUSH1 0x9 SLOAD PUSH1 0x8 SHR AND PUSH1 0x0 MSTORE PUSH1 0x8 PUSH1 0x20 MSTORE PUSH1 0x1 PUSH1 0x1 PUSH1 0x40 SHL SUB PUSH1 0x40 PUSH1 0x0 KECCAK256 SLOAD PUSH1 0x10 SHR AND SWAP1 JUMP JUMPDEST PUSH1 0x1 PUSH1 0x1 PUSH1 0xA0 SHL SUB SWAP1 DUP2 AND SWAP2 DUP3 ISZERO PUSH2 0x2370 JUMPI AND SWAP2 DUP3 ISZERO PUSH2 0x231F JUMPI PUSH1 0x0 DUP3 DUP2 MSTORE PUSH1 0x2 PUSH1 0x20 MSTORE PUSH1 0x40 DUP2 KECCAK256 SLOAD SWAP2 DUP1 DUP4 LT PUSH2 0x22CB JUMPI PUSH1 0x40 DUP3 DUP3 PUSH32 0xDDF252AD1BE2C89B69C2B068FC378DAA952BA7F163C4A11628F55A4DF523B3EF SWAP6 DUP8 PUSH1 0x20 SWAP7 MSTORE PUSH1 0x2 DUP7 MSTORE SUB DUP3 DUP3 KECCAK256 SSTORE DUP7 DUP2 MSTORE KECCAK256 DUP2 DUP2 SLOAD ADD SWAP1 SSTORE PUSH1 0x40 MLOAD SWAP1 DUP2 MSTORE LOG3 JUMP JUMPDEST PUSH1 0x40 MLOAD PUSH3 0x461BCD PUSH1 0xE5 SHL DUP2 MSTORE PUSH1 0x20 PUSH1 0x4 DUP3 ADD MSTORE PUSH1 0x26 PUSH1 0x24 DUP3 ADD MSTORE PUSH32 0x45524332303A207472616E7366657220616D6F756E7420657863656564732062 PUSH1 0x44 DUP3 ADD MSTORE PUSH6 0x616C616E6365 PUSH1 0xD0 SHL PUSH1 0x64 DUP3 ADD MSTORE PUSH1 0x84 SWAP1 REVERT JUMPDEST PUSH1 0x40 MLOAD PUSH3 0x461BCD PUSH1 0xE5 SHL DUP2 MSTORE PUSH1 0x20 PUSH1 0x4 DUP3 ADD MSTORE PUSH1 0x23 PUSH1 0x24 DUP3 ADD MSTORE PUSH32 0x45524332303A207472616E7366657220746F20746865207A65726F2061646472 PUSH1 0x44 DUP3 ADD MSTORE PUSH3 0x657373 PUSH1 0xE8 SHL PUSH1 0x64 DUP3 ADD MSTORE PUSH1 0x84 SWAP1 REVERT JUMPDEST PUSH1 0x40 MLOAD PUSH3 0x461BCD PUSH1 0xE5 SHL DUP2 MSTORE PUSH1 0x20 PUSH1 0x4 DUP3 ADD MSTORE PUSH1 0x25 PUSH1 0x24 DUP3 ADD MSTORE PUSH32 0x45524332303A207472616E736665722066726F6D20746865207A65726F206164 PUSH1 0x44 DUP3 ADD MSTORE PUSH5 0x6472657373 PUSH1 0xD8 SHL PUSH1 0x64 DUP3 ADD MSTORE PUSH1 0x84 SWAP1 REVERT JUMPDEST PUSH1 0x1 PUSH1 0x1 PUSH1 0xA0 SHL SUB AND SWAP1 DUP2 ISZERO PUSH2 0x2422 JUMPI PUSH32 0xDDF252AD1BE2C89B69C2B068FC378DAA952BA7F163C4A11628F55A4DF523B3EF PUSH1 0x20 DUP3 PUSH2 0x2405 PUSH1 0x0 SWAP5 PUSH1 0x4 SLOAD PUSH2 0x21D7 JUMP JUMPDEST PUSH1 0x4 SSTORE DUP5 DUP5 MSTORE PUSH1 0x2 DUP3 MSTORE PUSH1 0x40 DUP5 KECCAK256 DUP2 DUP2 SLOAD ADD SWAP1 SSTORE PUSH1 0x40 MLOAD SWAP1 DUP2 MSTORE LOG3 JUMP JUMPDEST PUSH1 0x40 MLOAD PUSH3 0x461BCD PUSH1 0xE5 SHL DUP2 MSTORE PUSH1 0x20 PUSH1 0x4 DUP3 ADD MSTORE PUSH1 0x1F PUSH1 0x24 DUP3 ADD MSTORE PUSH32 0x45524332303A206D696E7420746F20746865207A65726F206164647265737300 PUSH1 0x44 DUP3 ADD MSTORE PUSH1 0x64 SWAP1 REVERT JUMPDEST PUSH1 0x1 PUSH1 0x1 PUSH1 0xA0 SHL SUB SWAP1 DUP2 AND SWAP2 DUP3 ISZERO PUSH2 0x2518 JUMPI AND SWAP2 DUP3 ISZERO PUSH2 0x24C8 JUMPI PUSH1 0x20 PUSH32 0x8C5BE1E5EBEC7D5BD14F71427D1E84F3DD0314C0F7B2291E5B200AC8C7C3B925 SWAP2 DUP4 PUSH1 0x0 MSTORE PUSH1 0x3 DUP3 MSTORE PUSH1 0x40 PUSH1 0x0 KECCAK256 DUP6 PUSH1 0x0 MSTORE DUP3 MSTORE DUP1 PUSH1 0x40 PUSH1 0x0 KECCAK256 SSTORE PUSH1 0x40 MLOAD SWAP1 DUP2 MSTORE LOG3 JUMP JUMPDEST PUSH1 0x40 MLOAD PUSH3 0x461BCD PUSH1 0xE5 SHL DUP2 MSTORE PUSH1 0x20 PUSH1 0x4 DUP3 ADD MSTORE PUSH1 0x22 PUSH1 0x24 DUP3 ADD MSTORE PUSH32 0x45524332303A20617070726F766520746F20746865207A65726F206164647265 PUSH1 0x44 DUP3 ADD MSTORE PUSH2 0x7373 PUSH1 0xF0 SHL PUSH1 0x64 DUP3 ADD MSTORE PUSH1 0x84 SWAP1 REVERT JUMPDEST PUSH1 0x40 MLOAD PUSH3 0x461BCD PUSH1 0xE5 SHL DUP2 MSTORE PUSH1 0x20 PUSH1 0x4 DUP3 ADD MSTORE PUSH1 0x24 DUP1 DUP3 ADD MSTORE PUSH32 0x45524332303A20617070726F76652066726F6D20746865207A65726F20616464 PUSH1 0x44 DUP3 ADD MSTORE PUSH4 0x72657373 PUSH1 0xE0 SHL PUSH1 0x64 DUP3 ADD MSTORE PUSH1 0x84 SWAP1 REVERT JUMPDEST MLOAD SWAP1 PUSH1 0x1 PUSH1 0x1 PUSH1 0xA0 SHL SUB DUP3 AND DUP3 SUB PUSH2 0xB50 JUMPI JUMP JUMPDEST MLOAD SWAP1 PUSH1 0xFF DUP3 AND DUP3 SUB PUSH2 0xB50 JUMPI JUMP JUMPDEST PUSH1 0x40 MLOAD SWAP1 PUSH4 0x97A657C9 PUSH1 0xE0 SHL PUSH1 0x20 DUP4 ADD MSTORE MLOAD PUSH1 0x24 DUP3 ADD MSTORE PUSH1 0x24 DUP2 MSTORE PUSH1 0x60 DUP2 ADD DUP2 DUP2 LT PUSH1 0x1 PUSH1 0x1 PUSH1 0x40 SHL SUB DUP3 GT OR PUSH2 0x1FA8 JUMPI PUSH1 0x40 MSTORE SWAP1 JUMP JUMPDEST PUSH1 0x0 SLOAD PUSH1 0x1 PUSH1 0x1 PUSH1 0xA0 SHL SUB AND CALLER SUB PUSH2 0x25D6 JUMPI JUMP JUMPDEST PUSH1 0x40 MLOAD PUSH3 0x461BCD PUSH1 0xE5 SHL DUP2 MSTORE PUSH1 0x20 PUSH1 0x4 DUP3 ADD MSTORE PUSH1 0x16 PUSH1 0x24 DUP3 ADD MSTORE PUSH22 0x27B7363C9031B0B63630B1363290313C9037BBB732B9 PUSH1 0x51 SHL PUSH1 0x44 DUP3 ADD MSTORE PUSH1 0x64 SWAP1 REVERT INVALID LOG2 PUSH5 0x6970667358 0x22 SLT KECCAK256 CALLDATALOAD 0xEA DUP14 RETURN 0xC4 0xD2 PUSH22 0x9AB972CC81ABF188B2B89DD34252EC8BACC82084E85B 0xE2 GASPRICE 0xCD PUSH5 0x736F6C6343 STOP ADDMOD SGT STOP CALLER ",
  "sha1": "0a14eaf029f810f7c7ab605a12fee48388b3cd87",
  "source": "// SPDX-License-Identifier: MIT\npragma solidity 0.8.19;\n\nimport {IRouterClient} from \"@chainlink/contracts/src/v0.8/ccip/interfaces/IRouterClient.sol\";\nimport {OwnerIsCreator} from \"@chainlink/contracts/src/v0.8/shared/access/OwnerIsCreator.sol\";\nimport {Client} from \"@chainlink/contracts/src/v0.8/ccip/libraries/Client.sol\";\nimport {CCIPReceiver} from \"@chainlink/contracts/src/v0.8/ccip/applications/CCIPReceiver.sol\";\n\nimport {LinkTokenInterface} from \"@chainlink/contracts/src/v0.8/shared/interfaces/LinkTokenInterface.sol\";\n\nimport \"@openzeppelin/contracts/token/ERC20/ERC20.sol\";\nimport \"./utils_node/UtilsMasterNode.sol\";\n\n// Node interface\nimport \"../interfaces/INode.sol\";\n\n/// @title - A simple messenger contract for transferring/receiving tokens and data across chains.\ncontract MasterNode is CCIPReceiver, OwnerIsCreator, ERC20, UtilsMasterNode {\n    // Custom errors to provide more descriptive revert messages.\n    error NotEnoughBalance(uint256 currentBalance, uint256 calculatedFees); // Used to make sure contract has enough balance to cover the fees.\n    error NothingToWithdraw(); // Used when trying to withdraw Ether but there's nothing to withdraw.\n    error FailedToWithdrawEth(address owner, address target, uint256 value); // Used when the withdrawal of Ether fails.\n    error DestinationNodeNotValid(address nodeAddress); // Used when the destination address has not been allowlisted by the contract owner.\n    error SourceChainNotAllowed(uint64 sourceChainSelector); // Used when the source chain has not been allowlisted by the contract owner.\n    error SenderNotAllowed(address sender); // Used when the sender has not been allowlisted by the contract owner.\n    error InvalidReceiverAddress(); // Used when the receiver address is 0.\n\n    LinkTokenInterface private s_linkToken;\n\n    uint64 public immutable MASTER_CONTRACT_CHAIN_ID;\n\n    struct ValidNodes {\n        bool isValidNode;\n        bool isActiveNode;\n        uint64 chainCCIPid;\n        uint256 lastDataFromAave;\n        uint256 totalUsdcSupply;\n        uint256 totalUsdcBorrow;\n        uint256 supplyRate;\n    }\n\n    mapping(address => ValidNodes) public validNodes;\n\n    bool public allowMoreNodes = true;\n    address public lastActiveNode;\n    address public activeNode;\n\n    /// @notice Constructor initializes the contract with the router address.\n    /// @param _router The address of the router contract.\n    /// @param _link The address of the link contract.\n    constructor(\n        address _router,\n        address _link,\n        uint64 _MASTER_CONTRACT_CHAIN_ID\n    ) CCIPReceiver(_router) ERC20(\"WarpYield\", \"aWRP\") {\n        s_linkToken = LinkTokenInterface(_link);\n        MASTER_CONTRACT_CHAIN_ID = _MASTER_CONTRACT_CHAIN_ID;\n    }\n\n    modifier onlyValidNodes(address nodeAddress) {\n        if (!validNodes[nodeAddress].isValidNode) {\n            revert DestinationNodeNotValid(nodeAddress);\n        }\n        _;\n    }\n\n    modifier masterAndNodeInSameChain() {\n        require(\n            validNodes[msg.sender].chainCCIPid == MASTER_CONTRACT_CHAIN_ID,\n            \"Require master and node in same chain\"\n        );\n        _;\n    }\n\n    function stopAddingNodes() external onlyOwner {\n        allowMoreNodes = false;\n    }\n\n    function addValidNode(\n        address nodeAddress,\n        uint64 chainCCIPid,\n        bool isActiveNode\n    ) external onlyOwner {\n        require(allowMoreNodes, \"No more nodes allowed\");\n        validNodes[nodeAddress].isValidNode = true;\n        validNodes[nodeAddress].isActiveNode = isActiveNode;\n        validNodes[nodeAddress].chainCCIPid = chainCCIPid;\n\n        if (isActiveNode) {\n            lastActiveNode = nodeAddress;\n            activeNode = nodeAddress;\n        }\n    }\n\n    /////////////////////////////////////////////////////////////////////////\n    ////////////////////  INCOMING DEPOSIT => MINT aWRP  ///////////////////\n    ////////////////////////  COMMAND == 0  ///////////////////////////////\n    //////////////////////////////////////////////////////////////////////\n\n    function _aWarpTokenMinter(\n        Client.Any2EVMMessage memory _any2EvmMessage\n    ) internal {\n        (, address userAddress, uint256 shares) = abi.decode(\n            _any2EvmMessage.data,\n            (uint8, address, uint256)\n        );\n\n        _mint(userAddress, shares);\n    }\n\n    ///////////////////  DEPOSIT, MASTER AND NODE IN SAME CHAIN  /////////////////\n\n    function aWarpTokenMinterFromSameChain(\n        address userAddress,\n        uint256 shares\n    ) external masterAndNodeInSameChain onlyValidNodes(msg.sender) {\n        _mint(userAddress, shares);\n    }\n\n    /////////////////////////////////////////////////////////////////////////\n    //////////////////////  RESUME PROTOCOL OPERATIONS  ////////////////////\n    ////////////////////////  COMMAND == 1  ///////////////////////////////\n    //////////////////////////////////////////////////////////////////////\n\n    function _resmumeOperations(\n        Client.Any2EVMMessage memory _any2EvmMessage\n    ) internal {\n        validNodes[abi.decode(_any2EvmMessage.sender, (address))]\n            .isActiveNode = true;\n        activeNode = abi.decode(_any2EvmMessage.sender, (address));\n    }\n\n    ///////////  RESUME OPERATIONS, MASTER AND NODE IN SAME CHAIN  //////////\n\n    function _resmumeOperationsFromSameChain()\n        external\n        masterAndNodeInSameChain\n        onlyValidNodes(msg.sender)\n    {\n        validNodes[msg.sender].isActiveNode = true;\n        activeNode = msg.sender;\n    }\n\n    /////////////////////////////////////////////////////////////////////////\n    /////////////////////////  DATA AAVE FROM NODE  ////////////////////////\n    ////////////////////////  COMMAND == 2  ///////////////////////////////\n    //////////////////////////////////////////////////////////////////////\n\n    function _nodeAaveFeed(\n        Client.Any2EVMMessage memory _any2EvmMessage\n    ) internal {\n        (\n            ,\n            uint256 totalUsdcSupply,\n            uint256 totalUsdcBorrow,\n            uint256 supplyRate\n        ) = abi.decode(\n                _any2EvmMessage.data,\n                (uint8, uint256, uint256, uint256)\n            );\n\n        validNodes[abi.decode(_any2EvmMessage.sender, (address))]\n            .lastDataFromAave = block.timestamp;\n        validNodes[abi.decode(_any2EvmMessage.sender, (address))]\n            .totalUsdcSupply = totalUsdcSupply;\n        validNodes[abi.decode(_any2EvmMessage.sender, (address))]\n            .totalUsdcBorrow = totalUsdcBorrow;\n        validNodes[abi.decode(_any2EvmMessage.sender, (address))]\n            .supplyRate = supplyRate;\n    }\n\n    ////////////////  DATA AAVE, MASTER AND NODE IN SAME CHAIN  //////////////\n\n    function nodeAaveFeedFromSameChain(\n        uint256 totalUsdcSupply,\n        uint256 totalUsdcBorrow,\n        uint256 supplyRate\n    ) external masterAndNodeInSameChain onlyValidNodes(msg.sender) {\n        validNodes[msg.sender].lastDataFromAave = block.timestamp;\n        validNodes[msg.sender].totalUsdcSupply = totalUsdcSupply;\n        validNodes[msg.sender].totalUsdcBorrow = totalUsdcBorrow;\n        validNodes[msg.sender].supplyRate = supplyRate;\n    }\n\n    //////////////////////////////////////////////////////////////////////////\n    /////////////////////////////////////////////////////////////////////////\n    ////////////////////////  INCOMING MESAGE HANDLER  /////////////////////\n    /////////////////  THIS FUNC IS CALLED BY CHAINLINK  //////////////////\n    //////////////////////////////////////////////////////////////////////\n    /////////////////////////////////////////////////////////////////////\n\n    function _ccipReceive(\n        Client.Any2EVMMessage memory _any2EvmMessage\n    )\n        internal\n        override\n        onlyValidNodes(abi.decode(_any2EvmMessage.sender, (address)))\n    {\n        require(\n            validNodes[abi.decode(_any2EvmMessage.sender, (address))]\n                .isValidNode,\n            \"Incoming Message not from a valid node\"\n        );\n        uint8 command = _internalCommandRouter(_any2EvmMessage);\n        if (command == 0) {\n            _aWarpTokenMinter(_any2EvmMessage);\n        } else if (command == 1) {\n            _resmumeOperations(_any2EvmMessage);\n        } else if (command == 2) {\n            _nodeAaveFeed(_any2EvmMessage);\n        } else {\n            revert(\"invalid command from Node\");\n        }\n    }\n\n    /////////////////////////////////////////////////////////////////////////\n    ////////////////////////////////////////////////////////////////////////\n    ///////////////////////  OUTGOING MESAGES HANDLER  ////////////////////\n    //////////////////////////////////////////////////////////////////////\n    /////////////////////////////////////////////////////////////////////\n\n    function _sendMessage(\n        uint64 _destinationChainSelector,\n        address _receiver,\n        bytes memory _data\n    ) internal onlyValidNodes(_receiver) returns (bytes32 messageId) {\n        // Create an EVM2AnyMessage struct in memory with necessary information for sending a cross-chain message\n        // address(linkToken) means fees are paid in LINK\n        Client.EVM2AnyMessage memory evm2AnyMessage = _buildCCIPMessage(\n            _receiver,\n            _data,\n            address(s_linkToken)\n        );\n\n        // Initialize a router client instance to interact with cross-chain router\n        IRouterClient router = IRouterClient(this.getRouter());\n\n        // Get the fee required to send the CCIP message\n        uint256 fees = router.getFee(_destinationChainSelector, evm2AnyMessage);\n\n        require(\n            s_linkToken.transferFrom(msg.sender, address(this), fees),\n            \"Not provided Link for fees\"\n        );\n\n        if (fees > s_linkToken.balanceOf(address(this)))\n            revert NotEnoughBalance(s_linkToken.balanceOf(address(this)), fees);\n\n        // approve the Router to transfer LINK tokens on contract's behalf. It will spend the fees in LINK\n        s_linkToken.approve(address(router), fees);\n\n        // Send the message through the router and store the returned message ID\n        messageId = router.ccipSend(_destinationChainSelector, evm2AnyMessage);\n\n        // Return the message ID\n        return messageId;\n    }\n\n    /// @notice Construct a CCIP message.\n    /// @dev This function will create an EVM2AnyMessage struct with all the necessary information for programmable tokens transfer.\n    /// @param _receiver The address of the receiver.\n    /// @param _data The bytes data to be sent.\n    /// @param _feeTokenAddress The address of the token used for fees. Set address(0) for native gas.\n    /// @return Client.EVM2AnyMessage Returns an EVM2AnyMessage struct which contains information for sending a CCIP message.\n    function _buildCCIPMessage(\n        address _receiver,\n        bytes memory _data,\n        address _feeTokenAddress\n    ) private pure returns (Client.EVM2AnyMessage memory) {\n        return\n            Client.EVM2AnyMessage({\n                receiver: abi.encode(_receiver), // ABI-encoded receiver address\n                data: _data, // ABI-encoded string\n                tokenAmounts: new Client.EVMTokenAmount[](0), // The amount and type of token being transferred\n                extraArgs: Client._argsToBytes(\n                    // Additional arguments, setting gas limit\n                    Client.EVMExtraArgsV1({gasLimit: 2_000_000})\n                ),\n                // Set the feeToken to a feeTokenAddress, indicating specific asset will be used for fees\n                feeToken: _feeTokenAddress\n            });\n    }\n\n    /// @notice Fallback function to allow the contract to receive Ether.\n    /// @dev This function has no function body, making it a default function for receiving Ether.\n    /// It is automatically called when Ether is sent to the contract without any data.\n    receive() external payable {}\n\n    /////////////////////////////////////////////////////////////////////////\n    ///////////////////////////////  WARP ASSETS  //////////////////////////\n    ///////////////////////////////////////////////////////////////////////\n\n    function warpAssets(\n        uint64 _destinationCCIPid,\n        address _destinationNodeAddress\n    ) external {\n        uint8 commandWarpAssets = 1;\n\n        bytes memory data = abi.encode(\n            commandWarpAssets,\n            _destinationCCIPid,\n            _destinationNodeAddress\n        );\n        validNodes[activeNode].isActiveNode = false;\n\n        if (validNodes[activeNode].chainCCIPid == MASTER_CONTRACT_CHAIN_ID) {\n            INode(activeNode).warpAssetsFromSameChain(\n                _destinationCCIPid,\n                _destinationNodeAddress\n            );\n        } else {\n            _sendMessage(validNodes[activeNode].chainCCIPid, activeNode, data);\n        }\n\n        activeNode = address(0);\n    }\n\n    /////////////////////////////////////////////////////////////////////////\n    /////////////////////////////  WITHDRAW  ///////////////////////////////\n    ///////////////////////////////////////////////////////////////////////\n\n    function withdraw(uint256 shares) external {\n        require(validNodes[activeNode].isActiveNode, \"Node is not Active\");\n\n        require(shares <= balanceOf(msg.sender), \"Not enought balance\");\n\n        uint8 commandWitdraw = 0;\n\n        bytes memory data = abi.encode(commandWitdraw, msg.sender, shares);\n\n        _burn(msg.sender, shares);\n\n        if (validNodes[activeNode].chainCCIPid == MASTER_CONTRACT_CHAIN_ID) {\n            INode(activeNode).withdrawFromSameChain(msg.sender, shares);\n        } else {\n            _sendMessage(validNodes[activeNode].chainCCIPid, activeNode, data);\n        }\n    }\n\n    /////////////////////////////////////////////////////////////////////////\n    /////////////////////////////   UTILS   ////////////////////////////////\n    ///////////////////////////////////////////////////////////////////////\n\n    function checkApprovedWarp(\n        address _activeNode,\n        address destinationNode\n    ) public view returns (bool) {\n        //require 24 after last warp\n        return\n            validNodes[_activeNode].isActiveNode == true &&\n            validNodes[_activeNode].lastDataFromAave > 0 &&\n            validNodes[destinationNode].lastDataFromAave > 0 &&\n            validNodes[_activeNode].lastDataFromAave + 3600 > block.timestamp &&\n            validNodes[destinationNode].lastDataFromAave + 3600 >\n            block.timestamp &&\n            validNodes[destinationNode].isValidNode == true &&\n            validNodes[destinationNode].isActiveNode == false &&\n            validNodes[_activeNode].supplyRate > 0 &&\n            validNodes[_activeNode].supplyRate <\n            validNodes[destinationNode].supplyRate;\n    }\n\n    // get ChainId from active node or last active node in case vault is warping, only for frontend, no impact in contract\n    function getChainIdFromActiveNode() external view returns (uint64) {\n        if (activeNode == address(0)) {\n            return validNodes[lastActiveNode].chainCCIPid;\n        }\n\n        return validNodes[activeNode].chainCCIPid;\n    }\n}\n",
  "sourcePath": "contracts/MasterNode.sol",
  "type": "contract"
}