{
  "abi": [
    {
      "inputs": [
        {
          "internalType": "address",
          "name": "_router",
          "type": "address"
        },
        {
          "internalType": "address",
          "name": "_link",
          "type": "address"
        },
        {
          "internalType": "uint64",
          "name": "_MASTER_CONTRACT_CHAIN_ID",
          "type": "uint64"
        }
      ],
      "stateMutability": "nonpayable",
      "type": "constructor"
    },
    {
      "inputs": [
        {
          "internalType": "address",
          "name": "nodeAddress",
          "type": "address"
        }
      ],
      "name": "DestinationNodeNotValid",
      "type": "error"
    },
    {
      "inputs": [
        {
          "internalType": "address",
          "name": "owner",
          "type": "address"
        },
        {
          "internalType": "address",
          "name": "target",
          "type": "address"
        },
        {
          "internalType": "uint256",
          "name": "value",
          "type": "uint256"
        }
      ],
      "name": "FailedToWithdrawEth",
      "type": "error"
    },
    {
      "inputs": [],
      "name": "InvalidReceiverAddress",
      "type": "error"
    },
    {
      "inputs": [
        {
          "internalType": "address",
          "name": "router",
          "type": "address"
        }
      ],
      "name": "InvalidRouter",
      "type": "error"
    },
    {
      "inputs": [
        {
          "internalType": "uint256",
          "name": "currentBalance",
          "type": "uint256"
        },
        {
          "internalType": "uint256",
          "name": "calculatedFees",
          "type": "uint256"
        }
      ],
      "name": "NotEnoughBalance",
      "type": "error"
    },
    {
      "inputs": [],
      "name": "NothingToWithdraw",
      "type": "error"
    },
    {
      "inputs": [
        {
          "internalType": "address",
          "name": "sender",
          "type": "address"
        }
      ],
      "name": "SenderNotAllowed",
      "type": "error"
    },
    {
      "inputs": [
        {
          "internalType": "uint64",
          "name": "sourceChainSelector",
          "type": "uint64"
        }
      ],
      "name": "SourceChainNotAllowed",
      "type": "error"
    },
    {
      "anonymous": false,
      "inputs": [
        {
          "indexed": true,
          "internalType": "address",
          "name": "owner",
          "type": "address"
        },
        {
          "indexed": true,
          "internalType": "address",
          "name": "spender",
          "type": "address"
        },
        {
          "indexed": false,
          "internalType": "uint256",
          "name": "value",
          "type": "uint256"
        }
      ],
      "name": "Approval",
      "type": "event"
    },
    {
      "anonymous": false,
      "inputs": [
        {
          "indexed": true,
          "internalType": "address",
          "name": "from",
          "type": "address"
        },
        {
          "indexed": true,
          "internalType": "address",
          "name": "to",
          "type": "address"
        }
      ],
      "name": "OwnershipTransferRequested",
      "type": "event"
    },
    {
      "anonymous": false,
      "inputs": [
        {
          "indexed": true,
          "internalType": "address",
          "name": "from",
          "type": "address"
        },
        {
          "indexed": true,
          "internalType": "address",
          "name": "to",
          "type": "address"
        }
      ],
      "name": "OwnershipTransferred",
      "type": "event"
    },
    {
      "anonymous": false,
      "inputs": [
        {
          "indexed": true,
          "internalType": "address",
          "name": "from",
          "type": "address"
        },
        {
          "indexed": true,
          "internalType": "address",
          "name": "to",
          "type": "address"
        },
        {
          "indexed": false,
          "internalType": "uint256",
          "name": "value",
          "type": "uint256"
        }
      ],
      "name": "Transfer",
      "type": "event"
    },
    {
      "inputs": [],
      "name": "MASTER_CONTRACT_CHAIN_ID",
      "outputs": [
        {
          "internalType": "uint64",
          "name": "",
          "type": "uint64"
        }
      ],
      "stateMutability": "view",
      "type": "function"
    },
    {
      "inputs": [],
      "name": "_resmumeOperationsFromSameChain",
      "outputs": [],
      "stateMutability": "nonpayable",
      "type": "function"
    },
    {
      "inputs": [
        {
          "internalType": "address",
          "name": "userAddress",
          "type": "address"
        },
        {
          "internalType": "uint256",
          "name": "shares",
          "type": "uint256"
        }
      ],
      "name": "aWarpTokenMinterFromSameChain",
      "outputs": [],
      "stateMutability": "nonpayable",
      "type": "function"
    },
    {
      "inputs": [],
      "name": "acceptOwnership",
      "outputs": [],
      "stateMutability": "nonpayable",
      "type": "function"
    },
    {
      "inputs": [],
      "name": "activeNode",
      "outputs": [
        {
          "internalType": "address",
          "name": "",
          "type": "address"
        }
      ],
      "stateMutability": "view",
      "type": "function"
    },
    {
      "inputs": [
        {
          "internalType": "address",
          "name": "nodeAddress",
          "type": "address"
        },
        {
          "internalType": "uint64",
          "name": "chainCCIPid",
          "type": "uint64"
        },
        {
          "internalType": "bool",
          "name": "isActiveNode",
          "type": "bool"
        }
      ],
      "name": "addValidNode",
      "outputs": [],
      "stateMutability": "nonpayable",
      "type": "function"
    },
    {
      "inputs": [],
      "name": "allowMoreNodes",
      "outputs": [
        {
          "internalType": "bool",
          "name": "",
          "type": "bool"
        }
      ],
      "stateMutability": "view",
      "type": "function"
    },
    {
      "inputs": [
        {
          "internalType": "address",
          "name": "owner",
          "type": "address"
        },
        {
          "internalType": "address",
          "name": "spender",
          "type": "address"
        }
      ],
      "name": "allowance",
      "outputs": [
        {
          "internalType": "uint256",
          "name": "",
          "type": "uint256"
        }
      ],
      "stateMutability": "view",
      "type": "function"
    },
    {
      "inputs": [
        {
          "internalType": "address",
          "name": "spender",
          "type": "address"
        },
        {
          "internalType": "uint256",
          "name": "amount",
          "type": "uint256"
        }
      ],
      "name": "approve",
      "outputs": [
        {
          "internalType": "bool",
          "name": "",
          "type": "bool"
        }
      ],
      "stateMutability": "nonpayable",
      "type": "function"
    },
    {
      "inputs": [
        {
          "internalType": "address",
          "name": "account",
          "type": "address"
        }
      ],
      "name": "balanceOf",
      "outputs": [
        {
          "internalType": "uint256",
          "name": "",
          "type": "uint256"
        }
      ],
      "stateMutability": "view",
      "type": "function"
    },
    {
      "inputs": [
        {
          "components": [
            {
              "internalType": "bytes32",
              "name": "messageId",
              "type": "bytes32"
            },
            {
              "internalType": "uint64",
              "name": "sourceChainSelector",
              "type": "uint64"
            },
            {
              "internalType": "bytes",
              "name": "sender",
              "type": "bytes"
            },
            {
              "internalType": "bytes",
              "name": "data",
              "type": "bytes"
            },
            {
              "components": [
                {
                  "internalType": "address",
                  "name": "token",
                  "type": "address"
                },
                {
                  "internalType": "uint256",
                  "name": "amount",
                  "type": "uint256"
                }
              ],
              "internalType": "struct Client.EVMTokenAmount[]",
              "name": "destTokenAmounts",
              "type": "tuple[]"
            }
          ],
          "internalType": "struct Client.Any2EVMMessage",
          "name": "message",
          "type": "tuple"
        }
      ],
      "name": "ccipReceive",
      "outputs": [],
      "stateMutability": "nonpayable",
      "type": "function"
    },
    {
      "inputs": [
        {
          "internalType": "address",
          "name": "_activeNode",
          "type": "address"
        },
        {
          "internalType": "address",
          "name": "destinationNode",
          "type": "address"
        }
      ],
      "name": "checkApprovedWarp",
      "outputs": [
        {
          "internalType": "bool",
          "name": "",
          "type": "bool"
        }
      ],
      "stateMutability": "view",
      "type": "function"
    },
    {
      "inputs": [],
      "name": "decimals",
      "outputs": [
        {
          "internalType": "uint8",
          "name": "",
          "type": "uint8"
        }
      ],
      "stateMutability": "view",
      "type": "function"
    },
    {
      "inputs": [
        {
          "internalType": "address",
          "name": "spender",
          "type": "address"
        },
        {
          "internalType": "uint256",
          "name": "subtractedValue",
          "type": "uint256"
        }
      ],
      "name": "decreaseAllowance",
      "outputs": [
        {
          "internalType": "bool",
          "name": "",
          "type": "bool"
        }
      ],
      "stateMutability": "nonpayable",
      "type": "function"
    },
    {
      "inputs": [],
      "name": "getChainIdFromActiveNode",
      "outputs": [
        {
          "internalType": "uint64",
          "name": "",
          "type": "uint64"
        }
      ],
      "stateMutability": "view",
      "type": "function"
    },
    {
      "inputs": [
        {
          "internalType": "uint64",
          "name": "destinationCCIPid",
          "type": "uint64"
        },
        {
          "internalType": "address",
          "name": "receiver",
          "type": "address"
        },
        {
          "internalType": "address",
          "name": "s_linkTokenAddress",
          "type": "address"
        },
        {
          "internalType": "address",
          "name": "routerAddress",
          "type": "address"
        },
        {
          "internalType": "bytes",
          "name": "_data",
          "type": "bytes"
        }
      ],
      "name": "getLinkFees",
      "outputs": [
        {
          "internalType": "uint256",
          "name": "",
          "type": "uint256"
        }
      ],
      "stateMutability": "view",
      "type": "function"
    },
    {
      "inputs": [],
      "name": "getRouter",
      "outputs": [
        {
          "internalType": "address",
          "name": "",
          "type": "address"
        }
      ],
      "stateMutability": "view",
      "type": "function"
    },
    {
      "inputs": [
        {
          "internalType": "address",
          "name": "spender",
          "type": "address"
        },
        {
          "internalType": "uint256",
          "name": "addedValue",
          "type": "uint256"
        }
      ],
      "name": "increaseAllowance",
      "outputs": [
        {
          "internalType": "bool",
          "name": "",
          "type": "bool"
        }
      ],
      "stateMutability": "nonpayable",
      "type": "function"
    },
    {
      "inputs": [],
      "name": "name",
      "outputs": [
        {
          "internalType": "string",
          "name": "",
          "type": "string"
        }
      ],
      "stateMutability": "view",
      "type": "function"
    },
    {
      "inputs": [
        {
          "internalType": "uint256",
          "name": "totalUsdcSupply",
          "type": "uint256"
        },
        {
          "internalType": "uint256",
          "name": "totalUsdcBorrow",
          "type": "uint256"
        },
        {
          "internalType": "uint256",
          "name": "supplyRate",
          "type": "uint256"
        }
      ],
      "name": "nodeAaveFeedFromSameChain",
      "outputs": [],
      "stateMutability": "nonpayable",
      "type": "function"
    },
    {
      "inputs": [],
      "name": "owner",
      "outputs": [
        {
          "internalType": "address",
          "name": "",
          "type": "address"
        }
      ],
      "stateMutability": "view",
      "type": "function"
    },
    {
      "inputs": [],
      "name": "stopAddingNodes",
      "outputs": [],
      "stateMutability": "nonpayable",
      "type": "function"
    },
    {
      "inputs": [
        {
          "internalType": "bytes4",
          "name": "interfaceId",
          "type": "bytes4"
        }
      ],
      "name": "supportsInterface",
      "outputs": [
        {
          "internalType": "bool",
          "name": "",
          "type": "bool"
        }
      ],
      "stateMutability": "pure",
      "type": "function"
    },
    {
      "inputs": [],
      "name": "symbol",
      "outputs": [
        {
          "internalType": "string",
          "name": "",
          "type": "string"
        }
      ],
      "stateMutability": "view",
      "type": "function"
    },
    {
      "inputs": [],
      "name": "totalSupply",
      "outputs": [
        {
          "internalType": "uint256",
          "name": "",
          "type": "uint256"
        }
      ],
      "stateMutability": "view",
      "type": "function"
    },
    {
      "inputs": [
        {
          "internalType": "address",
          "name": "to",
          "type": "address"
        },
        {
          "internalType": "uint256",
          "name": "amount",
          "type": "uint256"
        }
      ],
      "name": "transfer",
      "outputs": [
        {
          "internalType": "bool",
          "name": "",
          "type": "bool"
        }
      ],
      "stateMutability": "nonpayable",
      "type": "function"
    },
    {
      "inputs": [
        {
          "internalType": "address",
          "name": "from",
          "type": "address"
        },
        {
          "internalType": "address",
          "name": "to",
          "type": "address"
        },
        {
          "internalType": "uint256",
          "name": "amount",
          "type": "uint256"
        }
      ],
      "name": "transferFrom",
      "outputs": [
        {
          "internalType": "bool",
          "name": "",
          "type": "bool"
        }
      ],
      "stateMutability": "nonpayable",
      "type": "function"
    },
    {
      "inputs": [
        {
          "internalType": "address",
          "name": "to",
          "type": "address"
        }
      ],
      "name": "transferOwnership",
      "outputs": [],
      "stateMutability": "nonpayable",
      "type": "function"
    },
    {
      "inputs": [
        {
          "internalType": "address",
          "name": "",
          "type": "address"
        }
      ],
      "name": "validNodes",
      "outputs": [
        {
          "internalType": "bool",
          "name": "isValidNode",
          "type": "bool"
        },
        {
          "internalType": "bool",
          "name": "isActiveNode",
          "type": "bool"
        },
        {
          "internalType": "uint64",
          "name": "chainCCIPid",
          "type": "uint64"
        },
        {
          "internalType": "uint256",
          "name": "lastDataFromAave",
          "type": "uint256"
        },
        {
          "internalType": "uint256",
          "name": "totalUsdcSupply",
          "type": "uint256"
        },
        {
          "internalType": "uint256",
          "name": "totalUsdcBorrow",
          "type": "uint256"
        },
        {
          "internalType": "uint256",
          "name": "supplyRate",
          "type": "uint256"
        }
      ],
      "stateMutability": "view",
      "type": "function"
    },
    {
      "inputs": [
        {
          "internalType": "uint64",
          "name": "_destinationCCIPid",
          "type": "uint64"
        },
        {
          "internalType": "address",
          "name": "_destinationNodeAddress",
          "type": "address"
        }
      ],
      "name": "warpAssets",
      "outputs": [],
      "stateMutability": "nonpayable",
      "type": "function"
    },
    {
      "inputs": [
        {
          "internalType": "uint256",
          "name": "shares",
          "type": "uint256"
        }
      ],
      "name": "withdraw",
      "outputs": [],
      "stateMutability": "nonpayable",
      "type": "function"
    },
    {
      "stateMutability": "payable",
      "type": "receive"
    }
  ],
  "bytecode": "60c0346200043e57601f19906001600160401b0390601f906200297f388190038381018616830191908583118484101762000443578084926060946040528339810103126200043e57620000538162000479565b9060209260406200006685840162000479565b9201519480861686036200043e576200007e62000459565b91600983526815d85c9c165a595b1960ba1b868401526200009e62000459565b6004808252630615752560e41b88830152986001600160a01b03968088161562000426576080523315620003e257600080546001600160a01b03199081163317825586519099919290868111620002f2576005908154986001998a81811c91168015620003d7575b86821014620003c35790818984931162000372575b5085908983116001146200031157879262000305575b5050600019600383901b1c191690891b1781555b8451968711620002f257600654908882811c92168015620002e7575b84831014620002d3578798999a9b9c9d5086821162000276575b505081948611600114620002105750509262000204575b5050600019600383901b1c191690821b176006555b60ff1960095416176009551690600754161760075560a0526040516124f090816200048f82396080518181816103270152610761015260a05181818161046001528181610521015281816106fd015281816113fa0152611d820152f35b01519050388062000192565b600683528183208897909594939116915b8282106200025c575050841162000242575b505050811b01600655620001a7565b015160001960f88460031b161c1916905538808062000233565b848401518655889790950194938401939081019062000221565b9091929394959650600685528385209087808a01821c830193868b10620002c9575b918a998c93999897969594929901901c01915b828110620002ba57506200017b565b8581558998508a9101620002ab565b9350829362000298565b50634e487b7160e01b845260228d52602484fd5b91607f169162000161565b634e487b7160e01b845260418d52602484fd5b01519050388062000131565b90858c94169185895287892092895b898282106200035b575050841162000341575b505050811b01815562000145565b015160001960f88460031b161c1916905538808062000333565b8385015186558f9790950194938401930162000320565b90915083875285872089808501861c820192888610620003b9575b918d918695949301871c01915b828110620003aa5750506200011b565b8981558594508d91016200039a565b925081926200038d565b8f876022602492634e487b7160e01b835252fd5b90607f169062000106565b60405162461bcd60e51b8152808b01899052601860248201527f43616e6e6f7420736574206f776e657220746f207a65726f00000000000000006044820152606490fd5b6040516335fdcccd60e21b81526000818d0152602490fd5b600080fd5b634e487b7160e01b600052604160045260246000fd5b60408051919082016001600160401b038111838210176200044357604052565b51906001600160a01b03821682036200043e5756fe60806040818152600480361015610021575b505050361561001f57600080fd5b005b600092833560e01c90816301ffc9a714611dc95750806304783ea414611d4957806306fdde0314611c7c578063095ea7b314611c5257806310a78df814611b7b5780631803c2f514611b3c57806318160ddd14611b1f5780631d880928146119b557806323b872dd146118e95780632e1a7d4d14611309578063313ce567146112ed578063395093511461129e578063544b17091461116c5780635c292be514610cdc578063654e8e0c14610cb85780636c1dc07714610c8b5780636c98d51314610c6557806370a0823114610c2d57806379ba509714610b8657806385572ffb146107215780638cf19d19146106dd5780638da5cb5b146106b557806395d89b411461059a5780639637120f146104ef578063995714ae14610430578063a457c2d714610387578063a9059cbb14610356578063b0f479a114610312578063b2d929551461028b578063dd62ed3e146102395763f2fde38b03610011573461023557602036600319011261023557610198611e1d565b906101a1612468565b6001600160a01b03918216923384146101f2575050600180546001600160a01b031916831790558254167fed8889f560326eb138920d842192f0eb3dd22b4f139c87a2c57538e05bae12788380a380f35b906020606492519162461bcd60e51b8352820152601760248201527f43616e6e6f74207472616e7366657220746f2073656c660000000000000000006044820152fd5b8280fd5b505034610287578060031936011261028757602091610256611e1d565b8261025f611e33565b6001600160a01b03928316845260038652922091166000908152908352819020549051908152f35b5080fd5b5090346102355760203660031901126102355760e09281906001600160a01b036102b3611e1d565b16815260086020522080549260018201546002830154916003840154930154936001600160401b0381519660ff81161515885260ff8160081c161515602089015260101c16908601526060850152608084015260a083015260c0820152f35b505034610287578160031936011261028757517f00000000000000000000000000000000000000000000000000000000000000006001600160a01b03168152602090f35b505034610287578060031936011261028757602090610380610376611e1d565b60243590336120f9565b5160018152f35b50823461042d578260031936011261042d576103a1611e1d565b91836024359233815260036020522060018060a01b0384166000526020528360002054908282106103dc57602085610380858503873361230d565b608490602086519162461bcd60e51b8352820152602560248201527f45524332303a2064656372656173656420616c6c6f77616e63652062656c6f77604482015264207a65726f60d81b6064820152fd5b80fd5b503461023557826003193601126102355733835260086020526104866001600160401b03808486205460101c16907f00000000000000000000000000000000000000000000000000000000000000001614611f98565b338352600860205260ff8284205416156104d957503380835260086020819052918320805461ff00191661010017905560098054610100600160a81b0319169190921b610100600160a81b031617905580f35b6024915190636a9ff79f60e11b82523390820152fd5b5090346102355760603660031901126102355733835260086020526105476001600160401b03808386205460101c16907f00000000000000000000000000000000000000000000000000000000000000001614611f98565b338352600860205260ff818420541615610583573383526008602052822042600182015581356002820155602435600382015560443591015580f35b602492505190636a9ff79f60e11b82523390820152fd5b50913461042d578060031936011261042d578151918160065492600184811c918186169586156106ab575b6020968785108114610698578899509688969785829a529182600014610671575050600114610615575b5050506106119291610602910385611f21565b51928284938452830190611e49565b0390f35b9190869350600683527ff652222313e28459528d920b65115c16c04f3efc82aaedc97be59f3f377c0d3f5b82841061065957505050820101816106026106116105ef565b8054848a018601528895508794909301928101610640565b60ff19168782015293151560051b86019093019350849250610602915061061190506105ef565b634e487b7160e01b835260228a52602483fd5b92607f16926105c5565b505034610287578160031936011261028757905490516001600160a01b039091168152602090f35b505034610287578160031936011261028757602090516001600160401b037f0000000000000000000000000000000000000000000000000000000000000000168152f35b50903461023557602091600319838136011261090a578135906001600160401b0390818311610a5d5760a090833603011261098f576001600160a01b03927f000000000000000000000000000000000000000000000000000000000000000084163303610b6f5784519161079483611e9f565b838201358352602490818501358181168103610b4a57888501526044850135818111610a65576107c990843691880101611f42565b938781019485526064860135828111610b67576107eb90853691890101611f42565b9560608201968752608481013590838211610b6b570136602382011215610b675784810135928311610b53578851926108298b8260051b0185611f21565b808452848b85019160061b83010191368311610b4f578501905b828210610b10575050506080015282518781805181010312610a615761086b8887920161240f565b168089526008885260ff878a20541615610afb575082518781805181010312610a615761089a8887920161240f565b1688526008875260ff868920541615610aaa5783518781805181010312610a61576108c88860ff9201612423565b168061090e5750505050519160608380518101031261090a576108fd6060916108f5610907968601612423565b50840161240f565b9201519116612269565b80f35b8480fd5b9295949391926001810361099357505050508251848180518101031261098f5784610939910161240f565b16845260088352832061010061ff00198254161790555190808280518101031261023557610967910161240f565b60098054610100600160a81b03191660089290921b610100600160a81b031691909117905580f35b8580fd5b95969295600203610a6957505194608086805181010312610a5d576109b9828701612423565b508386015195608060608201519101519682518481805181010312610a65576109e48587920161240f565b16895260088452426001878b20015582518481805181010312610a6557610a0d8587920161240f565b1689526002868a20015581518381805181010312610a6157610a318486920161240f565b1688526003858920015551908082805181010312610a5d57610a53910161240f565b1684528320015580f35b8680fd5b8880fd5b8980fd5b8560196064928588519362461bcd60e51b85528401528201527f696e76616c696420636f6d6d616e642066726f6d204e6f6465000000000000006044820152fd5b855162461bcd60e51b81529182018790526026908201527f496e636f6d696e67204d657373616765206e6f742066726f6d20612076616c6960448201526564206e6f646560d01b6064820152608490fd5b8651636a9ff79f60e11b815280840191909152fd5b8a82360312610b4f578a5190610b2582611eeb565b8235908b82168203610b4a57828e928e94528285013583820152815201910190610843565b600080fd5b8c80fd5b83604186634e487b7160e01b600052526000fd5b8a80fd5b8b80fd5b6024908551906335fdcccd60e21b82523390820152fd5b509034610235578260031936011261023557600154916001600160a01b03918284163303610bf157505082546001600160a01b03198082163390811786559316600155167f8be0079c531659141344cd1fd0a4f28419497f9722a3daafe3b4186f6b6457e08380a380f35b906020606492519162461bcd60e51b8352820152601660248201527526bab9ba10313290383937b837b9b2b21037bbb732b960511b6044820152fd5b5050346102875760203660031901126102875760209181906001600160a01b03610c55611e1d565b1681526002845220549051908152f35b833461042d578060031936011261042d57610c7e612468565b60ff196009541660095580f35b505034610287578160031936011261028757600954905160089190911c6001600160a01b03168152602090f35b50503461028757816003193601126102875760209060ff6009541690519015158152f35b509034610235578060031936011261023557610cf6611e89565b610cfe611e33565b8251916020946001868501526001600160401b038092168585015260018060a01b0392836060911681860152808552610d3685611f06565b8360095460081c1688526008875285882061ff001981541690558360095460081c169485895260ff878a2054948560101c1694161561115557846007541682819360808a51610d8481611e9f565b828152828d820152828c8201528d8382015201528851978a890152898852610dab88611eeb565b8851610db681611ed0565b60008152610dd38a51610dc881611ed0565b621e84808152612431565b938a5199610de08b611e9f565b8a528b8a0152898901528701526080860152855163b0f479a160e01b815287818481305afa90811561114b579085918a91611111575b501693888751926320487ded60e01b8452898480610e378b8a8a8401611ff2565b03818a5afa93841561110757908a9183956110d5575b5060648a51809481936323b872dd60e01b8352338a8401523060248401528860448401525af19081156110cb578a916110ae575b501561106b57600754169086516370a0823160e01b9081815230858201528981602481875afa908115611061578b91611034575b508211610fb85750865163095ea7b360e01b81526001600160a01b038616818501908152602081019290925289939290918991839182908790829060400103925af18015610fae579188959391610f2998979593610f81575b5086516396f4e9f960e01b8152978895869485938401611ff2565b03925af1908115610f785750610f4f575b60098054610100600160a81b03191690558280f35b813d8311610f71575b610f628183611f21565b8101031261042d573880610f3a565b503d610f58565b513d85823e3d90fd5b610fa090873d8911610fa7575b610f988183611f21565b8101906120be565b5038610f0e565b503d610f8e565b87513d85823e3d90fd5b9089888a80879560248451809981938252308a8301525afa9283156110295792610ff8575b5051634787a10360e11b815292830152602482015260449150fd5b90915084813d8311611022575b61100f8183611f21565b81010312610b4a57604493519085610fdd565b503d611005565b8251903d90823e3d90fd5b90508981813d831161105a575b61104b8183611f21565b81010312610b4a575138610eb5565b503d611041565b89513d8d823e3d90fd5b865162461bcd60e51b8152808401899052601a60248201527f4e6f742070726f7669646564204c696e6b20666f7220666565730000000000006044820152606490fd5b6110c59150893d8b11610fa757610f988183611f21565b38610e81565b88513d8c823e3d90fd5b9250935081813d8311611100575b6110ed8183611f21565b81010312610b4a57888a91519338610e4d565b503d6110e3565b89513d84823e3d90fd5b809250898092503d8311611144575b61112a8183611f21565b81010312610a6157518481168103610a6157849038610e16565b503d611120565b87513d8b823e3d90fd5b8651636a9ff79f60e11b8152808401879052602490fd5b50913461042d5760a036600319011261042d57611187611e89565b91611190611e33565b6001600160a01b03936044358581169190829003610b4a5760643590868216809203610b4a57608435976001600160401b038911610a5d576111db6112579697989936908301611f42565b87519460209a8b9716878701528686526111f486611eeb565b88516111ff81611ed0565b6000815261121c8a5161121181611ed0565b620f42408152612431565b928a519761122989611e9f565b885288880152898701526060860152608085015286516320487ded60e01b8152958694859384938401611ff2565b03915afa928315611029579261126f575b5051908152f35b9091508281813d8311611297575b6112878183611f21565b81010312610b4a57519038611268565b503d61127d565b505034610287578060031936011261028757610380602092826112bf611e1d565b91338152600386522060018060a01b03821660005284526112e660243584600020546120d6565b903361230d565b5050346102875781600319360112610287576020905160128152f35b50919034610287576020928360031936011261023557600954600890811c6001600160a01b0390811685528186528385205483359190831c60ff16156118b157338652600287528486205482116118785784519286888501523386850152606097838986015288855261137b85611f06565b331561182c57338852600281528688205498848a106117de5784899a338b526002845203888a20558487540387558888518681527fddf252ad1be2c89b69c2b068fc378daa952ba7f163c4a11628f55a4df523b3ef843392a383600954841c1690818a52838352888a2054906001600160401b0397888360101c1692897f00000000000000000000000000000000000000000000000000000000000000001684146000146114a357505050505050600954901c1690813b1561098f5784516315e005b760e31b81523385820190815260208101929092529591869182908490829060400103925af1801561149957611475575b5050505080f35b83116114865750523880808061146e565b634e487b7160e01b845260419052602483fd5b83513d87823e3d90fd5b929750939a50935060ff9197949650161561115557846007541682819360808a516114cd81611e9f565b828152828d820152828c8201528d8382015201528851978a8901528988526114f488611eeb565b88516114ff81611ed0565b8b81526115108a51610dc881611ed0565b938a519961151d8b611e9f565b8a528b8a0152898901528701526080860152855163b0f479a160e01b815287818481305afa90811561114b579085918a916117a4575b501693888751926320487ded60e01b84528984806115748b8a8a8401611ff2565b03818a5afa93841561110757908a918395611773575b5060648a51809481936323b872dd60e01b8352338a8401523060248401528860448401525af19081156110cb578a91611756575b501561106b5790889291600754169087516370a0823160e01b9081815230858201528a81602481875afa90811561174c57869161171f575b5082116116a05750875163095ea7b360e01b81526001600160a01b038716848201908152602081019290925291899183919082908790829060400103925af18015610fae57918895939161166698979593610f81575086516396f4e9f960e01b8152978895869485938401611ff2565b03925af1908115610f78575061167b57505080f35b813d8311611699575b61168e8183611f21565b8101031261042d5780f35b503d611684565b899192828a9260248451809481938252308a8301525afa9283156117155786936116e1575b505051634787a10360e11b815292830152602482015260449150fd5b9080929350813d831161170e575b6116f98183611f21565b8101031261090a5760449450519085806116c5565b503d6116ef565b82513d88823e3d90fd5b90508a81813d8311611745575b6117368183611f21565b8101031261098f5751386115f6565b503d61172c565b8a513d88823e3d90fd5b61176d9150893d8b11610fa757610f988183611f21565b386115be565b8281939296503d831161179d575b61178b8183611f21565b8101031261028757899051933861158a565b503d611781565b809250898092503d83116117d7575b6117bd8183611f21565b81010312610a6157518481168103610a6157849038611553565b503d6117b3565b875162461bcd60e51b8152808801839052602260248201527f45524332303a206275726e20616d6f756e7420657863656564732062616c616e604482015261636560f01b6064820152608490fd5b8560849188519162461bcd60e51b8352820152602160248201527f45524332303a206275726e2066726f6d20746865207a65726f206164647265736044820152607360f81b6064820152fd5b845162461bcd60e51b815280850188905260136024820152724e6f7420656e6f756768742062616c616e636560681b6044820152606490fd5b845162461bcd60e51b815280850188905260126024820152714e6f6465206973206e6f742041637469766560701b6044820152606490fd5b5082903461028757606036600319011261028757611905611e1d565b61190d611e33565b6001600160a01b03821684526003602090815285852033865290529284902054604435939260018201611949575b6020866103808787876120f9565b8482106119725750918391611967602096956103809503338361230d565b91939481935061193b565b606490602087519162461bcd60e51b8352820152601d60248201527f45524332303a20696e73756666696369656e7420616c6c6f77616e63650000006044820152fd5b50913461042d578160031936011261042d576119cf611e1d565b926119d8611e33565b9060018060a01b03809516928381526008956020968088528683209560018060ff8954851c161515149788611b12575b5087611afe575b87611adf575b87611aa8575b87611a8e575b5086611a75575b86611a60575b86611a3f575b888789519015158152f35b83528752858220830154931681528490200154119050388080808080611a34565b80845281895287842085015415159650611a2e565b858316845281895287842054821c60ff16159650611a28565b8684168552828a528885205460ff16151514965038611a21565b96508286168452818952868885200154610e108101809111611acc57421096611a1b565b634e487b7160e01b855260118652602485fd5b9650808452868885200154610e108101809111611acc57421096611a15565b868416855288852081015415159750611a0f565b8101541515975038611a08565b503461023557826003193601126102355760209250549051908152f35b5050346102875781600319360112610287576001600160401b038160209360018060a01b0360095460081c16815260088552205460101c169051908152f35b50903461023557606036600319011261023557611b96611e1d565b916024356001600160401b038116810361090a576044359283151592838503610a5d57611bc1612468565b60ff6009541615611c18575090600191828060a01b0386168752600860205286209261ff0069ffffffffffffffff000085549360101b169269ffffffffffffffffffff19169160081b161717179055610967575080f35b6020606492519162461bcd60e51b83528201526015602482015274139bc81b5bdc99481b9bd9195cc8185b1b1bddd959605a1b6044820152fd5b505034610287578060031936011261028757602090610380611c72611e1d565b602435903361230d565b50913461042d578060031936011261042d578151918160055492600184811c91818616958615611d3f575b6020968785108114610698578899509688969785829a529182600014610671575050600114611ce3575050506106119291610602910385611f21565b9190869350600583527f036b6384b5eca791c62761152d0c79bb0604c104a5fb6f4eb0703f3154bb3db05b828410611d2757505050820101816106026106116105ef565b8054848a018601528895508794909301928101611d0e565b92607f1692611ca7565b5034610235578160031936011261023557611d62611e1d565b913384526008602052611da86001600160401b03808387205460101c16907f00000000000000000000000000000000000000000000000000000000000000001614611f98565b338452600860205260ff818520541615610583578361090760243585612269565b92505034610235576020366003190112610235573563ffffffff60e01b811680910361023557602092506385572ffb60e01b8114908115611e0c575b5015158152f35b6301ffc9a760e01b14905038611e05565b600435906001600160a01b0382168203610b4a57565b602435906001600160a01b0382168203610b4a57565b919082519283825260005b848110611e75575050826000602080949584010152601f8019910116010190565b602081830181015184830182015201611e54565b600435906001600160401b0382168203610b4a57565b60a081019081106001600160401b03821117611eba57604052565b634e487b7160e01b600052604160045260246000fd5b602081019081106001600160401b03821117611eba57604052565b604081019081106001600160401b03821117611eba57604052565b608081019081106001600160401b03821117611eba57604052565b90601f801991011681019081106001600160401b03821117611eba57604052565b81601f82011215610b4a578035906001600160401b038211611eba5760405192611f76601f8401601f191660200185611f21565b82845260208383010111610b4a57816000926020809301838601378301015290565b15611f9f57565b60405162461bcd60e51b815260206004820152602560248201527f52657175697265206d617374657220616e64206e6f646520696e2073616d652060448201526431b430b4b760d91b6064820152608490fd5b906001600160401b039093929316815260406020918183820152612021855160a08484015260e0830190611e49565b9161203d8487015193603f199485858303016060860152611e49565b8187015194848483030160808501528080875193848152019601926000905b83821061209557505050505060c06080612092959660018060a01b0360608201511660a085015201519282850301910152611e49565b90565b845180516001600160a01b0316895283015188840152968701969382019360019091019061205c565b90816020910312610b4a57518015158103610b4a5790565b919082018092116120e357565b634e487b7160e01b600052601160045260246000fd5b6001600160a01b0390811691821561221657169182156121c5576000828152600260205260408120549180831061217157604082827fddf252ad1be2c89b69c2b068fc378daa952ba7f163c4a11628f55a4df523b3ef95876020965260028652038282205586815220818154019055604051908152a3565b60405162461bcd60e51b815260206004820152602660248201527f45524332303a207472616e7366657220616d6f756e7420657863656564732062604482015265616c616e636560d01b6064820152608490fd5b60405162461bcd60e51b815260206004820152602360248201527f45524332303a207472616e7366657220746f20746865207a65726f206164647260448201526265737360e81b6064820152608490fd5b60405162461bcd60e51b815260206004820152602560248201527f45524332303a207472616e736665722066726f6d20746865207a65726f206164604482015264647265737360d81b6064820152608490fd5b6001600160a01b03169081156122c8577fddf252ad1be2c89b69c2b068fc378daa952ba7f163c4a11628f55a4df523b3ef6020826122ab6000946004546120d6565b6004558484526002825260408420818154019055604051908152a3565b60405162461bcd60e51b815260206004820152601f60248201527f45524332303a206d696e7420746f20746865207a65726f2061646472657373006044820152606490fd5b6001600160a01b039081169182156123be571691821561236e5760207f8c5be1e5ebec7d5bd14f71427d1e84f3dd0314c0f7b2291e5b200ac8c7c3b925918360005260038252604060002085600052825280604060002055604051908152a3565b60405162461bcd60e51b815260206004820152602260248201527f45524332303a20617070726f766520746f20746865207a65726f206164647265604482015261737360f01b6064820152608490fd5b60405162461bcd60e51b8152602060048201526024808201527f45524332303a20617070726f76652066726f6d20746865207a65726f206164646044820152637265737360e01b6064820152608490fd5b51906001600160a01b0382168203610b4a57565b519060ff82168203610b4a57565b604051906397a657c960e01b602083015251602482015260248152606081018181106001600160401b03821117611eba5760405290565b6000546001600160a01b0316330361247c57565b60405162461bcd60e51b815260206004820152601660248201527527b7363c9031b0b63630b1363290313c9037bbb732b960511b6044820152606490fdfea26469706673582212204eb758cf7a5ac0a85377638c5fb11269fd7fa54acbcdfc6789543b04812321c964736f6c63430008130033",
  "bytecodeSha1": "37273cd8a6719af92df90cf3fe6742fbc91cb605",
  "compiler": {
    "evm_version": "istanbul",
    "optimizer": {
      "enabled": true,
      "runs": 200
    },
    "version": "0.8.19+commit.7dd6d404"
  },
  "contractName": "MasterNode",
  "language": "Solidity",
  "natspec": {
    "kind": "dev",
    "methods": {
      "acceptOwnership()": {
        "notice": "Allows an ownership transfer to be completed by the recipient."
      },
      "allowance(address,address)": {
        "details": "See {IERC20-allowance}."
      },
      "approve(address,uint256)": {
        "details": "See {IERC20-approve}. NOTE: If `amount` is the maximum `uint256`, the allowance is not updated on `transferFrom`. This is semantically equivalent to an infinite approval. Requirements: - `spender` cannot be the zero address."
      },
      "balanceOf(address)": {
        "details": "See {IERC20-balanceOf}."
      },
      "ccipReceive((bytes32,uint64,bytes,bytes,(address,uint256)[]))": {
        "details": "Note ensure you check the msg.sender is the OffRampRouter",
        "notice": "Called by the Router to deliver a message. If this reverts, any token transfers also revert. The message will move to a FAILED state and become available for manual execution.",
        "params": {
          "message": "CCIP Message"
        }
      },
      "constructor": {
        "notice": "Constructor initializes the contract with the router address.",
        "params": {
          "_link": "The address of the link contract.",
          "_router": "The address of the router contract."
        }
      },
      "decimals()": {
        "details": "Returns the number of decimals used to get its user representation. For example, if `decimals` equals `2`, a balance of `505` tokens should be displayed to a user as `5.05` (`505 / 10 ** 2`). Tokens usually opt for a value of 18, imitating the relationship between Ether and Wei. This is the value {ERC20} uses, unless this function is overridden; NOTE: This information is only used for _display_ purposes: it in no way affects any of the arithmetic of the contract, including {IERC20-balanceOf} and {IERC20-transfer}."
      },
      "decreaseAllowance(address,uint256)": {
        "details": "Atomically decreases the allowance granted to `spender` by the caller. This is an alternative to {approve} that can be used as a mitigation for problems described in {IERC20-approve}. Emits an {Approval} event indicating the updated allowance. Requirements: - `spender` cannot be the zero address. - `spender` must have allowance for the caller of at least `subtractedValue`."
      },
      "getRouter()": {
        "notice": "Return the current router",
        "returns": {
          "_0": "CCIP router address"
        }
      },
      "increaseAllowance(address,uint256)": {
        "details": "Atomically increases the allowance granted to `spender` by the caller. This is an alternative to {approve} that can be used as a mitigation for problems described in {IERC20-approve}. Emits an {Approval} event indicating the updated allowance. Requirements: - `spender` cannot be the zero address."
      },
      "name()": {
        "details": "Returns the name of the token."
      },
      "owner()": {
        "notice": "Get the current owner"
      },
      "supportsInterface(bytes4)": {
        "details": "Should indicate whether the contract implements IAny2EVMMessageReceiver e.g. return interfaceId == type(IAny2EVMMessageReceiver).interfaceId || interfaceId == type(IERC165).interfaceId This allows CCIP to check if ccipReceive is available before calling it. If this returns false or reverts, only tokens are transferred to the receiver. If this returns true, tokens are transferred and ccipReceive is called atomically. Additionally, if the receiver address does not have code associated with it at the time of execution (EXTCODESIZE returns 0), only tokens will be transferred.",
        "notice": "IERC165 supports an interfaceId",
        "params": {
          "interfaceId": "The interfaceId to check"
        },
        "returns": {
          "_0": "true if the interfaceId is supported"
        }
      },
      "symbol()": {
        "details": "Returns the symbol of the token, usually a shorter version of the name."
      },
      "totalSupply()": {
        "details": "See {IERC20-totalSupply}."
      },
      "transfer(address,uint256)": {
        "details": "See {IERC20-transfer}. Requirements: - `to` cannot be the zero address. - the caller must have a balance of at least `amount`."
      },
      "transferFrom(address,address,uint256)": {
        "details": "See {IERC20-transferFrom}. Emits an {Approval} event indicating the updated allowance. This is not required by the EIP. See the note at the beginning of {ERC20}. NOTE: Does not update the allowance if the current allowance is the maximum `uint256`. Requirements: - `from` and `to` cannot be the zero address. - `from` must have a balance of at least `amount`. - the caller must have allowance for ``from``'s tokens of at least `amount`."
      },
      "transferOwnership(address)": {
        "notice": "Allows an owner to begin transferring ownership to a new address."
      }
    },
    "title": "- A simple messenger contract for transferring/receiving tokens and data across chains.",
    "version": 1
  },
  "opcodes": "PUSH1 0x80 PUSH1 0x40 DUP2 DUP2 MSTORE PUSH1 0x4 DUP1 CALLDATASIZE LT ISZERO PUSH2 0x21 JUMPI JUMPDEST POP POP POP CALLDATASIZE ISZERO PUSH2 0x1F JUMPI PUSH1 0x0 DUP1 REVERT JUMPDEST STOP JUMPDEST PUSH1 0x0 SWAP3 DUP4 CALLDATALOAD PUSH1 0xE0 SHR SWAP1 DUP2 PUSH4 0x1FFC9A7 EQ PUSH2 0x1DC9 JUMPI POP DUP1 PUSH4 0x4783EA4 EQ PUSH2 0x1D49 JUMPI DUP1 PUSH4 0x6FDDE03 EQ PUSH2 0x1C7C JUMPI DUP1 PUSH4 0x95EA7B3 EQ PUSH2 0x1C52 JUMPI DUP1 PUSH4 0x10A78DF8 EQ PUSH2 0x1B7B JUMPI DUP1 PUSH4 0x1803C2F5 EQ PUSH2 0x1B3C JUMPI DUP1 PUSH4 0x18160DDD EQ PUSH2 0x1B1F JUMPI DUP1 PUSH4 0x1D880928 EQ PUSH2 0x19B5 JUMPI DUP1 PUSH4 0x23B872DD EQ PUSH2 0x18E9 JUMPI DUP1 PUSH4 0x2E1A7D4D EQ PUSH2 0x1309 JUMPI DUP1 PUSH4 0x313CE567 EQ PUSH2 0x12ED JUMPI DUP1 PUSH4 0x39509351 EQ PUSH2 0x129E JUMPI DUP1 PUSH4 0x544B1709 EQ PUSH2 0x116C JUMPI DUP1 PUSH4 0x5C292BE5 EQ PUSH2 0xCDC JUMPI DUP1 PUSH4 0x654E8E0C EQ PUSH2 0xCB8 JUMPI DUP1 PUSH4 0x6C1DC077 EQ PUSH2 0xC8B JUMPI DUP1 PUSH4 0x6C98D513 EQ PUSH2 0xC65 JUMPI DUP1 PUSH4 0x70A08231 EQ PUSH2 0xC2D JUMPI DUP1 PUSH4 0x79BA5097 EQ PUSH2 0xB86 JUMPI DUP1 PUSH4 0x85572FFB EQ PUSH2 0x721 JUMPI DUP1 PUSH4 0x8CF19D19 EQ PUSH2 0x6DD JUMPI DUP1 PUSH4 0x8DA5CB5B EQ PUSH2 0x6B5 JUMPI DUP1 PUSH4 0x95D89B41 EQ PUSH2 0x59A JUMPI DUP1 PUSH4 0x9637120F EQ PUSH2 0x4EF JUMPI DUP1 PUSH4 0x995714AE EQ PUSH2 0x430 JUMPI DUP1 PUSH4 0xA457C2D7 EQ PUSH2 0x387 JUMPI DUP1 PUSH4 0xA9059CBB EQ PUSH2 0x356 JUMPI DUP1 PUSH4 0xB0F479A1 EQ PUSH2 0x312 JUMPI DUP1 PUSH4 0xB2D92955 EQ PUSH2 0x28B JUMPI DUP1 PUSH4 0xDD62ED3E EQ PUSH2 0x239 JUMPI PUSH4 0xF2FDE38B SUB PUSH2 0x11 JUMPI CALLVALUE PUSH2 0x235 JUMPI PUSH1 0x20 CALLDATASIZE PUSH1 0x3 NOT ADD SLT PUSH2 0x235 JUMPI PUSH2 0x198 PUSH2 0x1E1D JUMP JUMPDEST SWAP1 PUSH2 0x1A1 PUSH2 0x2468 JUMP JUMPDEST PUSH1 0x1 PUSH1 0x1 PUSH1 0xA0 SHL SUB SWAP2 DUP3 AND SWAP3 CALLER DUP5 EQ PUSH2 0x1F2 JUMPI POP POP PUSH1 0x1 DUP1 SLOAD PUSH1 0x1 PUSH1 0x1 PUSH1 0xA0 SHL SUB NOT AND DUP4 OR SWAP1 SSTORE DUP3 SLOAD AND PUSH32 0xED8889F560326EB138920D842192F0EB3DD22B4F139C87A2C57538E05BAE1278 DUP4 DUP1 LOG3 DUP1 RETURN JUMPDEST SWAP1 PUSH1 0x20 PUSH1 0x64 SWAP3 MLOAD SWAP2 PUSH3 0x461BCD PUSH1 0xE5 SHL DUP4 MSTORE DUP3 ADD MSTORE PUSH1 0x17 PUSH1 0x24 DUP3 ADD MSTORE PUSH32 0x43616E6E6F74207472616E7366657220746F2073656C66000000000000000000 PUSH1 0x44 DUP3 ADD MSTORE REVERT JUMPDEST DUP3 DUP1 REVERT JUMPDEST POP POP CALLVALUE PUSH2 0x287 JUMPI DUP1 PUSH1 0x3 NOT CALLDATASIZE ADD SLT PUSH2 0x287 JUMPI PUSH1 0x20 SWAP2 PUSH2 0x256 PUSH2 0x1E1D JUMP JUMPDEST DUP3 PUSH2 0x25F PUSH2 0x1E33 JUMP JUMPDEST PUSH1 0x1 PUSH1 0x1 PUSH1 0xA0 SHL SUB SWAP3 DUP4 AND DUP5 MSTORE PUSH1 0x3 DUP7 MSTORE SWAP3 KECCAK256 SWAP2 AND PUSH1 0x0 SWAP1 DUP2 MSTORE SWAP1 DUP4 MSTORE DUP2 SWAP1 KECCAK256 SLOAD SWAP1 MLOAD SWAP1 DUP2 MSTORE RETURN JUMPDEST POP DUP1 REVERT JUMPDEST POP SWAP1 CALLVALUE PUSH2 0x235 JUMPI PUSH1 0x20 CALLDATASIZE PUSH1 0x3 NOT ADD SLT PUSH2 0x235 JUMPI PUSH1 0xE0 SWAP3 DUP2 SWAP1 PUSH1 0x1 PUSH1 0x1 PUSH1 0xA0 SHL SUB PUSH2 0x2B3 PUSH2 0x1E1D JUMP JUMPDEST AND DUP2 MSTORE PUSH1 0x8 PUSH1 0x20 MSTORE KECCAK256 DUP1 SLOAD SWAP3 PUSH1 0x1 DUP3 ADD SLOAD PUSH1 0x2 DUP4 ADD SLOAD SWAP2 PUSH1 0x3 DUP5 ADD SLOAD SWAP4 ADD SLOAD SWAP4 PUSH1 0x1 PUSH1 0x1 PUSH1 0x40 SHL SUB DUP2 MLOAD SWAP7 PUSH1 0xFF DUP2 AND ISZERO ISZERO DUP9 MSTORE PUSH1 0xFF DUP2 PUSH1 0x8 SHR AND ISZERO ISZERO PUSH1 0x20 DUP10 ADD MSTORE PUSH1 0x10 SHR AND SWAP1 DUP7 ADD MSTORE PUSH1 0x60 DUP6 ADD MSTORE PUSH1 0x80 DUP5 ADD MSTORE PUSH1 0xA0 DUP4 ADD MSTORE PUSH1 0xC0 DUP3 ADD MSTORE RETURN JUMPDEST POP POP CALLVALUE PUSH2 0x287 JUMPI DUP2 PUSH1 0x3 NOT CALLDATASIZE ADD SLT PUSH2 0x287 JUMPI MLOAD PUSH32 0x0 PUSH1 0x1 PUSH1 0x1 PUSH1 0xA0 SHL SUB AND DUP2 MSTORE PUSH1 0x20 SWAP1 RETURN JUMPDEST POP POP CALLVALUE PUSH2 0x287 JUMPI DUP1 PUSH1 0x3 NOT CALLDATASIZE ADD SLT PUSH2 0x287 JUMPI PUSH1 0x20 SWAP1 PUSH2 0x380 PUSH2 0x376 PUSH2 0x1E1D JUMP JUMPDEST PUSH1 0x24 CALLDATALOAD SWAP1 CALLER PUSH2 0x20F9 JUMP JUMPDEST MLOAD PUSH1 0x1 DUP2 MSTORE RETURN JUMPDEST POP DUP3 CALLVALUE PUSH2 0x42D JUMPI DUP3 PUSH1 0x3 NOT CALLDATASIZE ADD SLT PUSH2 0x42D JUMPI PUSH2 0x3A1 PUSH2 0x1E1D JUMP JUMPDEST SWAP2 DUP4 PUSH1 0x24 CALLDATALOAD SWAP3 CALLER DUP2 MSTORE PUSH1 0x3 PUSH1 0x20 MSTORE KECCAK256 PUSH1 0x1 DUP1 PUSH1 0xA0 SHL SUB DUP5 AND PUSH1 0x0 MSTORE PUSH1 0x20 MSTORE DUP4 PUSH1 0x0 KECCAK256 SLOAD SWAP1 DUP3 DUP3 LT PUSH2 0x3DC JUMPI PUSH1 0x20 DUP6 PUSH2 0x380 DUP6 DUP6 SUB DUP8 CALLER PUSH2 0x230D JUMP JUMPDEST PUSH1 0x84 SWAP1 PUSH1 0x20 DUP7 MLOAD SWAP2 PUSH3 0x461BCD PUSH1 0xE5 SHL DUP4 MSTORE DUP3 ADD MSTORE PUSH1 0x25 PUSH1 0x24 DUP3 ADD MSTORE PUSH32 0x45524332303A2064656372656173656420616C6C6F77616E63652062656C6F77 PUSH1 0x44 DUP3 ADD MSTORE PUSH5 0x207A65726F PUSH1 0xD8 SHL PUSH1 0x64 DUP3 ADD MSTORE REVERT JUMPDEST DUP1 REVERT JUMPDEST POP CALLVALUE PUSH2 0x235 JUMPI DUP3 PUSH1 0x3 NOT CALLDATASIZE ADD SLT PUSH2 0x235 JUMPI CALLER DUP4 MSTORE PUSH1 0x8 PUSH1 0x20 MSTORE PUSH2 0x486 PUSH1 0x1 PUSH1 0x1 PUSH1 0x40 SHL SUB DUP1 DUP5 DUP7 KECCAK256 SLOAD PUSH1 0x10 SHR AND SWAP1 PUSH32 0x0 AND EQ PUSH2 0x1F98 JUMP JUMPDEST CALLER DUP4 MSTORE PUSH1 0x8 PUSH1 0x20 MSTORE PUSH1 0xFF DUP3 DUP5 KECCAK256 SLOAD AND ISZERO PUSH2 0x4D9 JUMPI POP CALLER DUP1 DUP4 MSTORE PUSH1 0x8 PUSH1 0x20 DUP2 SWAP1 MSTORE SWAP2 DUP4 KECCAK256 DUP1 SLOAD PUSH2 0xFF00 NOT AND PUSH2 0x100 OR SWAP1 SSTORE PUSH1 0x9 DUP1 SLOAD PUSH2 0x100 PUSH1 0x1 PUSH1 0xA8 SHL SUB NOT AND SWAP2 SWAP1 SWAP3 SHL PUSH2 0x100 PUSH1 0x1 PUSH1 0xA8 SHL SUB AND OR SWAP1 SSTORE DUP1 RETURN JUMPDEST PUSH1 0x24 SWAP2 MLOAD SWAP1 PUSH4 0x6A9FF79F PUSH1 0xE1 SHL DUP3 MSTORE CALLER SWAP1 DUP3 ADD MSTORE REVERT JUMPDEST POP SWAP1 CALLVALUE PUSH2 0x235 JUMPI PUSH1 0x60 CALLDATASIZE PUSH1 0x3 NOT ADD SLT PUSH2 0x235 JUMPI CALLER DUP4 MSTORE PUSH1 0x8 PUSH1 0x20 MSTORE PUSH2 0x547 PUSH1 0x1 PUSH1 0x1 PUSH1 0x40 SHL SUB DUP1 DUP4 DUP7 KECCAK256 SLOAD PUSH1 0x10 SHR AND SWAP1 PUSH32 0x0 AND EQ PUSH2 0x1F98 JUMP JUMPDEST CALLER DUP4 MSTORE PUSH1 0x8 PUSH1 0x20 MSTORE PUSH1 0xFF DUP2 DUP5 KECCAK256 SLOAD AND ISZERO PUSH2 0x583 JUMPI CALLER DUP4 MSTORE PUSH1 0x8 PUSH1 0x20 MSTORE DUP3 KECCAK256 TIMESTAMP PUSH1 0x1 DUP3 ADD SSTORE DUP2 CALLDATALOAD PUSH1 0x2 DUP3 ADD SSTORE PUSH1 0x24 CALLDATALOAD PUSH1 0x3 DUP3 ADD SSTORE PUSH1 0x44 CALLDATALOAD SWAP2 ADD SSTORE DUP1 RETURN JUMPDEST PUSH1 0x24 SWAP3 POP MLOAD SWAP1 PUSH4 0x6A9FF79F PUSH1 0xE1 SHL DUP3 MSTORE CALLER SWAP1 DUP3 ADD MSTORE REVERT JUMPDEST POP SWAP2 CALLVALUE PUSH2 0x42D JUMPI DUP1 PUSH1 0x3 NOT CALLDATASIZE ADD SLT PUSH2 0x42D JUMPI DUP2 MLOAD SWAP2 DUP2 PUSH1 0x6 SLOAD SWAP3 PUSH1 0x1 DUP5 DUP2 SHR SWAP2 DUP2 DUP7 AND SWAP6 DUP7 ISZERO PUSH2 0x6AB JUMPI JUMPDEST PUSH1 0x20 SWAP7 DUP8 DUP6 LT DUP2 EQ PUSH2 0x698 JUMPI DUP9 SWAP10 POP SWAP7 DUP9 SWAP7 SWAP8 DUP6 DUP3 SWAP11 MSTORE SWAP2 DUP3 PUSH1 0x0 EQ PUSH2 0x671 JUMPI POP POP PUSH1 0x1 EQ PUSH2 0x615 JUMPI JUMPDEST POP POP POP PUSH2 0x611 SWAP3 SWAP2 PUSH2 0x602 SWAP2 SUB DUP6 PUSH2 0x1F21 JUMP JUMPDEST MLOAD SWAP3 DUP3 DUP5 SWAP4 DUP5 MSTORE DUP4 ADD SWAP1 PUSH2 0x1E49 JUMP JUMPDEST SUB SWAP1 RETURN JUMPDEST SWAP2 SWAP1 DUP7 SWAP4 POP PUSH1 0x6 DUP4 MSTORE PUSH32 0xF652222313E28459528D920B65115C16C04F3EFC82AAEDC97BE59F3F377C0D3F JUMPDEST DUP3 DUP5 LT PUSH2 0x659 JUMPI POP POP POP DUP3 ADD ADD DUP2 PUSH2 0x602 PUSH2 0x611 PUSH2 0x5EF JUMP JUMPDEST DUP1 SLOAD DUP5 DUP11 ADD DUP7 ADD MSTORE DUP9 SWAP6 POP DUP8 SWAP5 SWAP1 SWAP4 ADD SWAP3 DUP2 ADD PUSH2 0x640 JUMP JUMPDEST PUSH1 0xFF NOT AND DUP8 DUP3 ADD MSTORE SWAP4 ISZERO ISZERO PUSH1 0x5 SHL DUP7 ADD SWAP1 SWAP4 ADD SWAP4 POP DUP5 SWAP3 POP PUSH2 0x602 SWAP2 POP PUSH2 0x611 SWAP1 POP PUSH2 0x5EF JUMP JUMPDEST PUSH4 0x4E487B71 PUSH1 0xE0 SHL DUP4 MSTORE PUSH1 0x22 DUP11 MSTORE PUSH1 0x24 DUP4 REVERT JUMPDEST SWAP3 PUSH1 0x7F AND SWAP3 PUSH2 0x5C5 JUMP JUMPDEST POP POP CALLVALUE PUSH2 0x287 JUMPI DUP2 PUSH1 0x3 NOT CALLDATASIZE ADD SLT PUSH2 0x287 JUMPI SWAP1 SLOAD SWAP1 MLOAD PUSH1 0x1 PUSH1 0x1 PUSH1 0xA0 SHL SUB SWAP1 SWAP2 AND DUP2 MSTORE PUSH1 0x20 SWAP1 RETURN JUMPDEST POP POP CALLVALUE PUSH2 0x287 JUMPI DUP2 PUSH1 0x3 NOT CALLDATASIZE ADD SLT PUSH2 0x287 JUMPI PUSH1 0x20 SWAP1 MLOAD PUSH1 0x1 PUSH1 0x1 PUSH1 0x40 SHL SUB PUSH32 0x0 AND DUP2 MSTORE RETURN JUMPDEST POP SWAP1 CALLVALUE PUSH2 0x235 JUMPI PUSH1 0x20 SWAP2 PUSH1 0x3 NOT DUP4 DUP2 CALLDATASIZE ADD SLT PUSH2 0x90A JUMPI DUP2 CALLDATALOAD SWAP1 PUSH1 0x1 PUSH1 0x1 PUSH1 0x40 SHL SUB SWAP1 DUP2 DUP4 GT PUSH2 0xA5D JUMPI PUSH1 0xA0 SWAP1 DUP4 CALLDATASIZE SUB ADD SLT PUSH2 0x98F JUMPI PUSH1 0x1 PUSH1 0x1 PUSH1 0xA0 SHL SUB SWAP3 PUSH32 0x0 DUP5 AND CALLER SUB PUSH2 0xB6F JUMPI DUP5 MLOAD SWAP2 PUSH2 0x794 DUP4 PUSH2 0x1E9F JUMP JUMPDEST DUP4 DUP3 ADD CALLDATALOAD DUP4 MSTORE PUSH1 0x24 SWAP1 DUP2 DUP6 ADD CALLDATALOAD DUP2 DUP2 AND DUP2 SUB PUSH2 0xB4A JUMPI DUP9 DUP6 ADD MSTORE PUSH1 0x44 DUP6 ADD CALLDATALOAD DUP2 DUP2 GT PUSH2 0xA65 JUMPI PUSH2 0x7C9 SWAP1 DUP5 CALLDATASIZE SWAP2 DUP9 ADD ADD PUSH2 0x1F42 JUMP JUMPDEST SWAP4 DUP8 DUP2 ADD SWAP5 DUP6 MSTORE PUSH1 0x64 DUP7 ADD CALLDATALOAD DUP3 DUP2 GT PUSH2 0xB67 JUMPI PUSH2 0x7EB SWAP1 DUP6 CALLDATASIZE SWAP2 DUP10 ADD ADD PUSH2 0x1F42 JUMP JUMPDEST SWAP6 PUSH1 0x60 DUP3 ADD SWAP7 DUP8 MSTORE PUSH1 0x84 DUP2 ADD CALLDATALOAD SWAP1 DUP4 DUP3 GT PUSH2 0xB6B JUMPI ADD CALLDATASIZE PUSH1 0x23 DUP3 ADD SLT ISZERO PUSH2 0xB67 JUMPI DUP5 DUP2 ADD CALLDATALOAD SWAP3 DUP4 GT PUSH2 0xB53 JUMPI DUP9 MLOAD SWAP3 PUSH2 0x829 DUP12 DUP3 PUSH1 0x5 SHL ADD DUP6 PUSH2 0x1F21 JUMP JUMPDEST DUP1 DUP5 MSTORE DUP5 DUP12 DUP6 ADD SWAP2 PUSH1 0x6 SHL DUP4 ADD ADD SWAP2 CALLDATASIZE DUP4 GT PUSH2 0xB4F JUMPI DUP6 ADD SWAP1 JUMPDEST DUP3 DUP3 LT PUSH2 0xB10 JUMPI POP POP POP PUSH1 0x80 ADD MSTORE DUP3 MLOAD DUP8 DUP2 DUP1 MLOAD DUP2 ADD SUB SLT PUSH2 0xA61 JUMPI PUSH2 0x86B DUP9 DUP8 SWAP3 ADD PUSH2 0x240F JUMP JUMPDEST AND DUP1 DUP10 MSTORE PUSH1 0x8 DUP9 MSTORE PUSH1 0xFF DUP8 DUP11 KECCAK256 SLOAD AND ISZERO PUSH2 0xAFB JUMPI POP DUP3 MLOAD DUP8 DUP2 DUP1 MLOAD DUP2 ADD SUB SLT PUSH2 0xA61 JUMPI PUSH2 0x89A DUP9 DUP8 SWAP3 ADD PUSH2 0x240F JUMP JUMPDEST AND DUP9 MSTORE PUSH1 0x8 DUP8 MSTORE PUSH1 0xFF DUP7 DUP10 KECCAK256 SLOAD AND ISZERO PUSH2 0xAAA JUMPI DUP4 MLOAD DUP8 DUP2 DUP1 MLOAD DUP2 ADD SUB SLT PUSH2 0xA61 JUMPI PUSH2 0x8C8 DUP9 PUSH1 0xFF SWAP3 ADD PUSH2 0x2423 JUMP JUMPDEST AND DUP1 PUSH2 0x90E JUMPI POP POP POP POP MLOAD SWAP2 PUSH1 0x60 DUP4 DUP1 MLOAD DUP2 ADD SUB SLT PUSH2 0x90A JUMPI PUSH2 0x8FD PUSH1 0x60 SWAP2 PUSH2 0x8F5 PUSH2 0x907 SWAP7 DUP7 ADD PUSH2 0x2423 JUMP JUMPDEST POP DUP5 ADD PUSH2 0x240F JUMP JUMPDEST SWAP3 ADD MLOAD SWAP2 AND PUSH2 0x2269 JUMP JUMPDEST DUP1 RETURN JUMPDEST DUP5 DUP1 REVERT JUMPDEST SWAP3 SWAP6 SWAP5 SWAP4 SWAP2 SWAP3 PUSH1 0x1 DUP2 SUB PUSH2 0x993 JUMPI POP POP POP POP DUP3 MLOAD DUP5 DUP2 DUP1 MLOAD DUP2 ADD SUB SLT PUSH2 0x98F JUMPI DUP5 PUSH2 0x939 SWAP2 ADD PUSH2 0x240F JUMP JUMPDEST AND DUP5 MSTORE PUSH1 0x8 DUP4 MSTORE DUP4 KECCAK256 PUSH2 0x100 PUSH2 0xFF00 NOT DUP3 SLOAD AND OR SWAP1 SSTORE MLOAD SWAP1 DUP1 DUP3 DUP1 MLOAD DUP2 ADD SUB SLT PUSH2 0x235 JUMPI PUSH2 0x967 SWAP2 ADD PUSH2 0x240F JUMP JUMPDEST PUSH1 0x9 DUP1 SLOAD PUSH2 0x100 PUSH1 0x1 PUSH1 0xA8 SHL SUB NOT AND PUSH1 0x8 SWAP3 SWAP1 SWAP3 SHL PUSH2 0x100 PUSH1 0x1 PUSH1 0xA8 SHL SUB AND SWAP2 SWAP1 SWAP2 OR SWAP1 SSTORE DUP1 RETURN JUMPDEST DUP6 DUP1 REVERT JUMPDEST SWAP6 SWAP7 SWAP3 SWAP6 PUSH1 0x2 SUB PUSH2 0xA69 JUMPI POP MLOAD SWAP5 PUSH1 0x80 DUP7 DUP1 MLOAD DUP2 ADD SUB SLT PUSH2 0xA5D JUMPI PUSH2 0x9B9 DUP3 DUP8 ADD PUSH2 0x2423 JUMP JUMPDEST POP DUP4 DUP7 ADD MLOAD SWAP6 PUSH1 0x80 PUSH1 0x60 DUP3 ADD MLOAD SWAP2 ADD MLOAD SWAP7 DUP3 MLOAD DUP5 DUP2 DUP1 MLOAD DUP2 ADD SUB SLT PUSH2 0xA65 JUMPI PUSH2 0x9E4 DUP6 DUP8 SWAP3 ADD PUSH2 0x240F JUMP JUMPDEST AND DUP10 MSTORE PUSH1 0x8 DUP5 MSTORE TIMESTAMP PUSH1 0x1 DUP8 DUP12 KECCAK256 ADD SSTORE DUP3 MLOAD DUP5 DUP2 DUP1 MLOAD DUP2 ADD SUB SLT PUSH2 0xA65 JUMPI PUSH2 0xA0D DUP6 DUP8 SWAP3 ADD PUSH2 0x240F JUMP JUMPDEST AND DUP10 MSTORE PUSH1 0x2 DUP7 DUP11 KECCAK256 ADD SSTORE DUP2 MLOAD DUP4 DUP2 DUP1 MLOAD DUP2 ADD SUB SLT PUSH2 0xA61 JUMPI PUSH2 0xA31 DUP5 DUP7 SWAP3 ADD PUSH2 0x240F JUMP JUMPDEST AND DUP9 MSTORE PUSH1 0x3 DUP6 DUP10 KECCAK256 ADD SSTORE MLOAD SWAP1 DUP1 DUP3 DUP1 MLOAD DUP2 ADD SUB SLT PUSH2 0xA5D JUMPI PUSH2 0xA53 SWAP2 ADD PUSH2 0x240F JUMP JUMPDEST AND DUP5 MSTORE DUP4 KECCAK256 ADD SSTORE DUP1 RETURN JUMPDEST DUP7 DUP1 REVERT JUMPDEST DUP9 DUP1 REVERT JUMPDEST DUP10 DUP1 REVERT JUMPDEST DUP6 PUSH1 0x19 PUSH1 0x64 SWAP3 DUP6 DUP9 MLOAD SWAP4 PUSH3 0x461BCD PUSH1 0xE5 SHL DUP6 MSTORE DUP5 ADD MSTORE DUP3 ADD MSTORE PUSH32 0x696E76616C696420636F6D6D616E642066726F6D204E6F646500000000000000 PUSH1 0x44 DUP3 ADD MSTORE REVERT JUMPDEST DUP6 MLOAD PUSH3 0x461BCD PUSH1 0xE5 SHL DUP2 MSTORE SWAP2 DUP3 ADD DUP8 SWAP1 MSTORE PUSH1 0x26 SWAP1 DUP3 ADD MSTORE PUSH32 0x496E636F6D696E67204D657373616765206E6F742066726F6D20612076616C69 PUSH1 0x44 DUP3 ADD MSTORE PUSH6 0x64206E6F6465 PUSH1 0xD0 SHL PUSH1 0x64 DUP3 ADD MSTORE PUSH1 0x84 SWAP1 REVERT JUMPDEST DUP7 MLOAD PUSH4 0x6A9FF79F PUSH1 0xE1 SHL DUP2 MSTORE DUP1 DUP5 ADD SWAP2 SWAP1 SWAP2 MSTORE REVERT JUMPDEST DUP11 DUP3 CALLDATASIZE SUB SLT PUSH2 0xB4F JUMPI DUP11 MLOAD SWAP1 PUSH2 0xB25 DUP3 PUSH2 0x1EEB JUMP JUMPDEST DUP3 CALLDATALOAD SWAP1 DUP12 DUP3 AND DUP3 SUB PUSH2 0xB4A JUMPI DUP3 DUP15 SWAP3 DUP15 SWAP5 MSTORE DUP3 DUP6 ADD CALLDATALOAD DUP4 DUP3 ADD MSTORE DUP2 MSTORE ADD SWAP2 ADD SWAP1 PUSH2 0x843 JUMP JUMPDEST PUSH1 0x0 DUP1 REVERT JUMPDEST DUP13 DUP1 REVERT JUMPDEST DUP4 PUSH1 0x41 DUP7 PUSH4 0x4E487B71 PUSH1 0xE0 SHL PUSH1 0x0 MSTORE MSTORE PUSH1 0x0 REVERT JUMPDEST DUP11 DUP1 REVERT JUMPDEST DUP12 DUP1 REVERT JUMPDEST PUSH1 0x24 SWAP1 DUP6 MLOAD SWAP1 PUSH4 0x35FDCCCD PUSH1 0xE2 SHL DUP3 MSTORE CALLER SWAP1 DUP3 ADD MSTORE REVERT JUMPDEST POP SWAP1 CALLVALUE PUSH2 0x235 JUMPI DUP3 PUSH1 0x3 NOT CALLDATASIZE ADD SLT PUSH2 0x235 JUMPI PUSH1 0x1 SLOAD SWAP2 PUSH1 0x1 PUSH1 0x1 PUSH1 0xA0 SHL SUB SWAP2 DUP3 DUP5 AND CALLER SUB PUSH2 0xBF1 JUMPI POP POP DUP3 SLOAD PUSH1 0x1 PUSH1 0x1 PUSH1 0xA0 SHL SUB NOT DUP1 DUP3 AND CALLER SWAP1 DUP2 OR DUP7 SSTORE SWAP4 AND PUSH1 0x1 SSTORE AND PUSH32 0x8BE0079C531659141344CD1FD0A4F28419497F9722A3DAAFE3B4186F6B6457E0 DUP4 DUP1 LOG3 DUP1 RETURN JUMPDEST SWAP1 PUSH1 0x20 PUSH1 0x64 SWAP3 MLOAD SWAP2 PUSH3 0x461BCD PUSH1 0xE5 SHL DUP4 MSTORE DUP3 ADD MSTORE PUSH1 0x16 PUSH1 0x24 DUP3 ADD MSTORE PUSH22 0x26BAB9BA10313290383937B837B9B2B21037BBB732B9 PUSH1 0x51 SHL PUSH1 0x44 DUP3 ADD MSTORE REVERT JUMPDEST POP POP CALLVALUE PUSH2 0x287 JUMPI PUSH1 0x20 CALLDATASIZE PUSH1 0x3 NOT ADD SLT PUSH2 0x287 JUMPI PUSH1 0x20 SWAP2 DUP2 SWAP1 PUSH1 0x1 PUSH1 0x1 PUSH1 0xA0 SHL SUB PUSH2 0xC55 PUSH2 0x1E1D JUMP JUMPDEST AND DUP2 MSTORE PUSH1 0x2 DUP5 MSTORE KECCAK256 SLOAD SWAP1 MLOAD SWAP1 DUP2 MSTORE RETURN JUMPDEST DUP4 CALLVALUE PUSH2 0x42D JUMPI DUP1 PUSH1 0x3 NOT CALLDATASIZE ADD SLT PUSH2 0x42D JUMPI PUSH2 0xC7E PUSH2 0x2468 JUMP JUMPDEST PUSH1 0xFF NOT PUSH1 0x9 SLOAD AND PUSH1 0x9 SSTORE DUP1 RETURN JUMPDEST POP POP CALLVALUE PUSH2 0x287 JUMPI DUP2 PUSH1 0x3 NOT CALLDATASIZE ADD SLT PUSH2 0x287 JUMPI PUSH1 0x9 SLOAD SWAP1 MLOAD PUSH1 0x8 SWAP2 SWAP1 SWAP2 SHR PUSH1 0x1 PUSH1 0x1 PUSH1 0xA0 SHL SUB AND DUP2 MSTORE PUSH1 0x20 SWAP1 RETURN JUMPDEST POP POP CALLVALUE PUSH2 0x287 JUMPI DUP2 PUSH1 0x3 NOT CALLDATASIZE ADD SLT PUSH2 0x287 JUMPI PUSH1 0x20 SWAP1 PUSH1 0xFF PUSH1 0x9 SLOAD AND SWAP1 MLOAD SWAP1 ISZERO ISZERO DUP2 MSTORE RETURN JUMPDEST POP SWAP1 CALLVALUE PUSH2 0x235 JUMPI DUP1 PUSH1 0x3 NOT CALLDATASIZE ADD SLT PUSH2 0x235 JUMPI PUSH2 0xCF6 PUSH2 0x1E89 JUMP JUMPDEST PUSH2 0xCFE PUSH2 0x1E33 JUMP JUMPDEST DUP3 MLOAD SWAP2 PUSH1 0x20 SWAP5 PUSH1 0x1 DUP7 DUP6 ADD MSTORE PUSH1 0x1 PUSH1 0x1 PUSH1 0x40 SHL SUB DUP1 SWAP3 AND DUP6 DUP6 ADD MSTORE PUSH1 0x1 DUP1 PUSH1 0xA0 SHL SUB SWAP3 DUP4 PUSH1 0x60 SWAP2 AND DUP2 DUP7 ADD MSTORE DUP1 DUP6 MSTORE PUSH2 0xD36 DUP6 PUSH2 0x1F06 JUMP JUMPDEST DUP4 PUSH1 0x9 SLOAD PUSH1 0x8 SHR AND DUP9 MSTORE PUSH1 0x8 DUP8 MSTORE DUP6 DUP9 KECCAK256 PUSH2 0xFF00 NOT DUP2 SLOAD AND SWAP1 SSTORE DUP4 PUSH1 0x9 SLOAD PUSH1 0x8 SHR AND SWAP5 DUP6 DUP10 MSTORE PUSH1 0xFF DUP8 DUP11 KECCAK256 SLOAD SWAP5 DUP6 PUSH1 0x10 SHR AND SWAP5 AND ISZERO PUSH2 0x1155 JUMPI DUP5 PUSH1 0x7 SLOAD AND DUP3 DUP2 SWAP4 PUSH1 0x80 DUP11 MLOAD PUSH2 0xD84 DUP2 PUSH2 0x1E9F JUMP JUMPDEST DUP3 DUP2 MSTORE DUP3 DUP14 DUP3 ADD MSTORE DUP3 DUP13 DUP3 ADD MSTORE DUP14 DUP4 DUP3 ADD MSTORE ADD MSTORE DUP9 MLOAD SWAP8 DUP11 DUP10 ADD MSTORE DUP10 DUP9 MSTORE PUSH2 0xDAB DUP9 PUSH2 0x1EEB JUMP JUMPDEST DUP9 MLOAD PUSH2 0xDB6 DUP2 PUSH2 0x1ED0 JUMP JUMPDEST PUSH1 0x0 DUP2 MSTORE PUSH2 0xDD3 DUP11 MLOAD PUSH2 0xDC8 DUP2 PUSH2 0x1ED0 JUMP JUMPDEST PUSH3 0x1E8480 DUP2 MSTORE PUSH2 0x2431 JUMP JUMPDEST SWAP4 DUP11 MLOAD SWAP10 PUSH2 0xDE0 DUP12 PUSH2 0x1E9F JUMP JUMPDEST DUP11 MSTORE DUP12 DUP11 ADD MSTORE DUP10 DUP10 ADD MSTORE DUP8 ADD MSTORE PUSH1 0x80 DUP7 ADD MSTORE DUP6 MLOAD PUSH4 0xB0F479A1 PUSH1 0xE0 SHL DUP2 MSTORE DUP8 DUP2 DUP5 DUP2 ADDRESS GAS STATICCALL SWAP1 DUP2 ISZERO PUSH2 0x114B JUMPI SWAP1 DUP6 SWAP2 DUP11 SWAP2 PUSH2 0x1111 JUMPI JUMPDEST POP AND SWAP4 DUP9 DUP8 MLOAD SWAP3 PUSH4 0x20487DED PUSH1 0xE0 SHL DUP5 MSTORE DUP10 DUP5 DUP1 PUSH2 0xE37 DUP12 DUP11 DUP11 DUP5 ADD PUSH2 0x1FF2 JUMP JUMPDEST SUB DUP2 DUP11 GAS STATICCALL SWAP4 DUP5 ISZERO PUSH2 0x1107 JUMPI SWAP1 DUP11 SWAP2 DUP4 SWAP6 PUSH2 0x10D5 JUMPI JUMPDEST POP PUSH1 0x64 DUP11 MLOAD DUP1 SWAP5 DUP2 SWAP4 PUSH4 0x23B872DD PUSH1 0xE0 SHL DUP4 MSTORE CALLER DUP11 DUP5 ADD MSTORE ADDRESS PUSH1 0x24 DUP5 ADD MSTORE DUP9 PUSH1 0x44 DUP5 ADD MSTORE GAS CALL SWAP1 DUP2 ISZERO PUSH2 0x10CB JUMPI DUP11 SWAP2 PUSH2 0x10AE JUMPI JUMPDEST POP ISZERO PUSH2 0x106B JUMPI PUSH1 0x7 SLOAD AND SWAP1 DUP7 MLOAD PUSH4 0x70A08231 PUSH1 0xE0 SHL SWAP1 DUP2 DUP2 MSTORE ADDRESS DUP6 DUP3 ADD MSTORE DUP10 DUP2 PUSH1 0x24 DUP2 DUP8 GAS STATICCALL SWAP1 DUP2 ISZERO PUSH2 0x1061 JUMPI DUP12 SWAP2 PUSH2 0x1034 JUMPI JUMPDEST POP DUP3 GT PUSH2 0xFB8 JUMPI POP DUP7 MLOAD PUSH4 0x95EA7B3 PUSH1 0xE0 SHL DUP2 MSTORE PUSH1 0x1 PUSH1 0x1 PUSH1 0xA0 SHL SUB DUP7 AND DUP2 DUP6 ADD SWAP1 DUP2 MSTORE PUSH1 0x20 DUP2 ADD SWAP3 SWAP1 SWAP3 MSTORE DUP10 SWAP4 SWAP3 SWAP1 SWAP2 DUP10 SWAP2 DUP4 SWAP2 DUP3 SWAP1 DUP8 SWAP1 DUP3 SWAP1 PUSH1 0x40 ADD SUB SWAP3 GAS CALL DUP1 ISZERO PUSH2 0xFAE JUMPI SWAP2 DUP9 SWAP6 SWAP4 SWAP2 PUSH2 0xF29 SWAP9 SWAP8 SWAP6 SWAP4 PUSH2 0xF81 JUMPI JUMPDEST POP DUP7 MLOAD PUSH4 0x96F4E9F9 PUSH1 0xE0 SHL DUP2 MSTORE SWAP8 DUP9 SWAP6 DUP7 SWAP5 DUP6 SWAP4 DUP5 ADD PUSH2 0x1FF2 JUMP JUMPDEST SUB SWAP3 GAS CALL SWAP1 DUP2 ISZERO PUSH2 0xF78 JUMPI POP PUSH2 0xF4F JUMPI JUMPDEST PUSH1 0x9 DUP1 SLOAD PUSH2 0x100 PUSH1 0x1 PUSH1 0xA8 SHL SUB NOT AND SWAP1 SSTORE DUP3 DUP1 RETURN JUMPDEST DUP2 RETURNDATASIZE DUP4 GT PUSH2 0xF71 JUMPI JUMPDEST PUSH2 0xF62 DUP2 DUP4 PUSH2 0x1F21 JUMP JUMPDEST DUP2 ADD SUB SLT PUSH2 0x42D JUMPI CODESIZE DUP1 PUSH2 0xF3A JUMP JUMPDEST POP RETURNDATASIZE PUSH2 0xF58 JUMP JUMPDEST MLOAD RETURNDATASIZE DUP6 DUP3 RETURNDATACOPY RETURNDATASIZE SWAP1 REVERT JUMPDEST PUSH2 0xFA0 SWAP1 DUP8 RETURNDATASIZE DUP10 GT PUSH2 0xFA7 JUMPI JUMPDEST PUSH2 0xF98 DUP2 DUP4 PUSH2 0x1F21 JUMP JUMPDEST DUP2 ADD SWAP1 PUSH2 0x20BE JUMP JUMPDEST POP CODESIZE PUSH2 0xF0E JUMP JUMPDEST POP RETURNDATASIZE PUSH2 0xF8E JUMP JUMPDEST DUP8 MLOAD RETURNDATASIZE DUP6 DUP3 RETURNDATACOPY RETURNDATASIZE SWAP1 REVERT JUMPDEST SWAP1 DUP10 DUP9 DUP11 DUP1 DUP8 SWAP6 PUSH1 0x24 DUP5 MLOAD DUP1 SWAP10 DUP2 SWAP4 DUP3 MSTORE ADDRESS DUP11 DUP4 ADD MSTORE GAS STATICCALL SWAP3 DUP4 ISZERO PUSH2 0x1029 JUMPI SWAP3 PUSH2 0xFF8 JUMPI JUMPDEST POP MLOAD PUSH4 0x4787A103 PUSH1 0xE1 SHL DUP2 MSTORE SWAP3 DUP4 ADD MSTORE PUSH1 0x24 DUP3 ADD MSTORE PUSH1 0x44 SWAP2 POP REVERT JUMPDEST SWAP1 SWAP2 POP DUP5 DUP2 RETURNDATASIZE DUP4 GT PUSH2 0x1022 JUMPI JUMPDEST PUSH2 0x100F DUP2 DUP4 PUSH2 0x1F21 JUMP JUMPDEST DUP2 ADD SUB SLT PUSH2 0xB4A JUMPI PUSH1 0x44 SWAP4 MLOAD SWAP1 DUP6 PUSH2 0xFDD JUMP JUMPDEST POP RETURNDATASIZE PUSH2 0x1005 JUMP JUMPDEST DUP3 MLOAD SWAP1 RETURNDATASIZE SWAP1 DUP3 RETURNDATACOPY RETURNDATASIZE SWAP1 REVERT JUMPDEST SWAP1 POP DUP10 DUP2 DUP2 RETURNDATASIZE DUP4 GT PUSH2 0x105A JUMPI JUMPDEST PUSH2 0x104B DUP2 DUP4 PUSH2 0x1F21 JUMP JUMPDEST DUP2 ADD SUB SLT PUSH2 0xB4A JUMPI MLOAD CODESIZE PUSH2 0xEB5 JUMP JUMPDEST POP RETURNDATASIZE PUSH2 0x1041 JUMP JUMPDEST DUP10 MLOAD RETURNDATASIZE DUP14 DUP3 RETURNDATACOPY RETURNDATASIZE SWAP1 REVERT JUMPDEST DUP7 MLOAD PUSH3 0x461BCD PUSH1 0xE5 SHL DUP2 MSTORE DUP1 DUP5 ADD DUP10 SWAP1 MSTORE PUSH1 0x1A PUSH1 0x24 DUP3 ADD MSTORE PUSH32 0x4E6F742070726F7669646564204C696E6B20666F722066656573000000000000 PUSH1 0x44 DUP3 ADD MSTORE PUSH1 0x64 SWAP1 REVERT JUMPDEST PUSH2 0x10C5 SWAP2 POP DUP10 RETURNDATASIZE DUP12 GT PUSH2 0xFA7 JUMPI PUSH2 0xF98 DUP2 DUP4 PUSH2 0x1F21 JUMP JUMPDEST CODESIZE PUSH2 0xE81 JUMP JUMPDEST DUP9 MLOAD RETURNDATASIZE DUP13 DUP3 RETURNDATACOPY RETURNDATASIZE SWAP1 REVERT JUMPDEST SWAP3 POP SWAP4 POP DUP2 DUP2 RETURNDATASIZE DUP4 GT PUSH2 0x1100 JUMPI JUMPDEST PUSH2 0x10ED DUP2 DUP4 PUSH2 0x1F21 JUMP JUMPDEST DUP2 ADD SUB SLT PUSH2 0xB4A JUMPI DUP9 DUP11 SWAP2 MLOAD SWAP4 CODESIZE PUSH2 0xE4D JUMP JUMPDEST POP RETURNDATASIZE PUSH2 0x10E3 JUMP JUMPDEST DUP10 MLOAD RETURNDATASIZE DUP5 DUP3 RETURNDATACOPY RETURNDATASIZE SWAP1 REVERT JUMPDEST DUP1 SWAP3 POP DUP10 DUP1 SWAP3 POP RETURNDATASIZE DUP4 GT PUSH2 0x1144 JUMPI JUMPDEST PUSH2 0x112A DUP2 DUP4 PUSH2 0x1F21 JUMP JUMPDEST DUP2 ADD SUB SLT PUSH2 0xA61 JUMPI MLOAD DUP5 DUP2 AND DUP2 SUB PUSH2 0xA61 JUMPI DUP5 SWAP1 CODESIZE PUSH2 0xE16 JUMP JUMPDEST POP RETURNDATASIZE PUSH2 0x1120 JUMP JUMPDEST DUP8 MLOAD RETURNDATASIZE DUP12 DUP3 RETURNDATACOPY RETURNDATASIZE SWAP1 REVERT JUMPDEST DUP7 MLOAD PUSH4 0x6A9FF79F PUSH1 0xE1 SHL DUP2 MSTORE DUP1 DUP5 ADD DUP8 SWAP1 MSTORE PUSH1 0x24 SWAP1 REVERT JUMPDEST POP SWAP2 CALLVALUE PUSH2 0x42D JUMPI PUSH1 0xA0 CALLDATASIZE PUSH1 0x3 NOT ADD SLT PUSH2 0x42D JUMPI PUSH2 0x1187 PUSH2 0x1E89 JUMP JUMPDEST SWAP2 PUSH2 0x1190 PUSH2 0x1E33 JUMP JUMPDEST PUSH1 0x1 PUSH1 0x1 PUSH1 0xA0 SHL SUB SWAP4 PUSH1 0x44 CALLDATALOAD DUP6 DUP2 AND SWAP2 SWAP1 DUP3 SWAP1 SUB PUSH2 0xB4A JUMPI PUSH1 0x64 CALLDATALOAD SWAP1 DUP7 DUP3 AND DUP1 SWAP3 SUB PUSH2 0xB4A JUMPI PUSH1 0x84 CALLDATALOAD SWAP8 PUSH1 0x1 PUSH1 0x1 PUSH1 0x40 SHL SUB DUP10 GT PUSH2 0xA5D JUMPI PUSH2 0x11DB PUSH2 0x1257 SWAP7 SWAP8 SWAP9 SWAP10 CALLDATASIZE SWAP1 DUP4 ADD PUSH2 0x1F42 JUMP JUMPDEST DUP8 MLOAD SWAP5 PUSH1 0x20 SWAP11 DUP12 SWAP8 AND DUP8 DUP8 ADD MSTORE DUP7 DUP7 MSTORE PUSH2 0x11F4 DUP7 PUSH2 0x1EEB JUMP JUMPDEST DUP9 MLOAD PUSH2 0x11FF DUP2 PUSH2 0x1ED0 JUMP JUMPDEST PUSH1 0x0 DUP2 MSTORE PUSH2 0x121C DUP11 MLOAD PUSH2 0x1211 DUP2 PUSH2 0x1ED0 JUMP JUMPDEST PUSH3 0xF4240 DUP2 MSTORE PUSH2 0x2431 JUMP JUMPDEST SWAP3 DUP11 MLOAD SWAP8 PUSH2 0x1229 DUP10 PUSH2 0x1E9F JUMP JUMPDEST DUP9 MSTORE DUP9 DUP9 ADD MSTORE DUP10 DUP8 ADD MSTORE PUSH1 0x60 DUP7 ADD MSTORE PUSH1 0x80 DUP6 ADD MSTORE DUP7 MLOAD PUSH4 0x20487DED PUSH1 0xE0 SHL DUP2 MSTORE SWAP6 DUP7 SWAP5 DUP6 SWAP4 DUP5 SWAP4 DUP5 ADD PUSH2 0x1FF2 JUMP JUMPDEST SUB SWAP2 GAS STATICCALL SWAP3 DUP4 ISZERO PUSH2 0x1029 JUMPI SWAP3 PUSH2 0x126F JUMPI JUMPDEST POP MLOAD SWAP1 DUP2 MSTORE RETURN JUMPDEST SWAP1 SWAP2 POP DUP3 DUP2 DUP2 RETURNDATASIZE DUP4 GT PUSH2 0x1297 JUMPI JUMPDEST PUSH2 0x1287 DUP2 DUP4 PUSH2 0x1F21 JUMP JUMPDEST DUP2 ADD SUB SLT PUSH2 0xB4A JUMPI MLOAD SWAP1 CODESIZE PUSH2 0x1268 JUMP JUMPDEST POP RETURNDATASIZE PUSH2 0x127D JUMP JUMPDEST POP POP CALLVALUE PUSH2 0x287 JUMPI DUP1 PUSH1 0x3 NOT CALLDATASIZE ADD SLT PUSH2 0x287 JUMPI PUSH2 0x380 PUSH1 0x20 SWAP3 DUP3 PUSH2 0x12BF PUSH2 0x1E1D JUMP JUMPDEST SWAP2 CALLER DUP2 MSTORE PUSH1 0x3 DUP7 MSTORE KECCAK256 PUSH1 0x1 DUP1 PUSH1 0xA0 SHL SUB DUP3 AND PUSH1 0x0 MSTORE DUP5 MSTORE PUSH2 0x12E6 PUSH1 0x24 CALLDATALOAD DUP5 PUSH1 0x0 KECCAK256 SLOAD PUSH2 0x20D6 JUMP JUMPDEST SWAP1 CALLER PUSH2 0x230D JUMP JUMPDEST POP POP CALLVALUE PUSH2 0x287 JUMPI DUP2 PUSH1 0x3 NOT CALLDATASIZE ADD SLT PUSH2 0x287 JUMPI PUSH1 0x20 SWAP1 MLOAD PUSH1 0x12 DUP2 MSTORE RETURN JUMPDEST POP SWAP2 SWAP1 CALLVALUE PUSH2 0x287 JUMPI PUSH1 0x20 SWAP3 DUP4 PUSH1 0x3 NOT CALLDATASIZE ADD SLT PUSH2 0x235 JUMPI PUSH1 0x9 SLOAD PUSH1 0x8 SWAP1 DUP2 SHR PUSH1 0x1 PUSH1 0x1 PUSH1 0xA0 SHL SUB SWAP1 DUP2 AND DUP6 MSTORE DUP2 DUP7 MSTORE DUP4 DUP6 KECCAK256 SLOAD DUP4 CALLDATALOAD SWAP2 SWAP1 DUP4 SHR PUSH1 0xFF AND ISZERO PUSH2 0x18B1 JUMPI CALLER DUP7 MSTORE PUSH1 0x2 DUP8 MSTORE DUP5 DUP7 KECCAK256 SLOAD DUP3 GT PUSH2 0x1878 JUMPI DUP5 MLOAD SWAP3 DUP7 DUP9 DUP6 ADD MSTORE CALLER DUP7 DUP6 ADD MSTORE PUSH1 0x60 SWAP8 DUP4 DUP10 DUP7 ADD MSTORE DUP9 DUP6 MSTORE PUSH2 0x137B DUP6 PUSH2 0x1F06 JUMP JUMPDEST CALLER ISZERO PUSH2 0x182C JUMPI CALLER DUP9 MSTORE PUSH1 0x2 DUP2 MSTORE DUP7 DUP9 KECCAK256 SLOAD SWAP9 DUP5 DUP11 LT PUSH2 0x17DE JUMPI DUP5 DUP10 SWAP11 CALLER DUP12 MSTORE PUSH1 0x2 DUP5 MSTORE SUB DUP9 DUP11 KECCAK256 SSTORE DUP5 DUP8 SLOAD SUB DUP8 SSTORE DUP9 DUP9 MLOAD DUP7 DUP2 MSTORE PUSH32 0xDDF252AD1BE2C89B69C2B068FC378DAA952BA7F163C4A11628F55A4DF523B3EF DUP5 CALLER SWAP3 LOG3 DUP4 PUSH1 0x9 SLOAD DUP5 SHR AND SWAP1 DUP2 DUP11 MSTORE DUP4 DUP4 MSTORE DUP9 DUP11 KECCAK256 SLOAD SWAP1 PUSH1 0x1 PUSH1 0x1 PUSH1 0x40 SHL SUB SWAP8 DUP9 DUP4 PUSH1 0x10 SHR AND SWAP3 DUP10 PUSH32 0x0 AND DUP5 EQ PUSH1 0x0 EQ PUSH2 0x14A3 JUMPI POP POP POP POP POP POP PUSH1 0x9 SLOAD SWAP1 SHR AND SWAP1 DUP2 EXTCODESIZE ISZERO PUSH2 0x98F JUMPI DUP5 MLOAD PUSH4 0x15E005B7 PUSH1 0xE3 SHL DUP2 MSTORE CALLER DUP6 DUP3 ADD SWAP1 DUP2 MSTORE PUSH1 0x20 DUP2 ADD SWAP3 SWAP1 SWAP3 MSTORE SWAP6 SWAP2 DUP7 SWAP2 DUP3 SWAP1 DUP5 SWAP1 DUP3 SWAP1 PUSH1 0x40 ADD SUB SWAP3 GAS CALL DUP1 ISZERO PUSH2 0x1499 JUMPI PUSH2 0x1475 JUMPI JUMPDEST POP POP POP POP DUP1 RETURN JUMPDEST DUP4 GT PUSH2 0x1486 JUMPI POP MSTORE CODESIZE DUP1 DUP1 DUP1 PUSH2 0x146E JUMP JUMPDEST PUSH4 0x4E487B71 PUSH1 0xE0 SHL DUP5 MSTORE PUSH1 0x41 SWAP1 MSTORE PUSH1 0x24 DUP4 REVERT JUMPDEST DUP4 MLOAD RETURNDATASIZE DUP8 DUP3 RETURNDATACOPY RETURNDATASIZE SWAP1 REVERT JUMPDEST SWAP3 SWAP8 POP SWAP4 SWAP11 POP SWAP4 POP PUSH1 0xFF SWAP2 SWAP8 SWAP5 SWAP7 POP AND ISZERO PUSH2 0x1155 JUMPI DUP5 PUSH1 0x7 SLOAD AND DUP3 DUP2 SWAP4 PUSH1 0x80 DUP11 MLOAD PUSH2 0x14CD DUP2 PUSH2 0x1E9F JUMP JUMPDEST DUP3 DUP2 MSTORE DUP3 DUP14 DUP3 ADD MSTORE DUP3 DUP13 DUP3 ADD MSTORE DUP14 DUP4 DUP3 ADD MSTORE ADD MSTORE DUP9 MLOAD SWAP8 DUP11 DUP10 ADD MSTORE DUP10 DUP9 MSTORE PUSH2 0x14F4 DUP9 PUSH2 0x1EEB JUMP JUMPDEST DUP9 MLOAD PUSH2 0x14FF DUP2 PUSH2 0x1ED0 JUMP JUMPDEST DUP12 DUP2 MSTORE PUSH2 0x1510 DUP11 MLOAD PUSH2 0xDC8 DUP2 PUSH2 0x1ED0 JUMP JUMPDEST SWAP4 DUP11 MLOAD SWAP10 PUSH2 0x151D DUP12 PUSH2 0x1E9F JUMP JUMPDEST DUP11 MSTORE DUP12 DUP11 ADD MSTORE DUP10 DUP10 ADD MSTORE DUP8 ADD MSTORE PUSH1 0x80 DUP7 ADD MSTORE DUP6 MLOAD PUSH4 0xB0F479A1 PUSH1 0xE0 SHL DUP2 MSTORE DUP8 DUP2 DUP5 DUP2 ADDRESS GAS STATICCALL SWAP1 DUP2 ISZERO PUSH2 0x114B JUMPI SWAP1 DUP6 SWAP2 DUP11 SWAP2 PUSH2 0x17A4 JUMPI JUMPDEST POP AND SWAP4 DUP9 DUP8 MLOAD SWAP3 PUSH4 0x20487DED PUSH1 0xE0 SHL DUP5 MSTORE DUP10 DUP5 DUP1 PUSH2 0x1574 DUP12 DUP11 DUP11 DUP5 ADD PUSH2 0x1FF2 JUMP JUMPDEST SUB DUP2 DUP11 GAS STATICCALL SWAP4 DUP5 ISZERO PUSH2 0x1107 JUMPI SWAP1 DUP11 SWAP2 DUP4 SWAP6 PUSH2 0x1773 JUMPI JUMPDEST POP PUSH1 0x64 DUP11 MLOAD DUP1 SWAP5 DUP2 SWAP4 PUSH4 0x23B872DD PUSH1 0xE0 SHL DUP4 MSTORE CALLER DUP11 DUP5 ADD MSTORE ADDRESS PUSH1 0x24 DUP5 ADD MSTORE DUP9 PUSH1 0x44 DUP5 ADD MSTORE GAS CALL SWAP1 DUP2 ISZERO PUSH2 0x10CB JUMPI DUP11 SWAP2 PUSH2 0x1756 JUMPI JUMPDEST POP ISZERO PUSH2 0x106B JUMPI SWAP1 DUP9 SWAP3 SWAP2 PUSH1 0x7 SLOAD AND SWAP1 DUP8 MLOAD PUSH4 0x70A08231 PUSH1 0xE0 SHL SWAP1 DUP2 DUP2 MSTORE ADDRESS DUP6 DUP3 ADD MSTORE DUP11 DUP2 PUSH1 0x24 DUP2 DUP8 GAS STATICCALL SWAP1 DUP2 ISZERO PUSH2 0x174C JUMPI DUP7 SWAP2 PUSH2 0x171F JUMPI JUMPDEST POP DUP3 GT PUSH2 0x16A0 JUMPI POP DUP8 MLOAD PUSH4 0x95EA7B3 PUSH1 0xE0 SHL DUP2 MSTORE PUSH1 0x1 PUSH1 0x1 PUSH1 0xA0 SHL SUB DUP8 AND DUP5 DUP3 ADD SWAP1 DUP2 MSTORE PUSH1 0x20 DUP2 ADD SWAP3 SWAP1 SWAP3 MSTORE SWAP2 DUP10 SWAP2 DUP4 SWAP2 SWAP1 DUP3 SWAP1 DUP8 SWAP1 DUP3 SWAP1 PUSH1 0x40 ADD SUB SWAP3 GAS CALL DUP1 ISZERO PUSH2 0xFAE JUMPI SWAP2 DUP9 SWAP6 SWAP4 SWAP2 PUSH2 0x1666 SWAP9 SWAP8 SWAP6 SWAP4 PUSH2 0xF81 JUMPI POP DUP7 MLOAD PUSH4 0x96F4E9F9 PUSH1 0xE0 SHL DUP2 MSTORE SWAP8 DUP9 SWAP6 DUP7 SWAP5 DUP6 SWAP4 DUP5 ADD PUSH2 0x1FF2 JUMP JUMPDEST SUB SWAP3 GAS CALL SWAP1 DUP2 ISZERO PUSH2 0xF78 JUMPI POP PUSH2 0x167B JUMPI POP POP DUP1 RETURN JUMPDEST DUP2 RETURNDATASIZE DUP4 GT PUSH2 0x1699 JUMPI JUMPDEST PUSH2 0x168E DUP2 DUP4 PUSH2 0x1F21 JUMP JUMPDEST DUP2 ADD SUB SLT PUSH2 0x42D JUMPI DUP1 RETURN JUMPDEST POP RETURNDATASIZE PUSH2 0x1684 JUMP JUMPDEST DUP10 SWAP2 SWAP3 DUP3 DUP11 SWAP3 PUSH1 0x24 DUP5 MLOAD DUP1 SWAP5 DUP2 SWAP4 DUP3 MSTORE ADDRESS DUP11 DUP4 ADD MSTORE GAS STATICCALL SWAP3 DUP4 ISZERO PUSH2 0x1715 JUMPI DUP7 SWAP4 PUSH2 0x16E1 JUMPI JUMPDEST POP POP MLOAD PUSH4 0x4787A103 PUSH1 0xE1 SHL DUP2 MSTORE SWAP3 DUP4 ADD MSTORE PUSH1 0x24 DUP3 ADD MSTORE PUSH1 0x44 SWAP2 POP REVERT JUMPDEST SWAP1 DUP1 SWAP3 SWAP4 POP DUP2 RETURNDATASIZE DUP4 GT PUSH2 0x170E JUMPI JUMPDEST PUSH2 0x16F9 DUP2 DUP4 PUSH2 0x1F21 JUMP JUMPDEST DUP2 ADD SUB SLT PUSH2 0x90A JUMPI PUSH1 0x44 SWAP5 POP MLOAD SWAP1 DUP6 DUP1 PUSH2 0x16C5 JUMP JUMPDEST POP RETURNDATASIZE PUSH2 0x16EF JUMP JUMPDEST DUP3 MLOAD RETURNDATASIZE DUP9 DUP3 RETURNDATACOPY RETURNDATASIZE SWAP1 REVERT JUMPDEST SWAP1 POP DUP11 DUP2 DUP2 RETURNDATASIZE DUP4 GT PUSH2 0x1745 JUMPI JUMPDEST PUSH2 0x1736 DUP2 DUP4 PUSH2 0x1F21 JUMP JUMPDEST DUP2 ADD SUB SLT PUSH2 0x98F JUMPI MLOAD CODESIZE PUSH2 0x15F6 JUMP JUMPDEST POP RETURNDATASIZE PUSH2 0x172C JUMP JUMPDEST DUP11 MLOAD RETURNDATASIZE DUP9 DUP3 RETURNDATACOPY RETURNDATASIZE SWAP1 REVERT JUMPDEST PUSH2 0x176D SWAP2 POP DUP10 RETURNDATASIZE DUP12 GT PUSH2 0xFA7 JUMPI PUSH2 0xF98 DUP2 DUP4 PUSH2 0x1F21 JUMP JUMPDEST CODESIZE PUSH2 0x15BE JUMP JUMPDEST DUP3 DUP2 SWAP4 SWAP3 SWAP7 POP RETURNDATASIZE DUP4 GT PUSH2 0x179D JUMPI JUMPDEST PUSH2 0x178B DUP2 DUP4 PUSH2 0x1F21 JUMP JUMPDEST DUP2 ADD SUB SLT PUSH2 0x287 JUMPI DUP10 SWAP1 MLOAD SWAP4 CODESIZE PUSH2 0x158A JUMP JUMPDEST POP RETURNDATASIZE PUSH2 0x1781 JUMP JUMPDEST DUP1 SWAP3 POP DUP10 DUP1 SWAP3 POP RETURNDATASIZE DUP4 GT PUSH2 0x17D7 JUMPI JUMPDEST PUSH2 0x17BD DUP2 DUP4 PUSH2 0x1F21 JUMP JUMPDEST DUP2 ADD SUB SLT PUSH2 0xA61 JUMPI MLOAD DUP5 DUP2 AND DUP2 SUB PUSH2 0xA61 JUMPI DUP5 SWAP1 CODESIZE PUSH2 0x1553 JUMP JUMPDEST POP RETURNDATASIZE PUSH2 0x17B3 JUMP JUMPDEST DUP8 MLOAD PUSH3 0x461BCD PUSH1 0xE5 SHL DUP2 MSTORE DUP1 DUP9 ADD DUP4 SWAP1 MSTORE PUSH1 0x22 PUSH1 0x24 DUP3 ADD MSTORE PUSH32 0x45524332303A206275726E20616D6F756E7420657863656564732062616C616E PUSH1 0x44 DUP3 ADD MSTORE PUSH2 0x6365 PUSH1 0xF0 SHL PUSH1 0x64 DUP3 ADD MSTORE PUSH1 0x84 SWAP1 REVERT JUMPDEST DUP6 PUSH1 0x84 SWAP2 DUP9 MLOAD SWAP2 PUSH3 0x461BCD PUSH1 0xE5 SHL DUP4 MSTORE DUP3 ADD MSTORE PUSH1 0x21 PUSH1 0x24 DUP3 ADD MSTORE PUSH32 0x45524332303A206275726E2066726F6D20746865207A65726F20616464726573 PUSH1 0x44 DUP3 ADD MSTORE PUSH1 0x73 PUSH1 0xF8 SHL PUSH1 0x64 DUP3 ADD MSTORE REVERT JUMPDEST DUP5 MLOAD PUSH3 0x461BCD PUSH1 0xE5 SHL DUP2 MSTORE DUP1 DUP6 ADD DUP9 SWAP1 MSTORE PUSH1 0x13 PUSH1 0x24 DUP3 ADD MSTORE PUSH19 0x4E6F7420656E6F756768742062616C616E6365 PUSH1 0x68 SHL PUSH1 0x44 DUP3 ADD MSTORE PUSH1 0x64 SWAP1 REVERT JUMPDEST DUP5 MLOAD PUSH3 0x461BCD PUSH1 0xE5 SHL DUP2 MSTORE DUP1 DUP6 ADD DUP9 SWAP1 MSTORE PUSH1 0x12 PUSH1 0x24 DUP3 ADD MSTORE PUSH18 0x4E6F6465206973206E6F7420416374697665 PUSH1 0x70 SHL PUSH1 0x44 DUP3 ADD MSTORE PUSH1 0x64 SWAP1 REVERT JUMPDEST POP DUP3 SWAP1 CALLVALUE PUSH2 0x287 JUMPI PUSH1 0x60 CALLDATASIZE PUSH1 0x3 NOT ADD SLT PUSH2 0x287 JUMPI PUSH2 0x1905 PUSH2 0x1E1D JUMP JUMPDEST PUSH2 0x190D PUSH2 0x1E33 JUMP JUMPDEST PUSH1 0x1 PUSH1 0x1 PUSH1 0xA0 SHL SUB DUP3 AND DUP5 MSTORE PUSH1 0x3 PUSH1 0x20 SWAP1 DUP2 MSTORE DUP6 DUP6 KECCAK256 CALLER DUP7 MSTORE SWAP1 MSTORE SWAP3 DUP5 SWAP1 KECCAK256 SLOAD PUSH1 0x44 CALLDATALOAD SWAP4 SWAP3 PUSH1 0x1 DUP3 ADD PUSH2 0x1949 JUMPI JUMPDEST PUSH1 0x20 DUP7 PUSH2 0x380 DUP8 DUP8 DUP8 PUSH2 0x20F9 JUMP JUMPDEST DUP5 DUP3 LT PUSH2 0x1972 JUMPI POP SWAP2 DUP4 SWAP2 PUSH2 0x1967 PUSH1 0x20 SWAP7 SWAP6 PUSH2 0x380 SWAP6 SUB CALLER DUP4 PUSH2 0x230D JUMP JUMPDEST SWAP2 SWAP4 SWAP5 DUP2 SWAP4 POP PUSH2 0x193B JUMP JUMPDEST PUSH1 0x64 SWAP1 PUSH1 0x20 DUP8 MLOAD SWAP2 PUSH3 0x461BCD PUSH1 0xE5 SHL DUP4 MSTORE DUP3 ADD MSTORE PUSH1 0x1D PUSH1 0x24 DUP3 ADD MSTORE PUSH32 0x45524332303A20696E73756666696369656E7420616C6C6F77616E6365000000 PUSH1 0x44 DUP3 ADD MSTORE REVERT JUMPDEST POP SWAP2 CALLVALUE PUSH2 0x42D JUMPI DUP2 PUSH1 0x3 NOT CALLDATASIZE ADD SLT PUSH2 0x42D JUMPI PUSH2 0x19CF PUSH2 0x1E1D JUMP JUMPDEST SWAP3 PUSH2 0x19D8 PUSH2 0x1E33 JUMP JUMPDEST SWAP1 PUSH1 0x1 DUP1 PUSH1 0xA0 SHL SUB DUP1 SWAP6 AND SWAP3 DUP4 DUP2 MSTORE PUSH1 0x8 SWAP6 PUSH1 0x20 SWAP7 DUP1 DUP9 MSTORE DUP7 DUP4 KECCAK256 SWAP6 PUSH1 0x1 DUP1 PUSH1 0xFF DUP10 SLOAD DUP6 SHR AND ISZERO ISZERO EQ SWAP8 DUP9 PUSH2 0x1B12 JUMPI JUMPDEST POP DUP8 PUSH2 0x1AFE JUMPI JUMPDEST DUP8 PUSH2 0x1ADF JUMPI JUMPDEST DUP8 PUSH2 0x1AA8 JUMPI JUMPDEST DUP8 PUSH2 0x1A8E JUMPI JUMPDEST POP DUP7 PUSH2 0x1A75 JUMPI JUMPDEST DUP7 PUSH2 0x1A60 JUMPI JUMPDEST DUP7 PUSH2 0x1A3F JUMPI JUMPDEST DUP9 DUP8 DUP10 MLOAD SWAP1 ISZERO ISZERO DUP2 MSTORE RETURN JUMPDEST DUP4 MSTORE DUP8 MSTORE DUP6 DUP3 KECCAK256 DUP4 ADD SLOAD SWAP4 AND DUP2 MSTORE DUP5 SWAP1 KECCAK256 ADD SLOAD GT SWAP1 POP CODESIZE DUP1 DUP1 DUP1 DUP1 DUP1 PUSH2 0x1A34 JUMP JUMPDEST DUP1 DUP5 MSTORE DUP2 DUP10 MSTORE DUP8 DUP5 KECCAK256 DUP6 ADD SLOAD ISZERO ISZERO SWAP7 POP PUSH2 0x1A2E JUMP JUMPDEST DUP6 DUP4 AND DUP5 MSTORE DUP2 DUP10 MSTORE DUP8 DUP5 KECCAK256 SLOAD DUP3 SHR PUSH1 0xFF AND ISZERO SWAP7 POP PUSH2 0x1A28 JUMP JUMPDEST DUP7 DUP5 AND DUP6 MSTORE DUP3 DUP11 MSTORE DUP9 DUP6 KECCAK256 SLOAD PUSH1 0xFF AND ISZERO ISZERO EQ SWAP7 POP CODESIZE PUSH2 0x1A21 JUMP JUMPDEST SWAP7 POP DUP3 DUP7 AND DUP5 MSTORE DUP2 DUP10 MSTORE DUP7 DUP9 DUP6 KECCAK256 ADD SLOAD PUSH2 0xE10 DUP2 ADD DUP1 SWAP2 GT PUSH2 0x1ACC JUMPI TIMESTAMP LT SWAP7 PUSH2 0x1A1B JUMP JUMPDEST PUSH4 0x4E487B71 PUSH1 0xE0 SHL DUP6 MSTORE PUSH1 0x11 DUP7 MSTORE PUSH1 0x24 DUP6 REVERT JUMPDEST SWAP7 POP DUP1 DUP5 MSTORE DUP7 DUP9 DUP6 KECCAK256 ADD SLOAD PUSH2 0xE10 DUP2 ADD DUP1 SWAP2 GT PUSH2 0x1ACC JUMPI TIMESTAMP LT SWAP7 PUSH2 0x1A15 JUMP JUMPDEST DUP7 DUP5 AND DUP6 MSTORE DUP9 DUP6 KECCAK256 DUP2 ADD SLOAD ISZERO ISZERO SWAP8 POP PUSH2 0x1A0F JUMP JUMPDEST DUP2 ADD SLOAD ISZERO ISZERO SWAP8 POP CODESIZE PUSH2 0x1A08 JUMP JUMPDEST POP CALLVALUE PUSH2 0x235 JUMPI DUP3 PUSH1 0x3 NOT CALLDATASIZE ADD SLT PUSH2 0x235 JUMPI PUSH1 0x20 SWAP3 POP SLOAD SWAP1 MLOAD SWAP1 DUP2 MSTORE RETURN JUMPDEST POP POP CALLVALUE PUSH2 0x287 JUMPI DUP2 PUSH1 0x3 NOT CALLDATASIZE ADD SLT PUSH2 0x287 JUMPI PUSH1 0x1 PUSH1 0x1 PUSH1 0x40 SHL SUB DUP2 PUSH1 0x20 SWAP4 PUSH1 0x1 DUP1 PUSH1 0xA0 SHL SUB PUSH1 0x9 SLOAD PUSH1 0x8 SHR AND DUP2 MSTORE PUSH1 0x8 DUP6 MSTORE KECCAK256 SLOAD PUSH1 0x10 SHR AND SWAP1 MLOAD SWAP1 DUP2 MSTORE RETURN JUMPDEST POP SWAP1 CALLVALUE PUSH2 0x235 JUMPI PUSH1 0x60 CALLDATASIZE PUSH1 0x3 NOT ADD SLT PUSH2 0x235 JUMPI PUSH2 0x1B96 PUSH2 0x1E1D JUMP JUMPDEST SWAP2 PUSH1 0x24 CALLDATALOAD PUSH1 0x1 PUSH1 0x1 PUSH1 0x40 SHL SUB DUP2 AND DUP2 SUB PUSH2 0x90A JUMPI PUSH1 0x44 CALLDATALOAD SWAP3 DUP4 ISZERO ISZERO SWAP3 DUP4 DUP6 SUB PUSH2 0xA5D JUMPI PUSH2 0x1BC1 PUSH2 0x2468 JUMP JUMPDEST PUSH1 0xFF PUSH1 0x9 SLOAD AND ISZERO PUSH2 0x1C18 JUMPI POP SWAP1 PUSH1 0x1 SWAP2 DUP3 DUP1 PUSH1 0xA0 SHL SUB DUP7 AND DUP8 MSTORE PUSH1 0x8 PUSH1 0x20 MSTORE DUP7 KECCAK256 SWAP3 PUSH2 0xFF00 PUSH10 0xFFFFFFFFFFFFFFFF0000 DUP6 SLOAD SWAP4 PUSH1 0x10 SHL AND SWAP3 PUSH10 0xFFFFFFFFFFFFFFFFFFFF NOT AND SWAP2 PUSH1 0x8 SHL AND OR OR OR SWAP1 SSTORE PUSH2 0x967 JUMPI POP DUP1 RETURN JUMPDEST PUSH1 0x20 PUSH1 0x64 SWAP3 MLOAD SWAP2 PUSH3 0x461BCD PUSH1 0xE5 SHL DUP4 MSTORE DUP3 ADD MSTORE PUSH1 0x15 PUSH1 0x24 DUP3 ADD MSTORE PUSH21 0x139BC81B5BDC99481B9BD9195CC8185B1B1BDDD959 PUSH1 0x5A SHL PUSH1 0x44 DUP3 ADD MSTORE REVERT JUMPDEST POP POP CALLVALUE PUSH2 0x287 JUMPI DUP1 PUSH1 0x3 NOT CALLDATASIZE ADD SLT PUSH2 0x287 JUMPI PUSH1 0x20 SWAP1 PUSH2 0x380 PUSH2 0x1C72 PUSH2 0x1E1D JUMP JUMPDEST PUSH1 0x24 CALLDATALOAD SWAP1 CALLER PUSH2 0x230D JUMP JUMPDEST POP SWAP2 CALLVALUE PUSH2 0x42D JUMPI DUP1 PUSH1 0x3 NOT CALLDATASIZE ADD SLT PUSH2 0x42D JUMPI DUP2 MLOAD SWAP2 DUP2 PUSH1 0x5 SLOAD SWAP3 PUSH1 0x1 DUP5 DUP2 SHR SWAP2 DUP2 DUP7 AND SWAP6 DUP7 ISZERO PUSH2 0x1D3F JUMPI JUMPDEST PUSH1 0x20 SWAP7 DUP8 DUP6 LT DUP2 EQ PUSH2 0x698 JUMPI DUP9 SWAP10 POP SWAP7 DUP9 SWAP7 SWAP8 DUP6 DUP3 SWAP11 MSTORE SWAP2 DUP3 PUSH1 0x0 EQ PUSH2 0x671 JUMPI POP POP PUSH1 0x1 EQ PUSH2 0x1CE3 JUMPI POP POP POP PUSH2 0x611 SWAP3 SWAP2 PUSH2 0x602 SWAP2 SUB DUP6 PUSH2 0x1F21 JUMP JUMPDEST SWAP2 SWAP1 DUP7 SWAP4 POP PUSH1 0x5 DUP4 MSTORE PUSH32 0x36B6384B5ECA791C62761152D0C79BB0604C104A5FB6F4EB0703F3154BB3DB0 JUMPDEST DUP3 DUP5 LT PUSH2 0x1D27 JUMPI POP POP POP DUP3 ADD ADD DUP2 PUSH2 0x602 PUSH2 0x611 PUSH2 0x5EF JUMP JUMPDEST DUP1 SLOAD DUP5 DUP11 ADD DUP7 ADD MSTORE DUP9 SWAP6 POP DUP8 SWAP5 SWAP1 SWAP4 ADD SWAP3 DUP2 ADD PUSH2 0x1D0E JUMP JUMPDEST SWAP3 PUSH1 0x7F AND SWAP3 PUSH2 0x1CA7 JUMP JUMPDEST POP CALLVALUE PUSH2 0x235 JUMPI DUP2 PUSH1 0x3 NOT CALLDATASIZE ADD SLT PUSH2 0x235 JUMPI PUSH2 0x1D62 PUSH2 0x1E1D JUMP JUMPDEST SWAP2 CALLER DUP5 MSTORE PUSH1 0x8 PUSH1 0x20 MSTORE PUSH2 0x1DA8 PUSH1 0x1 PUSH1 0x1 PUSH1 0x40 SHL SUB DUP1 DUP4 DUP8 KECCAK256 SLOAD PUSH1 0x10 SHR AND SWAP1 PUSH32 0x0 AND EQ PUSH2 0x1F98 JUMP JUMPDEST CALLER DUP5 MSTORE PUSH1 0x8 PUSH1 0x20 MSTORE PUSH1 0xFF DUP2 DUP6 KECCAK256 SLOAD AND ISZERO PUSH2 0x583 JUMPI DUP4 PUSH2 0x907 PUSH1 0x24 CALLDATALOAD DUP6 PUSH2 0x2269 JUMP JUMPDEST SWAP3 POP POP CALLVALUE PUSH2 0x235 JUMPI PUSH1 0x20 CALLDATASIZE PUSH1 0x3 NOT ADD SLT PUSH2 0x235 JUMPI CALLDATALOAD PUSH4 0xFFFFFFFF PUSH1 0xE0 SHL DUP2 AND DUP1 SWAP2 SUB PUSH2 0x235 JUMPI PUSH1 0x20 SWAP3 POP PUSH4 0x85572FFB PUSH1 0xE0 SHL DUP2 EQ SWAP1 DUP2 ISZERO PUSH2 0x1E0C JUMPI JUMPDEST POP ISZERO ISZERO DUP2 MSTORE RETURN JUMPDEST PUSH4 0x1FFC9A7 PUSH1 0xE0 SHL EQ SWAP1 POP CODESIZE PUSH2 0x1E05 JUMP JUMPDEST PUSH1 0x4 CALLDATALOAD SWAP1 PUSH1 0x1 PUSH1 0x1 PUSH1 0xA0 SHL SUB DUP3 AND DUP3 SUB PUSH2 0xB4A JUMPI JUMP JUMPDEST PUSH1 0x24 CALLDATALOAD SWAP1 PUSH1 0x1 PUSH1 0x1 PUSH1 0xA0 SHL SUB DUP3 AND DUP3 SUB PUSH2 0xB4A JUMPI JUMP JUMPDEST SWAP2 SWAP1 DUP3 MLOAD SWAP3 DUP4 DUP3 MSTORE PUSH1 0x0 JUMPDEST DUP5 DUP2 LT PUSH2 0x1E75 JUMPI POP POP DUP3 PUSH1 0x0 PUSH1 0x20 DUP1 SWAP5 SWAP6 DUP5 ADD ADD MSTORE PUSH1 0x1F DUP1 NOT SWAP2 ADD AND ADD ADD SWAP1 JUMP JUMPDEST PUSH1 0x20 DUP2 DUP4 ADD DUP2 ADD MLOAD DUP5 DUP4 ADD DUP3 ADD MSTORE ADD PUSH2 0x1E54 JUMP JUMPDEST PUSH1 0x4 CALLDATALOAD SWAP1 PUSH1 0x1 PUSH1 0x1 PUSH1 0x40 SHL SUB DUP3 AND DUP3 SUB PUSH2 0xB4A JUMPI JUMP JUMPDEST PUSH1 0xA0 DUP2 ADD SWAP1 DUP2 LT PUSH1 0x1 PUSH1 0x1 PUSH1 0x40 SHL SUB DUP3 GT OR PUSH2 0x1EBA JUMPI PUSH1 0x40 MSTORE JUMP JUMPDEST PUSH4 0x4E487B71 PUSH1 0xE0 SHL PUSH1 0x0 MSTORE PUSH1 0x41 PUSH1 0x4 MSTORE PUSH1 0x24 PUSH1 0x0 REVERT JUMPDEST PUSH1 0x20 DUP2 ADD SWAP1 DUP2 LT PUSH1 0x1 PUSH1 0x1 PUSH1 0x40 SHL SUB DUP3 GT OR PUSH2 0x1EBA JUMPI PUSH1 0x40 MSTORE JUMP JUMPDEST PUSH1 0x40 DUP2 ADD SWAP1 DUP2 LT PUSH1 0x1 PUSH1 0x1 PUSH1 0x40 SHL SUB DUP3 GT OR PUSH2 0x1EBA JUMPI PUSH1 0x40 MSTORE JUMP JUMPDEST PUSH1 0x80 DUP2 ADD SWAP1 DUP2 LT PUSH1 0x1 PUSH1 0x1 PUSH1 0x40 SHL SUB DUP3 GT OR PUSH2 0x1EBA JUMPI PUSH1 0x40 MSTORE JUMP JUMPDEST SWAP1 PUSH1 0x1F DUP1 NOT SWAP2 ADD AND DUP2 ADD SWAP1 DUP2 LT PUSH1 0x1 PUSH1 0x1 PUSH1 0x40 SHL SUB DUP3 GT OR PUSH2 0x1EBA JUMPI PUSH1 0x40 MSTORE JUMP JUMPDEST DUP2 PUSH1 0x1F DUP3 ADD SLT ISZERO PUSH2 0xB4A JUMPI DUP1 CALLDATALOAD SWAP1 PUSH1 0x1 PUSH1 0x1 PUSH1 0x40 SHL SUB DUP3 GT PUSH2 0x1EBA JUMPI PUSH1 0x40 MLOAD SWAP3 PUSH2 0x1F76 PUSH1 0x1F DUP5 ADD PUSH1 0x1F NOT AND PUSH1 0x20 ADD DUP6 PUSH2 0x1F21 JUMP JUMPDEST DUP3 DUP5 MSTORE PUSH1 0x20 DUP4 DUP4 ADD ADD GT PUSH2 0xB4A JUMPI DUP2 PUSH1 0x0 SWAP3 PUSH1 0x20 DUP1 SWAP4 ADD DUP4 DUP7 ADD CALLDATACOPY DUP4 ADD ADD MSTORE SWAP1 JUMP JUMPDEST ISZERO PUSH2 0x1F9F JUMPI JUMP JUMPDEST PUSH1 0x40 MLOAD PUSH3 0x461BCD PUSH1 0xE5 SHL DUP2 MSTORE PUSH1 0x20 PUSH1 0x4 DUP3 ADD MSTORE PUSH1 0x25 PUSH1 0x24 DUP3 ADD MSTORE PUSH32 0x52657175697265206D617374657220616E64206E6F646520696E2073616D6520 PUSH1 0x44 DUP3 ADD MSTORE PUSH5 0x31B430B4B7 PUSH1 0xD9 SHL PUSH1 0x64 DUP3 ADD MSTORE PUSH1 0x84 SWAP1 REVERT JUMPDEST SWAP1 PUSH1 0x1 PUSH1 0x1 PUSH1 0x40 SHL SUB SWAP1 SWAP4 SWAP3 SWAP4 AND DUP2 MSTORE PUSH1 0x40 PUSH1 0x20 SWAP2 DUP2 DUP4 DUP3 ADD MSTORE PUSH2 0x2021 DUP6 MLOAD PUSH1 0xA0 DUP5 DUP5 ADD MSTORE PUSH1 0xE0 DUP4 ADD SWAP1 PUSH2 0x1E49 JUMP JUMPDEST SWAP2 PUSH2 0x203D DUP5 DUP8 ADD MLOAD SWAP4 PUSH1 0x3F NOT SWAP5 DUP6 DUP6 DUP4 SUB ADD PUSH1 0x60 DUP7 ADD MSTORE PUSH2 0x1E49 JUMP JUMPDEST DUP2 DUP8 ADD MLOAD SWAP5 DUP5 DUP5 DUP4 SUB ADD PUSH1 0x80 DUP6 ADD MSTORE DUP1 DUP1 DUP8 MLOAD SWAP4 DUP5 DUP2 MSTORE ADD SWAP7 ADD SWAP3 PUSH1 0x0 SWAP1 JUMPDEST DUP4 DUP3 LT PUSH2 0x2095 JUMPI POP POP POP POP POP PUSH1 0xC0 PUSH1 0x80 PUSH2 0x2092 SWAP6 SWAP7 PUSH1 0x1 DUP1 PUSH1 0xA0 SHL SUB PUSH1 0x60 DUP3 ADD MLOAD AND PUSH1 0xA0 DUP6 ADD MSTORE ADD MLOAD SWAP3 DUP3 DUP6 SUB ADD SWAP2 ADD MSTORE PUSH2 0x1E49 JUMP JUMPDEST SWAP1 JUMP JUMPDEST DUP5 MLOAD DUP1 MLOAD PUSH1 0x1 PUSH1 0x1 PUSH1 0xA0 SHL SUB AND DUP10 MSTORE DUP4 ADD MLOAD DUP9 DUP5 ADD MSTORE SWAP7 DUP8 ADD SWAP7 SWAP4 DUP3 ADD SWAP4 PUSH1 0x1 SWAP1 SWAP2 ADD SWAP1 PUSH2 0x205C JUMP JUMPDEST SWAP1 DUP2 PUSH1 0x20 SWAP2 SUB SLT PUSH2 0xB4A JUMPI MLOAD DUP1 ISZERO ISZERO DUP2 SUB PUSH2 0xB4A JUMPI SWAP1 JUMP JUMPDEST SWAP2 SWAP1 DUP3 ADD DUP1 SWAP3 GT PUSH2 0x20E3 JUMPI JUMP JUMPDEST PUSH4 0x4E487B71 PUSH1 0xE0 SHL PUSH1 0x0 MSTORE PUSH1 0x11 PUSH1 0x4 MSTORE PUSH1 0x24 PUSH1 0x0 REVERT JUMPDEST PUSH1 0x1 PUSH1 0x1 PUSH1 0xA0 SHL SUB SWAP1 DUP2 AND SWAP2 DUP3 ISZERO PUSH2 0x2216 JUMPI AND SWAP2 DUP3 ISZERO PUSH2 0x21C5 JUMPI PUSH1 0x0 DUP3 DUP2 MSTORE PUSH1 0x2 PUSH1 0x20 MSTORE PUSH1 0x40 DUP2 KECCAK256 SLOAD SWAP2 DUP1 DUP4 LT PUSH2 0x2171 JUMPI PUSH1 0x40 DUP3 DUP3 PUSH32 0xDDF252AD1BE2C89B69C2B068FC378DAA952BA7F163C4A11628F55A4DF523B3EF SWAP6 DUP8 PUSH1 0x20 SWAP7 MSTORE PUSH1 0x2 DUP7 MSTORE SUB DUP3 DUP3 KECCAK256 SSTORE DUP7 DUP2 MSTORE KECCAK256 DUP2 DUP2 SLOAD ADD SWAP1 SSTORE PUSH1 0x40 MLOAD SWAP1 DUP2 MSTORE LOG3 JUMP JUMPDEST PUSH1 0x40 MLOAD PUSH3 0x461BCD PUSH1 0xE5 SHL DUP2 MSTORE PUSH1 0x20 PUSH1 0x4 DUP3 ADD MSTORE PUSH1 0x26 PUSH1 0x24 DUP3 ADD MSTORE PUSH32 0x45524332303A207472616E7366657220616D6F756E7420657863656564732062 PUSH1 0x44 DUP3 ADD MSTORE PUSH6 0x616C616E6365 PUSH1 0xD0 SHL PUSH1 0x64 DUP3 ADD MSTORE PUSH1 0x84 SWAP1 REVERT JUMPDEST PUSH1 0x40 MLOAD PUSH3 0x461BCD PUSH1 0xE5 SHL DUP2 MSTORE PUSH1 0x20 PUSH1 0x4 DUP3 ADD MSTORE PUSH1 0x23 PUSH1 0x24 DUP3 ADD MSTORE PUSH32 0x45524332303A207472616E7366657220746F20746865207A65726F2061646472 PUSH1 0x44 DUP3 ADD MSTORE PUSH3 0x657373 PUSH1 0xE8 SHL PUSH1 0x64 DUP3 ADD MSTORE PUSH1 0x84 SWAP1 REVERT JUMPDEST PUSH1 0x40 MLOAD PUSH3 0x461BCD PUSH1 0xE5 SHL DUP2 MSTORE PUSH1 0x20 PUSH1 0x4 DUP3 ADD MSTORE PUSH1 0x25 PUSH1 0x24 DUP3 ADD MSTORE PUSH32 0x45524332303A207472616E736665722066726F6D20746865207A65726F206164 PUSH1 0x44 DUP3 ADD MSTORE PUSH5 0x6472657373 PUSH1 0xD8 SHL PUSH1 0x64 DUP3 ADD MSTORE PUSH1 0x84 SWAP1 REVERT JUMPDEST PUSH1 0x1 PUSH1 0x1 PUSH1 0xA0 SHL SUB AND SWAP1 DUP2 ISZERO PUSH2 0x22C8 JUMPI PUSH32 0xDDF252AD1BE2C89B69C2B068FC378DAA952BA7F163C4A11628F55A4DF523B3EF PUSH1 0x20 DUP3 PUSH2 0x22AB PUSH1 0x0 SWAP5 PUSH1 0x4 SLOAD PUSH2 0x20D6 JUMP JUMPDEST PUSH1 0x4 SSTORE DUP5 DUP5 MSTORE PUSH1 0x2 DUP3 MSTORE PUSH1 0x40 DUP5 KECCAK256 DUP2 DUP2 SLOAD ADD SWAP1 SSTORE PUSH1 0x40 MLOAD SWAP1 DUP2 MSTORE LOG3 JUMP JUMPDEST PUSH1 0x40 MLOAD PUSH3 0x461BCD PUSH1 0xE5 SHL DUP2 MSTORE PUSH1 0x20 PUSH1 0x4 DUP3 ADD MSTORE PUSH1 0x1F PUSH1 0x24 DUP3 ADD MSTORE PUSH32 0x45524332303A206D696E7420746F20746865207A65726F206164647265737300 PUSH1 0x44 DUP3 ADD MSTORE PUSH1 0x64 SWAP1 REVERT JUMPDEST PUSH1 0x1 PUSH1 0x1 PUSH1 0xA0 SHL SUB SWAP1 DUP2 AND SWAP2 DUP3 ISZERO PUSH2 0x23BE JUMPI AND SWAP2 DUP3 ISZERO PUSH2 0x236E JUMPI PUSH1 0x20 PUSH32 0x8C5BE1E5EBEC7D5BD14F71427D1E84F3DD0314C0F7B2291E5B200AC8C7C3B925 SWAP2 DUP4 PUSH1 0x0 MSTORE PUSH1 0x3 DUP3 MSTORE PUSH1 0x40 PUSH1 0x0 KECCAK256 DUP6 PUSH1 0x0 MSTORE DUP3 MSTORE DUP1 PUSH1 0x40 PUSH1 0x0 KECCAK256 SSTORE PUSH1 0x40 MLOAD SWAP1 DUP2 MSTORE LOG3 JUMP JUMPDEST PUSH1 0x40 MLOAD PUSH3 0x461BCD PUSH1 0xE5 SHL DUP2 MSTORE PUSH1 0x20 PUSH1 0x4 DUP3 ADD MSTORE PUSH1 0x22 PUSH1 0x24 DUP3 ADD MSTORE PUSH32 0x45524332303A20617070726F766520746F20746865207A65726F206164647265 PUSH1 0x44 DUP3 ADD MSTORE PUSH2 0x7373 PUSH1 0xF0 SHL PUSH1 0x64 DUP3 ADD MSTORE PUSH1 0x84 SWAP1 REVERT JUMPDEST PUSH1 0x40 MLOAD PUSH3 0x461BCD PUSH1 0xE5 SHL DUP2 MSTORE PUSH1 0x20 PUSH1 0x4 DUP3 ADD MSTORE PUSH1 0x24 DUP1 DUP3 ADD MSTORE PUSH32 0x45524332303A20617070726F76652066726F6D20746865207A65726F20616464 PUSH1 0x44 DUP3 ADD MSTORE PUSH4 0x72657373 PUSH1 0xE0 SHL PUSH1 0x64 DUP3 ADD MSTORE PUSH1 0x84 SWAP1 REVERT JUMPDEST MLOAD SWAP1 PUSH1 0x1 PUSH1 0x1 PUSH1 0xA0 SHL SUB DUP3 AND DUP3 SUB PUSH2 0xB4A JUMPI JUMP JUMPDEST MLOAD SWAP1 PUSH1 0xFF DUP3 AND DUP3 SUB PUSH2 0xB4A JUMPI JUMP JUMPDEST PUSH1 0x40 MLOAD SWAP1 PUSH4 0x97A657C9 PUSH1 0xE0 SHL PUSH1 0x20 DUP4 ADD MSTORE MLOAD PUSH1 0x24 DUP3 ADD MSTORE PUSH1 0x24 DUP2 MSTORE PUSH1 0x60 DUP2 ADD DUP2 DUP2 LT PUSH1 0x1 PUSH1 0x1 PUSH1 0x40 SHL SUB DUP3 GT OR PUSH2 0x1EBA JUMPI PUSH1 0x40 MSTORE SWAP1 JUMP JUMPDEST PUSH1 0x0 SLOAD PUSH1 0x1 PUSH1 0x1 PUSH1 0xA0 SHL SUB AND CALLER SUB PUSH2 0x247C JUMPI JUMP JUMPDEST PUSH1 0x40 MLOAD PUSH3 0x461BCD PUSH1 0xE5 SHL DUP2 MSTORE PUSH1 0x20 PUSH1 0x4 DUP3 ADD MSTORE PUSH1 0x16 PUSH1 0x24 DUP3 ADD MSTORE PUSH22 0x27B7363C9031B0B63630B1363290313C9037BBB732B9 PUSH1 0x51 SHL PUSH1 0x44 DUP3 ADD MSTORE PUSH1 0x64 SWAP1 REVERT INVALID LOG2 PUSH5 0x6970667358 0x22 SLT KECCAK256 0x4E 0xB7 PC 0xCF PUSH27 0x5AC0A85377638C5FB11269FD7FA54ACBCDFC6789543B04812321C9 PUSH5 0x736F6C6343 STOP ADDMOD SGT STOP CALLER ",
  "sha1": "98456df693ed6a0f751767f3d751e39f13be2dd5",
  "source": "// SPDX-License-Identifier: MIT\npragma solidity 0.8.19;\n\nimport {IRouterClient} from \"@chainlink/contracts/src/v0.8/ccip/interfaces/IRouterClient.sol\";\nimport {OwnerIsCreator} from \"@chainlink/contracts/src/v0.8/shared/access/OwnerIsCreator.sol\";\nimport {Client} from \"@chainlink/contracts/src/v0.8/ccip/libraries/Client.sol\";\nimport {CCIPReceiver} from \"@chainlink/contracts/src/v0.8/ccip/applications/CCIPReceiver.sol\";\n\nimport {LinkTokenInterface} from \"@chainlink/contracts/src/v0.8/shared/interfaces/LinkTokenInterface.sol\";\n\nimport \"@openzeppelin/contracts/token/ERC20/ERC20.sol\";\nimport \"./utils_node/UtilsMasterNode.sol\";\n\n// Node interface\nimport \"../interfaces/INode.sol\";\n\n/// @title - A simple messenger contract for transferring/receiving tokens and data across chains.\ncontract MasterNode is CCIPReceiver, OwnerIsCreator, ERC20, UtilsMasterNode {\n    // Custom errors to provide more descriptive revert messages.\n    error NotEnoughBalance(uint256 currentBalance, uint256 calculatedFees); // Used to make sure contract has enough balance to cover the fees.\n    error NothingToWithdraw(); // Used when trying to withdraw Ether but there's nothing to withdraw.\n    error FailedToWithdrawEth(address owner, address target, uint256 value); // Used when the withdrawal of Ether fails.\n    error DestinationNodeNotValid(address nodeAddress); // Used when the destination address has not been allowlisted by the contract owner.\n    error SourceChainNotAllowed(uint64 sourceChainSelector); // Used when the source chain has not been allowlisted by the contract owner.\n    error SenderNotAllowed(address sender); // Used when the sender has not been allowlisted by the contract owner.\n    error InvalidReceiverAddress(); // Used when the receiver address is 0.\n\n    LinkTokenInterface private s_linkToken;\n\n    uint64 public immutable MASTER_CONTRACT_CHAIN_ID;\n\n    struct ValidNodes {\n        bool isValidNode;\n        bool isActiveNode;\n        uint64 chainCCIPid;\n        uint256 lastDataFromAave;\n        uint256 totalUsdcSupply;\n        uint256 totalUsdcBorrow;\n        uint256 supplyRate;\n    }\n\n    mapping(address => ValidNodes) public validNodes;\n\n    bool public allowMoreNodes = true;\n    address public activeNode;\n\n    /// @notice Constructor initializes the contract with the router address.\n    /// @param _router The address of the router contract.\n    /// @param _link The address of the link contract.\n    constructor(\n        address _router,\n        address _link,\n        uint64 _MASTER_CONTRACT_CHAIN_ID\n    ) CCIPReceiver(_router) ERC20(\"WarpYield\", \"aWRP\") {\n        s_linkToken = LinkTokenInterface(_link);\n        MASTER_CONTRACT_CHAIN_ID = _MASTER_CONTRACT_CHAIN_ID;\n    }\n\n    modifier onlyValidNodes(address nodeAddress) {\n        if (!validNodes[nodeAddress].isValidNode) {\n            revert DestinationNodeNotValid(nodeAddress);\n        }\n        _;\n    }\n\n    modifier masterAndNodeInSameChain() {\n        require(\n            validNodes[msg.sender].chainCCIPid == MASTER_CONTRACT_CHAIN_ID,\n            \"Require master and node in same chain\"\n        );\n        _;\n    }\n\n    function stopAddingNodes() external onlyOwner {\n        allowMoreNodes = false;\n    }\n\n    function addValidNode(\n        address nodeAddress,\n        uint64 chainCCIPid,\n        bool isActiveNode\n    ) external onlyOwner {\n        require(allowMoreNodes, \"No more nodes allowed\");\n        validNodes[nodeAddress].isValidNode = true;\n        validNodes[nodeAddress].isActiveNode = isActiveNode;\n        validNodes[nodeAddress].chainCCIPid = chainCCIPid;\n\n        if (isActiveNode) {\n            activeNode = nodeAddress;\n        }\n    }\n\n    /////////////////////////////////////////////////////////////////////////\n    ////////////////////  INCOMING DEPOSIT => MINT aWRP  ///////////////////\n    ////////////////////////  COMMAND == 0  ///////////////////////////////\n    //////////////////////////////////////////////////////////////////////\n\n    function _aWarpTokenMinter(\n        Client.Any2EVMMessage memory _any2EvmMessage\n    ) internal {\n        (, address userAddress, uint256 shares) = abi.decode(\n            _any2EvmMessage.data,\n            (uint8, address, uint256)\n        );\n\n        _mint(userAddress, shares);\n    }\n\n    ///////////////////  DEPOSIT, MASTER AND NODE IN SAME CHAIN  /////////////////\n\n    function aWarpTokenMinterFromSameChain(\n        address userAddress,\n        uint256 shares\n    ) external masterAndNodeInSameChain onlyValidNodes(msg.sender) {\n        _mint(userAddress, shares);\n    }\n\n    /////////////////////////////////////////////////////////////////////////\n    //////////////////////  RESUME PROTOCOL OPERATIONS  ////////////////////\n    ////////////////////////  COMMAND == 1  ///////////////////////////////\n    //////////////////////////////////////////////////////////////////////\n\n    function _resmumeOperations(\n        Client.Any2EVMMessage memory _any2EvmMessage\n    ) internal {\n        validNodes[abi.decode(_any2EvmMessage.sender, (address))]\n            .isActiveNode = true;\n        activeNode = abi.decode(_any2EvmMessage.sender, (address));\n    }\n\n    ///////////  RESUME OPERATIONS, MASTER AND NODE IN SAME CHAIN  //////////\n\n    function _resmumeOperationsFromSameChain()\n        external\n        masterAndNodeInSameChain\n        onlyValidNodes(msg.sender)\n    {\n        validNodes[msg.sender].isActiveNode = true;\n        activeNode = msg.sender;\n    }\n\n    /////////////////////////////////////////////////////////////////////////\n    /////////////////////////  DATA AAVE FROM NODE  ////////////////////////\n    ////////////////////////  COMMAND == 2  ///////////////////////////////\n    //////////////////////////////////////////////////////////////////////\n\n    function _nodeAaveFeed(\n        Client.Any2EVMMessage memory _any2EvmMessage\n    ) internal {\n        (\n            ,\n            uint256 totalUsdcSupply,\n            uint256 totalUsdcBorrow,\n            uint256 supplyRate\n        ) = abi.decode(\n                _any2EvmMessage.data,\n                (uint8, uint256, uint256, uint256)\n            );\n\n        validNodes[abi.decode(_any2EvmMessage.sender, (address))]\n            .lastDataFromAave = block.timestamp;\n        validNodes[abi.decode(_any2EvmMessage.sender, (address))]\n            .totalUsdcSupply = totalUsdcSupply;\n        validNodes[abi.decode(_any2EvmMessage.sender, (address))]\n            .totalUsdcBorrow = totalUsdcBorrow;\n        validNodes[abi.decode(_any2EvmMessage.sender, (address))]\n            .supplyRate = supplyRate;\n    }\n\n    ////////////////  DATA AAVE, MASTER AND NODE IN SAME CHAIN  //////////////\n\n    function nodeAaveFeedFromSameChain(\n        uint256 totalUsdcSupply,\n        uint256 totalUsdcBorrow,\n        uint256 supplyRate\n    ) external masterAndNodeInSameChain onlyValidNodes(msg.sender) {\n        validNodes[msg.sender].lastDataFromAave = block.timestamp;\n        validNodes[msg.sender].totalUsdcSupply = totalUsdcSupply;\n        validNodes[msg.sender].totalUsdcBorrow = totalUsdcBorrow;\n        validNodes[msg.sender].supplyRate = supplyRate;\n    }\n\n    //////////////////////////////////////////////////////////////////////////\n    /////////////////////////////////////////////////////////////////////////\n    ////////////////////////  INCOMING MESAGE HANDLER  /////////////////////\n    /////////////////  THIS FUNC IS CALLED BY CHAINLINK  //////////////////\n    //////////////////////////////////////////////////////////////////////\n    /////////////////////////////////////////////////////////////////////\n\n    function _ccipReceive(\n        Client.Any2EVMMessage memory _any2EvmMessage\n    )\n        internal\n        override\n        onlyValidNodes(abi.decode(_any2EvmMessage.sender, (address)))\n    {\n        require(\n            validNodes[abi.decode(_any2EvmMessage.sender, (address))]\n                .isValidNode,\n            \"Incoming Message not from a valid node\"\n        );\n        uint8 command = _internalCommandRouter(_any2EvmMessage);\n        if (command == 0) {\n            _aWarpTokenMinter(_any2EvmMessage);\n        } else if (command == 1) {\n            _resmumeOperations(_any2EvmMessage);\n        } else if (command == 2) {\n            _nodeAaveFeed(_any2EvmMessage);\n        } else {\n            revert(\"invalid command from Node\");\n        }\n    }\n\n    /////////////////////////////////////////////////////////////////////////\n    ////////////////////////////////////////////////////////////////////////\n    ///////////////////////  OUTGOING MESAGES HANDLER  ////////////////////\n    //////////////////////////////////////////////////////////////////////\n    /////////////////////////////////////////////////////////////////////\n\n    function _sendMessage(\n        uint64 _destinationChainSelector,\n        address _receiver,\n        bytes memory _data\n    ) internal onlyValidNodes(_receiver) returns (bytes32 messageId) {\n        // Create an EVM2AnyMessage struct in memory with necessary information for sending a cross-chain message\n        // address(linkToken) means fees are paid in LINK\n        Client.EVM2AnyMessage memory evm2AnyMessage = _buildCCIPMessage(\n            _receiver,\n            _data,\n            address(s_linkToken)\n        );\n\n        // Initialize a router client instance to interact with cross-chain router\n        IRouterClient router = IRouterClient(this.getRouter());\n\n        // Get the fee required to send the CCIP message\n        uint256 fees = router.getFee(_destinationChainSelector, evm2AnyMessage);\n\n        require(\n            s_linkToken.transferFrom(msg.sender, address(this), fees),\n            \"Not provided Link for fees\"\n        );\n\n        if (fees > s_linkToken.balanceOf(address(this)))\n            revert NotEnoughBalance(s_linkToken.balanceOf(address(this)), fees);\n\n        // approve the Router to transfer LINK tokens on contract's behalf. It will spend the fees in LINK\n        s_linkToken.approve(address(router), fees);\n\n        // Send the message through the router and store the returned message ID\n        messageId = router.ccipSend(_destinationChainSelector, evm2AnyMessage);\n\n        // Return the message ID\n        return messageId;\n    }\n\n    /// @notice Construct a CCIP message.\n    /// @dev This function will create an EVM2AnyMessage struct with all the necessary information for programmable tokens transfer.\n    /// @param _receiver The address of the receiver.\n    /// @param _data The bytes data to be sent.\n    /// @param _feeTokenAddress The address of the token used for fees. Set address(0) for native gas.\n    /// @return Client.EVM2AnyMessage Returns an EVM2AnyMessage struct which contains information for sending a CCIP message.\n    function _buildCCIPMessage(\n        address _receiver,\n        bytes memory _data,\n        address _feeTokenAddress\n    ) private pure returns (Client.EVM2AnyMessage memory) {\n        return\n            Client.EVM2AnyMessage({\n                receiver: abi.encode(_receiver), // ABI-encoded receiver address\n                data: _data, // ABI-encoded string\n                tokenAmounts: new Client.EVMTokenAmount[](0), // The amount and type of token being transferred\n                extraArgs: Client._argsToBytes(\n                    // Additional arguments, setting gas limit\n                    Client.EVMExtraArgsV1({gasLimit: 2_000_000})\n                ),\n                // Set the feeToken to a feeTokenAddress, indicating specific asset will be used for fees\n                feeToken: _feeTokenAddress\n            });\n    }\n\n    /// @notice Fallback function to allow the contract to receive Ether.\n    /// @dev This function has no function body, making it a default function for receiving Ether.\n    /// It is automatically called when Ether is sent to the contract without any data.\n    receive() external payable {}\n\n    /////////////////////////////////////////////////////////////////////////\n    ///////////////////////////////  WARP ASSETS  //////////////////////////\n    ///////////////////////////////////////////////////////////////////////\n\n    function warpAssets(\n        uint64 _destinationCCIPid,\n        address _destinationNodeAddress\n    ) external {\n        uint8 commandWarpAssets = 1;\n\n        bytes memory data = abi.encode(\n            commandWarpAssets,\n            _destinationCCIPid,\n            _destinationNodeAddress\n        );\n        validNodes[activeNode].isActiveNode = false;\n\n        _sendMessage(validNodes[activeNode].chainCCIPid, activeNode, data);\n        activeNode = address(0);\n    }\n\n    /////////////////////////////////////////////////////////////////////////\n    /////////////////////////////  WITHDRAW  ///////////////////////////////\n    ///////////////////////////////////////////////////////////////////////\n\n    function withdraw(uint256 shares) external {\n        require(validNodes[activeNode].isActiveNode, \"Node is not Active\");\n\n        require(shares <= balanceOf(msg.sender), \"Not enought balance\");\n\n        uint8 commandWitdraw = 0;\n\n        bytes memory data = abi.encode(commandWitdraw, msg.sender, shares);\n\n        _burn(msg.sender, shares);\n\n        if (validNodes[activeNode].chainCCIPid == MASTER_CONTRACT_CHAIN_ID) {\n            INode(activeNode).withdrawFromSameChain(msg.sender, shares);\n        } else {\n            _sendMessage(validNodes[activeNode].chainCCIPid, activeNode, data);\n        }\n    }\n\n    /////////////////////////////////////////////////////////////////////////\n    /////////////////////////////   UTILS   ////////////////////////////////\n    ///////////////////////////////////////////////////////////////////////\n\n    function checkApprovedWarp(\n        address _activeNode,\n        address destinationNode\n    ) public view returns (bool) {\n        //require 24 after last warp\n        return\n            validNodes[_activeNode].isActiveNode == true &&\n            validNodes[_activeNode].lastDataFromAave > 0 &&\n            validNodes[destinationNode].lastDataFromAave > 0 &&\n            validNodes[_activeNode].lastDataFromAave + 3600 > block.timestamp &&\n            validNodes[destinationNode].lastDataFromAave + 3600 >\n            block.timestamp &&\n            validNodes[destinationNode].isValidNode == true &&\n            validNodes[destinationNode].isActiveNode == false &&\n            validNodes[_activeNode].supplyRate > 0 &&\n            validNodes[_activeNode].supplyRate <\n            validNodes[destinationNode].supplyRate;\n    }\n\n    // get ChainId from active node, only for frontend, no impact in contract\n    function getChainIdFromActiveNode() external view returns (uint64) {\n        return validNodes[activeNode].chainCCIPid;\n    }\n}\n",
  "sourcePath": "contracts/MasterNode.sol",
  "type": "contract"
}