{
  "abi": [
    {
      "inputs": [
        {
          "internalType": "address",
          "name": "_router",
          "type": "address"
        },
        {
          "internalType": "address",
          "name": "_link",
          "type": "address"
        },
        {
          "internalType": "uint64",
          "name": "_MASTER_CONTRACT_CHAIN_ID",
          "type": "uint64"
        }
      ],
      "stateMutability": "nonpayable",
      "type": "constructor"
    },
    {
      "inputs": [
        {
          "internalType": "address",
          "name": "nodeAddress",
          "type": "address"
        }
      ],
      "name": "DestinationNodeNotValid",
      "type": "error"
    },
    {
      "inputs": [
        {
          "internalType": "address",
          "name": "router",
          "type": "address"
        }
      ],
      "name": "InvalidRouter",
      "type": "error"
    },
    {
      "inputs": [
        {
          "internalType": "uint256",
          "name": "currentBalance",
          "type": "uint256"
        },
        {
          "internalType": "uint256",
          "name": "calculatedFees",
          "type": "uint256"
        }
      ],
      "name": "NotEnoughBalance",
      "type": "error"
    },
    {
      "anonymous": false,
      "inputs": [
        {
          "indexed": true,
          "internalType": "address",
          "name": "owner",
          "type": "address"
        },
        {
          "indexed": true,
          "internalType": "address",
          "name": "spender",
          "type": "address"
        },
        {
          "indexed": false,
          "internalType": "uint256",
          "name": "value",
          "type": "uint256"
        }
      ],
      "name": "Approval",
      "type": "event"
    },
    {
      "anonymous": false,
      "inputs": [
        {
          "indexed": true,
          "internalType": "address",
          "name": "userAddress",
          "type": "address"
        },
        {
          "indexed": true,
          "internalType": "uint256",
          "name": "amount",
          "type": "uint256"
        }
      ],
      "name": "MintAwrp",
      "type": "event"
    },
    {
      "anonymous": false,
      "inputs": [
        {
          "indexed": true,
          "internalType": "address",
          "name": "from",
          "type": "address"
        },
        {
          "indexed": true,
          "internalType": "address",
          "name": "to",
          "type": "address"
        }
      ],
      "name": "OwnershipTransferRequested",
      "type": "event"
    },
    {
      "anonymous": false,
      "inputs": [
        {
          "indexed": true,
          "internalType": "address",
          "name": "from",
          "type": "address"
        },
        {
          "indexed": true,
          "internalType": "address",
          "name": "to",
          "type": "address"
        }
      ],
      "name": "OwnershipTransferred",
      "type": "event"
    },
    {
      "anonymous": false,
      "inputs": [
        {
          "indexed": true,
          "internalType": "uint8",
          "name": "commandResumeOperations",
          "type": "uint8"
        }
      ],
      "name": "ResumeOperations",
      "type": "event"
    },
    {
      "anonymous": false,
      "inputs": [
        {
          "indexed": true,
          "internalType": "address",
          "name": "from",
          "type": "address"
        },
        {
          "indexed": true,
          "internalType": "address",
          "name": "to",
          "type": "address"
        },
        {
          "indexed": false,
          "internalType": "uint256",
          "name": "value",
          "type": "uint256"
        }
      ],
      "name": "Transfer",
      "type": "event"
    },
    {
      "anonymous": false,
      "inputs": [
        {
          "indexed": true,
          "internalType": "uint64",
          "name": "detinationCCIPid",
          "type": "uint64"
        },
        {
          "indexed": true,
          "internalType": "address",
          "name": "destinationNodeAddress",
          "type": "address"
        }
      ],
      "name": "WarpAssets",
      "type": "event"
    },
    {
      "anonymous": false,
      "inputs": [
        {
          "indexed": true,
          "internalType": "uint64",
          "name": "detinationCCIPid",
          "type": "uint64"
        },
        {
          "indexed": true,
          "internalType": "address",
          "name": "userAddress",
          "type": "address"
        },
        {
          "indexed": true,
          "internalType": "uint256",
          "name": "amount",
          "type": "uint256"
        }
      ],
      "name": "WithdrawAssets",
      "type": "event"
    },
    {
      "inputs": [],
      "name": "MASTER_CONTRACT_CHAIN_ID",
      "outputs": [
        {
          "internalType": "uint64",
          "name": "",
          "type": "uint64"
        }
      ],
      "stateMutability": "view",
      "type": "function"
    },
    {
      "inputs": [],
      "name": "_resmumeOperationsFromSameChain",
      "outputs": [],
      "stateMutability": "nonpayable",
      "type": "function"
    },
    {
      "inputs": [
        {
          "internalType": "address",
          "name": "userAddress",
          "type": "address"
        },
        {
          "internalType": "uint256",
          "name": "shares",
          "type": "uint256"
        }
      ],
      "name": "aWarpTokenMinterFromSameChain",
      "outputs": [],
      "stateMutability": "nonpayable",
      "type": "function"
    },
    {
      "inputs": [],
      "name": "acceptOwnership",
      "outputs": [],
      "stateMutability": "nonpayable",
      "type": "function"
    },
    {
      "inputs": [],
      "name": "activeNode",
      "outputs": [
        {
          "internalType": "address",
          "name": "",
          "type": "address"
        }
      ],
      "stateMutability": "view",
      "type": "function"
    },
    {
      "inputs": [
        {
          "internalType": "address",
          "name": "nodeAddress",
          "type": "address"
        },
        {
          "internalType": "uint64",
          "name": "chainCCIPid",
          "type": "uint64"
        },
        {
          "internalType": "bool",
          "name": "isActiveNode",
          "type": "bool"
        }
      ],
      "name": "addValidNode",
      "outputs": [],
      "stateMutability": "nonpayable",
      "type": "function"
    },
    {
      "inputs": [],
      "name": "allowMoreNodes",
      "outputs": [
        {
          "internalType": "bool",
          "name": "",
          "type": "bool"
        }
      ],
      "stateMutability": "view",
      "type": "function"
    },
    {
      "inputs": [
        {
          "internalType": "address",
          "name": "owner",
          "type": "address"
        },
        {
          "internalType": "address",
          "name": "spender",
          "type": "address"
        }
      ],
      "name": "allowance",
      "outputs": [
        {
          "internalType": "uint256",
          "name": "",
          "type": "uint256"
        }
      ],
      "stateMutability": "view",
      "type": "function"
    },
    {
      "inputs": [
        {
          "internalType": "address",
          "name": "spender",
          "type": "address"
        },
        {
          "internalType": "uint256",
          "name": "amount",
          "type": "uint256"
        }
      ],
      "name": "approve",
      "outputs": [
        {
          "internalType": "bool",
          "name": "",
          "type": "bool"
        }
      ],
      "stateMutability": "nonpayable",
      "type": "function"
    },
    {
      "inputs": [
        {
          "internalType": "address",
          "name": "account",
          "type": "address"
        }
      ],
      "name": "balanceOf",
      "outputs": [
        {
          "internalType": "uint256",
          "name": "",
          "type": "uint256"
        }
      ],
      "stateMutability": "view",
      "type": "function"
    },
    {
      "inputs": [
        {
          "internalType": "uint256",
          "name": "totalUsdcSupply",
          "type": "uint256"
        },
        {
          "internalType": "uint256",
          "name": "totalUsdcBorrow",
          "type": "uint256"
        },
        {
          "internalType": "uint256",
          "name": "supplyRate",
          "type": "uint256"
        },
        {
          "internalType": "uint256",
          "name": "addCapital",
          "type": "uint256"
        }
      ],
      "name": "calculateNewSupplyRates",
      "outputs": [
        {
          "internalType": "uint256",
          "name": "",
          "type": "uint256"
        }
      ],
      "stateMutability": "pure",
      "type": "function"
    },
    {
      "inputs": [
        {
          "components": [
            {
              "internalType": "bytes32",
              "name": "messageId",
              "type": "bytes32"
            },
            {
              "internalType": "uint64",
              "name": "sourceChainSelector",
              "type": "uint64"
            },
            {
              "internalType": "bytes",
              "name": "sender",
              "type": "bytes"
            },
            {
              "internalType": "bytes",
              "name": "data",
              "type": "bytes"
            },
            {
              "components": [
                {
                  "internalType": "address",
                  "name": "token",
                  "type": "address"
                },
                {
                  "internalType": "uint256",
                  "name": "amount",
                  "type": "uint256"
                }
              ],
              "internalType": "struct Client.EVMTokenAmount[]",
              "name": "destTokenAmounts",
              "type": "tuple[]"
            }
          ],
          "internalType": "struct Client.Any2EVMMessage",
          "name": "message",
          "type": "tuple"
        }
      ],
      "name": "ccipReceive",
      "outputs": [],
      "stateMutability": "nonpayable",
      "type": "function"
    },
    {
      "inputs": [
        {
          "internalType": "address",
          "name": "_activeNode",
          "type": "address"
        },
        {
          "internalType": "address",
          "name": "destinationNode",
          "type": "address"
        }
      ],
      "name": "checkApprovedWarp",
      "outputs": [
        {
          "internalType": "bool",
          "name": "",
          "type": "bool"
        }
      ],
      "stateMutability": "view",
      "type": "function"
    },
    {
      "inputs": [],
      "name": "decimals",
      "outputs": [
        {
          "internalType": "uint8",
          "name": "",
          "type": "uint8"
        }
      ],
      "stateMutability": "view",
      "type": "function"
    },
    {
      "inputs": [
        {
          "internalType": "address",
          "name": "spender",
          "type": "address"
        },
        {
          "internalType": "uint256",
          "name": "subtractedValue",
          "type": "uint256"
        }
      ],
      "name": "decreaseAllowance",
      "outputs": [
        {
          "internalType": "bool",
          "name": "",
          "type": "bool"
        }
      ],
      "stateMutability": "nonpayable",
      "type": "function"
    },
    {
      "inputs": [],
      "name": "getChainIdFromActiveNode",
      "outputs": [
        {
          "internalType": "uint64",
          "name": "",
          "type": "uint64"
        }
      ],
      "stateMutability": "view",
      "type": "function"
    },
    {
      "inputs": [
        {
          "internalType": "uint64",
          "name": "destinationCCIPid",
          "type": "uint64"
        },
        {
          "internalType": "address",
          "name": "receiver",
          "type": "address"
        },
        {
          "internalType": "address",
          "name": "s_linkTokenAddress",
          "type": "address"
        },
        {
          "internalType": "address",
          "name": "routerAddress",
          "type": "address"
        },
        {
          "internalType": "bytes",
          "name": "_data",
          "type": "bytes"
        }
      ],
      "name": "getLinkFees",
      "outputs": [
        {
          "internalType": "uint256",
          "name": "",
          "type": "uint256"
        }
      ],
      "stateMutability": "view",
      "type": "function"
    },
    {
      "inputs": [],
      "name": "getRouter",
      "outputs": [
        {
          "internalType": "address",
          "name": "",
          "type": "address"
        }
      ],
      "stateMutability": "view",
      "type": "function"
    },
    {
      "inputs": [
        {
          "internalType": "address",
          "name": "spender",
          "type": "address"
        },
        {
          "internalType": "uint256",
          "name": "addedValue",
          "type": "uint256"
        }
      ],
      "name": "increaseAllowance",
      "outputs": [
        {
          "internalType": "bool",
          "name": "",
          "type": "bool"
        }
      ],
      "stateMutability": "nonpayable",
      "type": "function"
    },
    {
      "inputs": [],
      "name": "isProtocolInTestMode",
      "outputs": [
        {
          "internalType": "bool",
          "name": "",
          "type": "bool"
        }
      ],
      "stateMutability": "view",
      "type": "function"
    },
    {
      "inputs": [],
      "name": "lastActiveNode",
      "outputs": [
        {
          "internalType": "address",
          "name": "",
          "type": "address"
        }
      ],
      "stateMutability": "view",
      "type": "function"
    },
    {
      "inputs": [],
      "name": "lastTimeWarped",
      "outputs": [
        {
          "internalType": "uint256",
          "name": "",
          "type": "uint256"
        }
      ],
      "stateMutability": "view",
      "type": "function"
    },
    {
      "inputs": [],
      "name": "name",
      "outputs": [
        {
          "internalType": "string",
          "name": "",
          "type": "string"
        }
      ],
      "stateMutability": "view",
      "type": "function"
    },
    {
      "inputs": [
        {
          "internalType": "uint256",
          "name": "totalUsdcSupply",
          "type": "uint256"
        },
        {
          "internalType": "uint256",
          "name": "totalUsdcBorrow",
          "type": "uint256"
        },
        {
          "internalType": "uint256",
          "name": "supplyRate",
          "type": "uint256"
        },
        {
          "internalType": "uint256",
          "name": "totalAusdcNode",
          "type": "uint256"
        }
      ],
      "name": "nodeAaveFeedFromSameChain",
      "outputs": [],
      "stateMutability": "nonpayable",
      "type": "function"
    },
    {
      "inputs": [],
      "name": "owner",
      "outputs": [
        {
          "internalType": "address",
          "name": "",
          "type": "address"
        }
      ],
      "stateMutability": "view",
      "type": "function"
    },
    {
      "inputs": [],
      "name": "stopAddingNodes",
      "outputs": [],
      "stateMutability": "nonpayable",
      "type": "function"
    },
    {
      "inputs": [
        {
          "internalType": "bytes4",
          "name": "interfaceId",
          "type": "bytes4"
        }
      ],
      "name": "supportsInterface",
      "outputs": [
        {
          "internalType": "bool",
          "name": "",
          "type": "bool"
        }
      ],
      "stateMutability": "pure",
      "type": "function"
    },
    {
      "inputs": [],
      "name": "symbol",
      "outputs": [
        {
          "internalType": "string",
          "name": "",
          "type": "string"
        }
      ],
      "stateMutability": "view",
      "type": "function"
    },
    {
      "inputs": [],
      "name": "totalSupply",
      "outputs": [
        {
          "internalType": "uint256",
          "name": "",
          "type": "uint256"
        }
      ],
      "stateMutability": "view",
      "type": "function"
    },
    {
      "inputs": [
        {
          "internalType": "address",
          "name": "to",
          "type": "address"
        },
        {
          "internalType": "uint256",
          "name": "amount",
          "type": "uint256"
        }
      ],
      "name": "transfer",
      "outputs": [
        {
          "internalType": "bool",
          "name": "",
          "type": "bool"
        }
      ],
      "stateMutability": "nonpayable",
      "type": "function"
    },
    {
      "inputs": [
        {
          "internalType": "address",
          "name": "from",
          "type": "address"
        },
        {
          "internalType": "address",
          "name": "to",
          "type": "address"
        },
        {
          "internalType": "uint256",
          "name": "amount",
          "type": "uint256"
        }
      ],
      "name": "transferFrom",
      "outputs": [
        {
          "internalType": "bool",
          "name": "",
          "type": "bool"
        }
      ],
      "stateMutability": "nonpayable",
      "type": "function"
    },
    {
      "inputs": [
        {
          "internalType": "address",
          "name": "to",
          "type": "address"
        }
      ],
      "name": "transferOwnership",
      "outputs": [],
      "stateMutability": "nonpayable",
      "type": "function"
    },
    {
      "inputs": [
        {
          "internalType": "address",
          "name": "",
          "type": "address"
        }
      ],
      "name": "validNodes",
      "outputs": [
        {
          "internalType": "bool",
          "name": "isValidNode",
          "type": "bool"
        },
        {
          "internalType": "bool",
          "name": "isActiveNode",
          "type": "bool"
        },
        {
          "internalType": "uint64",
          "name": "chainCCIPid",
          "type": "uint64"
        },
        {
          "internalType": "uint256",
          "name": "lastDataFromAave",
          "type": "uint256"
        },
        {
          "internalType": "uint256",
          "name": "totalUsdcSupply",
          "type": "uint256"
        },
        {
          "internalType": "uint256",
          "name": "totalUsdcBorrow",
          "type": "uint256"
        },
        {
          "internalType": "uint256",
          "name": "supplyRate",
          "type": "uint256"
        },
        {
          "internalType": "uint256",
          "name": "totalAusdcNode",
          "type": "uint256"
        }
      ],
      "stateMutability": "view",
      "type": "function"
    },
    {
      "inputs": [
        {
          "internalType": "address",
          "name": "_destinationNodeAddress",
          "type": "address"
        }
      ],
      "name": "warpAssets",
      "outputs": [],
      "stateMutability": "nonpayable",
      "type": "function"
    },
    {
      "inputs": [
        {
          "internalType": "uint256",
          "name": "shares",
          "type": "uint256"
        }
      ],
      "name": "withdraw",
      "outputs": [],
      "stateMutability": "nonpayable",
      "type": "function"
    },
    {
      "stateMutability": "payable",
      "type": "receive"
    }
  ],
  "bytecode": "60c034620004a057601f62002eb638819003918201601f19168301916001600160401b038311848410176200035a57808492606094604052833981010312620004a0576200004d81620004c5565b9060406200005e60208301620004c5565b910151906001600160401b0382168203620004a0576200007d620004a5565b92600984526815d85c9c165a595b1960ba1b60208501526200009e620004a5565b60048152630615752560e41b6020820152906001600160a01b03811615620004875760805233156200044257600080546001600160a01b0319163317905583516001600160401b0381116200035a57600554600181811c9116801562000437575b60208210146200033957601f8111620003e9575b50602094601f82116001146200037c5794819293949560009262000370575b50508160011b916000199060031b1c1916176005555b8051906001600160401b0382116200035a57600654600181811c911680156200034f575b60208210146200033957601f8111620002e0575b50602090601f83116001146200024d5775010000000000000000000000000000000000000000019392916000918362000241575b50508160011b916000199060031b1c1916176006555b600780546001600160b01b03191660089290921b610100600160a81b03169190911791909117905560a0526040516129bb9081620004db82396080518181816103c8015261076c015260a0518181816105010152818161070901528181610f980152818161186b01528181611e200152611fa20152f35b015190503880620001b4565b6006600090815260008051602062002e96833981519152929190601f198516905b818110620002c75750916001939185750100000000000000000000000000000000000000000197969410620002ad575b505050811b01600655620001ca565b015160001960f88460031b161c191690553880806200029e565b929360206001819287860151815501950193016200026e565b600660005260008051602062002e96833981519152601f840160051c810191602085106200032e575b601f0160051c01905b81811062000321575062000180565b6000815560010162000312565b909150819062000309565b634e487b7160e01b600052602260045260246000fd5b90607f16906200016c565b634e487b7160e01b600052604160045260246000fd5b01519050388062000132565b601f19821695600560005260206000209160005b888110620003d057508360019596979810620003b6575b505050811b0160055562000148565b015160001960f88460031b161c19169055388080620003a7565b9192602060018192868501518155019401920162000390565b60056000526020600020601f830160051c810191602084106200042c575b601f0160051c01905b8181106200041f575062000113565b6000815560010162000410565b909150819062000407565b90607f1690620000ff565b60405162461bcd60e51b815260206004820152601860248201527f43616e6e6f7420736574206f776e657220746f207a65726f00000000000000006044820152606490fd5b6040516335fdcccd60e21b815260006004820152602490fd5b600080fd5b60408051919082016001600160401b038111838210176200035a57604052565b51906001600160a01b0382168203620004a05756fe60806040818152600480361015610021575b505050361561001f57600080fd5b005b600092833560e01c90816301ffc9a71461202f5750806304783ea414611f6557806306fdde0314611e9857806308a767fe14611ded578063095ea7b314611dc35780630a2ac7b7146117b557806310a78df8146116ba5780631803c2f51461168d57806318160ddd146116705780631d8809281461163957806323b872dd1461156d5780632e1a7d4d14610ead578063313ce56714610e915780633950935114610e42578063544b170914610cff57806361ac3f9914610cd6578063654e8e0c14610caf5780636c1dc07714610c865780636c98d51314610c5d57806370a0823114610c2557806379ba509714610b7e57806385572ffb1461072d5780638cf19d19146106e95780638da5cb5b146106c157806395d89b41146105a6578063995714ae146104d1578063a457c2d714610428578063a9059cbb146103f7578063b0f479a1146103b3578063b2d9295514610320578063c1586af8146102fa578063dd62ed3e146102ac578063ddf8560314610288578063e12b948b146102655763f2fde38b036100115734610261576020366003190112610261576101c4612083565b906101cd612933565b6001600160a01b039182169233841461021e575050600180546001600160a01b031916831790558254167fed8889f560326eb138920d842192f0eb3dd22b4f139c87a2c57538e05bae12788380a380f35b906020606492519162461bcd60e51b8352820152601760248201527f43616e6e6f74207472616e7366657220746f2073656c660000000000000000006044820152fd5b8280fd5b505034610284578160031936011261028457602090600a549051908152f35b5080fd5b50503461028457816003193601126102845760209060ff6007541690519015158152f35b5050346102845780600319360112610284576020916102c9612083565b826102d2612099565b6001600160a01b03928316845260038652922091166000908152908352819020549051908152f35b50503461028457602090610319610310366120ef565b929190916128db565b9051908152f35b509034610261576020366003190112610261576101009281906001600160a01b03610349612083565b168152600b6020522080549260018201546002830154906005600385015493850154940154946001600160401b0381519760ff81161515895260ff8160081c16151560208a015260101c16908701526060860152608085015260a084015260c083015260e0820152f35b505034610284578160031936011261028457517f00000000000000000000000000000000000000000000000000000000000000006001600160a01b03168152602090f35b505034610284578060031936011261028457602090610421610417612083565b602435903361256c565b5160018152f35b5082346104ce57826003193601126104ce57610442612083565b91836024359233815260036020522060018060a01b03841660005260205283600020549082821061047d576020856104218585038733612780565b608490602086519162461bcd60e51b8352820152602560248201527f45524332303a2064656372656173656420616c6c6f77616e63652062656c6f77604482015264207a65726f60d81b6064820152fd5b80fd5b5034610261578260031936011261026157338352600b6020526105276001600160401b03808486205460101c16907f00000000000000000000000000000000000000000000000000000000000000001614612219565b338352600b60205260ff8284205416156105905750338252600b602052812061010061ff0019825416179055336001600160601b0360a01b600954161760095560017f8392741ef8e51329e7bd6d6010db40081a08ad52773cfc62f82ac6626991ce838280a280f35b6024915190636a9ff79f60e11b82523390820152fd5b5091346104ce57806003193601126104ce578151918160065492600184811c918186169586156106b7575b60209687851081146106a4578899509688969785829a52918260001461067d575050600114610621575b50505061061d929161060e9103856121a2565b519282849384528301906120af565b0390f35b9190869350600683527ff652222313e28459528d920b65115c16c04f3efc82aaedc97be59f3f377c0d3f5b828410610665575050508201018161060e61061d6105fb565b8054848a01860152889550879490930192810161064c565b60ff19168782015293151560051b8601909301935084925061060e915061061d90506105fb565b634e487b7160e01b835260228a52602483fd5b92607f16926105d1565b505034610284578160031936011261028457905490516001600160a01b039091168152602090f35b505034610284578160031936011261028457602090516001600160401b037f0000000000000000000000000000000000000000000000000000000000000000168152f35b503461026157602091600319838136011261090e578235906001600160401b0390818311610ab25760a09083360301126109af576001600160a01b03937f000000000000000000000000000000000000000000000000000000000000000085163303610b675783519161079f8361210d565b838201358352602490818501358181168103610b4657888501526044850135818111610aaa576107d4908436918801016121c3565b938681019485526064860135828111610aae576107f6908536918901016121c3565b9560608201968752608481013590838211610b63570136602382011215610aae5784810135928311610b4f578751926108348b8260051b01856121a2565b808452848b85019160061b83010191368311610b4b578501905b828210610b0c575050506080015282518781805181010312610aa65761087688889201612882565b16808952600b885260ff868a20541615610af7575083518781805181010312610aa6576108a68860ff9201612896565b16806109125750505050519260608480518101031261090e576060916108d06108d8928601612896565b508401612882565b92015191166108e782826126dc565b7fb55160cc367b9cdf2289af15a6163d786de0a3d0722f78f652dec347580c85648380a380f35b8480fd5b9596959294939192600181036109b35750505050815183818051810103126109af5761094084869201612882565b168552600b8352842061010061ff0019825416179055519080828051810103126109ab5761096e9101612882565b166001600160601b0360a01b600954161760095560017f8392741ef8e51329e7bd6d6010db40081a08ad52773cfc62f82ac6626991ce838280a280f35b8380fd5b8580fd5b9296939492600203610ab657505160a081805181010312610ab2576109d9858201612896565b508381015195606082015160a060808401519301519784518881805181010312610aae57610a0989889201612882565b168a52600b8852426001888c20015584518881805181010312610aae57610a3289889201612882565b168a526002878b20015583518781805181010312610aaa57610a5688879201612882565b1689526003868a20015582518681805181010312610aa657610a7a87869201612882565b16885284882001555183818051810103126109af57600593610a9c9101612882565b1684528320015580f35b8880fd5b8980fd5b8a80fd5b8680fd5b8660196064928888519362461bcd60e51b85528401528201527f696e76616c696420636f6d6d616e642066726f6d204e6f6465000000000000006044820152fd5b8551636a9ff79f60e11b815280840191909152fd5b8982360312610b4b57895190610b218261216c565b8235908c82168203610b4657828e928d9452828501358382015281520191019061084e565b600080fd5b8c80fd5b83604186634e487b7160e01b600052526000fd5b8b80fd5b6024908451906335fdcccd60e21b82523390820152fd5b509034610261578260031936011261026157600154916001600160a01b03918284163303610be957505082546001600160a01b03198082163390811786559316600155167f8be0079c531659141344cd1fd0a4f28419497f9722a3daafe3b4186f6b6457e08380a380f35b906020606492519162461bcd60e51b8352820152601660248201527526bab9ba10313290383937b837b9b2b21037bbb732b960511b6044820152fd5b5050346102845760203660031901126102845760209181906001600160a01b03610c4d612083565b1681526002845220549051908152f35b83346104ce57806003193601126104ce57610c76612933565b6007805460ff60a81b1916905580f35b50503461028457816003193601126102845760095490516001600160a01b039091168152602090f35b50503461028457816003193601126102845760209060ff60075460a81c1690519015158152f35b50503461028457816003193601126102845760085490516001600160a01b039091168152602090f35b5091346104ce5760a03660031901126104ce578235916001600160401b03938484168403610b4657610d2f612099565b6001600160a01b039490916044358681169290839003610b465760643591878316809303610b4657608435988911610ab257610d74610df096979899369083016121c3565b87519460209a8b971687870152868652610d8d8661216c565b8851610d988161213e565b60008152610db58a51610daa8161213e565b620f424081526128a4565b928a5197610dc28961210d565b885288880152898701526060860152608085015286516320487ded60e01b8152958694859384938401612273565b03915afa928315610e375792610e08575b5051908152f35b9091508281813d8311610e30575b610e2081836121a2565b81010312610b4657519038610e01565b503d610e16565b8251903d90823e3d90fd5b50503461028457806003193601126102845761042160209282610e63612083565b91338152600386522060018060a01b0382166000528452610e8a6024358460002054612357565b9033612780565b5050346102845781600319360112610284576020905160128152f35b50903461026157602091826003193601126109ab576009546001600160a01b039081168552600b8452828520548235949060081c60ff161561153657338652600281528386205485116114fe578351928682850152338585015260608681860152808552610f1a85612187565b33156114b25733885260028352858820548781106114645790878993923385526002865203878420558782540382558287518981527fddf252ad1be2c89b69c2b068fc378daa952ba7f163c4a11628f55a4df523b3ef863392a3846009541690818452600b8552878420546001600160401b0397888260101c1691897f00000000000000000000000000000000000000000000000000000000000000001683146000146110645750505050508360095416803b156102615786516315e005b760e31b81523392810192835260208301899052918391839182908490829060400103925af1801561105a57611046575b5050600b915b60095416865252339184205460101c167ff3f4e036f86c1437e14fac401835b304a1b76776b49e2e2a4d86c119433b80cf8480a480f35b61104f90612159565b6109af578538611009565b86513d84823e3d90fd5b60ff9192949650949294161561144d578884806080898f8c60075460081c169986818c9851946110938661210d565b8186528501528301528382015201528a5196888801528787526110b58761216c565b8a516110c08161213e565b600081526110dd8c516110d28161213e565b621e848081526128a4565b938c51986110ea8a61210d565b8952898901528b8801528601526080850152875163b0f479a160e01b815285818381305afa908115611443579087918c91611409575b5089516320487ded60e01b81529116938b908783806111428a89898401612273565b0381895afa9283156113ff5790889183946113cd575b5060648c51809481936323b872dd60e01b835233898401523060248401528760448401525af19081156113c3578c916113a6575b5015611363578660075460081c169089518c6370a0823160e01b9182815230868201528981602481885afa918215611358579161132b575b5082116112ba5750895163095ea7b360e01b81526001600160a01b03861681850190815260208101929092528c939290918891839182908790829060400103925af180156112b0579187959391611237979593611283575b508a516396f4e9f960e01b8152968795869485938401612273565b03925af180156112795761124f575b50600b9161100f565b8190813d8311611272575b61126481836121a2565b810103126109af5738611246565b503d61125a565b85513d89823e3d90fd5b6112a290873d89116112a9575b61129a81836121a2565b81019061233f565b503861121c565b503d611290565b8a513d85823e3d90fd5b908c8b8980879560248451809981938252308a8301525afa928315610e3757926112fa575b5051634787a10360e11b815292830152602482015260449150fd5b90915084813d8311611324575b61131181836121a2565b81010312610b46576044935190856112df565b503d611307565b90508881813d8311611351575b61134281836121a2565b81010312610b465751386111c4565b503d611338565b8d51903d90823e3d90fd5b885162461bcd60e51b8152808301879052601a60248201527f4e6f742070726f7669646564204c696e6b20666f7220666565730000000000006044820152606490fd5b6113bd9150873d89116112a95761129a81836121a2565b3861118c565b8a513d8e823e3d90fd5b9250925081813d83116113f8575b6113e581836121a2565b81010312610b4657868c91519238611158565b503d6113db565b8b513d84823e3d90fd5b809250878092503d831161143c575b61142281836121a2565b81010312610aae57518681168103610aae57869038611120565b503d611418565b89513d8d823e3d90fd5b8851636a9ff79f60e11b8152808301869052602490fd5b865162461bcd60e51b8152808401859052602260248201527f45524332303a206275726e20616d6f756e7420657863656564732062616c616e604482015261636560f01b6064820152608490fd5b5060849185519162461bcd60e51b8352820152602160248201527f45524332303a206275726e2066726f6d20746865207a65726f206164647265736044820152607360f81b6064820152fd5b9050606492519162461bcd60e51b835282015260136024820152724e6f7420656e6f756768742062616c616e636560681b6044820152fd5b9050606492519162461bcd60e51b835282015260126024820152714e6f6465206973206e6f742041637469766560701b6044820152fd5b5082903461028457606036600319011261028457611589612083565b611591612099565b91846044359460018060a01b03841681526003602052203360005260205284600020549060001982036115cd575b60208661042187878761256c565b8482106115f657509183916115eb6020969561042195033383612780565b9193948193506115bf565b606490602087519162461bcd60e51b8352820152601d60248201527f45524332303a20696e73756666696369656e7420616c6c6f77616e63650000006044820152fd5b505034610284578060031936011261028457602090611667611659612083565b611661612099565b9061237a565b90519015158152f35b503461026157826003193601126102615760209250549051908152f35b5050346102845781600319360112610284576020906001600160401b036116b2612516565b915191168152f35b5034610261576060366003190112610261576116d4612083565b906024356001600160401b0381168103610b46576044359283151592838503610ab2576116ff612933565b60ff60075460a81c161561177a575090600191828060a01b031694858752600b60205286209261ff0069ffffffffffffffff000085549360101b169269ffffffffffffffffffff19169160081b16171717905561175a575080f35b6001600160601b0360a01b81816008541617600855600954161760095580f35b606490602087519162461bcd60e51b83528201526015602482015274139bc81b5bdc99481b9bd9195cc8185b1b1bddd959605a1b6044820152fd5b508290346102845760209283600319360112610261576117d3612083565b6001600160a01b03818116808652600b8752838620549192909160ff1615611d805760ff6007541615611d24575b50808552600b86526001600160401b0393848487205460101c169084516001898201528286820152606090848282015281815261183d81612187565b6009805487168a52600b8b52878a20805461ff0019169055548616808a52878a20549091601082901c8a16917f00000000000000000000000000000000000000000000000000000000000000008b16830361194d5750505050508360095416803b15611949578792918360449288519687958694634bb297ff60e11b865285015260248401525af1801561193f5761192b575b508394600b915b6009546001600160601b0360a01b9181168260085416176008551660095542600a558480525282205460101c167f985439828e84e84b426dc5fad9dbe12249540a3a89d03b3b635f89b4fe1e1ff28280a380f35b93611938600b9295612159565b93906118d0565b83513d87823e3d90fd5b8780fd5b939b96509194509160ff1615611d0d578560075460081c168a819b60808a516119758161210d565b828152828a820152828c8201528d8382015201528851958787015286865261199c8661216c565b88516119a78161213e565b8b81526119b88a516110d28161213e565b938a51976119c58961210d565b885288880152898701528501526080840152855163b0f479a160e01b815284818481305afa908115611d03579086918a91611cc9575b5016918651996320487ded60e01b8b52858b80611a1b8887878401612273565b0381875afa9a8b15611b79578a9b611c9a575b50858a9160648d8b5194859384926323b872dd60e01b8452338985015230602485015260448401525af1908115611b79578a91611c7d575b5015611c3a5788998660075460081c169088516370a0823160e01b9081815230858201528881602481875afa908115611c30578d91611c03575b508211611b835750885163095ea7b360e01b81526001600160a01b038616848201908152602081019290925291879183919082908e90829060400103925af18015611b7957869492611b109694928c92611b5c575b5089516396f4e9f960e01b8152968795869485938401612273565b03925af18015611b5257611b28575b50600b916118d7565b8190813d8311611b4b575b611b3d81836121a2565b8101031261090e5786611b1f565b503d611b33565b84513d88823e3d90fd5b611b7290873d89116112a95761129a81836121a2565b508d611af5565b88513d8c823e3d90fd5b898c949389809360248451809481938252308a8301525afa928315611bf9578693611bc5575b505051634787a10360e11b815292830152602482015260449150fd5b9080929350813d8311611bf2575b611bdd81836121a2565b8101031261090e576044945051908580611ba9565b503d611bd3565b82513d88823e3d90fd5b90508881813d8311611c29575b611c1a81836121a2565b81010312610b4b57518e611aa0565b503d611c10565b8b513d8f823e3d90fd5b865162461bcd60e51b8152908101859052601a60248201527f4e6f742070726f7669646564204c696e6b20666f7220666565730000000000006044820152606490fd5b611c949150863d88116112a95761129a81836121a2565b8b611a66565b909a508581813d8311611cc2575b611cb281836121a2565b81010312610aaa57519985611a2e565b503d611ca8565b809250868092503d8311611cfc575b611ce281836121a2565b81010312610aa657518581168103610aa65785908b6119fb565b503d611cd8565b87513d8b823e3d90fd5b8651636a9ff79f60e11b8152808401859052602490fd5b611d3290836009541661237a565b15611d3d5786611801565b825162461bcd60e51b8152808501879052601960248201527f436f6e646974696f6e20746f2077617270206e6f74206d6574000000000000006044820152606490fd5b835162461bcd60e51b8152808601889052601d60248201527f44657374696e6174696f6e204e6f6465206973206e6f74207661696c640000006044820152606490fd5b505034610284578060031936011261028457602090610421611de3612083565b6024359033612780565b5082903461028457611dfe366120ef565b939091338652600b602052611e466001600160401b03808989205460101c16907f00000000000000000000000000000000000000000000000000000000000000001614612219565b338652600b60205260ff878720541615611e82576005949596338852600b60205287209342600186015560028501556003840155820155015580f35b8651636a9ff79f60e11b81523381840152602490fd5b5091346104ce57806003193601126104ce578151918160055492600184811c91818616958615611f5b575b60209687851081146106a4578899509688969785829a52918260001461067d575050600114611eff5750505061061d929161060e9103856121a2565b9190869350600583527f036b6384b5eca791c62761152d0c79bb0604c104a5fb6f4eb0703f3154bb3db05b828410611f43575050508201018161060e61061d6105fb565b8054848a018601528895508794909301928101611f2a565b92607f1692611ec3565b5034610261578160031936011261026157611f7e612083565b9060243592338552600b602052611fc86001600160401b03808388205460101c16907f00000000000000000000000000000000000000000000000000000000000000001614612219565b338552600b60205260ff818620541615612018575050611fe882826126dc565b6001600160a01b03167fb55160cc367b9cdf2289af15a6163d786de0a3d0722f78f652dec347580c85648380a380f35b602492505190636a9ff79f60e11b82523390820152fd5b92505034610261576020366003190112610261573563ffffffff60e01b811680910361026157602092506385572ffb60e01b8114908115612072575b5015158152f35b6301ffc9a760e01b1490503861206b565b600435906001600160a01b0382168203610b4657565b602435906001600160a01b0382168203610b4657565b919082519283825260005b8481106120db575050826000602080949584010152601f8019910116010190565b6020818301810151848301820152016120ba565b6080906003190112610b465760043590602435906044359060643590565b60a081019081106001600160401b0382111761212857604052565b634e487b7160e01b600052604160045260246000fd5b602081019081106001600160401b0382111761212857604052565b6001600160401b03811161212857604052565b604081019081106001600160401b0382111761212857604052565b608081019081106001600160401b0382111761212857604052565b90601f801991011681019081106001600160401b0382111761212857604052565b81601f82011215610b46578035906001600160401b03821161212857604051926121f7601f8401601f1916602001856121a2565b82845260208383010111610b4657816000926020809301838601378301015290565b1561222057565b60405162461bcd60e51b815260206004820152602560248201527f52657175697265206d617374657220616e64206e6f646520696e2073616d652060448201526431b430b4b760d91b6064820152608490fd5b906001600160401b0390939293168152604060209181838201526122a2855160a08484015260e08301906120af565b916122be8487015193603f1994858583030160608601526120af565b8187015194848483030160808501528080875193848152019601926000905b83821061231657505050505060c06080612313959660018060a01b0360608201511660a0850152015192828503019101526120af565b90565b845180516001600160a01b031689528301518884015296870196938201936001909101906122dd565b90816020910312610b4657518015158103610b465790565b9190820180921161236457565b634e487b7160e01b600052601160045260246000fd5b60018060a01b03809216916000838152600b90602091808352604092838320946123ba600287015460038801549760049860058a830154920154926128db565b96600a5462015180810180911161249257421198896124f8575b896124e0575b896124ca575b896124a5575b8961246f575b89612456575b8961243e575b5088612427575b88612410575b505050505050505090565b168352522001541090503880808080808080612405565b8181168552838352858520870154151598506123ff565b85528383528585205460081c60ff16159850386123f8565b8086528484528686205460ff16151560011499506123f2565b809950855283835260018686200154610e108101809111612492574210986123ec565b634e487b7160e01b865260118852602486fd5b9850818116855283835260018686200154610e108101809111612492574210986123e6565b80865284845286862060010154151599506123e0565b818316865284845286862060010154151599506123da565b81831686528484528686205460081c60ff16151560011499506123d4565b6009546001600160a01b039081169081156125495750600052600b6020526001600160401b0360406000205460101c1690565b905060085416600052600b6020526001600160401b0360406000205460101c1690565b6001600160a01b03908116918215612689571691821561263857600082815260026020526040812054918083106125e457604082827fddf252ad1be2c89b69c2b068fc378daa952ba7f163c4a11628f55a4df523b3ef95876020965260028652038282205586815220818154019055604051908152a3565b60405162461bcd60e51b815260206004820152602660248201527f45524332303a207472616e7366657220616d6f756e7420657863656564732062604482015265616c616e636560d01b6064820152608490fd5b60405162461bcd60e51b815260206004820152602360248201527f45524332303a207472616e7366657220746f20746865207a65726f206164647260448201526265737360e81b6064820152608490fd5b60405162461bcd60e51b815260206004820152602560248201527f45524332303a207472616e736665722066726f6d20746865207a65726f206164604482015264647265737360d81b6064820152608490fd5b6001600160a01b031690811561273b577fddf252ad1be2c89b69c2b068fc378daa952ba7f163c4a11628f55a4df523b3ef60208261271e600094600454612357565b6004558484526002825260408420818154019055604051908152a3565b60405162461bcd60e51b815260206004820152601f60248201527f45524332303a206d696e7420746f20746865207a65726f2061646472657373006044820152606490fd5b6001600160a01b0390811691821561283157169182156127e15760207f8c5be1e5ebec7d5bd14f71427d1e84f3dd0314c0f7b2291e5b200ac8c7c3b925918360005260038252604060002085600052825280604060002055604051908152a3565b60405162461bcd60e51b815260206004820152602260248201527f45524332303a20617070726f766520746f20746865207a65726f206164647265604482015261737360f01b6064820152608490fd5b60405162461bcd60e51b8152602060048201526024808201527f45524332303a20617070726f76652066726f6d20746865207a65726f206164646044820152637265737360e01b6064820152608490fd5b51906001600160a01b0382168203610b4657565b519060ff82168203610b4657565b604051906397a657c960e01b602083015251602482015260248152606081018181106001600160401b038211176121285760405290565b926128e69193612357565b670de0b6b3a7640000928381029080820485149015171561236457811561291d570490818102918183041490151715612364570490565b634e487b7160e01b600052601260045260246000fd5b6000546001600160a01b0316330361294757565b60405162461bcd60e51b815260206004820152601660248201527527b7363c9031b0b63630b1363290313c9037bbb732b960511b6044820152606490fdfea264697066735822122039644e48c4be223103bf0f264ff278c9e78b2e4f17dd4fa38b623a48de7f2f3b64736f6c63430008130033f652222313e28459528d920b65115c16c04f3efc82aaedc97be59f3f377c0d3f",
  "bytecodeSha1": "267023f6b28c4edba7356ca5ffa6578d78b6b4be",
  "compiler": {
    "evm_version": "istanbul",
    "optimizer": {
      "enabled": true,
      "runs": 200
    },
    "version": "0.8.19+commit.7dd6d404"
  },
  "contractName": "MasterNode",
  "language": "Solidity",
  "natspec": {
    "kind": "dev",
    "methods": {
      "acceptOwnership()": {
        "notice": "Allows an ownership transfer to be completed by the recipient."
      },
      "allowance(address,address)": {
        "details": "See {IERC20-allowance}."
      },
      "approve(address,uint256)": {
        "details": "See {IERC20-approve}. NOTE: If `amount` is the maximum `uint256`, the allowance is not updated on `transferFrom`. This is semantically equivalent to an infinite approval. Requirements: - `spender` cannot be the zero address."
      },
      "balanceOf(address)": {
        "details": "See {IERC20-balanceOf}."
      },
      "ccipReceive((bytes32,uint64,bytes,bytes,(address,uint256)[]))": {
        "details": "Note ensure you check the msg.sender is the OffRampRouter",
        "notice": "Called by the Router to deliver a message. If this reverts, any token transfers also revert. The message will move to a FAILED state and become available for manual execution.",
        "params": {
          "message": "CCIP Message"
        }
      },
      "decimals()": {
        "details": "Returns the number of decimals used to get its user representation. For example, if `decimals` equals `2`, a balance of `505` tokens should be displayed to a user as `5.05` (`505 / 10 ** 2`). Tokens usually opt for a value of 18, imitating the relationship between Ether and Wei. This is the value {ERC20} uses, unless this function is overridden; NOTE: This information is only used for _display_ purposes: it in no way affects any of the arithmetic of the contract, including {IERC20-balanceOf} and {IERC20-transfer}."
      },
      "decreaseAllowance(address,uint256)": {
        "details": "Atomically decreases the allowance granted to `spender` by the caller. This is an alternative to {approve} that can be used as a mitigation for problems described in {IERC20-approve}. Emits an {Approval} event indicating the updated allowance. Requirements: - `spender` cannot be the zero address. - `spender` must have allowance for the caller of at least `subtractedValue`."
      },
      "getRouter()": {
        "notice": "Return the current router",
        "returns": {
          "_0": "CCIP router address"
        }
      },
      "increaseAllowance(address,uint256)": {
        "details": "Atomically increases the allowance granted to `spender` by the caller. This is an alternative to {approve} that can be used as a mitigation for problems described in {IERC20-approve}. Emits an {Approval} event indicating the updated allowance. Requirements: - `spender` cannot be the zero address."
      },
      "name()": {
        "details": "Returns the name of the token."
      },
      "owner()": {
        "notice": "Get the current owner"
      },
      "supportsInterface(bytes4)": {
        "details": "Should indicate whether the contract implements IAny2EVMMessageReceiver e.g. return interfaceId == type(IAny2EVMMessageReceiver).interfaceId || interfaceId == type(IERC165).interfaceId This allows CCIP to check if ccipReceive is available before calling it. If this returns false or reverts, only tokens are transferred to the receiver. If this returns true, tokens are transferred and ccipReceive is called atomically. Additionally, if the receiver address does not have code associated with it at the time of execution (EXTCODESIZE returns 0), only tokens will be transferred.",
        "notice": "IERC165 supports an interfaceId",
        "params": {
          "interfaceId": "The interfaceId to check"
        },
        "returns": {
          "_0": "true if the interfaceId is supported"
        }
      },
      "symbol()": {
        "details": "Returns the symbol of the token, usually a shorter version of the name."
      },
      "totalSupply()": {
        "details": "See {IERC20-totalSupply}."
      },
      "transfer(address,uint256)": {
        "details": "See {IERC20-transfer}. Requirements: - `to` cannot be the zero address. - the caller must have a balance of at least `amount`."
      },
      "transferFrom(address,address,uint256)": {
        "details": "See {IERC20-transferFrom}. Emits an {Approval} event indicating the updated allowance. This is not required by the EIP. See the note at the beginning of {ERC20}. NOTE: Does not update the allowance if the current allowance is the maximum `uint256`. Requirements: - `from` and `to` cannot be the zero address. - `from` must have a balance of at least `amount`. - the caller must have allowance for ``from``'s tokens of at least `amount`."
      },
      "transferOwnership(address)": {
        "notice": "Allows an owner to begin transferring ownership to a new address."
      }
    },
    "title": "- A simple messenger contract for transferring/receiving tokens and data across chains.",
    "version": 1
  },
  "opcodes": "PUSH1 0x80 PUSH1 0x40 DUP2 DUP2 MSTORE PUSH1 0x4 DUP1 CALLDATASIZE LT ISZERO PUSH2 0x21 JUMPI JUMPDEST POP POP POP CALLDATASIZE ISZERO PUSH2 0x1F JUMPI PUSH1 0x0 DUP1 REVERT JUMPDEST STOP JUMPDEST PUSH1 0x0 SWAP3 DUP4 CALLDATALOAD PUSH1 0xE0 SHR SWAP1 DUP2 PUSH4 0x1FFC9A7 EQ PUSH2 0x202F JUMPI POP DUP1 PUSH4 0x4783EA4 EQ PUSH2 0x1F65 JUMPI DUP1 PUSH4 0x6FDDE03 EQ PUSH2 0x1E98 JUMPI DUP1 PUSH4 0x8A767FE EQ PUSH2 0x1DED JUMPI DUP1 PUSH4 0x95EA7B3 EQ PUSH2 0x1DC3 JUMPI DUP1 PUSH4 0xA2AC7B7 EQ PUSH2 0x17B5 JUMPI DUP1 PUSH4 0x10A78DF8 EQ PUSH2 0x16BA JUMPI DUP1 PUSH4 0x1803C2F5 EQ PUSH2 0x168D JUMPI DUP1 PUSH4 0x18160DDD EQ PUSH2 0x1670 JUMPI DUP1 PUSH4 0x1D880928 EQ PUSH2 0x1639 JUMPI DUP1 PUSH4 0x23B872DD EQ PUSH2 0x156D JUMPI DUP1 PUSH4 0x2E1A7D4D EQ PUSH2 0xEAD JUMPI DUP1 PUSH4 0x313CE567 EQ PUSH2 0xE91 JUMPI DUP1 PUSH4 0x39509351 EQ PUSH2 0xE42 JUMPI DUP1 PUSH4 0x544B1709 EQ PUSH2 0xCFF JUMPI DUP1 PUSH4 0x61AC3F99 EQ PUSH2 0xCD6 JUMPI DUP1 PUSH4 0x654E8E0C EQ PUSH2 0xCAF JUMPI DUP1 PUSH4 0x6C1DC077 EQ PUSH2 0xC86 JUMPI DUP1 PUSH4 0x6C98D513 EQ PUSH2 0xC5D JUMPI DUP1 PUSH4 0x70A08231 EQ PUSH2 0xC25 JUMPI DUP1 PUSH4 0x79BA5097 EQ PUSH2 0xB7E JUMPI DUP1 PUSH4 0x85572FFB EQ PUSH2 0x72D JUMPI DUP1 PUSH4 0x8CF19D19 EQ PUSH2 0x6E9 JUMPI DUP1 PUSH4 0x8DA5CB5B EQ PUSH2 0x6C1 JUMPI DUP1 PUSH4 0x95D89B41 EQ PUSH2 0x5A6 JUMPI DUP1 PUSH4 0x995714AE EQ PUSH2 0x4D1 JUMPI DUP1 PUSH4 0xA457C2D7 EQ PUSH2 0x428 JUMPI DUP1 PUSH4 0xA9059CBB EQ PUSH2 0x3F7 JUMPI DUP1 PUSH4 0xB0F479A1 EQ PUSH2 0x3B3 JUMPI DUP1 PUSH4 0xB2D92955 EQ PUSH2 0x320 JUMPI DUP1 PUSH4 0xC1586AF8 EQ PUSH2 0x2FA JUMPI DUP1 PUSH4 0xDD62ED3E EQ PUSH2 0x2AC JUMPI DUP1 PUSH4 0xDDF85603 EQ PUSH2 0x288 JUMPI DUP1 PUSH4 0xE12B948B EQ PUSH2 0x265 JUMPI PUSH4 0xF2FDE38B SUB PUSH2 0x11 JUMPI CALLVALUE PUSH2 0x261 JUMPI PUSH1 0x20 CALLDATASIZE PUSH1 0x3 NOT ADD SLT PUSH2 0x261 JUMPI PUSH2 0x1C4 PUSH2 0x2083 JUMP JUMPDEST SWAP1 PUSH2 0x1CD PUSH2 0x2933 JUMP JUMPDEST PUSH1 0x1 PUSH1 0x1 PUSH1 0xA0 SHL SUB SWAP2 DUP3 AND SWAP3 CALLER DUP5 EQ PUSH2 0x21E JUMPI POP POP PUSH1 0x1 DUP1 SLOAD PUSH1 0x1 PUSH1 0x1 PUSH1 0xA0 SHL SUB NOT AND DUP4 OR SWAP1 SSTORE DUP3 SLOAD AND PUSH32 0xED8889F560326EB138920D842192F0EB3DD22B4F139C87A2C57538E05BAE1278 DUP4 DUP1 LOG3 DUP1 RETURN JUMPDEST SWAP1 PUSH1 0x20 PUSH1 0x64 SWAP3 MLOAD SWAP2 PUSH3 0x461BCD PUSH1 0xE5 SHL DUP4 MSTORE DUP3 ADD MSTORE PUSH1 0x17 PUSH1 0x24 DUP3 ADD MSTORE PUSH32 0x43616E6E6F74207472616E7366657220746F2073656C66000000000000000000 PUSH1 0x44 DUP3 ADD MSTORE REVERT JUMPDEST DUP3 DUP1 REVERT JUMPDEST POP POP CALLVALUE PUSH2 0x284 JUMPI DUP2 PUSH1 0x3 NOT CALLDATASIZE ADD SLT PUSH2 0x284 JUMPI PUSH1 0x20 SWAP1 PUSH1 0xA SLOAD SWAP1 MLOAD SWAP1 DUP2 MSTORE RETURN JUMPDEST POP DUP1 REVERT JUMPDEST POP POP CALLVALUE PUSH2 0x284 JUMPI DUP2 PUSH1 0x3 NOT CALLDATASIZE ADD SLT PUSH2 0x284 JUMPI PUSH1 0x20 SWAP1 PUSH1 0xFF PUSH1 0x7 SLOAD AND SWAP1 MLOAD SWAP1 ISZERO ISZERO DUP2 MSTORE RETURN JUMPDEST POP POP CALLVALUE PUSH2 0x284 JUMPI DUP1 PUSH1 0x3 NOT CALLDATASIZE ADD SLT PUSH2 0x284 JUMPI PUSH1 0x20 SWAP2 PUSH2 0x2C9 PUSH2 0x2083 JUMP JUMPDEST DUP3 PUSH2 0x2D2 PUSH2 0x2099 JUMP JUMPDEST PUSH1 0x1 PUSH1 0x1 PUSH1 0xA0 SHL SUB SWAP3 DUP4 AND DUP5 MSTORE PUSH1 0x3 DUP7 MSTORE SWAP3 KECCAK256 SWAP2 AND PUSH1 0x0 SWAP1 DUP2 MSTORE SWAP1 DUP4 MSTORE DUP2 SWAP1 KECCAK256 SLOAD SWAP1 MLOAD SWAP1 DUP2 MSTORE RETURN JUMPDEST POP POP CALLVALUE PUSH2 0x284 JUMPI PUSH1 0x20 SWAP1 PUSH2 0x319 PUSH2 0x310 CALLDATASIZE PUSH2 0x20EF JUMP JUMPDEST SWAP3 SWAP2 SWAP1 SWAP2 PUSH2 0x28DB JUMP JUMPDEST SWAP1 MLOAD SWAP1 DUP2 MSTORE RETURN JUMPDEST POP SWAP1 CALLVALUE PUSH2 0x261 JUMPI PUSH1 0x20 CALLDATASIZE PUSH1 0x3 NOT ADD SLT PUSH2 0x261 JUMPI PUSH2 0x100 SWAP3 DUP2 SWAP1 PUSH1 0x1 PUSH1 0x1 PUSH1 0xA0 SHL SUB PUSH2 0x349 PUSH2 0x2083 JUMP JUMPDEST AND DUP2 MSTORE PUSH1 0xB PUSH1 0x20 MSTORE KECCAK256 DUP1 SLOAD SWAP3 PUSH1 0x1 DUP3 ADD SLOAD PUSH1 0x2 DUP4 ADD SLOAD SWAP1 PUSH1 0x5 PUSH1 0x3 DUP6 ADD SLOAD SWAP4 DUP6 ADD SLOAD SWAP5 ADD SLOAD SWAP5 PUSH1 0x1 PUSH1 0x1 PUSH1 0x40 SHL SUB DUP2 MLOAD SWAP8 PUSH1 0xFF DUP2 AND ISZERO ISZERO DUP10 MSTORE PUSH1 0xFF DUP2 PUSH1 0x8 SHR AND ISZERO ISZERO PUSH1 0x20 DUP11 ADD MSTORE PUSH1 0x10 SHR AND SWAP1 DUP8 ADD MSTORE PUSH1 0x60 DUP7 ADD MSTORE PUSH1 0x80 DUP6 ADD MSTORE PUSH1 0xA0 DUP5 ADD MSTORE PUSH1 0xC0 DUP4 ADD MSTORE PUSH1 0xE0 DUP3 ADD MSTORE RETURN JUMPDEST POP POP CALLVALUE PUSH2 0x284 JUMPI DUP2 PUSH1 0x3 NOT CALLDATASIZE ADD SLT PUSH2 0x284 JUMPI MLOAD PUSH32 0x0 PUSH1 0x1 PUSH1 0x1 PUSH1 0xA0 SHL SUB AND DUP2 MSTORE PUSH1 0x20 SWAP1 RETURN JUMPDEST POP POP CALLVALUE PUSH2 0x284 JUMPI DUP1 PUSH1 0x3 NOT CALLDATASIZE ADD SLT PUSH2 0x284 JUMPI PUSH1 0x20 SWAP1 PUSH2 0x421 PUSH2 0x417 PUSH2 0x2083 JUMP JUMPDEST PUSH1 0x24 CALLDATALOAD SWAP1 CALLER PUSH2 0x256C JUMP JUMPDEST MLOAD PUSH1 0x1 DUP2 MSTORE RETURN JUMPDEST POP DUP3 CALLVALUE PUSH2 0x4CE JUMPI DUP3 PUSH1 0x3 NOT CALLDATASIZE ADD SLT PUSH2 0x4CE JUMPI PUSH2 0x442 PUSH2 0x2083 JUMP JUMPDEST SWAP2 DUP4 PUSH1 0x24 CALLDATALOAD SWAP3 CALLER DUP2 MSTORE PUSH1 0x3 PUSH1 0x20 MSTORE KECCAK256 PUSH1 0x1 DUP1 PUSH1 0xA0 SHL SUB DUP5 AND PUSH1 0x0 MSTORE PUSH1 0x20 MSTORE DUP4 PUSH1 0x0 KECCAK256 SLOAD SWAP1 DUP3 DUP3 LT PUSH2 0x47D JUMPI PUSH1 0x20 DUP6 PUSH2 0x421 DUP6 DUP6 SUB DUP8 CALLER PUSH2 0x2780 JUMP JUMPDEST PUSH1 0x84 SWAP1 PUSH1 0x20 DUP7 MLOAD SWAP2 PUSH3 0x461BCD PUSH1 0xE5 SHL DUP4 MSTORE DUP3 ADD MSTORE PUSH1 0x25 PUSH1 0x24 DUP3 ADD MSTORE PUSH32 0x45524332303A2064656372656173656420616C6C6F77616E63652062656C6F77 PUSH1 0x44 DUP3 ADD MSTORE PUSH5 0x207A65726F PUSH1 0xD8 SHL PUSH1 0x64 DUP3 ADD MSTORE REVERT JUMPDEST DUP1 REVERT JUMPDEST POP CALLVALUE PUSH2 0x261 JUMPI DUP3 PUSH1 0x3 NOT CALLDATASIZE ADD SLT PUSH2 0x261 JUMPI CALLER DUP4 MSTORE PUSH1 0xB PUSH1 0x20 MSTORE PUSH2 0x527 PUSH1 0x1 PUSH1 0x1 PUSH1 0x40 SHL SUB DUP1 DUP5 DUP7 KECCAK256 SLOAD PUSH1 0x10 SHR AND SWAP1 PUSH32 0x0 AND EQ PUSH2 0x2219 JUMP JUMPDEST CALLER DUP4 MSTORE PUSH1 0xB PUSH1 0x20 MSTORE PUSH1 0xFF DUP3 DUP5 KECCAK256 SLOAD AND ISZERO PUSH2 0x590 JUMPI POP CALLER DUP3 MSTORE PUSH1 0xB PUSH1 0x20 MSTORE DUP2 KECCAK256 PUSH2 0x100 PUSH2 0xFF00 NOT DUP3 SLOAD AND OR SWAP1 SSTORE CALLER PUSH1 0x1 PUSH1 0x1 PUSH1 0x60 SHL SUB PUSH1 0xA0 SHL PUSH1 0x9 SLOAD AND OR PUSH1 0x9 SSTORE PUSH1 0x1 PUSH32 0x8392741EF8E51329E7BD6D6010DB40081A08AD52773CFC62F82AC6626991CE83 DUP3 DUP1 LOG2 DUP1 RETURN JUMPDEST PUSH1 0x24 SWAP2 MLOAD SWAP1 PUSH4 0x6A9FF79F PUSH1 0xE1 SHL DUP3 MSTORE CALLER SWAP1 DUP3 ADD MSTORE REVERT JUMPDEST POP SWAP2 CALLVALUE PUSH2 0x4CE JUMPI DUP1 PUSH1 0x3 NOT CALLDATASIZE ADD SLT PUSH2 0x4CE JUMPI DUP2 MLOAD SWAP2 DUP2 PUSH1 0x6 SLOAD SWAP3 PUSH1 0x1 DUP5 DUP2 SHR SWAP2 DUP2 DUP7 AND SWAP6 DUP7 ISZERO PUSH2 0x6B7 JUMPI JUMPDEST PUSH1 0x20 SWAP7 DUP8 DUP6 LT DUP2 EQ PUSH2 0x6A4 JUMPI DUP9 SWAP10 POP SWAP7 DUP9 SWAP7 SWAP8 DUP6 DUP3 SWAP11 MSTORE SWAP2 DUP3 PUSH1 0x0 EQ PUSH2 0x67D JUMPI POP POP PUSH1 0x1 EQ PUSH2 0x621 JUMPI JUMPDEST POP POP POP PUSH2 0x61D SWAP3 SWAP2 PUSH2 0x60E SWAP2 SUB DUP6 PUSH2 0x21A2 JUMP JUMPDEST MLOAD SWAP3 DUP3 DUP5 SWAP4 DUP5 MSTORE DUP4 ADD SWAP1 PUSH2 0x20AF JUMP JUMPDEST SUB SWAP1 RETURN JUMPDEST SWAP2 SWAP1 DUP7 SWAP4 POP PUSH1 0x6 DUP4 MSTORE PUSH32 0xF652222313E28459528D920B65115C16C04F3EFC82AAEDC97BE59F3F377C0D3F JUMPDEST DUP3 DUP5 LT PUSH2 0x665 JUMPI POP POP POP DUP3 ADD ADD DUP2 PUSH2 0x60E PUSH2 0x61D PUSH2 0x5FB JUMP JUMPDEST DUP1 SLOAD DUP5 DUP11 ADD DUP7 ADD MSTORE DUP9 SWAP6 POP DUP8 SWAP5 SWAP1 SWAP4 ADD SWAP3 DUP2 ADD PUSH2 0x64C JUMP JUMPDEST PUSH1 0xFF NOT AND DUP8 DUP3 ADD MSTORE SWAP4 ISZERO ISZERO PUSH1 0x5 SHL DUP7 ADD SWAP1 SWAP4 ADD SWAP4 POP DUP5 SWAP3 POP PUSH2 0x60E SWAP2 POP PUSH2 0x61D SWAP1 POP PUSH2 0x5FB JUMP JUMPDEST PUSH4 0x4E487B71 PUSH1 0xE0 SHL DUP4 MSTORE PUSH1 0x22 DUP11 MSTORE PUSH1 0x24 DUP4 REVERT JUMPDEST SWAP3 PUSH1 0x7F AND SWAP3 PUSH2 0x5D1 JUMP JUMPDEST POP POP CALLVALUE PUSH2 0x284 JUMPI DUP2 PUSH1 0x3 NOT CALLDATASIZE ADD SLT PUSH2 0x284 JUMPI SWAP1 SLOAD SWAP1 MLOAD PUSH1 0x1 PUSH1 0x1 PUSH1 0xA0 SHL SUB SWAP1 SWAP2 AND DUP2 MSTORE PUSH1 0x20 SWAP1 RETURN JUMPDEST POP POP CALLVALUE PUSH2 0x284 JUMPI DUP2 PUSH1 0x3 NOT CALLDATASIZE ADD SLT PUSH2 0x284 JUMPI PUSH1 0x20 SWAP1 MLOAD PUSH1 0x1 PUSH1 0x1 PUSH1 0x40 SHL SUB PUSH32 0x0 AND DUP2 MSTORE RETURN JUMPDEST POP CALLVALUE PUSH2 0x261 JUMPI PUSH1 0x20 SWAP2 PUSH1 0x3 NOT DUP4 DUP2 CALLDATASIZE ADD SLT PUSH2 0x90E JUMPI DUP3 CALLDATALOAD SWAP1 PUSH1 0x1 PUSH1 0x1 PUSH1 0x40 SHL SUB SWAP1 DUP2 DUP4 GT PUSH2 0xAB2 JUMPI PUSH1 0xA0 SWAP1 DUP4 CALLDATASIZE SUB ADD SLT PUSH2 0x9AF JUMPI PUSH1 0x1 PUSH1 0x1 PUSH1 0xA0 SHL SUB SWAP4 PUSH32 0x0 DUP6 AND CALLER SUB PUSH2 0xB67 JUMPI DUP4 MLOAD SWAP2 PUSH2 0x79F DUP4 PUSH2 0x210D JUMP JUMPDEST DUP4 DUP3 ADD CALLDATALOAD DUP4 MSTORE PUSH1 0x24 SWAP1 DUP2 DUP6 ADD CALLDATALOAD DUP2 DUP2 AND DUP2 SUB PUSH2 0xB46 JUMPI DUP9 DUP6 ADD MSTORE PUSH1 0x44 DUP6 ADD CALLDATALOAD DUP2 DUP2 GT PUSH2 0xAAA JUMPI PUSH2 0x7D4 SWAP1 DUP5 CALLDATASIZE SWAP2 DUP9 ADD ADD PUSH2 0x21C3 JUMP JUMPDEST SWAP4 DUP7 DUP2 ADD SWAP5 DUP6 MSTORE PUSH1 0x64 DUP7 ADD CALLDATALOAD DUP3 DUP2 GT PUSH2 0xAAE JUMPI PUSH2 0x7F6 SWAP1 DUP6 CALLDATASIZE SWAP2 DUP10 ADD ADD PUSH2 0x21C3 JUMP JUMPDEST SWAP6 PUSH1 0x60 DUP3 ADD SWAP7 DUP8 MSTORE PUSH1 0x84 DUP2 ADD CALLDATALOAD SWAP1 DUP4 DUP3 GT PUSH2 0xB63 JUMPI ADD CALLDATASIZE PUSH1 0x23 DUP3 ADD SLT ISZERO PUSH2 0xAAE JUMPI DUP5 DUP2 ADD CALLDATALOAD SWAP3 DUP4 GT PUSH2 0xB4F JUMPI DUP8 MLOAD SWAP3 PUSH2 0x834 DUP12 DUP3 PUSH1 0x5 SHL ADD DUP6 PUSH2 0x21A2 JUMP JUMPDEST DUP1 DUP5 MSTORE DUP5 DUP12 DUP6 ADD SWAP2 PUSH1 0x6 SHL DUP4 ADD ADD SWAP2 CALLDATASIZE DUP4 GT PUSH2 0xB4B JUMPI DUP6 ADD SWAP1 JUMPDEST DUP3 DUP3 LT PUSH2 0xB0C JUMPI POP POP POP PUSH1 0x80 ADD MSTORE DUP3 MLOAD DUP8 DUP2 DUP1 MLOAD DUP2 ADD SUB SLT PUSH2 0xAA6 JUMPI PUSH2 0x876 DUP9 DUP9 SWAP3 ADD PUSH2 0x2882 JUMP JUMPDEST AND DUP1 DUP10 MSTORE PUSH1 0xB DUP9 MSTORE PUSH1 0xFF DUP7 DUP11 KECCAK256 SLOAD AND ISZERO PUSH2 0xAF7 JUMPI POP DUP4 MLOAD DUP8 DUP2 DUP1 MLOAD DUP2 ADD SUB SLT PUSH2 0xAA6 JUMPI PUSH2 0x8A6 DUP9 PUSH1 0xFF SWAP3 ADD PUSH2 0x2896 JUMP JUMPDEST AND DUP1 PUSH2 0x912 JUMPI POP POP POP POP MLOAD SWAP3 PUSH1 0x60 DUP5 DUP1 MLOAD DUP2 ADD SUB SLT PUSH2 0x90E JUMPI PUSH1 0x60 SWAP2 PUSH2 0x8D0 PUSH2 0x8D8 SWAP3 DUP7 ADD PUSH2 0x2896 JUMP JUMPDEST POP DUP5 ADD PUSH2 0x2882 JUMP JUMPDEST SWAP3 ADD MLOAD SWAP2 AND PUSH2 0x8E7 DUP3 DUP3 PUSH2 0x26DC JUMP JUMPDEST PUSH32 0xB55160CC367B9CDF2289AF15A6163D786DE0A3D0722F78F652DEC347580C8564 DUP4 DUP1 LOG3 DUP1 RETURN JUMPDEST DUP5 DUP1 REVERT JUMPDEST SWAP6 SWAP7 SWAP6 SWAP3 SWAP5 SWAP4 SWAP2 SWAP3 PUSH1 0x1 DUP2 SUB PUSH2 0x9B3 JUMPI POP POP POP POP DUP2 MLOAD DUP4 DUP2 DUP1 MLOAD DUP2 ADD SUB SLT PUSH2 0x9AF JUMPI PUSH2 0x940 DUP5 DUP7 SWAP3 ADD PUSH2 0x2882 JUMP JUMPDEST AND DUP6 MSTORE PUSH1 0xB DUP4 MSTORE DUP5 KECCAK256 PUSH2 0x100 PUSH2 0xFF00 NOT DUP3 SLOAD AND OR SWAP1 SSTORE MLOAD SWAP1 DUP1 DUP3 DUP1 MLOAD DUP2 ADD SUB SLT PUSH2 0x9AB JUMPI PUSH2 0x96E SWAP2 ADD PUSH2 0x2882 JUMP JUMPDEST AND PUSH1 0x1 PUSH1 0x1 PUSH1 0x60 SHL SUB PUSH1 0xA0 SHL PUSH1 0x9 SLOAD AND OR PUSH1 0x9 SSTORE PUSH1 0x1 PUSH32 0x8392741EF8E51329E7BD6D6010DB40081A08AD52773CFC62F82AC6626991CE83 DUP3 DUP1 LOG2 DUP1 RETURN JUMPDEST DUP4 DUP1 REVERT JUMPDEST DUP6 DUP1 REVERT JUMPDEST SWAP3 SWAP7 SWAP4 SWAP5 SWAP3 PUSH1 0x2 SUB PUSH2 0xAB6 JUMPI POP MLOAD PUSH1 0xA0 DUP2 DUP1 MLOAD DUP2 ADD SUB SLT PUSH2 0xAB2 JUMPI PUSH2 0x9D9 DUP6 DUP3 ADD PUSH2 0x2896 JUMP JUMPDEST POP DUP4 DUP2 ADD MLOAD SWAP6 PUSH1 0x60 DUP3 ADD MLOAD PUSH1 0xA0 PUSH1 0x80 DUP5 ADD MLOAD SWAP4 ADD MLOAD SWAP8 DUP5 MLOAD DUP9 DUP2 DUP1 MLOAD DUP2 ADD SUB SLT PUSH2 0xAAE JUMPI PUSH2 0xA09 DUP10 DUP9 SWAP3 ADD PUSH2 0x2882 JUMP JUMPDEST AND DUP11 MSTORE PUSH1 0xB DUP9 MSTORE TIMESTAMP PUSH1 0x1 DUP9 DUP13 KECCAK256 ADD SSTORE DUP5 MLOAD DUP9 DUP2 DUP1 MLOAD DUP2 ADD SUB SLT PUSH2 0xAAE JUMPI PUSH2 0xA32 DUP10 DUP9 SWAP3 ADD PUSH2 0x2882 JUMP JUMPDEST AND DUP11 MSTORE PUSH1 0x2 DUP8 DUP12 KECCAK256 ADD SSTORE DUP4 MLOAD DUP8 DUP2 DUP1 MLOAD DUP2 ADD SUB SLT PUSH2 0xAAA JUMPI PUSH2 0xA56 DUP9 DUP8 SWAP3 ADD PUSH2 0x2882 JUMP JUMPDEST AND DUP10 MSTORE PUSH1 0x3 DUP7 DUP11 KECCAK256 ADD SSTORE DUP3 MLOAD DUP7 DUP2 DUP1 MLOAD DUP2 ADD SUB SLT PUSH2 0xAA6 JUMPI PUSH2 0xA7A DUP8 DUP7 SWAP3 ADD PUSH2 0x2882 JUMP JUMPDEST AND DUP9 MSTORE DUP5 DUP9 KECCAK256 ADD SSTORE MLOAD DUP4 DUP2 DUP1 MLOAD DUP2 ADD SUB SLT PUSH2 0x9AF JUMPI PUSH1 0x5 SWAP4 PUSH2 0xA9C SWAP2 ADD PUSH2 0x2882 JUMP JUMPDEST AND DUP5 MSTORE DUP4 KECCAK256 ADD SSTORE DUP1 RETURN JUMPDEST DUP9 DUP1 REVERT JUMPDEST DUP10 DUP1 REVERT JUMPDEST DUP11 DUP1 REVERT JUMPDEST DUP7 DUP1 REVERT JUMPDEST DUP7 PUSH1 0x19 PUSH1 0x64 SWAP3 DUP9 DUP9 MLOAD SWAP4 PUSH3 0x461BCD PUSH1 0xE5 SHL DUP6 MSTORE DUP5 ADD MSTORE DUP3 ADD MSTORE PUSH32 0x696E76616C696420636F6D6D616E642066726F6D204E6F646500000000000000 PUSH1 0x44 DUP3 ADD MSTORE REVERT JUMPDEST DUP6 MLOAD PUSH4 0x6A9FF79F PUSH1 0xE1 SHL DUP2 MSTORE DUP1 DUP5 ADD SWAP2 SWAP1 SWAP2 MSTORE REVERT JUMPDEST DUP10 DUP3 CALLDATASIZE SUB SLT PUSH2 0xB4B JUMPI DUP10 MLOAD SWAP1 PUSH2 0xB21 DUP3 PUSH2 0x216C JUMP JUMPDEST DUP3 CALLDATALOAD SWAP1 DUP13 DUP3 AND DUP3 SUB PUSH2 0xB46 JUMPI DUP3 DUP15 SWAP3 DUP14 SWAP5 MSTORE DUP3 DUP6 ADD CALLDATALOAD DUP4 DUP3 ADD MSTORE DUP2 MSTORE ADD SWAP2 ADD SWAP1 PUSH2 0x84E JUMP JUMPDEST PUSH1 0x0 DUP1 REVERT JUMPDEST DUP13 DUP1 REVERT JUMPDEST DUP4 PUSH1 0x41 DUP7 PUSH4 0x4E487B71 PUSH1 0xE0 SHL PUSH1 0x0 MSTORE MSTORE PUSH1 0x0 REVERT JUMPDEST DUP12 DUP1 REVERT JUMPDEST PUSH1 0x24 SWAP1 DUP5 MLOAD SWAP1 PUSH4 0x35FDCCCD PUSH1 0xE2 SHL DUP3 MSTORE CALLER SWAP1 DUP3 ADD MSTORE REVERT JUMPDEST POP SWAP1 CALLVALUE PUSH2 0x261 JUMPI DUP3 PUSH1 0x3 NOT CALLDATASIZE ADD SLT PUSH2 0x261 JUMPI PUSH1 0x1 SLOAD SWAP2 PUSH1 0x1 PUSH1 0x1 PUSH1 0xA0 SHL SUB SWAP2 DUP3 DUP5 AND CALLER SUB PUSH2 0xBE9 JUMPI POP POP DUP3 SLOAD PUSH1 0x1 PUSH1 0x1 PUSH1 0xA0 SHL SUB NOT DUP1 DUP3 AND CALLER SWAP1 DUP2 OR DUP7 SSTORE SWAP4 AND PUSH1 0x1 SSTORE AND PUSH32 0x8BE0079C531659141344CD1FD0A4F28419497F9722A3DAAFE3B4186F6B6457E0 DUP4 DUP1 LOG3 DUP1 RETURN JUMPDEST SWAP1 PUSH1 0x20 PUSH1 0x64 SWAP3 MLOAD SWAP2 PUSH3 0x461BCD PUSH1 0xE5 SHL DUP4 MSTORE DUP3 ADD MSTORE PUSH1 0x16 PUSH1 0x24 DUP3 ADD MSTORE PUSH22 0x26BAB9BA10313290383937B837B9B2B21037BBB732B9 PUSH1 0x51 SHL PUSH1 0x44 DUP3 ADD MSTORE REVERT JUMPDEST POP POP CALLVALUE PUSH2 0x284 JUMPI PUSH1 0x20 CALLDATASIZE PUSH1 0x3 NOT ADD SLT PUSH2 0x284 JUMPI PUSH1 0x20 SWAP2 DUP2 SWAP1 PUSH1 0x1 PUSH1 0x1 PUSH1 0xA0 SHL SUB PUSH2 0xC4D PUSH2 0x2083 JUMP JUMPDEST AND DUP2 MSTORE PUSH1 0x2 DUP5 MSTORE KECCAK256 SLOAD SWAP1 MLOAD SWAP1 DUP2 MSTORE RETURN JUMPDEST DUP4 CALLVALUE PUSH2 0x4CE JUMPI DUP1 PUSH1 0x3 NOT CALLDATASIZE ADD SLT PUSH2 0x4CE JUMPI PUSH2 0xC76 PUSH2 0x2933 JUMP JUMPDEST PUSH1 0x7 DUP1 SLOAD PUSH1 0xFF PUSH1 0xA8 SHL NOT AND SWAP1 SSTORE DUP1 RETURN JUMPDEST POP POP CALLVALUE PUSH2 0x284 JUMPI DUP2 PUSH1 0x3 NOT CALLDATASIZE ADD SLT PUSH2 0x284 JUMPI PUSH1 0x9 SLOAD SWAP1 MLOAD PUSH1 0x1 PUSH1 0x1 PUSH1 0xA0 SHL SUB SWAP1 SWAP2 AND DUP2 MSTORE PUSH1 0x20 SWAP1 RETURN JUMPDEST POP POP CALLVALUE PUSH2 0x284 JUMPI DUP2 PUSH1 0x3 NOT CALLDATASIZE ADD SLT PUSH2 0x284 JUMPI PUSH1 0x20 SWAP1 PUSH1 0xFF PUSH1 0x7 SLOAD PUSH1 0xA8 SHR AND SWAP1 MLOAD SWAP1 ISZERO ISZERO DUP2 MSTORE RETURN JUMPDEST POP POP CALLVALUE PUSH2 0x284 JUMPI DUP2 PUSH1 0x3 NOT CALLDATASIZE ADD SLT PUSH2 0x284 JUMPI PUSH1 0x8 SLOAD SWAP1 MLOAD PUSH1 0x1 PUSH1 0x1 PUSH1 0xA0 SHL SUB SWAP1 SWAP2 AND DUP2 MSTORE PUSH1 0x20 SWAP1 RETURN JUMPDEST POP SWAP2 CALLVALUE PUSH2 0x4CE JUMPI PUSH1 0xA0 CALLDATASIZE PUSH1 0x3 NOT ADD SLT PUSH2 0x4CE JUMPI DUP3 CALLDATALOAD SWAP2 PUSH1 0x1 PUSH1 0x1 PUSH1 0x40 SHL SUB SWAP4 DUP5 DUP5 AND DUP5 SUB PUSH2 0xB46 JUMPI PUSH2 0xD2F PUSH2 0x2099 JUMP JUMPDEST PUSH1 0x1 PUSH1 0x1 PUSH1 0xA0 SHL SUB SWAP5 SWAP1 SWAP2 PUSH1 0x44 CALLDATALOAD DUP7 DUP2 AND SWAP3 SWAP1 DUP4 SWAP1 SUB PUSH2 0xB46 JUMPI PUSH1 0x64 CALLDATALOAD SWAP2 DUP8 DUP4 AND DUP1 SWAP4 SUB PUSH2 0xB46 JUMPI PUSH1 0x84 CALLDATALOAD SWAP9 DUP10 GT PUSH2 0xAB2 JUMPI PUSH2 0xD74 PUSH2 0xDF0 SWAP7 SWAP8 SWAP9 SWAP10 CALLDATASIZE SWAP1 DUP4 ADD PUSH2 0x21C3 JUMP JUMPDEST DUP8 MLOAD SWAP5 PUSH1 0x20 SWAP11 DUP12 SWAP8 AND DUP8 DUP8 ADD MSTORE DUP7 DUP7 MSTORE PUSH2 0xD8D DUP7 PUSH2 0x216C JUMP JUMPDEST DUP9 MLOAD PUSH2 0xD98 DUP2 PUSH2 0x213E JUMP JUMPDEST PUSH1 0x0 DUP2 MSTORE PUSH2 0xDB5 DUP11 MLOAD PUSH2 0xDAA DUP2 PUSH2 0x213E JUMP JUMPDEST PUSH3 0xF4240 DUP2 MSTORE PUSH2 0x28A4 JUMP JUMPDEST SWAP3 DUP11 MLOAD SWAP8 PUSH2 0xDC2 DUP10 PUSH2 0x210D JUMP JUMPDEST DUP9 MSTORE DUP9 DUP9 ADD MSTORE DUP10 DUP8 ADD MSTORE PUSH1 0x60 DUP7 ADD MSTORE PUSH1 0x80 DUP6 ADD MSTORE DUP7 MLOAD PUSH4 0x20487DED PUSH1 0xE0 SHL DUP2 MSTORE SWAP6 DUP7 SWAP5 DUP6 SWAP4 DUP5 SWAP4 DUP5 ADD PUSH2 0x2273 JUMP JUMPDEST SUB SWAP2 GAS STATICCALL SWAP3 DUP4 ISZERO PUSH2 0xE37 JUMPI SWAP3 PUSH2 0xE08 JUMPI JUMPDEST POP MLOAD SWAP1 DUP2 MSTORE RETURN JUMPDEST SWAP1 SWAP2 POP DUP3 DUP2 DUP2 RETURNDATASIZE DUP4 GT PUSH2 0xE30 JUMPI JUMPDEST PUSH2 0xE20 DUP2 DUP4 PUSH2 0x21A2 JUMP JUMPDEST DUP2 ADD SUB SLT PUSH2 0xB46 JUMPI MLOAD SWAP1 CODESIZE PUSH2 0xE01 JUMP JUMPDEST POP RETURNDATASIZE PUSH2 0xE16 JUMP JUMPDEST DUP3 MLOAD SWAP1 RETURNDATASIZE SWAP1 DUP3 RETURNDATACOPY RETURNDATASIZE SWAP1 REVERT JUMPDEST POP POP CALLVALUE PUSH2 0x284 JUMPI DUP1 PUSH1 0x3 NOT CALLDATASIZE ADD SLT PUSH2 0x284 JUMPI PUSH2 0x421 PUSH1 0x20 SWAP3 DUP3 PUSH2 0xE63 PUSH2 0x2083 JUMP JUMPDEST SWAP2 CALLER DUP2 MSTORE PUSH1 0x3 DUP7 MSTORE KECCAK256 PUSH1 0x1 DUP1 PUSH1 0xA0 SHL SUB DUP3 AND PUSH1 0x0 MSTORE DUP5 MSTORE PUSH2 0xE8A PUSH1 0x24 CALLDATALOAD DUP5 PUSH1 0x0 KECCAK256 SLOAD PUSH2 0x2357 JUMP JUMPDEST SWAP1 CALLER PUSH2 0x2780 JUMP JUMPDEST POP POP CALLVALUE PUSH2 0x284 JUMPI DUP2 PUSH1 0x3 NOT CALLDATASIZE ADD SLT PUSH2 0x284 JUMPI PUSH1 0x20 SWAP1 MLOAD PUSH1 0x12 DUP2 MSTORE RETURN JUMPDEST POP SWAP1 CALLVALUE PUSH2 0x261 JUMPI PUSH1 0x20 SWAP2 DUP3 PUSH1 0x3 NOT CALLDATASIZE ADD SLT PUSH2 0x9AB JUMPI PUSH1 0x9 SLOAD PUSH1 0x1 PUSH1 0x1 PUSH1 0xA0 SHL SUB SWAP1 DUP2 AND DUP6 MSTORE PUSH1 0xB DUP5 MSTORE DUP3 DUP6 KECCAK256 SLOAD DUP3 CALLDATALOAD SWAP5 SWAP1 PUSH1 0x8 SHR PUSH1 0xFF AND ISZERO PUSH2 0x1536 JUMPI CALLER DUP7 MSTORE PUSH1 0x2 DUP2 MSTORE DUP4 DUP7 KECCAK256 SLOAD DUP6 GT PUSH2 0x14FE JUMPI DUP4 MLOAD SWAP3 DUP7 DUP3 DUP6 ADD MSTORE CALLER DUP6 DUP6 ADD MSTORE PUSH1 0x60 DUP7 DUP2 DUP7 ADD MSTORE DUP1 DUP6 MSTORE PUSH2 0xF1A DUP6 PUSH2 0x2187 JUMP JUMPDEST CALLER ISZERO PUSH2 0x14B2 JUMPI CALLER DUP9 MSTORE PUSH1 0x2 DUP4 MSTORE DUP6 DUP9 KECCAK256 SLOAD DUP8 DUP2 LT PUSH2 0x1464 JUMPI SWAP1 DUP8 DUP10 SWAP4 SWAP3 CALLER DUP6 MSTORE PUSH1 0x2 DUP7 MSTORE SUB DUP8 DUP5 KECCAK256 SSTORE DUP8 DUP3 SLOAD SUB DUP3 SSTORE DUP3 DUP8 MLOAD DUP10 DUP2 MSTORE PUSH32 0xDDF252AD1BE2C89B69C2B068FC378DAA952BA7F163C4A11628F55A4DF523B3EF DUP7 CALLER SWAP3 LOG3 DUP5 PUSH1 0x9 SLOAD AND SWAP1 DUP2 DUP5 MSTORE PUSH1 0xB DUP6 MSTORE DUP8 DUP5 KECCAK256 SLOAD PUSH1 0x1 PUSH1 0x1 PUSH1 0x40 SHL SUB SWAP8 DUP9 DUP3 PUSH1 0x10 SHR AND SWAP2 DUP10 PUSH32 0x0 AND DUP4 EQ PUSH1 0x0 EQ PUSH2 0x1064 JUMPI POP POP POP POP POP DUP4 PUSH1 0x9 SLOAD AND DUP1 EXTCODESIZE ISZERO PUSH2 0x261 JUMPI DUP7 MLOAD PUSH4 0x15E005B7 PUSH1 0xE3 SHL DUP2 MSTORE CALLER SWAP3 DUP2 ADD SWAP3 DUP4 MSTORE PUSH1 0x20 DUP4 ADD DUP10 SWAP1 MSTORE SWAP2 DUP4 SWAP2 DUP4 SWAP2 DUP3 SWAP1 DUP5 SWAP1 DUP3 SWAP1 PUSH1 0x40 ADD SUB SWAP3 GAS CALL DUP1 ISZERO PUSH2 0x105A JUMPI PUSH2 0x1046 JUMPI JUMPDEST POP POP PUSH1 0xB SWAP2 JUMPDEST PUSH1 0x9 SLOAD AND DUP7 MSTORE MSTORE CALLER SWAP2 DUP5 KECCAK256 SLOAD PUSH1 0x10 SHR AND PUSH32 0xF3F4E036F86C1437E14FAC401835B304A1B76776B49E2E2A4D86C119433B80CF DUP5 DUP1 LOG4 DUP1 RETURN JUMPDEST PUSH2 0x104F SWAP1 PUSH2 0x2159 JUMP JUMPDEST PUSH2 0x9AF JUMPI DUP6 CODESIZE PUSH2 0x1009 JUMP JUMPDEST DUP7 MLOAD RETURNDATASIZE DUP5 DUP3 RETURNDATACOPY RETURNDATASIZE SWAP1 REVERT JUMPDEST PUSH1 0xFF SWAP2 SWAP3 SWAP5 SWAP7 POP SWAP5 SWAP3 SWAP5 AND ISZERO PUSH2 0x144D JUMPI DUP9 DUP5 DUP1 PUSH1 0x80 DUP10 DUP16 DUP13 PUSH1 0x7 SLOAD PUSH1 0x8 SHR AND SWAP10 DUP7 DUP2 DUP13 SWAP9 MLOAD SWAP5 PUSH2 0x1093 DUP7 PUSH2 0x210D JUMP JUMPDEST DUP2 DUP7 MSTORE DUP6 ADD MSTORE DUP4 ADD MSTORE DUP4 DUP3 ADD MSTORE ADD MSTORE DUP11 MLOAD SWAP7 DUP9 DUP9 ADD MSTORE DUP8 DUP8 MSTORE PUSH2 0x10B5 DUP8 PUSH2 0x216C JUMP JUMPDEST DUP11 MLOAD PUSH2 0x10C0 DUP2 PUSH2 0x213E JUMP JUMPDEST PUSH1 0x0 DUP2 MSTORE PUSH2 0x10DD DUP13 MLOAD PUSH2 0x10D2 DUP2 PUSH2 0x213E JUMP JUMPDEST PUSH3 0x1E8480 DUP2 MSTORE PUSH2 0x28A4 JUMP JUMPDEST SWAP4 DUP13 MLOAD SWAP9 PUSH2 0x10EA DUP11 PUSH2 0x210D JUMP JUMPDEST DUP10 MSTORE DUP10 DUP10 ADD MSTORE DUP12 DUP9 ADD MSTORE DUP7 ADD MSTORE PUSH1 0x80 DUP6 ADD MSTORE DUP8 MLOAD PUSH4 0xB0F479A1 PUSH1 0xE0 SHL DUP2 MSTORE DUP6 DUP2 DUP4 DUP2 ADDRESS GAS STATICCALL SWAP1 DUP2 ISZERO PUSH2 0x1443 JUMPI SWAP1 DUP8 SWAP2 DUP13 SWAP2 PUSH2 0x1409 JUMPI JUMPDEST POP DUP10 MLOAD PUSH4 0x20487DED PUSH1 0xE0 SHL DUP2 MSTORE SWAP2 AND SWAP4 DUP12 SWAP1 DUP8 DUP4 DUP1 PUSH2 0x1142 DUP11 DUP10 DUP10 DUP5 ADD PUSH2 0x2273 JUMP JUMPDEST SUB DUP2 DUP10 GAS STATICCALL SWAP3 DUP4 ISZERO PUSH2 0x13FF JUMPI SWAP1 DUP9 SWAP2 DUP4 SWAP5 PUSH2 0x13CD JUMPI JUMPDEST POP PUSH1 0x64 DUP13 MLOAD DUP1 SWAP5 DUP2 SWAP4 PUSH4 0x23B872DD PUSH1 0xE0 SHL DUP4 MSTORE CALLER DUP10 DUP5 ADD MSTORE ADDRESS PUSH1 0x24 DUP5 ADD MSTORE DUP8 PUSH1 0x44 DUP5 ADD MSTORE GAS CALL SWAP1 DUP2 ISZERO PUSH2 0x13C3 JUMPI DUP13 SWAP2 PUSH2 0x13A6 JUMPI JUMPDEST POP ISZERO PUSH2 0x1363 JUMPI DUP7 PUSH1 0x7 SLOAD PUSH1 0x8 SHR AND SWAP1 DUP10 MLOAD DUP13 PUSH4 0x70A08231 PUSH1 0xE0 SHL SWAP2 DUP3 DUP2 MSTORE ADDRESS DUP7 DUP3 ADD MSTORE DUP10 DUP2 PUSH1 0x24 DUP2 DUP9 GAS STATICCALL SWAP2 DUP3 ISZERO PUSH2 0x1358 JUMPI SWAP2 PUSH2 0x132B JUMPI JUMPDEST POP DUP3 GT PUSH2 0x12BA JUMPI POP DUP10 MLOAD PUSH4 0x95EA7B3 PUSH1 0xE0 SHL DUP2 MSTORE PUSH1 0x1 PUSH1 0x1 PUSH1 0xA0 SHL SUB DUP7 AND DUP2 DUP6 ADD SWAP1 DUP2 MSTORE PUSH1 0x20 DUP2 ADD SWAP3 SWAP1 SWAP3 MSTORE DUP13 SWAP4 SWAP3 SWAP1 SWAP2 DUP9 SWAP2 DUP4 SWAP2 DUP3 SWAP1 DUP8 SWAP1 DUP3 SWAP1 PUSH1 0x40 ADD SUB SWAP3 GAS CALL DUP1 ISZERO PUSH2 0x12B0 JUMPI SWAP2 DUP8 SWAP6 SWAP4 SWAP2 PUSH2 0x1237 SWAP8 SWAP6 SWAP4 PUSH2 0x1283 JUMPI JUMPDEST POP DUP11 MLOAD PUSH4 0x96F4E9F9 PUSH1 0xE0 SHL DUP2 MSTORE SWAP7 DUP8 SWAP6 DUP7 SWAP5 DUP6 SWAP4 DUP5 ADD PUSH2 0x2273 JUMP JUMPDEST SUB SWAP3 GAS CALL DUP1 ISZERO PUSH2 0x1279 JUMPI PUSH2 0x124F JUMPI JUMPDEST POP PUSH1 0xB SWAP2 PUSH2 0x100F JUMP JUMPDEST DUP2 SWAP1 DUP2 RETURNDATASIZE DUP4 GT PUSH2 0x1272 JUMPI JUMPDEST PUSH2 0x1264 DUP2 DUP4 PUSH2 0x21A2 JUMP JUMPDEST DUP2 ADD SUB SLT PUSH2 0x9AF JUMPI CODESIZE PUSH2 0x1246 JUMP JUMPDEST POP RETURNDATASIZE PUSH2 0x125A JUMP JUMPDEST DUP6 MLOAD RETURNDATASIZE DUP10 DUP3 RETURNDATACOPY RETURNDATASIZE SWAP1 REVERT JUMPDEST PUSH2 0x12A2 SWAP1 DUP8 RETURNDATASIZE DUP10 GT PUSH2 0x12A9 JUMPI JUMPDEST PUSH2 0x129A DUP2 DUP4 PUSH2 0x21A2 JUMP JUMPDEST DUP2 ADD SWAP1 PUSH2 0x233F JUMP JUMPDEST POP CODESIZE PUSH2 0x121C JUMP JUMPDEST POP RETURNDATASIZE PUSH2 0x1290 JUMP JUMPDEST DUP11 MLOAD RETURNDATASIZE DUP6 DUP3 RETURNDATACOPY RETURNDATASIZE SWAP1 REVERT JUMPDEST SWAP1 DUP13 DUP12 DUP10 DUP1 DUP8 SWAP6 PUSH1 0x24 DUP5 MLOAD DUP1 SWAP10 DUP2 SWAP4 DUP3 MSTORE ADDRESS DUP11 DUP4 ADD MSTORE GAS STATICCALL SWAP3 DUP4 ISZERO PUSH2 0xE37 JUMPI SWAP3 PUSH2 0x12FA JUMPI JUMPDEST POP MLOAD PUSH4 0x4787A103 PUSH1 0xE1 SHL DUP2 MSTORE SWAP3 DUP4 ADD MSTORE PUSH1 0x24 DUP3 ADD MSTORE PUSH1 0x44 SWAP2 POP REVERT JUMPDEST SWAP1 SWAP2 POP DUP5 DUP2 RETURNDATASIZE DUP4 GT PUSH2 0x1324 JUMPI JUMPDEST PUSH2 0x1311 DUP2 DUP4 PUSH2 0x21A2 JUMP JUMPDEST DUP2 ADD SUB SLT PUSH2 0xB46 JUMPI PUSH1 0x44 SWAP4 MLOAD SWAP1 DUP6 PUSH2 0x12DF JUMP JUMPDEST POP RETURNDATASIZE PUSH2 0x1307 JUMP JUMPDEST SWAP1 POP DUP9 DUP2 DUP2 RETURNDATASIZE DUP4 GT PUSH2 0x1351 JUMPI JUMPDEST PUSH2 0x1342 DUP2 DUP4 PUSH2 0x21A2 JUMP JUMPDEST DUP2 ADD SUB SLT PUSH2 0xB46 JUMPI MLOAD CODESIZE PUSH2 0x11C4 JUMP JUMPDEST POP RETURNDATASIZE PUSH2 0x1338 JUMP JUMPDEST DUP14 MLOAD SWAP1 RETURNDATASIZE SWAP1 DUP3 RETURNDATACOPY RETURNDATASIZE SWAP1 REVERT JUMPDEST DUP9 MLOAD PUSH3 0x461BCD PUSH1 0xE5 SHL DUP2 MSTORE DUP1 DUP4 ADD DUP8 SWAP1 MSTORE PUSH1 0x1A PUSH1 0x24 DUP3 ADD MSTORE PUSH32 0x4E6F742070726F7669646564204C696E6B20666F722066656573000000000000 PUSH1 0x44 DUP3 ADD MSTORE PUSH1 0x64 SWAP1 REVERT JUMPDEST PUSH2 0x13BD SWAP2 POP DUP8 RETURNDATASIZE DUP10 GT PUSH2 0x12A9 JUMPI PUSH2 0x129A DUP2 DUP4 PUSH2 0x21A2 JUMP JUMPDEST CODESIZE PUSH2 0x118C JUMP JUMPDEST DUP11 MLOAD RETURNDATASIZE DUP15 DUP3 RETURNDATACOPY RETURNDATASIZE SWAP1 REVERT JUMPDEST SWAP3 POP SWAP3 POP DUP2 DUP2 RETURNDATASIZE DUP4 GT PUSH2 0x13F8 JUMPI JUMPDEST PUSH2 0x13E5 DUP2 DUP4 PUSH2 0x21A2 JUMP JUMPDEST DUP2 ADD SUB SLT PUSH2 0xB46 JUMPI DUP7 DUP13 SWAP2 MLOAD SWAP3 CODESIZE PUSH2 0x1158 JUMP JUMPDEST POP RETURNDATASIZE PUSH2 0x13DB JUMP JUMPDEST DUP12 MLOAD RETURNDATASIZE DUP5 DUP3 RETURNDATACOPY RETURNDATASIZE SWAP1 REVERT JUMPDEST DUP1 SWAP3 POP DUP8 DUP1 SWAP3 POP RETURNDATASIZE DUP4 GT PUSH2 0x143C JUMPI JUMPDEST PUSH2 0x1422 DUP2 DUP4 PUSH2 0x21A2 JUMP JUMPDEST DUP2 ADD SUB SLT PUSH2 0xAAE JUMPI MLOAD DUP7 DUP2 AND DUP2 SUB PUSH2 0xAAE JUMPI DUP7 SWAP1 CODESIZE PUSH2 0x1120 JUMP JUMPDEST POP RETURNDATASIZE PUSH2 0x1418 JUMP JUMPDEST DUP10 MLOAD RETURNDATASIZE DUP14 DUP3 RETURNDATACOPY RETURNDATASIZE SWAP1 REVERT JUMPDEST DUP9 MLOAD PUSH4 0x6A9FF79F PUSH1 0xE1 SHL DUP2 MSTORE DUP1 DUP4 ADD DUP7 SWAP1 MSTORE PUSH1 0x24 SWAP1 REVERT JUMPDEST DUP7 MLOAD PUSH3 0x461BCD PUSH1 0xE5 SHL DUP2 MSTORE DUP1 DUP5 ADD DUP6 SWAP1 MSTORE PUSH1 0x22 PUSH1 0x24 DUP3 ADD MSTORE PUSH32 0x45524332303A206275726E20616D6F756E7420657863656564732062616C616E PUSH1 0x44 DUP3 ADD MSTORE PUSH2 0x6365 PUSH1 0xF0 SHL PUSH1 0x64 DUP3 ADD MSTORE PUSH1 0x84 SWAP1 REVERT JUMPDEST POP PUSH1 0x84 SWAP2 DUP6 MLOAD SWAP2 PUSH3 0x461BCD PUSH1 0xE5 SHL DUP4 MSTORE DUP3 ADD MSTORE PUSH1 0x21 PUSH1 0x24 DUP3 ADD MSTORE PUSH32 0x45524332303A206275726E2066726F6D20746865207A65726F20616464726573 PUSH1 0x44 DUP3 ADD MSTORE PUSH1 0x73 PUSH1 0xF8 SHL PUSH1 0x64 DUP3 ADD MSTORE REVERT JUMPDEST SWAP1 POP PUSH1 0x64 SWAP3 MLOAD SWAP2 PUSH3 0x461BCD PUSH1 0xE5 SHL DUP4 MSTORE DUP3 ADD MSTORE PUSH1 0x13 PUSH1 0x24 DUP3 ADD MSTORE PUSH19 0x4E6F7420656E6F756768742062616C616E6365 PUSH1 0x68 SHL PUSH1 0x44 DUP3 ADD MSTORE REVERT JUMPDEST SWAP1 POP PUSH1 0x64 SWAP3 MLOAD SWAP2 PUSH3 0x461BCD PUSH1 0xE5 SHL DUP4 MSTORE DUP3 ADD MSTORE PUSH1 0x12 PUSH1 0x24 DUP3 ADD MSTORE PUSH18 0x4E6F6465206973206E6F7420416374697665 PUSH1 0x70 SHL PUSH1 0x44 DUP3 ADD MSTORE REVERT JUMPDEST POP DUP3 SWAP1 CALLVALUE PUSH2 0x284 JUMPI PUSH1 0x60 CALLDATASIZE PUSH1 0x3 NOT ADD SLT PUSH2 0x284 JUMPI PUSH2 0x1589 PUSH2 0x2083 JUMP JUMPDEST PUSH2 0x1591 PUSH2 0x2099 JUMP JUMPDEST SWAP2 DUP5 PUSH1 0x44 CALLDATALOAD SWAP5 PUSH1 0x1 DUP1 PUSH1 0xA0 SHL SUB DUP5 AND DUP2 MSTORE PUSH1 0x3 PUSH1 0x20 MSTORE KECCAK256 CALLER PUSH1 0x0 MSTORE PUSH1 0x20 MSTORE DUP5 PUSH1 0x0 KECCAK256 SLOAD SWAP1 PUSH1 0x0 NOT DUP3 SUB PUSH2 0x15CD JUMPI JUMPDEST PUSH1 0x20 DUP7 PUSH2 0x421 DUP8 DUP8 DUP8 PUSH2 0x256C JUMP JUMPDEST DUP5 DUP3 LT PUSH2 0x15F6 JUMPI POP SWAP2 DUP4 SWAP2 PUSH2 0x15EB PUSH1 0x20 SWAP7 SWAP6 PUSH2 0x421 SWAP6 SUB CALLER DUP4 PUSH2 0x2780 JUMP JUMPDEST SWAP2 SWAP4 SWAP5 DUP2 SWAP4 POP PUSH2 0x15BF JUMP JUMPDEST PUSH1 0x64 SWAP1 PUSH1 0x20 DUP8 MLOAD SWAP2 PUSH3 0x461BCD PUSH1 0xE5 SHL DUP4 MSTORE DUP3 ADD MSTORE PUSH1 0x1D PUSH1 0x24 DUP3 ADD MSTORE PUSH32 0x45524332303A20696E73756666696369656E7420616C6C6F77616E6365000000 PUSH1 0x44 DUP3 ADD MSTORE REVERT JUMPDEST POP POP CALLVALUE PUSH2 0x284 JUMPI DUP1 PUSH1 0x3 NOT CALLDATASIZE ADD SLT PUSH2 0x284 JUMPI PUSH1 0x20 SWAP1 PUSH2 0x1667 PUSH2 0x1659 PUSH2 0x2083 JUMP JUMPDEST PUSH2 0x1661 PUSH2 0x2099 JUMP JUMPDEST SWAP1 PUSH2 0x237A JUMP JUMPDEST SWAP1 MLOAD SWAP1 ISZERO ISZERO DUP2 MSTORE RETURN JUMPDEST POP CALLVALUE PUSH2 0x261 JUMPI DUP3 PUSH1 0x3 NOT CALLDATASIZE ADD SLT PUSH2 0x261 JUMPI PUSH1 0x20 SWAP3 POP SLOAD SWAP1 MLOAD SWAP1 DUP2 MSTORE RETURN JUMPDEST POP POP CALLVALUE PUSH2 0x284 JUMPI DUP2 PUSH1 0x3 NOT CALLDATASIZE ADD SLT PUSH2 0x284 JUMPI PUSH1 0x20 SWAP1 PUSH1 0x1 PUSH1 0x1 PUSH1 0x40 SHL SUB PUSH2 0x16B2 PUSH2 0x2516 JUMP JUMPDEST SWAP2 MLOAD SWAP2 AND DUP2 MSTORE RETURN JUMPDEST POP CALLVALUE PUSH2 0x261 JUMPI PUSH1 0x60 CALLDATASIZE PUSH1 0x3 NOT ADD SLT PUSH2 0x261 JUMPI PUSH2 0x16D4 PUSH2 0x2083 JUMP JUMPDEST SWAP1 PUSH1 0x24 CALLDATALOAD PUSH1 0x1 PUSH1 0x1 PUSH1 0x40 SHL SUB DUP2 AND DUP2 SUB PUSH2 0xB46 JUMPI PUSH1 0x44 CALLDATALOAD SWAP3 DUP4 ISZERO ISZERO SWAP3 DUP4 DUP6 SUB PUSH2 0xAB2 JUMPI PUSH2 0x16FF PUSH2 0x2933 JUMP JUMPDEST PUSH1 0xFF PUSH1 0x7 SLOAD PUSH1 0xA8 SHR AND ISZERO PUSH2 0x177A JUMPI POP SWAP1 PUSH1 0x1 SWAP2 DUP3 DUP1 PUSH1 0xA0 SHL SUB AND SWAP5 DUP6 DUP8 MSTORE PUSH1 0xB PUSH1 0x20 MSTORE DUP7 KECCAK256 SWAP3 PUSH2 0xFF00 PUSH10 0xFFFFFFFFFFFFFFFF0000 DUP6 SLOAD SWAP4 PUSH1 0x10 SHL AND SWAP3 PUSH10 0xFFFFFFFFFFFFFFFFFFFF NOT AND SWAP2 PUSH1 0x8 SHL AND OR OR OR SWAP1 SSTORE PUSH2 0x175A JUMPI POP DUP1 RETURN JUMPDEST PUSH1 0x1 PUSH1 0x1 PUSH1 0x60 SHL SUB PUSH1 0xA0 SHL DUP2 DUP2 PUSH1 0x8 SLOAD AND OR PUSH1 0x8 SSTORE PUSH1 0x9 SLOAD AND OR PUSH1 0x9 SSTORE DUP1 RETURN JUMPDEST PUSH1 0x64 SWAP1 PUSH1 0x20 DUP8 MLOAD SWAP2 PUSH3 0x461BCD PUSH1 0xE5 SHL DUP4 MSTORE DUP3 ADD MSTORE PUSH1 0x15 PUSH1 0x24 DUP3 ADD MSTORE PUSH21 0x139BC81B5BDC99481B9BD9195CC8185B1B1BDDD959 PUSH1 0x5A SHL PUSH1 0x44 DUP3 ADD MSTORE REVERT JUMPDEST POP DUP3 SWAP1 CALLVALUE PUSH2 0x284 JUMPI PUSH1 0x20 SWAP3 DUP4 PUSH1 0x3 NOT CALLDATASIZE ADD SLT PUSH2 0x261 JUMPI PUSH2 0x17D3 PUSH2 0x2083 JUMP JUMPDEST PUSH1 0x1 PUSH1 0x1 PUSH1 0xA0 SHL SUB DUP2 DUP2 AND DUP1 DUP7 MSTORE PUSH1 0xB DUP8 MSTORE DUP4 DUP7 KECCAK256 SLOAD SWAP2 SWAP3 SWAP1 SWAP2 PUSH1 0xFF AND ISZERO PUSH2 0x1D80 JUMPI PUSH1 0xFF PUSH1 0x7 SLOAD AND ISZERO PUSH2 0x1D24 JUMPI JUMPDEST POP DUP1 DUP6 MSTORE PUSH1 0xB DUP7 MSTORE PUSH1 0x1 PUSH1 0x1 PUSH1 0x40 SHL SUB SWAP4 DUP5 DUP5 DUP8 KECCAK256 SLOAD PUSH1 0x10 SHR AND SWAP1 DUP5 MLOAD PUSH1 0x1 DUP10 DUP3 ADD MSTORE DUP3 DUP7 DUP3 ADD MSTORE PUSH1 0x60 SWAP1 DUP5 DUP3 DUP3 ADD MSTORE DUP2 DUP2 MSTORE PUSH2 0x183D DUP2 PUSH2 0x2187 JUMP JUMPDEST PUSH1 0x9 DUP1 SLOAD DUP8 AND DUP11 MSTORE PUSH1 0xB DUP12 MSTORE DUP8 DUP11 KECCAK256 DUP1 SLOAD PUSH2 0xFF00 NOT AND SWAP1 SSTORE SLOAD DUP7 AND DUP1 DUP11 MSTORE DUP8 DUP11 KECCAK256 SLOAD SWAP1 SWAP2 PUSH1 0x10 DUP3 SWAP1 SHR DUP11 AND SWAP2 PUSH32 0x0 DUP12 AND DUP4 SUB PUSH2 0x194D JUMPI POP POP POP POP POP DUP4 PUSH1 0x9 SLOAD AND DUP1 EXTCODESIZE ISZERO PUSH2 0x1949 JUMPI DUP8 SWAP3 SWAP2 DUP4 PUSH1 0x44 SWAP3 DUP9 MLOAD SWAP7 DUP8 SWAP6 DUP7 SWAP5 PUSH4 0x4BB297FF PUSH1 0xE1 SHL DUP7 MSTORE DUP6 ADD MSTORE PUSH1 0x24 DUP5 ADD MSTORE GAS CALL DUP1 ISZERO PUSH2 0x193F JUMPI PUSH2 0x192B JUMPI JUMPDEST POP DUP4 SWAP5 PUSH1 0xB SWAP2 JUMPDEST PUSH1 0x9 SLOAD PUSH1 0x1 PUSH1 0x1 PUSH1 0x60 SHL SUB PUSH1 0xA0 SHL SWAP2 DUP2 AND DUP3 PUSH1 0x8 SLOAD AND OR PUSH1 0x8 SSTORE AND PUSH1 0x9 SSTORE TIMESTAMP PUSH1 0xA SSTORE DUP5 DUP1 MSTORE MSTORE DUP3 KECCAK256 SLOAD PUSH1 0x10 SHR AND PUSH32 0x985439828E84E84B426DC5FAD9DBE12249540A3A89D03B3B635F89B4FE1E1FF2 DUP3 DUP1 LOG3 DUP1 RETURN JUMPDEST SWAP4 PUSH2 0x1938 PUSH1 0xB SWAP3 SWAP6 PUSH2 0x2159 JUMP JUMPDEST SWAP4 SWAP1 PUSH2 0x18D0 JUMP JUMPDEST DUP4 MLOAD RETURNDATASIZE DUP8 DUP3 RETURNDATACOPY RETURNDATASIZE SWAP1 REVERT JUMPDEST DUP8 DUP1 REVERT JUMPDEST SWAP4 SWAP12 SWAP7 POP SWAP2 SWAP5 POP SWAP2 PUSH1 0xFF AND ISZERO PUSH2 0x1D0D JUMPI DUP6 PUSH1 0x7 SLOAD PUSH1 0x8 SHR AND DUP11 DUP2 SWAP12 PUSH1 0x80 DUP11 MLOAD PUSH2 0x1975 DUP2 PUSH2 0x210D JUMP JUMPDEST DUP3 DUP2 MSTORE DUP3 DUP11 DUP3 ADD MSTORE DUP3 DUP13 DUP3 ADD MSTORE DUP14 DUP4 DUP3 ADD MSTORE ADD MSTORE DUP9 MLOAD SWAP6 DUP8 DUP8 ADD MSTORE DUP7 DUP7 MSTORE PUSH2 0x199C DUP7 PUSH2 0x216C JUMP JUMPDEST DUP9 MLOAD PUSH2 0x19A7 DUP2 PUSH2 0x213E JUMP JUMPDEST DUP12 DUP2 MSTORE PUSH2 0x19B8 DUP11 MLOAD PUSH2 0x10D2 DUP2 PUSH2 0x213E JUMP JUMPDEST SWAP4 DUP11 MLOAD SWAP8 PUSH2 0x19C5 DUP10 PUSH2 0x210D JUMP JUMPDEST DUP9 MSTORE DUP9 DUP9 ADD MSTORE DUP10 DUP8 ADD MSTORE DUP6 ADD MSTORE PUSH1 0x80 DUP5 ADD MSTORE DUP6 MLOAD PUSH4 0xB0F479A1 PUSH1 0xE0 SHL DUP2 MSTORE DUP5 DUP2 DUP5 DUP2 ADDRESS GAS STATICCALL SWAP1 DUP2 ISZERO PUSH2 0x1D03 JUMPI SWAP1 DUP7 SWAP2 DUP11 SWAP2 PUSH2 0x1CC9 JUMPI JUMPDEST POP AND SWAP2 DUP7 MLOAD SWAP10 PUSH4 0x20487DED PUSH1 0xE0 SHL DUP12 MSTORE DUP6 DUP12 DUP1 PUSH2 0x1A1B DUP9 DUP8 DUP8 DUP5 ADD PUSH2 0x2273 JUMP JUMPDEST SUB DUP2 DUP8 GAS STATICCALL SWAP11 DUP12 ISZERO PUSH2 0x1B79 JUMPI DUP11 SWAP12 PUSH2 0x1C9A JUMPI JUMPDEST POP DUP6 DUP11 SWAP2 PUSH1 0x64 DUP14 DUP12 MLOAD SWAP5 DUP6 SWAP4 DUP5 SWAP3 PUSH4 0x23B872DD PUSH1 0xE0 SHL DUP5 MSTORE CALLER DUP10 DUP6 ADD MSTORE ADDRESS PUSH1 0x24 DUP6 ADD MSTORE PUSH1 0x44 DUP5 ADD MSTORE GAS CALL SWAP1 DUP2 ISZERO PUSH2 0x1B79 JUMPI DUP11 SWAP2 PUSH2 0x1C7D JUMPI JUMPDEST POP ISZERO PUSH2 0x1C3A JUMPI DUP9 SWAP10 DUP7 PUSH1 0x7 SLOAD PUSH1 0x8 SHR AND SWAP1 DUP9 MLOAD PUSH4 0x70A08231 PUSH1 0xE0 SHL SWAP1 DUP2 DUP2 MSTORE ADDRESS DUP6 DUP3 ADD MSTORE DUP9 DUP2 PUSH1 0x24 DUP2 DUP8 GAS STATICCALL SWAP1 DUP2 ISZERO PUSH2 0x1C30 JUMPI DUP14 SWAP2 PUSH2 0x1C03 JUMPI JUMPDEST POP DUP3 GT PUSH2 0x1B83 JUMPI POP DUP9 MLOAD PUSH4 0x95EA7B3 PUSH1 0xE0 SHL DUP2 MSTORE PUSH1 0x1 PUSH1 0x1 PUSH1 0xA0 SHL SUB DUP7 AND DUP5 DUP3 ADD SWAP1 DUP2 MSTORE PUSH1 0x20 DUP2 ADD SWAP3 SWAP1 SWAP3 MSTORE SWAP2 DUP8 SWAP2 DUP4 SWAP2 SWAP1 DUP3 SWAP1 DUP15 SWAP1 DUP3 SWAP1 PUSH1 0x40 ADD SUB SWAP3 GAS CALL DUP1 ISZERO PUSH2 0x1B79 JUMPI DUP7 SWAP5 SWAP3 PUSH2 0x1B10 SWAP7 SWAP5 SWAP3 DUP13 SWAP3 PUSH2 0x1B5C JUMPI JUMPDEST POP DUP10 MLOAD PUSH4 0x96F4E9F9 PUSH1 0xE0 SHL DUP2 MSTORE SWAP7 DUP8 SWAP6 DUP7 SWAP5 DUP6 SWAP4 DUP5 ADD PUSH2 0x2273 JUMP JUMPDEST SUB SWAP3 GAS CALL DUP1 ISZERO PUSH2 0x1B52 JUMPI PUSH2 0x1B28 JUMPI JUMPDEST POP PUSH1 0xB SWAP2 PUSH2 0x18D7 JUMP JUMPDEST DUP2 SWAP1 DUP2 RETURNDATASIZE DUP4 GT PUSH2 0x1B4B JUMPI JUMPDEST PUSH2 0x1B3D DUP2 DUP4 PUSH2 0x21A2 JUMP JUMPDEST DUP2 ADD SUB SLT PUSH2 0x90E JUMPI DUP7 PUSH2 0x1B1F JUMP JUMPDEST POP RETURNDATASIZE PUSH2 0x1B33 JUMP JUMPDEST DUP5 MLOAD RETURNDATASIZE DUP9 DUP3 RETURNDATACOPY RETURNDATASIZE SWAP1 REVERT JUMPDEST PUSH2 0x1B72 SWAP1 DUP8 RETURNDATASIZE DUP10 GT PUSH2 0x12A9 JUMPI PUSH2 0x129A DUP2 DUP4 PUSH2 0x21A2 JUMP JUMPDEST POP DUP14 PUSH2 0x1AF5 JUMP JUMPDEST DUP9 MLOAD RETURNDATASIZE DUP13 DUP3 RETURNDATACOPY RETURNDATASIZE SWAP1 REVERT JUMPDEST DUP10 DUP13 SWAP5 SWAP4 DUP10 DUP1 SWAP4 PUSH1 0x24 DUP5 MLOAD DUP1 SWAP5 DUP2 SWAP4 DUP3 MSTORE ADDRESS DUP11 DUP4 ADD MSTORE GAS STATICCALL SWAP3 DUP4 ISZERO PUSH2 0x1BF9 JUMPI DUP7 SWAP4 PUSH2 0x1BC5 JUMPI JUMPDEST POP POP MLOAD PUSH4 0x4787A103 PUSH1 0xE1 SHL DUP2 MSTORE SWAP3 DUP4 ADD MSTORE PUSH1 0x24 DUP3 ADD MSTORE PUSH1 0x44 SWAP2 POP REVERT JUMPDEST SWAP1 DUP1 SWAP3 SWAP4 POP DUP2 RETURNDATASIZE DUP4 GT PUSH2 0x1BF2 JUMPI JUMPDEST PUSH2 0x1BDD DUP2 DUP4 PUSH2 0x21A2 JUMP JUMPDEST DUP2 ADD SUB SLT PUSH2 0x90E JUMPI PUSH1 0x44 SWAP5 POP MLOAD SWAP1 DUP6 DUP1 PUSH2 0x1BA9 JUMP JUMPDEST POP RETURNDATASIZE PUSH2 0x1BD3 JUMP JUMPDEST DUP3 MLOAD RETURNDATASIZE DUP9 DUP3 RETURNDATACOPY RETURNDATASIZE SWAP1 REVERT JUMPDEST SWAP1 POP DUP9 DUP2 DUP2 RETURNDATASIZE DUP4 GT PUSH2 0x1C29 JUMPI JUMPDEST PUSH2 0x1C1A DUP2 DUP4 PUSH2 0x21A2 JUMP JUMPDEST DUP2 ADD SUB SLT PUSH2 0xB4B JUMPI MLOAD DUP15 PUSH2 0x1AA0 JUMP JUMPDEST POP RETURNDATASIZE PUSH2 0x1C10 JUMP JUMPDEST DUP12 MLOAD RETURNDATASIZE DUP16 DUP3 RETURNDATACOPY RETURNDATASIZE SWAP1 REVERT JUMPDEST DUP7 MLOAD PUSH3 0x461BCD PUSH1 0xE5 SHL DUP2 MSTORE SWAP1 DUP2 ADD DUP6 SWAP1 MSTORE PUSH1 0x1A PUSH1 0x24 DUP3 ADD MSTORE PUSH32 0x4E6F742070726F7669646564204C696E6B20666F722066656573000000000000 PUSH1 0x44 DUP3 ADD MSTORE PUSH1 0x64 SWAP1 REVERT JUMPDEST PUSH2 0x1C94 SWAP2 POP DUP7 RETURNDATASIZE DUP9 GT PUSH2 0x12A9 JUMPI PUSH2 0x129A DUP2 DUP4 PUSH2 0x21A2 JUMP JUMPDEST DUP12 PUSH2 0x1A66 JUMP JUMPDEST SWAP1 SWAP11 POP DUP6 DUP2 DUP2 RETURNDATASIZE DUP4 GT PUSH2 0x1CC2 JUMPI JUMPDEST PUSH2 0x1CB2 DUP2 DUP4 PUSH2 0x21A2 JUMP JUMPDEST DUP2 ADD SUB SLT PUSH2 0xAAA JUMPI MLOAD SWAP10 DUP6 PUSH2 0x1A2E JUMP JUMPDEST POP RETURNDATASIZE PUSH2 0x1CA8 JUMP JUMPDEST DUP1 SWAP3 POP DUP7 DUP1 SWAP3 POP RETURNDATASIZE DUP4 GT PUSH2 0x1CFC JUMPI JUMPDEST PUSH2 0x1CE2 DUP2 DUP4 PUSH2 0x21A2 JUMP JUMPDEST DUP2 ADD SUB SLT PUSH2 0xAA6 JUMPI MLOAD DUP6 DUP2 AND DUP2 SUB PUSH2 0xAA6 JUMPI DUP6 SWAP1 DUP12 PUSH2 0x19FB JUMP JUMPDEST POP RETURNDATASIZE PUSH2 0x1CD8 JUMP JUMPDEST DUP8 MLOAD RETURNDATASIZE DUP12 DUP3 RETURNDATACOPY RETURNDATASIZE SWAP1 REVERT JUMPDEST DUP7 MLOAD PUSH4 0x6A9FF79F PUSH1 0xE1 SHL DUP2 MSTORE DUP1 DUP5 ADD DUP6 SWAP1 MSTORE PUSH1 0x24 SWAP1 REVERT JUMPDEST PUSH2 0x1D32 SWAP1 DUP4 PUSH1 0x9 SLOAD AND PUSH2 0x237A JUMP JUMPDEST ISZERO PUSH2 0x1D3D JUMPI DUP7 PUSH2 0x1801 JUMP JUMPDEST DUP3 MLOAD PUSH3 0x461BCD PUSH1 0xE5 SHL DUP2 MSTORE DUP1 DUP6 ADD DUP8 SWAP1 MSTORE PUSH1 0x19 PUSH1 0x24 DUP3 ADD MSTORE PUSH32 0x436F6E646974696F6E20746F2077617270206E6F74206D657400000000000000 PUSH1 0x44 DUP3 ADD MSTORE PUSH1 0x64 SWAP1 REVERT JUMPDEST DUP4 MLOAD PUSH3 0x461BCD PUSH1 0xE5 SHL DUP2 MSTORE DUP1 DUP7 ADD DUP9 SWAP1 MSTORE PUSH1 0x1D PUSH1 0x24 DUP3 ADD MSTORE PUSH32 0x44657374696E6174696F6E204E6F6465206973206E6F74207661696C64000000 PUSH1 0x44 DUP3 ADD MSTORE PUSH1 0x64 SWAP1 REVERT JUMPDEST POP POP CALLVALUE PUSH2 0x284 JUMPI DUP1 PUSH1 0x3 NOT CALLDATASIZE ADD SLT PUSH2 0x284 JUMPI PUSH1 0x20 SWAP1 PUSH2 0x421 PUSH2 0x1DE3 PUSH2 0x2083 JUMP JUMPDEST PUSH1 0x24 CALLDATALOAD SWAP1 CALLER PUSH2 0x2780 JUMP JUMPDEST POP DUP3 SWAP1 CALLVALUE PUSH2 0x284 JUMPI PUSH2 0x1DFE CALLDATASIZE PUSH2 0x20EF JUMP JUMPDEST SWAP4 SWAP1 SWAP2 CALLER DUP7 MSTORE PUSH1 0xB PUSH1 0x20 MSTORE PUSH2 0x1E46 PUSH1 0x1 PUSH1 0x1 PUSH1 0x40 SHL SUB DUP1 DUP10 DUP10 KECCAK256 SLOAD PUSH1 0x10 SHR AND SWAP1 PUSH32 0x0 AND EQ PUSH2 0x2219 JUMP JUMPDEST CALLER DUP7 MSTORE PUSH1 0xB PUSH1 0x20 MSTORE PUSH1 0xFF DUP8 DUP8 KECCAK256 SLOAD AND ISZERO PUSH2 0x1E82 JUMPI PUSH1 0x5 SWAP5 SWAP6 SWAP7 CALLER DUP9 MSTORE PUSH1 0xB PUSH1 0x20 MSTORE DUP8 KECCAK256 SWAP4 TIMESTAMP PUSH1 0x1 DUP7 ADD SSTORE PUSH1 0x2 DUP6 ADD SSTORE PUSH1 0x3 DUP5 ADD SSTORE DUP3 ADD SSTORE ADD SSTORE DUP1 RETURN JUMPDEST DUP7 MLOAD PUSH4 0x6A9FF79F PUSH1 0xE1 SHL DUP2 MSTORE CALLER DUP2 DUP5 ADD MSTORE PUSH1 0x24 SWAP1 REVERT JUMPDEST POP SWAP2 CALLVALUE PUSH2 0x4CE JUMPI DUP1 PUSH1 0x3 NOT CALLDATASIZE ADD SLT PUSH2 0x4CE JUMPI DUP2 MLOAD SWAP2 DUP2 PUSH1 0x5 SLOAD SWAP3 PUSH1 0x1 DUP5 DUP2 SHR SWAP2 DUP2 DUP7 AND SWAP6 DUP7 ISZERO PUSH2 0x1F5B JUMPI JUMPDEST PUSH1 0x20 SWAP7 DUP8 DUP6 LT DUP2 EQ PUSH2 0x6A4 JUMPI DUP9 SWAP10 POP SWAP7 DUP9 SWAP7 SWAP8 DUP6 DUP3 SWAP11 MSTORE SWAP2 DUP3 PUSH1 0x0 EQ PUSH2 0x67D JUMPI POP POP PUSH1 0x1 EQ PUSH2 0x1EFF JUMPI POP POP POP PUSH2 0x61D SWAP3 SWAP2 PUSH2 0x60E SWAP2 SUB DUP6 PUSH2 0x21A2 JUMP JUMPDEST SWAP2 SWAP1 DUP7 SWAP4 POP PUSH1 0x5 DUP4 MSTORE PUSH32 0x36B6384B5ECA791C62761152D0C79BB0604C104A5FB6F4EB0703F3154BB3DB0 JUMPDEST DUP3 DUP5 LT PUSH2 0x1F43 JUMPI POP POP POP DUP3 ADD ADD DUP2 PUSH2 0x60E PUSH2 0x61D PUSH2 0x5FB JUMP JUMPDEST DUP1 SLOAD DUP5 DUP11 ADD DUP7 ADD MSTORE DUP9 SWAP6 POP DUP8 SWAP5 SWAP1 SWAP4 ADD SWAP3 DUP2 ADD PUSH2 0x1F2A JUMP JUMPDEST SWAP3 PUSH1 0x7F AND SWAP3 PUSH2 0x1EC3 JUMP JUMPDEST POP CALLVALUE PUSH2 0x261 JUMPI DUP2 PUSH1 0x3 NOT CALLDATASIZE ADD SLT PUSH2 0x261 JUMPI PUSH2 0x1F7E PUSH2 0x2083 JUMP JUMPDEST SWAP1 PUSH1 0x24 CALLDATALOAD SWAP3 CALLER DUP6 MSTORE PUSH1 0xB PUSH1 0x20 MSTORE PUSH2 0x1FC8 PUSH1 0x1 PUSH1 0x1 PUSH1 0x40 SHL SUB DUP1 DUP4 DUP9 KECCAK256 SLOAD PUSH1 0x10 SHR AND SWAP1 PUSH32 0x0 AND EQ PUSH2 0x2219 JUMP JUMPDEST CALLER DUP6 MSTORE PUSH1 0xB PUSH1 0x20 MSTORE PUSH1 0xFF DUP2 DUP7 KECCAK256 SLOAD AND ISZERO PUSH2 0x2018 JUMPI POP POP PUSH2 0x1FE8 DUP3 DUP3 PUSH2 0x26DC JUMP JUMPDEST PUSH1 0x1 PUSH1 0x1 PUSH1 0xA0 SHL SUB AND PUSH32 0xB55160CC367B9CDF2289AF15A6163D786DE0A3D0722F78F652DEC347580C8564 DUP4 DUP1 LOG3 DUP1 RETURN JUMPDEST PUSH1 0x24 SWAP3 POP MLOAD SWAP1 PUSH4 0x6A9FF79F PUSH1 0xE1 SHL DUP3 MSTORE CALLER SWAP1 DUP3 ADD MSTORE REVERT JUMPDEST SWAP3 POP POP CALLVALUE PUSH2 0x261 JUMPI PUSH1 0x20 CALLDATASIZE PUSH1 0x3 NOT ADD SLT PUSH2 0x261 JUMPI CALLDATALOAD PUSH4 0xFFFFFFFF PUSH1 0xE0 SHL DUP2 AND DUP1 SWAP2 SUB PUSH2 0x261 JUMPI PUSH1 0x20 SWAP3 POP PUSH4 0x85572FFB PUSH1 0xE0 SHL DUP2 EQ SWAP1 DUP2 ISZERO PUSH2 0x2072 JUMPI JUMPDEST POP ISZERO ISZERO DUP2 MSTORE RETURN JUMPDEST PUSH4 0x1FFC9A7 PUSH1 0xE0 SHL EQ SWAP1 POP CODESIZE PUSH2 0x206B JUMP JUMPDEST PUSH1 0x4 CALLDATALOAD SWAP1 PUSH1 0x1 PUSH1 0x1 PUSH1 0xA0 SHL SUB DUP3 AND DUP3 SUB PUSH2 0xB46 JUMPI JUMP JUMPDEST PUSH1 0x24 CALLDATALOAD SWAP1 PUSH1 0x1 PUSH1 0x1 PUSH1 0xA0 SHL SUB DUP3 AND DUP3 SUB PUSH2 0xB46 JUMPI JUMP JUMPDEST SWAP2 SWAP1 DUP3 MLOAD SWAP3 DUP4 DUP3 MSTORE PUSH1 0x0 JUMPDEST DUP5 DUP2 LT PUSH2 0x20DB JUMPI POP POP DUP3 PUSH1 0x0 PUSH1 0x20 DUP1 SWAP5 SWAP6 DUP5 ADD ADD MSTORE PUSH1 0x1F DUP1 NOT SWAP2 ADD AND ADD ADD SWAP1 JUMP JUMPDEST PUSH1 0x20 DUP2 DUP4 ADD DUP2 ADD MLOAD DUP5 DUP4 ADD DUP3 ADD MSTORE ADD PUSH2 0x20BA JUMP JUMPDEST PUSH1 0x80 SWAP1 PUSH1 0x3 NOT ADD SLT PUSH2 0xB46 JUMPI PUSH1 0x4 CALLDATALOAD SWAP1 PUSH1 0x24 CALLDATALOAD SWAP1 PUSH1 0x44 CALLDATALOAD SWAP1 PUSH1 0x64 CALLDATALOAD SWAP1 JUMP JUMPDEST PUSH1 0xA0 DUP2 ADD SWAP1 DUP2 LT PUSH1 0x1 PUSH1 0x1 PUSH1 0x40 SHL SUB DUP3 GT OR PUSH2 0x2128 JUMPI PUSH1 0x40 MSTORE JUMP JUMPDEST PUSH4 0x4E487B71 PUSH1 0xE0 SHL PUSH1 0x0 MSTORE PUSH1 0x41 PUSH1 0x4 MSTORE PUSH1 0x24 PUSH1 0x0 REVERT JUMPDEST PUSH1 0x20 DUP2 ADD SWAP1 DUP2 LT PUSH1 0x1 PUSH1 0x1 PUSH1 0x40 SHL SUB DUP3 GT OR PUSH2 0x2128 JUMPI PUSH1 0x40 MSTORE JUMP JUMPDEST PUSH1 0x1 PUSH1 0x1 PUSH1 0x40 SHL SUB DUP2 GT PUSH2 0x2128 JUMPI PUSH1 0x40 MSTORE JUMP JUMPDEST PUSH1 0x40 DUP2 ADD SWAP1 DUP2 LT PUSH1 0x1 PUSH1 0x1 PUSH1 0x40 SHL SUB DUP3 GT OR PUSH2 0x2128 JUMPI PUSH1 0x40 MSTORE JUMP JUMPDEST PUSH1 0x80 DUP2 ADD SWAP1 DUP2 LT PUSH1 0x1 PUSH1 0x1 PUSH1 0x40 SHL SUB DUP3 GT OR PUSH2 0x2128 JUMPI PUSH1 0x40 MSTORE JUMP JUMPDEST SWAP1 PUSH1 0x1F DUP1 NOT SWAP2 ADD AND DUP2 ADD SWAP1 DUP2 LT PUSH1 0x1 PUSH1 0x1 PUSH1 0x40 SHL SUB DUP3 GT OR PUSH2 0x2128 JUMPI PUSH1 0x40 MSTORE JUMP JUMPDEST DUP2 PUSH1 0x1F DUP3 ADD SLT ISZERO PUSH2 0xB46 JUMPI DUP1 CALLDATALOAD SWAP1 PUSH1 0x1 PUSH1 0x1 PUSH1 0x40 SHL SUB DUP3 GT PUSH2 0x2128 JUMPI PUSH1 0x40 MLOAD SWAP3 PUSH2 0x21F7 PUSH1 0x1F DUP5 ADD PUSH1 0x1F NOT AND PUSH1 0x20 ADD DUP6 PUSH2 0x21A2 JUMP JUMPDEST DUP3 DUP5 MSTORE PUSH1 0x20 DUP4 DUP4 ADD ADD GT PUSH2 0xB46 JUMPI DUP2 PUSH1 0x0 SWAP3 PUSH1 0x20 DUP1 SWAP4 ADD DUP4 DUP7 ADD CALLDATACOPY DUP4 ADD ADD MSTORE SWAP1 JUMP JUMPDEST ISZERO PUSH2 0x2220 JUMPI JUMP JUMPDEST PUSH1 0x40 MLOAD PUSH3 0x461BCD PUSH1 0xE5 SHL DUP2 MSTORE PUSH1 0x20 PUSH1 0x4 DUP3 ADD MSTORE PUSH1 0x25 PUSH1 0x24 DUP3 ADD MSTORE PUSH32 0x52657175697265206D617374657220616E64206E6F646520696E2073616D6520 PUSH1 0x44 DUP3 ADD MSTORE PUSH5 0x31B430B4B7 PUSH1 0xD9 SHL PUSH1 0x64 DUP3 ADD MSTORE PUSH1 0x84 SWAP1 REVERT JUMPDEST SWAP1 PUSH1 0x1 PUSH1 0x1 PUSH1 0x40 SHL SUB SWAP1 SWAP4 SWAP3 SWAP4 AND DUP2 MSTORE PUSH1 0x40 PUSH1 0x20 SWAP2 DUP2 DUP4 DUP3 ADD MSTORE PUSH2 0x22A2 DUP6 MLOAD PUSH1 0xA0 DUP5 DUP5 ADD MSTORE PUSH1 0xE0 DUP4 ADD SWAP1 PUSH2 0x20AF JUMP JUMPDEST SWAP2 PUSH2 0x22BE DUP5 DUP8 ADD MLOAD SWAP4 PUSH1 0x3F NOT SWAP5 DUP6 DUP6 DUP4 SUB ADD PUSH1 0x60 DUP7 ADD MSTORE PUSH2 0x20AF JUMP JUMPDEST DUP2 DUP8 ADD MLOAD SWAP5 DUP5 DUP5 DUP4 SUB ADD PUSH1 0x80 DUP6 ADD MSTORE DUP1 DUP1 DUP8 MLOAD SWAP4 DUP5 DUP2 MSTORE ADD SWAP7 ADD SWAP3 PUSH1 0x0 SWAP1 JUMPDEST DUP4 DUP3 LT PUSH2 0x2316 JUMPI POP POP POP POP POP PUSH1 0xC0 PUSH1 0x80 PUSH2 0x2313 SWAP6 SWAP7 PUSH1 0x1 DUP1 PUSH1 0xA0 SHL SUB PUSH1 0x60 DUP3 ADD MLOAD AND PUSH1 0xA0 DUP6 ADD MSTORE ADD MLOAD SWAP3 DUP3 DUP6 SUB ADD SWAP2 ADD MSTORE PUSH2 0x20AF JUMP JUMPDEST SWAP1 JUMP JUMPDEST DUP5 MLOAD DUP1 MLOAD PUSH1 0x1 PUSH1 0x1 PUSH1 0xA0 SHL SUB AND DUP10 MSTORE DUP4 ADD MLOAD DUP9 DUP5 ADD MSTORE SWAP7 DUP8 ADD SWAP7 SWAP4 DUP3 ADD SWAP4 PUSH1 0x1 SWAP1 SWAP2 ADD SWAP1 PUSH2 0x22DD JUMP JUMPDEST SWAP1 DUP2 PUSH1 0x20 SWAP2 SUB SLT PUSH2 0xB46 JUMPI MLOAD DUP1 ISZERO ISZERO DUP2 SUB PUSH2 0xB46 JUMPI SWAP1 JUMP JUMPDEST SWAP2 SWAP1 DUP3 ADD DUP1 SWAP3 GT PUSH2 0x2364 JUMPI JUMP JUMPDEST PUSH4 0x4E487B71 PUSH1 0xE0 SHL PUSH1 0x0 MSTORE PUSH1 0x11 PUSH1 0x4 MSTORE PUSH1 0x24 PUSH1 0x0 REVERT JUMPDEST PUSH1 0x1 DUP1 PUSH1 0xA0 SHL SUB DUP1 SWAP3 AND SWAP2 PUSH1 0x0 DUP4 DUP2 MSTORE PUSH1 0xB SWAP1 PUSH1 0x20 SWAP2 DUP1 DUP4 MSTORE PUSH1 0x40 SWAP3 DUP4 DUP4 KECCAK256 SWAP5 PUSH2 0x23BA PUSH1 0x2 DUP8 ADD SLOAD PUSH1 0x3 DUP9 ADD SLOAD SWAP8 PUSH1 0x4 SWAP9 PUSH1 0x5 DUP11 DUP4 ADD SLOAD SWAP3 ADD SLOAD SWAP3 PUSH2 0x28DB JUMP JUMPDEST SWAP7 PUSH1 0xA SLOAD PUSH3 0x15180 DUP2 ADD DUP1 SWAP2 GT PUSH2 0x2492 JUMPI TIMESTAMP GT SWAP9 DUP10 PUSH2 0x24F8 JUMPI JUMPDEST DUP10 PUSH2 0x24E0 JUMPI JUMPDEST DUP10 PUSH2 0x24CA JUMPI JUMPDEST DUP10 PUSH2 0x24A5 JUMPI JUMPDEST DUP10 PUSH2 0x246F JUMPI JUMPDEST DUP10 PUSH2 0x2456 JUMPI JUMPDEST DUP10 PUSH2 0x243E JUMPI JUMPDEST POP DUP9 PUSH2 0x2427 JUMPI JUMPDEST DUP9 PUSH2 0x2410 JUMPI JUMPDEST POP POP POP POP POP POP POP POP SWAP1 JUMP JUMPDEST AND DUP4 MSTORE MSTORE KECCAK256 ADD SLOAD LT SWAP1 POP CODESIZE DUP1 DUP1 DUP1 DUP1 DUP1 DUP1 DUP1 PUSH2 0x2405 JUMP JUMPDEST DUP2 DUP2 AND DUP6 MSTORE DUP4 DUP4 MSTORE DUP6 DUP6 KECCAK256 DUP8 ADD SLOAD ISZERO ISZERO SWAP9 POP PUSH2 0x23FF JUMP JUMPDEST DUP6 MSTORE DUP4 DUP4 MSTORE DUP6 DUP6 KECCAK256 SLOAD PUSH1 0x8 SHR PUSH1 0xFF AND ISZERO SWAP9 POP CODESIZE PUSH2 0x23F8 JUMP JUMPDEST DUP1 DUP7 MSTORE DUP5 DUP5 MSTORE DUP7 DUP7 KECCAK256 SLOAD PUSH1 0xFF AND ISZERO ISZERO PUSH1 0x1 EQ SWAP10 POP PUSH2 0x23F2 JUMP JUMPDEST DUP1 SWAP10 POP DUP6 MSTORE DUP4 DUP4 MSTORE PUSH1 0x1 DUP7 DUP7 KECCAK256 ADD SLOAD PUSH2 0xE10 DUP2 ADD DUP1 SWAP2 GT PUSH2 0x2492 JUMPI TIMESTAMP LT SWAP9 PUSH2 0x23EC JUMP JUMPDEST PUSH4 0x4E487B71 PUSH1 0xE0 SHL DUP7 MSTORE PUSH1 0x11 DUP9 MSTORE PUSH1 0x24 DUP7 REVERT JUMPDEST SWAP9 POP DUP2 DUP2 AND DUP6 MSTORE DUP4 DUP4 MSTORE PUSH1 0x1 DUP7 DUP7 KECCAK256 ADD SLOAD PUSH2 0xE10 DUP2 ADD DUP1 SWAP2 GT PUSH2 0x2492 JUMPI TIMESTAMP LT SWAP9 PUSH2 0x23E6 JUMP JUMPDEST DUP1 DUP7 MSTORE DUP5 DUP5 MSTORE DUP7 DUP7 KECCAK256 PUSH1 0x1 ADD SLOAD ISZERO ISZERO SWAP10 POP PUSH2 0x23E0 JUMP JUMPDEST DUP2 DUP4 AND DUP7 MSTORE DUP5 DUP5 MSTORE DUP7 DUP7 KECCAK256 PUSH1 0x1 ADD SLOAD ISZERO ISZERO SWAP10 POP PUSH2 0x23DA JUMP JUMPDEST DUP2 DUP4 AND DUP7 MSTORE DUP5 DUP5 MSTORE DUP7 DUP7 KECCAK256 SLOAD PUSH1 0x8 SHR PUSH1 0xFF AND ISZERO ISZERO PUSH1 0x1 EQ SWAP10 POP PUSH2 0x23D4 JUMP JUMPDEST PUSH1 0x9 SLOAD PUSH1 0x1 PUSH1 0x1 PUSH1 0xA0 SHL SUB SWAP1 DUP2 AND SWAP1 DUP2 ISZERO PUSH2 0x2549 JUMPI POP PUSH1 0x0 MSTORE PUSH1 0xB PUSH1 0x20 MSTORE PUSH1 0x1 PUSH1 0x1 PUSH1 0x40 SHL SUB PUSH1 0x40 PUSH1 0x0 KECCAK256 SLOAD PUSH1 0x10 SHR AND SWAP1 JUMP JUMPDEST SWAP1 POP PUSH1 0x8 SLOAD AND PUSH1 0x0 MSTORE PUSH1 0xB PUSH1 0x20 MSTORE PUSH1 0x1 PUSH1 0x1 PUSH1 0x40 SHL SUB PUSH1 0x40 PUSH1 0x0 KECCAK256 SLOAD PUSH1 0x10 SHR AND SWAP1 JUMP JUMPDEST PUSH1 0x1 PUSH1 0x1 PUSH1 0xA0 SHL SUB SWAP1 DUP2 AND SWAP2 DUP3 ISZERO PUSH2 0x2689 JUMPI AND SWAP2 DUP3 ISZERO PUSH2 0x2638 JUMPI PUSH1 0x0 DUP3 DUP2 MSTORE PUSH1 0x2 PUSH1 0x20 MSTORE PUSH1 0x40 DUP2 KECCAK256 SLOAD SWAP2 DUP1 DUP4 LT PUSH2 0x25E4 JUMPI PUSH1 0x40 DUP3 DUP3 PUSH32 0xDDF252AD1BE2C89B69C2B068FC378DAA952BA7F163C4A11628F55A4DF523B3EF SWAP6 DUP8 PUSH1 0x20 SWAP7 MSTORE PUSH1 0x2 DUP7 MSTORE SUB DUP3 DUP3 KECCAK256 SSTORE DUP7 DUP2 MSTORE KECCAK256 DUP2 DUP2 SLOAD ADD SWAP1 SSTORE PUSH1 0x40 MLOAD SWAP1 DUP2 MSTORE LOG3 JUMP JUMPDEST PUSH1 0x40 MLOAD PUSH3 0x461BCD PUSH1 0xE5 SHL DUP2 MSTORE PUSH1 0x20 PUSH1 0x4 DUP3 ADD MSTORE PUSH1 0x26 PUSH1 0x24 DUP3 ADD MSTORE PUSH32 0x45524332303A207472616E7366657220616D6F756E7420657863656564732062 PUSH1 0x44 DUP3 ADD MSTORE PUSH6 0x616C616E6365 PUSH1 0xD0 SHL PUSH1 0x64 DUP3 ADD MSTORE PUSH1 0x84 SWAP1 REVERT JUMPDEST PUSH1 0x40 MLOAD PUSH3 0x461BCD PUSH1 0xE5 SHL DUP2 MSTORE PUSH1 0x20 PUSH1 0x4 DUP3 ADD MSTORE PUSH1 0x23 PUSH1 0x24 DUP3 ADD MSTORE PUSH32 0x45524332303A207472616E7366657220746F20746865207A65726F2061646472 PUSH1 0x44 DUP3 ADD MSTORE PUSH3 0x657373 PUSH1 0xE8 SHL PUSH1 0x64 DUP3 ADD MSTORE PUSH1 0x84 SWAP1 REVERT JUMPDEST PUSH1 0x40 MLOAD PUSH3 0x461BCD PUSH1 0xE5 SHL DUP2 MSTORE PUSH1 0x20 PUSH1 0x4 DUP3 ADD MSTORE PUSH1 0x25 PUSH1 0x24 DUP3 ADD MSTORE PUSH32 0x45524332303A207472616E736665722066726F6D20746865207A65726F206164 PUSH1 0x44 DUP3 ADD MSTORE PUSH5 0x6472657373 PUSH1 0xD8 SHL PUSH1 0x64 DUP3 ADD MSTORE PUSH1 0x84 SWAP1 REVERT JUMPDEST PUSH1 0x1 PUSH1 0x1 PUSH1 0xA0 SHL SUB AND SWAP1 DUP2 ISZERO PUSH2 0x273B JUMPI PUSH32 0xDDF252AD1BE2C89B69C2B068FC378DAA952BA7F163C4A11628F55A4DF523B3EF PUSH1 0x20 DUP3 PUSH2 0x271E PUSH1 0x0 SWAP5 PUSH1 0x4 SLOAD PUSH2 0x2357 JUMP JUMPDEST PUSH1 0x4 SSTORE DUP5 DUP5 MSTORE PUSH1 0x2 DUP3 MSTORE PUSH1 0x40 DUP5 KECCAK256 DUP2 DUP2 SLOAD ADD SWAP1 SSTORE PUSH1 0x40 MLOAD SWAP1 DUP2 MSTORE LOG3 JUMP JUMPDEST PUSH1 0x40 MLOAD PUSH3 0x461BCD PUSH1 0xE5 SHL DUP2 MSTORE PUSH1 0x20 PUSH1 0x4 DUP3 ADD MSTORE PUSH1 0x1F PUSH1 0x24 DUP3 ADD MSTORE PUSH32 0x45524332303A206D696E7420746F20746865207A65726F206164647265737300 PUSH1 0x44 DUP3 ADD MSTORE PUSH1 0x64 SWAP1 REVERT JUMPDEST PUSH1 0x1 PUSH1 0x1 PUSH1 0xA0 SHL SUB SWAP1 DUP2 AND SWAP2 DUP3 ISZERO PUSH2 0x2831 JUMPI AND SWAP2 DUP3 ISZERO PUSH2 0x27E1 JUMPI PUSH1 0x20 PUSH32 0x8C5BE1E5EBEC7D5BD14F71427D1E84F3DD0314C0F7B2291E5B200AC8C7C3B925 SWAP2 DUP4 PUSH1 0x0 MSTORE PUSH1 0x3 DUP3 MSTORE PUSH1 0x40 PUSH1 0x0 KECCAK256 DUP6 PUSH1 0x0 MSTORE DUP3 MSTORE DUP1 PUSH1 0x40 PUSH1 0x0 KECCAK256 SSTORE PUSH1 0x40 MLOAD SWAP1 DUP2 MSTORE LOG3 JUMP JUMPDEST PUSH1 0x40 MLOAD PUSH3 0x461BCD PUSH1 0xE5 SHL DUP2 MSTORE PUSH1 0x20 PUSH1 0x4 DUP3 ADD MSTORE PUSH1 0x22 PUSH1 0x24 DUP3 ADD MSTORE PUSH32 0x45524332303A20617070726F766520746F20746865207A65726F206164647265 PUSH1 0x44 DUP3 ADD MSTORE PUSH2 0x7373 PUSH1 0xF0 SHL PUSH1 0x64 DUP3 ADD MSTORE PUSH1 0x84 SWAP1 REVERT JUMPDEST PUSH1 0x40 MLOAD PUSH3 0x461BCD PUSH1 0xE5 SHL DUP2 MSTORE PUSH1 0x20 PUSH1 0x4 DUP3 ADD MSTORE PUSH1 0x24 DUP1 DUP3 ADD MSTORE PUSH32 0x45524332303A20617070726F76652066726F6D20746865207A65726F20616464 PUSH1 0x44 DUP3 ADD MSTORE PUSH4 0x72657373 PUSH1 0xE0 SHL PUSH1 0x64 DUP3 ADD MSTORE PUSH1 0x84 SWAP1 REVERT JUMPDEST MLOAD SWAP1 PUSH1 0x1 PUSH1 0x1 PUSH1 0xA0 SHL SUB DUP3 AND DUP3 SUB PUSH2 0xB46 JUMPI JUMP JUMPDEST MLOAD SWAP1 PUSH1 0xFF DUP3 AND DUP3 SUB PUSH2 0xB46 JUMPI JUMP JUMPDEST PUSH1 0x40 MLOAD SWAP1 PUSH4 0x97A657C9 PUSH1 0xE0 SHL PUSH1 0x20 DUP4 ADD MSTORE MLOAD PUSH1 0x24 DUP3 ADD MSTORE PUSH1 0x24 DUP2 MSTORE PUSH1 0x60 DUP2 ADD DUP2 DUP2 LT PUSH1 0x1 PUSH1 0x1 PUSH1 0x40 SHL SUB DUP3 GT OR PUSH2 0x2128 JUMPI PUSH1 0x40 MSTORE SWAP1 JUMP JUMPDEST SWAP3 PUSH2 0x28E6 SWAP2 SWAP4 PUSH2 0x2357 JUMP JUMPDEST PUSH8 0xDE0B6B3A7640000 SWAP3 DUP4 DUP2 MUL SWAP1 DUP1 DUP3 DIV DUP6 EQ SWAP1 ISZERO OR ISZERO PUSH2 0x2364 JUMPI DUP2 ISZERO PUSH2 0x291D JUMPI DIV SWAP1 DUP2 DUP2 MUL SWAP2 DUP2 DUP4 DIV EQ SWAP1 ISZERO OR ISZERO PUSH2 0x2364 JUMPI DIV SWAP1 JUMP JUMPDEST PUSH4 0x4E487B71 PUSH1 0xE0 SHL PUSH1 0x0 MSTORE PUSH1 0x12 PUSH1 0x4 MSTORE PUSH1 0x24 PUSH1 0x0 REVERT JUMPDEST PUSH1 0x0 SLOAD PUSH1 0x1 PUSH1 0x1 PUSH1 0xA0 SHL SUB AND CALLER SUB PUSH2 0x2947 JUMPI JUMP JUMPDEST PUSH1 0x40 MLOAD PUSH3 0x461BCD PUSH1 0xE5 SHL DUP2 MSTORE PUSH1 0x20 PUSH1 0x4 DUP3 ADD MSTORE PUSH1 0x16 PUSH1 0x24 DUP3 ADD MSTORE PUSH22 0x27B7363C9031B0B63630B1363290313C9037BBB732B9 PUSH1 0x51 SHL PUSH1 0x44 DUP3 ADD MSTORE PUSH1 0x64 SWAP1 REVERT INVALID LOG2 PUSH5 0x6970667358 0x22 SLT KECCAK256 CODECOPY PUSH5 0x4E48C4BE22 BALANCE SUB 0xBF 0xF 0x26 0x4F CALLCODE PUSH25 0xC9E78B2E4F17DD4FA38B623A48DE7F2F3B64736F6C63430008 SGT STOP CALLER ",
  "sha1": "106d0322c22c577f5a59dc458136046be705a4cd",
  "source": "// SPDX-License-Identifier: MIT\npragma solidity 0.8.19;\n\nimport {IRouterClient} from \"@chainlink/contracts/src/v0.8/ccip/interfaces/IRouterClient.sol\";\nimport {OwnerIsCreator} from \"@chainlink/contracts/src/v0.8/shared/access/OwnerIsCreator.sol\";\nimport {Client} from \"@chainlink/contracts/src/v0.8/ccip/libraries/Client.sol\";\nimport {CCIPReceiver} from \"@chainlink/contracts/src/v0.8/ccip/applications/CCIPReceiver.sol\";\n\nimport {LinkTokenInterface} from \"@chainlink/contracts/src/v0.8/shared/interfaces/LinkTokenInterface.sol\";\n\nimport \"@openzeppelin/contracts/token/ERC20/ERC20.sol\";\nimport \"./utils_node/UtilsMasterNode.sol\";\n\n// Node interface\nimport \"../interfaces/INode.sol\";\n\n/// @title - A simple messenger contract for transferring/receiving tokens and data across chains.\ncontract MasterNode is CCIPReceiver, OwnerIsCreator, ERC20, UtilsMasterNode {\n    // Custom errors to provide more descriptive revert messages.\n    error NotEnoughBalance(uint256 currentBalance, uint256 calculatedFees); // Used to make sure contract has enough balance to cover the fees.\n    error DestinationNodeNotValid(address nodeAddress); // Used when the destination address has not been allowlisted by the contract owner.\n\n    event WarpAssets(\n        uint64 indexed detinationCCIPid,\n        address indexed destinationNodeAddress\n    );\n\n    event WithdrawAssets(\n        uint64 indexed detinationCCIPid,\n        address indexed userAddress,\n        uint256 indexed amount\n    );\n    event ResumeOperations(uint8 indexed commandResumeOperations);\n    event MintAwrp(address indexed userAddress, uint256 indexed amount);\n\n    bool public isProtocolInTestMode = true;\n\n    LinkTokenInterface private s_linkToken;\n    uint64 public immutable MASTER_CONTRACT_CHAIN_ID;\n    bool public allowMoreNodes = true;\n    address public lastActiveNode;\n    address public activeNode;\n    uint256 public lastTimeWarped;\n\n    struct ValidNodes {\n        bool isValidNode;\n        bool isActiveNode;\n        uint64 chainCCIPid;\n        uint256 lastDataFromAave;\n        uint256 totalUsdcSupply;\n        uint256 totalUsdcBorrow;\n        uint256 supplyRate;\n        uint256 totalAusdcNode;\n    }\n\n    mapping(address => ValidNodes) public validNodes;\n\n    constructor(\n        address _router,\n        address _link,\n        uint64 _MASTER_CONTRACT_CHAIN_ID\n    ) CCIPReceiver(_router) ERC20(\"WarpYield\", \"aWRP\") {\n        s_linkToken = LinkTokenInterface(_link);\n        MASTER_CONTRACT_CHAIN_ID = _MASTER_CONTRACT_CHAIN_ID;\n    }\n\n    modifier onlyValidNodes(address nodeAddress) {\n        if (!validNodes[nodeAddress].isValidNode) {\n            revert DestinationNodeNotValid(nodeAddress);\n        }\n        _;\n    }\n\n    modifier masterAndNodeInSameChain() {\n        require(\n            validNodes[msg.sender].chainCCIPid == MASTER_CONTRACT_CHAIN_ID,\n            \"Require master and node in same chain\"\n        );\n        _;\n    }\n\n    function stopAddingNodes() external onlyOwner {\n        allowMoreNodes = false;\n    }\n\n    function addValidNode(\n        address nodeAddress,\n        uint64 chainCCIPid,\n        bool isActiveNode\n    ) external onlyOwner {\n        require(allowMoreNodes, \"No more nodes allowed\");\n        validNodes[nodeAddress].isValidNode = true;\n        validNodes[nodeAddress].isActiveNode = isActiveNode;\n        validNodes[nodeAddress].chainCCIPid = chainCCIPid;\n\n        if (isActiveNode) {\n            lastActiveNode = nodeAddress;\n            activeNode = nodeAddress;\n        }\n    }\n\n    /////////////////////////////////////////////////////////////////////////\n    ////////////////////  INCOMING DEPOSIT => MINT aWRP  ///////////////////\n    ////////////////////////  COMMAND == 0  ///////////////////////////////\n    //////////////////////////////////////////////////////////////////////\n\n    function _aWarpTokenMinter(\n        Client.Any2EVMMessage memory _any2EvmMessage\n    ) internal {\n        (, address userAddress, uint256 shares) = abi.decode(\n            _any2EvmMessage.data,\n            (uint8, address, uint256)\n        );\n\n        _mint(userAddress, shares);\n\n        emit MintAwrp(userAddress, shares);\n    }\n\n    ///////////////////  DEPOSIT, MASTER AND NODE IN SAME CHAIN  /////////////////\n\n    function aWarpTokenMinterFromSameChain(\n        address userAddress,\n        uint256 shares\n    ) external masterAndNodeInSameChain onlyValidNodes(msg.sender) {\n        _mint(userAddress, shares);\n        emit MintAwrp(userAddress, shares);\n    }\n\n    /////////////////////////////////////////////////////////////////////////\n    //////////////////////  RESUME PROTOCOL OPERATIONS  ////////////////////\n    ////////////////////////  COMMAND == 1  ///////////////////////////////\n    //////////////////////////////////////////////////////////////////////\n\n    function _resmumeOperations(\n        Client.Any2EVMMessage memory _any2EvmMessage\n    ) internal {\n        validNodes[abi.decode(_any2EvmMessage.sender, (address))]\n            .isActiveNode = true;\n\n        activeNode = abi.decode(_any2EvmMessage.sender, (address));\n\n        emit ResumeOperations(uint8(1));\n    }\n\n    ///////////  RESUME OPERATIONS, MASTER AND NODE IN SAME CHAIN  //////////\n\n    function _resmumeOperationsFromSameChain()\n        external\n        masterAndNodeInSameChain\n        onlyValidNodes(msg.sender)\n    {\n        validNodes[msg.sender].isActiveNode = true;\n        activeNode = msg.sender;\n        emit ResumeOperations(uint8(1));\n    }\n\n    /////////////////////////////////////////////////////////////////////////\n    /////////////////////////  DATA AAVE FROM NODE  ////////////////////////\n    ////////////////////////  COMMAND == 2  ///////////////////////////////\n    //////////////////////////////////////////////////////////////////////\n\n    function _nodeAaveFeed(\n        Client.Any2EVMMessage memory _any2EvmMessage\n    ) internal {\n        (\n            ,\n            uint256 totalUsdcSupply,\n            uint256 totalUsdcBorrow,\n            uint256 supplyRate,\n            uint256 totalAusdcNode\n        ) = abi.decode(\n                _any2EvmMessage.data,\n                (uint8, uint256, uint256, uint256, uint256)\n            );\n\n        validNodes[abi.decode(_any2EvmMessage.sender, (address))]\n            .lastDataFromAave = block.timestamp;\n        validNodes[abi.decode(_any2EvmMessage.sender, (address))]\n            .totalUsdcSupply = totalUsdcSupply;\n        validNodes[abi.decode(_any2EvmMessage.sender, (address))]\n            .totalUsdcBorrow = totalUsdcBorrow;\n        validNodes[abi.decode(_any2EvmMessage.sender, (address))]\n            .supplyRate = supplyRate;\n        validNodes[abi.decode(_any2EvmMessage.sender, (address))]\n            .totalAusdcNode = totalAusdcNode;\n    }\n\n    ////////////////  DATA AAVE, MASTER AND NODE IN SAME CHAIN  //////////////\n\n    function nodeAaveFeedFromSameChain(\n        uint256 totalUsdcSupply,\n        uint256 totalUsdcBorrow,\n        uint256 supplyRate,\n        uint256 totalAusdcNode\n    ) external masterAndNodeInSameChain onlyValidNodes(msg.sender) {\n        validNodes[msg.sender].lastDataFromAave = block.timestamp;\n        validNodes[msg.sender].totalUsdcSupply = totalUsdcSupply;\n        validNodes[msg.sender].totalUsdcBorrow = totalUsdcBorrow;\n        validNodes[msg.sender].supplyRate = supplyRate;\n        validNodes[msg.sender].totalAusdcNode = totalAusdcNode;\n    }\n\n    //////////////////////////////////////////////////////////////////////////\n    /////////////////////////////////////////////////////////////////////////\n    ////////////////////////  INCOMING MESAGE HANDLER  /////////////////////\n    /////////////////  THIS FUNC IS CALLED BY CHAINLINK  //////////////////\n    //////////////////////////////////////////////////////////////////////\n    /////////////////////////////////////////////////////////////////////\n\n    function _ccipReceive(\n        Client.Any2EVMMessage memory _any2EvmMessage\n    )\n        internal\n        override\n        onlyValidNodes(abi.decode(_any2EvmMessage.sender, (address)))\n    {\n        uint8 command = _internalCommandRouter(_any2EvmMessage);\n        if (command == 0) {\n            _aWarpTokenMinter(_any2EvmMessage);\n        } else if (command == 1) {\n            _resmumeOperations(_any2EvmMessage);\n        } else if (command == 2) {\n            _nodeAaveFeed(_any2EvmMessage);\n        } else {\n            revert(\"invalid command from Node\");\n        }\n    }\n\n    /////////////////////////////////////////////////////////////////////////\n    ////////////////////////////////////////////////////////////////////////\n    ///////////////////////  OUTGOING MESAGES HANDLER  ////////////////////\n    //////////////////////////////////////////////////////////////////////\n    /////////////////////////////////////////////////////////////////////\n\n    function _sendMessage(\n        uint64 _destinationChainSelector,\n        address _receiver,\n        bytes memory _data\n    ) internal onlyValidNodes(_receiver) returns (bytes32 messageId) {\n        // Create an EVM2AnyMessage struct in memory with necessary information for sending a cross-chain message\n        // address(linkToken) means fees are paid in LINK\n        Client.EVM2AnyMessage memory evm2AnyMessage = _buildCCIPMessage(\n            _receiver,\n            _data,\n            address(s_linkToken)\n        );\n\n        // Initialize a router client instance to interact with cross-chain router\n        IRouterClient router = IRouterClient(this.getRouter());\n\n        // Get the fee required to send the CCIP message\n        uint256 fees = router.getFee(_destinationChainSelector, evm2AnyMessage);\n\n        require(\n            s_linkToken.transferFrom(msg.sender, address(this), fees),\n            \"Not provided Link for fees\"\n        );\n\n        if (fees > s_linkToken.balanceOf(address(this)))\n            revert NotEnoughBalance(s_linkToken.balanceOf(address(this)), fees);\n\n        // approve the Router to transfer LINK tokens on contract's behalf. It will spend the fees in LINK\n        s_linkToken.approve(address(router), fees);\n\n        // Send the message through the router and store the returned message ID\n        messageId = router.ccipSend(_destinationChainSelector, evm2AnyMessage);\n\n        // Return the message ID\n        return messageId;\n    }\n\n    /// @notice Construct a CCIP message.\n    /// @dev This function will create an EVM2AnyMessage struct with all the necessary information for programmable tokens transfer.\n    /// @param _receiver The address of the receiver.\n    /// @param _data The bytes data to be sent.\n    /// @param _feeTokenAddress The address of the token used for fees. Set address(0) for native gas.\n    /// @return Client.EVM2AnyMessage Returns an EVM2AnyMessage struct which contains information for sending a CCIP message.\n    function _buildCCIPMessage(\n        address _receiver,\n        bytes memory _data,\n        address _feeTokenAddress\n    ) private pure returns (Client.EVM2AnyMessage memory) {\n        return\n            Client.EVM2AnyMessage({\n                receiver: abi.encode(_receiver), // ABI-encoded receiver address\n                data: _data, // ABI-encoded string\n                tokenAmounts: new Client.EVMTokenAmount[](0), // The amount and type of token being transferred\n                extraArgs: Client._argsToBytes(\n                    // Additional arguments, setting gas limit\n                    Client.EVMExtraArgsV1({gasLimit: 2_000_000})\n                ),\n                // Set the feeToken to a feeTokenAddress, indicating specific asset will be used for fees\n                feeToken: _feeTokenAddress\n            });\n    }\n\n    /// @notice Fallback function to allow the contract to receive Ether.\n    /// @dev This function has no function body, making it a default function for receiving Ether.\n    /// It is automatically called when Ether is sent to the contract without any data.\n    receive() external payable {}\n\n    /////////////////////////////////////////////////////////////////////////\n    ///////////////////////////////  WARP ASSETS  //////////////////////////\n    ///////////////////////////////////////////////////////////////////////\n\n    function warpAssets(address _destinationNodeAddress) external {\n        require(\n            validNodes[_destinationNodeAddress].isValidNode,\n            \"Destination Node is not vaild\"\n        );\n        // in test mode no requirements to warp assets\n        if (!isProtocolInTestMode) {\n            require(\n                checkApprovedWarp(activeNode, _destinationNodeAddress),\n                \"Condition to warp not met\"\n            );\n        }\n        uint64 _destinationCCIPid = validNodes[_destinationNodeAddress]\n            .chainCCIPid;\n        uint8 commandWarpAssets = 1;\n\n        bytes memory data = abi.encode(\n            commandWarpAssets,\n            _destinationCCIPid,\n            _destinationNodeAddress\n        );\n        validNodes[activeNode].isActiveNode = false;\n\n        if (validNodes[activeNode].chainCCIPid == MASTER_CONTRACT_CHAIN_ID) {\n            INode(activeNode).warpAssetsFromSameChain(\n                _destinationCCIPid,\n                _destinationNodeAddress\n            );\n        } else {\n            _sendMessage(validNodes[activeNode].chainCCIPid, activeNode, data);\n        }\n\n        lastActiveNode = activeNode;\n        activeNode = address(0);\n        lastTimeWarped = block.timestamp;\n\n        emit WarpAssets(validNodes[activeNode].chainCCIPid, activeNode);\n    }\n\n    /////////////////////////////////////////////////////////////////////////\n    /////////////////////////////  WITHDRAW  ///////////////////////////////\n    ///////////////////////////////////////////////////////////////////////\n\n    function withdraw(uint256 shares) external {\n        require(validNodes[activeNode].isActiveNode, \"Node is not Active\");\n\n        require(shares <= balanceOf(msg.sender), \"Not enought balance\");\n\n        uint8 commandWitdraw = 0;\n\n        bytes memory data = abi.encode(commandWitdraw, msg.sender, shares);\n\n        _burn(msg.sender, shares);\n\n        if (validNodes[activeNode].chainCCIPid == MASTER_CONTRACT_CHAIN_ID) {\n            INode(activeNode).withdrawFromSameChain(msg.sender, shares);\n        } else {\n            _sendMessage(validNodes[activeNode].chainCCIPid, activeNode, data);\n        }\n\n        emit WithdrawAssets(\n            validNodes[activeNode].chainCCIPid,\n            msg.sender,\n            shares\n        );\n    }\n\n    /////////////////////////////////////////////////////////////////////////\n    /////////////////////////////   UTILS   ////////////////////////////////\n    ///////////////////////////////////////////////////////////////////////\n\n    function checkApprovedWarp(\n        address _activeNode,\n        address destinationNode\n    ) public view returns (bool) {\n        uint256 newSupplyRate = calculateNewSupplyRates(\n            validNodes[destinationNode].totalUsdcSupply,\n            validNodes[destinationNode].totalUsdcBorrow,\n            validNodes[destinationNode].supplyRate,\n            validNodes[destinationNode].totalAusdcNode\n        );\n\n        return\n            lastTimeWarped + (3600 * 24) < block.timestamp &&\n            validNodes[_activeNode].isActiveNode == true &&\n            validNodes[_activeNode].lastDataFromAave > 0 &&\n            validNodes[destinationNode].lastDataFromAave > 0 &&\n            validNodes[_activeNode].lastDataFromAave + 3600 > block.timestamp &&\n            validNodes[destinationNode].lastDataFromAave + 3600 >\n            block.timestamp &&\n            validNodes[destinationNode].isValidNode == true &&\n            validNodes[destinationNode].isActiveNode == false &&\n            validNodes[_activeNode].supplyRate > 0 &&\n            validNodes[_activeNode].supplyRate < newSupplyRate;\n    }\n\n    // get ChainId from active node or last active node in case vault is warping, only for frontend, no impact in contract\n    function getChainIdFromActiveNode() external view returns (uint64) {\n        if (activeNode == address(0)) {\n            return validNodes[lastActiveNode].chainCCIPid;\n        }\n\n        return validNodes[activeNode].chainCCIPid;\n    }\n}\n",
  "sourcePath": "contracts/MasterNode.sol",
  "type": "contract"
}