{
  "abi": [
    {
      "inputs": [
        {
          "internalType": "address",
          "name": "_router",
          "type": "address"
        },
        {
          "internalType": "address",
          "name": "_link",
          "type": "address"
        },
        {
          "internalType": "address",
          "name": "_USDC_ADDRESS",
          "type": "address"
        },
        {
          "internalType": "address",
          "name": "_aUSDC_ADDRESS",
          "type": "address"
        },
        {
          "internalType": "address",
          "name": "_WETH_ADDRESS",
          "type": "address"
        },
        {
          "internalType": "uint64",
          "name": "_MASTER_CONTRACT_CHAIN_ID",
          "type": "uint64"
        },
        {
          "internalType": "address",
          "name": "_MASTER_CONTRACT_ADDRESS",
          "type": "address"
        },
        {
          "internalType": "uint64",
          "name": "_NODE_CONTRACT_CHAIN_ID",
          "type": "uint64"
        },
        {
          "internalType": "address",
          "name": "_POOL_ADDRESS_PROVIDER_ADDRESS",
          "type": "address"
        },
        {
          "internalType": "address",
          "name": "_POOL_DATA_PROVIDER_ADDRESS",
          "type": "address"
        },
        {
          "internalType": "address",
          "name": "_UNISWAP_V3_ROUTER02",
          "type": "address"
        },
        {
          "internalType": "bool",
          "name": "_isNodeActive",
          "type": "bool"
        },
        {
          "internalType": "uint16",
          "name": "_uinswapFeePool",
          "type": "uint16"
        }
      ],
      "stateMutability": "nonpayable",
      "type": "constructor"
    },
    {
      "inputs": [
        {
          "internalType": "address",
          "name": "router",
          "type": "address"
        }
      ],
      "name": "InvalidRouter",
      "type": "error"
    },
    {
      "inputs": [
        {
          "internalType": "uint256",
          "name": "currentBalance",
          "type": "uint256"
        },
        {
          "internalType": "uint256",
          "name": "calculatedFees",
          "type": "uint256"
        }
      ],
      "name": "NotEnoughBalance",
      "type": "error"
    },
    {
      "anonymous": false,
      "inputs": [
        {
          "indexed": true,
          "internalType": "address",
          "name": "userAddress",
          "type": "address"
        },
        {
          "indexed": true,
          "internalType": "uint256",
          "name": "amountUsdc",
          "type": "uint256"
        },
        {
          "indexed": true,
          "internalType": "uint256",
          "name": "amountAwrp",
          "type": "uint256"
        }
      ],
      "name": "DepositAssets",
      "type": "event"
    },
    {
      "anonymous": false,
      "inputs": [
        {
          "indexed": true,
          "internalType": "address",
          "name": "from",
          "type": "address"
        },
        {
          "indexed": true,
          "internalType": "address",
          "name": "to",
          "type": "address"
        }
      ],
      "name": "OwnershipTransferRequested",
      "type": "event"
    },
    {
      "anonymous": false,
      "inputs": [
        {
          "indexed": true,
          "internalType": "address",
          "name": "from",
          "type": "address"
        },
        {
          "indexed": true,
          "internalType": "address",
          "name": "to",
          "type": "address"
        }
      ],
      "name": "OwnershipTransferred",
      "type": "event"
    },
    {
      "anonymous": false,
      "inputs": [
        {
          "indexed": true,
          "internalType": "uint64",
          "name": "detinationCCIPid",
          "type": "uint64"
        },
        {
          "indexed": true,
          "internalType": "address",
          "name": "destinationNodeAddress",
          "type": "address"
        },
        {
          "indexed": true,
          "internalType": "uint256",
          "name": "amount",
          "type": "uint256"
        }
      ],
      "name": "WarpAssets",
      "type": "event"
    },
    {
      "anonymous": false,
      "inputs": [
        {
          "indexed": true,
          "internalType": "uint8",
          "name": "commandResmueOperations",
          "type": "uint8"
        }
      ],
      "name": "WarpCompletedNodeReady",
      "type": "event"
    },
    {
      "inputs": [],
      "name": "MASTER_CONTRACT_ADDRESS",
      "outputs": [
        {
          "internalType": "address",
          "name": "",
          "type": "address"
        }
      ],
      "stateMutability": "view",
      "type": "function"
    },
    {
      "inputs": [],
      "name": "MASTER_CONTRACT_CHAIN_ID",
      "outputs": [
        {
          "internalType": "uint64",
          "name": "",
          "type": "uint64"
        }
      ],
      "stateMutability": "view",
      "type": "function"
    },
    {
      "inputs": [],
      "name": "NODE_CONTRACT_CHAIN_ID",
      "outputs": [
        {
          "internalType": "uint64",
          "name": "",
          "type": "uint64"
        }
      ],
      "stateMutability": "view",
      "type": "function"
    },
    {
      "inputs": [],
      "name": "POOL_ADDRESS_PROVIDER_ADDRESS",
      "outputs": [
        {
          "internalType": "address",
          "name": "",
          "type": "address"
        }
      ],
      "stateMutability": "view",
      "type": "function"
    },
    {
      "inputs": [],
      "name": "POOL_DATA_PROVIDER_ADDRESS",
      "outputs": [
        {
          "internalType": "address",
          "name": "",
          "type": "address"
        }
      ],
      "stateMutability": "view",
      "type": "function"
    },
    {
      "inputs": [],
      "name": "USDC_ADDRESS",
      "outputs": [
        {
          "internalType": "address",
          "name": "",
          "type": "address"
        }
      ],
      "stateMutability": "view",
      "type": "function"
    },
    {
      "inputs": [],
      "name": "WETH_ADDRESS",
      "outputs": [
        {
          "internalType": "address",
          "name": "",
          "type": "address"
        }
      ],
      "stateMutability": "view",
      "type": "function"
    },
    {
      "inputs": [],
      "name": "aUSDC_ADDRESS",
      "outputs": [
        {
          "internalType": "address",
          "name": "",
          "type": "address"
        }
      ],
      "stateMutability": "view",
      "type": "function"
    },
    {
      "inputs": [],
      "name": "aWrpTotalSupplyNodeSide",
      "outputs": [
        {
          "internalType": "uint256",
          "name": "",
          "type": "uint256"
        }
      ],
      "stateMutability": "view",
      "type": "function"
    },
    {
      "inputs": [],
      "name": "acceptOwnership",
      "outputs": [],
      "stateMutability": "nonpayable",
      "type": "function"
    },
    {
      "inputs": [
        {
          "internalType": "uint256",
          "name": "",
          "type": "uint256"
        }
      ],
      "name": "allowedNodes",
      "outputs": [
        {
          "internalType": "address",
          "name": "",
          "type": "address"
        }
      ],
      "stateMutability": "view",
      "type": "function"
    },
    {
      "inputs": [
        {
          "internalType": "address",
          "name": "",
          "type": "address"
        }
      ],
      "name": "avaliableForRefund",
      "outputs": [
        {
          "internalType": "uint256",
          "name": "",
          "type": "uint256"
        }
      ],
      "stateMutability": "view",
      "type": "function"
    },
    {
      "inputs": [
        {
          "internalType": "uint256",
          "name": "shares",
          "type": "uint256"
        }
      ],
      "name": "calculateSharesValue",
      "outputs": [
        {
          "internalType": "uint256",
          "name": "",
          "type": "uint256"
        }
      ],
      "stateMutability": "view",
      "type": "function"
    },
    {
      "inputs": [
        {
          "components": [
            {
              "internalType": "bytes32",
              "name": "messageId",
              "type": "bytes32"
            },
            {
              "internalType": "uint64",
              "name": "sourceChainSelector",
              "type": "uint64"
            },
            {
              "internalType": "bytes",
              "name": "sender",
              "type": "bytes"
            },
            {
              "internalType": "bytes",
              "name": "data",
              "type": "bytes"
            },
            {
              "components": [
                {
                  "internalType": "address",
                  "name": "token",
                  "type": "address"
                },
                {
                  "internalType": "uint256",
                  "name": "amount",
                  "type": "uint256"
                }
              ],
              "internalType": "struct Client.EVMTokenAmount[]",
              "name": "destTokenAmounts",
              "type": "tuple[]"
            }
          ],
          "internalType": "struct Client.Any2EVMMessage",
          "name": "message",
          "type": "tuple"
        }
      ],
      "name": "ccipReceive",
      "outputs": [],
      "stateMutability": "nonpayable",
      "type": "function"
    },
    {
      "inputs": [
        {
          "internalType": "uint256",
          "name": "amount",
          "type": "uint256"
        }
      ],
      "name": "deposit",
      "outputs": [],
      "stateMutability": "nonpayable",
      "type": "function"
    },
    {
      "inputs": [
        {
          "internalType": "address",
          "name": "poolDAtaProvider",
          "type": "address"
        },
        {
          "internalType": "address",
          "name": "usdcAddress",
          "type": "address"
        }
      ],
      "name": "getAaveSupplyRate",
      "outputs": [
        {
          "internalType": "uint256",
          "name": "",
          "type": "uint256"
        }
      ],
      "stateMutability": "view",
      "type": "function"
    },
    {
      "inputs": [
        {
          "internalType": "uint64",
          "name": "destinationCCIPid",
          "type": "uint64"
        },
        {
          "internalType": "address",
          "name": "receiver",
          "type": "address"
        },
        {
          "internalType": "address",
          "name": "s_linkTokenAddress",
          "type": "address"
        },
        {
          "internalType": "address",
          "name": "routerAddress",
          "type": "address"
        },
        {
          "internalType": "bytes",
          "name": "_data",
          "type": "bytes"
        }
      ],
      "name": "getLinkFees",
      "outputs": [
        {
          "internalType": "uint256",
          "name": "",
          "type": "uint256"
        }
      ],
      "stateMutability": "view",
      "type": "function"
    },
    {
      "inputs": [],
      "name": "getRouter",
      "outputs": [
        {
          "internalType": "address",
          "name": "",
          "type": "address"
        }
      ],
      "stateMutability": "view",
      "type": "function"
    },
    {
      "inputs": [],
      "name": "iSwapRouter02",
      "outputs": [
        {
          "internalType": "contract ISwapRouter02",
          "name": "",
          "type": "address"
        }
      ],
      "stateMutability": "view",
      "type": "function"
    },
    {
      "inputs": [],
      "name": "isNodeActive",
      "outputs": [
        {
          "internalType": "bool",
          "name": "",
          "type": "bool"
        }
      ],
      "stateMutability": "view",
      "type": "function"
    },
    {
      "inputs": [],
      "name": "maxVaultAmount",
      "outputs": [
        {
          "internalType": "uint256",
          "name": "",
          "type": "uint256"
        }
      ],
      "stateMutability": "view",
      "type": "function"
    },
    {
      "inputs": [],
      "name": "owner",
      "outputs": [
        {
          "internalType": "address",
          "name": "",
          "type": "address"
        }
      ],
      "stateMutability": "view",
      "type": "function"
    },
    {
      "inputs": [],
      "name": "recoverAWRPFromFailedWithdraw",
      "outputs": [],
      "stateMutability": "nonpayable",
      "type": "function"
    },
    {
      "inputs": [],
      "name": "sendAaveData",
      "outputs": [],
      "stateMutability": "nonpayable",
      "type": "function"
    },
    {
      "inputs": [
        {
          "internalType": "address[]",
          "name": "_allowedNodes",
          "type": "address[]"
        }
      ],
      "name": "setAllowedNodes",
      "outputs": [],
      "stateMutability": "nonpayable",
      "type": "function"
    },
    {
      "inputs": [
        {
          "internalType": "bytes4",
          "name": "interfaceId",
          "type": "bytes4"
        }
      ],
      "name": "supportsInterface",
      "outputs": [
        {
          "internalType": "bool",
          "name": "",
          "type": "bool"
        }
      ],
      "stateMutability": "pure",
      "type": "function"
    },
    {
      "inputs": [
        {
          "internalType": "address",
          "name": "to",
          "type": "address"
        }
      ],
      "name": "transferOwnership",
      "outputs": [],
      "stateMutability": "nonpayable",
      "type": "function"
    },
    {
      "inputs": [],
      "name": "uinswapFeePool",
      "outputs": [
        {
          "internalType": "uint16",
          "name": "",
          "type": "uint16"
        }
      ],
      "stateMutability": "view",
      "type": "function"
    },
    {
      "inputs": [
        {
          "internalType": "uint64",
          "name": "_destinationChainSelector",
          "type": "uint64"
        },
        {
          "internalType": "address",
          "name": "_receiver",
          "type": "address"
        }
      ],
      "name": "warpAssetsFromSameChain",
      "outputs": [],
      "stateMutability": "nonpayable",
      "type": "function"
    },
    {
      "inputs": [
        {
          "internalType": "uint64",
          "name": "_destinationChainSelector",
          "type": "uint64"
        },
        {
          "internalType": "address",
          "name": "_receiver",
          "type": "address"
        }
      ],
      "name": "warpAssetsTester",
      "outputs": [],
      "stateMutability": "nonpayable",
      "type": "function"
    },
    {
      "inputs": [
        {
          "internalType": "address",
          "name": "transferToUser",
          "type": "address"
        },
        {
          "internalType": "uint256",
          "name": "shares",
          "type": "uint256"
        }
      ],
      "name": "withdrawFromSameChain",
      "outputs": [],
      "stateMutability": "nonpayable",
      "type": "function"
    },
    {
      "stateMutability": "payable",
      "type": "receive"
    }
  ],
  "bytecode": "6101c03462000444576200429838819003601f8101601f191683016001600160401b0381118482101762000449578392829160405283396101a092839181010312620004445762000050816200045f565b916200005f602083016200045f565b91806200006f604082016200045f565b936200007e606083016200045f565b946200008d608084016200045f565b956200009c60a0850162000474565b92620000ab60c086016200045f565b98620000ba60e0870162000474565b986101009a620000cc8c89016200045f565b6101209b620000dd8d8b016200045f565b9261014099620000ef8b8d016200045f565b95610160809d0151998a1515809b0362000444576101809e8f01519b61ffff8d168d0362000444576001600160a01b0399808b16156200042b576080523315620003e6578960018060a01b03199b338d60005416176000556501d1a94a2000600255168b60055416176005558d528d528d5260a05260c05260e0528c528a521690600654161760065560ff801960035416911617600355845260405194613e0e96876200048a8839608051878181610d240152611617015260a05187818161038e015281816105ad0152818161095301528181610dc40152818161142c015281816115bf01528181611b1101528181611d370152611fcb015260c0518781816103e001528181610471015281816106060152818161067a015281816109ac01528181610a5701528181610e1b0152818161148301528181611baa01528181611c3a0152818161262a0152613808015260e0518781816103b4015281816105da0152818161098001528181610de70152818161144f01528181611b34015261243401525186818161088d01528181610cb901528181610e47015281816114f6015281816117ab01528181611a4e01528181611b8301528181612050015281816122210152818161246e01528181612f6b0152818161318201526134960152518581816102c501526113cc015251848181610294015281816106fa0152818161076b01528181610c7201528181610f8b015281816114ac015281816118e601528181611a0701528181611b6201528181611ded015281816121ff01528181612c4701528181612cb501528181612d0801528181612f0601528181612f4a015281816131400152613444015251838181610316015281816107d601528181610c9801528181610d6901528181610e84015281816112ff015281816114d5015281816117e401528181611a2d01528181611d9101528181612bee0152613161015251828181611e970152818161278d01528181612d2d01528181612e070152612e51015251818181611ec2015281816127530152612d590152f35b60405162461bcd60e51b815260206004820152601860248201527f43616e6e6f7420736574206f776e657220746f207a65726f00000000000000006044820152606490fd5b6040516335fdcccd60e21b815260006004820152602490fd5b600080fd5b634e487b7160e01b600052604160045260246000fd5b51906001600160a01b03821682036200044457565b51906001600160401b0382168203620004445756fe608080604052600436101561001d575b50361561001b57600080fd5b005b600090813560e01c90816301ffc9a7146127bc57508063040141e5146127775780630e508fff1461273857806315d03dfd1461270f578063168010ed1461267c5780631d34b4ff1461265957806332d3ad5e1461261457806336161eb9146125f65780634c8719f3146125d8578063544b17091461249d57806367062580146124585780637058a5e71461241457806379ba50971461237057806385572ffb146115e35780638cf19d191461159f5780638da5cb5b1461157857806397652ffe146113fb578063982d1f18146113b657806398b3c1f8146112cc578063a19b24b5146110d0578063a63ca0761461108c578063af002db814610d98578063af25617314610d53578063b0f479a114610d0e578063b2aae5c714610c4a578063b6b55f2514610729578063bb09d9b7146106e4578063c330a2ed1461053b578063d8bba68f1461026c578063e227a140146102335763f2fde38b0361000f573461023057602036600319011261023057610194612811565b61019c613d86565b6001600160a01b03908116903382146101eb57600180546001600160a01b031916831790558254167fed8889f560326eb138920d842192f0eb3dd22b4f139c87a2c57538e05bae12788380a380f35b60405162461bcd60e51b815260206004820152601760248201527f43616e6e6f74207472616e7366657220746f2073656c660000000000000000006044820152606490fd5b80fd5b5034610230576020366003190112610230576020906040906001600160a01b0361025b612811565b168152600883522054604051908152f35b50346102305780600319360112610230576040516335ea6a7560e01b81526001600160a01b037f0000000000000000000000000000000000000000000000000000000000000000811660048301529061018080826024817f000000000000000000000000000000000000000000000000000000000000000087165afa91821561053057849185936104f3575b50506040516370a0823160e01b8152306004820152916020836024817f000000000000000000000000000000000000000000000000000000000000000088165afa9283156104e85785936104b0575b5060405193600260208601528260408601528160608601528160808601528360a086015260a0855260c08501946001600160401b038187108188111761049a5787966040527f000000000000000000000000000000000000000000000000000000000000000090808216907f000000000000000000000000000000000000000000000000000000000000000016146000146104645750507f000000000000000000000000000000000000000000000000000000000000000016803b15610460578492836084926040519687958694630453b3ff60e11b86526004860152806024860152604485015260648401525af180156104555761044557505080f35b61044e906128b8565b6102305780f35b6040513d84823e3d90fd5b8480fd5b93509350505061049692507f000000000000000000000000000000000000000000000000000000000000000090613246565b5080f35b634e487b7160e01b600052604160045260246000fd5b9092506020813d82116104e0575b816104cb60209383612901565b810103126104db57519138610347565b600080fd5b3d91506104be565b6040513d87823e3d90fd5b610516935080919250903d10610529575b61050e8183612901565b8101906139bb565b50505050505050935050905038806102f8565b503d610504565b6040513d86823e3d90fd5b5034610230578060031936011261023057338152600860205260408120541561069f5733815260086020528060408120546040516105ab8161059d8433602084016040909392919360608101946000825260018060a01b031660208201520152565b03601f198101835282612901565b7f00000000000000000000000000000000000000000000000000000000000000006001600160401b03808216907f000000000000000000000000000000000000000000000000000000000000000016146000146106705750507f00000000000000000000000000000000000000000000000000000000000000006001600160a01b0316803b1561066c5760405163011e0fa960e21b8152336004820152602481019290925282908290604490829084905af180156104555761044557505080f35b5050fd5b90915061049692507f000000000000000000000000000000000000000000000000000000000000000090613246565b60405162461bcd60e51b815260206004820152601860248201527f4e6f206157525020746f6b656e7320746f20726566756e6400000000000000006044820152606490fd5b50346102305780600319360112610230576040517f00000000000000000000000000000000000000000000000000000000000000006001600160a01b03168152602090f35b503461023057602080600319360112610a49576040516323b872dd60e01b81523360048083019190915230602483015235604482018190526001600160a01b037f000000000000000000000000000000000000000000000000000000000000000081811694929391929182816064818a8a5af1908115610ac4578791610c2d575b5015610be85760ff6003541615610b89576040516370a0823160e01b81523060048201529482866024817f000000000000000000000000000000000000000000000000000000000000000088165afa958615610ac4578796610b5a575b506108128587612af0565b6002541115610b055786600754968715600014610ae357505064e8d4a51000808602908682041486151715610acf57879493929161085286928099612af0565b6007556040805160008682019081523360208201528083018b9052819003918201815294906108849060600186612901565b806108e66108b17f0000000000000000000000000000000000000000000000000000000000000000613a79565b60405163095ea7b360e01b81526001600160a01b0382166004820152602481018c905295909486929091839182906044820190565b03925af1928315610ac4578693610a96575b505016803b156104605760405163e8eda9df60e01b81526001600160a01b03929092166004830152602482018690523060448301526000606483015284908290608490829084905af1908115610530578491610a82575b50507f00000000000000000000000000000000000000000000000000000000000000006001600160401b03808216907f00000000000000000000000000000000000000000000000000000000000000001614600014610a4d5750507f000000000000000000000000000000000000000000000000000000000000000016803b15610a495760405163011e0fa960e21b8152336004820152602481018590529082908290604490829084905af1801561045557610a31575b50505b337fecce874b8763e37231b6791dc5866441104332ef19f5de5516a7dc20c041b1ca8480a480f35b610a3a906128b8565b610a45578238610a06565b8280fd5b5080fd5b909150610a7c92507f000000000000000000000000000000000000000000000000000000000000000090613246565b50610a09565b610a8b906128b8565b610a4557823861094f565b81610ab592903d10610abd575b610aad8183612901565b810190612ad8565b5038806108f8565b503d610aa3565b6040513d89823e3d90fd5b634e487b7160e01b88526011600452602488fd5b91610852610afe8397969594610af98b8b6129dc565b612aab565b8099612af0565b60405162461bcd60e51b815260048101849052602760248201527f4e6f64652066757266696c6c6564206e6f206d6f7265206465706f7369747320604482015266185b1b1bddd95960ca1b6064820152608490fd5b9095508281813d8311610b82575b610b728183612901565b810103126104db57519438610807565b503d610b68565b60405162461bcd60e51b815260048101839052603160248201527f4173657473206172652057617270696e67204e6f772c206465706f736974732060448201527037b7103732bb90313637b1b5b1b430b4b760791b6064820152608490fd5b60405162461bcd60e51b815260048101839052601960248201527f4661696c656420746f207472616e7366657220616d6f756e74000000000000006044820152606490fd5b610c449150833d8511610abd57610aad8183612901565b386107aa565b503461023057604036600319011261023057610496610c67612851565b610c6f612827565b907f000000000000000000000000000000000000000000000000000000000000000090610cdd827f00000000000000000000000000000000000000000000000000000000000000007f0000000000000000000000000000000000000000000000000000000000000000613ad2565b92600754916040519260026020850152604084015260408352610cff836128e6565b60ff1960035416600355612b49565b50346102305780600319360112610230576040517f00000000000000000000000000000000000000000000000000000000000000006001600160a01b03168152602090f35b50346102305780600319360112610230576040517f00000000000000000000000000000000000000000000000000000000000000006001600160a01b03168152602090f35b503461023057604036600319011261023057610db2612811565b60243590610e0d6001600160401b03807f000000000000000000000000000000000000000000000000000000000000000016907f00000000000000000000000000000000000000000000000000000000000000001614612a05565b6001600160a01b03610e42337f0000000000000000000000000000000000000000000000000000000000000000831614612a5f565b610e6b7f0000000000000000000000000000000000000000000000000000000000000000613a79565b6040516370a0823160e01b8152306004820152602093917f00000000000000000000000000000000000000000000000000000000000000008416918581602481865afa908115611081578891611054575b50670de0b6b3a7640000908188028881048314891517156110405790610ee1916129dc565b610ef888610ef26007548094612aab565b92612acb565b60075560035460ff16610f265750505050906008929116845252610f2160408320918254612af0565b905580f35b60405163095ea7b360e01b81526001600160a01b038416600482015291900460248201819052959650949091879087908790604490829085905af194851561103357610fd2968896611016575b50604051631a4ca37b60e21b81526001600160a01b037f00000000000000000000000000000000000000000000000000000000000000008116600483015260248201949094529290941660448301529094859384929183906064820190565b0393165af1801561100b57610fe657505080f35b813d8311611004575b610ff98183612901565b810103126104db5780f35b503d610fef565b6040513d85823e3d90fd5b61102c90873d8911610abd57610aad8183612901565b5038610f73565b50604051903d90823e3d90fd5b634e487b7160e01b8a52601160045260248afd5b90508581813d831161107a575b61106b8183612901565b810103126104db575138610ebc565b503d611061565b6040513d8a823e3d90fd5b503461023057602036600319011261023057600435906004548210156102305760206110b78361298f565b905460405160039290921b1c6001600160a01b03168152f35b503461023057602080600319360112610a49576001600160401b03906004358281116112c857366023820112156112c857806004013561110f81612978565b9061111d6040519283612901565b80825283820192836024809360051b830101913683116112c45783879101915b8383106112ac5750505050611150613d86565b8151156112695760045491826112255751948511611213576801000000000000000085116112135750836004558084106111d3575b509060048452835b838110611198578480f35b82516001600160a01b03167f8a35acfbc15ff81a39ae7d344fd709f28e8600b4aa8c65c6b64bfe7fe36bd19b8201559181019160010161118d565b837f8a35acfbc15ff81a39ae7d344fd709f28e8600b4aa8c65c6b64bfe7fe36bd19b91820191015b8181106112085750611185565b8581556001016111fb565b634e487b7160e01b8652604160045285fd5b60405162461bcd60e51b815260048101869052601a818401527f616c6c6f7765644e6f646573206d75737420626520656d7074790000000000006044820152606490fd5b8360176064926040519262461bcd60e51b845260048401528201527f596f752073656e7420616e20656d7074792061727261790000000000000000006044820152fd5b81906112b78461283d565b815201910190869061113d565b8880fd5b8380fd5b50346102305760209081600319360112610230576040516370a0823160e01b8152306004828101919091523583826024817f00000000000000000000000000000000000000000000000000000000000000006001600160a01b03165afa91821561100b578392611387575b50670de0b6b3a76400009283820291808304851490151715611373575061136a91611361916129dc565b60075490612aab565b04604051908152f35b634e487b7160e01b81526011600452602490fd5b9091508381813d83116113af575b61139f8183612901565b810103126104db57519038611337565b503d611395565b50346102305780600319360112610230576040517f00000000000000000000000000000000000000000000000000000000000000006001600160a01b03168152602090f35b503461023057604036600319011261023057611415612851565b61141d612827565b906001600160401b03611475817f000000000000000000000000000000000000000000000000000000000000000016827f00000000000000000000000000000000000000000000000000000000000000001614612a05565b6001600160a01b036114aa337f0000000000000000000000000000000000000000000000000000000000000000831614612a5f565b7f00000000000000000000000000000000000000000000000000000000000000009361154d61151a867f00000000000000000000000000000000000000000000000000000000000000007f0000000000000000000000000000000000000000000000000000000000000000613ad2565b8096600754604051906002602083015260408201526040815261153c816128e6565b60ff19600354166003558488612b49565b501691167f4ee48ab43d52be2082a80761272f218fe0871f5b8dba97d174ec2db28b3b22188480a480f35b5034610230578060031936011261023057546040516001600160a01b039091168152602090f35b503461023057806003193601126102305760206040516001600160401b037f0000000000000000000000000000000000000000000000000000000000000000168152f35b503461023057600319602036820112610a49576004356001600160401b03918282116112c85760a0908236030112610a45577f00000000000000000000000000000000000000000000000000000000000000006001600160a01b031633036123585760405161165181612882565b81600401358152602482013583811681036104605760208201526044820135838111610460576116879060043691850101612922565b90604081019182526064830135848111612354576116ab9060043691860101612922565b9260608201938452608481013590858211612276570190366023830112156123545760048201356116db81612978565b926116e96040519485612901565b8184526024602085019260061b820101903682116112c457602401915b81831061231c5750505060800152516020818051810103126112c85761174a90611745906001600160a01b039061173f90602001613a20565b166137f0565b612afd565b80516020818051810103126112c857611767602060ff9201613a34565b16806119b75750905051606081805181010312610a495761178a60208201613a34565b50606061179960408301613a20565b910151906001600160a01b03166117cf7f0000000000000000000000000000000000000000000000000000000000000000613a79565b6040516370a0823160e01b81523060048201527f00000000000000000000000000000000000000000000000000000000000000006001600160a01b03169190602081602481865afa9081156119ac57869161197a575b50670de0b6b3a764000090818602868104831487151715610acf579061184a916129dc565b61185b86610ef26007548094612aab565b60075560035460ff16611882575050505082526008602052610f2160408320918254612af0565b60405163095ea7b360e01b81526001600160a01b03841660048201529190046024820181905290945092916020908590604490829089905af19283156104e85761192d9460209461195d575b50604051631a4ca37b60e21b81526001600160a01b037f00000000000000000000000000000000000000000000000000000000000000008116600483015260248201929092529216604483015290928391908290869082906064820190565b03926001600160a01b03165af1801561045557611948575080f35b602090813d831161100457610ff98183612901565b61197390853d8711610abd57610aad8183612901565b50386118ce565b90506020813d6020116119a4575b8161199560209383612901565b810103126104db575138611825565b3d9150611988565b6040513d88823e3d90fd5b60018103611abf575051606081805181010312610a45576119da60208201613a34565b506040810151918216908183036112c8576001600160a01b0390611a0090606001613a20565b1690611a977f000000000000000000000000000000000000000000000000000000000000000093611a72857f00000000000000000000000000000000000000000000000000000000000000007f0000000000000000000000000000000000000000000000000000000000000000613ad2565b94859185600754916040519260026020850152604084015260408352610cff836128e6565b507f4ee48ab43d52be2082a80761272f218fe0871f5b8dba97d174ec2db28b3b22188480a480f35b6002036122e55751604081805181010312610a455780611ae3602060409301613a34565b500151600755600160ff196003541617600355604051906001602083015260208252611b0e8261289d565b807f000000000000000000000000000000000000000000000000000000000000000016907f00000000000000000000000000000000000000000000000000000000000000001614600014611c385750611ba77f00000000000000000000000000000000000000000000000000000000000000007f0000000000000000000000000000000000000000000000000000000000000000613c4d565b807f00000000000000000000000000000000000000000000000000000000000000006001600160a01b0316803b15611c35578190600460405180948193634cab8a5760e11b83525af1801561045557611c26575b505b60017fd8fb8e7c260c25e52d8b9c9f1e795c6a98eb972e58c44e482c8f0158f656a04b8280a280f35b611c2f906128b8565b38611bfb565b50fd5b7f0000000000000000000000000000000000000000000000000000000000000000908290611c68611745846137f0565b60606080604051611c7881612882565b82815282602082015282604082015286838201520152604051611c9a81612867565b8481526040519360018060a01b0316602085015260208452611cbb8461289d565b611cd5604051611cca81612867565b621e84808152613a42565b9160405194611ce386612882565b855260208501526040840152836060840152608083015260405163b0f479a160e01b8152602081600481305afa9081156105305784916122b6575b506040516320487ded60e01b81529060208280611d5f877f000000000000000000000000000000000000000000000000000000000000000060048401613727565b03816001600160a01b0385165afa9182156104e8578592612282575b506040516370a0823160e01b81523060048201527f0000000000000000000000000000000000000000000000000000000000000000906020816024816001600160a01b0386165afa908115610ac457879161224c575b506121f9575b506040516370a0823160e01b81523060048201527f0000000000000000000000000000000000000000000000000000000000000000949086906020816024816001600160a01b038b165afa9081156104555782916121c7575b5060065460405163095ea7b360e01b81526001600160a01b0390911660048201526024810182905260208180604481010381866001600160a01b038d165af1801561100b576121a8575b5060405190611e88826128cb565b6001600160a01b0388811683527f0000000000000000000000000000000000000000000000000000000000000000811660208085018281527f000000000000000000000000000000000000000000000000000000000000000061ffff1660408088019182523060608901908152608089018d815260a08a0198895260c08a018b81526006549351635023b4df60e01b81529a51891660048c01529451881660248b0152925162ffffff1660448a0152518616606489015290516084880152945160a487015251831660c48601529093929091839160e49183918891165af1801561100b5761217d575b50803b15610a49578190602460405180948193632e1a7d4d60e01b83528960048401525af18015610ac45761216a575b5047831161214b57836120e3575b602091611ff3916040519485809481936396f4e9f960e01b83527f000000000000000000000000000000000000000000000000000000000000000060048401613727565b03926001600160a01b03165af18015610455576120b8575b506040516370a0823160e01b81523060048201526020816024816001600160a01b0387165afa9182156120ac579161207a575b5061204a575b50611bfd565b612074907f0000000000000000000000000000000000000000000000000000000000000000613c4d565b38612044565b90506020813d6020116120a4575b8161209560209383612901565b81010312610a4557513861203e565b3d9150612088565b604051903d90823e3d90fd5b602090813d83116120dc575b6120ce8183612901565b81010312610a45573861200b565b503d6120c4565b60405163095ea7b360e01b81526001600160a01b03831660048201526024810187905260208160448188805af180156104e8579160209391611ff39361212e575b5091509150611faf565b61214490853d8711610abd57610aad8183612901565b5038612124565b604051634787a10360e11b815247600482015260248101849052604490fd5b6121759194506128b8565b849238611fa1565b602090813d83116121a1575b6121938183612901565b81010312610a495738611f71565b503d612189565b6121c09060203d602011610abd57610aad8183612901565b5038611e7a565b90506020813d6020116121f1575b816121e260209383612901565b81010312610a49575138611e30565b3d91506121d5565b612245907f0000000000000000000000000000000000000000000000000000000000000000907f0000000000000000000000000000000000000000000000000000000000000000613ad2565b5038611dd7565b90506020813d60201161227a575b8161226760209383612901565b81010312612276575138611dd1565b8680fd5b3d915061225a565b9091506020813d6020116122ae575b8161229e60209383612901565b8101031261046057519038611d7b565b3d9150612291565b6122d8915060203d6020116122de575b6122d08183612901565b8101906136c8565b38611d1e565b503d6122c6565b60405162461bcd60e51b815260206004820152600f60248201526e1a5b9d985b1a590818dbdb5b585b99608a1b6044820152606490fd5b6040833603126112c457602060409182516123368161289d565b61233f8661283d565b81528286013583820152815201920191611706565b8580fd5b6040516335fdcccd60e21b8152336004820152602490fd5b50346102305780600319360112610230576001546001600160a01b0380821633036123d65782546001600160a01b03198082163390811786559316600155167f8be0079c531659141344cd1fd0a4f28419497f9722a3daafe3b4186f6b6457e08380a380f35b60405162461bcd60e51b815260206004820152601660248201527526bab9ba10313290383937b837b9b2b21037bbb732b960511b6044820152606490fd5b503461023057806003193601126102305760206040516001600160401b037f0000000000000000000000000000000000000000000000000000000000000000168152f35b50346102305780600319360112610230576040517f00000000000000000000000000000000000000000000000000000000000000006001600160a01b03168152602090f35b50346102305760a0366003190112610230576124b7612851565b906124c0612827565b6001600160a01b03919060443583811690819003610a45576064358481168091036112c857608435956001600160401b0387116104605761250a61258c9596973690600401612922565b60405193602098899616868601528585526125248561289d565b60405161253081612867565b88815261254d60405161254281612867565b620f42408152613a42565b926040519661255b88612882565b8752878701526040860152606085015260808401526040518095819482936320487ded60e01b845260048401613727565b03915afa9182156120ac5780926125a8575b5050604051908152f35b9091508282813d83116125d1575b6125c08183612901565b81010312610230575051388061259e565b503d6125b6565b50346102305780600319360112610230576020600754604051908152f35b50346102305780600319360112610230576020600254604051908152f35b50346102305780600319360112610230576040517f00000000000000000000000000000000000000000000000000000000000000006001600160a01b03168152602090f35b5034610230578060031936011261023057602060ff600354166040519015158152f35b503461023057604036600319011261023057612696612811565b61269e612827565b6040516335ea6a7560e01b81526001600160a01b039182166004820152610180929091839183916024918391165afa91821561100b57602093926126e6575050604051908152f35b6126fc9250803d106105295761050e8183612901565b505050505050945050505050388061259e565b50346102305780600319360112610230576006546040516001600160a01b039091168152602090f35b5034610230578060031936011261023057602060405161ffff7f0000000000000000000000000000000000000000000000000000000000000000168152f35b50346102305780600319360112610230576040517f00000000000000000000000000000000000000000000000000000000000000006001600160a01b03168152602090f35b905034610a49576020366003190112610a495760043563ffffffff60e01b8116809103610a4557602092506385572ffb60e01b8114908115612800575b5015158152f35b6301ffc9a760e01b149050386127f9565b600435906001600160a01b03821682036104db57565b602435906001600160a01b03821682036104db57565b35906001600160a01b03821682036104db57565b600435906001600160401b03821682036104db57565b602081019081106001600160401b0382111761049a57604052565b60a081019081106001600160401b0382111761049a57604052565b604081019081106001600160401b0382111761049a57604052565b6001600160401b03811161049a57604052565b60e081019081106001600160401b0382111761049a57604052565b606081019081106001600160401b0382111761049a57604052565b90601f801991011681019081106001600160401b0382111761049a57604052565b81601f820112156104db578035906001600160401b03821161049a5760405192612956601f8401601f191660200185612901565b828452602083830101116104db57816000926020809301838601378301015290565b6001600160401b03811161049a5760051b60200190565b6004548110156129c65760046000527f8a35acfbc15ff81a39ae7d344fd709f28e8600b4aa8c65c6b64bfe7fe36bd19b0190600090565b634e487b7160e01b600052603260045260246000fd5b818102929181159184041417156129ef57565b634e487b7160e01b600052601160045260246000fd5b15612a0c57565b60405162461bcd60e51b815260206004820152602560248201527f52657175697265206d617374657220616e64206e6f646520696e2073616d652060448201526431b430b4b760d91b6064820152608490fd5b15612a6657565b60405162461bcd60e51b815260206004820152601c60248201527f4f6e6c79204d617374657220436f6e747261637420616c6c6f776564000000006044820152606490fd5b8115612ab5570490565b634e487b7160e01b600052601260045260246000fd5b919082039182116129ef57565b908160209103126104db575180151581036104db5790565b919082018092116129ef57565b15612b0457565b60405162461bcd60e51b815260206004820152601d60248201527f43616c6c6572206973206e6f7420616e20616c6c6f776564206e6f64650000006044820152606490fd5b9091600094612b5a611745856137f0565b85908061323e575b50612b6f818684876138a8565b946040519463b0f479a160e01b8652602086600481305afa95861561108157889661321d575b506040516320487ded60e01b81529360208580612bb68b8a60048401613727565b03816001600160a01b038b165afa9485156132125789956131de575b506040516370a0823160e01b81523060048201526020816024817f00000000000000000000000000000000000000000000000000000000000000006001600160a01b03165afa9081156130e1578a916131ac575b5061313b575b6040516370a0823160e01b81523060048201526020816024817f00000000000000000000000000000000000000000000000000000000000000006001600160a01b03165afa9081156130e1578a91613109575b5060065460405163095ea7b360e01b81526001600160a01b039091166004820152602481018290526020818c81806044810103917f00000000000000000000000000000000000000000000000000000000000000006001600160a01b03165af180156130a057916020918c936130ec575b5060405190612cfe826128cb565b6001600160a01b037f0000000000000000000000000000000000000000000000000000000000000000811683527f0000000000000000000000000000000000000000000000000000000000000000811684840190815261ffff7f00000000000000000000000000000000000000000000000000000000000000001660408086019182523060608701908152608087018e815260a0880196875260c088018a81526006549351635023b4df60e01b81529851871660048a0152945186166024890152925162ffffff166044880152518416606487015290516084860152925160a485015251811660c48401529193849260e492849291165af19081156130e1578a916130af575b507f00000000000000000000000000000000000000000000000000000000000000006001600160a01b03163b156130ab57604051632e1a7d4d60e01b8152600481018790528a81602481837f00000000000000000000000000000000000000000000000000000000000000006001600160a01b03165af180156130a05761308d575b508461306c575b50505047831161214b576001600160a01b03169081612ff8575b505091612ecf9493916020936040518097819582946396f4e9f960e01b845260048401613727565b03926001600160a01b03165af1918215611033578192612fc4575b506040516370a0823160e01b81523060048201526020816024817f00000000000000000000000000000000000000000000000000000000000000006001600160a01b03165afa9182156120ac5791612f92575b50612f455790565b612f8f7f00000000000000000000000000000000000000000000000000000000000000007f0000000000000000000000000000000000000000000000000000000000000000613c4d565b90565b90506020813d602011612fbc575b81612fad60209383612901565b810103126104db575138612f3d565b3d9150612fa0565b9091506020813d602011612ff0575b81612fe060209383612901565b810103126104db57519038612eea565b3d9150612fd3565b60405163095ea7b360e01b81526001600160a01b0386166004820152602481019190915290602090829060449082908a905af180156119ac5791612ecf969593916020959361304f575b5091938193959650612ea7565b61306590863d8811610abd57610aad8183612901565b5038613042565b8398509061307e613084949286612acb565b926138a8565b94388080612e8d565b613099909a919a6128b8565b9838612e86565b6040513d8d823e3d90fd5b8980fd5b90506020813d6020116130d9575b816130ca60209383612901565b810103126130ab575138612e04565b3d91506130bd565b6040513d8c823e3d90fd5b61310290833d8511610abd57610aad8183612901565b5038612cf0565b90506020813d602011613133575b8161312460209383612901565b810103126130ab575138612c7f565b3d9150613117565b6131a67f00000000000000000000000000000000000000000000000000000000000000007f00000000000000000000000000000000000000000000000000000000000000007f0000000000000000000000000000000000000000000000000000000000000000613ad2565b50612c2c565b90506020813d6020116131d6575b816131c760209383612901565b810103126130ab575138612c26565b3d91506131ba565b9094506020813d60201161320a575b816131fa60209383612901565b810103126112c457519338612bd2565b3d91506131ed565b6040513d8b823e3d90fd5b61323791965060203d6020116122de576122d08183612901565b9438612b95565b905038612b62565b929091613255611745846137f0565b600554604080516001600160a01b03928316969193909161327583612882565b60609182845288602093808587015280888701528060806000978883820152015287516132a181612867565b8681528789519b16868c0152858b526132b98b61289d565b6132c78951611cca81612867565b9389519b6132d48d612882565b8c52868c0152888b01528901526080880152845163b0f479a160e01b815297600491838a8481305afa998a156136be5761333198999a879187916136a1575b501691848b8951809b81926320487ded60e01b835286898401613727565b0381865afa98891561354c578699613672575b5087516323b872dd60e01b815233858201908152306020820152604081018b90529091869183919082908a90829060600103925af190811561354c578691613655575b50156136125785600554168751986370a0823160e01b998a815230868201528681602481865afa9081156136085788916135d7575b50811161355657885163095ea7b360e01b81526001600160a01b038516868201908152602081019290925291869183919082908a90829060400103925af1801561354c579185939161342b9b9c9361352f575b50868951809c819582946396f4e9f960e01b8452898401613727565b03925af19687156135255783976134f6575b50819060247f000000000000000000000000000000000000000000000000000000000000000097875196879384928352309083015289165afa9384156134eb575081936134ba575b505050613490575090565b612f8f907f0000000000000000000000000000000000000000000000000000000000000000613c4d565b9091809350813d83116134e4575b6134d28183612901565b81010312610230575051388080613485565b503d6134c8565b51913d9150823e3d90fd5b9096508181813d831161351e575b61350e8183612901565b81010312610a455751958161343d565b503d613504565b85513d85823e3d90fd5b61354590853d8711610abd57610aad8183612901565b503861340f565b88513d88823e3d90fd5b8490868a8994828e60248451809481938252308a8301525afa9283156135cd578693613599575b505051634787a10360e11b815292830152602482015260449150fd5b9080929350813d83116135c6575b6135b18183612901565b8101031261046057604494505190858061357d565b503d6135a7565b82513d88823e3d90fd5b90508681813d8311613601575b6135ee8183612901565b810103126135fd5751386133bc565b8780fd5b503d6135e4565b8a513d8a823e3d90fd5b865162461bcd60e51b8152808401859052601a60248201527f4e6f742070726f7669646564204c696e6b20666f7220666565730000000000006044820152606490fd5b61366c9150853d8711610abd57610aad8183612901565b38613387565b9098508481813d831161369a575b61368a8183612901565b8101031261235457519784613344565b503d613680565b6136b89150863d88116122de576122d08183612901565b38613313565b87513d87823e3d90fd5b908160209103126104db57516001600160a01b03811681036104db5790565b919082519283825260005b848110613713575050826000602080949584010152601f8019910116010190565b6020818301810151848301820152016136f2565b906001600160401b039093929316815260406020918183820152613756855160a08484015260e08301906136e7565b916137728487015193603f1994858583030160608601526136e7565b8187015194848483030160808501528080875193848152019601926000905b8382106137c757505050505060c06080612f8f959660018060a01b0360608201511660a0850152015192828503019101526136e7565b845180516001600160a01b03168952830151888401529687019693820193600190910190613791565b600060048054915b8261ffff821610613843575050507f00000000000000000000000000000000000000000000000000000000000000006001600160a01b0390811691161461383e57600090565b600190565b61384c8161298f565b905460039190911b1c6001600160a01b03908116908516146138925761ffff80911690811461387d576001016137f8565b601182634e487b7160e01b6000525260246000fd5b50505050600190565b8051156129c65760200190565b9291906040918251926138ba84612882565b606092838552602095848787015284838701528460806000978883820152015260018060a01b038094168015806139b3575b1561394557505081516138fe81612867565b858152925b82519716868801528587526139178761289d565b6139258251611cca81612867565b9582519761393289612882565b8852870152850152830152608082015290565b8394919451906139548261289d565b6001825288885b8181106139925750509061398c9181968651916139778361289d565b82528a8201526139868261389b565b5261389b565b50613903565b865161399d8161289d565b8a81528a8382015282828601015201899061395b565b5081156138ec565b9190826101809103126104db5781519160208101519160408201519160608101519160808201519160a08101519160c08201519160e081015191610100820151916101208101519161016061014083015192015164ffffffffff811681036104db5790565b51906001600160a01b03821682036104db57565b519060ff821682036104db57565b604051906397a657c960e01b602083015251602482015260248152606081018181106001600160401b0382111761049a5760405290565b60405163026b1d5f60e01b815290602090829060049082906001600160a01b03165afa908115613ac657600091613aae575090565b612f8f915060203d81116122de576122d08183612901565b6040513d6000823e3d90fd5b604080516370a0823160e01b815230600482015293949390926020926001600160a01b039182169291908483602481875afa928315613c1157600093613c1c575b50613b1d90613a79565b855163095ea7b360e01b81526001600160a01b03821660048201526024810184905290938590829060449082906000905af18015613c1157859492613ba398999492600092613bf4575b508751631a4ca37b60e21b81526001600160a01b0390951660048601526024850192909252306044850152929687938492909183906064820190565b0393165af1918215613bea5750600091613bbe575b50905090565b82813d8311613be3575b613bd28183612901565b810103126102305750518038613bb8565b503d613bc8565b513d6000823e3d90fd5b613c0a90873d8911610abd57610aad8183612901565b5038613b67565b86513d6000823e3d90fd5b90928582813d8311613c46575b613c338183612901565b8101031261023057505191613b1d613b13565b503d613c29565b604080516370a0823160e01b815230600482015290916001600160a01b0390848216906020908185602481865afa948515613c1157600095613d55575b50613c9490613a79565b855163095ea7b360e01b81526001600160a01b03821660048201526024810186905290928290829060449082906000905af18015613c1157613d37575b50501692833b156104db57825163e8eda9df60e01b81526001600160a01b03919091166004820152602481019190915230604482015260006064820181905290928390608490829084905af1908115613bea5750613d2c5750565b613d35906128b8565b565b81613d4d92903d10610abd57610aad8183612901565b503880613cd1565b90948282813d8311613d7f575b613d6c8183612901565b8101031261023057505193613c94613c8a565b503d613d62565b6000546001600160a01b03163303613d9a57565b60405162461bcd60e51b815260206004820152601660248201527527b7363c9031b0b63630b1363290313c9037bbb732b960511b6044820152606490fdfea26469706673582212202fb0e24b1ff859c3c59705f5e2518e8de0b6341b3d9044131e2c85d5fcf4db9964736f6c63430008130033",
  "bytecodeSha1": "57a98b07b158c1a95642f5ef34b7744a4dd6f879",
  "compiler": {
    "evm_version": "istanbul",
    "optimizer": {
      "enabled": true,
      "runs": 200
    },
    "version": "0.8.19+commit.7dd6d404"
  },
  "contractName": "Node",
  "language": "Solidity",
  "natspec": {
    "kind": "dev",
    "methods": {
      "acceptOwnership()": {
        "notice": "Allows an ownership transfer to be completed by the recipient."
      },
      "ccipReceive((bytes32,uint64,bytes,bytes,(address,uint256)[]))": {
        "details": "Note ensure you check the msg.sender is the OffRampRouter",
        "notice": "Called by the Router to deliver a message. If this reverts, any token transfers also revert. The message will move to a FAILED state and become available for manual execution.",
        "params": {
          "message": "CCIP Message"
        }
      },
      "getRouter()": {
        "notice": "Return the current router",
        "returns": {
          "_0": "CCIP router address"
        }
      },
      "owner()": {
        "notice": "Get the current owner"
      },
      "supportsInterface(bytes4)": {
        "details": "Should indicate whether the contract implements IAny2EVMMessageReceiver e.g. return interfaceId == type(IAny2EVMMessageReceiver).interfaceId || interfaceId == type(IERC165).interfaceId This allows CCIP to check if ccipReceive is available before calling it. If this returns false or reverts, only tokens are transferred to the receiver. If this returns true, tokens are transferred and ccipReceive is called atomically. Additionally, if the receiver address does not have code associated with it at the time of execution (EXTCODESIZE returns 0), only tokens will be transferred.",
        "notice": "IERC165 supports an interfaceId",
        "params": {
          "interfaceId": "The interfaceId to check"
        },
        "returns": {
          "_0": "true if the interfaceId is supported"
        }
      },
      "transferOwnership(address)": {
        "notice": "Allows an owner to begin transferring ownership to a new address."
      }
    },
    "version": 1
  },
  "opcodes": "PUSH1 0x80 DUP1 PUSH1 0x40 MSTORE PUSH1 0x4 CALLDATASIZE LT ISZERO PUSH2 0x1D JUMPI JUMPDEST POP CALLDATASIZE ISZERO PUSH2 0x1B JUMPI PUSH1 0x0 DUP1 REVERT JUMPDEST STOP JUMPDEST PUSH1 0x0 SWAP1 DUP2 CALLDATALOAD PUSH1 0xE0 SHR SWAP1 DUP2 PUSH4 0x1FFC9A7 EQ PUSH2 0x27BC JUMPI POP DUP1 PUSH4 0x40141E5 EQ PUSH2 0x2777 JUMPI DUP1 PUSH4 0xE508FFF EQ PUSH2 0x2738 JUMPI DUP1 PUSH4 0x15D03DFD EQ PUSH2 0x270F JUMPI DUP1 PUSH4 0x168010ED EQ PUSH2 0x267C JUMPI DUP1 PUSH4 0x1D34B4FF EQ PUSH2 0x2659 JUMPI DUP1 PUSH4 0x32D3AD5E EQ PUSH2 0x2614 JUMPI DUP1 PUSH4 0x36161EB9 EQ PUSH2 0x25F6 JUMPI DUP1 PUSH4 0x4C8719F3 EQ PUSH2 0x25D8 JUMPI DUP1 PUSH4 0x544B1709 EQ PUSH2 0x249D JUMPI DUP1 PUSH4 0x67062580 EQ PUSH2 0x2458 JUMPI DUP1 PUSH4 0x7058A5E7 EQ PUSH2 0x2414 JUMPI DUP1 PUSH4 0x79BA5097 EQ PUSH2 0x2370 JUMPI DUP1 PUSH4 0x85572FFB EQ PUSH2 0x15E3 JUMPI DUP1 PUSH4 0x8CF19D19 EQ PUSH2 0x159F JUMPI DUP1 PUSH4 0x8DA5CB5B EQ PUSH2 0x1578 JUMPI DUP1 PUSH4 0x97652FFE EQ PUSH2 0x13FB JUMPI DUP1 PUSH4 0x982D1F18 EQ PUSH2 0x13B6 JUMPI DUP1 PUSH4 0x98B3C1F8 EQ PUSH2 0x12CC JUMPI DUP1 PUSH4 0xA19B24B5 EQ PUSH2 0x10D0 JUMPI DUP1 PUSH4 0xA63CA076 EQ PUSH2 0x108C JUMPI DUP1 PUSH4 0xAF002DB8 EQ PUSH2 0xD98 JUMPI DUP1 PUSH4 0xAF256173 EQ PUSH2 0xD53 JUMPI DUP1 PUSH4 0xB0F479A1 EQ PUSH2 0xD0E JUMPI DUP1 PUSH4 0xB2AAE5C7 EQ PUSH2 0xC4A JUMPI DUP1 PUSH4 0xB6B55F25 EQ PUSH2 0x729 JUMPI DUP1 PUSH4 0xBB09D9B7 EQ PUSH2 0x6E4 JUMPI DUP1 PUSH4 0xC330A2ED EQ PUSH2 0x53B JUMPI DUP1 PUSH4 0xD8BBA68F EQ PUSH2 0x26C JUMPI DUP1 PUSH4 0xE227A140 EQ PUSH2 0x233 JUMPI PUSH4 0xF2FDE38B SUB PUSH2 0xF JUMPI CALLVALUE PUSH2 0x230 JUMPI PUSH1 0x20 CALLDATASIZE PUSH1 0x3 NOT ADD SLT PUSH2 0x230 JUMPI PUSH2 0x194 PUSH2 0x2811 JUMP JUMPDEST PUSH2 0x19C PUSH2 0x3D86 JUMP JUMPDEST PUSH1 0x1 PUSH1 0x1 PUSH1 0xA0 SHL SUB SWAP1 DUP2 AND SWAP1 CALLER DUP3 EQ PUSH2 0x1EB JUMPI PUSH1 0x1 DUP1 SLOAD PUSH1 0x1 PUSH1 0x1 PUSH1 0xA0 SHL SUB NOT AND DUP4 OR SWAP1 SSTORE DUP3 SLOAD AND PUSH32 0xED8889F560326EB138920D842192F0EB3DD22B4F139C87A2C57538E05BAE1278 DUP4 DUP1 LOG3 DUP1 RETURN JUMPDEST PUSH1 0x40 MLOAD PUSH3 0x461BCD PUSH1 0xE5 SHL DUP2 MSTORE PUSH1 0x20 PUSH1 0x4 DUP3 ADD MSTORE PUSH1 0x17 PUSH1 0x24 DUP3 ADD MSTORE PUSH32 0x43616E6E6F74207472616E7366657220746F2073656C66000000000000000000 PUSH1 0x44 DUP3 ADD MSTORE PUSH1 0x64 SWAP1 REVERT JUMPDEST DUP1 REVERT JUMPDEST POP CALLVALUE PUSH2 0x230 JUMPI PUSH1 0x20 CALLDATASIZE PUSH1 0x3 NOT ADD SLT PUSH2 0x230 JUMPI PUSH1 0x20 SWAP1 PUSH1 0x40 SWAP1 PUSH1 0x1 PUSH1 0x1 PUSH1 0xA0 SHL SUB PUSH2 0x25B PUSH2 0x2811 JUMP JUMPDEST AND DUP2 MSTORE PUSH1 0x8 DUP4 MSTORE KECCAK256 SLOAD PUSH1 0x40 MLOAD SWAP1 DUP2 MSTORE RETURN JUMPDEST POP CALLVALUE PUSH2 0x230 JUMPI DUP1 PUSH1 0x3 NOT CALLDATASIZE ADD SLT PUSH2 0x230 JUMPI PUSH1 0x40 MLOAD PUSH4 0x35EA6A75 PUSH1 0xE0 SHL DUP2 MSTORE PUSH1 0x1 PUSH1 0x1 PUSH1 0xA0 SHL SUB PUSH32 0x0 DUP2 AND PUSH1 0x4 DUP4 ADD MSTORE SWAP1 PUSH2 0x180 DUP1 DUP3 PUSH1 0x24 DUP2 PUSH32 0x0 DUP8 AND GAS STATICCALL SWAP2 DUP3 ISZERO PUSH2 0x530 JUMPI DUP5 SWAP2 DUP6 SWAP4 PUSH2 0x4F3 JUMPI JUMPDEST POP POP PUSH1 0x40 MLOAD PUSH4 0x70A08231 PUSH1 0xE0 SHL DUP2 MSTORE ADDRESS PUSH1 0x4 DUP3 ADD MSTORE SWAP2 PUSH1 0x20 DUP4 PUSH1 0x24 DUP2 PUSH32 0x0 DUP9 AND GAS STATICCALL SWAP3 DUP4 ISZERO PUSH2 0x4E8 JUMPI DUP6 SWAP4 PUSH2 0x4B0 JUMPI JUMPDEST POP PUSH1 0x40 MLOAD SWAP4 PUSH1 0x2 PUSH1 0x20 DUP7 ADD MSTORE DUP3 PUSH1 0x40 DUP7 ADD MSTORE DUP2 PUSH1 0x60 DUP7 ADD MSTORE DUP2 PUSH1 0x80 DUP7 ADD MSTORE DUP4 PUSH1 0xA0 DUP7 ADD MSTORE PUSH1 0xA0 DUP6 MSTORE PUSH1 0xC0 DUP6 ADD SWAP5 PUSH1 0x1 PUSH1 0x1 PUSH1 0x40 SHL SUB DUP2 DUP8 LT DUP2 DUP9 GT OR PUSH2 0x49A JUMPI DUP8 SWAP7 PUSH1 0x40 MSTORE PUSH32 0x0 SWAP1 DUP1 DUP3 AND SWAP1 PUSH32 0x0 AND EQ PUSH1 0x0 EQ PUSH2 0x464 JUMPI POP POP PUSH32 0x0 AND DUP1 EXTCODESIZE ISZERO PUSH2 0x460 JUMPI DUP5 SWAP3 DUP4 PUSH1 0x84 SWAP3 PUSH1 0x40 MLOAD SWAP7 DUP8 SWAP6 DUP7 SWAP5 PUSH4 0x453B3FF PUSH1 0xE1 SHL DUP7 MSTORE PUSH1 0x4 DUP7 ADD MSTORE DUP1 PUSH1 0x24 DUP7 ADD MSTORE PUSH1 0x44 DUP6 ADD MSTORE PUSH1 0x64 DUP5 ADD MSTORE GAS CALL DUP1 ISZERO PUSH2 0x455 JUMPI PUSH2 0x445 JUMPI POP POP DUP1 RETURN JUMPDEST PUSH2 0x44E SWAP1 PUSH2 0x28B8 JUMP JUMPDEST PUSH2 0x230 JUMPI DUP1 RETURN JUMPDEST PUSH1 0x40 MLOAD RETURNDATASIZE DUP5 DUP3 RETURNDATACOPY RETURNDATASIZE SWAP1 REVERT JUMPDEST DUP5 DUP1 REVERT JUMPDEST SWAP4 POP SWAP4 POP POP POP PUSH2 0x496 SWAP3 POP PUSH32 0x0 SWAP1 PUSH2 0x3246 JUMP JUMPDEST POP DUP1 RETURN JUMPDEST PUSH4 0x4E487B71 PUSH1 0xE0 SHL PUSH1 0x0 MSTORE PUSH1 0x41 PUSH1 0x4 MSTORE PUSH1 0x24 PUSH1 0x0 REVERT JUMPDEST SWAP1 SWAP3 POP PUSH1 0x20 DUP2 RETURNDATASIZE DUP3 GT PUSH2 0x4E0 JUMPI JUMPDEST DUP2 PUSH2 0x4CB PUSH1 0x20 SWAP4 DUP4 PUSH2 0x2901 JUMP JUMPDEST DUP2 ADD SUB SLT PUSH2 0x4DB JUMPI MLOAD SWAP2 CODESIZE PUSH2 0x347 JUMP JUMPDEST PUSH1 0x0 DUP1 REVERT JUMPDEST RETURNDATASIZE SWAP2 POP PUSH2 0x4BE JUMP JUMPDEST PUSH1 0x40 MLOAD RETURNDATASIZE DUP8 DUP3 RETURNDATACOPY RETURNDATASIZE SWAP1 REVERT JUMPDEST PUSH2 0x516 SWAP4 POP DUP1 SWAP2 SWAP3 POP SWAP1 RETURNDATASIZE LT PUSH2 0x529 JUMPI JUMPDEST PUSH2 0x50E DUP2 DUP4 PUSH2 0x2901 JUMP JUMPDEST DUP2 ADD SWAP1 PUSH2 0x39BB JUMP JUMPDEST POP POP POP POP POP POP POP SWAP4 POP POP SWAP1 POP CODESIZE DUP1 PUSH2 0x2F8 JUMP JUMPDEST POP RETURNDATASIZE PUSH2 0x504 JUMP JUMPDEST PUSH1 0x40 MLOAD RETURNDATASIZE DUP7 DUP3 RETURNDATACOPY RETURNDATASIZE SWAP1 REVERT JUMPDEST POP CALLVALUE PUSH2 0x230 JUMPI DUP1 PUSH1 0x3 NOT CALLDATASIZE ADD SLT PUSH2 0x230 JUMPI CALLER DUP2 MSTORE PUSH1 0x8 PUSH1 0x20 MSTORE PUSH1 0x40 DUP2 KECCAK256 SLOAD ISZERO PUSH2 0x69F JUMPI CALLER DUP2 MSTORE PUSH1 0x8 PUSH1 0x20 MSTORE DUP1 PUSH1 0x40 DUP2 KECCAK256 SLOAD PUSH1 0x40 MLOAD PUSH2 0x5AB DUP2 PUSH2 0x59D DUP5 CALLER PUSH1 0x20 DUP5 ADD PUSH1 0x40 SWAP1 SWAP4 SWAP3 SWAP2 SWAP4 PUSH1 0x60 DUP2 ADD SWAP5 PUSH1 0x0 DUP3 MSTORE PUSH1 0x1 DUP1 PUSH1 0xA0 SHL SUB AND PUSH1 0x20 DUP3 ADD MSTORE ADD MSTORE JUMP JUMPDEST SUB PUSH1 0x1F NOT DUP2 ADD DUP4 MSTORE DUP3 PUSH2 0x2901 JUMP JUMPDEST PUSH32 0x0 PUSH1 0x1 PUSH1 0x1 PUSH1 0x40 SHL SUB DUP1 DUP3 AND SWAP1 PUSH32 0x0 AND EQ PUSH1 0x0 EQ PUSH2 0x670 JUMPI POP POP PUSH32 0x0 PUSH1 0x1 PUSH1 0x1 PUSH1 0xA0 SHL SUB AND DUP1 EXTCODESIZE ISZERO PUSH2 0x66C JUMPI PUSH1 0x40 MLOAD PUSH4 0x11E0FA9 PUSH1 0xE2 SHL DUP2 MSTORE CALLER PUSH1 0x4 DUP3 ADD MSTORE PUSH1 0x24 DUP2 ADD SWAP3 SWAP1 SWAP3 MSTORE DUP3 SWAP1 DUP3 SWAP1 PUSH1 0x44 SWAP1 DUP3 SWAP1 DUP5 SWAP1 GAS CALL DUP1 ISZERO PUSH2 0x455 JUMPI PUSH2 0x445 JUMPI POP POP DUP1 RETURN JUMPDEST POP POP REVERT JUMPDEST SWAP1 SWAP2 POP PUSH2 0x496 SWAP3 POP PUSH32 0x0 SWAP1 PUSH2 0x3246 JUMP JUMPDEST PUSH1 0x40 MLOAD PUSH3 0x461BCD PUSH1 0xE5 SHL DUP2 MSTORE PUSH1 0x20 PUSH1 0x4 DUP3 ADD MSTORE PUSH1 0x18 PUSH1 0x24 DUP3 ADD MSTORE PUSH32 0x4E6F206157525020746F6B656E7320746F20726566756E640000000000000000 PUSH1 0x44 DUP3 ADD MSTORE PUSH1 0x64 SWAP1 REVERT JUMPDEST POP CALLVALUE PUSH2 0x230 JUMPI DUP1 PUSH1 0x3 NOT CALLDATASIZE ADD SLT PUSH2 0x230 JUMPI PUSH1 0x40 MLOAD PUSH32 0x0 PUSH1 0x1 PUSH1 0x1 PUSH1 0xA0 SHL SUB AND DUP2 MSTORE PUSH1 0x20 SWAP1 RETURN JUMPDEST POP CALLVALUE PUSH2 0x230 JUMPI PUSH1 0x20 DUP1 PUSH1 0x3 NOT CALLDATASIZE ADD SLT PUSH2 0xA49 JUMPI PUSH1 0x40 MLOAD PUSH4 0x23B872DD PUSH1 0xE0 SHL DUP2 MSTORE CALLER PUSH1 0x4 DUP1 DUP4 ADD SWAP2 SWAP1 SWAP2 MSTORE ADDRESS PUSH1 0x24 DUP4 ADD MSTORE CALLDATALOAD PUSH1 0x44 DUP3 ADD DUP2 SWAP1 MSTORE PUSH1 0x1 PUSH1 0x1 PUSH1 0xA0 SHL SUB PUSH32 0x0 DUP2 DUP2 AND SWAP5 SWAP3 SWAP4 SWAP2 SWAP3 SWAP2 DUP3 DUP2 PUSH1 0x64 DUP2 DUP11 DUP11 GAS CALL SWAP1 DUP2 ISZERO PUSH2 0xAC4 JUMPI DUP8 SWAP2 PUSH2 0xC2D JUMPI JUMPDEST POP ISZERO PUSH2 0xBE8 JUMPI PUSH1 0xFF PUSH1 0x3 SLOAD AND ISZERO PUSH2 0xB89 JUMPI PUSH1 0x40 MLOAD PUSH4 0x70A08231 PUSH1 0xE0 SHL DUP2 MSTORE ADDRESS PUSH1 0x4 DUP3 ADD MSTORE SWAP5 DUP3 DUP7 PUSH1 0x24 DUP2 PUSH32 0x0 DUP9 AND GAS STATICCALL SWAP6 DUP7 ISZERO PUSH2 0xAC4 JUMPI DUP8 SWAP7 PUSH2 0xB5A JUMPI JUMPDEST POP PUSH2 0x812 DUP6 DUP8 PUSH2 0x2AF0 JUMP JUMPDEST PUSH1 0x2 SLOAD GT ISZERO PUSH2 0xB05 JUMPI DUP7 PUSH1 0x7 SLOAD SWAP7 DUP8 ISZERO PUSH1 0x0 EQ PUSH2 0xAE3 JUMPI POP POP PUSH5 0xE8D4A51000 DUP1 DUP7 MUL SWAP1 DUP7 DUP3 DIV EQ DUP7 ISZERO OR ISZERO PUSH2 0xACF JUMPI DUP8 SWAP5 SWAP4 SWAP3 SWAP2 PUSH2 0x852 DUP7 SWAP3 DUP1 SWAP10 PUSH2 0x2AF0 JUMP JUMPDEST PUSH1 0x7 SSTORE PUSH1 0x40 DUP1 MLOAD PUSH1 0x0 DUP7 DUP3 ADD SWAP1 DUP2 MSTORE CALLER PUSH1 0x20 DUP3 ADD MSTORE DUP1 DUP4 ADD DUP12 SWAP1 MSTORE DUP2 SWAP1 SUB SWAP2 DUP3 ADD DUP2 MSTORE SWAP5 SWAP1 PUSH2 0x884 SWAP1 PUSH1 0x60 ADD DUP7 PUSH2 0x2901 JUMP JUMPDEST DUP1 PUSH2 0x8E6 PUSH2 0x8B1 PUSH32 0x0 PUSH2 0x3A79 JUMP JUMPDEST PUSH1 0x40 MLOAD PUSH4 0x95EA7B3 PUSH1 0xE0 SHL DUP2 MSTORE PUSH1 0x1 PUSH1 0x1 PUSH1 0xA0 SHL SUB DUP3 AND PUSH1 0x4 DUP3 ADD MSTORE PUSH1 0x24 DUP2 ADD DUP13 SWAP1 MSTORE SWAP6 SWAP1 SWAP5 DUP7 SWAP3 SWAP1 SWAP2 DUP4 SWAP2 DUP3 SWAP1 PUSH1 0x44 DUP3 ADD SWAP1 JUMP JUMPDEST SUB SWAP3 GAS CALL SWAP3 DUP4 ISZERO PUSH2 0xAC4 JUMPI DUP7 SWAP4 PUSH2 0xA96 JUMPI JUMPDEST POP POP AND DUP1 EXTCODESIZE ISZERO PUSH2 0x460 JUMPI PUSH1 0x40 MLOAD PUSH4 0xE8EDA9DF PUSH1 0xE0 SHL DUP2 MSTORE PUSH1 0x1 PUSH1 0x1 PUSH1 0xA0 SHL SUB SWAP3 SWAP1 SWAP3 AND PUSH1 0x4 DUP4 ADD MSTORE PUSH1 0x24 DUP3 ADD DUP7 SWAP1 MSTORE ADDRESS PUSH1 0x44 DUP4 ADD MSTORE PUSH1 0x0 PUSH1 0x64 DUP4 ADD MSTORE DUP5 SWAP1 DUP3 SWAP1 PUSH1 0x84 SWAP1 DUP3 SWAP1 DUP5 SWAP1 GAS CALL SWAP1 DUP2 ISZERO PUSH2 0x530 JUMPI DUP5 SWAP2 PUSH2 0xA82 JUMPI JUMPDEST POP POP PUSH32 0x0 PUSH1 0x1 PUSH1 0x1 PUSH1 0x40 SHL SUB DUP1 DUP3 AND SWAP1 PUSH32 0x0 AND EQ PUSH1 0x0 EQ PUSH2 0xA4D JUMPI POP POP PUSH32 0x0 AND DUP1 EXTCODESIZE ISZERO PUSH2 0xA49 JUMPI PUSH1 0x40 MLOAD PUSH4 0x11E0FA9 PUSH1 0xE2 SHL DUP2 MSTORE CALLER PUSH1 0x4 DUP3 ADD MSTORE PUSH1 0x24 DUP2 ADD DUP6 SWAP1 MSTORE SWAP1 DUP3 SWAP1 DUP3 SWAP1 PUSH1 0x44 SWAP1 DUP3 SWAP1 DUP5 SWAP1 GAS CALL DUP1 ISZERO PUSH2 0x455 JUMPI PUSH2 0xA31 JUMPI JUMPDEST POP POP JUMPDEST CALLER PUSH32 0xECCE874B8763E37231B6791DC5866441104332EF19F5DE5516A7DC20C041B1CA DUP5 DUP1 LOG4 DUP1 RETURN JUMPDEST PUSH2 0xA3A SWAP1 PUSH2 0x28B8 JUMP JUMPDEST PUSH2 0xA45 JUMPI DUP3 CODESIZE PUSH2 0xA06 JUMP JUMPDEST DUP3 DUP1 REVERT JUMPDEST POP DUP1 REVERT JUMPDEST SWAP1 SWAP2 POP PUSH2 0xA7C SWAP3 POP PUSH32 0x0 SWAP1 PUSH2 0x3246 JUMP JUMPDEST POP PUSH2 0xA09 JUMP JUMPDEST PUSH2 0xA8B SWAP1 PUSH2 0x28B8 JUMP JUMPDEST PUSH2 0xA45 JUMPI DUP3 CODESIZE PUSH2 0x94F JUMP JUMPDEST DUP2 PUSH2 0xAB5 SWAP3 SWAP1 RETURNDATASIZE LT PUSH2 0xABD JUMPI JUMPDEST PUSH2 0xAAD DUP2 DUP4 PUSH2 0x2901 JUMP JUMPDEST DUP2 ADD SWAP1 PUSH2 0x2AD8 JUMP JUMPDEST POP CODESIZE DUP1 PUSH2 0x8F8 JUMP JUMPDEST POP RETURNDATASIZE PUSH2 0xAA3 JUMP JUMPDEST PUSH1 0x40 MLOAD RETURNDATASIZE DUP10 DUP3 RETURNDATACOPY RETURNDATASIZE SWAP1 REVERT JUMPDEST PUSH4 0x4E487B71 PUSH1 0xE0 SHL DUP9 MSTORE PUSH1 0x11 PUSH1 0x4 MSTORE PUSH1 0x24 DUP9 REVERT JUMPDEST SWAP2 PUSH2 0x852 PUSH2 0xAFE DUP4 SWAP8 SWAP7 SWAP6 SWAP5 PUSH2 0xAF9 DUP12 DUP12 PUSH2 0x29DC JUMP JUMPDEST PUSH2 0x2AAB JUMP JUMPDEST DUP1 SWAP10 PUSH2 0x2AF0 JUMP JUMPDEST PUSH1 0x40 MLOAD PUSH3 0x461BCD PUSH1 0xE5 SHL DUP2 MSTORE PUSH1 0x4 DUP2 ADD DUP5 SWAP1 MSTORE PUSH1 0x27 PUSH1 0x24 DUP3 ADD MSTORE PUSH32 0x4E6F64652066757266696C6C6564206E6F206D6F7265206465706F7369747320 PUSH1 0x44 DUP3 ADD MSTORE PUSH7 0x185B1B1BDDD959 PUSH1 0xCA SHL PUSH1 0x64 DUP3 ADD MSTORE PUSH1 0x84 SWAP1 REVERT JUMPDEST SWAP1 SWAP6 POP DUP3 DUP2 DUP2 RETURNDATASIZE DUP4 GT PUSH2 0xB82 JUMPI JUMPDEST PUSH2 0xB72 DUP2 DUP4 PUSH2 0x2901 JUMP JUMPDEST DUP2 ADD SUB SLT PUSH2 0x4DB JUMPI MLOAD SWAP5 CODESIZE PUSH2 0x807 JUMP JUMPDEST POP RETURNDATASIZE PUSH2 0xB68 JUMP JUMPDEST PUSH1 0x40 MLOAD PUSH3 0x461BCD PUSH1 0xE5 SHL DUP2 MSTORE PUSH1 0x4 DUP2 ADD DUP4 SWAP1 MSTORE PUSH1 0x31 PUSH1 0x24 DUP3 ADD MSTORE PUSH32 0x4173657473206172652057617270696E67204E6F772C206465706F7369747320 PUSH1 0x44 DUP3 ADD MSTORE PUSH17 0x37B7103732BB90313637B1B5B1B430B4B7 PUSH1 0x79 SHL PUSH1 0x64 DUP3 ADD MSTORE PUSH1 0x84 SWAP1 REVERT JUMPDEST PUSH1 0x40 MLOAD PUSH3 0x461BCD PUSH1 0xE5 SHL DUP2 MSTORE PUSH1 0x4 DUP2 ADD DUP4 SWAP1 MSTORE PUSH1 0x19 PUSH1 0x24 DUP3 ADD MSTORE PUSH32 0x4661696C656420746F207472616E7366657220616D6F756E7400000000000000 PUSH1 0x44 DUP3 ADD MSTORE PUSH1 0x64 SWAP1 REVERT JUMPDEST PUSH2 0xC44 SWAP2 POP DUP4 RETURNDATASIZE DUP6 GT PUSH2 0xABD JUMPI PUSH2 0xAAD DUP2 DUP4 PUSH2 0x2901 JUMP JUMPDEST CODESIZE PUSH2 0x7AA JUMP JUMPDEST POP CALLVALUE PUSH2 0x230 JUMPI PUSH1 0x40 CALLDATASIZE PUSH1 0x3 NOT ADD SLT PUSH2 0x230 JUMPI PUSH2 0x496 PUSH2 0xC67 PUSH2 0x2851 JUMP JUMPDEST PUSH2 0xC6F PUSH2 0x2827 JUMP JUMPDEST SWAP1 PUSH32 0x0 SWAP1 PUSH2 0xCDD DUP3 PUSH32 0x0 PUSH32 0x0 PUSH2 0x3AD2 JUMP JUMPDEST SWAP3 PUSH1 0x7 SLOAD SWAP2 PUSH1 0x40 MLOAD SWAP3 PUSH1 0x2 PUSH1 0x20 DUP6 ADD MSTORE PUSH1 0x40 DUP5 ADD MSTORE PUSH1 0x40 DUP4 MSTORE PUSH2 0xCFF DUP4 PUSH2 0x28E6 JUMP JUMPDEST PUSH1 0xFF NOT PUSH1 0x3 SLOAD AND PUSH1 0x3 SSTORE PUSH2 0x2B49 JUMP JUMPDEST POP CALLVALUE PUSH2 0x230 JUMPI DUP1 PUSH1 0x3 NOT CALLDATASIZE ADD SLT PUSH2 0x230 JUMPI PUSH1 0x40 MLOAD PUSH32 0x0 PUSH1 0x1 PUSH1 0x1 PUSH1 0xA0 SHL SUB AND DUP2 MSTORE PUSH1 0x20 SWAP1 RETURN JUMPDEST POP CALLVALUE PUSH2 0x230 JUMPI DUP1 PUSH1 0x3 NOT CALLDATASIZE ADD SLT PUSH2 0x230 JUMPI PUSH1 0x40 MLOAD PUSH32 0x0 PUSH1 0x1 PUSH1 0x1 PUSH1 0xA0 SHL SUB AND DUP2 MSTORE PUSH1 0x20 SWAP1 RETURN JUMPDEST POP CALLVALUE PUSH2 0x230 JUMPI PUSH1 0x40 CALLDATASIZE PUSH1 0x3 NOT ADD SLT PUSH2 0x230 JUMPI PUSH2 0xDB2 PUSH2 0x2811 JUMP JUMPDEST PUSH1 0x24 CALLDATALOAD SWAP1 PUSH2 0xE0D PUSH1 0x1 PUSH1 0x1 PUSH1 0x40 SHL SUB DUP1 PUSH32 0x0 AND SWAP1 PUSH32 0x0 AND EQ PUSH2 0x2A05 JUMP JUMPDEST PUSH1 0x1 PUSH1 0x1 PUSH1 0xA0 SHL SUB PUSH2 0xE42 CALLER PUSH32 0x0 DUP4 AND EQ PUSH2 0x2A5F JUMP JUMPDEST PUSH2 0xE6B PUSH32 0x0 PUSH2 0x3A79 JUMP JUMPDEST PUSH1 0x40 MLOAD PUSH4 0x70A08231 PUSH1 0xE0 SHL DUP2 MSTORE ADDRESS PUSH1 0x4 DUP3 ADD MSTORE PUSH1 0x20 SWAP4 SWAP2 PUSH32 0x0 DUP5 AND SWAP2 DUP6 DUP2 PUSH1 0x24 DUP2 DUP7 GAS STATICCALL SWAP1 DUP2 ISZERO PUSH2 0x1081 JUMPI DUP9 SWAP2 PUSH2 0x1054 JUMPI JUMPDEST POP PUSH8 0xDE0B6B3A7640000 SWAP1 DUP2 DUP9 MUL DUP9 DUP2 DIV DUP4 EQ DUP10 ISZERO OR ISZERO PUSH2 0x1040 JUMPI SWAP1 PUSH2 0xEE1 SWAP2 PUSH2 0x29DC JUMP JUMPDEST PUSH2 0xEF8 DUP9 PUSH2 0xEF2 PUSH1 0x7 SLOAD DUP1 SWAP5 PUSH2 0x2AAB JUMP JUMPDEST SWAP3 PUSH2 0x2ACB JUMP JUMPDEST PUSH1 0x7 SSTORE PUSH1 0x3 SLOAD PUSH1 0xFF AND PUSH2 0xF26 JUMPI POP POP POP POP SWAP1 PUSH1 0x8 SWAP3 SWAP2 AND DUP5 MSTORE MSTORE PUSH2 0xF21 PUSH1 0x40 DUP4 KECCAK256 SWAP2 DUP3 SLOAD PUSH2 0x2AF0 JUMP JUMPDEST SWAP1 SSTORE DUP1 RETURN JUMPDEST PUSH1 0x40 MLOAD PUSH4 0x95EA7B3 PUSH1 0xE0 SHL DUP2 MSTORE PUSH1 0x1 PUSH1 0x1 PUSH1 0xA0 SHL SUB DUP5 AND PUSH1 0x4 DUP3 ADD MSTORE SWAP2 SWAP1 DIV PUSH1 0x24 DUP3 ADD DUP2 SWAP1 MSTORE SWAP6 SWAP7 POP SWAP5 SWAP1 SWAP2 DUP8 SWAP1 DUP8 SWAP1 DUP8 SWAP1 PUSH1 0x44 SWAP1 DUP3 SWAP1 DUP6 SWAP1 GAS CALL SWAP5 DUP6 ISZERO PUSH2 0x1033 JUMPI PUSH2 0xFD2 SWAP7 DUP9 SWAP7 PUSH2 0x1016 JUMPI JUMPDEST POP PUSH1 0x40 MLOAD PUSH4 0x1A4CA37B PUSH1 0xE2 SHL DUP2 MSTORE PUSH1 0x1 PUSH1 0x1 PUSH1 0xA0 SHL SUB PUSH32 0x0 DUP2 AND PUSH1 0x4 DUP4 ADD MSTORE PUSH1 0x24 DUP3 ADD SWAP5 SWAP1 SWAP5 MSTORE SWAP3 SWAP1 SWAP5 AND PUSH1 0x44 DUP4 ADD MSTORE SWAP1 SWAP5 DUP6 SWAP4 DUP5 SWAP3 SWAP2 DUP4 SWAP1 PUSH1 0x64 DUP3 ADD SWAP1 JUMP JUMPDEST SUB SWAP4 AND GAS CALL DUP1 ISZERO PUSH2 0x100B JUMPI PUSH2 0xFE6 JUMPI POP POP DUP1 RETURN JUMPDEST DUP2 RETURNDATASIZE DUP4 GT PUSH2 0x1004 JUMPI JUMPDEST PUSH2 0xFF9 DUP2 DUP4 PUSH2 0x2901 JUMP JUMPDEST DUP2 ADD SUB SLT PUSH2 0x4DB JUMPI DUP1 RETURN JUMPDEST POP RETURNDATASIZE PUSH2 0xFEF JUMP JUMPDEST PUSH1 0x40 MLOAD RETURNDATASIZE DUP6 DUP3 RETURNDATACOPY RETURNDATASIZE SWAP1 REVERT JUMPDEST PUSH2 0x102C SWAP1 DUP8 RETURNDATASIZE DUP10 GT PUSH2 0xABD JUMPI PUSH2 0xAAD DUP2 DUP4 PUSH2 0x2901 JUMP JUMPDEST POP CODESIZE PUSH2 0xF73 JUMP JUMPDEST POP PUSH1 0x40 MLOAD SWAP1 RETURNDATASIZE SWAP1 DUP3 RETURNDATACOPY RETURNDATASIZE SWAP1 REVERT JUMPDEST PUSH4 0x4E487B71 PUSH1 0xE0 SHL DUP11 MSTORE PUSH1 0x11 PUSH1 0x4 MSTORE PUSH1 0x24 DUP11 REVERT JUMPDEST SWAP1 POP DUP6 DUP2 DUP2 RETURNDATASIZE DUP4 GT PUSH2 0x107A JUMPI JUMPDEST PUSH2 0x106B DUP2 DUP4 PUSH2 0x2901 JUMP JUMPDEST DUP2 ADD SUB SLT PUSH2 0x4DB JUMPI MLOAD CODESIZE PUSH2 0xEBC JUMP JUMPDEST POP RETURNDATASIZE PUSH2 0x1061 JUMP JUMPDEST PUSH1 0x40 MLOAD RETURNDATASIZE DUP11 DUP3 RETURNDATACOPY RETURNDATASIZE SWAP1 REVERT JUMPDEST POP CALLVALUE PUSH2 0x230 JUMPI PUSH1 0x20 CALLDATASIZE PUSH1 0x3 NOT ADD SLT PUSH2 0x230 JUMPI PUSH1 0x4 CALLDATALOAD SWAP1 PUSH1 0x4 SLOAD DUP3 LT ISZERO PUSH2 0x230 JUMPI PUSH1 0x20 PUSH2 0x10B7 DUP4 PUSH2 0x298F JUMP JUMPDEST SWAP1 SLOAD PUSH1 0x40 MLOAD PUSH1 0x3 SWAP3 SWAP1 SWAP3 SHL SHR PUSH1 0x1 PUSH1 0x1 PUSH1 0xA0 SHL SUB AND DUP2 MSTORE RETURN JUMPDEST POP CALLVALUE PUSH2 0x230 JUMPI PUSH1 0x20 DUP1 PUSH1 0x3 NOT CALLDATASIZE ADD SLT PUSH2 0xA49 JUMPI PUSH1 0x1 PUSH1 0x1 PUSH1 0x40 SHL SUB SWAP1 PUSH1 0x4 CALLDATALOAD DUP3 DUP2 GT PUSH2 0x12C8 JUMPI CALLDATASIZE PUSH1 0x23 DUP3 ADD SLT ISZERO PUSH2 0x12C8 JUMPI DUP1 PUSH1 0x4 ADD CALLDATALOAD PUSH2 0x110F DUP2 PUSH2 0x2978 JUMP JUMPDEST SWAP1 PUSH2 0x111D PUSH1 0x40 MLOAD SWAP3 DUP4 PUSH2 0x2901 JUMP JUMPDEST DUP1 DUP3 MSTORE DUP4 DUP3 ADD SWAP3 DUP4 PUSH1 0x24 DUP1 SWAP4 PUSH1 0x5 SHL DUP4 ADD ADD SWAP2 CALLDATASIZE DUP4 GT PUSH2 0x12C4 JUMPI DUP4 DUP8 SWAP2 ADD SWAP2 JUMPDEST DUP4 DUP4 LT PUSH2 0x12AC JUMPI POP POP POP POP PUSH2 0x1150 PUSH2 0x3D86 JUMP JUMPDEST DUP2 MLOAD ISZERO PUSH2 0x1269 JUMPI PUSH1 0x4 SLOAD SWAP2 DUP3 PUSH2 0x1225 JUMPI MLOAD SWAP5 DUP6 GT PUSH2 0x1213 JUMPI PUSH9 0x10000000000000000 DUP6 GT PUSH2 0x1213 JUMPI POP DUP4 PUSH1 0x4 SSTORE DUP1 DUP5 LT PUSH2 0x11D3 JUMPI JUMPDEST POP SWAP1 PUSH1 0x4 DUP5 MSTORE DUP4 JUMPDEST DUP4 DUP2 LT PUSH2 0x1198 JUMPI DUP5 DUP1 RETURN JUMPDEST DUP3 MLOAD PUSH1 0x1 PUSH1 0x1 PUSH1 0xA0 SHL SUB AND PUSH32 0x8A35ACFBC15FF81A39AE7D344FD709F28E8600B4AA8C65C6B64BFE7FE36BD19B DUP3 ADD SSTORE SWAP2 DUP2 ADD SWAP2 PUSH1 0x1 ADD PUSH2 0x118D JUMP JUMPDEST DUP4 PUSH32 0x8A35ACFBC15FF81A39AE7D344FD709F28E8600B4AA8C65C6B64BFE7FE36BD19B SWAP2 DUP3 ADD SWAP2 ADD JUMPDEST DUP2 DUP2 LT PUSH2 0x1208 JUMPI POP PUSH2 0x1185 JUMP JUMPDEST DUP6 DUP2 SSTORE PUSH1 0x1 ADD PUSH2 0x11FB JUMP JUMPDEST PUSH4 0x4E487B71 PUSH1 0xE0 SHL DUP7 MSTORE PUSH1 0x41 PUSH1 0x4 MSTORE DUP6 REVERT JUMPDEST PUSH1 0x40 MLOAD PUSH3 0x461BCD PUSH1 0xE5 SHL DUP2 MSTORE PUSH1 0x4 DUP2 ADD DUP7 SWAP1 MSTORE PUSH1 0x1A DUP2 DUP5 ADD MSTORE PUSH32 0x616C6C6F7765644E6F646573206D75737420626520656D707479000000000000 PUSH1 0x44 DUP3 ADD MSTORE PUSH1 0x64 SWAP1 REVERT JUMPDEST DUP4 PUSH1 0x17 PUSH1 0x64 SWAP3 PUSH1 0x40 MLOAD SWAP3 PUSH3 0x461BCD PUSH1 0xE5 SHL DUP5 MSTORE PUSH1 0x4 DUP5 ADD MSTORE DUP3 ADD MSTORE PUSH32 0x596F752073656E7420616E20656D707479206172726179000000000000000000 PUSH1 0x44 DUP3 ADD MSTORE REVERT JUMPDEST DUP2 SWAP1 PUSH2 0x12B7 DUP5 PUSH2 0x283D JUMP JUMPDEST DUP2 MSTORE ADD SWAP2 ADD SWAP1 DUP7 SWAP1 PUSH2 0x113D JUMP JUMPDEST DUP9 DUP1 REVERT JUMPDEST DUP4 DUP1 REVERT JUMPDEST POP CALLVALUE PUSH2 0x230 JUMPI PUSH1 0x20 SWAP1 DUP2 PUSH1 0x3 NOT CALLDATASIZE ADD SLT PUSH2 0x230 JUMPI PUSH1 0x40 MLOAD PUSH4 0x70A08231 PUSH1 0xE0 SHL DUP2 MSTORE ADDRESS PUSH1 0x4 DUP3 DUP2 ADD SWAP2 SWAP1 SWAP2 MSTORE CALLDATALOAD DUP4 DUP3 PUSH1 0x24 DUP2 PUSH32 0x0 PUSH1 0x1 PUSH1 0x1 PUSH1 0xA0 SHL SUB AND GAS STATICCALL SWAP2 DUP3 ISZERO PUSH2 0x100B JUMPI DUP4 SWAP3 PUSH2 0x1387 JUMPI JUMPDEST POP PUSH8 0xDE0B6B3A7640000 SWAP3 DUP4 DUP3 MUL SWAP2 DUP1 DUP4 DIV DUP6 EQ SWAP1 ISZERO OR ISZERO PUSH2 0x1373 JUMPI POP PUSH2 0x136A SWAP2 PUSH2 0x1361 SWAP2 PUSH2 0x29DC JUMP JUMPDEST PUSH1 0x7 SLOAD SWAP1 PUSH2 0x2AAB JUMP JUMPDEST DIV PUSH1 0x40 MLOAD SWAP1 DUP2 MSTORE RETURN JUMPDEST PUSH4 0x4E487B71 PUSH1 0xE0 SHL DUP2 MSTORE PUSH1 0x11 PUSH1 0x4 MSTORE PUSH1 0x24 SWAP1 REVERT JUMPDEST SWAP1 SWAP2 POP DUP4 DUP2 DUP2 RETURNDATASIZE DUP4 GT PUSH2 0x13AF JUMPI JUMPDEST PUSH2 0x139F DUP2 DUP4 PUSH2 0x2901 JUMP JUMPDEST DUP2 ADD SUB SLT PUSH2 0x4DB JUMPI MLOAD SWAP1 CODESIZE PUSH2 0x1337 JUMP JUMPDEST POP RETURNDATASIZE PUSH2 0x1395 JUMP JUMPDEST POP CALLVALUE PUSH2 0x230 JUMPI DUP1 PUSH1 0x3 NOT CALLDATASIZE ADD SLT PUSH2 0x230 JUMPI PUSH1 0x40 MLOAD PUSH32 0x0 PUSH1 0x1 PUSH1 0x1 PUSH1 0xA0 SHL SUB AND DUP2 MSTORE PUSH1 0x20 SWAP1 RETURN JUMPDEST POP CALLVALUE PUSH2 0x230 JUMPI PUSH1 0x40 CALLDATASIZE PUSH1 0x3 NOT ADD SLT PUSH2 0x230 JUMPI PUSH2 0x1415 PUSH2 0x2851 JUMP JUMPDEST PUSH2 0x141D PUSH2 0x2827 JUMP JUMPDEST SWAP1 PUSH1 0x1 PUSH1 0x1 PUSH1 0x40 SHL SUB PUSH2 0x1475 DUP2 PUSH32 0x0 AND DUP3 PUSH32 0x0 AND EQ PUSH2 0x2A05 JUMP JUMPDEST PUSH1 0x1 PUSH1 0x1 PUSH1 0xA0 SHL SUB PUSH2 0x14AA CALLER PUSH32 0x0 DUP4 AND EQ PUSH2 0x2A5F JUMP JUMPDEST PUSH32 0x0 SWAP4 PUSH2 0x154D PUSH2 0x151A DUP7 PUSH32 0x0 PUSH32 0x0 PUSH2 0x3AD2 JUMP JUMPDEST DUP1 SWAP7 PUSH1 0x7 SLOAD PUSH1 0x40 MLOAD SWAP1 PUSH1 0x2 PUSH1 0x20 DUP4 ADD MSTORE PUSH1 0x40 DUP3 ADD MSTORE PUSH1 0x40 DUP2 MSTORE PUSH2 0x153C DUP2 PUSH2 0x28E6 JUMP JUMPDEST PUSH1 0xFF NOT PUSH1 0x3 SLOAD AND PUSH1 0x3 SSTORE DUP5 DUP9 PUSH2 0x2B49 JUMP JUMPDEST POP AND SWAP2 AND PUSH32 0x4EE48AB43D52BE2082A80761272F218FE0871F5B8DBA97D174EC2DB28B3B2218 DUP5 DUP1 LOG4 DUP1 RETURN JUMPDEST POP CALLVALUE PUSH2 0x230 JUMPI DUP1 PUSH1 0x3 NOT CALLDATASIZE ADD SLT PUSH2 0x230 JUMPI SLOAD PUSH1 0x40 MLOAD PUSH1 0x1 PUSH1 0x1 PUSH1 0xA0 SHL SUB SWAP1 SWAP2 AND DUP2 MSTORE PUSH1 0x20 SWAP1 RETURN JUMPDEST POP CALLVALUE PUSH2 0x230 JUMPI DUP1 PUSH1 0x3 NOT CALLDATASIZE ADD SLT PUSH2 0x230 JUMPI PUSH1 0x20 PUSH1 0x40 MLOAD PUSH1 0x1 PUSH1 0x1 PUSH1 0x40 SHL SUB PUSH32 0x0 AND DUP2 MSTORE RETURN JUMPDEST POP CALLVALUE PUSH2 0x230 JUMPI PUSH1 0x3 NOT PUSH1 0x20 CALLDATASIZE DUP3 ADD SLT PUSH2 0xA49 JUMPI PUSH1 0x4 CALLDATALOAD PUSH1 0x1 PUSH1 0x1 PUSH1 0x40 SHL SUB SWAP2 DUP3 DUP3 GT PUSH2 0x12C8 JUMPI PUSH1 0xA0 SWAP1 DUP3 CALLDATASIZE SUB ADD SLT PUSH2 0xA45 JUMPI PUSH32 0x0 PUSH1 0x1 PUSH1 0x1 PUSH1 0xA0 SHL SUB AND CALLER SUB PUSH2 0x2358 JUMPI PUSH1 0x40 MLOAD PUSH2 0x1651 DUP2 PUSH2 0x2882 JUMP JUMPDEST DUP2 PUSH1 0x4 ADD CALLDATALOAD DUP2 MSTORE PUSH1 0x24 DUP3 ADD CALLDATALOAD DUP4 DUP2 AND DUP2 SUB PUSH2 0x460 JUMPI PUSH1 0x20 DUP3 ADD MSTORE PUSH1 0x44 DUP3 ADD CALLDATALOAD DUP4 DUP2 GT PUSH2 0x460 JUMPI PUSH2 0x1687 SWAP1 PUSH1 0x4 CALLDATASIZE SWAP2 DUP6 ADD ADD PUSH2 0x2922 JUMP JUMPDEST SWAP1 PUSH1 0x40 DUP2 ADD SWAP2 DUP3 MSTORE PUSH1 0x64 DUP4 ADD CALLDATALOAD DUP5 DUP2 GT PUSH2 0x2354 JUMPI PUSH2 0x16AB SWAP1 PUSH1 0x4 CALLDATASIZE SWAP2 DUP7 ADD ADD PUSH2 0x2922 JUMP JUMPDEST SWAP3 PUSH1 0x60 DUP3 ADD SWAP4 DUP5 MSTORE PUSH1 0x84 DUP2 ADD CALLDATALOAD SWAP1 DUP6 DUP3 GT PUSH2 0x2276 JUMPI ADD SWAP1 CALLDATASIZE PUSH1 0x23 DUP4 ADD SLT ISZERO PUSH2 0x2354 JUMPI PUSH1 0x4 DUP3 ADD CALLDATALOAD PUSH2 0x16DB DUP2 PUSH2 0x2978 JUMP JUMPDEST SWAP3 PUSH2 0x16E9 PUSH1 0x40 MLOAD SWAP5 DUP6 PUSH2 0x2901 JUMP JUMPDEST DUP2 DUP5 MSTORE PUSH1 0x24 PUSH1 0x20 DUP6 ADD SWAP3 PUSH1 0x6 SHL DUP3 ADD ADD SWAP1 CALLDATASIZE DUP3 GT PUSH2 0x12C4 JUMPI PUSH1 0x24 ADD SWAP2 JUMPDEST DUP2 DUP4 LT PUSH2 0x231C JUMPI POP POP POP PUSH1 0x80 ADD MSTORE MLOAD PUSH1 0x20 DUP2 DUP1 MLOAD DUP2 ADD SUB SLT PUSH2 0x12C8 JUMPI PUSH2 0x174A SWAP1 PUSH2 0x1745 SWAP1 PUSH1 0x1 PUSH1 0x1 PUSH1 0xA0 SHL SUB SWAP1 PUSH2 0x173F SWAP1 PUSH1 0x20 ADD PUSH2 0x3A20 JUMP JUMPDEST AND PUSH2 0x37F0 JUMP JUMPDEST PUSH2 0x2AFD JUMP JUMPDEST DUP1 MLOAD PUSH1 0x20 DUP2 DUP1 MLOAD DUP2 ADD SUB SLT PUSH2 0x12C8 JUMPI PUSH2 0x1767 PUSH1 0x20 PUSH1 0xFF SWAP3 ADD PUSH2 0x3A34 JUMP JUMPDEST AND DUP1 PUSH2 0x19B7 JUMPI POP SWAP1 POP MLOAD PUSH1 0x60 DUP2 DUP1 MLOAD DUP2 ADD SUB SLT PUSH2 0xA49 JUMPI PUSH2 0x178A PUSH1 0x20 DUP3 ADD PUSH2 0x3A34 JUMP JUMPDEST POP PUSH1 0x60 PUSH2 0x1799 PUSH1 0x40 DUP4 ADD PUSH2 0x3A20 JUMP JUMPDEST SWAP2 ADD MLOAD SWAP1 PUSH1 0x1 PUSH1 0x1 PUSH1 0xA0 SHL SUB AND PUSH2 0x17CF PUSH32 0x0 PUSH2 0x3A79 JUMP JUMPDEST PUSH1 0x40 MLOAD PUSH4 0x70A08231 PUSH1 0xE0 SHL DUP2 MSTORE ADDRESS PUSH1 0x4 DUP3 ADD MSTORE PUSH32 0x0 PUSH1 0x1 PUSH1 0x1 PUSH1 0xA0 SHL SUB AND SWAP2 SWAP1 PUSH1 0x20 DUP2 PUSH1 0x24 DUP2 DUP7 GAS STATICCALL SWAP1 DUP2 ISZERO PUSH2 0x19AC JUMPI DUP7 SWAP2 PUSH2 0x197A JUMPI JUMPDEST POP PUSH8 0xDE0B6B3A7640000 SWAP1 DUP2 DUP7 MUL DUP7 DUP2 DIV DUP4 EQ DUP8 ISZERO OR ISZERO PUSH2 0xACF JUMPI SWAP1 PUSH2 0x184A SWAP2 PUSH2 0x29DC JUMP JUMPDEST PUSH2 0x185B DUP7 PUSH2 0xEF2 PUSH1 0x7 SLOAD DUP1 SWAP5 PUSH2 0x2AAB JUMP JUMPDEST PUSH1 0x7 SSTORE PUSH1 0x3 SLOAD PUSH1 0xFF AND PUSH2 0x1882 JUMPI POP POP POP POP DUP3 MSTORE PUSH1 0x8 PUSH1 0x20 MSTORE PUSH2 0xF21 PUSH1 0x40 DUP4 KECCAK256 SWAP2 DUP3 SLOAD PUSH2 0x2AF0 JUMP JUMPDEST PUSH1 0x40 MLOAD PUSH4 0x95EA7B3 PUSH1 0xE0 SHL DUP2 MSTORE PUSH1 0x1 PUSH1 0x1 PUSH1 0xA0 SHL SUB DUP5 AND PUSH1 0x4 DUP3 ADD MSTORE SWAP2 SWAP1 DIV PUSH1 0x24 DUP3 ADD DUP2 SWAP1 MSTORE SWAP1 SWAP5 POP SWAP3 SWAP2 PUSH1 0x20 SWAP1 DUP6 SWAP1 PUSH1 0x44 SWAP1 DUP3 SWAP1 DUP10 SWAP1 GAS CALL SWAP3 DUP4 ISZERO PUSH2 0x4E8 JUMPI PUSH2 0x192D SWAP5 PUSH1 0x20 SWAP5 PUSH2 0x195D JUMPI JUMPDEST POP PUSH1 0x40 MLOAD PUSH4 0x1A4CA37B PUSH1 0xE2 SHL DUP2 MSTORE PUSH1 0x1 PUSH1 0x1 PUSH1 0xA0 SHL SUB PUSH32 0x0 DUP2 AND PUSH1 0x4 DUP4 ADD MSTORE PUSH1 0x24 DUP3 ADD SWAP3 SWAP1 SWAP3 MSTORE SWAP3 AND PUSH1 0x44 DUP4 ADD MSTORE SWAP1 SWAP3 DUP4 SWAP2 SWAP1 DUP3 SWAP1 DUP7 SWAP1 DUP3 SWAP1 PUSH1 0x64 DUP3 ADD SWAP1 JUMP JUMPDEST SUB SWAP3 PUSH1 0x1 PUSH1 0x1 PUSH1 0xA0 SHL SUB AND GAS CALL DUP1 ISZERO PUSH2 0x455 JUMPI PUSH2 0x1948 JUMPI POP DUP1 RETURN JUMPDEST PUSH1 0x20 SWAP1 DUP2 RETURNDATASIZE DUP4 GT PUSH2 0x1004 JUMPI PUSH2 0xFF9 DUP2 DUP4 PUSH2 0x2901 JUMP JUMPDEST PUSH2 0x1973 SWAP1 DUP6 RETURNDATASIZE DUP8 GT PUSH2 0xABD JUMPI PUSH2 0xAAD DUP2 DUP4 PUSH2 0x2901 JUMP JUMPDEST POP CODESIZE PUSH2 0x18CE JUMP JUMPDEST SWAP1 POP PUSH1 0x20 DUP2 RETURNDATASIZE PUSH1 0x20 GT PUSH2 0x19A4 JUMPI JUMPDEST DUP2 PUSH2 0x1995 PUSH1 0x20 SWAP4 DUP4 PUSH2 0x2901 JUMP JUMPDEST DUP2 ADD SUB SLT PUSH2 0x4DB JUMPI MLOAD CODESIZE PUSH2 0x1825 JUMP JUMPDEST RETURNDATASIZE SWAP2 POP PUSH2 0x1988 JUMP JUMPDEST PUSH1 0x40 MLOAD RETURNDATASIZE DUP9 DUP3 RETURNDATACOPY RETURNDATASIZE SWAP1 REVERT JUMPDEST PUSH1 0x1 DUP2 SUB PUSH2 0x1ABF JUMPI POP MLOAD PUSH1 0x60 DUP2 DUP1 MLOAD DUP2 ADD SUB SLT PUSH2 0xA45 JUMPI PUSH2 0x19DA PUSH1 0x20 DUP3 ADD PUSH2 0x3A34 JUMP JUMPDEST POP PUSH1 0x40 DUP2 ADD MLOAD SWAP2 DUP3 AND SWAP1 DUP2 DUP4 SUB PUSH2 0x12C8 JUMPI PUSH1 0x1 PUSH1 0x1 PUSH1 0xA0 SHL SUB SWAP1 PUSH2 0x1A00 SWAP1 PUSH1 0x60 ADD PUSH2 0x3A20 JUMP JUMPDEST AND SWAP1 PUSH2 0x1A97 PUSH32 0x0 SWAP4 PUSH2 0x1A72 DUP6 PUSH32 0x0 PUSH32 0x0 PUSH2 0x3AD2 JUMP JUMPDEST SWAP5 DUP6 SWAP2 DUP6 PUSH1 0x7 SLOAD SWAP2 PUSH1 0x40 MLOAD SWAP3 PUSH1 0x2 PUSH1 0x20 DUP6 ADD MSTORE PUSH1 0x40 DUP5 ADD MSTORE PUSH1 0x40 DUP4 MSTORE PUSH2 0xCFF DUP4 PUSH2 0x28E6 JUMP JUMPDEST POP PUSH32 0x4EE48AB43D52BE2082A80761272F218FE0871F5B8DBA97D174EC2DB28B3B2218 DUP5 DUP1 LOG4 DUP1 RETURN JUMPDEST PUSH1 0x2 SUB PUSH2 0x22E5 JUMPI MLOAD PUSH1 0x40 DUP2 DUP1 MLOAD DUP2 ADD SUB SLT PUSH2 0xA45 JUMPI DUP1 PUSH2 0x1AE3 PUSH1 0x20 PUSH1 0x40 SWAP4 ADD PUSH2 0x3A34 JUMP JUMPDEST POP ADD MLOAD PUSH1 0x7 SSTORE PUSH1 0x1 PUSH1 0xFF NOT PUSH1 0x3 SLOAD AND OR PUSH1 0x3 SSTORE PUSH1 0x40 MLOAD SWAP1 PUSH1 0x1 PUSH1 0x20 DUP4 ADD MSTORE PUSH1 0x20 DUP3 MSTORE PUSH2 0x1B0E DUP3 PUSH2 0x289D JUMP JUMPDEST DUP1 PUSH32 0x0 AND SWAP1 PUSH32 0x0 AND EQ PUSH1 0x0 EQ PUSH2 0x1C38 JUMPI POP PUSH2 0x1BA7 PUSH32 0x0 PUSH32 0x0 PUSH2 0x3C4D JUMP JUMPDEST DUP1 PUSH32 0x0 PUSH1 0x1 PUSH1 0x1 PUSH1 0xA0 SHL SUB AND DUP1 EXTCODESIZE ISZERO PUSH2 0x1C35 JUMPI DUP2 SWAP1 PUSH1 0x4 PUSH1 0x40 MLOAD DUP1 SWAP5 DUP2 SWAP4 PUSH4 0x4CAB8A57 PUSH1 0xE1 SHL DUP4 MSTORE GAS CALL DUP1 ISZERO PUSH2 0x455 JUMPI PUSH2 0x1C26 JUMPI JUMPDEST POP JUMPDEST PUSH1 0x1 PUSH32 0xD8FB8E7C260C25E52D8B9C9F1E795C6A98EB972E58C44E482C8F0158F656A04B DUP3 DUP1 LOG2 DUP1 RETURN JUMPDEST PUSH2 0x1C2F SWAP1 PUSH2 0x28B8 JUMP JUMPDEST CODESIZE PUSH2 0x1BFB JUMP JUMPDEST POP REVERT JUMPDEST PUSH32 0x0 SWAP1 DUP3 SWAP1 PUSH2 0x1C68 PUSH2 0x1745 DUP5 PUSH2 0x37F0 JUMP JUMPDEST PUSH1 0x60 PUSH1 0x80 PUSH1 0x40 MLOAD PUSH2 0x1C78 DUP2 PUSH2 0x2882 JUMP JUMPDEST DUP3 DUP2 MSTORE DUP3 PUSH1 0x20 DUP3 ADD MSTORE DUP3 PUSH1 0x40 DUP3 ADD MSTORE DUP7 DUP4 DUP3 ADD MSTORE ADD MSTORE PUSH1 0x40 MLOAD PUSH2 0x1C9A DUP2 PUSH2 0x2867 JUMP JUMPDEST DUP5 DUP2 MSTORE PUSH1 0x40 MLOAD SWAP4 PUSH1 0x1 DUP1 PUSH1 0xA0 SHL SUB AND PUSH1 0x20 DUP6 ADD MSTORE PUSH1 0x20 DUP5 MSTORE PUSH2 0x1CBB DUP5 PUSH2 0x289D JUMP JUMPDEST PUSH2 0x1CD5 PUSH1 0x40 MLOAD PUSH2 0x1CCA DUP2 PUSH2 0x2867 JUMP JUMPDEST PUSH3 0x1E8480 DUP2 MSTORE PUSH2 0x3A42 JUMP JUMPDEST SWAP2 PUSH1 0x40 MLOAD SWAP5 PUSH2 0x1CE3 DUP7 PUSH2 0x2882 JUMP JUMPDEST DUP6 MSTORE PUSH1 0x20 DUP6 ADD MSTORE PUSH1 0x40 DUP5 ADD MSTORE DUP4 PUSH1 0x60 DUP5 ADD MSTORE PUSH1 0x80 DUP4 ADD MSTORE PUSH1 0x40 MLOAD PUSH4 0xB0F479A1 PUSH1 0xE0 SHL DUP2 MSTORE PUSH1 0x20 DUP2 PUSH1 0x4 DUP2 ADDRESS GAS STATICCALL SWAP1 DUP2 ISZERO PUSH2 0x530 JUMPI DUP5 SWAP2 PUSH2 0x22B6 JUMPI JUMPDEST POP PUSH1 0x40 MLOAD PUSH4 0x20487DED PUSH1 0xE0 SHL DUP2 MSTORE SWAP1 PUSH1 0x20 DUP3 DUP1 PUSH2 0x1D5F DUP8 PUSH32 0x0 PUSH1 0x4 DUP5 ADD PUSH2 0x3727 JUMP JUMPDEST SUB DUP2 PUSH1 0x1 PUSH1 0x1 PUSH1 0xA0 SHL SUB DUP6 AND GAS STATICCALL SWAP2 DUP3 ISZERO PUSH2 0x4E8 JUMPI DUP6 SWAP3 PUSH2 0x2282 JUMPI JUMPDEST POP PUSH1 0x40 MLOAD PUSH4 0x70A08231 PUSH1 0xE0 SHL DUP2 MSTORE ADDRESS PUSH1 0x4 DUP3 ADD MSTORE PUSH32 0x0 SWAP1 PUSH1 0x20 DUP2 PUSH1 0x24 DUP2 PUSH1 0x1 PUSH1 0x1 PUSH1 0xA0 SHL SUB DUP7 AND GAS STATICCALL SWAP1 DUP2 ISZERO PUSH2 0xAC4 JUMPI DUP8 SWAP2 PUSH2 0x224C JUMPI JUMPDEST POP PUSH2 0x21F9 JUMPI JUMPDEST POP PUSH1 0x40 MLOAD PUSH4 0x70A08231 PUSH1 0xE0 SHL DUP2 MSTORE ADDRESS PUSH1 0x4 DUP3 ADD MSTORE PUSH32 0x0 SWAP5 SWAP1 DUP7 SWAP1 PUSH1 0x20 DUP2 PUSH1 0x24 DUP2 PUSH1 0x1 PUSH1 0x1 PUSH1 0xA0 SHL SUB DUP12 AND GAS STATICCALL SWAP1 DUP2 ISZERO PUSH2 0x455 JUMPI DUP3 SWAP2 PUSH2 0x21C7 JUMPI JUMPDEST POP PUSH1 0x6 SLOAD PUSH1 0x40 MLOAD PUSH4 0x95EA7B3 PUSH1 0xE0 SHL DUP2 MSTORE PUSH1 0x1 PUSH1 0x1 PUSH1 0xA0 SHL SUB SWAP1 SWAP2 AND PUSH1 0x4 DUP3 ADD MSTORE PUSH1 0x24 DUP2 ADD DUP3 SWAP1 MSTORE PUSH1 0x20 DUP2 DUP1 PUSH1 0x44 DUP2 ADD SUB DUP2 DUP7 PUSH1 0x1 PUSH1 0x1 PUSH1 0xA0 SHL SUB DUP14 AND GAS CALL DUP1 ISZERO PUSH2 0x100B JUMPI PUSH2 0x21A8 JUMPI JUMPDEST POP PUSH1 0x40 MLOAD SWAP1 PUSH2 0x1E88 DUP3 PUSH2 0x28CB JUMP JUMPDEST PUSH1 0x1 PUSH1 0x1 PUSH1 0xA0 SHL SUB DUP9 DUP2 AND DUP4 MSTORE PUSH32 0x0 DUP2 AND PUSH1 0x20 DUP1 DUP6 ADD DUP3 DUP2 MSTORE PUSH32 0x0 PUSH2 0xFFFF AND PUSH1 0x40 DUP1 DUP9 ADD SWAP2 DUP3 MSTORE ADDRESS PUSH1 0x60 DUP10 ADD SWAP1 DUP2 MSTORE PUSH1 0x80 DUP10 ADD DUP14 DUP2 MSTORE PUSH1 0xA0 DUP11 ADD SWAP9 DUP10 MSTORE PUSH1 0xC0 DUP11 ADD DUP12 DUP2 MSTORE PUSH1 0x6 SLOAD SWAP4 MLOAD PUSH4 0x5023B4DF PUSH1 0xE0 SHL DUP2 MSTORE SWAP11 MLOAD DUP10 AND PUSH1 0x4 DUP13 ADD MSTORE SWAP5 MLOAD DUP9 AND PUSH1 0x24 DUP12 ADD MSTORE SWAP3 MLOAD PUSH3 0xFFFFFF AND PUSH1 0x44 DUP11 ADD MSTORE MLOAD DUP7 AND PUSH1 0x64 DUP10 ADD MSTORE SWAP1 MLOAD PUSH1 0x84 DUP9 ADD MSTORE SWAP5 MLOAD PUSH1 0xA4 DUP8 ADD MSTORE MLOAD DUP4 AND PUSH1 0xC4 DUP7 ADD MSTORE SWAP1 SWAP4 SWAP3 SWAP1 SWAP2 DUP4 SWAP2 PUSH1 0xE4 SWAP2 DUP4 SWAP2 DUP9 SWAP2 AND GAS CALL DUP1 ISZERO PUSH2 0x100B JUMPI PUSH2 0x217D JUMPI JUMPDEST POP DUP1 EXTCODESIZE ISZERO PUSH2 0xA49 JUMPI DUP2 SWAP1 PUSH1 0x24 PUSH1 0x40 MLOAD DUP1 SWAP5 DUP2 SWAP4 PUSH4 0x2E1A7D4D PUSH1 0xE0 SHL DUP4 MSTORE DUP10 PUSH1 0x4 DUP5 ADD MSTORE GAS CALL DUP1 ISZERO PUSH2 0xAC4 JUMPI PUSH2 0x216A JUMPI JUMPDEST POP SELFBALANCE DUP4 GT PUSH2 0x214B JUMPI DUP4 PUSH2 0x20E3 JUMPI JUMPDEST PUSH1 0x20 SWAP2 PUSH2 0x1FF3 SWAP2 PUSH1 0x40 MLOAD SWAP5 DUP6 DUP1 SWAP5 DUP2 SWAP4 PUSH4 0x96F4E9F9 PUSH1 0xE0 SHL DUP4 MSTORE PUSH32 0x0 PUSH1 0x4 DUP5 ADD PUSH2 0x3727 JUMP JUMPDEST SUB SWAP3 PUSH1 0x1 PUSH1 0x1 PUSH1 0xA0 SHL SUB AND GAS CALL DUP1 ISZERO PUSH2 0x455 JUMPI PUSH2 0x20B8 JUMPI JUMPDEST POP PUSH1 0x40 MLOAD PUSH4 0x70A08231 PUSH1 0xE0 SHL DUP2 MSTORE ADDRESS PUSH1 0x4 DUP3 ADD MSTORE PUSH1 0x20 DUP2 PUSH1 0x24 DUP2 PUSH1 0x1 PUSH1 0x1 PUSH1 0xA0 SHL SUB DUP8 AND GAS STATICCALL SWAP2 DUP3 ISZERO PUSH2 0x20AC JUMPI SWAP2 PUSH2 0x207A JUMPI JUMPDEST POP PUSH2 0x204A JUMPI JUMPDEST POP PUSH2 0x1BFD JUMP JUMPDEST PUSH2 0x2074 SWAP1 PUSH32 0x0 PUSH2 0x3C4D JUMP JUMPDEST CODESIZE PUSH2 0x2044 JUMP JUMPDEST SWAP1 POP PUSH1 0x20 DUP2 RETURNDATASIZE PUSH1 0x20 GT PUSH2 0x20A4 JUMPI JUMPDEST DUP2 PUSH2 0x2095 PUSH1 0x20 SWAP4 DUP4 PUSH2 0x2901 JUMP JUMPDEST DUP2 ADD SUB SLT PUSH2 0xA45 JUMPI MLOAD CODESIZE PUSH2 0x203E JUMP JUMPDEST RETURNDATASIZE SWAP2 POP PUSH2 0x2088 JUMP JUMPDEST PUSH1 0x40 MLOAD SWAP1 RETURNDATASIZE SWAP1 DUP3 RETURNDATACOPY RETURNDATASIZE SWAP1 REVERT JUMPDEST PUSH1 0x20 SWAP1 DUP2 RETURNDATASIZE DUP4 GT PUSH2 0x20DC JUMPI JUMPDEST PUSH2 0x20CE DUP2 DUP4 PUSH2 0x2901 JUMP JUMPDEST DUP2 ADD SUB SLT PUSH2 0xA45 JUMPI CODESIZE PUSH2 0x200B JUMP JUMPDEST POP RETURNDATASIZE PUSH2 0x20C4 JUMP JUMPDEST PUSH1 0x40 MLOAD PUSH4 0x95EA7B3 PUSH1 0xE0 SHL DUP2 MSTORE PUSH1 0x1 PUSH1 0x1 PUSH1 0xA0 SHL SUB DUP4 AND PUSH1 0x4 DUP3 ADD MSTORE PUSH1 0x24 DUP2 ADD DUP8 SWAP1 MSTORE PUSH1 0x20 DUP2 PUSH1 0x44 DUP2 DUP9 DUP1 GAS CALL DUP1 ISZERO PUSH2 0x4E8 JUMPI SWAP2 PUSH1 0x20 SWAP4 SWAP2 PUSH2 0x1FF3 SWAP4 PUSH2 0x212E JUMPI JUMPDEST POP SWAP2 POP SWAP2 POP PUSH2 0x1FAF JUMP JUMPDEST PUSH2 0x2144 SWAP1 DUP6 RETURNDATASIZE DUP8 GT PUSH2 0xABD JUMPI PUSH2 0xAAD DUP2 DUP4 PUSH2 0x2901 JUMP JUMPDEST POP CODESIZE PUSH2 0x2124 JUMP JUMPDEST PUSH1 0x40 MLOAD PUSH4 0x4787A103 PUSH1 0xE1 SHL DUP2 MSTORE SELFBALANCE PUSH1 0x4 DUP3 ADD MSTORE PUSH1 0x24 DUP2 ADD DUP5 SWAP1 MSTORE PUSH1 0x44 SWAP1 REVERT JUMPDEST PUSH2 0x2175 SWAP2 SWAP5 POP PUSH2 0x28B8 JUMP JUMPDEST DUP5 SWAP3 CODESIZE PUSH2 0x1FA1 JUMP JUMPDEST PUSH1 0x20 SWAP1 DUP2 RETURNDATASIZE DUP4 GT PUSH2 0x21A1 JUMPI JUMPDEST PUSH2 0x2193 DUP2 DUP4 PUSH2 0x2901 JUMP JUMPDEST DUP2 ADD SUB SLT PUSH2 0xA49 JUMPI CODESIZE PUSH2 0x1F71 JUMP JUMPDEST POP RETURNDATASIZE PUSH2 0x2189 JUMP JUMPDEST PUSH2 0x21C0 SWAP1 PUSH1 0x20 RETURNDATASIZE PUSH1 0x20 GT PUSH2 0xABD JUMPI PUSH2 0xAAD DUP2 DUP4 PUSH2 0x2901 JUMP JUMPDEST POP CODESIZE PUSH2 0x1E7A JUMP JUMPDEST SWAP1 POP PUSH1 0x20 DUP2 RETURNDATASIZE PUSH1 0x20 GT PUSH2 0x21F1 JUMPI JUMPDEST DUP2 PUSH2 0x21E2 PUSH1 0x20 SWAP4 DUP4 PUSH2 0x2901 JUMP JUMPDEST DUP2 ADD SUB SLT PUSH2 0xA49 JUMPI MLOAD CODESIZE PUSH2 0x1E30 JUMP JUMPDEST RETURNDATASIZE SWAP2 POP PUSH2 0x21D5 JUMP JUMPDEST PUSH2 0x2245 SWAP1 PUSH32 0x0 SWAP1 PUSH32 0x0 PUSH2 0x3AD2 JUMP JUMPDEST POP CODESIZE PUSH2 0x1DD7 JUMP JUMPDEST SWAP1 POP PUSH1 0x20 DUP2 RETURNDATASIZE PUSH1 0x20 GT PUSH2 0x227A JUMPI JUMPDEST DUP2 PUSH2 0x2267 PUSH1 0x20 SWAP4 DUP4 PUSH2 0x2901 JUMP JUMPDEST DUP2 ADD SUB SLT PUSH2 0x2276 JUMPI MLOAD CODESIZE PUSH2 0x1DD1 JUMP JUMPDEST DUP7 DUP1 REVERT JUMPDEST RETURNDATASIZE SWAP2 POP PUSH2 0x225A JUMP JUMPDEST SWAP1 SWAP2 POP PUSH1 0x20 DUP2 RETURNDATASIZE PUSH1 0x20 GT PUSH2 0x22AE JUMPI JUMPDEST DUP2 PUSH2 0x229E PUSH1 0x20 SWAP4 DUP4 PUSH2 0x2901 JUMP JUMPDEST DUP2 ADD SUB SLT PUSH2 0x460 JUMPI MLOAD SWAP1 CODESIZE PUSH2 0x1D7B JUMP JUMPDEST RETURNDATASIZE SWAP2 POP PUSH2 0x2291 JUMP JUMPDEST PUSH2 0x22D8 SWAP2 POP PUSH1 0x20 RETURNDATASIZE PUSH1 0x20 GT PUSH2 0x22DE JUMPI JUMPDEST PUSH2 0x22D0 DUP2 DUP4 PUSH2 0x2901 JUMP JUMPDEST DUP2 ADD SWAP1 PUSH2 0x36C8 JUMP JUMPDEST CODESIZE PUSH2 0x1D1E JUMP JUMPDEST POP RETURNDATASIZE PUSH2 0x22C6 JUMP JUMPDEST PUSH1 0x40 MLOAD PUSH3 0x461BCD PUSH1 0xE5 SHL DUP2 MSTORE PUSH1 0x20 PUSH1 0x4 DUP3 ADD MSTORE PUSH1 0xF PUSH1 0x24 DUP3 ADD MSTORE PUSH15 0x1A5B9D985B1A590818DBDB5B585B99 PUSH1 0x8A SHL PUSH1 0x44 DUP3 ADD MSTORE PUSH1 0x64 SWAP1 REVERT JUMPDEST PUSH1 0x40 DUP4 CALLDATASIZE SUB SLT PUSH2 0x12C4 JUMPI PUSH1 0x20 PUSH1 0x40 SWAP2 DUP3 MLOAD PUSH2 0x2336 DUP2 PUSH2 0x289D JUMP JUMPDEST PUSH2 0x233F DUP7 PUSH2 0x283D JUMP JUMPDEST DUP2 MSTORE DUP3 DUP7 ADD CALLDATALOAD DUP4 DUP3 ADD MSTORE DUP2 MSTORE ADD SWAP3 ADD SWAP2 PUSH2 0x1706 JUMP JUMPDEST DUP6 DUP1 REVERT JUMPDEST PUSH1 0x40 MLOAD PUSH4 0x35FDCCCD PUSH1 0xE2 SHL DUP2 MSTORE CALLER PUSH1 0x4 DUP3 ADD MSTORE PUSH1 0x24 SWAP1 REVERT JUMPDEST POP CALLVALUE PUSH2 0x230 JUMPI DUP1 PUSH1 0x3 NOT CALLDATASIZE ADD SLT PUSH2 0x230 JUMPI PUSH1 0x1 SLOAD PUSH1 0x1 PUSH1 0x1 PUSH1 0xA0 SHL SUB DUP1 DUP3 AND CALLER SUB PUSH2 0x23D6 JUMPI DUP3 SLOAD PUSH1 0x1 PUSH1 0x1 PUSH1 0xA0 SHL SUB NOT DUP1 DUP3 AND CALLER SWAP1 DUP2 OR DUP7 SSTORE SWAP4 AND PUSH1 0x1 SSTORE AND PUSH32 0x8BE0079C531659141344CD1FD0A4F28419497F9722A3DAAFE3B4186F6B6457E0 DUP4 DUP1 LOG3 DUP1 RETURN JUMPDEST PUSH1 0x40 MLOAD PUSH3 0x461BCD PUSH1 0xE5 SHL DUP2 MSTORE PUSH1 0x20 PUSH1 0x4 DUP3 ADD MSTORE PUSH1 0x16 PUSH1 0x24 DUP3 ADD MSTORE PUSH22 0x26BAB9BA10313290383937B837B9B2B21037BBB732B9 PUSH1 0x51 SHL PUSH1 0x44 DUP3 ADD MSTORE PUSH1 0x64 SWAP1 REVERT JUMPDEST POP CALLVALUE PUSH2 0x230 JUMPI DUP1 PUSH1 0x3 NOT CALLDATASIZE ADD SLT PUSH2 0x230 JUMPI PUSH1 0x20 PUSH1 0x40 MLOAD PUSH1 0x1 PUSH1 0x1 PUSH1 0x40 SHL SUB PUSH32 0x0 AND DUP2 MSTORE RETURN JUMPDEST POP CALLVALUE PUSH2 0x230 JUMPI DUP1 PUSH1 0x3 NOT CALLDATASIZE ADD SLT PUSH2 0x230 JUMPI PUSH1 0x40 MLOAD PUSH32 0x0 PUSH1 0x1 PUSH1 0x1 PUSH1 0xA0 SHL SUB AND DUP2 MSTORE PUSH1 0x20 SWAP1 RETURN JUMPDEST POP CALLVALUE PUSH2 0x230 JUMPI PUSH1 0xA0 CALLDATASIZE PUSH1 0x3 NOT ADD SLT PUSH2 0x230 JUMPI PUSH2 0x24B7 PUSH2 0x2851 JUMP JUMPDEST SWAP1 PUSH2 0x24C0 PUSH2 0x2827 JUMP JUMPDEST PUSH1 0x1 PUSH1 0x1 PUSH1 0xA0 SHL SUB SWAP2 SWAP1 PUSH1 0x44 CALLDATALOAD DUP4 DUP2 AND SWAP1 DUP2 SWAP1 SUB PUSH2 0xA45 JUMPI PUSH1 0x64 CALLDATALOAD DUP5 DUP2 AND DUP1 SWAP2 SUB PUSH2 0x12C8 JUMPI PUSH1 0x84 CALLDATALOAD SWAP6 PUSH1 0x1 PUSH1 0x1 PUSH1 0x40 SHL SUB DUP8 GT PUSH2 0x460 JUMPI PUSH2 0x250A PUSH2 0x258C SWAP6 SWAP7 SWAP8 CALLDATASIZE SWAP1 PUSH1 0x4 ADD PUSH2 0x2922 JUMP JUMPDEST PUSH1 0x40 MLOAD SWAP4 PUSH1 0x20 SWAP9 DUP10 SWAP7 AND DUP7 DUP7 ADD MSTORE DUP6 DUP6 MSTORE PUSH2 0x2524 DUP6 PUSH2 0x289D JUMP JUMPDEST PUSH1 0x40 MLOAD PUSH2 0x2530 DUP2 PUSH2 0x2867 JUMP JUMPDEST DUP9 DUP2 MSTORE PUSH2 0x254D PUSH1 0x40 MLOAD PUSH2 0x2542 DUP2 PUSH2 0x2867 JUMP JUMPDEST PUSH3 0xF4240 DUP2 MSTORE PUSH2 0x3A42 JUMP JUMPDEST SWAP3 PUSH1 0x40 MLOAD SWAP7 PUSH2 0x255B DUP9 PUSH2 0x2882 JUMP JUMPDEST DUP8 MSTORE DUP8 DUP8 ADD MSTORE PUSH1 0x40 DUP7 ADD MSTORE PUSH1 0x60 DUP6 ADD MSTORE PUSH1 0x80 DUP5 ADD MSTORE PUSH1 0x40 MLOAD DUP1 SWAP6 DUP2 SWAP5 DUP3 SWAP4 PUSH4 0x20487DED PUSH1 0xE0 SHL DUP5 MSTORE PUSH1 0x4 DUP5 ADD PUSH2 0x3727 JUMP JUMPDEST SUB SWAP2 GAS STATICCALL SWAP2 DUP3 ISZERO PUSH2 0x20AC JUMPI DUP1 SWAP3 PUSH2 0x25A8 JUMPI JUMPDEST POP POP PUSH1 0x40 MLOAD SWAP1 DUP2 MSTORE RETURN JUMPDEST SWAP1 SWAP2 POP DUP3 DUP3 DUP2 RETURNDATASIZE DUP4 GT PUSH2 0x25D1 JUMPI JUMPDEST PUSH2 0x25C0 DUP2 DUP4 PUSH2 0x2901 JUMP JUMPDEST DUP2 ADD SUB SLT PUSH2 0x230 JUMPI POP MLOAD CODESIZE DUP1 PUSH2 0x259E JUMP JUMPDEST POP RETURNDATASIZE PUSH2 0x25B6 JUMP JUMPDEST POP CALLVALUE PUSH2 0x230 JUMPI DUP1 PUSH1 0x3 NOT CALLDATASIZE ADD SLT PUSH2 0x230 JUMPI PUSH1 0x20 PUSH1 0x7 SLOAD PUSH1 0x40 MLOAD SWAP1 DUP2 MSTORE RETURN JUMPDEST POP CALLVALUE PUSH2 0x230 JUMPI DUP1 PUSH1 0x3 NOT CALLDATASIZE ADD SLT PUSH2 0x230 JUMPI PUSH1 0x20 PUSH1 0x2 SLOAD PUSH1 0x40 MLOAD SWAP1 DUP2 MSTORE RETURN JUMPDEST POP CALLVALUE PUSH2 0x230 JUMPI DUP1 PUSH1 0x3 NOT CALLDATASIZE ADD SLT PUSH2 0x230 JUMPI PUSH1 0x40 MLOAD PUSH32 0x0 PUSH1 0x1 PUSH1 0x1 PUSH1 0xA0 SHL SUB AND DUP2 MSTORE PUSH1 0x20 SWAP1 RETURN JUMPDEST POP CALLVALUE PUSH2 0x230 JUMPI DUP1 PUSH1 0x3 NOT CALLDATASIZE ADD SLT PUSH2 0x230 JUMPI PUSH1 0x20 PUSH1 0xFF PUSH1 0x3 SLOAD AND PUSH1 0x40 MLOAD SWAP1 ISZERO ISZERO DUP2 MSTORE RETURN JUMPDEST POP CALLVALUE PUSH2 0x230 JUMPI PUSH1 0x40 CALLDATASIZE PUSH1 0x3 NOT ADD SLT PUSH2 0x230 JUMPI PUSH2 0x2696 PUSH2 0x2811 JUMP JUMPDEST PUSH2 0x269E PUSH2 0x2827 JUMP JUMPDEST PUSH1 0x40 MLOAD PUSH4 0x35EA6A75 PUSH1 0xE0 SHL DUP2 MSTORE PUSH1 0x1 PUSH1 0x1 PUSH1 0xA0 SHL SUB SWAP2 DUP3 AND PUSH1 0x4 DUP3 ADD MSTORE PUSH2 0x180 SWAP3 SWAP1 SWAP2 DUP4 SWAP2 DUP4 SWAP2 PUSH1 0x24 SWAP2 DUP4 SWAP2 AND GAS STATICCALL SWAP2 DUP3 ISZERO PUSH2 0x100B JUMPI PUSH1 0x20 SWAP4 SWAP3 PUSH2 0x26E6 JUMPI POP POP PUSH1 0x40 MLOAD SWAP1 DUP2 MSTORE RETURN JUMPDEST PUSH2 0x26FC SWAP3 POP DUP1 RETURNDATASIZE LT PUSH2 0x529 JUMPI PUSH2 0x50E DUP2 DUP4 PUSH2 0x2901 JUMP JUMPDEST POP POP POP POP POP POP SWAP5 POP POP POP POP POP CODESIZE DUP1 PUSH2 0x259E JUMP JUMPDEST POP CALLVALUE PUSH2 0x230 JUMPI DUP1 PUSH1 0x3 NOT CALLDATASIZE ADD SLT PUSH2 0x230 JUMPI PUSH1 0x6 SLOAD PUSH1 0x40 MLOAD PUSH1 0x1 PUSH1 0x1 PUSH1 0xA0 SHL SUB SWAP1 SWAP2 AND DUP2 MSTORE PUSH1 0x20 SWAP1 RETURN JUMPDEST POP CALLVALUE PUSH2 0x230 JUMPI DUP1 PUSH1 0x3 NOT CALLDATASIZE ADD SLT PUSH2 0x230 JUMPI PUSH1 0x20 PUSH1 0x40 MLOAD PUSH2 0xFFFF PUSH32 0x0 AND DUP2 MSTORE RETURN JUMPDEST POP CALLVALUE PUSH2 0x230 JUMPI DUP1 PUSH1 0x3 NOT CALLDATASIZE ADD SLT PUSH2 0x230 JUMPI PUSH1 0x40 MLOAD PUSH32 0x0 PUSH1 0x1 PUSH1 0x1 PUSH1 0xA0 SHL SUB AND DUP2 MSTORE PUSH1 0x20 SWAP1 RETURN JUMPDEST SWAP1 POP CALLVALUE PUSH2 0xA49 JUMPI PUSH1 0x20 CALLDATASIZE PUSH1 0x3 NOT ADD SLT PUSH2 0xA49 JUMPI PUSH1 0x4 CALLDATALOAD PUSH4 0xFFFFFFFF PUSH1 0xE0 SHL DUP2 AND DUP1 SWAP2 SUB PUSH2 0xA45 JUMPI PUSH1 0x20 SWAP3 POP PUSH4 0x85572FFB PUSH1 0xE0 SHL DUP2 EQ SWAP1 DUP2 ISZERO PUSH2 0x2800 JUMPI JUMPDEST POP ISZERO ISZERO DUP2 MSTORE RETURN JUMPDEST PUSH4 0x1FFC9A7 PUSH1 0xE0 SHL EQ SWAP1 POP CODESIZE PUSH2 0x27F9 JUMP JUMPDEST PUSH1 0x4 CALLDATALOAD SWAP1 PUSH1 0x1 PUSH1 0x1 PUSH1 0xA0 SHL SUB DUP3 AND DUP3 SUB PUSH2 0x4DB JUMPI JUMP JUMPDEST PUSH1 0x24 CALLDATALOAD SWAP1 PUSH1 0x1 PUSH1 0x1 PUSH1 0xA0 SHL SUB DUP3 AND DUP3 SUB PUSH2 0x4DB JUMPI JUMP JUMPDEST CALLDATALOAD SWAP1 PUSH1 0x1 PUSH1 0x1 PUSH1 0xA0 SHL SUB DUP3 AND DUP3 SUB PUSH2 0x4DB JUMPI JUMP JUMPDEST PUSH1 0x4 CALLDATALOAD SWAP1 PUSH1 0x1 PUSH1 0x1 PUSH1 0x40 SHL SUB DUP3 AND DUP3 SUB PUSH2 0x4DB JUMPI JUMP JUMPDEST PUSH1 0x20 DUP2 ADD SWAP1 DUP2 LT PUSH1 0x1 PUSH1 0x1 PUSH1 0x40 SHL SUB DUP3 GT OR PUSH2 0x49A JUMPI PUSH1 0x40 MSTORE JUMP JUMPDEST PUSH1 0xA0 DUP2 ADD SWAP1 DUP2 LT PUSH1 0x1 PUSH1 0x1 PUSH1 0x40 SHL SUB DUP3 GT OR PUSH2 0x49A JUMPI PUSH1 0x40 MSTORE JUMP JUMPDEST PUSH1 0x40 DUP2 ADD SWAP1 DUP2 LT PUSH1 0x1 PUSH1 0x1 PUSH1 0x40 SHL SUB DUP3 GT OR PUSH2 0x49A JUMPI PUSH1 0x40 MSTORE JUMP JUMPDEST PUSH1 0x1 PUSH1 0x1 PUSH1 0x40 SHL SUB DUP2 GT PUSH2 0x49A JUMPI PUSH1 0x40 MSTORE JUMP JUMPDEST PUSH1 0xE0 DUP2 ADD SWAP1 DUP2 LT PUSH1 0x1 PUSH1 0x1 PUSH1 0x40 SHL SUB DUP3 GT OR PUSH2 0x49A JUMPI PUSH1 0x40 MSTORE JUMP JUMPDEST PUSH1 0x60 DUP2 ADD SWAP1 DUP2 LT PUSH1 0x1 PUSH1 0x1 PUSH1 0x40 SHL SUB DUP3 GT OR PUSH2 0x49A JUMPI PUSH1 0x40 MSTORE JUMP JUMPDEST SWAP1 PUSH1 0x1F DUP1 NOT SWAP2 ADD AND DUP2 ADD SWAP1 DUP2 LT PUSH1 0x1 PUSH1 0x1 PUSH1 0x40 SHL SUB DUP3 GT OR PUSH2 0x49A JUMPI PUSH1 0x40 MSTORE JUMP JUMPDEST DUP2 PUSH1 0x1F DUP3 ADD SLT ISZERO PUSH2 0x4DB JUMPI DUP1 CALLDATALOAD SWAP1 PUSH1 0x1 PUSH1 0x1 PUSH1 0x40 SHL SUB DUP3 GT PUSH2 0x49A JUMPI PUSH1 0x40 MLOAD SWAP3 PUSH2 0x2956 PUSH1 0x1F DUP5 ADD PUSH1 0x1F NOT AND PUSH1 0x20 ADD DUP6 PUSH2 0x2901 JUMP JUMPDEST DUP3 DUP5 MSTORE PUSH1 0x20 DUP4 DUP4 ADD ADD GT PUSH2 0x4DB JUMPI DUP2 PUSH1 0x0 SWAP3 PUSH1 0x20 DUP1 SWAP4 ADD DUP4 DUP7 ADD CALLDATACOPY DUP4 ADD ADD MSTORE SWAP1 JUMP JUMPDEST PUSH1 0x1 PUSH1 0x1 PUSH1 0x40 SHL SUB DUP2 GT PUSH2 0x49A JUMPI PUSH1 0x5 SHL PUSH1 0x20 ADD SWAP1 JUMP JUMPDEST PUSH1 0x4 SLOAD DUP2 LT ISZERO PUSH2 0x29C6 JUMPI PUSH1 0x4 PUSH1 0x0 MSTORE PUSH32 0x8A35ACFBC15FF81A39AE7D344FD709F28E8600B4AA8C65C6B64BFE7FE36BD19B ADD SWAP1 PUSH1 0x0 SWAP1 JUMP JUMPDEST PUSH4 0x4E487B71 PUSH1 0xE0 SHL PUSH1 0x0 MSTORE PUSH1 0x32 PUSH1 0x4 MSTORE PUSH1 0x24 PUSH1 0x0 REVERT JUMPDEST DUP2 DUP2 MUL SWAP3 SWAP2 DUP2 ISZERO SWAP2 DUP5 DIV EQ OR ISZERO PUSH2 0x29EF JUMPI JUMP JUMPDEST PUSH4 0x4E487B71 PUSH1 0xE0 SHL PUSH1 0x0 MSTORE PUSH1 0x11 PUSH1 0x4 MSTORE PUSH1 0x24 PUSH1 0x0 REVERT JUMPDEST ISZERO PUSH2 0x2A0C JUMPI JUMP JUMPDEST PUSH1 0x40 MLOAD PUSH3 0x461BCD PUSH1 0xE5 SHL DUP2 MSTORE PUSH1 0x20 PUSH1 0x4 DUP3 ADD MSTORE PUSH1 0x25 PUSH1 0x24 DUP3 ADD MSTORE PUSH32 0x52657175697265206D617374657220616E64206E6F646520696E2073616D6520 PUSH1 0x44 DUP3 ADD MSTORE PUSH5 0x31B430B4B7 PUSH1 0xD9 SHL PUSH1 0x64 DUP3 ADD MSTORE PUSH1 0x84 SWAP1 REVERT JUMPDEST ISZERO PUSH2 0x2A66 JUMPI JUMP JUMPDEST PUSH1 0x40 MLOAD PUSH3 0x461BCD PUSH1 0xE5 SHL DUP2 MSTORE PUSH1 0x20 PUSH1 0x4 DUP3 ADD MSTORE PUSH1 0x1C PUSH1 0x24 DUP3 ADD MSTORE PUSH32 0x4F6E6C79204D617374657220436F6E747261637420616C6C6F77656400000000 PUSH1 0x44 DUP3 ADD MSTORE PUSH1 0x64 SWAP1 REVERT JUMPDEST DUP2 ISZERO PUSH2 0x2AB5 JUMPI DIV SWAP1 JUMP JUMPDEST PUSH4 0x4E487B71 PUSH1 0xE0 SHL PUSH1 0x0 MSTORE PUSH1 0x12 PUSH1 0x4 MSTORE PUSH1 0x24 PUSH1 0x0 REVERT JUMPDEST SWAP2 SWAP1 DUP3 SUB SWAP2 DUP3 GT PUSH2 0x29EF JUMPI JUMP JUMPDEST SWAP1 DUP2 PUSH1 0x20 SWAP2 SUB SLT PUSH2 0x4DB JUMPI MLOAD DUP1 ISZERO ISZERO DUP2 SUB PUSH2 0x4DB JUMPI SWAP1 JUMP JUMPDEST SWAP2 SWAP1 DUP3 ADD DUP1 SWAP3 GT PUSH2 0x29EF JUMPI JUMP JUMPDEST ISZERO PUSH2 0x2B04 JUMPI JUMP JUMPDEST PUSH1 0x40 MLOAD PUSH3 0x461BCD PUSH1 0xE5 SHL DUP2 MSTORE PUSH1 0x20 PUSH1 0x4 DUP3 ADD MSTORE PUSH1 0x1D PUSH1 0x24 DUP3 ADD MSTORE PUSH32 0x43616C6C6572206973206E6F7420616E20616C6C6F776564206E6F6465000000 PUSH1 0x44 DUP3 ADD MSTORE PUSH1 0x64 SWAP1 REVERT JUMPDEST SWAP1 SWAP2 PUSH1 0x0 SWAP5 PUSH2 0x2B5A PUSH2 0x1745 DUP6 PUSH2 0x37F0 JUMP JUMPDEST DUP6 SWAP1 DUP1 PUSH2 0x323E JUMPI JUMPDEST POP PUSH2 0x2B6F DUP2 DUP7 DUP5 DUP8 PUSH2 0x38A8 JUMP JUMPDEST SWAP5 PUSH1 0x40 MLOAD SWAP5 PUSH4 0xB0F479A1 PUSH1 0xE0 SHL DUP7 MSTORE PUSH1 0x20 DUP7 PUSH1 0x4 DUP2 ADDRESS GAS STATICCALL SWAP6 DUP7 ISZERO PUSH2 0x1081 JUMPI DUP9 SWAP7 PUSH2 0x321D JUMPI JUMPDEST POP PUSH1 0x40 MLOAD PUSH4 0x20487DED PUSH1 0xE0 SHL DUP2 MSTORE SWAP4 PUSH1 0x20 DUP6 DUP1 PUSH2 0x2BB6 DUP12 DUP11 PUSH1 0x4 DUP5 ADD PUSH2 0x3727 JUMP JUMPDEST SUB DUP2 PUSH1 0x1 PUSH1 0x1 PUSH1 0xA0 SHL SUB DUP12 AND GAS STATICCALL SWAP5 DUP6 ISZERO PUSH2 0x3212 JUMPI DUP10 SWAP6 PUSH2 0x31DE JUMPI JUMPDEST POP PUSH1 0x40 MLOAD PUSH4 0x70A08231 PUSH1 0xE0 SHL DUP2 MSTORE ADDRESS PUSH1 0x4 DUP3 ADD MSTORE PUSH1 0x20 DUP2 PUSH1 0x24 DUP2 PUSH32 0x0 PUSH1 0x1 PUSH1 0x1 PUSH1 0xA0 SHL SUB AND GAS STATICCALL SWAP1 DUP2 ISZERO PUSH2 0x30E1 JUMPI DUP11 SWAP2 PUSH2 0x31AC JUMPI JUMPDEST POP PUSH2 0x313B JUMPI JUMPDEST PUSH1 0x40 MLOAD PUSH4 0x70A08231 PUSH1 0xE0 SHL DUP2 MSTORE ADDRESS PUSH1 0x4 DUP3 ADD MSTORE PUSH1 0x20 DUP2 PUSH1 0x24 DUP2 PUSH32 0x0 PUSH1 0x1 PUSH1 0x1 PUSH1 0xA0 SHL SUB AND GAS STATICCALL SWAP1 DUP2 ISZERO PUSH2 0x30E1 JUMPI DUP11 SWAP2 PUSH2 0x3109 JUMPI JUMPDEST POP PUSH1 0x6 SLOAD PUSH1 0x40 MLOAD PUSH4 0x95EA7B3 PUSH1 0xE0 SHL DUP2 MSTORE PUSH1 0x1 PUSH1 0x1 PUSH1 0xA0 SHL SUB SWAP1 SWAP2 AND PUSH1 0x4 DUP3 ADD MSTORE PUSH1 0x24 DUP2 ADD DUP3 SWAP1 MSTORE PUSH1 0x20 DUP2 DUP13 DUP2 DUP1 PUSH1 0x44 DUP2 ADD SUB SWAP2 PUSH32 0x0 PUSH1 0x1 PUSH1 0x1 PUSH1 0xA0 SHL SUB AND GAS CALL DUP1 ISZERO PUSH2 0x30A0 JUMPI SWAP2 PUSH1 0x20 SWAP2 DUP13 SWAP4 PUSH2 0x30EC JUMPI JUMPDEST POP PUSH1 0x40 MLOAD SWAP1 PUSH2 0x2CFE DUP3 PUSH2 0x28CB JUMP JUMPDEST PUSH1 0x1 PUSH1 0x1 PUSH1 0xA0 SHL SUB PUSH32 0x0 DUP2 AND DUP4 MSTORE PUSH32 0x0 DUP2 AND DUP5 DUP5 ADD SWAP1 DUP2 MSTORE PUSH2 0xFFFF PUSH32 0x0 AND PUSH1 0x40 DUP1 DUP7 ADD SWAP2 DUP3 MSTORE ADDRESS PUSH1 0x60 DUP8 ADD SWAP1 DUP2 MSTORE PUSH1 0x80 DUP8 ADD DUP15 DUP2 MSTORE PUSH1 0xA0 DUP9 ADD SWAP7 DUP8 MSTORE PUSH1 0xC0 DUP9 ADD DUP11 DUP2 MSTORE PUSH1 0x6 SLOAD SWAP4 MLOAD PUSH4 0x5023B4DF PUSH1 0xE0 SHL DUP2 MSTORE SWAP9 MLOAD DUP8 AND PUSH1 0x4 DUP11 ADD MSTORE SWAP5 MLOAD DUP7 AND PUSH1 0x24 DUP10 ADD MSTORE SWAP3 MLOAD PUSH3 0xFFFFFF AND PUSH1 0x44 DUP9 ADD MSTORE MLOAD DUP5 AND PUSH1 0x64 DUP8 ADD MSTORE SWAP1 MLOAD PUSH1 0x84 DUP7 ADD MSTORE SWAP3 MLOAD PUSH1 0xA4 DUP6 ADD MSTORE MLOAD DUP2 AND PUSH1 0xC4 DUP5 ADD MSTORE SWAP2 SWAP4 DUP5 SWAP3 PUSH1 0xE4 SWAP3 DUP5 SWAP3 SWAP2 AND GAS CALL SWAP1 DUP2 ISZERO PUSH2 0x30E1 JUMPI DUP11 SWAP2 PUSH2 0x30AF JUMPI JUMPDEST POP PUSH32 0x0 PUSH1 0x1 PUSH1 0x1 PUSH1 0xA0 SHL SUB AND EXTCODESIZE ISZERO PUSH2 0x30AB JUMPI PUSH1 0x40 MLOAD PUSH4 0x2E1A7D4D PUSH1 0xE0 SHL DUP2 MSTORE PUSH1 0x4 DUP2 ADD DUP8 SWAP1 MSTORE DUP11 DUP2 PUSH1 0x24 DUP2 DUP4 PUSH32 0x0 PUSH1 0x1 PUSH1 0x1 PUSH1 0xA0 SHL SUB AND GAS CALL DUP1 ISZERO PUSH2 0x30A0 JUMPI PUSH2 0x308D JUMPI JUMPDEST POP DUP5 PUSH2 0x306C JUMPI JUMPDEST POP POP POP SELFBALANCE DUP4 GT PUSH2 0x214B JUMPI PUSH1 0x1 PUSH1 0x1 PUSH1 0xA0 SHL SUB AND SWAP1 DUP2 PUSH2 0x2FF8 JUMPI JUMPDEST POP POP SWAP2 PUSH2 0x2ECF SWAP5 SWAP4 SWAP2 PUSH1 0x20 SWAP4 PUSH1 0x40 MLOAD DUP1 SWAP8 DUP2 SWAP6 DUP3 SWAP5 PUSH4 0x96F4E9F9 PUSH1 0xE0 SHL DUP5 MSTORE PUSH1 0x4 DUP5 ADD PUSH2 0x3727 JUMP JUMPDEST SUB SWAP3 PUSH1 0x1 PUSH1 0x1 PUSH1 0xA0 SHL SUB AND GAS CALL SWAP2 DUP3 ISZERO PUSH2 0x1033 JUMPI DUP2 SWAP3 PUSH2 0x2FC4 JUMPI JUMPDEST POP PUSH1 0x40 MLOAD PUSH4 0x70A08231 PUSH1 0xE0 SHL DUP2 MSTORE ADDRESS PUSH1 0x4 DUP3 ADD MSTORE PUSH1 0x20 DUP2 PUSH1 0x24 DUP2 PUSH32 0x0 PUSH1 0x1 PUSH1 0x1 PUSH1 0xA0 SHL SUB AND GAS STATICCALL SWAP2 DUP3 ISZERO PUSH2 0x20AC JUMPI SWAP2 PUSH2 0x2F92 JUMPI JUMPDEST POP PUSH2 0x2F45 JUMPI SWAP1 JUMP JUMPDEST PUSH2 0x2F8F PUSH32 0x0 PUSH32 0x0 PUSH2 0x3C4D JUMP JUMPDEST SWAP1 JUMP JUMPDEST SWAP1 POP PUSH1 0x20 DUP2 RETURNDATASIZE PUSH1 0x20 GT PUSH2 0x2FBC JUMPI JUMPDEST DUP2 PUSH2 0x2FAD PUSH1 0x20 SWAP4 DUP4 PUSH2 0x2901 JUMP JUMPDEST DUP2 ADD SUB SLT PUSH2 0x4DB JUMPI MLOAD CODESIZE PUSH2 0x2F3D JUMP JUMPDEST RETURNDATASIZE SWAP2 POP PUSH2 0x2FA0 JUMP JUMPDEST SWAP1 SWAP2 POP PUSH1 0x20 DUP2 RETURNDATASIZE PUSH1 0x20 GT PUSH2 0x2FF0 JUMPI JUMPDEST DUP2 PUSH2 0x2FE0 PUSH1 0x20 SWAP4 DUP4 PUSH2 0x2901 JUMP JUMPDEST DUP2 ADD SUB SLT PUSH2 0x4DB JUMPI MLOAD SWAP1 CODESIZE PUSH2 0x2EEA JUMP JUMPDEST RETURNDATASIZE SWAP2 POP PUSH2 0x2FD3 JUMP JUMPDEST PUSH1 0x40 MLOAD PUSH4 0x95EA7B3 PUSH1 0xE0 SHL DUP2 MSTORE PUSH1 0x1 PUSH1 0x1 PUSH1 0xA0 SHL SUB DUP7 AND PUSH1 0x4 DUP3 ADD MSTORE PUSH1 0x24 DUP2 ADD SWAP2 SWAP1 SWAP2 MSTORE SWAP1 PUSH1 0x20 SWAP1 DUP3 SWAP1 PUSH1 0x44 SWAP1 DUP3 SWAP1 DUP11 SWAP1 GAS CALL DUP1 ISZERO PUSH2 0x19AC JUMPI SWAP2 PUSH2 0x2ECF SWAP7 SWAP6 SWAP4 SWAP2 PUSH1 0x20 SWAP6 SWAP4 PUSH2 0x304F JUMPI JUMPDEST POP SWAP2 SWAP4 DUP2 SWAP4 SWAP6 SWAP7 POP PUSH2 0x2EA7 JUMP JUMPDEST PUSH2 0x3065 SWAP1 DUP7 RETURNDATASIZE DUP9 GT PUSH2 0xABD JUMPI PUSH2 0xAAD DUP2 DUP4 PUSH2 0x2901 JUMP JUMPDEST POP CODESIZE PUSH2 0x3042 JUMP JUMPDEST DUP4 SWAP9 POP SWAP1 PUSH2 0x307E PUSH2 0x3084 SWAP5 SWAP3 DUP7 PUSH2 0x2ACB JUMP JUMPDEST SWAP3 PUSH2 0x38A8 JUMP JUMPDEST SWAP5 CODESIZE DUP1 DUP1 PUSH2 0x2E8D JUMP JUMPDEST PUSH2 0x3099 SWAP1 SWAP11 SWAP2 SWAP11 PUSH2 0x28B8 JUMP JUMPDEST SWAP9 CODESIZE PUSH2 0x2E86 JUMP JUMPDEST PUSH1 0x40 MLOAD RETURNDATASIZE DUP14 DUP3 RETURNDATACOPY RETURNDATASIZE SWAP1 REVERT JUMPDEST DUP10 DUP1 REVERT JUMPDEST SWAP1 POP PUSH1 0x20 DUP2 RETURNDATASIZE PUSH1 0x20 GT PUSH2 0x30D9 JUMPI JUMPDEST DUP2 PUSH2 0x30CA PUSH1 0x20 SWAP4 DUP4 PUSH2 0x2901 JUMP JUMPDEST DUP2 ADD SUB SLT PUSH2 0x30AB JUMPI MLOAD CODESIZE PUSH2 0x2E04 JUMP JUMPDEST RETURNDATASIZE SWAP2 POP PUSH2 0x30BD JUMP JUMPDEST PUSH1 0x40 MLOAD RETURNDATASIZE DUP13 DUP3 RETURNDATACOPY RETURNDATASIZE SWAP1 REVERT JUMPDEST PUSH2 0x3102 SWAP1 DUP4 RETURNDATASIZE DUP6 GT PUSH2 0xABD JUMPI PUSH2 0xAAD DUP2 DUP4 PUSH2 0x2901 JUMP JUMPDEST POP CODESIZE PUSH2 0x2CF0 JUMP JUMPDEST SWAP1 POP PUSH1 0x20 DUP2 RETURNDATASIZE PUSH1 0x20 GT PUSH2 0x3133 JUMPI JUMPDEST DUP2 PUSH2 0x3124 PUSH1 0x20 SWAP4 DUP4 PUSH2 0x2901 JUMP JUMPDEST DUP2 ADD SUB SLT PUSH2 0x30AB JUMPI MLOAD CODESIZE PUSH2 0x2C7F JUMP JUMPDEST RETURNDATASIZE SWAP2 POP PUSH2 0x3117 JUMP JUMPDEST PUSH2 0x31A6 PUSH32 0x0 PUSH32 0x0 PUSH32 0x0 PUSH2 0x3AD2 JUMP JUMPDEST POP PUSH2 0x2C2C JUMP JUMPDEST SWAP1 POP PUSH1 0x20 DUP2 RETURNDATASIZE PUSH1 0x20 GT PUSH2 0x31D6 JUMPI JUMPDEST DUP2 PUSH2 0x31C7 PUSH1 0x20 SWAP4 DUP4 PUSH2 0x2901 JUMP JUMPDEST DUP2 ADD SUB SLT PUSH2 0x30AB JUMPI MLOAD CODESIZE PUSH2 0x2C26 JUMP JUMPDEST RETURNDATASIZE SWAP2 POP PUSH2 0x31BA JUMP JUMPDEST SWAP1 SWAP5 POP PUSH1 0x20 DUP2 RETURNDATASIZE PUSH1 0x20 GT PUSH2 0x320A JUMPI JUMPDEST DUP2 PUSH2 0x31FA PUSH1 0x20 SWAP4 DUP4 PUSH2 0x2901 JUMP JUMPDEST DUP2 ADD SUB SLT PUSH2 0x12C4 JUMPI MLOAD SWAP4 CODESIZE PUSH2 0x2BD2 JUMP JUMPDEST RETURNDATASIZE SWAP2 POP PUSH2 0x31ED JUMP JUMPDEST PUSH1 0x40 MLOAD RETURNDATASIZE DUP12 DUP3 RETURNDATACOPY RETURNDATASIZE SWAP1 REVERT JUMPDEST PUSH2 0x3237 SWAP2 SWAP7 POP PUSH1 0x20 RETURNDATASIZE PUSH1 0x20 GT PUSH2 0x22DE JUMPI PUSH2 0x22D0 DUP2 DUP4 PUSH2 0x2901 JUMP JUMPDEST SWAP5 CODESIZE PUSH2 0x2B95 JUMP JUMPDEST SWAP1 POP CODESIZE PUSH2 0x2B62 JUMP JUMPDEST SWAP3 SWAP1 SWAP2 PUSH2 0x3255 PUSH2 0x1745 DUP5 PUSH2 0x37F0 JUMP JUMPDEST PUSH1 0x5 SLOAD PUSH1 0x40 DUP1 MLOAD PUSH1 0x1 PUSH1 0x1 PUSH1 0xA0 SHL SUB SWAP3 DUP4 AND SWAP7 SWAP2 SWAP4 SWAP1 SWAP2 PUSH2 0x3275 DUP4 PUSH2 0x2882 JUMP JUMPDEST PUSH1 0x60 SWAP2 DUP3 DUP5 MSTORE DUP9 PUSH1 0x20 SWAP4 DUP1 DUP6 DUP8 ADD MSTORE DUP1 DUP9 DUP8 ADD MSTORE DUP1 PUSH1 0x80 PUSH1 0x0 SWAP8 DUP9 DUP4 DUP3 ADD MSTORE ADD MSTORE DUP8 MLOAD PUSH2 0x32A1 DUP2 PUSH2 0x2867 JUMP JUMPDEST DUP7 DUP2 MSTORE DUP8 DUP10 MLOAD SWAP12 AND DUP7 DUP13 ADD MSTORE DUP6 DUP12 MSTORE PUSH2 0x32B9 DUP12 PUSH2 0x289D JUMP JUMPDEST PUSH2 0x32C7 DUP10 MLOAD PUSH2 0x1CCA DUP2 PUSH2 0x2867 JUMP JUMPDEST SWAP4 DUP10 MLOAD SWAP12 PUSH2 0x32D4 DUP14 PUSH2 0x2882 JUMP JUMPDEST DUP13 MSTORE DUP7 DUP13 ADD MSTORE DUP9 DUP12 ADD MSTORE DUP10 ADD MSTORE PUSH1 0x80 DUP9 ADD MSTORE DUP5 MLOAD PUSH4 0xB0F479A1 PUSH1 0xE0 SHL DUP2 MSTORE SWAP8 PUSH1 0x4 SWAP2 DUP4 DUP11 DUP5 DUP2 ADDRESS GAS STATICCALL SWAP10 DUP11 ISZERO PUSH2 0x36BE JUMPI PUSH2 0x3331 SWAP9 SWAP10 SWAP11 DUP8 SWAP2 DUP8 SWAP2 PUSH2 0x36A1 JUMPI JUMPDEST POP AND SWAP2 DUP5 DUP12 DUP10 MLOAD DUP1 SWAP12 DUP2 SWAP3 PUSH4 0x20487DED PUSH1 0xE0 SHL DUP4 MSTORE DUP7 DUP10 DUP5 ADD PUSH2 0x3727 JUMP JUMPDEST SUB DUP2 DUP7 GAS STATICCALL SWAP9 DUP10 ISZERO PUSH2 0x354C JUMPI DUP7 SWAP10 PUSH2 0x3672 JUMPI JUMPDEST POP DUP8 MLOAD PUSH4 0x23B872DD PUSH1 0xE0 SHL DUP2 MSTORE CALLER DUP6 DUP3 ADD SWAP1 DUP2 MSTORE ADDRESS PUSH1 0x20 DUP3 ADD MSTORE PUSH1 0x40 DUP2 ADD DUP12 SWAP1 MSTORE SWAP1 SWAP2 DUP7 SWAP2 DUP4 SWAP2 SWAP1 DUP3 SWAP1 DUP11 SWAP1 DUP3 SWAP1 PUSH1 0x60 ADD SUB SWAP3 GAS CALL SWAP1 DUP2 ISZERO PUSH2 0x354C JUMPI DUP7 SWAP2 PUSH2 0x3655 JUMPI JUMPDEST POP ISZERO PUSH2 0x3612 JUMPI DUP6 PUSH1 0x5 SLOAD AND DUP8 MLOAD SWAP9 PUSH4 0x70A08231 PUSH1 0xE0 SHL SWAP10 DUP11 DUP2 MSTORE ADDRESS DUP7 DUP3 ADD MSTORE DUP7 DUP2 PUSH1 0x24 DUP2 DUP7 GAS STATICCALL SWAP1 DUP2 ISZERO PUSH2 0x3608 JUMPI DUP9 SWAP2 PUSH2 0x35D7 JUMPI JUMPDEST POP DUP2 GT PUSH2 0x3556 JUMPI DUP9 MLOAD PUSH4 0x95EA7B3 PUSH1 0xE0 SHL DUP2 MSTORE PUSH1 0x1 PUSH1 0x1 PUSH1 0xA0 SHL SUB DUP6 AND DUP7 DUP3 ADD SWAP1 DUP2 MSTORE PUSH1 0x20 DUP2 ADD SWAP3 SWAP1 SWAP3 MSTORE SWAP2 DUP7 SWAP2 DUP4 SWAP2 SWAP1 DUP3 SWAP1 DUP11 SWAP1 DUP3 SWAP1 PUSH1 0x40 ADD SUB SWAP3 GAS CALL DUP1 ISZERO PUSH2 0x354C JUMPI SWAP2 DUP6 SWAP4 SWAP2 PUSH2 0x342B SWAP12 SWAP13 SWAP4 PUSH2 0x352F JUMPI JUMPDEST POP DUP7 DUP10 MLOAD DUP1 SWAP13 DUP2 SWAP6 DUP3 SWAP5 PUSH4 0x96F4E9F9 PUSH1 0xE0 SHL DUP5 MSTORE DUP10 DUP5 ADD PUSH2 0x3727 JUMP JUMPDEST SUB SWAP3 GAS CALL SWAP7 DUP8 ISZERO PUSH2 0x3525 JUMPI DUP4 SWAP8 PUSH2 0x34F6 JUMPI JUMPDEST POP DUP2 SWAP1 PUSH1 0x24 PUSH32 0x0 SWAP8 DUP8 MLOAD SWAP7 DUP8 SWAP4 DUP5 SWAP3 DUP4 MSTORE ADDRESS SWAP1 DUP4 ADD MSTORE DUP10 AND GAS STATICCALL SWAP4 DUP5 ISZERO PUSH2 0x34EB JUMPI POP DUP2 SWAP4 PUSH2 0x34BA JUMPI JUMPDEST POP POP POP PUSH2 0x3490 JUMPI POP SWAP1 JUMP JUMPDEST PUSH2 0x2F8F SWAP1 PUSH32 0x0 PUSH2 0x3C4D JUMP JUMPDEST SWAP1 SWAP2 DUP1 SWAP4 POP DUP2 RETURNDATASIZE DUP4 GT PUSH2 0x34E4 JUMPI JUMPDEST PUSH2 0x34D2 DUP2 DUP4 PUSH2 0x2901 JUMP JUMPDEST DUP2 ADD SUB SLT PUSH2 0x230 JUMPI POP MLOAD CODESIZE DUP1 DUP1 PUSH2 0x3485 JUMP JUMPDEST POP RETURNDATASIZE PUSH2 0x34C8 JUMP JUMPDEST MLOAD SWAP2 RETURNDATASIZE SWAP2 POP DUP3 RETURNDATACOPY RETURNDATASIZE SWAP1 REVERT JUMPDEST SWAP1 SWAP7 POP DUP2 DUP2 DUP2 RETURNDATASIZE DUP4 GT PUSH2 0x351E JUMPI JUMPDEST PUSH2 0x350E DUP2 DUP4 PUSH2 0x2901 JUMP JUMPDEST DUP2 ADD SUB SLT PUSH2 0xA45 JUMPI MLOAD SWAP6 DUP2 PUSH2 0x343D JUMP JUMPDEST POP RETURNDATASIZE PUSH2 0x3504 JUMP JUMPDEST DUP6 MLOAD RETURNDATASIZE DUP6 DUP3 RETURNDATACOPY RETURNDATASIZE SWAP1 REVERT JUMPDEST PUSH2 0x3545 SWAP1 DUP6 RETURNDATASIZE DUP8 GT PUSH2 0xABD JUMPI PUSH2 0xAAD DUP2 DUP4 PUSH2 0x2901 JUMP JUMPDEST POP CODESIZE PUSH2 0x340F JUMP JUMPDEST DUP9 MLOAD RETURNDATASIZE DUP9 DUP3 RETURNDATACOPY RETURNDATASIZE SWAP1 REVERT JUMPDEST DUP5 SWAP1 DUP7 DUP11 DUP10 SWAP5 DUP3 DUP15 PUSH1 0x24 DUP5 MLOAD DUP1 SWAP5 DUP2 SWAP4 DUP3 MSTORE ADDRESS DUP11 DUP4 ADD MSTORE GAS STATICCALL SWAP3 DUP4 ISZERO PUSH2 0x35CD JUMPI DUP7 SWAP4 PUSH2 0x3599 JUMPI JUMPDEST POP POP MLOAD PUSH4 0x4787A103 PUSH1 0xE1 SHL DUP2 MSTORE SWAP3 DUP4 ADD MSTORE PUSH1 0x24 DUP3 ADD MSTORE PUSH1 0x44 SWAP2 POP REVERT JUMPDEST SWAP1 DUP1 SWAP3 SWAP4 POP DUP2 RETURNDATASIZE DUP4 GT PUSH2 0x35C6 JUMPI JUMPDEST PUSH2 0x35B1 DUP2 DUP4 PUSH2 0x2901 JUMP JUMPDEST DUP2 ADD SUB SLT PUSH2 0x460 JUMPI PUSH1 0x44 SWAP5 POP MLOAD SWAP1 DUP6 DUP1 PUSH2 0x357D JUMP JUMPDEST POP RETURNDATASIZE PUSH2 0x35A7 JUMP JUMPDEST DUP3 MLOAD RETURNDATASIZE DUP9 DUP3 RETURNDATACOPY RETURNDATASIZE SWAP1 REVERT JUMPDEST SWAP1 POP DUP7 DUP2 DUP2 RETURNDATASIZE DUP4 GT PUSH2 0x3601 JUMPI JUMPDEST PUSH2 0x35EE DUP2 DUP4 PUSH2 0x2901 JUMP JUMPDEST DUP2 ADD SUB SLT PUSH2 0x35FD JUMPI MLOAD CODESIZE PUSH2 0x33BC JUMP JUMPDEST DUP8 DUP1 REVERT JUMPDEST POP RETURNDATASIZE PUSH2 0x35E4 JUMP JUMPDEST DUP11 MLOAD RETURNDATASIZE DUP11 DUP3 RETURNDATACOPY RETURNDATASIZE SWAP1 REVERT JUMPDEST DUP7 MLOAD PUSH3 0x461BCD PUSH1 0xE5 SHL DUP2 MSTORE DUP1 DUP5 ADD DUP6 SWAP1 MSTORE PUSH1 0x1A PUSH1 0x24 DUP3 ADD MSTORE PUSH32 0x4E6F742070726F7669646564204C696E6B20666F722066656573000000000000 PUSH1 0x44 DUP3 ADD MSTORE PUSH1 0x64 SWAP1 REVERT JUMPDEST PUSH2 0x366C SWAP2 POP DUP6 RETURNDATASIZE DUP8 GT PUSH2 0xABD JUMPI PUSH2 0xAAD DUP2 DUP4 PUSH2 0x2901 JUMP JUMPDEST CODESIZE PUSH2 0x3387 JUMP JUMPDEST SWAP1 SWAP9 POP DUP5 DUP2 DUP2 RETURNDATASIZE DUP4 GT PUSH2 0x369A JUMPI JUMPDEST PUSH2 0x368A DUP2 DUP4 PUSH2 0x2901 JUMP JUMPDEST DUP2 ADD SUB SLT PUSH2 0x2354 JUMPI MLOAD SWAP8 DUP5 PUSH2 0x3344 JUMP JUMPDEST POP RETURNDATASIZE PUSH2 0x3680 JUMP JUMPDEST PUSH2 0x36B8 SWAP2 POP DUP7 RETURNDATASIZE DUP9 GT PUSH2 0x22DE JUMPI PUSH2 0x22D0 DUP2 DUP4 PUSH2 0x2901 JUMP JUMPDEST CODESIZE PUSH2 0x3313 JUMP JUMPDEST DUP8 MLOAD RETURNDATASIZE DUP8 DUP3 RETURNDATACOPY RETURNDATASIZE SWAP1 REVERT JUMPDEST SWAP1 DUP2 PUSH1 0x20 SWAP2 SUB SLT PUSH2 0x4DB JUMPI MLOAD PUSH1 0x1 PUSH1 0x1 PUSH1 0xA0 SHL SUB DUP2 AND DUP2 SUB PUSH2 0x4DB JUMPI SWAP1 JUMP JUMPDEST SWAP2 SWAP1 DUP3 MLOAD SWAP3 DUP4 DUP3 MSTORE PUSH1 0x0 JUMPDEST DUP5 DUP2 LT PUSH2 0x3713 JUMPI POP POP DUP3 PUSH1 0x0 PUSH1 0x20 DUP1 SWAP5 SWAP6 DUP5 ADD ADD MSTORE PUSH1 0x1F DUP1 NOT SWAP2 ADD AND ADD ADD SWAP1 JUMP JUMPDEST PUSH1 0x20 DUP2 DUP4 ADD DUP2 ADD MLOAD DUP5 DUP4 ADD DUP3 ADD MSTORE ADD PUSH2 0x36F2 JUMP JUMPDEST SWAP1 PUSH1 0x1 PUSH1 0x1 PUSH1 0x40 SHL SUB SWAP1 SWAP4 SWAP3 SWAP4 AND DUP2 MSTORE PUSH1 0x40 PUSH1 0x20 SWAP2 DUP2 DUP4 DUP3 ADD MSTORE PUSH2 0x3756 DUP6 MLOAD PUSH1 0xA0 DUP5 DUP5 ADD MSTORE PUSH1 0xE0 DUP4 ADD SWAP1 PUSH2 0x36E7 JUMP JUMPDEST SWAP2 PUSH2 0x3772 DUP5 DUP8 ADD MLOAD SWAP4 PUSH1 0x3F NOT SWAP5 DUP6 DUP6 DUP4 SUB ADD PUSH1 0x60 DUP7 ADD MSTORE PUSH2 0x36E7 JUMP JUMPDEST DUP2 DUP8 ADD MLOAD SWAP5 DUP5 DUP5 DUP4 SUB ADD PUSH1 0x80 DUP6 ADD MSTORE DUP1 DUP1 DUP8 MLOAD SWAP4 DUP5 DUP2 MSTORE ADD SWAP7 ADD SWAP3 PUSH1 0x0 SWAP1 JUMPDEST DUP4 DUP3 LT PUSH2 0x37C7 JUMPI POP POP POP POP POP PUSH1 0xC0 PUSH1 0x80 PUSH2 0x2F8F SWAP6 SWAP7 PUSH1 0x1 DUP1 PUSH1 0xA0 SHL SUB PUSH1 0x60 DUP3 ADD MLOAD AND PUSH1 0xA0 DUP6 ADD MSTORE ADD MLOAD SWAP3 DUP3 DUP6 SUB ADD SWAP2 ADD MSTORE PUSH2 0x36E7 JUMP JUMPDEST DUP5 MLOAD DUP1 MLOAD PUSH1 0x1 PUSH1 0x1 PUSH1 0xA0 SHL SUB AND DUP10 MSTORE DUP4 ADD MLOAD DUP9 DUP5 ADD MSTORE SWAP7 DUP8 ADD SWAP7 SWAP4 DUP3 ADD SWAP4 PUSH1 0x1 SWAP1 SWAP2 ADD SWAP1 PUSH2 0x3791 JUMP JUMPDEST PUSH1 0x0 PUSH1 0x4 DUP1 SLOAD SWAP2 JUMPDEST DUP3 PUSH2 0xFFFF DUP3 AND LT PUSH2 0x3843 JUMPI POP POP POP PUSH32 0x0 PUSH1 0x1 PUSH1 0x1 PUSH1 0xA0 SHL SUB SWAP1 DUP2 AND SWAP2 AND EQ PUSH2 0x383E JUMPI PUSH1 0x0 SWAP1 JUMP JUMPDEST PUSH1 0x1 SWAP1 JUMP JUMPDEST PUSH2 0x384C DUP2 PUSH2 0x298F JUMP JUMPDEST SWAP1 SLOAD PUSH1 0x3 SWAP2 SWAP1 SWAP2 SHL SHR PUSH1 0x1 PUSH1 0x1 PUSH1 0xA0 SHL SUB SWAP1 DUP2 AND SWAP1 DUP6 AND EQ PUSH2 0x3892 JUMPI PUSH2 0xFFFF DUP1 SWAP2 AND SWAP1 DUP2 EQ PUSH2 0x387D JUMPI PUSH1 0x1 ADD PUSH2 0x37F8 JUMP JUMPDEST PUSH1 0x11 DUP3 PUSH4 0x4E487B71 PUSH1 0xE0 SHL PUSH1 0x0 MSTORE MSTORE PUSH1 0x24 PUSH1 0x0 REVERT JUMPDEST POP POP POP POP PUSH1 0x1 SWAP1 JUMP JUMPDEST DUP1 MLOAD ISZERO PUSH2 0x29C6 JUMPI PUSH1 0x20 ADD SWAP1 JUMP JUMPDEST SWAP3 SWAP2 SWAP1 PUSH1 0x40 SWAP2 DUP3 MLOAD SWAP3 PUSH2 0x38BA DUP5 PUSH2 0x2882 JUMP JUMPDEST PUSH1 0x60 SWAP3 DUP4 DUP6 MSTORE PUSH1 0x20 SWAP6 DUP5 DUP8 DUP8 ADD MSTORE DUP5 DUP4 DUP8 ADD MSTORE DUP5 PUSH1 0x80 PUSH1 0x0 SWAP8 DUP9 DUP4 DUP3 ADD MSTORE ADD MSTORE PUSH1 0x1 DUP1 PUSH1 0xA0 SHL SUB DUP1 SWAP5 AND DUP1 ISZERO DUP1 PUSH2 0x39B3 JUMPI JUMPDEST ISZERO PUSH2 0x3945 JUMPI POP POP DUP2 MLOAD PUSH2 0x38FE DUP2 PUSH2 0x2867 JUMP JUMPDEST DUP6 DUP2 MSTORE SWAP3 JUMPDEST DUP3 MLOAD SWAP8 AND DUP7 DUP9 ADD MSTORE DUP6 DUP8 MSTORE PUSH2 0x3917 DUP8 PUSH2 0x289D JUMP JUMPDEST PUSH2 0x3925 DUP3 MLOAD PUSH2 0x1CCA DUP2 PUSH2 0x2867 JUMP JUMPDEST SWAP6 DUP3 MLOAD SWAP8 PUSH2 0x3932 DUP10 PUSH2 0x2882 JUMP JUMPDEST DUP9 MSTORE DUP8 ADD MSTORE DUP6 ADD MSTORE DUP4 ADD MSTORE PUSH1 0x80 DUP3 ADD MSTORE SWAP1 JUMP JUMPDEST DUP4 SWAP5 SWAP2 SWAP5 MLOAD SWAP1 PUSH2 0x3954 DUP3 PUSH2 0x289D JUMP JUMPDEST PUSH1 0x1 DUP3 MSTORE DUP9 DUP9 JUMPDEST DUP2 DUP2 LT PUSH2 0x3992 JUMPI POP POP SWAP1 PUSH2 0x398C SWAP2 DUP2 SWAP7 DUP7 MLOAD SWAP2 PUSH2 0x3977 DUP4 PUSH2 0x289D JUMP JUMPDEST DUP3 MSTORE DUP11 DUP3 ADD MSTORE PUSH2 0x3986 DUP3 PUSH2 0x389B JUMP JUMPDEST MSTORE PUSH2 0x389B JUMP JUMPDEST POP PUSH2 0x3903 JUMP JUMPDEST DUP7 MLOAD PUSH2 0x399D DUP2 PUSH2 0x289D JUMP JUMPDEST DUP11 DUP2 MSTORE DUP11 DUP4 DUP3 ADD MSTORE DUP3 DUP3 DUP7 ADD ADD MSTORE ADD DUP10 SWAP1 PUSH2 0x395B JUMP JUMPDEST POP DUP2 ISZERO PUSH2 0x38EC JUMP JUMPDEST SWAP2 SWAP1 DUP3 PUSH2 0x180 SWAP2 SUB SLT PUSH2 0x4DB JUMPI DUP2 MLOAD SWAP2 PUSH1 0x20 DUP2 ADD MLOAD SWAP2 PUSH1 0x40 DUP3 ADD MLOAD SWAP2 PUSH1 0x60 DUP2 ADD MLOAD SWAP2 PUSH1 0x80 DUP3 ADD MLOAD SWAP2 PUSH1 0xA0 DUP2 ADD MLOAD SWAP2 PUSH1 0xC0 DUP3 ADD MLOAD SWAP2 PUSH1 0xE0 DUP2 ADD MLOAD SWAP2 PUSH2 0x100 DUP3 ADD MLOAD SWAP2 PUSH2 0x120 DUP2 ADD MLOAD SWAP2 PUSH2 0x160 PUSH2 0x140 DUP4 ADD MLOAD SWAP3 ADD MLOAD PUSH5 0xFFFFFFFFFF DUP2 AND DUP2 SUB PUSH2 0x4DB JUMPI SWAP1 JUMP JUMPDEST MLOAD SWAP1 PUSH1 0x1 PUSH1 0x1 PUSH1 0xA0 SHL SUB DUP3 AND DUP3 SUB PUSH2 0x4DB JUMPI JUMP JUMPDEST MLOAD SWAP1 PUSH1 0xFF DUP3 AND DUP3 SUB PUSH2 0x4DB JUMPI JUMP JUMPDEST PUSH1 0x40 MLOAD SWAP1 PUSH4 0x97A657C9 PUSH1 0xE0 SHL PUSH1 0x20 DUP4 ADD MSTORE MLOAD PUSH1 0x24 DUP3 ADD MSTORE PUSH1 0x24 DUP2 MSTORE PUSH1 0x60 DUP2 ADD DUP2 DUP2 LT PUSH1 0x1 PUSH1 0x1 PUSH1 0x40 SHL SUB DUP3 GT OR PUSH2 0x49A JUMPI PUSH1 0x40 MSTORE SWAP1 JUMP JUMPDEST PUSH1 0x40 MLOAD PUSH4 0x26B1D5F PUSH1 0xE0 SHL DUP2 MSTORE SWAP1 PUSH1 0x20 SWAP1 DUP3 SWAP1 PUSH1 0x4 SWAP1 DUP3 SWAP1 PUSH1 0x1 PUSH1 0x1 PUSH1 0xA0 SHL SUB AND GAS STATICCALL SWAP1 DUP2 ISZERO PUSH2 0x3AC6 JUMPI PUSH1 0x0 SWAP2 PUSH2 0x3AAE JUMPI POP SWAP1 JUMP JUMPDEST PUSH2 0x2F8F SWAP2 POP PUSH1 0x20 RETURNDATASIZE DUP2 GT PUSH2 0x22DE JUMPI PUSH2 0x22D0 DUP2 DUP4 PUSH2 0x2901 JUMP JUMPDEST PUSH1 0x40 MLOAD RETURNDATASIZE PUSH1 0x0 DUP3 RETURNDATACOPY RETURNDATASIZE SWAP1 REVERT JUMPDEST PUSH1 0x40 DUP1 MLOAD PUSH4 0x70A08231 PUSH1 0xE0 SHL DUP2 MSTORE ADDRESS PUSH1 0x4 DUP3 ADD MSTORE SWAP4 SWAP5 SWAP4 SWAP1 SWAP3 PUSH1 0x20 SWAP3 PUSH1 0x1 PUSH1 0x1 PUSH1 0xA0 SHL SUB SWAP2 DUP3 AND SWAP3 SWAP2 SWAP1 DUP5 DUP4 PUSH1 0x24 DUP2 DUP8 GAS STATICCALL SWAP3 DUP4 ISZERO PUSH2 0x3C11 JUMPI PUSH1 0x0 SWAP4 PUSH2 0x3C1C JUMPI JUMPDEST POP PUSH2 0x3B1D SWAP1 PUSH2 0x3A79 JUMP JUMPDEST DUP6 MLOAD PUSH4 0x95EA7B3 PUSH1 0xE0 SHL DUP2 MSTORE PUSH1 0x1 PUSH1 0x1 PUSH1 0xA0 SHL SUB DUP3 AND PUSH1 0x4 DUP3 ADD MSTORE PUSH1 0x24 DUP2 ADD DUP5 SWAP1 MSTORE SWAP1 SWAP4 DUP6 SWAP1 DUP3 SWAP1 PUSH1 0x44 SWAP1 DUP3 SWAP1 PUSH1 0x0 SWAP1 GAS CALL DUP1 ISZERO PUSH2 0x3C11 JUMPI DUP6 SWAP5 SWAP3 PUSH2 0x3BA3 SWAP9 SWAP10 SWAP5 SWAP3 PUSH1 0x0 SWAP3 PUSH2 0x3BF4 JUMPI JUMPDEST POP DUP8 MLOAD PUSH4 0x1A4CA37B PUSH1 0xE2 SHL DUP2 MSTORE PUSH1 0x1 PUSH1 0x1 PUSH1 0xA0 SHL SUB SWAP1 SWAP6 AND PUSH1 0x4 DUP7 ADD MSTORE PUSH1 0x24 DUP6 ADD SWAP3 SWAP1 SWAP3 MSTORE ADDRESS PUSH1 0x44 DUP6 ADD MSTORE SWAP3 SWAP7 DUP8 SWAP4 DUP5 SWAP3 SWAP1 SWAP2 DUP4 SWAP1 PUSH1 0x64 DUP3 ADD SWAP1 JUMP JUMPDEST SUB SWAP4 AND GAS CALL SWAP2 DUP3 ISZERO PUSH2 0x3BEA JUMPI POP PUSH1 0x0 SWAP2 PUSH2 0x3BBE JUMPI JUMPDEST POP SWAP1 POP SWAP1 JUMP JUMPDEST DUP3 DUP2 RETURNDATASIZE DUP4 GT PUSH2 0x3BE3 JUMPI JUMPDEST PUSH2 0x3BD2 DUP2 DUP4 PUSH2 0x2901 JUMP JUMPDEST DUP2 ADD SUB SLT PUSH2 0x230 JUMPI POP MLOAD DUP1 CODESIZE PUSH2 0x3BB8 JUMP JUMPDEST POP RETURNDATASIZE PUSH2 0x3BC8 JUMP JUMPDEST MLOAD RETURNDATASIZE PUSH1 0x0 DUP3 RETURNDATACOPY RETURNDATASIZE SWAP1 REVERT JUMPDEST PUSH2 0x3C0A SWAP1 DUP8 RETURNDATASIZE DUP10 GT PUSH2 0xABD JUMPI PUSH2 0xAAD DUP2 DUP4 PUSH2 0x2901 JUMP JUMPDEST POP CODESIZE PUSH2 0x3B67 JUMP JUMPDEST DUP7 MLOAD RETURNDATASIZE PUSH1 0x0 DUP3 RETURNDATACOPY RETURNDATASIZE SWAP1 REVERT JUMPDEST SWAP1 SWAP3 DUP6 DUP3 DUP2 RETURNDATASIZE DUP4 GT PUSH2 0x3C46 JUMPI JUMPDEST PUSH2 0x3C33 DUP2 DUP4 PUSH2 0x2901 JUMP JUMPDEST DUP2 ADD SUB SLT PUSH2 0x230 JUMPI POP MLOAD SWAP2 PUSH2 0x3B1D PUSH2 0x3B13 JUMP JUMPDEST POP RETURNDATASIZE PUSH2 0x3C29 JUMP JUMPDEST PUSH1 0x40 DUP1 MLOAD PUSH4 0x70A08231 PUSH1 0xE0 SHL DUP2 MSTORE ADDRESS PUSH1 0x4 DUP3 ADD MSTORE SWAP1 SWAP2 PUSH1 0x1 PUSH1 0x1 PUSH1 0xA0 SHL SUB SWAP1 DUP5 DUP3 AND SWAP1 PUSH1 0x20 SWAP1 DUP2 DUP6 PUSH1 0x24 DUP2 DUP7 GAS STATICCALL SWAP5 DUP6 ISZERO PUSH2 0x3C11 JUMPI PUSH1 0x0 SWAP6 PUSH2 0x3D55 JUMPI JUMPDEST POP PUSH2 0x3C94 SWAP1 PUSH2 0x3A79 JUMP JUMPDEST DUP6 MLOAD PUSH4 0x95EA7B3 PUSH1 0xE0 SHL DUP2 MSTORE PUSH1 0x1 PUSH1 0x1 PUSH1 0xA0 SHL SUB DUP3 AND PUSH1 0x4 DUP3 ADD MSTORE PUSH1 0x24 DUP2 ADD DUP7 SWAP1 MSTORE SWAP1 SWAP3 DUP3 SWAP1 DUP3 SWAP1 PUSH1 0x44 SWAP1 DUP3 SWAP1 PUSH1 0x0 SWAP1 GAS CALL DUP1 ISZERO PUSH2 0x3C11 JUMPI PUSH2 0x3D37 JUMPI JUMPDEST POP POP AND SWAP3 DUP4 EXTCODESIZE ISZERO PUSH2 0x4DB JUMPI DUP3 MLOAD PUSH4 0xE8EDA9DF PUSH1 0xE0 SHL DUP2 MSTORE PUSH1 0x1 PUSH1 0x1 PUSH1 0xA0 SHL SUB SWAP2 SWAP1 SWAP2 AND PUSH1 0x4 DUP3 ADD MSTORE PUSH1 0x24 DUP2 ADD SWAP2 SWAP1 SWAP2 MSTORE ADDRESS PUSH1 0x44 DUP3 ADD MSTORE PUSH1 0x0 PUSH1 0x64 DUP3 ADD DUP2 SWAP1 MSTORE SWAP1 SWAP3 DUP4 SWAP1 PUSH1 0x84 SWAP1 DUP3 SWAP1 DUP5 SWAP1 GAS CALL SWAP1 DUP2 ISZERO PUSH2 0x3BEA JUMPI POP PUSH2 0x3D2C JUMPI POP JUMP JUMPDEST PUSH2 0x3D35 SWAP1 PUSH2 0x28B8 JUMP JUMPDEST JUMP JUMPDEST DUP2 PUSH2 0x3D4D SWAP3 SWAP1 RETURNDATASIZE LT PUSH2 0xABD JUMPI PUSH2 0xAAD DUP2 DUP4 PUSH2 0x2901 JUMP JUMPDEST POP CODESIZE DUP1 PUSH2 0x3CD1 JUMP JUMPDEST SWAP1 SWAP5 DUP3 DUP3 DUP2 RETURNDATASIZE DUP4 GT PUSH2 0x3D7F JUMPI JUMPDEST PUSH2 0x3D6C DUP2 DUP4 PUSH2 0x2901 JUMP JUMPDEST DUP2 ADD SUB SLT PUSH2 0x230 JUMPI POP MLOAD SWAP4 PUSH2 0x3C94 PUSH2 0x3C8A JUMP JUMPDEST POP RETURNDATASIZE PUSH2 0x3D62 JUMP JUMPDEST PUSH1 0x0 SLOAD PUSH1 0x1 PUSH1 0x1 PUSH1 0xA0 SHL SUB AND CALLER SUB PUSH2 0x3D9A JUMPI JUMP JUMPDEST PUSH1 0x40 MLOAD PUSH3 0x461BCD PUSH1 0xE5 SHL DUP2 MSTORE PUSH1 0x20 PUSH1 0x4 DUP3 ADD MSTORE PUSH1 0x16 PUSH1 0x24 DUP3 ADD MSTORE PUSH22 0x27B7363C9031B0B63630B1363290313C9037BBB732B9 PUSH1 0x51 SHL PUSH1 0x44 DUP3 ADD MSTORE PUSH1 0x64 SWAP1 REVERT INVALID LOG2 PUSH5 0x6970667358 0x22 SLT KECCAK256 0x2F 0xB0 0xE2 0x4B 0x1F 0xF8 MSIZE 0xC3 0xC5 SWAP8 SDIV CREATE2 0xE2 MLOAD DUP15 DUP14 0xE0 0xB6 CALLVALUE SHL RETURNDATASIZE SWAP1 DIFFICULTY SGT 0x1E 0x2C DUP6 0xD5 0xFC DELEGATECALL 0xDB SWAP10 PUSH5 0x736F6C6343 STOP ADDMOD SGT STOP CALLER ",
  "sha1": "44eaadbde22f0c22a640be089c529de55af6c081",
  "source": "// SPDX-License-Identifier: MIT\npragma solidity 0.8.19;\n\nimport {IRouterClient} from \"@chainlink/contracts/src/v0.8/ccip/interfaces/IRouterClient.sol\";\nimport {OwnerIsCreator} from \"@chainlink/contracts/src/v0.8/shared/access/OwnerIsCreator.sol\";\nimport {Client} from \"@chainlink/contracts/src/v0.8/ccip/libraries/Client.sol\";\nimport {CCIPReceiver} from \"@chainlink/contracts/src/v0.8/ccip/applications/CCIPReceiver.sol\";\nimport {IERC20} from \"@chainlink/contracts/src/v0.8/vendor/openzeppelin-solidity/v4.8.3/contracts/token/ERC20/IERC20.sol\";\nimport {SafeERC20} from \"@chainlink/contracts/src/v0.8/vendor/openzeppelin-solidity/v4.8.3/contracts/token/ERC20/utils/SafeERC20.sol\";\nimport \"./utils_node/UtilsNode.sol\";\nimport \"../interfaces/IWETH9.sol\";\n\n//uniswap V3\nimport \"../interfaces/uniswap_V3/swap/ISwapRouter02.sol\";\n//AAVE interfaces\nimport \"../interfaces/IPool.sol\";\nimport \"../interfaces/IPoolDataProvider.sol\";\n//master contract interface\nimport \"../interfaces/IMasterNode.sol\";\n\ncontract Node is CCIPReceiver, OwnerIsCreator, UtilsNode {\n    using SafeERC20 for IERC20;\n\n    error NotEnoughBalance(uint256 currentBalance, uint256 calculatedFees); // Used to make sure contract has enough balance to cover the fees.\n\n    event WarpAssets(\n        uint64 indexed detinationCCIPid,\n        address indexed destinationNodeAddress,\n        uint256 indexed amount\n    );\n    event WarpCompletedNodeReady(uint8 indexed commandResmueOperations);\n    event DepositAssets(\n        address indexed userAddress,\n        uint256 indexed amountUsdc,\n        uint256 indexed amountAwrp\n    );\n\n    uint256 public maxVaultAmount = 2000000 * 10 ** 6;\n    bool public isNodeActive;\n    address[] public allowedNodes;\n\n    uint64 public immutable MASTER_CONTRACT_CHAIN_ID;\n    address public immutable MASTER_CONTRACT_ADDRESS;\n    uint64 public immutable NODE_CONTRACT_CHAIN_ID;\n    address public immutable POOL_ADDRESS_PROVIDER_ADDRESS;\n    address public immutable POOL_DATA_PROVIDER_ADDRESS;\n    address public immutable USDC_ADDRESS;\n    address public immutable aUSDC_ADDRESS;\n    address public immutable WETH_ADDRESS;\n    uint16 public immutable uinswapFeePool;\n\n    IERC20 private s_linkToken;\n    ISwapRouter02 public iSwapRouter02;\n\n    uint256 public aWrpTotalSupplyNodeSide;\n\n    mapping(address => uint256) public avaliableForRefund;\n\n    constructor(\n        address _router,\n        address _link,\n        address _USDC_ADDRESS,\n        address _aUSDC_ADDRESS,\n        address _WETH_ADDRESS,\n        uint64 _MASTER_CONTRACT_CHAIN_ID,\n        address _MASTER_CONTRACT_ADDRESS,\n        uint64 _NODE_CONTRACT_CHAIN_ID,\n        address _POOL_ADDRESS_PROVIDER_ADDRESS,\n        address _POOL_DATA_PROVIDER_ADDRESS,\n        address _UNISWAP_V3_ROUTER02,\n        bool _isNodeActive,\n        uint16 _uinswapFeePool\n    ) CCIPReceiver(_router) {\n        s_linkToken = IERC20(_link);\n        USDC_ADDRESS = _USDC_ADDRESS;\n        aUSDC_ADDRESS = _aUSDC_ADDRESS;\n        WETH_ADDRESS = _WETH_ADDRESS;\n        MASTER_CONTRACT_CHAIN_ID = _MASTER_CONTRACT_CHAIN_ID;\n        MASTER_CONTRACT_ADDRESS = _MASTER_CONTRACT_ADDRESS;\n        NODE_CONTRACT_CHAIN_ID = _NODE_CONTRACT_CHAIN_ID;\n        POOL_ADDRESS_PROVIDER_ADDRESS = _POOL_ADDRESS_PROVIDER_ADDRESS;\n        POOL_DATA_PROVIDER_ADDRESS = _POOL_DATA_PROVIDER_ADDRESS;\n\n        // uniswap interfaces\n        iSwapRouter02 = ISwapRouter02(_UNISWAP_V3_ROUTER02);\n\n        isNodeActive = _isNodeActive;\n        uinswapFeePool = _uinswapFeePool;\n    }\n\n    // set Allowed Nodes, can only be called once!\n    function setAllowedNodes(\n        address[] memory _allowedNodes\n    ) external onlyOwner {\n        require(_allowedNodes.length > 0, \"You sent an empty array\");\n        require(allowedNodes.length == 0, \"allowedNodes must be empty\");\n        allowedNodes = _allowedNodes;\n    }\n\n    // Internal function to check if an address is in the allowedNodes array\n    function isAllowedAddress(\n        address _nodeOrMaster\n    ) internal view returns (bool) {\n        for (uint16 i = 0; i < allowedNodes.length; i++) {\n            if (allowedNodes[i] == _nodeOrMaster) {\n                return true;\n            }\n        }\n        if (_nodeOrMaster == MASTER_CONTRACT_ADDRESS) {\n            return true;\n        }\n        return false;\n    }\n\n    // Modifier to check if msg.sender is in the allowedNodes array\n    modifier onlyAllowedAddresses(address senderAddress) {\n        require(\n            isAllowedAddress(senderAddress),\n            \"Caller is not an allowed node\"\n        );\n        _;\n    }\n\n    modifier masterAndNodeInSameChain() {\n        require(\n            NODE_CONTRACT_CHAIN_ID == MASTER_CONTRACT_CHAIN_ID,\n            \"Require master and node in same chain\"\n        );\n        _;\n    }\n\n    /////////////////////////////////////////////////////////////////////////\n    ////////////////////////////////////////////////////////////////////////\n    //////////////////////////  RECEIVING MESSAGES  ///////////////////////\n    //////////////////////////////////////////////////////////////////////\n    /////////////////////////////////////////////////////////////////////\n\n    /////////////////////////////////////////////////////////////////////////\n    //////////////////////////  HANDLE WITHDRAW  ///////////////////////////\n    ///////////////////////////  COMMAND = 0  /////////////////////////////\n    //////////////////////////////////////////////////////////////////////\n\n    function _withdraw(Client.Any2EVMMessage memory _any2EvmMessage) internal {\n        (, address transferToUser, uint256 shares) = abi.decode(\n            _any2EvmMessage.data,\n            (uint8, address, uint256)\n        );\n\n        address pool = _getPool(POOL_ADDRESS_PROVIDER_ADDRESS);\n        uint256 totalAusdc = IERC20(aUSDC_ADDRESS).balanceOf(address(this));\n\n        uint256 amount = ((shares * 10 ** 18) * totalAusdc) /\n            aWrpTotalSupplyNodeSide;\n\n        aWrpTotalSupplyNodeSide -= shares;\n\n        if (!isNodeActive) {\n            avaliableForRefund[transferToUser] += shares;\n        } else {\n            IERC20(aUSDC_ADDRESS).approve(pool, amount / 10 ** 18);\n            IPool(pool).withdraw(\n                USDC_ADDRESS,\n                amount / 10 ** 18,\n                transferToUser\n            );\n        }\n    }\n\n    /////////////////////  WITHDRAW MASTER AND NODE IN SAME CHAIN  ///////////////////////\n\n    function withdrawFromSameChain(\n        address transferToUser,\n        uint256 shares\n    ) external masterAndNodeInSameChain {\n        require(\n            msg.sender == MASTER_CONTRACT_ADDRESS,\n            \"Only Master Contract allowed\"\n        );\n\n        address pool = _getPool(POOL_ADDRESS_PROVIDER_ADDRESS);\n        uint256 totalAusdc = IERC20(aUSDC_ADDRESS).balanceOf(address(this));\n\n        uint256 amount = ((shares * 10 ** 18) * totalAusdc) /\n            aWrpTotalSupplyNodeSide;\n\n        aWrpTotalSupplyNodeSide -= shares;\n\n        if (!isNodeActive) {\n            avaliableForRefund[transferToUser] += shares;\n        } else {\n            IERC20(aUSDC_ADDRESS).approve(pool, amount / 10 ** 18);\n            IPool(pool).withdraw(\n                USDC_ADDRESS,\n                amount / 10 ** 18,\n                transferToUser\n            );\n        }\n    }\n\n    /////////////////////////////////////////////////////////////////////////\n    ////////////////////////  HANDLE WARP ASSETS  //////////////////////////\n    ///////////////////////////  COMMAND = 1  //////////////////////////////\n    ///////////////////////////////////////////////////////////////////////\n\n    function _warpAssets(\n        Client.Any2EVMMessage memory _any2EvmMessage\n    ) internal {\n        (, uint64 _destinationChainSelector, address _receiver) = abi.decode(\n            _any2EvmMessage.data,\n            (uint8, uint64, address)\n        );\n        uint256 usdcwithdrawn = _assetsAllocationWithdraw(\n            POOL_ADDRESS_PROVIDER_ADDRESS,\n            aUSDC_ADDRESS,\n            USDC_ADDRESS\n        );\n\n        uint8 commandAWRPSupply = 2;\n        bytes memory data = abi.encode(\n            commandAWRPSupply,\n            aWrpTotalSupplyNodeSide\n        );\n\n        isNodeActive = false;\n        _sendMessage(\n            _destinationChainSelector,\n            _receiver,\n            data,\n            USDC_ADDRESS,\n            usdcwithdrawn,\n            true\n        );\n\n        emit WarpAssets(_destinationChainSelector, _receiver, usdcwithdrawn);\n    }\n\n    /////////////  WARP ASSETS, MASTER AND NODE IN SAME CHAIN  //////////////\n    function warpAssetsFromSameChain(\n        uint64 _destinationChainSelector,\n        address _receiver\n    ) external masterAndNodeInSameChain {\n        require(\n            msg.sender == MASTER_CONTRACT_ADDRESS,\n            \"Only Master Contract allowed\"\n        );\n        uint256 usdcwithdrawn = _assetsAllocationWithdraw(\n            POOL_ADDRESS_PROVIDER_ADDRESS,\n            aUSDC_ADDRESS,\n            USDC_ADDRESS\n        );\n\n        uint8 commandAWRPSupply = 2;\n        bytes memory data = abi.encode(\n            commandAWRPSupply,\n            aWrpTotalSupplyNodeSide\n        );\n\n        isNodeActive = false;\n        _sendMessage(\n            _destinationChainSelector,\n            _receiver,\n            data,\n            USDC_ADDRESS,\n            usdcwithdrawn,\n            true\n        );\n\n        emit WarpAssets(_destinationChainSelector, _receiver, usdcwithdrawn);\n    }\n\n    /////////////// ONLY FOR TESTING ////////////////////////\n    function warpAssetsTester(\n        uint64 _destinationChainSelector,\n        address _receiver\n    ) public {\n        uint256 usdcwithdrawn = _assetsAllocationWithdraw(\n            POOL_ADDRESS_PROVIDER_ADDRESS,\n            aUSDC_ADDRESS,\n            USDC_ADDRESS\n        );\n\n        uint8 commandAWRPSupply = 2;\n        bytes memory data = abi.encode(\n            commandAWRPSupply,\n            aWrpTotalSupplyNodeSide\n        );\n\n        isNodeActive = false;\n        _sendMessage(\n            _destinationChainSelector,\n            _receiver,\n            data,\n            USDC_ADDRESS,\n            usdcwithdrawn,\n            true\n        );\n    }\n\n    /////////////////////////////////////////////////////////////////////////\n    /////////////////////  HANDLE RESUME OPERATIONS  ///////////////////////\n    ///////////////////////////  COMMAND = 2  //////////////////////////////\n    ///////////////////////////////////////////////////////////////////////\n\n    function _allocateAssetsAndSetAWRPSupply(\n        Client.Any2EVMMessage memory _any2EvmMessage\n    ) internal {\n        (, uint256 _aWrpSupplyFromOldNode) = abi.decode(\n            _any2EvmMessage.data,\n            (uint8, uint256)\n        );\n\n        // dont need this here because _assetAllocationDeposit is called in _sendMessage\n        // I left this line commented and not deleted to understand why is not called here\n        //_assetsAllocationDeposit(POOL_ADDRESS_PROVIDER_ADDRESS, USDC_ADDRESS);\n\n        aWrpTotalSupplyNodeSide = _aWrpSupplyFromOldNode;\n\n        uint8 commandResumeOperations = 1;\n        isNodeActive = true;\n\n        bytes memory data = abi.encode(commandResumeOperations);\n\n        if (NODE_CONTRACT_CHAIN_ID == MASTER_CONTRACT_CHAIN_ID) {\n            // here is needed cuz no message is sent\n            _assetsAllocationDeposit(\n                POOL_ADDRESS_PROVIDER_ADDRESS,\n                USDC_ADDRESS\n            );\n            IMasterNode(MASTER_CONTRACT_ADDRESS)\n                ._resmumeOperationsFromSameChain();\n        } else {\n            _sendMessage(\n                MASTER_CONTRACT_CHAIN_ID,\n                MASTER_CONTRACT_ADDRESS,\n                data,\n                address(0),\n                0,\n                true\n            );\n        }\n\n        emit WarpCompletedNodeReady(commandResumeOperations);\n    }\n    //////////////////////////////////////////////////////////////////////////\n    /////////////////////////////////////////////////////////////////////////\n    ////////////////////////  INCOMING MESAGE HANDLER  /////////////////////\n    /////////////////  THIS FUNC IS CALLED BY CHAINLINK  //////////////////\n    //////////////////////////////////////////////////////////////////////\n    /////////////////////////////////////////////////////////////////////\n\n    function _ccipReceive(\n        Client.Any2EVMMessage memory _any2EvmMessage\n    )\n        internal\n        override\n        onlyAllowedAddresses(abi.decode(_any2EvmMessage.sender, (address)))\n    {\n        uint8 command = _internalCommandRouter(_any2EvmMessage);\n\n        if (command == 0) {\n            _withdraw(_any2EvmMessage);\n        } else if (command == 1) {\n            _warpAssets(_any2EvmMessage);\n        } else if (command == 2) {\n            _allocateAssetsAndSetAWRPSupply(_any2EvmMessage);\n        } else {\n            revert(\"invalid command\");\n        }\n    }\n    /////////////////////////////////////////////////////////////////////////\n    ////////////////////////////////////////////////////////////////////////\n    ///////////////////////  OUTGOING MESSAGES HANDLER  ///////////////////\n    //////////////////////////////////////////////////////////////////////\n    /////////////////////////////////////////////////////////////////////\n\n    function _sendMessage(\n        uint64 _destinationChainSelector,\n        address _receiver,\n        bytes memory _data,\n        address _token,\n        uint256 _amount,\n        bool isPayingNative\n    ) internal onlyAllowedAddresses(_receiver) returns (bytes32 messageId) {\n        // Create an EVM2AnyMessage struct in memory with necessary information for sending a cross-chain message\n        // address(s_linkToken) means fees are paid in LINK\n        uint256 newAmount;\n        if (_amount > 0) {\n            newAmount = _amount;\n        }\n\n        address tokenFee;\n        if (isPayingNative) {\n            tokenFee = address(0);\n        } else {\n            tokenFee = address(s_linkToken);\n        }\n\n        Client.EVM2AnyMessage memory evm2AnyMessage = _buildCCIPMessage(\n            _receiver,\n            _data,\n            _token,\n            newAmount,\n            tokenFee\n        );\n\n        // Initialize a router client instance to interact with cross-chain router\n        IRouterClient routerCCIP = IRouterClient(this.getRouter());\n\n        // Get the fee required to send the CCIP message\n        uint256 fees = routerCCIP.getFee(\n            _destinationChainSelector,\n            evm2AnyMessage\n        );\n\n        // When an incoming message requires to pay the fees on native token\n        // This will sell some USDC from the vault to get the eth needed to pay the fees\n        uint256 amountInUsdc;\n        if (isPayingNative) {\n            amountInUsdc = _getNativeFees(fees);\n            if (newAmount > 0) {\n                evm2AnyMessage = _buildCCIPMessage(\n                    _receiver,\n                    _data,\n                    _token,\n                    newAmount - amountInUsdc,\n                    tokenFee\n                );\n            }\n        }\n\n        if (isPayingNative) {\n            if (fees > address(this).balance) {\n                revert NotEnoughBalance(address(this).balance, fees);\n            }\n        } else {\n            require(\n                s_linkToken.transferFrom(msg.sender, address(this), fees),\n                \"Not provided Link for fees\"\n            );\n            if (fees > s_linkToken.balanceOf(address(this)))\n                revert NotEnoughBalance(\n                    s_linkToken.balanceOf(address(this)),\n                    fees\n                );\n            s_linkToken.approve(address(routerCCIP), fees);\n        }\n\n        // approve the Router to spend tokens on contract's behalf. It will spend the amount of the given token\n        if (_token != address(0)) {\n            IERC20(_token).approve(address(routerCCIP), newAmount);\n        }\n\n        // Send the message through the router and store the returned message ID\n        if (isPayingNative) {\n            messageId = routerCCIP.ccipSend{value: fees}(\n                _destinationChainSelector,\n                evm2AnyMessage\n            );\n        } else {\n            messageId = routerCCIP.ccipSend(\n                _destinationChainSelector,\n                evm2AnyMessage\n            );\n        }\n\n        uint256 usdcBalance = IERC20(USDC_ADDRESS).balanceOf(address(this));\n        if (usdcBalance > 0) {\n            _assetsAllocationDeposit(\n                POOL_ADDRESS_PROVIDER_ADDRESS,\n                USDC_ADDRESS\n            );\n        }\n\n        // Return the message ID\n        return messageId;\n    }\n\n    function _buildCCIPMessage(\n        address _receiver,\n        bytes memory _data,\n        address _token,\n        uint256 _amount,\n        address _feeTokenAddress\n    ) private returns (Client.EVM2AnyMessage memory) {\n        // Set the token amounts\n        Client.EVMTokenAmount[] memory tokenAmounts;\n\n        if (_token == address(0) && _amount == 0) {\n            tokenAmounts = new Client.EVMTokenAmount[](0);\n        } else {\n            tokenAmounts = new Client.EVMTokenAmount[](1);\n            tokenAmounts[0] = Client.EVMTokenAmount({\n                token: _token,\n                amount: _amount\n            });\n        }\n        // Create an EVM2AnyMessage struct in memory with necessary information for sending a cross-chain message\n        return\n            Client.EVM2AnyMessage({\n                receiver: abi.encode(_receiver), // ABI-encoded receiver address\n                data: _data, // ABI-encoded string\n                tokenAmounts: tokenAmounts, // The amount and type of token being transferred\n                extraArgs: Client._argsToBytes(\n                    // Additional arguments, setting gas limit\n                    Client.EVMExtraArgsV1({gasLimit: 2_000_000})\n                ),\n                // Set the feeToken to a feeTokenAddress, indicating specific asset will be used for fees\n                feeToken: _feeTokenAddress\n            });\n    }\n\n    /////////////////////////////////////////////////////////////////////////\n    /////////////////////////////////////////////////////////////////////////\n    //////////////////////////  SENDING MESSAGES  //////////////////////////\n    ///////////////////////////////////////////////////////////////////////\n    //////////////////////////////////////////////////////////////////////\n\n    /////////////////////////////////////////////////////////////////////////\n    ///////////////////////////////   DEPOSIT   ////////////////////////////\n    ///////////////////////////////////////////////////////////////////////\n\n    function deposit(uint256 amount) external {\n        require(\n            IERC20(USDC_ADDRESS).transferFrom(\n                msg.sender,\n                address(this),\n                amount\n            ),\n            \"Failed to transfer amount\"\n        );\n        require(\n            isNodeActive,\n            \"Asets are Warping Now, deposits on new blockchain\"\n        );\n\n        uint256 totalAusdcNode = IERC20(aUSDC_ADDRESS).balanceOf(address(this));\n        require(\n            totalAusdcNode + amount < maxVaultAmount,\n            \"Node furfilled no more deposits allowed\"\n        );\n        uint256 shares;\n        if (aWrpTotalSupplyNodeSide == 0) {\n            shares = amount * 10 ** 12;\n        } else {\n            shares = (amount * aWrpTotalSupplyNodeSide) / totalAusdcNode;\n        }\n\n        aWrpTotalSupplyNodeSide += shares;\n\n        uint8 command = 0;\n        bytes memory data = abi.encode(command, msg.sender, shares);\n\n        address pool = _getPool(POOL_ADDRESS_PROVIDER_ADDRESS);\n        IERC20(USDC_ADDRESS).approve(pool, amount);\n        IPool(pool).deposit(USDC_ADDRESS, amount, address(this), 0);\n\n        if (NODE_CONTRACT_CHAIN_ID == MASTER_CONTRACT_CHAIN_ID) {\n            IMasterNode(MASTER_CONTRACT_ADDRESS).aWarpTokenMinterFromSameChain(\n                msg.sender,\n                shares\n            );\n        } else {\n            _sendMessage(\n                MASTER_CONTRACT_CHAIN_ID,\n                MASTER_CONTRACT_ADDRESS,\n                data,\n                address(0),\n                0,\n                false\n            );\n        }\n\n        emit DepositAssets(msg.sender, amount, shares);\n    }\n\n    /////////////////////////////////////////////////////////////////////////\n    ///////////////   RECOVER aWRP FROM A FAILED WITHDRAW   ////////////////\n    ///////////////////////////////////////////////////////////////////////\n\n    function recoverAWRPFromFailedWithdraw() external {\n        require(avaliableForRefund[msg.sender] > 0, \"No aWRP tokens to refund\");\n        uint256 sharesToRefund = avaliableForRefund[msg.sender];\n\n        uint8 commandRefundAWRP = 0; // Same command than deposit\n        bytes memory data = abi.encode(\n            commandRefundAWRP,\n            msg.sender,\n            sharesToRefund\n        );\n\n        if (NODE_CONTRACT_CHAIN_ID == MASTER_CONTRACT_CHAIN_ID) {\n            IMasterNode(MASTER_CONTRACT_ADDRESS).aWarpTokenMinterFromSameChain(\n                msg.sender,\n                sharesToRefund\n            );\n        } else {\n            _sendMessage(\n                MASTER_CONTRACT_CHAIN_ID,\n                MASTER_CONTRACT_ADDRESS,\n                data,\n                address(0),\n                0,\n                false\n            );\n        }\n    }\n\n    /////////////////////////////////////////////////////////////////////////\n    /////////////////////   SEND DATA NODE TO MASTER   /////////////////////\n    ///////////////////////////////////////////////////////////////////////\n\n    function sendAaveData() external {\n        (\n            ,\n            ,\n            uint256 totalAToken,\n            ,\n            uint256 totalVariableDebt,\n            uint256 liquidityRate,\n            ,\n            ,\n            ,\n            ,\n            ,\n\n        ) = IPoolDataProvider(POOL_DATA_PROVIDER_ADDRESS).getReserveData(\n                USDC_ADDRESS\n            );\n\n        uint256 totalAusdcNode = IERC20(aUSDC_ADDRESS).balanceOf(address(this));\n\n        uint8 commandSendAaveData = 2;\n        bytes memory data = abi.encode(\n            commandSendAaveData,\n            totalAToken,\n            totalVariableDebt,\n            totalVariableDebt,\n            totalAusdcNode\n        );\n        if (NODE_CONTRACT_CHAIN_ID == MASTER_CONTRACT_CHAIN_ID) {\n            IMasterNode(MASTER_CONTRACT_ADDRESS).nodeAaveFeedFromSameChain(\n                totalAToken,\n                totalVariableDebt,\n                totalVariableDebt,\n                totalAusdcNode\n            );\n        } else {\n            _sendMessage(\n                MASTER_CONTRACT_CHAIN_ID,\n                MASTER_CONTRACT_ADDRESS,\n                data,\n                address(0),\n                0,\n                false\n            );\n        }\n    }\n\n    /// @notice Fallback function to allow the contract to receive Ether.\n    /// @dev This function has no function body, making it a default function for receiving Ether.\n    /// It is automatically called when Ether is sent to the contract without any data.\n    receive() external payable {}\n\n    /////////////////////////////////////////////////////////////////////////\n    /////////////////////////////   UTILS   ////////////////////////////////\n    ///////////////////////////////////////////////////////////////////////\n\n    function _getNativeFees(uint256 fees) internal returns (uint256) {\n        // withdraw the usdc from aave for paying the fees\n        uint256 ausdcBalance = IERC20(aUSDC_ADDRESS).balanceOf(address(this));\n        if (ausdcBalance > 0) {\n            _assetsAllocationWithdraw(\n                POOL_ADDRESS_PROVIDER_ADDRESS,\n                aUSDC_ADDRESS,\n                USDC_ADDRESS\n            );\n        }\n\n        // Approve the router to spend USDC.\n        uint256 usdcBalance = IERC20(USDC_ADDRESS).balanceOf(address(this));\n        IERC20(USDC_ADDRESS).approve(address(iSwapRouter02), usdcBalance);\n\n        // Set up the parameters for the swap.\n        ISwapRouter02.ExactOutputSingleParams memory params = ISwapRouter02\n            .ExactOutputSingleParams({\n                tokenIn: USDC_ADDRESS,\n                tokenOut: WETH_ADDRESS,\n                fee: uinswapFeePool,\n                recipient: address(this),\n                amountOut: fees,\n                amountInMaximum: usdcBalance, // for testing dont mind slipperage\n                sqrtPriceLimitX96: 0\n            });\n\n        // Execute the swap.\n        uint256 amountIn = iSwapRouter02.exactOutputSingle(params);\n        IWETH9(WETH_ADDRESS).withdraw(fees);\n        return amountIn;\n    }\n\n    //frontend stuff, no impcat in contract\n    function calculateSharesValue(\n        uint256 shares\n    ) external view returns (uint256) {\n        uint256 totalAusdc = IERC20(aUSDC_ADDRESS).balanceOf(address(this));\n\n        uint256 amount = ((shares * 10 ** 18) * totalAusdc) /\n            aWrpTotalSupplyNodeSide;\n\n        return amount / 10 ** 18;\n    }\n}\n",
  "sourcePath": "contracts/Node.sol",
  "type": "contract"
}