{
  "abi": [
    {
      "inputs": [
        {
          "internalType": "address",
          "name": "_router",
          "type": "address"
        },
        {
          "internalType": "address",
          "name": "_link",
          "type": "address"
        },
        {
          "internalType": "address",
          "name": "_USDC_ADDRESS",
          "type": "address"
        },
        {
          "internalType": "address",
          "name": "_aUSDC_ADDRESS",
          "type": "address"
        },
        {
          "internalType": "address",
          "name": "_WETH_ADDRESS",
          "type": "address"
        },
        {
          "internalType": "uint64",
          "name": "_MASTER_CONTRACT_CHAIN_ID",
          "type": "uint64"
        },
        {
          "internalType": "address",
          "name": "_MASTER_CONTRACT_ADDRESS",
          "type": "address"
        },
        {
          "internalType": "uint64",
          "name": "_NODE_CONTRACT_CHAIN_ID",
          "type": "uint64"
        },
        {
          "internalType": "address",
          "name": "_POOL_ADDRESS_PROVIDER_ADDRESS",
          "type": "address"
        },
        {
          "internalType": "address",
          "name": "_POOL_DATA_PROVIDER_ADDRESS",
          "type": "address"
        },
        {
          "internalType": "address",
          "name": "_UNISWAP_V3_ROUTER02",
          "type": "address"
        },
        {
          "internalType": "bool",
          "name": "_isNodeActive",
          "type": "bool"
        }
      ],
      "stateMutability": "nonpayable",
      "type": "constructor"
    },
    {
      "inputs": [
        {
          "internalType": "uint64",
          "name": "destinationChainSelector",
          "type": "uint64"
        }
      ],
      "name": "DestinationChainNotAllowed",
      "type": "error"
    },
    {
      "inputs": [
        {
          "internalType": "address",
          "name": "owner",
          "type": "address"
        },
        {
          "internalType": "address",
          "name": "target",
          "type": "address"
        },
        {
          "internalType": "uint256",
          "name": "value",
          "type": "uint256"
        }
      ],
      "name": "FailedToWithdrawEth",
      "type": "error"
    },
    {
      "inputs": [
        {
          "internalType": "address",
          "name": "router",
          "type": "address"
        }
      ],
      "name": "InvalidRouter",
      "type": "error"
    },
    {
      "inputs": [
        {
          "internalType": "uint256",
          "name": "currentBalance",
          "type": "uint256"
        },
        {
          "internalType": "uint256",
          "name": "calculatedFees",
          "type": "uint256"
        }
      ],
      "name": "NotEnoughBalance",
      "type": "error"
    },
    {
      "inputs": [],
      "name": "NothingToWithdraw",
      "type": "error"
    },
    {
      "inputs": [
        {
          "internalType": "address",
          "name": "sender",
          "type": "address"
        }
      ],
      "name": "SenderNotAllowed",
      "type": "error"
    },
    {
      "inputs": [
        {
          "internalType": "uint64",
          "name": "sourceChainSelector",
          "type": "uint64"
        }
      ],
      "name": "SourceChainNotAllowed",
      "type": "error"
    },
    {
      "anonymous": false,
      "inputs": [
        {
          "indexed": true,
          "internalType": "address",
          "name": "from",
          "type": "address"
        },
        {
          "indexed": true,
          "internalType": "address",
          "name": "to",
          "type": "address"
        }
      ],
      "name": "OwnershipTransferRequested",
      "type": "event"
    },
    {
      "anonymous": false,
      "inputs": [
        {
          "indexed": true,
          "internalType": "address",
          "name": "from",
          "type": "address"
        },
        {
          "indexed": true,
          "internalType": "address",
          "name": "to",
          "type": "address"
        }
      ],
      "name": "OwnershipTransferred",
      "type": "event"
    },
    {
      "inputs": [],
      "name": "MASTER_CONTRACT_ADDRESS",
      "outputs": [
        {
          "internalType": "address",
          "name": "",
          "type": "address"
        }
      ],
      "stateMutability": "view",
      "type": "function"
    },
    {
      "inputs": [],
      "name": "MASTER_CONTRACT_CHAIN_ID",
      "outputs": [
        {
          "internalType": "uint64",
          "name": "",
          "type": "uint64"
        }
      ],
      "stateMutability": "view",
      "type": "function"
    },
    {
      "inputs": [],
      "name": "NODE_CONTRACT_CHAIN_ID",
      "outputs": [
        {
          "internalType": "uint64",
          "name": "",
          "type": "uint64"
        }
      ],
      "stateMutability": "view",
      "type": "function"
    },
    {
      "inputs": [],
      "name": "POOL_ADDRESS_PROVIDER_ADDRESS",
      "outputs": [
        {
          "internalType": "address",
          "name": "",
          "type": "address"
        }
      ],
      "stateMutability": "view",
      "type": "function"
    },
    {
      "inputs": [],
      "name": "POOL_DATA_PROVIDER_ADDRESS",
      "outputs": [
        {
          "internalType": "address",
          "name": "",
          "type": "address"
        }
      ],
      "stateMutability": "view",
      "type": "function"
    },
    {
      "inputs": [],
      "name": "USDC_ADDRESS",
      "outputs": [
        {
          "internalType": "address",
          "name": "",
          "type": "address"
        }
      ],
      "stateMutability": "view",
      "type": "function"
    },
    {
      "inputs": [],
      "name": "WETH_ADDRESS",
      "outputs": [
        {
          "internalType": "address",
          "name": "",
          "type": "address"
        }
      ],
      "stateMutability": "view",
      "type": "function"
    },
    {
      "inputs": [],
      "name": "_destinationChainSelectorTESTER",
      "outputs": [
        {
          "internalType": "uint64",
          "name": "",
          "type": "uint64"
        }
      ],
      "stateMutability": "view",
      "type": "function"
    },
    {
      "inputs": [],
      "name": "_receiverTESTER",
      "outputs": [
        {
          "internalType": "address",
          "name": "",
          "type": "address"
        }
      ],
      "stateMutability": "view",
      "type": "function"
    },
    {
      "inputs": [],
      "name": "aUSDC_ADDRESS",
      "outputs": [
        {
          "internalType": "address",
          "name": "",
          "type": "address"
        }
      ],
      "stateMutability": "view",
      "type": "function"
    },
    {
      "inputs": [],
      "name": "aWrpTotalSupplyNodeSide",
      "outputs": [
        {
          "internalType": "uint256",
          "name": "",
          "type": "uint256"
        }
      ],
      "stateMutability": "view",
      "type": "function"
    },
    {
      "inputs": [],
      "name": "acceptOwnership",
      "outputs": [],
      "stateMutability": "nonpayable",
      "type": "function"
    },
    {
      "inputs": [
        {
          "internalType": "uint256",
          "name": "",
          "type": "uint256"
        }
      ],
      "name": "allowedNodes",
      "outputs": [
        {
          "internalType": "address",
          "name": "",
          "type": "address"
        }
      ],
      "stateMutability": "view",
      "type": "function"
    },
    {
      "inputs": [
        {
          "internalType": "address",
          "name": "",
          "type": "address"
        }
      ],
      "name": "avaliableForRefund",
      "outputs": [
        {
          "internalType": "uint256",
          "name": "",
          "type": "uint256"
        }
      ],
      "stateMutability": "view",
      "type": "function"
    },
    {
      "inputs": [
        {
          "internalType": "uint256",
          "name": "shares",
          "type": "uint256"
        }
      ],
      "name": "calculateSharesValue",
      "outputs": [
        {
          "internalType": "uint256",
          "name": "",
          "type": "uint256"
        }
      ],
      "stateMutability": "view",
      "type": "function"
    },
    {
      "inputs": [
        {
          "components": [
            {
              "internalType": "bytes32",
              "name": "messageId",
              "type": "bytes32"
            },
            {
              "internalType": "uint64",
              "name": "sourceChainSelector",
              "type": "uint64"
            },
            {
              "internalType": "bytes",
              "name": "sender",
              "type": "bytes"
            },
            {
              "internalType": "bytes",
              "name": "data",
              "type": "bytes"
            },
            {
              "components": [
                {
                  "internalType": "address",
                  "name": "token",
                  "type": "address"
                },
                {
                  "internalType": "uint256",
                  "name": "amount",
                  "type": "uint256"
                }
              ],
              "internalType": "struct Client.EVMTokenAmount[]",
              "name": "destTokenAmounts",
              "type": "tuple[]"
            }
          ],
          "internalType": "struct Client.Any2EVMMessage",
          "name": "message",
          "type": "tuple"
        }
      ],
      "name": "ccipReceive",
      "outputs": [],
      "stateMutability": "nonpayable",
      "type": "function"
    },
    {
      "inputs": [],
      "name": "commandTESTER",
      "outputs": [
        {
          "internalType": "uint8",
          "name": "",
          "type": "uint8"
        }
      ],
      "stateMutability": "view",
      "type": "function"
    },
    {
      "inputs": [
        {
          "internalType": "uint256",
          "name": "amount",
          "type": "uint256"
        }
      ],
      "name": "deposit",
      "outputs": [],
      "stateMutability": "nonpayable",
      "type": "function"
    },
    {
      "inputs": [
        {
          "internalType": "address",
          "name": "poolDAtaProvider",
          "type": "address"
        },
        {
          "internalType": "address",
          "name": "usdcAddress",
          "type": "address"
        }
      ],
      "name": "getAaveSupplyRate",
      "outputs": [
        {
          "internalType": "uint256",
          "name": "",
          "type": "uint256"
        }
      ],
      "stateMutability": "view",
      "type": "function"
    },
    {
      "inputs": [
        {
          "internalType": "uint64",
          "name": "destinationCCIPid",
          "type": "uint64"
        },
        {
          "internalType": "address",
          "name": "receiver",
          "type": "address"
        },
        {
          "internalType": "address",
          "name": "s_linkTokenAddress",
          "type": "address"
        },
        {
          "internalType": "address",
          "name": "routerAddress",
          "type": "address"
        },
        {
          "internalType": "bytes",
          "name": "_data",
          "type": "bytes"
        }
      ],
      "name": "getLinkFees",
      "outputs": [
        {
          "internalType": "uint256",
          "name": "",
          "type": "uint256"
        }
      ],
      "stateMutability": "view",
      "type": "function"
    },
    {
      "inputs": [],
      "name": "getRouter",
      "outputs": [
        {
          "internalType": "address",
          "name": "",
          "type": "address"
        }
      ],
      "stateMutability": "view",
      "type": "function"
    },
    {
      "inputs": [],
      "name": "iSwapRouter02",
      "outputs": [
        {
          "internalType": "contract ISwapRouter02",
          "name": "",
          "type": "address"
        }
      ],
      "stateMutability": "view",
      "type": "function"
    },
    {
      "inputs": [],
      "name": "isNodeActive",
      "outputs": [
        {
          "internalType": "bool",
          "name": "",
          "type": "bool"
        }
      ],
      "stateMutability": "view",
      "type": "function"
    },
    {
      "inputs": [],
      "name": "owner",
      "outputs": [
        {
          "internalType": "address",
          "name": "",
          "type": "address"
        }
      ],
      "stateMutability": "view",
      "type": "function"
    },
    {
      "inputs": [],
      "name": "recoverAWRPFromFailedWithdraw",
      "outputs": [],
      "stateMutability": "nonpayable",
      "type": "function"
    },
    {
      "inputs": [],
      "name": "resumeOperations",
      "outputs": [
        {
          "internalType": "bool",
          "name": "",
          "type": "bool"
        }
      ],
      "stateMutability": "view",
      "type": "function"
    },
    {
      "inputs": [],
      "name": "sendAaveData",
      "outputs": [],
      "stateMutability": "nonpayable",
      "type": "function"
    },
    {
      "inputs": [
        {
          "internalType": "address[]",
          "name": "_allowedNodes",
          "type": "address[]"
        }
      ],
      "name": "setAllowedNodes",
      "outputs": [],
      "stateMutability": "nonpayable",
      "type": "function"
    },
    {
      "inputs": [
        {
          "internalType": "bytes4",
          "name": "interfaceId",
          "type": "bytes4"
        }
      ],
      "name": "supportsInterface",
      "outputs": [
        {
          "internalType": "bool",
          "name": "",
          "type": "bool"
        }
      ],
      "stateMutability": "pure",
      "type": "function"
    },
    {
      "inputs": [],
      "name": "tester_amount_in",
      "outputs": [
        {
          "internalType": "uint256",
          "name": "",
          "type": "uint256"
        }
      ],
      "stateMutability": "view",
      "type": "function"
    },
    {
      "inputs": [
        {
          "internalType": "address",
          "name": "to",
          "type": "address"
        }
      ],
      "name": "transferOwnership",
      "outputs": [],
      "stateMutability": "nonpayable",
      "type": "function"
    },
    {
      "inputs": [
        {
          "internalType": "uint64",
          "name": "_destinationChainSelector",
          "type": "uint64"
        },
        {
          "internalType": "address",
          "name": "_receiver",
          "type": "address"
        }
      ],
      "name": "warpAssets",
      "outputs": [],
      "stateMutability": "nonpayable",
      "type": "function"
    },
    {
      "inputs": [
        {
          "internalType": "address",
          "name": "transferToUser",
          "type": "address"
        },
        {
          "internalType": "uint256",
          "name": "shares",
          "type": "uint256"
        }
      ],
      "name": "withdrawFromSameChain",
      "outputs": [],
      "stateMutability": "nonpayable",
      "type": "function"
    },
    {
      "stateMutability": "payable",
      "type": "receive"
    }
  ],
  "bytecode": "6101a0346200041b576200409738819003601f8101601f191683016001600160401b038111848210176200042057839282916040528339610180928391810103126200041b57620000508162000436565b916200005f6020830162000436565b916200006e6040820162000436565b926200007d6060830162000436565b936200008c6080840162000436565b916200009b60a085016200044b565b96620000aa60c0860162000436565b96620000b960e087016200044b565b9861010099620000cb8b890162000436565b906101209a620000dd8c8b0162000436565b9361014099620000ef8b8d0162000436565b96610160809d01519a8b1515809c036200041b576001600160a01b0399808b161562000402576080523315620003bd578960018060a01b03199b338d6000541617600055168b60035416176003558c528c528c5260a05260c05260e0528a528852169060045416176004556001549060ff60a01b9060a01b169060ff60a01b19161760015560405193613c369586620004618739608051868181610b3801526113c0015260a05186818161035f01528181610529015281816108b301528181610bd5015281816113670152818161192201528181611acf0152611dd5015260c0518681816103b80152818161044301528181610582015281816105f90152818161090c0152818161096901528181610c2701528181611971015281816119d30152818161255f0152613646015260e05186818161038c01528181610556015281816108e001528181610bf80152818161194501526122a20152518581816107ef01528181610c530152818161156601528181611822015281816118cf01528181611e9401528181612094015281816122dc0152818161237a01528181612db101528181612fc901526132d70152518481816102fd015261129a0152518381816102cb01528181610679015281816106eb01528181610d9a015281816116a7015281816117db015281816118ae01528181611b8a01528181611bfb01528181611c4c01528181611e3101528181611e73015281816120520152818161233301528181612ab001528181612b2101528181612b6e01528181612d4c01528181612d9001528181612f87015261328501525182818161075901528181610b7d01528181610c90015281816111cd0152818161159f0152818161180101528181611b2f015281816120730152818161235901528181612a570152612fa8015251818181611c7101528181611d2901528181611d730152818161268601528181612b9301528181612c4b0152612c950152f35b60405162461bcd60e51b815260206004820152601860248201527f43616e6e6f7420736574206f776e657220746f207a65726f00000000000000006044820152606490fd5b6040516335fdcccd60e21b815260006004820152602490fd5b600080fd5b634e487b7160e01b600052604160045260246000fd5b51906001600160a01b03821682036200041b57565b51906001600160401b03821682036200041b5756fe608080604052600436101561001d575b50361561001b57600080fd5b005b600090813560e01c90816301ffc9a7146126b557508063040141e51461267057806315d03dfd14612647578063168010ed146125b45780631d34b4ff1461258e57806332d3ad5e1461254957806349cb88a21461252b5780634c8719f31461250d578063544b1709146123d25780635c292be51461230b57806367062580146122c65780637058a5e71461228257806379ba5097146121de57806385572ffb1461138b5780638cf19d19146113475780638da5cb5b146113205780638e7c2f43146112f65780639428b7f8146112c9578063982d1f181461128457806398b3c1f81461119a578063a19b24b514610f9a578063a63ca07614610f56578063a6e1d01614610f33578063af002db814610bac578063af25617314610b67578063b0f479a114610b22578063b6b55f25146106a8578063bb09d9b714610663578063c330a2ed146104b7578063d8bba68f146102a3578063dc3f1f5914610282578063e227a140146102495763f2fde38b0361000f5734610246576020366003190112610246576101aa61270a565b6101b2613bae565b6001600160a01b039081169033821461020157600180546001600160a01b031916831790558254167fed8889f560326eb138920d842192f0eb3dd22b4f139c87a2c57538e05bae12788380a380f35b60405162461bcd60e51b815260206004820152601760248201527f43616e6e6f74207472616e7366657220746f2073656c660000000000000000006044820152606490fd5b80fd5b5034610246576020366003190112610246576020906040906001600160a01b0361027161270a565b168152600683522054604051908152f35b5034610246578060031936011261024657602060ff60075416604051908152f35b50346102465780600319360112610246576040516335ea6a7560e01b81526001600160a01b037f000000000000000000000000000000000000000000000000000000000000000081166004830152829161018080826024817f000000000000000000000000000000000000000000000000000000000000000087165afa9283156104ac5784928592869561046c575b5050604051600260208201528360408201528260608201528460808201526080815261035d81612791565b7f00000000000000000000000000000000000000000000000000000000000000006001600160401b03808216907f000000000000000000000000000000000000000000000000000000000000000016146000146104365750507f000000000000000000000000000000000000000000000000000000000000000016803b15610432578492836064926040519687958694639637120f60e01b86526004860152602485015260448401525af180156104275761041757505080f35b610420906127c7565b6102465780f35b6040513d84823e3d90fd5b8480fd5b93509350505061046892507f000000000000000000000000000000000000000000000000000000000000000090613082565b5080f35b91945091506104909250803d106104a5575b6104888183612810565b8101906137e3565b50505050505093509350509190923880610332565b503d61047e565b6040513d86823e3d90fd5b5034610246578060031936011261024657338152600660205260408120541561061e573381526006602052806040812054604051610527816105198433602084016040909392919360608101946000825260018060a01b031660208201520152565b03601f198101835282612810565b7f00000000000000000000000000000000000000000000000000000000000000006001600160401b03808216907f000000000000000000000000000000000000000000000000000000000000000016146000146105ef5750507f00000000000000000000000000000000000000000000000000000000000000006001600160a01b0316803b156105eb5760405163011e0fa960e21b8152336004820152602481019290925282908290818381604481015b03925af180156104275761041757505080f35b5050fd5b90915061046892507f000000000000000000000000000000000000000000000000000000000000000090613082565b60405162461bcd60e51b815260206004820152601860248201527f4e6f206157525020746f6b656e7320746f20726566756e6400000000000000006044820152606490fd5b50346102465780600319360112610246576040517f00000000000000000000000000000000000000000000000000000000000000006001600160a01b03168152602090f35b50346102465760209081600319360112610246576040516323b872dd60e01b81523360048083019190915230602483015235604482018190526001600160a01b037f00000000000000000000000000000000000000000000000000000000000000008181169592939192918281606481898b5af1908115610a56578691610b05575b5015610ac05760ff60015460a01c1615610a61576040516370a0823160e01b81523060048201529382856024817f000000000000000000000000000000000000000000000000000000000000000088165afa948515610a56578695610a22575b506005549485610a03575064e8d4a51000968782029782890414821517156109ef576107b887988097612959565b600555604080516000868201908152336020820152808301899052819003918201815294906107ea9060600186612810565b6108137f00000000000000000000000000000000000000000000000000000000000000006138a1565b60405163095ea7b360e01b81526001600160a01b038216600482015260248101859052929091908190849060449082908d905af19283156109e45787936109b6575b50501691823b156109b25760405163e8eda9df60e01b81526001600160a01b039190911660048201526024810191909152306044820152600060648201529085908290608490829084905af19081156109a757859161098e575b50507f00000000000000000000000000000000000000000000000000000000000000006001600160401b03808216907f0000000000000000000000000000000000000000000000000000000000000000161460001461095e5750507f000000000000000000000000000000000000000000000000000000000000000016803b156105eb5760405163011e0fa960e21b8152336004820152602481019290925282908290818381604481016105d8565b9150915061046892507f000000000000000000000000000000000000000000000000000000000000000090613082565b610997906127c7565b6109a25783386108af565b505050fd5b6040513d87823e3d90fd5b8680fd5b816109d592903d106109dd575b6109cd8183612810565b810190612941565b503880610855565b503d6109c3565b6040513d8b823e3d90fd5b634e487b7160e01b87526011600452602487fd5b966107b8610a1b8899610a1689866128eb565b612914565b8097612959565b9094508281813d8311610a4f575b610a3a8183612810565b81010312610a4a5751933861078a565b600080fd5b503d610a30565b6040513d88823e3d90fd5b60405162461bcd60e51b815260048101839052603160248201527f4173657473206172652057617270696e67204e6f772c206465706f736974732060448201527037b7103732bb90313637b1b5b1b430b4b760791b6064820152608490fd5b60405162461bcd60e51b815260048101839052601960248201527f4661696c656420746f207472616e7366657220616d6f756e74000000000000006044820152606490fd5b610b1c9150833d85116109dd576109cd8183612810565b3861072a565b50346102465780600319360112610246576040517f00000000000000000000000000000000000000000000000000000000000000006001600160a01b03168152602090f35b50346102465780600319360112610246576040517f00000000000000000000000000000000000000000000000000000000000000006001600160a01b03168152602090f35b503461024657604036600319011261024657610bc661270a565b602435906001600160401b03807f000000000000000000000000000000000000000000000000000000000000000016907f00000000000000000000000000000000000000000000000000000000000000001603610ee0576001600160a01b037f000000000000000000000000000000000000000000000000000000000000000081163303610e9b57610c777f00000000000000000000000000000000000000000000000000000000000000006138a1565b6040516370a0823160e01b8152306004820152602093917f00000000000000000000000000000000000000000000000000000000000000008416918581602481865afa908115610e90578891610e63575b50670de0b6b3a764000090818802888104831489151715610e4f5790610ced916128eb565b610d0488610cfe6005548094612914565b92612934565b60055560015460a01c60ff16610d355750505050906006929116845252610d3060408320918254612959565b905580f35b60405163095ea7b360e01b81526001600160a01b038416600482015291900460248201819052959650949091879087908790604490829085905af1948515610e4257610de1968896610e25575b50604051631a4ca37b60e21b81526001600160a01b037f00000000000000000000000000000000000000000000000000000000000000008116600483015260248201949094529290941660448301529094859384929183906064820190565b0393165af18015610e1a57610df557505080f35b813d8311610e13575b610e088183612810565b81010312610a4a5780f35b503d610dfe565b6040513d85823e3d90fd5b610e3b90873d89116109dd576109cd8183612810565b5038610d82565b50604051903d90823e3d90fd5b634e487b7160e01b8a52601160045260248afd5b90508581813d8311610e89575b610e7a8183612810565b81010312610a4a575138610cc8565b503d610e70565b6040513d8a823e3d90fd5b60405162461bcd60e51b815260206004820152601c60248201527f4f6e6c79204d617374657220436f6e747261637420616c6c6f776564000000006044820152606490fd5b60405162461bcd60e51b815260206004820152602560248201527f52657175697265206d617374657220616e64206e6f646520696e2073616d652060448201526431b430b4b760d91b6064820152608490fd5b5034610246578060031936011261024657602060ff600954166040519015158152f35b50346102465760203660031901126102465760043590600254821015610246576020610f818361289e565b905460405160039290921b1c6001600160a01b03168152f35b503461024657602080600319360112611196576001600160401b03906004358281116111925736602382011215611192578060040135610fd981612887565b90610fe76040519283612810565b80825283820192836024809360051b8301019136831161118e5783879101915b838310611176575050505061101a613bae565b8151156111335760025491826110ef57519485116110dd576801000000000000000085116110dd57508360025580841061109d575b509060028452835b838110611062578480f35b82516001600160a01b03167f405787fa12a823e0f2b7631cc41b3ba8828b3321ca811111fa75cd3aa3bb5ace82015591810191600101611057565b837f405787fa12a823e0f2b7631cc41b3ba8828b3321ca811111fa75cd3aa3bb5ace91820191015b8181106110d2575061104f565b8581556001016110c5565b634e487b7160e01b8652604160045285fd5b60405162461bcd60e51b815260048101869052601a818401527f616c6c6f7765644e6f646573206d75737420626520656d7074790000000000006044820152606490fd5b8360176064926040519262461bcd60e51b845260048401528201527f596f752073656e7420616e20656d7074792061727261790000000000000000006044820152fd5b819061118184612736565b8152019101908690611007565b8880fd5b8380fd5b5080fd5b50346102465760209081600319360112610246576040516370a0823160e01b8152306004828101919091523583826024817f00000000000000000000000000000000000000000000000000000000000000006001600160a01b03165afa918215610e1a578392611255575b50670de0b6b3a7640000928382029180830485149015171561124157506112389161122f916128eb565b60055490612914565b04604051908152f35b634e487b7160e01b81526011600452602490fd5b9091508381813d831161127d575b61126d8183612810565b81010312610a4a57519038611205565b503d611263565b50346102465780600319360112610246576040517f00000000000000000000000000000000000000000000000000000000000000006001600160a01b03168152602090f35b503461024657806003193601126102465760075460405160489190911c6001600160a01b03168152602090f35b503461024657806003193601126102465760206001600160401b0360075460081c16604051908152f35b5034610246578060031936011261024657546040516001600160a01b039091168152602090f35b503461024657806003193601126102465760206040516001600160401b037f0000000000000000000000000000000000000000000000000000000000000000168152f35b50346102465760031960203682011261119657600435906001600160401b03908183116111925760a09083360301126121da577f00000000000000000000000000000000000000000000000000000000000000006001600160a01b031633036121c2576040516113fa81612791565b82600401358152602483013582811681036104325760208201526044830135828111610432576114309060043691860101612831565b90604081019182526064840135838111611fc6576114549060043691870101612831565b93606082019485526084810135908482116109b257019036602383011215611fc657600482013561148481612887565b926114926040519485612810565b8184526024602085019260061b8201019036821161118e57602401915b81831061218a575050506080015251602081805181010312611192576114f3906114ee906001600160a01b03906114e890602001613848565b16613631565b612966565b815160208180518101031261119257611510602060ff920161385c565b169060ff198281600754161760075582156000146117815750505051606081805181010312611196576115456020820161385c565b50606061155460408301613848565b910151906001600160a01b031661158a7f00000000000000000000000000000000000000000000000000000000000000006138a1565b6040516370a0823160e01b81523060048201527f00000000000000000000000000000000000000000000000000000000000000006001600160a01b03169190602081602481865afa908115610a5657869161174f575b50670de0b6b3a76400009081860286810483148715171561173b5790611605916128eb565b61161686610cfe6005548094612914565b60055560015460a01c60ff16611643575050505082526006602052610d3060408320918254612959565b80f35b60405163095ea7b360e01b81526001600160a01b03841660048201529190046024820181905290945092916020908590604490829089905af19283156109a7576116ee9460209461171e575b50604051631a4ca37b60e21b81526001600160a01b037f00000000000000000000000000000000000000000000000000000000000000008116600483015260248201929092529216604483015290928391908290869082906064820190565b03926001600160a01b03165af1801561042757611709575080f35b602090813d8311610e1357610e088183612810565b61173490853d87116109dd576109cd8183612810565b503861168f565b634e487b7160e01b88526011600452602488fd5b90506020813d602011611779575b8161176a60209383612810565b81010312610a4a5751386115e0565b3d915061175d565b909192600193848114600014611878575090505191606083805181010312611192576117af6020840161385c565b506040830151918216820361119257610468926001600160a01b03906117d790606001613848565b16907f000000000000000000000000000000000000000000000000000000000000000091611846837f00000000000000000000000000000000000000000000000000000000000000007f00000000000000000000000000000000000000000000000000000000000000006138fa565b93600554926040519360026020860152604085015260408452611868846127f5565b805460ff60a01b191690556129b2565b60020361215357516040818051810103126104325760408161189d602087940161385c565b5001519160095416176009556118f37f00000000000000000000000000000000000000000000000000000000000000007f0000000000000000000000000000000000000000000000000000000000000000613a75565b600555815460ff60a01b1916600160a01b17825560405160208082019390935291825261191f826127ac565b807f000000000000000000000000000000000000000000000000000000000000000016907f000000000000000000000000000000000000000000000000000000000000000016146000146119d15750807f00000000000000000000000000000000000000000000000000000000000000006001600160a01b0316803b156119ce578190600460405180948193634cab8a5760e11b83525af18015610427576119c5575080f35b611640906127c7565b50fd5b7f00000000000000000000000000000000000000000000000000000000000000008291611a006114ee83613631565b60606080604051611a1081612791565b82815282602082015282604082015286838201520152604051611a3281612760565b8481526040519260018060a01b0316602084015260208352611a53836127ac565b611a6d604051611a6281612760565b621e8480815261386a565b9160405193611a7b85612791565b845260208401526040830152836060830152608082015260405163b0f479a160e01b8152602081600481305afa9081156104ac578491612124575b506040516320487ded60e01b81529160208380611af7847f000000000000000000000000000000000000000000000000000000000000000060048401613568565b03816001600160a01b0386165afa9283156109a75785936120f0575b506040516370a0823160e01b81523060048201526020816024817f00000000000000000000000000000000000000000000000000000000000000006001600160a01b03165afa908115610a565786916120be575b5061204d575b6040516370a0823160e01b815230600482015285906020816024817f00000000000000000000000000000000000000000000000000000000000000006001600160a01b03165afa8015610427578290612019575b6004805460405163095ea7b360e01b81526001600160a01b039091169181019190915260248101829052915060208280604481015b0381867f00000000000000000000000000000000000000000000000000000000000000006001600160a01b03165af1918215610e1a57602092611ffc575b5060405190611c42826127da565b6001600160a01b037f0000000000000000000000000000000000000000000000000000000000000000811683527f000000000000000000000000000000000000000000000000000000000000000081168484019081526101f460408086019182523060608701908152608087018c815260a0880196875260c088018a8152600480549451635023b4df60e01b815299518816908a0152945186166024890152925162ffffff166044880152518416606487015290516084860152925160a485015251811660c48401529193849260e492849291165af1908115610a56578691611fca575b507f00000000000000000000000000000000000000000000000000000000000000006001600160a01b03163b15611fc657604051632e1a7d4d60e01b8152600481018590528681602481837f00000000000000000000000000000000000000000000000000000000000000006001600160a01b03165af18015611fbb57611fa8575b50600855478311611f895783611f21575b602091611dfd916040519485809481936396f4e9f960e01b83527f000000000000000000000000000000000000000000000000000000000000000060048401613568565b03926001600160a01b03165af1801561042757611ef6575b506040516370a0823160e01b81523060048201526020816024817f00000000000000000000000000000000000000000000000000000000000000006001600160a01b03165afa918215611eea5791611eb8575b5015611640576116407f00000000000000000000000000000000000000000000000000000000000000007f0000000000000000000000000000000000000000000000000000000000000000613a75565b90506020813d602011611ee2575b81611ed360209383612810565b81010312611196575138611e68565b3d9150611ec6565b604051903d90823e3d90fd5b602090813d8311611f1a575b611f0c8183612810565b810103126111965738611e15565b503d611f02565b60405163095ea7b360e01b81526001600160a01b03831660048201526024810186905260208160448188805af180156109a7579160209391611dfd93611f6c575b5091509150611db9565b611f8290853d87116109dd576109cd8183612810565b5038611f62565b604051634787a10360e11b815247600482015260248101849052604490fd5b611fb39195506127c7565b849338611da8565b6040513d89823e3d90fd5b8580fd5b90506020813d602011611ff4575b81611fe560209383612810565b81010312611fc6575138611d26565b3d9150611fd8565b61201290833d85116109dd576109cd8183612810565b5038611c34565b506020813d602011612045575b8161203360209383612810565b8101031261119657611bf69051611bc1565b3d9150612026565b6120b87f00000000000000000000000000000000000000000000000000000000000000007f00000000000000000000000000000000000000000000000000000000000000007f00000000000000000000000000000000000000000000000000000000000000006138fa565b50611b6d565b90506020813d6020116120e8575b816120d960209383612810565b81010312611fc6575138611b67565b3d91506120cc565b9092506020813d60201161211c575b8161210c60209383612810565b8101031261043257519138611b13565b3d91506120ff565b612146915060203d60201161214c575b61213e8183612810565b810190613509565b38611ab6565b503d612134565b60405162461bcd60e51b815260206004820152600f60248201526e1a5b9d985b1a590818dbdb5b585b99608a1b6044820152606490fd5b60408336031261118e57602060409182516121a4816127ac565b6121ad86612736565b815282860135838201528152019201916114af565b6040516335fdcccd60e21b8152336004820152602490fd5b8280fd5b50346102465780600319360112610246576001546001600160a01b0380821633036122445782546001600160a01b03198082163390811786559316600155167f8be0079c531659141344cd1fd0a4f28419497f9722a3daafe3b4186f6b6457e08380a380f35b60405162461bcd60e51b815260206004820152601660248201527526bab9ba10313290383937b837b9b2b21037bbb732b960511b6044820152606490fd5b503461024657806003193601126102465760206040516001600160401b037f0000000000000000000000000000000000000000000000000000000000000000168152f35b50346102465780600319360112610246576040517f00000000000000000000000000000000000000000000000000000000000000006001600160a01b03168152602090f35b50346102465760403660031901126102465761046861232861274a565b612330612720565b907f00000000000000000000000000000000000000000000000000000000000000009061239e827f00000000000000000000000000000000000000000000000000000000000000007f00000000000000000000000000000000000000000000000000000000000000006138fa565b926005549160405192600260208501526040840152604083526123c0836127f5565b6001805460ff60a01b191690556129b2565b50346102465760a0366003190112610246576123ec61274a565b906123f5612720565b6001600160a01b039190604435838116908190036121da5760643584811680910361119257608435956001600160401b0387116104325761243f6124c19596973690600401612831565b6040519360209889961686860152858552612459856127ac565b60405161246581612760565b88815261248260405161247781612760565b620f4240815261386a565b926040519661249088612791565b8752878701526040860152606085015260808401526040518095819482936320487ded60e01b845260048401613568565b03915afa918215611eea5780926124dd575b5050604051908152f35b9091508282813d8311612506575b6124f58183612810565b8101031261024657505138806124d3565b503d6124eb565b50346102465780600319360112610246576020600554604051908152f35b50346102465780600319360112610246576020600854604051908152f35b50346102465780600319360112610246576040517f00000000000000000000000000000000000000000000000000000000000000006001600160a01b03168152602090f35b5034610246578060031936011261024657602060ff60015460a01c166040519015158152f35b5034610246576040366003190112610246576125ce61270a565b6125d6612720565b6040516335ea6a7560e01b81526001600160a01b039182166004820152610180929091839183916024918391165afa918215610e1a576020939261261e575050604051908152f35b6126349250803d106104a5576104888183612810565b50505050505094505050505038806124d3565b50346102465780600319360112610246576004546040516001600160a01b039091168152602090f35b50346102465780600319360112610246576040517f00000000000000000000000000000000000000000000000000000000000000006001600160a01b03168152602090f35b9050346111965760203660031901126111965760043563ffffffff60e01b81168091036121da57602092506385572ffb60e01b81149081156126f9575b5015158152f35b6301ffc9a760e01b149050386126f2565b600435906001600160a01b0382168203610a4a57565b602435906001600160a01b0382168203610a4a57565b35906001600160a01b0382168203610a4a57565b600435906001600160401b0382168203610a4a57565b602081019081106001600160401b0382111761277b57604052565b634e487b7160e01b600052604160045260246000fd5b60a081019081106001600160401b0382111761277b57604052565b604081019081106001600160401b0382111761277b57604052565b6001600160401b03811161277b57604052565b60e081019081106001600160401b0382111761277b57604052565b606081019081106001600160401b0382111761277b57604052565b90601f801991011681019081106001600160401b0382111761277b57604052565b81601f82011215610a4a578035906001600160401b03821161277b5760405192612865601f8401601f191660200185612810565b82845260208383010111610a4a57816000926020809301838601378301015290565b6001600160401b03811161277b5760051b60200190565b6002548110156128d55760026000527f405787fa12a823e0f2b7631cc41b3ba8828b3321ca811111fa75cd3aa3bb5ace0190600090565b634e487b7160e01b600052603260045260246000fd5b818102929181159184041417156128fe57565b634e487b7160e01b600052601160045260246000fd5b811561291e570490565b634e487b7160e01b600052601260045260246000fd5b919082039182116128fe57565b90816020910312610a4a57518015158103610a4a5790565b919082018092116128fe57565b1561296d57565b60405162461bcd60e51b815260206004820152601d60248201527f43616c6c6572206973206e6f7420616e20616c6c6f776564206e6f64650000006044820152606490fd5b90916000946129c36114ee85613631565b85908061307a575b506129d8818684876136d0565b946040519463b0f479a160e01b8652602086600481305afa958615610e90578896613059575b506040516320487ded60e01b81529360208580612a1f8b8a60048401613568565b03816001600160a01b038b165afa9485156109e4578995613025575b506040516370a0823160e01b81523060048201526020816024817f00000000000000000000000000000000000000000000000000000000000000006001600160a01b03165afa908115612f28578a91612ff3575b50612f82575b6040516370a0823160e01b81523060048201526020816024817f00000000000000000000000000000000000000000000000000000000000000006001600160a01b03165afa908115612f28578a91612f50575b506004805460405163095ea7b360e01b81526001600160a01b039182169281019290925260248201839052602090829060449082908f907f0000000000000000000000000000000000000000000000000000000000000000165af18015612ee557916020918c959493612f33575b5060405190612b64826127da565b6001600160a01b037f0000000000000000000000000000000000000000000000000000000000000000811683527f000000000000000000000000000000000000000000000000000000000000000081168484019081526101f460408086019182523060608701908152608087018e815260a0880196875260c088018c8152600480549451635023b4df60e01b815299518816908a0152945186166024890152925162ffffff166044880152518416606487015290516084860152925160a485015251811660c48401529195869260e492849291165af1928315612f28578a93612ef4575b507f00000000000000000000000000000000000000000000000000000000000000006001600160a01b03163b15612ef057604051632e1a7d4d60e01b8152600481018790528a81602481837f00000000000000000000000000000000000000000000000000000000000000006001600160a01b03165af18015612ee557612ed2575b5084612eb2575b5050600855478311611f89576001600160a01b03169081612e3e575b505091612d159493916020936040518097819582946396f4e9f960e01b845260048401613568565b03926001600160a01b03165af1918215610e42578192612e0a575b506040516370a0823160e01b81523060048201526020816024817f00000000000000000000000000000000000000000000000000000000000000006001600160a01b03165afa918215611eea5791612dd8575b50612d8b5790565b612dd57f00000000000000000000000000000000000000000000000000000000000000007f0000000000000000000000000000000000000000000000000000000000000000613a75565b90565b90506020813d602011612e02575b81612df360209383612810565b81010312610a4a575138612d83565b3d9150612de6565b9091506020813d602011612e36575b81612e2660209383612810565b81010312610a4a57519038612d30565b3d9150612e19565b60405163095ea7b360e01b81526001600160a01b0386166004820152602481019190915290602090829060449082908a905af18015610a565791612d159695939160209593612e95575b5091938193959650612ced565b612eab90863d88116109dd576109cd8183612810565b5038612e88565b8298508390612ec4612eca9487612934565b926136d0565b953880612cd1565b612ede909a919a6127c7565b9838612cca565b6040513d8d823e3d90fd5b8980fd5b9092506020813d602011612f20575b81612f1060209383612810565b81010312612ef057519138612c48565b3d9150612f03565b6040513d8c823e3d90fd5b612f4990833d85116109dd576109cd8183612810565b5038612b56565b90506020813d602011612f7a575b81612f6b60209383612810565b81010312612ef0575138612ae8565b3d9150612f5e565b612fed7f00000000000000000000000000000000000000000000000000000000000000007f00000000000000000000000000000000000000000000000000000000000000007f00000000000000000000000000000000000000000000000000000000000000006138fa565b50612a95565b90506020813d60201161301d575b8161300e60209383612810565b81010312612ef0575138612a8f565b3d9150613001565b9094506020813d602011613051575b8161304160209383612810565b8101031261118e57519338612a3b565b3d9150613034565b61307391965060203d60201161214c5761213e8183612810565b94386129fe565b9050386129cb565b9290916130916114ee84613631565b600354604080516001600160a01b0392831696919390916130b183612791565b60609182845288602093808587015280888701528060806000978883820152015287516130dd81612760565b8681528789519b16868c0152858b526130f58b6127ac565b6131038951611a6281612760565b9389519b6131108d612791565b8c52868c0152888b01528901526080880152845163b0f479a160e01b815297600491838a8481305afa998a156134ff5761316d98999a879187916134e2575b501691848b8951809b81926320487ded60e01b835286898401613568565b0381865afa98891561338d5786996134b3575b50600886905587516323b872dd60e01b815233858201908152306020820152604081018b90529091869183919082908a90829060600103925af190811561338d578691613496575b50156134535785600354168751986370a0823160e01b998a815230868201528681602481865afa908115613449578891613418575b50811161339757885163095ea7b360e01b81526001600160a01b038516868201908152602081019290925291869183919082908a90829060400103925af1801561338d579185939161326c9b9c93613370575b50868951809c819582946396f4e9f960e01b8452898401613568565b03925af1968715613366578397613337575b50819060247f000000000000000000000000000000000000000000000000000000000000000097875196879384928352309083015289165afa93841561332c575081936132fb575b5050506132d1575090565b612dd5907f0000000000000000000000000000000000000000000000000000000000000000613a75565b9091809350813d8311613325575b6133138183612810565b810103126102465750513880806132c6565b503d613309565b51913d9150823e3d90fd5b9096508181813d831161335f575b61334f8183612810565b810103126121da5751958161327e565b503d613345565b85513d85823e3d90fd5b61338690853d87116109dd576109cd8183612810565b5038613250565b88513d88823e3d90fd5b8490868a8994828e60248451809481938252308a8301525afa92831561340e5786936133da575b505051634787a10360e11b815292830152602482015260449150fd5b9080929350813d8311613407575b6133f28183612810565b810103126104325760449450519085806133be565b503d6133e8565b82513d88823e3d90fd5b90508681813d8311613442575b61342f8183612810565b8101031261343e5751386131fd565b8780fd5b503d613425565b8a513d8a823e3d90fd5b865162461bcd60e51b8152808401859052601a60248201527f4e6f742070726f7669646564204c696e6b20666f7220666565730000000000006044820152606490fd5b6134ad9150853d87116109dd576109cd8183612810565b386131c8565b9098508481813d83116134db575b6134cb8183612810565b81010312611fc657519784613180565b503d6134c1565b6134f99150863d881161214c5761213e8183612810565b3861314f565b87513d87823e3d90fd5b90816020910312610a4a57516001600160a01b0381168103610a4a5790565b919082519283825260005b848110613554575050826000602080949584010152601f8019910116010190565b602081830181015184830182015201613533565b906001600160401b039093929316815260406020918183820152613597855160a08484015260e0830190613528565b916135b38487015193603f199485858303016060860152613528565b8187015194848483030160808501528080875193848152019601926000905b83821061360857505050505060c06080612dd5959660018060a01b0360608201511660a085015201519282850301910152613528565b845180516001600160a01b031689528301518884015296870196938201936001909101906135d2565b60025460005b8161ffff8216106136815750507f00000000000000000000000000000000000000000000000000000000000000006001600160a01b0390811691161461367c57600090565b600190565b61368a8161289e565b905460039190911b1c6001600160a01b03908116908416146136bb5761ffff8091169081146128fe57600101613637565b505050600190565b8051156128d55760200190565b9291906040918251926136e284612791565b606092838552602095848787015284838701528460806000978883820152015260018060a01b038094168015806137db575b1561376d575050815161372681612760565b858152925b825197168688015285875261373f876127ac565b61374d8251611a6281612760565b9582519761375a89612791565b8852870152850152830152608082015290565b83949194519061377c826127ac565b6001825288885b8181106137ba575050906137b491819686519161379f836127ac565b82528a8201526137ae826136c3565b526136c3565b5061372b565b86516137c5816127ac565b8a81528a83820152828286010152018990613783565b508115613714565b919082610180910312610a4a5781519160208101519160408201519160608101519160808201519160a08101519160c08201519160e081015191610100820151916101208101519161016061014083015192015164ffffffffff81168103610a4a5790565b51906001600160a01b0382168203610a4a57565b519060ff82168203610a4a57565b604051906397a657c960e01b602083015251602482015260248152606081018181106001600160401b0382111761277b5760405290565b60405163026b1d5f60e01b815290602090829060049082906001600160a01b03165afa9081156138ee576000916138d6575090565b612dd5915060203d811161214c5761213e8183612810565b6040513d6000823e3d90fd5b604080516370a0823160e01b815230600482015293949390926020926001600160a01b039182169291908483602481875afa928315613a3957600093613a44575b50613945906138a1565b855163095ea7b360e01b81526001600160a01b03821660048201526024810184905290938590829060449082906000905af18015613a39578594926139cb98999492600092613a1c575b508751631a4ca37b60e21b81526001600160a01b0390951660048601526024850192909252306044850152929687938492909183906064820190565b0393165af1918215613a1257506000916139e6575b50905090565b82813d8311613a0b575b6139fa8183612810565b8101031261024657505180386139e0565b503d6139f0565b513d6000823e3d90fd5b613a3290873d89116109dd576109cd8183612810565b503861398f565b86513d6000823e3d90fd5b90928582813d8311613a6e575b613a5b8183612810565b810103126102465750519161394561393b565b503d613a51565b604080516370a0823160e01b815230600482015290916001600160a01b0390848216906020908185602481865afa948515613a3957600095613b7d575b50613abc906138a1565b855163095ea7b360e01b81526001600160a01b03821660048201526024810186905290928290829060449082906000905af18015613a3957613b5f575b50501692833b15610a4a57825163e8eda9df60e01b81526001600160a01b03919091166004820152602481019190915230604482015260006064820181905290928390608490829084905af1908115613a125750613b545750565b613b5d906127c7565b565b81613b7592903d106109dd576109cd8183612810565b503880613af9565b90948282813d8311613ba7575b613b948183612810565b8101031261024657505193613abc613ab2565b503d613b8a565b6000546001600160a01b03163303613bc257565b60405162461bcd60e51b815260206004820152601660248201527527b7363c9031b0b63630b1363290313c9037bbb732b960511b6044820152606490fdfea264697066735822122042767b9569ae27227d38eabb1c55cacbb076244c0069aeaf85da3cc95f53dbff64736f6c63430008130033",
  "bytecodeSha1": "125a74f6da1bdccc650efea3e9d96d8a4f306597",
  "compiler": {
    "evm_version": "istanbul",
    "optimizer": {
      "enabled": true,
      "runs": 200
    },
    "version": "0.8.19+commit.7dd6d404"
  },
  "contractName": "Node",
  "language": "Solidity",
  "natspec": {
    "kind": "dev",
    "methods": {
      "MASTER_CONTRACT_CHAIN_ID()": {
        "notice": "TESTER ////"
      },
      "acceptOwnership()": {
        "notice": "Allows an ownership transfer to be completed by the recipient."
      },
      "ccipReceive((bytes32,uint64,bytes,bytes,(address,uint256)[]))": {
        "details": "Note ensure you check the msg.sender is the OffRampRouter",
        "notice": "Called by the Router to deliver a message. If this reverts, any token transfers also revert. The message will move to a FAILED state and become available for manual execution.",
        "params": {
          "message": "CCIP Message"
        }
      },
      "constructor": {
        "notice": "Constructor initializes the contract with the router address.",
        "params": {
          "_link": "The address of the link contract.",
          "_router": "The address of the router contract."
        }
      },
      "getRouter()": {
        "notice": "Return the current router",
        "returns": {
          "_0": "CCIP router address"
        }
      },
      "owner()": {
        "notice": "Get the current owner"
      },
      "supportsInterface(bytes4)": {
        "details": "Should indicate whether the contract implements IAny2EVMMessageReceiver e.g. return interfaceId == type(IAny2EVMMessageReceiver).interfaceId || interfaceId == type(IERC165).interfaceId This allows CCIP to check if ccipReceive is available before calling it. If this returns false or reverts, only tokens are transferred to the receiver. If this returns true, tokens are transferred and ccipReceive is called atomically. Additionally, if the receiver address does not have code associated with it at the time of execution (EXTCODESIZE returns 0), only tokens will be transferred.",
        "notice": "IERC165 supports an interfaceId",
        "params": {
          "interfaceId": "The interfaceId to check"
        },
        "returns": {
          "_0": "true if the interfaceId is supported"
        }
      },
      "transferOwnership(address)": {
        "notice": "Allows an owner to begin transferring ownership to a new address."
      }
    },
    "version": 1
  },
  "opcodes": "PUSH1 0x80 DUP1 PUSH1 0x40 MSTORE PUSH1 0x4 CALLDATASIZE LT ISZERO PUSH2 0x1D JUMPI JUMPDEST POP CALLDATASIZE ISZERO PUSH2 0x1B JUMPI PUSH1 0x0 DUP1 REVERT JUMPDEST STOP JUMPDEST PUSH1 0x0 SWAP1 DUP2 CALLDATALOAD PUSH1 0xE0 SHR SWAP1 DUP2 PUSH4 0x1FFC9A7 EQ PUSH2 0x26B5 JUMPI POP DUP1 PUSH4 0x40141E5 EQ PUSH2 0x2670 JUMPI DUP1 PUSH4 0x15D03DFD EQ PUSH2 0x2647 JUMPI DUP1 PUSH4 0x168010ED EQ PUSH2 0x25B4 JUMPI DUP1 PUSH4 0x1D34B4FF EQ PUSH2 0x258E JUMPI DUP1 PUSH4 0x32D3AD5E EQ PUSH2 0x2549 JUMPI DUP1 PUSH4 0x49CB88A2 EQ PUSH2 0x252B JUMPI DUP1 PUSH4 0x4C8719F3 EQ PUSH2 0x250D JUMPI DUP1 PUSH4 0x544B1709 EQ PUSH2 0x23D2 JUMPI DUP1 PUSH4 0x5C292BE5 EQ PUSH2 0x230B JUMPI DUP1 PUSH4 0x67062580 EQ PUSH2 0x22C6 JUMPI DUP1 PUSH4 0x7058A5E7 EQ PUSH2 0x2282 JUMPI DUP1 PUSH4 0x79BA5097 EQ PUSH2 0x21DE JUMPI DUP1 PUSH4 0x85572FFB EQ PUSH2 0x138B JUMPI DUP1 PUSH4 0x8CF19D19 EQ PUSH2 0x1347 JUMPI DUP1 PUSH4 0x8DA5CB5B EQ PUSH2 0x1320 JUMPI DUP1 PUSH4 0x8E7C2F43 EQ PUSH2 0x12F6 JUMPI DUP1 PUSH4 0x9428B7F8 EQ PUSH2 0x12C9 JUMPI DUP1 PUSH4 0x982D1F18 EQ PUSH2 0x1284 JUMPI DUP1 PUSH4 0x98B3C1F8 EQ PUSH2 0x119A JUMPI DUP1 PUSH4 0xA19B24B5 EQ PUSH2 0xF9A JUMPI DUP1 PUSH4 0xA63CA076 EQ PUSH2 0xF56 JUMPI DUP1 PUSH4 0xA6E1D016 EQ PUSH2 0xF33 JUMPI DUP1 PUSH4 0xAF002DB8 EQ PUSH2 0xBAC JUMPI DUP1 PUSH4 0xAF256173 EQ PUSH2 0xB67 JUMPI DUP1 PUSH4 0xB0F479A1 EQ PUSH2 0xB22 JUMPI DUP1 PUSH4 0xB6B55F25 EQ PUSH2 0x6A8 JUMPI DUP1 PUSH4 0xBB09D9B7 EQ PUSH2 0x663 JUMPI DUP1 PUSH4 0xC330A2ED EQ PUSH2 0x4B7 JUMPI DUP1 PUSH4 0xD8BBA68F EQ PUSH2 0x2A3 JUMPI DUP1 PUSH4 0xDC3F1F59 EQ PUSH2 0x282 JUMPI DUP1 PUSH4 0xE227A140 EQ PUSH2 0x249 JUMPI PUSH4 0xF2FDE38B SUB PUSH2 0xF JUMPI CALLVALUE PUSH2 0x246 JUMPI PUSH1 0x20 CALLDATASIZE PUSH1 0x3 NOT ADD SLT PUSH2 0x246 JUMPI PUSH2 0x1AA PUSH2 0x270A JUMP JUMPDEST PUSH2 0x1B2 PUSH2 0x3BAE JUMP JUMPDEST PUSH1 0x1 PUSH1 0x1 PUSH1 0xA0 SHL SUB SWAP1 DUP2 AND SWAP1 CALLER DUP3 EQ PUSH2 0x201 JUMPI PUSH1 0x1 DUP1 SLOAD PUSH1 0x1 PUSH1 0x1 PUSH1 0xA0 SHL SUB NOT AND DUP4 OR SWAP1 SSTORE DUP3 SLOAD AND PUSH32 0xED8889F560326EB138920D842192F0EB3DD22B4F139C87A2C57538E05BAE1278 DUP4 DUP1 LOG3 DUP1 RETURN JUMPDEST PUSH1 0x40 MLOAD PUSH3 0x461BCD PUSH1 0xE5 SHL DUP2 MSTORE PUSH1 0x20 PUSH1 0x4 DUP3 ADD MSTORE PUSH1 0x17 PUSH1 0x24 DUP3 ADD MSTORE PUSH32 0x43616E6E6F74207472616E7366657220746F2073656C66000000000000000000 PUSH1 0x44 DUP3 ADD MSTORE PUSH1 0x64 SWAP1 REVERT JUMPDEST DUP1 REVERT JUMPDEST POP CALLVALUE PUSH2 0x246 JUMPI PUSH1 0x20 CALLDATASIZE PUSH1 0x3 NOT ADD SLT PUSH2 0x246 JUMPI PUSH1 0x20 SWAP1 PUSH1 0x40 SWAP1 PUSH1 0x1 PUSH1 0x1 PUSH1 0xA0 SHL SUB PUSH2 0x271 PUSH2 0x270A JUMP JUMPDEST AND DUP2 MSTORE PUSH1 0x6 DUP4 MSTORE KECCAK256 SLOAD PUSH1 0x40 MLOAD SWAP1 DUP2 MSTORE RETURN JUMPDEST POP CALLVALUE PUSH2 0x246 JUMPI DUP1 PUSH1 0x3 NOT CALLDATASIZE ADD SLT PUSH2 0x246 JUMPI PUSH1 0x20 PUSH1 0xFF PUSH1 0x7 SLOAD AND PUSH1 0x40 MLOAD SWAP1 DUP2 MSTORE RETURN JUMPDEST POP CALLVALUE PUSH2 0x246 JUMPI DUP1 PUSH1 0x3 NOT CALLDATASIZE ADD SLT PUSH2 0x246 JUMPI PUSH1 0x40 MLOAD PUSH4 0x35EA6A75 PUSH1 0xE0 SHL DUP2 MSTORE PUSH1 0x1 PUSH1 0x1 PUSH1 0xA0 SHL SUB PUSH32 0x0 DUP2 AND PUSH1 0x4 DUP4 ADD MSTORE DUP3 SWAP2 PUSH2 0x180 DUP1 DUP3 PUSH1 0x24 DUP2 PUSH32 0x0 DUP8 AND GAS STATICCALL SWAP3 DUP4 ISZERO PUSH2 0x4AC JUMPI DUP5 SWAP3 DUP6 SWAP3 DUP7 SWAP6 PUSH2 0x46C JUMPI JUMPDEST POP POP PUSH1 0x40 MLOAD PUSH1 0x2 PUSH1 0x20 DUP3 ADD MSTORE DUP4 PUSH1 0x40 DUP3 ADD MSTORE DUP3 PUSH1 0x60 DUP3 ADD MSTORE DUP5 PUSH1 0x80 DUP3 ADD MSTORE PUSH1 0x80 DUP2 MSTORE PUSH2 0x35D DUP2 PUSH2 0x2791 JUMP JUMPDEST PUSH32 0x0 PUSH1 0x1 PUSH1 0x1 PUSH1 0x40 SHL SUB DUP1 DUP3 AND SWAP1 PUSH32 0x0 AND EQ PUSH1 0x0 EQ PUSH2 0x436 JUMPI POP POP PUSH32 0x0 AND DUP1 EXTCODESIZE ISZERO PUSH2 0x432 JUMPI DUP5 SWAP3 DUP4 PUSH1 0x64 SWAP3 PUSH1 0x40 MLOAD SWAP7 DUP8 SWAP6 DUP7 SWAP5 PUSH4 0x9637120F PUSH1 0xE0 SHL DUP7 MSTORE PUSH1 0x4 DUP7 ADD MSTORE PUSH1 0x24 DUP6 ADD MSTORE PUSH1 0x44 DUP5 ADD MSTORE GAS CALL DUP1 ISZERO PUSH2 0x427 JUMPI PUSH2 0x417 JUMPI POP POP DUP1 RETURN JUMPDEST PUSH2 0x420 SWAP1 PUSH2 0x27C7 JUMP JUMPDEST PUSH2 0x246 JUMPI DUP1 RETURN JUMPDEST PUSH1 0x40 MLOAD RETURNDATASIZE DUP5 DUP3 RETURNDATACOPY RETURNDATASIZE SWAP1 REVERT JUMPDEST DUP5 DUP1 REVERT JUMPDEST SWAP4 POP SWAP4 POP POP POP PUSH2 0x468 SWAP3 POP PUSH32 0x0 SWAP1 PUSH2 0x3082 JUMP JUMPDEST POP DUP1 RETURN JUMPDEST SWAP2 SWAP5 POP SWAP2 POP PUSH2 0x490 SWAP3 POP DUP1 RETURNDATASIZE LT PUSH2 0x4A5 JUMPI JUMPDEST PUSH2 0x488 DUP2 DUP4 PUSH2 0x2810 JUMP JUMPDEST DUP2 ADD SWAP1 PUSH2 0x37E3 JUMP JUMPDEST POP POP POP POP POP POP SWAP4 POP SWAP4 POP POP SWAP2 SWAP1 SWAP3 CODESIZE DUP1 PUSH2 0x332 JUMP JUMPDEST POP RETURNDATASIZE PUSH2 0x47E JUMP JUMPDEST PUSH1 0x40 MLOAD RETURNDATASIZE DUP7 DUP3 RETURNDATACOPY RETURNDATASIZE SWAP1 REVERT JUMPDEST POP CALLVALUE PUSH2 0x246 JUMPI DUP1 PUSH1 0x3 NOT CALLDATASIZE ADD SLT PUSH2 0x246 JUMPI CALLER DUP2 MSTORE PUSH1 0x6 PUSH1 0x20 MSTORE PUSH1 0x40 DUP2 KECCAK256 SLOAD ISZERO PUSH2 0x61E JUMPI CALLER DUP2 MSTORE PUSH1 0x6 PUSH1 0x20 MSTORE DUP1 PUSH1 0x40 DUP2 KECCAK256 SLOAD PUSH1 0x40 MLOAD PUSH2 0x527 DUP2 PUSH2 0x519 DUP5 CALLER PUSH1 0x20 DUP5 ADD PUSH1 0x40 SWAP1 SWAP4 SWAP3 SWAP2 SWAP4 PUSH1 0x60 DUP2 ADD SWAP5 PUSH1 0x0 DUP3 MSTORE PUSH1 0x1 DUP1 PUSH1 0xA0 SHL SUB AND PUSH1 0x20 DUP3 ADD MSTORE ADD MSTORE JUMP JUMPDEST SUB PUSH1 0x1F NOT DUP2 ADD DUP4 MSTORE DUP3 PUSH2 0x2810 JUMP JUMPDEST PUSH32 0x0 PUSH1 0x1 PUSH1 0x1 PUSH1 0x40 SHL SUB DUP1 DUP3 AND SWAP1 PUSH32 0x0 AND EQ PUSH1 0x0 EQ PUSH2 0x5EF JUMPI POP POP PUSH32 0x0 PUSH1 0x1 PUSH1 0x1 PUSH1 0xA0 SHL SUB AND DUP1 EXTCODESIZE ISZERO PUSH2 0x5EB JUMPI PUSH1 0x40 MLOAD PUSH4 0x11E0FA9 PUSH1 0xE2 SHL DUP2 MSTORE CALLER PUSH1 0x4 DUP3 ADD MSTORE PUSH1 0x24 DUP2 ADD SWAP3 SWAP1 SWAP3 MSTORE DUP3 SWAP1 DUP3 SWAP1 DUP2 DUP4 DUP2 PUSH1 0x44 DUP2 ADD JUMPDEST SUB SWAP3 GAS CALL DUP1 ISZERO PUSH2 0x427 JUMPI PUSH2 0x417 JUMPI POP POP DUP1 RETURN JUMPDEST POP POP REVERT JUMPDEST SWAP1 SWAP2 POP PUSH2 0x468 SWAP3 POP PUSH32 0x0 SWAP1 PUSH2 0x3082 JUMP JUMPDEST PUSH1 0x40 MLOAD PUSH3 0x461BCD PUSH1 0xE5 SHL DUP2 MSTORE PUSH1 0x20 PUSH1 0x4 DUP3 ADD MSTORE PUSH1 0x18 PUSH1 0x24 DUP3 ADD MSTORE PUSH32 0x4E6F206157525020746F6B656E7320746F20726566756E640000000000000000 PUSH1 0x44 DUP3 ADD MSTORE PUSH1 0x64 SWAP1 REVERT JUMPDEST POP CALLVALUE PUSH2 0x246 JUMPI DUP1 PUSH1 0x3 NOT CALLDATASIZE ADD SLT PUSH2 0x246 JUMPI PUSH1 0x40 MLOAD PUSH32 0x0 PUSH1 0x1 PUSH1 0x1 PUSH1 0xA0 SHL SUB AND DUP2 MSTORE PUSH1 0x20 SWAP1 RETURN JUMPDEST POP CALLVALUE PUSH2 0x246 JUMPI PUSH1 0x20 SWAP1 DUP2 PUSH1 0x3 NOT CALLDATASIZE ADD SLT PUSH2 0x246 JUMPI PUSH1 0x40 MLOAD PUSH4 0x23B872DD PUSH1 0xE0 SHL DUP2 MSTORE CALLER PUSH1 0x4 DUP1 DUP4 ADD SWAP2 SWAP1 SWAP2 MSTORE ADDRESS PUSH1 0x24 DUP4 ADD MSTORE CALLDATALOAD PUSH1 0x44 DUP3 ADD DUP2 SWAP1 MSTORE PUSH1 0x1 PUSH1 0x1 PUSH1 0xA0 SHL SUB PUSH32 0x0 DUP2 DUP2 AND SWAP6 SWAP3 SWAP4 SWAP2 SWAP3 SWAP2 DUP3 DUP2 PUSH1 0x64 DUP2 DUP10 DUP12 GAS CALL SWAP1 DUP2 ISZERO PUSH2 0xA56 JUMPI DUP7 SWAP2 PUSH2 0xB05 JUMPI JUMPDEST POP ISZERO PUSH2 0xAC0 JUMPI PUSH1 0xFF PUSH1 0x1 SLOAD PUSH1 0xA0 SHR AND ISZERO PUSH2 0xA61 JUMPI PUSH1 0x40 MLOAD PUSH4 0x70A08231 PUSH1 0xE0 SHL DUP2 MSTORE ADDRESS PUSH1 0x4 DUP3 ADD MSTORE SWAP4 DUP3 DUP6 PUSH1 0x24 DUP2 PUSH32 0x0 DUP9 AND GAS STATICCALL SWAP5 DUP6 ISZERO PUSH2 0xA56 JUMPI DUP7 SWAP6 PUSH2 0xA22 JUMPI JUMPDEST POP PUSH1 0x5 SLOAD SWAP5 DUP6 PUSH2 0xA03 JUMPI POP PUSH5 0xE8D4A51000 SWAP7 DUP8 DUP3 MUL SWAP8 DUP3 DUP10 DIV EQ DUP3 ISZERO OR ISZERO PUSH2 0x9EF JUMPI PUSH2 0x7B8 DUP8 SWAP9 DUP1 SWAP8 PUSH2 0x2959 JUMP JUMPDEST PUSH1 0x5 SSTORE PUSH1 0x40 DUP1 MLOAD PUSH1 0x0 DUP7 DUP3 ADD SWAP1 DUP2 MSTORE CALLER PUSH1 0x20 DUP3 ADD MSTORE DUP1 DUP4 ADD DUP10 SWAP1 MSTORE DUP2 SWAP1 SUB SWAP2 DUP3 ADD DUP2 MSTORE SWAP5 SWAP1 PUSH2 0x7EA SWAP1 PUSH1 0x60 ADD DUP7 PUSH2 0x2810 JUMP JUMPDEST PUSH2 0x813 PUSH32 0x0 PUSH2 0x38A1 JUMP JUMPDEST PUSH1 0x40 MLOAD PUSH4 0x95EA7B3 PUSH1 0xE0 SHL DUP2 MSTORE PUSH1 0x1 PUSH1 0x1 PUSH1 0xA0 SHL SUB DUP3 AND PUSH1 0x4 DUP3 ADD MSTORE PUSH1 0x24 DUP2 ADD DUP6 SWAP1 MSTORE SWAP3 SWAP1 SWAP2 SWAP1 DUP2 SWAP1 DUP5 SWAP1 PUSH1 0x44 SWAP1 DUP3 SWAP1 DUP14 SWAP1 GAS CALL SWAP3 DUP4 ISZERO PUSH2 0x9E4 JUMPI DUP8 SWAP4 PUSH2 0x9B6 JUMPI JUMPDEST POP POP AND SWAP2 DUP3 EXTCODESIZE ISZERO PUSH2 0x9B2 JUMPI PUSH1 0x40 MLOAD PUSH4 0xE8EDA9DF PUSH1 0xE0 SHL DUP2 MSTORE PUSH1 0x1 PUSH1 0x1 PUSH1 0xA0 SHL SUB SWAP2 SWAP1 SWAP2 AND PUSH1 0x4 DUP3 ADD MSTORE PUSH1 0x24 DUP2 ADD SWAP2 SWAP1 SWAP2 MSTORE ADDRESS PUSH1 0x44 DUP3 ADD MSTORE PUSH1 0x0 PUSH1 0x64 DUP3 ADD MSTORE SWAP1 DUP6 SWAP1 DUP3 SWAP1 PUSH1 0x84 SWAP1 DUP3 SWAP1 DUP5 SWAP1 GAS CALL SWAP1 DUP2 ISZERO PUSH2 0x9A7 JUMPI DUP6 SWAP2 PUSH2 0x98E JUMPI JUMPDEST POP POP PUSH32 0x0 PUSH1 0x1 PUSH1 0x1 PUSH1 0x40 SHL SUB DUP1 DUP3 AND SWAP1 PUSH32 0x0 AND EQ PUSH1 0x0 EQ PUSH2 0x95E JUMPI POP POP PUSH32 0x0 AND DUP1 EXTCODESIZE ISZERO PUSH2 0x5EB JUMPI PUSH1 0x40 MLOAD PUSH4 0x11E0FA9 PUSH1 0xE2 SHL DUP2 MSTORE CALLER PUSH1 0x4 DUP3 ADD MSTORE PUSH1 0x24 DUP2 ADD SWAP3 SWAP1 SWAP3 MSTORE DUP3 SWAP1 DUP3 SWAP1 DUP2 DUP4 DUP2 PUSH1 0x44 DUP2 ADD PUSH2 0x5D8 JUMP JUMPDEST SWAP2 POP SWAP2 POP PUSH2 0x468 SWAP3 POP PUSH32 0x0 SWAP1 PUSH2 0x3082 JUMP JUMPDEST PUSH2 0x997 SWAP1 PUSH2 0x27C7 JUMP JUMPDEST PUSH2 0x9A2 JUMPI DUP4 CODESIZE PUSH2 0x8AF JUMP JUMPDEST POP POP POP REVERT JUMPDEST PUSH1 0x40 MLOAD RETURNDATASIZE DUP8 DUP3 RETURNDATACOPY RETURNDATASIZE SWAP1 REVERT JUMPDEST DUP7 DUP1 REVERT JUMPDEST DUP2 PUSH2 0x9D5 SWAP3 SWAP1 RETURNDATASIZE LT PUSH2 0x9DD JUMPI JUMPDEST PUSH2 0x9CD DUP2 DUP4 PUSH2 0x2810 JUMP JUMPDEST DUP2 ADD SWAP1 PUSH2 0x2941 JUMP JUMPDEST POP CODESIZE DUP1 PUSH2 0x855 JUMP JUMPDEST POP RETURNDATASIZE PUSH2 0x9C3 JUMP JUMPDEST PUSH1 0x40 MLOAD RETURNDATASIZE DUP12 DUP3 RETURNDATACOPY RETURNDATASIZE SWAP1 REVERT JUMPDEST PUSH4 0x4E487B71 PUSH1 0xE0 SHL DUP8 MSTORE PUSH1 0x11 PUSH1 0x4 MSTORE PUSH1 0x24 DUP8 REVERT JUMPDEST SWAP7 PUSH2 0x7B8 PUSH2 0xA1B DUP9 SWAP10 PUSH2 0xA16 DUP10 DUP7 PUSH2 0x28EB JUMP JUMPDEST PUSH2 0x2914 JUMP JUMPDEST DUP1 SWAP8 PUSH2 0x2959 JUMP JUMPDEST SWAP1 SWAP5 POP DUP3 DUP2 DUP2 RETURNDATASIZE DUP4 GT PUSH2 0xA4F JUMPI JUMPDEST PUSH2 0xA3A DUP2 DUP4 PUSH2 0x2810 JUMP JUMPDEST DUP2 ADD SUB SLT PUSH2 0xA4A JUMPI MLOAD SWAP4 CODESIZE PUSH2 0x78A JUMP JUMPDEST PUSH1 0x0 DUP1 REVERT JUMPDEST POP RETURNDATASIZE PUSH2 0xA30 JUMP JUMPDEST PUSH1 0x40 MLOAD RETURNDATASIZE DUP9 DUP3 RETURNDATACOPY RETURNDATASIZE SWAP1 REVERT JUMPDEST PUSH1 0x40 MLOAD PUSH3 0x461BCD PUSH1 0xE5 SHL DUP2 MSTORE PUSH1 0x4 DUP2 ADD DUP4 SWAP1 MSTORE PUSH1 0x31 PUSH1 0x24 DUP3 ADD MSTORE PUSH32 0x4173657473206172652057617270696E67204E6F772C206465706F7369747320 PUSH1 0x44 DUP3 ADD MSTORE PUSH17 0x37B7103732BB90313637B1B5B1B430B4B7 PUSH1 0x79 SHL PUSH1 0x64 DUP3 ADD MSTORE PUSH1 0x84 SWAP1 REVERT JUMPDEST PUSH1 0x40 MLOAD PUSH3 0x461BCD PUSH1 0xE5 SHL DUP2 MSTORE PUSH1 0x4 DUP2 ADD DUP4 SWAP1 MSTORE PUSH1 0x19 PUSH1 0x24 DUP3 ADD MSTORE PUSH32 0x4661696C656420746F207472616E7366657220616D6F756E7400000000000000 PUSH1 0x44 DUP3 ADD MSTORE PUSH1 0x64 SWAP1 REVERT JUMPDEST PUSH2 0xB1C SWAP2 POP DUP4 RETURNDATASIZE DUP6 GT PUSH2 0x9DD JUMPI PUSH2 0x9CD DUP2 DUP4 PUSH2 0x2810 JUMP JUMPDEST CODESIZE PUSH2 0x72A JUMP JUMPDEST POP CALLVALUE PUSH2 0x246 JUMPI DUP1 PUSH1 0x3 NOT CALLDATASIZE ADD SLT PUSH2 0x246 JUMPI PUSH1 0x40 MLOAD PUSH32 0x0 PUSH1 0x1 PUSH1 0x1 PUSH1 0xA0 SHL SUB AND DUP2 MSTORE PUSH1 0x20 SWAP1 RETURN JUMPDEST POP CALLVALUE PUSH2 0x246 JUMPI DUP1 PUSH1 0x3 NOT CALLDATASIZE ADD SLT PUSH2 0x246 JUMPI PUSH1 0x40 MLOAD PUSH32 0x0 PUSH1 0x1 PUSH1 0x1 PUSH1 0xA0 SHL SUB AND DUP2 MSTORE PUSH1 0x20 SWAP1 RETURN JUMPDEST POP CALLVALUE PUSH2 0x246 JUMPI PUSH1 0x40 CALLDATASIZE PUSH1 0x3 NOT ADD SLT PUSH2 0x246 JUMPI PUSH2 0xBC6 PUSH2 0x270A JUMP JUMPDEST PUSH1 0x24 CALLDATALOAD SWAP1 PUSH1 0x1 PUSH1 0x1 PUSH1 0x40 SHL SUB DUP1 PUSH32 0x0 AND SWAP1 PUSH32 0x0 AND SUB PUSH2 0xEE0 JUMPI PUSH1 0x1 PUSH1 0x1 PUSH1 0xA0 SHL SUB PUSH32 0x0 DUP2 AND CALLER SUB PUSH2 0xE9B JUMPI PUSH2 0xC77 PUSH32 0x0 PUSH2 0x38A1 JUMP JUMPDEST PUSH1 0x40 MLOAD PUSH4 0x70A08231 PUSH1 0xE0 SHL DUP2 MSTORE ADDRESS PUSH1 0x4 DUP3 ADD MSTORE PUSH1 0x20 SWAP4 SWAP2 PUSH32 0x0 DUP5 AND SWAP2 DUP6 DUP2 PUSH1 0x24 DUP2 DUP7 GAS STATICCALL SWAP1 DUP2 ISZERO PUSH2 0xE90 JUMPI DUP9 SWAP2 PUSH2 0xE63 JUMPI JUMPDEST POP PUSH8 0xDE0B6B3A7640000 SWAP1 DUP2 DUP9 MUL DUP9 DUP2 DIV DUP4 EQ DUP10 ISZERO OR ISZERO PUSH2 0xE4F JUMPI SWAP1 PUSH2 0xCED SWAP2 PUSH2 0x28EB JUMP JUMPDEST PUSH2 0xD04 DUP9 PUSH2 0xCFE PUSH1 0x5 SLOAD DUP1 SWAP5 PUSH2 0x2914 JUMP JUMPDEST SWAP3 PUSH2 0x2934 JUMP JUMPDEST PUSH1 0x5 SSTORE PUSH1 0x1 SLOAD PUSH1 0xA0 SHR PUSH1 0xFF AND PUSH2 0xD35 JUMPI POP POP POP POP SWAP1 PUSH1 0x6 SWAP3 SWAP2 AND DUP5 MSTORE MSTORE PUSH2 0xD30 PUSH1 0x40 DUP4 KECCAK256 SWAP2 DUP3 SLOAD PUSH2 0x2959 JUMP JUMPDEST SWAP1 SSTORE DUP1 RETURN JUMPDEST PUSH1 0x40 MLOAD PUSH4 0x95EA7B3 PUSH1 0xE0 SHL DUP2 MSTORE PUSH1 0x1 PUSH1 0x1 PUSH1 0xA0 SHL SUB DUP5 AND PUSH1 0x4 DUP3 ADD MSTORE SWAP2 SWAP1 DIV PUSH1 0x24 DUP3 ADD DUP2 SWAP1 MSTORE SWAP6 SWAP7 POP SWAP5 SWAP1 SWAP2 DUP8 SWAP1 DUP8 SWAP1 DUP8 SWAP1 PUSH1 0x44 SWAP1 DUP3 SWAP1 DUP6 SWAP1 GAS CALL SWAP5 DUP6 ISZERO PUSH2 0xE42 JUMPI PUSH2 0xDE1 SWAP7 DUP9 SWAP7 PUSH2 0xE25 JUMPI JUMPDEST POP PUSH1 0x40 MLOAD PUSH4 0x1A4CA37B PUSH1 0xE2 SHL DUP2 MSTORE PUSH1 0x1 PUSH1 0x1 PUSH1 0xA0 SHL SUB PUSH32 0x0 DUP2 AND PUSH1 0x4 DUP4 ADD MSTORE PUSH1 0x24 DUP3 ADD SWAP5 SWAP1 SWAP5 MSTORE SWAP3 SWAP1 SWAP5 AND PUSH1 0x44 DUP4 ADD MSTORE SWAP1 SWAP5 DUP6 SWAP4 DUP5 SWAP3 SWAP2 DUP4 SWAP1 PUSH1 0x64 DUP3 ADD SWAP1 JUMP JUMPDEST SUB SWAP4 AND GAS CALL DUP1 ISZERO PUSH2 0xE1A JUMPI PUSH2 0xDF5 JUMPI POP POP DUP1 RETURN JUMPDEST DUP2 RETURNDATASIZE DUP4 GT PUSH2 0xE13 JUMPI JUMPDEST PUSH2 0xE08 DUP2 DUP4 PUSH2 0x2810 JUMP JUMPDEST DUP2 ADD SUB SLT PUSH2 0xA4A JUMPI DUP1 RETURN JUMPDEST POP RETURNDATASIZE PUSH2 0xDFE JUMP JUMPDEST PUSH1 0x40 MLOAD RETURNDATASIZE DUP6 DUP3 RETURNDATACOPY RETURNDATASIZE SWAP1 REVERT JUMPDEST PUSH2 0xE3B SWAP1 DUP8 RETURNDATASIZE DUP10 GT PUSH2 0x9DD JUMPI PUSH2 0x9CD DUP2 DUP4 PUSH2 0x2810 JUMP JUMPDEST POP CODESIZE PUSH2 0xD82 JUMP JUMPDEST POP PUSH1 0x40 MLOAD SWAP1 RETURNDATASIZE SWAP1 DUP3 RETURNDATACOPY RETURNDATASIZE SWAP1 REVERT JUMPDEST PUSH4 0x4E487B71 PUSH1 0xE0 SHL DUP11 MSTORE PUSH1 0x11 PUSH1 0x4 MSTORE PUSH1 0x24 DUP11 REVERT JUMPDEST SWAP1 POP DUP6 DUP2 DUP2 RETURNDATASIZE DUP4 GT PUSH2 0xE89 JUMPI JUMPDEST PUSH2 0xE7A DUP2 DUP4 PUSH2 0x2810 JUMP JUMPDEST DUP2 ADD SUB SLT PUSH2 0xA4A JUMPI MLOAD CODESIZE PUSH2 0xCC8 JUMP JUMPDEST POP RETURNDATASIZE PUSH2 0xE70 JUMP JUMPDEST PUSH1 0x40 MLOAD RETURNDATASIZE DUP11 DUP3 RETURNDATACOPY RETURNDATASIZE SWAP1 REVERT JUMPDEST PUSH1 0x40 MLOAD PUSH3 0x461BCD PUSH1 0xE5 SHL DUP2 MSTORE PUSH1 0x20 PUSH1 0x4 DUP3 ADD MSTORE PUSH1 0x1C PUSH1 0x24 DUP3 ADD MSTORE PUSH32 0x4F6E6C79204D617374657220436F6E747261637420616C6C6F77656400000000 PUSH1 0x44 DUP3 ADD MSTORE PUSH1 0x64 SWAP1 REVERT JUMPDEST PUSH1 0x40 MLOAD PUSH3 0x461BCD PUSH1 0xE5 SHL DUP2 MSTORE PUSH1 0x20 PUSH1 0x4 DUP3 ADD MSTORE PUSH1 0x25 PUSH1 0x24 DUP3 ADD MSTORE PUSH32 0x52657175697265206D617374657220616E64206E6F646520696E2073616D6520 PUSH1 0x44 DUP3 ADD MSTORE PUSH5 0x31B430B4B7 PUSH1 0xD9 SHL PUSH1 0x64 DUP3 ADD MSTORE PUSH1 0x84 SWAP1 REVERT JUMPDEST POP CALLVALUE PUSH2 0x246 JUMPI DUP1 PUSH1 0x3 NOT CALLDATASIZE ADD SLT PUSH2 0x246 JUMPI PUSH1 0x20 PUSH1 0xFF PUSH1 0x9 SLOAD AND PUSH1 0x40 MLOAD SWAP1 ISZERO ISZERO DUP2 MSTORE RETURN JUMPDEST POP CALLVALUE PUSH2 0x246 JUMPI PUSH1 0x20 CALLDATASIZE PUSH1 0x3 NOT ADD SLT PUSH2 0x246 JUMPI PUSH1 0x4 CALLDATALOAD SWAP1 PUSH1 0x2 SLOAD DUP3 LT ISZERO PUSH2 0x246 JUMPI PUSH1 0x20 PUSH2 0xF81 DUP4 PUSH2 0x289E JUMP JUMPDEST SWAP1 SLOAD PUSH1 0x40 MLOAD PUSH1 0x3 SWAP3 SWAP1 SWAP3 SHL SHR PUSH1 0x1 PUSH1 0x1 PUSH1 0xA0 SHL SUB AND DUP2 MSTORE RETURN JUMPDEST POP CALLVALUE PUSH2 0x246 JUMPI PUSH1 0x20 DUP1 PUSH1 0x3 NOT CALLDATASIZE ADD SLT PUSH2 0x1196 JUMPI PUSH1 0x1 PUSH1 0x1 PUSH1 0x40 SHL SUB SWAP1 PUSH1 0x4 CALLDATALOAD DUP3 DUP2 GT PUSH2 0x1192 JUMPI CALLDATASIZE PUSH1 0x23 DUP3 ADD SLT ISZERO PUSH2 0x1192 JUMPI DUP1 PUSH1 0x4 ADD CALLDATALOAD PUSH2 0xFD9 DUP2 PUSH2 0x2887 JUMP JUMPDEST SWAP1 PUSH2 0xFE7 PUSH1 0x40 MLOAD SWAP3 DUP4 PUSH2 0x2810 JUMP JUMPDEST DUP1 DUP3 MSTORE DUP4 DUP3 ADD SWAP3 DUP4 PUSH1 0x24 DUP1 SWAP4 PUSH1 0x5 SHL DUP4 ADD ADD SWAP2 CALLDATASIZE DUP4 GT PUSH2 0x118E JUMPI DUP4 DUP8 SWAP2 ADD SWAP2 JUMPDEST DUP4 DUP4 LT PUSH2 0x1176 JUMPI POP POP POP POP PUSH2 0x101A PUSH2 0x3BAE JUMP JUMPDEST DUP2 MLOAD ISZERO PUSH2 0x1133 JUMPI PUSH1 0x2 SLOAD SWAP2 DUP3 PUSH2 0x10EF JUMPI MLOAD SWAP5 DUP6 GT PUSH2 0x10DD JUMPI PUSH9 0x10000000000000000 DUP6 GT PUSH2 0x10DD JUMPI POP DUP4 PUSH1 0x2 SSTORE DUP1 DUP5 LT PUSH2 0x109D JUMPI JUMPDEST POP SWAP1 PUSH1 0x2 DUP5 MSTORE DUP4 JUMPDEST DUP4 DUP2 LT PUSH2 0x1062 JUMPI DUP5 DUP1 RETURN JUMPDEST DUP3 MLOAD PUSH1 0x1 PUSH1 0x1 PUSH1 0xA0 SHL SUB AND PUSH32 0x405787FA12A823E0F2B7631CC41B3BA8828B3321CA811111FA75CD3AA3BB5ACE DUP3 ADD SSTORE SWAP2 DUP2 ADD SWAP2 PUSH1 0x1 ADD PUSH2 0x1057 JUMP JUMPDEST DUP4 PUSH32 0x405787FA12A823E0F2B7631CC41B3BA8828B3321CA811111FA75CD3AA3BB5ACE SWAP2 DUP3 ADD SWAP2 ADD JUMPDEST DUP2 DUP2 LT PUSH2 0x10D2 JUMPI POP PUSH2 0x104F JUMP JUMPDEST DUP6 DUP2 SSTORE PUSH1 0x1 ADD PUSH2 0x10C5 JUMP JUMPDEST PUSH4 0x4E487B71 PUSH1 0xE0 SHL DUP7 MSTORE PUSH1 0x41 PUSH1 0x4 MSTORE DUP6 REVERT JUMPDEST PUSH1 0x40 MLOAD PUSH3 0x461BCD PUSH1 0xE5 SHL DUP2 MSTORE PUSH1 0x4 DUP2 ADD DUP7 SWAP1 MSTORE PUSH1 0x1A DUP2 DUP5 ADD MSTORE PUSH32 0x616C6C6F7765644E6F646573206D75737420626520656D707479000000000000 PUSH1 0x44 DUP3 ADD MSTORE PUSH1 0x64 SWAP1 REVERT JUMPDEST DUP4 PUSH1 0x17 PUSH1 0x64 SWAP3 PUSH1 0x40 MLOAD SWAP3 PUSH3 0x461BCD PUSH1 0xE5 SHL DUP5 MSTORE PUSH1 0x4 DUP5 ADD MSTORE DUP3 ADD MSTORE PUSH32 0x596F752073656E7420616E20656D707479206172726179000000000000000000 PUSH1 0x44 DUP3 ADD MSTORE REVERT JUMPDEST DUP2 SWAP1 PUSH2 0x1181 DUP5 PUSH2 0x2736 JUMP JUMPDEST DUP2 MSTORE ADD SWAP2 ADD SWAP1 DUP7 SWAP1 PUSH2 0x1007 JUMP JUMPDEST DUP9 DUP1 REVERT JUMPDEST DUP4 DUP1 REVERT JUMPDEST POP DUP1 REVERT JUMPDEST POP CALLVALUE PUSH2 0x246 JUMPI PUSH1 0x20 SWAP1 DUP2 PUSH1 0x3 NOT CALLDATASIZE ADD SLT PUSH2 0x246 JUMPI PUSH1 0x40 MLOAD PUSH4 0x70A08231 PUSH1 0xE0 SHL DUP2 MSTORE ADDRESS PUSH1 0x4 DUP3 DUP2 ADD SWAP2 SWAP1 SWAP2 MSTORE CALLDATALOAD DUP4 DUP3 PUSH1 0x24 DUP2 PUSH32 0x0 PUSH1 0x1 PUSH1 0x1 PUSH1 0xA0 SHL SUB AND GAS STATICCALL SWAP2 DUP3 ISZERO PUSH2 0xE1A JUMPI DUP4 SWAP3 PUSH2 0x1255 JUMPI JUMPDEST POP PUSH8 0xDE0B6B3A7640000 SWAP3 DUP4 DUP3 MUL SWAP2 DUP1 DUP4 DIV DUP6 EQ SWAP1 ISZERO OR ISZERO PUSH2 0x1241 JUMPI POP PUSH2 0x1238 SWAP2 PUSH2 0x122F SWAP2 PUSH2 0x28EB JUMP JUMPDEST PUSH1 0x5 SLOAD SWAP1 PUSH2 0x2914 JUMP JUMPDEST DIV PUSH1 0x40 MLOAD SWAP1 DUP2 MSTORE RETURN JUMPDEST PUSH4 0x4E487B71 PUSH1 0xE0 SHL DUP2 MSTORE PUSH1 0x11 PUSH1 0x4 MSTORE PUSH1 0x24 SWAP1 REVERT JUMPDEST SWAP1 SWAP2 POP DUP4 DUP2 DUP2 RETURNDATASIZE DUP4 GT PUSH2 0x127D JUMPI JUMPDEST PUSH2 0x126D DUP2 DUP4 PUSH2 0x2810 JUMP JUMPDEST DUP2 ADD SUB SLT PUSH2 0xA4A JUMPI MLOAD SWAP1 CODESIZE PUSH2 0x1205 JUMP JUMPDEST POP RETURNDATASIZE PUSH2 0x1263 JUMP JUMPDEST POP CALLVALUE PUSH2 0x246 JUMPI DUP1 PUSH1 0x3 NOT CALLDATASIZE ADD SLT PUSH2 0x246 JUMPI PUSH1 0x40 MLOAD PUSH32 0x0 PUSH1 0x1 PUSH1 0x1 PUSH1 0xA0 SHL SUB AND DUP2 MSTORE PUSH1 0x20 SWAP1 RETURN JUMPDEST POP CALLVALUE PUSH2 0x246 JUMPI DUP1 PUSH1 0x3 NOT CALLDATASIZE ADD SLT PUSH2 0x246 JUMPI PUSH1 0x7 SLOAD PUSH1 0x40 MLOAD PUSH1 0x48 SWAP2 SWAP1 SWAP2 SHR PUSH1 0x1 PUSH1 0x1 PUSH1 0xA0 SHL SUB AND DUP2 MSTORE PUSH1 0x20 SWAP1 RETURN JUMPDEST POP CALLVALUE PUSH2 0x246 JUMPI DUP1 PUSH1 0x3 NOT CALLDATASIZE ADD SLT PUSH2 0x246 JUMPI PUSH1 0x20 PUSH1 0x1 PUSH1 0x1 PUSH1 0x40 SHL SUB PUSH1 0x7 SLOAD PUSH1 0x8 SHR AND PUSH1 0x40 MLOAD SWAP1 DUP2 MSTORE RETURN JUMPDEST POP CALLVALUE PUSH2 0x246 JUMPI DUP1 PUSH1 0x3 NOT CALLDATASIZE ADD SLT PUSH2 0x246 JUMPI SLOAD PUSH1 0x40 MLOAD PUSH1 0x1 PUSH1 0x1 PUSH1 0xA0 SHL SUB SWAP1 SWAP2 AND DUP2 MSTORE PUSH1 0x20 SWAP1 RETURN JUMPDEST POP CALLVALUE PUSH2 0x246 JUMPI DUP1 PUSH1 0x3 NOT CALLDATASIZE ADD SLT PUSH2 0x246 JUMPI PUSH1 0x20 PUSH1 0x40 MLOAD PUSH1 0x1 PUSH1 0x1 PUSH1 0x40 SHL SUB PUSH32 0x0 AND DUP2 MSTORE RETURN JUMPDEST POP CALLVALUE PUSH2 0x246 JUMPI PUSH1 0x3 NOT PUSH1 0x20 CALLDATASIZE DUP3 ADD SLT PUSH2 0x1196 JUMPI PUSH1 0x4 CALLDATALOAD SWAP1 PUSH1 0x1 PUSH1 0x1 PUSH1 0x40 SHL SUB SWAP1 DUP2 DUP4 GT PUSH2 0x1192 JUMPI PUSH1 0xA0 SWAP1 DUP4 CALLDATASIZE SUB ADD SLT PUSH2 0x21DA JUMPI PUSH32 0x0 PUSH1 0x1 PUSH1 0x1 PUSH1 0xA0 SHL SUB AND CALLER SUB PUSH2 0x21C2 JUMPI PUSH1 0x40 MLOAD PUSH2 0x13FA DUP2 PUSH2 0x2791 JUMP JUMPDEST DUP3 PUSH1 0x4 ADD CALLDATALOAD DUP2 MSTORE PUSH1 0x24 DUP4 ADD CALLDATALOAD DUP3 DUP2 AND DUP2 SUB PUSH2 0x432 JUMPI PUSH1 0x20 DUP3 ADD MSTORE PUSH1 0x44 DUP4 ADD CALLDATALOAD DUP3 DUP2 GT PUSH2 0x432 JUMPI PUSH2 0x1430 SWAP1 PUSH1 0x4 CALLDATASIZE SWAP2 DUP7 ADD ADD PUSH2 0x2831 JUMP JUMPDEST SWAP1 PUSH1 0x40 DUP2 ADD SWAP2 DUP3 MSTORE PUSH1 0x64 DUP5 ADD CALLDATALOAD DUP4 DUP2 GT PUSH2 0x1FC6 JUMPI PUSH2 0x1454 SWAP1 PUSH1 0x4 CALLDATASIZE SWAP2 DUP8 ADD ADD PUSH2 0x2831 JUMP JUMPDEST SWAP4 PUSH1 0x60 DUP3 ADD SWAP5 DUP6 MSTORE PUSH1 0x84 DUP2 ADD CALLDATALOAD SWAP1 DUP5 DUP3 GT PUSH2 0x9B2 JUMPI ADD SWAP1 CALLDATASIZE PUSH1 0x23 DUP4 ADD SLT ISZERO PUSH2 0x1FC6 JUMPI PUSH1 0x4 DUP3 ADD CALLDATALOAD PUSH2 0x1484 DUP2 PUSH2 0x2887 JUMP JUMPDEST SWAP3 PUSH2 0x1492 PUSH1 0x40 MLOAD SWAP5 DUP6 PUSH2 0x2810 JUMP JUMPDEST DUP2 DUP5 MSTORE PUSH1 0x24 PUSH1 0x20 DUP6 ADD SWAP3 PUSH1 0x6 SHL DUP3 ADD ADD SWAP1 CALLDATASIZE DUP3 GT PUSH2 0x118E JUMPI PUSH1 0x24 ADD SWAP2 JUMPDEST DUP2 DUP4 LT PUSH2 0x218A JUMPI POP POP POP PUSH1 0x80 ADD MSTORE MLOAD PUSH1 0x20 DUP2 DUP1 MLOAD DUP2 ADD SUB SLT PUSH2 0x1192 JUMPI PUSH2 0x14F3 SWAP1 PUSH2 0x14EE SWAP1 PUSH1 0x1 PUSH1 0x1 PUSH1 0xA0 SHL SUB SWAP1 PUSH2 0x14E8 SWAP1 PUSH1 0x20 ADD PUSH2 0x3848 JUMP JUMPDEST AND PUSH2 0x3631 JUMP JUMPDEST PUSH2 0x2966 JUMP JUMPDEST DUP2 MLOAD PUSH1 0x20 DUP2 DUP1 MLOAD DUP2 ADD SUB SLT PUSH2 0x1192 JUMPI PUSH2 0x1510 PUSH1 0x20 PUSH1 0xFF SWAP3 ADD PUSH2 0x385C JUMP JUMPDEST AND SWAP1 PUSH1 0xFF NOT DUP3 DUP2 PUSH1 0x7 SLOAD AND OR PUSH1 0x7 SSTORE DUP3 ISZERO PUSH1 0x0 EQ PUSH2 0x1781 JUMPI POP POP POP MLOAD PUSH1 0x60 DUP2 DUP1 MLOAD DUP2 ADD SUB SLT PUSH2 0x1196 JUMPI PUSH2 0x1545 PUSH1 0x20 DUP3 ADD PUSH2 0x385C JUMP JUMPDEST POP PUSH1 0x60 PUSH2 0x1554 PUSH1 0x40 DUP4 ADD PUSH2 0x3848 JUMP JUMPDEST SWAP2 ADD MLOAD SWAP1 PUSH1 0x1 PUSH1 0x1 PUSH1 0xA0 SHL SUB AND PUSH2 0x158A PUSH32 0x0 PUSH2 0x38A1 JUMP JUMPDEST PUSH1 0x40 MLOAD PUSH4 0x70A08231 PUSH1 0xE0 SHL DUP2 MSTORE ADDRESS PUSH1 0x4 DUP3 ADD MSTORE PUSH32 0x0 PUSH1 0x1 PUSH1 0x1 PUSH1 0xA0 SHL SUB AND SWAP2 SWAP1 PUSH1 0x20 DUP2 PUSH1 0x24 DUP2 DUP7 GAS STATICCALL SWAP1 DUP2 ISZERO PUSH2 0xA56 JUMPI DUP7 SWAP2 PUSH2 0x174F JUMPI JUMPDEST POP PUSH8 0xDE0B6B3A7640000 SWAP1 DUP2 DUP7 MUL DUP7 DUP2 DIV DUP4 EQ DUP8 ISZERO OR ISZERO PUSH2 0x173B JUMPI SWAP1 PUSH2 0x1605 SWAP2 PUSH2 0x28EB JUMP JUMPDEST PUSH2 0x1616 DUP7 PUSH2 0xCFE PUSH1 0x5 SLOAD DUP1 SWAP5 PUSH2 0x2914 JUMP JUMPDEST PUSH1 0x5 SSTORE PUSH1 0x1 SLOAD PUSH1 0xA0 SHR PUSH1 0xFF AND PUSH2 0x1643 JUMPI POP POP POP POP DUP3 MSTORE PUSH1 0x6 PUSH1 0x20 MSTORE PUSH2 0xD30 PUSH1 0x40 DUP4 KECCAK256 SWAP2 DUP3 SLOAD PUSH2 0x2959 JUMP JUMPDEST DUP1 RETURN JUMPDEST PUSH1 0x40 MLOAD PUSH4 0x95EA7B3 PUSH1 0xE0 SHL DUP2 MSTORE PUSH1 0x1 PUSH1 0x1 PUSH1 0xA0 SHL SUB DUP5 AND PUSH1 0x4 DUP3 ADD MSTORE SWAP2 SWAP1 DIV PUSH1 0x24 DUP3 ADD DUP2 SWAP1 MSTORE SWAP1 SWAP5 POP SWAP3 SWAP2 PUSH1 0x20 SWAP1 DUP6 SWAP1 PUSH1 0x44 SWAP1 DUP3 SWAP1 DUP10 SWAP1 GAS CALL SWAP3 DUP4 ISZERO PUSH2 0x9A7 JUMPI PUSH2 0x16EE SWAP5 PUSH1 0x20 SWAP5 PUSH2 0x171E JUMPI JUMPDEST POP PUSH1 0x40 MLOAD PUSH4 0x1A4CA37B PUSH1 0xE2 SHL DUP2 MSTORE PUSH1 0x1 PUSH1 0x1 PUSH1 0xA0 SHL SUB PUSH32 0x0 DUP2 AND PUSH1 0x4 DUP4 ADD MSTORE PUSH1 0x24 DUP3 ADD SWAP3 SWAP1 SWAP3 MSTORE SWAP3 AND PUSH1 0x44 DUP4 ADD MSTORE SWAP1 SWAP3 DUP4 SWAP2 SWAP1 DUP3 SWAP1 DUP7 SWAP1 DUP3 SWAP1 PUSH1 0x64 DUP3 ADD SWAP1 JUMP JUMPDEST SUB SWAP3 PUSH1 0x1 PUSH1 0x1 PUSH1 0xA0 SHL SUB AND GAS CALL DUP1 ISZERO PUSH2 0x427 JUMPI PUSH2 0x1709 JUMPI POP DUP1 RETURN JUMPDEST PUSH1 0x20 SWAP1 DUP2 RETURNDATASIZE DUP4 GT PUSH2 0xE13 JUMPI PUSH2 0xE08 DUP2 DUP4 PUSH2 0x2810 JUMP JUMPDEST PUSH2 0x1734 SWAP1 DUP6 RETURNDATASIZE DUP8 GT PUSH2 0x9DD JUMPI PUSH2 0x9CD DUP2 DUP4 PUSH2 0x2810 JUMP JUMPDEST POP CODESIZE PUSH2 0x168F JUMP JUMPDEST PUSH4 0x4E487B71 PUSH1 0xE0 SHL DUP9 MSTORE PUSH1 0x11 PUSH1 0x4 MSTORE PUSH1 0x24 DUP9 REVERT JUMPDEST SWAP1 POP PUSH1 0x20 DUP2 RETURNDATASIZE PUSH1 0x20 GT PUSH2 0x1779 JUMPI JUMPDEST DUP2 PUSH2 0x176A PUSH1 0x20 SWAP4 DUP4 PUSH2 0x2810 JUMP JUMPDEST DUP2 ADD SUB SLT PUSH2 0xA4A JUMPI MLOAD CODESIZE PUSH2 0x15E0 JUMP JUMPDEST RETURNDATASIZE SWAP2 POP PUSH2 0x175D JUMP JUMPDEST SWAP1 SWAP2 SWAP3 PUSH1 0x1 SWAP4 DUP5 DUP2 EQ PUSH1 0x0 EQ PUSH2 0x1878 JUMPI POP SWAP1 POP MLOAD SWAP2 PUSH1 0x60 DUP4 DUP1 MLOAD DUP2 ADD SUB SLT PUSH2 0x1192 JUMPI PUSH2 0x17AF PUSH1 0x20 DUP5 ADD PUSH2 0x385C JUMP JUMPDEST POP PUSH1 0x40 DUP4 ADD MLOAD SWAP2 DUP3 AND DUP3 SUB PUSH2 0x1192 JUMPI PUSH2 0x468 SWAP3 PUSH1 0x1 PUSH1 0x1 PUSH1 0xA0 SHL SUB SWAP1 PUSH2 0x17D7 SWAP1 PUSH1 0x60 ADD PUSH2 0x3848 JUMP JUMPDEST AND SWAP1 PUSH32 0x0 SWAP2 PUSH2 0x1846 DUP4 PUSH32 0x0 PUSH32 0x0 PUSH2 0x38FA JUMP JUMPDEST SWAP4 PUSH1 0x5 SLOAD SWAP3 PUSH1 0x40 MLOAD SWAP4 PUSH1 0x2 PUSH1 0x20 DUP7 ADD MSTORE PUSH1 0x40 DUP6 ADD MSTORE PUSH1 0x40 DUP5 MSTORE PUSH2 0x1868 DUP5 PUSH2 0x27F5 JUMP JUMPDEST DUP1 SLOAD PUSH1 0xFF PUSH1 0xA0 SHL NOT AND SWAP1 SSTORE PUSH2 0x29B2 JUMP JUMPDEST PUSH1 0x2 SUB PUSH2 0x2153 JUMPI MLOAD PUSH1 0x40 DUP2 DUP1 MLOAD DUP2 ADD SUB SLT PUSH2 0x432 JUMPI PUSH1 0x40 DUP2 PUSH2 0x189D PUSH1 0x20 DUP8 SWAP5 ADD PUSH2 0x385C JUMP JUMPDEST POP ADD MLOAD SWAP2 PUSH1 0x9 SLOAD AND OR PUSH1 0x9 SSTORE PUSH2 0x18F3 PUSH32 0x0 PUSH32 0x0 PUSH2 0x3A75 JUMP JUMPDEST PUSH1 0x5 SSTORE DUP2 SLOAD PUSH1 0xFF PUSH1 0xA0 SHL NOT AND PUSH1 0x1 PUSH1 0xA0 SHL OR DUP3 SSTORE PUSH1 0x40 MLOAD PUSH1 0x20 DUP1 DUP3 ADD SWAP4 SWAP1 SWAP4 MSTORE SWAP2 DUP3 MSTORE PUSH2 0x191F DUP3 PUSH2 0x27AC JUMP JUMPDEST DUP1 PUSH32 0x0 AND SWAP1 PUSH32 0x0 AND EQ PUSH1 0x0 EQ PUSH2 0x19D1 JUMPI POP DUP1 PUSH32 0x0 PUSH1 0x1 PUSH1 0x1 PUSH1 0xA0 SHL SUB AND DUP1 EXTCODESIZE ISZERO PUSH2 0x19CE JUMPI DUP2 SWAP1 PUSH1 0x4 PUSH1 0x40 MLOAD DUP1 SWAP5 DUP2 SWAP4 PUSH4 0x4CAB8A57 PUSH1 0xE1 SHL DUP4 MSTORE GAS CALL DUP1 ISZERO PUSH2 0x427 JUMPI PUSH2 0x19C5 JUMPI POP DUP1 RETURN JUMPDEST PUSH2 0x1640 SWAP1 PUSH2 0x27C7 JUMP JUMPDEST POP REVERT JUMPDEST PUSH32 0x0 DUP3 SWAP2 PUSH2 0x1A00 PUSH2 0x14EE DUP4 PUSH2 0x3631 JUMP JUMPDEST PUSH1 0x60 PUSH1 0x80 PUSH1 0x40 MLOAD PUSH2 0x1A10 DUP2 PUSH2 0x2791 JUMP JUMPDEST DUP3 DUP2 MSTORE DUP3 PUSH1 0x20 DUP3 ADD MSTORE DUP3 PUSH1 0x40 DUP3 ADD MSTORE DUP7 DUP4 DUP3 ADD MSTORE ADD MSTORE PUSH1 0x40 MLOAD PUSH2 0x1A32 DUP2 PUSH2 0x2760 JUMP JUMPDEST DUP5 DUP2 MSTORE PUSH1 0x40 MLOAD SWAP3 PUSH1 0x1 DUP1 PUSH1 0xA0 SHL SUB AND PUSH1 0x20 DUP5 ADD MSTORE PUSH1 0x20 DUP4 MSTORE PUSH2 0x1A53 DUP4 PUSH2 0x27AC JUMP JUMPDEST PUSH2 0x1A6D PUSH1 0x40 MLOAD PUSH2 0x1A62 DUP2 PUSH2 0x2760 JUMP JUMPDEST PUSH3 0x1E8480 DUP2 MSTORE PUSH2 0x386A JUMP JUMPDEST SWAP2 PUSH1 0x40 MLOAD SWAP4 PUSH2 0x1A7B DUP6 PUSH2 0x2791 JUMP JUMPDEST DUP5 MSTORE PUSH1 0x20 DUP5 ADD MSTORE PUSH1 0x40 DUP4 ADD MSTORE DUP4 PUSH1 0x60 DUP4 ADD MSTORE PUSH1 0x80 DUP3 ADD MSTORE PUSH1 0x40 MLOAD PUSH4 0xB0F479A1 PUSH1 0xE0 SHL DUP2 MSTORE PUSH1 0x20 DUP2 PUSH1 0x4 DUP2 ADDRESS GAS STATICCALL SWAP1 DUP2 ISZERO PUSH2 0x4AC JUMPI DUP5 SWAP2 PUSH2 0x2124 JUMPI JUMPDEST POP PUSH1 0x40 MLOAD PUSH4 0x20487DED PUSH1 0xE0 SHL DUP2 MSTORE SWAP2 PUSH1 0x20 DUP4 DUP1 PUSH2 0x1AF7 DUP5 PUSH32 0x0 PUSH1 0x4 DUP5 ADD PUSH2 0x3568 JUMP JUMPDEST SUB DUP2 PUSH1 0x1 PUSH1 0x1 PUSH1 0xA0 SHL SUB DUP7 AND GAS STATICCALL SWAP3 DUP4 ISZERO PUSH2 0x9A7 JUMPI DUP6 SWAP4 PUSH2 0x20F0 JUMPI JUMPDEST POP PUSH1 0x40 MLOAD PUSH4 0x70A08231 PUSH1 0xE0 SHL DUP2 MSTORE ADDRESS PUSH1 0x4 DUP3 ADD MSTORE PUSH1 0x20 DUP2 PUSH1 0x24 DUP2 PUSH32 0x0 PUSH1 0x1 PUSH1 0x1 PUSH1 0xA0 SHL SUB AND GAS STATICCALL SWAP1 DUP2 ISZERO PUSH2 0xA56 JUMPI DUP7 SWAP2 PUSH2 0x20BE JUMPI JUMPDEST POP PUSH2 0x204D JUMPI JUMPDEST PUSH1 0x40 MLOAD PUSH4 0x70A08231 PUSH1 0xE0 SHL DUP2 MSTORE ADDRESS PUSH1 0x4 DUP3 ADD MSTORE DUP6 SWAP1 PUSH1 0x20 DUP2 PUSH1 0x24 DUP2 PUSH32 0x0 PUSH1 0x1 PUSH1 0x1 PUSH1 0xA0 SHL SUB AND GAS STATICCALL DUP1 ISZERO PUSH2 0x427 JUMPI DUP3 SWAP1 PUSH2 0x2019 JUMPI JUMPDEST PUSH1 0x4 DUP1 SLOAD PUSH1 0x40 MLOAD PUSH4 0x95EA7B3 PUSH1 0xE0 SHL DUP2 MSTORE PUSH1 0x1 PUSH1 0x1 PUSH1 0xA0 SHL SUB SWAP1 SWAP2 AND SWAP2 DUP2 ADD SWAP2 SWAP1 SWAP2 MSTORE PUSH1 0x24 DUP2 ADD DUP3 SWAP1 MSTORE SWAP2 POP PUSH1 0x20 DUP3 DUP1 PUSH1 0x44 DUP2 ADD JUMPDEST SUB DUP2 DUP7 PUSH32 0x0 PUSH1 0x1 PUSH1 0x1 PUSH1 0xA0 SHL SUB AND GAS CALL SWAP2 DUP3 ISZERO PUSH2 0xE1A JUMPI PUSH1 0x20 SWAP3 PUSH2 0x1FFC JUMPI JUMPDEST POP PUSH1 0x40 MLOAD SWAP1 PUSH2 0x1C42 DUP3 PUSH2 0x27DA JUMP JUMPDEST PUSH1 0x1 PUSH1 0x1 PUSH1 0xA0 SHL SUB PUSH32 0x0 DUP2 AND DUP4 MSTORE PUSH32 0x0 DUP2 AND DUP5 DUP5 ADD SWAP1 DUP2 MSTORE PUSH2 0x1F4 PUSH1 0x40 DUP1 DUP7 ADD SWAP2 DUP3 MSTORE ADDRESS PUSH1 0x60 DUP8 ADD SWAP1 DUP2 MSTORE PUSH1 0x80 DUP8 ADD DUP13 DUP2 MSTORE PUSH1 0xA0 DUP9 ADD SWAP7 DUP8 MSTORE PUSH1 0xC0 DUP9 ADD DUP11 DUP2 MSTORE PUSH1 0x4 DUP1 SLOAD SWAP5 MLOAD PUSH4 0x5023B4DF PUSH1 0xE0 SHL DUP2 MSTORE SWAP10 MLOAD DUP9 AND SWAP1 DUP11 ADD MSTORE SWAP5 MLOAD DUP7 AND PUSH1 0x24 DUP10 ADD MSTORE SWAP3 MLOAD PUSH3 0xFFFFFF AND PUSH1 0x44 DUP9 ADD MSTORE MLOAD DUP5 AND PUSH1 0x64 DUP8 ADD MSTORE SWAP1 MLOAD PUSH1 0x84 DUP7 ADD MSTORE SWAP3 MLOAD PUSH1 0xA4 DUP6 ADD MSTORE MLOAD DUP2 AND PUSH1 0xC4 DUP5 ADD MSTORE SWAP2 SWAP4 DUP5 SWAP3 PUSH1 0xE4 SWAP3 DUP5 SWAP3 SWAP2 AND GAS CALL SWAP1 DUP2 ISZERO PUSH2 0xA56 JUMPI DUP7 SWAP2 PUSH2 0x1FCA JUMPI JUMPDEST POP PUSH32 0x0 PUSH1 0x1 PUSH1 0x1 PUSH1 0xA0 SHL SUB AND EXTCODESIZE ISZERO PUSH2 0x1FC6 JUMPI PUSH1 0x40 MLOAD PUSH4 0x2E1A7D4D PUSH1 0xE0 SHL DUP2 MSTORE PUSH1 0x4 DUP2 ADD DUP6 SWAP1 MSTORE DUP7 DUP2 PUSH1 0x24 DUP2 DUP4 PUSH32 0x0 PUSH1 0x1 PUSH1 0x1 PUSH1 0xA0 SHL SUB AND GAS CALL DUP1 ISZERO PUSH2 0x1FBB JUMPI PUSH2 0x1FA8 JUMPI JUMPDEST POP PUSH1 0x8 SSTORE SELFBALANCE DUP4 GT PUSH2 0x1F89 JUMPI DUP4 PUSH2 0x1F21 JUMPI JUMPDEST PUSH1 0x20 SWAP2 PUSH2 0x1DFD SWAP2 PUSH1 0x40 MLOAD SWAP5 DUP6 DUP1 SWAP5 DUP2 SWAP4 PUSH4 0x96F4E9F9 PUSH1 0xE0 SHL DUP4 MSTORE PUSH32 0x0 PUSH1 0x4 DUP5 ADD PUSH2 0x3568 JUMP JUMPDEST SUB SWAP3 PUSH1 0x1 PUSH1 0x1 PUSH1 0xA0 SHL SUB AND GAS CALL DUP1 ISZERO PUSH2 0x427 JUMPI PUSH2 0x1EF6 JUMPI JUMPDEST POP PUSH1 0x40 MLOAD PUSH4 0x70A08231 PUSH1 0xE0 SHL DUP2 MSTORE ADDRESS PUSH1 0x4 DUP3 ADD MSTORE PUSH1 0x20 DUP2 PUSH1 0x24 DUP2 PUSH32 0x0 PUSH1 0x1 PUSH1 0x1 PUSH1 0xA0 SHL SUB AND GAS STATICCALL SWAP2 DUP3 ISZERO PUSH2 0x1EEA JUMPI SWAP2 PUSH2 0x1EB8 JUMPI JUMPDEST POP ISZERO PUSH2 0x1640 JUMPI PUSH2 0x1640 PUSH32 0x0 PUSH32 0x0 PUSH2 0x3A75 JUMP JUMPDEST SWAP1 POP PUSH1 0x20 DUP2 RETURNDATASIZE PUSH1 0x20 GT PUSH2 0x1EE2 JUMPI JUMPDEST DUP2 PUSH2 0x1ED3 PUSH1 0x20 SWAP4 DUP4 PUSH2 0x2810 JUMP JUMPDEST DUP2 ADD SUB SLT PUSH2 0x1196 JUMPI MLOAD CODESIZE PUSH2 0x1E68 JUMP JUMPDEST RETURNDATASIZE SWAP2 POP PUSH2 0x1EC6 JUMP JUMPDEST PUSH1 0x40 MLOAD SWAP1 RETURNDATASIZE SWAP1 DUP3 RETURNDATACOPY RETURNDATASIZE SWAP1 REVERT JUMPDEST PUSH1 0x20 SWAP1 DUP2 RETURNDATASIZE DUP4 GT PUSH2 0x1F1A JUMPI JUMPDEST PUSH2 0x1F0C DUP2 DUP4 PUSH2 0x2810 JUMP JUMPDEST DUP2 ADD SUB SLT PUSH2 0x1196 JUMPI CODESIZE PUSH2 0x1E15 JUMP JUMPDEST POP RETURNDATASIZE PUSH2 0x1F02 JUMP JUMPDEST PUSH1 0x40 MLOAD PUSH4 0x95EA7B3 PUSH1 0xE0 SHL DUP2 MSTORE PUSH1 0x1 PUSH1 0x1 PUSH1 0xA0 SHL SUB DUP4 AND PUSH1 0x4 DUP3 ADD MSTORE PUSH1 0x24 DUP2 ADD DUP7 SWAP1 MSTORE PUSH1 0x20 DUP2 PUSH1 0x44 DUP2 DUP9 DUP1 GAS CALL DUP1 ISZERO PUSH2 0x9A7 JUMPI SWAP2 PUSH1 0x20 SWAP4 SWAP2 PUSH2 0x1DFD SWAP4 PUSH2 0x1F6C JUMPI JUMPDEST POP SWAP2 POP SWAP2 POP PUSH2 0x1DB9 JUMP JUMPDEST PUSH2 0x1F82 SWAP1 DUP6 RETURNDATASIZE DUP8 GT PUSH2 0x9DD JUMPI PUSH2 0x9CD DUP2 DUP4 PUSH2 0x2810 JUMP JUMPDEST POP CODESIZE PUSH2 0x1F62 JUMP JUMPDEST PUSH1 0x40 MLOAD PUSH4 0x4787A103 PUSH1 0xE1 SHL DUP2 MSTORE SELFBALANCE PUSH1 0x4 DUP3 ADD MSTORE PUSH1 0x24 DUP2 ADD DUP5 SWAP1 MSTORE PUSH1 0x44 SWAP1 REVERT JUMPDEST PUSH2 0x1FB3 SWAP2 SWAP6 POP PUSH2 0x27C7 JUMP JUMPDEST DUP5 SWAP4 CODESIZE PUSH2 0x1DA8 JUMP JUMPDEST PUSH1 0x40 MLOAD RETURNDATASIZE DUP10 DUP3 RETURNDATACOPY RETURNDATASIZE SWAP1 REVERT JUMPDEST DUP6 DUP1 REVERT JUMPDEST SWAP1 POP PUSH1 0x20 DUP2 RETURNDATASIZE PUSH1 0x20 GT PUSH2 0x1FF4 JUMPI JUMPDEST DUP2 PUSH2 0x1FE5 PUSH1 0x20 SWAP4 DUP4 PUSH2 0x2810 JUMP JUMPDEST DUP2 ADD SUB SLT PUSH2 0x1FC6 JUMPI MLOAD CODESIZE PUSH2 0x1D26 JUMP JUMPDEST RETURNDATASIZE SWAP2 POP PUSH2 0x1FD8 JUMP JUMPDEST PUSH2 0x2012 SWAP1 DUP4 RETURNDATASIZE DUP6 GT PUSH2 0x9DD JUMPI PUSH2 0x9CD DUP2 DUP4 PUSH2 0x2810 JUMP JUMPDEST POP CODESIZE PUSH2 0x1C34 JUMP JUMPDEST POP PUSH1 0x20 DUP2 RETURNDATASIZE PUSH1 0x20 GT PUSH2 0x2045 JUMPI JUMPDEST DUP2 PUSH2 0x2033 PUSH1 0x20 SWAP4 DUP4 PUSH2 0x2810 JUMP JUMPDEST DUP2 ADD SUB SLT PUSH2 0x1196 JUMPI PUSH2 0x1BF6 SWAP1 MLOAD PUSH2 0x1BC1 JUMP JUMPDEST RETURNDATASIZE SWAP2 POP PUSH2 0x2026 JUMP JUMPDEST PUSH2 0x20B8 PUSH32 0x0 PUSH32 0x0 PUSH32 0x0 PUSH2 0x38FA JUMP JUMPDEST POP PUSH2 0x1B6D JUMP JUMPDEST SWAP1 POP PUSH1 0x20 DUP2 RETURNDATASIZE PUSH1 0x20 GT PUSH2 0x20E8 JUMPI JUMPDEST DUP2 PUSH2 0x20D9 PUSH1 0x20 SWAP4 DUP4 PUSH2 0x2810 JUMP JUMPDEST DUP2 ADD SUB SLT PUSH2 0x1FC6 JUMPI MLOAD CODESIZE PUSH2 0x1B67 JUMP JUMPDEST RETURNDATASIZE SWAP2 POP PUSH2 0x20CC JUMP JUMPDEST SWAP1 SWAP3 POP PUSH1 0x20 DUP2 RETURNDATASIZE PUSH1 0x20 GT PUSH2 0x211C JUMPI JUMPDEST DUP2 PUSH2 0x210C PUSH1 0x20 SWAP4 DUP4 PUSH2 0x2810 JUMP JUMPDEST DUP2 ADD SUB SLT PUSH2 0x432 JUMPI MLOAD SWAP2 CODESIZE PUSH2 0x1B13 JUMP JUMPDEST RETURNDATASIZE SWAP2 POP PUSH2 0x20FF JUMP JUMPDEST PUSH2 0x2146 SWAP2 POP PUSH1 0x20 RETURNDATASIZE PUSH1 0x20 GT PUSH2 0x214C JUMPI JUMPDEST PUSH2 0x213E DUP2 DUP4 PUSH2 0x2810 JUMP JUMPDEST DUP2 ADD SWAP1 PUSH2 0x3509 JUMP JUMPDEST CODESIZE PUSH2 0x1AB6 JUMP JUMPDEST POP RETURNDATASIZE PUSH2 0x2134 JUMP JUMPDEST PUSH1 0x40 MLOAD PUSH3 0x461BCD PUSH1 0xE5 SHL DUP2 MSTORE PUSH1 0x20 PUSH1 0x4 DUP3 ADD MSTORE PUSH1 0xF PUSH1 0x24 DUP3 ADD MSTORE PUSH15 0x1A5B9D985B1A590818DBDB5B585B99 PUSH1 0x8A SHL PUSH1 0x44 DUP3 ADD MSTORE PUSH1 0x64 SWAP1 REVERT JUMPDEST PUSH1 0x40 DUP4 CALLDATASIZE SUB SLT PUSH2 0x118E JUMPI PUSH1 0x20 PUSH1 0x40 SWAP2 DUP3 MLOAD PUSH2 0x21A4 DUP2 PUSH2 0x27AC JUMP JUMPDEST PUSH2 0x21AD DUP7 PUSH2 0x2736 JUMP JUMPDEST DUP2 MSTORE DUP3 DUP7 ADD CALLDATALOAD DUP4 DUP3 ADD MSTORE DUP2 MSTORE ADD SWAP3 ADD SWAP2 PUSH2 0x14AF JUMP JUMPDEST PUSH1 0x40 MLOAD PUSH4 0x35FDCCCD PUSH1 0xE2 SHL DUP2 MSTORE CALLER PUSH1 0x4 DUP3 ADD MSTORE PUSH1 0x24 SWAP1 REVERT JUMPDEST DUP3 DUP1 REVERT JUMPDEST POP CALLVALUE PUSH2 0x246 JUMPI DUP1 PUSH1 0x3 NOT CALLDATASIZE ADD SLT PUSH2 0x246 JUMPI PUSH1 0x1 SLOAD PUSH1 0x1 PUSH1 0x1 PUSH1 0xA0 SHL SUB DUP1 DUP3 AND CALLER SUB PUSH2 0x2244 JUMPI DUP3 SLOAD PUSH1 0x1 PUSH1 0x1 PUSH1 0xA0 SHL SUB NOT DUP1 DUP3 AND CALLER SWAP1 DUP2 OR DUP7 SSTORE SWAP4 AND PUSH1 0x1 SSTORE AND PUSH32 0x8BE0079C531659141344CD1FD0A4F28419497F9722A3DAAFE3B4186F6B6457E0 DUP4 DUP1 LOG3 DUP1 RETURN JUMPDEST PUSH1 0x40 MLOAD PUSH3 0x461BCD PUSH1 0xE5 SHL DUP2 MSTORE PUSH1 0x20 PUSH1 0x4 DUP3 ADD MSTORE PUSH1 0x16 PUSH1 0x24 DUP3 ADD MSTORE PUSH22 0x26BAB9BA10313290383937B837B9B2B21037BBB732B9 PUSH1 0x51 SHL PUSH1 0x44 DUP3 ADD MSTORE PUSH1 0x64 SWAP1 REVERT JUMPDEST POP CALLVALUE PUSH2 0x246 JUMPI DUP1 PUSH1 0x3 NOT CALLDATASIZE ADD SLT PUSH2 0x246 JUMPI PUSH1 0x20 PUSH1 0x40 MLOAD PUSH1 0x1 PUSH1 0x1 PUSH1 0x40 SHL SUB PUSH32 0x0 AND DUP2 MSTORE RETURN JUMPDEST POP CALLVALUE PUSH2 0x246 JUMPI DUP1 PUSH1 0x3 NOT CALLDATASIZE ADD SLT PUSH2 0x246 JUMPI PUSH1 0x40 MLOAD PUSH32 0x0 PUSH1 0x1 PUSH1 0x1 PUSH1 0xA0 SHL SUB AND DUP2 MSTORE PUSH1 0x20 SWAP1 RETURN JUMPDEST POP CALLVALUE PUSH2 0x246 JUMPI PUSH1 0x40 CALLDATASIZE PUSH1 0x3 NOT ADD SLT PUSH2 0x246 JUMPI PUSH2 0x468 PUSH2 0x2328 PUSH2 0x274A JUMP JUMPDEST PUSH2 0x2330 PUSH2 0x2720 JUMP JUMPDEST SWAP1 PUSH32 0x0 SWAP1 PUSH2 0x239E DUP3 PUSH32 0x0 PUSH32 0x0 PUSH2 0x38FA JUMP JUMPDEST SWAP3 PUSH1 0x5 SLOAD SWAP2 PUSH1 0x40 MLOAD SWAP3 PUSH1 0x2 PUSH1 0x20 DUP6 ADD MSTORE PUSH1 0x40 DUP5 ADD MSTORE PUSH1 0x40 DUP4 MSTORE PUSH2 0x23C0 DUP4 PUSH2 0x27F5 JUMP JUMPDEST PUSH1 0x1 DUP1 SLOAD PUSH1 0xFF PUSH1 0xA0 SHL NOT AND SWAP1 SSTORE PUSH2 0x29B2 JUMP JUMPDEST POP CALLVALUE PUSH2 0x246 JUMPI PUSH1 0xA0 CALLDATASIZE PUSH1 0x3 NOT ADD SLT PUSH2 0x246 JUMPI PUSH2 0x23EC PUSH2 0x274A JUMP JUMPDEST SWAP1 PUSH2 0x23F5 PUSH2 0x2720 JUMP JUMPDEST PUSH1 0x1 PUSH1 0x1 PUSH1 0xA0 SHL SUB SWAP2 SWAP1 PUSH1 0x44 CALLDATALOAD DUP4 DUP2 AND SWAP1 DUP2 SWAP1 SUB PUSH2 0x21DA JUMPI PUSH1 0x64 CALLDATALOAD DUP5 DUP2 AND DUP1 SWAP2 SUB PUSH2 0x1192 JUMPI PUSH1 0x84 CALLDATALOAD SWAP6 PUSH1 0x1 PUSH1 0x1 PUSH1 0x40 SHL SUB DUP8 GT PUSH2 0x432 JUMPI PUSH2 0x243F PUSH2 0x24C1 SWAP6 SWAP7 SWAP8 CALLDATASIZE SWAP1 PUSH1 0x4 ADD PUSH2 0x2831 JUMP JUMPDEST PUSH1 0x40 MLOAD SWAP4 PUSH1 0x20 SWAP9 DUP10 SWAP7 AND DUP7 DUP7 ADD MSTORE DUP6 DUP6 MSTORE PUSH2 0x2459 DUP6 PUSH2 0x27AC JUMP JUMPDEST PUSH1 0x40 MLOAD PUSH2 0x2465 DUP2 PUSH2 0x2760 JUMP JUMPDEST DUP9 DUP2 MSTORE PUSH2 0x2482 PUSH1 0x40 MLOAD PUSH2 0x2477 DUP2 PUSH2 0x2760 JUMP JUMPDEST PUSH3 0xF4240 DUP2 MSTORE PUSH2 0x386A JUMP JUMPDEST SWAP3 PUSH1 0x40 MLOAD SWAP7 PUSH2 0x2490 DUP9 PUSH2 0x2791 JUMP JUMPDEST DUP8 MSTORE DUP8 DUP8 ADD MSTORE PUSH1 0x40 DUP7 ADD MSTORE PUSH1 0x60 DUP6 ADD MSTORE PUSH1 0x80 DUP5 ADD MSTORE PUSH1 0x40 MLOAD DUP1 SWAP6 DUP2 SWAP5 DUP3 SWAP4 PUSH4 0x20487DED PUSH1 0xE0 SHL DUP5 MSTORE PUSH1 0x4 DUP5 ADD PUSH2 0x3568 JUMP JUMPDEST SUB SWAP2 GAS STATICCALL SWAP2 DUP3 ISZERO PUSH2 0x1EEA JUMPI DUP1 SWAP3 PUSH2 0x24DD JUMPI JUMPDEST POP POP PUSH1 0x40 MLOAD SWAP1 DUP2 MSTORE RETURN JUMPDEST SWAP1 SWAP2 POP DUP3 DUP3 DUP2 RETURNDATASIZE DUP4 GT PUSH2 0x2506 JUMPI JUMPDEST PUSH2 0x24F5 DUP2 DUP4 PUSH2 0x2810 JUMP JUMPDEST DUP2 ADD SUB SLT PUSH2 0x246 JUMPI POP MLOAD CODESIZE DUP1 PUSH2 0x24D3 JUMP JUMPDEST POP RETURNDATASIZE PUSH2 0x24EB JUMP JUMPDEST POP CALLVALUE PUSH2 0x246 JUMPI DUP1 PUSH1 0x3 NOT CALLDATASIZE ADD SLT PUSH2 0x246 JUMPI PUSH1 0x20 PUSH1 0x5 SLOAD PUSH1 0x40 MLOAD SWAP1 DUP2 MSTORE RETURN JUMPDEST POP CALLVALUE PUSH2 0x246 JUMPI DUP1 PUSH1 0x3 NOT CALLDATASIZE ADD SLT PUSH2 0x246 JUMPI PUSH1 0x20 PUSH1 0x8 SLOAD PUSH1 0x40 MLOAD SWAP1 DUP2 MSTORE RETURN JUMPDEST POP CALLVALUE PUSH2 0x246 JUMPI DUP1 PUSH1 0x3 NOT CALLDATASIZE ADD SLT PUSH2 0x246 JUMPI PUSH1 0x40 MLOAD PUSH32 0x0 PUSH1 0x1 PUSH1 0x1 PUSH1 0xA0 SHL SUB AND DUP2 MSTORE PUSH1 0x20 SWAP1 RETURN JUMPDEST POP CALLVALUE PUSH2 0x246 JUMPI DUP1 PUSH1 0x3 NOT CALLDATASIZE ADD SLT PUSH2 0x246 JUMPI PUSH1 0x20 PUSH1 0xFF PUSH1 0x1 SLOAD PUSH1 0xA0 SHR AND PUSH1 0x40 MLOAD SWAP1 ISZERO ISZERO DUP2 MSTORE RETURN JUMPDEST POP CALLVALUE PUSH2 0x246 JUMPI PUSH1 0x40 CALLDATASIZE PUSH1 0x3 NOT ADD SLT PUSH2 0x246 JUMPI PUSH2 0x25CE PUSH2 0x270A JUMP JUMPDEST PUSH2 0x25D6 PUSH2 0x2720 JUMP JUMPDEST PUSH1 0x40 MLOAD PUSH4 0x35EA6A75 PUSH1 0xE0 SHL DUP2 MSTORE PUSH1 0x1 PUSH1 0x1 PUSH1 0xA0 SHL SUB SWAP2 DUP3 AND PUSH1 0x4 DUP3 ADD MSTORE PUSH2 0x180 SWAP3 SWAP1 SWAP2 DUP4 SWAP2 DUP4 SWAP2 PUSH1 0x24 SWAP2 DUP4 SWAP2 AND GAS STATICCALL SWAP2 DUP3 ISZERO PUSH2 0xE1A JUMPI PUSH1 0x20 SWAP4 SWAP3 PUSH2 0x261E JUMPI POP POP PUSH1 0x40 MLOAD SWAP1 DUP2 MSTORE RETURN JUMPDEST PUSH2 0x2634 SWAP3 POP DUP1 RETURNDATASIZE LT PUSH2 0x4A5 JUMPI PUSH2 0x488 DUP2 DUP4 PUSH2 0x2810 JUMP JUMPDEST POP POP POP POP POP POP SWAP5 POP POP POP POP POP CODESIZE DUP1 PUSH2 0x24D3 JUMP JUMPDEST POP CALLVALUE PUSH2 0x246 JUMPI DUP1 PUSH1 0x3 NOT CALLDATASIZE ADD SLT PUSH2 0x246 JUMPI PUSH1 0x4 SLOAD PUSH1 0x40 MLOAD PUSH1 0x1 PUSH1 0x1 PUSH1 0xA0 SHL SUB SWAP1 SWAP2 AND DUP2 MSTORE PUSH1 0x20 SWAP1 RETURN JUMPDEST POP CALLVALUE PUSH2 0x246 JUMPI DUP1 PUSH1 0x3 NOT CALLDATASIZE ADD SLT PUSH2 0x246 JUMPI PUSH1 0x40 MLOAD PUSH32 0x0 PUSH1 0x1 PUSH1 0x1 PUSH1 0xA0 SHL SUB AND DUP2 MSTORE PUSH1 0x20 SWAP1 RETURN JUMPDEST SWAP1 POP CALLVALUE PUSH2 0x1196 JUMPI PUSH1 0x20 CALLDATASIZE PUSH1 0x3 NOT ADD SLT PUSH2 0x1196 JUMPI PUSH1 0x4 CALLDATALOAD PUSH4 0xFFFFFFFF PUSH1 0xE0 SHL DUP2 AND DUP1 SWAP2 SUB PUSH2 0x21DA JUMPI PUSH1 0x20 SWAP3 POP PUSH4 0x85572FFB PUSH1 0xE0 SHL DUP2 EQ SWAP1 DUP2 ISZERO PUSH2 0x26F9 JUMPI JUMPDEST POP ISZERO ISZERO DUP2 MSTORE RETURN JUMPDEST PUSH4 0x1FFC9A7 PUSH1 0xE0 SHL EQ SWAP1 POP CODESIZE PUSH2 0x26F2 JUMP JUMPDEST PUSH1 0x4 CALLDATALOAD SWAP1 PUSH1 0x1 PUSH1 0x1 PUSH1 0xA0 SHL SUB DUP3 AND DUP3 SUB PUSH2 0xA4A JUMPI JUMP JUMPDEST PUSH1 0x24 CALLDATALOAD SWAP1 PUSH1 0x1 PUSH1 0x1 PUSH1 0xA0 SHL SUB DUP3 AND DUP3 SUB PUSH2 0xA4A JUMPI JUMP JUMPDEST CALLDATALOAD SWAP1 PUSH1 0x1 PUSH1 0x1 PUSH1 0xA0 SHL SUB DUP3 AND DUP3 SUB PUSH2 0xA4A JUMPI JUMP JUMPDEST PUSH1 0x4 CALLDATALOAD SWAP1 PUSH1 0x1 PUSH1 0x1 PUSH1 0x40 SHL SUB DUP3 AND DUP3 SUB PUSH2 0xA4A JUMPI JUMP JUMPDEST PUSH1 0x20 DUP2 ADD SWAP1 DUP2 LT PUSH1 0x1 PUSH1 0x1 PUSH1 0x40 SHL SUB DUP3 GT OR PUSH2 0x277B JUMPI PUSH1 0x40 MSTORE JUMP JUMPDEST PUSH4 0x4E487B71 PUSH1 0xE0 SHL PUSH1 0x0 MSTORE PUSH1 0x41 PUSH1 0x4 MSTORE PUSH1 0x24 PUSH1 0x0 REVERT JUMPDEST PUSH1 0xA0 DUP2 ADD SWAP1 DUP2 LT PUSH1 0x1 PUSH1 0x1 PUSH1 0x40 SHL SUB DUP3 GT OR PUSH2 0x277B JUMPI PUSH1 0x40 MSTORE JUMP JUMPDEST PUSH1 0x40 DUP2 ADD SWAP1 DUP2 LT PUSH1 0x1 PUSH1 0x1 PUSH1 0x40 SHL SUB DUP3 GT OR PUSH2 0x277B JUMPI PUSH1 0x40 MSTORE JUMP JUMPDEST PUSH1 0x1 PUSH1 0x1 PUSH1 0x40 SHL SUB DUP2 GT PUSH2 0x277B JUMPI PUSH1 0x40 MSTORE JUMP JUMPDEST PUSH1 0xE0 DUP2 ADD SWAP1 DUP2 LT PUSH1 0x1 PUSH1 0x1 PUSH1 0x40 SHL SUB DUP3 GT OR PUSH2 0x277B JUMPI PUSH1 0x40 MSTORE JUMP JUMPDEST PUSH1 0x60 DUP2 ADD SWAP1 DUP2 LT PUSH1 0x1 PUSH1 0x1 PUSH1 0x40 SHL SUB DUP3 GT OR PUSH2 0x277B JUMPI PUSH1 0x40 MSTORE JUMP JUMPDEST SWAP1 PUSH1 0x1F DUP1 NOT SWAP2 ADD AND DUP2 ADD SWAP1 DUP2 LT PUSH1 0x1 PUSH1 0x1 PUSH1 0x40 SHL SUB DUP3 GT OR PUSH2 0x277B JUMPI PUSH1 0x40 MSTORE JUMP JUMPDEST DUP2 PUSH1 0x1F DUP3 ADD SLT ISZERO PUSH2 0xA4A JUMPI DUP1 CALLDATALOAD SWAP1 PUSH1 0x1 PUSH1 0x1 PUSH1 0x40 SHL SUB DUP3 GT PUSH2 0x277B JUMPI PUSH1 0x40 MLOAD SWAP3 PUSH2 0x2865 PUSH1 0x1F DUP5 ADD PUSH1 0x1F NOT AND PUSH1 0x20 ADD DUP6 PUSH2 0x2810 JUMP JUMPDEST DUP3 DUP5 MSTORE PUSH1 0x20 DUP4 DUP4 ADD ADD GT PUSH2 0xA4A JUMPI DUP2 PUSH1 0x0 SWAP3 PUSH1 0x20 DUP1 SWAP4 ADD DUP4 DUP7 ADD CALLDATACOPY DUP4 ADD ADD MSTORE SWAP1 JUMP JUMPDEST PUSH1 0x1 PUSH1 0x1 PUSH1 0x40 SHL SUB DUP2 GT PUSH2 0x277B JUMPI PUSH1 0x5 SHL PUSH1 0x20 ADD SWAP1 JUMP JUMPDEST PUSH1 0x2 SLOAD DUP2 LT ISZERO PUSH2 0x28D5 JUMPI PUSH1 0x2 PUSH1 0x0 MSTORE PUSH32 0x405787FA12A823E0F2B7631CC41B3BA8828B3321CA811111FA75CD3AA3BB5ACE ADD SWAP1 PUSH1 0x0 SWAP1 JUMP JUMPDEST PUSH4 0x4E487B71 PUSH1 0xE0 SHL PUSH1 0x0 MSTORE PUSH1 0x32 PUSH1 0x4 MSTORE PUSH1 0x24 PUSH1 0x0 REVERT JUMPDEST DUP2 DUP2 MUL SWAP3 SWAP2 DUP2 ISZERO SWAP2 DUP5 DIV EQ OR ISZERO PUSH2 0x28FE JUMPI JUMP JUMPDEST PUSH4 0x4E487B71 PUSH1 0xE0 SHL PUSH1 0x0 MSTORE PUSH1 0x11 PUSH1 0x4 MSTORE PUSH1 0x24 PUSH1 0x0 REVERT JUMPDEST DUP2 ISZERO PUSH2 0x291E JUMPI DIV SWAP1 JUMP JUMPDEST PUSH4 0x4E487B71 PUSH1 0xE0 SHL PUSH1 0x0 MSTORE PUSH1 0x12 PUSH1 0x4 MSTORE PUSH1 0x24 PUSH1 0x0 REVERT JUMPDEST SWAP2 SWAP1 DUP3 SUB SWAP2 DUP3 GT PUSH2 0x28FE JUMPI JUMP JUMPDEST SWAP1 DUP2 PUSH1 0x20 SWAP2 SUB SLT PUSH2 0xA4A JUMPI MLOAD DUP1 ISZERO ISZERO DUP2 SUB PUSH2 0xA4A JUMPI SWAP1 JUMP JUMPDEST SWAP2 SWAP1 DUP3 ADD DUP1 SWAP3 GT PUSH2 0x28FE JUMPI JUMP JUMPDEST ISZERO PUSH2 0x296D JUMPI JUMP JUMPDEST PUSH1 0x40 MLOAD PUSH3 0x461BCD PUSH1 0xE5 SHL DUP2 MSTORE PUSH1 0x20 PUSH1 0x4 DUP3 ADD MSTORE PUSH1 0x1D PUSH1 0x24 DUP3 ADD MSTORE PUSH32 0x43616C6C6572206973206E6F7420616E20616C6C6F776564206E6F6465000000 PUSH1 0x44 DUP3 ADD MSTORE PUSH1 0x64 SWAP1 REVERT JUMPDEST SWAP1 SWAP2 PUSH1 0x0 SWAP5 PUSH2 0x29C3 PUSH2 0x14EE DUP6 PUSH2 0x3631 JUMP JUMPDEST DUP6 SWAP1 DUP1 PUSH2 0x307A JUMPI JUMPDEST POP PUSH2 0x29D8 DUP2 DUP7 DUP5 DUP8 PUSH2 0x36D0 JUMP JUMPDEST SWAP5 PUSH1 0x40 MLOAD SWAP5 PUSH4 0xB0F479A1 PUSH1 0xE0 SHL DUP7 MSTORE PUSH1 0x20 DUP7 PUSH1 0x4 DUP2 ADDRESS GAS STATICCALL SWAP6 DUP7 ISZERO PUSH2 0xE90 JUMPI DUP9 SWAP7 PUSH2 0x3059 JUMPI JUMPDEST POP PUSH1 0x40 MLOAD PUSH4 0x20487DED PUSH1 0xE0 SHL DUP2 MSTORE SWAP4 PUSH1 0x20 DUP6 DUP1 PUSH2 0x2A1F DUP12 DUP11 PUSH1 0x4 DUP5 ADD PUSH2 0x3568 JUMP JUMPDEST SUB DUP2 PUSH1 0x1 PUSH1 0x1 PUSH1 0xA0 SHL SUB DUP12 AND GAS STATICCALL SWAP5 DUP6 ISZERO PUSH2 0x9E4 JUMPI DUP10 SWAP6 PUSH2 0x3025 JUMPI JUMPDEST POP PUSH1 0x40 MLOAD PUSH4 0x70A08231 PUSH1 0xE0 SHL DUP2 MSTORE ADDRESS PUSH1 0x4 DUP3 ADD MSTORE PUSH1 0x20 DUP2 PUSH1 0x24 DUP2 PUSH32 0x0 PUSH1 0x1 PUSH1 0x1 PUSH1 0xA0 SHL SUB AND GAS STATICCALL SWAP1 DUP2 ISZERO PUSH2 0x2F28 JUMPI DUP11 SWAP2 PUSH2 0x2FF3 JUMPI JUMPDEST POP PUSH2 0x2F82 JUMPI JUMPDEST PUSH1 0x40 MLOAD PUSH4 0x70A08231 PUSH1 0xE0 SHL DUP2 MSTORE ADDRESS PUSH1 0x4 DUP3 ADD MSTORE PUSH1 0x20 DUP2 PUSH1 0x24 DUP2 PUSH32 0x0 PUSH1 0x1 PUSH1 0x1 PUSH1 0xA0 SHL SUB AND GAS STATICCALL SWAP1 DUP2 ISZERO PUSH2 0x2F28 JUMPI DUP11 SWAP2 PUSH2 0x2F50 JUMPI JUMPDEST POP PUSH1 0x4 DUP1 SLOAD PUSH1 0x40 MLOAD PUSH4 0x95EA7B3 PUSH1 0xE0 SHL DUP2 MSTORE PUSH1 0x1 PUSH1 0x1 PUSH1 0xA0 SHL SUB SWAP2 DUP3 AND SWAP3 DUP2 ADD SWAP3 SWAP1 SWAP3 MSTORE PUSH1 0x24 DUP3 ADD DUP4 SWAP1 MSTORE PUSH1 0x20 SWAP1 DUP3 SWAP1 PUSH1 0x44 SWAP1 DUP3 SWAP1 DUP16 SWAP1 PUSH32 0x0 AND GAS CALL DUP1 ISZERO PUSH2 0x2EE5 JUMPI SWAP2 PUSH1 0x20 SWAP2 DUP13 SWAP6 SWAP5 SWAP4 PUSH2 0x2F33 JUMPI JUMPDEST POP PUSH1 0x40 MLOAD SWAP1 PUSH2 0x2B64 DUP3 PUSH2 0x27DA JUMP JUMPDEST PUSH1 0x1 PUSH1 0x1 PUSH1 0xA0 SHL SUB PUSH32 0x0 DUP2 AND DUP4 MSTORE PUSH32 0x0 DUP2 AND DUP5 DUP5 ADD SWAP1 DUP2 MSTORE PUSH2 0x1F4 PUSH1 0x40 DUP1 DUP7 ADD SWAP2 DUP3 MSTORE ADDRESS PUSH1 0x60 DUP8 ADD SWAP1 DUP2 MSTORE PUSH1 0x80 DUP8 ADD DUP15 DUP2 MSTORE PUSH1 0xA0 DUP9 ADD SWAP7 DUP8 MSTORE PUSH1 0xC0 DUP9 ADD DUP13 DUP2 MSTORE PUSH1 0x4 DUP1 SLOAD SWAP5 MLOAD PUSH4 0x5023B4DF PUSH1 0xE0 SHL DUP2 MSTORE SWAP10 MLOAD DUP9 AND SWAP1 DUP11 ADD MSTORE SWAP5 MLOAD DUP7 AND PUSH1 0x24 DUP10 ADD MSTORE SWAP3 MLOAD PUSH3 0xFFFFFF AND PUSH1 0x44 DUP9 ADD MSTORE MLOAD DUP5 AND PUSH1 0x64 DUP8 ADD MSTORE SWAP1 MLOAD PUSH1 0x84 DUP7 ADD MSTORE SWAP3 MLOAD PUSH1 0xA4 DUP6 ADD MSTORE MLOAD DUP2 AND PUSH1 0xC4 DUP5 ADD MSTORE SWAP2 SWAP6 DUP7 SWAP3 PUSH1 0xE4 SWAP3 DUP5 SWAP3 SWAP2 AND GAS CALL SWAP3 DUP4 ISZERO PUSH2 0x2F28 JUMPI DUP11 SWAP4 PUSH2 0x2EF4 JUMPI JUMPDEST POP PUSH32 0x0 PUSH1 0x1 PUSH1 0x1 PUSH1 0xA0 SHL SUB AND EXTCODESIZE ISZERO PUSH2 0x2EF0 JUMPI PUSH1 0x40 MLOAD PUSH4 0x2E1A7D4D PUSH1 0xE0 SHL DUP2 MSTORE PUSH1 0x4 DUP2 ADD DUP8 SWAP1 MSTORE DUP11 DUP2 PUSH1 0x24 DUP2 DUP4 PUSH32 0x0 PUSH1 0x1 PUSH1 0x1 PUSH1 0xA0 SHL SUB AND GAS CALL DUP1 ISZERO PUSH2 0x2EE5 JUMPI PUSH2 0x2ED2 JUMPI JUMPDEST POP DUP5 PUSH2 0x2EB2 JUMPI JUMPDEST POP POP PUSH1 0x8 SSTORE SELFBALANCE DUP4 GT PUSH2 0x1F89 JUMPI PUSH1 0x1 PUSH1 0x1 PUSH1 0xA0 SHL SUB AND SWAP1 DUP2 PUSH2 0x2E3E JUMPI JUMPDEST POP POP SWAP2 PUSH2 0x2D15 SWAP5 SWAP4 SWAP2 PUSH1 0x20 SWAP4 PUSH1 0x40 MLOAD DUP1 SWAP8 DUP2 SWAP6 DUP3 SWAP5 PUSH4 0x96F4E9F9 PUSH1 0xE0 SHL DUP5 MSTORE PUSH1 0x4 DUP5 ADD PUSH2 0x3568 JUMP JUMPDEST SUB SWAP3 PUSH1 0x1 PUSH1 0x1 PUSH1 0xA0 SHL SUB AND GAS CALL SWAP2 DUP3 ISZERO PUSH2 0xE42 JUMPI DUP2 SWAP3 PUSH2 0x2E0A JUMPI JUMPDEST POP PUSH1 0x40 MLOAD PUSH4 0x70A08231 PUSH1 0xE0 SHL DUP2 MSTORE ADDRESS PUSH1 0x4 DUP3 ADD MSTORE PUSH1 0x20 DUP2 PUSH1 0x24 DUP2 PUSH32 0x0 PUSH1 0x1 PUSH1 0x1 PUSH1 0xA0 SHL SUB AND GAS STATICCALL SWAP2 DUP3 ISZERO PUSH2 0x1EEA JUMPI SWAP2 PUSH2 0x2DD8 JUMPI JUMPDEST POP PUSH2 0x2D8B JUMPI SWAP1 JUMP JUMPDEST PUSH2 0x2DD5 PUSH32 0x0 PUSH32 0x0 PUSH2 0x3A75 JUMP JUMPDEST SWAP1 JUMP JUMPDEST SWAP1 POP PUSH1 0x20 DUP2 RETURNDATASIZE PUSH1 0x20 GT PUSH2 0x2E02 JUMPI JUMPDEST DUP2 PUSH2 0x2DF3 PUSH1 0x20 SWAP4 DUP4 PUSH2 0x2810 JUMP JUMPDEST DUP2 ADD SUB SLT PUSH2 0xA4A JUMPI MLOAD CODESIZE PUSH2 0x2D83 JUMP JUMPDEST RETURNDATASIZE SWAP2 POP PUSH2 0x2DE6 JUMP JUMPDEST SWAP1 SWAP2 POP PUSH1 0x20 DUP2 RETURNDATASIZE PUSH1 0x20 GT PUSH2 0x2E36 JUMPI JUMPDEST DUP2 PUSH2 0x2E26 PUSH1 0x20 SWAP4 DUP4 PUSH2 0x2810 JUMP JUMPDEST DUP2 ADD SUB SLT PUSH2 0xA4A JUMPI MLOAD SWAP1 CODESIZE PUSH2 0x2D30 JUMP JUMPDEST RETURNDATASIZE SWAP2 POP PUSH2 0x2E19 JUMP JUMPDEST PUSH1 0x40 MLOAD PUSH4 0x95EA7B3 PUSH1 0xE0 SHL DUP2 MSTORE PUSH1 0x1 PUSH1 0x1 PUSH1 0xA0 SHL SUB DUP7 AND PUSH1 0x4 DUP3 ADD MSTORE PUSH1 0x24 DUP2 ADD SWAP2 SWAP1 SWAP2 MSTORE SWAP1 PUSH1 0x20 SWAP1 DUP3 SWAP1 PUSH1 0x44 SWAP1 DUP3 SWAP1 DUP11 SWAP1 GAS CALL DUP1 ISZERO PUSH2 0xA56 JUMPI SWAP2 PUSH2 0x2D15 SWAP7 SWAP6 SWAP4 SWAP2 PUSH1 0x20 SWAP6 SWAP4 PUSH2 0x2E95 JUMPI JUMPDEST POP SWAP2 SWAP4 DUP2 SWAP4 SWAP6 SWAP7 POP PUSH2 0x2CED JUMP JUMPDEST PUSH2 0x2EAB SWAP1 DUP7 RETURNDATASIZE DUP9 GT PUSH2 0x9DD JUMPI PUSH2 0x9CD DUP2 DUP4 PUSH2 0x2810 JUMP JUMPDEST POP CODESIZE PUSH2 0x2E88 JUMP JUMPDEST DUP3 SWAP9 POP DUP4 SWAP1 PUSH2 0x2EC4 PUSH2 0x2ECA SWAP5 DUP8 PUSH2 0x2934 JUMP JUMPDEST SWAP3 PUSH2 0x36D0 JUMP JUMPDEST SWAP6 CODESIZE DUP1 PUSH2 0x2CD1 JUMP JUMPDEST PUSH2 0x2EDE SWAP1 SWAP11 SWAP2 SWAP11 PUSH2 0x27C7 JUMP JUMPDEST SWAP9 CODESIZE PUSH2 0x2CCA JUMP JUMPDEST PUSH1 0x40 MLOAD RETURNDATASIZE DUP14 DUP3 RETURNDATACOPY RETURNDATASIZE SWAP1 REVERT JUMPDEST DUP10 DUP1 REVERT JUMPDEST SWAP1 SWAP3 POP PUSH1 0x20 DUP2 RETURNDATASIZE PUSH1 0x20 GT PUSH2 0x2F20 JUMPI JUMPDEST DUP2 PUSH2 0x2F10 PUSH1 0x20 SWAP4 DUP4 PUSH2 0x2810 JUMP JUMPDEST DUP2 ADD SUB SLT PUSH2 0x2EF0 JUMPI MLOAD SWAP2 CODESIZE PUSH2 0x2C48 JUMP JUMPDEST RETURNDATASIZE SWAP2 POP PUSH2 0x2F03 JUMP JUMPDEST PUSH1 0x40 MLOAD RETURNDATASIZE DUP13 DUP3 RETURNDATACOPY RETURNDATASIZE SWAP1 REVERT JUMPDEST PUSH2 0x2F49 SWAP1 DUP4 RETURNDATASIZE DUP6 GT PUSH2 0x9DD JUMPI PUSH2 0x9CD DUP2 DUP4 PUSH2 0x2810 JUMP JUMPDEST POP CODESIZE PUSH2 0x2B56 JUMP JUMPDEST SWAP1 POP PUSH1 0x20 DUP2 RETURNDATASIZE PUSH1 0x20 GT PUSH2 0x2F7A JUMPI JUMPDEST DUP2 PUSH2 0x2F6B PUSH1 0x20 SWAP4 DUP4 PUSH2 0x2810 JUMP JUMPDEST DUP2 ADD SUB SLT PUSH2 0x2EF0 JUMPI MLOAD CODESIZE PUSH2 0x2AE8 JUMP JUMPDEST RETURNDATASIZE SWAP2 POP PUSH2 0x2F5E JUMP JUMPDEST PUSH2 0x2FED PUSH32 0x0 PUSH32 0x0 PUSH32 0x0 PUSH2 0x38FA JUMP JUMPDEST POP PUSH2 0x2A95 JUMP JUMPDEST SWAP1 POP PUSH1 0x20 DUP2 RETURNDATASIZE PUSH1 0x20 GT PUSH2 0x301D JUMPI JUMPDEST DUP2 PUSH2 0x300E PUSH1 0x20 SWAP4 DUP4 PUSH2 0x2810 JUMP JUMPDEST DUP2 ADD SUB SLT PUSH2 0x2EF0 JUMPI MLOAD CODESIZE PUSH2 0x2A8F JUMP JUMPDEST RETURNDATASIZE SWAP2 POP PUSH2 0x3001 JUMP JUMPDEST SWAP1 SWAP5 POP PUSH1 0x20 DUP2 RETURNDATASIZE PUSH1 0x20 GT PUSH2 0x3051 JUMPI JUMPDEST DUP2 PUSH2 0x3041 PUSH1 0x20 SWAP4 DUP4 PUSH2 0x2810 JUMP JUMPDEST DUP2 ADD SUB SLT PUSH2 0x118E JUMPI MLOAD SWAP4 CODESIZE PUSH2 0x2A3B JUMP JUMPDEST RETURNDATASIZE SWAP2 POP PUSH2 0x3034 JUMP JUMPDEST PUSH2 0x3073 SWAP2 SWAP7 POP PUSH1 0x20 RETURNDATASIZE PUSH1 0x20 GT PUSH2 0x214C JUMPI PUSH2 0x213E DUP2 DUP4 PUSH2 0x2810 JUMP JUMPDEST SWAP5 CODESIZE PUSH2 0x29FE JUMP JUMPDEST SWAP1 POP CODESIZE PUSH2 0x29CB JUMP JUMPDEST SWAP3 SWAP1 SWAP2 PUSH2 0x3091 PUSH2 0x14EE DUP5 PUSH2 0x3631 JUMP JUMPDEST PUSH1 0x3 SLOAD PUSH1 0x40 DUP1 MLOAD PUSH1 0x1 PUSH1 0x1 PUSH1 0xA0 SHL SUB SWAP3 DUP4 AND SWAP7 SWAP2 SWAP4 SWAP1 SWAP2 PUSH2 0x30B1 DUP4 PUSH2 0x2791 JUMP JUMPDEST PUSH1 0x60 SWAP2 DUP3 DUP5 MSTORE DUP9 PUSH1 0x20 SWAP4 DUP1 DUP6 DUP8 ADD MSTORE DUP1 DUP9 DUP8 ADD MSTORE DUP1 PUSH1 0x80 PUSH1 0x0 SWAP8 DUP9 DUP4 DUP3 ADD MSTORE ADD MSTORE DUP8 MLOAD PUSH2 0x30DD DUP2 PUSH2 0x2760 JUMP JUMPDEST DUP7 DUP2 MSTORE DUP8 DUP10 MLOAD SWAP12 AND DUP7 DUP13 ADD MSTORE DUP6 DUP12 MSTORE PUSH2 0x30F5 DUP12 PUSH2 0x27AC JUMP JUMPDEST PUSH2 0x3103 DUP10 MLOAD PUSH2 0x1A62 DUP2 PUSH2 0x2760 JUMP JUMPDEST SWAP4 DUP10 MLOAD SWAP12 PUSH2 0x3110 DUP14 PUSH2 0x2791 JUMP JUMPDEST DUP13 MSTORE DUP7 DUP13 ADD MSTORE DUP9 DUP12 ADD MSTORE DUP10 ADD MSTORE PUSH1 0x80 DUP9 ADD MSTORE DUP5 MLOAD PUSH4 0xB0F479A1 PUSH1 0xE0 SHL DUP2 MSTORE SWAP8 PUSH1 0x4 SWAP2 DUP4 DUP11 DUP5 DUP2 ADDRESS GAS STATICCALL SWAP10 DUP11 ISZERO PUSH2 0x34FF JUMPI PUSH2 0x316D SWAP9 SWAP10 SWAP11 DUP8 SWAP2 DUP8 SWAP2 PUSH2 0x34E2 JUMPI JUMPDEST POP AND SWAP2 DUP5 DUP12 DUP10 MLOAD DUP1 SWAP12 DUP2 SWAP3 PUSH4 0x20487DED PUSH1 0xE0 SHL DUP4 MSTORE DUP7 DUP10 DUP5 ADD PUSH2 0x3568 JUMP JUMPDEST SUB DUP2 DUP7 GAS STATICCALL SWAP9 DUP10 ISZERO PUSH2 0x338D JUMPI DUP7 SWAP10 PUSH2 0x34B3 JUMPI JUMPDEST POP PUSH1 0x8 DUP7 SWAP1 SSTORE DUP8 MLOAD PUSH4 0x23B872DD PUSH1 0xE0 SHL DUP2 MSTORE CALLER DUP6 DUP3 ADD SWAP1 DUP2 MSTORE ADDRESS PUSH1 0x20 DUP3 ADD MSTORE PUSH1 0x40 DUP2 ADD DUP12 SWAP1 MSTORE SWAP1 SWAP2 DUP7 SWAP2 DUP4 SWAP2 SWAP1 DUP3 SWAP1 DUP11 SWAP1 DUP3 SWAP1 PUSH1 0x60 ADD SUB SWAP3 GAS CALL SWAP1 DUP2 ISZERO PUSH2 0x338D JUMPI DUP7 SWAP2 PUSH2 0x3496 JUMPI JUMPDEST POP ISZERO PUSH2 0x3453 JUMPI DUP6 PUSH1 0x3 SLOAD AND DUP8 MLOAD SWAP9 PUSH4 0x70A08231 PUSH1 0xE0 SHL SWAP10 DUP11 DUP2 MSTORE ADDRESS DUP7 DUP3 ADD MSTORE DUP7 DUP2 PUSH1 0x24 DUP2 DUP7 GAS STATICCALL SWAP1 DUP2 ISZERO PUSH2 0x3449 JUMPI DUP9 SWAP2 PUSH2 0x3418 JUMPI JUMPDEST POP DUP2 GT PUSH2 0x3397 JUMPI DUP9 MLOAD PUSH4 0x95EA7B3 PUSH1 0xE0 SHL DUP2 MSTORE PUSH1 0x1 PUSH1 0x1 PUSH1 0xA0 SHL SUB DUP6 AND DUP7 DUP3 ADD SWAP1 DUP2 MSTORE PUSH1 0x20 DUP2 ADD SWAP3 SWAP1 SWAP3 MSTORE SWAP2 DUP7 SWAP2 DUP4 SWAP2 SWAP1 DUP3 SWAP1 DUP11 SWAP1 DUP3 SWAP1 PUSH1 0x40 ADD SUB SWAP3 GAS CALL DUP1 ISZERO PUSH2 0x338D JUMPI SWAP2 DUP6 SWAP4 SWAP2 PUSH2 0x326C SWAP12 SWAP13 SWAP4 PUSH2 0x3370 JUMPI JUMPDEST POP DUP7 DUP10 MLOAD DUP1 SWAP13 DUP2 SWAP6 DUP3 SWAP5 PUSH4 0x96F4E9F9 PUSH1 0xE0 SHL DUP5 MSTORE DUP10 DUP5 ADD PUSH2 0x3568 JUMP JUMPDEST SUB SWAP3 GAS CALL SWAP7 DUP8 ISZERO PUSH2 0x3366 JUMPI DUP4 SWAP8 PUSH2 0x3337 JUMPI JUMPDEST POP DUP2 SWAP1 PUSH1 0x24 PUSH32 0x0 SWAP8 DUP8 MLOAD SWAP7 DUP8 SWAP4 DUP5 SWAP3 DUP4 MSTORE ADDRESS SWAP1 DUP4 ADD MSTORE DUP10 AND GAS STATICCALL SWAP4 DUP5 ISZERO PUSH2 0x332C JUMPI POP DUP2 SWAP4 PUSH2 0x32FB JUMPI JUMPDEST POP POP POP PUSH2 0x32D1 JUMPI POP SWAP1 JUMP JUMPDEST PUSH2 0x2DD5 SWAP1 PUSH32 0x0 PUSH2 0x3A75 JUMP JUMPDEST SWAP1 SWAP2 DUP1 SWAP4 POP DUP2 RETURNDATASIZE DUP4 GT PUSH2 0x3325 JUMPI JUMPDEST PUSH2 0x3313 DUP2 DUP4 PUSH2 0x2810 JUMP JUMPDEST DUP2 ADD SUB SLT PUSH2 0x246 JUMPI POP MLOAD CODESIZE DUP1 DUP1 PUSH2 0x32C6 JUMP JUMPDEST POP RETURNDATASIZE PUSH2 0x3309 JUMP JUMPDEST MLOAD SWAP2 RETURNDATASIZE SWAP2 POP DUP3 RETURNDATACOPY RETURNDATASIZE SWAP1 REVERT JUMPDEST SWAP1 SWAP7 POP DUP2 DUP2 DUP2 RETURNDATASIZE DUP4 GT PUSH2 0x335F JUMPI JUMPDEST PUSH2 0x334F DUP2 DUP4 PUSH2 0x2810 JUMP JUMPDEST DUP2 ADD SUB SLT PUSH2 0x21DA JUMPI MLOAD SWAP6 DUP2 PUSH2 0x327E JUMP JUMPDEST POP RETURNDATASIZE PUSH2 0x3345 JUMP JUMPDEST DUP6 MLOAD RETURNDATASIZE DUP6 DUP3 RETURNDATACOPY RETURNDATASIZE SWAP1 REVERT JUMPDEST PUSH2 0x3386 SWAP1 DUP6 RETURNDATASIZE DUP8 GT PUSH2 0x9DD JUMPI PUSH2 0x9CD DUP2 DUP4 PUSH2 0x2810 JUMP JUMPDEST POP CODESIZE PUSH2 0x3250 JUMP JUMPDEST DUP9 MLOAD RETURNDATASIZE DUP9 DUP3 RETURNDATACOPY RETURNDATASIZE SWAP1 REVERT JUMPDEST DUP5 SWAP1 DUP7 DUP11 DUP10 SWAP5 DUP3 DUP15 PUSH1 0x24 DUP5 MLOAD DUP1 SWAP5 DUP2 SWAP4 DUP3 MSTORE ADDRESS DUP11 DUP4 ADD MSTORE GAS STATICCALL SWAP3 DUP4 ISZERO PUSH2 0x340E JUMPI DUP7 SWAP4 PUSH2 0x33DA JUMPI JUMPDEST POP POP MLOAD PUSH4 0x4787A103 PUSH1 0xE1 SHL DUP2 MSTORE SWAP3 DUP4 ADD MSTORE PUSH1 0x24 DUP3 ADD MSTORE PUSH1 0x44 SWAP2 POP REVERT JUMPDEST SWAP1 DUP1 SWAP3 SWAP4 POP DUP2 RETURNDATASIZE DUP4 GT PUSH2 0x3407 JUMPI JUMPDEST PUSH2 0x33F2 DUP2 DUP4 PUSH2 0x2810 JUMP JUMPDEST DUP2 ADD SUB SLT PUSH2 0x432 JUMPI PUSH1 0x44 SWAP5 POP MLOAD SWAP1 DUP6 DUP1 PUSH2 0x33BE JUMP JUMPDEST POP RETURNDATASIZE PUSH2 0x33E8 JUMP JUMPDEST DUP3 MLOAD RETURNDATASIZE DUP9 DUP3 RETURNDATACOPY RETURNDATASIZE SWAP1 REVERT JUMPDEST SWAP1 POP DUP7 DUP2 DUP2 RETURNDATASIZE DUP4 GT PUSH2 0x3442 JUMPI JUMPDEST PUSH2 0x342F DUP2 DUP4 PUSH2 0x2810 JUMP JUMPDEST DUP2 ADD SUB SLT PUSH2 0x343E JUMPI MLOAD CODESIZE PUSH2 0x31FD JUMP JUMPDEST DUP8 DUP1 REVERT JUMPDEST POP RETURNDATASIZE PUSH2 0x3425 JUMP JUMPDEST DUP11 MLOAD RETURNDATASIZE DUP11 DUP3 RETURNDATACOPY RETURNDATASIZE SWAP1 REVERT JUMPDEST DUP7 MLOAD PUSH3 0x461BCD PUSH1 0xE5 SHL DUP2 MSTORE DUP1 DUP5 ADD DUP6 SWAP1 MSTORE PUSH1 0x1A PUSH1 0x24 DUP3 ADD MSTORE PUSH32 0x4E6F742070726F7669646564204C696E6B20666F722066656573000000000000 PUSH1 0x44 DUP3 ADD MSTORE PUSH1 0x64 SWAP1 REVERT JUMPDEST PUSH2 0x34AD SWAP2 POP DUP6 RETURNDATASIZE DUP8 GT PUSH2 0x9DD JUMPI PUSH2 0x9CD DUP2 DUP4 PUSH2 0x2810 JUMP JUMPDEST CODESIZE PUSH2 0x31C8 JUMP JUMPDEST SWAP1 SWAP9 POP DUP5 DUP2 DUP2 RETURNDATASIZE DUP4 GT PUSH2 0x34DB JUMPI JUMPDEST PUSH2 0x34CB DUP2 DUP4 PUSH2 0x2810 JUMP JUMPDEST DUP2 ADD SUB SLT PUSH2 0x1FC6 JUMPI MLOAD SWAP8 DUP5 PUSH2 0x3180 JUMP JUMPDEST POP RETURNDATASIZE PUSH2 0x34C1 JUMP JUMPDEST PUSH2 0x34F9 SWAP2 POP DUP7 RETURNDATASIZE DUP9 GT PUSH2 0x214C JUMPI PUSH2 0x213E DUP2 DUP4 PUSH2 0x2810 JUMP JUMPDEST CODESIZE PUSH2 0x314F JUMP JUMPDEST DUP8 MLOAD RETURNDATASIZE DUP8 DUP3 RETURNDATACOPY RETURNDATASIZE SWAP1 REVERT JUMPDEST SWAP1 DUP2 PUSH1 0x20 SWAP2 SUB SLT PUSH2 0xA4A JUMPI MLOAD PUSH1 0x1 PUSH1 0x1 PUSH1 0xA0 SHL SUB DUP2 AND DUP2 SUB PUSH2 0xA4A JUMPI SWAP1 JUMP JUMPDEST SWAP2 SWAP1 DUP3 MLOAD SWAP3 DUP4 DUP3 MSTORE PUSH1 0x0 JUMPDEST DUP5 DUP2 LT PUSH2 0x3554 JUMPI POP POP DUP3 PUSH1 0x0 PUSH1 0x20 DUP1 SWAP5 SWAP6 DUP5 ADD ADD MSTORE PUSH1 0x1F DUP1 NOT SWAP2 ADD AND ADD ADD SWAP1 JUMP JUMPDEST PUSH1 0x20 DUP2 DUP4 ADD DUP2 ADD MLOAD DUP5 DUP4 ADD DUP3 ADD MSTORE ADD PUSH2 0x3533 JUMP JUMPDEST SWAP1 PUSH1 0x1 PUSH1 0x1 PUSH1 0x40 SHL SUB SWAP1 SWAP4 SWAP3 SWAP4 AND DUP2 MSTORE PUSH1 0x40 PUSH1 0x20 SWAP2 DUP2 DUP4 DUP3 ADD MSTORE PUSH2 0x3597 DUP6 MLOAD PUSH1 0xA0 DUP5 DUP5 ADD MSTORE PUSH1 0xE0 DUP4 ADD SWAP1 PUSH2 0x3528 JUMP JUMPDEST SWAP2 PUSH2 0x35B3 DUP5 DUP8 ADD MLOAD SWAP4 PUSH1 0x3F NOT SWAP5 DUP6 DUP6 DUP4 SUB ADD PUSH1 0x60 DUP7 ADD MSTORE PUSH2 0x3528 JUMP JUMPDEST DUP2 DUP8 ADD MLOAD SWAP5 DUP5 DUP5 DUP4 SUB ADD PUSH1 0x80 DUP6 ADD MSTORE DUP1 DUP1 DUP8 MLOAD SWAP4 DUP5 DUP2 MSTORE ADD SWAP7 ADD SWAP3 PUSH1 0x0 SWAP1 JUMPDEST DUP4 DUP3 LT PUSH2 0x3608 JUMPI POP POP POP POP POP PUSH1 0xC0 PUSH1 0x80 PUSH2 0x2DD5 SWAP6 SWAP7 PUSH1 0x1 DUP1 PUSH1 0xA0 SHL SUB PUSH1 0x60 DUP3 ADD MLOAD AND PUSH1 0xA0 DUP6 ADD MSTORE ADD MLOAD SWAP3 DUP3 DUP6 SUB ADD SWAP2 ADD MSTORE PUSH2 0x3528 JUMP JUMPDEST DUP5 MLOAD DUP1 MLOAD PUSH1 0x1 PUSH1 0x1 PUSH1 0xA0 SHL SUB AND DUP10 MSTORE DUP4 ADD MLOAD DUP9 DUP5 ADD MSTORE SWAP7 DUP8 ADD SWAP7 SWAP4 DUP3 ADD SWAP4 PUSH1 0x1 SWAP1 SWAP2 ADD SWAP1 PUSH2 0x35D2 JUMP JUMPDEST PUSH1 0x2 SLOAD PUSH1 0x0 JUMPDEST DUP2 PUSH2 0xFFFF DUP3 AND LT PUSH2 0x3681 JUMPI POP POP PUSH32 0x0 PUSH1 0x1 PUSH1 0x1 PUSH1 0xA0 SHL SUB SWAP1 DUP2 AND SWAP2 AND EQ PUSH2 0x367C JUMPI PUSH1 0x0 SWAP1 JUMP JUMPDEST PUSH1 0x1 SWAP1 JUMP JUMPDEST PUSH2 0x368A DUP2 PUSH2 0x289E JUMP JUMPDEST SWAP1 SLOAD PUSH1 0x3 SWAP2 SWAP1 SWAP2 SHL SHR PUSH1 0x1 PUSH1 0x1 PUSH1 0xA0 SHL SUB SWAP1 DUP2 AND SWAP1 DUP5 AND EQ PUSH2 0x36BB JUMPI PUSH2 0xFFFF DUP1 SWAP2 AND SWAP1 DUP2 EQ PUSH2 0x28FE JUMPI PUSH1 0x1 ADD PUSH2 0x3637 JUMP JUMPDEST POP POP POP PUSH1 0x1 SWAP1 JUMP JUMPDEST DUP1 MLOAD ISZERO PUSH2 0x28D5 JUMPI PUSH1 0x20 ADD SWAP1 JUMP JUMPDEST SWAP3 SWAP2 SWAP1 PUSH1 0x40 SWAP2 DUP3 MLOAD SWAP3 PUSH2 0x36E2 DUP5 PUSH2 0x2791 JUMP JUMPDEST PUSH1 0x60 SWAP3 DUP4 DUP6 MSTORE PUSH1 0x20 SWAP6 DUP5 DUP8 DUP8 ADD MSTORE DUP5 DUP4 DUP8 ADD MSTORE DUP5 PUSH1 0x80 PUSH1 0x0 SWAP8 DUP9 DUP4 DUP3 ADD MSTORE ADD MSTORE PUSH1 0x1 DUP1 PUSH1 0xA0 SHL SUB DUP1 SWAP5 AND DUP1 ISZERO DUP1 PUSH2 0x37DB JUMPI JUMPDEST ISZERO PUSH2 0x376D JUMPI POP POP DUP2 MLOAD PUSH2 0x3726 DUP2 PUSH2 0x2760 JUMP JUMPDEST DUP6 DUP2 MSTORE SWAP3 JUMPDEST DUP3 MLOAD SWAP8 AND DUP7 DUP9 ADD MSTORE DUP6 DUP8 MSTORE PUSH2 0x373F DUP8 PUSH2 0x27AC JUMP JUMPDEST PUSH2 0x374D DUP3 MLOAD PUSH2 0x1A62 DUP2 PUSH2 0x2760 JUMP JUMPDEST SWAP6 DUP3 MLOAD SWAP8 PUSH2 0x375A DUP10 PUSH2 0x2791 JUMP JUMPDEST DUP9 MSTORE DUP8 ADD MSTORE DUP6 ADD MSTORE DUP4 ADD MSTORE PUSH1 0x80 DUP3 ADD MSTORE SWAP1 JUMP JUMPDEST DUP4 SWAP5 SWAP2 SWAP5 MLOAD SWAP1 PUSH2 0x377C DUP3 PUSH2 0x27AC JUMP JUMPDEST PUSH1 0x1 DUP3 MSTORE DUP9 DUP9 JUMPDEST DUP2 DUP2 LT PUSH2 0x37BA JUMPI POP POP SWAP1 PUSH2 0x37B4 SWAP2 DUP2 SWAP7 DUP7 MLOAD SWAP2 PUSH2 0x379F DUP4 PUSH2 0x27AC JUMP JUMPDEST DUP3 MSTORE DUP11 DUP3 ADD MSTORE PUSH2 0x37AE DUP3 PUSH2 0x36C3 JUMP JUMPDEST MSTORE PUSH2 0x36C3 JUMP JUMPDEST POP PUSH2 0x372B JUMP JUMPDEST DUP7 MLOAD PUSH2 0x37C5 DUP2 PUSH2 0x27AC JUMP JUMPDEST DUP11 DUP2 MSTORE DUP11 DUP4 DUP3 ADD MSTORE DUP3 DUP3 DUP7 ADD ADD MSTORE ADD DUP10 SWAP1 PUSH2 0x3783 JUMP JUMPDEST POP DUP2 ISZERO PUSH2 0x3714 JUMP JUMPDEST SWAP2 SWAP1 DUP3 PUSH2 0x180 SWAP2 SUB SLT PUSH2 0xA4A JUMPI DUP2 MLOAD SWAP2 PUSH1 0x20 DUP2 ADD MLOAD SWAP2 PUSH1 0x40 DUP3 ADD MLOAD SWAP2 PUSH1 0x60 DUP2 ADD MLOAD SWAP2 PUSH1 0x80 DUP3 ADD MLOAD SWAP2 PUSH1 0xA0 DUP2 ADD MLOAD SWAP2 PUSH1 0xC0 DUP3 ADD MLOAD SWAP2 PUSH1 0xE0 DUP2 ADD MLOAD SWAP2 PUSH2 0x100 DUP3 ADD MLOAD SWAP2 PUSH2 0x120 DUP2 ADD MLOAD SWAP2 PUSH2 0x160 PUSH2 0x140 DUP4 ADD MLOAD SWAP3 ADD MLOAD PUSH5 0xFFFFFFFFFF DUP2 AND DUP2 SUB PUSH2 0xA4A JUMPI SWAP1 JUMP JUMPDEST MLOAD SWAP1 PUSH1 0x1 PUSH1 0x1 PUSH1 0xA0 SHL SUB DUP3 AND DUP3 SUB PUSH2 0xA4A JUMPI JUMP JUMPDEST MLOAD SWAP1 PUSH1 0xFF DUP3 AND DUP3 SUB PUSH2 0xA4A JUMPI JUMP JUMPDEST PUSH1 0x40 MLOAD SWAP1 PUSH4 0x97A657C9 PUSH1 0xE0 SHL PUSH1 0x20 DUP4 ADD MSTORE MLOAD PUSH1 0x24 DUP3 ADD MSTORE PUSH1 0x24 DUP2 MSTORE PUSH1 0x60 DUP2 ADD DUP2 DUP2 LT PUSH1 0x1 PUSH1 0x1 PUSH1 0x40 SHL SUB DUP3 GT OR PUSH2 0x277B JUMPI PUSH1 0x40 MSTORE SWAP1 JUMP JUMPDEST PUSH1 0x40 MLOAD PUSH4 0x26B1D5F PUSH1 0xE0 SHL DUP2 MSTORE SWAP1 PUSH1 0x20 SWAP1 DUP3 SWAP1 PUSH1 0x4 SWAP1 DUP3 SWAP1 PUSH1 0x1 PUSH1 0x1 PUSH1 0xA0 SHL SUB AND GAS STATICCALL SWAP1 DUP2 ISZERO PUSH2 0x38EE JUMPI PUSH1 0x0 SWAP2 PUSH2 0x38D6 JUMPI POP SWAP1 JUMP JUMPDEST PUSH2 0x2DD5 SWAP2 POP PUSH1 0x20 RETURNDATASIZE DUP2 GT PUSH2 0x214C JUMPI PUSH2 0x213E DUP2 DUP4 PUSH2 0x2810 JUMP JUMPDEST PUSH1 0x40 MLOAD RETURNDATASIZE PUSH1 0x0 DUP3 RETURNDATACOPY RETURNDATASIZE SWAP1 REVERT JUMPDEST PUSH1 0x40 DUP1 MLOAD PUSH4 0x70A08231 PUSH1 0xE0 SHL DUP2 MSTORE ADDRESS PUSH1 0x4 DUP3 ADD MSTORE SWAP4 SWAP5 SWAP4 SWAP1 SWAP3 PUSH1 0x20 SWAP3 PUSH1 0x1 PUSH1 0x1 PUSH1 0xA0 SHL SUB SWAP2 DUP3 AND SWAP3 SWAP2 SWAP1 DUP5 DUP4 PUSH1 0x24 DUP2 DUP8 GAS STATICCALL SWAP3 DUP4 ISZERO PUSH2 0x3A39 JUMPI PUSH1 0x0 SWAP4 PUSH2 0x3A44 JUMPI JUMPDEST POP PUSH2 0x3945 SWAP1 PUSH2 0x38A1 JUMP JUMPDEST DUP6 MLOAD PUSH4 0x95EA7B3 PUSH1 0xE0 SHL DUP2 MSTORE PUSH1 0x1 PUSH1 0x1 PUSH1 0xA0 SHL SUB DUP3 AND PUSH1 0x4 DUP3 ADD MSTORE PUSH1 0x24 DUP2 ADD DUP5 SWAP1 MSTORE SWAP1 SWAP4 DUP6 SWAP1 DUP3 SWAP1 PUSH1 0x44 SWAP1 DUP3 SWAP1 PUSH1 0x0 SWAP1 GAS CALL DUP1 ISZERO PUSH2 0x3A39 JUMPI DUP6 SWAP5 SWAP3 PUSH2 0x39CB SWAP9 SWAP10 SWAP5 SWAP3 PUSH1 0x0 SWAP3 PUSH2 0x3A1C JUMPI JUMPDEST POP DUP8 MLOAD PUSH4 0x1A4CA37B PUSH1 0xE2 SHL DUP2 MSTORE PUSH1 0x1 PUSH1 0x1 PUSH1 0xA0 SHL SUB SWAP1 SWAP6 AND PUSH1 0x4 DUP7 ADD MSTORE PUSH1 0x24 DUP6 ADD SWAP3 SWAP1 SWAP3 MSTORE ADDRESS PUSH1 0x44 DUP6 ADD MSTORE SWAP3 SWAP7 DUP8 SWAP4 DUP5 SWAP3 SWAP1 SWAP2 DUP4 SWAP1 PUSH1 0x64 DUP3 ADD SWAP1 JUMP JUMPDEST SUB SWAP4 AND GAS CALL SWAP2 DUP3 ISZERO PUSH2 0x3A12 JUMPI POP PUSH1 0x0 SWAP2 PUSH2 0x39E6 JUMPI JUMPDEST POP SWAP1 POP SWAP1 JUMP JUMPDEST DUP3 DUP2 RETURNDATASIZE DUP4 GT PUSH2 0x3A0B JUMPI JUMPDEST PUSH2 0x39FA DUP2 DUP4 PUSH2 0x2810 JUMP JUMPDEST DUP2 ADD SUB SLT PUSH2 0x246 JUMPI POP MLOAD DUP1 CODESIZE PUSH2 0x39E0 JUMP JUMPDEST POP RETURNDATASIZE PUSH2 0x39F0 JUMP JUMPDEST MLOAD RETURNDATASIZE PUSH1 0x0 DUP3 RETURNDATACOPY RETURNDATASIZE SWAP1 REVERT JUMPDEST PUSH2 0x3A32 SWAP1 DUP8 RETURNDATASIZE DUP10 GT PUSH2 0x9DD JUMPI PUSH2 0x9CD DUP2 DUP4 PUSH2 0x2810 JUMP JUMPDEST POP CODESIZE PUSH2 0x398F JUMP JUMPDEST DUP7 MLOAD RETURNDATASIZE PUSH1 0x0 DUP3 RETURNDATACOPY RETURNDATASIZE SWAP1 REVERT JUMPDEST SWAP1 SWAP3 DUP6 DUP3 DUP2 RETURNDATASIZE DUP4 GT PUSH2 0x3A6E JUMPI JUMPDEST PUSH2 0x3A5B DUP2 DUP4 PUSH2 0x2810 JUMP JUMPDEST DUP2 ADD SUB SLT PUSH2 0x246 JUMPI POP MLOAD SWAP2 PUSH2 0x3945 PUSH2 0x393B JUMP JUMPDEST POP RETURNDATASIZE PUSH2 0x3A51 JUMP JUMPDEST PUSH1 0x40 DUP1 MLOAD PUSH4 0x70A08231 PUSH1 0xE0 SHL DUP2 MSTORE ADDRESS PUSH1 0x4 DUP3 ADD MSTORE SWAP1 SWAP2 PUSH1 0x1 PUSH1 0x1 PUSH1 0xA0 SHL SUB SWAP1 DUP5 DUP3 AND SWAP1 PUSH1 0x20 SWAP1 DUP2 DUP6 PUSH1 0x24 DUP2 DUP7 GAS STATICCALL SWAP5 DUP6 ISZERO PUSH2 0x3A39 JUMPI PUSH1 0x0 SWAP6 PUSH2 0x3B7D JUMPI JUMPDEST POP PUSH2 0x3ABC SWAP1 PUSH2 0x38A1 JUMP JUMPDEST DUP6 MLOAD PUSH4 0x95EA7B3 PUSH1 0xE0 SHL DUP2 MSTORE PUSH1 0x1 PUSH1 0x1 PUSH1 0xA0 SHL SUB DUP3 AND PUSH1 0x4 DUP3 ADD MSTORE PUSH1 0x24 DUP2 ADD DUP7 SWAP1 MSTORE SWAP1 SWAP3 DUP3 SWAP1 DUP3 SWAP1 PUSH1 0x44 SWAP1 DUP3 SWAP1 PUSH1 0x0 SWAP1 GAS CALL DUP1 ISZERO PUSH2 0x3A39 JUMPI PUSH2 0x3B5F JUMPI JUMPDEST POP POP AND SWAP3 DUP4 EXTCODESIZE ISZERO PUSH2 0xA4A JUMPI DUP3 MLOAD PUSH4 0xE8EDA9DF PUSH1 0xE0 SHL DUP2 MSTORE PUSH1 0x1 PUSH1 0x1 PUSH1 0xA0 SHL SUB SWAP2 SWAP1 SWAP2 AND PUSH1 0x4 DUP3 ADD MSTORE PUSH1 0x24 DUP2 ADD SWAP2 SWAP1 SWAP2 MSTORE ADDRESS PUSH1 0x44 DUP3 ADD MSTORE PUSH1 0x0 PUSH1 0x64 DUP3 ADD DUP2 SWAP1 MSTORE SWAP1 SWAP3 DUP4 SWAP1 PUSH1 0x84 SWAP1 DUP3 SWAP1 DUP5 SWAP1 GAS CALL SWAP1 DUP2 ISZERO PUSH2 0x3A12 JUMPI POP PUSH2 0x3B54 JUMPI POP JUMP JUMPDEST PUSH2 0x3B5D SWAP1 PUSH2 0x27C7 JUMP JUMPDEST JUMP JUMPDEST DUP2 PUSH2 0x3B75 SWAP3 SWAP1 RETURNDATASIZE LT PUSH2 0x9DD JUMPI PUSH2 0x9CD DUP2 DUP4 PUSH2 0x2810 JUMP JUMPDEST POP CODESIZE DUP1 PUSH2 0x3AF9 JUMP JUMPDEST SWAP1 SWAP5 DUP3 DUP3 DUP2 RETURNDATASIZE DUP4 GT PUSH2 0x3BA7 JUMPI JUMPDEST PUSH2 0x3B94 DUP2 DUP4 PUSH2 0x2810 JUMP JUMPDEST DUP2 ADD SUB SLT PUSH2 0x246 JUMPI POP MLOAD SWAP4 PUSH2 0x3ABC PUSH2 0x3AB2 JUMP JUMPDEST POP RETURNDATASIZE PUSH2 0x3B8A JUMP JUMPDEST PUSH1 0x0 SLOAD PUSH1 0x1 PUSH1 0x1 PUSH1 0xA0 SHL SUB AND CALLER SUB PUSH2 0x3BC2 JUMPI JUMP JUMPDEST PUSH1 0x40 MLOAD PUSH3 0x461BCD PUSH1 0xE5 SHL DUP2 MSTORE PUSH1 0x20 PUSH1 0x4 DUP3 ADD MSTORE PUSH1 0x16 PUSH1 0x24 DUP3 ADD MSTORE PUSH22 0x27B7363C9031B0B63630B1363290313C9037BBB732B9 PUSH1 0x51 SHL PUSH1 0x44 DUP3 ADD MSTORE PUSH1 0x64 SWAP1 REVERT INVALID LOG2 PUSH5 0x6970667358 0x22 SLT KECCAK256 TIMESTAMP PUSH23 0x7B9569AE27227D38EABB1C55CACBB076244C0069AEAF85 0xDA EXTCODECOPY 0xC9 0x5F MSTORE8 0xDB SELFDESTRUCT PUSH5 0x736F6C6343 STOP ADDMOD SGT STOP CALLER ",
  "sha1": "b6b861496a0d1c378ef7fc3b736591f68fa05874",
  "source": "// SPDX-License-Identifier: MIT\npragma solidity 0.8.19;\n\nimport {IRouterClient} from \"@chainlink/contracts/src/v0.8/ccip/interfaces/IRouterClient.sol\";\nimport {OwnerIsCreator} from \"@chainlink/contracts/src/v0.8/shared/access/OwnerIsCreator.sol\";\nimport {Client} from \"@chainlink/contracts/src/v0.8/ccip/libraries/Client.sol\";\nimport {CCIPReceiver} from \"@chainlink/contracts/src/v0.8/ccip/applications/CCIPReceiver.sol\";\nimport {IERC20} from \"@chainlink/contracts/src/v0.8/vendor/openzeppelin-solidity/v4.8.3/contracts/token/ERC20/IERC20.sol\";\nimport {SafeERC20} from \"@chainlink/contracts/src/v0.8/vendor/openzeppelin-solidity/v4.8.3/contracts/token/ERC20/utils/SafeERC20.sol\";\nimport \"./utils_node/UtilsNode.sol\";\nimport \"../interfaces/IWETH9.sol\";\n\n//uniswap V3\nimport \"../interfaces/uniswap_V3/swap/ISwapRouter02.sol\";\n\n//AAVE interfaces\nimport \"../interfaces/IPool.sol\";\nimport \"../interfaces/IPoolDataProvider.sol\";\n//master contract interface\nimport \"../interfaces/IMasterNode.sol\";\n\ncontract Node is CCIPReceiver, OwnerIsCreator, UtilsNode {\n    using SafeERC20 for IERC20;\n\n    // Custom errors to provide more descriptive revert messages.\n    error NotEnoughBalance(uint256 currentBalance, uint256 calculatedFees); // Used to make sure contract has enough balance to cover the fees.\n    error NothingToWithdraw(); // Used when trying to withdraw Ether but there's nothing to withdraw.\n    error FailedToWithdrawEth(address owner, address target, uint256 value); // Used when the withdrawal of Ether fails.\n    error DestinationChainNotAllowed(uint64 destinationChainSelector); // Used when the destination chain has not been allowlisted by the contract owner.\n    error SourceChainNotAllowed(uint64 sourceChainSelector); // Used when the source chain has not been allowlisted by the contract owner.\n    error SenderNotAllowed(address sender); // Used when the sender has not been allowlisted by the contract owner.\n\n    bool public isNodeActive;\n\n    address[] public allowedNodes;\n\n    /// TESTER ////\n    uint64 public immutable MASTER_CONTRACT_CHAIN_ID;\n    address public immutable MASTER_CONTRACT_ADDRESS;\n    uint64 public immutable NODE_CONTRACT_CHAIN_ID;\n    address public immutable POOL_ADDRESS_PROVIDER_ADDRESS;\n    address public immutable POOL_DATA_PROVIDER_ADDRESS;\n    address public immutable USDC_ADDRESS;\n    address public immutable aUSDC_ADDRESS;\n    address public immutable WETH_ADDRESS;\n\n    IERC20 private s_linkToken;\n    ISwapRouter02 public iSwapRouter02;\n\n    uint256 public aWrpTotalSupplyNodeSide;\n\n    mapping(address => uint256) public avaliableForRefund;\n\n    ////////////////////////////////////////////////////////////////////////\n    ///////////////////////  TESTING  ///////////////////////////////////////\n    ////////////////////////////////////////////////////////////////////////\n    uint8 public commandTESTER;\n    uint64 public _destinationChainSelectorTESTER;\n    address public _receiverTESTER;\n\n    uint256 public tester_amount_in;\n\n    bool public resumeOperations;\n\n    ////////////////////////////////////////////////////////////////////////\n    ////////////////////////////////////////////////////////////////////////\n\n    /// @notice Constructor initializes the contract with the router address.\n    /// @param _router The address of the router contract.\n    /// @param _link The address of the link contract.\n    constructor(\n        address _router,\n        address _link,\n        address _USDC_ADDRESS,\n        address _aUSDC_ADDRESS,\n        address _WETH_ADDRESS,\n        uint64 _MASTER_CONTRACT_CHAIN_ID,\n        address _MASTER_CONTRACT_ADDRESS,\n        uint64 _NODE_CONTRACT_CHAIN_ID,\n        address _POOL_ADDRESS_PROVIDER_ADDRESS,\n        address _POOL_DATA_PROVIDER_ADDRESS,\n        address _UNISWAP_V3_ROUTER02,\n        bool _isNodeActive\n    ) CCIPReceiver(_router) {\n        s_linkToken = IERC20(_link);\n        USDC_ADDRESS = _USDC_ADDRESS;\n        aUSDC_ADDRESS = _aUSDC_ADDRESS;\n        WETH_ADDRESS = _WETH_ADDRESS;\n        MASTER_CONTRACT_CHAIN_ID = _MASTER_CONTRACT_CHAIN_ID;\n        MASTER_CONTRACT_ADDRESS = _MASTER_CONTRACT_ADDRESS;\n        NODE_CONTRACT_CHAIN_ID = _NODE_CONTRACT_CHAIN_ID;\n        POOL_ADDRESS_PROVIDER_ADDRESS = _POOL_ADDRESS_PROVIDER_ADDRESS;\n        POOL_DATA_PROVIDER_ADDRESS = _POOL_DATA_PROVIDER_ADDRESS;\n\n        // uniswap interfaces\n        iSwapRouter02 = ISwapRouter02(_UNISWAP_V3_ROUTER02);\n\n        isNodeActive = _isNodeActive;\n    }\n\n    // set Allowed Nodes, can only be called once!\n    function setAllowedNodes(\n        address[] memory _allowedNodes\n    ) external onlyOwner {\n        require(_allowedNodes.length > 0, \"You sent an empty array\");\n        require(allowedNodes.length == 0, \"allowedNodes must be empty\");\n        allowedNodes = _allowedNodes;\n    }\n\n    // Internal function to check if an address is in the allowedNodes array\n    function isAllowedAddress(\n        address _nodeOrMaster\n    ) internal view returns (bool) {\n        for (uint16 i = 0; i < allowedNodes.length; i++) {\n            if (allowedNodes[i] == _nodeOrMaster) {\n                return true;\n            }\n        }\n        if (_nodeOrMaster == MASTER_CONTRACT_ADDRESS) {\n            return true;\n        }\n        return false;\n    }\n\n    // Modifier to check if msg.sender is in the allowedNodes array\n    modifier onlyAllowedAddresses(address senderAddress) {\n        require(\n            isAllowedAddress(senderAddress),\n            \"Caller is not an allowed node\"\n        );\n        _;\n    }\n\n    modifier masterAndNodeInSameChain() {\n        require(\n            NODE_CONTRACT_CHAIN_ID == MASTER_CONTRACT_CHAIN_ID,\n            \"Require master and node in same chain\"\n        );\n        _;\n    }\n\n    /////////////////////////////////////////////////////////////////////////\n    ////////////////////////////////////////////////////////////////////////\n    //////////////////////////  RECEIVING MESSAGES  ///////////////////////\n    //////////////////////////////////////////////////////////////////////\n    /////////////////////////////////////////////////////////////////////\n\n    /////////////////////////////////////////////////////////////////////////\n    //////////////////////////  HANDLE WITHDRAW  ///////////////////////////\n    ///////////////////////////  COMMAND = 0  /////////////////////////////\n    //////////////////////////////////////////////////////////////////////\n\n    function _withdraw(Client.Any2EVMMessage memory _any2EvmMessage) internal {\n        (, address transferToUser, uint256 shares) = abi.decode(\n            _any2EvmMessage.data,\n            (uint8, address, uint256)\n        );\n\n        address pool = _getPool(POOL_ADDRESS_PROVIDER_ADDRESS);\n        uint256 totalAusdc = IERC20(aUSDC_ADDRESS).balanceOf(address(this));\n\n        uint256 amount = ((shares * 10 ** 18) * totalAusdc) /\n            aWrpTotalSupplyNodeSide;\n\n        aWrpTotalSupplyNodeSide -= shares;\n\n        if (!isNodeActive) {\n            avaliableForRefund[transferToUser] += shares;\n        } else {\n            IERC20(aUSDC_ADDRESS).approve(pool, amount / 10 ** 18);\n            IPool(pool).withdraw(\n                USDC_ADDRESS,\n                amount / 10 ** 18,\n                transferToUser\n            );\n        }\n    }\n\n    /////////////////////  WITHDRAW MASTER AND NODE IN SAME CHAIN  ///////////////////////\n\n    function withdrawFromSameChain(\n        address transferToUser,\n        uint256 shares\n    ) external masterAndNodeInSameChain {\n        require(\n            msg.sender == MASTER_CONTRACT_ADDRESS,\n            \"Only Master Contract allowed\"\n        );\n\n        address pool = _getPool(POOL_ADDRESS_PROVIDER_ADDRESS);\n        uint256 totalAusdc = IERC20(aUSDC_ADDRESS).balanceOf(address(this));\n\n        /// TESTING ///\n        uint256 amount = ((shares * 10 ** 18) * totalAusdc) /\n            aWrpTotalSupplyNodeSide;\n\n        aWrpTotalSupplyNodeSide -= shares;\n\n        if (!isNodeActive) {\n            avaliableForRefund[transferToUser] += shares;\n        } else {\n            IERC20(aUSDC_ADDRESS).approve(pool, amount / 10 ** 18);\n            IPool(pool).withdraw(\n                USDC_ADDRESS,\n                amount / 10 ** 18,\n                transferToUser\n            );\n        }\n    }\n\n    /////////////////////////////////////////////////////////////////////////\n    ////////////////////////  HANDLE WARP ASSETS  //////////////////////////\n    ///////////////////////////  COMMAND = 1  //////////////////////////////\n    ///////////////////////////////////////////////////////////////////////\n\n    function _warpAssets(\n        Client.Any2EVMMessage memory _any2EvmMessage\n    ) internal {\n        (, uint64 _destinationChainSelector, address _receiver) = abi.decode(\n            _any2EvmMessage.data,\n            (uint8, uint64, address)\n        );\n        uint256 usdcwithdrawn = _assetsAllocationWithdraw(\n            POOL_ADDRESS_PROVIDER_ADDRESS,\n            aUSDC_ADDRESS,\n            USDC_ADDRESS\n        );\n\n        uint8 commandAWRPSupply = 2;\n        bytes memory data = abi.encode(\n            commandAWRPSupply,\n            aWrpTotalSupplyNodeSide\n        );\n\n        isNodeActive = false;\n        _sendMessage(\n            _destinationChainSelector,\n            _receiver,\n            data,\n            USDC_ADDRESS,\n            usdcwithdrawn,\n            true\n        );\n    }\n\n    /////////////  WARP ASSETS MASTER AND NODE IN SAME CHAIN  //////////////\n\n    /////////////// ONLY FOR TESTING ////////////////////////\n    function warpAssets(\n        uint64 _destinationChainSelector,\n        address _receiver\n    ) public {\n        uint256 usdcwithdrawn = _assetsAllocationWithdraw(\n            POOL_ADDRESS_PROVIDER_ADDRESS,\n            aUSDC_ADDRESS,\n            USDC_ADDRESS\n        );\n\n        uint8 commandAWRPSupply = 2;\n        bytes memory data = abi.encode(\n            commandAWRPSupply,\n            aWrpTotalSupplyNodeSide\n        );\n\n        isNodeActive = false;\n        _sendMessage(\n            _destinationChainSelector,\n            _receiver,\n            data,\n            USDC_ADDRESS,\n            usdcwithdrawn,\n            true\n        );\n    }\n\n    /////////////////////////////////////////////////////////////////////////\n    /////////////////////  HANDLE RESUME OPERATIONS  ///////////////////////\n    ///////////////////////////  COMMAND = 2  //////////////////////////////\n    ///////////////////////////////////////////////////////////////////////\n\n    function _allocateAssetsAndSetAWRPSupply(\n        Client.Any2EVMMessage memory _any2EvmMessage\n    ) internal {\n        (, uint256 _aWrpSupplyFromOldNode) = abi.decode(\n            _any2EvmMessage.data,\n            (uint8, uint256)\n        );\n\n        resumeOperations = true;\n\n        _assetsAllocationDeposit(POOL_ADDRESS_PROVIDER_ADDRESS, USDC_ADDRESS);\n        aWrpTotalSupplyNodeSide = _aWrpSupplyFromOldNode;\n\n        uint8 commandResumeOperations = 1;\n        isNodeActive = true;\n\n        bytes memory data = abi.encode(commandResumeOperations);\n\n        if (NODE_CONTRACT_CHAIN_ID == MASTER_CONTRACT_CHAIN_ID) {\n            IMasterNode(MASTER_CONTRACT_ADDRESS)\n                ._resmumeOperationsFromSameChain();\n        } else {\n            _sendMessage(\n                MASTER_CONTRACT_CHAIN_ID,\n                MASTER_CONTRACT_ADDRESS,\n                data,\n                address(0),\n                0,\n                true\n            );\n        }\n    }\n    //////////////////////////////////////////////////////////////////////////\n    /////////////////////////////////////////////////////////////////////////\n    ////////////////////////  INCOMING MESAGE HANDLER  /////////////////////\n    /////////////////  THIS FUNC IS CALLED BY CHAINLINK  //////////////////\n    //////////////////////////////////////////////////////////////////////\n    /////////////////////////////////////////////////////////////////////\n\n    function _ccipReceive(\n        Client.Any2EVMMessage memory _any2EvmMessage\n    )\n        internal\n        override\n        onlyAllowedAddresses(abi.decode(_any2EvmMessage.sender, (address)))\n    {\n        uint8 command = _internalCommandRouter(_any2EvmMessage);\n        commandTESTER = command;\n\n        if (command == 0) {\n            _withdraw(_any2EvmMessage);\n        } else if (command == 1) {\n            _warpAssets(_any2EvmMessage);\n        } else if (command == 2) {\n            _allocateAssetsAndSetAWRPSupply(_any2EvmMessage);\n        } else {\n            revert(\"invalid command\");\n        }\n    }\n    /////////////////////////////////////////////////////////////////////////\n    ////////////////////////////////////////////////////////////////////////\n    ///////////////////////  OUTGOING MESAGES HANDLER  ////////////////////\n    //////////////////////////////////////////////////////////////////////\n    /////////////////////////////////////////////////////////////////////\n\n    function _sendMessage(\n        uint64 _destinationChainSelector,\n        address _receiver,\n        bytes memory _data,\n        address _token,\n        uint256 _amount,\n        bool isPayingNative\n    ) internal onlyAllowedAddresses(_receiver) returns (bytes32 messageId) {\n        // Create an EVM2AnyMessage struct in memory with necessary information for sending a cross-chain message\n        // address(linkToken) means fees are paid in LINK\n        uint256 newAmount;\n        if (_amount > 0) {\n            newAmount = _amount;\n        }\n\n        address tokenFee;\n        if (isPayingNative) {\n            tokenFee = address(0);\n        } else {\n            tokenFee = address(s_linkToken);\n        }\n\n        Client.EVM2AnyMessage memory evm2AnyMessage = _buildCCIPMessage(\n            _receiver,\n            _data,\n            _token,\n            newAmount,\n            tokenFee\n        );\n\n        // Initialize a router client instance to interact with cross-chain router\n        IRouterClient routerCCIP = IRouterClient(this.getRouter());\n\n        // Get the fee required to send the CCIP message\n        uint256 fees = routerCCIP.getFee(\n            _destinationChainSelector,\n            evm2AnyMessage\n        );\n\n        uint256 amountInUsdc;\n        if (isPayingNative) {\n            amountInUsdc = _getNativeFees(fees);\n            if (newAmount > 0) {\n                evm2AnyMessage = _buildCCIPMessage(\n                    _receiver,\n                    _data,\n                    _token,\n                    newAmount - amountInUsdc,\n                    tokenFee\n                );\n            }\n        }\n        tester_amount_in = amountInUsdc;\n\n        if (isPayingNative) {\n            if (fees > address(this).balance) {\n                revert NotEnoughBalance(address(this).balance, fees);\n            }\n        } else {\n            require(\n                s_linkToken.transferFrom(msg.sender, address(this), fees),\n                \"Not provided Link for fees\"\n            );\n            if (fees > s_linkToken.balanceOf(address(this)))\n                revert NotEnoughBalance(\n                    s_linkToken.balanceOf(address(this)),\n                    fees\n                );\n            s_linkToken.approve(address(routerCCIP), fees);\n        }\n\n        // approve the Router to spend tokens on contract's behalf. It will spend the amount of the given token\n        if (_token != address(0)) {\n            IERC20(_token).approve(address(routerCCIP), newAmount);\n        }\n\n        // Send the message through the router and store the returned message ID\n        if (isPayingNative) {\n            messageId = routerCCIP.ccipSend{value: fees}(\n                _destinationChainSelector,\n                evm2AnyMessage\n            );\n        } else {\n            messageId = routerCCIP.ccipSend(\n                _destinationChainSelector,\n                evm2AnyMessage\n            );\n        }\n\n        uint256 usdcBalance = IERC20(USDC_ADDRESS).balanceOf(address(this));\n        if (usdcBalance > 0) {\n            _assetsAllocationDeposit(\n                POOL_ADDRESS_PROVIDER_ADDRESS,\n                USDC_ADDRESS\n            );\n        }\n\n        // Return the message ID\n        return messageId;\n    }\n\n    /// @notice Construct a CCIP message.\n    /// @dev This function will create an EVM2AnyMessage struct with all the necessary information for programmable tokens transfer.\n    /// @param _receiver The address of the receiver.\n    /// @param _data The bytes data to be sent.\n    /// @param _token The token to be transferred.\n    /// @param _amount The amount of the token to be transferred.\n    /// @param _feeTokenAddress The address of the token used for fees. Set address(0) for native gas.\n    /// @return Client.EVM2AnyMessage Returns an EVM2AnyMessage struct which contains information for sending a CCIP message.\n    function _buildCCIPMessage(\n        address _receiver,\n        bytes memory _data,\n        address _token,\n        uint256 _amount,\n        address _feeTokenAddress\n    ) private returns (Client.EVM2AnyMessage memory) {\n        // Set the token amounts\n        Client.EVMTokenAmount[] memory tokenAmounts;\n\n        if (_token == address(0) && _amount == 0) {\n            tokenAmounts = new Client.EVMTokenAmount[](0);\n        } else {\n            tokenAmounts = new Client.EVMTokenAmount[](1);\n            tokenAmounts[0] = Client.EVMTokenAmount({\n                token: _token,\n                amount: _amount\n            });\n        }\n        // Create an EVM2AnyMessage struct in memory with necessary information for sending a cross-chain message\n        return\n            Client.EVM2AnyMessage({\n                receiver: abi.encode(_receiver), // ABI-encoded receiver address\n                data: _data, // ABI-encoded string\n                tokenAmounts: tokenAmounts, // The amount and type of token being transferred\n                extraArgs: Client._argsToBytes(\n                    // Additional arguments, setting gas limit\n                    Client.EVMExtraArgsV1({gasLimit: 2_000_000})\n                ),\n                // Set the feeToken to a feeTokenAddress, indicating specific asset will be used for fees\n                feeToken: _feeTokenAddress\n            });\n    }\n\n    /////////////////////////////////////////////////////////////////////////\n    /////////////////////////////////////////////////////////////////////////\n    //////////////////////////  SENDING MESSAGES  //////////////////////////\n    ///////////////////////////////////////////////////////////////////////\n    //////////////////////////////////////////////////////////////////////\n\n    /////////////////////////////////////////////////////////////////////////\n    ///////////////////////////////   DEPOSIT   ////////////////////////////\n    ///////////////////////////////////////////////////////////////////////\n\n    function deposit(uint256 amount) external {\n        require(\n            IERC20(USDC_ADDRESS).transferFrom(\n                msg.sender,\n                address(this),\n                amount\n            ),\n            \"Failed to transfer amount\"\n        );\n        require(\n            isNodeActive,\n            \"Asets are Warping Now, deposits on new blockchain\"\n        );\n\n        uint256 totalAusdcNode = IERC20(aUSDC_ADDRESS).balanceOf(address(this));\n        uint256 shares;\n        if (aWrpTotalSupplyNodeSide == 0) {\n            shares = amount * 10 ** 12;\n        } else {\n            shares = (amount * aWrpTotalSupplyNodeSide) / totalAusdcNode;\n        }\n\n        aWrpTotalSupplyNodeSide += shares;\n\n        uint8 command = 0;\n        bytes memory data = abi.encode(command, msg.sender, shares);\n\n        address pool = _getPool(POOL_ADDRESS_PROVIDER_ADDRESS);\n        IERC20(USDC_ADDRESS).approve(pool, amount);\n        IPool(pool).deposit(USDC_ADDRESS, amount, address(this), 0);\n\n        if (NODE_CONTRACT_CHAIN_ID == MASTER_CONTRACT_CHAIN_ID) {\n            IMasterNode(MASTER_CONTRACT_ADDRESS).aWarpTokenMinterFromSameChain(\n                msg.sender,\n                shares\n            );\n        } else {\n            _sendMessage(\n                MASTER_CONTRACT_CHAIN_ID,\n                MASTER_CONTRACT_ADDRESS,\n                data,\n                address(0),\n                0,\n                false\n            );\n        }\n    }\n\n    /////////////////////////////////////////////////////////////////////////\n    ///////////////   RECOVER aWRP FROM A FAILED WITHDRAW   ////////////////\n    ///////////////////////////////////////////////////////////////////////\n\n    function recoverAWRPFromFailedWithdraw() external {\n        require(avaliableForRefund[msg.sender] > 0, \"No aWRP tokens to refund\");\n        uint256 sharesToRefund = avaliableForRefund[msg.sender];\n\n        uint8 commandRefundAWRP = 0; // Same command than deposit\n        bytes memory data = abi.encode(\n            commandRefundAWRP,\n            msg.sender,\n            sharesToRefund\n        );\n\n        if (NODE_CONTRACT_CHAIN_ID == MASTER_CONTRACT_CHAIN_ID) {\n            IMasterNode(MASTER_CONTRACT_ADDRESS).aWarpTokenMinterFromSameChain(\n                msg.sender,\n                sharesToRefund\n            );\n        } else {\n            _sendMessage(\n                MASTER_CONTRACT_CHAIN_ID,\n                MASTER_CONTRACT_ADDRESS,\n                data,\n                address(0),\n                0,\n                false\n            );\n        }\n    }\n\n    /////////////////////////////////////////////////////////////////////////\n    /////////////////////   SEND DATA NODE TO MASTER   /////////////////////\n    ///////////////////////////////////////////////////////////////////////\n\n    function sendAaveData() external {\n        (\n            ,\n            ,\n            uint256 totalUsdcSupply,\n            ,\n            uint256 totalUsdcBorrow,\n            uint256 supplyRate,\n            ,\n            ,\n            ,\n            ,\n            ,\n\n        ) = IPoolDataProvider(POOL_DATA_PROVIDER_ADDRESS).getReserveData(\n                USDC_ADDRESS\n            );\n\n        uint8 commandSendAaveData = 2;\n        bytes memory data = abi.encode(\n            commandSendAaveData,\n            totalUsdcSupply,\n            totalUsdcBorrow,\n            supplyRate\n        );\n        if (NODE_CONTRACT_CHAIN_ID == MASTER_CONTRACT_CHAIN_ID) {\n            IMasterNode(MASTER_CONTRACT_ADDRESS).nodeAaveFeedFromSameChain(\n                totalUsdcSupply,\n                totalUsdcBorrow,\n                supplyRate\n            );\n        } else {\n            _sendMessage(\n                MASTER_CONTRACT_CHAIN_ID,\n                MASTER_CONTRACT_ADDRESS,\n                data,\n                address(0),\n                0,\n                false\n            );\n        }\n    }\n\n    /// @notice Fallback function to allow the contract to receive Ether.\n    /// @dev This function has no function body, making it a default function for receiving Ether.\n    /// It is automatically called when Ether is sent to the contract without any data.\n    receive() external payable {}\n\n    /////////////////////////////////////////////////////////////////////////\n    /////////////////////////////   UTILS   ////////////////////////////////\n    ///////////////////////////////////////////////////////////////////////\n\n    function _getNativeFees(uint256 fees) internal returns (uint256) {\n        // Approve the router to spend USDC.\n        uint256 ausdcBalance = IERC20(aUSDC_ADDRESS).balanceOf(address(this));\n        if (ausdcBalance > 0) {\n            _assetsAllocationWithdraw(\n                POOL_ADDRESS_PROVIDER_ADDRESS,\n                aUSDC_ADDRESS,\n                USDC_ADDRESS\n            );\n        }\n\n        uint256 usdcBalance = IERC20(USDC_ADDRESS).balanceOf(address(this));\n        IERC20(USDC_ADDRESS).approve(address(iSwapRouter02), usdcBalance);\n\n        // Set up the parameters for the swap.\n        ISwapRouter02.ExactOutputSingleParams memory params = ISwapRouter02\n            .ExactOutputSingleParams({\n                tokenIn: USDC_ADDRESS,\n                tokenOut: WETH_ADDRESS,\n                fee: 500,\n                recipient: address(this),\n                amountOut: fees,\n                amountInMaximum: usdcBalance, // for testing dont mind slipperage\n                sqrtPriceLimitX96: 0\n            });\n\n        // Execute the swap.\n        uint256 amountIn = iSwapRouter02.exactOutputSingle(params);\n        IWETH9(WETH_ADDRESS).withdraw(fees);\n        return amountIn;\n    }\n\n    //frontend stuff, no impcat in contract\n    function calculateSharesValue(\n        uint256 shares\n    ) external view returns (uint256) {\n        uint256 totalAusdc = IERC20(aUSDC_ADDRESS).balanceOf(address(this));\n\n        uint256 amount = ((shares * 10 ** 18) * totalAusdc) /\n            aWrpTotalSupplyNodeSide;\n\n        return amount / 10 ** 18;\n    }\n}\n",
  "sourcePath": "contracts/Node.sol",
  "type": "contract"
}