{
  "abi": [
    {
      "inputs": [
        {
          "internalType": "address",
          "name": "_router",
          "type": "address"
        },
        {
          "internalType": "address",
          "name": "_link",
          "type": "address"
        },
        {
          "internalType": "address",
          "name": "_USDC_ADDRESS",
          "type": "address"
        },
        {
          "internalType": "address",
          "name": "_aUSDC_ADDRESS",
          "type": "address"
        },
        {
          "internalType": "address",
          "name": "_WETH_ADDRESS",
          "type": "address"
        },
        {
          "internalType": "uint64",
          "name": "_MASTER_CONTRACT_CHAIN_ID",
          "type": "uint64"
        },
        {
          "internalType": "address",
          "name": "_MASTER_CONTRACT_ADDRESS",
          "type": "address"
        },
        {
          "internalType": "uint64",
          "name": "_NODE_CONTRACT_CHAIN_ID",
          "type": "uint64"
        },
        {
          "internalType": "address",
          "name": "_POOL_ADDRESS_PROVIDER_ADDRESS",
          "type": "address"
        },
        {
          "internalType": "address",
          "name": "_POOL_DATA_PROVIDER_ADDRESS",
          "type": "address"
        },
        {
          "internalType": "address",
          "name": "_UNISWAP_V3_ROUTER02",
          "type": "address"
        },
        {
          "internalType": "bool",
          "name": "_isNodeActive",
          "type": "bool"
        },
        {
          "internalType": "uint16",
          "name": "_uinswapFeePool",
          "type": "uint16"
        }
      ],
      "stateMutability": "nonpayable",
      "type": "constructor"
    },
    {
      "inputs": [
        {
          "internalType": "uint64",
          "name": "destinationChainSelector",
          "type": "uint64"
        }
      ],
      "name": "DestinationChainNotAllowed",
      "type": "error"
    },
    {
      "inputs": [
        {
          "internalType": "address",
          "name": "owner",
          "type": "address"
        },
        {
          "internalType": "address",
          "name": "target",
          "type": "address"
        },
        {
          "internalType": "uint256",
          "name": "value",
          "type": "uint256"
        }
      ],
      "name": "FailedToWithdrawEth",
      "type": "error"
    },
    {
      "inputs": [
        {
          "internalType": "address",
          "name": "router",
          "type": "address"
        }
      ],
      "name": "InvalidRouter",
      "type": "error"
    },
    {
      "inputs": [
        {
          "internalType": "uint256",
          "name": "currentBalance",
          "type": "uint256"
        },
        {
          "internalType": "uint256",
          "name": "calculatedFees",
          "type": "uint256"
        }
      ],
      "name": "NotEnoughBalance",
      "type": "error"
    },
    {
      "inputs": [],
      "name": "NothingToWithdraw",
      "type": "error"
    },
    {
      "inputs": [
        {
          "internalType": "address",
          "name": "sender",
          "type": "address"
        }
      ],
      "name": "SenderNotAllowed",
      "type": "error"
    },
    {
      "inputs": [
        {
          "internalType": "uint64",
          "name": "sourceChainSelector",
          "type": "uint64"
        }
      ],
      "name": "SourceChainNotAllowed",
      "type": "error"
    },
    {
      "anonymous": false,
      "inputs": [
        {
          "indexed": true,
          "internalType": "address",
          "name": "from",
          "type": "address"
        },
        {
          "indexed": true,
          "internalType": "address",
          "name": "to",
          "type": "address"
        }
      ],
      "name": "OwnershipTransferRequested",
      "type": "event"
    },
    {
      "anonymous": false,
      "inputs": [
        {
          "indexed": true,
          "internalType": "address",
          "name": "from",
          "type": "address"
        },
        {
          "indexed": true,
          "internalType": "address",
          "name": "to",
          "type": "address"
        }
      ],
      "name": "OwnershipTransferred",
      "type": "event"
    },
    {
      "inputs": [],
      "name": "MASTER_CONTRACT_ADDRESS",
      "outputs": [
        {
          "internalType": "address",
          "name": "",
          "type": "address"
        }
      ],
      "stateMutability": "view",
      "type": "function"
    },
    {
      "inputs": [],
      "name": "MASTER_CONTRACT_CHAIN_ID",
      "outputs": [
        {
          "internalType": "uint64",
          "name": "",
          "type": "uint64"
        }
      ],
      "stateMutability": "view",
      "type": "function"
    },
    {
      "inputs": [],
      "name": "NODE_CONTRACT_CHAIN_ID",
      "outputs": [
        {
          "internalType": "uint64",
          "name": "",
          "type": "uint64"
        }
      ],
      "stateMutability": "view",
      "type": "function"
    },
    {
      "inputs": [],
      "name": "POOL_ADDRESS_PROVIDER_ADDRESS",
      "outputs": [
        {
          "internalType": "address",
          "name": "",
          "type": "address"
        }
      ],
      "stateMutability": "view",
      "type": "function"
    },
    {
      "inputs": [],
      "name": "POOL_DATA_PROVIDER_ADDRESS",
      "outputs": [
        {
          "internalType": "address",
          "name": "",
          "type": "address"
        }
      ],
      "stateMutability": "view",
      "type": "function"
    },
    {
      "inputs": [],
      "name": "USDC_ADDRESS",
      "outputs": [
        {
          "internalType": "address",
          "name": "",
          "type": "address"
        }
      ],
      "stateMutability": "view",
      "type": "function"
    },
    {
      "inputs": [],
      "name": "WETH_ADDRESS",
      "outputs": [
        {
          "internalType": "address",
          "name": "",
          "type": "address"
        }
      ],
      "stateMutability": "view",
      "type": "function"
    },
    {
      "inputs": [],
      "name": "_destinationChainSelectorTESTER",
      "outputs": [
        {
          "internalType": "uint64",
          "name": "",
          "type": "uint64"
        }
      ],
      "stateMutability": "view",
      "type": "function"
    },
    {
      "inputs": [],
      "name": "_receiverTESTER",
      "outputs": [
        {
          "internalType": "address",
          "name": "",
          "type": "address"
        }
      ],
      "stateMutability": "view",
      "type": "function"
    },
    {
      "inputs": [],
      "name": "aUSDC_ADDRESS",
      "outputs": [
        {
          "internalType": "address",
          "name": "",
          "type": "address"
        }
      ],
      "stateMutability": "view",
      "type": "function"
    },
    {
      "inputs": [],
      "name": "aWrpTotalSupplyNodeSide",
      "outputs": [
        {
          "internalType": "uint256",
          "name": "",
          "type": "uint256"
        }
      ],
      "stateMutability": "view",
      "type": "function"
    },
    {
      "inputs": [],
      "name": "acceptOwnership",
      "outputs": [],
      "stateMutability": "nonpayable",
      "type": "function"
    },
    {
      "inputs": [
        {
          "internalType": "uint256",
          "name": "",
          "type": "uint256"
        }
      ],
      "name": "allowedNodes",
      "outputs": [
        {
          "internalType": "address",
          "name": "",
          "type": "address"
        }
      ],
      "stateMutability": "view",
      "type": "function"
    },
    {
      "inputs": [
        {
          "internalType": "address",
          "name": "",
          "type": "address"
        }
      ],
      "name": "avaliableForRefund",
      "outputs": [
        {
          "internalType": "uint256",
          "name": "",
          "type": "uint256"
        }
      ],
      "stateMutability": "view",
      "type": "function"
    },
    {
      "inputs": [
        {
          "internalType": "uint256",
          "name": "shares",
          "type": "uint256"
        }
      ],
      "name": "calculateSharesValue",
      "outputs": [
        {
          "internalType": "uint256",
          "name": "",
          "type": "uint256"
        }
      ],
      "stateMutability": "view",
      "type": "function"
    },
    {
      "inputs": [
        {
          "components": [
            {
              "internalType": "bytes32",
              "name": "messageId",
              "type": "bytes32"
            },
            {
              "internalType": "uint64",
              "name": "sourceChainSelector",
              "type": "uint64"
            },
            {
              "internalType": "bytes",
              "name": "sender",
              "type": "bytes"
            },
            {
              "internalType": "bytes",
              "name": "data",
              "type": "bytes"
            },
            {
              "components": [
                {
                  "internalType": "address",
                  "name": "token",
                  "type": "address"
                },
                {
                  "internalType": "uint256",
                  "name": "amount",
                  "type": "uint256"
                }
              ],
              "internalType": "struct Client.EVMTokenAmount[]",
              "name": "destTokenAmounts",
              "type": "tuple[]"
            }
          ],
          "internalType": "struct Client.Any2EVMMessage",
          "name": "message",
          "type": "tuple"
        }
      ],
      "name": "ccipReceive",
      "outputs": [],
      "stateMutability": "nonpayable",
      "type": "function"
    },
    {
      "inputs": [],
      "name": "commandTESTER",
      "outputs": [
        {
          "internalType": "uint8",
          "name": "",
          "type": "uint8"
        }
      ],
      "stateMutability": "view",
      "type": "function"
    },
    {
      "inputs": [
        {
          "internalType": "uint256",
          "name": "amount",
          "type": "uint256"
        }
      ],
      "name": "deposit",
      "outputs": [],
      "stateMutability": "nonpayable",
      "type": "function"
    },
    {
      "inputs": [
        {
          "internalType": "address",
          "name": "poolDAtaProvider",
          "type": "address"
        },
        {
          "internalType": "address",
          "name": "usdcAddress",
          "type": "address"
        }
      ],
      "name": "getAaveSupplyRate",
      "outputs": [
        {
          "internalType": "uint256",
          "name": "",
          "type": "uint256"
        }
      ],
      "stateMutability": "view",
      "type": "function"
    },
    {
      "inputs": [
        {
          "internalType": "uint64",
          "name": "destinationCCIPid",
          "type": "uint64"
        },
        {
          "internalType": "address",
          "name": "receiver",
          "type": "address"
        },
        {
          "internalType": "address",
          "name": "s_linkTokenAddress",
          "type": "address"
        },
        {
          "internalType": "address",
          "name": "routerAddress",
          "type": "address"
        },
        {
          "internalType": "bytes",
          "name": "_data",
          "type": "bytes"
        }
      ],
      "name": "getLinkFees",
      "outputs": [
        {
          "internalType": "uint256",
          "name": "",
          "type": "uint256"
        }
      ],
      "stateMutability": "view",
      "type": "function"
    },
    {
      "inputs": [],
      "name": "getRouter",
      "outputs": [
        {
          "internalType": "address",
          "name": "",
          "type": "address"
        }
      ],
      "stateMutability": "view",
      "type": "function"
    },
    {
      "inputs": [],
      "name": "iSwapRouter02",
      "outputs": [
        {
          "internalType": "contract ISwapRouter02",
          "name": "",
          "type": "address"
        }
      ],
      "stateMutability": "view",
      "type": "function"
    },
    {
      "inputs": [],
      "name": "isNodeActive",
      "outputs": [
        {
          "internalType": "bool",
          "name": "",
          "type": "bool"
        }
      ],
      "stateMutability": "view",
      "type": "function"
    },
    {
      "inputs": [],
      "name": "owner",
      "outputs": [
        {
          "internalType": "address",
          "name": "",
          "type": "address"
        }
      ],
      "stateMutability": "view",
      "type": "function"
    },
    {
      "inputs": [],
      "name": "recoverAWRPFromFailedWithdraw",
      "outputs": [],
      "stateMutability": "nonpayable",
      "type": "function"
    },
    {
      "inputs": [],
      "name": "resumeOperations",
      "outputs": [
        {
          "internalType": "bool",
          "name": "",
          "type": "bool"
        }
      ],
      "stateMutability": "view",
      "type": "function"
    },
    {
      "inputs": [],
      "name": "sendAaveData",
      "outputs": [],
      "stateMutability": "nonpayable",
      "type": "function"
    },
    {
      "inputs": [
        {
          "internalType": "address[]",
          "name": "_allowedNodes",
          "type": "address[]"
        }
      ],
      "name": "setAllowedNodes",
      "outputs": [],
      "stateMutability": "nonpayable",
      "type": "function"
    },
    {
      "inputs": [
        {
          "internalType": "bytes4",
          "name": "interfaceId",
          "type": "bytes4"
        }
      ],
      "name": "supportsInterface",
      "outputs": [
        {
          "internalType": "bool",
          "name": "",
          "type": "bool"
        }
      ],
      "stateMutability": "pure",
      "type": "function"
    },
    {
      "inputs": [],
      "name": "tester_amount_in",
      "outputs": [
        {
          "internalType": "uint256",
          "name": "",
          "type": "uint256"
        }
      ],
      "stateMutability": "view",
      "type": "function"
    },
    {
      "inputs": [
        {
          "internalType": "address",
          "name": "to",
          "type": "address"
        }
      ],
      "name": "transferOwnership",
      "outputs": [],
      "stateMutability": "nonpayable",
      "type": "function"
    },
    {
      "inputs": [],
      "name": "uinswapFeePool",
      "outputs": [
        {
          "internalType": "uint16",
          "name": "",
          "type": "uint16"
        }
      ],
      "stateMutability": "view",
      "type": "function"
    },
    {
      "inputs": [
        {
          "internalType": "uint64",
          "name": "_destinationChainSelector",
          "type": "uint64"
        },
        {
          "internalType": "address",
          "name": "_receiver",
          "type": "address"
        }
      ],
      "name": "warpAssetsFromSameChain",
      "outputs": [],
      "stateMutability": "nonpayable",
      "type": "function"
    },
    {
      "inputs": [
        {
          "internalType": "uint64",
          "name": "_destinationChainSelector",
          "type": "uint64"
        },
        {
          "internalType": "address",
          "name": "_receiver",
          "type": "address"
        }
      ],
      "name": "warpAssetsTester",
      "outputs": [],
      "stateMutability": "nonpayable",
      "type": "function"
    },
    {
      "inputs": [
        {
          "internalType": "address",
          "name": "transferToUser",
          "type": "address"
        },
        {
          "internalType": "uint256",
          "name": "shares",
          "type": "uint256"
        }
      ],
      "name": "withdrawFromSameChain",
      "outputs": [],
      "stateMutability": "nonpayable",
      "type": "function"
    },
    {
      "stateMutability": "payable",
      "type": "receive"
    }
  ],
  "bytecode": "6101c03462000446576200415f38819003601f8101601f191683016001600160401b038111848210176200044b578392829160405283396101a0928391810103126200044657620000508162000461565b916200005f6020830162000461565b91806200006f6040820162000461565b936200007e6060830162000461565b946200008d6080840162000461565b956200009c60a0850162000476565b92620000ab60c0860162000461565b98620000ba60e0870162000476565b986101009a620000cc8c890162000461565b6101209b620000dd8d8b0162000461565b9261014099620000ef8b8d0162000461565b95610160809d0151998a1515809b0362000446576101809e8f01519b61ffff8d168d0362000446576001600160a01b0399808b16156200042d576080523315620003e8578960018060a01b03199b338d6000541617600055168b60035416176003558d528d528d5260a05260c05260e0528c528a52169060045416176004556001549060ff60a01b9060a01b169060ff60a01b191617600155845260405194613cd396876200048c8839608051878181610b5301526113db015260a0518781816103750152818161053f015281816108c901528181610bf0015281816113820152818161193d01528181611aea0152611e12015260c0518781816103ce01528181610459015281816105980152818161060f015281816109220152818161097f01528181610c420152818161198c015281816119ee015281816124d501526136e3015260e0518781816103a20152818161056c015281816108f601528181610c130152818161196001526122df01525186818161080501528181610c6e015281816115810152818161183d015281816118ea01528181611ed1015281816120d101528181612319015281816128aa01528181612e4e01528181613066015261337401525185818161031301526112b50152518481816102e10152818161068f0152818161070101528181610db5015281816116c2015281816117f6015281816118c901528181611ba501528181611c1601528181611c6701528181611e6e01528181611eb00152818161208f0152818161286301528181612b2b01528181612b9c01528181612be901528181612de901528181612e2d01528181613024015261332201525183818161076f01528181610b9801528181610cab015281816111e8015281816115ba0152818161181c01528181611b4a015281816120b00152818161288901528181612ad20152613045015251828181611c8c01528181611d6601528181611db00152818161263b01528181612c0e01528181612ce80152612d32015251818181611cb8015281816126010152612c3a0152f35b60405162461bcd60e51b815260206004820152601860248201527f43616e6e6f7420736574206f776e657220746f207a65726f00000000000000006044820152606490fd5b6040516335fdcccd60e21b815260006004820152602490fd5b600080fd5b634e487b7160e01b600052604160045260246000fd5b51906001600160a01b03821682036200044657565b51906001600160401b0382168203620004465756fe608080604052600436101561001d575b50361561001b57600080fd5b005b600090813560e01c90816301ffc9a71461266a57508063040141e5146126255780630e508fff146125e657806315d03dfd146125bd578063168010ed1461252a5780631d34b4ff1461250457806332d3ad5e146124bf57806349cb88a2146124a15780634c8719f314612483578063544b17091461234857806367062580146123035780637058a5e7146122bf57806379ba50971461221b57806385572ffb146113a65780638cf19d19146113625780638da5cb5b1461133b5780638e7c2f43146113115780639428b7f8146112e457806397652ffe14610b38578063982d1f181461129f57806398b3c1f8146111b5578063a19b24b514610fb5578063a63ca07614610f71578063a6e1d01614610f4e578063af002db814610bc7578063af25617314610b82578063b0f479a114610b3d578063b2aae5c714610b38578063b6b55f25146106be578063bb09d9b714610679578063c330a2ed146104cd578063d8bba68f146102b9578063dc3f1f5914610298578063e227a1401461025f5763f2fde38b0361000f573461025c57602036600319011261025c576101c06126bf565b6101c8613c4b565b6001600160a01b039081169033821461021757600180546001600160a01b031916831790558254167fed8889f560326eb138920d842192f0eb3dd22b4f139c87a2c57538e05bae12788380a380f35b60405162461bcd60e51b815260206004820152601760248201527f43616e6e6f74207472616e7366657220746f2073656c660000000000000000006044820152606490fd5b80fd5b503461025c57602036600319011261025c576020906040906001600160a01b036102876126bf565b168152600683522054604051908152f35b503461025c578060031936011261025c57602060ff60075416604051908152f35b503461025c578060031936011261025c576040516335ea6a7560e01b81526001600160a01b037f000000000000000000000000000000000000000000000000000000000000000081166004830152829161018080826024817f000000000000000000000000000000000000000000000000000000000000000087165afa9283156104c257849285928695610482575b5050604051600260208201528360408201528260608201528460808201526080815261037381612746565b7f00000000000000000000000000000000000000000000000000000000000000006001600160401b03808216907f0000000000000000000000000000000000000000000000000000000000000000161460001461044c5750507f000000000000000000000000000000000000000000000000000000000000000016803b15610448578492836064926040519687958694639637120f60e01b86526004860152602485015260448401525af1801561043d5761042d57505080f35b6104369061277c565b61025c5780f35b6040513d84823e3d90fd5b8480fd5b93509350505061047e92507f00000000000000000000000000000000000000000000000000000000000000009061311f565b5080f35b91945091506104a69250803d106104bb575b61049e81836127c5565b810190613880565b50505050505093509350509190923880610348565b503d610494565b6040513d86823e3d90fd5b503461025c578060031936011261025c57338152600660205260408120541561063457338152600660205280604081205460405161053d8161052f8433602084016040909392919360608101946000825260018060a01b031660208201520152565b03601f1981018352826127c5565b7f00000000000000000000000000000000000000000000000000000000000000006001600160401b03808216907f000000000000000000000000000000000000000000000000000000000000000016146000146106055750507f00000000000000000000000000000000000000000000000000000000000000006001600160a01b0316803b156106015760405163011e0fa960e21b8152336004820152602481019290925282908290818381604481015b03925af1801561043d5761042d57505080f35b5050fd5b90915061047e92507f00000000000000000000000000000000000000000000000000000000000000009061311f565b60405162461bcd60e51b815260206004820152601860248201527f4e6f206157525020746f6b656e7320746f20726566756e6400000000000000006044820152606490fd5b503461025c578060031936011261025c576040517f00000000000000000000000000000000000000000000000000000000000000006001600160a01b03168152602090f35b503461025c576020908160031936011261025c576040516323b872dd60e01b81523360048083019190915230602483015235604482018190526001600160a01b037f00000000000000000000000000000000000000000000000000000000000000008181169592939192918281606481898b5af1908115610a6c578691610b1b575b5015610ad65760ff60015460a01c1615610a77576040516370a0823160e01b81523060048201529382856024817f000000000000000000000000000000000000000000000000000000000000000088165afa948515610a6c578695610a38575b506005549485610a19575064e8d4a5100096878202978289041482151715610a05576107ce879880976129d4565b6005556040805160008682019081523360208201528083018990528190039182018152949061080090606001866127c5565b6108297f000000000000000000000000000000000000000000000000000000000000000061393e565b60405163095ea7b360e01b81526001600160a01b038216600482015260248101859052929091908190849060449082908d905af19283156109fa5787936109cc575b50501691823b156109c85760405163e8eda9df60e01b81526001600160a01b039190911660048201526024810191909152306044820152600060648201529085908290608490829084905af19081156109bd5785916109a4575b50507f00000000000000000000000000000000000000000000000000000000000000006001600160401b03808216907f000000000000000000000000000000000000000000000000000000000000000016146000146109745750507f000000000000000000000000000000000000000000000000000000000000000016803b156106015760405163011e0fa960e21b8152336004820152602481019290925282908290818381604481016105ee565b9150915061047e92507f00000000000000000000000000000000000000000000000000000000000000009061311f565b6109ad9061277c565b6109b85783386108c5565b505050fd5b6040513d87823e3d90fd5b8680fd5b816109eb92903d106109f3575b6109e381836127c5565b8101906129bc565b50388061086b565b503d6109d9565b6040513d8b823e3d90fd5b634e487b7160e01b87526011600452602487fd5b966107ce610a318899610a2c8986612966565b61298f565b80976129d4565b9094508281813d8311610a65575b610a5081836127c5565b81010312610a60575193386107a0565b600080fd5b503d610a46565b6040513d88823e3d90fd5b60405162461bcd60e51b815260048101839052603160248201527f4173657473206172652057617270696e67204e6f772c206465706f736974732060448201527037b7103732bb90313637b1b5b1b430b4b760791b6064820152608490fd5b60405162461bcd60e51b815260048101839052601960248201527f4661696c656420746f207472616e7366657220616d6f756e74000000000000006044820152606490fd5b610b329150833d85116109f3576109e381836127c5565b38610740565b61283c565b503461025c578060031936011261025c576040517f00000000000000000000000000000000000000000000000000000000000000006001600160a01b03168152602090f35b503461025c578060031936011261025c576040517f00000000000000000000000000000000000000000000000000000000000000006001600160a01b03168152602090f35b503461025c57604036600319011261025c57610be16126bf565b602435906001600160401b03807f000000000000000000000000000000000000000000000000000000000000000016907f00000000000000000000000000000000000000000000000000000000000000001603610efb576001600160a01b037f000000000000000000000000000000000000000000000000000000000000000081163303610eb657610c927f000000000000000000000000000000000000000000000000000000000000000061393e565b6040516370a0823160e01b8152306004820152602093917f00000000000000000000000000000000000000000000000000000000000000008416918581602481865afa908115610eab578891610e7e575b50670de0b6b3a764000090818802888104831489151715610e6a5790610d0891612966565b610d1f88610d19600554809461298f565b926129af565b60055560015460a01c60ff16610d505750505050906006929116845252610d4b604083209182546129d4565b905580f35b60405163095ea7b360e01b81526001600160a01b038416600482015291900460248201819052959650949091879087908790604490829085905af1948515610e5d57610dfc968896610e40575b50604051631a4ca37b60e21b81526001600160a01b037f00000000000000000000000000000000000000000000000000000000000000008116600483015260248201949094529290941660448301529094859384929183906064820190565b0393165af18015610e3557610e1057505080f35b813d8311610e2e575b610e2381836127c5565b81010312610a605780f35b503d610e19565b6040513d85823e3d90fd5b610e5690873d89116109f3576109e381836127c5565b5038610d9d565b50604051903d90823e3d90fd5b634e487b7160e01b8a52601160045260248afd5b90508581813d8311610ea4575b610e9581836127c5565b81010312610a60575138610ce3565b503d610e8b565b6040513d8a823e3d90fd5b60405162461bcd60e51b815260206004820152601c60248201527f4f6e6c79204d617374657220436f6e747261637420616c6c6f776564000000006044820152606490fd5b60405162461bcd60e51b815260206004820152602560248201527f52657175697265206d617374657220616e64206e6f646520696e2073616d652060448201526431b430b4b760d91b6064820152608490fd5b503461025c578060031936011261025c57602060ff600954166040519015158152f35b503461025c57602036600319011261025c576004359060025482101561025c576020610f9c83612919565b905460405160039290921b1c6001600160a01b03168152f35b503461025c576020806003193601126111b1576001600160401b03906004358281116111ad57366023820112156111ad578060040135610ff481612902565b9061100260405192836127c5565b80825283820192836024809360051b830101913683116111a95783879101915b8383106111915750505050611035613c4b565b81511561114e57600254918261110a57519485116110f8576801000000000000000085116110f85750836002558084106110b8575b509060028452835b83811061107d578480f35b82516001600160a01b03167f405787fa12a823e0f2b7631cc41b3ba8828b3321ca811111fa75cd3aa3bb5ace82015591810191600101611072565b837f405787fa12a823e0f2b7631cc41b3ba8828b3321ca811111fa75cd3aa3bb5ace91820191015b8181106110ed575061106a565b8581556001016110e0565b634e487b7160e01b8652604160045285fd5b60405162461bcd60e51b815260048101869052601a818401527f616c6c6f7765644e6f646573206d75737420626520656d7074790000000000006044820152606490fd5b8360176064926040519262461bcd60e51b845260048401528201527f596f752073656e7420616e20656d7074792061727261790000000000000000006044820152fd5b819061119c846126eb565b8152019101908690611022565b8880fd5b8380fd5b5080fd5b503461025c576020908160031936011261025c576040516370a0823160e01b8152306004828101919091523583826024817f00000000000000000000000000000000000000000000000000000000000000006001600160a01b03165afa918215610e35578392611270575b50670de0b6b3a7640000928382029180830485149015171561125c57506112539161124a91612966565b6005549061298f565b04604051908152f35b634e487b7160e01b81526011600452602490fd5b9091508381813d8311611298575b61128881836127c5565b81010312610a6057519038611220565b503d61127e565b503461025c578060031936011261025c576040517f00000000000000000000000000000000000000000000000000000000000000006001600160a01b03168152602090f35b503461025c578060031936011261025c5760075460405160489190911c6001600160a01b03168152602090f35b503461025c578060031936011261025c5760206001600160401b0360075460081c16604051908152f35b503461025c578060031936011261025c57546040516001600160a01b039091168152602090f35b503461025c578060031936011261025c5760206040516001600160401b037f0000000000000000000000000000000000000000000000000000000000000000168152f35b503461025c576003196020368201126111b157600435906001600160401b03908183116111ad5760a0908336030112612217577f00000000000000000000000000000000000000000000000000000000000000006001600160a01b031633036121ff5760405161141581612746565b826004013581526024830135828116810361044857602082015260448301358281116104485761144b90600436918601016127e6565b906040810191825260648401358381116120035761146f90600436918701016127e6565b93606082019485526084810135908482116109c85701903660238301121561200357600482013561149f81612902565b926114ad60405194856127c5565b8184526024602085019260061b820101903682116111a957602401915b8183106121c75750505060800152516020818051810103126111ad5761150e90611509906001600160a01b0390611503906020016138e5565b166136ce565b6129e1565b81516020818051810103126111ad5761152b602060ff92016138f9565b169060ff1982816007541617600755821560001461179c57505050516060818051810103126111b157611560602082016138f9565b50606061156f604083016138e5565b910151906001600160a01b03166115a57f000000000000000000000000000000000000000000000000000000000000000061393e565b6040516370a0823160e01b81523060048201527f00000000000000000000000000000000000000000000000000000000000000006001600160a01b03169190602081602481865afa908115610a6c57869161176a575b50670de0b6b3a764000090818602868104831487151715611756579061162091612966565b61163186610d19600554809461298f565b60055560015460a01c60ff1661165e575050505082526006602052610d4b604083209182546129d4565b80f35b60405163095ea7b360e01b81526001600160a01b03841660048201529190046024820181905290945092916020908590604490829089905af19283156109bd5761170994602094611739575b50604051631a4ca37b60e21b81526001600160a01b037f00000000000000000000000000000000000000000000000000000000000000008116600483015260248201929092529216604483015290928391908290869082906064820190565b03926001600160a01b03165af1801561043d57611724575080f35b602090813d8311610e2e57610e2381836127c5565b61174f90853d87116109f3576109e381836127c5565b50386116aa565b634e487b7160e01b88526011600452602488fd5b90506020813d602011611794575b81611785602093836127c5565b81010312610a605751386115fb565b3d9150611778565b9091926001938481146000146118935750905051916060838051810103126111ad576117ca602084016138f9565b50604083015191821682036111ad5761047e926001600160a01b03906117f2906060016138e5565b16907f000000000000000000000000000000000000000000000000000000000000000091611861837f00000000000000000000000000000000000000000000000000000000000000007f0000000000000000000000000000000000000000000000000000000000000000613997565b93600554926040519360026020860152604085015260408452611883846127aa565b805460ff60a01b19169055612a2d565b6002036121905751604081805181010312610448576040816118b860208794016138f9565b50015191600954161760095561190e7f00000000000000000000000000000000000000000000000000000000000000007f0000000000000000000000000000000000000000000000000000000000000000613b12565b600555815460ff60a01b1916600160a01b17825560405160208082019390935291825261193a82612761565b807f000000000000000000000000000000000000000000000000000000000000000016907f000000000000000000000000000000000000000000000000000000000000000016146000146119ec5750807f00000000000000000000000000000000000000000000000000000000000000006001600160a01b0316803b156119e9578190600460405180948193634cab8a5760e11b83525af1801561043d576119e0575080f35b61165b9061277c565b50fd5b7f00000000000000000000000000000000000000000000000000000000000000008291611a1b611509836136ce565b60606080604051611a2b81612746565b82815282602082015282604082015286838201520152604051611a4d81612715565b8481526040519260018060a01b0316602084015260208352611a6e83612761565b611a88604051611a7d81612715565b621e84808152613907565b9160405193611a9685612746565b845260208401526040830152836060830152608082015260405163b0f479a160e01b8152602081600481305afa9081156104c2578491612161575b506040516320487ded60e01b81529160208380611b12847f000000000000000000000000000000000000000000000000000000000000000060048401613605565b03816001600160a01b0386165afa9283156109bd57859361212d575b506040516370a0823160e01b81523060048201526020816024817f00000000000000000000000000000000000000000000000000000000000000006001600160a01b03165afa908115610a6c5786916120fb575b5061208a575b6040516370a0823160e01b815230600482015285906020816024817f00000000000000000000000000000000000000000000000000000000000000006001600160a01b03165afa801561043d578290612056575b6004805460405163095ea7b360e01b81526001600160a01b039091169181019190915260248101829052915060208280604481015b0381867f00000000000000000000000000000000000000000000000000000000000000006001600160a01b03165af1918215610e3557602092612039575b5060405190611c5d8261278f565b6001600160a01b037f0000000000000000000000000000000000000000000000000000000000000000811683527f0000000000000000000000000000000000000000000000000000000000000000811684840190815261ffff7f00000000000000000000000000000000000000000000000000000000000000001660408086019182523060608701908152608087018c815260a0880196875260c088018a8152600480549451635023b4df60e01b815299518816908a0152945186166024890152925162ffffff166044880152518416606487015290516084860152925160a485015251811660c48401529193849260e492849291165af1908115610a6c578691612007575b507f00000000000000000000000000000000000000000000000000000000000000006001600160a01b03163b1561200357604051632e1a7d4d60e01b8152600481018590528681602481837f00000000000000000000000000000000000000000000000000000000000000006001600160a01b03165af18015611ff857611fe5575b50600855478311611fc65783611f5e575b602091611e3a916040519485809481936396f4e9f960e01b83527f000000000000000000000000000000000000000000000000000000000000000060048401613605565b03926001600160a01b03165af1801561043d57611f33575b506040516370a0823160e01b81523060048201526020816024817f00000000000000000000000000000000000000000000000000000000000000006001600160a01b03165afa918215611f275791611ef5575b501561165b5761165b7f00000000000000000000000000000000000000000000000000000000000000007f0000000000000000000000000000000000000000000000000000000000000000613b12565b90506020813d602011611f1f575b81611f10602093836127c5565b810103126111b1575138611ea5565b3d9150611f03565b604051903d90823e3d90fd5b602090813d8311611f57575b611f4981836127c5565b810103126111b15738611e52565b503d611f3f565b60405163095ea7b360e01b81526001600160a01b03831660048201526024810186905260208160448188805af180156109bd579160209391611e3a93611fa9575b5091509150611df6565b611fbf90853d87116109f3576109e381836127c5565b5038611f9f565b604051634787a10360e11b815247600482015260248101849052604490fd5b611ff091955061277c565b849338611de5565b6040513d89823e3d90fd5b8580fd5b90506020813d602011612031575b81612022602093836127c5565b81010312612003575138611d63565b3d9150612015565b61204f90833d85116109f3576109e381836127c5565b5038611c4f565b506020813d602011612082575b81612070602093836127c5565b810103126111b157611c119051611bdc565b3d9150612063565b6120f57f00000000000000000000000000000000000000000000000000000000000000007f00000000000000000000000000000000000000000000000000000000000000007f0000000000000000000000000000000000000000000000000000000000000000613997565b50611b88565b90506020813d602011612125575b81612116602093836127c5565b81010312612003575138611b82565b3d9150612109565b9092506020813d602011612159575b81612149602093836127c5565b8101031261044857519138611b2e565b3d915061213c565b612183915060203d602011612189575b61217b81836127c5565b8101906135a6565b38611ad1565b503d612171565b60405162461bcd60e51b815260206004820152600f60248201526e1a5b9d985b1a590818dbdb5b585b99608a1b6044820152606490fd5b6040833603126111a957602060409182516121e181612761565b6121ea866126eb565b815282860135838201528152019201916114ca565b6040516335fdcccd60e21b8152336004820152602490fd5b8280fd5b503461025c578060031936011261025c576001546001600160a01b0380821633036122815782546001600160a01b03198082163390811786559316600155167f8be0079c531659141344cd1fd0a4f28419497f9722a3daafe3b4186f6b6457e08380a380f35b60405162461bcd60e51b815260206004820152601660248201527526bab9ba10313290383937b837b9b2b21037bbb732b960511b6044820152606490fd5b503461025c578060031936011261025c5760206040516001600160401b037f0000000000000000000000000000000000000000000000000000000000000000168152f35b503461025c578060031936011261025c576040517f00000000000000000000000000000000000000000000000000000000000000006001600160a01b03168152602090f35b503461025c5760a036600319011261025c576123626126ff565b9061236b6126d5565b6001600160a01b03919060443583811690819003612217576064358481168091036111ad57608435956001600160401b038711610448576123b561243795969736906004016127e6565b60405193602098899616868601528585526123cf85612761565b6040516123db81612715565b8881526123f86040516123ed81612715565b620f42408152613907565b926040519661240688612746565b8752878701526040860152606085015260808401526040518095819482936320487ded60e01b845260048401613605565b03915afa918215611f27578092612453575b5050604051908152f35b9091508282813d831161247c575b61246b81836127c5565b8101031261025c5750513880612449565b503d612461565b503461025c578060031936011261025c576020600554604051908152f35b503461025c578060031936011261025c576020600854604051908152f35b503461025c578060031936011261025c576040517f00000000000000000000000000000000000000000000000000000000000000006001600160a01b03168152602090f35b503461025c578060031936011261025c57602060ff60015460a01c166040519015158152f35b503461025c57604036600319011261025c576125446126bf565b61254c6126d5565b6040516335ea6a7560e01b81526001600160a01b039182166004820152610180929091839183916024918391165afa918215610e355760209392612594575050604051908152f35b6125aa9250803d106104bb5761049e81836127c5565b5050505050509450505050503880612449565b503461025c578060031936011261025c576004546040516001600160a01b039091168152602090f35b503461025c578060031936011261025c57602060405161ffff7f0000000000000000000000000000000000000000000000000000000000000000168152f35b503461025c578060031936011261025c576040517f00000000000000000000000000000000000000000000000000000000000000006001600160a01b03168152602090f35b9050346111b15760203660031901126111b15760043563ffffffff60e01b811680910361221757602092506385572ffb60e01b81149081156126ae575b5015158152f35b6301ffc9a760e01b149050386126a7565b600435906001600160a01b0382168203610a6057565b602435906001600160a01b0382168203610a6057565b35906001600160a01b0382168203610a6057565b600435906001600160401b0382168203610a6057565b602081019081106001600160401b0382111761273057604052565b634e487b7160e01b600052604160045260246000fd5b60a081019081106001600160401b0382111761273057604052565b604081019081106001600160401b0382111761273057604052565b6001600160401b03811161273057604052565b60e081019081106001600160401b0382111761273057604052565b606081019081106001600160401b0382111761273057604052565b90601f801991011681019081106001600160401b0382111761273057604052565b81601f82011215610a60578035906001600160401b038211612730576040519261281a601f8401601f1916602001856127c5565b82845260208383010111610a6057816000926020809301838601378301015290565b34610a60576040366003190112610a605761001b6128586126ff565b6128606126d5565b907f0000000000000000000000000000000000000000000000000000000000000000906128ce827f00000000000000000000000000000000000000000000000000000000000000007f0000000000000000000000000000000000000000000000000000000000000000613997565b926005549160405192600260208501526040840152604083526128f0836127aa565b6001805460ff60a01b19169055612a2d565b6001600160401b0381116127305760051b60200190565b6002548110156129505760026000527f405787fa12a823e0f2b7631cc41b3ba8828b3321ca811111fa75cd3aa3bb5ace0190600090565b634e487b7160e01b600052603260045260246000fd5b8181029291811591840414171561297957565b634e487b7160e01b600052601160045260246000fd5b8115612999570490565b634e487b7160e01b600052601260045260246000fd5b9190820391821161297957565b90816020910312610a6057518015158103610a605790565b9190820180921161297957565b156129e857565b60405162461bcd60e51b815260206004820152601d60248201527f43616c6c6572206973206e6f7420616e20616c6c6f776564206e6f64650000006044820152606490fd5b9091600094612a3e611509856136ce565b859080613117575b50612a538186848761376d565b946040519463b0f479a160e01b8652602086600481305afa958615610eab5788966130f6575b506040516320487ded60e01b81529360208580612a9a8b8a60048401613605565b03816001600160a01b038b165afa9485156109fa5789956130c2575b506040516370a0823160e01b81523060048201526020816024817f00000000000000000000000000000000000000000000000000000000000000006001600160a01b03165afa908115612fc5578a91613090575b5061301f575b6040516370a0823160e01b81523060048201526020816024817f00000000000000000000000000000000000000000000000000000000000000006001600160a01b03165afa908115612fc5578a91612fed575b506004805460405163095ea7b360e01b81526001600160a01b039182169281019290925260248201839052602090829060449082908f907f0000000000000000000000000000000000000000000000000000000000000000165af18015612f8257916020918c959493612fd0575b5060405190612bdf8261278f565b6001600160a01b037f0000000000000000000000000000000000000000000000000000000000000000811683527f0000000000000000000000000000000000000000000000000000000000000000811684840190815261ffff7f00000000000000000000000000000000000000000000000000000000000000001660408086019182523060608701908152608087018e815260a0880196875260c088018c8152600480549451635023b4df60e01b815299518816908a0152945186166024890152925162ffffff166044880152518416606487015290516084860152925160a485015251811660c48401529195869260e492849291165af1928315612fc5578a93612f91575b507f00000000000000000000000000000000000000000000000000000000000000006001600160a01b03163b15612f8d57604051632e1a7d4d60e01b8152600481018790528a81602481837f00000000000000000000000000000000000000000000000000000000000000006001600160a01b03165af18015612f8257612f6f575b5084612f4f575b5050600855478311611fc6576001600160a01b03169081612edb575b505091612db29493916020936040518097819582946396f4e9f960e01b845260048401613605565b03926001600160a01b03165af1918215610e5d578192612ea7575b506040516370a0823160e01b81523060048201526020816024817f00000000000000000000000000000000000000000000000000000000000000006001600160a01b03165afa918215611f275791612e75575b50612e285790565b612e727f00000000000000000000000000000000000000000000000000000000000000007f0000000000000000000000000000000000000000000000000000000000000000613b12565b90565b90506020813d602011612e9f575b81612e90602093836127c5565b81010312610a60575138612e20565b3d9150612e83565b9091506020813d602011612ed3575b81612ec3602093836127c5565b81010312610a6057519038612dcd565b3d9150612eb6565b60405163095ea7b360e01b81526001600160a01b0386166004820152602481019190915290602090829060449082908a905af18015610a6c5791612db29695939160209593612f32575b5091938193959650612d8a565b612f4890863d88116109f3576109e381836127c5565b5038612f25565b8298508390612f61612f6794876129af565b9261376d565b953880612d6e565b612f7b909a919a61277c565b9838612d67565b6040513d8d823e3d90fd5b8980fd5b9092506020813d602011612fbd575b81612fad602093836127c5565b81010312612f8d57519138612ce5565b3d9150612fa0565b6040513d8c823e3d90fd5b612fe690833d85116109f3576109e381836127c5565b5038612bd1565b90506020813d602011613017575b81613008602093836127c5565b81010312612f8d575138612b63565b3d9150612ffb565b61308a7f00000000000000000000000000000000000000000000000000000000000000007f00000000000000000000000000000000000000000000000000000000000000007f0000000000000000000000000000000000000000000000000000000000000000613997565b50612b10565b90506020813d6020116130ba575b816130ab602093836127c5565b81010312612f8d575138612b0a565b3d915061309e565b9094506020813d6020116130ee575b816130de602093836127c5565b810103126111a957519338612ab6565b3d91506130d1565b61311091965060203d6020116121895761217b81836127c5565b9438612a79565b905038612a46565b92909161312e611509846136ce565b600354604080516001600160a01b03928316969193909161314e83612746565b606091828452886020938085870152808887015280608060009788838201520152875161317a81612715565b8681528789519b16868c0152858b526131928b612761565b6131a08951611a7d81612715565b9389519b6131ad8d612746565b8c52868c0152888b01528901526080880152845163b0f479a160e01b815297600491838a8481305afa998a1561359c5761320a98999a8791879161357f575b501691848b8951809b81926320487ded60e01b835286898401613605565b0381865afa98891561342a578699613550575b50600886905587516323b872dd60e01b815233858201908152306020820152604081018b90529091869183919082908a90829060600103925af190811561342a578691613533575b50156134f05785600354168751986370a0823160e01b998a815230868201528681602481865afa9081156134e65788916134b5575b50811161343457885163095ea7b360e01b81526001600160a01b038516868201908152602081019290925291869183919082908a90829060400103925af1801561342a57918593916133099b9c9361340d575b50868951809c819582946396f4e9f960e01b8452898401613605565b03925af19687156134035783976133d4575b50819060247f000000000000000000000000000000000000000000000000000000000000000097875196879384928352309083015289165afa9384156133c957508193613398575b50505061336e575090565b612e72907f0000000000000000000000000000000000000000000000000000000000000000613b12565b9091809350813d83116133c2575b6133b081836127c5565b8101031261025c575051388080613363565b503d6133a6565b51913d9150823e3d90fd5b9096508181813d83116133fc575b6133ec81836127c5565b810103126122175751958161331b565b503d6133e2565b85513d85823e3d90fd5b61342390853d87116109f3576109e381836127c5565b50386132ed565b88513d88823e3d90fd5b8490868a8994828e60248451809481938252308a8301525afa9283156134ab578693613477575b505051634787a10360e11b815292830152602482015260449150fd5b9080929350813d83116134a4575b61348f81836127c5565b8101031261044857604494505190858061345b565b503d613485565b82513d88823e3d90fd5b90508681813d83116134df575b6134cc81836127c5565b810103126134db57513861329a565b8780fd5b503d6134c2565b8a513d8a823e3d90fd5b865162461bcd60e51b8152808401859052601a60248201527f4e6f742070726f7669646564204c696e6b20666f7220666565730000000000006044820152606490fd5b61354a9150853d87116109f3576109e381836127c5565b38613265565b9098508481813d8311613578575b61356881836127c5565b810103126120035751978461321d565b503d61355e565b6135969150863d88116121895761217b81836127c5565b386131ec565b87513d87823e3d90fd5b90816020910312610a6057516001600160a01b0381168103610a605790565b919082519283825260005b8481106135f1575050826000602080949584010152601f8019910116010190565b6020818301810151848301820152016135d0565b906001600160401b039093929316815260406020918183820152613634855160a08484015260e08301906135c5565b916136508487015193603f1994858583030160608601526135c5565b8187015194848483030160808501528080875193848152019601926000905b8382106136a557505050505060c06080612e72959660018060a01b0360608201511660a0850152015192828503019101526135c5565b845180516001600160a01b0316895283015188840152968701969382019360019091019061366f565b60025460005b8161ffff82161061371e5750507f00000000000000000000000000000000000000000000000000000000000000006001600160a01b0390811691161461371957600090565b600190565b61372781612919565b905460039190911b1c6001600160a01b03908116908416146137585761ffff809116908114612979576001016136d4565b505050600190565b8051156129505760200190565b92919060409182519261377f84612746565b606092838552602095848787015284838701528460806000978883820152015260018060a01b03809416801580613878575b1561380a57505081516137c381612715565b858152925b82519716868801528587526137dc87612761565b6137ea8251611a7d81612715565b958251976137f789612746565b8852870152850152830152608082015290565b83949194519061381982612761565b6001825288885b8181106138575750509061385191819686519161383c83612761565b82528a82015261384b82613760565b52613760565b506137c8565b865161386281612761565b8a81528a83820152828286010152018990613820565b5081156137b1565b919082610180910312610a605781519160208101519160408201519160608101519160808201519160a08101519160c08201519160e081015191610100820151916101208101519161016061014083015192015164ffffffffff81168103610a605790565b51906001600160a01b0382168203610a6057565b519060ff82168203610a6057565b604051906397a657c960e01b602083015251602482015260248152606081018181106001600160401b038211176127305760405290565b60405163026b1d5f60e01b815290602090829060049082906001600160a01b03165afa90811561398b57600091613973575090565b612e72915060203d81116121895761217b81836127c5565b6040513d6000823e3d90fd5b604080516370a0823160e01b815230600482015293949390926020926001600160a01b039182169291908483602481875afa928315613ad657600093613ae1575b506139e29061393e565b855163095ea7b360e01b81526001600160a01b03821660048201526024810184905290938590829060449082906000905af18015613ad657859492613a6898999492600092613ab9575b508751631a4ca37b60e21b81526001600160a01b0390951660048601526024850192909252306044850152929687938492909183906064820190565b0393165af1918215613aaf5750600091613a83575b50905090565b82813d8311613aa8575b613a9781836127c5565b8101031261025c5750518038613a7d565b503d613a8d565b513d6000823e3d90fd5b613acf90873d89116109f3576109e381836127c5565b5038613a2c565b86513d6000823e3d90fd5b90928582813d8311613b0b575b613af881836127c5565b8101031261025c575051916139e26139d8565b503d613aee565b604080516370a0823160e01b815230600482015290916001600160a01b0390848216906020908185602481865afa948515613ad657600095613c1a575b50613b599061393e565b855163095ea7b360e01b81526001600160a01b03821660048201526024810186905290928290829060449082906000905af18015613ad657613bfc575b50501692833b15610a6057825163e8eda9df60e01b81526001600160a01b03919091166004820152602481019190915230604482015260006064820181905290928390608490829084905af1908115613aaf5750613bf15750565b613bfa9061277c565b565b81613c1292903d106109f3576109e381836127c5565b503880613b96565b90948282813d8311613c44575b613c3181836127c5565b8101031261025c57505193613b59613b4f565b503d613c27565b6000546001600160a01b03163303613c5f57565b60405162461bcd60e51b815260206004820152601660248201527527b7363c9031b0b63630b1363290313c9037bbb732b960511b6044820152606490fdfea26469706673582212204773dc0e8e26aedafdc211df326705f799816d7d58339ea6087f5919a35153e664736f6c63430008130033",
  "bytecodeSha1": "29aa784c0e2bea807e2999ff99314d68af4c73e0",
  "compiler": {
    "evm_version": "istanbul",
    "optimizer": {
      "enabled": true,
      "runs": 200
    },
    "version": "0.8.19+commit.7dd6d404"
  },
  "contractName": "Node",
  "language": "Solidity",
  "natspec": {
    "kind": "dev",
    "methods": {
      "MASTER_CONTRACT_CHAIN_ID()": {
        "notice": "TESTER ////"
      },
      "acceptOwnership()": {
        "notice": "Allows an ownership transfer to be completed by the recipient."
      },
      "ccipReceive((bytes32,uint64,bytes,bytes,(address,uint256)[]))": {
        "details": "Note ensure you check the msg.sender is the OffRampRouter",
        "notice": "Called by the Router to deliver a message. If this reverts, any token transfers also revert. The message will move to a FAILED state and become available for manual execution.",
        "params": {
          "message": "CCIP Message"
        }
      },
      "constructor": {
        "notice": "Constructor initializes the contract with the router address.",
        "params": {
          "_link": "The address of the link contract.",
          "_router": "The address of the router contract."
        }
      },
      "getRouter()": {
        "notice": "Return the current router",
        "returns": {
          "_0": "CCIP router address"
        }
      },
      "owner()": {
        "notice": "Get the current owner"
      },
      "supportsInterface(bytes4)": {
        "details": "Should indicate whether the contract implements IAny2EVMMessageReceiver e.g. return interfaceId == type(IAny2EVMMessageReceiver).interfaceId || interfaceId == type(IERC165).interfaceId This allows CCIP to check if ccipReceive is available before calling it. If this returns false or reverts, only tokens are transferred to the receiver. If this returns true, tokens are transferred and ccipReceive is called atomically. Additionally, if the receiver address does not have code associated with it at the time of execution (EXTCODESIZE returns 0), only tokens will be transferred.",
        "notice": "IERC165 supports an interfaceId",
        "params": {
          "interfaceId": "The interfaceId to check"
        },
        "returns": {
          "_0": "true if the interfaceId is supported"
        }
      },
      "transferOwnership(address)": {
        "notice": "Allows an owner to begin transferring ownership to a new address."
      }
    },
    "version": 1
  },
  "opcodes": "PUSH1 0x80 DUP1 PUSH1 0x40 MSTORE PUSH1 0x4 CALLDATASIZE LT ISZERO PUSH2 0x1D JUMPI JUMPDEST POP CALLDATASIZE ISZERO PUSH2 0x1B JUMPI PUSH1 0x0 DUP1 REVERT JUMPDEST STOP JUMPDEST PUSH1 0x0 SWAP1 DUP2 CALLDATALOAD PUSH1 0xE0 SHR SWAP1 DUP2 PUSH4 0x1FFC9A7 EQ PUSH2 0x266A JUMPI POP DUP1 PUSH4 0x40141E5 EQ PUSH2 0x2625 JUMPI DUP1 PUSH4 0xE508FFF EQ PUSH2 0x25E6 JUMPI DUP1 PUSH4 0x15D03DFD EQ PUSH2 0x25BD JUMPI DUP1 PUSH4 0x168010ED EQ PUSH2 0x252A JUMPI DUP1 PUSH4 0x1D34B4FF EQ PUSH2 0x2504 JUMPI DUP1 PUSH4 0x32D3AD5E EQ PUSH2 0x24BF JUMPI DUP1 PUSH4 0x49CB88A2 EQ PUSH2 0x24A1 JUMPI DUP1 PUSH4 0x4C8719F3 EQ PUSH2 0x2483 JUMPI DUP1 PUSH4 0x544B1709 EQ PUSH2 0x2348 JUMPI DUP1 PUSH4 0x67062580 EQ PUSH2 0x2303 JUMPI DUP1 PUSH4 0x7058A5E7 EQ PUSH2 0x22BF JUMPI DUP1 PUSH4 0x79BA5097 EQ PUSH2 0x221B JUMPI DUP1 PUSH4 0x85572FFB EQ PUSH2 0x13A6 JUMPI DUP1 PUSH4 0x8CF19D19 EQ PUSH2 0x1362 JUMPI DUP1 PUSH4 0x8DA5CB5B EQ PUSH2 0x133B JUMPI DUP1 PUSH4 0x8E7C2F43 EQ PUSH2 0x1311 JUMPI DUP1 PUSH4 0x9428B7F8 EQ PUSH2 0x12E4 JUMPI DUP1 PUSH4 0x97652FFE EQ PUSH2 0xB38 JUMPI DUP1 PUSH4 0x982D1F18 EQ PUSH2 0x129F JUMPI DUP1 PUSH4 0x98B3C1F8 EQ PUSH2 0x11B5 JUMPI DUP1 PUSH4 0xA19B24B5 EQ PUSH2 0xFB5 JUMPI DUP1 PUSH4 0xA63CA076 EQ PUSH2 0xF71 JUMPI DUP1 PUSH4 0xA6E1D016 EQ PUSH2 0xF4E JUMPI DUP1 PUSH4 0xAF002DB8 EQ PUSH2 0xBC7 JUMPI DUP1 PUSH4 0xAF256173 EQ PUSH2 0xB82 JUMPI DUP1 PUSH4 0xB0F479A1 EQ PUSH2 0xB3D JUMPI DUP1 PUSH4 0xB2AAE5C7 EQ PUSH2 0xB38 JUMPI DUP1 PUSH4 0xB6B55F25 EQ PUSH2 0x6BE JUMPI DUP1 PUSH4 0xBB09D9B7 EQ PUSH2 0x679 JUMPI DUP1 PUSH4 0xC330A2ED EQ PUSH2 0x4CD JUMPI DUP1 PUSH4 0xD8BBA68F EQ PUSH2 0x2B9 JUMPI DUP1 PUSH4 0xDC3F1F59 EQ PUSH2 0x298 JUMPI DUP1 PUSH4 0xE227A140 EQ PUSH2 0x25F JUMPI PUSH4 0xF2FDE38B SUB PUSH2 0xF JUMPI CALLVALUE PUSH2 0x25C JUMPI PUSH1 0x20 CALLDATASIZE PUSH1 0x3 NOT ADD SLT PUSH2 0x25C JUMPI PUSH2 0x1C0 PUSH2 0x26BF JUMP JUMPDEST PUSH2 0x1C8 PUSH2 0x3C4B JUMP JUMPDEST PUSH1 0x1 PUSH1 0x1 PUSH1 0xA0 SHL SUB SWAP1 DUP2 AND SWAP1 CALLER DUP3 EQ PUSH2 0x217 JUMPI PUSH1 0x1 DUP1 SLOAD PUSH1 0x1 PUSH1 0x1 PUSH1 0xA0 SHL SUB NOT AND DUP4 OR SWAP1 SSTORE DUP3 SLOAD AND PUSH32 0xED8889F560326EB138920D842192F0EB3DD22B4F139C87A2C57538E05BAE1278 DUP4 DUP1 LOG3 DUP1 RETURN JUMPDEST PUSH1 0x40 MLOAD PUSH3 0x461BCD PUSH1 0xE5 SHL DUP2 MSTORE PUSH1 0x20 PUSH1 0x4 DUP3 ADD MSTORE PUSH1 0x17 PUSH1 0x24 DUP3 ADD MSTORE PUSH32 0x43616E6E6F74207472616E7366657220746F2073656C66000000000000000000 PUSH1 0x44 DUP3 ADD MSTORE PUSH1 0x64 SWAP1 REVERT JUMPDEST DUP1 REVERT JUMPDEST POP CALLVALUE PUSH2 0x25C JUMPI PUSH1 0x20 CALLDATASIZE PUSH1 0x3 NOT ADD SLT PUSH2 0x25C JUMPI PUSH1 0x20 SWAP1 PUSH1 0x40 SWAP1 PUSH1 0x1 PUSH1 0x1 PUSH1 0xA0 SHL SUB PUSH2 0x287 PUSH2 0x26BF JUMP JUMPDEST AND DUP2 MSTORE PUSH1 0x6 DUP4 MSTORE KECCAK256 SLOAD PUSH1 0x40 MLOAD SWAP1 DUP2 MSTORE RETURN JUMPDEST POP CALLVALUE PUSH2 0x25C JUMPI DUP1 PUSH1 0x3 NOT CALLDATASIZE ADD SLT PUSH2 0x25C JUMPI PUSH1 0x20 PUSH1 0xFF PUSH1 0x7 SLOAD AND PUSH1 0x40 MLOAD SWAP1 DUP2 MSTORE RETURN JUMPDEST POP CALLVALUE PUSH2 0x25C JUMPI DUP1 PUSH1 0x3 NOT CALLDATASIZE ADD SLT PUSH2 0x25C JUMPI PUSH1 0x40 MLOAD PUSH4 0x35EA6A75 PUSH1 0xE0 SHL DUP2 MSTORE PUSH1 0x1 PUSH1 0x1 PUSH1 0xA0 SHL SUB PUSH32 0x0 DUP2 AND PUSH1 0x4 DUP4 ADD MSTORE DUP3 SWAP2 PUSH2 0x180 DUP1 DUP3 PUSH1 0x24 DUP2 PUSH32 0x0 DUP8 AND GAS STATICCALL SWAP3 DUP4 ISZERO PUSH2 0x4C2 JUMPI DUP5 SWAP3 DUP6 SWAP3 DUP7 SWAP6 PUSH2 0x482 JUMPI JUMPDEST POP POP PUSH1 0x40 MLOAD PUSH1 0x2 PUSH1 0x20 DUP3 ADD MSTORE DUP4 PUSH1 0x40 DUP3 ADD MSTORE DUP3 PUSH1 0x60 DUP3 ADD MSTORE DUP5 PUSH1 0x80 DUP3 ADD MSTORE PUSH1 0x80 DUP2 MSTORE PUSH2 0x373 DUP2 PUSH2 0x2746 JUMP JUMPDEST PUSH32 0x0 PUSH1 0x1 PUSH1 0x1 PUSH1 0x40 SHL SUB DUP1 DUP3 AND SWAP1 PUSH32 0x0 AND EQ PUSH1 0x0 EQ PUSH2 0x44C JUMPI POP POP PUSH32 0x0 AND DUP1 EXTCODESIZE ISZERO PUSH2 0x448 JUMPI DUP5 SWAP3 DUP4 PUSH1 0x64 SWAP3 PUSH1 0x40 MLOAD SWAP7 DUP8 SWAP6 DUP7 SWAP5 PUSH4 0x9637120F PUSH1 0xE0 SHL DUP7 MSTORE PUSH1 0x4 DUP7 ADD MSTORE PUSH1 0x24 DUP6 ADD MSTORE PUSH1 0x44 DUP5 ADD MSTORE GAS CALL DUP1 ISZERO PUSH2 0x43D JUMPI PUSH2 0x42D JUMPI POP POP DUP1 RETURN JUMPDEST PUSH2 0x436 SWAP1 PUSH2 0x277C JUMP JUMPDEST PUSH2 0x25C JUMPI DUP1 RETURN JUMPDEST PUSH1 0x40 MLOAD RETURNDATASIZE DUP5 DUP3 RETURNDATACOPY RETURNDATASIZE SWAP1 REVERT JUMPDEST DUP5 DUP1 REVERT JUMPDEST SWAP4 POP SWAP4 POP POP POP PUSH2 0x47E SWAP3 POP PUSH32 0x0 SWAP1 PUSH2 0x311F JUMP JUMPDEST POP DUP1 RETURN JUMPDEST SWAP2 SWAP5 POP SWAP2 POP PUSH2 0x4A6 SWAP3 POP DUP1 RETURNDATASIZE LT PUSH2 0x4BB JUMPI JUMPDEST PUSH2 0x49E DUP2 DUP4 PUSH2 0x27C5 JUMP JUMPDEST DUP2 ADD SWAP1 PUSH2 0x3880 JUMP JUMPDEST POP POP POP POP POP POP SWAP4 POP SWAP4 POP POP SWAP2 SWAP1 SWAP3 CODESIZE DUP1 PUSH2 0x348 JUMP JUMPDEST POP RETURNDATASIZE PUSH2 0x494 JUMP JUMPDEST PUSH1 0x40 MLOAD RETURNDATASIZE DUP7 DUP3 RETURNDATACOPY RETURNDATASIZE SWAP1 REVERT JUMPDEST POP CALLVALUE PUSH2 0x25C JUMPI DUP1 PUSH1 0x3 NOT CALLDATASIZE ADD SLT PUSH2 0x25C JUMPI CALLER DUP2 MSTORE PUSH1 0x6 PUSH1 0x20 MSTORE PUSH1 0x40 DUP2 KECCAK256 SLOAD ISZERO PUSH2 0x634 JUMPI CALLER DUP2 MSTORE PUSH1 0x6 PUSH1 0x20 MSTORE DUP1 PUSH1 0x40 DUP2 KECCAK256 SLOAD PUSH1 0x40 MLOAD PUSH2 0x53D DUP2 PUSH2 0x52F DUP5 CALLER PUSH1 0x20 DUP5 ADD PUSH1 0x40 SWAP1 SWAP4 SWAP3 SWAP2 SWAP4 PUSH1 0x60 DUP2 ADD SWAP5 PUSH1 0x0 DUP3 MSTORE PUSH1 0x1 DUP1 PUSH1 0xA0 SHL SUB AND PUSH1 0x20 DUP3 ADD MSTORE ADD MSTORE JUMP JUMPDEST SUB PUSH1 0x1F NOT DUP2 ADD DUP4 MSTORE DUP3 PUSH2 0x27C5 JUMP JUMPDEST PUSH32 0x0 PUSH1 0x1 PUSH1 0x1 PUSH1 0x40 SHL SUB DUP1 DUP3 AND SWAP1 PUSH32 0x0 AND EQ PUSH1 0x0 EQ PUSH2 0x605 JUMPI POP POP PUSH32 0x0 PUSH1 0x1 PUSH1 0x1 PUSH1 0xA0 SHL SUB AND DUP1 EXTCODESIZE ISZERO PUSH2 0x601 JUMPI PUSH1 0x40 MLOAD PUSH4 0x11E0FA9 PUSH1 0xE2 SHL DUP2 MSTORE CALLER PUSH1 0x4 DUP3 ADD MSTORE PUSH1 0x24 DUP2 ADD SWAP3 SWAP1 SWAP3 MSTORE DUP3 SWAP1 DUP3 SWAP1 DUP2 DUP4 DUP2 PUSH1 0x44 DUP2 ADD JUMPDEST SUB SWAP3 GAS CALL DUP1 ISZERO PUSH2 0x43D JUMPI PUSH2 0x42D JUMPI POP POP DUP1 RETURN JUMPDEST POP POP REVERT JUMPDEST SWAP1 SWAP2 POP PUSH2 0x47E SWAP3 POP PUSH32 0x0 SWAP1 PUSH2 0x311F JUMP JUMPDEST PUSH1 0x40 MLOAD PUSH3 0x461BCD PUSH1 0xE5 SHL DUP2 MSTORE PUSH1 0x20 PUSH1 0x4 DUP3 ADD MSTORE PUSH1 0x18 PUSH1 0x24 DUP3 ADD MSTORE PUSH32 0x4E6F206157525020746F6B656E7320746F20726566756E640000000000000000 PUSH1 0x44 DUP3 ADD MSTORE PUSH1 0x64 SWAP1 REVERT JUMPDEST POP CALLVALUE PUSH2 0x25C JUMPI DUP1 PUSH1 0x3 NOT CALLDATASIZE ADD SLT PUSH2 0x25C JUMPI PUSH1 0x40 MLOAD PUSH32 0x0 PUSH1 0x1 PUSH1 0x1 PUSH1 0xA0 SHL SUB AND DUP2 MSTORE PUSH1 0x20 SWAP1 RETURN JUMPDEST POP CALLVALUE PUSH2 0x25C JUMPI PUSH1 0x20 SWAP1 DUP2 PUSH1 0x3 NOT CALLDATASIZE ADD SLT PUSH2 0x25C JUMPI PUSH1 0x40 MLOAD PUSH4 0x23B872DD PUSH1 0xE0 SHL DUP2 MSTORE CALLER PUSH1 0x4 DUP1 DUP4 ADD SWAP2 SWAP1 SWAP2 MSTORE ADDRESS PUSH1 0x24 DUP4 ADD MSTORE CALLDATALOAD PUSH1 0x44 DUP3 ADD DUP2 SWAP1 MSTORE PUSH1 0x1 PUSH1 0x1 PUSH1 0xA0 SHL SUB PUSH32 0x0 DUP2 DUP2 AND SWAP6 SWAP3 SWAP4 SWAP2 SWAP3 SWAP2 DUP3 DUP2 PUSH1 0x64 DUP2 DUP10 DUP12 GAS CALL SWAP1 DUP2 ISZERO PUSH2 0xA6C JUMPI DUP7 SWAP2 PUSH2 0xB1B JUMPI JUMPDEST POP ISZERO PUSH2 0xAD6 JUMPI PUSH1 0xFF PUSH1 0x1 SLOAD PUSH1 0xA0 SHR AND ISZERO PUSH2 0xA77 JUMPI PUSH1 0x40 MLOAD PUSH4 0x70A08231 PUSH1 0xE0 SHL DUP2 MSTORE ADDRESS PUSH1 0x4 DUP3 ADD MSTORE SWAP4 DUP3 DUP6 PUSH1 0x24 DUP2 PUSH32 0x0 DUP9 AND GAS STATICCALL SWAP5 DUP6 ISZERO PUSH2 0xA6C JUMPI DUP7 SWAP6 PUSH2 0xA38 JUMPI JUMPDEST POP PUSH1 0x5 SLOAD SWAP5 DUP6 PUSH2 0xA19 JUMPI POP PUSH5 0xE8D4A51000 SWAP7 DUP8 DUP3 MUL SWAP8 DUP3 DUP10 DIV EQ DUP3 ISZERO OR ISZERO PUSH2 0xA05 JUMPI PUSH2 0x7CE DUP8 SWAP9 DUP1 SWAP8 PUSH2 0x29D4 JUMP JUMPDEST PUSH1 0x5 SSTORE PUSH1 0x40 DUP1 MLOAD PUSH1 0x0 DUP7 DUP3 ADD SWAP1 DUP2 MSTORE CALLER PUSH1 0x20 DUP3 ADD MSTORE DUP1 DUP4 ADD DUP10 SWAP1 MSTORE DUP2 SWAP1 SUB SWAP2 DUP3 ADD DUP2 MSTORE SWAP5 SWAP1 PUSH2 0x800 SWAP1 PUSH1 0x60 ADD DUP7 PUSH2 0x27C5 JUMP JUMPDEST PUSH2 0x829 PUSH32 0x0 PUSH2 0x393E JUMP JUMPDEST PUSH1 0x40 MLOAD PUSH4 0x95EA7B3 PUSH1 0xE0 SHL DUP2 MSTORE PUSH1 0x1 PUSH1 0x1 PUSH1 0xA0 SHL SUB DUP3 AND PUSH1 0x4 DUP3 ADD MSTORE PUSH1 0x24 DUP2 ADD DUP6 SWAP1 MSTORE SWAP3 SWAP1 SWAP2 SWAP1 DUP2 SWAP1 DUP5 SWAP1 PUSH1 0x44 SWAP1 DUP3 SWAP1 DUP14 SWAP1 GAS CALL SWAP3 DUP4 ISZERO PUSH2 0x9FA JUMPI DUP8 SWAP4 PUSH2 0x9CC JUMPI JUMPDEST POP POP AND SWAP2 DUP3 EXTCODESIZE ISZERO PUSH2 0x9C8 JUMPI PUSH1 0x40 MLOAD PUSH4 0xE8EDA9DF PUSH1 0xE0 SHL DUP2 MSTORE PUSH1 0x1 PUSH1 0x1 PUSH1 0xA0 SHL SUB SWAP2 SWAP1 SWAP2 AND PUSH1 0x4 DUP3 ADD MSTORE PUSH1 0x24 DUP2 ADD SWAP2 SWAP1 SWAP2 MSTORE ADDRESS PUSH1 0x44 DUP3 ADD MSTORE PUSH1 0x0 PUSH1 0x64 DUP3 ADD MSTORE SWAP1 DUP6 SWAP1 DUP3 SWAP1 PUSH1 0x84 SWAP1 DUP3 SWAP1 DUP5 SWAP1 GAS CALL SWAP1 DUP2 ISZERO PUSH2 0x9BD JUMPI DUP6 SWAP2 PUSH2 0x9A4 JUMPI JUMPDEST POP POP PUSH32 0x0 PUSH1 0x1 PUSH1 0x1 PUSH1 0x40 SHL SUB DUP1 DUP3 AND SWAP1 PUSH32 0x0 AND EQ PUSH1 0x0 EQ PUSH2 0x974 JUMPI POP POP PUSH32 0x0 AND DUP1 EXTCODESIZE ISZERO PUSH2 0x601 JUMPI PUSH1 0x40 MLOAD PUSH4 0x11E0FA9 PUSH1 0xE2 SHL DUP2 MSTORE CALLER PUSH1 0x4 DUP3 ADD MSTORE PUSH1 0x24 DUP2 ADD SWAP3 SWAP1 SWAP3 MSTORE DUP3 SWAP1 DUP3 SWAP1 DUP2 DUP4 DUP2 PUSH1 0x44 DUP2 ADD PUSH2 0x5EE JUMP JUMPDEST SWAP2 POP SWAP2 POP PUSH2 0x47E SWAP3 POP PUSH32 0x0 SWAP1 PUSH2 0x311F JUMP JUMPDEST PUSH2 0x9AD SWAP1 PUSH2 0x277C JUMP JUMPDEST PUSH2 0x9B8 JUMPI DUP4 CODESIZE PUSH2 0x8C5 JUMP JUMPDEST POP POP POP REVERT JUMPDEST PUSH1 0x40 MLOAD RETURNDATASIZE DUP8 DUP3 RETURNDATACOPY RETURNDATASIZE SWAP1 REVERT JUMPDEST DUP7 DUP1 REVERT JUMPDEST DUP2 PUSH2 0x9EB SWAP3 SWAP1 RETURNDATASIZE LT PUSH2 0x9F3 JUMPI JUMPDEST PUSH2 0x9E3 DUP2 DUP4 PUSH2 0x27C5 JUMP JUMPDEST DUP2 ADD SWAP1 PUSH2 0x29BC JUMP JUMPDEST POP CODESIZE DUP1 PUSH2 0x86B JUMP JUMPDEST POP RETURNDATASIZE PUSH2 0x9D9 JUMP JUMPDEST PUSH1 0x40 MLOAD RETURNDATASIZE DUP12 DUP3 RETURNDATACOPY RETURNDATASIZE SWAP1 REVERT JUMPDEST PUSH4 0x4E487B71 PUSH1 0xE0 SHL DUP8 MSTORE PUSH1 0x11 PUSH1 0x4 MSTORE PUSH1 0x24 DUP8 REVERT JUMPDEST SWAP7 PUSH2 0x7CE PUSH2 0xA31 DUP9 SWAP10 PUSH2 0xA2C DUP10 DUP7 PUSH2 0x2966 JUMP JUMPDEST PUSH2 0x298F JUMP JUMPDEST DUP1 SWAP8 PUSH2 0x29D4 JUMP JUMPDEST SWAP1 SWAP5 POP DUP3 DUP2 DUP2 RETURNDATASIZE DUP4 GT PUSH2 0xA65 JUMPI JUMPDEST PUSH2 0xA50 DUP2 DUP4 PUSH2 0x27C5 JUMP JUMPDEST DUP2 ADD SUB SLT PUSH2 0xA60 JUMPI MLOAD SWAP4 CODESIZE PUSH2 0x7A0 JUMP JUMPDEST PUSH1 0x0 DUP1 REVERT JUMPDEST POP RETURNDATASIZE PUSH2 0xA46 JUMP JUMPDEST PUSH1 0x40 MLOAD RETURNDATASIZE DUP9 DUP3 RETURNDATACOPY RETURNDATASIZE SWAP1 REVERT JUMPDEST PUSH1 0x40 MLOAD PUSH3 0x461BCD PUSH1 0xE5 SHL DUP2 MSTORE PUSH1 0x4 DUP2 ADD DUP4 SWAP1 MSTORE PUSH1 0x31 PUSH1 0x24 DUP3 ADD MSTORE PUSH32 0x4173657473206172652057617270696E67204E6F772C206465706F7369747320 PUSH1 0x44 DUP3 ADD MSTORE PUSH17 0x37B7103732BB90313637B1B5B1B430B4B7 PUSH1 0x79 SHL PUSH1 0x64 DUP3 ADD MSTORE PUSH1 0x84 SWAP1 REVERT JUMPDEST PUSH1 0x40 MLOAD PUSH3 0x461BCD PUSH1 0xE5 SHL DUP2 MSTORE PUSH1 0x4 DUP2 ADD DUP4 SWAP1 MSTORE PUSH1 0x19 PUSH1 0x24 DUP3 ADD MSTORE PUSH32 0x4661696C656420746F207472616E7366657220616D6F756E7400000000000000 PUSH1 0x44 DUP3 ADD MSTORE PUSH1 0x64 SWAP1 REVERT JUMPDEST PUSH2 0xB32 SWAP2 POP DUP4 RETURNDATASIZE DUP6 GT PUSH2 0x9F3 JUMPI PUSH2 0x9E3 DUP2 DUP4 PUSH2 0x27C5 JUMP JUMPDEST CODESIZE PUSH2 0x740 JUMP JUMPDEST PUSH2 0x283C JUMP JUMPDEST POP CALLVALUE PUSH2 0x25C JUMPI DUP1 PUSH1 0x3 NOT CALLDATASIZE ADD SLT PUSH2 0x25C JUMPI PUSH1 0x40 MLOAD PUSH32 0x0 PUSH1 0x1 PUSH1 0x1 PUSH1 0xA0 SHL SUB AND DUP2 MSTORE PUSH1 0x20 SWAP1 RETURN JUMPDEST POP CALLVALUE PUSH2 0x25C JUMPI DUP1 PUSH1 0x3 NOT CALLDATASIZE ADD SLT PUSH2 0x25C JUMPI PUSH1 0x40 MLOAD PUSH32 0x0 PUSH1 0x1 PUSH1 0x1 PUSH1 0xA0 SHL SUB AND DUP2 MSTORE PUSH1 0x20 SWAP1 RETURN JUMPDEST POP CALLVALUE PUSH2 0x25C JUMPI PUSH1 0x40 CALLDATASIZE PUSH1 0x3 NOT ADD SLT PUSH2 0x25C JUMPI PUSH2 0xBE1 PUSH2 0x26BF JUMP JUMPDEST PUSH1 0x24 CALLDATALOAD SWAP1 PUSH1 0x1 PUSH1 0x1 PUSH1 0x40 SHL SUB DUP1 PUSH32 0x0 AND SWAP1 PUSH32 0x0 AND SUB PUSH2 0xEFB JUMPI PUSH1 0x1 PUSH1 0x1 PUSH1 0xA0 SHL SUB PUSH32 0x0 DUP2 AND CALLER SUB PUSH2 0xEB6 JUMPI PUSH2 0xC92 PUSH32 0x0 PUSH2 0x393E JUMP JUMPDEST PUSH1 0x40 MLOAD PUSH4 0x70A08231 PUSH1 0xE0 SHL DUP2 MSTORE ADDRESS PUSH1 0x4 DUP3 ADD MSTORE PUSH1 0x20 SWAP4 SWAP2 PUSH32 0x0 DUP5 AND SWAP2 DUP6 DUP2 PUSH1 0x24 DUP2 DUP7 GAS STATICCALL SWAP1 DUP2 ISZERO PUSH2 0xEAB JUMPI DUP9 SWAP2 PUSH2 0xE7E JUMPI JUMPDEST POP PUSH8 0xDE0B6B3A7640000 SWAP1 DUP2 DUP9 MUL DUP9 DUP2 DIV DUP4 EQ DUP10 ISZERO OR ISZERO PUSH2 0xE6A JUMPI SWAP1 PUSH2 0xD08 SWAP2 PUSH2 0x2966 JUMP JUMPDEST PUSH2 0xD1F DUP9 PUSH2 0xD19 PUSH1 0x5 SLOAD DUP1 SWAP5 PUSH2 0x298F JUMP JUMPDEST SWAP3 PUSH2 0x29AF JUMP JUMPDEST PUSH1 0x5 SSTORE PUSH1 0x1 SLOAD PUSH1 0xA0 SHR PUSH1 0xFF AND PUSH2 0xD50 JUMPI POP POP POP POP SWAP1 PUSH1 0x6 SWAP3 SWAP2 AND DUP5 MSTORE MSTORE PUSH2 0xD4B PUSH1 0x40 DUP4 KECCAK256 SWAP2 DUP3 SLOAD PUSH2 0x29D4 JUMP JUMPDEST SWAP1 SSTORE DUP1 RETURN JUMPDEST PUSH1 0x40 MLOAD PUSH4 0x95EA7B3 PUSH1 0xE0 SHL DUP2 MSTORE PUSH1 0x1 PUSH1 0x1 PUSH1 0xA0 SHL SUB DUP5 AND PUSH1 0x4 DUP3 ADD MSTORE SWAP2 SWAP1 DIV PUSH1 0x24 DUP3 ADD DUP2 SWAP1 MSTORE SWAP6 SWAP7 POP SWAP5 SWAP1 SWAP2 DUP8 SWAP1 DUP8 SWAP1 DUP8 SWAP1 PUSH1 0x44 SWAP1 DUP3 SWAP1 DUP6 SWAP1 GAS CALL SWAP5 DUP6 ISZERO PUSH2 0xE5D JUMPI PUSH2 0xDFC SWAP7 DUP9 SWAP7 PUSH2 0xE40 JUMPI JUMPDEST POP PUSH1 0x40 MLOAD PUSH4 0x1A4CA37B PUSH1 0xE2 SHL DUP2 MSTORE PUSH1 0x1 PUSH1 0x1 PUSH1 0xA0 SHL SUB PUSH32 0x0 DUP2 AND PUSH1 0x4 DUP4 ADD MSTORE PUSH1 0x24 DUP3 ADD SWAP5 SWAP1 SWAP5 MSTORE SWAP3 SWAP1 SWAP5 AND PUSH1 0x44 DUP4 ADD MSTORE SWAP1 SWAP5 DUP6 SWAP4 DUP5 SWAP3 SWAP2 DUP4 SWAP1 PUSH1 0x64 DUP3 ADD SWAP1 JUMP JUMPDEST SUB SWAP4 AND GAS CALL DUP1 ISZERO PUSH2 0xE35 JUMPI PUSH2 0xE10 JUMPI POP POP DUP1 RETURN JUMPDEST DUP2 RETURNDATASIZE DUP4 GT PUSH2 0xE2E JUMPI JUMPDEST PUSH2 0xE23 DUP2 DUP4 PUSH2 0x27C5 JUMP JUMPDEST DUP2 ADD SUB SLT PUSH2 0xA60 JUMPI DUP1 RETURN JUMPDEST POP RETURNDATASIZE PUSH2 0xE19 JUMP JUMPDEST PUSH1 0x40 MLOAD RETURNDATASIZE DUP6 DUP3 RETURNDATACOPY RETURNDATASIZE SWAP1 REVERT JUMPDEST PUSH2 0xE56 SWAP1 DUP8 RETURNDATASIZE DUP10 GT PUSH2 0x9F3 JUMPI PUSH2 0x9E3 DUP2 DUP4 PUSH2 0x27C5 JUMP JUMPDEST POP CODESIZE PUSH2 0xD9D JUMP JUMPDEST POP PUSH1 0x40 MLOAD SWAP1 RETURNDATASIZE SWAP1 DUP3 RETURNDATACOPY RETURNDATASIZE SWAP1 REVERT JUMPDEST PUSH4 0x4E487B71 PUSH1 0xE0 SHL DUP11 MSTORE PUSH1 0x11 PUSH1 0x4 MSTORE PUSH1 0x24 DUP11 REVERT JUMPDEST SWAP1 POP DUP6 DUP2 DUP2 RETURNDATASIZE DUP4 GT PUSH2 0xEA4 JUMPI JUMPDEST PUSH2 0xE95 DUP2 DUP4 PUSH2 0x27C5 JUMP JUMPDEST DUP2 ADD SUB SLT PUSH2 0xA60 JUMPI MLOAD CODESIZE PUSH2 0xCE3 JUMP JUMPDEST POP RETURNDATASIZE PUSH2 0xE8B JUMP JUMPDEST PUSH1 0x40 MLOAD RETURNDATASIZE DUP11 DUP3 RETURNDATACOPY RETURNDATASIZE SWAP1 REVERT JUMPDEST PUSH1 0x40 MLOAD PUSH3 0x461BCD PUSH1 0xE5 SHL DUP2 MSTORE PUSH1 0x20 PUSH1 0x4 DUP3 ADD MSTORE PUSH1 0x1C PUSH1 0x24 DUP3 ADD MSTORE PUSH32 0x4F6E6C79204D617374657220436F6E747261637420616C6C6F77656400000000 PUSH1 0x44 DUP3 ADD MSTORE PUSH1 0x64 SWAP1 REVERT JUMPDEST PUSH1 0x40 MLOAD PUSH3 0x461BCD PUSH1 0xE5 SHL DUP2 MSTORE PUSH1 0x20 PUSH1 0x4 DUP3 ADD MSTORE PUSH1 0x25 PUSH1 0x24 DUP3 ADD MSTORE PUSH32 0x52657175697265206D617374657220616E64206E6F646520696E2073616D6520 PUSH1 0x44 DUP3 ADD MSTORE PUSH5 0x31B430B4B7 PUSH1 0xD9 SHL PUSH1 0x64 DUP3 ADD MSTORE PUSH1 0x84 SWAP1 REVERT JUMPDEST POP CALLVALUE PUSH2 0x25C JUMPI DUP1 PUSH1 0x3 NOT CALLDATASIZE ADD SLT PUSH2 0x25C JUMPI PUSH1 0x20 PUSH1 0xFF PUSH1 0x9 SLOAD AND PUSH1 0x40 MLOAD SWAP1 ISZERO ISZERO DUP2 MSTORE RETURN JUMPDEST POP CALLVALUE PUSH2 0x25C JUMPI PUSH1 0x20 CALLDATASIZE PUSH1 0x3 NOT ADD SLT PUSH2 0x25C JUMPI PUSH1 0x4 CALLDATALOAD SWAP1 PUSH1 0x2 SLOAD DUP3 LT ISZERO PUSH2 0x25C JUMPI PUSH1 0x20 PUSH2 0xF9C DUP4 PUSH2 0x2919 JUMP JUMPDEST SWAP1 SLOAD PUSH1 0x40 MLOAD PUSH1 0x3 SWAP3 SWAP1 SWAP3 SHL SHR PUSH1 0x1 PUSH1 0x1 PUSH1 0xA0 SHL SUB AND DUP2 MSTORE RETURN JUMPDEST POP CALLVALUE PUSH2 0x25C JUMPI PUSH1 0x20 DUP1 PUSH1 0x3 NOT CALLDATASIZE ADD SLT PUSH2 0x11B1 JUMPI PUSH1 0x1 PUSH1 0x1 PUSH1 0x40 SHL SUB SWAP1 PUSH1 0x4 CALLDATALOAD DUP3 DUP2 GT PUSH2 0x11AD JUMPI CALLDATASIZE PUSH1 0x23 DUP3 ADD SLT ISZERO PUSH2 0x11AD JUMPI DUP1 PUSH1 0x4 ADD CALLDATALOAD PUSH2 0xFF4 DUP2 PUSH2 0x2902 JUMP JUMPDEST SWAP1 PUSH2 0x1002 PUSH1 0x40 MLOAD SWAP3 DUP4 PUSH2 0x27C5 JUMP JUMPDEST DUP1 DUP3 MSTORE DUP4 DUP3 ADD SWAP3 DUP4 PUSH1 0x24 DUP1 SWAP4 PUSH1 0x5 SHL DUP4 ADD ADD SWAP2 CALLDATASIZE DUP4 GT PUSH2 0x11A9 JUMPI DUP4 DUP8 SWAP2 ADD SWAP2 JUMPDEST DUP4 DUP4 LT PUSH2 0x1191 JUMPI POP POP POP POP PUSH2 0x1035 PUSH2 0x3C4B JUMP JUMPDEST DUP2 MLOAD ISZERO PUSH2 0x114E JUMPI PUSH1 0x2 SLOAD SWAP2 DUP3 PUSH2 0x110A JUMPI MLOAD SWAP5 DUP6 GT PUSH2 0x10F8 JUMPI PUSH9 0x10000000000000000 DUP6 GT PUSH2 0x10F8 JUMPI POP DUP4 PUSH1 0x2 SSTORE DUP1 DUP5 LT PUSH2 0x10B8 JUMPI JUMPDEST POP SWAP1 PUSH1 0x2 DUP5 MSTORE DUP4 JUMPDEST DUP4 DUP2 LT PUSH2 0x107D JUMPI DUP5 DUP1 RETURN JUMPDEST DUP3 MLOAD PUSH1 0x1 PUSH1 0x1 PUSH1 0xA0 SHL SUB AND PUSH32 0x405787FA12A823E0F2B7631CC41B3BA8828B3321CA811111FA75CD3AA3BB5ACE DUP3 ADD SSTORE SWAP2 DUP2 ADD SWAP2 PUSH1 0x1 ADD PUSH2 0x1072 JUMP JUMPDEST DUP4 PUSH32 0x405787FA12A823E0F2B7631CC41B3BA8828B3321CA811111FA75CD3AA3BB5ACE SWAP2 DUP3 ADD SWAP2 ADD JUMPDEST DUP2 DUP2 LT PUSH2 0x10ED JUMPI POP PUSH2 0x106A JUMP JUMPDEST DUP6 DUP2 SSTORE PUSH1 0x1 ADD PUSH2 0x10E0 JUMP JUMPDEST PUSH4 0x4E487B71 PUSH1 0xE0 SHL DUP7 MSTORE PUSH1 0x41 PUSH1 0x4 MSTORE DUP6 REVERT JUMPDEST PUSH1 0x40 MLOAD PUSH3 0x461BCD PUSH1 0xE5 SHL DUP2 MSTORE PUSH1 0x4 DUP2 ADD DUP7 SWAP1 MSTORE PUSH1 0x1A DUP2 DUP5 ADD MSTORE PUSH32 0x616C6C6F7765644E6F646573206D75737420626520656D707479000000000000 PUSH1 0x44 DUP3 ADD MSTORE PUSH1 0x64 SWAP1 REVERT JUMPDEST DUP4 PUSH1 0x17 PUSH1 0x64 SWAP3 PUSH1 0x40 MLOAD SWAP3 PUSH3 0x461BCD PUSH1 0xE5 SHL DUP5 MSTORE PUSH1 0x4 DUP5 ADD MSTORE DUP3 ADD MSTORE PUSH32 0x596F752073656E7420616E20656D707479206172726179000000000000000000 PUSH1 0x44 DUP3 ADD MSTORE REVERT JUMPDEST DUP2 SWAP1 PUSH2 0x119C DUP5 PUSH2 0x26EB JUMP JUMPDEST DUP2 MSTORE ADD SWAP2 ADD SWAP1 DUP7 SWAP1 PUSH2 0x1022 JUMP JUMPDEST DUP9 DUP1 REVERT JUMPDEST DUP4 DUP1 REVERT JUMPDEST POP DUP1 REVERT JUMPDEST POP CALLVALUE PUSH2 0x25C JUMPI PUSH1 0x20 SWAP1 DUP2 PUSH1 0x3 NOT CALLDATASIZE ADD SLT PUSH2 0x25C JUMPI PUSH1 0x40 MLOAD PUSH4 0x70A08231 PUSH1 0xE0 SHL DUP2 MSTORE ADDRESS PUSH1 0x4 DUP3 DUP2 ADD SWAP2 SWAP1 SWAP2 MSTORE CALLDATALOAD DUP4 DUP3 PUSH1 0x24 DUP2 PUSH32 0x0 PUSH1 0x1 PUSH1 0x1 PUSH1 0xA0 SHL SUB AND GAS STATICCALL SWAP2 DUP3 ISZERO PUSH2 0xE35 JUMPI DUP4 SWAP3 PUSH2 0x1270 JUMPI JUMPDEST POP PUSH8 0xDE0B6B3A7640000 SWAP3 DUP4 DUP3 MUL SWAP2 DUP1 DUP4 DIV DUP6 EQ SWAP1 ISZERO OR ISZERO PUSH2 0x125C JUMPI POP PUSH2 0x1253 SWAP2 PUSH2 0x124A SWAP2 PUSH2 0x2966 JUMP JUMPDEST PUSH1 0x5 SLOAD SWAP1 PUSH2 0x298F JUMP JUMPDEST DIV PUSH1 0x40 MLOAD SWAP1 DUP2 MSTORE RETURN JUMPDEST PUSH4 0x4E487B71 PUSH1 0xE0 SHL DUP2 MSTORE PUSH1 0x11 PUSH1 0x4 MSTORE PUSH1 0x24 SWAP1 REVERT JUMPDEST SWAP1 SWAP2 POP DUP4 DUP2 DUP2 RETURNDATASIZE DUP4 GT PUSH2 0x1298 JUMPI JUMPDEST PUSH2 0x1288 DUP2 DUP4 PUSH2 0x27C5 JUMP JUMPDEST DUP2 ADD SUB SLT PUSH2 0xA60 JUMPI MLOAD SWAP1 CODESIZE PUSH2 0x1220 JUMP JUMPDEST POP RETURNDATASIZE PUSH2 0x127E JUMP JUMPDEST POP CALLVALUE PUSH2 0x25C JUMPI DUP1 PUSH1 0x3 NOT CALLDATASIZE ADD SLT PUSH2 0x25C JUMPI PUSH1 0x40 MLOAD PUSH32 0x0 PUSH1 0x1 PUSH1 0x1 PUSH1 0xA0 SHL SUB AND DUP2 MSTORE PUSH1 0x20 SWAP1 RETURN JUMPDEST POP CALLVALUE PUSH2 0x25C JUMPI DUP1 PUSH1 0x3 NOT CALLDATASIZE ADD SLT PUSH2 0x25C JUMPI PUSH1 0x7 SLOAD PUSH1 0x40 MLOAD PUSH1 0x48 SWAP2 SWAP1 SWAP2 SHR PUSH1 0x1 PUSH1 0x1 PUSH1 0xA0 SHL SUB AND DUP2 MSTORE PUSH1 0x20 SWAP1 RETURN JUMPDEST POP CALLVALUE PUSH2 0x25C JUMPI DUP1 PUSH1 0x3 NOT CALLDATASIZE ADD SLT PUSH2 0x25C JUMPI PUSH1 0x20 PUSH1 0x1 PUSH1 0x1 PUSH1 0x40 SHL SUB PUSH1 0x7 SLOAD PUSH1 0x8 SHR AND PUSH1 0x40 MLOAD SWAP1 DUP2 MSTORE RETURN JUMPDEST POP CALLVALUE PUSH2 0x25C JUMPI DUP1 PUSH1 0x3 NOT CALLDATASIZE ADD SLT PUSH2 0x25C JUMPI SLOAD PUSH1 0x40 MLOAD PUSH1 0x1 PUSH1 0x1 PUSH1 0xA0 SHL SUB SWAP1 SWAP2 AND DUP2 MSTORE PUSH1 0x20 SWAP1 RETURN JUMPDEST POP CALLVALUE PUSH2 0x25C JUMPI DUP1 PUSH1 0x3 NOT CALLDATASIZE ADD SLT PUSH2 0x25C JUMPI PUSH1 0x20 PUSH1 0x40 MLOAD PUSH1 0x1 PUSH1 0x1 PUSH1 0x40 SHL SUB PUSH32 0x0 AND DUP2 MSTORE RETURN JUMPDEST POP CALLVALUE PUSH2 0x25C JUMPI PUSH1 0x3 NOT PUSH1 0x20 CALLDATASIZE DUP3 ADD SLT PUSH2 0x11B1 JUMPI PUSH1 0x4 CALLDATALOAD SWAP1 PUSH1 0x1 PUSH1 0x1 PUSH1 0x40 SHL SUB SWAP1 DUP2 DUP4 GT PUSH2 0x11AD JUMPI PUSH1 0xA0 SWAP1 DUP4 CALLDATASIZE SUB ADD SLT PUSH2 0x2217 JUMPI PUSH32 0x0 PUSH1 0x1 PUSH1 0x1 PUSH1 0xA0 SHL SUB AND CALLER SUB PUSH2 0x21FF JUMPI PUSH1 0x40 MLOAD PUSH2 0x1415 DUP2 PUSH2 0x2746 JUMP JUMPDEST DUP3 PUSH1 0x4 ADD CALLDATALOAD DUP2 MSTORE PUSH1 0x24 DUP4 ADD CALLDATALOAD DUP3 DUP2 AND DUP2 SUB PUSH2 0x448 JUMPI PUSH1 0x20 DUP3 ADD MSTORE PUSH1 0x44 DUP4 ADD CALLDATALOAD DUP3 DUP2 GT PUSH2 0x448 JUMPI PUSH2 0x144B SWAP1 PUSH1 0x4 CALLDATASIZE SWAP2 DUP7 ADD ADD PUSH2 0x27E6 JUMP JUMPDEST SWAP1 PUSH1 0x40 DUP2 ADD SWAP2 DUP3 MSTORE PUSH1 0x64 DUP5 ADD CALLDATALOAD DUP4 DUP2 GT PUSH2 0x2003 JUMPI PUSH2 0x146F SWAP1 PUSH1 0x4 CALLDATASIZE SWAP2 DUP8 ADD ADD PUSH2 0x27E6 JUMP JUMPDEST SWAP4 PUSH1 0x60 DUP3 ADD SWAP5 DUP6 MSTORE PUSH1 0x84 DUP2 ADD CALLDATALOAD SWAP1 DUP5 DUP3 GT PUSH2 0x9C8 JUMPI ADD SWAP1 CALLDATASIZE PUSH1 0x23 DUP4 ADD SLT ISZERO PUSH2 0x2003 JUMPI PUSH1 0x4 DUP3 ADD CALLDATALOAD PUSH2 0x149F DUP2 PUSH2 0x2902 JUMP JUMPDEST SWAP3 PUSH2 0x14AD PUSH1 0x40 MLOAD SWAP5 DUP6 PUSH2 0x27C5 JUMP JUMPDEST DUP2 DUP5 MSTORE PUSH1 0x24 PUSH1 0x20 DUP6 ADD SWAP3 PUSH1 0x6 SHL DUP3 ADD ADD SWAP1 CALLDATASIZE DUP3 GT PUSH2 0x11A9 JUMPI PUSH1 0x24 ADD SWAP2 JUMPDEST DUP2 DUP4 LT PUSH2 0x21C7 JUMPI POP POP POP PUSH1 0x80 ADD MSTORE MLOAD PUSH1 0x20 DUP2 DUP1 MLOAD DUP2 ADD SUB SLT PUSH2 0x11AD JUMPI PUSH2 0x150E SWAP1 PUSH2 0x1509 SWAP1 PUSH1 0x1 PUSH1 0x1 PUSH1 0xA0 SHL SUB SWAP1 PUSH2 0x1503 SWAP1 PUSH1 0x20 ADD PUSH2 0x38E5 JUMP JUMPDEST AND PUSH2 0x36CE JUMP JUMPDEST PUSH2 0x29E1 JUMP JUMPDEST DUP2 MLOAD PUSH1 0x20 DUP2 DUP1 MLOAD DUP2 ADD SUB SLT PUSH2 0x11AD JUMPI PUSH2 0x152B PUSH1 0x20 PUSH1 0xFF SWAP3 ADD PUSH2 0x38F9 JUMP JUMPDEST AND SWAP1 PUSH1 0xFF NOT DUP3 DUP2 PUSH1 0x7 SLOAD AND OR PUSH1 0x7 SSTORE DUP3 ISZERO PUSH1 0x0 EQ PUSH2 0x179C JUMPI POP POP POP MLOAD PUSH1 0x60 DUP2 DUP1 MLOAD DUP2 ADD SUB SLT PUSH2 0x11B1 JUMPI PUSH2 0x1560 PUSH1 0x20 DUP3 ADD PUSH2 0x38F9 JUMP JUMPDEST POP PUSH1 0x60 PUSH2 0x156F PUSH1 0x40 DUP4 ADD PUSH2 0x38E5 JUMP JUMPDEST SWAP2 ADD MLOAD SWAP1 PUSH1 0x1 PUSH1 0x1 PUSH1 0xA0 SHL SUB AND PUSH2 0x15A5 PUSH32 0x0 PUSH2 0x393E JUMP JUMPDEST PUSH1 0x40 MLOAD PUSH4 0x70A08231 PUSH1 0xE0 SHL DUP2 MSTORE ADDRESS PUSH1 0x4 DUP3 ADD MSTORE PUSH32 0x0 PUSH1 0x1 PUSH1 0x1 PUSH1 0xA0 SHL SUB AND SWAP2 SWAP1 PUSH1 0x20 DUP2 PUSH1 0x24 DUP2 DUP7 GAS STATICCALL SWAP1 DUP2 ISZERO PUSH2 0xA6C JUMPI DUP7 SWAP2 PUSH2 0x176A JUMPI JUMPDEST POP PUSH8 0xDE0B6B3A7640000 SWAP1 DUP2 DUP7 MUL DUP7 DUP2 DIV DUP4 EQ DUP8 ISZERO OR ISZERO PUSH2 0x1756 JUMPI SWAP1 PUSH2 0x1620 SWAP2 PUSH2 0x2966 JUMP JUMPDEST PUSH2 0x1631 DUP7 PUSH2 0xD19 PUSH1 0x5 SLOAD DUP1 SWAP5 PUSH2 0x298F JUMP JUMPDEST PUSH1 0x5 SSTORE PUSH1 0x1 SLOAD PUSH1 0xA0 SHR PUSH1 0xFF AND PUSH2 0x165E JUMPI POP POP POP POP DUP3 MSTORE PUSH1 0x6 PUSH1 0x20 MSTORE PUSH2 0xD4B PUSH1 0x40 DUP4 KECCAK256 SWAP2 DUP3 SLOAD PUSH2 0x29D4 JUMP JUMPDEST DUP1 RETURN JUMPDEST PUSH1 0x40 MLOAD PUSH4 0x95EA7B3 PUSH1 0xE0 SHL DUP2 MSTORE PUSH1 0x1 PUSH1 0x1 PUSH1 0xA0 SHL SUB DUP5 AND PUSH1 0x4 DUP3 ADD MSTORE SWAP2 SWAP1 DIV PUSH1 0x24 DUP3 ADD DUP2 SWAP1 MSTORE SWAP1 SWAP5 POP SWAP3 SWAP2 PUSH1 0x20 SWAP1 DUP6 SWAP1 PUSH1 0x44 SWAP1 DUP3 SWAP1 DUP10 SWAP1 GAS CALL SWAP3 DUP4 ISZERO PUSH2 0x9BD JUMPI PUSH2 0x1709 SWAP5 PUSH1 0x20 SWAP5 PUSH2 0x1739 JUMPI JUMPDEST POP PUSH1 0x40 MLOAD PUSH4 0x1A4CA37B PUSH1 0xE2 SHL DUP2 MSTORE PUSH1 0x1 PUSH1 0x1 PUSH1 0xA0 SHL SUB PUSH32 0x0 DUP2 AND PUSH1 0x4 DUP4 ADD MSTORE PUSH1 0x24 DUP3 ADD SWAP3 SWAP1 SWAP3 MSTORE SWAP3 AND PUSH1 0x44 DUP4 ADD MSTORE SWAP1 SWAP3 DUP4 SWAP2 SWAP1 DUP3 SWAP1 DUP7 SWAP1 DUP3 SWAP1 PUSH1 0x64 DUP3 ADD SWAP1 JUMP JUMPDEST SUB SWAP3 PUSH1 0x1 PUSH1 0x1 PUSH1 0xA0 SHL SUB AND GAS CALL DUP1 ISZERO PUSH2 0x43D JUMPI PUSH2 0x1724 JUMPI POP DUP1 RETURN JUMPDEST PUSH1 0x20 SWAP1 DUP2 RETURNDATASIZE DUP4 GT PUSH2 0xE2E JUMPI PUSH2 0xE23 DUP2 DUP4 PUSH2 0x27C5 JUMP JUMPDEST PUSH2 0x174F SWAP1 DUP6 RETURNDATASIZE DUP8 GT PUSH2 0x9F3 JUMPI PUSH2 0x9E3 DUP2 DUP4 PUSH2 0x27C5 JUMP JUMPDEST POP CODESIZE PUSH2 0x16AA JUMP JUMPDEST PUSH4 0x4E487B71 PUSH1 0xE0 SHL DUP9 MSTORE PUSH1 0x11 PUSH1 0x4 MSTORE PUSH1 0x24 DUP9 REVERT JUMPDEST SWAP1 POP PUSH1 0x20 DUP2 RETURNDATASIZE PUSH1 0x20 GT PUSH2 0x1794 JUMPI JUMPDEST DUP2 PUSH2 0x1785 PUSH1 0x20 SWAP4 DUP4 PUSH2 0x27C5 JUMP JUMPDEST DUP2 ADD SUB SLT PUSH2 0xA60 JUMPI MLOAD CODESIZE PUSH2 0x15FB JUMP JUMPDEST RETURNDATASIZE SWAP2 POP PUSH2 0x1778 JUMP JUMPDEST SWAP1 SWAP2 SWAP3 PUSH1 0x1 SWAP4 DUP5 DUP2 EQ PUSH1 0x0 EQ PUSH2 0x1893 JUMPI POP SWAP1 POP MLOAD SWAP2 PUSH1 0x60 DUP4 DUP1 MLOAD DUP2 ADD SUB SLT PUSH2 0x11AD JUMPI PUSH2 0x17CA PUSH1 0x20 DUP5 ADD PUSH2 0x38F9 JUMP JUMPDEST POP PUSH1 0x40 DUP4 ADD MLOAD SWAP2 DUP3 AND DUP3 SUB PUSH2 0x11AD JUMPI PUSH2 0x47E SWAP3 PUSH1 0x1 PUSH1 0x1 PUSH1 0xA0 SHL SUB SWAP1 PUSH2 0x17F2 SWAP1 PUSH1 0x60 ADD PUSH2 0x38E5 JUMP JUMPDEST AND SWAP1 PUSH32 0x0 SWAP2 PUSH2 0x1861 DUP4 PUSH32 0x0 PUSH32 0x0 PUSH2 0x3997 JUMP JUMPDEST SWAP4 PUSH1 0x5 SLOAD SWAP3 PUSH1 0x40 MLOAD SWAP4 PUSH1 0x2 PUSH1 0x20 DUP7 ADD MSTORE PUSH1 0x40 DUP6 ADD MSTORE PUSH1 0x40 DUP5 MSTORE PUSH2 0x1883 DUP5 PUSH2 0x27AA JUMP JUMPDEST DUP1 SLOAD PUSH1 0xFF PUSH1 0xA0 SHL NOT AND SWAP1 SSTORE PUSH2 0x2A2D JUMP JUMPDEST PUSH1 0x2 SUB PUSH2 0x2190 JUMPI MLOAD PUSH1 0x40 DUP2 DUP1 MLOAD DUP2 ADD SUB SLT PUSH2 0x448 JUMPI PUSH1 0x40 DUP2 PUSH2 0x18B8 PUSH1 0x20 DUP8 SWAP5 ADD PUSH2 0x38F9 JUMP JUMPDEST POP ADD MLOAD SWAP2 PUSH1 0x9 SLOAD AND OR PUSH1 0x9 SSTORE PUSH2 0x190E PUSH32 0x0 PUSH32 0x0 PUSH2 0x3B12 JUMP JUMPDEST PUSH1 0x5 SSTORE DUP2 SLOAD PUSH1 0xFF PUSH1 0xA0 SHL NOT AND PUSH1 0x1 PUSH1 0xA0 SHL OR DUP3 SSTORE PUSH1 0x40 MLOAD PUSH1 0x20 DUP1 DUP3 ADD SWAP4 SWAP1 SWAP4 MSTORE SWAP2 DUP3 MSTORE PUSH2 0x193A DUP3 PUSH2 0x2761 JUMP JUMPDEST DUP1 PUSH32 0x0 AND SWAP1 PUSH32 0x0 AND EQ PUSH1 0x0 EQ PUSH2 0x19EC JUMPI POP DUP1 PUSH32 0x0 PUSH1 0x1 PUSH1 0x1 PUSH1 0xA0 SHL SUB AND DUP1 EXTCODESIZE ISZERO PUSH2 0x19E9 JUMPI DUP2 SWAP1 PUSH1 0x4 PUSH1 0x40 MLOAD DUP1 SWAP5 DUP2 SWAP4 PUSH4 0x4CAB8A57 PUSH1 0xE1 SHL DUP4 MSTORE GAS CALL DUP1 ISZERO PUSH2 0x43D JUMPI PUSH2 0x19E0 JUMPI POP DUP1 RETURN JUMPDEST PUSH2 0x165B SWAP1 PUSH2 0x277C JUMP JUMPDEST POP REVERT JUMPDEST PUSH32 0x0 DUP3 SWAP2 PUSH2 0x1A1B PUSH2 0x1509 DUP4 PUSH2 0x36CE JUMP JUMPDEST PUSH1 0x60 PUSH1 0x80 PUSH1 0x40 MLOAD PUSH2 0x1A2B DUP2 PUSH2 0x2746 JUMP JUMPDEST DUP3 DUP2 MSTORE DUP3 PUSH1 0x20 DUP3 ADD MSTORE DUP3 PUSH1 0x40 DUP3 ADD MSTORE DUP7 DUP4 DUP3 ADD MSTORE ADD MSTORE PUSH1 0x40 MLOAD PUSH2 0x1A4D DUP2 PUSH2 0x2715 JUMP JUMPDEST DUP5 DUP2 MSTORE PUSH1 0x40 MLOAD SWAP3 PUSH1 0x1 DUP1 PUSH1 0xA0 SHL SUB AND PUSH1 0x20 DUP5 ADD MSTORE PUSH1 0x20 DUP4 MSTORE PUSH2 0x1A6E DUP4 PUSH2 0x2761 JUMP JUMPDEST PUSH2 0x1A88 PUSH1 0x40 MLOAD PUSH2 0x1A7D DUP2 PUSH2 0x2715 JUMP JUMPDEST PUSH3 0x1E8480 DUP2 MSTORE PUSH2 0x3907 JUMP JUMPDEST SWAP2 PUSH1 0x40 MLOAD SWAP4 PUSH2 0x1A96 DUP6 PUSH2 0x2746 JUMP JUMPDEST DUP5 MSTORE PUSH1 0x20 DUP5 ADD MSTORE PUSH1 0x40 DUP4 ADD MSTORE DUP4 PUSH1 0x60 DUP4 ADD MSTORE PUSH1 0x80 DUP3 ADD MSTORE PUSH1 0x40 MLOAD PUSH4 0xB0F479A1 PUSH1 0xE0 SHL DUP2 MSTORE PUSH1 0x20 DUP2 PUSH1 0x4 DUP2 ADDRESS GAS STATICCALL SWAP1 DUP2 ISZERO PUSH2 0x4C2 JUMPI DUP5 SWAP2 PUSH2 0x2161 JUMPI JUMPDEST POP PUSH1 0x40 MLOAD PUSH4 0x20487DED PUSH1 0xE0 SHL DUP2 MSTORE SWAP2 PUSH1 0x20 DUP4 DUP1 PUSH2 0x1B12 DUP5 PUSH32 0x0 PUSH1 0x4 DUP5 ADD PUSH2 0x3605 JUMP JUMPDEST SUB DUP2 PUSH1 0x1 PUSH1 0x1 PUSH1 0xA0 SHL SUB DUP7 AND GAS STATICCALL SWAP3 DUP4 ISZERO PUSH2 0x9BD JUMPI DUP6 SWAP4 PUSH2 0x212D JUMPI JUMPDEST POP PUSH1 0x40 MLOAD PUSH4 0x70A08231 PUSH1 0xE0 SHL DUP2 MSTORE ADDRESS PUSH1 0x4 DUP3 ADD MSTORE PUSH1 0x20 DUP2 PUSH1 0x24 DUP2 PUSH32 0x0 PUSH1 0x1 PUSH1 0x1 PUSH1 0xA0 SHL SUB AND GAS STATICCALL SWAP1 DUP2 ISZERO PUSH2 0xA6C JUMPI DUP7 SWAP2 PUSH2 0x20FB JUMPI JUMPDEST POP PUSH2 0x208A JUMPI JUMPDEST PUSH1 0x40 MLOAD PUSH4 0x70A08231 PUSH1 0xE0 SHL DUP2 MSTORE ADDRESS PUSH1 0x4 DUP3 ADD MSTORE DUP6 SWAP1 PUSH1 0x20 DUP2 PUSH1 0x24 DUP2 PUSH32 0x0 PUSH1 0x1 PUSH1 0x1 PUSH1 0xA0 SHL SUB AND GAS STATICCALL DUP1 ISZERO PUSH2 0x43D JUMPI DUP3 SWAP1 PUSH2 0x2056 JUMPI JUMPDEST PUSH1 0x4 DUP1 SLOAD PUSH1 0x40 MLOAD PUSH4 0x95EA7B3 PUSH1 0xE0 SHL DUP2 MSTORE PUSH1 0x1 PUSH1 0x1 PUSH1 0xA0 SHL SUB SWAP1 SWAP2 AND SWAP2 DUP2 ADD SWAP2 SWAP1 SWAP2 MSTORE PUSH1 0x24 DUP2 ADD DUP3 SWAP1 MSTORE SWAP2 POP PUSH1 0x20 DUP3 DUP1 PUSH1 0x44 DUP2 ADD JUMPDEST SUB DUP2 DUP7 PUSH32 0x0 PUSH1 0x1 PUSH1 0x1 PUSH1 0xA0 SHL SUB AND GAS CALL SWAP2 DUP3 ISZERO PUSH2 0xE35 JUMPI PUSH1 0x20 SWAP3 PUSH2 0x2039 JUMPI JUMPDEST POP PUSH1 0x40 MLOAD SWAP1 PUSH2 0x1C5D DUP3 PUSH2 0x278F JUMP JUMPDEST PUSH1 0x1 PUSH1 0x1 PUSH1 0xA0 SHL SUB PUSH32 0x0 DUP2 AND DUP4 MSTORE PUSH32 0x0 DUP2 AND DUP5 DUP5 ADD SWAP1 DUP2 MSTORE PUSH2 0xFFFF PUSH32 0x0 AND PUSH1 0x40 DUP1 DUP7 ADD SWAP2 DUP3 MSTORE ADDRESS PUSH1 0x60 DUP8 ADD SWAP1 DUP2 MSTORE PUSH1 0x80 DUP8 ADD DUP13 DUP2 MSTORE PUSH1 0xA0 DUP9 ADD SWAP7 DUP8 MSTORE PUSH1 0xC0 DUP9 ADD DUP11 DUP2 MSTORE PUSH1 0x4 DUP1 SLOAD SWAP5 MLOAD PUSH4 0x5023B4DF PUSH1 0xE0 SHL DUP2 MSTORE SWAP10 MLOAD DUP9 AND SWAP1 DUP11 ADD MSTORE SWAP5 MLOAD DUP7 AND PUSH1 0x24 DUP10 ADD MSTORE SWAP3 MLOAD PUSH3 0xFFFFFF AND PUSH1 0x44 DUP9 ADD MSTORE MLOAD DUP5 AND PUSH1 0x64 DUP8 ADD MSTORE SWAP1 MLOAD PUSH1 0x84 DUP7 ADD MSTORE SWAP3 MLOAD PUSH1 0xA4 DUP6 ADD MSTORE MLOAD DUP2 AND PUSH1 0xC4 DUP5 ADD MSTORE SWAP2 SWAP4 DUP5 SWAP3 PUSH1 0xE4 SWAP3 DUP5 SWAP3 SWAP2 AND GAS CALL SWAP1 DUP2 ISZERO PUSH2 0xA6C JUMPI DUP7 SWAP2 PUSH2 0x2007 JUMPI JUMPDEST POP PUSH32 0x0 PUSH1 0x1 PUSH1 0x1 PUSH1 0xA0 SHL SUB AND EXTCODESIZE ISZERO PUSH2 0x2003 JUMPI PUSH1 0x40 MLOAD PUSH4 0x2E1A7D4D PUSH1 0xE0 SHL DUP2 MSTORE PUSH1 0x4 DUP2 ADD DUP6 SWAP1 MSTORE DUP7 DUP2 PUSH1 0x24 DUP2 DUP4 PUSH32 0x0 PUSH1 0x1 PUSH1 0x1 PUSH1 0xA0 SHL SUB AND GAS CALL DUP1 ISZERO PUSH2 0x1FF8 JUMPI PUSH2 0x1FE5 JUMPI JUMPDEST POP PUSH1 0x8 SSTORE SELFBALANCE DUP4 GT PUSH2 0x1FC6 JUMPI DUP4 PUSH2 0x1F5E JUMPI JUMPDEST PUSH1 0x20 SWAP2 PUSH2 0x1E3A SWAP2 PUSH1 0x40 MLOAD SWAP5 DUP6 DUP1 SWAP5 DUP2 SWAP4 PUSH4 0x96F4E9F9 PUSH1 0xE0 SHL DUP4 MSTORE PUSH32 0x0 PUSH1 0x4 DUP5 ADD PUSH2 0x3605 JUMP JUMPDEST SUB SWAP3 PUSH1 0x1 PUSH1 0x1 PUSH1 0xA0 SHL SUB AND GAS CALL DUP1 ISZERO PUSH2 0x43D JUMPI PUSH2 0x1F33 JUMPI JUMPDEST POP PUSH1 0x40 MLOAD PUSH4 0x70A08231 PUSH1 0xE0 SHL DUP2 MSTORE ADDRESS PUSH1 0x4 DUP3 ADD MSTORE PUSH1 0x20 DUP2 PUSH1 0x24 DUP2 PUSH32 0x0 PUSH1 0x1 PUSH1 0x1 PUSH1 0xA0 SHL SUB AND GAS STATICCALL SWAP2 DUP3 ISZERO PUSH2 0x1F27 JUMPI SWAP2 PUSH2 0x1EF5 JUMPI JUMPDEST POP ISZERO PUSH2 0x165B JUMPI PUSH2 0x165B PUSH32 0x0 PUSH32 0x0 PUSH2 0x3B12 JUMP JUMPDEST SWAP1 POP PUSH1 0x20 DUP2 RETURNDATASIZE PUSH1 0x20 GT PUSH2 0x1F1F JUMPI JUMPDEST DUP2 PUSH2 0x1F10 PUSH1 0x20 SWAP4 DUP4 PUSH2 0x27C5 JUMP JUMPDEST DUP2 ADD SUB SLT PUSH2 0x11B1 JUMPI MLOAD CODESIZE PUSH2 0x1EA5 JUMP JUMPDEST RETURNDATASIZE SWAP2 POP PUSH2 0x1F03 JUMP JUMPDEST PUSH1 0x40 MLOAD SWAP1 RETURNDATASIZE SWAP1 DUP3 RETURNDATACOPY RETURNDATASIZE SWAP1 REVERT JUMPDEST PUSH1 0x20 SWAP1 DUP2 RETURNDATASIZE DUP4 GT PUSH2 0x1F57 JUMPI JUMPDEST PUSH2 0x1F49 DUP2 DUP4 PUSH2 0x27C5 JUMP JUMPDEST DUP2 ADD SUB SLT PUSH2 0x11B1 JUMPI CODESIZE PUSH2 0x1E52 JUMP JUMPDEST POP RETURNDATASIZE PUSH2 0x1F3F JUMP JUMPDEST PUSH1 0x40 MLOAD PUSH4 0x95EA7B3 PUSH1 0xE0 SHL DUP2 MSTORE PUSH1 0x1 PUSH1 0x1 PUSH1 0xA0 SHL SUB DUP4 AND PUSH1 0x4 DUP3 ADD MSTORE PUSH1 0x24 DUP2 ADD DUP7 SWAP1 MSTORE PUSH1 0x20 DUP2 PUSH1 0x44 DUP2 DUP9 DUP1 GAS CALL DUP1 ISZERO PUSH2 0x9BD JUMPI SWAP2 PUSH1 0x20 SWAP4 SWAP2 PUSH2 0x1E3A SWAP4 PUSH2 0x1FA9 JUMPI JUMPDEST POP SWAP2 POP SWAP2 POP PUSH2 0x1DF6 JUMP JUMPDEST PUSH2 0x1FBF SWAP1 DUP6 RETURNDATASIZE DUP8 GT PUSH2 0x9F3 JUMPI PUSH2 0x9E3 DUP2 DUP4 PUSH2 0x27C5 JUMP JUMPDEST POP CODESIZE PUSH2 0x1F9F JUMP JUMPDEST PUSH1 0x40 MLOAD PUSH4 0x4787A103 PUSH1 0xE1 SHL DUP2 MSTORE SELFBALANCE PUSH1 0x4 DUP3 ADD MSTORE PUSH1 0x24 DUP2 ADD DUP5 SWAP1 MSTORE PUSH1 0x44 SWAP1 REVERT JUMPDEST PUSH2 0x1FF0 SWAP2 SWAP6 POP PUSH2 0x277C JUMP JUMPDEST DUP5 SWAP4 CODESIZE PUSH2 0x1DE5 JUMP JUMPDEST PUSH1 0x40 MLOAD RETURNDATASIZE DUP10 DUP3 RETURNDATACOPY RETURNDATASIZE SWAP1 REVERT JUMPDEST DUP6 DUP1 REVERT JUMPDEST SWAP1 POP PUSH1 0x20 DUP2 RETURNDATASIZE PUSH1 0x20 GT PUSH2 0x2031 JUMPI JUMPDEST DUP2 PUSH2 0x2022 PUSH1 0x20 SWAP4 DUP4 PUSH2 0x27C5 JUMP JUMPDEST DUP2 ADD SUB SLT PUSH2 0x2003 JUMPI MLOAD CODESIZE PUSH2 0x1D63 JUMP JUMPDEST RETURNDATASIZE SWAP2 POP PUSH2 0x2015 JUMP JUMPDEST PUSH2 0x204F SWAP1 DUP4 RETURNDATASIZE DUP6 GT PUSH2 0x9F3 JUMPI PUSH2 0x9E3 DUP2 DUP4 PUSH2 0x27C5 JUMP JUMPDEST POP CODESIZE PUSH2 0x1C4F JUMP JUMPDEST POP PUSH1 0x20 DUP2 RETURNDATASIZE PUSH1 0x20 GT PUSH2 0x2082 JUMPI JUMPDEST DUP2 PUSH2 0x2070 PUSH1 0x20 SWAP4 DUP4 PUSH2 0x27C5 JUMP JUMPDEST DUP2 ADD SUB SLT PUSH2 0x11B1 JUMPI PUSH2 0x1C11 SWAP1 MLOAD PUSH2 0x1BDC JUMP JUMPDEST RETURNDATASIZE SWAP2 POP PUSH2 0x2063 JUMP JUMPDEST PUSH2 0x20F5 PUSH32 0x0 PUSH32 0x0 PUSH32 0x0 PUSH2 0x3997 JUMP JUMPDEST POP PUSH2 0x1B88 JUMP JUMPDEST SWAP1 POP PUSH1 0x20 DUP2 RETURNDATASIZE PUSH1 0x20 GT PUSH2 0x2125 JUMPI JUMPDEST DUP2 PUSH2 0x2116 PUSH1 0x20 SWAP4 DUP4 PUSH2 0x27C5 JUMP JUMPDEST DUP2 ADD SUB SLT PUSH2 0x2003 JUMPI MLOAD CODESIZE PUSH2 0x1B82 JUMP JUMPDEST RETURNDATASIZE SWAP2 POP PUSH2 0x2109 JUMP JUMPDEST SWAP1 SWAP3 POP PUSH1 0x20 DUP2 RETURNDATASIZE PUSH1 0x20 GT PUSH2 0x2159 JUMPI JUMPDEST DUP2 PUSH2 0x2149 PUSH1 0x20 SWAP4 DUP4 PUSH2 0x27C5 JUMP JUMPDEST DUP2 ADD SUB SLT PUSH2 0x448 JUMPI MLOAD SWAP2 CODESIZE PUSH2 0x1B2E JUMP JUMPDEST RETURNDATASIZE SWAP2 POP PUSH2 0x213C JUMP JUMPDEST PUSH2 0x2183 SWAP2 POP PUSH1 0x20 RETURNDATASIZE PUSH1 0x20 GT PUSH2 0x2189 JUMPI JUMPDEST PUSH2 0x217B DUP2 DUP4 PUSH2 0x27C5 JUMP JUMPDEST DUP2 ADD SWAP1 PUSH2 0x35A6 JUMP JUMPDEST CODESIZE PUSH2 0x1AD1 JUMP JUMPDEST POP RETURNDATASIZE PUSH2 0x2171 JUMP JUMPDEST PUSH1 0x40 MLOAD PUSH3 0x461BCD PUSH1 0xE5 SHL DUP2 MSTORE PUSH1 0x20 PUSH1 0x4 DUP3 ADD MSTORE PUSH1 0xF PUSH1 0x24 DUP3 ADD MSTORE PUSH15 0x1A5B9D985B1A590818DBDB5B585B99 PUSH1 0x8A SHL PUSH1 0x44 DUP3 ADD MSTORE PUSH1 0x64 SWAP1 REVERT JUMPDEST PUSH1 0x40 DUP4 CALLDATASIZE SUB SLT PUSH2 0x11A9 JUMPI PUSH1 0x20 PUSH1 0x40 SWAP2 DUP3 MLOAD PUSH2 0x21E1 DUP2 PUSH2 0x2761 JUMP JUMPDEST PUSH2 0x21EA DUP7 PUSH2 0x26EB JUMP JUMPDEST DUP2 MSTORE DUP3 DUP7 ADD CALLDATALOAD DUP4 DUP3 ADD MSTORE DUP2 MSTORE ADD SWAP3 ADD SWAP2 PUSH2 0x14CA JUMP JUMPDEST PUSH1 0x40 MLOAD PUSH4 0x35FDCCCD PUSH1 0xE2 SHL DUP2 MSTORE CALLER PUSH1 0x4 DUP3 ADD MSTORE PUSH1 0x24 SWAP1 REVERT JUMPDEST DUP3 DUP1 REVERT JUMPDEST POP CALLVALUE PUSH2 0x25C JUMPI DUP1 PUSH1 0x3 NOT CALLDATASIZE ADD SLT PUSH2 0x25C JUMPI PUSH1 0x1 SLOAD PUSH1 0x1 PUSH1 0x1 PUSH1 0xA0 SHL SUB DUP1 DUP3 AND CALLER SUB PUSH2 0x2281 JUMPI DUP3 SLOAD PUSH1 0x1 PUSH1 0x1 PUSH1 0xA0 SHL SUB NOT DUP1 DUP3 AND CALLER SWAP1 DUP2 OR DUP7 SSTORE SWAP4 AND PUSH1 0x1 SSTORE AND PUSH32 0x8BE0079C531659141344CD1FD0A4F28419497F9722A3DAAFE3B4186F6B6457E0 DUP4 DUP1 LOG3 DUP1 RETURN JUMPDEST PUSH1 0x40 MLOAD PUSH3 0x461BCD PUSH1 0xE5 SHL DUP2 MSTORE PUSH1 0x20 PUSH1 0x4 DUP3 ADD MSTORE PUSH1 0x16 PUSH1 0x24 DUP3 ADD MSTORE PUSH22 0x26BAB9BA10313290383937B837B9B2B21037BBB732B9 PUSH1 0x51 SHL PUSH1 0x44 DUP3 ADD MSTORE PUSH1 0x64 SWAP1 REVERT JUMPDEST POP CALLVALUE PUSH2 0x25C JUMPI DUP1 PUSH1 0x3 NOT CALLDATASIZE ADD SLT PUSH2 0x25C JUMPI PUSH1 0x20 PUSH1 0x40 MLOAD PUSH1 0x1 PUSH1 0x1 PUSH1 0x40 SHL SUB PUSH32 0x0 AND DUP2 MSTORE RETURN JUMPDEST POP CALLVALUE PUSH2 0x25C JUMPI DUP1 PUSH1 0x3 NOT CALLDATASIZE ADD SLT PUSH2 0x25C JUMPI PUSH1 0x40 MLOAD PUSH32 0x0 PUSH1 0x1 PUSH1 0x1 PUSH1 0xA0 SHL SUB AND DUP2 MSTORE PUSH1 0x20 SWAP1 RETURN JUMPDEST POP CALLVALUE PUSH2 0x25C JUMPI PUSH1 0xA0 CALLDATASIZE PUSH1 0x3 NOT ADD SLT PUSH2 0x25C JUMPI PUSH2 0x2362 PUSH2 0x26FF JUMP JUMPDEST SWAP1 PUSH2 0x236B PUSH2 0x26D5 JUMP JUMPDEST PUSH1 0x1 PUSH1 0x1 PUSH1 0xA0 SHL SUB SWAP2 SWAP1 PUSH1 0x44 CALLDATALOAD DUP4 DUP2 AND SWAP1 DUP2 SWAP1 SUB PUSH2 0x2217 JUMPI PUSH1 0x64 CALLDATALOAD DUP5 DUP2 AND DUP1 SWAP2 SUB PUSH2 0x11AD JUMPI PUSH1 0x84 CALLDATALOAD SWAP6 PUSH1 0x1 PUSH1 0x1 PUSH1 0x40 SHL SUB DUP8 GT PUSH2 0x448 JUMPI PUSH2 0x23B5 PUSH2 0x2437 SWAP6 SWAP7 SWAP8 CALLDATASIZE SWAP1 PUSH1 0x4 ADD PUSH2 0x27E6 JUMP JUMPDEST PUSH1 0x40 MLOAD SWAP4 PUSH1 0x20 SWAP9 DUP10 SWAP7 AND DUP7 DUP7 ADD MSTORE DUP6 DUP6 MSTORE PUSH2 0x23CF DUP6 PUSH2 0x2761 JUMP JUMPDEST PUSH1 0x40 MLOAD PUSH2 0x23DB DUP2 PUSH2 0x2715 JUMP JUMPDEST DUP9 DUP2 MSTORE PUSH2 0x23F8 PUSH1 0x40 MLOAD PUSH2 0x23ED DUP2 PUSH2 0x2715 JUMP JUMPDEST PUSH3 0xF4240 DUP2 MSTORE PUSH2 0x3907 JUMP JUMPDEST SWAP3 PUSH1 0x40 MLOAD SWAP7 PUSH2 0x2406 DUP9 PUSH2 0x2746 JUMP JUMPDEST DUP8 MSTORE DUP8 DUP8 ADD MSTORE PUSH1 0x40 DUP7 ADD MSTORE PUSH1 0x60 DUP6 ADD MSTORE PUSH1 0x80 DUP5 ADD MSTORE PUSH1 0x40 MLOAD DUP1 SWAP6 DUP2 SWAP5 DUP3 SWAP4 PUSH4 0x20487DED PUSH1 0xE0 SHL DUP5 MSTORE PUSH1 0x4 DUP5 ADD PUSH2 0x3605 JUMP JUMPDEST SUB SWAP2 GAS STATICCALL SWAP2 DUP3 ISZERO PUSH2 0x1F27 JUMPI DUP1 SWAP3 PUSH2 0x2453 JUMPI JUMPDEST POP POP PUSH1 0x40 MLOAD SWAP1 DUP2 MSTORE RETURN JUMPDEST SWAP1 SWAP2 POP DUP3 DUP3 DUP2 RETURNDATASIZE DUP4 GT PUSH2 0x247C JUMPI JUMPDEST PUSH2 0x246B DUP2 DUP4 PUSH2 0x27C5 JUMP JUMPDEST DUP2 ADD SUB SLT PUSH2 0x25C JUMPI POP MLOAD CODESIZE DUP1 PUSH2 0x2449 JUMP JUMPDEST POP RETURNDATASIZE PUSH2 0x2461 JUMP JUMPDEST POP CALLVALUE PUSH2 0x25C JUMPI DUP1 PUSH1 0x3 NOT CALLDATASIZE ADD SLT PUSH2 0x25C JUMPI PUSH1 0x20 PUSH1 0x5 SLOAD PUSH1 0x40 MLOAD SWAP1 DUP2 MSTORE RETURN JUMPDEST POP CALLVALUE PUSH2 0x25C JUMPI DUP1 PUSH1 0x3 NOT CALLDATASIZE ADD SLT PUSH2 0x25C JUMPI PUSH1 0x20 PUSH1 0x8 SLOAD PUSH1 0x40 MLOAD SWAP1 DUP2 MSTORE RETURN JUMPDEST POP CALLVALUE PUSH2 0x25C JUMPI DUP1 PUSH1 0x3 NOT CALLDATASIZE ADD SLT PUSH2 0x25C JUMPI PUSH1 0x40 MLOAD PUSH32 0x0 PUSH1 0x1 PUSH1 0x1 PUSH1 0xA0 SHL SUB AND DUP2 MSTORE PUSH1 0x20 SWAP1 RETURN JUMPDEST POP CALLVALUE PUSH2 0x25C JUMPI DUP1 PUSH1 0x3 NOT CALLDATASIZE ADD SLT PUSH2 0x25C JUMPI PUSH1 0x20 PUSH1 0xFF PUSH1 0x1 SLOAD PUSH1 0xA0 SHR AND PUSH1 0x40 MLOAD SWAP1 ISZERO ISZERO DUP2 MSTORE RETURN JUMPDEST POP CALLVALUE PUSH2 0x25C JUMPI PUSH1 0x40 CALLDATASIZE PUSH1 0x3 NOT ADD SLT PUSH2 0x25C JUMPI PUSH2 0x2544 PUSH2 0x26BF JUMP JUMPDEST PUSH2 0x254C PUSH2 0x26D5 JUMP JUMPDEST PUSH1 0x40 MLOAD PUSH4 0x35EA6A75 PUSH1 0xE0 SHL DUP2 MSTORE PUSH1 0x1 PUSH1 0x1 PUSH1 0xA0 SHL SUB SWAP2 DUP3 AND PUSH1 0x4 DUP3 ADD MSTORE PUSH2 0x180 SWAP3 SWAP1 SWAP2 DUP4 SWAP2 DUP4 SWAP2 PUSH1 0x24 SWAP2 DUP4 SWAP2 AND GAS STATICCALL SWAP2 DUP3 ISZERO PUSH2 0xE35 JUMPI PUSH1 0x20 SWAP4 SWAP3 PUSH2 0x2594 JUMPI POP POP PUSH1 0x40 MLOAD SWAP1 DUP2 MSTORE RETURN JUMPDEST PUSH2 0x25AA SWAP3 POP DUP1 RETURNDATASIZE LT PUSH2 0x4BB JUMPI PUSH2 0x49E DUP2 DUP4 PUSH2 0x27C5 JUMP JUMPDEST POP POP POP POP POP POP SWAP5 POP POP POP POP POP CODESIZE DUP1 PUSH2 0x2449 JUMP JUMPDEST POP CALLVALUE PUSH2 0x25C JUMPI DUP1 PUSH1 0x3 NOT CALLDATASIZE ADD SLT PUSH2 0x25C JUMPI PUSH1 0x4 SLOAD PUSH1 0x40 MLOAD PUSH1 0x1 PUSH1 0x1 PUSH1 0xA0 SHL SUB SWAP1 SWAP2 AND DUP2 MSTORE PUSH1 0x20 SWAP1 RETURN JUMPDEST POP CALLVALUE PUSH2 0x25C JUMPI DUP1 PUSH1 0x3 NOT CALLDATASIZE ADD SLT PUSH2 0x25C JUMPI PUSH1 0x20 PUSH1 0x40 MLOAD PUSH2 0xFFFF PUSH32 0x0 AND DUP2 MSTORE RETURN JUMPDEST POP CALLVALUE PUSH2 0x25C JUMPI DUP1 PUSH1 0x3 NOT CALLDATASIZE ADD SLT PUSH2 0x25C JUMPI PUSH1 0x40 MLOAD PUSH32 0x0 PUSH1 0x1 PUSH1 0x1 PUSH1 0xA0 SHL SUB AND DUP2 MSTORE PUSH1 0x20 SWAP1 RETURN JUMPDEST SWAP1 POP CALLVALUE PUSH2 0x11B1 JUMPI PUSH1 0x20 CALLDATASIZE PUSH1 0x3 NOT ADD SLT PUSH2 0x11B1 JUMPI PUSH1 0x4 CALLDATALOAD PUSH4 0xFFFFFFFF PUSH1 0xE0 SHL DUP2 AND DUP1 SWAP2 SUB PUSH2 0x2217 JUMPI PUSH1 0x20 SWAP3 POP PUSH4 0x85572FFB PUSH1 0xE0 SHL DUP2 EQ SWAP1 DUP2 ISZERO PUSH2 0x26AE JUMPI JUMPDEST POP ISZERO ISZERO DUP2 MSTORE RETURN JUMPDEST PUSH4 0x1FFC9A7 PUSH1 0xE0 SHL EQ SWAP1 POP CODESIZE PUSH2 0x26A7 JUMP JUMPDEST PUSH1 0x4 CALLDATALOAD SWAP1 PUSH1 0x1 PUSH1 0x1 PUSH1 0xA0 SHL SUB DUP3 AND DUP3 SUB PUSH2 0xA60 JUMPI JUMP JUMPDEST PUSH1 0x24 CALLDATALOAD SWAP1 PUSH1 0x1 PUSH1 0x1 PUSH1 0xA0 SHL SUB DUP3 AND DUP3 SUB PUSH2 0xA60 JUMPI JUMP JUMPDEST CALLDATALOAD SWAP1 PUSH1 0x1 PUSH1 0x1 PUSH1 0xA0 SHL SUB DUP3 AND DUP3 SUB PUSH2 0xA60 JUMPI JUMP JUMPDEST PUSH1 0x4 CALLDATALOAD SWAP1 PUSH1 0x1 PUSH1 0x1 PUSH1 0x40 SHL SUB DUP3 AND DUP3 SUB PUSH2 0xA60 JUMPI JUMP JUMPDEST PUSH1 0x20 DUP2 ADD SWAP1 DUP2 LT PUSH1 0x1 PUSH1 0x1 PUSH1 0x40 SHL SUB DUP3 GT OR PUSH2 0x2730 JUMPI PUSH1 0x40 MSTORE JUMP JUMPDEST PUSH4 0x4E487B71 PUSH1 0xE0 SHL PUSH1 0x0 MSTORE PUSH1 0x41 PUSH1 0x4 MSTORE PUSH1 0x24 PUSH1 0x0 REVERT JUMPDEST PUSH1 0xA0 DUP2 ADD SWAP1 DUP2 LT PUSH1 0x1 PUSH1 0x1 PUSH1 0x40 SHL SUB DUP3 GT OR PUSH2 0x2730 JUMPI PUSH1 0x40 MSTORE JUMP JUMPDEST PUSH1 0x40 DUP2 ADD SWAP1 DUP2 LT PUSH1 0x1 PUSH1 0x1 PUSH1 0x40 SHL SUB DUP3 GT OR PUSH2 0x2730 JUMPI PUSH1 0x40 MSTORE JUMP JUMPDEST PUSH1 0x1 PUSH1 0x1 PUSH1 0x40 SHL SUB DUP2 GT PUSH2 0x2730 JUMPI PUSH1 0x40 MSTORE JUMP JUMPDEST PUSH1 0xE0 DUP2 ADD SWAP1 DUP2 LT PUSH1 0x1 PUSH1 0x1 PUSH1 0x40 SHL SUB DUP3 GT OR PUSH2 0x2730 JUMPI PUSH1 0x40 MSTORE JUMP JUMPDEST PUSH1 0x60 DUP2 ADD SWAP1 DUP2 LT PUSH1 0x1 PUSH1 0x1 PUSH1 0x40 SHL SUB DUP3 GT OR PUSH2 0x2730 JUMPI PUSH1 0x40 MSTORE JUMP JUMPDEST SWAP1 PUSH1 0x1F DUP1 NOT SWAP2 ADD AND DUP2 ADD SWAP1 DUP2 LT PUSH1 0x1 PUSH1 0x1 PUSH1 0x40 SHL SUB DUP3 GT OR PUSH2 0x2730 JUMPI PUSH1 0x40 MSTORE JUMP JUMPDEST DUP2 PUSH1 0x1F DUP3 ADD SLT ISZERO PUSH2 0xA60 JUMPI DUP1 CALLDATALOAD SWAP1 PUSH1 0x1 PUSH1 0x1 PUSH1 0x40 SHL SUB DUP3 GT PUSH2 0x2730 JUMPI PUSH1 0x40 MLOAD SWAP3 PUSH2 0x281A PUSH1 0x1F DUP5 ADD PUSH1 0x1F NOT AND PUSH1 0x20 ADD DUP6 PUSH2 0x27C5 JUMP JUMPDEST DUP3 DUP5 MSTORE PUSH1 0x20 DUP4 DUP4 ADD ADD GT PUSH2 0xA60 JUMPI DUP2 PUSH1 0x0 SWAP3 PUSH1 0x20 DUP1 SWAP4 ADD DUP4 DUP7 ADD CALLDATACOPY DUP4 ADD ADD MSTORE SWAP1 JUMP JUMPDEST CALLVALUE PUSH2 0xA60 JUMPI PUSH1 0x40 CALLDATASIZE PUSH1 0x3 NOT ADD SLT PUSH2 0xA60 JUMPI PUSH2 0x1B PUSH2 0x2858 PUSH2 0x26FF JUMP JUMPDEST PUSH2 0x2860 PUSH2 0x26D5 JUMP JUMPDEST SWAP1 PUSH32 0x0 SWAP1 PUSH2 0x28CE DUP3 PUSH32 0x0 PUSH32 0x0 PUSH2 0x3997 JUMP JUMPDEST SWAP3 PUSH1 0x5 SLOAD SWAP2 PUSH1 0x40 MLOAD SWAP3 PUSH1 0x2 PUSH1 0x20 DUP6 ADD MSTORE PUSH1 0x40 DUP5 ADD MSTORE PUSH1 0x40 DUP4 MSTORE PUSH2 0x28F0 DUP4 PUSH2 0x27AA JUMP JUMPDEST PUSH1 0x1 DUP1 SLOAD PUSH1 0xFF PUSH1 0xA0 SHL NOT AND SWAP1 SSTORE PUSH2 0x2A2D JUMP JUMPDEST PUSH1 0x1 PUSH1 0x1 PUSH1 0x40 SHL SUB DUP2 GT PUSH2 0x2730 JUMPI PUSH1 0x5 SHL PUSH1 0x20 ADD SWAP1 JUMP JUMPDEST PUSH1 0x2 SLOAD DUP2 LT ISZERO PUSH2 0x2950 JUMPI PUSH1 0x2 PUSH1 0x0 MSTORE PUSH32 0x405787FA12A823E0F2B7631CC41B3BA8828B3321CA811111FA75CD3AA3BB5ACE ADD SWAP1 PUSH1 0x0 SWAP1 JUMP JUMPDEST PUSH4 0x4E487B71 PUSH1 0xE0 SHL PUSH1 0x0 MSTORE PUSH1 0x32 PUSH1 0x4 MSTORE PUSH1 0x24 PUSH1 0x0 REVERT JUMPDEST DUP2 DUP2 MUL SWAP3 SWAP2 DUP2 ISZERO SWAP2 DUP5 DIV EQ OR ISZERO PUSH2 0x2979 JUMPI JUMP JUMPDEST PUSH4 0x4E487B71 PUSH1 0xE0 SHL PUSH1 0x0 MSTORE PUSH1 0x11 PUSH1 0x4 MSTORE PUSH1 0x24 PUSH1 0x0 REVERT JUMPDEST DUP2 ISZERO PUSH2 0x2999 JUMPI DIV SWAP1 JUMP JUMPDEST PUSH4 0x4E487B71 PUSH1 0xE0 SHL PUSH1 0x0 MSTORE PUSH1 0x12 PUSH1 0x4 MSTORE PUSH1 0x24 PUSH1 0x0 REVERT JUMPDEST SWAP2 SWAP1 DUP3 SUB SWAP2 DUP3 GT PUSH2 0x2979 JUMPI JUMP JUMPDEST SWAP1 DUP2 PUSH1 0x20 SWAP2 SUB SLT PUSH2 0xA60 JUMPI MLOAD DUP1 ISZERO ISZERO DUP2 SUB PUSH2 0xA60 JUMPI SWAP1 JUMP JUMPDEST SWAP2 SWAP1 DUP3 ADD DUP1 SWAP3 GT PUSH2 0x2979 JUMPI JUMP JUMPDEST ISZERO PUSH2 0x29E8 JUMPI JUMP JUMPDEST PUSH1 0x40 MLOAD PUSH3 0x461BCD PUSH1 0xE5 SHL DUP2 MSTORE PUSH1 0x20 PUSH1 0x4 DUP3 ADD MSTORE PUSH1 0x1D PUSH1 0x24 DUP3 ADD MSTORE PUSH32 0x43616C6C6572206973206E6F7420616E20616C6C6F776564206E6F6465000000 PUSH1 0x44 DUP3 ADD MSTORE PUSH1 0x64 SWAP1 REVERT JUMPDEST SWAP1 SWAP2 PUSH1 0x0 SWAP5 PUSH2 0x2A3E PUSH2 0x1509 DUP6 PUSH2 0x36CE JUMP JUMPDEST DUP6 SWAP1 DUP1 PUSH2 0x3117 JUMPI JUMPDEST POP PUSH2 0x2A53 DUP2 DUP7 DUP5 DUP8 PUSH2 0x376D JUMP JUMPDEST SWAP5 PUSH1 0x40 MLOAD SWAP5 PUSH4 0xB0F479A1 PUSH1 0xE0 SHL DUP7 MSTORE PUSH1 0x20 DUP7 PUSH1 0x4 DUP2 ADDRESS GAS STATICCALL SWAP6 DUP7 ISZERO PUSH2 0xEAB JUMPI DUP9 SWAP7 PUSH2 0x30F6 JUMPI JUMPDEST POP PUSH1 0x40 MLOAD PUSH4 0x20487DED PUSH1 0xE0 SHL DUP2 MSTORE SWAP4 PUSH1 0x20 DUP6 DUP1 PUSH2 0x2A9A DUP12 DUP11 PUSH1 0x4 DUP5 ADD PUSH2 0x3605 JUMP JUMPDEST SUB DUP2 PUSH1 0x1 PUSH1 0x1 PUSH1 0xA0 SHL SUB DUP12 AND GAS STATICCALL SWAP5 DUP6 ISZERO PUSH2 0x9FA JUMPI DUP10 SWAP6 PUSH2 0x30C2 JUMPI JUMPDEST POP PUSH1 0x40 MLOAD PUSH4 0x70A08231 PUSH1 0xE0 SHL DUP2 MSTORE ADDRESS PUSH1 0x4 DUP3 ADD MSTORE PUSH1 0x20 DUP2 PUSH1 0x24 DUP2 PUSH32 0x0 PUSH1 0x1 PUSH1 0x1 PUSH1 0xA0 SHL SUB AND GAS STATICCALL SWAP1 DUP2 ISZERO PUSH2 0x2FC5 JUMPI DUP11 SWAP2 PUSH2 0x3090 JUMPI JUMPDEST POP PUSH2 0x301F JUMPI JUMPDEST PUSH1 0x40 MLOAD PUSH4 0x70A08231 PUSH1 0xE0 SHL DUP2 MSTORE ADDRESS PUSH1 0x4 DUP3 ADD MSTORE PUSH1 0x20 DUP2 PUSH1 0x24 DUP2 PUSH32 0x0 PUSH1 0x1 PUSH1 0x1 PUSH1 0xA0 SHL SUB AND GAS STATICCALL SWAP1 DUP2 ISZERO PUSH2 0x2FC5 JUMPI DUP11 SWAP2 PUSH2 0x2FED JUMPI JUMPDEST POP PUSH1 0x4 DUP1 SLOAD PUSH1 0x40 MLOAD PUSH4 0x95EA7B3 PUSH1 0xE0 SHL DUP2 MSTORE PUSH1 0x1 PUSH1 0x1 PUSH1 0xA0 SHL SUB SWAP2 DUP3 AND SWAP3 DUP2 ADD SWAP3 SWAP1 SWAP3 MSTORE PUSH1 0x24 DUP3 ADD DUP4 SWAP1 MSTORE PUSH1 0x20 SWAP1 DUP3 SWAP1 PUSH1 0x44 SWAP1 DUP3 SWAP1 DUP16 SWAP1 PUSH32 0x0 AND GAS CALL DUP1 ISZERO PUSH2 0x2F82 JUMPI SWAP2 PUSH1 0x20 SWAP2 DUP13 SWAP6 SWAP5 SWAP4 PUSH2 0x2FD0 JUMPI JUMPDEST POP PUSH1 0x40 MLOAD SWAP1 PUSH2 0x2BDF DUP3 PUSH2 0x278F JUMP JUMPDEST PUSH1 0x1 PUSH1 0x1 PUSH1 0xA0 SHL SUB PUSH32 0x0 DUP2 AND DUP4 MSTORE PUSH32 0x0 DUP2 AND DUP5 DUP5 ADD SWAP1 DUP2 MSTORE PUSH2 0xFFFF PUSH32 0x0 AND PUSH1 0x40 DUP1 DUP7 ADD SWAP2 DUP3 MSTORE ADDRESS PUSH1 0x60 DUP8 ADD SWAP1 DUP2 MSTORE PUSH1 0x80 DUP8 ADD DUP15 DUP2 MSTORE PUSH1 0xA0 DUP9 ADD SWAP7 DUP8 MSTORE PUSH1 0xC0 DUP9 ADD DUP13 DUP2 MSTORE PUSH1 0x4 DUP1 SLOAD SWAP5 MLOAD PUSH4 0x5023B4DF PUSH1 0xE0 SHL DUP2 MSTORE SWAP10 MLOAD DUP9 AND SWAP1 DUP11 ADD MSTORE SWAP5 MLOAD DUP7 AND PUSH1 0x24 DUP10 ADD MSTORE SWAP3 MLOAD PUSH3 0xFFFFFF AND PUSH1 0x44 DUP9 ADD MSTORE MLOAD DUP5 AND PUSH1 0x64 DUP8 ADD MSTORE SWAP1 MLOAD PUSH1 0x84 DUP7 ADD MSTORE SWAP3 MLOAD PUSH1 0xA4 DUP6 ADD MSTORE MLOAD DUP2 AND PUSH1 0xC4 DUP5 ADD MSTORE SWAP2 SWAP6 DUP7 SWAP3 PUSH1 0xE4 SWAP3 DUP5 SWAP3 SWAP2 AND GAS CALL SWAP3 DUP4 ISZERO PUSH2 0x2FC5 JUMPI DUP11 SWAP4 PUSH2 0x2F91 JUMPI JUMPDEST POP PUSH32 0x0 PUSH1 0x1 PUSH1 0x1 PUSH1 0xA0 SHL SUB AND EXTCODESIZE ISZERO PUSH2 0x2F8D JUMPI PUSH1 0x40 MLOAD PUSH4 0x2E1A7D4D PUSH1 0xE0 SHL DUP2 MSTORE PUSH1 0x4 DUP2 ADD DUP8 SWAP1 MSTORE DUP11 DUP2 PUSH1 0x24 DUP2 DUP4 PUSH32 0x0 PUSH1 0x1 PUSH1 0x1 PUSH1 0xA0 SHL SUB AND GAS CALL DUP1 ISZERO PUSH2 0x2F82 JUMPI PUSH2 0x2F6F JUMPI JUMPDEST POP DUP5 PUSH2 0x2F4F JUMPI JUMPDEST POP POP PUSH1 0x8 SSTORE SELFBALANCE DUP4 GT PUSH2 0x1FC6 JUMPI PUSH1 0x1 PUSH1 0x1 PUSH1 0xA0 SHL SUB AND SWAP1 DUP2 PUSH2 0x2EDB JUMPI JUMPDEST POP POP SWAP2 PUSH2 0x2DB2 SWAP5 SWAP4 SWAP2 PUSH1 0x20 SWAP4 PUSH1 0x40 MLOAD DUP1 SWAP8 DUP2 SWAP6 DUP3 SWAP5 PUSH4 0x96F4E9F9 PUSH1 0xE0 SHL DUP5 MSTORE PUSH1 0x4 DUP5 ADD PUSH2 0x3605 JUMP JUMPDEST SUB SWAP3 PUSH1 0x1 PUSH1 0x1 PUSH1 0xA0 SHL SUB AND GAS CALL SWAP2 DUP3 ISZERO PUSH2 0xE5D JUMPI DUP2 SWAP3 PUSH2 0x2EA7 JUMPI JUMPDEST POP PUSH1 0x40 MLOAD PUSH4 0x70A08231 PUSH1 0xE0 SHL DUP2 MSTORE ADDRESS PUSH1 0x4 DUP3 ADD MSTORE PUSH1 0x20 DUP2 PUSH1 0x24 DUP2 PUSH32 0x0 PUSH1 0x1 PUSH1 0x1 PUSH1 0xA0 SHL SUB AND GAS STATICCALL SWAP2 DUP3 ISZERO PUSH2 0x1F27 JUMPI SWAP2 PUSH2 0x2E75 JUMPI JUMPDEST POP PUSH2 0x2E28 JUMPI SWAP1 JUMP JUMPDEST PUSH2 0x2E72 PUSH32 0x0 PUSH32 0x0 PUSH2 0x3B12 JUMP JUMPDEST SWAP1 JUMP JUMPDEST SWAP1 POP PUSH1 0x20 DUP2 RETURNDATASIZE PUSH1 0x20 GT PUSH2 0x2E9F JUMPI JUMPDEST DUP2 PUSH2 0x2E90 PUSH1 0x20 SWAP4 DUP4 PUSH2 0x27C5 JUMP JUMPDEST DUP2 ADD SUB SLT PUSH2 0xA60 JUMPI MLOAD CODESIZE PUSH2 0x2E20 JUMP JUMPDEST RETURNDATASIZE SWAP2 POP PUSH2 0x2E83 JUMP JUMPDEST SWAP1 SWAP2 POP PUSH1 0x20 DUP2 RETURNDATASIZE PUSH1 0x20 GT PUSH2 0x2ED3 JUMPI JUMPDEST DUP2 PUSH2 0x2EC3 PUSH1 0x20 SWAP4 DUP4 PUSH2 0x27C5 JUMP JUMPDEST DUP2 ADD SUB SLT PUSH2 0xA60 JUMPI MLOAD SWAP1 CODESIZE PUSH2 0x2DCD JUMP JUMPDEST RETURNDATASIZE SWAP2 POP PUSH2 0x2EB6 JUMP JUMPDEST PUSH1 0x40 MLOAD PUSH4 0x95EA7B3 PUSH1 0xE0 SHL DUP2 MSTORE PUSH1 0x1 PUSH1 0x1 PUSH1 0xA0 SHL SUB DUP7 AND PUSH1 0x4 DUP3 ADD MSTORE PUSH1 0x24 DUP2 ADD SWAP2 SWAP1 SWAP2 MSTORE SWAP1 PUSH1 0x20 SWAP1 DUP3 SWAP1 PUSH1 0x44 SWAP1 DUP3 SWAP1 DUP11 SWAP1 GAS CALL DUP1 ISZERO PUSH2 0xA6C JUMPI SWAP2 PUSH2 0x2DB2 SWAP7 SWAP6 SWAP4 SWAP2 PUSH1 0x20 SWAP6 SWAP4 PUSH2 0x2F32 JUMPI JUMPDEST POP SWAP2 SWAP4 DUP2 SWAP4 SWAP6 SWAP7 POP PUSH2 0x2D8A JUMP JUMPDEST PUSH2 0x2F48 SWAP1 DUP7 RETURNDATASIZE DUP9 GT PUSH2 0x9F3 JUMPI PUSH2 0x9E3 DUP2 DUP4 PUSH2 0x27C5 JUMP JUMPDEST POP CODESIZE PUSH2 0x2F25 JUMP JUMPDEST DUP3 SWAP9 POP DUP4 SWAP1 PUSH2 0x2F61 PUSH2 0x2F67 SWAP5 DUP8 PUSH2 0x29AF JUMP JUMPDEST SWAP3 PUSH2 0x376D JUMP JUMPDEST SWAP6 CODESIZE DUP1 PUSH2 0x2D6E JUMP JUMPDEST PUSH2 0x2F7B SWAP1 SWAP11 SWAP2 SWAP11 PUSH2 0x277C JUMP JUMPDEST SWAP9 CODESIZE PUSH2 0x2D67 JUMP JUMPDEST PUSH1 0x40 MLOAD RETURNDATASIZE DUP14 DUP3 RETURNDATACOPY RETURNDATASIZE SWAP1 REVERT JUMPDEST DUP10 DUP1 REVERT JUMPDEST SWAP1 SWAP3 POP PUSH1 0x20 DUP2 RETURNDATASIZE PUSH1 0x20 GT PUSH2 0x2FBD JUMPI JUMPDEST DUP2 PUSH2 0x2FAD PUSH1 0x20 SWAP4 DUP4 PUSH2 0x27C5 JUMP JUMPDEST DUP2 ADD SUB SLT PUSH2 0x2F8D JUMPI MLOAD SWAP2 CODESIZE PUSH2 0x2CE5 JUMP JUMPDEST RETURNDATASIZE SWAP2 POP PUSH2 0x2FA0 JUMP JUMPDEST PUSH1 0x40 MLOAD RETURNDATASIZE DUP13 DUP3 RETURNDATACOPY RETURNDATASIZE SWAP1 REVERT JUMPDEST PUSH2 0x2FE6 SWAP1 DUP4 RETURNDATASIZE DUP6 GT PUSH2 0x9F3 JUMPI PUSH2 0x9E3 DUP2 DUP4 PUSH2 0x27C5 JUMP JUMPDEST POP CODESIZE PUSH2 0x2BD1 JUMP JUMPDEST SWAP1 POP PUSH1 0x20 DUP2 RETURNDATASIZE PUSH1 0x20 GT PUSH2 0x3017 JUMPI JUMPDEST DUP2 PUSH2 0x3008 PUSH1 0x20 SWAP4 DUP4 PUSH2 0x27C5 JUMP JUMPDEST DUP2 ADD SUB SLT PUSH2 0x2F8D JUMPI MLOAD CODESIZE PUSH2 0x2B63 JUMP JUMPDEST RETURNDATASIZE SWAP2 POP PUSH2 0x2FFB JUMP JUMPDEST PUSH2 0x308A PUSH32 0x0 PUSH32 0x0 PUSH32 0x0 PUSH2 0x3997 JUMP JUMPDEST POP PUSH2 0x2B10 JUMP JUMPDEST SWAP1 POP PUSH1 0x20 DUP2 RETURNDATASIZE PUSH1 0x20 GT PUSH2 0x30BA JUMPI JUMPDEST DUP2 PUSH2 0x30AB PUSH1 0x20 SWAP4 DUP4 PUSH2 0x27C5 JUMP JUMPDEST DUP2 ADD SUB SLT PUSH2 0x2F8D JUMPI MLOAD CODESIZE PUSH2 0x2B0A JUMP JUMPDEST RETURNDATASIZE SWAP2 POP PUSH2 0x309E JUMP JUMPDEST SWAP1 SWAP5 POP PUSH1 0x20 DUP2 RETURNDATASIZE PUSH1 0x20 GT PUSH2 0x30EE JUMPI JUMPDEST DUP2 PUSH2 0x30DE PUSH1 0x20 SWAP4 DUP4 PUSH2 0x27C5 JUMP JUMPDEST DUP2 ADD SUB SLT PUSH2 0x11A9 JUMPI MLOAD SWAP4 CODESIZE PUSH2 0x2AB6 JUMP JUMPDEST RETURNDATASIZE SWAP2 POP PUSH2 0x30D1 JUMP JUMPDEST PUSH2 0x3110 SWAP2 SWAP7 POP PUSH1 0x20 RETURNDATASIZE PUSH1 0x20 GT PUSH2 0x2189 JUMPI PUSH2 0x217B DUP2 DUP4 PUSH2 0x27C5 JUMP JUMPDEST SWAP5 CODESIZE PUSH2 0x2A79 JUMP JUMPDEST SWAP1 POP CODESIZE PUSH2 0x2A46 JUMP JUMPDEST SWAP3 SWAP1 SWAP2 PUSH2 0x312E PUSH2 0x1509 DUP5 PUSH2 0x36CE JUMP JUMPDEST PUSH1 0x3 SLOAD PUSH1 0x40 DUP1 MLOAD PUSH1 0x1 PUSH1 0x1 PUSH1 0xA0 SHL SUB SWAP3 DUP4 AND SWAP7 SWAP2 SWAP4 SWAP1 SWAP2 PUSH2 0x314E DUP4 PUSH2 0x2746 JUMP JUMPDEST PUSH1 0x60 SWAP2 DUP3 DUP5 MSTORE DUP9 PUSH1 0x20 SWAP4 DUP1 DUP6 DUP8 ADD MSTORE DUP1 DUP9 DUP8 ADD MSTORE DUP1 PUSH1 0x80 PUSH1 0x0 SWAP8 DUP9 DUP4 DUP3 ADD MSTORE ADD MSTORE DUP8 MLOAD PUSH2 0x317A DUP2 PUSH2 0x2715 JUMP JUMPDEST DUP7 DUP2 MSTORE DUP8 DUP10 MLOAD SWAP12 AND DUP7 DUP13 ADD MSTORE DUP6 DUP12 MSTORE PUSH2 0x3192 DUP12 PUSH2 0x2761 JUMP JUMPDEST PUSH2 0x31A0 DUP10 MLOAD PUSH2 0x1A7D DUP2 PUSH2 0x2715 JUMP JUMPDEST SWAP4 DUP10 MLOAD SWAP12 PUSH2 0x31AD DUP14 PUSH2 0x2746 JUMP JUMPDEST DUP13 MSTORE DUP7 DUP13 ADD MSTORE DUP9 DUP12 ADD MSTORE DUP10 ADD MSTORE PUSH1 0x80 DUP9 ADD MSTORE DUP5 MLOAD PUSH4 0xB0F479A1 PUSH1 0xE0 SHL DUP2 MSTORE SWAP8 PUSH1 0x4 SWAP2 DUP4 DUP11 DUP5 DUP2 ADDRESS GAS STATICCALL SWAP10 DUP11 ISZERO PUSH2 0x359C JUMPI PUSH2 0x320A SWAP9 SWAP10 SWAP11 DUP8 SWAP2 DUP8 SWAP2 PUSH2 0x357F JUMPI JUMPDEST POP AND SWAP2 DUP5 DUP12 DUP10 MLOAD DUP1 SWAP12 DUP2 SWAP3 PUSH4 0x20487DED PUSH1 0xE0 SHL DUP4 MSTORE DUP7 DUP10 DUP5 ADD PUSH2 0x3605 JUMP JUMPDEST SUB DUP2 DUP7 GAS STATICCALL SWAP9 DUP10 ISZERO PUSH2 0x342A JUMPI DUP7 SWAP10 PUSH2 0x3550 JUMPI JUMPDEST POP PUSH1 0x8 DUP7 SWAP1 SSTORE DUP8 MLOAD PUSH4 0x23B872DD PUSH1 0xE0 SHL DUP2 MSTORE CALLER DUP6 DUP3 ADD SWAP1 DUP2 MSTORE ADDRESS PUSH1 0x20 DUP3 ADD MSTORE PUSH1 0x40 DUP2 ADD DUP12 SWAP1 MSTORE SWAP1 SWAP2 DUP7 SWAP2 DUP4 SWAP2 SWAP1 DUP3 SWAP1 DUP11 SWAP1 DUP3 SWAP1 PUSH1 0x60 ADD SUB SWAP3 GAS CALL SWAP1 DUP2 ISZERO PUSH2 0x342A JUMPI DUP7 SWAP2 PUSH2 0x3533 JUMPI JUMPDEST POP ISZERO PUSH2 0x34F0 JUMPI DUP6 PUSH1 0x3 SLOAD AND DUP8 MLOAD SWAP9 PUSH4 0x70A08231 PUSH1 0xE0 SHL SWAP10 DUP11 DUP2 MSTORE ADDRESS DUP7 DUP3 ADD MSTORE DUP7 DUP2 PUSH1 0x24 DUP2 DUP7 GAS STATICCALL SWAP1 DUP2 ISZERO PUSH2 0x34E6 JUMPI DUP9 SWAP2 PUSH2 0x34B5 JUMPI JUMPDEST POP DUP2 GT PUSH2 0x3434 JUMPI DUP9 MLOAD PUSH4 0x95EA7B3 PUSH1 0xE0 SHL DUP2 MSTORE PUSH1 0x1 PUSH1 0x1 PUSH1 0xA0 SHL SUB DUP6 AND DUP7 DUP3 ADD SWAP1 DUP2 MSTORE PUSH1 0x20 DUP2 ADD SWAP3 SWAP1 SWAP3 MSTORE SWAP2 DUP7 SWAP2 DUP4 SWAP2 SWAP1 DUP3 SWAP1 DUP11 SWAP1 DUP3 SWAP1 PUSH1 0x40 ADD SUB SWAP3 GAS CALL DUP1 ISZERO PUSH2 0x342A JUMPI SWAP2 DUP6 SWAP4 SWAP2 PUSH2 0x3309 SWAP12 SWAP13 SWAP4 PUSH2 0x340D JUMPI JUMPDEST POP DUP7 DUP10 MLOAD DUP1 SWAP13 DUP2 SWAP6 DUP3 SWAP5 PUSH4 0x96F4E9F9 PUSH1 0xE0 SHL DUP5 MSTORE DUP10 DUP5 ADD PUSH2 0x3605 JUMP JUMPDEST SUB SWAP3 GAS CALL SWAP7 DUP8 ISZERO PUSH2 0x3403 JUMPI DUP4 SWAP8 PUSH2 0x33D4 JUMPI JUMPDEST POP DUP2 SWAP1 PUSH1 0x24 PUSH32 0x0 SWAP8 DUP8 MLOAD SWAP7 DUP8 SWAP4 DUP5 SWAP3 DUP4 MSTORE ADDRESS SWAP1 DUP4 ADD MSTORE DUP10 AND GAS STATICCALL SWAP4 DUP5 ISZERO PUSH2 0x33C9 JUMPI POP DUP2 SWAP4 PUSH2 0x3398 JUMPI JUMPDEST POP POP POP PUSH2 0x336E JUMPI POP SWAP1 JUMP JUMPDEST PUSH2 0x2E72 SWAP1 PUSH32 0x0 PUSH2 0x3B12 JUMP JUMPDEST SWAP1 SWAP2 DUP1 SWAP4 POP DUP2 RETURNDATASIZE DUP4 GT PUSH2 0x33C2 JUMPI JUMPDEST PUSH2 0x33B0 DUP2 DUP4 PUSH2 0x27C5 JUMP JUMPDEST DUP2 ADD SUB SLT PUSH2 0x25C JUMPI POP MLOAD CODESIZE DUP1 DUP1 PUSH2 0x3363 JUMP JUMPDEST POP RETURNDATASIZE PUSH2 0x33A6 JUMP JUMPDEST MLOAD SWAP2 RETURNDATASIZE SWAP2 POP DUP3 RETURNDATACOPY RETURNDATASIZE SWAP1 REVERT JUMPDEST SWAP1 SWAP7 POP DUP2 DUP2 DUP2 RETURNDATASIZE DUP4 GT PUSH2 0x33FC JUMPI JUMPDEST PUSH2 0x33EC DUP2 DUP4 PUSH2 0x27C5 JUMP JUMPDEST DUP2 ADD SUB SLT PUSH2 0x2217 JUMPI MLOAD SWAP6 DUP2 PUSH2 0x331B JUMP JUMPDEST POP RETURNDATASIZE PUSH2 0x33E2 JUMP JUMPDEST DUP6 MLOAD RETURNDATASIZE DUP6 DUP3 RETURNDATACOPY RETURNDATASIZE SWAP1 REVERT JUMPDEST PUSH2 0x3423 SWAP1 DUP6 RETURNDATASIZE DUP8 GT PUSH2 0x9F3 JUMPI PUSH2 0x9E3 DUP2 DUP4 PUSH2 0x27C5 JUMP JUMPDEST POP CODESIZE PUSH2 0x32ED JUMP JUMPDEST DUP9 MLOAD RETURNDATASIZE DUP9 DUP3 RETURNDATACOPY RETURNDATASIZE SWAP1 REVERT JUMPDEST DUP5 SWAP1 DUP7 DUP11 DUP10 SWAP5 DUP3 DUP15 PUSH1 0x24 DUP5 MLOAD DUP1 SWAP5 DUP2 SWAP4 DUP3 MSTORE ADDRESS DUP11 DUP4 ADD MSTORE GAS STATICCALL SWAP3 DUP4 ISZERO PUSH2 0x34AB JUMPI DUP7 SWAP4 PUSH2 0x3477 JUMPI JUMPDEST POP POP MLOAD PUSH4 0x4787A103 PUSH1 0xE1 SHL DUP2 MSTORE SWAP3 DUP4 ADD MSTORE PUSH1 0x24 DUP3 ADD MSTORE PUSH1 0x44 SWAP2 POP REVERT JUMPDEST SWAP1 DUP1 SWAP3 SWAP4 POP DUP2 RETURNDATASIZE DUP4 GT PUSH2 0x34A4 JUMPI JUMPDEST PUSH2 0x348F DUP2 DUP4 PUSH2 0x27C5 JUMP JUMPDEST DUP2 ADD SUB SLT PUSH2 0x448 JUMPI PUSH1 0x44 SWAP5 POP MLOAD SWAP1 DUP6 DUP1 PUSH2 0x345B JUMP JUMPDEST POP RETURNDATASIZE PUSH2 0x3485 JUMP JUMPDEST DUP3 MLOAD RETURNDATASIZE DUP9 DUP3 RETURNDATACOPY RETURNDATASIZE SWAP1 REVERT JUMPDEST SWAP1 POP DUP7 DUP2 DUP2 RETURNDATASIZE DUP4 GT PUSH2 0x34DF JUMPI JUMPDEST PUSH2 0x34CC DUP2 DUP4 PUSH2 0x27C5 JUMP JUMPDEST DUP2 ADD SUB SLT PUSH2 0x34DB JUMPI MLOAD CODESIZE PUSH2 0x329A JUMP JUMPDEST DUP8 DUP1 REVERT JUMPDEST POP RETURNDATASIZE PUSH2 0x34C2 JUMP JUMPDEST DUP11 MLOAD RETURNDATASIZE DUP11 DUP3 RETURNDATACOPY RETURNDATASIZE SWAP1 REVERT JUMPDEST DUP7 MLOAD PUSH3 0x461BCD PUSH1 0xE5 SHL DUP2 MSTORE DUP1 DUP5 ADD DUP6 SWAP1 MSTORE PUSH1 0x1A PUSH1 0x24 DUP3 ADD MSTORE PUSH32 0x4E6F742070726F7669646564204C696E6B20666F722066656573000000000000 PUSH1 0x44 DUP3 ADD MSTORE PUSH1 0x64 SWAP1 REVERT JUMPDEST PUSH2 0x354A SWAP2 POP DUP6 RETURNDATASIZE DUP8 GT PUSH2 0x9F3 JUMPI PUSH2 0x9E3 DUP2 DUP4 PUSH2 0x27C5 JUMP JUMPDEST CODESIZE PUSH2 0x3265 JUMP JUMPDEST SWAP1 SWAP9 POP DUP5 DUP2 DUP2 RETURNDATASIZE DUP4 GT PUSH2 0x3578 JUMPI JUMPDEST PUSH2 0x3568 DUP2 DUP4 PUSH2 0x27C5 JUMP JUMPDEST DUP2 ADD SUB SLT PUSH2 0x2003 JUMPI MLOAD SWAP8 DUP5 PUSH2 0x321D JUMP JUMPDEST POP RETURNDATASIZE PUSH2 0x355E JUMP JUMPDEST PUSH2 0x3596 SWAP2 POP DUP7 RETURNDATASIZE DUP9 GT PUSH2 0x2189 JUMPI PUSH2 0x217B DUP2 DUP4 PUSH2 0x27C5 JUMP JUMPDEST CODESIZE PUSH2 0x31EC JUMP JUMPDEST DUP8 MLOAD RETURNDATASIZE DUP8 DUP3 RETURNDATACOPY RETURNDATASIZE SWAP1 REVERT JUMPDEST SWAP1 DUP2 PUSH1 0x20 SWAP2 SUB SLT PUSH2 0xA60 JUMPI MLOAD PUSH1 0x1 PUSH1 0x1 PUSH1 0xA0 SHL SUB DUP2 AND DUP2 SUB PUSH2 0xA60 JUMPI SWAP1 JUMP JUMPDEST SWAP2 SWAP1 DUP3 MLOAD SWAP3 DUP4 DUP3 MSTORE PUSH1 0x0 JUMPDEST DUP5 DUP2 LT PUSH2 0x35F1 JUMPI POP POP DUP3 PUSH1 0x0 PUSH1 0x20 DUP1 SWAP5 SWAP6 DUP5 ADD ADD MSTORE PUSH1 0x1F DUP1 NOT SWAP2 ADD AND ADD ADD SWAP1 JUMP JUMPDEST PUSH1 0x20 DUP2 DUP4 ADD DUP2 ADD MLOAD DUP5 DUP4 ADD DUP3 ADD MSTORE ADD PUSH2 0x35D0 JUMP JUMPDEST SWAP1 PUSH1 0x1 PUSH1 0x1 PUSH1 0x40 SHL SUB SWAP1 SWAP4 SWAP3 SWAP4 AND DUP2 MSTORE PUSH1 0x40 PUSH1 0x20 SWAP2 DUP2 DUP4 DUP3 ADD MSTORE PUSH2 0x3634 DUP6 MLOAD PUSH1 0xA0 DUP5 DUP5 ADD MSTORE PUSH1 0xE0 DUP4 ADD SWAP1 PUSH2 0x35C5 JUMP JUMPDEST SWAP2 PUSH2 0x3650 DUP5 DUP8 ADD MLOAD SWAP4 PUSH1 0x3F NOT SWAP5 DUP6 DUP6 DUP4 SUB ADD PUSH1 0x60 DUP7 ADD MSTORE PUSH2 0x35C5 JUMP JUMPDEST DUP2 DUP8 ADD MLOAD SWAP5 DUP5 DUP5 DUP4 SUB ADD PUSH1 0x80 DUP6 ADD MSTORE DUP1 DUP1 DUP8 MLOAD SWAP4 DUP5 DUP2 MSTORE ADD SWAP7 ADD SWAP3 PUSH1 0x0 SWAP1 JUMPDEST DUP4 DUP3 LT PUSH2 0x36A5 JUMPI POP POP POP POP POP PUSH1 0xC0 PUSH1 0x80 PUSH2 0x2E72 SWAP6 SWAP7 PUSH1 0x1 DUP1 PUSH1 0xA0 SHL SUB PUSH1 0x60 DUP3 ADD MLOAD AND PUSH1 0xA0 DUP6 ADD MSTORE ADD MLOAD SWAP3 DUP3 DUP6 SUB ADD SWAP2 ADD MSTORE PUSH2 0x35C5 JUMP JUMPDEST DUP5 MLOAD DUP1 MLOAD PUSH1 0x1 PUSH1 0x1 PUSH1 0xA0 SHL SUB AND DUP10 MSTORE DUP4 ADD MLOAD DUP9 DUP5 ADD MSTORE SWAP7 DUP8 ADD SWAP7 SWAP4 DUP3 ADD SWAP4 PUSH1 0x1 SWAP1 SWAP2 ADD SWAP1 PUSH2 0x366F JUMP JUMPDEST PUSH1 0x2 SLOAD PUSH1 0x0 JUMPDEST DUP2 PUSH2 0xFFFF DUP3 AND LT PUSH2 0x371E JUMPI POP POP PUSH32 0x0 PUSH1 0x1 PUSH1 0x1 PUSH1 0xA0 SHL SUB SWAP1 DUP2 AND SWAP2 AND EQ PUSH2 0x3719 JUMPI PUSH1 0x0 SWAP1 JUMP JUMPDEST PUSH1 0x1 SWAP1 JUMP JUMPDEST PUSH2 0x3727 DUP2 PUSH2 0x2919 JUMP JUMPDEST SWAP1 SLOAD PUSH1 0x3 SWAP2 SWAP1 SWAP2 SHL SHR PUSH1 0x1 PUSH1 0x1 PUSH1 0xA0 SHL SUB SWAP1 DUP2 AND SWAP1 DUP5 AND EQ PUSH2 0x3758 JUMPI PUSH2 0xFFFF DUP1 SWAP2 AND SWAP1 DUP2 EQ PUSH2 0x2979 JUMPI PUSH1 0x1 ADD PUSH2 0x36D4 JUMP JUMPDEST POP POP POP PUSH1 0x1 SWAP1 JUMP JUMPDEST DUP1 MLOAD ISZERO PUSH2 0x2950 JUMPI PUSH1 0x20 ADD SWAP1 JUMP JUMPDEST SWAP3 SWAP2 SWAP1 PUSH1 0x40 SWAP2 DUP3 MLOAD SWAP3 PUSH2 0x377F DUP5 PUSH2 0x2746 JUMP JUMPDEST PUSH1 0x60 SWAP3 DUP4 DUP6 MSTORE PUSH1 0x20 SWAP6 DUP5 DUP8 DUP8 ADD MSTORE DUP5 DUP4 DUP8 ADD MSTORE DUP5 PUSH1 0x80 PUSH1 0x0 SWAP8 DUP9 DUP4 DUP3 ADD MSTORE ADD MSTORE PUSH1 0x1 DUP1 PUSH1 0xA0 SHL SUB DUP1 SWAP5 AND DUP1 ISZERO DUP1 PUSH2 0x3878 JUMPI JUMPDEST ISZERO PUSH2 0x380A JUMPI POP POP DUP2 MLOAD PUSH2 0x37C3 DUP2 PUSH2 0x2715 JUMP JUMPDEST DUP6 DUP2 MSTORE SWAP3 JUMPDEST DUP3 MLOAD SWAP8 AND DUP7 DUP9 ADD MSTORE DUP6 DUP8 MSTORE PUSH2 0x37DC DUP8 PUSH2 0x2761 JUMP JUMPDEST PUSH2 0x37EA DUP3 MLOAD PUSH2 0x1A7D DUP2 PUSH2 0x2715 JUMP JUMPDEST SWAP6 DUP3 MLOAD SWAP8 PUSH2 0x37F7 DUP10 PUSH2 0x2746 JUMP JUMPDEST DUP9 MSTORE DUP8 ADD MSTORE DUP6 ADD MSTORE DUP4 ADD MSTORE PUSH1 0x80 DUP3 ADD MSTORE SWAP1 JUMP JUMPDEST DUP4 SWAP5 SWAP2 SWAP5 MLOAD SWAP1 PUSH2 0x3819 DUP3 PUSH2 0x2761 JUMP JUMPDEST PUSH1 0x1 DUP3 MSTORE DUP9 DUP9 JUMPDEST DUP2 DUP2 LT PUSH2 0x3857 JUMPI POP POP SWAP1 PUSH2 0x3851 SWAP2 DUP2 SWAP7 DUP7 MLOAD SWAP2 PUSH2 0x383C DUP4 PUSH2 0x2761 JUMP JUMPDEST DUP3 MSTORE DUP11 DUP3 ADD MSTORE PUSH2 0x384B DUP3 PUSH2 0x3760 JUMP JUMPDEST MSTORE PUSH2 0x3760 JUMP JUMPDEST POP PUSH2 0x37C8 JUMP JUMPDEST DUP7 MLOAD PUSH2 0x3862 DUP2 PUSH2 0x2761 JUMP JUMPDEST DUP11 DUP2 MSTORE DUP11 DUP4 DUP3 ADD MSTORE DUP3 DUP3 DUP7 ADD ADD MSTORE ADD DUP10 SWAP1 PUSH2 0x3820 JUMP JUMPDEST POP DUP2 ISZERO PUSH2 0x37B1 JUMP JUMPDEST SWAP2 SWAP1 DUP3 PUSH2 0x180 SWAP2 SUB SLT PUSH2 0xA60 JUMPI DUP2 MLOAD SWAP2 PUSH1 0x20 DUP2 ADD MLOAD SWAP2 PUSH1 0x40 DUP3 ADD MLOAD SWAP2 PUSH1 0x60 DUP2 ADD MLOAD SWAP2 PUSH1 0x80 DUP3 ADD MLOAD SWAP2 PUSH1 0xA0 DUP2 ADD MLOAD SWAP2 PUSH1 0xC0 DUP3 ADD MLOAD SWAP2 PUSH1 0xE0 DUP2 ADD MLOAD SWAP2 PUSH2 0x100 DUP3 ADD MLOAD SWAP2 PUSH2 0x120 DUP2 ADD MLOAD SWAP2 PUSH2 0x160 PUSH2 0x140 DUP4 ADD MLOAD SWAP3 ADD MLOAD PUSH5 0xFFFFFFFFFF DUP2 AND DUP2 SUB PUSH2 0xA60 JUMPI SWAP1 JUMP JUMPDEST MLOAD SWAP1 PUSH1 0x1 PUSH1 0x1 PUSH1 0xA0 SHL SUB DUP3 AND DUP3 SUB PUSH2 0xA60 JUMPI JUMP JUMPDEST MLOAD SWAP1 PUSH1 0xFF DUP3 AND DUP3 SUB PUSH2 0xA60 JUMPI JUMP JUMPDEST PUSH1 0x40 MLOAD SWAP1 PUSH4 0x97A657C9 PUSH1 0xE0 SHL PUSH1 0x20 DUP4 ADD MSTORE MLOAD PUSH1 0x24 DUP3 ADD MSTORE PUSH1 0x24 DUP2 MSTORE PUSH1 0x60 DUP2 ADD DUP2 DUP2 LT PUSH1 0x1 PUSH1 0x1 PUSH1 0x40 SHL SUB DUP3 GT OR PUSH2 0x2730 JUMPI PUSH1 0x40 MSTORE SWAP1 JUMP JUMPDEST PUSH1 0x40 MLOAD PUSH4 0x26B1D5F PUSH1 0xE0 SHL DUP2 MSTORE SWAP1 PUSH1 0x20 SWAP1 DUP3 SWAP1 PUSH1 0x4 SWAP1 DUP3 SWAP1 PUSH1 0x1 PUSH1 0x1 PUSH1 0xA0 SHL SUB AND GAS STATICCALL SWAP1 DUP2 ISZERO PUSH2 0x398B JUMPI PUSH1 0x0 SWAP2 PUSH2 0x3973 JUMPI POP SWAP1 JUMP JUMPDEST PUSH2 0x2E72 SWAP2 POP PUSH1 0x20 RETURNDATASIZE DUP2 GT PUSH2 0x2189 JUMPI PUSH2 0x217B DUP2 DUP4 PUSH2 0x27C5 JUMP JUMPDEST PUSH1 0x40 MLOAD RETURNDATASIZE PUSH1 0x0 DUP3 RETURNDATACOPY RETURNDATASIZE SWAP1 REVERT JUMPDEST PUSH1 0x40 DUP1 MLOAD PUSH4 0x70A08231 PUSH1 0xE0 SHL DUP2 MSTORE ADDRESS PUSH1 0x4 DUP3 ADD MSTORE SWAP4 SWAP5 SWAP4 SWAP1 SWAP3 PUSH1 0x20 SWAP3 PUSH1 0x1 PUSH1 0x1 PUSH1 0xA0 SHL SUB SWAP2 DUP3 AND SWAP3 SWAP2 SWAP1 DUP5 DUP4 PUSH1 0x24 DUP2 DUP8 GAS STATICCALL SWAP3 DUP4 ISZERO PUSH2 0x3AD6 JUMPI PUSH1 0x0 SWAP4 PUSH2 0x3AE1 JUMPI JUMPDEST POP PUSH2 0x39E2 SWAP1 PUSH2 0x393E JUMP JUMPDEST DUP6 MLOAD PUSH4 0x95EA7B3 PUSH1 0xE0 SHL DUP2 MSTORE PUSH1 0x1 PUSH1 0x1 PUSH1 0xA0 SHL SUB DUP3 AND PUSH1 0x4 DUP3 ADD MSTORE PUSH1 0x24 DUP2 ADD DUP5 SWAP1 MSTORE SWAP1 SWAP4 DUP6 SWAP1 DUP3 SWAP1 PUSH1 0x44 SWAP1 DUP3 SWAP1 PUSH1 0x0 SWAP1 GAS CALL DUP1 ISZERO PUSH2 0x3AD6 JUMPI DUP6 SWAP5 SWAP3 PUSH2 0x3A68 SWAP9 SWAP10 SWAP5 SWAP3 PUSH1 0x0 SWAP3 PUSH2 0x3AB9 JUMPI JUMPDEST POP DUP8 MLOAD PUSH4 0x1A4CA37B PUSH1 0xE2 SHL DUP2 MSTORE PUSH1 0x1 PUSH1 0x1 PUSH1 0xA0 SHL SUB SWAP1 SWAP6 AND PUSH1 0x4 DUP7 ADD MSTORE PUSH1 0x24 DUP6 ADD SWAP3 SWAP1 SWAP3 MSTORE ADDRESS PUSH1 0x44 DUP6 ADD MSTORE SWAP3 SWAP7 DUP8 SWAP4 DUP5 SWAP3 SWAP1 SWAP2 DUP4 SWAP1 PUSH1 0x64 DUP3 ADD SWAP1 JUMP JUMPDEST SUB SWAP4 AND GAS CALL SWAP2 DUP3 ISZERO PUSH2 0x3AAF JUMPI POP PUSH1 0x0 SWAP2 PUSH2 0x3A83 JUMPI JUMPDEST POP SWAP1 POP SWAP1 JUMP JUMPDEST DUP3 DUP2 RETURNDATASIZE DUP4 GT PUSH2 0x3AA8 JUMPI JUMPDEST PUSH2 0x3A97 DUP2 DUP4 PUSH2 0x27C5 JUMP JUMPDEST DUP2 ADD SUB SLT PUSH2 0x25C JUMPI POP MLOAD DUP1 CODESIZE PUSH2 0x3A7D JUMP JUMPDEST POP RETURNDATASIZE PUSH2 0x3A8D JUMP JUMPDEST MLOAD RETURNDATASIZE PUSH1 0x0 DUP3 RETURNDATACOPY RETURNDATASIZE SWAP1 REVERT JUMPDEST PUSH2 0x3ACF SWAP1 DUP8 RETURNDATASIZE DUP10 GT PUSH2 0x9F3 JUMPI PUSH2 0x9E3 DUP2 DUP4 PUSH2 0x27C5 JUMP JUMPDEST POP CODESIZE PUSH2 0x3A2C JUMP JUMPDEST DUP7 MLOAD RETURNDATASIZE PUSH1 0x0 DUP3 RETURNDATACOPY RETURNDATASIZE SWAP1 REVERT JUMPDEST SWAP1 SWAP3 DUP6 DUP3 DUP2 RETURNDATASIZE DUP4 GT PUSH2 0x3B0B JUMPI JUMPDEST PUSH2 0x3AF8 DUP2 DUP4 PUSH2 0x27C5 JUMP JUMPDEST DUP2 ADD SUB SLT PUSH2 0x25C JUMPI POP MLOAD SWAP2 PUSH2 0x39E2 PUSH2 0x39D8 JUMP JUMPDEST POP RETURNDATASIZE PUSH2 0x3AEE JUMP JUMPDEST PUSH1 0x40 DUP1 MLOAD PUSH4 0x70A08231 PUSH1 0xE0 SHL DUP2 MSTORE ADDRESS PUSH1 0x4 DUP3 ADD MSTORE SWAP1 SWAP2 PUSH1 0x1 PUSH1 0x1 PUSH1 0xA0 SHL SUB SWAP1 DUP5 DUP3 AND SWAP1 PUSH1 0x20 SWAP1 DUP2 DUP6 PUSH1 0x24 DUP2 DUP7 GAS STATICCALL SWAP5 DUP6 ISZERO PUSH2 0x3AD6 JUMPI PUSH1 0x0 SWAP6 PUSH2 0x3C1A JUMPI JUMPDEST POP PUSH2 0x3B59 SWAP1 PUSH2 0x393E JUMP JUMPDEST DUP6 MLOAD PUSH4 0x95EA7B3 PUSH1 0xE0 SHL DUP2 MSTORE PUSH1 0x1 PUSH1 0x1 PUSH1 0xA0 SHL SUB DUP3 AND PUSH1 0x4 DUP3 ADD MSTORE PUSH1 0x24 DUP2 ADD DUP7 SWAP1 MSTORE SWAP1 SWAP3 DUP3 SWAP1 DUP3 SWAP1 PUSH1 0x44 SWAP1 DUP3 SWAP1 PUSH1 0x0 SWAP1 GAS CALL DUP1 ISZERO PUSH2 0x3AD6 JUMPI PUSH2 0x3BFC JUMPI JUMPDEST POP POP AND SWAP3 DUP4 EXTCODESIZE ISZERO PUSH2 0xA60 JUMPI DUP3 MLOAD PUSH4 0xE8EDA9DF PUSH1 0xE0 SHL DUP2 MSTORE PUSH1 0x1 PUSH1 0x1 PUSH1 0xA0 SHL SUB SWAP2 SWAP1 SWAP2 AND PUSH1 0x4 DUP3 ADD MSTORE PUSH1 0x24 DUP2 ADD SWAP2 SWAP1 SWAP2 MSTORE ADDRESS PUSH1 0x44 DUP3 ADD MSTORE PUSH1 0x0 PUSH1 0x64 DUP3 ADD DUP2 SWAP1 MSTORE SWAP1 SWAP3 DUP4 SWAP1 PUSH1 0x84 SWAP1 DUP3 SWAP1 DUP5 SWAP1 GAS CALL SWAP1 DUP2 ISZERO PUSH2 0x3AAF JUMPI POP PUSH2 0x3BF1 JUMPI POP JUMP JUMPDEST PUSH2 0x3BFA SWAP1 PUSH2 0x277C JUMP JUMPDEST JUMP JUMPDEST DUP2 PUSH2 0x3C12 SWAP3 SWAP1 RETURNDATASIZE LT PUSH2 0x9F3 JUMPI PUSH2 0x9E3 DUP2 DUP4 PUSH2 0x27C5 JUMP JUMPDEST POP CODESIZE DUP1 PUSH2 0x3B96 JUMP JUMPDEST SWAP1 SWAP5 DUP3 DUP3 DUP2 RETURNDATASIZE DUP4 GT PUSH2 0x3C44 JUMPI JUMPDEST PUSH2 0x3C31 DUP2 DUP4 PUSH2 0x27C5 JUMP JUMPDEST DUP2 ADD SUB SLT PUSH2 0x25C JUMPI POP MLOAD SWAP4 PUSH2 0x3B59 PUSH2 0x3B4F JUMP JUMPDEST POP RETURNDATASIZE PUSH2 0x3C27 JUMP JUMPDEST PUSH1 0x0 SLOAD PUSH1 0x1 PUSH1 0x1 PUSH1 0xA0 SHL SUB AND CALLER SUB PUSH2 0x3C5F JUMPI JUMP JUMPDEST PUSH1 0x40 MLOAD PUSH3 0x461BCD PUSH1 0xE5 SHL DUP2 MSTORE PUSH1 0x20 PUSH1 0x4 DUP3 ADD MSTORE PUSH1 0x16 PUSH1 0x24 DUP3 ADD MSTORE PUSH22 0x27B7363C9031B0B63630B1363290313C9037BBB732B9 PUSH1 0x51 SHL PUSH1 0x44 DUP3 ADD MSTORE PUSH1 0x64 SWAP1 REVERT INVALID LOG2 PUSH5 0x6970667358 0x22 SLT KECCAK256 SELFBALANCE PUSH20 0xDC0E8E26AEDAFDC211DF326705F799816D7D5833 SWAP15 0xA6 ADDMOD PUSH32 0x5919A35153E664736F6C63430008130033000000000000000000000000000000 ",
  "sha1": "218c772fdf2aaed7229b36eb3e30ab85d0354c41",
  "source": "// SPDX-License-Identifier: MIT\npragma solidity 0.8.19;\n\nimport {IRouterClient} from \"@chainlink/contracts/src/v0.8/ccip/interfaces/IRouterClient.sol\";\nimport {OwnerIsCreator} from \"@chainlink/contracts/src/v0.8/shared/access/OwnerIsCreator.sol\";\nimport {Client} from \"@chainlink/contracts/src/v0.8/ccip/libraries/Client.sol\";\nimport {CCIPReceiver} from \"@chainlink/contracts/src/v0.8/ccip/applications/CCIPReceiver.sol\";\nimport {IERC20} from \"@chainlink/contracts/src/v0.8/vendor/openzeppelin-solidity/v4.8.3/contracts/token/ERC20/IERC20.sol\";\nimport {SafeERC20} from \"@chainlink/contracts/src/v0.8/vendor/openzeppelin-solidity/v4.8.3/contracts/token/ERC20/utils/SafeERC20.sol\";\nimport \"./utils_node/UtilsNode.sol\";\nimport \"../interfaces/IWETH9.sol\";\n\n//uniswap V3\nimport \"../interfaces/uniswap_V3/swap/ISwapRouter02.sol\";\n\n//AAVE interfaces\nimport \"../interfaces/IPool.sol\";\nimport \"../interfaces/IPoolDataProvider.sol\";\n//master contract interface\nimport \"../interfaces/IMasterNode.sol\";\n\ncontract Node is CCIPReceiver, OwnerIsCreator, UtilsNode {\n    using SafeERC20 for IERC20;\n\n    // Custom errors to provide more descriptive revert messages.\n    error NotEnoughBalance(uint256 currentBalance, uint256 calculatedFees); // Used to make sure contract has enough balance to cover the fees.\n    error NothingToWithdraw(); // Used when trying to withdraw Ether but there's nothing to withdraw.\n    error FailedToWithdrawEth(address owner, address target, uint256 value); // Used when the withdrawal of Ether fails.\n    error DestinationChainNotAllowed(uint64 destinationChainSelector); // Used when the destination chain has not been allowlisted by the contract owner.\n    error SourceChainNotAllowed(uint64 sourceChainSelector); // Used when the source chain has not been allowlisted by the contract owner.\n    error SenderNotAllowed(address sender); // Used when the sender has not been allowlisted by the contract owner.\n\n    bool public isNodeActive;\n\n    address[] public allowedNodes;\n\n    /// TESTER ////\n    uint64 public immutable MASTER_CONTRACT_CHAIN_ID;\n    address public immutable MASTER_CONTRACT_ADDRESS;\n    uint64 public immutable NODE_CONTRACT_CHAIN_ID;\n    address public immutable POOL_ADDRESS_PROVIDER_ADDRESS;\n    address public immutable POOL_DATA_PROVIDER_ADDRESS;\n    address public immutable USDC_ADDRESS;\n    address public immutable aUSDC_ADDRESS;\n    address public immutable WETH_ADDRESS;\n    uint16 public immutable uinswapFeePool;\n\n    IERC20 private s_linkToken;\n    ISwapRouter02 public iSwapRouter02;\n\n    uint256 public aWrpTotalSupplyNodeSide;\n\n    mapping(address => uint256) public avaliableForRefund;\n\n    ////////////////////////////////////////////////////////////////////////\n    ///////////////////////  TESTING  ///////////////////////////////////////\n    ////////////////////////////////////////////////////////////////////////\n    uint8 public commandTESTER;\n    uint64 public _destinationChainSelectorTESTER;\n    address public _receiverTESTER;\n\n    uint256 public tester_amount_in;\n\n    bool public resumeOperations;\n\n    ////////////////////////////////////////////////////////////////////////\n    ////////////////////////////////////////////////////////////////////////\n\n    /// @notice Constructor initializes the contract with the router address.\n    /// @param _router The address of the router contract.\n    /// @param _link The address of the link contract.\n    constructor(\n        address _router,\n        address _link,\n        address _USDC_ADDRESS,\n        address _aUSDC_ADDRESS,\n        address _WETH_ADDRESS,\n        uint64 _MASTER_CONTRACT_CHAIN_ID,\n        address _MASTER_CONTRACT_ADDRESS,\n        uint64 _NODE_CONTRACT_CHAIN_ID,\n        address _POOL_ADDRESS_PROVIDER_ADDRESS,\n        address _POOL_DATA_PROVIDER_ADDRESS,\n        address _UNISWAP_V3_ROUTER02,\n        bool _isNodeActive,\n        uint16 _uinswapFeePool\n    ) CCIPReceiver(_router) {\n        s_linkToken = IERC20(_link);\n        USDC_ADDRESS = _USDC_ADDRESS;\n        aUSDC_ADDRESS = _aUSDC_ADDRESS;\n        WETH_ADDRESS = _WETH_ADDRESS;\n        MASTER_CONTRACT_CHAIN_ID = _MASTER_CONTRACT_CHAIN_ID;\n        MASTER_CONTRACT_ADDRESS = _MASTER_CONTRACT_ADDRESS;\n        NODE_CONTRACT_CHAIN_ID = _NODE_CONTRACT_CHAIN_ID;\n        POOL_ADDRESS_PROVIDER_ADDRESS = _POOL_ADDRESS_PROVIDER_ADDRESS;\n        POOL_DATA_PROVIDER_ADDRESS = _POOL_DATA_PROVIDER_ADDRESS;\n\n        // uniswap interfaces\n        iSwapRouter02 = ISwapRouter02(_UNISWAP_V3_ROUTER02);\n\n        isNodeActive = _isNodeActive;\n        uinswapFeePool = _uinswapFeePool;\n    }\n\n    // set Allowed Nodes, can only be called once!\n    function setAllowedNodes(\n        address[] memory _allowedNodes\n    ) external onlyOwner {\n        require(_allowedNodes.length > 0, \"You sent an empty array\");\n        require(allowedNodes.length == 0, \"allowedNodes must be empty\");\n        allowedNodes = _allowedNodes;\n    }\n\n    // Internal function to check if an address is in the allowedNodes array\n    function isAllowedAddress(\n        address _nodeOrMaster\n    ) internal view returns (bool) {\n        for (uint16 i = 0; i < allowedNodes.length; i++) {\n            if (allowedNodes[i] == _nodeOrMaster) {\n                return true;\n            }\n        }\n        if (_nodeOrMaster == MASTER_CONTRACT_ADDRESS) {\n            return true;\n        }\n        return false;\n    }\n\n    // Modifier to check if msg.sender is in the allowedNodes array\n    modifier onlyAllowedAddresses(address senderAddress) {\n        require(\n            isAllowedAddress(senderAddress),\n            \"Caller is not an allowed node\"\n        );\n        _;\n    }\n\n    modifier masterAndNodeInSameChain() {\n        require(\n            NODE_CONTRACT_CHAIN_ID == MASTER_CONTRACT_CHAIN_ID,\n            \"Require master and node in same chain\"\n        );\n        _;\n    }\n\n    /////////////////////////////////////////////////////////////////////////\n    ////////////////////////////////////////////////////////////////////////\n    //////////////////////////  RECEIVING MESSAGES  ///////////////////////\n    //////////////////////////////////////////////////////////////////////\n    /////////////////////////////////////////////////////////////////////\n\n    /////////////////////////////////////////////////////////////////////////\n    //////////////////////////  HANDLE WITHDRAW  ///////////////////////////\n    ///////////////////////////  COMMAND = 0  /////////////////////////////\n    //////////////////////////////////////////////////////////////////////\n\n    function _withdraw(Client.Any2EVMMessage memory _any2EvmMessage) internal {\n        (, address transferToUser, uint256 shares) = abi.decode(\n            _any2EvmMessage.data,\n            (uint8, address, uint256)\n        );\n\n        address pool = _getPool(POOL_ADDRESS_PROVIDER_ADDRESS);\n        uint256 totalAusdc = IERC20(aUSDC_ADDRESS).balanceOf(address(this));\n\n        uint256 amount = ((shares * 10 ** 18) * totalAusdc) /\n            aWrpTotalSupplyNodeSide;\n\n        aWrpTotalSupplyNodeSide -= shares;\n\n        if (!isNodeActive) {\n            avaliableForRefund[transferToUser] += shares;\n        } else {\n            IERC20(aUSDC_ADDRESS).approve(pool, amount / 10 ** 18);\n            IPool(pool).withdraw(\n                USDC_ADDRESS,\n                amount / 10 ** 18,\n                transferToUser\n            );\n        }\n    }\n\n    /////////////////////  WITHDRAW MASTER AND NODE IN SAME CHAIN  ///////////////////////\n\n    function withdrawFromSameChain(\n        address transferToUser,\n        uint256 shares\n    ) external masterAndNodeInSameChain {\n        require(\n            msg.sender == MASTER_CONTRACT_ADDRESS,\n            \"Only Master Contract allowed\"\n        );\n\n        address pool = _getPool(POOL_ADDRESS_PROVIDER_ADDRESS);\n        uint256 totalAusdc = IERC20(aUSDC_ADDRESS).balanceOf(address(this));\n\n        /// TESTING ///\n        uint256 amount = ((shares * 10 ** 18) * totalAusdc) /\n            aWrpTotalSupplyNodeSide;\n\n        aWrpTotalSupplyNodeSide -= shares;\n\n        if (!isNodeActive) {\n            avaliableForRefund[transferToUser] += shares;\n        } else {\n            IERC20(aUSDC_ADDRESS).approve(pool, amount / 10 ** 18);\n            IPool(pool).withdraw(\n                USDC_ADDRESS,\n                amount / 10 ** 18,\n                transferToUser\n            );\n        }\n    }\n\n    /////////////////////////////////////////////////////////////////////////\n    ////////////////////////  HANDLE WARP ASSETS  //////////////////////////\n    ///////////////////////////  COMMAND = 1  //////////////////////////////\n    ///////////////////////////////////////////////////////////////////////\n\n    function _warpAssets(\n        Client.Any2EVMMessage memory _any2EvmMessage\n    ) internal {\n        (, uint64 _destinationChainSelector, address _receiver) = abi.decode(\n            _any2EvmMessage.data,\n            (uint8, uint64, address)\n        );\n        uint256 usdcwithdrawn = _assetsAllocationWithdraw(\n            POOL_ADDRESS_PROVIDER_ADDRESS,\n            aUSDC_ADDRESS,\n            USDC_ADDRESS\n        );\n\n        uint8 commandAWRPSupply = 2;\n        bytes memory data = abi.encode(\n            commandAWRPSupply,\n            aWrpTotalSupplyNodeSide\n        );\n\n        isNodeActive = false;\n        _sendMessage(\n            _destinationChainSelector,\n            _receiver,\n            data,\n            USDC_ADDRESS,\n            usdcwithdrawn,\n            true\n        );\n    }\n\n    /////////////  WARP ASSETS MASTER AND NODE IN SAME CHAIN  //////////////\n    function warpAssetsFromSameChain(\n        uint64 _destinationChainSelector,\n        address _receiver\n    ) external {\n        uint256 usdcwithdrawn = _assetsAllocationWithdraw(\n            POOL_ADDRESS_PROVIDER_ADDRESS,\n            aUSDC_ADDRESS,\n            USDC_ADDRESS\n        );\n\n        uint8 commandAWRPSupply = 2;\n        bytes memory data = abi.encode(\n            commandAWRPSupply,\n            aWrpTotalSupplyNodeSide\n        );\n\n        isNodeActive = false;\n        _sendMessage(\n            _destinationChainSelector,\n            _receiver,\n            data,\n            USDC_ADDRESS,\n            usdcwithdrawn,\n            true\n        );\n    }\n\n    /////////////// ONLY FOR TESTING ////////////////////////\n    function warpAssetsTester(\n        uint64 _destinationChainSelector,\n        address _receiver\n    ) public {\n        uint256 usdcwithdrawn = _assetsAllocationWithdraw(\n            POOL_ADDRESS_PROVIDER_ADDRESS,\n            aUSDC_ADDRESS,\n            USDC_ADDRESS\n        );\n\n        uint8 commandAWRPSupply = 2;\n        bytes memory data = abi.encode(\n            commandAWRPSupply,\n            aWrpTotalSupplyNodeSide\n        );\n\n        isNodeActive = false;\n        _sendMessage(\n            _destinationChainSelector,\n            _receiver,\n            data,\n            USDC_ADDRESS,\n            usdcwithdrawn,\n            true\n        );\n    }\n\n    /////////////////////////////////////////////////////////////////////////\n    /////////////////////  HANDLE RESUME OPERATIONS  ///////////////////////\n    ///////////////////////////  COMMAND = 2  //////////////////////////////\n    ///////////////////////////////////////////////////////////////////////\n\n    function _allocateAssetsAndSetAWRPSupply(\n        Client.Any2EVMMessage memory _any2EvmMessage\n    ) internal {\n        (, uint256 _aWrpSupplyFromOldNode) = abi.decode(\n            _any2EvmMessage.data,\n            (uint8, uint256)\n        );\n\n        resumeOperations = true;\n\n        _assetsAllocationDeposit(POOL_ADDRESS_PROVIDER_ADDRESS, USDC_ADDRESS);\n        aWrpTotalSupplyNodeSide = _aWrpSupplyFromOldNode;\n\n        uint8 commandResumeOperations = 1;\n        isNodeActive = true;\n\n        bytes memory data = abi.encode(commandResumeOperations);\n\n        if (NODE_CONTRACT_CHAIN_ID == MASTER_CONTRACT_CHAIN_ID) {\n            IMasterNode(MASTER_CONTRACT_ADDRESS)\n                ._resmumeOperationsFromSameChain();\n        } else {\n            _sendMessage(\n                MASTER_CONTRACT_CHAIN_ID,\n                MASTER_CONTRACT_ADDRESS,\n                data,\n                address(0),\n                0,\n                true\n            );\n        }\n    }\n    //////////////////////////////////////////////////////////////////////////\n    /////////////////////////////////////////////////////////////////////////\n    ////////////////////////  INCOMING MESAGE HANDLER  /////////////////////\n    /////////////////  THIS FUNC IS CALLED BY CHAINLINK  //////////////////\n    //////////////////////////////////////////////////////////////////////\n    /////////////////////////////////////////////////////////////////////\n\n    function _ccipReceive(\n        Client.Any2EVMMessage memory _any2EvmMessage\n    )\n        internal\n        override\n        onlyAllowedAddresses(abi.decode(_any2EvmMessage.sender, (address)))\n    {\n        uint8 command = _internalCommandRouter(_any2EvmMessage);\n        commandTESTER = command;\n\n        if (command == 0) {\n            _withdraw(_any2EvmMessage);\n        } else if (command == 1) {\n            _warpAssets(_any2EvmMessage);\n        } else if (command == 2) {\n            _allocateAssetsAndSetAWRPSupply(_any2EvmMessage);\n        } else {\n            revert(\"invalid command\");\n        }\n    }\n    /////////////////////////////////////////////////////////////////////////\n    ////////////////////////////////////////////////////////////////////////\n    ///////////////////////  OUTGOING MESAGES HANDLER  ////////////////////\n    //////////////////////////////////////////////////////////////////////\n    /////////////////////////////////////////////////////////////////////\n\n    function _sendMessage(\n        uint64 _destinationChainSelector,\n        address _receiver,\n        bytes memory _data,\n        address _token,\n        uint256 _amount,\n        bool isPayingNative\n    ) internal onlyAllowedAddresses(_receiver) returns (bytes32 messageId) {\n        // Create an EVM2AnyMessage struct in memory with necessary information for sending a cross-chain message\n        // address(linkToken) means fees are paid in LINK\n        uint256 newAmount;\n        if (_amount > 0) {\n            newAmount = _amount;\n        }\n\n        address tokenFee;\n        if (isPayingNative) {\n            tokenFee = address(0);\n        } else {\n            tokenFee = address(s_linkToken);\n        }\n\n        Client.EVM2AnyMessage memory evm2AnyMessage = _buildCCIPMessage(\n            _receiver,\n            _data,\n            _token,\n            newAmount,\n            tokenFee\n        );\n\n        // Initialize a router client instance to interact with cross-chain router\n        IRouterClient routerCCIP = IRouterClient(this.getRouter());\n\n        // Get the fee required to send the CCIP message\n        uint256 fees = routerCCIP.getFee(\n            _destinationChainSelector,\n            evm2AnyMessage\n        );\n\n        uint256 amountInUsdc;\n        if (isPayingNative) {\n            amountInUsdc = _getNativeFees(fees);\n            if (newAmount > 0) {\n                evm2AnyMessage = _buildCCIPMessage(\n                    _receiver,\n                    _data,\n                    _token,\n                    newAmount - amountInUsdc,\n                    tokenFee\n                );\n            }\n        }\n        tester_amount_in = amountInUsdc;\n\n        if (isPayingNative) {\n            if (fees > address(this).balance) {\n                revert NotEnoughBalance(address(this).balance, fees);\n            }\n        } else {\n            require(\n                s_linkToken.transferFrom(msg.sender, address(this), fees),\n                \"Not provided Link for fees\"\n            );\n            if (fees > s_linkToken.balanceOf(address(this)))\n                revert NotEnoughBalance(\n                    s_linkToken.balanceOf(address(this)),\n                    fees\n                );\n            s_linkToken.approve(address(routerCCIP), fees);\n        }\n\n        // approve the Router to spend tokens on contract's behalf. It will spend the amount of the given token\n        if (_token != address(0)) {\n            IERC20(_token).approve(address(routerCCIP), newAmount);\n        }\n\n        // Send the message through the router and store the returned message ID\n        if (isPayingNative) {\n            messageId = routerCCIP.ccipSend{value: fees}(\n                _destinationChainSelector,\n                evm2AnyMessage\n            );\n        } else {\n            messageId = routerCCIP.ccipSend(\n                _destinationChainSelector,\n                evm2AnyMessage\n            );\n        }\n\n        uint256 usdcBalance = IERC20(USDC_ADDRESS).balanceOf(address(this));\n        if (usdcBalance > 0) {\n            _assetsAllocationDeposit(\n                POOL_ADDRESS_PROVIDER_ADDRESS,\n                USDC_ADDRESS\n            );\n        }\n\n        // Return the message ID\n        return messageId;\n    }\n\n    /// @notice Construct a CCIP message.\n    /// @dev This function will create an EVM2AnyMessage struct with all the necessary information for programmable tokens transfer.\n    /// @param _receiver The address of the receiver.\n    /// @param _data The bytes data to be sent.\n    /// @param _token The token to be transferred.\n    /// @param _amount The amount of the token to be transferred.\n    /// @param _feeTokenAddress The address of the token used for fees. Set address(0) for native gas.\n    /// @return Client.EVM2AnyMessage Returns an EVM2AnyMessage struct which contains information for sending a CCIP message.\n    function _buildCCIPMessage(\n        address _receiver,\n        bytes memory _data,\n        address _token,\n        uint256 _amount,\n        address _feeTokenAddress\n    ) private returns (Client.EVM2AnyMessage memory) {\n        // Set the token amounts\n        Client.EVMTokenAmount[] memory tokenAmounts;\n\n        if (_token == address(0) && _amount == 0) {\n            tokenAmounts = new Client.EVMTokenAmount[](0);\n        } else {\n            tokenAmounts = new Client.EVMTokenAmount[](1);\n            tokenAmounts[0] = Client.EVMTokenAmount({\n                token: _token,\n                amount: _amount\n            });\n        }\n        // Create an EVM2AnyMessage struct in memory with necessary information for sending a cross-chain message\n        return\n            Client.EVM2AnyMessage({\n                receiver: abi.encode(_receiver), // ABI-encoded receiver address\n                data: _data, // ABI-encoded string\n                tokenAmounts: tokenAmounts, // The amount and type of token being transferred\n                extraArgs: Client._argsToBytes(\n                    // Additional arguments, setting gas limit\n                    Client.EVMExtraArgsV1({gasLimit: 2_000_000})\n                ),\n                // Set the feeToken to a feeTokenAddress, indicating specific asset will be used for fees\n                feeToken: _feeTokenAddress\n            });\n    }\n\n    /////////////////////////////////////////////////////////////////////////\n    /////////////////////////////////////////////////////////////////////////\n    //////////////////////////  SENDING MESSAGES  //////////////////////////\n    ///////////////////////////////////////////////////////////////////////\n    //////////////////////////////////////////////////////////////////////\n\n    /////////////////////////////////////////////////////////////////////////\n    ///////////////////////////////   DEPOSIT   ////////////////////////////\n    ///////////////////////////////////////////////////////////////////////\n\n    function deposit(uint256 amount) external {\n        require(\n            IERC20(USDC_ADDRESS).transferFrom(\n                msg.sender,\n                address(this),\n                amount\n            ),\n            \"Failed to transfer amount\"\n        );\n        require(\n            isNodeActive,\n            \"Asets are Warping Now, deposits on new blockchain\"\n        );\n\n        uint256 totalAusdcNode = IERC20(aUSDC_ADDRESS).balanceOf(address(this));\n        uint256 shares;\n        if (aWrpTotalSupplyNodeSide == 0) {\n            shares = amount * 10 ** 12;\n        } else {\n            shares = (amount * aWrpTotalSupplyNodeSide) / totalAusdcNode;\n        }\n\n        aWrpTotalSupplyNodeSide += shares;\n\n        uint8 command = 0;\n        bytes memory data = abi.encode(command, msg.sender, shares);\n\n        address pool = _getPool(POOL_ADDRESS_PROVIDER_ADDRESS);\n        IERC20(USDC_ADDRESS).approve(pool, amount);\n        IPool(pool).deposit(USDC_ADDRESS, amount, address(this), 0);\n\n        if (NODE_CONTRACT_CHAIN_ID == MASTER_CONTRACT_CHAIN_ID) {\n            IMasterNode(MASTER_CONTRACT_ADDRESS).aWarpTokenMinterFromSameChain(\n                msg.sender,\n                shares\n            );\n        } else {\n            _sendMessage(\n                MASTER_CONTRACT_CHAIN_ID,\n                MASTER_CONTRACT_ADDRESS,\n                data,\n                address(0),\n                0,\n                false\n            );\n        }\n    }\n\n    /////////////////////////////////////////////////////////////////////////\n    ///////////////   RECOVER aWRP FROM A FAILED WITHDRAW   ////////////////\n    ///////////////////////////////////////////////////////////////////////\n\n    function recoverAWRPFromFailedWithdraw() external {\n        require(avaliableForRefund[msg.sender] > 0, \"No aWRP tokens to refund\");\n        uint256 sharesToRefund = avaliableForRefund[msg.sender];\n\n        uint8 commandRefundAWRP = 0; // Same command than deposit\n        bytes memory data = abi.encode(\n            commandRefundAWRP,\n            msg.sender,\n            sharesToRefund\n        );\n\n        if (NODE_CONTRACT_CHAIN_ID == MASTER_CONTRACT_CHAIN_ID) {\n            IMasterNode(MASTER_CONTRACT_ADDRESS).aWarpTokenMinterFromSameChain(\n                msg.sender,\n                sharesToRefund\n            );\n        } else {\n            _sendMessage(\n                MASTER_CONTRACT_CHAIN_ID,\n                MASTER_CONTRACT_ADDRESS,\n                data,\n                address(0),\n                0,\n                false\n            );\n        }\n    }\n\n    /////////////////////////////////////////////////////////////////////////\n    /////////////////////   SEND DATA NODE TO MASTER   /////////////////////\n    ///////////////////////////////////////////////////////////////////////\n\n    function sendAaveData() external {\n        (\n            ,\n            ,\n            uint256 totalUsdcSupply,\n            ,\n            uint256 totalUsdcBorrow,\n            uint256 supplyRate,\n            ,\n            ,\n            ,\n            ,\n            ,\n\n        ) = IPoolDataProvider(POOL_DATA_PROVIDER_ADDRESS).getReserveData(\n                USDC_ADDRESS\n            );\n\n        uint8 commandSendAaveData = 2;\n        bytes memory data = abi.encode(\n            commandSendAaveData,\n            totalUsdcSupply,\n            totalUsdcBorrow,\n            supplyRate\n        );\n        if (NODE_CONTRACT_CHAIN_ID == MASTER_CONTRACT_CHAIN_ID) {\n            IMasterNode(MASTER_CONTRACT_ADDRESS).nodeAaveFeedFromSameChain(\n                totalUsdcSupply,\n                totalUsdcBorrow,\n                supplyRate\n            );\n        } else {\n            _sendMessage(\n                MASTER_CONTRACT_CHAIN_ID,\n                MASTER_CONTRACT_ADDRESS,\n                data,\n                address(0),\n                0,\n                false\n            );\n        }\n    }\n\n    /// @notice Fallback function to allow the contract to receive Ether.\n    /// @dev This function has no function body, making it a default function for receiving Ether.\n    /// It is automatically called when Ether is sent to the contract without any data.\n    receive() external payable {}\n\n    /////////////////////////////////////////////////////////////////////////\n    /////////////////////////////   UTILS   ////////////////////////////////\n    ///////////////////////////////////////////////////////////////////////\n\n    function _getNativeFees(uint256 fees) internal returns (uint256) {\n        // Approve the router to spend USDC.\n        uint256 ausdcBalance = IERC20(aUSDC_ADDRESS).balanceOf(address(this));\n        if (ausdcBalance > 0) {\n            _assetsAllocationWithdraw(\n                POOL_ADDRESS_PROVIDER_ADDRESS,\n                aUSDC_ADDRESS,\n                USDC_ADDRESS\n            );\n        }\n\n        uint256 usdcBalance = IERC20(USDC_ADDRESS).balanceOf(address(this));\n        IERC20(USDC_ADDRESS).approve(address(iSwapRouter02), usdcBalance);\n\n        // Set up the parameters for the swap.\n        ISwapRouter02.ExactOutputSingleParams memory params = ISwapRouter02\n            .ExactOutputSingleParams({\n                tokenIn: USDC_ADDRESS,\n                tokenOut: WETH_ADDRESS,\n                fee: uinswapFeePool,\n                recipient: address(this),\n                amountOut: fees,\n                amountInMaximum: usdcBalance, // for testing dont mind slipperage\n                sqrtPriceLimitX96: 0\n            });\n\n        // Execute the swap.\n        uint256 amountIn = iSwapRouter02.exactOutputSingle(params);\n        IWETH9(WETH_ADDRESS).withdraw(fees);\n        return amountIn;\n    }\n\n    //frontend stuff, no impcat in contract\n    function calculateSharesValue(\n        uint256 shares\n    ) external view returns (uint256) {\n        uint256 totalAusdc = IERC20(aUSDC_ADDRESS).balanceOf(address(this));\n\n        uint256 amount = ((shares * 10 ** 18) * totalAusdc) /\n            aWrpTotalSupplyNodeSide;\n\n        return amount / 10 ** 18;\n    }\n}\n",
  "sourcePath": "contracts/Node.sol",
  "type": "contract"
}