{
  "abi": [
    {
      "inputs": [
        {
          "internalType": "address",
          "name": "_router",
          "type": "address"
        },
        {
          "internalType": "address",
          "name": "_link",
          "type": "address"
        },
        {
          "internalType": "address",
          "name": "_USDC_ADDRESS",
          "type": "address"
        },
        {
          "internalType": "address",
          "name": "_aUSDC_ADDRESS",
          "type": "address"
        },
        {
          "internalType": "address",
          "name": "_WETH_ADDRESS",
          "type": "address"
        },
        {
          "internalType": "uint64",
          "name": "_MASTER_CONTRACT_CHAIN_ID",
          "type": "uint64"
        },
        {
          "internalType": "address",
          "name": "_MASTER_CONTRACT_ADDRESS",
          "type": "address"
        },
        {
          "internalType": "uint64",
          "name": "_NODE_CONTRACT_CHAIN_ID",
          "type": "uint64"
        },
        {
          "internalType": "address",
          "name": "_POOL_ADDRESS_PROVIDER_ADDRESS",
          "type": "address"
        },
        {
          "internalType": "address",
          "name": "_POOL_DATA_PROVIDER_ADDRESS",
          "type": "address"
        },
        {
          "internalType": "address",
          "name": "_UNISWAP_V3_ROUTER02",
          "type": "address"
        },
        {
          "internalType": "bool",
          "name": "_isNodeActive",
          "type": "bool"
        },
        {
          "internalType": "uint16",
          "name": "_uinswapFeePool",
          "type": "uint16"
        }
      ],
      "stateMutability": "nonpayable",
      "type": "constructor"
    },
    {
      "inputs": [
        {
          "internalType": "uint64",
          "name": "destinationChainSelector",
          "type": "uint64"
        }
      ],
      "name": "DestinationChainNotAllowed",
      "type": "error"
    },
    {
      "inputs": [
        {
          "internalType": "address",
          "name": "owner",
          "type": "address"
        },
        {
          "internalType": "address",
          "name": "target",
          "type": "address"
        },
        {
          "internalType": "uint256",
          "name": "value",
          "type": "uint256"
        }
      ],
      "name": "FailedToWithdrawEth",
      "type": "error"
    },
    {
      "inputs": [
        {
          "internalType": "address",
          "name": "router",
          "type": "address"
        }
      ],
      "name": "InvalidRouter",
      "type": "error"
    },
    {
      "inputs": [
        {
          "internalType": "uint256",
          "name": "currentBalance",
          "type": "uint256"
        },
        {
          "internalType": "uint256",
          "name": "calculatedFees",
          "type": "uint256"
        }
      ],
      "name": "NotEnoughBalance",
      "type": "error"
    },
    {
      "inputs": [],
      "name": "NothingToWithdraw",
      "type": "error"
    },
    {
      "inputs": [
        {
          "internalType": "address",
          "name": "sender",
          "type": "address"
        }
      ],
      "name": "SenderNotAllowed",
      "type": "error"
    },
    {
      "inputs": [
        {
          "internalType": "uint64",
          "name": "sourceChainSelector",
          "type": "uint64"
        }
      ],
      "name": "SourceChainNotAllowed",
      "type": "error"
    },
    {
      "anonymous": false,
      "inputs": [
        {
          "indexed": true,
          "internalType": "address",
          "name": "from",
          "type": "address"
        },
        {
          "indexed": true,
          "internalType": "address",
          "name": "to",
          "type": "address"
        }
      ],
      "name": "OwnershipTransferRequested",
      "type": "event"
    },
    {
      "anonymous": false,
      "inputs": [
        {
          "indexed": true,
          "internalType": "address",
          "name": "from",
          "type": "address"
        },
        {
          "indexed": true,
          "internalType": "address",
          "name": "to",
          "type": "address"
        }
      ],
      "name": "OwnershipTransferred",
      "type": "event"
    },
    {
      "inputs": [],
      "name": "MASTER_CONTRACT_ADDRESS",
      "outputs": [
        {
          "internalType": "address",
          "name": "",
          "type": "address"
        }
      ],
      "stateMutability": "view",
      "type": "function"
    },
    {
      "inputs": [],
      "name": "MASTER_CONTRACT_CHAIN_ID",
      "outputs": [
        {
          "internalType": "uint64",
          "name": "",
          "type": "uint64"
        }
      ],
      "stateMutability": "view",
      "type": "function"
    },
    {
      "inputs": [],
      "name": "NODE_CONTRACT_CHAIN_ID",
      "outputs": [
        {
          "internalType": "uint64",
          "name": "",
          "type": "uint64"
        }
      ],
      "stateMutability": "view",
      "type": "function"
    },
    {
      "inputs": [],
      "name": "POOL_ADDRESS_PROVIDER_ADDRESS",
      "outputs": [
        {
          "internalType": "address",
          "name": "",
          "type": "address"
        }
      ],
      "stateMutability": "view",
      "type": "function"
    },
    {
      "inputs": [],
      "name": "POOL_DATA_PROVIDER_ADDRESS",
      "outputs": [
        {
          "internalType": "address",
          "name": "",
          "type": "address"
        }
      ],
      "stateMutability": "view",
      "type": "function"
    },
    {
      "inputs": [],
      "name": "USDC_ADDRESS",
      "outputs": [
        {
          "internalType": "address",
          "name": "",
          "type": "address"
        }
      ],
      "stateMutability": "view",
      "type": "function"
    },
    {
      "inputs": [],
      "name": "WETH_ADDRESS",
      "outputs": [
        {
          "internalType": "address",
          "name": "",
          "type": "address"
        }
      ],
      "stateMutability": "view",
      "type": "function"
    },
    {
      "inputs": [],
      "name": "_destinationChainSelectorTESTER",
      "outputs": [
        {
          "internalType": "uint64",
          "name": "",
          "type": "uint64"
        }
      ],
      "stateMutability": "view",
      "type": "function"
    },
    {
      "inputs": [],
      "name": "_receiverTESTER",
      "outputs": [
        {
          "internalType": "address",
          "name": "",
          "type": "address"
        }
      ],
      "stateMutability": "view",
      "type": "function"
    },
    {
      "inputs": [],
      "name": "aUSDC_ADDRESS",
      "outputs": [
        {
          "internalType": "address",
          "name": "",
          "type": "address"
        }
      ],
      "stateMutability": "view",
      "type": "function"
    },
    {
      "inputs": [],
      "name": "aWrpTotalSupplyNodeSide",
      "outputs": [
        {
          "internalType": "uint256",
          "name": "",
          "type": "uint256"
        }
      ],
      "stateMutability": "view",
      "type": "function"
    },
    {
      "inputs": [],
      "name": "acceptOwnership",
      "outputs": [],
      "stateMutability": "nonpayable",
      "type": "function"
    },
    {
      "inputs": [
        {
          "internalType": "uint256",
          "name": "",
          "type": "uint256"
        }
      ],
      "name": "allowedNodes",
      "outputs": [
        {
          "internalType": "address",
          "name": "",
          "type": "address"
        }
      ],
      "stateMutability": "view",
      "type": "function"
    },
    {
      "inputs": [
        {
          "internalType": "address",
          "name": "",
          "type": "address"
        }
      ],
      "name": "avaliableForRefund",
      "outputs": [
        {
          "internalType": "uint256",
          "name": "",
          "type": "uint256"
        }
      ],
      "stateMutability": "view",
      "type": "function"
    },
    {
      "inputs": [
        {
          "internalType": "uint256",
          "name": "shares",
          "type": "uint256"
        }
      ],
      "name": "calculateSharesValue",
      "outputs": [
        {
          "internalType": "uint256",
          "name": "",
          "type": "uint256"
        }
      ],
      "stateMutability": "view",
      "type": "function"
    },
    {
      "inputs": [
        {
          "components": [
            {
              "internalType": "bytes32",
              "name": "messageId",
              "type": "bytes32"
            },
            {
              "internalType": "uint64",
              "name": "sourceChainSelector",
              "type": "uint64"
            },
            {
              "internalType": "bytes",
              "name": "sender",
              "type": "bytes"
            },
            {
              "internalType": "bytes",
              "name": "data",
              "type": "bytes"
            },
            {
              "components": [
                {
                  "internalType": "address",
                  "name": "token",
                  "type": "address"
                },
                {
                  "internalType": "uint256",
                  "name": "amount",
                  "type": "uint256"
                }
              ],
              "internalType": "struct Client.EVMTokenAmount[]",
              "name": "destTokenAmounts",
              "type": "tuple[]"
            }
          ],
          "internalType": "struct Client.Any2EVMMessage",
          "name": "message",
          "type": "tuple"
        }
      ],
      "name": "ccipReceive",
      "outputs": [],
      "stateMutability": "nonpayable",
      "type": "function"
    },
    {
      "inputs": [],
      "name": "commandTESTER",
      "outputs": [
        {
          "internalType": "uint8",
          "name": "",
          "type": "uint8"
        }
      ],
      "stateMutability": "view",
      "type": "function"
    },
    {
      "inputs": [
        {
          "internalType": "uint256",
          "name": "amount",
          "type": "uint256"
        }
      ],
      "name": "deposit",
      "outputs": [],
      "stateMutability": "nonpayable",
      "type": "function"
    },
    {
      "inputs": [
        {
          "internalType": "address",
          "name": "poolDAtaProvider",
          "type": "address"
        },
        {
          "internalType": "address",
          "name": "usdcAddress",
          "type": "address"
        }
      ],
      "name": "getAaveSupplyRate",
      "outputs": [
        {
          "internalType": "uint256",
          "name": "",
          "type": "uint256"
        }
      ],
      "stateMutability": "view",
      "type": "function"
    },
    {
      "inputs": [
        {
          "internalType": "uint64",
          "name": "destinationCCIPid",
          "type": "uint64"
        },
        {
          "internalType": "address",
          "name": "receiver",
          "type": "address"
        },
        {
          "internalType": "address",
          "name": "s_linkTokenAddress",
          "type": "address"
        },
        {
          "internalType": "address",
          "name": "routerAddress",
          "type": "address"
        },
        {
          "internalType": "bytes",
          "name": "_data",
          "type": "bytes"
        }
      ],
      "name": "getLinkFees",
      "outputs": [
        {
          "internalType": "uint256",
          "name": "",
          "type": "uint256"
        }
      ],
      "stateMutability": "view",
      "type": "function"
    },
    {
      "inputs": [],
      "name": "getRouter",
      "outputs": [
        {
          "internalType": "address",
          "name": "",
          "type": "address"
        }
      ],
      "stateMutability": "view",
      "type": "function"
    },
    {
      "inputs": [],
      "name": "iSwapRouter02",
      "outputs": [
        {
          "internalType": "contract ISwapRouter02",
          "name": "",
          "type": "address"
        }
      ],
      "stateMutability": "view",
      "type": "function"
    },
    {
      "inputs": [],
      "name": "isNodeActive",
      "outputs": [
        {
          "internalType": "bool",
          "name": "",
          "type": "bool"
        }
      ],
      "stateMutability": "view",
      "type": "function"
    },
    {
      "inputs": [],
      "name": "owner",
      "outputs": [
        {
          "internalType": "address",
          "name": "",
          "type": "address"
        }
      ],
      "stateMutability": "view",
      "type": "function"
    },
    {
      "inputs": [],
      "name": "recoverAWRPFromFailedWithdraw",
      "outputs": [],
      "stateMutability": "nonpayable",
      "type": "function"
    },
    {
      "inputs": [],
      "name": "resumeOperations",
      "outputs": [
        {
          "internalType": "bool",
          "name": "",
          "type": "bool"
        }
      ],
      "stateMutability": "view",
      "type": "function"
    },
    {
      "inputs": [],
      "name": "sendAaveData",
      "outputs": [],
      "stateMutability": "nonpayable",
      "type": "function"
    },
    {
      "inputs": [
        {
          "internalType": "address[]",
          "name": "_allowedNodes",
          "type": "address[]"
        }
      ],
      "name": "setAllowedNodes",
      "outputs": [],
      "stateMutability": "nonpayable",
      "type": "function"
    },
    {
      "inputs": [
        {
          "internalType": "bytes4",
          "name": "interfaceId",
          "type": "bytes4"
        }
      ],
      "name": "supportsInterface",
      "outputs": [
        {
          "internalType": "bool",
          "name": "",
          "type": "bool"
        }
      ],
      "stateMutability": "pure",
      "type": "function"
    },
    {
      "inputs": [],
      "name": "tester_amount_in",
      "outputs": [
        {
          "internalType": "uint256",
          "name": "",
          "type": "uint256"
        }
      ],
      "stateMutability": "view",
      "type": "function"
    },
    {
      "inputs": [
        {
          "internalType": "address",
          "name": "to",
          "type": "address"
        }
      ],
      "name": "transferOwnership",
      "outputs": [],
      "stateMutability": "nonpayable",
      "type": "function"
    },
    {
      "inputs": [],
      "name": "uinswapFeePool",
      "outputs": [
        {
          "internalType": "uint16",
          "name": "",
          "type": "uint16"
        }
      ],
      "stateMutability": "view",
      "type": "function"
    },
    {
      "inputs": [
        {
          "internalType": "uint64",
          "name": "_destinationChainSelector",
          "type": "uint64"
        },
        {
          "internalType": "address",
          "name": "_receiver",
          "type": "address"
        }
      ],
      "name": "warpAssetsFromSameChain",
      "outputs": [],
      "stateMutability": "nonpayable",
      "type": "function"
    },
    {
      "inputs": [
        {
          "internalType": "uint64",
          "name": "_destinationChainSelector",
          "type": "uint64"
        },
        {
          "internalType": "address",
          "name": "_receiver",
          "type": "address"
        }
      ],
      "name": "warpAssetsTester",
      "outputs": [],
      "stateMutability": "nonpayable",
      "type": "function"
    },
    {
      "inputs": [
        {
          "internalType": "address",
          "name": "transferToUser",
          "type": "address"
        },
        {
          "internalType": "uint256",
          "name": "shares",
          "type": "uint256"
        }
      ],
      "name": "withdrawFromSameChain",
      "outputs": [],
      "stateMutability": "nonpayable",
      "type": "function"
    },
    {
      "stateMutability": "payable",
      "type": "receive"
    }
  ],
  "bytecode": "6101c0346200044d576200441a38819003601f8101601f191683016001600160401b0381118482101762000452578392829160405283396101a0928391810103126200044d57620000508162000468565b916200005f6020830162000468565b91806200006f6040820162000468565b936200007e6060830162000468565b946200008d6080840162000468565b956200009c60a085016200047d565b92620000ab60c0860162000468565b98620000ba60e087016200047d565b986101009a620000cc8c890162000468565b6101209b620000dd8d8b0162000468565b9261014099620000ef8b8d0162000468565b95610160809d0151998a1515809b036200044d576101809e8f01519b61ffff8d168d036200044d576001600160a01b0399808b161562000434576080523315620003ef578960018060a01b03199b338d6000541617600055168b60035416176003558d528d528d5260a05260c05260e0528c528a52169060045416176004556001549060ff60a01b9060a01b169060ff60a01b191617600155845260405194613f879687620004938839608051878181610b5301526113db015260a0518781816103750152818161053f015281816108c901528181610bf001528181611382015281816118ee01528181611a9e0152611dc9015260c0518781816103ce01528181610459015281816105980152818161060f015281816109220152818161097f01528181610c420152818161193d015281816119a2015281816125ed0152613ad0015260e0518781816103a20152818161056c015281816108f601528181610c130152818161191101526123eb01525186818161080501528181610c6e015281816115810152818161183a01528181611ebf015281816121e001528181612425015281816129c201528181612f9b015281816132f8015261364c01525185818161031301526112b50152518481816102e10152818161068f0152818161070101528181610db5015281816116bf015281816117f301528181611b5c01528181611bcd01528181611c1e01528181611e2501528181611e8101528181611f1301528181611f69015281816121be0152818161297b01528181612c4301528181612cb401528181612d0101528181612f0101528181612f5d01528181612fef01528181613045015281816132b601526135be01525183818161076f01528181610b9801528181610cab015281816111e8015281816115ba0152818161181901528181611af8015281816129a101528181612bea01526132d7015251828181611c4301528181611d1d01528181611d670152818161275301528181612d2601528181612e000152612e4a015251818181611c6f015281816127190152612d520152f35b60405162461bcd60e51b815260206004820152601860248201527f43616e6e6f7420736574206f776e657220746f207a65726f00000000000000006044820152606490fd5b6040516335fdcccd60e21b815260006004820152602490fd5b600080fd5b634e487b7160e01b600052604160045260246000fd5b51906001600160a01b03821682036200044d57565b51906001600160401b03821682036200044d5756fe608080604052600436101561001d575b50361561001b57600080fd5b005b600090813560e01c90816301ffc9a71461278257508063040141e51461273d5780630e508fff146126fe57806315d03dfd146126d5578063168010ed146126425780631d34b4ff1461261c57806332d3ad5e146125d757806349cb88a2146125b95780634c8719f31461259b578063544b170914612454578063670625801461240f5780637058a5e7146123cb57806379ba50971461232757806385572ffb146113a65780638cf19d19146113625780638da5cb5b1461133b5780638e7c2f43146113115780639428b7f8146112e457806397652ffe14610b38578063982d1f181461129f57806398b3c1f8146111b5578063a19b24b514610fb5578063a63ca07614610f71578063a6e1d01614610f4e578063af002db814610bc7578063af25617314610b82578063b0f479a114610b3d578063b2aae5c714610b38578063b6b55f25146106be578063bb09d9b714610679578063c330a2ed146104cd578063d8bba68f146102b9578063dc3f1f5914610298578063e227a1401461025f5763f2fde38b0361000f573461025c57602036600319011261025c576101c06127d7565b6101c8613eff565b6001600160a01b039081169033821461021757600180546001600160a01b031916831790558254167fed8889f560326eb138920d842192f0eb3dd22b4f139c87a2c57538e05bae12788380a380f35b60405162461bcd60e51b815260206004820152601760248201527f43616e6e6f74207472616e7366657220746f2073656c660000000000000000006044820152606490fd5b80fd5b503461025c57602036600319011261025c576020906040906001600160a01b036102876127d7565b168152600683522054604051908152f35b503461025c578060031936011261025c57602060ff60075416604051908152f35b503461025c578060031936011261025c576040516335ea6a7560e01b81526001600160a01b037f000000000000000000000000000000000000000000000000000000000000000081166004830152829161018080826024817f000000000000000000000000000000000000000000000000000000000000000087165afa9283156104c257849285928695610482575b505060405160026020820152836040820152826060820152846080820152608081526103738161285e565b7f00000000000000000000000000000000000000000000000000000000000000006001600160401b03808216907f0000000000000000000000000000000000000000000000000000000000000000161460001461044c5750507f000000000000000000000000000000000000000000000000000000000000000016803b15610448578492836064926040519687958694639637120f60e01b86526004860152602485015260448401525af1801561043d5761042d57505080f35b61043690612894565b61025c5780f35b6040513d84823e3d90fd5b8480fd5b93509350505061047e92507f0000000000000000000000000000000000000000000000000000000000000000906133b1565b5080f35b91945091506104a69250803d106104bb575b61049e81836128dd565b810190613c6d565b50505050505093509350509190923880610348565b503d610494565b6040513d86823e3d90fd5b503461025c578060031936011261025c57338152600660205260408120541561063457338152600660205280604081205460405161053d8161052f8433602084016040909392919360608101946000825260018060a01b031660208201520152565b03601f1981018352826128dd565b7f00000000000000000000000000000000000000000000000000000000000000006001600160401b03808216907f000000000000000000000000000000000000000000000000000000000000000016146000146106055750507f00000000000000000000000000000000000000000000000000000000000000006001600160a01b0316803b156106015760405163011e0fa960e21b8152336004820152602481019290925282908290818381604481015b03925af1801561043d5761042d57505080f35b5050fd5b90915061047e92507f0000000000000000000000000000000000000000000000000000000000000000906133b1565b60405162461bcd60e51b815260206004820152601860248201527f4e6f206157525020746f6b656e7320746f20726566756e6400000000000000006044820152606490fd5b503461025c578060031936011261025c576040517f00000000000000000000000000000000000000000000000000000000000000006001600160a01b03168152602090f35b503461025c576020908160031936011261025c576040516323b872dd60e01b81523360048083019190915230602483015235604482018190526001600160a01b037f00000000000000000000000000000000000000000000000000000000000000008181169592939192918281606481898b5af1908115610a6c578691610b1b575b5015610ad65760ff60015460a01c1615610a77576040516370a0823160e01b81523060048201529382856024817f000000000000000000000000000000000000000000000000000000000000000088165afa948515610a6c578695610a38575b506005549485610a19575064e8d4a5100096878202978289041482151715610a05576107ce87988097612aec565b6005556040805160008682019081523360208201528083018990528190039182018152949061080090606001866128dd565b6108297f0000000000000000000000000000000000000000000000000000000000000000613d2b565b60405163095ea7b360e01b81526001600160a01b038216600482015260248101859052929091908190849060449082908d905af19283156109fa5787936109cc575b50501691823b156109c85760405163e8eda9df60e01b81526001600160a01b039190911660048201526024810191909152306044820152600060648201529085908290608490829084905af19081156109bd5785916109a4575b50507f00000000000000000000000000000000000000000000000000000000000000006001600160401b03808216907f000000000000000000000000000000000000000000000000000000000000000016146000146109745750507f000000000000000000000000000000000000000000000000000000000000000016803b156106015760405163011e0fa960e21b8152336004820152602481019290925282908290818381604481016105ee565b9150915061047e92507f0000000000000000000000000000000000000000000000000000000000000000906133b1565b6109ad90612894565b6109b85783386108c5565b505050fd5b6040513d87823e3d90fd5b8680fd5b816109eb92903d106109f3575b6109e381836128dd565b810190612ad4565b50388061086b565b503d6109d9565b6040513d8b823e3d90fd5b634e487b7160e01b87526011600452602487fd5b966107ce610a318899610a2c8986612a7e565b612aa7565b8097612aec565b9094508281813d8311610a65575b610a5081836128dd565b81010312610a60575193386107a0565b600080fd5b503d610a46565b6040513d88823e3d90fd5b60405162461bcd60e51b815260048101839052603160248201527f4173657473206172652057617270696e67204e6f772c206465706f736974732060448201527037b7103732bb90313637b1b5b1b430b4b760791b6064820152608490fd5b60405162461bcd60e51b815260048101839052601960248201527f4661696c656420746f207472616e7366657220616d6f756e74000000000000006044820152606490fd5b610b329150833d85116109f3576109e381836128dd565b38610740565b612954565b503461025c578060031936011261025c576040517f00000000000000000000000000000000000000000000000000000000000000006001600160a01b03168152602090f35b503461025c578060031936011261025c576040517f00000000000000000000000000000000000000000000000000000000000000006001600160a01b03168152602090f35b503461025c57604036600319011261025c57610be16127d7565b602435906001600160401b03807f000000000000000000000000000000000000000000000000000000000000000016907f00000000000000000000000000000000000000000000000000000000000000001603610efb576001600160a01b037f000000000000000000000000000000000000000000000000000000000000000081163303610eb657610c927f0000000000000000000000000000000000000000000000000000000000000000613d2b565b6040516370a0823160e01b8152306004820152602093917f00000000000000000000000000000000000000000000000000000000000000008416918581602481865afa908115610eab578891610e7e575b50670de0b6b3a764000090818802888104831489151715610e6a5790610d0891612a7e565b610d1f88610d196005548094612aa7565b92612ac7565b60055560015460a01c60ff16610d505750505050906006929116845252610d4b60408320918254612aec565b905580f35b60405163095ea7b360e01b81526001600160a01b038416600482015291900460248201819052959650949091879087908790604490829085905af1948515610e5d57610dfc968896610e40575b50604051631a4ca37b60e21b81526001600160a01b037f00000000000000000000000000000000000000000000000000000000000000008116600483015260248201949094529290941660448301529094859384929183906064820190565b0393165af18015610e3557610e1057505080f35b813d8311610e2e575b610e2381836128dd565b81010312610a605780f35b503d610e19565b6040513d85823e3d90fd5b610e5690873d89116109f3576109e381836128dd565b5038610d9d565b50604051903d90823e3d90fd5b634e487b7160e01b8a52601160045260248afd5b90508581813d8311610ea4575b610e9581836128dd565b81010312610a60575138610ce3565b503d610e8b565b6040513d8a823e3d90fd5b60405162461bcd60e51b815260206004820152601c60248201527f4f6e6c79204d617374657220436f6e747261637420616c6c6f776564000000006044820152606490fd5b60405162461bcd60e51b815260206004820152602560248201527f52657175697265206d617374657220616e64206e6f646520696e2073616d652060448201526431b430b4b760d91b6064820152608490fd5b503461025c578060031936011261025c57602060ff600954166040519015158152f35b503461025c57602036600319011261025c576004359060025482101561025c576020610f9c83612a31565b905460405160039290921b1c6001600160a01b03168152f35b503461025c576020806003193601126111b1576001600160401b03906004358281116111ad57366023820112156111ad578060040135610ff481612a1a565b9061100260405192836128dd565b80825283820192836024809360051b830101913683116111a95783879101915b8383106111915750505050611035613eff565b81511561114e57600254918261110a57519485116110f8576801000000000000000085116110f85750836002558084106110b8575b509060028452835b83811061107d578480f35b82516001600160a01b03167f405787fa12a823e0f2b7631cc41b3ba8828b3321ca811111fa75cd3aa3bb5ace82015591810191600101611072565b837f405787fa12a823e0f2b7631cc41b3ba8828b3321ca811111fa75cd3aa3bb5ace91820191015b8181106110ed575061106a565b8581556001016110e0565b634e487b7160e01b8652604160045285fd5b60405162461bcd60e51b815260048101869052601a818401527f616c6c6f7765644e6f646573206d75737420626520656d7074790000000000006044820152606490fd5b8360176064926040519262461bcd60e51b845260048401528201527f596f752073656e7420616e20656d7074792061727261790000000000000000006044820152fd5b819061119c84612803565b8152019101908690611022565b8880fd5b8380fd5b5080fd5b503461025c576020908160031936011261025c576040516370a0823160e01b8152306004828101919091523583826024817f00000000000000000000000000000000000000000000000000000000000000006001600160a01b03165afa918215610e35578392611270575b50670de0b6b3a7640000928382029180830485149015171561125c57506112539161124a91612a7e565b60055490612aa7565b04604051908152f35b634e487b7160e01b81526011600452602490fd5b9091508381813d8311611298575b61128881836128dd565b81010312610a6057519038611220565b503d61127e565b503461025c578060031936011261025c576040517f00000000000000000000000000000000000000000000000000000000000000006001600160a01b03168152602090f35b503461025c578060031936011261025c5760075460405160489190911c6001600160a01b03168152602090f35b503461025c578060031936011261025c5760206001600160401b0360075460081c16604051908152f35b503461025c578060031936011261025c57546040516001600160a01b039091168152602090f35b503461025c578060031936011261025c5760206040516001600160401b037f0000000000000000000000000000000000000000000000000000000000000000168152f35b503461025c576003196020368201126111b157600435906001600160401b03908183116111ad5760a0908336030112611fda577f00000000000000000000000000000000000000000000000000000000000000006001600160a01b0316330361230f576040516114158161285e565b826004013581526024830135828116810361044857602082015260448301358281116104485761144b90600436918601016128fe565b906040810191825260648401358381116121315761146f90600436918701016128fe565b93606082019485526084810135908482116109c85701903660238301121561213157600482013561149f81612a1a565b926114ad60405194856128dd565b8184526024602085019260061b820101903682116111a957602401915b8183106122d75750505060800152516020818051810103126111ad5761150e90611509906001600160a01b039061150390602001613cd2565b16613abb565b612af9565b81516020818051810103126111ad5761152b602060ff9201613ce6565b169060ff1982816007541617600755821560001461179957505050516060818051810103126111b15761156060208201613ce6565b50606061156f60408301613cd2565b910151906001600160a01b03166115a57f0000000000000000000000000000000000000000000000000000000000000000613d2b565b6040516370a0823160e01b81523060048201527f00000000000000000000000000000000000000000000000000000000000000006001600160a01b03169190602081602481865afa908115610a6c578691611767575b50670de0b6b3a764000090818602868104831487151715611753579061162091612a7e565b61163186610d196005548094612aa7565b60055560015460a01c60ff1661165b575050505082526006602052610d4b60408320918254612aec565b60405163095ea7b360e01b81526001600160a01b03841660048201529190046024820181905290945092916020908590604490829089905af19283156109bd5761170694602094611736575b50604051631a4ca37b60e21b81526001600160a01b037f00000000000000000000000000000000000000000000000000000000000000008116600483015260248201929092529216604483015290928391908290869082906064820190565b03926001600160a01b03165af1801561043d57611721575080f35b602090813d8311610e2e57610e2381836128dd565b61174c90853d87116109f3576109e381836128dd565b50386116a7565b634e487b7160e01b88526011600452602488fd5b90506020813d602011611791575b81611782602093836128dd565b81010312610a605751386115fb565b3d9150611775565b9091926001938481146000146118905750905051916060838051810103126111ad576117c760208401613ce6565b50604083015191821682036111ad5761047e926001600160a01b03906117ef90606001613cd2565b16907f00000000000000000000000000000000000000000000000000000000000000009161185e837f00000000000000000000000000000000000000000000000000000000000000007f0000000000000000000000000000000000000000000000000000000000000000613d84565b93600554926040519360026020860152604085015260408452611880846128c2565b805460ff60a01b19169055612b45565b6002036122a05751604081805181010312610448576040816118b56020879401613ce6565b500151916009541617600955600555600160a01b60ff60a01b19835416178255604051916020830152602082526118eb82612879565b807f000000000000000000000000000000000000000000000000000000000000000016907f000000000000000000000000000000000000000000000000000000000000000016146000146119a05750807f00000000000000000000000000000000000000000000000000000000000000006001600160a01b0316803b1561199d578190600460405180948193634cab8a5760e11b83525af1801561043d57611991575080f35b61199a90612894565b80f35b50fd5b7f000000000000000000000000000000000000000000000000000000000000000082916119cf61150983613abb565b606060806040516119df8161285e565b82815282602082015282604082015286838201520152604051611a018161282d565b8481526040519260018060a01b0316602084015260208352611a2283612879565b611a3c604051611a318161282d565b621e84808152613cf4565b9160405193611a4a8561285e565b845260208401526040830152836060830152608082015260405163b0f479a160e01b8152602081600481305afa9081156104c2578491612271575b506040516320487ded60e01b81529160208380611ac6847f0000000000000000000000000000000000000000000000000000000000000000600484016139ef565b03816001600160a01b0386165afa9283156109bd57859361223d575b506040516370a0823160e01b81523060048201527f0000000000000000000000000000000000000000000000000000000000000000906020816024816001600160a01b0386165afa90811561212657879161220b575b506121b8575b506040516370a0823160e01b815230600482015285906020816024817f00000000000000000000000000000000000000000000000000000000000000006001600160a01b03165afa801561043d578290612184575b6004805460405163095ea7b360e01b81526001600160a01b039091169181019190915260248101829052915060208280604481015b0381867f00000000000000000000000000000000000000000000000000000000000000006001600160a01b03165af1918215610e3557602092612167575b5060405190611c14826128a7565b6001600160a01b037f0000000000000000000000000000000000000000000000000000000000000000811683527f0000000000000000000000000000000000000000000000000000000000000000811684840190815261ffff7f00000000000000000000000000000000000000000000000000000000000000001660408086019182523060608701908152608087018c815260a0880196875260c088018a8152600480549451635023b4df60e01b815299518816908a0152945186166024890152925162ffffff166044880152518416606487015290516084860152925160a485015251811660c48401529193849260e492849291165af1908115610a6c578691612135575b507f00000000000000000000000000000000000000000000000000000000000000006001600160a01b03163b1561213157604051632e1a7d4d60e01b8152600481018590528681602481837f00000000000000000000000000000000000000000000000000000000000000006001600160a01b03165af1801561212657612113575b506008554783116120f4578361208c575b602091611df1916040519485809481936396f4e9f960e01b83527f0000000000000000000000000000000000000000000000000000000000000000600484016139ef565b03926001600160a01b03165af1801561043d57612061575b506040516370a0823160e01b81523060048201526020816024817f00000000000000000000000000000000000000000000000000000000000000006001600160a01b03165afa90811561043d57829161202f575b50611e66575080f35b6040516370a0823160e01b81523060048201526020816024817f00000000000000000000000000000000000000000000000000000000000000006001600160a01b03165afa90811561043d578291611ffd575b50611ee37f0000000000000000000000000000000000000000000000000000000000000000613d2b565b60405163095ea7b360e01b81526001600160a01b03821660048201526024810183905260208180604481010381877f00000000000000000000000000000000000000000000000000000000000000006001600160a01b03165af180156104c257611fde575b506001600160a01b031690813b15611fda5760405163e8eda9df60e01b81527f00000000000000000000000000000000000000000000000000000000000000006001600160a01b031660048201526024810191909152306044820152600060648201529082908290608490829084905af1801561043d57611fc857505080f35b611fd28291612894565b61025c575080f35b8280fd5b611ff69060203d6020116109f3576109e381836128dd565b5038611f48565b90506020813d602011612027575b81612018602093836128dd565b81010312611fda575138611eb9565b3d915061200b565b90506020813d602011612059575b8161204a602093836128dd565b81010312611fda575138611e5d565b3d915061203d565b602090813d8311612085575b61207781836128dd565b810103126111b15738611e09565b503d61206d565b60405163095ea7b360e01b81526001600160a01b03831660048201526024810186905260208160448188805af180156109bd579160209391611df1936120d7575b5091509150611dad565b6120ed90853d87116109f3576109e381836128dd565b50386120cd565b604051634787a10360e11b815247600482015260248101849052604490fd5b61211e919550612894565b849338611d9c565b6040513d89823e3d90fd5b8580fd5b90506020813d60201161215f575b81612150602093836128dd565b81010312612131575138611d1a565b3d9150612143565b61217d90833d85116109f3576109e381836128dd565b5038611c06565b506020813d6020116121b0575b8161219e602093836128dd565b810103126111b157611bc89051611b93565b3d9150612191565b612204907f0000000000000000000000000000000000000000000000000000000000000000907f0000000000000000000000000000000000000000000000000000000000000000613d84565b5038611b3e565b90506020813d602011612235575b81612226602093836128dd565b810103126109c8575138611b38565b3d9150612219565b9092506020813d602011612269575b81612259602093836128dd565b8101031261044857519138611ae2565b3d915061224c565b612293915060203d602011612299575b61228b81836128dd565b810190613990565b38611a85565b503d612281565b60405162461bcd60e51b815260206004820152600f60248201526e1a5b9d985b1a590818dbdb5b585b99608a1b6044820152606490fd5b6040833603126111a957602060409182516122f181612879565b6122fa86612803565b815282860135838201528152019201916114ca565b6040516335fdcccd60e21b8152336004820152602490fd5b503461025c578060031936011261025c576001546001600160a01b03808216330361238d5782546001600160a01b03198082163390811786559316600155167f8be0079c531659141344cd1fd0a4f28419497f9722a3daafe3b4186f6b6457e08380a380f35b60405162461bcd60e51b815260206004820152601660248201527526bab9ba10313290383937b837b9b2b21037bbb732b960511b6044820152606490fd5b503461025c578060031936011261025c5760206040516001600160401b037f0000000000000000000000000000000000000000000000000000000000000000168152f35b503461025c578060031936011261025c576040517f00000000000000000000000000000000000000000000000000000000000000006001600160a01b03168152602090f35b503461025c5760a036600319011261025c5761246e612817565b906124776127ed565b6001600160a01b03919060443583811690819003611fda576064358481168091036111ad57608435956001600160401b038711610448576124c161254395969736906004016128fe565b60405193602098899616868601528585526124db85612879565b6040516124e78161282d565b8881526125046040516124f98161282d565b620f42408152613cf4565b92604051966125128861285e565b8752878701526040860152606085015260808401526040518095819482936320487ded60e01b8452600484016139ef565b03915afa91821561258f57809261255f575b5050604051908152f35b9091508282813d8311612588575b61257781836128dd565b8101031261025c5750513880612555565b503d61256d565b604051903d90823e3d90fd5b503461025c578060031936011261025c576020600554604051908152f35b503461025c578060031936011261025c576020600854604051908152f35b503461025c578060031936011261025c576040517f00000000000000000000000000000000000000000000000000000000000000006001600160a01b03168152602090f35b503461025c578060031936011261025c57602060ff60015460a01c166040519015158152f35b503461025c57604036600319011261025c5761265c6127d7565b6126646127ed565b6040516335ea6a7560e01b81526001600160a01b039182166004820152610180929091839183916024918391165afa918215610e3557602093926126ac575050604051908152f35b6126c29250803d106104bb5761049e81836128dd565b5050505050509450505050503880612555565b503461025c578060031936011261025c576004546040516001600160a01b039091168152602090f35b503461025c578060031936011261025c57602060405161ffff7f0000000000000000000000000000000000000000000000000000000000000000168152f35b503461025c578060031936011261025c576040517f00000000000000000000000000000000000000000000000000000000000000006001600160a01b03168152602090f35b9050346111b15760203660031901126111b15760043563ffffffff60e01b8116809103611fda57602092506385572ffb60e01b81149081156127c6575b5015158152f35b6301ffc9a760e01b149050386127bf565b600435906001600160a01b0382168203610a6057565b602435906001600160a01b0382168203610a6057565b35906001600160a01b0382168203610a6057565b600435906001600160401b0382168203610a6057565b602081019081106001600160401b0382111761284857604052565b634e487b7160e01b600052604160045260246000fd5b60a081019081106001600160401b0382111761284857604052565b604081019081106001600160401b0382111761284857604052565b6001600160401b03811161284857604052565b60e081019081106001600160401b0382111761284857604052565b606081019081106001600160401b0382111761284857604052565b90601f801991011681019081106001600160401b0382111761284857604052565b81601f82011215610a60578035906001600160401b0382116128485760405192612932601f8401601f1916602001856128dd565b82845260208383010111610a6057816000926020809301838601378301015290565b34610a60576040366003190112610a605761001b612970612817565b6129786127ed565b907f0000000000000000000000000000000000000000000000000000000000000000906129e6827f00000000000000000000000000000000000000000000000000000000000000007f0000000000000000000000000000000000000000000000000000000000000000613d84565b92600554916040519260026020850152604084015260408352612a08836128c2565b6001805460ff60a01b19169055612b45565b6001600160401b0381116128485760051b60200190565b600254811015612a685760026000527f405787fa12a823e0f2b7631cc41b3ba8828b3321ca811111fa75cd3aa3bb5ace0190600090565b634e487b7160e01b600052603260045260246000fd5b81810292918115918404141715612a9157565b634e487b7160e01b600052601160045260246000fd5b8115612ab1570490565b634e487b7160e01b600052601260045260246000fd5b91908203918211612a9157565b90816020910312610a6057518015158103610a605790565b91908201809211612a9157565b15612b0057565b60405162461bcd60e51b815260206004820152601d60248201527f43616c6c6572206973206e6f7420616e20616c6c6f776564206e6f64650000006044820152606490fd5b9091600094612b5661150985613abb565b8590806133a9575b50612b6b81868487613b5a565b946040519463b0f479a160e01b8652602086600481305afa958615610eab578896613388575b506040516320487ded60e01b81529360208580612bb28b8a600484016139ef565b03816001600160a01b038b165afa9485156109fa578995613354575b506040516370a0823160e01b81523060048201526020816024817f00000000000000000000000000000000000000000000000000000000000000006001600160a01b03165afa908115613257578a91613322575b506132b1575b6040516370a0823160e01b81523060048201526020816024817f00000000000000000000000000000000000000000000000000000000000000006001600160a01b03165afa908115613257578a9161327f575b506004805460405163095ea7b360e01b81526001600160a01b039182169281019290925260248201839052602090829060449082908f907f0000000000000000000000000000000000000000000000000000000000000000165af1801561321457916020918c959493613262575b5060405190612cf7826128a7565b6001600160a01b037f0000000000000000000000000000000000000000000000000000000000000000811683527f0000000000000000000000000000000000000000000000000000000000000000811684840190815261ffff7f00000000000000000000000000000000000000000000000000000000000000001660408086019182523060608701908152608087018e815260a0880196875260c088018c8152600480549451635023b4df60e01b815299518816908a0152945186166024890152925162ffffff166044880152518416606487015290516084860152925160a485015251811660c48401529195869260e492849291165af1928315613257578a93613223575b507f00000000000000000000000000000000000000000000000000000000000000006001600160a01b03163b1561321f57604051632e1a7d4d60e01b8152600481018790528a81602481837f00000000000000000000000000000000000000000000000000000000000000006001600160a01b03165af1801561321457613201575b50846131e1575b50506008554783116120f4576001600160a01b0316908161316d575b505091612eca9493916020936040518097819582946396f4e9f960e01b8452600484016139ef565b03926001600160a01b03165af1918215610e5d578192613139575b506040516370a0823160e01b81523060048201526020816024817f00000000000000000000000000000000000000000000000000000000000000006001600160a01b03165afa90811561043d578291613107575b50612f42575090565b6040516370a0823160e01b81523060048201526020816024817f00000000000000000000000000000000000000000000000000000000000000006001600160a01b03165afa90811561043d5782916130d5575b50612fbf7f0000000000000000000000000000000000000000000000000000000000000000613d2b565b60405163095ea7b360e01b81526001600160a01b03821660048201526024810183905260208180604481010381877f00000000000000000000000000000000000000000000000000000000000000006001600160a01b03165af180156104c2576130b6575b506001600160a01b031690813b15611fda5760405163e8eda9df60e01b81527f00000000000000000000000000000000000000000000000000000000000000006001600160a01b031660048201526024810191909152306044820152600060648201529082908290608490829084905af1801561043d576130a457505090565b6130ae8291612894565b61025c575090565b6130ce9060203d6020116109f3576109e381836128dd565b5038613024565b90506020813d6020116130ff575b816130f0602093836128dd565b81010312610a60575138612f95565b3d91506130e3565b90506020813d602011613131575b81613122602093836128dd565b81010312610a60575138612f39565b3d9150613115565b9091506020813d602011613165575b81613155602093836128dd565b81010312610a6057519038612ee5565b3d9150613148565b60405163095ea7b360e01b81526001600160a01b0386166004820152602481019190915290602090829060449082908a905af18015610a6c5791612eca96959391602095936131c4575b5091938193959650612ea2565b6131da90863d88116109f3576109e381836128dd565b50386131b7565b82985083906131f36131f99487612ac7565b92613b5a565b953880612e86565b61320d909a919a612894565b9838612e7f565b6040513d8d823e3d90fd5b8980fd5b9092506020813d60201161324f575b8161323f602093836128dd565b8101031261321f57519138612dfd565b3d9150613232565b6040513d8c823e3d90fd5b61327890833d85116109f3576109e381836128dd565b5038612ce9565b90506020813d6020116132a9575b8161329a602093836128dd565b8101031261321f575138612c7b565b3d915061328d565b61331c7f00000000000000000000000000000000000000000000000000000000000000007f00000000000000000000000000000000000000000000000000000000000000007f0000000000000000000000000000000000000000000000000000000000000000613d84565b50612c28565b90506020813d60201161334c575b8161333d602093836128dd565b8101031261321f575138612c22565b3d9150613330565b9094506020813d602011613380575b81613370602093836128dd565b810103126111a957519338612bce565b3d9150613363565b6133a291965060203d6020116122995761228b81836128dd565b9438612b91565b905038612b5e565b9290916133c061150984613abb565b60035460408051909290916001600160a01b03908116916133e08461285e565b606090818552836020928084880152808888015280608060009889838201520152875161340c8161282d565b8781528589519b16858c0152848b526134248b612879565b6134328951611a318161282d565b9389519b61343f8d61285e565b8c52858c0152888b01528901526080880152845163b0f479a160e01b81526004939082818681305afa90811561380557938093929161349e958891613973575b501690828a8c8a5197889283926320487ded60e01b84528b84016139ef565b0381855afa94851561393a578795613944575b50600887905587516323b872dd60e01b815233878201908152306020820152604081018790529091849183919082908b90829060600103925af190811561393a57879161391d575b50156138da578260035416998a94885184816024816370a0823160e01b9a8b8252308d8301525afa9081156137cc5789916138ad575b50811161382c57885163095ea7b360e01b8082526001600160a01b038516828a0190815260208101939093529b9c9a9b999a9899979890918591839182908d90829060400103925af180156137cc57918493916135a99c9d9361380f575b50898b51809d819582946396f4e9f960e01b84528d84016139ef565b03925af19788156138055786986137d6575b507f00000000000000000000000000000000000000000000000000000000000000009382851690885185815230888201528381602481865afa9081156137cc57899161379f575b50613614575b50505050505050505090565b885194855230878601528285602481855afa94851561374f57888a939289928298613759575b50928594919261369d969389956136707f0000000000000000000000000000000000000000000000000000000000000000613d2b565b94519081526001600160a01b03851692810192835260208301969096529296859384929091839160400190565b03925af1801561374f57613731575b50501691823b1561044857855163e8eda9df60e01b81526001600160a01b039091169381019384526020840191909152306040840152600060608401529392918291859182908490829060800103925af1918215613727575050613718575b8080808080808080613608565b61372190612894565b3861370b565b51903d90823e3d90fd5b8161374792903d106109f3576109e381836128dd565b5038806136ac565b89513d8a823e3d90fd5b93945094809697508092508391503d8311613798575b61377981836128dd565b8101031261379457519392918891908790899061369d61363a565b8780fd5b503d61376f565b90508381813d83116137c5575b6137b681836128dd565b810103126111a9575138613602565b503d6137ac565b8a513d8b823e3d90fd5b9080985081813d83116137fe575b6137ee81836128dd565b81010312612131575196386135bb565b503d6137e4565b87513d88823e3d90fd5b61382590853d87116109f3576109e381836128dd565b503861358d565b868891858b8f828b60248451809481938252308a8301525afa9283156138a357869361386f575b505051634787a10360e11b815292830152602482015260449150fd5b9080929350813d831161389c575b61388781836128dd565b81010312610448576044945051908580613853565b503d61387d565b82513d88823e3d90fd5b90508481813d83116138d3575b6138c481836128dd565b810103126111a957513861352f565b503d6138ba565b865162461bcd60e51b8152808601839052601a60248201527f4e6f742070726f7669646564204c696e6b20666f7220666565730000000000006044820152606490fd5b6139349150833d85116109f3576109e381836128dd565b386134f9565b88513d89823e3d90fd5b9094508281813d831161396c575b61395c81836128dd565b810103126109c8575193386134b1565b503d613952565b61398a9150843d86116122995761228b81836128dd565b3861347f565b90816020910312610a6057516001600160a01b0381168103610a605790565b919082519283825260005b8481106139db575050826000602080949584010152601f8019910116010190565b6020818301810151848301820152016139ba565b906001600160401b039093929316815260406020918183820152613a1e855160a08484015260e08301906139af565b91613a3a8487015193603f1994858583030160608601526139af565b8187015194848483030160808501528080875193848152019601926000905b838210613a9257505050505060c06080613a8f959660018060a01b0360608201511660a0850152015192828503019101526139af565b90565b845180516001600160a01b03168952830151888401529687019693820193600190910190613a59565b60025460005b8161ffff821610613b0b5750507f00000000000000000000000000000000000000000000000000000000000000006001600160a01b03908116911614613b0657600090565b600190565b613b1481612a31565b905460039190911b1c6001600160a01b0390811690841614613b455761ffff809116908114612a9157600101613ac1565b505050600190565b805115612a685760200190565b929190604091825192613b6c8461285e565b606092838552602095848787015284838701528460806000978883820152015260018060a01b03809416801580613c65575b15613bf75750508151613bb08161282d565b858152925b8251971686880152858752613bc987612879565b613bd78251611a318161282d565b95825197613be48961285e565b8852870152850152830152608082015290565b839491945190613c0682612879565b6001825288885b818110613c4457505090613c3e918196865191613c2983612879565b82528a820152613c3882613b4d565b52613b4d565b50613bb5565b8651613c4f81612879565b8a81528a83820152828286010152018990613c0d565b508115613b9e565b919082610180910312610a605781519160208101519160408201519160608101519160808201519160a08101519160c08201519160e081015191610100820151916101208101519161016061014083015192015164ffffffffff81168103610a605790565b51906001600160a01b0382168203610a6057565b519060ff82168203610a6057565b604051906397a657c960e01b602083015251602482015260248152606081018181106001600160401b038211176128485760405290565b60405163026b1d5f60e01b815290602090829060049082906001600160a01b03165afa908115613d7857600091613d60575090565b613a8f915060203d81116122995761228b81836128dd565b6040513d6000823e3d90fd5b604080516370a0823160e01b815230600482015293949390926020926001600160a01b039182169291908483602481875afa928315613ec357600093613ece575b50613dcf90613d2b565b855163095ea7b360e01b81526001600160a01b03821660048201526024810184905290938590829060449082906000905af18015613ec357859492613e5598999492600092613ea6575b508751631a4ca37b60e21b81526001600160a01b0390951660048601526024850192909252306044850152929687938492909183906064820190565b0393165af1918215613e9c5750600091613e70575b50905090565b82813d8311613e95575b613e8481836128dd565b8101031261025c5750518038613e6a565b503d613e7a565b513d6000823e3d90fd5b613ebc90873d89116109f3576109e381836128dd565b5038613e19565b86513d6000823e3d90fd5b90928582813d8311613ef8575b613ee581836128dd565b8101031261025c57505191613dcf613dc5565b503d613edb565b6000546001600160a01b03163303613f1357565b60405162461bcd60e51b815260206004820152601660248201527527b7363c9031b0b63630b1363290313c9037bbb732b960511b6044820152606490fdfea2646970667358221220a68abc5fe655b3b0717299a1fb3a5686ce57ca97d23ae3607456cf4d9029962464736f6c63430008130033",
  "bytecodeSha1": "0d2ba02768ce00bfc3a24f9160c97e9480d15c1a",
  "compiler": {
    "evm_version": "istanbul",
    "optimizer": {
      "enabled": true,
      "runs": 200
    },
    "version": "0.8.19+commit.7dd6d404"
  },
  "contractName": "Node",
  "language": "Solidity",
  "natspec": {
    "kind": "dev",
    "methods": {
      "MASTER_CONTRACT_CHAIN_ID()": {
        "notice": "TESTER ////"
      },
      "acceptOwnership()": {
        "notice": "Allows an ownership transfer to be completed by the recipient."
      },
      "ccipReceive((bytes32,uint64,bytes,bytes,(address,uint256)[]))": {
        "details": "Note ensure you check the msg.sender is the OffRampRouter",
        "notice": "Called by the Router to deliver a message. If this reverts, any token transfers also revert. The message will move to a FAILED state and become available for manual execution.",
        "params": {
          "message": "CCIP Message"
        }
      },
      "constructor": {
        "notice": "Constructor initializes the contract with the router address.",
        "params": {
          "_link": "The address of the link contract.",
          "_router": "The address of the router contract."
        }
      },
      "getRouter()": {
        "notice": "Return the current router",
        "returns": {
          "_0": "CCIP router address"
        }
      },
      "owner()": {
        "notice": "Get the current owner"
      },
      "supportsInterface(bytes4)": {
        "details": "Should indicate whether the contract implements IAny2EVMMessageReceiver e.g. return interfaceId == type(IAny2EVMMessageReceiver).interfaceId || interfaceId == type(IERC165).interfaceId This allows CCIP to check if ccipReceive is available before calling it. If this returns false or reverts, only tokens are transferred to the receiver. If this returns true, tokens are transferred and ccipReceive is called atomically. Additionally, if the receiver address does not have code associated with it at the time of execution (EXTCODESIZE returns 0), only tokens will be transferred.",
        "notice": "IERC165 supports an interfaceId",
        "params": {
          "interfaceId": "The interfaceId to check"
        },
        "returns": {
          "_0": "true if the interfaceId is supported"
        }
      },
      "transferOwnership(address)": {
        "notice": "Allows an owner to begin transferring ownership to a new address."
      }
    },
    "version": 1
  },
  "opcodes": "PUSH1 0x80 DUP1 PUSH1 0x40 MSTORE PUSH1 0x4 CALLDATASIZE LT ISZERO PUSH2 0x1D JUMPI JUMPDEST POP CALLDATASIZE ISZERO PUSH2 0x1B JUMPI PUSH1 0x0 DUP1 REVERT JUMPDEST STOP JUMPDEST PUSH1 0x0 SWAP1 DUP2 CALLDATALOAD PUSH1 0xE0 SHR SWAP1 DUP2 PUSH4 0x1FFC9A7 EQ PUSH2 0x2782 JUMPI POP DUP1 PUSH4 0x40141E5 EQ PUSH2 0x273D JUMPI DUP1 PUSH4 0xE508FFF EQ PUSH2 0x26FE JUMPI DUP1 PUSH4 0x15D03DFD EQ PUSH2 0x26D5 JUMPI DUP1 PUSH4 0x168010ED EQ PUSH2 0x2642 JUMPI DUP1 PUSH4 0x1D34B4FF EQ PUSH2 0x261C JUMPI DUP1 PUSH4 0x32D3AD5E EQ PUSH2 0x25D7 JUMPI DUP1 PUSH4 0x49CB88A2 EQ PUSH2 0x25B9 JUMPI DUP1 PUSH4 0x4C8719F3 EQ PUSH2 0x259B JUMPI DUP1 PUSH4 0x544B1709 EQ PUSH2 0x2454 JUMPI DUP1 PUSH4 0x67062580 EQ PUSH2 0x240F JUMPI DUP1 PUSH4 0x7058A5E7 EQ PUSH2 0x23CB JUMPI DUP1 PUSH4 0x79BA5097 EQ PUSH2 0x2327 JUMPI DUP1 PUSH4 0x85572FFB EQ PUSH2 0x13A6 JUMPI DUP1 PUSH4 0x8CF19D19 EQ PUSH2 0x1362 JUMPI DUP1 PUSH4 0x8DA5CB5B EQ PUSH2 0x133B JUMPI DUP1 PUSH4 0x8E7C2F43 EQ PUSH2 0x1311 JUMPI DUP1 PUSH4 0x9428B7F8 EQ PUSH2 0x12E4 JUMPI DUP1 PUSH4 0x97652FFE EQ PUSH2 0xB38 JUMPI DUP1 PUSH4 0x982D1F18 EQ PUSH2 0x129F JUMPI DUP1 PUSH4 0x98B3C1F8 EQ PUSH2 0x11B5 JUMPI DUP1 PUSH4 0xA19B24B5 EQ PUSH2 0xFB5 JUMPI DUP1 PUSH4 0xA63CA076 EQ PUSH2 0xF71 JUMPI DUP1 PUSH4 0xA6E1D016 EQ PUSH2 0xF4E JUMPI DUP1 PUSH4 0xAF002DB8 EQ PUSH2 0xBC7 JUMPI DUP1 PUSH4 0xAF256173 EQ PUSH2 0xB82 JUMPI DUP1 PUSH4 0xB0F479A1 EQ PUSH2 0xB3D JUMPI DUP1 PUSH4 0xB2AAE5C7 EQ PUSH2 0xB38 JUMPI DUP1 PUSH4 0xB6B55F25 EQ PUSH2 0x6BE JUMPI DUP1 PUSH4 0xBB09D9B7 EQ PUSH2 0x679 JUMPI DUP1 PUSH4 0xC330A2ED EQ PUSH2 0x4CD JUMPI DUP1 PUSH4 0xD8BBA68F EQ PUSH2 0x2B9 JUMPI DUP1 PUSH4 0xDC3F1F59 EQ PUSH2 0x298 JUMPI DUP1 PUSH4 0xE227A140 EQ PUSH2 0x25F JUMPI PUSH4 0xF2FDE38B SUB PUSH2 0xF JUMPI CALLVALUE PUSH2 0x25C JUMPI PUSH1 0x20 CALLDATASIZE PUSH1 0x3 NOT ADD SLT PUSH2 0x25C JUMPI PUSH2 0x1C0 PUSH2 0x27D7 JUMP JUMPDEST PUSH2 0x1C8 PUSH2 0x3EFF JUMP JUMPDEST PUSH1 0x1 PUSH1 0x1 PUSH1 0xA0 SHL SUB SWAP1 DUP2 AND SWAP1 CALLER DUP3 EQ PUSH2 0x217 JUMPI PUSH1 0x1 DUP1 SLOAD PUSH1 0x1 PUSH1 0x1 PUSH1 0xA0 SHL SUB NOT AND DUP4 OR SWAP1 SSTORE DUP3 SLOAD AND PUSH32 0xED8889F560326EB138920D842192F0EB3DD22B4F139C87A2C57538E05BAE1278 DUP4 DUP1 LOG3 DUP1 RETURN JUMPDEST PUSH1 0x40 MLOAD PUSH3 0x461BCD PUSH1 0xE5 SHL DUP2 MSTORE PUSH1 0x20 PUSH1 0x4 DUP3 ADD MSTORE PUSH1 0x17 PUSH1 0x24 DUP3 ADD MSTORE PUSH32 0x43616E6E6F74207472616E7366657220746F2073656C66000000000000000000 PUSH1 0x44 DUP3 ADD MSTORE PUSH1 0x64 SWAP1 REVERT JUMPDEST DUP1 REVERT JUMPDEST POP CALLVALUE PUSH2 0x25C JUMPI PUSH1 0x20 CALLDATASIZE PUSH1 0x3 NOT ADD SLT PUSH2 0x25C JUMPI PUSH1 0x20 SWAP1 PUSH1 0x40 SWAP1 PUSH1 0x1 PUSH1 0x1 PUSH1 0xA0 SHL SUB PUSH2 0x287 PUSH2 0x27D7 JUMP JUMPDEST AND DUP2 MSTORE PUSH1 0x6 DUP4 MSTORE KECCAK256 SLOAD PUSH1 0x40 MLOAD SWAP1 DUP2 MSTORE RETURN JUMPDEST POP CALLVALUE PUSH2 0x25C JUMPI DUP1 PUSH1 0x3 NOT CALLDATASIZE ADD SLT PUSH2 0x25C JUMPI PUSH1 0x20 PUSH1 0xFF PUSH1 0x7 SLOAD AND PUSH1 0x40 MLOAD SWAP1 DUP2 MSTORE RETURN JUMPDEST POP CALLVALUE PUSH2 0x25C JUMPI DUP1 PUSH1 0x3 NOT CALLDATASIZE ADD SLT PUSH2 0x25C JUMPI PUSH1 0x40 MLOAD PUSH4 0x35EA6A75 PUSH1 0xE0 SHL DUP2 MSTORE PUSH1 0x1 PUSH1 0x1 PUSH1 0xA0 SHL SUB PUSH32 0x0 DUP2 AND PUSH1 0x4 DUP4 ADD MSTORE DUP3 SWAP2 PUSH2 0x180 DUP1 DUP3 PUSH1 0x24 DUP2 PUSH32 0x0 DUP8 AND GAS STATICCALL SWAP3 DUP4 ISZERO PUSH2 0x4C2 JUMPI DUP5 SWAP3 DUP6 SWAP3 DUP7 SWAP6 PUSH2 0x482 JUMPI JUMPDEST POP POP PUSH1 0x40 MLOAD PUSH1 0x2 PUSH1 0x20 DUP3 ADD MSTORE DUP4 PUSH1 0x40 DUP3 ADD MSTORE DUP3 PUSH1 0x60 DUP3 ADD MSTORE DUP5 PUSH1 0x80 DUP3 ADD MSTORE PUSH1 0x80 DUP2 MSTORE PUSH2 0x373 DUP2 PUSH2 0x285E JUMP JUMPDEST PUSH32 0x0 PUSH1 0x1 PUSH1 0x1 PUSH1 0x40 SHL SUB DUP1 DUP3 AND SWAP1 PUSH32 0x0 AND EQ PUSH1 0x0 EQ PUSH2 0x44C JUMPI POP POP PUSH32 0x0 AND DUP1 EXTCODESIZE ISZERO PUSH2 0x448 JUMPI DUP5 SWAP3 DUP4 PUSH1 0x64 SWAP3 PUSH1 0x40 MLOAD SWAP7 DUP8 SWAP6 DUP7 SWAP5 PUSH4 0x9637120F PUSH1 0xE0 SHL DUP7 MSTORE PUSH1 0x4 DUP7 ADD MSTORE PUSH1 0x24 DUP6 ADD MSTORE PUSH1 0x44 DUP5 ADD MSTORE GAS CALL DUP1 ISZERO PUSH2 0x43D JUMPI PUSH2 0x42D JUMPI POP POP DUP1 RETURN JUMPDEST PUSH2 0x436 SWAP1 PUSH2 0x2894 JUMP JUMPDEST PUSH2 0x25C JUMPI DUP1 RETURN JUMPDEST PUSH1 0x40 MLOAD RETURNDATASIZE DUP5 DUP3 RETURNDATACOPY RETURNDATASIZE SWAP1 REVERT JUMPDEST DUP5 DUP1 REVERT JUMPDEST SWAP4 POP SWAP4 POP POP POP PUSH2 0x47E SWAP3 POP PUSH32 0x0 SWAP1 PUSH2 0x33B1 JUMP JUMPDEST POP DUP1 RETURN JUMPDEST SWAP2 SWAP5 POP SWAP2 POP PUSH2 0x4A6 SWAP3 POP DUP1 RETURNDATASIZE LT PUSH2 0x4BB JUMPI JUMPDEST PUSH2 0x49E DUP2 DUP4 PUSH2 0x28DD JUMP JUMPDEST DUP2 ADD SWAP1 PUSH2 0x3C6D JUMP JUMPDEST POP POP POP POP POP POP SWAP4 POP SWAP4 POP POP SWAP2 SWAP1 SWAP3 CODESIZE DUP1 PUSH2 0x348 JUMP JUMPDEST POP RETURNDATASIZE PUSH2 0x494 JUMP JUMPDEST PUSH1 0x40 MLOAD RETURNDATASIZE DUP7 DUP3 RETURNDATACOPY RETURNDATASIZE SWAP1 REVERT JUMPDEST POP CALLVALUE PUSH2 0x25C JUMPI DUP1 PUSH1 0x3 NOT CALLDATASIZE ADD SLT PUSH2 0x25C JUMPI CALLER DUP2 MSTORE PUSH1 0x6 PUSH1 0x20 MSTORE PUSH1 0x40 DUP2 KECCAK256 SLOAD ISZERO PUSH2 0x634 JUMPI CALLER DUP2 MSTORE PUSH1 0x6 PUSH1 0x20 MSTORE DUP1 PUSH1 0x40 DUP2 KECCAK256 SLOAD PUSH1 0x40 MLOAD PUSH2 0x53D DUP2 PUSH2 0x52F DUP5 CALLER PUSH1 0x20 DUP5 ADD PUSH1 0x40 SWAP1 SWAP4 SWAP3 SWAP2 SWAP4 PUSH1 0x60 DUP2 ADD SWAP5 PUSH1 0x0 DUP3 MSTORE PUSH1 0x1 DUP1 PUSH1 0xA0 SHL SUB AND PUSH1 0x20 DUP3 ADD MSTORE ADD MSTORE JUMP JUMPDEST SUB PUSH1 0x1F NOT DUP2 ADD DUP4 MSTORE DUP3 PUSH2 0x28DD JUMP JUMPDEST PUSH32 0x0 PUSH1 0x1 PUSH1 0x1 PUSH1 0x40 SHL SUB DUP1 DUP3 AND SWAP1 PUSH32 0x0 AND EQ PUSH1 0x0 EQ PUSH2 0x605 JUMPI POP POP PUSH32 0x0 PUSH1 0x1 PUSH1 0x1 PUSH1 0xA0 SHL SUB AND DUP1 EXTCODESIZE ISZERO PUSH2 0x601 JUMPI PUSH1 0x40 MLOAD PUSH4 0x11E0FA9 PUSH1 0xE2 SHL DUP2 MSTORE CALLER PUSH1 0x4 DUP3 ADD MSTORE PUSH1 0x24 DUP2 ADD SWAP3 SWAP1 SWAP3 MSTORE DUP3 SWAP1 DUP3 SWAP1 DUP2 DUP4 DUP2 PUSH1 0x44 DUP2 ADD JUMPDEST SUB SWAP3 GAS CALL DUP1 ISZERO PUSH2 0x43D JUMPI PUSH2 0x42D JUMPI POP POP DUP1 RETURN JUMPDEST POP POP REVERT JUMPDEST SWAP1 SWAP2 POP PUSH2 0x47E SWAP3 POP PUSH32 0x0 SWAP1 PUSH2 0x33B1 JUMP JUMPDEST PUSH1 0x40 MLOAD PUSH3 0x461BCD PUSH1 0xE5 SHL DUP2 MSTORE PUSH1 0x20 PUSH1 0x4 DUP3 ADD MSTORE PUSH1 0x18 PUSH1 0x24 DUP3 ADD MSTORE PUSH32 0x4E6F206157525020746F6B656E7320746F20726566756E640000000000000000 PUSH1 0x44 DUP3 ADD MSTORE PUSH1 0x64 SWAP1 REVERT JUMPDEST POP CALLVALUE PUSH2 0x25C JUMPI DUP1 PUSH1 0x3 NOT CALLDATASIZE ADD SLT PUSH2 0x25C JUMPI PUSH1 0x40 MLOAD PUSH32 0x0 PUSH1 0x1 PUSH1 0x1 PUSH1 0xA0 SHL SUB AND DUP2 MSTORE PUSH1 0x20 SWAP1 RETURN JUMPDEST POP CALLVALUE PUSH2 0x25C JUMPI PUSH1 0x20 SWAP1 DUP2 PUSH1 0x3 NOT CALLDATASIZE ADD SLT PUSH2 0x25C JUMPI PUSH1 0x40 MLOAD PUSH4 0x23B872DD PUSH1 0xE0 SHL DUP2 MSTORE CALLER PUSH1 0x4 DUP1 DUP4 ADD SWAP2 SWAP1 SWAP2 MSTORE ADDRESS PUSH1 0x24 DUP4 ADD MSTORE CALLDATALOAD PUSH1 0x44 DUP3 ADD DUP2 SWAP1 MSTORE PUSH1 0x1 PUSH1 0x1 PUSH1 0xA0 SHL SUB PUSH32 0x0 DUP2 DUP2 AND SWAP6 SWAP3 SWAP4 SWAP2 SWAP3 SWAP2 DUP3 DUP2 PUSH1 0x64 DUP2 DUP10 DUP12 GAS CALL SWAP1 DUP2 ISZERO PUSH2 0xA6C JUMPI DUP7 SWAP2 PUSH2 0xB1B JUMPI JUMPDEST POP ISZERO PUSH2 0xAD6 JUMPI PUSH1 0xFF PUSH1 0x1 SLOAD PUSH1 0xA0 SHR AND ISZERO PUSH2 0xA77 JUMPI PUSH1 0x40 MLOAD PUSH4 0x70A08231 PUSH1 0xE0 SHL DUP2 MSTORE ADDRESS PUSH1 0x4 DUP3 ADD MSTORE SWAP4 DUP3 DUP6 PUSH1 0x24 DUP2 PUSH32 0x0 DUP9 AND GAS STATICCALL SWAP5 DUP6 ISZERO PUSH2 0xA6C JUMPI DUP7 SWAP6 PUSH2 0xA38 JUMPI JUMPDEST POP PUSH1 0x5 SLOAD SWAP5 DUP6 PUSH2 0xA19 JUMPI POP PUSH5 0xE8D4A51000 SWAP7 DUP8 DUP3 MUL SWAP8 DUP3 DUP10 DIV EQ DUP3 ISZERO OR ISZERO PUSH2 0xA05 JUMPI PUSH2 0x7CE DUP8 SWAP9 DUP1 SWAP8 PUSH2 0x2AEC JUMP JUMPDEST PUSH1 0x5 SSTORE PUSH1 0x40 DUP1 MLOAD PUSH1 0x0 DUP7 DUP3 ADD SWAP1 DUP2 MSTORE CALLER PUSH1 0x20 DUP3 ADD MSTORE DUP1 DUP4 ADD DUP10 SWAP1 MSTORE DUP2 SWAP1 SUB SWAP2 DUP3 ADD DUP2 MSTORE SWAP5 SWAP1 PUSH2 0x800 SWAP1 PUSH1 0x60 ADD DUP7 PUSH2 0x28DD JUMP JUMPDEST PUSH2 0x829 PUSH32 0x0 PUSH2 0x3D2B JUMP JUMPDEST PUSH1 0x40 MLOAD PUSH4 0x95EA7B3 PUSH1 0xE0 SHL DUP2 MSTORE PUSH1 0x1 PUSH1 0x1 PUSH1 0xA0 SHL SUB DUP3 AND PUSH1 0x4 DUP3 ADD MSTORE PUSH1 0x24 DUP2 ADD DUP6 SWAP1 MSTORE SWAP3 SWAP1 SWAP2 SWAP1 DUP2 SWAP1 DUP5 SWAP1 PUSH1 0x44 SWAP1 DUP3 SWAP1 DUP14 SWAP1 GAS CALL SWAP3 DUP4 ISZERO PUSH2 0x9FA JUMPI DUP8 SWAP4 PUSH2 0x9CC JUMPI JUMPDEST POP POP AND SWAP2 DUP3 EXTCODESIZE ISZERO PUSH2 0x9C8 JUMPI PUSH1 0x40 MLOAD PUSH4 0xE8EDA9DF PUSH1 0xE0 SHL DUP2 MSTORE PUSH1 0x1 PUSH1 0x1 PUSH1 0xA0 SHL SUB SWAP2 SWAP1 SWAP2 AND PUSH1 0x4 DUP3 ADD MSTORE PUSH1 0x24 DUP2 ADD SWAP2 SWAP1 SWAP2 MSTORE ADDRESS PUSH1 0x44 DUP3 ADD MSTORE PUSH1 0x0 PUSH1 0x64 DUP3 ADD MSTORE SWAP1 DUP6 SWAP1 DUP3 SWAP1 PUSH1 0x84 SWAP1 DUP3 SWAP1 DUP5 SWAP1 GAS CALL SWAP1 DUP2 ISZERO PUSH2 0x9BD JUMPI DUP6 SWAP2 PUSH2 0x9A4 JUMPI JUMPDEST POP POP PUSH32 0x0 PUSH1 0x1 PUSH1 0x1 PUSH1 0x40 SHL SUB DUP1 DUP3 AND SWAP1 PUSH32 0x0 AND EQ PUSH1 0x0 EQ PUSH2 0x974 JUMPI POP POP PUSH32 0x0 AND DUP1 EXTCODESIZE ISZERO PUSH2 0x601 JUMPI PUSH1 0x40 MLOAD PUSH4 0x11E0FA9 PUSH1 0xE2 SHL DUP2 MSTORE CALLER PUSH1 0x4 DUP3 ADD MSTORE PUSH1 0x24 DUP2 ADD SWAP3 SWAP1 SWAP3 MSTORE DUP3 SWAP1 DUP3 SWAP1 DUP2 DUP4 DUP2 PUSH1 0x44 DUP2 ADD PUSH2 0x5EE JUMP JUMPDEST SWAP2 POP SWAP2 POP PUSH2 0x47E SWAP3 POP PUSH32 0x0 SWAP1 PUSH2 0x33B1 JUMP JUMPDEST PUSH2 0x9AD SWAP1 PUSH2 0x2894 JUMP JUMPDEST PUSH2 0x9B8 JUMPI DUP4 CODESIZE PUSH2 0x8C5 JUMP JUMPDEST POP POP POP REVERT JUMPDEST PUSH1 0x40 MLOAD RETURNDATASIZE DUP8 DUP3 RETURNDATACOPY RETURNDATASIZE SWAP1 REVERT JUMPDEST DUP7 DUP1 REVERT JUMPDEST DUP2 PUSH2 0x9EB SWAP3 SWAP1 RETURNDATASIZE LT PUSH2 0x9F3 JUMPI JUMPDEST PUSH2 0x9E3 DUP2 DUP4 PUSH2 0x28DD JUMP JUMPDEST DUP2 ADD SWAP1 PUSH2 0x2AD4 JUMP JUMPDEST POP CODESIZE DUP1 PUSH2 0x86B JUMP JUMPDEST POP RETURNDATASIZE PUSH2 0x9D9 JUMP JUMPDEST PUSH1 0x40 MLOAD RETURNDATASIZE DUP12 DUP3 RETURNDATACOPY RETURNDATASIZE SWAP1 REVERT JUMPDEST PUSH4 0x4E487B71 PUSH1 0xE0 SHL DUP8 MSTORE PUSH1 0x11 PUSH1 0x4 MSTORE PUSH1 0x24 DUP8 REVERT JUMPDEST SWAP7 PUSH2 0x7CE PUSH2 0xA31 DUP9 SWAP10 PUSH2 0xA2C DUP10 DUP7 PUSH2 0x2A7E JUMP JUMPDEST PUSH2 0x2AA7 JUMP JUMPDEST DUP1 SWAP8 PUSH2 0x2AEC JUMP JUMPDEST SWAP1 SWAP5 POP DUP3 DUP2 DUP2 RETURNDATASIZE DUP4 GT PUSH2 0xA65 JUMPI JUMPDEST PUSH2 0xA50 DUP2 DUP4 PUSH2 0x28DD JUMP JUMPDEST DUP2 ADD SUB SLT PUSH2 0xA60 JUMPI MLOAD SWAP4 CODESIZE PUSH2 0x7A0 JUMP JUMPDEST PUSH1 0x0 DUP1 REVERT JUMPDEST POP RETURNDATASIZE PUSH2 0xA46 JUMP JUMPDEST PUSH1 0x40 MLOAD RETURNDATASIZE DUP9 DUP3 RETURNDATACOPY RETURNDATASIZE SWAP1 REVERT JUMPDEST PUSH1 0x40 MLOAD PUSH3 0x461BCD PUSH1 0xE5 SHL DUP2 MSTORE PUSH1 0x4 DUP2 ADD DUP4 SWAP1 MSTORE PUSH1 0x31 PUSH1 0x24 DUP3 ADD MSTORE PUSH32 0x4173657473206172652057617270696E67204E6F772C206465706F7369747320 PUSH1 0x44 DUP3 ADD MSTORE PUSH17 0x37B7103732BB90313637B1B5B1B430B4B7 PUSH1 0x79 SHL PUSH1 0x64 DUP3 ADD MSTORE PUSH1 0x84 SWAP1 REVERT JUMPDEST PUSH1 0x40 MLOAD PUSH3 0x461BCD PUSH1 0xE5 SHL DUP2 MSTORE PUSH1 0x4 DUP2 ADD DUP4 SWAP1 MSTORE PUSH1 0x19 PUSH1 0x24 DUP3 ADD MSTORE PUSH32 0x4661696C656420746F207472616E7366657220616D6F756E7400000000000000 PUSH1 0x44 DUP3 ADD MSTORE PUSH1 0x64 SWAP1 REVERT JUMPDEST PUSH2 0xB32 SWAP2 POP DUP4 RETURNDATASIZE DUP6 GT PUSH2 0x9F3 JUMPI PUSH2 0x9E3 DUP2 DUP4 PUSH2 0x28DD JUMP JUMPDEST CODESIZE PUSH2 0x740 JUMP JUMPDEST PUSH2 0x2954 JUMP JUMPDEST POP CALLVALUE PUSH2 0x25C JUMPI DUP1 PUSH1 0x3 NOT CALLDATASIZE ADD SLT PUSH2 0x25C JUMPI PUSH1 0x40 MLOAD PUSH32 0x0 PUSH1 0x1 PUSH1 0x1 PUSH1 0xA0 SHL SUB AND DUP2 MSTORE PUSH1 0x20 SWAP1 RETURN JUMPDEST POP CALLVALUE PUSH2 0x25C JUMPI DUP1 PUSH1 0x3 NOT CALLDATASIZE ADD SLT PUSH2 0x25C JUMPI PUSH1 0x40 MLOAD PUSH32 0x0 PUSH1 0x1 PUSH1 0x1 PUSH1 0xA0 SHL SUB AND DUP2 MSTORE PUSH1 0x20 SWAP1 RETURN JUMPDEST POP CALLVALUE PUSH2 0x25C JUMPI PUSH1 0x40 CALLDATASIZE PUSH1 0x3 NOT ADD SLT PUSH2 0x25C JUMPI PUSH2 0xBE1 PUSH2 0x27D7 JUMP JUMPDEST PUSH1 0x24 CALLDATALOAD SWAP1 PUSH1 0x1 PUSH1 0x1 PUSH1 0x40 SHL SUB DUP1 PUSH32 0x0 AND SWAP1 PUSH32 0x0 AND SUB PUSH2 0xEFB JUMPI PUSH1 0x1 PUSH1 0x1 PUSH1 0xA0 SHL SUB PUSH32 0x0 DUP2 AND CALLER SUB PUSH2 0xEB6 JUMPI PUSH2 0xC92 PUSH32 0x0 PUSH2 0x3D2B JUMP JUMPDEST PUSH1 0x40 MLOAD PUSH4 0x70A08231 PUSH1 0xE0 SHL DUP2 MSTORE ADDRESS PUSH1 0x4 DUP3 ADD MSTORE PUSH1 0x20 SWAP4 SWAP2 PUSH32 0x0 DUP5 AND SWAP2 DUP6 DUP2 PUSH1 0x24 DUP2 DUP7 GAS STATICCALL SWAP1 DUP2 ISZERO PUSH2 0xEAB JUMPI DUP9 SWAP2 PUSH2 0xE7E JUMPI JUMPDEST POP PUSH8 0xDE0B6B3A7640000 SWAP1 DUP2 DUP9 MUL DUP9 DUP2 DIV DUP4 EQ DUP10 ISZERO OR ISZERO PUSH2 0xE6A JUMPI SWAP1 PUSH2 0xD08 SWAP2 PUSH2 0x2A7E JUMP JUMPDEST PUSH2 0xD1F DUP9 PUSH2 0xD19 PUSH1 0x5 SLOAD DUP1 SWAP5 PUSH2 0x2AA7 JUMP JUMPDEST SWAP3 PUSH2 0x2AC7 JUMP JUMPDEST PUSH1 0x5 SSTORE PUSH1 0x1 SLOAD PUSH1 0xA0 SHR PUSH1 0xFF AND PUSH2 0xD50 JUMPI POP POP POP POP SWAP1 PUSH1 0x6 SWAP3 SWAP2 AND DUP5 MSTORE MSTORE PUSH2 0xD4B PUSH1 0x40 DUP4 KECCAK256 SWAP2 DUP3 SLOAD PUSH2 0x2AEC JUMP JUMPDEST SWAP1 SSTORE DUP1 RETURN JUMPDEST PUSH1 0x40 MLOAD PUSH4 0x95EA7B3 PUSH1 0xE0 SHL DUP2 MSTORE PUSH1 0x1 PUSH1 0x1 PUSH1 0xA0 SHL SUB DUP5 AND PUSH1 0x4 DUP3 ADD MSTORE SWAP2 SWAP1 DIV PUSH1 0x24 DUP3 ADD DUP2 SWAP1 MSTORE SWAP6 SWAP7 POP SWAP5 SWAP1 SWAP2 DUP8 SWAP1 DUP8 SWAP1 DUP8 SWAP1 PUSH1 0x44 SWAP1 DUP3 SWAP1 DUP6 SWAP1 GAS CALL SWAP5 DUP6 ISZERO PUSH2 0xE5D JUMPI PUSH2 0xDFC SWAP7 DUP9 SWAP7 PUSH2 0xE40 JUMPI JUMPDEST POP PUSH1 0x40 MLOAD PUSH4 0x1A4CA37B PUSH1 0xE2 SHL DUP2 MSTORE PUSH1 0x1 PUSH1 0x1 PUSH1 0xA0 SHL SUB PUSH32 0x0 DUP2 AND PUSH1 0x4 DUP4 ADD MSTORE PUSH1 0x24 DUP3 ADD SWAP5 SWAP1 SWAP5 MSTORE SWAP3 SWAP1 SWAP5 AND PUSH1 0x44 DUP4 ADD MSTORE SWAP1 SWAP5 DUP6 SWAP4 DUP5 SWAP3 SWAP2 DUP4 SWAP1 PUSH1 0x64 DUP3 ADD SWAP1 JUMP JUMPDEST SUB SWAP4 AND GAS CALL DUP1 ISZERO PUSH2 0xE35 JUMPI PUSH2 0xE10 JUMPI POP POP DUP1 RETURN JUMPDEST DUP2 RETURNDATASIZE DUP4 GT PUSH2 0xE2E JUMPI JUMPDEST PUSH2 0xE23 DUP2 DUP4 PUSH2 0x28DD JUMP JUMPDEST DUP2 ADD SUB SLT PUSH2 0xA60 JUMPI DUP1 RETURN JUMPDEST POP RETURNDATASIZE PUSH2 0xE19 JUMP JUMPDEST PUSH1 0x40 MLOAD RETURNDATASIZE DUP6 DUP3 RETURNDATACOPY RETURNDATASIZE SWAP1 REVERT JUMPDEST PUSH2 0xE56 SWAP1 DUP8 RETURNDATASIZE DUP10 GT PUSH2 0x9F3 JUMPI PUSH2 0x9E3 DUP2 DUP4 PUSH2 0x28DD JUMP JUMPDEST POP CODESIZE PUSH2 0xD9D JUMP JUMPDEST POP PUSH1 0x40 MLOAD SWAP1 RETURNDATASIZE SWAP1 DUP3 RETURNDATACOPY RETURNDATASIZE SWAP1 REVERT JUMPDEST PUSH4 0x4E487B71 PUSH1 0xE0 SHL DUP11 MSTORE PUSH1 0x11 PUSH1 0x4 MSTORE PUSH1 0x24 DUP11 REVERT JUMPDEST SWAP1 POP DUP6 DUP2 DUP2 RETURNDATASIZE DUP4 GT PUSH2 0xEA4 JUMPI JUMPDEST PUSH2 0xE95 DUP2 DUP4 PUSH2 0x28DD JUMP JUMPDEST DUP2 ADD SUB SLT PUSH2 0xA60 JUMPI MLOAD CODESIZE PUSH2 0xCE3 JUMP JUMPDEST POP RETURNDATASIZE PUSH2 0xE8B JUMP JUMPDEST PUSH1 0x40 MLOAD RETURNDATASIZE DUP11 DUP3 RETURNDATACOPY RETURNDATASIZE SWAP1 REVERT JUMPDEST PUSH1 0x40 MLOAD PUSH3 0x461BCD PUSH1 0xE5 SHL DUP2 MSTORE PUSH1 0x20 PUSH1 0x4 DUP3 ADD MSTORE PUSH1 0x1C PUSH1 0x24 DUP3 ADD MSTORE PUSH32 0x4F6E6C79204D617374657220436F6E747261637420616C6C6F77656400000000 PUSH1 0x44 DUP3 ADD MSTORE PUSH1 0x64 SWAP1 REVERT JUMPDEST PUSH1 0x40 MLOAD PUSH3 0x461BCD PUSH1 0xE5 SHL DUP2 MSTORE PUSH1 0x20 PUSH1 0x4 DUP3 ADD MSTORE PUSH1 0x25 PUSH1 0x24 DUP3 ADD MSTORE PUSH32 0x52657175697265206D617374657220616E64206E6F646520696E2073616D6520 PUSH1 0x44 DUP3 ADD MSTORE PUSH5 0x31B430B4B7 PUSH1 0xD9 SHL PUSH1 0x64 DUP3 ADD MSTORE PUSH1 0x84 SWAP1 REVERT JUMPDEST POP CALLVALUE PUSH2 0x25C JUMPI DUP1 PUSH1 0x3 NOT CALLDATASIZE ADD SLT PUSH2 0x25C JUMPI PUSH1 0x20 PUSH1 0xFF PUSH1 0x9 SLOAD AND PUSH1 0x40 MLOAD SWAP1 ISZERO ISZERO DUP2 MSTORE RETURN JUMPDEST POP CALLVALUE PUSH2 0x25C JUMPI PUSH1 0x20 CALLDATASIZE PUSH1 0x3 NOT ADD SLT PUSH2 0x25C JUMPI PUSH1 0x4 CALLDATALOAD SWAP1 PUSH1 0x2 SLOAD DUP3 LT ISZERO PUSH2 0x25C JUMPI PUSH1 0x20 PUSH2 0xF9C DUP4 PUSH2 0x2A31 JUMP JUMPDEST SWAP1 SLOAD PUSH1 0x40 MLOAD PUSH1 0x3 SWAP3 SWAP1 SWAP3 SHL SHR PUSH1 0x1 PUSH1 0x1 PUSH1 0xA0 SHL SUB AND DUP2 MSTORE RETURN JUMPDEST POP CALLVALUE PUSH2 0x25C JUMPI PUSH1 0x20 DUP1 PUSH1 0x3 NOT CALLDATASIZE ADD SLT PUSH2 0x11B1 JUMPI PUSH1 0x1 PUSH1 0x1 PUSH1 0x40 SHL SUB SWAP1 PUSH1 0x4 CALLDATALOAD DUP3 DUP2 GT PUSH2 0x11AD JUMPI CALLDATASIZE PUSH1 0x23 DUP3 ADD SLT ISZERO PUSH2 0x11AD JUMPI DUP1 PUSH1 0x4 ADD CALLDATALOAD PUSH2 0xFF4 DUP2 PUSH2 0x2A1A JUMP JUMPDEST SWAP1 PUSH2 0x1002 PUSH1 0x40 MLOAD SWAP3 DUP4 PUSH2 0x28DD JUMP JUMPDEST DUP1 DUP3 MSTORE DUP4 DUP3 ADD SWAP3 DUP4 PUSH1 0x24 DUP1 SWAP4 PUSH1 0x5 SHL DUP4 ADD ADD SWAP2 CALLDATASIZE DUP4 GT PUSH2 0x11A9 JUMPI DUP4 DUP8 SWAP2 ADD SWAP2 JUMPDEST DUP4 DUP4 LT PUSH2 0x1191 JUMPI POP POP POP POP PUSH2 0x1035 PUSH2 0x3EFF JUMP JUMPDEST DUP2 MLOAD ISZERO PUSH2 0x114E JUMPI PUSH1 0x2 SLOAD SWAP2 DUP3 PUSH2 0x110A JUMPI MLOAD SWAP5 DUP6 GT PUSH2 0x10F8 JUMPI PUSH9 0x10000000000000000 DUP6 GT PUSH2 0x10F8 JUMPI POP DUP4 PUSH1 0x2 SSTORE DUP1 DUP5 LT PUSH2 0x10B8 JUMPI JUMPDEST POP SWAP1 PUSH1 0x2 DUP5 MSTORE DUP4 JUMPDEST DUP4 DUP2 LT PUSH2 0x107D JUMPI DUP5 DUP1 RETURN JUMPDEST DUP3 MLOAD PUSH1 0x1 PUSH1 0x1 PUSH1 0xA0 SHL SUB AND PUSH32 0x405787FA12A823E0F2B7631CC41B3BA8828B3321CA811111FA75CD3AA3BB5ACE DUP3 ADD SSTORE SWAP2 DUP2 ADD SWAP2 PUSH1 0x1 ADD PUSH2 0x1072 JUMP JUMPDEST DUP4 PUSH32 0x405787FA12A823E0F2B7631CC41B3BA8828B3321CA811111FA75CD3AA3BB5ACE SWAP2 DUP3 ADD SWAP2 ADD JUMPDEST DUP2 DUP2 LT PUSH2 0x10ED JUMPI POP PUSH2 0x106A JUMP JUMPDEST DUP6 DUP2 SSTORE PUSH1 0x1 ADD PUSH2 0x10E0 JUMP JUMPDEST PUSH4 0x4E487B71 PUSH1 0xE0 SHL DUP7 MSTORE PUSH1 0x41 PUSH1 0x4 MSTORE DUP6 REVERT JUMPDEST PUSH1 0x40 MLOAD PUSH3 0x461BCD PUSH1 0xE5 SHL DUP2 MSTORE PUSH1 0x4 DUP2 ADD DUP7 SWAP1 MSTORE PUSH1 0x1A DUP2 DUP5 ADD MSTORE PUSH32 0x616C6C6F7765644E6F646573206D75737420626520656D707479000000000000 PUSH1 0x44 DUP3 ADD MSTORE PUSH1 0x64 SWAP1 REVERT JUMPDEST DUP4 PUSH1 0x17 PUSH1 0x64 SWAP3 PUSH1 0x40 MLOAD SWAP3 PUSH3 0x461BCD PUSH1 0xE5 SHL DUP5 MSTORE PUSH1 0x4 DUP5 ADD MSTORE DUP3 ADD MSTORE PUSH32 0x596F752073656E7420616E20656D707479206172726179000000000000000000 PUSH1 0x44 DUP3 ADD MSTORE REVERT JUMPDEST DUP2 SWAP1 PUSH2 0x119C DUP5 PUSH2 0x2803 JUMP JUMPDEST DUP2 MSTORE ADD SWAP2 ADD SWAP1 DUP7 SWAP1 PUSH2 0x1022 JUMP JUMPDEST DUP9 DUP1 REVERT JUMPDEST DUP4 DUP1 REVERT JUMPDEST POP DUP1 REVERT JUMPDEST POP CALLVALUE PUSH2 0x25C JUMPI PUSH1 0x20 SWAP1 DUP2 PUSH1 0x3 NOT CALLDATASIZE ADD SLT PUSH2 0x25C JUMPI PUSH1 0x40 MLOAD PUSH4 0x70A08231 PUSH1 0xE0 SHL DUP2 MSTORE ADDRESS PUSH1 0x4 DUP3 DUP2 ADD SWAP2 SWAP1 SWAP2 MSTORE CALLDATALOAD DUP4 DUP3 PUSH1 0x24 DUP2 PUSH32 0x0 PUSH1 0x1 PUSH1 0x1 PUSH1 0xA0 SHL SUB AND GAS STATICCALL SWAP2 DUP3 ISZERO PUSH2 0xE35 JUMPI DUP4 SWAP3 PUSH2 0x1270 JUMPI JUMPDEST POP PUSH8 0xDE0B6B3A7640000 SWAP3 DUP4 DUP3 MUL SWAP2 DUP1 DUP4 DIV DUP6 EQ SWAP1 ISZERO OR ISZERO PUSH2 0x125C JUMPI POP PUSH2 0x1253 SWAP2 PUSH2 0x124A SWAP2 PUSH2 0x2A7E JUMP JUMPDEST PUSH1 0x5 SLOAD SWAP1 PUSH2 0x2AA7 JUMP JUMPDEST DIV PUSH1 0x40 MLOAD SWAP1 DUP2 MSTORE RETURN JUMPDEST PUSH4 0x4E487B71 PUSH1 0xE0 SHL DUP2 MSTORE PUSH1 0x11 PUSH1 0x4 MSTORE PUSH1 0x24 SWAP1 REVERT JUMPDEST SWAP1 SWAP2 POP DUP4 DUP2 DUP2 RETURNDATASIZE DUP4 GT PUSH2 0x1298 JUMPI JUMPDEST PUSH2 0x1288 DUP2 DUP4 PUSH2 0x28DD JUMP JUMPDEST DUP2 ADD SUB SLT PUSH2 0xA60 JUMPI MLOAD SWAP1 CODESIZE PUSH2 0x1220 JUMP JUMPDEST POP RETURNDATASIZE PUSH2 0x127E JUMP JUMPDEST POP CALLVALUE PUSH2 0x25C JUMPI DUP1 PUSH1 0x3 NOT CALLDATASIZE ADD SLT PUSH2 0x25C JUMPI PUSH1 0x40 MLOAD PUSH32 0x0 PUSH1 0x1 PUSH1 0x1 PUSH1 0xA0 SHL SUB AND DUP2 MSTORE PUSH1 0x20 SWAP1 RETURN JUMPDEST POP CALLVALUE PUSH2 0x25C JUMPI DUP1 PUSH1 0x3 NOT CALLDATASIZE ADD SLT PUSH2 0x25C JUMPI PUSH1 0x7 SLOAD PUSH1 0x40 MLOAD PUSH1 0x48 SWAP2 SWAP1 SWAP2 SHR PUSH1 0x1 PUSH1 0x1 PUSH1 0xA0 SHL SUB AND DUP2 MSTORE PUSH1 0x20 SWAP1 RETURN JUMPDEST POP CALLVALUE PUSH2 0x25C JUMPI DUP1 PUSH1 0x3 NOT CALLDATASIZE ADD SLT PUSH2 0x25C JUMPI PUSH1 0x20 PUSH1 0x1 PUSH1 0x1 PUSH1 0x40 SHL SUB PUSH1 0x7 SLOAD PUSH1 0x8 SHR AND PUSH1 0x40 MLOAD SWAP1 DUP2 MSTORE RETURN JUMPDEST POP CALLVALUE PUSH2 0x25C JUMPI DUP1 PUSH1 0x3 NOT CALLDATASIZE ADD SLT PUSH2 0x25C JUMPI SLOAD PUSH1 0x40 MLOAD PUSH1 0x1 PUSH1 0x1 PUSH1 0xA0 SHL SUB SWAP1 SWAP2 AND DUP2 MSTORE PUSH1 0x20 SWAP1 RETURN JUMPDEST POP CALLVALUE PUSH2 0x25C JUMPI DUP1 PUSH1 0x3 NOT CALLDATASIZE ADD SLT PUSH2 0x25C JUMPI PUSH1 0x20 PUSH1 0x40 MLOAD PUSH1 0x1 PUSH1 0x1 PUSH1 0x40 SHL SUB PUSH32 0x0 AND DUP2 MSTORE RETURN JUMPDEST POP CALLVALUE PUSH2 0x25C JUMPI PUSH1 0x3 NOT PUSH1 0x20 CALLDATASIZE DUP3 ADD SLT PUSH2 0x11B1 JUMPI PUSH1 0x4 CALLDATALOAD SWAP1 PUSH1 0x1 PUSH1 0x1 PUSH1 0x40 SHL SUB SWAP1 DUP2 DUP4 GT PUSH2 0x11AD JUMPI PUSH1 0xA0 SWAP1 DUP4 CALLDATASIZE SUB ADD SLT PUSH2 0x1FDA JUMPI PUSH32 0x0 PUSH1 0x1 PUSH1 0x1 PUSH1 0xA0 SHL SUB AND CALLER SUB PUSH2 0x230F JUMPI PUSH1 0x40 MLOAD PUSH2 0x1415 DUP2 PUSH2 0x285E JUMP JUMPDEST DUP3 PUSH1 0x4 ADD CALLDATALOAD DUP2 MSTORE PUSH1 0x24 DUP4 ADD CALLDATALOAD DUP3 DUP2 AND DUP2 SUB PUSH2 0x448 JUMPI PUSH1 0x20 DUP3 ADD MSTORE PUSH1 0x44 DUP4 ADD CALLDATALOAD DUP3 DUP2 GT PUSH2 0x448 JUMPI PUSH2 0x144B SWAP1 PUSH1 0x4 CALLDATASIZE SWAP2 DUP7 ADD ADD PUSH2 0x28FE JUMP JUMPDEST SWAP1 PUSH1 0x40 DUP2 ADD SWAP2 DUP3 MSTORE PUSH1 0x64 DUP5 ADD CALLDATALOAD DUP4 DUP2 GT PUSH2 0x2131 JUMPI PUSH2 0x146F SWAP1 PUSH1 0x4 CALLDATASIZE SWAP2 DUP8 ADD ADD PUSH2 0x28FE JUMP JUMPDEST SWAP4 PUSH1 0x60 DUP3 ADD SWAP5 DUP6 MSTORE PUSH1 0x84 DUP2 ADD CALLDATALOAD SWAP1 DUP5 DUP3 GT PUSH2 0x9C8 JUMPI ADD SWAP1 CALLDATASIZE PUSH1 0x23 DUP4 ADD SLT ISZERO PUSH2 0x2131 JUMPI PUSH1 0x4 DUP3 ADD CALLDATALOAD PUSH2 0x149F DUP2 PUSH2 0x2A1A JUMP JUMPDEST SWAP3 PUSH2 0x14AD PUSH1 0x40 MLOAD SWAP5 DUP6 PUSH2 0x28DD JUMP JUMPDEST DUP2 DUP5 MSTORE PUSH1 0x24 PUSH1 0x20 DUP6 ADD SWAP3 PUSH1 0x6 SHL DUP3 ADD ADD SWAP1 CALLDATASIZE DUP3 GT PUSH2 0x11A9 JUMPI PUSH1 0x24 ADD SWAP2 JUMPDEST DUP2 DUP4 LT PUSH2 0x22D7 JUMPI POP POP POP PUSH1 0x80 ADD MSTORE MLOAD PUSH1 0x20 DUP2 DUP1 MLOAD DUP2 ADD SUB SLT PUSH2 0x11AD JUMPI PUSH2 0x150E SWAP1 PUSH2 0x1509 SWAP1 PUSH1 0x1 PUSH1 0x1 PUSH1 0xA0 SHL SUB SWAP1 PUSH2 0x1503 SWAP1 PUSH1 0x20 ADD PUSH2 0x3CD2 JUMP JUMPDEST AND PUSH2 0x3ABB JUMP JUMPDEST PUSH2 0x2AF9 JUMP JUMPDEST DUP2 MLOAD PUSH1 0x20 DUP2 DUP1 MLOAD DUP2 ADD SUB SLT PUSH2 0x11AD JUMPI PUSH2 0x152B PUSH1 0x20 PUSH1 0xFF SWAP3 ADD PUSH2 0x3CE6 JUMP JUMPDEST AND SWAP1 PUSH1 0xFF NOT DUP3 DUP2 PUSH1 0x7 SLOAD AND OR PUSH1 0x7 SSTORE DUP3 ISZERO PUSH1 0x0 EQ PUSH2 0x1799 JUMPI POP POP POP MLOAD PUSH1 0x60 DUP2 DUP1 MLOAD DUP2 ADD SUB SLT PUSH2 0x11B1 JUMPI PUSH2 0x1560 PUSH1 0x20 DUP3 ADD PUSH2 0x3CE6 JUMP JUMPDEST POP PUSH1 0x60 PUSH2 0x156F PUSH1 0x40 DUP4 ADD PUSH2 0x3CD2 JUMP JUMPDEST SWAP2 ADD MLOAD SWAP1 PUSH1 0x1 PUSH1 0x1 PUSH1 0xA0 SHL SUB AND PUSH2 0x15A5 PUSH32 0x0 PUSH2 0x3D2B JUMP JUMPDEST PUSH1 0x40 MLOAD PUSH4 0x70A08231 PUSH1 0xE0 SHL DUP2 MSTORE ADDRESS PUSH1 0x4 DUP3 ADD MSTORE PUSH32 0x0 PUSH1 0x1 PUSH1 0x1 PUSH1 0xA0 SHL SUB AND SWAP2 SWAP1 PUSH1 0x20 DUP2 PUSH1 0x24 DUP2 DUP7 GAS STATICCALL SWAP1 DUP2 ISZERO PUSH2 0xA6C JUMPI DUP7 SWAP2 PUSH2 0x1767 JUMPI JUMPDEST POP PUSH8 0xDE0B6B3A7640000 SWAP1 DUP2 DUP7 MUL DUP7 DUP2 DIV DUP4 EQ DUP8 ISZERO OR ISZERO PUSH2 0x1753 JUMPI SWAP1 PUSH2 0x1620 SWAP2 PUSH2 0x2A7E JUMP JUMPDEST PUSH2 0x1631 DUP7 PUSH2 0xD19 PUSH1 0x5 SLOAD DUP1 SWAP5 PUSH2 0x2AA7 JUMP JUMPDEST PUSH1 0x5 SSTORE PUSH1 0x1 SLOAD PUSH1 0xA0 SHR PUSH1 0xFF AND PUSH2 0x165B JUMPI POP POP POP POP DUP3 MSTORE PUSH1 0x6 PUSH1 0x20 MSTORE PUSH2 0xD4B PUSH1 0x40 DUP4 KECCAK256 SWAP2 DUP3 SLOAD PUSH2 0x2AEC JUMP JUMPDEST PUSH1 0x40 MLOAD PUSH4 0x95EA7B3 PUSH1 0xE0 SHL DUP2 MSTORE PUSH1 0x1 PUSH1 0x1 PUSH1 0xA0 SHL SUB DUP5 AND PUSH1 0x4 DUP3 ADD MSTORE SWAP2 SWAP1 DIV PUSH1 0x24 DUP3 ADD DUP2 SWAP1 MSTORE SWAP1 SWAP5 POP SWAP3 SWAP2 PUSH1 0x20 SWAP1 DUP6 SWAP1 PUSH1 0x44 SWAP1 DUP3 SWAP1 DUP10 SWAP1 GAS CALL SWAP3 DUP4 ISZERO PUSH2 0x9BD JUMPI PUSH2 0x1706 SWAP5 PUSH1 0x20 SWAP5 PUSH2 0x1736 JUMPI JUMPDEST POP PUSH1 0x40 MLOAD PUSH4 0x1A4CA37B PUSH1 0xE2 SHL DUP2 MSTORE PUSH1 0x1 PUSH1 0x1 PUSH1 0xA0 SHL SUB PUSH32 0x0 DUP2 AND PUSH1 0x4 DUP4 ADD MSTORE PUSH1 0x24 DUP3 ADD SWAP3 SWAP1 SWAP3 MSTORE SWAP3 AND PUSH1 0x44 DUP4 ADD MSTORE SWAP1 SWAP3 DUP4 SWAP2 SWAP1 DUP3 SWAP1 DUP7 SWAP1 DUP3 SWAP1 PUSH1 0x64 DUP3 ADD SWAP1 JUMP JUMPDEST SUB SWAP3 PUSH1 0x1 PUSH1 0x1 PUSH1 0xA0 SHL SUB AND GAS CALL DUP1 ISZERO PUSH2 0x43D JUMPI PUSH2 0x1721 JUMPI POP DUP1 RETURN JUMPDEST PUSH1 0x20 SWAP1 DUP2 RETURNDATASIZE DUP4 GT PUSH2 0xE2E JUMPI PUSH2 0xE23 DUP2 DUP4 PUSH2 0x28DD JUMP JUMPDEST PUSH2 0x174C SWAP1 DUP6 RETURNDATASIZE DUP8 GT PUSH2 0x9F3 JUMPI PUSH2 0x9E3 DUP2 DUP4 PUSH2 0x28DD JUMP JUMPDEST POP CODESIZE PUSH2 0x16A7 JUMP JUMPDEST PUSH4 0x4E487B71 PUSH1 0xE0 SHL DUP9 MSTORE PUSH1 0x11 PUSH1 0x4 MSTORE PUSH1 0x24 DUP9 REVERT JUMPDEST SWAP1 POP PUSH1 0x20 DUP2 RETURNDATASIZE PUSH1 0x20 GT PUSH2 0x1791 JUMPI JUMPDEST DUP2 PUSH2 0x1782 PUSH1 0x20 SWAP4 DUP4 PUSH2 0x28DD JUMP JUMPDEST DUP2 ADD SUB SLT PUSH2 0xA60 JUMPI MLOAD CODESIZE PUSH2 0x15FB JUMP JUMPDEST RETURNDATASIZE SWAP2 POP PUSH2 0x1775 JUMP JUMPDEST SWAP1 SWAP2 SWAP3 PUSH1 0x1 SWAP4 DUP5 DUP2 EQ PUSH1 0x0 EQ PUSH2 0x1890 JUMPI POP SWAP1 POP MLOAD SWAP2 PUSH1 0x60 DUP4 DUP1 MLOAD DUP2 ADD SUB SLT PUSH2 0x11AD JUMPI PUSH2 0x17C7 PUSH1 0x20 DUP5 ADD PUSH2 0x3CE6 JUMP JUMPDEST POP PUSH1 0x40 DUP4 ADD MLOAD SWAP2 DUP3 AND DUP3 SUB PUSH2 0x11AD JUMPI PUSH2 0x47E SWAP3 PUSH1 0x1 PUSH1 0x1 PUSH1 0xA0 SHL SUB SWAP1 PUSH2 0x17EF SWAP1 PUSH1 0x60 ADD PUSH2 0x3CD2 JUMP JUMPDEST AND SWAP1 PUSH32 0x0 SWAP2 PUSH2 0x185E DUP4 PUSH32 0x0 PUSH32 0x0 PUSH2 0x3D84 JUMP JUMPDEST SWAP4 PUSH1 0x5 SLOAD SWAP3 PUSH1 0x40 MLOAD SWAP4 PUSH1 0x2 PUSH1 0x20 DUP7 ADD MSTORE PUSH1 0x40 DUP6 ADD MSTORE PUSH1 0x40 DUP5 MSTORE PUSH2 0x1880 DUP5 PUSH2 0x28C2 JUMP JUMPDEST DUP1 SLOAD PUSH1 0xFF PUSH1 0xA0 SHL NOT AND SWAP1 SSTORE PUSH2 0x2B45 JUMP JUMPDEST PUSH1 0x2 SUB PUSH2 0x22A0 JUMPI MLOAD PUSH1 0x40 DUP2 DUP1 MLOAD DUP2 ADD SUB SLT PUSH2 0x448 JUMPI PUSH1 0x40 DUP2 PUSH2 0x18B5 PUSH1 0x20 DUP8 SWAP5 ADD PUSH2 0x3CE6 JUMP JUMPDEST POP ADD MLOAD SWAP2 PUSH1 0x9 SLOAD AND OR PUSH1 0x9 SSTORE PUSH1 0x5 SSTORE PUSH1 0x1 PUSH1 0xA0 SHL PUSH1 0xFF PUSH1 0xA0 SHL NOT DUP4 SLOAD AND OR DUP3 SSTORE PUSH1 0x40 MLOAD SWAP2 PUSH1 0x20 DUP4 ADD MSTORE PUSH1 0x20 DUP3 MSTORE PUSH2 0x18EB DUP3 PUSH2 0x2879 JUMP JUMPDEST DUP1 PUSH32 0x0 AND SWAP1 PUSH32 0x0 AND EQ PUSH1 0x0 EQ PUSH2 0x19A0 JUMPI POP DUP1 PUSH32 0x0 PUSH1 0x1 PUSH1 0x1 PUSH1 0xA0 SHL SUB AND DUP1 EXTCODESIZE ISZERO PUSH2 0x199D JUMPI DUP2 SWAP1 PUSH1 0x4 PUSH1 0x40 MLOAD DUP1 SWAP5 DUP2 SWAP4 PUSH4 0x4CAB8A57 PUSH1 0xE1 SHL DUP4 MSTORE GAS CALL DUP1 ISZERO PUSH2 0x43D JUMPI PUSH2 0x1991 JUMPI POP DUP1 RETURN JUMPDEST PUSH2 0x199A SWAP1 PUSH2 0x2894 JUMP JUMPDEST DUP1 RETURN JUMPDEST POP REVERT JUMPDEST PUSH32 0x0 DUP3 SWAP2 PUSH2 0x19CF PUSH2 0x1509 DUP4 PUSH2 0x3ABB JUMP JUMPDEST PUSH1 0x60 PUSH1 0x80 PUSH1 0x40 MLOAD PUSH2 0x19DF DUP2 PUSH2 0x285E JUMP JUMPDEST DUP3 DUP2 MSTORE DUP3 PUSH1 0x20 DUP3 ADD MSTORE DUP3 PUSH1 0x40 DUP3 ADD MSTORE DUP7 DUP4 DUP3 ADD MSTORE ADD MSTORE PUSH1 0x40 MLOAD PUSH2 0x1A01 DUP2 PUSH2 0x282D JUMP JUMPDEST DUP5 DUP2 MSTORE PUSH1 0x40 MLOAD SWAP3 PUSH1 0x1 DUP1 PUSH1 0xA0 SHL SUB AND PUSH1 0x20 DUP5 ADD MSTORE PUSH1 0x20 DUP4 MSTORE PUSH2 0x1A22 DUP4 PUSH2 0x2879 JUMP JUMPDEST PUSH2 0x1A3C PUSH1 0x40 MLOAD PUSH2 0x1A31 DUP2 PUSH2 0x282D JUMP JUMPDEST PUSH3 0x1E8480 DUP2 MSTORE PUSH2 0x3CF4 JUMP JUMPDEST SWAP2 PUSH1 0x40 MLOAD SWAP4 PUSH2 0x1A4A DUP6 PUSH2 0x285E JUMP JUMPDEST DUP5 MSTORE PUSH1 0x20 DUP5 ADD MSTORE PUSH1 0x40 DUP4 ADD MSTORE DUP4 PUSH1 0x60 DUP4 ADD MSTORE PUSH1 0x80 DUP3 ADD MSTORE PUSH1 0x40 MLOAD PUSH4 0xB0F479A1 PUSH1 0xE0 SHL DUP2 MSTORE PUSH1 0x20 DUP2 PUSH1 0x4 DUP2 ADDRESS GAS STATICCALL SWAP1 DUP2 ISZERO PUSH2 0x4C2 JUMPI DUP5 SWAP2 PUSH2 0x2271 JUMPI JUMPDEST POP PUSH1 0x40 MLOAD PUSH4 0x20487DED PUSH1 0xE0 SHL DUP2 MSTORE SWAP2 PUSH1 0x20 DUP4 DUP1 PUSH2 0x1AC6 DUP5 PUSH32 0x0 PUSH1 0x4 DUP5 ADD PUSH2 0x39EF JUMP JUMPDEST SUB DUP2 PUSH1 0x1 PUSH1 0x1 PUSH1 0xA0 SHL SUB DUP7 AND GAS STATICCALL SWAP3 DUP4 ISZERO PUSH2 0x9BD JUMPI DUP6 SWAP4 PUSH2 0x223D JUMPI JUMPDEST POP PUSH1 0x40 MLOAD PUSH4 0x70A08231 PUSH1 0xE0 SHL DUP2 MSTORE ADDRESS PUSH1 0x4 DUP3 ADD MSTORE PUSH32 0x0 SWAP1 PUSH1 0x20 DUP2 PUSH1 0x24 DUP2 PUSH1 0x1 PUSH1 0x1 PUSH1 0xA0 SHL SUB DUP7 AND GAS STATICCALL SWAP1 DUP2 ISZERO PUSH2 0x2126 JUMPI DUP8 SWAP2 PUSH2 0x220B JUMPI JUMPDEST POP PUSH2 0x21B8 JUMPI JUMPDEST POP PUSH1 0x40 MLOAD PUSH4 0x70A08231 PUSH1 0xE0 SHL DUP2 MSTORE ADDRESS PUSH1 0x4 DUP3 ADD MSTORE DUP6 SWAP1 PUSH1 0x20 DUP2 PUSH1 0x24 DUP2 PUSH32 0x0 PUSH1 0x1 PUSH1 0x1 PUSH1 0xA0 SHL SUB AND GAS STATICCALL DUP1 ISZERO PUSH2 0x43D JUMPI DUP3 SWAP1 PUSH2 0x2184 JUMPI JUMPDEST PUSH1 0x4 DUP1 SLOAD PUSH1 0x40 MLOAD PUSH4 0x95EA7B3 PUSH1 0xE0 SHL DUP2 MSTORE PUSH1 0x1 PUSH1 0x1 PUSH1 0xA0 SHL SUB SWAP1 SWAP2 AND SWAP2 DUP2 ADD SWAP2 SWAP1 SWAP2 MSTORE PUSH1 0x24 DUP2 ADD DUP3 SWAP1 MSTORE SWAP2 POP PUSH1 0x20 DUP3 DUP1 PUSH1 0x44 DUP2 ADD JUMPDEST SUB DUP2 DUP7 PUSH32 0x0 PUSH1 0x1 PUSH1 0x1 PUSH1 0xA0 SHL SUB AND GAS CALL SWAP2 DUP3 ISZERO PUSH2 0xE35 JUMPI PUSH1 0x20 SWAP3 PUSH2 0x2167 JUMPI JUMPDEST POP PUSH1 0x40 MLOAD SWAP1 PUSH2 0x1C14 DUP3 PUSH2 0x28A7 JUMP JUMPDEST PUSH1 0x1 PUSH1 0x1 PUSH1 0xA0 SHL SUB PUSH32 0x0 DUP2 AND DUP4 MSTORE PUSH32 0x0 DUP2 AND DUP5 DUP5 ADD SWAP1 DUP2 MSTORE PUSH2 0xFFFF PUSH32 0x0 AND PUSH1 0x40 DUP1 DUP7 ADD SWAP2 DUP3 MSTORE ADDRESS PUSH1 0x60 DUP8 ADD SWAP1 DUP2 MSTORE PUSH1 0x80 DUP8 ADD DUP13 DUP2 MSTORE PUSH1 0xA0 DUP9 ADD SWAP7 DUP8 MSTORE PUSH1 0xC0 DUP9 ADD DUP11 DUP2 MSTORE PUSH1 0x4 DUP1 SLOAD SWAP5 MLOAD PUSH4 0x5023B4DF PUSH1 0xE0 SHL DUP2 MSTORE SWAP10 MLOAD DUP9 AND SWAP1 DUP11 ADD MSTORE SWAP5 MLOAD DUP7 AND PUSH1 0x24 DUP10 ADD MSTORE SWAP3 MLOAD PUSH3 0xFFFFFF AND PUSH1 0x44 DUP9 ADD MSTORE MLOAD DUP5 AND PUSH1 0x64 DUP8 ADD MSTORE SWAP1 MLOAD PUSH1 0x84 DUP7 ADD MSTORE SWAP3 MLOAD PUSH1 0xA4 DUP6 ADD MSTORE MLOAD DUP2 AND PUSH1 0xC4 DUP5 ADD MSTORE SWAP2 SWAP4 DUP5 SWAP3 PUSH1 0xE4 SWAP3 DUP5 SWAP3 SWAP2 AND GAS CALL SWAP1 DUP2 ISZERO PUSH2 0xA6C JUMPI DUP7 SWAP2 PUSH2 0x2135 JUMPI JUMPDEST POP PUSH32 0x0 PUSH1 0x1 PUSH1 0x1 PUSH1 0xA0 SHL SUB AND EXTCODESIZE ISZERO PUSH2 0x2131 JUMPI PUSH1 0x40 MLOAD PUSH4 0x2E1A7D4D PUSH1 0xE0 SHL DUP2 MSTORE PUSH1 0x4 DUP2 ADD DUP6 SWAP1 MSTORE DUP7 DUP2 PUSH1 0x24 DUP2 DUP4 PUSH32 0x0 PUSH1 0x1 PUSH1 0x1 PUSH1 0xA0 SHL SUB AND GAS CALL DUP1 ISZERO PUSH2 0x2126 JUMPI PUSH2 0x2113 JUMPI JUMPDEST POP PUSH1 0x8 SSTORE SELFBALANCE DUP4 GT PUSH2 0x20F4 JUMPI DUP4 PUSH2 0x208C JUMPI JUMPDEST PUSH1 0x20 SWAP2 PUSH2 0x1DF1 SWAP2 PUSH1 0x40 MLOAD SWAP5 DUP6 DUP1 SWAP5 DUP2 SWAP4 PUSH4 0x96F4E9F9 PUSH1 0xE0 SHL DUP4 MSTORE PUSH32 0x0 PUSH1 0x4 DUP5 ADD PUSH2 0x39EF JUMP JUMPDEST SUB SWAP3 PUSH1 0x1 PUSH1 0x1 PUSH1 0xA0 SHL SUB AND GAS CALL DUP1 ISZERO PUSH2 0x43D JUMPI PUSH2 0x2061 JUMPI JUMPDEST POP PUSH1 0x40 MLOAD PUSH4 0x70A08231 PUSH1 0xE0 SHL DUP2 MSTORE ADDRESS PUSH1 0x4 DUP3 ADD MSTORE PUSH1 0x20 DUP2 PUSH1 0x24 DUP2 PUSH32 0x0 PUSH1 0x1 PUSH1 0x1 PUSH1 0xA0 SHL SUB AND GAS STATICCALL SWAP1 DUP2 ISZERO PUSH2 0x43D JUMPI DUP3 SWAP2 PUSH2 0x202F JUMPI JUMPDEST POP PUSH2 0x1E66 JUMPI POP DUP1 RETURN JUMPDEST PUSH1 0x40 MLOAD PUSH4 0x70A08231 PUSH1 0xE0 SHL DUP2 MSTORE ADDRESS PUSH1 0x4 DUP3 ADD MSTORE PUSH1 0x20 DUP2 PUSH1 0x24 DUP2 PUSH32 0x0 PUSH1 0x1 PUSH1 0x1 PUSH1 0xA0 SHL SUB AND GAS STATICCALL SWAP1 DUP2 ISZERO PUSH2 0x43D JUMPI DUP3 SWAP2 PUSH2 0x1FFD JUMPI JUMPDEST POP PUSH2 0x1EE3 PUSH32 0x0 PUSH2 0x3D2B JUMP JUMPDEST PUSH1 0x40 MLOAD PUSH4 0x95EA7B3 PUSH1 0xE0 SHL DUP2 MSTORE PUSH1 0x1 PUSH1 0x1 PUSH1 0xA0 SHL SUB DUP3 AND PUSH1 0x4 DUP3 ADD MSTORE PUSH1 0x24 DUP2 ADD DUP4 SWAP1 MSTORE PUSH1 0x20 DUP2 DUP1 PUSH1 0x44 DUP2 ADD SUB DUP2 DUP8 PUSH32 0x0 PUSH1 0x1 PUSH1 0x1 PUSH1 0xA0 SHL SUB AND GAS CALL DUP1 ISZERO PUSH2 0x4C2 JUMPI PUSH2 0x1FDE JUMPI JUMPDEST POP PUSH1 0x1 PUSH1 0x1 PUSH1 0xA0 SHL SUB AND SWAP1 DUP2 EXTCODESIZE ISZERO PUSH2 0x1FDA JUMPI PUSH1 0x40 MLOAD PUSH4 0xE8EDA9DF PUSH1 0xE0 SHL DUP2 MSTORE PUSH32 0x0 PUSH1 0x1 PUSH1 0x1 PUSH1 0xA0 SHL SUB AND PUSH1 0x4 DUP3 ADD MSTORE PUSH1 0x24 DUP2 ADD SWAP2 SWAP1 SWAP2 MSTORE ADDRESS PUSH1 0x44 DUP3 ADD MSTORE PUSH1 0x0 PUSH1 0x64 DUP3 ADD MSTORE SWAP1 DUP3 SWAP1 DUP3 SWAP1 PUSH1 0x84 SWAP1 DUP3 SWAP1 DUP5 SWAP1 GAS CALL DUP1 ISZERO PUSH2 0x43D JUMPI PUSH2 0x1FC8 JUMPI POP POP DUP1 RETURN JUMPDEST PUSH2 0x1FD2 DUP3 SWAP2 PUSH2 0x2894 JUMP JUMPDEST PUSH2 0x25C JUMPI POP DUP1 RETURN JUMPDEST DUP3 DUP1 REVERT JUMPDEST PUSH2 0x1FF6 SWAP1 PUSH1 0x20 RETURNDATASIZE PUSH1 0x20 GT PUSH2 0x9F3 JUMPI PUSH2 0x9E3 DUP2 DUP4 PUSH2 0x28DD JUMP JUMPDEST POP CODESIZE PUSH2 0x1F48 JUMP JUMPDEST SWAP1 POP PUSH1 0x20 DUP2 RETURNDATASIZE PUSH1 0x20 GT PUSH2 0x2027 JUMPI JUMPDEST DUP2 PUSH2 0x2018 PUSH1 0x20 SWAP4 DUP4 PUSH2 0x28DD JUMP JUMPDEST DUP2 ADD SUB SLT PUSH2 0x1FDA JUMPI MLOAD CODESIZE PUSH2 0x1EB9 JUMP JUMPDEST RETURNDATASIZE SWAP2 POP PUSH2 0x200B JUMP JUMPDEST SWAP1 POP PUSH1 0x20 DUP2 RETURNDATASIZE PUSH1 0x20 GT PUSH2 0x2059 JUMPI JUMPDEST DUP2 PUSH2 0x204A PUSH1 0x20 SWAP4 DUP4 PUSH2 0x28DD JUMP JUMPDEST DUP2 ADD SUB SLT PUSH2 0x1FDA JUMPI MLOAD CODESIZE PUSH2 0x1E5D JUMP JUMPDEST RETURNDATASIZE SWAP2 POP PUSH2 0x203D JUMP JUMPDEST PUSH1 0x20 SWAP1 DUP2 RETURNDATASIZE DUP4 GT PUSH2 0x2085 JUMPI JUMPDEST PUSH2 0x2077 DUP2 DUP4 PUSH2 0x28DD JUMP JUMPDEST DUP2 ADD SUB SLT PUSH2 0x11B1 JUMPI CODESIZE PUSH2 0x1E09 JUMP JUMPDEST POP RETURNDATASIZE PUSH2 0x206D JUMP JUMPDEST PUSH1 0x40 MLOAD PUSH4 0x95EA7B3 PUSH1 0xE0 SHL DUP2 MSTORE PUSH1 0x1 PUSH1 0x1 PUSH1 0xA0 SHL SUB DUP4 AND PUSH1 0x4 DUP3 ADD MSTORE PUSH1 0x24 DUP2 ADD DUP7 SWAP1 MSTORE PUSH1 0x20 DUP2 PUSH1 0x44 DUP2 DUP9 DUP1 GAS CALL DUP1 ISZERO PUSH2 0x9BD JUMPI SWAP2 PUSH1 0x20 SWAP4 SWAP2 PUSH2 0x1DF1 SWAP4 PUSH2 0x20D7 JUMPI JUMPDEST POP SWAP2 POP SWAP2 POP PUSH2 0x1DAD JUMP JUMPDEST PUSH2 0x20ED SWAP1 DUP6 RETURNDATASIZE DUP8 GT PUSH2 0x9F3 JUMPI PUSH2 0x9E3 DUP2 DUP4 PUSH2 0x28DD JUMP JUMPDEST POP CODESIZE PUSH2 0x20CD JUMP JUMPDEST PUSH1 0x40 MLOAD PUSH4 0x4787A103 PUSH1 0xE1 SHL DUP2 MSTORE SELFBALANCE PUSH1 0x4 DUP3 ADD MSTORE PUSH1 0x24 DUP2 ADD DUP5 SWAP1 MSTORE PUSH1 0x44 SWAP1 REVERT JUMPDEST PUSH2 0x211E SWAP2 SWAP6 POP PUSH2 0x2894 JUMP JUMPDEST DUP5 SWAP4 CODESIZE PUSH2 0x1D9C JUMP JUMPDEST PUSH1 0x40 MLOAD RETURNDATASIZE DUP10 DUP3 RETURNDATACOPY RETURNDATASIZE SWAP1 REVERT JUMPDEST DUP6 DUP1 REVERT JUMPDEST SWAP1 POP PUSH1 0x20 DUP2 RETURNDATASIZE PUSH1 0x20 GT PUSH2 0x215F JUMPI JUMPDEST DUP2 PUSH2 0x2150 PUSH1 0x20 SWAP4 DUP4 PUSH2 0x28DD JUMP JUMPDEST DUP2 ADD SUB SLT PUSH2 0x2131 JUMPI MLOAD CODESIZE PUSH2 0x1D1A JUMP JUMPDEST RETURNDATASIZE SWAP2 POP PUSH2 0x2143 JUMP JUMPDEST PUSH2 0x217D SWAP1 DUP4 RETURNDATASIZE DUP6 GT PUSH2 0x9F3 JUMPI PUSH2 0x9E3 DUP2 DUP4 PUSH2 0x28DD JUMP JUMPDEST POP CODESIZE PUSH2 0x1C06 JUMP JUMPDEST POP PUSH1 0x20 DUP2 RETURNDATASIZE PUSH1 0x20 GT PUSH2 0x21B0 JUMPI JUMPDEST DUP2 PUSH2 0x219E PUSH1 0x20 SWAP4 DUP4 PUSH2 0x28DD JUMP JUMPDEST DUP2 ADD SUB SLT PUSH2 0x11B1 JUMPI PUSH2 0x1BC8 SWAP1 MLOAD PUSH2 0x1B93 JUMP JUMPDEST RETURNDATASIZE SWAP2 POP PUSH2 0x2191 JUMP JUMPDEST PUSH2 0x2204 SWAP1 PUSH32 0x0 SWAP1 PUSH32 0x0 PUSH2 0x3D84 JUMP JUMPDEST POP CODESIZE PUSH2 0x1B3E JUMP JUMPDEST SWAP1 POP PUSH1 0x20 DUP2 RETURNDATASIZE PUSH1 0x20 GT PUSH2 0x2235 JUMPI JUMPDEST DUP2 PUSH2 0x2226 PUSH1 0x20 SWAP4 DUP4 PUSH2 0x28DD JUMP JUMPDEST DUP2 ADD SUB SLT PUSH2 0x9C8 JUMPI MLOAD CODESIZE PUSH2 0x1B38 JUMP JUMPDEST RETURNDATASIZE SWAP2 POP PUSH2 0x2219 JUMP JUMPDEST SWAP1 SWAP3 POP PUSH1 0x20 DUP2 RETURNDATASIZE PUSH1 0x20 GT PUSH2 0x2269 JUMPI JUMPDEST DUP2 PUSH2 0x2259 PUSH1 0x20 SWAP4 DUP4 PUSH2 0x28DD JUMP JUMPDEST DUP2 ADD SUB SLT PUSH2 0x448 JUMPI MLOAD SWAP2 CODESIZE PUSH2 0x1AE2 JUMP JUMPDEST RETURNDATASIZE SWAP2 POP PUSH2 0x224C JUMP JUMPDEST PUSH2 0x2293 SWAP2 POP PUSH1 0x20 RETURNDATASIZE PUSH1 0x20 GT PUSH2 0x2299 JUMPI JUMPDEST PUSH2 0x228B DUP2 DUP4 PUSH2 0x28DD JUMP JUMPDEST DUP2 ADD SWAP1 PUSH2 0x3990 JUMP JUMPDEST CODESIZE PUSH2 0x1A85 JUMP JUMPDEST POP RETURNDATASIZE PUSH2 0x2281 JUMP JUMPDEST PUSH1 0x40 MLOAD PUSH3 0x461BCD PUSH1 0xE5 SHL DUP2 MSTORE PUSH1 0x20 PUSH1 0x4 DUP3 ADD MSTORE PUSH1 0xF PUSH1 0x24 DUP3 ADD MSTORE PUSH15 0x1A5B9D985B1A590818DBDB5B585B99 PUSH1 0x8A SHL PUSH1 0x44 DUP3 ADD MSTORE PUSH1 0x64 SWAP1 REVERT JUMPDEST PUSH1 0x40 DUP4 CALLDATASIZE SUB SLT PUSH2 0x11A9 JUMPI PUSH1 0x20 PUSH1 0x40 SWAP2 DUP3 MLOAD PUSH2 0x22F1 DUP2 PUSH2 0x2879 JUMP JUMPDEST PUSH2 0x22FA DUP7 PUSH2 0x2803 JUMP JUMPDEST DUP2 MSTORE DUP3 DUP7 ADD CALLDATALOAD DUP4 DUP3 ADD MSTORE DUP2 MSTORE ADD SWAP3 ADD SWAP2 PUSH2 0x14CA JUMP JUMPDEST PUSH1 0x40 MLOAD PUSH4 0x35FDCCCD PUSH1 0xE2 SHL DUP2 MSTORE CALLER PUSH1 0x4 DUP3 ADD MSTORE PUSH1 0x24 SWAP1 REVERT JUMPDEST POP CALLVALUE PUSH2 0x25C JUMPI DUP1 PUSH1 0x3 NOT CALLDATASIZE ADD SLT PUSH2 0x25C JUMPI PUSH1 0x1 SLOAD PUSH1 0x1 PUSH1 0x1 PUSH1 0xA0 SHL SUB DUP1 DUP3 AND CALLER SUB PUSH2 0x238D JUMPI DUP3 SLOAD PUSH1 0x1 PUSH1 0x1 PUSH1 0xA0 SHL SUB NOT DUP1 DUP3 AND CALLER SWAP1 DUP2 OR DUP7 SSTORE SWAP4 AND PUSH1 0x1 SSTORE AND PUSH32 0x8BE0079C531659141344CD1FD0A4F28419497F9722A3DAAFE3B4186F6B6457E0 DUP4 DUP1 LOG3 DUP1 RETURN JUMPDEST PUSH1 0x40 MLOAD PUSH3 0x461BCD PUSH1 0xE5 SHL DUP2 MSTORE PUSH1 0x20 PUSH1 0x4 DUP3 ADD MSTORE PUSH1 0x16 PUSH1 0x24 DUP3 ADD MSTORE PUSH22 0x26BAB9BA10313290383937B837B9B2B21037BBB732B9 PUSH1 0x51 SHL PUSH1 0x44 DUP3 ADD MSTORE PUSH1 0x64 SWAP1 REVERT JUMPDEST POP CALLVALUE PUSH2 0x25C JUMPI DUP1 PUSH1 0x3 NOT CALLDATASIZE ADD SLT PUSH2 0x25C JUMPI PUSH1 0x20 PUSH1 0x40 MLOAD PUSH1 0x1 PUSH1 0x1 PUSH1 0x40 SHL SUB PUSH32 0x0 AND DUP2 MSTORE RETURN JUMPDEST POP CALLVALUE PUSH2 0x25C JUMPI DUP1 PUSH1 0x3 NOT CALLDATASIZE ADD SLT PUSH2 0x25C JUMPI PUSH1 0x40 MLOAD PUSH32 0x0 PUSH1 0x1 PUSH1 0x1 PUSH1 0xA0 SHL SUB AND DUP2 MSTORE PUSH1 0x20 SWAP1 RETURN JUMPDEST POP CALLVALUE PUSH2 0x25C JUMPI PUSH1 0xA0 CALLDATASIZE PUSH1 0x3 NOT ADD SLT PUSH2 0x25C JUMPI PUSH2 0x246E PUSH2 0x2817 JUMP JUMPDEST SWAP1 PUSH2 0x2477 PUSH2 0x27ED JUMP JUMPDEST PUSH1 0x1 PUSH1 0x1 PUSH1 0xA0 SHL SUB SWAP2 SWAP1 PUSH1 0x44 CALLDATALOAD DUP4 DUP2 AND SWAP1 DUP2 SWAP1 SUB PUSH2 0x1FDA JUMPI PUSH1 0x64 CALLDATALOAD DUP5 DUP2 AND DUP1 SWAP2 SUB PUSH2 0x11AD JUMPI PUSH1 0x84 CALLDATALOAD SWAP6 PUSH1 0x1 PUSH1 0x1 PUSH1 0x40 SHL SUB DUP8 GT PUSH2 0x448 JUMPI PUSH2 0x24C1 PUSH2 0x2543 SWAP6 SWAP7 SWAP8 CALLDATASIZE SWAP1 PUSH1 0x4 ADD PUSH2 0x28FE JUMP JUMPDEST PUSH1 0x40 MLOAD SWAP4 PUSH1 0x20 SWAP9 DUP10 SWAP7 AND DUP7 DUP7 ADD MSTORE DUP6 DUP6 MSTORE PUSH2 0x24DB DUP6 PUSH2 0x2879 JUMP JUMPDEST PUSH1 0x40 MLOAD PUSH2 0x24E7 DUP2 PUSH2 0x282D JUMP JUMPDEST DUP9 DUP2 MSTORE PUSH2 0x2504 PUSH1 0x40 MLOAD PUSH2 0x24F9 DUP2 PUSH2 0x282D JUMP JUMPDEST PUSH3 0xF4240 DUP2 MSTORE PUSH2 0x3CF4 JUMP JUMPDEST SWAP3 PUSH1 0x40 MLOAD SWAP7 PUSH2 0x2512 DUP9 PUSH2 0x285E JUMP JUMPDEST DUP8 MSTORE DUP8 DUP8 ADD MSTORE PUSH1 0x40 DUP7 ADD MSTORE PUSH1 0x60 DUP6 ADD MSTORE PUSH1 0x80 DUP5 ADD MSTORE PUSH1 0x40 MLOAD DUP1 SWAP6 DUP2 SWAP5 DUP3 SWAP4 PUSH4 0x20487DED PUSH1 0xE0 SHL DUP5 MSTORE PUSH1 0x4 DUP5 ADD PUSH2 0x39EF JUMP JUMPDEST SUB SWAP2 GAS STATICCALL SWAP2 DUP3 ISZERO PUSH2 0x258F JUMPI DUP1 SWAP3 PUSH2 0x255F JUMPI JUMPDEST POP POP PUSH1 0x40 MLOAD SWAP1 DUP2 MSTORE RETURN JUMPDEST SWAP1 SWAP2 POP DUP3 DUP3 DUP2 RETURNDATASIZE DUP4 GT PUSH2 0x2588 JUMPI JUMPDEST PUSH2 0x2577 DUP2 DUP4 PUSH2 0x28DD JUMP JUMPDEST DUP2 ADD SUB SLT PUSH2 0x25C JUMPI POP MLOAD CODESIZE DUP1 PUSH2 0x2555 JUMP JUMPDEST POP RETURNDATASIZE PUSH2 0x256D JUMP JUMPDEST PUSH1 0x40 MLOAD SWAP1 RETURNDATASIZE SWAP1 DUP3 RETURNDATACOPY RETURNDATASIZE SWAP1 REVERT JUMPDEST POP CALLVALUE PUSH2 0x25C JUMPI DUP1 PUSH1 0x3 NOT CALLDATASIZE ADD SLT PUSH2 0x25C JUMPI PUSH1 0x20 PUSH1 0x5 SLOAD PUSH1 0x40 MLOAD SWAP1 DUP2 MSTORE RETURN JUMPDEST POP CALLVALUE PUSH2 0x25C JUMPI DUP1 PUSH1 0x3 NOT CALLDATASIZE ADD SLT PUSH2 0x25C JUMPI PUSH1 0x20 PUSH1 0x8 SLOAD PUSH1 0x40 MLOAD SWAP1 DUP2 MSTORE RETURN JUMPDEST POP CALLVALUE PUSH2 0x25C JUMPI DUP1 PUSH1 0x3 NOT CALLDATASIZE ADD SLT PUSH2 0x25C JUMPI PUSH1 0x40 MLOAD PUSH32 0x0 PUSH1 0x1 PUSH1 0x1 PUSH1 0xA0 SHL SUB AND DUP2 MSTORE PUSH1 0x20 SWAP1 RETURN JUMPDEST POP CALLVALUE PUSH2 0x25C JUMPI DUP1 PUSH1 0x3 NOT CALLDATASIZE ADD SLT PUSH2 0x25C JUMPI PUSH1 0x20 PUSH1 0xFF PUSH1 0x1 SLOAD PUSH1 0xA0 SHR AND PUSH1 0x40 MLOAD SWAP1 ISZERO ISZERO DUP2 MSTORE RETURN JUMPDEST POP CALLVALUE PUSH2 0x25C JUMPI PUSH1 0x40 CALLDATASIZE PUSH1 0x3 NOT ADD SLT PUSH2 0x25C JUMPI PUSH2 0x265C PUSH2 0x27D7 JUMP JUMPDEST PUSH2 0x2664 PUSH2 0x27ED JUMP JUMPDEST PUSH1 0x40 MLOAD PUSH4 0x35EA6A75 PUSH1 0xE0 SHL DUP2 MSTORE PUSH1 0x1 PUSH1 0x1 PUSH1 0xA0 SHL SUB SWAP2 DUP3 AND PUSH1 0x4 DUP3 ADD MSTORE PUSH2 0x180 SWAP3 SWAP1 SWAP2 DUP4 SWAP2 DUP4 SWAP2 PUSH1 0x24 SWAP2 DUP4 SWAP2 AND GAS STATICCALL SWAP2 DUP3 ISZERO PUSH2 0xE35 JUMPI PUSH1 0x20 SWAP4 SWAP3 PUSH2 0x26AC JUMPI POP POP PUSH1 0x40 MLOAD SWAP1 DUP2 MSTORE RETURN JUMPDEST PUSH2 0x26C2 SWAP3 POP DUP1 RETURNDATASIZE LT PUSH2 0x4BB JUMPI PUSH2 0x49E DUP2 DUP4 PUSH2 0x28DD JUMP JUMPDEST POP POP POP POP POP POP SWAP5 POP POP POP POP POP CODESIZE DUP1 PUSH2 0x2555 JUMP JUMPDEST POP CALLVALUE PUSH2 0x25C JUMPI DUP1 PUSH1 0x3 NOT CALLDATASIZE ADD SLT PUSH2 0x25C JUMPI PUSH1 0x4 SLOAD PUSH1 0x40 MLOAD PUSH1 0x1 PUSH1 0x1 PUSH1 0xA0 SHL SUB SWAP1 SWAP2 AND DUP2 MSTORE PUSH1 0x20 SWAP1 RETURN JUMPDEST POP CALLVALUE PUSH2 0x25C JUMPI DUP1 PUSH1 0x3 NOT CALLDATASIZE ADD SLT PUSH2 0x25C JUMPI PUSH1 0x20 PUSH1 0x40 MLOAD PUSH2 0xFFFF PUSH32 0x0 AND DUP2 MSTORE RETURN JUMPDEST POP CALLVALUE PUSH2 0x25C JUMPI DUP1 PUSH1 0x3 NOT CALLDATASIZE ADD SLT PUSH2 0x25C JUMPI PUSH1 0x40 MLOAD PUSH32 0x0 PUSH1 0x1 PUSH1 0x1 PUSH1 0xA0 SHL SUB AND DUP2 MSTORE PUSH1 0x20 SWAP1 RETURN JUMPDEST SWAP1 POP CALLVALUE PUSH2 0x11B1 JUMPI PUSH1 0x20 CALLDATASIZE PUSH1 0x3 NOT ADD SLT PUSH2 0x11B1 JUMPI PUSH1 0x4 CALLDATALOAD PUSH4 0xFFFFFFFF PUSH1 0xE0 SHL DUP2 AND DUP1 SWAP2 SUB PUSH2 0x1FDA JUMPI PUSH1 0x20 SWAP3 POP PUSH4 0x85572FFB PUSH1 0xE0 SHL DUP2 EQ SWAP1 DUP2 ISZERO PUSH2 0x27C6 JUMPI JUMPDEST POP ISZERO ISZERO DUP2 MSTORE RETURN JUMPDEST PUSH4 0x1FFC9A7 PUSH1 0xE0 SHL EQ SWAP1 POP CODESIZE PUSH2 0x27BF JUMP JUMPDEST PUSH1 0x4 CALLDATALOAD SWAP1 PUSH1 0x1 PUSH1 0x1 PUSH1 0xA0 SHL SUB DUP3 AND DUP3 SUB PUSH2 0xA60 JUMPI JUMP JUMPDEST PUSH1 0x24 CALLDATALOAD SWAP1 PUSH1 0x1 PUSH1 0x1 PUSH1 0xA0 SHL SUB DUP3 AND DUP3 SUB PUSH2 0xA60 JUMPI JUMP JUMPDEST CALLDATALOAD SWAP1 PUSH1 0x1 PUSH1 0x1 PUSH1 0xA0 SHL SUB DUP3 AND DUP3 SUB PUSH2 0xA60 JUMPI JUMP JUMPDEST PUSH1 0x4 CALLDATALOAD SWAP1 PUSH1 0x1 PUSH1 0x1 PUSH1 0x40 SHL SUB DUP3 AND DUP3 SUB PUSH2 0xA60 JUMPI JUMP JUMPDEST PUSH1 0x20 DUP2 ADD SWAP1 DUP2 LT PUSH1 0x1 PUSH1 0x1 PUSH1 0x40 SHL SUB DUP3 GT OR PUSH2 0x2848 JUMPI PUSH1 0x40 MSTORE JUMP JUMPDEST PUSH4 0x4E487B71 PUSH1 0xE0 SHL PUSH1 0x0 MSTORE PUSH1 0x41 PUSH1 0x4 MSTORE PUSH1 0x24 PUSH1 0x0 REVERT JUMPDEST PUSH1 0xA0 DUP2 ADD SWAP1 DUP2 LT PUSH1 0x1 PUSH1 0x1 PUSH1 0x40 SHL SUB DUP3 GT OR PUSH2 0x2848 JUMPI PUSH1 0x40 MSTORE JUMP JUMPDEST PUSH1 0x40 DUP2 ADD SWAP1 DUP2 LT PUSH1 0x1 PUSH1 0x1 PUSH1 0x40 SHL SUB DUP3 GT OR PUSH2 0x2848 JUMPI PUSH1 0x40 MSTORE JUMP JUMPDEST PUSH1 0x1 PUSH1 0x1 PUSH1 0x40 SHL SUB DUP2 GT PUSH2 0x2848 JUMPI PUSH1 0x40 MSTORE JUMP JUMPDEST PUSH1 0xE0 DUP2 ADD SWAP1 DUP2 LT PUSH1 0x1 PUSH1 0x1 PUSH1 0x40 SHL SUB DUP3 GT OR PUSH2 0x2848 JUMPI PUSH1 0x40 MSTORE JUMP JUMPDEST PUSH1 0x60 DUP2 ADD SWAP1 DUP2 LT PUSH1 0x1 PUSH1 0x1 PUSH1 0x40 SHL SUB DUP3 GT OR PUSH2 0x2848 JUMPI PUSH1 0x40 MSTORE JUMP JUMPDEST SWAP1 PUSH1 0x1F DUP1 NOT SWAP2 ADD AND DUP2 ADD SWAP1 DUP2 LT PUSH1 0x1 PUSH1 0x1 PUSH1 0x40 SHL SUB DUP3 GT OR PUSH2 0x2848 JUMPI PUSH1 0x40 MSTORE JUMP JUMPDEST DUP2 PUSH1 0x1F DUP3 ADD SLT ISZERO PUSH2 0xA60 JUMPI DUP1 CALLDATALOAD SWAP1 PUSH1 0x1 PUSH1 0x1 PUSH1 0x40 SHL SUB DUP3 GT PUSH2 0x2848 JUMPI PUSH1 0x40 MLOAD SWAP3 PUSH2 0x2932 PUSH1 0x1F DUP5 ADD PUSH1 0x1F NOT AND PUSH1 0x20 ADD DUP6 PUSH2 0x28DD JUMP JUMPDEST DUP3 DUP5 MSTORE PUSH1 0x20 DUP4 DUP4 ADD ADD GT PUSH2 0xA60 JUMPI DUP2 PUSH1 0x0 SWAP3 PUSH1 0x20 DUP1 SWAP4 ADD DUP4 DUP7 ADD CALLDATACOPY DUP4 ADD ADD MSTORE SWAP1 JUMP JUMPDEST CALLVALUE PUSH2 0xA60 JUMPI PUSH1 0x40 CALLDATASIZE PUSH1 0x3 NOT ADD SLT PUSH2 0xA60 JUMPI PUSH2 0x1B PUSH2 0x2970 PUSH2 0x2817 JUMP JUMPDEST PUSH2 0x2978 PUSH2 0x27ED JUMP JUMPDEST SWAP1 PUSH32 0x0 SWAP1 PUSH2 0x29E6 DUP3 PUSH32 0x0 PUSH32 0x0 PUSH2 0x3D84 JUMP JUMPDEST SWAP3 PUSH1 0x5 SLOAD SWAP2 PUSH1 0x40 MLOAD SWAP3 PUSH1 0x2 PUSH1 0x20 DUP6 ADD MSTORE PUSH1 0x40 DUP5 ADD MSTORE PUSH1 0x40 DUP4 MSTORE PUSH2 0x2A08 DUP4 PUSH2 0x28C2 JUMP JUMPDEST PUSH1 0x1 DUP1 SLOAD PUSH1 0xFF PUSH1 0xA0 SHL NOT AND SWAP1 SSTORE PUSH2 0x2B45 JUMP JUMPDEST PUSH1 0x1 PUSH1 0x1 PUSH1 0x40 SHL SUB DUP2 GT PUSH2 0x2848 JUMPI PUSH1 0x5 SHL PUSH1 0x20 ADD SWAP1 JUMP JUMPDEST PUSH1 0x2 SLOAD DUP2 LT ISZERO PUSH2 0x2A68 JUMPI PUSH1 0x2 PUSH1 0x0 MSTORE PUSH32 0x405787FA12A823E0F2B7631CC41B3BA8828B3321CA811111FA75CD3AA3BB5ACE ADD SWAP1 PUSH1 0x0 SWAP1 JUMP JUMPDEST PUSH4 0x4E487B71 PUSH1 0xE0 SHL PUSH1 0x0 MSTORE PUSH1 0x32 PUSH1 0x4 MSTORE PUSH1 0x24 PUSH1 0x0 REVERT JUMPDEST DUP2 DUP2 MUL SWAP3 SWAP2 DUP2 ISZERO SWAP2 DUP5 DIV EQ OR ISZERO PUSH2 0x2A91 JUMPI JUMP JUMPDEST PUSH4 0x4E487B71 PUSH1 0xE0 SHL PUSH1 0x0 MSTORE PUSH1 0x11 PUSH1 0x4 MSTORE PUSH1 0x24 PUSH1 0x0 REVERT JUMPDEST DUP2 ISZERO PUSH2 0x2AB1 JUMPI DIV SWAP1 JUMP JUMPDEST PUSH4 0x4E487B71 PUSH1 0xE0 SHL PUSH1 0x0 MSTORE PUSH1 0x12 PUSH1 0x4 MSTORE PUSH1 0x24 PUSH1 0x0 REVERT JUMPDEST SWAP2 SWAP1 DUP3 SUB SWAP2 DUP3 GT PUSH2 0x2A91 JUMPI JUMP JUMPDEST SWAP1 DUP2 PUSH1 0x20 SWAP2 SUB SLT PUSH2 0xA60 JUMPI MLOAD DUP1 ISZERO ISZERO DUP2 SUB PUSH2 0xA60 JUMPI SWAP1 JUMP JUMPDEST SWAP2 SWAP1 DUP3 ADD DUP1 SWAP3 GT PUSH2 0x2A91 JUMPI JUMP JUMPDEST ISZERO PUSH2 0x2B00 JUMPI JUMP JUMPDEST PUSH1 0x40 MLOAD PUSH3 0x461BCD PUSH1 0xE5 SHL DUP2 MSTORE PUSH1 0x20 PUSH1 0x4 DUP3 ADD MSTORE PUSH1 0x1D PUSH1 0x24 DUP3 ADD MSTORE PUSH32 0x43616C6C6572206973206E6F7420616E20616C6C6F776564206E6F6465000000 PUSH1 0x44 DUP3 ADD MSTORE PUSH1 0x64 SWAP1 REVERT JUMPDEST SWAP1 SWAP2 PUSH1 0x0 SWAP5 PUSH2 0x2B56 PUSH2 0x1509 DUP6 PUSH2 0x3ABB JUMP JUMPDEST DUP6 SWAP1 DUP1 PUSH2 0x33A9 JUMPI JUMPDEST POP PUSH2 0x2B6B DUP2 DUP7 DUP5 DUP8 PUSH2 0x3B5A JUMP JUMPDEST SWAP5 PUSH1 0x40 MLOAD SWAP5 PUSH4 0xB0F479A1 PUSH1 0xE0 SHL DUP7 MSTORE PUSH1 0x20 DUP7 PUSH1 0x4 DUP2 ADDRESS GAS STATICCALL SWAP6 DUP7 ISZERO PUSH2 0xEAB JUMPI DUP9 SWAP7 PUSH2 0x3388 JUMPI JUMPDEST POP PUSH1 0x40 MLOAD PUSH4 0x20487DED PUSH1 0xE0 SHL DUP2 MSTORE SWAP4 PUSH1 0x20 DUP6 DUP1 PUSH2 0x2BB2 DUP12 DUP11 PUSH1 0x4 DUP5 ADD PUSH2 0x39EF JUMP JUMPDEST SUB DUP2 PUSH1 0x1 PUSH1 0x1 PUSH1 0xA0 SHL SUB DUP12 AND GAS STATICCALL SWAP5 DUP6 ISZERO PUSH2 0x9FA JUMPI DUP10 SWAP6 PUSH2 0x3354 JUMPI JUMPDEST POP PUSH1 0x40 MLOAD PUSH4 0x70A08231 PUSH1 0xE0 SHL DUP2 MSTORE ADDRESS PUSH1 0x4 DUP3 ADD MSTORE PUSH1 0x20 DUP2 PUSH1 0x24 DUP2 PUSH32 0x0 PUSH1 0x1 PUSH1 0x1 PUSH1 0xA0 SHL SUB AND GAS STATICCALL SWAP1 DUP2 ISZERO PUSH2 0x3257 JUMPI DUP11 SWAP2 PUSH2 0x3322 JUMPI JUMPDEST POP PUSH2 0x32B1 JUMPI JUMPDEST PUSH1 0x40 MLOAD PUSH4 0x70A08231 PUSH1 0xE0 SHL DUP2 MSTORE ADDRESS PUSH1 0x4 DUP3 ADD MSTORE PUSH1 0x20 DUP2 PUSH1 0x24 DUP2 PUSH32 0x0 PUSH1 0x1 PUSH1 0x1 PUSH1 0xA0 SHL SUB AND GAS STATICCALL SWAP1 DUP2 ISZERO PUSH2 0x3257 JUMPI DUP11 SWAP2 PUSH2 0x327F JUMPI JUMPDEST POP PUSH1 0x4 DUP1 SLOAD PUSH1 0x40 MLOAD PUSH4 0x95EA7B3 PUSH1 0xE0 SHL DUP2 MSTORE PUSH1 0x1 PUSH1 0x1 PUSH1 0xA0 SHL SUB SWAP2 DUP3 AND SWAP3 DUP2 ADD SWAP3 SWAP1 SWAP3 MSTORE PUSH1 0x24 DUP3 ADD DUP4 SWAP1 MSTORE PUSH1 0x20 SWAP1 DUP3 SWAP1 PUSH1 0x44 SWAP1 DUP3 SWAP1 DUP16 SWAP1 PUSH32 0x0 AND GAS CALL DUP1 ISZERO PUSH2 0x3214 JUMPI SWAP2 PUSH1 0x20 SWAP2 DUP13 SWAP6 SWAP5 SWAP4 PUSH2 0x3262 JUMPI JUMPDEST POP PUSH1 0x40 MLOAD SWAP1 PUSH2 0x2CF7 DUP3 PUSH2 0x28A7 JUMP JUMPDEST PUSH1 0x1 PUSH1 0x1 PUSH1 0xA0 SHL SUB PUSH32 0x0 DUP2 AND DUP4 MSTORE PUSH32 0x0 DUP2 AND DUP5 DUP5 ADD SWAP1 DUP2 MSTORE PUSH2 0xFFFF PUSH32 0x0 AND PUSH1 0x40 DUP1 DUP7 ADD SWAP2 DUP3 MSTORE ADDRESS PUSH1 0x60 DUP8 ADD SWAP1 DUP2 MSTORE PUSH1 0x80 DUP8 ADD DUP15 DUP2 MSTORE PUSH1 0xA0 DUP9 ADD SWAP7 DUP8 MSTORE PUSH1 0xC0 DUP9 ADD DUP13 DUP2 MSTORE PUSH1 0x4 DUP1 SLOAD SWAP5 MLOAD PUSH4 0x5023B4DF PUSH1 0xE0 SHL DUP2 MSTORE SWAP10 MLOAD DUP9 AND SWAP1 DUP11 ADD MSTORE SWAP5 MLOAD DUP7 AND PUSH1 0x24 DUP10 ADD MSTORE SWAP3 MLOAD PUSH3 0xFFFFFF AND PUSH1 0x44 DUP9 ADD MSTORE MLOAD DUP5 AND PUSH1 0x64 DUP8 ADD MSTORE SWAP1 MLOAD PUSH1 0x84 DUP7 ADD MSTORE SWAP3 MLOAD PUSH1 0xA4 DUP6 ADD MSTORE MLOAD DUP2 AND PUSH1 0xC4 DUP5 ADD MSTORE SWAP2 SWAP6 DUP7 SWAP3 PUSH1 0xE4 SWAP3 DUP5 SWAP3 SWAP2 AND GAS CALL SWAP3 DUP4 ISZERO PUSH2 0x3257 JUMPI DUP11 SWAP4 PUSH2 0x3223 JUMPI JUMPDEST POP PUSH32 0x0 PUSH1 0x1 PUSH1 0x1 PUSH1 0xA0 SHL SUB AND EXTCODESIZE ISZERO PUSH2 0x321F JUMPI PUSH1 0x40 MLOAD PUSH4 0x2E1A7D4D PUSH1 0xE0 SHL DUP2 MSTORE PUSH1 0x4 DUP2 ADD DUP8 SWAP1 MSTORE DUP11 DUP2 PUSH1 0x24 DUP2 DUP4 PUSH32 0x0 PUSH1 0x1 PUSH1 0x1 PUSH1 0xA0 SHL SUB AND GAS CALL DUP1 ISZERO PUSH2 0x3214 JUMPI PUSH2 0x3201 JUMPI JUMPDEST POP DUP5 PUSH2 0x31E1 JUMPI JUMPDEST POP POP PUSH1 0x8 SSTORE SELFBALANCE DUP4 GT PUSH2 0x20F4 JUMPI PUSH1 0x1 PUSH1 0x1 PUSH1 0xA0 SHL SUB AND SWAP1 DUP2 PUSH2 0x316D JUMPI JUMPDEST POP POP SWAP2 PUSH2 0x2ECA SWAP5 SWAP4 SWAP2 PUSH1 0x20 SWAP4 PUSH1 0x40 MLOAD DUP1 SWAP8 DUP2 SWAP6 DUP3 SWAP5 PUSH4 0x96F4E9F9 PUSH1 0xE0 SHL DUP5 MSTORE PUSH1 0x4 DUP5 ADD PUSH2 0x39EF JUMP JUMPDEST SUB SWAP3 PUSH1 0x1 PUSH1 0x1 PUSH1 0xA0 SHL SUB AND GAS CALL SWAP2 DUP3 ISZERO PUSH2 0xE5D JUMPI DUP2 SWAP3 PUSH2 0x3139 JUMPI JUMPDEST POP PUSH1 0x40 MLOAD PUSH4 0x70A08231 PUSH1 0xE0 SHL DUP2 MSTORE ADDRESS PUSH1 0x4 DUP3 ADD MSTORE PUSH1 0x20 DUP2 PUSH1 0x24 DUP2 PUSH32 0x0 PUSH1 0x1 PUSH1 0x1 PUSH1 0xA0 SHL SUB AND GAS STATICCALL SWAP1 DUP2 ISZERO PUSH2 0x43D JUMPI DUP3 SWAP2 PUSH2 0x3107 JUMPI JUMPDEST POP PUSH2 0x2F42 JUMPI POP SWAP1 JUMP JUMPDEST PUSH1 0x40 MLOAD PUSH4 0x70A08231 PUSH1 0xE0 SHL DUP2 MSTORE ADDRESS PUSH1 0x4 DUP3 ADD MSTORE PUSH1 0x20 DUP2 PUSH1 0x24 DUP2 PUSH32 0x0 PUSH1 0x1 PUSH1 0x1 PUSH1 0xA0 SHL SUB AND GAS STATICCALL SWAP1 DUP2 ISZERO PUSH2 0x43D JUMPI DUP3 SWAP2 PUSH2 0x30D5 JUMPI JUMPDEST POP PUSH2 0x2FBF PUSH32 0x0 PUSH2 0x3D2B JUMP JUMPDEST PUSH1 0x40 MLOAD PUSH4 0x95EA7B3 PUSH1 0xE0 SHL DUP2 MSTORE PUSH1 0x1 PUSH1 0x1 PUSH1 0xA0 SHL SUB DUP3 AND PUSH1 0x4 DUP3 ADD MSTORE PUSH1 0x24 DUP2 ADD DUP4 SWAP1 MSTORE PUSH1 0x20 DUP2 DUP1 PUSH1 0x44 DUP2 ADD SUB DUP2 DUP8 PUSH32 0x0 PUSH1 0x1 PUSH1 0x1 PUSH1 0xA0 SHL SUB AND GAS CALL DUP1 ISZERO PUSH2 0x4C2 JUMPI PUSH2 0x30B6 JUMPI JUMPDEST POP PUSH1 0x1 PUSH1 0x1 PUSH1 0xA0 SHL SUB AND SWAP1 DUP2 EXTCODESIZE ISZERO PUSH2 0x1FDA JUMPI PUSH1 0x40 MLOAD PUSH4 0xE8EDA9DF PUSH1 0xE0 SHL DUP2 MSTORE PUSH32 0x0 PUSH1 0x1 PUSH1 0x1 PUSH1 0xA0 SHL SUB AND PUSH1 0x4 DUP3 ADD MSTORE PUSH1 0x24 DUP2 ADD SWAP2 SWAP1 SWAP2 MSTORE ADDRESS PUSH1 0x44 DUP3 ADD MSTORE PUSH1 0x0 PUSH1 0x64 DUP3 ADD MSTORE SWAP1 DUP3 SWAP1 DUP3 SWAP1 PUSH1 0x84 SWAP1 DUP3 SWAP1 DUP5 SWAP1 GAS CALL DUP1 ISZERO PUSH2 0x43D JUMPI PUSH2 0x30A4 JUMPI POP POP SWAP1 JUMP JUMPDEST PUSH2 0x30AE DUP3 SWAP2 PUSH2 0x2894 JUMP JUMPDEST PUSH2 0x25C JUMPI POP SWAP1 JUMP JUMPDEST PUSH2 0x30CE SWAP1 PUSH1 0x20 RETURNDATASIZE PUSH1 0x20 GT PUSH2 0x9F3 JUMPI PUSH2 0x9E3 DUP2 DUP4 PUSH2 0x28DD JUMP JUMPDEST POP CODESIZE PUSH2 0x3024 JUMP JUMPDEST SWAP1 POP PUSH1 0x20 DUP2 RETURNDATASIZE PUSH1 0x20 GT PUSH2 0x30FF JUMPI JUMPDEST DUP2 PUSH2 0x30F0 PUSH1 0x20 SWAP4 DUP4 PUSH2 0x28DD JUMP JUMPDEST DUP2 ADD SUB SLT PUSH2 0xA60 JUMPI MLOAD CODESIZE PUSH2 0x2F95 JUMP JUMPDEST RETURNDATASIZE SWAP2 POP PUSH2 0x30E3 JUMP JUMPDEST SWAP1 POP PUSH1 0x20 DUP2 RETURNDATASIZE PUSH1 0x20 GT PUSH2 0x3131 JUMPI JUMPDEST DUP2 PUSH2 0x3122 PUSH1 0x20 SWAP4 DUP4 PUSH2 0x28DD JUMP JUMPDEST DUP2 ADD SUB SLT PUSH2 0xA60 JUMPI MLOAD CODESIZE PUSH2 0x2F39 JUMP JUMPDEST RETURNDATASIZE SWAP2 POP PUSH2 0x3115 JUMP JUMPDEST SWAP1 SWAP2 POP PUSH1 0x20 DUP2 RETURNDATASIZE PUSH1 0x20 GT PUSH2 0x3165 JUMPI JUMPDEST DUP2 PUSH2 0x3155 PUSH1 0x20 SWAP4 DUP4 PUSH2 0x28DD JUMP JUMPDEST DUP2 ADD SUB SLT PUSH2 0xA60 JUMPI MLOAD SWAP1 CODESIZE PUSH2 0x2EE5 JUMP JUMPDEST RETURNDATASIZE SWAP2 POP PUSH2 0x3148 JUMP JUMPDEST PUSH1 0x40 MLOAD PUSH4 0x95EA7B3 PUSH1 0xE0 SHL DUP2 MSTORE PUSH1 0x1 PUSH1 0x1 PUSH1 0xA0 SHL SUB DUP7 AND PUSH1 0x4 DUP3 ADD MSTORE PUSH1 0x24 DUP2 ADD SWAP2 SWAP1 SWAP2 MSTORE SWAP1 PUSH1 0x20 SWAP1 DUP3 SWAP1 PUSH1 0x44 SWAP1 DUP3 SWAP1 DUP11 SWAP1 GAS CALL DUP1 ISZERO PUSH2 0xA6C JUMPI SWAP2 PUSH2 0x2ECA SWAP7 SWAP6 SWAP4 SWAP2 PUSH1 0x20 SWAP6 SWAP4 PUSH2 0x31C4 JUMPI JUMPDEST POP SWAP2 SWAP4 DUP2 SWAP4 SWAP6 SWAP7 POP PUSH2 0x2EA2 JUMP JUMPDEST PUSH2 0x31DA SWAP1 DUP7 RETURNDATASIZE DUP9 GT PUSH2 0x9F3 JUMPI PUSH2 0x9E3 DUP2 DUP4 PUSH2 0x28DD JUMP JUMPDEST POP CODESIZE PUSH2 0x31B7 JUMP JUMPDEST DUP3 SWAP9 POP DUP4 SWAP1 PUSH2 0x31F3 PUSH2 0x31F9 SWAP5 DUP8 PUSH2 0x2AC7 JUMP JUMPDEST SWAP3 PUSH2 0x3B5A JUMP JUMPDEST SWAP6 CODESIZE DUP1 PUSH2 0x2E86 JUMP JUMPDEST PUSH2 0x320D SWAP1 SWAP11 SWAP2 SWAP11 PUSH2 0x2894 JUMP JUMPDEST SWAP9 CODESIZE PUSH2 0x2E7F JUMP JUMPDEST PUSH1 0x40 MLOAD RETURNDATASIZE DUP14 DUP3 RETURNDATACOPY RETURNDATASIZE SWAP1 REVERT JUMPDEST DUP10 DUP1 REVERT JUMPDEST SWAP1 SWAP3 POP PUSH1 0x20 DUP2 RETURNDATASIZE PUSH1 0x20 GT PUSH2 0x324F JUMPI JUMPDEST DUP2 PUSH2 0x323F PUSH1 0x20 SWAP4 DUP4 PUSH2 0x28DD JUMP JUMPDEST DUP2 ADD SUB SLT PUSH2 0x321F JUMPI MLOAD SWAP2 CODESIZE PUSH2 0x2DFD JUMP JUMPDEST RETURNDATASIZE SWAP2 POP PUSH2 0x3232 JUMP JUMPDEST PUSH1 0x40 MLOAD RETURNDATASIZE DUP13 DUP3 RETURNDATACOPY RETURNDATASIZE SWAP1 REVERT JUMPDEST PUSH2 0x3278 SWAP1 DUP4 RETURNDATASIZE DUP6 GT PUSH2 0x9F3 JUMPI PUSH2 0x9E3 DUP2 DUP4 PUSH2 0x28DD JUMP JUMPDEST POP CODESIZE PUSH2 0x2CE9 JUMP JUMPDEST SWAP1 POP PUSH1 0x20 DUP2 RETURNDATASIZE PUSH1 0x20 GT PUSH2 0x32A9 JUMPI JUMPDEST DUP2 PUSH2 0x329A PUSH1 0x20 SWAP4 DUP4 PUSH2 0x28DD JUMP JUMPDEST DUP2 ADD SUB SLT PUSH2 0x321F JUMPI MLOAD CODESIZE PUSH2 0x2C7B JUMP JUMPDEST RETURNDATASIZE SWAP2 POP PUSH2 0x328D JUMP JUMPDEST PUSH2 0x331C PUSH32 0x0 PUSH32 0x0 PUSH32 0x0 PUSH2 0x3D84 JUMP JUMPDEST POP PUSH2 0x2C28 JUMP JUMPDEST SWAP1 POP PUSH1 0x20 DUP2 RETURNDATASIZE PUSH1 0x20 GT PUSH2 0x334C JUMPI JUMPDEST DUP2 PUSH2 0x333D PUSH1 0x20 SWAP4 DUP4 PUSH2 0x28DD JUMP JUMPDEST DUP2 ADD SUB SLT PUSH2 0x321F JUMPI MLOAD CODESIZE PUSH2 0x2C22 JUMP JUMPDEST RETURNDATASIZE SWAP2 POP PUSH2 0x3330 JUMP JUMPDEST SWAP1 SWAP5 POP PUSH1 0x20 DUP2 RETURNDATASIZE PUSH1 0x20 GT PUSH2 0x3380 JUMPI JUMPDEST DUP2 PUSH2 0x3370 PUSH1 0x20 SWAP4 DUP4 PUSH2 0x28DD JUMP JUMPDEST DUP2 ADD SUB SLT PUSH2 0x11A9 JUMPI MLOAD SWAP4 CODESIZE PUSH2 0x2BCE JUMP JUMPDEST RETURNDATASIZE SWAP2 POP PUSH2 0x3363 JUMP JUMPDEST PUSH2 0x33A2 SWAP2 SWAP7 POP PUSH1 0x20 RETURNDATASIZE PUSH1 0x20 GT PUSH2 0x2299 JUMPI PUSH2 0x228B DUP2 DUP4 PUSH2 0x28DD JUMP JUMPDEST SWAP5 CODESIZE PUSH2 0x2B91 JUMP JUMPDEST SWAP1 POP CODESIZE PUSH2 0x2B5E JUMP JUMPDEST SWAP3 SWAP1 SWAP2 PUSH2 0x33C0 PUSH2 0x1509 DUP5 PUSH2 0x3ABB JUMP JUMPDEST PUSH1 0x3 SLOAD PUSH1 0x40 DUP1 MLOAD SWAP1 SWAP3 SWAP1 SWAP2 PUSH1 0x1 PUSH1 0x1 PUSH1 0xA0 SHL SUB SWAP1 DUP2 AND SWAP2 PUSH2 0x33E0 DUP5 PUSH2 0x285E JUMP JUMPDEST PUSH1 0x60 SWAP1 DUP2 DUP6 MSTORE DUP4 PUSH1 0x20 SWAP3 DUP1 DUP5 DUP9 ADD MSTORE DUP1 DUP9 DUP9 ADD MSTORE DUP1 PUSH1 0x80 PUSH1 0x0 SWAP9 DUP10 DUP4 DUP3 ADD MSTORE ADD MSTORE DUP8 MLOAD PUSH2 0x340C DUP2 PUSH2 0x282D JUMP JUMPDEST DUP8 DUP2 MSTORE DUP6 DUP10 MLOAD SWAP12 AND DUP6 DUP13 ADD MSTORE DUP5 DUP12 MSTORE PUSH2 0x3424 DUP12 PUSH2 0x2879 JUMP JUMPDEST PUSH2 0x3432 DUP10 MLOAD PUSH2 0x1A31 DUP2 PUSH2 0x282D JUMP JUMPDEST SWAP4 DUP10 MLOAD SWAP12 PUSH2 0x343F DUP14 PUSH2 0x285E JUMP JUMPDEST DUP13 MSTORE DUP6 DUP13 ADD MSTORE DUP9 DUP12 ADD MSTORE DUP10 ADD MSTORE PUSH1 0x80 DUP9 ADD MSTORE DUP5 MLOAD PUSH4 0xB0F479A1 PUSH1 0xE0 SHL DUP2 MSTORE PUSH1 0x4 SWAP4 SWAP1 DUP3 DUP2 DUP7 DUP2 ADDRESS GAS STATICCALL SWAP1 DUP2 ISZERO PUSH2 0x3805 JUMPI SWAP4 DUP1 SWAP4 SWAP3 SWAP2 PUSH2 0x349E SWAP6 DUP9 SWAP2 PUSH2 0x3973 JUMPI JUMPDEST POP AND SWAP1 DUP3 DUP11 DUP13 DUP11 MLOAD SWAP8 DUP9 SWAP3 DUP4 SWAP3 PUSH4 0x20487DED PUSH1 0xE0 SHL DUP5 MSTORE DUP12 DUP5 ADD PUSH2 0x39EF JUMP JUMPDEST SUB DUP2 DUP6 GAS STATICCALL SWAP5 DUP6 ISZERO PUSH2 0x393A JUMPI DUP8 SWAP6 PUSH2 0x3944 JUMPI JUMPDEST POP PUSH1 0x8 DUP8 SWAP1 SSTORE DUP8 MLOAD PUSH4 0x23B872DD PUSH1 0xE0 SHL DUP2 MSTORE CALLER DUP8 DUP3 ADD SWAP1 DUP2 MSTORE ADDRESS PUSH1 0x20 DUP3 ADD MSTORE PUSH1 0x40 DUP2 ADD DUP8 SWAP1 MSTORE SWAP1 SWAP2 DUP5 SWAP2 DUP4 SWAP2 SWAP1 DUP3 SWAP1 DUP12 SWAP1 DUP3 SWAP1 PUSH1 0x60 ADD SUB SWAP3 GAS CALL SWAP1 DUP2 ISZERO PUSH2 0x393A JUMPI DUP8 SWAP2 PUSH2 0x391D JUMPI JUMPDEST POP ISZERO PUSH2 0x38DA JUMPI DUP3 PUSH1 0x3 SLOAD AND SWAP10 DUP11 SWAP5 DUP9 MLOAD DUP5 DUP2 PUSH1 0x24 DUP2 PUSH4 0x70A08231 PUSH1 0xE0 SHL SWAP11 DUP12 DUP3 MSTORE ADDRESS DUP14 DUP4 ADD MSTORE GAS STATICCALL SWAP1 DUP2 ISZERO PUSH2 0x37CC JUMPI DUP10 SWAP2 PUSH2 0x38AD JUMPI JUMPDEST POP DUP2 GT PUSH2 0x382C JUMPI DUP9 MLOAD PUSH4 0x95EA7B3 PUSH1 0xE0 SHL DUP1 DUP3 MSTORE PUSH1 0x1 PUSH1 0x1 PUSH1 0xA0 SHL SUB DUP6 AND DUP3 DUP11 ADD SWAP1 DUP2 MSTORE PUSH1 0x20 DUP2 ADD SWAP4 SWAP1 SWAP4 MSTORE SWAP12 SWAP13 SWAP11 SWAP12 SWAP10 SWAP11 SWAP9 SWAP10 SWAP8 SWAP9 SWAP1 SWAP2 DUP6 SWAP2 DUP4 SWAP2 DUP3 SWAP1 DUP14 SWAP1 DUP3 SWAP1 PUSH1 0x40 ADD SUB SWAP3 GAS CALL DUP1 ISZERO PUSH2 0x37CC JUMPI SWAP2 DUP5 SWAP4 SWAP2 PUSH2 0x35A9 SWAP13 SWAP14 SWAP4 PUSH2 0x380F JUMPI JUMPDEST POP DUP10 DUP12 MLOAD DUP1 SWAP14 DUP2 SWAP6 DUP3 SWAP5 PUSH4 0x96F4E9F9 PUSH1 0xE0 SHL DUP5 MSTORE DUP14 DUP5 ADD PUSH2 0x39EF JUMP JUMPDEST SUB SWAP3 GAS CALL SWAP8 DUP9 ISZERO PUSH2 0x3805 JUMPI DUP7 SWAP9 PUSH2 0x37D6 JUMPI JUMPDEST POP PUSH32 0x0 SWAP4 DUP3 DUP6 AND SWAP1 DUP9 MLOAD DUP6 DUP2 MSTORE ADDRESS DUP9 DUP3 ADD MSTORE DUP4 DUP2 PUSH1 0x24 DUP2 DUP7 GAS STATICCALL SWAP1 DUP2 ISZERO PUSH2 0x37CC JUMPI DUP10 SWAP2 PUSH2 0x379F JUMPI JUMPDEST POP PUSH2 0x3614 JUMPI JUMPDEST POP POP POP POP POP POP POP POP POP SWAP1 JUMP JUMPDEST DUP9 MLOAD SWAP5 DUP6 MSTORE ADDRESS DUP8 DUP7 ADD MSTORE DUP3 DUP6 PUSH1 0x24 DUP2 DUP6 GAS STATICCALL SWAP5 DUP6 ISZERO PUSH2 0x374F JUMPI DUP9 DUP11 SWAP4 SWAP3 DUP10 SWAP3 DUP3 SWAP9 PUSH2 0x3759 JUMPI JUMPDEST POP SWAP3 DUP6 SWAP5 SWAP2 SWAP3 PUSH2 0x369D SWAP7 SWAP4 DUP10 SWAP6 PUSH2 0x3670 PUSH32 0x0 PUSH2 0x3D2B JUMP JUMPDEST SWAP5 MLOAD SWAP1 DUP2 MSTORE PUSH1 0x1 PUSH1 0x1 PUSH1 0xA0 SHL SUB DUP6 AND SWAP3 DUP2 ADD SWAP3 DUP4 MSTORE PUSH1 0x20 DUP4 ADD SWAP7 SWAP1 SWAP7 MSTORE SWAP3 SWAP7 DUP6 SWAP4 DUP5 SWAP3 SWAP1 SWAP2 DUP4 SWAP2 PUSH1 0x40 ADD SWAP1 JUMP JUMPDEST SUB SWAP3 GAS CALL DUP1 ISZERO PUSH2 0x374F JUMPI PUSH2 0x3731 JUMPI JUMPDEST POP POP AND SWAP2 DUP3 EXTCODESIZE ISZERO PUSH2 0x448 JUMPI DUP6 MLOAD PUSH4 0xE8EDA9DF PUSH1 0xE0 SHL DUP2 MSTORE PUSH1 0x1 PUSH1 0x1 PUSH1 0xA0 SHL SUB SWAP1 SWAP2 AND SWAP4 DUP2 ADD SWAP4 DUP5 MSTORE PUSH1 0x20 DUP5 ADD SWAP2 SWAP1 SWAP2 MSTORE ADDRESS PUSH1 0x40 DUP5 ADD MSTORE PUSH1 0x0 PUSH1 0x60 DUP5 ADD MSTORE SWAP4 SWAP3 SWAP2 DUP3 SWAP2 DUP6 SWAP2 DUP3 SWAP1 DUP5 SWAP1 DUP3 SWAP1 PUSH1 0x80 ADD SUB SWAP3 GAS CALL SWAP2 DUP3 ISZERO PUSH2 0x3727 JUMPI POP POP PUSH2 0x3718 JUMPI JUMPDEST DUP1 DUP1 DUP1 DUP1 DUP1 DUP1 DUP1 DUP1 PUSH2 0x3608 JUMP JUMPDEST PUSH2 0x3721 SWAP1 PUSH2 0x2894 JUMP JUMPDEST CODESIZE PUSH2 0x370B JUMP JUMPDEST MLOAD SWAP1 RETURNDATASIZE SWAP1 DUP3 RETURNDATACOPY RETURNDATASIZE SWAP1 REVERT JUMPDEST DUP2 PUSH2 0x3747 SWAP3 SWAP1 RETURNDATASIZE LT PUSH2 0x9F3 JUMPI PUSH2 0x9E3 DUP2 DUP4 PUSH2 0x28DD JUMP JUMPDEST POP CODESIZE DUP1 PUSH2 0x36AC JUMP JUMPDEST DUP10 MLOAD RETURNDATASIZE DUP11 DUP3 RETURNDATACOPY RETURNDATASIZE SWAP1 REVERT JUMPDEST SWAP4 SWAP5 POP SWAP5 DUP1 SWAP7 SWAP8 POP DUP1 SWAP3 POP DUP4 SWAP2 POP RETURNDATASIZE DUP4 GT PUSH2 0x3798 JUMPI JUMPDEST PUSH2 0x3779 DUP2 DUP4 PUSH2 0x28DD JUMP JUMPDEST DUP2 ADD SUB SLT PUSH2 0x3794 JUMPI MLOAD SWAP4 SWAP3 SWAP2 DUP9 SWAP2 SWAP1 DUP8 SWAP1 DUP10 SWAP1 PUSH2 0x369D PUSH2 0x363A JUMP JUMPDEST DUP8 DUP1 REVERT JUMPDEST POP RETURNDATASIZE PUSH2 0x376F JUMP JUMPDEST SWAP1 POP DUP4 DUP2 DUP2 RETURNDATASIZE DUP4 GT PUSH2 0x37C5 JUMPI JUMPDEST PUSH2 0x37B6 DUP2 DUP4 PUSH2 0x28DD JUMP JUMPDEST DUP2 ADD SUB SLT PUSH2 0x11A9 JUMPI MLOAD CODESIZE PUSH2 0x3602 JUMP JUMPDEST POP RETURNDATASIZE PUSH2 0x37AC JUMP JUMPDEST DUP11 MLOAD RETURNDATASIZE DUP12 DUP3 RETURNDATACOPY RETURNDATASIZE SWAP1 REVERT JUMPDEST SWAP1 DUP1 SWAP9 POP DUP2 DUP2 RETURNDATASIZE DUP4 GT PUSH2 0x37FE JUMPI JUMPDEST PUSH2 0x37EE DUP2 DUP4 PUSH2 0x28DD JUMP JUMPDEST DUP2 ADD SUB SLT PUSH2 0x2131 JUMPI MLOAD SWAP7 CODESIZE PUSH2 0x35BB JUMP JUMPDEST POP RETURNDATASIZE PUSH2 0x37E4 JUMP JUMPDEST DUP8 MLOAD RETURNDATASIZE DUP9 DUP3 RETURNDATACOPY RETURNDATASIZE SWAP1 REVERT JUMPDEST PUSH2 0x3825 SWAP1 DUP6 RETURNDATASIZE DUP8 GT PUSH2 0x9F3 JUMPI PUSH2 0x9E3 DUP2 DUP4 PUSH2 0x28DD JUMP JUMPDEST POP CODESIZE PUSH2 0x358D JUMP JUMPDEST DUP7 DUP9 SWAP2 DUP6 DUP12 DUP16 DUP3 DUP12 PUSH1 0x24 DUP5 MLOAD DUP1 SWAP5 DUP2 SWAP4 DUP3 MSTORE ADDRESS DUP11 DUP4 ADD MSTORE GAS STATICCALL SWAP3 DUP4 ISZERO PUSH2 0x38A3 JUMPI DUP7 SWAP4 PUSH2 0x386F JUMPI JUMPDEST POP POP MLOAD PUSH4 0x4787A103 PUSH1 0xE1 SHL DUP2 MSTORE SWAP3 DUP4 ADD MSTORE PUSH1 0x24 DUP3 ADD MSTORE PUSH1 0x44 SWAP2 POP REVERT JUMPDEST SWAP1 DUP1 SWAP3 SWAP4 POP DUP2 RETURNDATASIZE DUP4 GT PUSH2 0x389C JUMPI JUMPDEST PUSH2 0x3887 DUP2 DUP4 PUSH2 0x28DD JUMP JUMPDEST DUP2 ADD SUB SLT PUSH2 0x448 JUMPI PUSH1 0x44 SWAP5 POP MLOAD SWAP1 DUP6 DUP1 PUSH2 0x3853 JUMP JUMPDEST POP RETURNDATASIZE PUSH2 0x387D JUMP JUMPDEST DUP3 MLOAD RETURNDATASIZE DUP9 DUP3 RETURNDATACOPY RETURNDATASIZE SWAP1 REVERT JUMPDEST SWAP1 POP DUP5 DUP2 DUP2 RETURNDATASIZE DUP4 GT PUSH2 0x38D3 JUMPI JUMPDEST PUSH2 0x38C4 DUP2 DUP4 PUSH2 0x28DD JUMP JUMPDEST DUP2 ADD SUB SLT PUSH2 0x11A9 JUMPI MLOAD CODESIZE PUSH2 0x352F JUMP JUMPDEST POP RETURNDATASIZE PUSH2 0x38BA JUMP JUMPDEST DUP7 MLOAD PUSH3 0x461BCD PUSH1 0xE5 SHL DUP2 MSTORE DUP1 DUP7 ADD DUP4 SWAP1 MSTORE PUSH1 0x1A PUSH1 0x24 DUP3 ADD MSTORE PUSH32 0x4E6F742070726F7669646564204C696E6B20666F722066656573000000000000 PUSH1 0x44 DUP3 ADD MSTORE PUSH1 0x64 SWAP1 REVERT JUMPDEST PUSH2 0x3934 SWAP2 POP DUP4 RETURNDATASIZE DUP6 GT PUSH2 0x9F3 JUMPI PUSH2 0x9E3 DUP2 DUP4 PUSH2 0x28DD JUMP JUMPDEST CODESIZE PUSH2 0x34F9 JUMP JUMPDEST DUP9 MLOAD RETURNDATASIZE DUP10 DUP3 RETURNDATACOPY RETURNDATASIZE SWAP1 REVERT JUMPDEST SWAP1 SWAP5 POP DUP3 DUP2 DUP2 RETURNDATASIZE DUP4 GT PUSH2 0x396C JUMPI JUMPDEST PUSH2 0x395C DUP2 DUP4 PUSH2 0x28DD JUMP JUMPDEST DUP2 ADD SUB SLT PUSH2 0x9C8 JUMPI MLOAD SWAP4 CODESIZE PUSH2 0x34B1 JUMP JUMPDEST POP RETURNDATASIZE PUSH2 0x3952 JUMP JUMPDEST PUSH2 0x398A SWAP2 POP DUP5 RETURNDATASIZE DUP7 GT PUSH2 0x2299 JUMPI PUSH2 0x228B DUP2 DUP4 PUSH2 0x28DD JUMP JUMPDEST CODESIZE PUSH2 0x347F JUMP JUMPDEST SWAP1 DUP2 PUSH1 0x20 SWAP2 SUB SLT PUSH2 0xA60 JUMPI MLOAD PUSH1 0x1 PUSH1 0x1 PUSH1 0xA0 SHL SUB DUP2 AND DUP2 SUB PUSH2 0xA60 JUMPI SWAP1 JUMP JUMPDEST SWAP2 SWAP1 DUP3 MLOAD SWAP3 DUP4 DUP3 MSTORE PUSH1 0x0 JUMPDEST DUP5 DUP2 LT PUSH2 0x39DB JUMPI POP POP DUP3 PUSH1 0x0 PUSH1 0x20 DUP1 SWAP5 SWAP6 DUP5 ADD ADD MSTORE PUSH1 0x1F DUP1 NOT SWAP2 ADD AND ADD ADD SWAP1 JUMP JUMPDEST PUSH1 0x20 DUP2 DUP4 ADD DUP2 ADD MLOAD DUP5 DUP4 ADD DUP3 ADD MSTORE ADD PUSH2 0x39BA JUMP JUMPDEST SWAP1 PUSH1 0x1 PUSH1 0x1 PUSH1 0x40 SHL SUB SWAP1 SWAP4 SWAP3 SWAP4 AND DUP2 MSTORE PUSH1 0x40 PUSH1 0x20 SWAP2 DUP2 DUP4 DUP3 ADD MSTORE PUSH2 0x3A1E DUP6 MLOAD PUSH1 0xA0 DUP5 DUP5 ADD MSTORE PUSH1 0xE0 DUP4 ADD SWAP1 PUSH2 0x39AF JUMP JUMPDEST SWAP2 PUSH2 0x3A3A DUP5 DUP8 ADD MLOAD SWAP4 PUSH1 0x3F NOT SWAP5 DUP6 DUP6 DUP4 SUB ADD PUSH1 0x60 DUP7 ADD MSTORE PUSH2 0x39AF JUMP JUMPDEST DUP2 DUP8 ADD MLOAD SWAP5 DUP5 DUP5 DUP4 SUB ADD PUSH1 0x80 DUP6 ADD MSTORE DUP1 DUP1 DUP8 MLOAD SWAP4 DUP5 DUP2 MSTORE ADD SWAP7 ADD SWAP3 PUSH1 0x0 SWAP1 JUMPDEST DUP4 DUP3 LT PUSH2 0x3A92 JUMPI POP POP POP POP POP PUSH1 0xC0 PUSH1 0x80 PUSH2 0x3A8F SWAP6 SWAP7 PUSH1 0x1 DUP1 PUSH1 0xA0 SHL SUB PUSH1 0x60 DUP3 ADD MLOAD AND PUSH1 0xA0 DUP6 ADD MSTORE ADD MLOAD SWAP3 DUP3 DUP6 SUB ADD SWAP2 ADD MSTORE PUSH2 0x39AF JUMP JUMPDEST SWAP1 JUMP JUMPDEST DUP5 MLOAD DUP1 MLOAD PUSH1 0x1 PUSH1 0x1 PUSH1 0xA0 SHL SUB AND DUP10 MSTORE DUP4 ADD MLOAD DUP9 DUP5 ADD MSTORE SWAP7 DUP8 ADD SWAP7 SWAP4 DUP3 ADD SWAP4 PUSH1 0x1 SWAP1 SWAP2 ADD SWAP1 PUSH2 0x3A59 JUMP JUMPDEST PUSH1 0x2 SLOAD PUSH1 0x0 JUMPDEST DUP2 PUSH2 0xFFFF DUP3 AND LT PUSH2 0x3B0B JUMPI POP POP PUSH32 0x0 PUSH1 0x1 PUSH1 0x1 PUSH1 0xA0 SHL SUB SWAP1 DUP2 AND SWAP2 AND EQ PUSH2 0x3B06 JUMPI PUSH1 0x0 SWAP1 JUMP JUMPDEST PUSH1 0x1 SWAP1 JUMP JUMPDEST PUSH2 0x3B14 DUP2 PUSH2 0x2A31 JUMP JUMPDEST SWAP1 SLOAD PUSH1 0x3 SWAP2 SWAP1 SWAP2 SHL SHR PUSH1 0x1 PUSH1 0x1 PUSH1 0xA0 SHL SUB SWAP1 DUP2 AND SWAP1 DUP5 AND EQ PUSH2 0x3B45 JUMPI PUSH2 0xFFFF DUP1 SWAP2 AND SWAP1 DUP2 EQ PUSH2 0x2A91 JUMPI PUSH1 0x1 ADD PUSH2 0x3AC1 JUMP JUMPDEST POP POP POP PUSH1 0x1 SWAP1 JUMP JUMPDEST DUP1 MLOAD ISZERO PUSH2 0x2A68 JUMPI PUSH1 0x20 ADD SWAP1 JUMP JUMPDEST SWAP3 SWAP2 SWAP1 PUSH1 0x40 SWAP2 DUP3 MLOAD SWAP3 PUSH2 0x3B6C DUP5 PUSH2 0x285E JUMP JUMPDEST PUSH1 0x60 SWAP3 DUP4 DUP6 MSTORE PUSH1 0x20 SWAP6 DUP5 DUP8 DUP8 ADD MSTORE DUP5 DUP4 DUP8 ADD MSTORE DUP5 PUSH1 0x80 PUSH1 0x0 SWAP8 DUP9 DUP4 DUP3 ADD MSTORE ADD MSTORE PUSH1 0x1 DUP1 PUSH1 0xA0 SHL SUB DUP1 SWAP5 AND DUP1 ISZERO DUP1 PUSH2 0x3C65 JUMPI JUMPDEST ISZERO PUSH2 0x3BF7 JUMPI POP POP DUP2 MLOAD PUSH2 0x3BB0 DUP2 PUSH2 0x282D JUMP JUMPDEST DUP6 DUP2 MSTORE SWAP3 JUMPDEST DUP3 MLOAD SWAP8 AND DUP7 DUP9 ADD MSTORE DUP6 DUP8 MSTORE PUSH2 0x3BC9 DUP8 PUSH2 0x2879 JUMP JUMPDEST PUSH2 0x3BD7 DUP3 MLOAD PUSH2 0x1A31 DUP2 PUSH2 0x282D JUMP JUMPDEST SWAP6 DUP3 MLOAD SWAP8 PUSH2 0x3BE4 DUP10 PUSH2 0x285E JUMP JUMPDEST DUP9 MSTORE DUP8 ADD MSTORE DUP6 ADD MSTORE DUP4 ADD MSTORE PUSH1 0x80 DUP3 ADD MSTORE SWAP1 JUMP JUMPDEST DUP4 SWAP5 SWAP2 SWAP5 MLOAD SWAP1 PUSH2 0x3C06 DUP3 PUSH2 0x2879 JUMP JUMPDEST PUSH1 0x1 DUP3 MSTORE DUP9 DUP9 JUMPDEST DUP2 DUP2 LT PUSH2 0x3C44 JUMPI POP POP SWAP1 PUSH2 0x3C3E SWAP2 DUP2 SWAP7 DUP7 MLOAD SWAP2 PUSH2 0x3C29 DUP4 PUSH2 0x2879 JUMP JUMPDEST DUP3 MSTORE DUP11 DUP3 ADD MSTORE PUSH2 0x3C38 DUP3 PUSH2 0x3B4D JUMP JUMPDEST MSTORE PUSH2 0x3B4D JUMP JUMPDEST POP PUSH2 0x3BB5 JUMP JUMPDEST DUP7 MLOAD PUSH2 0x3C4F DUP2 PUSH2 0x2879 JUMP JUMPDEST DUP11 DUP2 MSTORE DUP11 DUP4 DUP3 ADD MSTORE DUP3 DUP3 DUP7 ADD ADD MSTORE ADD DUP10 SWAP1 PUSH2 0x3C0D JUMP JUMPDEST POP DUP2 ISZERO PUSH2 0x3B9E JUMP JUMPDEST SWAP2 SWAP1 DUP3 PUSH2 0x180 SWAP2 SUB SLT PUSH2 0xA60 JUMPI DUP2 MLOAD SWAP2 PUSH1 0x20 DUP2 ADD MLOAD SWAP2 PUSH1 0x40 DUP3 ADD MLOAD SWAP2 PUSH1 0x60 DUP2 ADD MLOAD SWAP2 PUSH1 0x80 DUP3 ADD MLOAD SWAP2 PUSH1 0xA0 DUP2 ADD MLOAD SWAP2 PUSH1 0xC0 DUP3 ADD MLOAD SWAP2 PUSH1 0xE0 DUP2 ADD MLOAD SWAP2 PUSH2 0x100 DUP3 ADD MLOAD SWAP2 PUSH2 0x120 DUP2 ADD MLOAD SWAP2 PUSH2 0x160 PUSH2 0x140 DUP4 ADD MLOAD SWAP3 ADD MLOAD PUSH5 0xFFFFFFFFFF DUP2 AND DUP2 SUB PUSH2 0xA60 JUMPI SWAP1 JUMP JUMPDEST MLOAD SWAP1 PUSH1 0x1 PUSH1 0x1 PUSH1 0xA0 SHL SUB DUP3 AND DUP3 SUB PUSH2 0xA60 JUMPI JUMP JUMPDEST MLOAD SWAP1 PUSH1 0xFF DUP3 AND DUP3 SUB PUSH2 0xA60 JUMPI JUMP JUMPDEST PUSH1 0x40 MLOAD SWAP1 PUSH4 0x97A657C9 PUSH1 0xE0 SHL PUSH1 0x20 DUP4 ADD MSTORE MLOAD PUSH1 0x24 DUP3 ADD MSTORE PUSH1 0x24 DUP2 MSTORE PUSH1 0x60 DUP2 ADD DUP2 DUP2 LT PUSH1 0x1 PUSH1 0x1 PUSH1 0x40 SHL SUB DUP3 GT OR PUSH2 0x2848 JUMPI PUSH1 0x40 MSTORE SWAP1 JUMP JUMPDEST PUSH1 0x40 MLOAD PUSH4 0x26B1D5F PUSH1 0xE0 SHL DUP2 MSTORE SWAP1 PUSH1 0x20 SWAP1 DUP3 SWAP1 PUSH1 0x4 SWAP1 DUP3 SWAP1 PUSH1 0x1 PUSH1 0x1 PUSH1 0xA0 SHL SUB AND GAS STATICCALL SWAP1 DUP2 ISZERO PUSH2 0x3D78 JUMPI PUSH1 0x0 SWAP2 PUSH2 0x3D60 JUMPI POP SWAP1 JUMP JUMPDEST PUSH2 0x3A8F SWAP2 POP PUSH1 0x20 RETURNDATASIZE DUP2 GT PUSH2 0x2299 JUMPI PUSH2 0x228B DUP2 DUP4 PUSH2 0x28DD JUMP JUMPDEST PUSH1 0x40 MLOAD RETURNDATASIZE PUSH1 0x0 DUP3 RETURNDATACOPY RETURNDATASIZE SWAP1 REVERT JUMPDEST PUSH1 0x40 DUP1 MLOAD PUSH4 0x70A08231 PUSH1 0xE0 SHL DUP2 MSTORE ADDRESS PUSH1 0x4 DUP3 ADD MSTORE SWAP4 SWAP5 SWAP4 SWAP1 SWAP3 PUSH1 0x20 SWAP3 PUSH1 0x1 PUSH1 0x1 PUSH1 0xA0 SHL SUB SWAP2 DUP3 AND SWAP3 SWAP2 SWAP1 DUP5 DUP4 PUSH1 0x24 DUP2 DUP8 GAS STATICCALL SWAP3 DUP4 ISZERO PUSH2 0x3EC3 JUMPI PUSH1 0x0 SWAP4 PUSH2 0x3ECE JUMPI JUMPDEST POP PUSH2 0x3DCF SWAP1 PUSH2 0x3D2B JUMP JUMPDEST DUP6 MLOAD PUSH4 0x95EA7B3 PUSH1 0xE0 SHL DUP2 MSTORE PUSH1 0x1 PUSH1 0x1 PUSH1 0xA0 SHL SUB DUP3 AND PUSH1 0x4 DUP3 ADD MSTORE PUSH1 0x24 DUP2 ADD DUP5 SWAP1 MSTORE SWAP1 SWAP4 DUP6 SWAP1 DUP3 SWAP1 PUSH1 0x44 SWAP1 DUP3 SWAP1 PUSH1 0x0 SWAP1 GAS CALL DUP1 ISZERO PUSH2 0x3EC3 JUMPI DUP6 SWAP5 SWAP3 PUSH2 0x3E55 SWAP9 SWAP10 SWAP5 SWAP3 PUSH1 0x0 SWAP3 PUSH2 0x3EA6 JUMPI JUMPDEST POP DUP8 MLOAD PUSH4 0x1A4CA37B PUSH1 0xE2 SHL DUP2 MSTORE PUSH1 0x1 PUSH1 0x1 PUSH1 0xA0 SHL SUB SWAP1 SWAP6 AND PUSH1 0x4 DUP7 ADD MSTORE PUSH1 0x24 DUP6 ADD SWAP3 SWAP1 SWAP3 MSTORE ADDRESS PUSH1 0x44 DUP6 ADD MSTORE SWAP3 SWAP7 DUP8 SWAP4 DUP5 SWAP3 SWAP1 SWAP2 DUP4 SWAP1 PUSH1 0x64 DUP3 ADD SWAP1 JUMP JUMPDEST SUB SWAP4 AND GAS CALL SWAP2 DUP3 ISZERO PUSH2 0x3E9C JUMPI POP PUSH1 0x0 SWAP2 PUSH2 0x3E70 JUMPI JUMPDEST POP SWAP1 POP SWAP1 JUMP JUMPDEST DUP3 DUP2 RETURNDATASIZE DUP4 GT PUSH2 0x3E95 JUMPI JUMPDEST PUSH2 0x3E84 DUP2 DUP4 PUSH2 0x28DD JUMP JUMPDEST DUP2 ADD SUB SLT PUSH2 0x25C JUMPI POP MLOAD DUP1 CODESIZE PUSH2 0x3E6A JUMP JUMPDEST POP RETURNDATASIZE PUSH2 0x3E7A JUMP JUMPDEST MLOAD RETURNDATASIZE PUSH1 0x0 DUP3 RETURNDATACOPY RETURNDATASIZE SWAP1 REVERT JUMPDEST PUSH2 0x3EBC SWAP1 DUP8 RETURNDATASIZE DUP10 GT PUSH2 0x9F3 JUMPI PUSH2 0x9E3 DUP2 DUP4 PUSH2 0x28DD JUMP JUMPDEST POP CODESIZE PUSH2 0x3E19 JUMP JUMPDEST DUP7 MLOAD RETURNDATASIZE PUSH1 0x0 DUP3 RETURNDATACOPY RETURNDATASIZE SWAP1 REVERT JUMPDEST SWAP1 SWAP3 DUP6 DUP3 DUP2 RETURNDATASIZE DUP4 GT PUSH2 0x3EF8 JUMPI JUMPDEST PUSH2 0x3EE5 DUP2 DUP4 PUSH2 0x28DD JUMP JUMPDEST DUP2 ADD SUB SLT PUSH2 0x25C JUMPI POP MLOAD SWAP2 PUSH2 0x3DCF PUSH2 0x3DC5 JUMP JUMPDEST POP RETURNDATASIZE PUSH2 0x3EDB JUMP JUMPDEST PUSH1 0x0 SLOAD PUSH1 0x1 PUSH1 0x1 PUSH1 0xA0 SHL SUB AND CALLER SUB PUSH2 0x3F13 JUMPI JUMP JUMPDEST PUSH1 0x40 MLOAD PUSH3 0x461BCD PUSH1 0xE5 SHL DUP2 MSTORE PUSH1 0x20 PUSH1 0x4 DUP3 ADD MSTORE PUSH1 0x16 PUSH1 0x24 DUP3 ADD MSTORE PUSH22 0x27B7363C9031B0B63630B1363290313C9037BBB732B9 PUSH1 0x51 SHL PUSH1 0x44 DUP3 ADD MSTORE PUSH1 0x64 SWAP1 REVERT INVALID LOG2 PUSH5 0x6970667358 0x22 SLT KECCAK256 0xA6 DUP11 0xBC 0x5F 0xE6 SSTORE 0xB3 0xB0 PUSH18 0x7299A1FB3A5686CE57CA97D23AE3607456CF 0x4D SWAP1 0x29 SWAP7 0x24 PUSH5 0x736F6C6343 STOP ADDMOD SGT STOP CALLER ",
  "sha1": "dc16cafd9144fb6e6dcdfb855668a66d2e38d22c",
  "source": "// SPDX-License-Identifier: MIT\npragma solidity 0.8.19;\n\nimport {IRouterClient} from \"@chainlink/contracts/src/v0.8/ccip/interfaces/IRouterClient.sol\";\nimport {OwnerIsCreator} from \"@chainlink/contracts/src/v0.8/shared/access/OwnerIsCreator.sol\";\nimport {Client} from \"@chainlink/contracts/src/v0.8/ccip/libraries/Client.sol\";\nimport {CCIPReceiver} from \"@chainlink/contracts/src/v0.8/ccip/applications/CCIPReceiver.sol\";\nimport {IERC20} from \"@chainlink/contracts/src/v0.8/vendor/openzeppelin-solidity/v4.8.3/contracts/token/ERC20/IERC20.sol\";\nimport {SafeERC20} from \"@chainlink/contracts/src/v0.8/vendor/openzeppelin-solidity/v4.8.3/contracts/token/ERC20/utils/SafeERC20.sol\";\nimport \"./utils_node/UtilsNode.sol\";\nimport \"../interfaces/IWETH9.sol\";\n\n//uniswap V3\nimport \"../interfaces/uniswap_V3/swap/ISwapRouter02.sol\";\n\n//AAVE interfaces\nimport \"../interfaces/IPool.sol\";\nimport \"../interfaces/IPoolDataProvider.sol\";\n//master contract interface\nimport \"../interfaces/IMasterNode.sol\";\n\ncontract Node is CCIPReceiver, OwnerIsCreator, UtilsNode {\n    using SafeERC20 for IERC20;\n\n    // Custom errors to provide more descriptive revert messages.\n    error NotEnoughBalance(uint256 currentBalance, uint256 calculatedFees); // Used to make sure contract has enough balance to cover the fees.\n    error NothingToWithdraw(); // Used when trying to withdraw Ether but there's nothing to withdraw.\n    error FailedToWithdrawEth(address owner, address target, uint256 value); // Used when the withdrawal of Ether fails.\n    error DestinationChainNotAllowed(uint64 destinationChainSelector); // Used when the destination chain has not been allowlisted by the contract owner.\n    error SourceChainNotAllowed(uint64 sourceChainSelector); // Used when the source chain has not been allowlisted by the contract owner.\n    error SenderNotAllowed(address sender); // Used when the sender has not been allowlisted by the contract owner.\n\n    bool public isNodeActive;\n\n    address[] public allowedNodes;\n\n    /// TESTER ////\n    uint64 public immutable MASTER_CONTRACT_CHAIN_ID;\n    address public immutable MASTER_CONTRACT_ADDRESS;\n    uint64 public immutable NODE_CONTRACT_CHAIN_ID;\n    address public immutable POOL_ADDRESS_PROVIDER_ADDRESS;\n    address public immutable POOL_DATA_PROVIDER_ADDRESS;\n    address public immutable USDC_ADDRESS;\n    address public immutable aUSDC_ADDRESS;\n    address public immutable WETH_ADDRESS;\n    uint16 public immutable uinswapFeePool;\n\n    IERC20 private s_linkToken;\n    ISwapRouter02 public iSwapRouter02;\n\n    uint256 public aWrpTotalSupplyNodeSide;\n\n    mapping(address => uint256) public avaliableForRefund;\n\n    ////////////////////////////////////////////////////////////////////////\n    ///////////////////////  TESTING  ///////////////////////////////////////\n    ////////////////////////////////////////////////////////////////////////\n    uint8 public commandTESTER;\n    uint64 public _destinationChainSelectorTESTER;\n    address public _receiverTESTER;\n\n    uint256 public tester_amount_in;\n\n    bool public resumeOperations;\n\n    ////////////////////////////////////////////////////////////////////////\n    ////////////////////////////////////////////////////////////////////////\n\n    /// @notice Constructor initializes the contract with the router address.\n    /// @param _router The address of the router contract.\n    /// @param _link The address of the link contract.\n    constructor(\n        address _router,\n        address _link,\n        address _USDC_ADDRESS,\n        address _aUSDC_ADDRESS,\n        address _WETH_ADDRESS,\n        uint64 _MASTER_CONTRACT_CHAIN_ID,\n        address _MASTER_CONTRACT_ADDRESS,\n        uint64 _NODE_CONTRACT_CHAIN_ID,\n        address _POOL_ADDRESS_PROVIDER_ADDRESS,\n        address _POOL_DATA_PROVIDER_ADDRESS,\n        address _UNISWAP_V3_ROUTER02,\n        bool _isNodeActive,\n        uint16 _uinswapFeePool\n    ) CCIPReceiver(_router) {\n        s_linkToken = IERC20(_link);\n        USDC_ADDRESS = _USDC_ADDRESS;\n        aUSDC_ADDRESS = _aUSDC_ADDRESS;\n        WETH_ADDRESS = _WETH_ADDRESS;\n        MASTER_CONTRACT_CHAIN_ID = _MASTER_CONTRACT_CHAIN_ID;\n        MASTER_CONTRACT_ADDRESS = _MASTER_CONTRACT_ADDRESS;\n        NODE_CONTRACT_CHAIN_ID = _NODE_CONTRACT_CHAIN_ID;\n        POOL_ADDRESS_PROVIDER_ADDRESS = _POOL_ADDRESS_PROVIDER_ADDRESS;\n        POOL_DATA_PROVIDER_ADDRESS = _POOL_DATA_PROVIDER_ADDRESS;\n\n        // uniswap interfaces\n        iSwapRouter02 = ISwapRouter02(_UNISWAP_V3_ROUTER02);\n\n        isNodeActive = _isNodeActive;\n        uinswapFeePool = _uinswapFeePool;\n    }\n\n    // set Allowed Nodes, can only be called once!\n    function setAllowedNodes(\n        address[] memory _allowedNodes\n    ) external onlyOwner {\n        require(_allowedNodes.length > 0, \"You sent an empty array\");\n        require(allowedNodes.length == 0, \"allowedNodes must be empty\");\n        allowedNodes = _allowedNodes;\n    }\n\n    // Internal function to check if an address is in the allowedNodes array\n    function isAllowedAddress(\n        address _nodeOrMaster\n    ) internal view returns (bool) {\n        for (uint16 i = 0; i < allowedNodes.length; i++) {\n            if (allowedNodes[i] == _nodeOrMaster) {\n                return true;\n            }\n        }\n        if (_nodeOrMaster == MASTER_CONTRACT_ADDRESS) {\n            return true;\n        }\n        return false;\n    }\n\n    // Modifier to check if msg.sender is in the allowedNodes array\n    modifier onlyAllowedAddresses(address senderAddress) {\n        require(\n            isAllowedAddress(senderAddress),\n            \"Caller is not an allowed node\"\n        );\n        _;\n    }\n\n    modifier masterAndNodeInSameChain() {\n        require(\n            NODE_CONTRACT_CHAIN_ID == MASTER_CONTRACT_CHAIN_ID,\n            \"Require master and node in same chain\"\n        );\n        _;\n    }\n\n    /////////////////////////////////////////////////////////////////////////\n    ////////////////////////////////////////////////////////////////////////\n    //////////////////////////  RECEIVING MESSAGES  ///////////////////////\n    //////////////////////////////////////////////////////////////////////\n    /////////////////////////////////////////////////////////////////////\n\n    /////////////////////////////////////////////////////////////////////////\n    //////////////////////////  HANDLE WITHDRAW  ///////////////////////////\n    ///////////////////////////  COMMAND = 0  /////////////////////////////\n    //////////////////////////////////////////////////////////////////////\n\n    function _withdraw(Client.Any2EVMMessage memory _any2EvmMessage) internal {\n        (, address transferToUser, uint256 shares) = abi.decode(\n            _any2EvmMessage.data,\n            (uint8, address, uint256)\n        );\n\n        address pool = _getPool(POOL_ADDRESS_PROVIDER_ADDRESS);\n        uint256 totalAusdc = IERC20(aUSDC_ADDRESS).balanceOf(address(this));\n\n        uint256 amount = ((shares * 10 ** 18) * totalAusdc) /\n            aWrpTotalSupplyNodeSide;\n\n        aWrpTotalSupplyNodeSide -= shares;\n\n        if (!isNodeActive) {\n            avaliableForRefund[transferToUser] += shares;\n        } else {\n            IERC20(aUSDC_ADDRESS).approve(pool, amount / 10 ** 18);\n            IPool(pool).withdraw(\n                USDC_ADDRESS,\n                amount / 10 ** 18,\n                transferToUser\n            );\n        }\n    }\n\n    /////////////////////  WITHDRAW MASTER AND NODE IN SAME CHAIN  ///////////////////////\n\n    function withdrawFromSameChain(\n        address transferToUser,\n        uint256 shares\n    ) external masterAndNodeInSameChain {\n        require(\n            msg.sender == MASTER_CONTRACT_ADDRESS,\n            \"Only Master Contract allowed\"\n        );\n\n        address pool = _getPool(POOL_ADDRESS_PROVIDER_ADDRESS);\n        uint256 totalAusdc = IERC20(aUSDC_ADDRESS).balanceOf(address(this));\n\n        /// TESTING ///\n        uint256 amount = ((shares * 10 ** 18) * totalAusdc) /\n            aWrpTotalSupplyNodeSide;\n\n        aWrpTotalSupplyNodeSide -= shares;\n\n        if (!isNodeActive) {\n            avaliableForRefund[transferToUser] += shares;\n        } else {\n            IERC20(aUSDC_ADDRESS).approve(pool, amount / 10 ** 18);\n            IPool(pool).withdraw(\n                USDC_ADDRESS,\n                amount / 10 ** 18,\n                transferToUser\n            );\n        }\n    }\n\n    /////////////////////////////////////////////////////////////////////////\n    ////////////////////////  HANDLE WARP ASSETS  //////////////////////////\n    ///////////////////////////  COMMAND = 1  //////////////////////////////\n    ///////////////////////////////////////////////////////////////////////\n\n    function _warpAssets(\n        Client.Any2EVMMessage memory _any2EvmMessage\n    ) internal {\n        (, uint64 _destinationChainSelector, address _receiver) = abi.decode(\n            _any2EvmMessage.data,\n            (uint8, uint64, address)\n        );\n        uint256 usdcwithdrawn = _assetsAllocationWithdraw(\n            POOL_ADDRESS_PROVIDER_ADDRESS,\n            aUSDC_ADDRESS,\n            USDC_ADDRESS\n        );\n\n        uint8 commandAWRPSupply = 2;\n        bytes memory data = abi.encode(\n            commandAWRPSupply,\n            aWrpTotalSupplyNodeSide\n        );\n\n        isNodeActive = false;\n        _sendMessage(\n            _destinationChainSelector,\n            _receiver,\n            data,\n            USDC_ADDRESS,\n            usdcwithdrawn,\n            true\n        );\n    }\n\n    /////////////  WARP ASSETS MASTER AND NODE IN SAME CHAIN  //////////////\n    function warpAssetsFromSameChain(\n        uint64 _destinationChainSelector,\n        address _receiver\n    ) external {\n        uint256 usdcwithdrawn = _assetsAllocationWithdraw(\n            POOL_ADDRESS_PROVIDER_ADDRESS,\n            aUSDC_ADDRESS,\n            USDC_ADDRESS\n        );\n\n        uint8 commandAWRPSupply = 2;\n        bytes memory data = abi.encode(\n            commandAWRPSupply,\n            aWrpTotalSupplyNodeSide\n        );\n\n        isNodeActive = false;\n        _sendMessage(\n            _destinationChainSelector,\n            _receiver,\n            data,\n            USDC_ADDRESS,\n            usdcwithdrawn,\n            true\n        );\n    }\n\n    /////////////// ONLY FOR TESTING ////////////////////////\n    function warpAssetsTester(\n        uint64 _destinationChainSelector,\n        address _receiver\n    ) public {\n        uint256 usdcwithdrawn = _assetsAllocationWithdraw(\n            POOL_ADDRESS_PROVIDER_ADDRESS,\n            aUSDC_ADDRESS,\n            USDC_ADDRESS\n        );\n\n        uint8 commandAWRPSupply = 2;\n        bytes memory data = abi.encode(\n            commandAWRPSupply,\n            aWrpTotalSupplyNodeSide\n        );\n\n        isNodeActive = false;\n        _sendMessage(\n            _destinationChainSelector,\n            _receiver,\n            data,\n            USDC_ADDRESS,\n            usdcwithdrawn,\n            true\n        );\n    }\n\n    /////////////////////////////////////////////////////////////////////////\n    /////////////////////  HANDLE RESUME OPERATIONS  ///////////////////////\n    ///////////////////////////  COMMAND = 2  //////////////////////////////\n    ///////////////////////////////////////////////////////////////////////\n\n    function _allocateAssetsAndSetAWRPSupply(\n        Client.Any2EVMMessage memory _any2EvmMessage\n    ) internal {\n        (, uint256 _aWrpSupplyFromOldNode) = abi.decode(\n            _any2EvmMessage.data,\n            (uint8, uint256)\n        );\n\n        resumeOperations = true;\n\n        // dont need this here because _assetAllocationDeposit is called in _sendMessage\n        // I left this line commented and not deleted to understand why is not called here\n        //_assetsAllocationDeposit(POOL_ADDRESS_PROVIDER_ADDRESS, USDC_ADDRESS);\n\n        aWrpTotalSupplyNodeSide = _aWrpSupplyFromOldNode;\n\n        uint8 commandResumeOperations = 1;\n        isNodeActive = true;\n\n        bytes memory data = abi.encode(commandResumeOperations);\n\n        if (NODE_CONTRACT_CHAIN_ID == MASTER_CONTRACT_CHAIN_ID) {\n            IMasterNode(MASTER_CONTRACT_ADDRESS)\n                ._resmumeOperationsFromSameChain();\n        } else {\n            _sendMessage(\n                MASTER_CONTRACT_CHAIN_ID,\n                MASTER_CONTRACT_ADDRESS,\n                data,\n                address(0),\n                0,\n                true\n            );\n        }\n    }\n    //////////////////////////////////////////////////////////////////////////\n    /////////////////////////////////////////////////////////////////////////\n    ////////////////////////  INCOMING MESAGE HANDLER  /////////////////////\n    /////////////////  THIS FUNC IS CALLED BY CHAINLINK  //////////////////\n    //////////////////////////////////////////////////////////////////////\n    /////////////////////////////////////////////////////////////////////\n\n    function _ccipReceive(\n        Client.Any2EVMMessage memory _any2EvmMessage\n    )\n        internal\n        override\n        onlyAllowedAddresses(abi.decode(_any2EvmMessage.sender, (address)))\n    {\n        uint8 command = _internalCommandRouter(_any2EvmMessage);\n        commandTESTER = command;\n\n        if (command == 0) {\n            _withdraw(_any2EvmMessage);\n        } else if (command == 1) {\n            _warpAssets(_any2EvmMessage);\n        } else if (command == 2) {\n            _allocateAssetsAndSetAWRPSupply(_any2EvmMessage);\n        } else {\n            revert(\"invalid command\");\n        }\n    }\n    /////////////////////////////////////////////////////////////////////////\n    ////////////////////////////////////////////////////////////////////////\n    ///////////////////////  OUTGOING MESAGES HANDLER  ////////////////////\n    //////////////////////////////////////////////////////////////////////\n    /////////////////////////////////////////////////////////////////////\n\n    function _sendMessage(\n        uint64 _destinationChainSelector,\n        address _receiver,\n        bytes memory _data,\n        address _token,\n        uint256 _amount,\n        bool isPayingNative\n    ) internal onlyAllowedAddresses(_receiver) returns (bytes32 messageId) {\n        // Create an EVM2AnyMessage struct in memory with necessary information for sending a cross-chain message\n        // address(linkToken) means fees are paid in LINK\n        uint256 newAmount;\n        if (_amount > 0) {\n            newAmount = _amount;\n        }\n\n        address tokenFee;\n        if (isPayingNative) {\n            tokenFee = address(0);\n        } else {\n            tokenFee = address(s_linkToken);\n        }\n\n        Client.EVM2AnyMessage memory evm2AnyMessage = _buildCCIPMessage(\n            _receiver,\n            _data,\n            _token,\n            newAmount,\n            tokenFee\n        );\n\n        // Initialize a router client instance to interact with cross-chain router\n        IRouterClient routerCCIP = IRouterClient(this.getRouter());\n\n        // Get the fee required to send the CCIP message\n        uint256 fees = routerCCIP.getFee(\n            _destinationChainSelector,\n            evm2AnyMessage\n        );\n\n        uint256 amountInUsdc;\n        if (isPayingNative) {\n            amountInUsdc = _getNativeFees(fees);\n            if (newAmount > 0) {\n                evm2AnyMessage = _buildCCIPMessage(\n                    _receiver,\n                    _data,\n                    _token,\n                    newAmount - amountInUsdc,\n                    tokenFee\n                );\n            }\n        }\n        tester_amount_in = amountInUsdc;\n\n        if (isPayingNative) {\n            if (fees > address(this).balance) {\n                revert NotEnoughBalance(address(this).balance, fees);\n            }\n        } else {\n            require(\n                s_linkToken.transferFrom(msg.sender, address(this), fees),\n                \"Not provided Link for fees\"\n            );\n            if (fees > s_linkToken.balanceOf(address(this)))\n                revert NotEnoughBalance(\n                    s_linkToken.balanceOf(address(this)),\n                    fees\n                );\n            s_linkToken.approve(address(routerCCIP), fees);\n        }\n\n        // approve the Router to spend tokens on contract's behalf. It will spend the amount of the given token\n        if (_token != address(0)) {\n            IERC20(_token).approve(address(routerCCIP), newAmount);\n        }\n\n        // Send the message through the router and store the returned message ID\n        if (isPayingNative) {\n            messageId = routerCCIP.ccipSend{value: fees}(\n                _destinationChainSelector,\n                evm2AnyMessage\n            );\n        } else {\n            messageId = routerCCIP.ccipSend(\n                _destinationChainSelector,\n                evm2AnyMessage\n            );\n        }\n\n        uint256 usdcBalance = IERC20(USDC_ADDRESS).balanceOf(address(this));\n        if (usdcBalance > 0) {\n            _assetsAllocationDeposit(\n                POOL_ADDRESS_PROVIDER_ADDRESS,\n                USDC_ADDRESS\n            );\n        }\n\n        // Return the message ID\n        return messageId;\n    }\n\n    /// @notice Construct a CCIP message.\n    /// @dev This function will create an EVM2AnyMessage struct with all the necessary information for programmable tokens transfer.\n    /// @param _receiver The address of the receiver.\n    /// @param _data The bytes data to be sent.\n    /// @param _token The token to be transferred.\n    /// @param _amount The amount of the token to be transferred.\n    /// @param _feeTokenAddress The address of the token used for fees. Set address(0) for native gas.\n    /// @return Client.EVM2AnyMessage Returns an EVM2AnyMessage struct which contains information for sending a CCIP message.\n    function _buildCCIPMessage(\n        address _receiver,\n        bytes memory _data,\n        address _token,\n        uint256 _amount,\n        address _feeTokenAddress\n    ) private returns (Client.EVM2AnyMessage memory) {\n        // Set the token amounts\n        Client.EVMTokenAmount[] memory tokenAmounts;\n\n        if (_token == address(0) && _amount == 0) {\n            tokenAmounts = new Client.EVMTokenAmount[](0);\n        } else {\n            tokenAmounts = new Client.EVMTokenAmount[](1);\n            tokenAmounts[0] = Client.EVMTokenAmount({\n                token: _token,\n                amount: _amount\n            });\n        }\n        // Create an EVM2AnyMessage struct in memory with necessary information for sending a cross-chain message\n        return\n            Client.EVM2AnyMessage({\n                receiver: abi.encode(_receiver), // ABI-encoded receiver address\n                data: _data, // ABI-encoded string\n                tokenAmounts: tokenAmounts, // The amount and type of token being transferred\n                extraArgs: Client._argsToBytes(\n                    // Additional arguments, setting gas limit\n                    Client.EVMExtraArgsV1({gasLimit: 2_000_000})\n                ),\n                // Set the feeToken to a feeTokenAddress, indicating specific asset will be used for fees\n                feeToken: _feeTokenAddress\n            });\n    }\n\n    /////////////////////////////////////////////////////////////////////////\n    /////////////////////////////////////////////////////////////////////////\n    //////////////////////////  SENDING MESSAGES  //////////////////////////\n    ///////////////////////////////////////////////////////////////////////\n    //////////////////////////////////////////////////////////////////////\n\n    /////////////////////////////////////////////////////////////////////////\n    ///////////////////////////////   DEPOSIT   ////////////////////////////\n    ///////////////////////////////////////////////////////////////////////\n\n    function deposit(uint256 amount) external {\n        require(\n            IERC20(USDC_ADDRESS).transferFrom(\n                msg.sender,\n                address(this),\n                amount\n            ),\n            \"Failed to transfer amount\"\n        );\n        require(\n            isNodeActive,\n            \"Asets are Warping Now, deposits on new blockchain\"\n        );\n\n        uint256 totalAusdcNode = IERC20(aUSDC_ADDRESS).balanceOf(address(this));\n        uint256 shares;\n        if (aWrpTotalSupplyNodeSide == 0) {\n            shares = amount * 10 ** 12;\n        } else {\n            shares = (amount * aWrpTotalSupplyNodeSide) / totalAusdcNode;\n        }\n\n        aWrpTotalSupplyNodeSide += shares;\n\n        uint8 command = 0;\n        bytes memory data = abi.encode(command, msg.sender, shares);\n\n        address pool = _getPool(POOL_ADDRESS_PROVIDER_ADDRESS);\n        IERC20(USDC_ADDRESS).approve(pool, amount);\n        IPool(pool).deposit(USDC_ADDRESS, amount, address(this), 0);\n\n        if (NODE_CONTRACT_CHAIN_ID == MASTER_CONTRACT_CHAIN_ID) {\n            IMasterNode(MASTER_CONTRACT_ADDRESS).aWarpTokenMinterFromSameChain(\n                msg.sender,\n                shares\n            );\n        } else {\n            _sendMessage(\n                MASTER_CONTRACT_CHAIN_ID,\n                MASTER_CONTRACT_ADDRESS,\n                data,\n                address(0),\n                0,\n                false\n            );\n        }\n    }\n\n    /////////////////////////////////////////////////////////////////////////\n    ///////////////   RECOVER aWRP FROM A FAILED WITHDRAW   ////////////////\n    ///////////////////////////////////////////////////////////////////////\n\n    function recoverAWRPFromFailedWithdraw() external {\n        require(avaliableForRefund[msg.sender] > 0, \"No aWRP tokens to refund\");\n        uint256 sharesToRefund = avaliableForRefund[msg.sender];\n\n        uint8 commandRefundAWRP = 0; // Same command than deposit\n        bytes memory data = abi.encode(\n            commandRefundAWRP,\n            msg.sender,\n            sharesToRefund\n        );\n\n        if (NODE_CONTRACT_CHAIN_ID == MASTER_CONTRACT_CHAIN_ID) {\n            IMasterNode(MASTER_CONTRACT_ADDRESS).aWarpTokenMinterFromSameChain(\n                msg.sender,\n                sharesToRefund\n            );\n        } else {\n            _sendMessage(\n                MASTER_CONTRACT_CHAIN_ID,\n                MASTER_CONTRACT_ADDRESS,\n                data,\n                address(0),\n                0,\n                false\n            );\n        }\n    }\n\n    /////////////////////////////////////////////////////////////////////////\n    /////////////////////   SEND DATA NODE TO MASTER   /////////////////////\n    ///////////////////////////////////////////////////////////////////////\n\n    function sendAaveData() external {\n        (\n            ,\n            ,\n            uint256 totalUsdcSupply,\n            ,\n            uint256 totalUsdcBorrow,\n            uint256 supplyRate,\n            ,\n            ,\n            ,\n            ,\n            ,\n\n        ) = IPoolDataProvider(POOL_DATA_PROVIDER_ADDRESS).getReserveData(\n                USDC_ADDRESS\n            );\n\n        uint8 commandSendAaveData = 2;\n        bytes memory data = abi.encode(\n            commandSendAaveData,\n            totalUsdcSupply,\n            totalUsdcBorrow,\n            supplyRate\n        );\n        if (NODE_CONTRACT_CHAIN_ID == MASTER_CONTRACT_CHAIN_ID) {\n            IMasterNode(MASTER_CONTRACT_ADDRESS).nodeAaveFeedFromSameChain(\n                totalUsdcSupply,\n                totalUsdcBorrow,\n                supplyRate\n            );\n        } else {\n            _sendMessage(\n                MASTER_CONTRACT_CHAIN_ID,\n                MASTER_CONTRACT_ADDRESS,\n                data,\n                address(0),\n                0,\n                false\n            );\n        }\n    }\n\n    /// @notice Fallback function to allow the contract to receive Ether.\n    /// @dev This function has no function body, making it a default function for receiving Ether.\n    /// It is automatically called when Ether is sent to the contract without any data.\n    receive() external payable {}\n\n    /////////////////////////////////////////////////////////////////////////\n    /////////////////////////////   UTILS   ////////////////////////////////\n    ///////////////////////////////////////////////////////////////////////\n\n    function _getNativeFees(uint256 fees) internal returns (uint256) {\n        // Approve the router to spend USDC.\n        uint256 ausdcBalance = IERC20(aUSDC_ADDRESS).balanceOf(address(this));\n        if (ausdcBalance > 0) {\n            _assetsAllocationWithdraw(\n                POOL_ADDRESS_PROVIDER_ADDRESS,\n                aUSDC_ADDRESS,\n                USDC_ADDRESS\n            );\n        }\n\n        uint256 usdcBalance = IERC20(USDC_ADDRESS).balanceOf(address(this));\n        IERC20(USDC_ADDRESS).approve(address(iSwapRouter02), usdcBalance);\n\n        // Set up the parameters for the swap.\n        ISwapRouter02.ExactOutputSingleParams memory params = ISwapRouter02\n            .ExactOutputSingleParams({\n                tokenIn: USDC_ADDRESS,\n                tokenOut: WETH_ADDRESS,\n                fee: uinswapFeePool,\n                recipient: address(this),\n                amountOut: fees,\n                amountInMaximum: usdcBalance, // for testing dont mind slipperage\n                sqrtPriceLimitX96: 0\n            });\n\n        // Execute the swap.\n        uint256 amountIn = iSwapRouter02.exactOutputSingle(params);\n        IWETH9(WETH_ADDRESS).withdraw(fees);\n        return amountIn;\n    }\n\n    //frontend stuff, no impcat in contract\n    function calculateSharesValue(\n        uint256 shares\n    ) external view returns (uint256) {\n        uint256 totalAusdc = IERC20(aUSDC_ADDRESS).balanceOf(address(this));\n\n        uint256 amount = ((shares * 10 ** 18) * totalAusdc) /\n            aWrpTotalSupplyNodeSide;\n\n        return amount / 10 ** 18;\n    }\n}\n",
  "sourcePath": "contracts/Node.sol",
  "type": "contract"
}