{
  "abi": [
    {
      "inputs": [
        {
          "internalType": "address",
          "name": "_router",
          "type": "address"
        },
        {
          "internalType": "address",
          "name": "_link",
          "type": "address"
        },
        {
          "internalType": "address",
          "name": "_USDC_ADDRESS",
          "type": "address"
        },
        {
          "internalType": "address",
          "name": "_aUSDC_ADDRESS",
          "type": "address"
        },
        {
          "internalType": "address",
          "name": "_WETH_ADDRESS",
          "type": "address"
        },
        {
          "internalType": "uint64",
          "name": "_MASTER_CONTRACT_CHAIN_ID",
          "type": "uint64"
        },
        {
          "internalType": "address",
          "name": "_MASTER_CONTRACT_ADDRESS",
          "type": "address"
        },
        {
          "internalType": "uint64",
          "name": "_NODE_CONTRACT_CHAIN_ID",
          "type": "uint64"
        },
        {
          "internalType": "address",
          "name": "_POOL_ADDRESS_PROVIDER_ADDRESS",
          "type": "address"
        },
        {
          "internalType": "address",
          "name": "_POOL_DATA_PROVIDER_ADDRESS",
          "type": "address"
        },
        {
          "internalType": "address",
          "name": "_UNISWAP_V3_ROUTER02",
          "type": "address"
        },
        {
          "internalType": "bool",
          "name": "_isNodeActive",
          "type": "bool"
        },
        {
          "internalType": "uint16",
          "name": "_uinswapFeePool",
          "type": "uint16"
        }
      ],
      "stateMutability": "nonpayable",
      "type": "constructor"
    },
    {
      "inputs": [
        {
          "internalType": "address",
          "name": "router",
          "type": "address"
        }
      ],
      "name": "InvalidRouter",
      "type": "error"
    },
    {
      "inputs": [
        {
          "internalType": "uint256",
          "name": "currentBalance",
          "type": "uint256"
        },
        {
          "internalType": "uint256",
          "name": "calculatedFees",
          "type": "uint256"
        }
      ],
      "name": "NotEnoughBalance",
      "type": "error"
    },
    {
      "anonymous": false,
      "inputs": [
        {
          "indexed": true,
          "internalType": "address",
          "name": "userAddress",
          "type": "address"
        },
        {
          "indexed": true,
          "internalType": "uint256",
          "name": "amountUsdc",
          "type": "uint256"
        },
        {
          "indexed": true,
          "internalType": "uint256",
          "name": "amountAwrp",
          "type": "uint256"
        }
      ],
      "name": "DepositAssets",
      "type": "event"
    },
    {
      "anonymous": false,
      "inputs": [
        {
          "indexed": true,
          "internalType": "address",
          "name": "from",
          "type": "address"
        },
        {
          "indexed": true,
          "internalType": "address",
          "name": "to",
          "type": "address"
        }
      ],
      "name": "OwnershipTransferRequested",
      "type": "event"
    },
    {
      "anonymous": false,
      "inputs": [
        {
          "indexed": true,
          "internalType": "address",
          "name": "from",
          "type": "address"
        },
        {
          "indexed": true,
          "internalType": "address",
          "name": "to",
          "type": "address"
        }
      ],
      "name": "OwnershipTransferred",
      "type": "event"
    },
    {
      "anonymous": false,
      "inputs": [
        {
          "indexed": true,
          "internalType": "uint64",
          "name": "detinationCCIPid",
          "type": "uint64"
        },
        {
          "indexed": true,
          "internalType": "address",
          "name": "destinationNodeAddress",
          "type": "address"
        },
        {
          "indexed": true,
          "internalType": "uint256",
          "name": "amount",
          "type": "uint256"
        }
      ],
      "name": "WarpAssets",
      "type": "event"
    },
    {
      "anonymous": false,
      "inputs": [
        {
          "indexed": true,
          "internalType": "uint8",
          "name": "commandResmueOperations",
          "type": "uint8"
        }
      ],
      "name": "WarpCompletedNodeReady",
      "type": "event"
    },
    {
      "inputs": [],
      "name": "MASTER_CONTRACT_ADDRESS",
      "outputs": [
        {
          "internalType": "address",
          "name": "",
          "type": "address"
        }
      ],
      "stateMutability": "view",
      "type": "function"
    },
    {
      "inputs": [],
      "name": "MASTER_CONTRACT_CHAIN_ID",
      "outputs": [
        {
          "internalType": "uint64",
          "name": "",
          "type": "uint64"
        }
      ],
      "stateMutability": "view",
      "type": "function"
    },
    {
      "inputs": [],
      "name": "NODE_CONTRACT_CHAIN_ID",
      "outputs": [
        {
          "internalType": "uint64",
          "name": "",
          "type": "uint64"
        }
      ],
      "stateMutability": "view",
      "type": "function"
    },
    {
      "inputs": [],
      "name": "POOL_ADDRESS_PROVIDER_ADDRESS",
      "outputs": [
        {
          "internalType": "address",
          "name": "",
          "type": "address"
        }
      ],
      "stateMutability": "view",
      "type": "function"
    },
    {
      "inputs": [],
      "name": "POOL_DATA_PROVIDER_ADDRESS",
      "outputs": [
        {
          "internalType": "address",
          "name": "",
          "type": "address"
        }
      ],
      "stateMutability": "view",
      "type": "function"
    },
    {
      "inputs": [],
      "name": "USDC_ADDRESS",
      "outputs": [
        {
          "internalType": "address",
          "name": "",
          "type": "address"
        }
      ],
      "stateMutability": "view",
      "type": "function"
    },
    {
      "inputs": [],
      "name": "WETH_ADDRESS",
      "outputs": [
        {
          "internalType": "address",
          "name": "",
          "type": "address"
        }
      ],
      "stateMutability": "view",
      "type": "function"
    },
    {
      "inputs": [],
      "name": "aUSDC_ADDRESS",
      "outputs": [
        {
          "internalType": "address",
          "name": "",
          "type": "address"
        }
      ],
      "stateMutability": "view",
      "type": "function"
    },
    {
      "inputs": [],
      "name": "aWrpTotalSupplyNodeSide",
      "outputs": [
        {
          "internalType": "uint256",
          "name": "",
          "type": "uint256"
        }
      ],
      "stateMutability": "view",
      "type": "function"
    },
    {
      "inputs": [],
      "name": "acceptOwnership",
      "outputs": [],
      "stateMutability": "nonpayable",
      "type": "function"
    },
    {
      "inputs": [
        {
          "internalType": "uint256",
          "name": "",
          "type": "uint256"
        }
      ],
      "name": "allowedNodes",
      "outputs": [
        {
          "internalType": "address",
          "name": "",
          "type": "address"
        }
      ],
      "stateMutability": "view",
      "type": "function"
    },
    {
      "inputs": [
        {
          "internalType": "address",
          "name": "",
          "type": "address"
        }
      ],
      "name": "avaliableForRefund",
      "outputs": [
        {
          "internalType": "uint256",
          "name": "",
          "type": "uint256"
        }
      ],
      "stateMutability": "view",
      "type": "function"
    },
    {
      "inputs": [
        {
          "internalType": "uint256",
          "name": "shares",
          "type": "uint256"
        }
      ],
      "name": "calculateSharesValue",
      "outputs": [
        {
          "internalType": "uint256",
          "name": "",
          "type": "uint256"
        }
      ],
      "stateMutability": "view",
      "type": "function"
    },
    {
      "inputs": [
        {
          "components": [
            {
              "internalType": "bytes32",
              "name": "messageId",
              "type": "bytes32"
            },
            {
              "internalType": "uint64",
              "name": "sourceChainSelector",
              "type": "uint64"
            },
            {
              "internalType": "bytes",
              "name": "sender",
              "type": "bytes"
            },
            {
              "internalType": "bytes",
              "name": "data",
              "type": "bytes"
            },
            {
              "components": [
                {
                  "internalType": "address",
                  "name": "token",
                  "type": "address"
                },
                {
                  "internalType": "uint256",
                  "name": "amount",
                  "type": "uint256"
                }
              ],
              "internalType": "struct Client.EVMTokenAmount[]",
              "name": "destTokenAmounts",
              "type": "tuple[]"
            }
          ],
          "internalType": "struct Client.Any2EVMMessage",
          "name": "message",
          "type": "tuple"
        }
      ],
      "name": "ccipReceive",
      "outputs": [],
      "stateMutability": "nonpayable",
      "type": "function"
    },
    {
      "inputs": [
        {
          "internalType": "uint256",
          "name": "amount",
          "type": "uint256"
        }
      ],
      "name": "deposit",
      "outputs": [],
      "stateMutability": "nonpayable",
      "type": "function"
    },
    {
      "inputs": [
        {
          "internalType": "address",
          "name": "poolDAtaProvider",
          "type": "address"
        },
        {
          "internalType": "address",
          "name": "usdcAddress",
          "type": "address"
        }
      ],
      "name": "getAaveSupplyRate",
      "outputs": [
        {
          "internalType": "uint256",
          "name": "",
          "type": "uint256"
        }
      ],
      "stateMutability": "view",
      "type": "function"
    },
    {
      "inputs": [
        {
          "internalType": "uint64",
          "name": "destinationCCIPid",
          "type": "uint64"
        },
        {
          "internalType": "address",
          "name": "receiver",
          "type": "address"
        },
        {
          "internalType": "address",
          "name": "s_linkTokenAddress",
          "type": "address"
        },
        {
          "internalType": "address",
          "name": "routerAddress",
          "type": "address"
        },
        {
          "internalType": "bytes",
          "name": "_data",
          "type": "bytes"
        }
      ],
      "name": "getLinkFees",
      "outputs": [
        {
          "internalType": "uint256",
          "name": "",
          "type": "uint256"
        }
      ],
      "stateMutability": "view",
      "type": "function"
    },
    {
      "inputs": [],
      "name": "getRouter",
      "outputs": [
        {
          "internalType": "address",
          "name": "",
          "type": "address"
        }
      ],
      "stateMutability": "view",
      "type": "function"
    },
    {
      "inputs": [],
      "name": "iSwapRouter02",
      "outputs": [
        {
          "internalType": "contract ISwapRouter02",
          "name": "",
          "type": "address"
        }
      ],
      "stateMutability": "view",
      "type": "function"
    },
    {
      "inputs": [],
      "name": "isNodeActive",
      "outputs": [
        {
          "internalType": "bool",
          "name": "",
          "type": "bool"
        }
      ],
      "stateMutability": "view",
      "type": "function"
    },
    {
      "inputs": [],
      "name": "maxVaultAmount",
      "outputs": [
        {
          "internalType": "uint256",
          "name": "",
          "type": "uint256"
        }
      ],
      "stateMutability": "view",
      "type": "function"
    },
    {
      "inputs": [],
      "name": "owner",
      "outputs": [
        {
          "internalType": "address",
          "name": "",
          "type": "address"
        }
      ],
      "stateMutability": "view",
      "type": "function"
    },
    {
      "inputs": [],
      "name": "recoverAWRPFromFailedWithdraw",
      "outputs": [],
      "stateMutability": "nonpayable",
      "type": "function"
    },
    {
      "inputs": [],
      "name": "sendAaveData",
      "outputs": [],
      "stateMutability": "nonpayable",
      "type": "function"
    },
    {
      "inputs": [
        {
          "internalType": "address[]",
          "name": "_allowedNodes",
          "type": "address[]"
        }
      ],
      "name": "setAllowedNodes",
      "outputs": [],
      "stateMutability": "nonpayable",
      "type": "function"
    },
    {
      "inputs": [
        {
          "internalType": "bytes4",
          "name": "interfaceId",
          "type": "bytes4"
        }
      ],
      "name": "supportsInterface",
      "outputs": [
        {
          "internalType": "bool",
          "name": "",
          "type": "bool"
        }
      ],
      "stateMutability": "pure",
      "type": "function"
    },
    {
      "inputs": [
        {
          "internalType": "address",
          "name": "to",
          "type": "address"
        }
      ],
      "name": "transferOwnership",
      "outputs": [],
      "stateMutability": "nonpayable",
      "type": "function"
    },
    {
      "inputs": [],
      "name": "uinswapFeePool",
      "outputs": [
        {
          "internalType": "uint16",
          "name": "",
          "type": "uint16"
        }
      ],
      "stateMutability": "view",
      "type": "function"
    },
    {
      "inputs": [
        {
          "internalType": "uint64",
          "name": "_destinationChainSelector",
          "type": "uint64"
        },
        {
          "internalType": "address",
          "name": "_receiver",
          "type": "address"
        }
      ],
      "name": "warpAssetsFromSameChain",
      "outputs": [],
      "stateMutability": "nonpayable",
      "type": "function"
    },
    {
      "inputs": [
        {
          "internalType": "address",
          "name": "transferToUser",
          "type": "address"
        },
        {
          "internalType": "uint256",
          "name": "shares",
          "type": "uint256"
        }
      ],
      "name": "withdrawFromSameChain",
      "outputs": [],
      "stateMutability": "nonpayable",
      "type": "function"
    },
    {
      "stateMutability": "payable",
      "type": "receive"
    }
  ],
  "bytecode": "6101c0346200042f57620041c338819003601f8101601f191683016001600160401b0381118482101762000434578392829160405283396101a0928391810103126200042f5762000050816200044a565b916200005f602083016200044a565b91806200006f604082016200044a565b936200007e606083016200044a565b946200008d608084016200044a565b956200009c60a085016200045f565b92620000ab60c086016200044a565b98620000ba60e087016200045f565b986101009a620000cc8c89016200044a565b6101209b620000dd8d8b016200044a565b9261014099620000ef8b8d016200044a565b95610160809d0151998a1515809b036200042f576101809e8f01519b61ffff8d168d036200042f576001600160a01b0399808b161562000416576080523315620003d1578960018060a01b03199b338d60005416176000556501d1a94a2000600255168b60055416176005558d528d528d5260a05260c05260e0528c528a521690600654161760065560ff801960035416911617600355845260405194613d4e9687620004758839608051878181610c550152611548015260a051878181610383015281816105a20152818161094801528181610cf50152818161135d015281816114f001528181611a5101528181611c770152611f0b015260c0518781816103d501528181610466015281816105fb0152818161066f015281816109a101528181610a4c01528181610d4c015281816113b401528181611aea01528181611b7a0152818161256a0152613748015260e0518781816103a9015281816105cf0152818161097501528181610d180152818161138001528181611a74015261237401525186818161088201528181610d7801528181611427015281816116dc0152818161197f01528181611ac301528181611f9001528181612161015281816123ae01528181612eab015281816130c201526133d60152518581816102ba01526112fd015251848181610289015281816106ef0152818161076001528181610ebc015281816113dd015281816118170152818161193801528181611aa201528181611d2d0152818161213f01528181612b8701528181612bf501528181612c4801528181612e4601528181612e8a01528181613080015261338401525183818161030b015281816107cb01528181610c9a01528181610db50152818161123001528181611406015281816117150152818161195e01528181611cd101528181612b2e01526130a1015251828181611dd7015281816126cd01528181612c6d01528181612d470152612d91015251818181611e02015281816126930152612c990152f35b60405162461bcd60e51b815260206004820152601860248201527f43616e6e6f7420736574206f776e657220746f207a65726f00000000000000006044820152606490fd5b6040516335fdcccd60e21b815260006004820152602490fd5b600080fd5b634e487b7160e01b600052604160045260246000fd5b51906001600160a01b03821682036200042f57565b51906001600160401b03821682036200042f5756fe608080604052600436101561001d575b50361561001b57600080fd5b005b600090813560e01c90816301ffc9a7146126fc57508063040141e5146126b75780630e508fff1461267857806315d03dfd1461264f578063168010ed146125bc5780631d34b4ff1461259957806332d3ad5e1461255457806336161eb9146125365780634c8719f314612518578063544b1709146123dd57806367062580146123985780637058a5e71461235457806379ba5097146122b057806385572ffb146115145780638cf19d19146114d05780638da5cb5b146114a957806397652ffe1461132c578063982d1f18146112e757806398b3c1f8146111fd578063a19b24b514611001578063a63ca07614610fbd578063af002db814610cc9578063af25617314610c84578063b0f479a114610c3f578063b6b55f251461071e578063bb09d9b7146106d9578063c330a2ed14610530578063d8bba68f14610261578063e227a140146102285763f2fde38b0361000f573461022557602036600319011261022557610189612751565b610191613cc6565b6001600160a01b03908116903382146101e057600180546001600160a01b031916831790558254167fed8889f560326eb138920d842192f0eb3dd22b4f139c87a2c57538e05bae12788380a380f35b60405162461bcd60e51b815260206004820152601760248201527f43616e6e6f74207472616e7366657220746f2073656c660000000000000000006044820152606490fd5b80fd5b5034610225576020366003190112610225576020906040906001600160a01b03610250612751565b168152600883522054604051908152f35b50346102255780600319360112610225576040516335ea6a7560e01b81526001600160a01b037f0000000000000000000000000000000000000000000000000000000000000000811660048301529061018080826024817f000000000000000000000000000000000000000000000000000000000000000087165afa91821561052557849185936104e8575b50506040516370a0823160e01b8152306004820152916020836024817f000000000000000000000000000000000000000000000000000000000000000088165afa9283156104dd5785936104a5575b5060405193600260208601528260408601528160608601528160808601528360a086015260a0855260c08501946001600160401b038187108188111761048f5787966040527f000000000000000000000000000000000000000000000000000000000000000090808216907f000000000000000000000000000000000000000000000000000000000000000016146000146104595750507f000000000000000000000000000000000000000000000000000000000000000016803b15610455578492836084926040519687958694630453b3ff60e11b86526004860152806024860152604485015260648401525af1801561044a5761043a57505080f35b610443906127f8565b6102255780f35b6040513d84823e3d90fd5b8480fd5b93509350505061048b92507f000000000000000000000000000000000000000000000000000000000000000090613186565b5080f35b634e487b7160e01b600052604160045260246000fd5b9092506020813d82116104d5575b816104c060209383612841565b810103126104d05751913861033c565b600080fd5b3d91506104b3565b6040513d87823e3d90fd5b61050b935080919250903d1061051e575b6105038183612841565b8101906138fb565b50505050505050935050905038806102ed565b503d6104f9565b6040513d86823e3d90fd5b503461022557806003193601126102255733815260086020526040812054156106945733815260086020528060408120546040516105a0816105928433602084016040909392919360608101946000825260018060a01b031660208201520152565b03601f198101835282612841565b7f00000000000000000000000000000000000000000000000000000000000000006001600160401b03808216907f000000000000000000000000000000000000000000000000000000000000000016146000146106655750507f00000000000000000000000000000000000000000000000000000000000000006001600160a01b0316803b156106615760405163011e0fa960e21b8152336004820152602481019290925282908290604490829084905af1801561044a5761043a57505080f35b5050fd5b90915061048b92507f000000000000000000000000000000000000000000000000000000000000000090613186565b60405162461bcd60e51b815260206004820152601860248201527f4e6f206157525020746f6b656e7320746f20726566756e6400000000000000006044820152606490fd5b50346102255780600319360112610225576040517f00000000000000000000000000000000000000000000000000000000000000006001600160a01b03168152602090f35b503461022557602080600319360112610a3e576040516323b872dd60e01b81523360048083019190915230602483015235604482018190526001600160a01b037f000000000000000000000000000000000000000000000000000000000000000081811694929391929182816064818a8a5af1908115610ab9578791610c22575b5015610bdd5760ff6003541615610b7e576040516370a0823160e01b81523060048201529482866024817f000000000000000000000000000000000000000000000000000000000000000088165afa958615610ab9578796610b4f575b506108078587612a30565b6002541115610afa5786600754968715600014610ad857505064e8d4a51000808602908682041486151715610ac457879493929161084786928099612a30565b6007556040805160008682019081523360208201528083018b9052819003918201815294906108799060600186612841565b806108db6108a67f00000000000000000000000000000000000000000000000000000000000000006139b9565b60405163095ea7b360e01b81526001600160a01b0382166004820152602481018c905295909486929091839182906044820190565b03925af1928315610ab9578693610a8b575b505016803b156104555760405163e8eda9df60e01b81526001600160a01b03929092166004830152602482018690523060448301526000606483015284908290608490829084905af1908115610525578491610a77575b50507f00000000000000000000000000000000000000000000000000000000000000006001600160401b03808216907f00000000000000000000000000000000000000000000000000000000000000001614600014610a425750507f000000000000000000000000000000000000000000000000000000000000000016803b15610a3e5760405163011e0fa960e21b8152336004820152602481018590529082908290604490829084905af1801561044a57610a26575b50505b337fecce874b8763e37231b6791dc5866441104332ef19f5de5516a7dc20c041b1ca8480a480f35b610a2f906127f8565b610a3a5782386109fb565b8280fd5b5080fd5b909150610a7192507f000000000000000000000000000000000000000000000000000000000000000090613186565b506109fe565b610a80906127f8565b610a3a578238610944565b81610aaa92903d10610ab2575b610aa28183612841565b810190612a18565b5038806108ed565b503d610a98565b6040513d89823e3d90fd5b634e487b7160e01b88526011600452602488fd5b91610847610af38397969594610aee8b8b61291c565b6129eb565b8099612a30565b60405162461bcd60e51b815260048101849052602760248201527f4e6f64652066757266696c6c6564206e6f206d6f7265206465706f7369747320604482015266185b1b1bddd95960ca1b6064820152608490fd5b9095508281813d8311610b77575b610b678183612841565b810103126104d0575194386107fc565b503d610b5d565b60405162461bcd60e51b815260048101839052603160248201527f4173657473206172652057617270696e67204e6f772c206465706f736974732060448201527037b7103732bb90313637b1b5b1b430b4b760791b6064820152608490fd5b60405162461bcd60e51b815260048101839052601960248201527f4661696c656420746f207472616e7366657220616d6f756e74000000000000006044820152606490fd5b610c399150833d8511610ab257610aa28183612841565b3861079f565b50346102255780600319360112610225576040517f00000000000000000000000000000000000000000000000000000000000000006001600160a01b03168152602090f35b50346102255780600319360112610225576040517f00000000000000000000000000000000000000000000000000000000000000006001600160a01b03168152602090f35b503461022557604036600319011261022557610ce3612751565b60243590610d3e6001600160401b03807f000000000000000000000000000000000000000000000000000000000000000016907f00000000000000000000000000000000000000000000000000000000000000001614612945565b6001600160a01b03610d73337f000000000000000000000000000000000000000000000000000000000000000083161461299f565b610d9c7f00000000000000000000000000000000000000000000000000000000000000006139b9565b6040516370a0823160e01b8152306004820152602093917f00000000000000000000000000000000000000000000000000000000000000008416918581602481865afa908115610fb2578891610f85575b50670de0b6b3a764000090818802888104831489151715610f715790610e129161291c565b610e2988610e2360075480946129eb565b92612a0b565b60075560035460ff16610e575750505050906008929116845252610e5260408320918254612a30565b905580f35b60405163095ea7b360e01b81526001600160a01b038416600482015291900460248201819052959650949091879087908790604490829085905af1948515610f6457610f03968896610f47575b50604051631a4ca37b60e21b81526001600160a01b037f00000000000000000000000000000000000000000000000000000000000000008116600483015260248201949094529290941660448301529094859384929183906064820190565b0393165af18015610f3c57610f1757505080f35b813d8311610f35575b610f2a8183612841565b810103126104d05780f35b503d610f20565b6040513d85823e3d90fd5b610f5d90873d8911610ab257610aa28183612841565b5038610ea4565b50604051903d90823e3d90fd5b634e487b7160e01b8a52601160045260248afd5b90508581813d8311610fab575b610f9c8183612841565b810103126104d0575138610ded565b503d610f92565b6040513d8a823e3d90fd5b50346102255760203660031901126102255760043590600454821015610225576020610fe8836128cf565b905460405160039290921b1c6001600160a01b03168152f35b503461022557602080600319360112610a3e576001600160401b03906004358281116111f957366023820112156111f9578060040135611040816128b8565b9061104e6040519283612841565b80825283820192836024809360051b830101913683116111f55783879101915b8383106111dd5750505050611081613cc6565b81511561119a576004549182611156575194851161114457680100000000000000008511611144575083600455808410611104575b509060048452835b8381106110c9578480f35b82516001600160a01b03167f8a35acfbc15ff81a39ae7d344fd709f28e8600b4aa8c65c6b64bfe7fe36bd19b820155918101916001016110be565b837f8a35acfbc15ff81a39ae7d344fd709f28e8600b4aa8c65c6b64bfe7fe36bd19b91820191015b81811061113957506110b6565b85815560010161112c565b634e487b7160e01b8652604160045285fd5b60405162461bcd60e51b815260048101869052601a818401527f616c6c6f7765644e6f646573206d75737420626520656d7074790000000000006044820152606490fd5b8360176064926040519262461bcd60e51b845260048401528201527f596f752073656e7420616e20656d7074792061727261790000000000000000006044820152fd5b81906111e88461277d565b815201910190869061106e565b8880fd5b8380fd5b50346102255760209081600319360112610225576040516370a0823160e01b8152306004828101919091523583826024817f00000000000000000000000000000000000000000000000000000000000000006001600160a01b03165afa918215610f3c5783926112b8575b50670de0b6b3a764000092838202918083048514901517156112a4575061129b916112929161291c565b600754906129eb565b04604051908152f35b634e487b7160e01b81526011600452602490fd5b9091508381813d83116112e0575b6112d08183612841565b810103126104d057519038611268565b503d6112c6565b50346102255780600319360112610225576040517f00000000000000000000000000000000000000000000000000000000000000006001600160a01b03168152602090f35b503461022557604036600319011261022557611346612791565b61134e612767565b906001600160401b036113a6817f000000000000000000000000000000000000000000000000000000000000000016827f00000000000000000000000000000000000000000000000000000000000000001614612945565b6001600160a01b036113db337f000000000000000000000000000000000000000000000000000000000000000083161461299f565b7f00000000000000000000000000000000000000000000000000000000000000009361147e61144b867f00000000000000000000000000000000000000000000000000000000000000007f0000000000000000000000000000000000000000000000000000000000000000613a12565b8096600754604051906002602083015260408201526040815261146d81612826565b60ff19600354166003558488612a89565b501691167f4ee48ab43d52be2082a80761272f218fe0871f5b8dba97d174ec2db28b3b22188480a480f35b5034610225578060031936011261022557546040516001600160a01b039091168152602090f35b503461022557806003193601126102255760206040516001600160401b037f0000000000000000000000000000000000000000000000000000000000000000168152f35b503461022557600319602036820112610a3e576004356001600160401b03918282116111f95760a0908236030112610a3a577f00000000000000000000000000000000000000000000000000000000000000006001600160a01b0316330361229857604051611582816127c2565b81600401358152602482013583811681036104555760208201526044820135838111610455576115b89060043691850101612862565b90604081019182526064830135848111612294576115dc9060043691860101612862565b92606082019384526084810135908582116121b65701903660238301121561229457600482013561160c816128b8565b9261161a6040519485612841565b8184526024602085019260061b820101903682116111f557602401915b81831061225c5750505060800152516020818051810103126111f95761167b90611676906001600160a01b039061167090602001613960565b16613730565b612a3d565b80516020818051810103126111f957611698602060ff9201613974565b16806118e85750905051606081805181010312610a3e576116bb60208201613974565b5060606116ca60408301613960565b910151906001600160a01b03166117007f00000000000000000000000000000000000000000000000000000000000000006139b9565b6040516370a0823160e01b81523060048201527f00000000000000000000000000000000000000000000000000000000000000006001600160a01b03169190602081602481865afa9081156118dd5786916118ab575b50670de0b6b3a764000090818602868104831487151715610ac4579061177b9161291c565b61178c86610e2360075480946129eb565b60075560035460ff166117b3575050505082526008602052610e5260408320918254612a30565b60405163095ea7b360e01b81526001600160a01b03841660048201529190046024820181905290945092916020908590604490829089905af19283156104dd5761185e9460209461188e575b50604051631a4ca37b60e21b81526001600160a01b037f00000000000000000000000000000000000000000000000000000000000000008116600483015260248201929092529216604483015290928391908290869082906064820190565b03926001600160a01b03165af1801561044a57611879575080f35b602090813d8311610f3557610f2a8183612841565b6118a490853d8711610ab257610aa28183612841565b50386117ff565b90506020813d6020116118d5575b816118c660209383612841565b810103126104d0575138611756565b3d91506118b9565b6040513d88823e3d90fd5b600181036119ff575051606081805181010312610a3a5761190b60208201613974565b506040810151918216908183036111f9576001600160a01b039061193190606001613960565b16906119d77f0000000000000000000000000000000000000000000000000000000000000000936119a3857f00000000000000000000000000000000000000000000000000000000000000007f0000000000000000000000000000000000000000000000000000000000000000613a12565b948591856007549160405192600260208501526040840152604083526119c883612826565b60ff1960035416600355612a89565b507f4ee48ab43d52be2082a80761272f218fe0871f5b8dba97d174ec2db28b3b22188480a480f35b6002036122255751604081805181010312610a3a5780611a23602060409301613974565b500151600755600160ff196003541617600355604051906001602083015260208252611a4e826127dd565b807f000000000000000000000000000000000000000000000000000000000000000016907f00000000000000000000000000000000000000000000000000000000000000001614600014611b785750611ae77f00000000000000000000000000000000000000000000000000000000000000007f0000000000000000000000000000000000000000000000000000000000000000613b8d565b807f00000000000000000000000000000000000000000000000000000000000000006001600160a01b0316803b15611b75578190600460405180948193634cab8a5760e11b83525af1801561044a57611b66575b505b60017fd8fb8e7c260c25e52d8b9c9f1e795c6a98eb972e58c44e482c8f0158f656a04b8280a280f35b611b6f906127f8565b38611b3b565b50fd5b7f0000000000000000000000000000000000000000000000000000000000000000908290611ba861167684613730565b60606080604051611bb8816127c2565b82815282602082015282604082015286838201520152604051611bda816127a7565b8481526040519360018060a01b0316602085015260208452611bfb846127dd565b611c15604051611c0a816127a7565b621e84808152613982565b9160405194611c23866127c2565b855260208501526040840152836060840152608083015260405163b0f479a160e01b8152602081600481305afa9081156105255784916121f6575b506040516320487ded60e01b81529060208280611c9f877f000000000000000000000000000000000000000000000000000000000000000060048401613667565b03816001600160a01b0385165afa9182156104dd5785926121c2575b506040516370a0823160e01b81523060048201527f0000000000000000000000000000000000000000000000000000000000000000906020816024816001600160a01b0386165afa908115610ab957879161218c575b50612139575b506040516370a0823160e01b81523060048201527f0000000000000000000000000000000000000000000000000000000000000000949086906020816024816001600160a01b038b165afa90811561044a578291612107575b5060065460405163095ea7b360e01b81526001600160a01b0390911660048201526024810182905260208180604481010381866001600160a01b038d165af18015610f3c576120e8575b5060405190611dc88261280b565b6001600160a01b0388811683527f0000000000000000000000000000000000000000000000000000000000000000811660208085018281527f000000000000000000000000000000000000000000000000000000000000000061ffff1660408088019182523060608901908152608089018d815260a08a0198895260c08a018b81526006549351635023b4df60e01b81529a51891660048c01529451881660248b0152925162ffffff1660448a0152518616606489015290516084880152945160a487015251831660c48601529093929091839160e49183918891165af18015610f3c576120bd575b50803b15610a3e578190602460405180948193632e1a7d4d60e01b83528960048401525af18015610ab9576120aa575b5047831161208b5783612023575b602091611f33916040519485809481936396f4e9f960e01b83527f000000000000000000000000000000000000000000000000000000000000000060048401613667565b03926001600160a01b03165af1801561044a57611ff8575b506040516370a0823160e01b81523060048201526020816024816001600160a01b0387165afa918215611fec5791611fba575b50611f8a575b50611b3d565b611fb4907f0000000000000000000000000000000000000000000000000000000000000000613b8d565b38611f84565b90506020813d602011611fe4575b81611fd560209383612841565b81010312610a3a575138611f7e565b3d9150611fc8565b604051903d90823e3d90fd5b602090813d831161201c575b61200e8183612841565b81010312610a3a5738611f4b565b503d612004565b60405163095ea7b360e01b81526001600160a01b03831660048201526024810187905260208160448188805af180156104dd579160209391611f339361206e575b5091509150611eef565b61208490853d8711610ab257610aa28183612841565b5038612064565b604051634787a10360e11b815247600482015260248101849052604490fd5b6120b59194506127f8565b849238611ee1565b602090813d83116120e1575b6120d38183612841565b81010312610a3e5738611eb1565b503d6120c9565b6121009060203d602011610ab257610aa28183612841565b5038611dba565b90506020813d602011612131575b8161212260209383612841565b81010312610a3e575138611d70565b3d9150612115565b612185907f0000000000000000000000000000000000000000000000000000000000000000907f0000000000000000000000000000000000000000000000000000000000000000613a12565b5038611d17565b90506020813d6020116121ba575b816121a760209383612841565b810103126121b6575138611d11565b8680fd5b3d915061219a565b9091506020813d6020116121ee575b816121de60209383612841565b8101031261045557519038611cbb565b3d91506121d1565b612218915060203d60201161221e575b6122108183612841565b810190613608565b38611c5e565b503d612206565b60405162461bcd60e51b815260206004820152600f60248201526e1a5b9d985b1a590818dbdb5b585b99608a1b6044820152606490fd5b6040833603126111f55760206040918251612276816127dd565b61227f8661277d565b81528286013583820152815201920191611637565b8580fd5b6040516335fdcccd60e21b8152336004820152602490fd5b50346102255780600319360112610225576001546001600160a01b0380821633036123165782546001600160a01b03198082163390811786559316600155167f8be0079c531659141344cd1fd0a4f28419497f9722a3daafe3b4186f6b6457e08380a380f35b60405162461bcd60e51b815260206004820152601660248201527526bab9ba10313290383937b837b9b2b21037bbb732b960511b6044820152606490fd5b503461022557806003193601126102255760206040516001600160401b037f0000000000000000000000000000000000000000000000000000000000000000168152f35b50346102255780600319360112610225576040517f00000000000000000000000000000000000000000000000000000000000000006001600160a01b03168152602090f35b50346102255760a0366003190112610225576123f7612791565b90612400612767565b6001600160a01b03919060443583811690819003610a3a576064358481168091036111f957608435956001600160401b0387116104555761244a6124cc9596973690600401612862565b6040519360209889961686860152858552612464856127dd565b604051612470816127a7565b88815261248d604051612482816127a7565b620f42408152613982565b926040519661249b886127c2565b8752878701526040860152606085015260808401526040518095819482936320487ded60e01b845260048401613667565b03915afa918215611fec5780926124e8575b5050604051908152f35b9091508282813d8311612511575b6125008183612841565b8101031261022557505138806124de565b503d6124f6565b50346102255780600319360112610225576020600754604051908152f35b50346102255780600319360112610225576020600254604051908152f35b50346102255780600319360112610225576040517f00000000000000000000000000000000000000000000000000000000000000006001600160a01b03168152602090f35b5034610225578060031936011261022557602060ff600354166040519015158152f35b5034610225576040366003190112610225576125d6612751565b6125de612767565b6040516335ea6a7560e01b81526001600160a01b039182166004820152610180929091839183916024918391165afa918215610f3c5760209392612626575050604051908152f35b61263c9250803d1061051e576105038183612841565b50505050505094505050505038806124de565b50346102255780600319360112610225576006546040516001600160a01b039091168152602090f35b5034610225578060031936011261022557602060405161ffff7f0000000000000000000000000000000000000000000000000000000000000000168152f35b50346102255780600319360112610225576040517f00000000000000000000000000000000000000000000000000000000000000006001600160a01b03168152602090f35b905034610a3e576020366003190112610a3e5760043563ffffffff60e01b8116809103610a3a57602092506385572ffb60e01b8114908115612740575b5015158152f35b6301ffc9a760e01b14905038612739565b600435906001600160a01b03821682036104d057565b602435906001600160a01b03821682036104d057565b35906001600160a01b03821682036104d057565b600435906001600160401b03821682036104d057565b602081019081106001600160401b0382111761048f57604052565b60a081019081106001600160401b0382111761048f57604052565b604081019081106001600160401b0382111761048f57604052565b6001600160401b03811161048f57604052565b60e081019081106001600160401b0382111761048f57604052565b606081019081106001600160401b0382111761048f57604052565b90601f801991011681019081106001600160401b0382111761048f57604052565b81601f820112156104d0578035906001600160401b03821161048f5760405192612896601f8401601f191660200185612841565b828452602083830101116104d057816000926020809301838601378301015290565b6001600160401b03811161048f5760051b60200190565b6004548110156129065760046000527f8a35acfbc15ff81a39ae7d344fd709f28e8600b4aa8c65c6b64bfe7fe36bd19b0190600090565b634e487b7160e01b600052603260045260246000fd5b8181029291811591840414171561292f57565b634e487b7160e01b600052601160045260246000fd5b1561294c57565b60405162461bcd60e51b815260206004820152602560248201527f52657175697265206d617374657220616e64206e6f646520696e2073616d652060448201526431b430b4b760d91b6064820152608490fd5b156129a657565b60405162461bcd60e51b815260206004820152601c60248201527f4f6e6c79204d617374657220436f6e747261637420616c6c6f776564000000006044820152606490fd5b81156129f5570490565b634e487b7160e01b600052601260045260246000fd5b9190820391821161292f57565b908160209103126104d0575180151581036104d05790565b9190820180921161292f57565b15612a4457565b60405162461bcd60e51b815260206004820152601d60248201527f43616c6c6572206973206e6f7420616e20616c6c6f776564206e6f64650000006044820152606490fd5b9091600094612a9a61167685613730565b85908061317e575b50612aaf818684876137e8565b946040519463b0f479a160e01b8652602086600481305afa958615610fb257889661315d575b506040516320487ded60e01b81529360208580612af68b8a60048401613667565b03816001600160a01b038b165afa94851561315257899561311e575b506040516370a0823160e01b81523060048201526020816024817f00000000000000000000000000000000000000000000000000000000000000006001600160a01b03165afa908115613021578a916130ec575b5061307b575b6040516370a0823160e01b81523060048201526020816024817f00000000000000000000000000000000000000000000000000000000000000006001600160a01b03165afa908115613021578a91613049575b5060065460405163095ea7b360e01b81526001600160a01b039091166004820152602481018290526020818c81806044810103917f00000000000000000000000000000000000000000000000000000000000000006001600160a01b03165af18015612fe057916020918c9361302c575b5060405190612c3e8261280b565b6001600160a01b037f0000000000000000000000000000000000000000000000000000000000000000811683527f0000000000000000000000000000000000000000000000000000000000000000811684840190815261ffff7f00000000000000000000000000000000000000000000000000000000000000001660408086019182523060608701908152608087018e815260a0880196875260c088018a81526006549351635023b4df60e01b81529851871660048a0152945186166024890152925162ffffff166044880152518416606487015290516084860152925160a485015251811660c48401529193849260e492849291165af1908115613021578a91612fef575b507f00000000000000000000000000000000000000000000000000000000000000006001600160a01b03163b15612feb57604051632e1a7d4d60e01b8152600481018790528a81602481837f00000000000000000000000000000000000000000000000000000000000000006001600160a01b03165af18015612fe057612fcd575b5084612fac575b50505047831161208b576001600160a01b03169081612f38575b505091612e0f9493916020936040518097819582946396f4e9f960e01b845260048401613667565b03926001600160a01b03165af1918215610f64578192612f04575b506040516370a0823160e01b81523060048201526020816024817f00000000000000000000000000000000000000000000000000000000000000006001600160a01b03165afa918215611fec5791612ed2575b50612e855790565b612ecf7f00000000000000000000000000000000000000000000000000000000000000007f0000000000000000000000000000000000000000000000000000000000000000613b8d565b90565b90506020813d602011612efc575b81612eed60209383612841565b810103126104d0575138612e7d565b3d9150612ee0565b9091506020813d602011612f30575b81612f2060209383612841565b810103126104d057519038612e2a565b3d9150612f13565b60405163095ea7b360e01b81526001600160a01b0386166004820152602481019190915290602090829060449082908a905af180156118dd5791612e0f9695939160209593612f8f575b5091938193959650612de7565b612fa590863d8811610ab257610aa28183612841565b5038612f82565b83985090612fbe612fc4949286612a0b565b926137e8565b94388080612dcd565b612fd9909a919a6127f8565b9838612dc6565b6040513d8d823e3d90fd5b8980fd5b90506020813d602011613019575b8161300a60209383612841565b81010312612feb575138612d44565b3d9150612ffd565b6040513d8c823e3d90fd5b61304290833d8511610ab257610aa28183612841565b5038612c30565b90506020813d602011613073575b8161306460209383612841565b81010312612feb575138612bbf565b3d9150613057565b6130e67f00000000000000000000000000000000000000000000000000000000000000007f00000000000000000000000000000000000000000000000000000000000000007f0000000000000000000000000000000000000000000000000000000000000000613a12565b50612b6c565b90506020813d602011613116575b8161310760209383612841565b81010312612feb575138612b66565b3d91506130fa565b9094506020813d60201161314a575b8161313a60209383612841565b810103126111f557519338612b12565b3d915061312d565b6040513d8b823e3d90fd5b61317791965060203d60201161221e576122108183612841565b9438612ad5565b905038612aa2565b92909161319561167684613730565b600554604080516001600160a01b0392831696919390916131b5836127c2565b60609182845288602093808587015280888701528060806000978883820152015287516131e1816127a7565b8681528789519b16868c0152858b526131f98b6127dd565b6132078951611c0a816127a7565b9389519b6132148d6127c2565b8c52868c0152888b01528901526080880152845163b0f479a160e01b815297600491838a8481305afa998a156135fe5761327198999a879187916135e1575b501691848b8951809b81926320487ded60e01b835286898401613667565b0381865afa98891561348c5786996135b2575b5087516323b872dd60e01b815233858201908152306020820152604081018b90529091869183919082908a90829060600103925af190811561348c578691613595575b50156135525785600554168751986370a0823160e01b998a815230868201528681602481865afa908115613548578891613517575b50811161349657885163095ea7b360e01b81526001600160a01b038516868201908152602081019290925291869183919082908a90829060400103925af1801561348c579185939161336b9b9c9361346f575b50868951809c819582946396f4e9f960e01b8452898401613667565b03925af1968715613465578397613436575b50819060247f000000000000000000000000000000000000000000000000000000000000000097875196879384928352309083015289165afa93841561342b575081936133fa575b5050506133d0575090565b612ecf907f0000000000000000000000000000000000000000000000000000000000000000613b8d565b9091809350813d8311613424575b6134128183612841565b810103126102255750513880806133c5565b503d613408565b51913d9150823e3d90fd5b9096508181813d831161345e575b61344e8183612841565b81010312610a3a5751958161337d565b503d613444565b85513d85823e3d90fd5b61348590853d8711610ab257610aa28183612841565b503861334f565b88513d88823e3d90fd5b8490868a8994828e60248451809481938252308a8301525afa92831561350d5786936134d9575b505051634787a10360e11b815292830152602482015260449150fd5b9080929350813d8311613506575b6134f18183612841565b810103126104555760449450519085806134bd565b503d6134e7565b82513d88823e3d90fd5b90508681813d8311613541575b61352e8183612841565b8101031261353d5751386132fc565b8780fd5b503d613524565b8a513d8a823e3d90fd5b865162461bcd60e51b8152808401859052601a60248201527f4e6f742070726f7669646564204c696e6b20666f7220666565730000000000006044820152606490fd5b6135ac9150853d8711610ab257610aa28183612841565b386132c7565b9098508481813d83116135da575b6135ca8183612841565b8101031261229457519784613284565b503d6135c0565b6135f89150863d881161221e576122108183612841565b38613253565b87513d87823e3d90fd5b908160209103126104d057516001600160a01b03811681036104d05790565b919082519283825260005b848110613653575050826000602080949584010152601f8019910116010190565b602081830181015184830182015201613632565b906001600160401b039093929316815260406020918183820152613696855160a08484015260e0830190613627565b916136b28487015193603f199485858303016060860152613627565b8187015194848483030160808501528080875193848152019601926000905b83821061370757505050505060c06080612ecf959660018060a01b0360608201511660a085015201519282850301910152613627565b845180516001600160a01b031689528301518884015296870196938201936001909101906136d1565b600060048054915b8261ffff821610613783575050507f00000000000000000000000000000000000000000000000000000000000000006001600160a01b0390811691161461377e57600090565b600190565b61378c816128cf565b905460039190911b1c6001600160a01b03908116908516146137d25761ffff8091169081146137bd57600101613738565b601182634e487b7160e01b6000525260246000fd5b50505050600190565b8051156129065760200190565b9291906040918251926137fa846127c2565b606092838552602095848787015284838701528460806000978883820152015260018060a01b038094168015806138f3575b15613885575050815161383e816127a7565b858152925b8251971686880152858752613857876127dd565b6138658251611c0a816127a7565b95825197613872896127c2565b8852870152850152830152608082015290565b839491945190613894826127dd565b6001825288885b8181106138d2575050906138cc9181968651916138b7836127dd565b82528a8201526138c6826137db565b526137db565b50613843565b86516138dd816127dd565b8a81528a8382015282828601015201899061389b565b50811561382c565b9190826101809103126104d05781519160208101519160408201519160608101519160808201519160a08101519160c08201519160e081015191610100820151916101208101519161016061014083015192015164ffffffffff811681036104d05790565b51906001600160a01b03821682036104d057565b519060ff821682036104d057565b604051906397a657c960e01b602083015251602482015260248152606081018181106001600160401b0382111761048f5760405290565b60405163026b1d5f60e01b815290602090829060049082906001600160a01b03165afa908115613a06576000916139ee575090565b612ecf915060203d811161221e576122108183612841565b6040513d6000823e3d90fd5b604080516370a0823160e01b815230600482015293949390926020926001600160a01b039182169291908483602481875afa928315613b5157600093613b5c575b50613a5d906139b9565b855163095ea7b360e01b81526001600160a01b03821660048201526024810184905290938590829060449082906000905af18015613b5157859492613ae398999492600092613b34575b508751631a4ca37b60e21b81526001600160a01b0390951660048601526024850192909252306044850152929687938492909183906064820190565b0393165af1918215613b2a5750600091613afe575b50905090565b82813d8311613b23575b613b128183612841565b810103126102255750518038613af8565b503d613b08565b513d6000823e3d90fd5b613b4a90873d8911610ab257610aa28183612841565b5038613aa7565b86513d6000823e3d90fd5b90928582813d8311613b86575b613b738183612841565b8101031261022557505191613a5d613a53565b503d613b69565b604080516370a0823160e01b815230600482015290916001600160a01b0390848216906020908185602481865afa948515613b5157600095613c95575b50613bd4906139b9565b855163095ea7b360e01b81526001600160a01b03821660048201526024810186905290928290829060449082906000905af18015613b5157613c77575b50501692833b156104d057825163e8eda9df60e01b81526001600160a01b03919091166004820152602481019190915230604482015260006064820181905290928390608490829084905af1908115613b2a5750613c6c5750565b613c75906127f8565b565b81613c8d92903d10610ab257610aa28183612841565b503880613c11565b90948282813d8311613cbf575b613cac8183612841565b8101031261022557505193613bd4613bca565b503d613ca2565b6000546001600160a01b03163303613cda57565b60405162461bcd60e51b815260206004820152601660248201527527b7363c9031b0b63630b1363290313c9037bbb732b960511b6044820152606490fdfea26469706673582212205c64eb3caa722d1898a6a566dc036dbc46ef9aaeac2320995053b8ad4e9cc61764736f6c63430008130033",
  "bytecodeSha1": "2cd469e461c63aaee354325210b11d1c4eda7d02",
  "compiler": {
    "evm_version": "istanbul",
    "optimizer": {
      "enabled": true,
      "runs": 200
    },
    "version": "0.8.19+commit.7dd6d404"
  },
  "contractName": "Node",
  "language": "Solidity",
  "natspec": {
    "kind": "dev",
    "methods": {
      "acceptOwnership()": {
        "notice": "Allows an ownership transfer to be completed by the recipient."
      },
      "ccipReceive((bytes32,uint64,bytes,bytes,(address,uint256)[]))": {
        "details": "Note ensure you check the msg.sender is the OffRampRouter",
        "notice": "Called by the Router to deliver a message. If this reverts, any token transfers also revert. The message will move to a FAILED state and become available for manual execution.",
        "params": {
          "message": "CCIP Message"
        }
      },
      "getRouter()": {
        "notice": "Return the current router",
        "returns": {
          "_0": "CCIP router address"
        }
      },
      "owner()": {
        "notice": "Get the current owner"
      },
      "supportsInterface(bytes4)": {
        "details": "Should indicate whether the contract implements IAny2EVMMessageReceiver e.g. return interfaceId == type(IAny2EVMMessageReceiver).interfaceId || interfaceId == type(IERC165).interfaceId This allows CCIP to check if ccipReceive is available before calling it. If this returns false or reverts, only tokens are transferred to the receiver. If this returns true, tokens are transferred and ccipReceive is called atomically. Additionally, if the receiver address does not have code associated with it at the time of execution (EXTCODESIZE returns 0), only tokens will be transferred.",
        "notice": "IERC165 supports an interfaceId",
        "params": {
          "interfaceId": "The interfaceId to check"
        },
        "returns": {
          "_0": "true if the interfaceId is supported"
        }
      },
      "transferOwnership(address)": {
        "notice": "Allows an owner to begin transferring ownership to a new address."
      }
    },
    "version": 1
  },
  "opcodes": "PUSH1 0x80 DUP1 PUSH1 0x40 MSTORE PUSH1 0x4 CALLDATASIZE LT ISZERO PUSH2 0x1D JUMPI JUMPDEST POP CALLDATASIZE ISZERO PUSH2 0x1B JUMPI PUSH1 0x0 DUP1 REVERT JUMPDEST STOP JUMPDEST PUSH1 0x0 SWAP1 DUP2 CALLDATALOAD PUSH1 0xE0 SHR SWAP1 DUP2 PUSH4 0x1FFC9A7 EQ PUSH2 0x26FC JUMPI POP DUP1 PUSH4 0x40141E5 EQ PUSH2 0x26B7 JUMPI DUP1 PUSH4 0xE508FFF EQ PUSH2 0x2678 JUMPI DUP1 PUSH4 0x15D03DFD EQ PUSH2 0x264F JUMPI DUP1 PUSH4 0x168010ED EQ PUSH2 0x25BC JUMPI DUP1 PUSH4 0x1D34B4FF EQ PUSH2 0x2599 JUMPI DUP1 PUSH4 0x32D3AD5E EQ PUSH2 0x2554 JUMPI DUP1 PUSH4 0x36161EB9 EQ PUSH2 0x2536 JUMPI DUP1 PUSH4 0x4C8719F3 EQ PUSH2 0x2518 JUMPI DUP1 PUSH4 0x544B1709 EQ PUSH2 0x23DD JUMPI DUP1 PUSH4 0x67062580 EQ PUSH2 0x2398 JUMPI DUP1 PUSH4 0x7058A5E7 EQ PUSH2 0x2354 JUMPI DUP1 PUSH4 0x79BA5097 EQ PUSH2 0x22B0 JUMPI DUP1 PUSH4 0x85572FFB EQ PUSH2 0x1514 JUMPI DUP1 PUSH4 0x8CF19D19 EQ PUSH2 0x14D0 JUMPI DUP1 PUSH4 0x8DA5CB5B EQ PUSH2 0x14A9 JUMPI DUP1 PUSH4 0x97652FFE EQ PUSH2 0x132C JUMPI DUP1 PUSH4 0x982D1F18 EQ PUSH2 0x12E7 JUMPI DUP1 PUSH4 0x98B3C1F8 EQ PUSH2 0x11FD JUMPI DUP1 PUSH4 0xA19B24B5 EQ PUSH2 0x1001 JUMPI DUP1 PUSH4 0xA63CA076 EQ PUSH2 0xFBD JUMPI DUP1 PUSH4 0xAF002DB8 EQ PUSH2 0xCC9 JUMPI DUP1 PUSH4 0xAF256173 EQ PUSH2 0xC84 JUMPI DUP1 PUSH4 0xB0F479A1 EQ PUSH2 0xC3F JUMPI DUP1 PUSH4 0xB6B55F25 EQ PUSH2 0x71E JUMPI DUP1 PUSH4 0xBB09D9B7 EQ PUSH2 0x6D9 JUMPI DUP1 PUSH4 0xC330A2ED EQ PUSH2 0x530 JUMPI DUP1 PUSH4 0xD8BBA68F EQ PUSH2 0x261 JUMPI DUP1 PUSH4 0xE227A140 EQ PUSH2 0x228 JUMPI PUSH4 0xF2FDE38B SUB PUSH2 0xF JUMPI CALLVALUE PUSH2 0x225 JUMPI PUSH1 0x20 CALLDATASIZE PUSH1 0x3 NOT ADD SLT PUSH2 0x225 JUMPI PUSH2 0x189 PUSH2 0x2751 JUMP JUMPDEST PUSH2 0x191 PUSH2 0x3CC6 JUMP JUMPDEST PUSH1 0x1 PUSH1 0x1 PUSH1 0xA0 SHL SUB SWAP1 DUP2 AND SWAP1 CALLER DUP3 EQ PUSH2 0x1E0 JUMPI PUSH1 0x1 DUP1 SLOAD PUSH1 0x1 PUSH1 0x1 PUSH1 0xA0 SHL SUB NOT AND DUP4 OR SWAP1 SSTORE DUP3 SLOAD AND PUSH32 0xED8889F560326EB138920D842192F0EB3DD22B4F139C87A2C57538E05BAE1278 DUP4 DUP1 LOG3 DUP1 RETURN JUMPDEST PUSH1 0x40 MLOAD PUSH3 0x461BCD PUSH1 0xE5 SHL DUP2 MSTORE PUSH1 0x20 PUSH1 0x4 DUP3 ADD MSTORE PUSH1 0x17 PUSH1 0x24 DUP3 ADD MSTORE PUSH32 0x43616E6E6F74207472616E7366657220746F2073656C66000000000000000000 PUSH1 0x44 DUP3 ADD MSTORE PUSH1 0x64 SWAP1 REVERT JUMPDEST DUP1 REVERT JUMPDEST POP CALLVALUE PUSH2 0x225 JUMPI PUSH1 0x20 CALLDATASIZE PUSH1 0x3 NOT ADD SLT PUSH2 0x225 JUMPI PUSH1 0x20 SWAP1 PUSH1 0x40 SWAP1 PUSH1 0x1 PUSH1 0x1 PUSH1 0xA0 SHL SUB PUSH2 0x250 PUSH2 0x2751 JUMP JUMPDEST AND DUP2 MSTORE PUSH1 0x8 DUP4 MSTORE KECCAK256 SLOAD PUSH1 0x40 MLOAD SWAP1 DUP2 MSTORE RETURN JUMPDEST POP CALLVALUE PUSH2 0x225 JUMPI DUP1 PUSH1 0x3 NOT CALLDATASIZE ADD SLT PUSH2 0x225 JUMPI PUSH1 0x40 MLOAD PUSH4 0x35EA6A75 PUSH1 0xE0 SHL DUP2 MSTORE PUSH1 0x1 PUSH1 0x1 PUSH1 0xA0 SHL SUB PUSH32 0x0 DUP2 AND PUSH1 0x4 DUP4 ADD MSTORE SWAP1 PUSH2 0x180 DUP1 DUP3 PUSH1 0x24 DUP2 PUSH32 0x0 DUP8 AND GAS STATICCALL SWAP2 DUP3 ISZERO PUSH2 0x525 JUMPI DUP5 SWAP2 DUP6 SWAP4 PUSH2 0x4E8 JUMPI JUMPDEST POP POP PUSH1 0x40 MLOAD PUSH4 0x70A08231 PUSH1 0xE0 SHL DUP2 MSTORE ADDRESS PUSH1 0x4 DUP3 ADD MSTORE SWAP2 PUSH1 0x20 DUP4 PUSH1 0x24 DUP2 PUSH32 0x0 DUP9 AND GAS STATICCALL SWAP3 DUP4 ISZERO PUSH2 0x4DD JUMPI DUP6 SWAP4 PUSH2 0x4A5 JUMPI JUMPDEST POP PUSH1 0x40 MLOAD SWAP4 PUSH1 0x2 PUSH1 0x20 DUP7 ADD MSTORE DUP3 PUSH1 0x40 DUP7 ADD MSTORE DUP2 PUSH1 0x60 DUP7 ADD MSTORE DUP2 PUSH1 0x80 DUP7 ADD MSTORE DUP4 PUSH1 0xA0 DUP7 ADD MSTORE PUSH1 0xA0 DUP6 MSTORE PUSH1 0xC0 DUP6 ADD SWAP5 PUSH1 0x1 PUSH1 0x1 PUSH1 0x40 SHL SUB DUP2 DUP8 LT DUP2 DUP9 GT OR PUSH2 0x48F JUMPI DUP8 SWAP7 PUSH1 0x40 MSTORE PUSH32 0x0 SWAP1 DUP1 DUP3 AND SWAP1 PUSH32 0x0 AND EQ PUSH1 0x0 EQ PUSH2 0x459 JUMPI POP POP PUSH32 0x0 AND DUP1 EXTCODESIZE ISZERO PUSH2 0x455 JUMPI DUP5 SWAP3 DUP4 PUSH1 0x84 SWAP3 PUSH1 0x40 MLOAD SWAP7 DUP8 SWAP6 DUP7 SWAP5 PUSH4 0x453B3FF PUSH1 0xE1 SHL DUP7 MSTORE PUSH1 0x4 DUP7 ADD MSTORE DUP1 PUSH1 0x24 DUP7 ADD MSTORE PUSH1 0x44 DUP6 ADD MSTORE PUSH1 0x64 DUP5 ADD MSTORE GAS CALL DUP1 ISZERO PUSH2 0x44A JUMPI PUSH2 0x43A JUMPI POP POP DUP1 RETURN JUMPDEST PUSH2 0x443 SWAP1 PUSH2 0x27F8 JUMP JUMPDEST PUSH2 0x225 JUMPI DUP1 RETURN JUMPDEST PUSH1 0x40 MLOAD RETURNDATASIZE DUP5 DUP3 RETURNDATACOPY RETURNDATASIZE SWAP1 REVERT JUMPDEST DUP5 DUP1 REVERT JUMPDEST SWAP4 POP SWAP4 POP POP POP PUSH2 0x48B SWAP3 POP PUSH32 0x0 SWAP1 PUSH2 0x3186 JUMP JUMPDEST POP DUP1 RETURN JUMPDEST PUSH4 0x4E487B71 PUSH1 0xE0 SHL PUSH1 0x0 MSTORE PUSH1 0x41 PUSH1 0x4 MSTORE PUSH1 0x24 PUSH1 0x0 REVERT JUMPDEST SWAP1 SWAP3 POP PUSH1 0x20 DUP2 RETURNDATASIZE DUP3 GT PUSH2 0x4D5 JUMPI JUMPDEST DUP2 PUSH2 0x4C0 PUSH1 0x20 SWAP4 DUP4 PUSH2 0x2841 JUMP JUMPDEST DUP2 ADD SUB SLT PUSH2 0x4D0 JUMPI MLOAD SWAP2 CODESIZE PUSH2 0x33C JUMP JUMPDEST PUSH1 0x0 DUP1 REVERT JUMPDEST RETURNDATASIZE SWAP2 POP PUSH2 0x4B3 JUMP JUMPDEST PUSH1 0x40 MLOAD RETURNDATASIZE DUP8 DUP3 RETURNDATACOPY RETURNDATASIZE SWAP1 REVERT JUMPDEST PUSH2 0x50B SWAP4 POP DUP1 SWAP2 SWAP3 POP SWAP1 RETURNDATASIZE LT PUSH2 0x51E JUMPI JUMPDEST PUSH2 0x503 DUP2 DUP4 PUSH2 0x2841 JUMP JUMPDEST DUP2 ADD SWAP1 PUSH2 0x38FB JUMP JUMPDEST POP POP POP POP POP POP POP SWAP4 POP POP SWAP1 POP CODESIZE DUP1 PUSH2 0x2ED JUMP JUMPDEST POP RETURNDATASIZE PUSH2 0x4F9 JUMP JUMPDEST PUSH1 0x40 MLOAD RETURNDATASIZE DUP7 DUP3 RETURNDATACOPY RETURNDATASIZE SWAP1 REVERT JUMPDEST POP CALLVALUE PUSH2 0x225 JUMPI DUP1 PUSH1 0x3 NOT CALLDATASIZE ADD SLT PUSH2 0x225 JUMPI CALLER DUP2 MSTORE PUSH1 0x8 PUSH1 0x20 MSTORE PUSH1 0x40 DUP2 KECCAK256 SLOAD ISZERO PUSH2 0x694 JUMPI CALLER DUP2 MSTORE PUSH1 0x8 PUSH1 0x20 MSTORE DUP1 PUSH1 0x40 DUP2 KECCAK256 SLOAD PUSH1 0x40 MLOAD PUSH2 0x5A0 DUP2 PUSH2 0x592 DUP5 CALLER PUSH1 0x20 DUP5 ADD PUSH1 0x40 SWAP1 SWAP4 SWAP3 SWAP2 SWAP4 PUSH1 0x60 DUP2 ADD SWAP5 PUSH1 0x0 DUP3 MSTORE PUSH1 0x1 DUP1 PUSH1 0xA0 SHL SUB AND PUSH1 0x20 DUP3 ADD MSTORE ADD MSTORE JUMP JUMPDEST SUB PUSH1 0x1F NOT DUP2 ADD DUP4 MSTORE DUP3 PUSH2 0x2841 JUMP JUMPDEST PUSH32 0x0 PUSH1 0x1 PUSH1 0x1 PUSH1 0x40 SHL SUB DUP1 DUP3 AND SWAP1 PUSH32 0x0 AND EQ PUSH1 0x0 EQ PUSH2 0x665 JUMPI POP POP PUSH32 0x0 PUSH1 0x1 PUSH1 0x1 PUSH1 0xA0 SHL SUB AND DUP1 EXTCODESIZE ISZERO PUSH2 0x661 JUMPI PUSH1 0x40 MLOAD PUSH4 0x11E0FA9 PUSH1 0xE2 SHL DUP2 MSTORE CALLER PUSH1 0x4 DUP3 ADD MSTORE PUSH1 0x24 DUP2 ADD SWAP3 SWAP1 SWAP3 MSTORE DUP3 SWAP1 DUP3 SWAP1 PUSH1 0x44 SWAP1 DUP3 SWAP1 DUP5 SWAP1 GAS CALL DUP1 ISZERO PUSH2 0x44A JUMPI PUSH2 0x43A JUMPI POP POP DUP1 RETURN JUMPDEST POP POP REVERT JUMPDEST SWAP1 SWAP2 POP PUSH2 0x48B SWAP3 POP PUSH32 0x0 SWAP1 PUSH2 0x3186 JUMP JUMPDEST PUSH1 0x40 MLOAD PUSH3 0x461BCD PUSH1 0xE5 SHL DUP2 MSTORE PUSH1 0x20 PUSH1 0x4 DUP3 ADD MSTORE PUSH1 0x18 PUSH1 0x24 DUP3 ADD MSTORE PUSH32 0x4E6F206157525020746F6B656E7320746F20726566756E640000000000000000 PUSH1 0x44 DUP3 ADD MSTORE PUSH1 0x64 SWAP1 REVERT JUMPDEST POP CALLVALUE PUSH2 0x225 JUMPI DUP1 PUSH1 0x3 NOT CALLDATASIZE ADD SLT PUSH2 0x225 JUMPI PUSH1 0x40 MLOAD PUSH32 0x0 PUSH1 0x1 PUSH1 0x1 PUSH1 0xA0 SHL SUB AND DUP2 MSTORE PUSH1 0x20 SWAP1 RETURN JUMPDEST POP CALLVALUE PUSH2 0x225 JUMPI PUSH1 0x20 DUP1 PUSH1 0x3 NOT CALLDATASIZE ADD SLT PUSH2 0xA3E JUMPI PUSH1 0x40 MLOAD PUSH4 0x23B872DD PUSH1 0xE0 SHL DUP2 MSTORE CALLER PUSH1 0x4 DUP1 DUP4 ADD SWAP2 SWAP1 SWAP2 MSTORE ADDRESS PUSH1 0x24 DUP4 ADD MSTORE CALLDATALOAD PUSH1 0x44 DUP3 ADD DUP2 SWAP1 MSTORE PUSH1 0x1 PUSH1 0x1 PUSH1 0xA0 SHL SUB PUSH32 0x0 DUP2 DUP2 AND SWAP5 SWAP3 SWAP4 SWAP2 SWAP3 SWAP2 DUP3 DUP2 PUSH1 0x64 DUP2 DUP11 DUP11 GAS CALL SWAP1 DUP2 ISZERO PUSH2 0xAB9 JUMPI DUP8 SWAP2 PUSH2 0xC22 JUMPI JUMPDEST POP ISZERO PUSH2 0xBDD JUMPI PUSH1 0xFF PUSH1 0x3 SLOAD AND ISZERO PUSH2 0xB7E JUMPI PUSH1 0x40 MLOAD PUSH4 0x70A08231 PUSH1 0xE0 SHL DUP2 MSTORE ADDRESS PUSH1 0x4 DUP3 ADD MSTORE SWAP5 DUP3 DUP7 PUSH1 0x24 DUP2 PUSH32 0x0 DUP9 AND GAS STATICCALL SWAP6 DUP7 ISZERO PUSH2 0xAB9 JUMPI DUP8 SWAP7 PUSH2 0xB4F JUMPI JUMPDEST POP PUSH2 0x807 DUP6 DUP8 PUSH2 0x2A30 JUMP JUMPDEST PUSH1 0x2 SLOAD GT ISZERO PUSH2 0xAFA JUMPI DUP7 PUSH1 0x7 SLOAD SWAP7 DUP8 ISZERO PUSH1 0x0 EQ PUSH2 0xAD8 JUMPI POP POP PUSH5 0xE8D4A51000 DUP1 DUP7 MUL SWAP1 DUP7 DUP3 DIV EQ DUP7 ISZERO OR ISZERO PUSH2 0xAC4 JUMPI DUP8 SWAP5 SWAP4 SWAP3 SWAP2 PUSH2 0x847 DUP7 SWAP3 DUP1 SWAP10 PUSH2 0x2A30 JUMP JUMPDEST PUSH1 0x7 SSTORE PUSH1 0x40 DUP1 MLOAD PUSH1 0x0 DUP7 DUP3 ADD SWAP1 DUP2 MSTORE CALLER PUSH1 0x20 DUP3 ADD MSTORE DUP1 DUP4 ADD DUP12 SWAP1 MSTORE DUP2 SWAP1 SUB SWAP2 DUP3 ADD DUP2 MSTORE SWAP5 SWAP1 PUSH2 0x879 SWAP1 PUSH1 0x60 ADD DUP7 PUSH2 0x2841 JUMP JUMPDEST DUP1 PUSH2 0x8DB PUSH2 0x8A6 PUSH32 0x0 PUSH2 0x39B9 JUMP JUMPDEST PUSH1 0x40 MLOAD PUSH4 0x95EA7B3 PUSH1 0xE0 SHL DUP2 MSTORE PUSH1 0x1 PUSH1 0x1 PUSH1 0xA0 SHL SUB DUP3 AND PUSH1 0x4 DUP3 ADD MSTORE PUSH1 0x24 DUP2 ADD DUP13 SWAP1 MSTORE SWAP6 SWAP1 SWAP5 DUP7 SWAP3 SWAP1 SWAP2 DUP4 SWAP2 DUP3 SWAP1 PUSH1 0x44 DUP3 ADD SWAP1 JUMP JUMPDEST SUB SWAP3 GAS CALL SWAP3 DUP4 ISZERO PUSH2 0xAB9 JUMPI DUP7 SWAP4 PUSH2 0xA8B JUMPI JUMPDEST POP POP AND DUP1 EXTCODESIZE ISZERO PUSH2 0x455 JUMPI PUSH1 0x40 MLOAD PUSH4 0xE8EDA9DF PUSH1 0xE0 SHL DUP2 MSTORE PUSH1 0x1 PUSH1 0x1 PUSH1 0xA0 SHL SUB SWAP3 SWAP1 SWAP3 AND PUSH1 0x4 DUP4 ADD MSTORE PUSH1 0x24 DUP3 ADD DUP7 SWAP1 MSTORE ADDRESS PUSH1 0x44 DUP4 ADD MSTORE PUSH1 0x0 PUSH1 0x64 DUP4 ADD MSTORE DUP5 SWAP1 DUP3 SWAP1 PUSH1 0x84 SWAP1 DUP3 SWAP1 DUP5 SWAP1 GAS CALL SWAP1 DUP2 ISZERO PUSH2 0x525 JUMPI DUP5 SWAP2 PUSH2 0xA77 JUMPI JUMPDEST POP POP PUSH32 0x0 PUSH1 0x1 PUSH1 0x1 PUSH1 0x40 SHL SUB DUP1 DUP3 AND SWAP1 PUSH32 0x0 AND EQ PUSH1 0x0 EQ PUSH2 0xA42 JUMPI POP POP PUSH32 0x0 AND DUP1 EXTCODESIZE ISZERO PUSH2 0xA3E JUMPI PUSH1 0x40 MLOAD PUSH4 0x11E0FA9 PUSH1 0xE2 SHL DUP2 MSTORE CALLER PUSH1 0x4 DUP3 ADD MSTORE PUSH1 0x24 DUP2 ADD DUP6 SWAP1 MSTORE SWAP1 DUP3 SWAP1 DUP3 SWAP1 PUSH1 0x44 SWAP1 DUP3 SWAP1 DUP5 SWAP1 GAS CALL DUP1 ISZERO PUSH2 0x44A JUMPI PUSH2 0xA26 JUMPI JUMPDEST POP POP JUMPDEST CALLER PUSH32 0xECCE874B8763E37231B6791DC5866441104332EF19F5DE5516A7DC20C041B1CA DUP5 DUP1 LOG4 DUP1 RETURN JUMPDEST PUSH2 0xA2F SWAP1 PUSH2 0x27F8 JUMP JUMPDEST PUSH2 0xA3A JUMPI DUP3 CODESIZE PUSH2 0x9FB JUMP JUMPDEST DUP3 DUP1 REVERT JUMPDEST POP DUP1 REVERT JUMPDEST SWAP1 SWAP2 POP PUSH2 0xA71 SWAP3 POP PUSH32 0x0 SWAP1 PUSH2 0x3186 JUMP JUMPDEST POP PUSH2 0x9FE JUMP JUMPDEST PUSH2 0xA80 SWAP1 PUSH2 0x27F8 JUMP JUMPDEST PUSH2 0xA3A JUMPI DUP3 CODESIZE PUSH2 0x944 JUMP JUMPDEST DUP2 PUSH2 0xAAA SWAP3 SWAP1 RETURNDATASIZE LT PUSH2 0xAB2 JUMPI JUMPDEST PUSH2 0xAA2 DUP2 DUP4 PUSH2 0x2841 JUMP JUMPDEST DUP2 ADD SWAP1 PUSH2 0x2A18 JUMP JUMPDEST POP CODESIZE DUP1 PUSH2 0x8ED JUMP JUMPDEST POP RETURNDATASIZE PUSH2 0xA98 JUMP JUMPDEST PUSH1 0x40 MLOAD RETURNDATASIZE DUP10 DUP3 RETURNDATACOPY RETURNDATASIZE SWAP1 REVERT JUMPDEST PUSH4 0x4E487B71 PUSH1 0xE0 SHL DUP9 MSTORE PUSH1 0x11 PUSH1 0x4 MSTORE PUSH1 0x24 DUP9 REVERT JUMPDEST SWAP2 PUSH2 0x847 PUSH2 0xAF3 DUP4 SWAP8 SWAP7 SWAP6 SWAP5 PUSH2 0xAEE DUP12 DUP12 PUSH2 0x291C JUMP JUMPDEST PUSH2 0x29EB JUMP JUMPDEST DUP1 SWAP10 PUSH2 0x2A30 JUMP JUMPDEST PUSH1 0x40 MLOAD PUSH3 0x461BCD PUSH1 0xE5 SHL DUP2 MSTORE PUSH1 0x4 DUP2 ADD DUP5 SWAP1 MSTORE PUSH1 0x27 PUSH1 0x24 DUP3 ADD MSTORE PUSH32 0x4E6F64652066757266696C6C6564206E6F206D6F7265206465706F7369747320 PUSH1 0x44 DUP3 ADD MSTORE PUSH7 0x185B1B1BDDD959 PUSH1 0xCA SHL PUSH1 0x64 DUP3 ADD MSTORE PUSH1 0x84 SWAP1 REVERT JUMPDEST SWAP1 SWAP6 POP DUP3 DUP2 DUP2 RETURNDATASIZE DUP4 GT PUSH2 0xB77 JUMPI JUMPDEST PUSH2 0xB67 DUP2 DUP4 PUSH2 0x2841 JUMP JUMPDEST DUP2 ADD SUB SLT PUSH2 0x4D0 JUMPI MLOAD SWAP5 CODESIZE PUSH2 0x7FC JUMP JUMPDEST POP RETURNDATASIZE PUSH2 0xB5D JUMP JUMPDEST PUSH1 0x40 MLOAD PUSH3 0x461BCD PUSH1 0xE5 SHL DUP2 MSTORE PUSH1 0x4 DUP2 ADD DUP4 SWAP1 MSTORE PUSH1 0x31 PUSH1 0x24 DUP3 ADD MSTORE PUSH32 0x4173657473206172652057617270696E67204E6F772C206465706F7369747320 PUSH1 0x44 DUP3 ADD MSTORE PUSH17 0x37B7103732BB90313637B1B5B1B430B4B7 PUSH1 0x79 SHL PUSH1 0x64 DUP3 ADD MSTORE PUSH1 0x84 SWAP1 REVERT JUMPDEST PUSH1 0x40 MLOAD PUSH3 0x461BCD PUSH1 0xE5 SHL DUP2 MSTORE PUSH1 0x4 DUP2 ADD DUP4 SWAP1 MSTORE PUSH1 0x19 PUSH1 0x24 DUP3 ADD MSTORE PUSH32 0x4661696C656420746F207472616E7366657220616D6F756E7400000000000000 PUSH1 0x44 DUP3 ADD MSTORE PUSH1 0x64 SWAP1 REVERT JUMPDEST PUSH2 0xC39 SWAP2 POP DUP4 RETURNDATASIZE DUP6 GT PUSH2 0xAB2 JUMPI PUSH2 0xAA2 DUP2 DUP4 PUSH2 0x2841 JUMP JUMPDEST CODESIZE PUSH2 0x79F JUMP JUMPDEST POP CALLVALUE PUSH2 0x225 JUMPI DUP1 PUSH1 0x3 NOT CALLDATASIZE ADD SLT PUSH2 0x225 JUMPI PUSH1 0x40 MLOAD PUSH32 0x0 PUSH1 0x1 PUSH1 0x1 PUSH1 0xA0 SHL SUB AND DUP2 MSTORE PUSH1 0x20 SWAP1 RETURN JUMPDEST POP CALLVALUE PUSH2 0x225 JUMPI DUP1 PUSH1 0x3 NOT CALLDATASIZE ADD SLT PUSH2 0x225 JUMPI PUSH1 0x40 MLOAD PUSH32 0x0 PUSH1 0x1 PUSH1 0x1 PUSH1 0xA0 SHL SUB AND DUP2 MSTORE PUSH1 0x20 SWAP1 RETURN JUMPDEST POP CALLVALUE PUSH2 0x225 JUMPI PUSH1 0x40 CALLDATASIZE PUSH1 0x3 NOT ADD SLT PUSH2 0x225 JUMPI PUSH2 0xCE3 PUSH2 0x2751 JUMP JUMPDEST PUSH1 0x24 CALLDATALOAD SWAP1 PUSH2 0xD3E PUSH1 0x1 PUSH1 0x1 PUSH1 0x40 SHL SUB DUP1 PUSH32 0x0 AND SWAP1 PUSH32 0x0 AND EQ PUSH2 0x2945 JUMP JUMPDEST PUSH1 0x1 PUSH1 0x1 PUSH1 0xA0 SHL SUB PUSH2 0xD73 CALLER PUSH32 0x0 DUP4 AND EQ PUSH2 0x299F JUMP JUMPDEST PUSH2 0xD9C PUSH32 0x0 PUSH2 0x39B9 JUMP JUMPDEST PUSH1 0x40 MLOAD PUSH4 0x70A08231 PUSH1 0xE0 SHL DUP2 MSTORE ADDRESS PUSH1 0x4 DUP3 ADD MSTORE PUSH1 0x20 SWAP4 SWAP2 PUSH32 0x0 DUP5 AND SWAP2 DUP6 DUP2 PUSH1 0x24 DUP2 DUP7 GAS STATICCALL SWAP1 DUP2 ISZERO PUSH2 0xFB2 JUMPI DUP9 SWAP2 PUSH2 0xF85 JUMPI JUMPDEST POP PUSH8 0xDE0B6B3A7640000 SWAP1 DUP2 DUP9 MUL DUP9 DUP2 DIV DUP4 EQ DUP10 ISZERO OR ISZERO PUSH2 0xF71 JUMPI SWAP1 PUSH2 0xE12 SWAP2 PUSH2 0x291C JUMP JUMPDEST PUSH2 0xE29 DUP9 PUSH2 0xE23 PUSH1 0x7 SLOAD DUP1 SWAP5 PUSH2 0x29EB JUMP JUMPDEST SWAP3 PUSH2 0x2A0B JUMP JUMPDEST PUSH1 0x7 SSTORE PUSH1 0x3 SLOAD PUSH1 0xFF AND PUSH2 0xE57 JUMPI POP POP POP POP SWAP1 PUSH1 0x8 SWAP3 SWAP2 AND DUP5 MSTORE MSTORE PUSH2 0xE52 PUSH1 0x40 DUP4 KECCAK256 SWAP2 DUP3 SLOAD PUSH2 0x2A30 JUMP JUMPDEST SWAP1 SSTORE DUP1 RETURN JUMPDEST PUSH1 0x40 MLOAD PUSH4 0x95EA7B3 PUSH1 0xE0 SHL DUP2 MSTORE PUSH1 0x1 PUSH1 0x1 PUSH1 0xA0 SHL SUB DUP5 AND PUSH1 0x4 DUP3 ADD MSTORE SWAP2 SWAP1 DIV PUSH1 0x24 DUP3 ADD DUP2 SWAP1 MSTORE SWAP6 SWAP7 POP SWAP5 SWAP1 SWAP2 DUP8 SWAP1 DUP8 SWAP1 DUP8 SWAP1 PUSH1 0x44 SWAP1 DUP3 SWAP1 DUP6 SWAP1 GAS CALL SWAP5 DUP6 ISZERO PUSH2 0xF64 JUMPI PUSH2 0xF03 SWAP7 DUP9 SWAP7 PUSH2 0xF47 JUMPI JUMPDEST POP PUSH1 0x40 MLOAD PUSH4 0x1A4CA37B PUSH1 0xE2 SHL DUP2 MSTORE PUSH1 0x1 PUSH1 0x1 PUSH1 0xA0 SHL SUB PUSH32 0x0 DUP2 AND PUSH1 0x4 DUP4 ADD MSTORE PUSH1 0x24 DUP3 ADD SWAP5 SWAP1 SWAP5 MSTORE SWAP3 SWAP1 SWAP5 AND PUSH1 0x44 DUP4 ADD MSTORE SWAP1 SWAP5 DUP6 SWAP4 DUP5 SWAP3 SWAP2 DUP4 SWAP1 PUSH1 0x64 DUP3 ADD SWAP1 JUMP JUMPDEST SUB SWAP4 AND GAS CALL DUP1 ISZERO PUSH2 0xF3C JUMPI PUSH2 0xF17 JUMPI POP POP DUP1 RETURN JUMPDEST DUP2 RETURNDATASIZE DUP4 GT PUSH2 0xF35 JUMPI JUMPDEST PUSH2 0xF2A DUP2 DUP4 PUSH2 0x2841 JUMP JUMPDEST DUP2 ADD SUB SLT PUSH2 0x4D0 JUMPI DUP1 RETURN JUMPDEST POP RETURNDATASIZE PUSH2 0xF20 JUMP JUMPDEST PUSH1 0x40 MLOAD RETURNDATASIZE DUP6 DUP3 RETURNDATACOPY RETURNDATASIZE SWAP1 REVERT JUMPDEST PUSH2 0xF5D SWAP1 DUP8 RETURNDATASIZE DUP10 GT PUSH2 0xAB2 JUMPI PUSH2 0xAA2 DUP2 DUP4 PUSH2 0x2841 JUMP JUMPDEST POP CODESIZE PUSH2 0xEA4 JUMP JUMPDEST POP PUSH1 0x40 MLOAD SWAP1 RETURNDATASIZE SWAP1 DUP3 RETURNDATACOPY RETURNDATASIZE SWAP1 REVERT JUMPDEST PUSH4 0x4E487B71 PUSH1 0xE0 SHL DUP11 MSTORE PUSH1 0x11 PUSH1 0x4 MSTORE PUSH1 0x24 DUP11 REVERT JUMPDEST SWAP1 POP DUP6 DUP2 DUP2 RETURNDATASIZE DUP4 GT PUSH2 0xFAB JUMPI JUMPDEST PUSH2 0xF9C DUP2 DUP4 PUSH2 0x2841 JUMP JUMPDEST DUP2 ADD SUB SLT PUSH2 0x4D0 JUMPI MLOAD CODESIZE PUSH2 0xDED JUMP JUMPDEST POP RETURNDATASIZE PUSH2 0xF92 JUMP JUMPDEST PUSH1 0x40 MLOAD RETURNDATASIZE DUP11 DUP3 RETURNDATACOPY RETURNDATASIZE SWAP1 REVERT JUMPDEST POP CALLVALUE PUSH2 0x225 JUMPI PUSH1 0x20 CALLDATASIZE PUSH1 0x3 NOT ADD SLT PUSH2 0x225 JUMPI PUSH1 0x4 CALLDATALOAD SWAP1 PUSH1 0x4 SLOAD DUP3 LT ISZERO PUSH2 0x225 JUMPI PUSH1 0x20 PUSH2 0xFE8 DUP4 PUSH2 0x28CF JUMP JUMPDEST SWAP1 SLOAD PUSH1 0x40 MLOAD PUSH1 0x3 SWAP3 SWAP1 SWAP3 SHL SHR PUSH1 0x1 PUSH1 0x1 PUSH1 0xA0 SHL SUB AND DUP2 MSTORE RETURN JUMPDEST POP CALLVALUE PUSH2 0x225 JUMPI PUSH1 0x20 DUP1 PUSH1 0x3 NOT CALLDATASIZE ADD SLT PUSH2 0xA3E JUMPI PUSH1 0x1 PUSH1 0x1 PUSH1 0x40 SHL SUB SWAP1 PUSH1 0x4 CALLDATALOAD DUP3 DUP2 GT PUSH2 0x11F9 JUMPI CALLDATASIZE PUSH1 0x23 DUP3 ADD SLT ISZERO PUSH2 0x11F9 JUMPI DUP1 PUSH1 0x4 ADD CALLDATALOAD PUSH2 0x1040 DUP2 PUSH2 0x28B8 JUMP JUMPDEST SWAP1 PUSH2 0x104E PUSH1 0x40 MLOAD SWAP3 DUP4 PUSH2 0x2841 JUMP JUMPDEST DUP1 DUP3 MSTORE DUP4 DUP3 ADD SWAP3 DUP4 PUSH1 0x24 DUP1 SWAP4 PUSH1 0x5 SHL DUP4 ADD ADD SWAP2 CALLDATASIZE DUP4 GT PUSH2 0x11F5 JUMPI DUP4 DUP8 SWAP2 ADD SWAP2 JUMPDEST DUP4 DUP4 LT PUSH2 0x11DD JUMPI POP POP POP POP PUSH2 0x1081 PUSH2 0x3CC6 JUMP JUMPDEST DUP2 MLOAD ISZERO PUSH2 0x119A JUMPI PUSH1 0x4 SLOAD SWAP2 DUP3 PUSH2 0x1156 JUMPI MLOAD SWAP5 DUP6 GT PUSH2 0x1144 JUMPI PUSH9 0x10000000000000000 DUP6 GT PUSH2 0x1144 JUMPI POP DUP4 PUSH1 0x4 SSTORE DUP1 DUP5 LT PUSH2 0x1104 JUMPI JUMPDEST POP SWAP1 PUSH1 0x4 DUP5 MSTORE DUP4 JUMPDEST DUP4 DUP2 LT PUSH2 0x10C9 JUMPI DUP5 DUP1 RETURN JUMPDEST DUP3 MLOAD PUSH1 0x1 PUSH1 0x1 PUSH1 0xA0 SHL SUB AND PUSH32 0x8A35ACFBC15FF81A39AE7D344FD709F28E8600B4AA8C65C6B64BFE7FE36BD19B DUP3 ADD SSTORE SWAP2 DUP2 ADD SWAP2 PUSH1 0x1 ADD PUSH2 0x10BE JUMP JUMPDEST DUP4 PUSH32 0x8A35ACFBC15FF81A39AE7D344FD709F28E8600B4AA8C65C6B64BFE7FE36BD19B SWAP2 DUP3 ADD SWAP2 ADD JUMPDEST DUP2 DUP2 LT PUSH2 0x1139 JUMPI POP PUSH2 0x10B6 JUMP JUMPDEST DUP6 DUP2 SSTORE PUSH1 0x1 ADD PUSH2 0x112C JUMP JUMPDEST PUSH4 0x4E487B71 PUSH1 0xE0 SHL DUP7 MSTORE PUSH1 0x41 PUSH1 0x4 MSTORE DUP6 REVERT JUMPDEST PUSH1 0x40 MLOAD PUSH3 0x461BCD PUSH1 0xE5 SHL DUP2 MSTORE PUSH1 0x4 DUP2 ADD DUP7 SWAP1 MSTORE PUSH1 0x1A DUP2 DUP5 ADD MSTORE PUSH32 0x616C6C6F7765644E6F646573206D75737420626520656D707479000000000000 PUSH1 0x44 DUP3 ADD MSTORE PUSH1 0x64 SWAP1 REVERT JUMPDEST DUP4 PUSH1 0x17 PUSH1 0x64 SWAP3 PUSH1 0x40 MLOAD SWAP3 PUSH3 0x461BCD PUSH1 0xE5 SHL DUP5 MSTORE PUSH1 0x4 DUP5 ADD MSTORE DUP3 ADD MSTORE PUSH32 0x596F752073656E7420616E20656D707479206172726179000000000000000000 PUSH1 0x44 DUP3 ADD MSTORE REVERT JUMPDEST DUP2 SWAP1 PUSH2 0x11E8 DUP5 PUSH2 0x277D JUMP JUMPDEST DUP2 MSTORE ADD SWAP2 ADD SWAP1 DUP7 SWAP1 PUSH2 0x106E JUMP JUMPDEST DUP9 DUP1 REVERT JUMPDEST DUP4 DUP1 REVERT JUMPDEST POP CALLVALUE PUSH2 0x225 JUMPI PUSH1 0x20 SWAP1 DUP2 PUSH1 0x3 NOT CALLDATASIZE ADD SLT PUSH2 0x225 JUMPI PUSH1 0x40 MLOAD PUSH4 0x70A08231 PUSH1 0xE0 SHL DUP2 MSTORE ADDRESS PUSH1 0x4 DUP3 DUP2 ADD SWAP2 SWAP1 SWAP2 MSTORE CALLDATALOAD DUP4 DUP3 PUSH1 0x24 DUP2 PUSH32 0x0 PUSH1 0x1 PUSH1 0x1 PUSH1 0xA0 SHL SUB AND GAS STATICCALL SWAP2 DUP3 ISZERO PUSH2 0xF3C JUMPI DUP4 SWAP3 PUSH2 0x12B8 JUMPI JUMPDEST POP PUSH8 0xDE0B6B3A7640000 SWAP3 DUP4 DUP3 MUL SWAP2 DUP1 DUP4 DIV DUP6 EQ SWAP1 ISZERO OR ISZERO PUSH2 0x12A4 JUMPI POP PUSH2 0x129B SWAP2 PUSH2 0x1292 SWAP2 PUSH2 0x291C JUMP JUMPDEST PUSH1 0x7 SLOAD SWAP1 PUSH2 0x29EB JUMP JUMPDEST DIV PUSH1 0x40 MLOAD SWAP1 DUP2 MSTORE RETURN JUMPDEST PUSH4 0x4E487B71 PUSH1 0xE0 SHL DUP2 MSTORE PUSH1 0x11 PUSH1 0x4 MSTORE PUSH1 0x24 SWAP1 REVERT JUMPDEST SWAP1 SWAP2 POP DUP4 DUP2 DUP2 RETURNDATASIZE DUP4 GT PUSH2 0x12E0 JUMPI JUMPDEST PUSH2 0x12D0 DUP2 DUP4 PUSH2 0x2841 JUMP JUMPDEST DUP2 ADD SUB SLT PUSH2 0x4D0 JUMPI MLOAD SWAP1 CODESIZE PUSH2 0x1268 JUMP JUMPDEST POP RETURNDATASIZE PUSH2 0x12C6 JUMP JUMPDEST POP CALLVALUE PUSH2 0x225 JUMPI DUP1 PUSH1 0x3 NOT CALLDATASIZE ADD SLT PUSH2 0x225 JUMPI PUSH1 0x40 MLOAD PUSH32 0x0 PUSH1 0x1 PUSH1 0x1 PUSH1 0xA0 SHL SUB AND DUP2 MSTORE PUSH1 0x20 SWAP1 RETURN JUMPDEST POP CALLVALUE PUSH2 0x225 JUMPI PUSH1 0x40 CALLDATASIZE PUSH1 0x3 NOT ADD SLT PUSH2 0x225 JUMPI PUSH2 0x1346 PUSH2 0x2791 JUMP JUMPDEST PUSH2 0x134E PUSH2 0x2767 JUMP JUMPDEST SWAP1 PUSH1 0x1 PUSH1 0x1 PUSH1 0x40 SHL SUB PUSH2 0x13A6 DUP2 PUSH32 0x0 AND DUP3 PUSH32 0x0 AND EQ PUSH2 0x2945 JUMP JUMPDEST PUSH1 0x1 PUSH1 0x1 PUSH1 0xA0 SHL SUB PUSH2 0x13DB CALLER PUSH32 0x0 DUP4 AND EQ PUSH2 0x299F JUMP JUMPDEST PUSH32 0x0 SWAP4 PUSH2 0x147E PUSH2 0x144B DUP7 PUSH32 0x0 PUSH32 0x0 PUSH2 0x3A12 JUMP JUMPDEST DUP1 SWAP7 PUSH1 0x7 SLOAD PUSH1 0x40 MLOAD SWAP1 PUSH1 0x2 PUSH1 0x20 DUP4 ADD MSTORE PUSH1 0x40 DUP3 ADD MSTORE PUSH1 0x40 DUP2 MSTORE PUSH2 0x146D DUP2 PUSH2 0x2826 JUMP JUMPDEST PUSH1 0xFF NOT PUSH1 0x3 SLOAD AND PUSH1 0x3 SSTORE DUP5 DUP9 PUSH2 0x2A89 JUMP JUMPDEST POP AND SWAP2 AND PUSH32 0x4EE48AB43D52BE2082A80761272F218FE0871F5B8DBA97D174EC2DB28B3B2218 DUP5 DUP1 LOG4 DUP1 RETURN JUMPDEST POP CALLVALUE PUSH2 0x225 JUMPI DUP1 PUSH1 0x3 NOT CALLDATASIZE ADD SLT PUSH2 0x225 JUMPI SLOAD PUSH1 0x40 MLOAD PUSH1 0x1 PUSH1 0x1 PUSH1 0xA0 SHL SUB SWAP1 SWAP2 AND DUP2 MSTORE PUSH1 0x20 SWAP1 RETURN JUMPDEST POP CALLVALUE PUSH2 0x225 JUMPI DUP1 PUSH1 0x3 NOT CALLDATASIZE ADD SLT PUSH2 0x225 JUMPI PUSH1 0x20 PUSH1 0x40 MLOAD PUSH1 0x1 PUSH1 0x1 PUSH1 0x40 SHL SUB PUSH32 0x0 AND DUP2 MSTORE RETURN JUMPDEST POP CALLVALUE PUSH2 0x225 JUMPI PUSH1 0x3 NOT PUSH1 0x20 CALLDATASIZE DUP3 ADD SLT PUSH2 0xA3E JUMPI PUSH1 0x4 CALLDATALOAD PUSH1 0x1 PUSH1 0x1 PUSH1 0x40 SHL SUB SWAP2 DUP3 DUP3 GT PUSH2 0x11F9 JUMPI PUSH1 0xA0 SWAP1 DUP3 CALLDATASIZE SUB ADD SLT PUSH2 0xA3A JUMPI PUSH32 0x0 PUSH1 0x1 PUSH1 0x1 PUSH1 0xA0 SHL SUB AND CALLER SUB PUSH2 0x2298 JUMPI PUSH1 0x40 MLOAD PUSH2 0x1582 DUP2 PUSH2 0x27C2 JUMP JUMPDEST DUP2 PUSH1 0x4 ADD CALLDATALOAD DUP2 MSTORE PUSH1 0x24 DUP3 ADD CALLDATALOAD DUP4 DUP2 AND DUP2 SUB PUSH2 0x455 JUMPI PUSH1 0x20 DUP3 ADD MSTORE PUSH1 0x44 DUP3 ADD CALLDATALOAD DUP4 DUP2 GT PUSH2 0x455 JUMPI PUSH2 0x15B8 SWAP1 PUSH1 0x4 CALLDATASIZE SWAP2 DUP6 ADD ADD PUSH2 0x2862 JUMP JUMPDEST SWAP1 PUSH1 0x40 DUP2 ADD SWAP2 DUP3 MSTORE PUSH1 0x64 DUP4 ADD CALLDATALOAD DUP5 DUP2 GT PUSH2 0x2294 JUMPI PUSH2 0x15DC SWAP1 PUSH1 0x4 CALLDATASIZE SWAP2 DUP7 ADD ADD PUSH2 0x2862 JUMP JUMPDEST SWAP3 PUSH1 0x60 DUP3 ADD SWAP4 DUP5 MSTORE PUSH1 0x84 DUP2 ADD CALLDATALOAD SWAP1 DUP6 DUP3 GT PUSH2 0x21B6 JUMPI ADD SWAP1 CALLDATASIZE PUSH1 0x23 DUP4 ADD SLT ISZERO PUSH2 0x2294 JUMPI PUSH1 0x4 DUP3 ADD CALLDATALOAD PUSH2 0x160C DUP2 PUSH2 0x28B8 JUMP JUMPDEST SWAP3 PUSH2 0x161A PUSH1 0x40 MLOAD SWAP5 DUP6 PUSH2 0x2841 JUMP JUMPDEST DUP2 DUP5 MSTORE PUSH1 0x24 PUSH1 0x20 DUP6 ADD SWAP3 PUSH1 0x6 SHL DUP3 ADD ADD SWAP1 CALLDATASIZE DUP3 GT PUSH2 0x11F5 JUMPI PUSH1 0x24 ADD SWAP2 JUMPDEST DUP2 DUP4 LT PUSH2 0x225C JUMPI POP POP POP PUSH1 0x80 ADD MSTORE MLOAD PUSH1 0x20 DUP2 DUP1 MLOAD DUP2 ADD SUB SLT PUSH2 0x11F9 JUMPI PUSH2 0x167B SWAP1 PUSH2 0x1676 SWAP1 PUSH1 0x1 PUSH1 0x1 PUSH1 0xA0 SHL SUB SWAP1 PUSH2 0x1670 SWAP1 PUSH1 0x20 ADD PUSH2 0x3960 JUMP JUMPDEST AND PUSH2 0x3730 JUMP JUMPDEST PUSH2 0x2A3D JUMP JUMPDEST DUP1 MLOAD PUSH1 0x20 DUP2 DUP1 MLOAD DUP2 ADD SUB SLT PUSH2 0x11F9 JUMPI PUSH2 0x1698 PUSH1 0x20 PUSH1 0xFF SWAP3 ADD PUSH2 0x3974 JUMP JUMPDEST AND DUP1 PUSH2 0x18E8 JUMPI POP SWAP1 POP MLOAD PUSH1 0x60 DUP2 DUP1 MLOAD DUP2 ADD SUB SLT PUSH2 0xA3E JUMPI PUSH2 0x16BB PUSH1 0x20 DUP3 ADD PUSH2 0x3974 JUMP JUMPDEST POP PUSH1 0x60 PUSH2 0x16CA PUSH1 0x40 DUP4 ADD PUSH2 0x3960 JUMP JUMPDEST SWAP2 ADD MLOAD SWAP1 PUSH1 0x1 PUSH1 0x1 PUSH1 0xA0 SHL SUB AND PUSH2 0x1700 PUSH32 0x0 PUSH2 0x39B9 JUMP JUMPDEST PUSH1 0x40 MLOAD PUSH4 0x70A08231 PUSH1 0xE0 SHL DUP2 MSTORE ADDRESS PUSH1 0x4 DUP3 ADD MSTORE PUSH32 0x0 PUSH1 0x1 PUSH1 0x1 PUSH1 0xA0 SHL SUB AND SWAP2 SWAP1 PUSH1 0x20 DUP2 PUSH1 0x24 DUP2 DUP7 GAS STATICCALL SWAP1 DUP2 ISZERO PUSH2 0x18DD JUMPI DUP7 SWAP2 PUSH2 0x18AB JUMPI JUMPDEST POP PUSH8 0xDE0B6B3A7640000 SWAP1 DUP2 DUP7 MUL DUP7 DUP2 DIV DUP4 EQ DUP8 ISZERO OR ISZERO PUSH2 0xAC4 JUMPI SWAP1 PUSH2 0x177B SWAP2 PUSH2 0x291C JUMP JUMPDEST PUSH2 0x178C DUP7 PUSH2 0xE23 PUSH1 0x7 SLOAD DUP1 SWAP5 PUSH2 0x29EB JUMP JUMPDEST PUSH1 0x7 SSTORE PUSH1 0x3 SLOAD PUSH1 0xFF AND PUSH2 0x17B3 JUMPI POP POP POP POP DUP3 MSTORE PUSH1 0x8 PUSH1 0x20 MSTORE PUSH2 0xE52 PUSH1 0x40 DUP4 KECCAK256 SWAP2 DUP3 SLOAD PUSH2 0x2A30 JUMP JUMPDEST PUSH1 0x40 MLOAD PUSH4 0x95EA7B3 PUSH1 0xE0 SHL DUP2 MSTORE PUSH1 0x1 PUSH1 0x1 PUSH1 0xA0 SHL SUB DUP5 AND PUSH1 0x4 DUP3 ADD MSTORE SWAP2 SWAP1 DIV PUSH1 0x24 DUP3 ADD DUP2 SWAP1 MSTORE SWAP1 SWAP5 POP SWAP3 SWAP2 PUSH1 0x20 SWAP1 DUP6 SWAP1 PUSH1 0x44 SWAP1 DUP3 SWAP1 DUP10 SWAP1 GAS CALL SWAP3 DUP4 ISZERO PUSH2 0x4DD JUMPI PUSH2 0x185E SWAP5 PUSH1 0x20 SWAP5 PUSH2 0x188E JUMPI JUMPDEST POP PUSH1 0x40 MLOAD PUSH4 0x1A4CA37B PUSH1 0xE2 SHL DUP2 MSTORE PUSH1 0x1 PUSH1 0x1 PUSH1 0xA0 SHL SUB PUSH32 0x0 DUP2 AND PUSH1 0x4 DUP4 ADD MSTORE PUSH1 0x24 DUP3 ADD SWAP3 SWAP1 SWAP3 MSTORE SWAP3 AND PUSH1 0x44 DUP4 ADD MSTORE SWAP1 SWAP3 DUP4 SWAP2 SWAP1 DUP3 SWAP1 DUP7 SWAP1 DUP3 SWAP1 PUSH1 0x64 DUP3 ADD SWAP1 JUMP JUMPDEST SUB SWAP3 PUSH1 0x1 PUSH1 0x1 PUSH1 0xA0 SHL SUB AND GAS CALL DUP1 ISZERO PUSH2 0x44A JUMPI PUSH2 0x1879 JUMPI POP DUP1 RETURN JUMPDEST PUSH1 0x20 SWAP1 DUP2 RETURNDATASIZE DUP4 GT PUSH2 0xF35 JUMPI PUSH2 0xF2A DUP2 DUP4 PUSH2 0x2841 JUMP JUMPDEST PUSH2 0x18A4 SWAP1 DUP6 RETURNDATASIZE DUP8 GT PUSH2 0xAB2 JUMPI PUSH2 0xAA2 DUP2 DUP4 PUSH2 0x2841 JUMP JUMPDEST POP CODESIZE PUSH2 0x17FF JUMP JUMPDEST SWAP1 POP PUSH1 0x20 DUP2 RETURNDATASIZE PUSH1 0x20 GT PUSH2 0x18D5 JUMPI JUMPDEST DUP2 PUSH2 0x18C6 PUSH1 0x20 SWAP4 DUP4 PUSH2 0x2841 JUMP JUMPDEST DUP2 ADD SUB SLT PUSH2 0x4D0 JUMPI MLOAD CODESIZE PUSH2 0x1756 JUMP JUMPDEST RETURNDATASIZE SWAP2 POP PUSH2 0x18B9 JUMP JUMPDEST PUSH1 0x40 MLOAD RETURNDATASIZE DUP9 DUP3 RETURNDATACOPY RETURNDATASIZE SWAP1 REVERT JUMPDEST PUSH1 0x1 DUP2 SUB PUSH2 0x19FF JUMPI POP MLOAD PUSH1 0x60 DUP2 DUP1 MLOAD DUP2 ADD SUB SLT PUSH2 0xA3A JUMPI PUSH2 0x190B PUSH1 0x20 DUP3 ADD PUSH2 0x3974 JUMP JUMPDEST POP PUSH1 0x40 DUP2 ADD MLOAD SWAP2 DUP3 AND SWAP1 DUP2 DUP4 SUB PUSH2 0x11F9 JUMPI PUSH1 0x1 PUSH1 0x1 PUSH1 0xA0 SHL SUB SWAP1 PUSH2 0x1931 SWAP1 PUSH1 0x60 ADD PUSH2 0x3960 JUMP JUMPDEST AND SWAP1 PUSH2 0x19D7 PUSH32 0x0 SWAP4 PUSH2 0x19A3 DUP6 PUSH32 0x0 PUSH32 0x0 PUSH2 0x3A12 JUMP JUMPDEST SWAP5 DUP6 SWAP2 DUP6 PUSH1 0x7 SLOAD SWAP2 PUSH1 0x40 MLOAD SWAP3 PUSH1 0x2 PUSH1 0x20 DUP6 ADD MSTORE PUSH1 0x40 DUP5 ADD MSTORE PUSH1 0x40 DUP4 MSTORE PUSH2 0x19C8 DUP4 PUSH2 0x2826 JUMP JUMPDEST PUSH1 0xFF NOT PUSH1 0x3 SLOAD AND PUSH1 0x3 SSTORE PUSH2 0x2A89 JUMP JUMPDEST POP PUSH32 0x4EE48AB43D52BE2082A80761272F218FE0871F5B8DBA97D174EC2DB28B3B2218 DUP5 DUP1 LOG4 DUP1 RETURN JUMPDEST PUSH1 0x2 SUB PUSH2 0x2225 JUMPI MLOAD PUSH1 0x40 DUP2 DUP1 MLOAD DUP2 ADD SUB SLT PUSH2 0xA3A JUMPI DUP1 PUSH2 0x1A23 PUSH1 0x20 PUSH1 0x40 SWAP4 ADD PUSH2 0x3974 JUMP JUMPDEST POP ADD MLOAD PUSH1 0x7 SSTORE PUSH1 0x1 PUSH1 0xFF NOT PUSH1 0x3 SLOAD AND OR PUSH1 0x3 SSTORE PUSH1 0x40 MLOAD SWAP1 PUSH1 0x1 PUSH1 0x20 DUP4 ADD MSTORE PUSH1 0x20 DUP3 MSTORE PUSH2 0x1A4E DUP3 PUSH2 0x27DD JUMP JUMPDEST DUP1 PUSH32 0x0 AND SWAP1 PUSH32 0x0 AND EQ PUSH1 0x0 EQ PUSH2 0x1B78 JUMPI POP PUSH2 0x1AE7 PUSH32 0x0 PUSH32 0x0 PUSH2 0x3B8D JUMP JUMPDEST DUP1 PUSH32 0x0 PUSH1 0x1 PUSH1 0x1 PUSH1 0xA0 SHL SUB AND DUP1 EXTCODESIZE ISZERO PUSH2 0x1B75 JUMPI DUP2 SWAP1 PUSH1 0x4 PUSH1 0x40 MLOAD DUP1 SWAP5 DUP2 SWAP4 PUSH4 0x4CAB8A57 PUSH1 0xE1 SHL DUP4 MSTORE GAS CALL DUP1 ISZERO PUSH2 0x44A JUMPI PUSH2 0x1B66 JUMPI JUMPDEST POP JUMPDEST PUSH1 0x1 PUSH32 0xD8FB8E7C260C25E52D8B9C9F1E795C6A98EB972E58C44E482C8F0158F656A04B DUP3 DUP1 LOG2 DUP1 RETURN JUMPDEST PUSH2 0x1B6F SWAP1 PUSH2 0x27F8 JUMP JUMPDEST CODESIZE PUSH2 0x1B3B JUMP JUMPDEST POP REVERT JUMPDEST PUSH32 0x0 SWAP1 DUP3 SWAP1 PUSH2 0x1BA8 PUSH2 0x1676 DUP5 PUSH2 0x3730 JUMP JUMPDEST PUSH1 0x60 PUSH1 0x80 PUSH1 0x40 MLOAD PUSH2 0x1BB8 DUP2 PUSH2 0x27C2 JUMP JUMPDEST DUP3 DUP2 MSTORE DUP3 PUSH1 0x20 DUP3 ADD MSTORE DUP3 PUSH1 0x40 DUP3 ADD MSTORE DUP7 DUP4 DUP3 ADD MSTORE ADD MSTORE PUSH1 0x40 MLOAD PUSH2 0x1BDA DUP2 PUSH2 0x27A7 JUMP JUMPDEST DUP5 DUP2 MSTORE PUSH1 0x40 MLOAD SWAP4 PUSH1 0x1 DUP1 PUSH1 0xA0 SHL SUB AND PUSH1 0x20 DUP6 ADD MSTORE PUSH1 0x20 DUP5 MSTORE PUSH2 0x1BFB DUP5 PUSH2 0x27DD JUMP JUMPDEST PUSH2 0x1C15 PUSH1 0x40 MLOAD PUSH2 0x1C0A DUP2 PUSH2 0x27A7 JUMP JUMPDEST PUSH3 0x1E8480 DUP2 MSTORE PUSH2 0x3982 JUMP JUMPDEST SWAP2 PUSH1 0x40 MLOAD SWAP5 PUSH2 0x1C23 DUP7 PUSH2 0x27C2 JUMP JUMPDEST DUP6 MSTORE PUSH1 0x20 DUP6 ADD MSTORE PUSH1 0x40 DUP5 ADD MSTORE DUP4 PUSH1 0x60 DUP5 ADD MSTORE PUSH1 0x80 DUP4 ADD MSTORE PUSH1 0x40 MLOAD PUSH4 0xB0F479A1 PUSH1 0xE0 SHL DUP2 MSTORE PUSH1 0x20 DUP2 PUSH1 0x4 DUP2 ADDRESS GAS STATICCALL SWAP1 DUP2 ISZERO PUSH2 0x525 JUMPI DUP5 SWAP2 PUSH2 0x21F6 JUMPI JUMPDEST POP PUSH1 0x40 MLOAD PUSH4 0x20487DED PUSH1 0xE0 SHL DUP2 MSTORE SWAP1 PUSH1 0x20 DUP3 DUP1 PUSH2 0x1C9F DUP8 PUSH32 0x0 PUSH1 0x4 DUP5 ADD PUSH2 0x3667 JUMP JUMPDEST SUB DUP2 PUSH1 0x1 PUSH1 0x1 PUSH1 0xA0 SHL SUB DUP6 AND GAS STATICCALL SWAP2 DUP3 ISZERO PUSH2 0x4DD JUMPI DUP6 SWAP3 PUSH2 0x21C2 JUMPI JUMPDEST POP PUSH1 0x40 MLOAD PUSH4 0x70A08231 PUSH1 0xE0 SHL DUP2 MSTORE ADDRESS PUSH1 0x4 DUP3 ADD MSTORE PUSH32 0x0 SWAP1 PUSH1 0x20 DUP2 PUSH1 0x24 DUP2 PUSH1 0x1 PUSH1 0x1 PUSH1 0xA0 SHL SUB DUP7 AND GAS STATICCALL SWAP1 DUP2 ISZERO PUSH2 0xAB9 JUMPI DUP8 SWAP2 PUSH2 0x218C JUMPI JUMPDEST POP PUSH2 0x2139 JUMPI JUMPDEST POP PUSH1 0x40 MLOAD PUSH4 0x70A08231 PUSH1 0xE0 SHL DUP2 MSTORE ADDRESS PUSH1 0x4 DUP3 ADD MSTORE PUSH32 0x0 SWAP5 SWAP1 DUP7 SWAP1 PUSH1 0x20 DUP2 PUSH1 0x24 DUP2 PUSH1 0x1 PUSH1 0x1 PUSH1 0xA0 SHL SUB DUP12 AND GAS STATICCALL SWAP1 DUP2 ISZERO PUSH2 0x44A JUMPI DUP3 SWAP2 PUSH2 0x2107 JUMPI JUMPDEST POP PUSH1 0x6 SLOAD PUSH1 0x40 MLOAD PUSH4 0x95EA7B3 PUSH1 0xE0 SHL DUP2 MSTORE PUSH1 0x1 PUSH1 0x1 PUSH1 0xA0 SHL SUB SWAP1 SWAP2 AND PUSH1 0x4 DUP3 ADD MSTORE PUSH1 0x24 DUP2 ADD DUP3 SWAP1 MSTORE PUSH1 0x20 DUP2 DUP1 PUSH1 0x44 DUP2 ADD SUB DUP2 DUP7 PUSH1 0x1 PUSH1 0x1 PUSH1 0xA0 SHL SUB DUP14 AND GAS CALL DUP1 ISZERO PUSH2 0xF3C JUMPI PUSH2 0x20E8 JUMPI JUMPDEST POP PUSH1 0x40 MLOAD SWAP1 PUSH2 0x1DC8 DUP3 PUSH2 0x280B JUMP JUMPDEST PUSH1 0x1 PUSH1 0x1 PUSH1 0xA0 SHL SUB DUP9 DUP2 AND DUP4 MSTORE PUSH32 0x0 DUP2 AND PUSH1 0x20 DUP1 DUP6 ADD DUP3 DUP2 MSTORE PUSH32 0x0 PUSH2 0xFFFF AND PUSH1 0x40 DUP1 DUP9 ADD SWAP2 DUP3 MSTORE ADDRESS PUSH1 0x60 DUP10 ADD SWAP1 DUP2 MSTORE PUSH1 0x80 DUP10 ADD DUP14 DUP2 MSTORE PUSH1 0xA0 DUP11 ADD SWAP9 DUP10 MSTORE PUSH1 0xC0 DUP11 ADD DUP12 DUP2 MSTORE PUSH1 0x6 SLOAD SWAP4 MLOAD PUSH4 0x5023B4DF PUSH1 0xE0 SHL DUP2 MSTORE SWAP11 MLOAD DUP10 AND PUSH1 0x4 DUP13 ADD MSTORE SWAP5 MLOAD DUP9 AND PUSH1 0x24 DUP12 ADD MSTORE SWAP3 MLOAD PUSH3 0xFFFFFF AND PUSH1 0x44 DUP11 ADD MSTORE MLOAD DUP7 AND PUSH1 0x64 DUP10 ADD MSTORE SWAP1 MLOAD PUSH1 0x84 DUP9 ADD MSTORE SWAP5 MLOAD PUSH1 0xA4 DUP8 ADD MSTORE MLOAD DUP4 AND PUSH1 0xC4 DUP7 ADD MSTORE SWAP1 SWAP4 SWAP3 SWAP1 SWAP2 DUP4 SWAP2 PUSH1 0xE4 SWAP2 DUP4 SWAP2 DUP9 SWAP2 AND GAS CALL DUP1 ISZERO PUSH2 0xF3C JUMPI PUSH2 0x20BD JUMPI JUMPDEST POP DUP1 EXTCODESIZE ISZERO PUSH2 0xA3E JUMPI DUP2 SWAP1 PUSH1 0x24 PUSH1 0x40 MLOAD DUP1 SWAP5 DUP2 SWAP4 PUSH4 0x2E1A7D4D PUSH1 0xE0 SHL DUP4 MSTORE DUP10 PUSH1 0x4 DUP5 ADD MSTORE GAS CALL DUP1 ISZERO PUSH2 0xAB9 JUMPI PUSH2 0x20AA JUMPI JUMPDEST POP SELFBALANCE DUP4 GT PUSH2 0x208B JUMPI DUP4 PUSH2 0x2023 JUMPI JUMPDEST PUSH1 0x20 SWAP2 PUSH2 0x1F33 SWAP2 PUSH1 0x40 MLOAD SWAP5 DUP6 DUP1 SWAP5 DUP2 SWAP4 PUSH4 0x96F4E9F9 PUSH1 0xE0 SHL DUP4 MSTORE PUSH32 0x0 PUSH1 0x4 DUP5 ADD PUSH2 0x3667 JUMP JUMPDEST SUB SWAP3 PUSH1 0x1 PUSH1 0x1 PUSH1 0xA0 SHL SUB AND GAS CALL DUP1 ISZERO PUSH2 0x44A JUMPI PUSH2 0x1FF8 JUMPI JUMPDEST POP PUSH1 0x40 MLOAD PUSH4 0x70A08231 PUSH1 0xE0 SHL DUP2 MSTORE ADDRESS PUSH1 0x4 DUP3 ADD MSTORE PUSH1 0x20 DUP2 PUSH1 0x24 DUP2 PUSH1 0x1 PUSH1 0x1 PUSH1 0xA0 SHL SUB DUP8 AND GAS STATICCALL SWAP2 DUP3 ISZERO PUSH2 0x1FEC JUMPI SWAP2 PUSH2 0x1FBA JUMPI JUMPDEST POP PUSH2 0x1F8A JUMPI JUMPDEST POP PUSH2 0x1B3D JUMP JUMPDEST PUSH2 0x1FB4 SWAP1 PUSH32 0x0 PUSH2 0x3B8D JUMP JUMPDEST CODESIZE PUSH2 0x1F84 JUMP JUMPDEST SWAP1 POP PUSH1 0x20 DUP2 RETURNDATASIZE PUSH1 0x20 GT PUSH2 0x1FE4 JUMPI JUMPDEST DUP2 PUSH2 0x1FD5 PUSH1 0x20 SWAP4 DUP4 PUSH2 0x2841 JUMP JUMPDEST DUP2 ADD SUB SLT PUSH2 0xA3A JUMPI MLOAD CODESIZE PUSH2 0x1F7E JUMP JUMPDEST RETURNDATASIZE SWAP2 POP PUSH2 0x1FC8 JUMP JUMPDEST PUSH1 0x40 MLOAD SWAP1 RETURNDATASIZE SWAP1 DUP3 RETURNDATACOPY RETURNDATASIZE SWAP1 REVERT JUMPDEST PUSH1 0x20 SWAP1 DUP2 RETURNDATASIZE DUP4 GT PUSH2 0x201C JUMPI JUMPDEST PUSH2 0x200E DUP2 DUP4 PUSH2 0x2841 JUMP JUMPDEST DUP2 ADD SUB SLT PUSH2 0xA3A JUMPI CODESIZE PUSH2 0x1F4B JUMP JUMPDEST POP RETURNDATASIZE PUSH2 0x2004 JUMP JUMPDEST PUSH1 0x40 MLOAD PUSH4 0x95EA7B3 PUSH1 0xE0 SHL DUP2 MSTORE PUSH1 0x1 PUSH1 0x1 PUSH1 0xA0 SHL SUB DUP4 AND PUSH1 0x4 DUP3 ADD MSTORE PUSH1 0x24 DUP2 ADD DUP8 SWAP1 MSTORE PUSH1 0x20 DUP2 PUSH1 0x44 DUP2 DUP9 DUP1 GAS CALL DUP1 ISZERO PUSH2 0x4DD JUMPI SWAP2 PUSH1 0x20 SWAP4 SWAP2 PUSH2 0x1F33 SWAP4 PUSH2 0x206E JUMPI JUMPDEST POP SWAP2 POP SWAP2 POP PUSH2 0x1EEF JUMP JUMPDEST PUSH2 0x2084 SWAP1 DUP6 RETURNDATASIZE DUP8 GT PUSH2 0xAB2 JUMPI PUSH2 0xAA2 DUP2 DUP4 PUSH2 0x2841 JUMP JUMPDEST POP CODESIZE PUSH2 0x2064 JUMP JUMPDEST PUSH1 0x40 MLOAD PUSH4 0x4787A103 PUSH1 0xE1 SHL DUP2 MSTORE SELFBALANCE PUSH1 0x4 DUP3 ADD MSTORE PUSH1 0x24 DUP2 ADD DUP5 SWAP1 MSTORE PUSH1 0x44 SWAP1 REVERT JUMPDEST PUSH2 0x20B5 SWAP2 SWAP5 POP PUSH2 0x27F8 JUMP JUMPDEST DUP5 SWAP3 CODESIZE PUSH2 0x1EE1 JUMP JUMPDEST PUSH1 0x20 SWAP1 DUP2 RETURNDATASIZE DUP4 GT PUSH2 0x20E1 JUMPI JUMPDEST PUSH2 0x20D3 DUP2 DUP4 PUSH2 0x2841 JUMP JUMPDEST DUP2 ADD SUB SLT PUSH2 0xA3E JUMPI CODESIZE PUSH2 0x1EB1 JUMP JUMPDEST POP RETURNDATASIZE PUSH2 0x20C9 JUMP JUMPDEST PUSH2 0x2100 SWAP1 PUSH1 0x20 RETURNDATASIZE PUSH1 0x20 GT PUSH2 0xAB2 JUMPI PUSH2 0xAA2 DUP2 DUP4 PUSH2 0x2841 JUMP JUMPDEST POP CODESIZE PUSH2 0x1DBA JUMP JUMPDEST SWAP1 POP PUSH1 0x20 DUP2 RETURNDATASIZE PUSH1 0x20 GT PUSH2 0x2131 JUMPI JUMPDEST DUP2 PUSH2 0x2122 PUSH1 0x20 SWAP4 DUP4 PUSH2 0x2841 JUMP JUMPDEST DUP2 ADD SUB SLT PUSH2 0xA3E JUMPI MLOAD CODESIZE PUSH2 0x1D70 JUMP JUMPDEST RETURNDATASIZE SWAP2 POP PUSH2 0x2115 JUMP JUMPDEST PUSH2 0x2185 SWAP1 PUSH32 0x0 SWAP1 PUSH32 0x0 PUSH2 0x3A12 JUMP JUMPDEST POP CODESIZE PUSH2 0x1D17 JUMP JUMPDEST SWAP1 POP PUSH1 0x20 DUP2 RETURNDATASIZE PUSH1 0x20 GT PUSH2 0x21BA JUMPI JUMPDEST DUP2 PUSH2 0x21A7 PUSH1 0x20 SWAP4 DUP4 PUSH2 0x2841 JUMP JUMPDEST DUP2 ADD SUB SLT PUSH2 0x21B6 JUMPI MLOAD CODESIZE PUSH2 0x1D11 JUMP JUMPDEST DUP7 DUP1 REVERT JUMPDEST RETURNDATASIZE SWAP2 POP PUSH2 0x219A JUMP JUMPDEST SWAP1 SWAP2 POP PUSH1 0x20 DUP2 RETURNDATASIZE PUSH1 0x20 GT PUSH2 0x21EE JUMPI JUMPDEST DUP2 PUSH2 0x21DE PUSH1 0x20 SWAP4 DUP4 PUSH2 0x2841 JUMP JUMPDEST DUP2 ADD SUB SLT PUSH2 0x455 JUMPI MLOAD SWAP1 CODESIZE PUSH2 0x1CBB JUMP JUMPDEST RETURNDATASIZE SWAP2 POP PUSH2 0x21D1 JUMP JUMPDEST PUSH2 0x2218 SWAP2 POP PUSH1 0x20 RETURNDATASIZE PUSH1 0x20 GT PUSH2 0x221E JUMPI JUMPDEST PUSH2 0x2210 DUP2 DUP4 PUSH2 0x2841 JUMP JUMPDEST DUP2 ADD SWAP1 PUSH2 0x3608 JUMP JUMPDEST CODESIZE PUSH2 0x1C5E JUMP JUMPDEST POP RETURNDATASIZE PUSH2 0x2206 JUMP JUMPDEST PUSH1 0x40 MLOAD PUSH3 0x461BCD PUSH1 0xE5 SHL DUP2 MSTORE PUSH1 0x20 PUSH1 0x4 DUP3 ADD MSTORE PUSH1 0xF PUSH1 0x24 DUP3 ADD MSTORE PUSH15 0x1A5B9D985B1A590818DBDB5B585B99 PUSH1 0x8A SHL PUSH1 0x44 DUP3 ADD MSTORE PUSH1 0x64 SWAP1 REVERT JUMPDEST PUSH1 0x40 DUP4 CALLDATASIZE SUB SLT PUSH2 0x11F5 JUMPI PUSH1 0x20 PUSH1 0x40 SWAP2 DUP3 MLOAD PUSH2 0x2276 DUP2 PUSH2 0x27DD JUMP JUMPDEST PUSH2 0x227F DUP7 PUSH2 0x277D JUMP JUMPDEST DUP2 MSTORE DUP3 DUP7 ADD CALLDATALOAD DUP4 DUP3 ADD MSTORE DUP2 MSTORE ADD SWAP3 ADD SWAP2 PUSH2 0x1637 JUMP JUMPDEST DUP6 DUP1 REVERT JUMPDEST PUSH1 0x40 MLOAD PUSH4 0x35FDCCCD PUSH1 0xE2 SHL DUP2 MSTORE CALLER PUSH1 0x4 DUP3 ADD MSTORE PUSH1 0x24 SWAP1 REVERT JUMPDEST POP CALLVALUE PUSH2 0x225 JUMPI DUP1 PUSH1 0x3 NOT CALLDATASIZE ADD SLT PUSH2 0x225 JUMPI PUSH1 0x1 SLOAD PUSH1 0x1 PUSH1 0x1 PUSH1 0xA0 SHL SUB DUP1 DUP3 AND CALLER SUB PUSH2 0x2316 JUMPI DUP3 SLOAD PUSH1 0x1 PUSH1 0x1 PUSH1 0xA0 SHL SUB NOT DUP1 DUP3 AND CALLER SWAP1 DUP2 OR DUP7 SSTORE SWAP4 AND PUSH1 0x1 SSTORE AND PUSH32 0x8BE0079C531659141344CD1FD0A4F28419497F9722A3DAAFE3B4186F6B6457E0 DUP4 DUP1 LOG3 DUP1 RETURN JUMPDEST PUSH1 0x40 MLOAD PUSH3 0x461BCD PUSH1 0xE5 SHL DUP2 MSTORE PUSH1 0x20 PUSH1 0x4 DUP3 ADD MSTORE PUSH1 0x16 PUSH1 0x24 DUP3 ADD MSTORE PUSH22 0x26BAB9BA10313290383937B837B9B2B21037BBB732B9 PUSH1 0x51 SHL PUSH1 0x44 DUP3 ADD MSTORE PUSH1 0x64 SWAP1 REVERT JUMPDEST POP CALLVALUE PUSH2 0x225 JUMPI DUP1 PUSH1 0x3 NOT CALLDATASIZE ADD SLT PUSH2 0x225 JUMPI PUSH1 0x20 PUSH1 0x40 MLOAD PUSH1 0x1 PUSH1 0x1 PUSH1 0x40 SHL SUB PUSH32 0x0 AND DUP2 MSTORE RETURN JUMPDEST POP CALLVALUE PUSH2 0x225 JUMPI DUP1 PUSH1 0x3 NOT CALLDATASIZE ADD SLT PUSH2 0x225 JUMPI PUSH1 0x40 MLOAD PUSH32 0x0 PUSH1 0x1 PUSH1 0x1 PUSH1 0xA0 SHL SUB AND DUP2 MSTORE PUSH1 0x20 SWAP1 RETURN JUMPDEST POP CALLVALUE PUSH2 0x225 JUMPI PUSH1 0xA0 CALLDATASIZE PUSH1 0x3 NOT ADD SLT PUSH2 0x225 JUMPI PUSH2 0x23F7 PUSH2 0x2791 JUMP JUMPDEST SWAP1 PUSH2 0x2400 PUSH2 0x2767 JUMP JUMPDEST PUSH1 0x1 PUSH1 0x1 PUSH1 0xA0 SHL SUB SWAP2 SWAP1 PUSH1 0x44 CALLDATALOAD DUP4 DUP2 AND SWAP1 DUP2 SWAP1 SUB PUSH2 0xA3A JUMPI PUSH1 0x64 CALLDATALOAD DUP5 DUP2 AND DUP1 SWAP2 SUB PUSH2 0x11F9 JUMPI PUSH1 0x84 CALLDATALOAD SWAP6 PUSH1 0x1 PUSH1 0x1 PUSH1 0x40 SHL SUB DUP8 GT PUSH2 0x455 JUMPI PUSH2 0x244A PUSH2 0x24CC SWAP6 SWAP7 SWAP8 CALLDATASIZE SWAP1 PUSH1 0x4 ADD PUSH2 0x2862 JUMP JUMPDEST PUSH1 0x40 MLOAD SWAP4 PUSH1 0x20 SWAP9 DUP10 SWAP7 AND DUP7 DUP7 ADD MSTORE DUP6 DUP6 MSTORE PUSH2 0x2464 DUP6 PUSH2 0x27DD JUMP JUMPDEST PUSH1 0x40 MLOAD PUSH2 0x2470 DUP2 PUSH2 0x27A7 JUMP JUMPDEST DUP9 DUP2 MSTORE PUSH2 0x248D PUSH1 0x40 MLOAD PUSH2 0x2482 DUP2 PUSH2 0x27A7 JUMP JUMPDEST PUSH3 0xF4240 DUP2 MSTORE PUSH2 0x3982 JUMP JUMPDEST SWAP3 PUSH1 0x40 MLOAD SWAP7 PUSH2 0x249B DUP9 PUSH2 0x27C2 JUMP JUMPDEST DUP8 MSTORE DUP8 DUP8 ADD MSTORE PUSH1 0x40 DUP7 ADD MSTORE PUSH1 0x60 DUP6 ADD MSTORE PUSH1 0x80 DUP5 ADD MSTORE PUSH1 0x40 MLOAD DUP1 SWAP6 DUP2 SWAP5 DUP3 SWAP4 PUSH4 0x20487DED PUSH1 0xE0 SHL DUP5 MSTORE PUSH1 0x4 DUP5 ADD PUSH2 0x3667 JUMP JUMPDEST SUB SWAP2 GAS STATICCALL SWAP2 DUP3 ISZERO PUSH2 0x1FEC JUMPI DUP1 SWAP3 PUSH2 0x24E8 JUMPI JUMPDEST POP POP PUSH1 0x40 MLOAD SWAP1 DUP2 MSTORE RETURN JUMPDEST SWAP1 SWAP2 POP DUP3 DUP3 DUP2 RETURNDATASIZE DUP4 GT PUSH2 0x2511 JUMPI JUMPDEST PUSH2 0x2500 DUP2 DUP4 PUSH2 0x2841 JUMP JUMPDEST DUP2 ADD SUB SLT PUSH2 0x225 JUMPI POP MLOAD CODESIZE DUP1 PUSH2 0x24DE JUMP JUMPDEST POP RETURNDATASIZE PUSH2 0x24F6 JUMP JUMPDEST POP CALLVALUE PUSH2 0x225 JUMPI DUP1 PUSH1 0x3 NOT CALLDATASIZE ADD SLT PUSH2 0x225 JUMPI PUSH1 0x20 PUSH1 0x7 SLOAD PUSH1 0x40 MLOAD SWAP1 DUP2 MSTORE RETURN JUMPDEST POP CALLVALUE PUSH2 0x225 JUMPI DUP1 PUSH1 0x3 NOT CALLDATASIZE ADD SLT PUSH2 0x225 JUMPI PUSH1 0x20 PUSH1 0x2 SLOAD PUSH1 0x40 MLOAD SWAP1 DUP2 MSTORE RETURN JUMPDEST POP CALLVALUE PUSH2 0x225 JUMPI DUP1 PUSH1 0x3 NOT CALLDATASIZE ADD SLT PUSH2 0x225 JUMPI PUSH1 0x40 MLOAD PUSH32 0x0 PUSH1 0x1 PUSH1 0x1 PUSH1 0xA0 SHL SUB AND DUP2 MSTORE PUSH1 0x20 SWAP1 RETURN JUMPDEST POP CALLVALUE PUSH2 0x225 JUMPI DUP1 PUSH1 0x3 NOT CALLDATASIZE ADD SLT PUSH2 0x225 JUMPI PUSH1 0x20 PUSH1 0xFF PUSH1 0x3 SLOAD AND PUSH1 0x40 MLOAD SWAP1 ISZERO ISZERO DUP2 MSTORE RETURN JUMPDEST POP CALLVALUE PUSH2 0x225 JUMPI PUSH1 0x40 CALLDATASIZE PUSH1 0x3 NOT ADD SLT PUSH2 0x225 JUMPI PUSH2 0x25D6 PUSH2 0x2751 JUMP JUMPDEST PUSH2 0x25DE PUSH2 0x2767 JUMP JUMPDEST PUSH1 0x40 MLOAD PUSH4 0x35EA6A75 PUSH1 0xE0 SHL DUP2 MSTORE PUSH1 0x1 PUSH1 0x1 PUSH1 0xA0 SHL SUB SWAP2 DUP3 AND PUSH1 0x4 DUP3 ADD MSTORE PUSH2 0x180 SWAP3 SWAP1 SWAP2 DUP4 SWAP2 DUP4 SWAP2 PUSH1 0x24 SWAP2 DUP4 SWAP2 AND GAS STATICCALL SWAP2 DUP3 ISZERO PUSH2 0xF3C JUMPI PUSH1 0x20 SWAP4 SWAP3 PUSH2 0x2626 JUMPI POP POP PUSH1 0x40 MLOAD SWAP1 DUP2 MSTORE RETURN JUMPDEST PUSH2 0x263C SWAP3 POP DUP1 RETURNDATASIZE LT PUSH2 0x51E JUMPI PUSH2 0x503 DUP2 DUP4 PUSH2 0x2841 JUMP JUMPDEST POP POP POP POP POP POP SWAP5 POP POP POP POP POP CODESIZE DUP1 PUSH2 0x24DE JUMP JUMPDEST POP CALLVALUE PUSH2 0x225 JUMPI DUP1 PUSH1 0x3 NOT CALLDATASIZE ADD SLT PUSH2 0x225 JUMPI PUSH1 0x6 SLOAD PUSH1 0x40 MLOAD PUSH1 0x1 PUSH1 0x1 PUSH1 0xA0 SHL SUB SWAP1 SWAP2 AND DUP2 MSTORE PUSH1 0x20 SWAP1 RETURN JUMPDEST POP CALLVALUE PUSH2 0x225 JUMPI DUP1 PUSH1 0x3 NOT CALLDATASIZE ADD SLT PUSH2 0x225 JUMPI PUSH1 0x20 PUSH1 0x40 MLOAD PUSH2 0xFFFF PUSH32 0x0 AND DUP2 MSTORE RETURN JUMPDEST POP CALLVALUE PUSH2 0x225 JUMPI DUP1 PUSH1 0x3 NOT CALLDATASIZE ADD SLT PUSH2 0x225 JUMPI PUSH1 0x40 MLOAD PUSH32 0x0 PUSH1 0x1 PUSH1 0x1 PUSH1 0xA0 SHL SUB AND DUP2 MSTORE PUSH1 0x20 SWAP1 RETURN JUMPDEST SWAP1 POP CALLVALUE PUSH2 0xA3E JUMPI PUSH1 0x20 CALLDATASIZE PUSH1 0x3 NOT ADD SLT PUSH2 0xA3E JUMPI PUSH1 0x4 CALLDATALOAD PUSH4 0xFFFFFFFF PUSH1 0xE0 SHL DUP2 AND DUP1 SWAP2 SUB PUSH2 0xA3A JUMPI PUSH1 0x20 SWAP3 POP PUSH4 0x85572FFB PUSH1 0xE0 SHL DUP2 EQ SWAP1 DUP2 ISZERO PUSH2 0x2740 JUMPI JUMPDEST POP ISZERO ISZERO DUP2 MSTORE RETURN JUMPDEST PUSH4 0x1FFC9A7 PUSH1 0xE0 SHL EQ SWAP1 POP CODESIZE PUSH2 0x2739 JUMP JUMPDEST PUSH1 0x4 CALLDATALOAD SWAP1 PUSH1 0x1 PUSH1 0x1 PUSH1 0xA0 SHL SUB DUP3 AND DUP3 SUB PUSH2 0x4D0 JUMPI JUMP JUMPDEST PUSH1 0x24 CALLDATALOAD SWAP1 PUSH1 0x1 PUSH1 0x1 PUSH1 0xA0 SHL SUB DUP3 AND DUP3 SUB PUSH2 0x4D0 JUMPI JUMP JUMPDEST CALLDATALOAD SWAP1 PUSH1 0x1 PUSH1 0x1 PUSH1 0xA0 SHL SUB DUP3 AND DUP3 SUB PUSH2 0x4D0 JUMPI JUMP JUMPDEST PUSH1 0x4 CALLDATALOAD SWAP1 PUSH1 0x1 PUSH1 0x1 PUSH1 0x40 SHL SUB DUP3 AND DUP3 SUB PUSH2 0x4D0 JUMPI JUMP JUMPDEST PUSH1 0x20 DUP2 ADD SWAP1 DUP2 LT PUSH1 0x1 PUSH1 0x1 PUSH1 0x40 SHL SUB DUP3 GT OR PUSH2 0x48F JUMPI PUSH1 0x40 MSTORE JUMP JUMPDEST PUSH1 0xA0 DUP2 ADD SWAP1 DUP2 LT PUSH1 0x1 PUSH1 0x1 PUSH1 0x40 SHL SUB DUP3 GT OR PUSH2 0x48F JUMPI PUSH1 0x40 MSTORE JUMP JUMPDEST PUSH1 0x40 DUP2 ADD SWAP1 DUP2 LT PUSH1 0x1 PUSH1 0x1 PUSH1 0x40 SHL SUB DUP3 GT OR PUSH2 0x48F JUMPI PUSH1 0x40 MSTORE JUMP JUMPDEST PUSH1 0x1 PUSH1 0x1 PUSH1 0x40 SHL SUB DUP2 GT PUSH2 0x48F JUMPI PUSH1 0x40 MSTORE JUMP JUMPDEST PUSH1 0xE0 DUP2 ADD SWAP1 DUP2 LT PUSH1 0x1 PUSH1 0x1 PUSH1 0x40 SHL SUB DUP3 GT OR PUSH2 0x48F JUMPI PUSH1 0x40 MSTORE JUMP JUMPDEST PUSH1 0x60 DUP2 ADD SWAP1 DUP2 LT PUSH1 0x1 PUSH1 0x1 PUSH1 0x40 SHL SUB DUP3 GT OR PUSH2 0x48F JUMPI PUSH1 0x40 MSTORE JUMP JUMPDEST SWAP1 PUSH1 0x1F DUP1 NOT SWAP2 ADD AND DUP2 ADD SWAP1 DUP2 LT PUSH1 0x1 PUSH1 0x1 PUSH1 0x40 SHL SUB DUP3 GT OR PUSH2 0x48F JUMPI PUSH1 0x40 MSTORE JUMP JUMPDEST DUP2 PUSH1 0x1F DUP3 ADD SLT ISZERO PUSH2 0x4D0 JUMPI DUP1 CALLDATALOAD SWAP1 PUSH1 0x1 PUSH1 0x1 PUSH1 0x40 SHL SUB DUP3 GT PUSH2 0x48F JUMPI PUSH1 0x40 MLOAD SWAP3 PUSH2 0x2896 PUSH1 0x1F DUP5 ADD PUSH1 0x1F NOT AND PUSH1 0x20 ADD DUP6 PUSH2 0x2841 JUMP JUMPDEST DUP3 DUP5 MSTORE PUSH1 0x20 DUP4 DUP4 ADD ADD GT PUSH2 0x4D0 JUMPI DUP2 PUSH1 0x0 SWAP3 PUSH1 0x20 DUP1 SWAP4 ADD DUP4 DUP7 ADD CALLDATACOPY DUP4 ADD ADD MSTORE SWAP1 JUMP JUMPDEST PUSH1 0x1 PUSH1 0x1 PUSH1 0x40 SHL SUB DUP2 GT PUSH2 0x48F JUMPI PUSH1 0x5 SHL PUSH1 0x20 ADD SWAP1 JUMP JUMPDEST PUSH1 0x4 SLOAD DUP2 LT ISZERO PUSH2 0x2906 JUMPI PUSH1 0x4 PUSH1 0x0 MSTORE PUSH32 0x8A35ACFBC15FF81A39AE7D344FD709F28E8600B4AA8C65C6B64BFE7FE36BD19B ADD SWAP1 PUSH1 0x0 SWAP1 JUMP JUMPDEST PUSH4 0x4E487B71 PUSH1 0xE0 SHL PUSH1 0x0 MSTORE PUSH1 0x32 PUSH1 0x4 MSTORE PUSH1 0x24 PUSH1 0x0 REVERT JUMPDEST DUP2 DUP2 MUL SWAP3 SWAP2 DUP2 ISZERO SWAP2 DUP5 DIV EQ OR ISZERO PUSH2 0x292F JUMPI JUMP JUMPDEST PUSH4 0x4E487B71 PUSH1 0xE0 SHL PUSH1 0x0 MSTORE PUSH1 0x11 PUSH1 0x4 MSTORE PUSH1 0x24 PUSH1 0x0 REVERT JUMPDEST ISZERO PUSH2 0x294C JUMPI JUMP JUMPDEST PUSH1 0x40 MLOAD PUSH3 0x461BCD PUSH1 0xE5 SHL DUP2 MSTORE PUSH1 0x20 PUSH1 0x4 DUP3 ADD MSTORE PUSH1 0x25 PUSH1 0x24 DUP3 ADD MSTORE PUSH32 0x52657175697265206D617374657220616E64206E6F646520696E2073616D6520 PUSH1 0x44 DUP3 ADD MSTORE PUSH5 0x31B430B4B7 PUSH1 0xD9 SHL PUSH1 0x64 DUP3 ADD MSTORE PUSH1 0x84 SWAP1 REVERT JUMPDEST ISZERO PUSH2 0x29A6 JUMPI JUMP JUMPDEST PUSH1 0x40 MLOAD PUSH3 0x461BCD PUSH1 0xE5 SHL DUP2 MSTORE PUSH1 0x20 PUSH1 0x4 DUP3 ADD MSTORE PUSH1 0x1C PUSH1 0x24 DUP3 ADD MSTORE PUSH32 0x4F6E6C79204D617374657220436F6E747261637420616C6C6F77656400000000 PUSH1 0x44 DUP3 ADD MSTORE PUSH1 0x64 SWAP1 REVERT JUMPDEST DUP2 ISZERO PUSH2 0x29F5 JUMPI DIV SWAP1 JUMP JUMPDEST PUSH4 0x4E487B71 PUSH1 0xE0 SHL PUSH1 0x0 MSTORE PUSH1 0x12 PUSH1 0x4 MSTORE PUSH1 0x24 PUSH1 0x0 REVERT JUMPDEST SWAP2 SWAP1 DUP3 SUB SWAP2 DUP3 GT PUSH2 0x292F JUMPI JUMP JUMPDEST SWAP1 DUP2 PUSH1 0x20 SWAP2 SUB SLT PUSH2 0x4D0 JUMPI MLOAD DUP1 ISZERO ISZERO DUP2 SUB PUSH2 0x4D0 JUMPI SWAP1 JUMP JUMPDEST SWAP2 SWAP1 DUP3 ADD DUP1 SWAP3 GT PUSH2 0x292F JUMPI JUMP JUMPDEST ISZERO PUSH2 0x2A44 JUMPI JUMP JUMPDEST PUSH1 0x40 MLOAD PUSH3 0x461BCD PUSH1 0xE5 SHL DUP2 MSTORE PUSH1 0x20 PUSH1 0x4 DUP3 ADD MSTORE PUSH1 0x1D PUSH1 0x24 DUP3 ADD MSTORE PUSH32 0x43616C6C6572206973206E6F7420616E20616C6C6F776564206E6F6465000000 PUSH1 0x44 DUP3 ADD MSTORE PUSH1 0x64 SWAP1 REVERT JUMPDEST SWAP1 SWAP2 PUSH1 0x0 SWAP5 PUSH2 0x2A9A PUSH2 0x1676 DUP6 PUSH2 0x3730 JUMP JUMPDEST DUP6 SWAP1 DUP1 PUSH2 0x317E JUMPI JUMPDEST POP PUSH2 0x2AAF DUP2 DUP7 DUP5 DUP8 PUSH2 0x37E8 JUMP JUMPDEST SWAP5 PUSH1 0x40 MLOAD SWAP5 PUSH4 0xB0F479A1 PUSH1 0xE0 SHL DUP7 MSTORE PUSH1 0x20 DUP7 PUSH1 0x4 DUP2 ADDRESS GAS STATICCALL SWAP6 DUP7 ISZERO PUSH2 0xFB2 JUMPI DUP9 SWAP7 PUSH2 0x315D JUMPI JUMPDEST POP PUSH1 0x40 MLOAD PUSH4 0x20487DED PUSH1 0xE0 SHL DUP2 MSTORE SWAP4 PUSH1 0x20 DUP6 DUP1 PUSH2 0x2AF6 DUP12 DUP11 PUSH1 0x4 DUP5 ADD PUSH2 0x3667 JUMP JUMPDEST SUB DUP2 PUSH1 0x1 PUSH1 0x1 PUSH1 0xA0 SHL SUB DUP12 AND GAS STATICCALL SWAP5 DUP6 ISZERO PUSH2 0x3152 JUMPI DUP10 SWAP6 PUSH2 0x311E JUMPI JUMPDEST POP PUSH1 0x40 MLOAD PUSH4 0x70A08231 PUSH1 0xE0 SHL DUP2 MSTORE ADDRESS PUSH1 0x4 DUP3 ADD MSTORE PUSH1 0x20 DUP2 PUSH1 0x24 DUP2 PUSH32 0x0 PUSH1 0x1 PUSH1 0x1 PUSH1 0xA0 SHL SUB AND GAS STATICCALL SWAP1 DUP2 ISZERO PUSH2 0x3021 JUMPI DUP11 SWAP2 PUSH2 0x30EC JUMPI JUMPDEST POP PUSH2 0x307B JUMPI JUMPDEST PUSH1 0x40 MLOAD PUSH4 0x70A08231 PUSH1 0xE0 SHL DUP2 MSTORE ADDRESS PUSH1 0x4 DUP3 ADD MSTORE PUSH1 0x20 DUP2 PUSH1 0x24 DUP2 PUSH32 0x0 PUSH1 0x1 PUSH1 0x1 PUSH1 0xA0 SHL SUB AND GAS STATICCALL SWAP1 DUP2 ISZERO PUSH2 0x3021 JUMPI DUP11 SWAP2 PUSH2 0x3049 JUMPI JUMPDEST POP PUSH1 0x6 SLOAD PUSH1 0x40 MLOAD PUSH4 0x95EA7B3 PUSH1 0xE0 SHL DUP2 MSTORE PUSH1 0x1 PUSH1 0x1 PUSH1 0xA0 SHL SUB SWAP1 SWAP2 AND PUSH1 0x4 DUP3 ADD MSTORE PUSH1 0x24 DUP2 ADD DUP3 SWAP1 MSTORE PUSH1 0x20 DUP2 DUP13 DUP2 DUP1 PUSH1 0x44 DUP2 ADD SUB SWAP2 PUSH32 0x0 PUSH1 0x1 PUSH1 0x1 PUSH1 0xA0 SHL SUB AND GAS CALL DUP1 ISZERO PUSH2 0x2FE0 JUMPI SWAP2 PUSH1 0x20 SWAP2 DUP13 SWAP4 PUSH2 0x302C JUMPI JUMPDEST POP PUSH1 0x40 MLOAD SWAP1 PUSH2 0x2C3E DUP3 PUSH2 0x280B JUMP JUMPDEST PUSH1 0x1 PUSH1 0x1 PUSH1 0xA0 SHL SUB PUSH32 0x0 DUP2 AND DUP4 MSTORE PUSH32 0x0 DUP2 AND DUP5 DUP5 ADD SWAP1 DUP2 MSTORE PUSH2 0xFFFF PUSH32 0x0 AND PUSH1 0x40 DUP1 DUP7 ADD SWAP2 DUP3 MSTORE ADDRESS PUSH1 0x60 DUP8 ADD SWAP1 DUP2 MSTORE PUSH1 0x80 DUP8 ADD DUP15 DUP2 MSTORE PUSH1 0xA0 DUP9 ADD SWAP7 DUP8 MSTORE PUSH1 0xC0 DUP9 ADD DUP11 DUP2 MSTORE PUSH1 0x6 SLOAD SWAP4 MLOAD PUSH4 0x5023B4DF PUSH1 0xE0 SHL DUP2 MSTORE SWAP9 MLOAD DUP8 AND PUSH1 0x4 DUP11 ADD MSTORE SWAP5 MLOAD DUP7 AND PUSH1 0x24 DUP10 ADD MSTORE SWAP3 MLOAD PUSH3 0xFFFFFF AND PUSH1 0x44 DUP9 ADD MSTORE MLOAD DUP5 AND PUSH1 0x64 DUP8 ADD MSTORE SWAP1 MLOAD PUSH1 0x84 DUP7 ADD MSTORE SWAP3 MLOAD PUSH1 0xA4 DUP6 ADD MSTORE MLOAD DUP2 AND PUSH1 0xC4 DUP5 ADD MSTORE SWAP2 SWAP4 DUP5 SWAP3 PUSH1 0xE4 SWAP3 DUP5 SWAP3 SWAP2 AND GAS CALL SWAP1 DUP2 ISZERO PUSH2 0x3021 JUMPI DUP11 SWAP2 PUSH2 0x2FEF JUMPI JUMPDEST POP PUSH32 0x0 PUSH1 0x1 PUSH1 0x1 PUSH1 0xA0 SHL SUB AND EXTCODESIZE ISZERO PUSH2 0x2FEB JUMPI PUSH1 0x40 MLOAD PUSH4 0x2E1A7D4D PUSH1 0xE0 SHL DUP2 MSTORE PUSH1 0x4 DUP2 ADD DUP8 SWAP1 MSTORE DUP11 DUP2 PUSH1 0x24 DUP2 DUP4 PUSH32 0x0 PUSH1 0x1 PUSH1 0x1 PUSH1 0xA0 SHL SUB AND GAS CALL DUP1 ISZERO PUSH2 0x2FE0 JUMPI PUSH2 0x2FCD JUMPI JUMPDEST POP DUP5 PUSH2 0x2FAC JUMPI JUMPDEST POP POP POP SELFBALANCE DUP4 GT PUSH2 0x208B JUMPI PUSH1 0x1 PUSH1 0x1 PUSH1 0xA0 SHL SUB AND SWAP1 DUP2 PUSH2 0x2F38 JUMPI JUMPDEST POP POP SWAP2 PUSH2 0x2E0F SWAP5 SWAP4 SWAP2 PUSH1 0x20 SWAP4 PUSH1 0x40 MLOAD DUP1 SWAP8 DUP2 SWAP6 DUP3 SWAP5 PUSH4 0x96F4E9F9 PUSH1 0xE0 SHL DUP5 MSTORE PUSH1 0x4 DUP5 ADD PUSH2 0x3667 JUMP JUMPDEST SUB SWAP3 PUSH1 0x1 PUSH1 0x1 PUSH1 0xA0 SHL SUB AND GAS CALL SWAP2 DUP3 ISZERO PUSH2 0xF64 JUMPI DUP2 SWAP3 PUSH2 0x2F04 JUMPI JUMPDEST POP PUSH1 0x40 MLOAD PUSH4 0x70A08231 PUSH1 0xE0 SHL DUP2 MSTORE ADDRESS PUSH1 0x4 DUP3 ADD MSTORE PUSH1 0x20 DUP2 PUSH1 0x24 DUP2 PUSH32 0x0 PUSH1 0x1 PUSH1 0x1 PUSH1 0xA0 SHL SUB AND GAS STATICCALL SWAP2 DUP3 ISZERO PUSH2 0x1FEC JUMPI SWAP2 PUSH2 0x2ED2 JUMPI JUMPDEST POP PUSH2 0x2E85 JUMPI SWAP1 JUMP JUMPDEST PUSH2 0x2ECF PUSH32 0x0 PUSH32 0x0 PUSH2 0x3B8D JUMP JUMPDEST SWAP1 JUMP JUMPDEST SWAP1 POP PUSH1 0x20 DUP2 RETURNDATASIZE PUSH1 0x20 GT PUSH2 0x2EFC JUMPI JUMPDEST DUP2 PUSH2 0x2EED PUSH1 0x20 SWAP4 DUP4 PUSH2 0x2841 JUMP JUMPDEST DUP2 ADD SUB SLT PUSH2 0x4D0 JUMPI MLOAD CODESIZE PUSH2 0x2E7D JUMP JUMPDEST RETURNDATASIZE SWAP2 POP PUSH2 0x2EE0 JUMP JUMPDEST SWAP1 SWAP2 POP PUSH1 0x20 DUP2 RETURNDATASIZE PUSH1 0x20 GT PUSH2 0x2F30 JUMPI JUMPDEST DUP2 PUSH2 0x2F20 PUSH1 0x20 SWAP4 DUP4 PUSH2 0x2841 JUMP JUMPDEST DUP2 ADD SUB SLT PUSH2 0x4D0 JUMPI MLOAD SWAP1 CODESIZE PUSH2 0x2E2A JUMP JUMPDEST RETURNDATASIZE SWAP2 POP PUSH2 0x2F13 JUMP JUMPDEST PUSH1 0x40 MLOAD PUSH4 0x95EA7B3 PUSH1 0xE0 SHL DUP2 MSTORE PUSH1 0x1 PUSH1 0x1 PUSH1 0xA0 SHL SUB DUP7 AND PUSH1 0x4 DUP3 ADD MSTORE PUSH1 0x24 DUP2 ADD SWAP2 SWAP1 SWAP2 MSTORE SWAP1 PUSH1 0x20 SWAP1 DUP3 SWAP1 PUSH1 0x44 SWAP1 DUP3 SWAP1 DUP11 SWAP1 GAS CALL DUP1 ISZERO PUSH2 0x18DD JUMPI SWAP2 PUSH2 0x2E0F SWAP7 SWAP6 SWAP4 SWAP2 PUSH1 0x20 SWAP6 SWAP4 PUSH2 0x2F8F JUMPI JUMPDEST POP SWAP2 SWAP4 DUP2 SWAP4 SWAP6 SWAP7 POP PUSH2 0x2DE7 JUMP JUMPDEST PUSH2 0x2FA5 SWAP1 DUP7 RETURNDATASIZE DUP9 GT PUSH2 0xAB2 JUMPI PUSH2 0xAA2 DUP2 DUP4 PUSH2 0x2841 JUMP JUMPDEST POP CODESIZE PUSH2 0x2F82 JUMP JUMPDEST DUP4 SWAP9 POP SWAP1 PUSH2 0x2FBE PUSH2 0x2FC4 SWAP5 SWAP3 DUP7 PUSH2 0x2A0B JUMP JUMPDEST SWAP3 PUSH2 0x37E8 JUMP JUMPDEST SWAP5 CODESIZE DUP1 DUP1 PUSH2 0x2DCD JUMP JUMPDEST PUSH2 0x2FD9 SWAP1 SWAP11 SWAP2 SWAP11 PUSH2 0x27F8 JUMP JUMPDEST SWAP9 CODESIZE PUSH2 0x2DC6 JUMP JUMPDEST PUSH1 0x40 MLOAD RETURNDATASIZE DUP14 DUP3 RETURNDATACOPY RETURNDATASIZE SWAP1 REVERT JUMPDEST DUP10 DUP1 REVERT JUMPDEST SWAP1 POP PUSH1 0x20 DUP2 RETURNDATASIZE PUSH1 0x20 GT PUSH2 0x3019 JUMPI JUMPDEST DUP2 PUSH2 0x300A PUSH1 0x20 SWAP4 DUP4 PUSH2 0x2841 JUMP JUMPDEST DUP2 ADD SUB SLT PUSH2 0x2FEB JUMPI MLOAD CODESIZE PUSH2 0x2D44 JUMP JUMPDEST RETURNDATASIZE SWAP2 POP PUSH2 0x2FFD JUMP JUMPDEST PUSH1 0x40 MLOAD RETURNDATASIZE DUP13 DUP3 RETURNDATACOPY RETURNDATASIZE SWAP1 REVERT JUMPDEST PUSH2 0x3042 SWAP1 DUP4 RETURNDATASIZE DUP6 GT PUSH2 0xAB2 JUMPI PUSH2 0xAA2 DUP2 DUP4 PUSH2 0x2841 JUMP JUMPDEST POP CODESIZE PUSH2 0x2C30 JUMP JUMPDEST SWAP1 POP PUSH1 0x20 DUP2 RETURNDATASIZE PUSH1 0x20 GT PUSH2 0x3073 JUMPI JUMPDEST DUP2 PUSH2 0x3064 PUSH1 0x20 SWAP4 DUP4 PUSH2 0x2841 JUMP JUMPDEST DUP2 ADD SUB SLT PUSH2 0x2FEB JUMPI MLOAD CODESIZE PUSH2 0x2BBF JUMP JUMPDEST RETURNDATASIZE SWAP2 POP PUSH2 0x3057 JUMP JUMPDEST PUSH2 0x30E6 PUSH32 0x0 PUSH32 0x0 PUSH32 0x0 PUSH2 0x3A12 JUMP JUMPDEST POP PUSH2 0x2B6C JUMP JUMPDEST SWAP1 POP PUSH1 0x20 DUP2 RETURNDATASIZE PUSH1 0x20 GT PUSH2 0x3116 JUMPI JUMPDEST DUP2 PUSH2 0x3107 PUSH1 0x20 SWAP4 DUP4 PUSH2 0x2841 JUMP JUMPDEST DUP2 ADD SUB SLT PUSH2 0x2FEB JUMPI MLOAD CODESIZE PUSH2 0x2B66 JUMP JUMPDEST RETURNDATASIZE SWAP2 POP PUSH2 0x30FA JUMP JUMPDEST SWAP1 SWAP5 POP PUSH1 0x20 DUP2 RETURNDATASIZE PUSH1 0x20 GT PUSH2 0x314A JUMPI JUMPDEST DUP2 PUSH2 0x313A PUSH1 0x20 SWAP4 DUP4 PUSH2 0x2841 JUMP JUMPDEST DUP2 ADD SUB SLT PUSH2 0x11F5 JUMPI MLOAD SWAP4 CODESIZE PUSH2 0x2B12 JUMP JUMPDEST RETURNDATASIZE SWAP2 POP PUSH2 0x312D JUMP JUMPDEST PUSH1 0x40 MLOAD RETURNDATASIZE DUP12 DUP3 RETURNDATACOPY RETURNDATASIZE SWAP1 REVERT JUMPDEST PUSH2 0x3177 SWAP2 SWAP7 POP PUSH1 0x20 RETURNDATASIZE PUSH1 0x20 GT PUSH2 0x221E JUMPI PUSH2 0x2210 DUP2 DUP4 PUSH2 0x2841 JUMP JUMPDEST SWAP5 CODESIZE PUSH2 0x2AD5 JUMP JUMPDEST SWAP1 POP CODESIZE PUSH2 0x2AA2 JUMP JUMPDEST SWAP3 SWAP1 SWAP2 PUSH2 0x3195 PUSH2 0x1676 DUP5 PUSH2 0x3730 JUMP JUMPDEST PUSH1 0x5 SLOAD PUSH1 0x40 DUP1 MLOAD PUSH1 0x1 PUSH1 0x1 PUSH1 0xA0 SHL SUB SWAP3 DUP4 AND SWAP7 SWAP2 SWAP4 SWAP1 SWAP2 PUSH2 0x31B5 DUP4 PUSH2 0x27C2 JUMP JUMPDEST PUSH1 0x60 SWAP2 DUP3 DUP5 MSTORE DUP9 PUSH1 0x20 SWAP4 DUP1 DUP6 DUP8 ADD MSTORE DUP1 DUP9 DUP8 ADD MSTORE DUP1 PUSH1 0x80 PUSH1 0x0 SWAP8 DUP9 DUP4 DUP3 ADD MSTORE ADD MSTORE DUP8 MLOAD PUSH2 0x31E1 DUP2 PUSH2 0x27A7 JUMP JUMPDEST DUP7 DUP2 MSTORE DUP8 DUP10 MLOAD SWAP12 AND DUP7 DUP13 ADD MSTORE DUP6 DUP12 MSTORE PUSH2 0x31F9 DUP12 PUSH2 0x27DD JUMP JUMPDEST PUSH2 0x3207 DUP10 MLOAD PUSH2 0x1C0A DUP2 PUSH2 0x27A7 JUMP JUMPDEST SWAP4 DUP10 MLOAD SWAP12 PUSH2 0x3214 DUP14 PUSH2 0x27C2 JUMP JUMPDEST DUP13 MSTORE DUP7 DUP13 ADD MSTORE DUP9 DUP12 ADD MSTORE DUP10 ADD MSTORE PUSH1 0x80 DUP9 ADD MSTORE DUP5 MLOAD PUSH4 0xB0F479A1 PUSH1 0xE0 SHL DUP2 MSTORE SWAP8 PUSH1 0x4 SWAP2 DUP4 DUP11 DUP5 DUP2 ADDRESS GAS STATICCALL SWAP10 DUP11 ISZERO PUSH2 0x35FE JUMPI PUSH2 0x3271 SWAP9 SWAP10 SWAP11 DUP8 SWAP2 DUP8 SWAP2 PUSH2 0x35E1 JUMPI JUMPDEST POP AND SWAP2 DUP5 DUP12 DUP10 MLOAD DUP1 SWAP12 DUP2 SWAP3 PUSH4 0x20487DED PUSH1 0xE0 SHL DUP4 MSTORE DUP7 DUP10 DUP5 ADD PUSH2 0x3667 JUMP JUMPDEST SUB DUP2 DUP7 GAS STATICCALL SWAP9 DUP10 ISZERO PUSH2 0x348C JUMPI DUP7 SWAP10 PUSH2 0x35B2 JUMPI JUMPDEST POP DUP8 MLOAD PUSH4 0x23B872DD PUSH1 0xE0 SHL DUP2 MSTORE CALLER DUP6 DUP3 ADD SWAP1 DUP2 MSTORE ADDRESS PUSH1 0x20 DUP3 ADD MSTORE PUSH1 0x40 DUP2 ADD DUP12 SWAP1 MSTORE SWAP1 SWAP2 DUP7 SWAP2 DUP4 SWAP2 SWAP1 DUP3 SWAP1 DUP11 SWAP1 DUP3 SWAP1 PUSH1 0x60 ADD SUB SWAP3 GAS CALL SWAP1 DUP2 ISZERO PUSH2 0x348C JUMPI DUP7 SWAP2 PUSH2 0x3595 JUMPI JUMPDEST POP ISZERO PUSH2 0x3552 JUMPI DUP6 PUSH1 0x5 SLOAD AND DUP8 MLOAD SWAP9 PUSH4 0x70A08231 PUSH1 0xE0 SHL SWAP10 DUP11 DUP2 MSTORE ADDRESS DUP7 DUP3 ADD MSTORE DUP7 DUP2 PUSH1 0x24 DUP2 DUP7 GAS STATICCALL SWAP1 DUP2 ISZERO PUSH2 0x3548 JUMPI DUP9 SWAP2 PUSH2 0x3517 JUMPI JUMPDEST POP DUP2 GT PUSH2 0x3496 JUMPI DUP9 MLOAD PUSH4 0x95EA7B3 PUSH1 0xE0 SHL DUP2 MSTORE PUSH1 0x1 PUSH1 0x1 PUSH1 0xA0 SHL SUB DUP6 AND DUP7 DUP3 ADD SWAP1 DUP2 MSTORE PUSH1 0x20 DUP2 ADD SWAP3 SWAP1 SWAP3 MSTORE SWAP2 DUP7 SWAP2 DUP4 SWAP2 SWAP1 DUP3 SWAP1 DUP11 SWAP1 DUP3 SWAP1 PUSH1 0x40 ADD SUB SWAP3 GAS CALL DUP1 ISZERO PUSH2 0x348C JUMPI SWAP2 DUP6 SWAP4 SWAP2 PUSH2 0x336B SWAP12 SWAP13 SWAP4 PUSH2 0x346F JUMPI JUMPDEST POP DUP7 DUP10 MLOAD DUP1 SWAP13 DUP2 SWAP6 DUP3 SWAP5 PUSH4 0x96F4E9F9 PUSH1 0xE0 SHL DUP5 MSTORE DUP10 DUP5 ADD PUSH2 0x3667 JUMP JUMPDEST SUB SWAP3 GAS CALL SWAP7 DUP8 ISZERO PUSH2 0x3465 JUMPI DUP4 SWAP8 PUSH2 0x3436 JUMPI JUMPDEST POP DUP2 SWAP1 PUSH1 0x24 PUSH32 0x0 SWAP8 DUP8 MLOAD SWAP7 DUP8 SWAP4 DUP5 SWAP3 DUP4 MSTORE ADDRESS SWAP1 DUP4 ADD MSTORE DUP10 AND GAS STATICCALL SWAP4 DUP5 ISZERO PUSH2 0x342B JUMPI POP DUP2 SWAP4 PUSH2 0x33FA JUMPI JUMPDEST POP POP POP PUSH2 0x33D0 JUMPI POP SWAP1 JUMP JUMPDEST PUSH2 0x2ECF SWAP1 PUSH32 0x0 PUSH2 0x3B8D JUMP JUMPDEST SWAP1 SWAP2 DUP1 SWAP4 POP DUP2 RETURNDATASIZE DUP4 GT PUSH2 0x3424 JUMPI JUMPDEST PUSH2 0x3412 DUP2 DUP4 PUSH2 0x2841 JUMP JUMPDEST DUP2 ADD SUB SLT PUSH2 0x225 JUMPI POP MLOAD CODESIZE DUP1 DUP1 PUSH2 0x33C5 JUMP JUMPDEST POP RETURNDATASIZE PUSH2 0x3408 JUMP JUMPDEST MLOAD SWAP2 RETURNDATASIZE SWAP2 POP DUP3 RETURNDATACOPY RETURNDATASIZE SWAP1 REVERT JUMPDEST SWAP1 SWAP7 POP DUP2 DUP2 DUP2 RETURNDATASIZE DUP4 GT PUSH2 0x345E JUMPI JUMPDEST PUSH2 0x344E DUP2 DUP4 PUSH2 0x2841 JUMP JUMPDEST DUP2 ADD SUB SLT PUSH2 0xA3A JUMPI MLOAD SWAP6 DUP2 PUSH2 0x337D JUMP JUMPDEST POP RETURNDATASIZE PUSH2 0x3444 JUMP JUMPDEST DUP6 MLOAD RETURNDATASIZE DUP6 DUP3 RETURNDATACOPY RETURNDATASIZE SWAP1 REVERT JUMPDEST PUSH2 0x3485 SWAP1 DUP6 RETURNDATASIZE DUP8 GT PUSH2 0xAB2 JUMPI PUSH2 0xAA2 DUP2 DUP4 PUSH2 0x2841 JUMP JUMPDEST POP CODESIZE PUSH2 0x334F JUMP JUMPDEST DUP9 MLOAD RETURNDATASIZE DUP9 DUP3 RETURNDATACOPY RETURNDATASIZE SWAP1 REVERT JUMPDEST DUP5 SWAP1 DUP7 DUP11 DUP10 SWAP5 DUP3 DUP15 PUSH1 0x24 DUP5 MLOAD DUP1 SWAP5 DUP2 SWAP4 DUP3 MSTORE ADDRESS DUP11 DUP4 ADD MSTORE GAS STATICCALL SWAP3 DUP4 ISZERO PUSH2 0x350D JUMPI DUP7 SWAP4 PUSH2 0x34D9 JUMPI JUMPDEST POP POP MLOAD PUSH4 0x4787A103 PUSH1 0xE1 SHL DUP2 MSTORE SWAP3 DUP4 ADD MSTORE PUSH1 0x24 DUP3 ADD MSTORE PUSH1 0x44 SWAP2 POP REVERT JUMPDEST SWAP1 DUP1 SWAP3 SWAP4 POP DUP2 RETURNDATASIZE DUP4 GT PUSH2 0x3506 JUMPI JUMPDEST PUSH2 0x34F1 DUP2 DUP4 PUSH2 0x2841 JUMP JUMPDEST DUP2 ADD SUB SLT PUSH2 0x455 JUMPI PUSH1 0x44 SWAP5 POP MLOAD SWAP1 DUP6 DUP1 PUSH2 0x34BD JUMP JUMPDEST POP RETURNDATASIZE PUSH2 0x34E7 JUMP JUMPDEST DUP3 MLOAD RETURNDATASIZE DUP9 DUP3 RETURNDATACOPY RETURNDATASIZE SWAP1 REVERT JUMPDEST SWAP1 POP DUP7 DUP2 DUP2 RETURNDATASIZE DUP4 GT PUSH2 0x3541 JUMPI JUMPDEST PUSH2 0x352E DUP2 DUP4 PUSH2 0x2841 JUMP JUMPDEST DUP2 ADD SUB SLT PUSH2 0x353D JUMPI MLOAD CODESIZE PUSH2 0x32FC JUMP JUMPDEST DUP8 DUP1 REVERT JUMPDEST POP RETURNDATASIZE PUSH2 0x3524 JUMP JUMPDEST DUP11 MLOAD RETURNDATASIZE DUP11 DUP3 RETURNDATACOPY RETURNDATASIZE SWAP1 REVERT JUMPDEST DUP7 MLOAD PUSH3 0x461BCD PUSH1 0xE5 SHL DUP2 MSTORE DUP1 DUP5 ADD DUP6 SWAP1 MSTORE PUSH1 0x1A PUSH1 0x24 DUP3 ADD MSTORE PUSH32 0x4E6F742070726F7669646564204C696E6B20666F722066656573000000000000 PUSH1 0x44 DUP3 ADD MSTORE PUSH1 0x64 SWAP1 REVERT JUMPDEST PUSH2 0x35AC SWAP2 POP DUP6 RETURNDATASIZE DUP8 GT PUSH2 0xAB2 JUMPI PUSH2 0xAA2 DUP2 DUP4 PUSH2 0x2841 JUMP JUMPDEST CODESIZE PUSH2 0x32C7 JUMP JUMPDEST SWAP1 SWAP9 POP DUP5 DUP2 DUP2 RETURNDATASIZE DUP4 GT PUSH2 0x35DA JUMPI JUMPDEST PUSH2 0x35CA DUP2 DUP4 PUSH2 0x2841 JUMP JUMPDEST DUP2 ADD SUB SLT PUSH2 0x2294 JUMPI MLOAD SWAP8 DUP5 PUSH2 0x3284 JUMP JUMPDEST POP RETURNDATASIZE PUSH2 0x35C0 JUMP JUMPDEST PUSH2 0x35F8 SWAP2 POP DUP7 RETURNDATASIZE DUP9 GT PUSH2 0x221E JUMPI PUSH2 0x2210 DUP2 DUP4 PUSH2 0x2841 JUMP JUMPDEST CODESIZE PUSH2 0x3253 JUMP JUMPDEST DUP8 MLOAD RETURNDATASIZE DUP8 DUP3 RETURNDATACOPY RETURNDATASIZE SWAP1 REVERT JUMPDEST SWAP1 DUP2 PUSH1 0x20 SWAP2 SUB SLT PUSH2 0x4D0 JUMPI MLOAD PUSH1 0x1 PUSH1 0x1 PUSH1 0xA0 SHL SUB DUP2 AND DUP2 SUB PUSH2 0x4D0 JUMPI SWAP1 JUMP JUMPDEST SWAP2 SWAP1 DUP3 MLOAD SWAP3 DUP4 DUP3 MSTORE PUSH1 0x0 JUMPDEST DUP5 DUP2 LT PUSH2 0x3653 JUMPI POP POP DUP3 PUSH1 0x0 PUSH1 0x20 DUP1 SWAP5 SWAP6 DUP5 ADD ADD MSTORE PUSH1 0x1F DUP1 NOT SWAP2 ADD AND ADD ADD SWAP1 JUMP JUMPDEST PUSH1 0x20 DUP2 DUP4 ADD DUP2 ADD MLOAD DUP5 DUP4 ADD DUP3 ADD MSTORE ADD PUSH2 0x3632 JUMP JUMPDEST SWAP1 PUSH1 0x1 PUSH1 0x1 PUSH1 0x40 SHL SUB SWAP1 SWAP4 SWAP3 SWAP4 AND DUP2 MSTORE PUSH1 0x40 PUSH1 0x20 SWAP2 DUP2 DUP4 DUP3 ADD MSTORE PUSH2 0x3696 DUP6 MLOAD PUSH1 0xA0 DUP5 DUP5 ADD MSTORE PUSH1 0xE0 DUP4 ADD SWAP1 PUSH2 0x3627 JUMP JUMPDEST SWAP2 PUSH2 0x36B2 DUP5 DUP8 ADD MLOAD SWAP4 PUSH1 0x3F NOT SWAP5 DUP6 DUP6 DUP4 SUB ADD PUSH1 0x60 DUP7 ADD MSTORE PUSH2 0x3627 JUMP JUMPDEST DUP2 DUP8 ADD MLOAD SWAP5 DUP5 DUP5 DUP4 SUB ADD PUSH1 0x80 DUP6 ADD MSTORE DUP1 DUP1 DUP8 MLOAD SWAP4 DUP5 DUP2 MSTORE ADD SWAP7 ADD SWAP3 PUSH1 0x0 SWAP1 JUMPDEST DUP4 DUP3 LT PUSH2 0x3707 JUMPI POP POP POP POP POP PUSH1 0xC0 PUSH1 0x80 PUSH2 0x2ECF SWAP6 SWAP7 PUSH1 0x1 DUP1 PUSH1 0xA0 SHL SUB PUSH1 0x60 DUP3 ADD MLOAD AND PUSH1 0xA0 DUP6 ADD MSTORE ADD MLOAD SWAP3 DUP3 DUP6 SUB ADD SWAP2 ADD MSTORE PUSH2 0x3627 JUMP JUMPDEST DUP5 MLOAD DUP1 MLOAD PUSH1 0x1 PUSH1 0x1 PUSH1 0xA0 SHL SUB AND DUP10 MSTORE DUP4 ADD MLOAD DUP9 DUP5 ADD MSTORE SWAP7 DUP8 ADD SWAP7 SWAP4 DUP3 ADD SWAP4 PUSH1 0x1 SWAP1 SWAP2 ADD SWAP1 PUSH2 0x36D1 JUMP JUMPDEST PUSH1 0x0 PUSH1 0x4 DUP1 SLOAD SWAP2 JUMPDEST DUP3 PUSH2 0xFFFF DUP3 AND LT PUSH2 0x3783 JUMPI POP POP POP PUSH32 0x0 PUSH1 0x1 PUSH1 0x1 PUSH1 0xA0 SHL SUB SWAP1 DUP2 AND SWAP2 AND EQ PUSH2 0x377E JUMPI PUSH1 0x0 SWAP1 JUMP JUMPDEST PUSH1 0x1 SWAP1 JUMP JUMPDEST PUSH2 0x378C DUP2 PUSH2 0x28CF JUMP JUMPDEST SWAP1 SLOAD PUSH1 0x3 SWAP2 SWAP1 SWAP2 SHL SHR PUSH1 0x1 PUSH1 0x1 PUSH1 0xA0 SHL SUB SWAP1 DUP2 AND SWAP1 DUP6 AND EQ PUSH2 0x37D2 JUMPI PUSH2 0xFFFF DUP1 SWAP2 AND SWAP1 DUP2 EQ PUSH2 0x37BD JUMPI PUSH1 0x1 ADD PUSH2 0x3738 JUMP JUMPDEST PUSH1 0x11 DUP3 PUSH4 0x4E487B71 PUSH1 0xE0 SHL PUSH1 0x0 MSTORE MSTORE PUSH1 0x24 PUSH1 0x0 REVERT JUMPDEST POP POP POP POP PUSH1 0x1 SWAP1 JUMP JUMPDEST DUP1 MLOAD ISZERO PUSH2 0x2906 JUMPI PUSH1 0x20 ADD SWAP1 JUMP JUMPDEST SWAP3 SWAP2 SWAP1 PUSH1 0x40 SWAP2 DUP3 MLOAD SWAP3 PUSH2 0x37FA DUP5 PUSH2 0x27C2 JUMP JUMPDEST PUSH1 0x60 SWAP3 DUP4 DUP6 MSTORE PUSH1 0x20 SWAP6 DUP5 DUP8 DUP8 ADD MSTORE DUP5 DUP4 DUP8 ADD MSTORE DUP5 PUSH1 0x80 PUSH1 0x0 SWAP8 DUP9 DUP4 DUP3 ADD MSTORE ADD MSTORE PUSH1 0x1 DUP1 PUSH1 0xA0 SHL SUB DUP1 SWAP5 AND DUP1 ISZERO DUP1 PUSH2 0x38F3 JUMPI JUMPDEST ISZERO PUSH2 0x3885 JUMPI POP POP DUP2 MLOAD PUSH2 0x383E DUP2 PUSH2 0x27A7 JUMP JUMPDEST DUP6 DUP2 MSTORE SWAP3 JUMPDEST DUP3 MLOAD SWAP8 AND DUP7 DUP9 ADD MSTORE DUP6 DUP8 MSTORE PUSH2 0x3857 DUP8 PUSH2 0x27DD JUMP JUMPDEST PUSH2 0x3865 DUP3 MLOAD PUSH2 0x1C0A DUP2 PUSH2 0x27A7 JUMP JUMPDEST SWAP6 DUP3 MLOAD SWAP8 PUSH2 0x3872 DUP10 PUSH2 0x27C2 JUMP JUMPDEST DUP9 MSTORE DUP8 ADD MSTORE DUP6 ADD MSTORE DUP4 ADD MSTORE PUSH1 0x80 DUP3 ADD MSTORE SWAP1 JUMP JUMPDEST DUP4 SWAP5 SWAP2 SWAP5 MLOAD SWAP1 PUSH2 0x3894 DUP3 PUSH2 0x27DD JUMP JUMPDEST PUSH1 0x1 DUP3 MSTORE DUP9 DUP9 JUMPDEST DUP2 DUP2 LT PUSH2 0x38D2 JUMPI POP POP SWAP1 PUSH2 0x38CC SWAP2 DUP2 SWAP7 DUP7 MLOAD SWAP2 PUSH2 0x38B7 DUP4 PUSH2 0x27DD JUMP JUMPDEST DUP3 MSTORE DUP11 DUP3 ADD MSTORE PUSH2 0x38C6 DUP3 PUSH2 0x37DB JUMP JUMPDEST MSTORE PUSH2 0x37DB JUMP JUMPDEST POP PUSH2 0x3843 JUMP JUMPDEST DUP7 MLOAD PUSH2 0x38DD DUP2 PUSH2 0x27DD JUMP JUMPDEST DUP11 DUP2 MSTORE DUP11 DUP4 DUP3 ADD MSTORE DUP3 DUP3 DUP7 ADD ADD MSTORE ADD DUP10 SWAP1 PUSH2 0x389B JUMP JUMPDEST POP DUP2 ISZERO PUSH2 0x382C JUMP JUMPDEST SWAP2 SWAP1 DUP3 PUSH2 0x180 SWAP2 SUB SLT PUSH2 0x4D0 JUMPI DUP2 MLOAD SWAP2 PUSH1 0x20 DUP2 ADD MLOAD SWAP2 PUSH1 0x40 DUP3 ADD MLOAD SWAP2 PUSH1 0x60 DUP2 ADD MLOAD SWAP2 PUSH1 0x80 DUP3 ADD MLOAD SWAP2 PUSH1 0xA0 DUP2 ADD MLOAD SWAP2 PUSH1 0xC0 DUP3 ADD MLOAD SWAP2 PUSH1 0xE0 DUP2 ADD MLOAD SWAP2 PUSH2 0x100 DUP3 ADD MLOAD SWAP2 PUSH2 0x120 DUP2 ADD MLOAD SWAP2 PUSH2 0x160 PUSH2 0x140 DUP4 ADD MLOAD SWAP3 ADD MLOAD PUSH5 0xFFFFFFFFFF DUP2 AND DUP2 SUB PUSH2 0x4D0 JUMPI SWAP1 JUMP JUMPDEST MLOAD SWAP1 PUSH1 0x1 PUSH1 0x1 PUSH1 0xA0 SHL SUB DUP3 AND DUP3 SUB PUSH2 0x4D0 JUMPI JUMP JUMPDEST MLOAD SWAP1 PUSH1 0xFF DUP3 AND DUP3 SUB PUSH2 0x4D0 JUMPI JUMP JUMPDEST PUSH1 0x40 MLOAD SWAP1 PUSH4 0x97A657C9 PUSH1 0xE0 SHL PUSH1 0x20 DUP4 ADD MSTORE MLOAD PUSH1 0x24 DUP3 ADD MSTORE PUSH1 0x24 DUP2 MSTORE PUSH1 0x60 DUP2 ADD DUP2 DUP2 LT PUSH1 0x1 PUSH1 0x1 PUSH1 0x40 SHL SUB DUP3 GT OR PUSH2 0x48F JUMPI PUSH1 0x40 MSTORE SWAP1 JUMP JUMPDEST PUSH1 0x40 MLOAD PUSH4 0x26B1D5F PUSH1 0xE0 SHL DUP2 MSTORE SWAP1 PUSH1 0x20 SWAP1 DUP3 SWAP1 PUSH1 0x4 SWAP1 DUP3 SWAP1 PUSH1 0x1 PUSH1 0x1 PUSH1 0xA0 SHL SUB AND GAS STATICCALL SWAP1 DUP2 ISZERO PUSH2 0x3A06 JUMPI PUSH1 0x0 SWAP2 PUSH2 0x39EE JUMPI POP SWAP1 JUMP JUMPDEST PUSH2 0x2ECF SWAP2 POP PUSH1 0x20 RETURNDATASIZE DUP2 GT PUSH2 0x221E JUMPI PUSH2 0x2210 DUP2 DUP4 PUSH2 0x2841 JUMP JUMPDEST PUSH1 0x40 MLOAD RETURNDATASIZE PUSH1 0x0 DUP3 RETURNDATACOPY RETURNDATASIZE SWAP1 REVERT JUMPDEST PUSH1 0x40 DUP1 MLOAD PUSH4 0x70A08231 PUSH1 0xE0 SHL DUP2 MSTORE ADDRESS PUSH1 0x4 DUP3 ADD MSTORE SWAP4 SWAP5 SWAP4 SWAP1 SWAP3 PUSH1 0x20 SWAP3 PUSH1 0x1 PUSH1 0x1 PUSH1 0xA0 SHL SUB SWAP2 DUP3 AND SWAP3 SWAP2 SWAP1 DUP5 DUP4 PUSH1 0x24 DUP2 DUP8 GAS STATICCALL SWAP3 DUP4 ISZERO PUSH2 0x3B51 JUMPI PUSH1 0x0 SWAP4 PUSH2 0x3B5C JUMPI JUMPDEST POP PUSH2 0x3A5D SWAP1 PUSH2 0x39B9 JUMP JUMPDEST DUP6 MLOAD PUSH4 0x95EA7B3 PUSH1 0xE0 SHL DUP2 MSTORE PUSH1 0x1 PUSH1 0x1 PUSH1 0xA0 SHL SUB DUP3 AND PUSH1 0x4 DUP3 ADD MSTORE PUSH1 0x24 DUP2 ADD DUP5 SWAP1 MSTORE SWAP1 SWAP4 DUP6 SWAP1 DUP3 SWAP1 PUSH1 0x44 SWAP1 DUP3 SWAP1 PUSH1 0x0 SWAP1 GAS CALL DUP1 ISZERO PUSH2 0x3B51 JUMPI DUP6 SWAP5 SWAP3 PUSH2 0x3AE3 SWAP9 SWAP10 SWAP5 SWAP3 PUSH1 0x0 SWAP3 PUSH2 0x3B34 JUMPI JUMPDEST POP DUP8 MLOAD PUSH4 0x1A4CA37B PUSH1 0xE2 SHL DUP2 MSTORE PUSH1 0x1 PUSH1 0x1 PUSH1 0xA0 SHL SUB SWAP1 SWAP6 AND PUSH1 0x4 DUP7 ADD MSTORE PUSH1 0x24 DUP6 ADD SWAP3 SWAP1 SWAP3 MSTORE ADDRESS PUSH1 0x44 DUP6 ADD MSTORE SWAP3 SWAP7 DUP8 SWAP4 DUP5 SWAP3 SWAP1 SWAP2 DUP4 SWAP1 PUSH1 0x64 DUP3 ADD SWAP1 JUMP JUMPDEST SUB SWAP4 AND GAS CALL SWAP2 DUP3 ISZERO PUSH2 0x3B2A JUMPI POP PUSH1 0x0 SWAP2 PUSH2 0x3AFE JUMPI JUMPDEST POP SWAP1 POP SWAP1 JUMP JUMPDEST DUP3 DUP2 RETURNDATASIZE DUP4 GT PUSH2 0x3B23 JUMPI JUMPDEST PUSH2 0x3B12 DUP2 DUP4 PUSH2 0x2841 JUMP JUMPDEST DUP2 ADD SUB SLT PUSH2 0x225 JUMPI POP MLOAD DUP1 CODESIZE PUSH2 0x3AF8 JUMP JUMPDEST POP RETURNDATASIZE PUSH2 0x3B08 JUMP JUMPDEST MLOAD RETURNDATASIZE PUSH1 0x0 DUP3 RETURNDATACOPY RETURNDATASIZE SWAP1 REVERT JUMPDEST PUSH2 0x3B4A SWAP1 DUP8 RETURNDATASIZE DUP10 GT PUSH2 0xAB2 JUMPI PUSH2 0xAA2 DUP2 DUP4 PUSH2 0x2841 JUMP JUMPDEST POP CODESIZE PUSH2 0x3AA7 JUMP JUMPDEST DUP7 MLOAD RETURNDATASIZE PUSH1 0x0 DUP3 RETURNDATACOPY RETURNDATASIZE SWAP1 REVERT JUMPDEST SWAP1 SWAP3 DUP6 DUP3 DUP2 RETURNDATASIZE DUP4 GT PUSH2 0x3B86 JUMPI JUMPDEST PUSH2 0x3B73 DUP2 DUP4 PUSH2 0x2841 JUMP JUMPDEST DUP2 ADD SUB SLT PUSH2 0x225 JUMPI POP MLOAD SWAP2 PUSH2 0x3A5D PUSH2 0x3A53 JUMP JUMPDEST POP RETURNDATASIZE PUSH2 0x3B69 JUMP JUMPDEST PUSH1 0x40 DUP1 MLOAD PUSH4 0x70A08231 PUSH1 0xE0 SHL DUP2 MSTORE ADDRESS PUSH1 0x4 DUP3 ADD MSTORE SWAP1 SWAP2 PUSH1 0x1 PUSH1 0x1 PUSH1 0xA0 SHL SUB SWAP1 DUP5 DUP3 AND SWAP1 PUSH1 0x20 SWAP1 DUP2 DUP6 PUSH1 0x24 DUP2 DUP7 GAS STATICCALL SWAP5 DUP6 ISZERO PUSH2 0x3B51 JUMPI PUSH1 0x0 SWAP6 PUSH2 0x3C95 JUMPI JUMPDEST POP PUSH2 0x3BD4 SWAP1 PUSH2 0x39B9 JUMP JUMPDEST DUP6 MLOAD PUSH4 0x95EA7B3 PUSH1 0xE0 SHL DUP2 MSTORE PUSH1 0x1 PUSH1 0x1 PUSH1 0xA0 SHL SUB DUP3 AND PUSH1 0x4 DUP3 ADD MSTORE PUSH1 0x24 DUP2 ADD DUP7 SWAP1 MSTORE SWAP1 SWAP3 DUP3 SWAP1 DUP3 SWAP1 PUSH1 0x44 SWAP1 DUP3 SWAP1 PUSH1 0x0 SWAP1 GAS CALL DUP1 ISZERO PUSH2 0x3B51 JUMPI PUSH2 0x3C77 JUMPI JUMPDEST POP POP AND SWAP3 DUP4 EXTCODESIZE ISZERO PUSH2 0x4D0 JUMPI DUP3 MLOAD PUSH4 0xE8EDA9DF PUSH1 0xE0 SHL DUP2 MSTORE PUSH1 0x1 PUSH1 0x1 PUSH1 0xA0 SHL SUB SWAP2 SWAP1 SWAP2 AND PUSH1 0x4 DUP3 ADD MSTORE PUSH1 0x24 DUP2 ADD SWAP2 SWAP1 SWAP2 MSTORE ADDRESS PUSH1 0x44 DUP3 ADD MSTORE PUSH1 0x0 PUSH1 0x64 DUP3 ADD DUP2 SWAP1 MSTORE SWAP1 SWAP3 DUP4 SWAP1 PUSH1 0x84 SWAP1 DUP3 SWAP1 DUP5 SWAP1 GAS CALL SWAP1 DUP2 ISZERO PUSH2 0x3B2A JUMPI POP PUSH2 0x3C6C JUMPI POP JUMP JUMPDEST PUSH2 0x3C75 SWAP1 PUSH2 0x27F8 JUMP JUMPDEST JUMP JUMPDEST DUP2 PUSH2 0x3C8D SWAP3 SWAP1 RETURNDATASIZE LT PUSH2 0xAB2 JUMPI PUSH2 0xAA2 DUP2 DUP4 PUSH2 0x2841 JUMP JUMPDEST POP CODESIZE DUP1 PUSH2 0x3C11 JUMP JUMPDEST SWAP1 SWAP5 DUP3 DUP3 DUP2 RETURNDATASIZE DUP4 GT PUSH2 0x3CBF JUMPI JUMPDEST PUSH2 0x3CAC DUP2 DUP4 PUSH2 0x2841 JUMP JUMPDEST DUP2 ADD SUB SLT PUSH2 0x225 JUMPI POP MLOAD SWAP4 PUSH2 0x3BD4 PUSH2 0x3BCA JUMP JUMPDEST POP RETURNDATASIZE PUSH2 0x3CA2 JUMP JUMPDEST PUSH1 0x0 SLOAD PUSH1 0x1 PUSH1 0x1 PUSH1 0xA0 SHL SUB AND CALLER SUB PUSH2 0x3CDA JUMPI JUMP JUMPDEST PUSH1 0x40 MLOAD PUSH3 0x461BCD PUSH1 0xE5 SHL DUP2 MSTORE PUSH1 0x20 PUSH1 0x4 DUP3 ADD MSTORE PUSH1 0x16 PUSH1 0x24 DUP3 ADD MSTORE PUSH22 0x27B7363C9031B0B63630B1363290313C9037BBB732B9 PUSH1 0x51 SHL PUSH1 0x44 DUP3 ADD MSTORE PUSH1 0x64 SWAP1 REVERT INVALID LOG2 PUSH5 0x6970667358 0x22 SLT KECCAK256 0x5C PUSH5 0xEB3CAA722D XOR SWAP9 0xA6 0xA5 PUSH7 0xDC036DBC46EF9A 0xAE 0xAC 0x23 KECCAK256 SWAP10 POP MSTORE8 0xB8 0xAD 0x4E SWAP13 0xC6 OR PUSH5 0x736F6C6343 STOP ADDMOD SGT STOP CALLER ",
  "sha1": "1231099096483b0cf46d83f290f4399b2b7df219",
  "source": "// SPDX-License-Identifier: MIT\npragma solidity 0.8.19;\n\nimport {IRouterClient} from \"@chainlink/contracts/src/v0.8/ccip/interfaces/IRouterClient.sol\";\nimport {OwnerIsCreator} from \"@chainlink/contracts/src/v0.8/shared/access/OwnerIsCreator.sol\";\nimport {Client} from \"@chainlink/contracts/src/v0.8/ccip/libraries/Client.sol\";\nimport {CCIPReceiver} from \"@chainlink/contracts/src/v0.8/ccip/applications/CCIPReceiver.sol\";\nimport {IERC20} from \"@chainlink/contracts/src/v0.8/vendor/openzeppelin-solidity/v4.8.3/contracts/token/ERC20/IERC20.sol\";\nimport {SafeERC20} from \"@chainlink/contracts/src/v0.8/vendor/openzeppelin-solidity/v4.8.3/contracts/token/ERC20/utils/SafeERC20.sol\";\nimport \"./utils_node/UtilsNode.sol\";\nimport \"../interfaces/IWETH9.sol\";\n\n//uniswap V3\nimport \"../interfaces/uniswap_V3/swap/ISwapRouter02.sol\";\n//AAVE interfaces\nimport \"../interfaces/IPool.sol\";\nimport \"../interfaces/IPoolDataProvider.sol\";\n//master contract interface\nimport \"../interfaces/IMasterNode.sol\";\n\ncontract Node is CCIPReceiver, OwnerIsCreator, UtilsNode {\n    using SafeERC20 for IERC20;\n\n    error NotEnoughBalance(uint256 currentBalance, uint256 calculatedFees); // Used to make sure contract has enough balance to cover the fees.\n\n    event WarpAssets(\n        uint64 indexed detinationCCIPid,\n        address indexed destinationNodeAddress,\n        uint256 indexed amount\n    );\n    event WarpCompletedNodeReady(uint8 indexed commandResmueOperations);\n    event DepositAssets(\n        address indexed userAddress,\n        uint256 indexed amountUsdc,\n        uint256 indexed amountAwrp\n    );\n\n    uint256 public maxVaultAmount = 2000000 * 10 ** 6;\n    bool public isNodeActive;\n    address[] public allowedNodes;\n\n    uint64 public immutable MASTER_CONTRACT_CHAIN_ID;\n    address public immutable MASTER_CONTRACT_ADDRESS;\n    uint64 public immutable NODE_CONTRACT_CHAIN_ID;\n    address public immutable POOL_ADDRESS_PROVIDER_ADDRESS;\n    address public immutable POOL_DATA_PROVIDER_ADDRESS;\n    address public immutable USDC_ADDRESS;\n    address public immutable aUSDC_ADDRESS;\n    address public immutable WETH_ADDRESS;\n    uint16 public immutable uinswapFeePool;\n\n    IERC20 private s_linkToken;\n    ISwapRouter02 public iSwapRouter02;\n\n    uint256 public aWrpTotalSupplyNodeSide;\n\n    mapping(address => uint256) public avaliableForRefund;\n\n    constructor(\n        address _router,\n        address _link,\n        address _USDC_ADDRESS,\n        address _aUSDC_ADDRESS,\n        address _WETH_ADDRESS,\n        uint64 _MASTER_CONTRACT_CHAIN_ID,\n        address _MASTER_CONTRACT_ADDRESS,\n        uint64 _NODE_CONTRACT_CHAIN_ID,\n        address _POOL_ADDRESS_PROVIDER_ADDRESS,\n        address _POOL_DATA_PROVIDER_ADDRESS,\n        address _UNISWAP_V3_ROUTER02,\n        bool _isNodeActive,\n        uint16 _uinswapFeePool\n    ) CCIPReceiver(_router) {\n        s_linkToken = IERC20(_link);\n        USDC_ADDRESS = _USDC_ADDRESS;\n        aUSDC_ADDRESS = _aUSDC_ADDRESS;\n        WETH_ADDRESS = _WETH_ADDRESS;\n        MASTER_CONTRACT_CHAIN_ID = _MASTER_CONTRACT_CHAIN_ID;\n        MASTER_CONTRACT_ADDRESS = _MASTER_CONTRACT_ADDRESS;\n        NODE_CONTRACT_CHAIN_ID = _NODE_CONTRACT_CHAIN_ID;\n        POOL_ADDRESS_PROVIDER_ADDRESS = _POOL_ADDRESS_PROVIDER_ADDRESS;\n        POOL_DATA_PROVIDER_ADDRESS = _POOL_DATA_PROVIDER_ADDRESS;\n\n        // uniswap interfaces\n        iSwapRouter02 = ISwapRouter02(_UNISWAP_V3_ROUTER02);\n\n        isNodeActive = _isNodeActive;\n        uinswapFeePool = _uinswapFeePool;\n    }\n\n    // set Allowed Nodes, can only be called once!\n    function setAllowedNodes(\n        address[] memory _allowedNodes\n    ) external onlyOwner {\n        require(_allowedNodes.length > 0, \"You sent an empty array\");\n        require(allowedNodes.length == 0, \"allowedNodes must be empty\");\n        allowedNodes = _allowedNodes;\n    }\n\n    // Internal function to check if an address is in the allowedNodes array\n    function isAllowedAddress(\n        address _nodeOrMaster\n    ) internal view returns (bool) {\n        for (uint16 i = 0; i < allowedNodes.length; i++) {\n            if (allowedNodes[i] == _nodeOrMaster) {\n                return true;\n            }\n        }\n        if (_nodeOrMaster == MASTER_CONTRACT_ADDRESS) {\n            return true;\n        }\n        return false;\n    }\n\n    // Modifier to check if msg.sender is in the allowedNodes array\n    modifier onlyAllowedAddresses(address senderAddress) {\n        require(\n            isAllowedAddress(senderAddress),\n            \"Caller is not an allowed node\"\n        );\n        _;\n    }\n\n    modifier masterAndNodeInSameChain() {\n        require(\n            NODE_CONTRACT_CHAIN_ID == MASTER_CONTRACT_CHAIN_ID,\n            \"Require master and node in same chain\"\n        );\n        _;\n    }\n\n    /////////////////////////////////////////////////////////////////////////\n    ////////////////////////////////////////////////////////////////////////\n    //////////////////////////  RECEIVING MESSAGES  ///////////////////////\n    //////////////////////////////////////////////////////////////////////\n    /////////////////////////////////////////////////////////////////////\n\n    /////////////////////////////////////////////////////////////////////////\n    //////////////////////////  HANDLE WITHDRAW  ///////////////////////////\n    ///////////////////////////  COMMAND = 0  /////////////////////////////\n    //////////////////////////////////////////////////////////////////////\n\n    function _withdraw(Client.Any2EVMMessage memory _any2EvmMessage) internal {\n        (, address transferToUser, uint256 shares) = abi.decode(\n            _any2EvmMessage.data,\n            (uint8, address, uint256)\n        );\n\n        address pool = _getPool(POOL_ADDRESS_PROVIDER_ADDRESS);\n        uint256 totalAusdc = IERC20(aUSDC_ADDRESS).balanceOf(address(this));\n\n        uint256 amount = ((shares * 10 ** 18) * totalAusdc) /\n            aWrpTotalSupplyNodeSide;\n\n        aWrpTotalSupplyNodeSide -= shares;\n\n        if (!isNodeActive) {\n            avaliableForRefund[transferToUser] += shares;\n        } else {\n            IERC20(aUSDC_ADDRESS).approve(pool, amount / 10 ** 18);\n            IPool(pool).withdraw(\n                USDC_ADDRESS,\n                amount / 10 ** 18,\n                transferToUser\n            );\n        }\n    }\n\n    /////////////////////  WITHDRAW MASTER AND NODE IN SAME CHAIN  ///////////////////////\n\n    function withdrawFromSameChain(\n        address transferToUser,\n        uint256 shares\n    ) external masterAndNodeInSameChain {\n        require(\n            msg.sender == MASTER_CONTRACT_ADDRESS,\n            \"Only Master Contract allowed\"\n        );\n\n        address pool = _getPool(POOL_ADDRESS_PROVIDER_ADDRESS);\n        uint256 totalAusdc = IERC20(aUSDC_ADDRESS).balanceOf(address(this));\n\n        uint256 amount = ((shares * 10 ** 18) * totalAusdc) /\n            aWrpTotalSupplyNodeSide;\n\n        aWrpTotalSupplyNodeSide -= shares;\n\n        if (!isNodeActive) {\n            avaliableForRefund[transferToUser] += shares;\n        } else {\n            IERC20(aUSDC_ADDRESS).approve(pool, amount / 10 ** 18);\n            IPool(pool).withdraw(\n                USDC_ADDRESS,\n                amount / 10 ** 18,\n                transferToUser\n            );\n        }\n    }\n\n    /////////////////////////////////////////////////////////////////////////\n    ////////////////////////  HANDLE WARP ASSETS  //////////////////////////\n    ///////////////////////////  COMMAND = 1  //////////////////////////////\n    ///////////////////////////////////////////////////////////////////////\n\n    function _warpAssets(\n        Client.Any2EVMMessage memory _any2EvmMessage\n    ) internal {\n        (, uint64 _destinationChainSelector, address _receiver) = abi.decode(\n            _any2EvmMessage.data,\n            (uint8, uint64, address)\n        );\n        uint256 usdcwithdrawn = _assetsAllocationWithdraw(\n            POOL_ADDRESS_PROVIDER_ADDRESS,\n            aUSDC_ADDRESS,\n            USDC_ADDRESS\n        );\n\n        uint8 commandAWRPSupply = 2;\n        bytes memory data = abi.encode(\n            commandAWRPSupply,\n            aWrpTotalSupplyNodeSide\n        );\n\n        isNodeActive = false;\n        _sendMessage(\n            _destinationChainSelector,\n            _receiver,\n            data,\n            USDC_ADDRESS,\n            usdcwithdrawn,\n            true\n        );\n\n        emit WarpAssets(_destinationChainSelector, _receiver, usdcwithdrawn);\n    }\n\n    /////////////  WARP ASSETS, MASTER AND NODE IN SAME CHAIN  //////////////\n    function warpAssetsFromSameChain(\n        uint64 _destinationChainSelector,\n        address _receiver\n    ) external masterAndNodeInSameChain {\n        require(\n            msg.sender == MASTER_CONTRACT_ADDRESS,\n            \"Only Master Contract allowed\"\n        );\n        uint256 usdcwithdrawn = _assetsAllocationWithdraw(\n            POOL_ADDRESS_PROVIDER_ADDRESS,\n            aUSDC_ADDRESS,\n            USDC_ADDRESS\n        );\n\n        uint8 commandAWRPSupply = 2;\n        bytes memory data = abi.encode(\n            commandAWRPSupply,\n            aWrpTotalSupplyNodeSide\n        );\n\n        isNodeActive = false;\n        _sendMessage(\n            _destinationChainSelector,\n            _receiver,\n            data,\n            USDC_ADDRESS,\n            usdcwithdrawn,\n            true\n        );\n\n        emit WarpAssets(_destinationChainSelector, _receiver, usdcwithdrawn);\n    }\n\n    /////////////////////////////////////////////////////////////////////////\n    /////////////////////  HANDLE RESUME OPERATIONS  ///////////////////////\n    ///////////////////////////  COMMAND = 2  //////////////////////////////\n    ///////////////////////////////////////////////////////////////////////\n\n    function _allocateAssetsAndSetAWRPSupply(\n        Client.Any2EVMMessage memory _any2EvmMessage\n    ) internal {\n        (, uint256 _aWrpSupplyFromOldNode) = abi.decode(\n            _any2EvmMessage.data,\n            (uint8, uint256)\n        );\n\n        // dont need this here because _assetAllocationDeposit is called in _sendMessage\n        // I left this line commented and not deleted to understand why is not called here\n        //_assetsAllocationDeposit(POOL_ADDRESS_PROVIDER_ADDRESS, USDC_ADDRESS);\n\n        aWrpTotalSupplyNodeSide = _aWrpSupplyFromOldNode;\n\n        uint8 commandResumeOperations = 1;\n        isNodeActive = true;\n\n        bytes memory data = abi.encode(commandResumeOperations);\n\n        if (NODE_CONTRACT_CHAIN_ID == MASTER_CONTRACT_CHAIN_ID) {\n            // here is needed cuz no message is sent\n            _assetsAllocationDeposit(\n                POOL_ADDRESS_PROVIDER_ADDRESS,\n                USDC_ADDRESS\n            );\n            IMasterNode(MASTER_CONTRACT_ADDRESS)\n                ._resmumeOperationsFromSameChain();\n        } else {\n            _sendMessage(\n                MASTER_CONTRACT_CHAIN_ID,\n                MASTER_CONTRACT_ADDRESS,\n                data,\n                address(0),\n                0,\n                true\n            );\n        }\n\n        emit WarpCompletedNodeReady(commandResumeOperations);\n    }\n    //////////////////////////////////////////////////////////////////////////\n    /////////////////////////////////////////////////////////////////////////\n    ////////////////////////  INCOMING MESAGE HANDLER  /////////////////////\n    /////////////////  THIS FUNC IS CALLED BY CHAINLINK  //////////////////\n    //////////////////////////////////////////////////////////////////////\n    /////////////////////////////////////////////////////////////////////\n\n    function _ccipReceive(\n        Client.Any2EVMMessage memory _any2EvmMessage\n    )\n        internal\n        override\n        onlyAllowedAddresses(abi.decode(_any2EvmMessage.sender, (address)))\n    {\n        uint8 command = _internalCommandRouter(_any2EvmMessage);\n\n        if (command == 0) {\n            _withdraw(_any2EvmMessage);\n        } else if (command == 1) {\n            _warpAssets(_any2EvmMessage);\n        } else if (command == 2) {\n            _allocateAssetsAndSetAWRPSupply(_any2EvmMessage);\n        } else {\n            revert(\"invalid command\");\n        }\n    }\n    /////////////////////////////////////////////////////////////////////////\n    ////////////////////////////////////////////////////////////////////////\n    ///////////////////////  OUTGOING MESSAGES HANDLER  ///////////////////\n    //////////////////////////////////////////////////////////////////////\n    /////////////////////////////////////////////////////////////////////\n\n    function _sendMessage(\n        uint64 _destinationChainSelector,\n        address _receiver,\n        bytes memory _data,\n        address _token,\n        uint256 _amount,\n        bool isPayingNative\n    ) internal onlyAllowedAddresses(_receiver) returns (bytes32 messageId) {\n        // Create an EVM2AnyMessage struct in memory with necessary information for sending a cross-chain message\n        // address(s_linkToken) means fees are paid in LINK\n        uint256 newAmount;\n        if (_amount > 0) {\n            newAmount = _amount;\n        }\n\n        address tokenFee;\n        if (isPayingNative) {\n            tokenFee = address(0);\n        } else {\n            tokenFee = address(s_linkToken);\n        }\n\n        Client.EVM2AnyMessage memory evm2AnyMessage = _buildCCIPMessage(\n            _receiver,\n            _data,\n            _token,\n            newAmount,\n            tokenFee\n        );\n\n        // Initialize a router client instance to interact with cross-chain router\n        IRouterClient routerCCIP = IRouterClient(this.getRouter());\n\n        // Get the fee required to send the CCIP message\n        uint256 fees = routerCCIP.getFee(\n            _destinationChainSelector,\n            evm2AnyMessage\n        );\n\n        // When an incoming message requires to pay the fees on native token\n        // This will sell some USDC from the vault to get the eth needed to pay the fees\n        uint256 amountInUsdc;\n        if (isPayingNative) {\n            amountInUsdc = _getNativeFees(fees);\n            if (newAmount > 0) {\n                evm2AnyMessage = _buildCCIPMessage(\n                    _receiver,\n                    _data,\n                    _token,\n                    newAmount - amountInUsdc,\n                    tokenFee\n                );\n            }\n        }\n\n        if (isPayingNative) {\n            if (fees > address(this).balance) {\n                revert NotEnoughBalance(address(this).balance, fees);\n            }\n        } else {\n            require(\n                s_linkToken.transferFrom(msg.sender, address(this), fees),\n                \"Not provided Link for fees\"\n            );\n            if (fees > s_linkToken.balanceOf(address(this)))\n                revert NotEnoughBalance(\n                    s_linkToken.balanceOf(address(this)),\n                    fees\n                );\n            s_linkToken.approve(address(routerCCIP), fees);\n        }\n\n        // approve the Router to spend tokens on contract's behalf. It will spend the amount of the given token\n        if (_token != address(0)) {\n            IERC20(_token).approve(address(routerCCIP), newAmount);\n        }\n\n        // Send the message through the router and store the returned message ID\n        if (isPayingNative) {\n            messageId = routerCCIP.ccipSend{value: fees}(\n                _destinationChainSelector,\n                evm2AnyMessage\n            );\n        } else {\n            messageId = routerCCIP.ccipSend(\n                _destinationChainSelector,\n                evm2AnyMessage\n            );\n        }\n\n        uint256 usdcBalance = IERC20(USDC_ADDRESS).balanceOf(address(this));\n        if (usdcBalance > 0) {\n            _assetsAllocationDeposit(\n                POOL_ADDRESS_PROVIDER_ADDRESS,\n                USDC_ADDRESS\n            );\n        }\n\n        // Return the message ID\n        return messageId;\n    }\n\n    function _buildCCIPMessage(\n        address _receiver,\n        bytes memory _data,\n        address _token,\n        uint256 _amount,\n        address _feeTokenAddress\n    ) private returns (Client.EVM2AnyMessage memory) {\n        // Set the token amounts\n        Client.EVMTokenAmount[] memory tokenAmounts;\n\n        if (_token == address(0) && _amount == 0) {\n            tokenAmounts = new Client.EVMTokenAmount[](0);\n        } else {\n            tokenAmounts = new Client.EVMTokenAmount[](1);\n            tokenAmounts[0] = Client.EVMTokenAmount({\n                token: _token,\n                amount: _amount\n            });\n        }\n        // Create an EVM2AnyMessage struct in memory with necessary information for sending a cross-chain message\n        return\n            Client.EVM2AnyMessage({\n                receiver: abi.encode(_receiver), // ABI-encoded receiver address\n                data: _data, // ABI-encoded string\n                tokenAmounts: tokenAmounts, // The amount and type of token being transferred\n                extraArgs: Client._argsToBytes(\n                    // Additional arguments, setting gas limit\n                    Client.EVMExtraArgsV1({gasLimit: 2_000_000})\n                ),\n                // Set the feeToken to a feeTokenAddress, indicating specific asset will be used for fees\n                feeToken: _feeTokenAddress\n            });\n    }\n\n    /////////////////////////////////////////////////////////////////////////\n    /////////////////////////////////////////////////////////////////////////\n    //////////////////////////  SENDING MESSAGES  //////////////////////////\n    ///////////////////////////////////////////////////////////////////////\n    //////////////////////////////////////////////////////////////////////\n\n    /////////////////////////////////////////////////////////////////////////\n    ///////////////////////////////   DEPOSIT   ////////////////////////////\n    ///////////////////////////////////////////////////////////////////////\n\n    function deposit(uint256 amount) external {\n        require(\n            IERC20(USDC_ADDRESS).transferFrom(\n                msg.sender,\n                address(this),\n                amount\n            ),\n            \"Failed to transfer amount\"\n        );\n        require(\n            isNodeActive,\n            \"Asets are Warping Now, deposits on new blockchain\"\n        );\n\n        uint256 totalAusdcNode = IERC20(aUSDC_ADDRESS).balanceOf(address(this));\n        require(\n            totalAusdcNode + amount < maxVaultAmount,\n            \"Node furfilled no more deposits allowed\"\n        );\n        uint256 shares;\n        if (aWrpTotalSupplyNodeSide == 0) {\n            shares = amount * 10 ** 12;\n        } else {\n            shares = (amount * aWrpTotalSupplyNodeSide) / totalAusdcNode;\n        }\n\n        aWrpTotalSupplyNodeSide += shares;\n\n        uint8 command = 0;\n        bytes memory data = abi.encode(command, msg.sender, shares);\n\n        address pool = _getPool(POOL_ADDRESS_PROVIDER_ADDRESS);\n        IERC20(USDC_ADDRESS).approve(pool, amount);\n        IPool(pool).deposit(USDC_ADDRESS, amount, address(this), 0);\n\n        if (NODE_CONTRACT_CHAIN_ID == MASTER_CONTRACT_CHAIN_ID) {\n            IMasterNode(MASTER_CONTRACT_ADDRESS).aWarpTokenMinterFromSameChain(\n                msg.sender,\n                shares\n            );\n        } else {\n            _sendMessage(\n                MASTER_CONTRACT_CHAIN_ID,\n                MASTER_CONTRACT_ADDRESS,\n                data,\n                address(0),\n                0,\n                false\n            );\n        }\n\n        emit DepositAssets(msg.sender, amount, shares);\n    }\n\n    /////////////////////////////////////////////////////////////////////////\n    ///////////////   RECOVER aWRP FROM A FAILED WITHDRAW   ////////////////\n    ///////////////////////////////////////////////////////////////////////\n\n    function recoverAWRPFromFailedWithdraw() external {\n        require(avaliableForRefund[msg.sender] > 0, \"No aWRP tokens to refund\");\n        uint256 sharesToRefund = avaliableForRefund[msg.sender];\n\n        uint8 commandRefundAWRP = 0; // Same command than deposit\n        bytes memory data = abi.encode(\n            commandRefundAWRP,\n            msg.sender,\n            sharesToRefund\n        );\n\n        if (NODE_CONTRACT_CHAIN_ID == MASTER_CONTRACT_CHAIN_ID) {\n            IMasterNode(MASTER_CONTRACT_ADDRESS).aWarpTokenMinterFromSameChain(\n                msg.sender,\n                sharesToRefund\n            );\n        } else {\n            _sendMessage(\n                MASTER_CONTRACT_CHAIN_ID,\n                MASTER_CONTRACT_ADDRESS,\n                data,\n                address(0),\n                0,\n                false\n            );\n        }\n    }\n\n    /////////////////////////////////////////////////////////////////////////\n    /////////////////////   SEND DATA NODE TO MASTER   /////////////////////\n    ///////////////////////////////////////////////////////////////////////\n\n    function sendAaveData() external {\n        (\n            ,\n            ,\n            uint256 totalAToken,\n            ,\n            uint256 totalVariableDebt,\n            uint256 liquidityRate,\n            ,\n            ,\n            ,\n            ,\n            ,\n\n        ) = IPoolDataProvider(POOL_DATA_PROVIDER_ADDRESS).getReserveData(\n                USDC_ADDRESS\n            );\n\n        uint256 totalAusdcNode = IERC20(aUSDC_ADDRESS).balanceOf(address(this));\n\n        uint8 commandSendAaveData = 2;\n        bytes memory data = abi.encode(\n            commandSendAaveData,\n            totalAToken,\n            totalVariableDebt,\n            totalVariableDebt,\n            totalAusdcNode\n        );\n        if (NODE_CONTRACT_CHAIN_ID == MASTER_CONTRACT_CHAIN_ID) {\n            IMasterNode(MASTER_CONTRACT_ADDRESS).nodeAaveFeedFromSameChain(\n                totalAToken,\n                totalVariableDebt,\n                totalVariableDebt,\n                totalAusdcNode\n            );\n        } else {\n            _sendMessage(\n                MASTER_CONTRACT_CHAIN_ID,\n                MASTER_CONTRACT_ADDRESS,\n                data,\n                address(0),\n                0,\n                false\n            );\n        }\n    }\n\n    /// @notice Fallback function to allow the contract to receive Ether.\n    /// @dev This function has no function body, making it a default function for receiving Ether.\n    /// It is automatically called when Ether is sent to the contract without any data.\n    receive() external payable {}\n\n    /////////////////////////////////////////////////////////////////////////\n    /////////////////////////////   UTILS   ////////////////////////////////\n    ///////////////////////////////////////////////////////////////////////\n\n    function _getNativeFees(uint256 fees) internal returns (uint256) {\n        // withdraw the usdc from aave for paying the fees\n        uint256 ausdcBalance = IERC20(aUSDC_ADDRESS).balanceOf(address(this));\n        if (ausdcBalance > 0) {\n            _assetsAllocationWithdraw(\n                POOL_ADDRESS_PROVIDER_ADDRESS,\n                aUSDC_ADDRESS,\n                USDC_ADDRESS\n            );\n        }\n\n        // Approve the router to spend USDC.\n        uint256 usdcBalance = IERC20(USDC_ADDRESS).balanceOf(address(this));\n        IERC20(USDC_ADDRESS).approve(address(iSwapRouter02), usdcBalance);\n\n        // Set up the parameters for the swap.\n        ISwapRouter02.ExactOutputSingleParams memory params = ISwapRouter02\n            .ExactOutputSingleParams({\n                tokenIn: USDC_ADDRESS,\n                tokenOut: WETH_ADDRESS,\n                fee: uinswapFeePool,\n                recipient: address(this),\n                amountOut: fees,\n                amountInMaximum: usdcBalance, // for testing dont mind slipperage\n                sqrtPriceLimitX96: 0\n            });\n\n        // Execute the swap.\n        uint256 amountIn = iSwapRouter02.exactOutputSingle(params);\n        IWETH9(WETH_ADDRESS).withdraw(fees);\n        return amountIn;\n    }\n\n    //frontend stuff, no impcat in contract\n    function calculateSharesValue(\n        uint256 shares\n    ) external view returns (uint256) {\n        uint256 totalAusdc = IERC20(aUSDC_ADDRESS).balanceOf(address(this));\n\n        uint256 amount = ((shares * 10 ** 18) * totalAusdc) /\n            aWrpTotalSupplyNodeSide;\n\n        return amount / 10 ** 18;\n    }\n    //END\n}\n",
  "sourcePath": "contracts/Node.sol",
  "type": "contract"
}