{
  "abi": [
    {
      "inputs": [
        {
          "internalType": "address",
          "name": "_router",
          "type": "address"
        },
        {
          "internalType": "address",
          "name": "_link",
          "type": "address"
        },
        {
          "internalType": "address",
          "name": "_USDC_ADDRESS",
          "type": "address"
        },
        {
          "internalType": "address",
          "name": "_aUSDC_ADDRESS",
          "type": "address"
        },
        {
          "internalType": "address",
          "name": "_WETH_ADDRESS",
          "type": "address"
        },
        {
          "internalType": "uint64",
          "name": "_MASTER_CONTRACT_CHAIN_ID",
          "type": "uint64"
        },
        {
          "internalType": "address",
          "name": "_MASTER_CONTRACT_ADDRESS",
          "type": "address"
        },
        {
          "internalType": "uint64",
          "name": "_NODE_CONTRACT_CHAIN_ID",
          "type": "uint64"
        },
        {
          "internalType": "address",
          "name": "_POOL_ADDRESS_PROVIDER_ADDRESS",
          "type": "address"
        },
        {
          "internalType": "address",
          "name": "_POOL_DATA_PROVIDER_ADDRESS",
          "type": "address"
        },
        {
          "internalType": "address",
          "name": "_UNISWAP_V3_ROUTER02",
          "type": "address"
        },
        {
          "internalType": "bool",
          "name": "_isNodeActive",
          "type": "bool"
        },
        {
          "internalType": "uint16",
          "name": "_uinswapFeePool",
          "type": "uint16"
        }
      ],
      "stateMutability": "nonpayable",
      "type": "constructor"
    },
    {
      "inputs": [
        {
          "internalType": "address",
          "name": "router",
          "type": "address"
        }
      ],
      "name": "InvalidRouter",
      "type": "error"
    },
    {
      "inputs": [
        {
          "internalType": "uint256",
          "name": "currentBalance",
          "type": "uint256"
        },
        {
          "internalType": "uint256",
          "name": "calculatedFees",
          "type": "uint256"
        }
      ],
      "name": "NotEnoughBalance",
      "type": "error"
    },
    {
      "anonymous": false,
      "inputs": [
        {
          "indexed": true,
          "internalType": "address",
          "name": "from",
          "type": "address"
        },
        {
          "indexed": true,
          "internalType": "address",
          "name": "to",
          "type": "address"
        }
      ],
      "name": "OwnershipTransferRequested",
      "type": "event"
    },
    {
      "anonymous": false,
      "inputs": [
        {
          "indexed": true,
          "internalType": "address",
          "name": "from",
          "type": "address"
        },
        {
          "indexed": true,
          "internalType": "address",
          "name": "to",
          "type": "address"
        }
      ],
      "name": "OwnershipTransferred",
      "type": "event"
    },
    {
      "inputs": [],
      "name": "MASTER_CONTRACT_ADDRESS",
      "outputs": [
        {
          "internalType": "address",
          "name": "",
          "type": "address"
        }
      ],
      "stateMutability": "view",
      "type": "function"
    },
    {
      "inputs": [],
      "name": "MASTER_CONTRACT_CHAIN_ID",
      "outputs": [
        {
          "internalType": "uint64",
          "name": "",
          "type": "uint64"
        }
      ],
      "stateMutability": "view",
      "type": "function"
    },
    {
      "inputs": [],
      "name": "NODE_CONTRACT_CHAIN_ID",
      "outputs": [
        {
          "internalType": "uint64",
          "name": "",
          "type": "uint64"
        }
      ],
      "stateMutability": "view",
      "type": "function"
    },
    {
      "inputs": [],
      "name": "POOL_ADDRESS_PROVIDER_ADDRESS",
      "outputs": [
        {
          "internalType": "address",
          "name": "",
          "type": "address"
        }
      ],
      "stateMutability": "view",
      "type": "function"
    },
    {
      "inputs": [],
      "name": "POOL_DATA_PROVIDER_ADDRESS",
      "outputs": [
        {
          "internalType": "address",
          "name": "",
          "type": "address"
        }
      ],
      "stateMutability": "view",
      "type": "function"
    },
    {
      "inputs": [],
      "name": "USDC_ADDRESS",
      "outputs": [
        {
          "internalType": "address",
          "name": "",
          "type": "address"
        }
      ],
      "stateMutability": "view",
      "type": "function"
    },
    {
      "inputs": [],
      "name": "WETH_ADDRESS",
      "outputs": [
        {
          "internalType": "address",
          "name": "",
          "type": "address"
        }
      ],
      "stateMutability": "view",
      "type": "function"
    },
    {
      "inputs": [],
      "name": "aUSDC_ADDRESS",
      "outputs": [
        {
          "internalType": "address",
          "name": "",
          "type": "address"
        }
      ],
      "stateMutability": "view",
      "type": "function"
    },
    {
      "inputs": [],
      "name": "aWrpTotalSupplyNodeSide",
      "outputs": [
        {
          "internalType": "uint256",
          "name": "",
          "type": "uint256"
        }
      ],
      "stateMutability": "view",
      "type": "function"
    },
    {
      "inputs": [],
      "name": "acceptOwnership",
      "outputs": [],
      "stateMutability": "nonpayable",
      "type": "function"
    },
    {
      "inputs": [
        {
          "internalType": "uint256",
          "name": "",
          "type": "uint256"
        }
      ],
      "name": "allowedNodes",
      "outputs": [
        {
          "internalType": "address",
          "name": "",
          "type": "address"
        }
      ],
      "stateMutability": "view",
      "type": "function"
    },
    {
      "inputs": [
        {
          "internalType": "address",
          "name": "",
          "type": "address"
        }
      ],
      "name": "avaliableForRefund",
      "outputs": [
        {
          "internalType": "uint256",
          "name": "",
          "type": "uint256"
        }
      ],
      "stateMutability": "view",
      "type": "function"
    },
    {
      "inputs": [
        {
          "internalType": "uint256",
          "name": "shares",
          "type": "uint256"
        }
      ],
      "name": "calculateSharesValue",
      "outputs": [
        {
          "internalType": "uint256",
          "name": "",
          "type": "uint256"
        }
      ],
      "stateMutability": "view",
      "type": "function"
    },
    {
      "inputs": [
        {
          "components": [
            {
              "internalType": "bytes32",
              "name": "messageId",
              "type": "bytes32"
            },
            {
              "internalType": "uint64",
              "name": "sourceChainSelector",
              "type": "uint64"
            },
            {
              "internalType": "bytes",
              "name": "sender",
              "type": "bytes"
            },
            {
              "internalType": "bytes",
              "name": "data",
              "type": "bytes"
            },
            {
              "components": [
                {
                  "internalType": "address",
                  "name": "token",
                  "type": "address"
                },
                {
                  "internalType": "uint256",
                  "name": "amount",
                  "type": "uint256"
                }
              ],
              "internalType": "struct Client.EVMTokenAmount[]",
              "name": "destTokenAmounts",
              "type": "tuple[]"
            }
          ],
          "internalType": "struct Client.Any2EVMMessage",
          "name": "message",
          "type": "tuple"
        }
      ],
      "name": "ccipReceive",
      "outputs": [],
      "stateMutability": "nonpayable",
      "type": "function"
    },
    {
      "inputs": [
        {
          "internalType": "uint256",
          "name": "amount",
          "type": "uint256"
        }
      ],
      "name": "deposit",
      "outputs": [],
      "stateMutability": "nonpayable",
      "type": "function"
    },
    {
      "inputs": [
        {
          "internalType": "address",
          "name": "poolDAtaProvider",
          "type": "address"
        },
        {
          "internalType": "address",
          "name": "usdcAddress",
          "type": "address"
        }
      ],
      "name": "getAaveSupplyRate",
      "outputs": [
        {
          "internalType": "uint256",
          "name": "",
          "type": "uint256"
        }
      ],
      "stateMutability": "view",
      "type": "function"
    },
    {
      "inputs": [
        {
          "internalType": "uint64",
          "name": "destinationCCIPid",
          "type": "uint64"
        },
        {
          "internalType": "address",
          "name": "receiver",
          "type": "address"
        },
        {
          "internalType": "address",
          "name": "s_linkTokenAddress",
          "type": "address"
        },
        {
          "internalType": "address",
          "name": "routerAddress",
          "type": "address"
        },
        {
          "internalType": "bytes",
          "name": "_data",
          "type": "bytes"
        }
      ],
      "name": "getLinkFees",
      "outputs": [
        {
          "internalType": "uint256",
          "name": "",
          "type": "uint256"
        }
      ],
      "stateMutability": "view",
      "type": "function"
    },
    {
      "inputs": [],
      "name": "getRouter",
      "outputs": [
        {
          "internalType": "address",
          "name": "",
          "type": "address"
        }
      ],
      "stateMutability": "view",
      "type": "function"
    },
    {
      "inputs": [],
      "name": "iSwapRouter02",
      "outputs": [
        {
          "internalType": "contract ISwapRouter02",
          "name": "",
          "type": "address"
        }
      ],
      "stateMutability": "view",
      "type": "function"
    },
    {
      "inputs": [],
      "name": "isNodeActive",
      "outputs": [
        {
          "internalType": "bool",
          "name": "",
          "type": "bool"
        }
      ],
      "stateMutability": "view",
      "type": "function"
    },
    {
      "inputs": [],
      "name": "maxVaultAmount",
      "outputs": [
        {
          "internalType": "uint256",
          "name": "",
          "type": "uint256"
        }
      ],
      "stateMutability": "view",
      "type": "function"
    },
    {
      "inputs": [],
      "name": "owner",
      "outputs": [
        {
          "internalType": "address",
          "name": "",
          "type": "address"
        }
      ],
      "stateMutability": "view",
      "type": "function"
    },
    {
      "inputs": [],
      "name": "recoverAWRPFromFailedWithdraw",
      "outputs": [],
      "stateMutability": "nonpayable",
      "type": "function"
    },
    {
      "inputs": [],
      "name": "sendAaveData",
      "outputs": [],
      "stateMutability": "nonpayable",
      "type": "function"
    },
    {
      "inputs": [
        {
          "internalType": "address[]",
          "name": "_allowedNodes",
          "type": "address[]"
        }
      ],
      "name": "setAllowedNodes",
      "outputs": [],
      "stateMutability": "nonpayable",
      "type": "function"
    },
    {
      "inputs": [
        {
          "internalType": "bytes4",
          "name": "interfaceId",
          "type": "bytes4"
        }
      ],
      "name": "supportsInterface",
      "outputs": [
        {
          "internalType": "bool",
          "name": "",
          "type": "bool"
        }
      ],
      "stateMutability": "pure",
      "type": "function"
    },
    {
      "inputs": [
        {
          "internalType": "address",
          "name": "to",
          "type": "address"
        }
      ],
      "name": "transferOwnership",
      "outputs": [],
      "stateMutability": "nonpayable",
      "type": "function"
    },
    {
      "inputs": [],
      "name": "uinswapFeePool",
      "outputs": [
        {
          "internalType": "uint16",
          "name": "",
          "type": "uint16"
        }
      ],
      "stateMutability": "view",
      "type": "function"
    },
    {
      "inputs": [
        {
          "internalType": "uint64",
          "name": "_destinationChainSelector",
          "type": "uint64"
        },
        {
          "internalType": "address",
          "name": "_receiver",
          "type": "address"
        }
      ],
      "name": "warpAssetsFromSameChain",
      "outputs": [],
      "stateMutability": "nonpayable",
      "type": "function"
    },
    {
      "inputs": [
        {
          "internalType": "uint64",
          "name": "_destinationChainSelector",
          "type": "uint64"
        },
        {
          "internalType": "address",
          "name": "_receiver",
          "type": "address"
        }
      ],
      "name": "warpAssetsTester",
      "outputs": [],
      "stateMutability": "nonpayable",
      "type": "function"
    },
    {
      "inputs": [
        {
          "internalType": "address",
          "name": "transferToUser",
          "type": "address"
        },
        {
          "internalType": "uint256",
          "name": "shares",
          "type": "uint256"
        }
      ],
      "name": "withdrawFromSameChain",
      "outputs": [],
      "stateMutability": "nonpayable",
      "type": "function"
    },
    {
      "stateMutability": "payable",
      "type": "receive"
    }
  ],
  "bytecode": "6101c0346200041a576200401b38819003601f8101601f191683016001600160401b038111848210176200041f578392829160405283396101a0928391810103126200041a57620000508162000435565b916200005f6020830162000435565b91806200006f6040820162000435565b936200007e6060830162000435565b946200008d6080840162000435565b956200009c60a085016200044a565b92620000ab60c0860162000435565b98620000ba60e087016200044a565b986101009a620000cc8c890162000435565b6101209b620000dd8d8b0162000435565b9261014099620000ef8b8d0162000435565b95610160809d0151998a1515809b036200041a576101809e8f01519b61ffff8d168d036200041a576001600160a01b0399808b161562000401576080523315620003bc578960018060a01b03199b338d60005416176000556501d1a94a2000600255168b60055416176005558d528d528d5260a05260c05260e0528c528a521690600654161760065560ff801960035416911617600355845260405194613bbb9687620004608839608051878181610c15015261141f015260a05187818161038e015281816105ad0152818161094701528181610cb2015281816113c70152818161190a01528181611b050152611d99015260c0518781816103e001528181610471015281816106060152818161067d015281816109a0015281816109fd01528181610d04015281816119a301528181611a08015281816123f601526135b5015260e0518781816103b4015281816105da0152818161097401528181610cd50152818161192d015261220001525186818161088301528181610d30015281816115b30152818161185f0152818161197c01528181611e1b01528181611ff10152818161223a015281816127b201528181612d2301528181612f3a01526132430152518581816102c50152611351015251848181610294015281816106fd0152818161076f01528181610e74015281816116ee015281816118180152818161195b01528181611bbb01528181611fcf0152818161276b015281816129ff01528181612a6d01528181612ac001528181612cbe01528181612d0201528181612ef801526131f1015251838181610316015281816107da01528181610c5a01528181610d6d01528181611284015281816115ec0152818161183e01528181611b5f01528181612791015281816129a60152612f19015251828181611c650152818161255901528181612ae501528181612bbf0152612c09015251818181611c900152818161251f0152612b110152f35b60405162461bcd60e51b815260206004820152601860248201527f43616e6e6f7420736574206f776e657220746f207a65726f00000000000000006044820152606490fd5b6040516335fdcccd60e21b815260006004820152602490fd5b600080fd5b634e487b7160e01b600052604160045260246000fd5b51906001600160a01b03821682036200041a57565b51906001600160401b03821682036200041a5756fe608080604052600436101561001d575b50361561001b57600080fd5b005b600090813560e01c90816301ffc9a71461258857508063040141e5146125435780630e508fff1461250457806315d03dfd146124db578063168010ed146124485780631d34b4ff1461242557806332d3ad5e146123e057806336161eb9146123c25780634c8719f3146123a4578063544b17091461226957806367062580146122245780637058a5e7146121e057806379ba50971461213c57806385572ffb146113eb5780638cf19d19146113a75780638da5cb5b1461138057806397652ffe14610bfa578063982d1f181461133b57806398b3c1f814611251578063a19b24b514611051578063a63ca0761461100d578063af002db814610c89578063af25617314610c44578063b0f479a114610bff578063b2aae5c714610bfa578063b6b55f251461072c578063bb09d9b7146106e7578063c330a2ed1461053b578063d8bba68f1461026c578063e227a140146102335763f2fde38b0361000f5734610230576020366003190112610230576101946125dd565b61019c613b33565b6001600160a01b03908116903382146101eb57600180546001600160a01b031916831790558254167fed8889f560326eb138920d842192f0eb3dd22b4f139c87a2c57538e05bae12788380a380f35b60405162461bcd60e51b815260206004820152601760248201527f43616e6e6f74207472616e7366657220746f2073656c660000000000000000006044820152606490fd5b80fd5b5034610230576020366003190112610230576020906040906001600160a01b0361025b6125dd565b168152600883522054604051908152f35b50346102305780600319360112610230576040516335ea6a7560e01b81526001600160a01b037f0000000000000000000000000000000000000000000000000000000000000000811660048301529061018080826024817f000000000000000000000000000000000000000000000000000000000000000087165afa91821561053057849185936104f3575b50506040516370a0823160e01b8152306004820152916020836024817f000000000000000000000000000000000000000000000000000000000000000088165afa9283156104e85785936104b0575b5060405193600260208601528260408601528160608601528160808601528360a086015260a0855260c08501946001600160401b038187108188111761049a5787966040527f000000000000000000000000000000000000000000000000000000000000000090808216907f000000000000000000000000000000000000000000000000000000000000000016146000146104645750507f000000000000000000000000000000000000000000000000000000000000000016803b15610460578492836084926040519687958694630453b3ff60e11b86526004860152806024860152604485015260648401525af180156104555761044557505080f35b61044e90612684565b6102305780f35b6040513d84823e3d90fd5b8480fd5b93509350505061049692507f000000000000000000000000000000000000000000000000000000000000000090612ff3565b5080f35b634e487b7160e01b600052604160045260246000fd5b9092506020813d82116104e0575b816104cb602093836126cd565b810103126104db57519138610347565b600080fd5b3d91506104be565b6040513d87823e3d90fd5b610516935080919250903d10610529575b61050e81836126cd565b810190613768565b50505050505050935050905038806102f8565b503d610504565b6040513d86823e3d90fd5b503461023057806003193601126102305733815260086020526040812054156106a25733815260086020528060408120546040516105ab8161059d8433602084016040909392919360608101946000825260018060a01b031660208201520152565b03601f1981018352826126cd565b7f00000000000000000000000000000000000000000000000000000000000000006001600160401b03808216907f000000000000000000000000000000000000000000000000000000000000000016146000146106735750507f00000000000000000000000000000000000000000000000000000000000000006001600160a01b0316803b1561066f5760405163011e0fa960e21b8152336004820152602481019290925282908290818381604481015b03925af180156104555761044557505080f35b5050fd5b90915061049692507f000000000000000000000000000000000000000000000000000000000000000090612ff3565b60405162461bcd60e51b815260206004820152601860248201527f4e6f206157525020746f6b656e7320746f20726566756e6400000000000000006044820152606490fd5b50346102305780600319360112610230576040517f00000000000000000000000000000000000000000000000000000000000000006001600160a01b03168152602090f35b50346102305760209081600319360112610230576040516323b872dd60e01b81523360048083019190915230602483015235604482018190526001600160a01b037f00000000000000000000000000000000000000000000000000000000000000008181169592939192918281606481898b5af1908115610b2e578691610bdd575b5015610b985760ff6003541615610b39576040516370a0823160e01b81523060048201529382856024817f000000000000000000000000000000000000000000000000000000000000000088165afa948515610b2e578695610aff575b5061081681866128a8565b6002541115610aab576007549485610a8c575064e8d4a5100096878202978289041482151715610a785761084c879880976128a8565b6007556040805160008682019081523360208201528083018990528190039182018152949061087e90606001866126cd565b6108a77f0000000000000000000000000000000000000000000000000000000000000000613826565b60405163095ea7b360e01b81526001600160a01b038216600482015260248101859052929091908190849060449082908d905af1928315610a6d578793610a3f575b50501691823b15610a3b5760405163e8eda9df60e01b81526001600160a01b039190911660048201526024810191909152306044820152600060648201529085908290608490829084905af19081156104e8578591610a22575b50507f00000000000000000000000000000000000000000000000000000000000000006001600160401b03808216907f000000000000000000000000000000000000000000000000000000000000000016146000146109f25750507f000000000000000000000000000000000000000000000000000000000000000016803b1561066f5760405163011e0fa960e21b81523360048201526024810192909252829082908183816044810161065c565b9150915061049692507f000000000000000000000000000000000000000000000000000000000000000090612ff3565b610a2b90612684565b610a36578338610943565b505050fd5b8680fd5b81610a5e92903d10610a66575b610a5681836126cd565b810190612890565b5038806108e9565b503d610a4c565b6040513d8b823e3d90fd5b634e487b7160e01b87526011600452602487fd5b9661084c610aa48899610a9f898661283a565b612863565b80976128a8565b60405162461bcd60e51b815260048101849052602660248201527f4e6f64652066757266696c6c6564206e6f206d6f7265206465707369747320616044820152651b1b1bddd95960d21b6064820152608490fd5b9094508281813d8311610b27575b610b1781836126cd565b810103126104db5751933861080b565b503d610b0d565b6040513d88823e3d90fd5b60405162461bcd60e51b815260048101839052603160248201527f4173657473206172652057617270696e67204e6f772c206465706f736974732060448201527037b7103732bb90313637b1b5b1b430b4b760791b6064820152608490fd5b60405162461bcd60e51b815260048101839052601960248201527f4661696c656420746f207472616e7366657220616d6f756e74000000000000006044820152606490fd5b610bf49150833d8511610a6657610a5681836126cd565b386107ae565b612744565b50346102305780600319360112610230576040517f00000000000000000000000000000000000000000000000000000000000000006001600160a01b03168152602090f35b50346102305780600319360112610230576040517f00000000000000000000000000000000000000000000000000000000000000006001600160a01b03168152602090f35b503461023057604036600319011261023057610ca36125dd565b602435906001600160401b03807f000000000000000000000000000000000000000000000000000000000000000016907f00000000000000000000000000000000000000000000000000000000000000001603610fba576001600160a01b037f000000000000000000000000000000000000000000000000000000000000000081163303610f7557610d547f0000000000000000000000000000000000000000000000000000000000000000613826565b6040516370a0823160e01b8152306004820152602093917f00000000000000000000000000000000000000000000000000000000000000008416918581602481865afa908115610f6a578891610f3d575b50670de0b6b3a764000090818802888104831489151715610f295790610dca9161283a565b610de188610ddb6007548094612863565b92612883565b60075560035460ff16610e0f5750505050906008929116845252610e0a604083209182546128a8565b905580f35b60405163095ea7b360e01b81526001600160a01b038416600482015291900460248201819052959650949091879087908790604490829085905af1948515610f1c57610ebb968896610eff575b50604051631a4ca37b60e21b81526001600160a01b037f00000000000000000000000000000000000000000000000000000000000000008116600483015260248201949094529290941660448301529094859384929183906064820190565b0393165af18015610ef457610ecf57505080f35b813d8311610eed575b610ee281836126cd565b810103126104db5780f35b503d610ed8565b6040513d85823e3d90fd5b610f1590873d8911610a6657610a5681836126cd565b5038610e5c565b50604051903d90823e3d90fd5b634e487b7160e01b8a52601160045260248afd5b90508581813d8311610f63575b610f5481836126cd565b810103126104db575138610da5565b503d610f4a565b6040513d8a823e3d90fd5b60405162461bcd60e51b815260206004820152601c60248201527f4f6e6c79204d617374657220436f6e747261637420616c6c6f776564000000006044820152606490fd5b60405162461bcd60e51b815260206004820152602560248201527f52657175697265206d617374657220616e64206e6f646520696e2073616d652060448201526431b430b4b760d91b6064820152608490fd5b50346102305760203660031901126102305760043590600454821015610230576020611038836127ed565b905460405160039290921b1c6001600160a01b03168152f35b50346102305760208060031936011261124d576001600160401b03906004358281116112495736602382011215611249578060040135611090816127d6565b9061109e60405192836126cd565b80825283820192836024809360051b830101913683116112455783879101915b83831061122d57505050506110d1613b33565b8151156111ea5760045491826111a6575194851161119457680100000000000000008511611194575083600455808410611154575b509060048452835b838110611119578480f35b82516001600160a01b03167f8a35acfbc15ff81a39ae7d344fd709f28e8600b4aa8c65c6b64bfe7fe36bd19b8201559181019160010161110e565b837f8a35acfbc15ff81a39ae7d344fd709f28e8600b4aa8c65c6b64bfe7fe36bd19b91820191015b8181106111895750611106565b85815560010161117c565b634e487b7160e01b8652604160045285fd5b60405162461bcd60e51b815260048101869052601a818401527f616c6c6f7765644e6f646573206d75737420626520656d7074790000000000006044820152606490fd5b8360176064926040519262461bcd60e51b845260048401528201527f596f752073656e7420616e20656d7074792061727261790000000000000000006044820152fd5b819061123884612609565b81520191019086906110be565b8880fd5b8380fd5b5080fd5b50346102305760209081600319360112610230576040516370a0823160e01b8152306004828101919091523583826024817f00000000000000000000000000000000000000000000000000000000000000006001600160a01b03165afa918215610ef457839261130c575b50670de0b6b3a764000092838202918083048514901517156112f857506112ef916112e69161283a565b60075490612863565b04604051908152f35b634e487b7160e01b81526011600452602490fd5b9091508381813d8311611334575b61132481836126cd565b810103126104db575190386112bc565b503d61131a565b50346102305780600319360112610230576040517f00000000000000000000000000000000000000000000000000000000000000006001600160a01b03168152602090f35b5034610230578060031936011261023057546040516001600160a01b039091168152602090f35b503461023057806003193601126102305760206040516001600160401b037f0000000000000000000000000000000000000000000000000000000000000000168152f35b50346102305760031960203682011261124d576004356001600160401b03918282116112495760a09082360301126118b4577f00000000000000000000000000000000000000000000000000000000000000006001600160a01b03163303612124576040516114598161264e565b816004013581526024820135838116810361046057602082015260448201358381116104605761148f90600436918501016126ee565b90604081019182526064830135848111612120576114b390600436918601016126ee565b9260608201938452608481013590858211610a3b570190366023830112156121205760048201356114e3816127d6565b926114f160405194856126cd565b8184526024602085019260061b8201019036821161124557602401915b8183106120e8575050506080015251602081805181010312611249576115529061154d906001600160a01b0390611547906020016137cd565b1661359d565b6128b5565b80516020818051810103126112495761156f602060ff92016137e1565b16806117c8575090505160608180518101031261124d57611592602082016137e1565b5060606115a1604083016137cd565b910151906001600160a01b03166115d77f0000000000000000000000000000000000000000000000000000000000000000613826565b6040516370a0823160e01b81523060048201527f00000000000000000000000000000000000000000000000000000000000000006001600160a01b03169190602081602481865afa908115610b2e578691611796575b50670de0b6b3a76400009081860286810483148715171561178257906116529161283a565b61166386610ddb6007548094612863565b60075560035460ff1661168a575050505082526008602052610e0a604083209182546128a8565b60405163095ea7b360e01b81526001600160a01b03841660048201529190046024820181905290945092916020908590604490829089905af19283156104e85761173594602094611765575b50604051631a4ca37b60e21b81526001600160a01b037f00000000000000000000000000000000000000000000000000000000000000008116600483015260248201929092529216604483015290928391908290869082906064820190565b03926001600160a01b03165af1801561045557611750575080f35b602090813d8311610eed57610ee281836126cd565b61177b90853d8711610a6657610a5681836126cd565b50386116d6565b634e487b7160e01b88526011600452602488fd5b90506020813d6020116117c0575b816117b1602093836126cd565b810103126104db57513861162d565b3d91506117a4565b600181036118b8575051906060828051810103126118b4576117ec602083016137e1565b50604082015190811681036118b457610496916001600160a01b0390611814906060016137cd565b16907f000000000000000000000000000000000000000000000000000000000000000090611883827f00000000000000000000000000000000000000000000000000000000000000007f000000000000000000000000000000000000000000000000000000000000000061387f565b926007549160405192600260208501526040840152604083526118a5836126b2565b60ff1960035416600355612901565b8280fd5b6002036120b157516040818051810103126118b457806118dc6020604093016137e1565b500151600755600160ff19600354161760035560405190600160208301526020825261190782612669565b807f000000000000000000000000000000000000000000000000000000000000000016907f00000000000000000000000000000000000000000000000000000000000000001614600014611a0657506119a07f00000000000000000000000000000000000000000000000000000000000000007f00000000000000000000000000000000000000000000000000000000000000006139fa565b807f00000000000000000000000000000000000000000000000000000000000000006001600160a01b0316803b15611a03578190600460405180948193634cab8a5760e11b83525af18015610455576119f7575080f35b611a0090612684565b80f35b50fd5b7f0000000000000000000000000000000000000000000000000000000000000000908290611a3661154d8461359d565b60606080604051611a468161264e565b82815282602082015282604082015286838201520152604051611a6881612633565b8481526040519360018060a01b0316602085015260208452611a8984612669565b611aa3604051611a9881612633565b621e848081526137ef565b9160405194611ab18661264e565b855260208501526040840152836060840152608083015260405163b0f479a160e01b8152602081600481305afa908115610530578491612082575b506040516320487ded60e01b81529060208280611b2d877f0000000000000000000000000000000000000000000000000000000000000000600484016134d4565b03816001600160a01b0385165afa9182156104e857859261204e575b506040516370a0823160e01b81523060048201527f0000000000000000000000000000000000000000000000000000000000000000906020816024816001600160a01b0386165afa908115611f4257879161201c575b50611fc9575b506040516370a0823160e01b81523060048201527f0000000000000000000000000000000000000000000000000000000000000000949086906020816024816001600160a01b038b165afa908115610455578291611f97575b5060065460405163095ea7b360e01b81526001600160a01b0390911660048201526024810182905260208180604481010381866001600160a01b038d165af18015610ef457611f78575b5060405190611c5682612697565b6001600160a01b0388811683527f0000000000000000000000000000000000000000000000000000000000000000811660208085018281527f000000000000000000000000000000000000000000000000000000000000000061ffff1660408088019182523060608901908152608089018d815260a08a0198895260c08a018b81526006549351635023b4df60e01b81529a51891660048c01529451881660248b0152925162ffffff1660448a0152518616606489015290516084880152945160a487015251831660c48601529093929091839160e49183918891165af18015610ef457611f4d575b50803b1561124d578190602460405180948193632e1a7d4d60e01b83528960048401525af18015611f4257611f2f575b50478311611f105783611ea8575b602091611dc1916040519485809481936396f4e9f960e01b83527f0000000000000000000000000000000000000000000000000000000000000000600484016134d4565b03926001600160a01b03165af1801561045557611e7d575b506040516370a0823160e01b81523060048201526020816024816001600160a01b0387165afa918215611e715791611e3f575b50611e15575080f35b611a00907f00000000000000000000000000000000000000000000000000000000000000006139fa565b90506020813d602011611e69575b81611e5a602093836126cd565b810103126118b4575138611e0c565b3d9150611e4d565b604051903d90823e3d90fd5b602090813d8311611ea1575b611e9381836126cd565b810103126118b45738611dd9565b503d611e89565b60405163095ea7b360e01b81526001600160a01b03831660048201526024810187905260208160448188805af180156104e8579160209391611dc193611ef3575b5091509150611d7d565b611f0990853d8711610a6657610a5681836126cd565b5038611ee9565b604051634787a10360e11b815247600482015260248101849052604490fd5b611f3a919450612684565b849238611d6f565b6040513d89823e3d90fd5b602090813d8311611f71575b611f6381836126cd565b8101031261124d5738611d3f565b503d611f59565b611f909060203d602011610a6657610a5681836126cd565b5038611c48565b90506020813d602011611fc1575b81611fb2602093836126cd565b8101031261124d575138611bfe565b3d9150611fa5565b612015907f0000000000000000000000000000000000000000000000000000000000000000907f000000000000000000000000000000000000000000000000000000000000000061387f565b5038611ba5565b90506020813d602011612046575b81612037602093836126cd565b81010312610a3b575138611b9f565b3d915061202a565b9091506020813d60201161207a575b8161206a602093836126cd565b8101031261046057519038611b49565b3d915061205d565b6120a4915060203d6020116120aa575b61209c81836126cd565b810190613475565b38611aec565b503d612092565b60405162461bcd60e51b815260206004820152600f60248201526e1a5b9d985b1a590818dbdb5b585b99608a1b6044820152606490fd5b604083360312611245576020604091825161210281612669565b61210b86612609565b8152828601358382015281520192019161150e565b8580fd5b6040516335fdcccd60e21b8152336004820152602490fd5b50346102305780600319360112610230576001546001600160a01b0380821633036121a25782546001600160a01b03198082163390811786559316600155167f8be0079c531659141344cd1fd0a4f28419497f9722a3daafe3b4186f6b6457e08380a380f35b60405162461bcd60e51b815260206004820152601660248201527526bab9ba10313290383937b837b9b2b21037bbb732b960511b6044820152606490fd5b503461023057806003193601126102305760206040516001600160401b037f0000000000000000000000000000000000000000000000000000000000000000168152f35b50346102305780600319360112610230576040517f00000000000000000000000000000000000000000000000000000000000000006001600160a01b03168152602090f35b50346102305760a03660031901126102305761228361261d565b9061228c6125f3565b6001600160a01b039190604435838116908190036118b45760643584811680910361124957608435956001600160401b038711610460576122d661235895969736906004016126ee565b60405193602098899616868601528585526122f085612669565b6040516122fc81612633565b88815261231960405161230e81612633565b620f424081526137ef565b92604051966123278861264e565b8752878701526040860152606085015260808401526040518095819482936320487ded60e01b8452600484016134d4565b03915afa918215611e71578092612374575b5050604051908152f35b9091508282813d831161239d575b61238c81836126cd565b81010312610230575051388061236a565b503d612382565b50346102305780600319360112610230576020600754604051908152f35b50346102305780600319360112610230576020600254604051908152f35b50346102305780600319360112610230576040517f00000000000000000000000000000000000000000000000000000000000000006001600160a01b03168152602090f35b5034610230578060031936011261023057602060ff600354166040519015158152f35b5034610230576040366003190112610230576124626125dd565b61246a6125f3565b6040516335ea6a7560e01b81526001600160a01b039182166004820152610180929091839183916024918391165afa918215610ef457602093926124b2575050604051908152f35b6124c89250803d106105295761050e81836126cd565b505050505050945050505050388061236a565b50346102305780600319360112610230576006546040516001600160a01b039091168152602090f35b5034610230578060031936011261023057602060405161ffff7f0000000000000000000000000000000000000000000000000000000000000000168152f35b50346102305780600319360112610230576040517f00000000000000000000000000000000000000000000000000000000000000006001600160a01b03168152602090f35b90503461124d57602036600319011261124d5760043563ffffffff60e01b81168091036118b457602092506385572ffb60e01b81149081156125cc575b5015158152f35b6301ffc9a760e01b149050386125c5565b600435906001600160a01b03821682036104db57565b602435906001600160a01b03821682036104db57565b35906001600160a01b03821682036104db57565b600435906001600160401b03821682036104db57565b602081019081106001600160401b0382111761049a57604052565b60a081019081106001600160401b0382111761049a57604052565b604081019081106001600160401b0382111761049a57604052565b6001600160401b03811161049a57604052565b60e081019081106001600160401b0382111761049a57604052565b606081019081106001600160401b0382111761049a57604052565b90601f801991011681019081106001600160401b0382111761049a57604052565b81601f820112156104db578035906001600160401b03821161049a5760405192612722601f8401601f1916602001856126cd565b828452602083830101116104db57816000926020809301838601378301015290565b346104db5760403660031901126104db5761001b61276061261d565b6127686125f3565b907f000000000000000000000000000000000000000000000000000000000000000090611883827f00000000000000000000000000000000000000000000000000000000000000007f000000000000000000000000000000000000000000000000000000000000000061387f565b6001600160401b03811161049a5760051b60200190565b6004548110156128245760046000527f8a35acfbc15ff81a39ae7d344fd709f28e8600b4aa8c65c6b64bfe7fe36bd19b0190600090565b634e487b7160e01b600052603260045260246000fd5b8181029291811591840414171561284d57565b634e487b7160e01b600052601160045260246000fd5b811561286d570490565b634e487b7160e01b600052601260045260246000fd5b9190820391821161284d57565b908160209103126104db575180151581036104db5790565b9190820180921161284d57565b156128bc57565b60405162461bcd60e51b815260206004820152601d60248201527f43616c6c6572206973206e6f7420616e20616c6c6f776564206e6f64650000006044820152606490fd5b909160009461291261154d8561359d565b859080612feb575b5061292781868487613655565b946040519463b0f479a160e01b8652602086600481305afa958615610f6a578896612fca575b506040516320487ded60e01b8152936020858061296e8b8a600484016134d4565b03816001600160a01b038b165afa948515610a6d578995612f96575b506040516370a0823160e01b81523060048201526020816024817f00000000000000000000000000000000000000000000000000000000000000006001600160a01b03165afa908115612e99578a91612f64575b50612ef3575b6040516370a0823160e01b81523060048201526020816024817f00000000000000000000000000000000000000000000000000000000000000006001600160a01b03165afa908115612e99578a91612ec1575b5060065460405163095ea7b360e01b81526001600160a01b039091166004820152602481018290526020818c81806044810103917f00000000000000000000000000000000000000000000000000000000000000006001600160a01b03165af18015612e5857916020918c93612ea4575b5060405190612ab682612697565b6001600160a01b037f0000000000000000000000000000000000000000000000000000000000000000811683527f0000000000000000000000000000000000000000000000000000000000000000811684840190815261ffff7f00000000000000000000000000000000000000000000000000000000000000001660408086019182523060608701908152608087018e815260a0880196875260c088018a81526006549351635023b4df60e01b81529851871660048a0152945186166024890152925162ffffff166044880152518416606487015290516084860152925160a485015251811660c48401529193849260e492849291165af1908115612e99578a91612e67575b507f00000000000000000000000000000000000000000000000000000000000000006001600160a01b03163b15612e6357604051632e1a7d4d60e01b8152600481018790528a81602481837f00000000000000000000000000000000000000000000000000000000000000006001600160a01b03165af18015612e5857612e45575b5084612e24575b505050478311611f10576001600160a01b03169081612db0575b505091612c879493916020936040518097819582946396f4e9f960e01b8452600484016134d4565b03926001600160a01b03165af1918215610f1c578192612d7c575b506040516370a0823160e01b81523060048201526020816024817f00000000000000000000000000000000000000000000000000000000000000006001600160a01b03165afa918215611e715791612d4a575b50612cfd5790565b612d477f00000000000000000000000000000000000000000000000000000000000000007f00000000000000000000000000000000000000000000000000000000000000006139fa565b90565b90506020813d602011612d74575b81612d65602093836126cd565b810103126104db575138612cf5565b3d9150612d58565b9091506020813d602011612da8575b81612d98602093836126cd565b810103126104db57519038612ca2565b3d9150612d8b565b60405163095ea7b360e01b81526001600160a01b0386166004820152602481019190915290602090829060449082908a905af18015610b2e5791612c879695939160209593612e07575b5091938193959650612c5f565b612e1d90863d8811610a6657610a5681836126cd565b5038612dfa565b83985090612e36612e3c949286612883565b92613655565b94388080612c45565b612e51909a919a612684565b9838612c3e565b6040513d8d823e3d90fd5b8980fd5b90506020813d602011612e91575b81612e82602093836126cd565b81010312612e63575138612bbc565b3d9150612e75565b6040513d8c823e3d90fd5b612eba90833d8511610a6657610a5681836126cd565b5038612aa8565b90506020813d602011612eeb575b81612edc602093836126cd565b81010312612e63575138612a37565b3d9150612ecf565b612f5e7f00000000000000000000000000000000000000000000000000000000000000007f00000000000000000000000000000000000000000000000000000000000000007f000000000000000000000000000000000000000000000000000000000000000061387f565b506129e4565b90506020813d602011612f8e575b81612f7f602093836126cd565b81010312612e635751386129de565b3d9150612f72565b9094506020813d602011612fc2575b81612fb2602093836126cd565b810103126112455751933861298a565b3d9150612fa5565b612fe491965060203d6020116120aa5761209c81836126cd565b943861294d565b90503861291a565b92909161300261154d8461359d565b600554604080516001600160a01b0392831696919390916130228361264e565b606091828452886020938085870152808887015280608060009788838201520152875161304e81612633565b8681528789519b16868c0152858b526130668b612669565b6130748951611a9881612633565b9389519b6130818d61264e565b8c52868c0152888b01528901526080880152845163b0f479a160e01b815297600491838a8481305afa998a1561346b576130de98999a8791879161344e575b501691848b8951809b81926320487ded60e01b8352868984016134d4565b0381865afa9889156132f957869961341f575b5087516323b872dd60e01b815233858201908152306020820152604081018b90529091869183919082908a90829060600103925af19081156132f9578691613402575b50156133bf5785600554168751986370a0823160e01b998a815230868201528681602481865afa9081156133b5578891613384575b50811161330357885163095ea7b360e01b81526001600160a01b038516868201908152602081019290925291869183919082908a90829060400103925af180156132f957918593916131d89b9c936132dc575b50868951809c819582946396f4e9f960e01b84528984016134d4565b03925af19687156132d25783976132a3575b50819060247f000000000000000000000000000000000000000000000000000000000000000097875196879384928352309083015289165afa93841561329857508193613267575b50505061323d575090565b612d47907f00000000000000000000000000000000000000000000000000000000000000006139fa565b9091809350813d8311613291575b61327f81836126cd565b81010312610230575051388080613232565b503d613275565b51913d9150823e3d90fd5b9096508181813d83116132cb575b6132bb81836126cd565b810103126118b4575195816131ea565b503d6132b1565b85513d85823e3d90fd5b6132f290853d8711610a6657610a5681836126cd565b50386131bc565b88513d88823e3d90fd5b8490868a8994828e60248451809481938252308a8301525afa92831561337a578693613346575b505051634787a10360e11b815292830152602482015260449150fd5b9080929350813d8311613373575b61335e81836126cd565b8101031261046057604494505190858061332a565b503d613354565b82513d88823e3d90fd5b90508681813d83116133ae575b61339b81836126cd565b810103126133aa575138613169565b8780fd5b503d613391565b8a513d8a823e3d90fd5b865162461bcd60e51b8152808401859052601a60248201527f4e6f742070726f7669646564204c696e6b20666f7220666565730000000000006044820152606490fd5b6134199150853d8711610a6657610a5681836126cd565b38613134565b9098508481813d8311613447575b61343781836126cd565b81010312612120575197846130f1565b503d61342d565b6134659150863d88116120aa5761209c81836126cd565b386130c0565b87513d87823e3d90fd5b908160209103126104db57516001600160a01b03811681036104db5790565b919082519283825260005b8481106134c0575050826000602080949584010152601f8019910116010190565b60208183018101518483018201520161349f565b906001600160401b039093929316815260406020918183820152613503855160a08484015260e0830190613494565b9161351f8487015193603f199485858303016060860152613494565b8187015194848483030160808501528080875193848152019601926000905b83821061357457505050505060c06080612d47959660018060a01b0360608201511660a085015201519282850301910152613494565b845180516001600160a01b0316895283015188840152968701969382019360019091019061353e565b600060048054915b8261ffff8216106135f0575050507f00000000000000000000000000000000000000000000000000000000000000006001600160a01b039081169116146135eb57600090565b600190565b6135f9816127ed565b905460039190911b1c6001600160a01b039081169085161461363f5761ffff80911690811461362a576001016135a5565b601182634e487b7160e01b6000525260246000fd5b50505050600190565b8051156128245760200190565b9291906040918251926136678461264e565b606092838552602095848787015284838701528460806000978883820152015260018060a01b03809416801580613760575b156136f257505081516136ab81612633565b858152925b82519716868801528587526136c487612669565b6136d28251611a9881612633565b958251976136df8961264e565b8852870152850152830152608082015290565b83949194519061370182612669565b6001825288885b81811061373f5750509061373991819686519161372483612669565b82528a82015261373382613648565b52613648565b506136b0565b865161374a81612669565b8a81528a83820152828286010152018990613708565b508115613699565b9190826101809103126104db5781519160208101519160408201519160608101519160808201519160a08101519160c08201519160e081015191610100820151916101208101519161016061014083015192015164ffffffffff811681036104db5790565b51906001600160a01b03821682036104db57565b519060ff821682036104db57565b604051906397a657c960e01b602083015251602482015260248152606081018181106001600160401b0382111761049a5760405290565b60405163026b1d5f60e01b815290602090829060049082906001600160a01b03165afa9081156138735760009161385b575090565b612d47915060203d81116120aa5761209c81836126cd565b6040513d6000823e3d90fd5b604080516370a0823160e01b815230600482015293949390926020926001600160a01b039182169291908483602481875afa9283156139be576000936139c9575b506138ca90613826565b855163095ea7b360e01b81526001600160a01b03821660048201526024810184905290938590829060449082906000905af180156139be57859492613950989994926000926139a1575b508751631a4ca37b60e21b81526001600160a01b0390951660048601526024850192909252306044850152929687938492909183906064820190565b0393165af1918215613997575060009161396b575b50905090565b82813d8311613990575b61397f81836126cd565b810103126102305750518038613965565b503d613975565b513d6000823e3d90fd5b6139b790873d8911610a6657610a5681836126cd565b5038613914565b86513d6000823e3d90fd5b90928582813d83116139f3575b6139e081836126cd565b81010312610230575051916138ca6138c0565b503d6139d6565b604080516370a0823160e01b815230600482015290916001600160a01b0390848216906020908185602481865afa9485156139be57600095613b02575b50613a4190613826565b855163095ea7b360e01b81526001600160a01b03821660048201526024810186905290928290829060449082906000905af180156139be57613ae4575b50501692833b156104db57825163e8eda9df60e01b81526001600160a01b03919091166004820152602481019190915230604482015260006064820181905290928390608490829084905af19081156139975750613ad95750565b613ae290612684565b565b81613afa92903d10610a6657610a5681836126cd565b503880613a7e565b90948282813d8311613b2c575b613b1981836126cd565b8101031261023057505193613a41613a37565b503d613b0f565b6000546001600160a01b03163303613b4757565b60405162461bcd60e51b815260206004820152601660248201527527b7363c9031b0b63630b1363290313c9037bbb732b960511b6044820152606490fdfea2646970667358221220eb70541847b2c74468195caa6b4f430e2fe293a648fbd4d7bd97337a6d53aece64736f6c63430008130033",
  "bytecodeSha1": "41d26fc22dd457b2ab973bfaddad5b5b3eeed52a",
  "compiler": {
    "evm_version": "istanbul",
    "optimizer": {
      "enabled": true,
      "runs": 200
    },
    "version": "0.8.19+commit.7dd6d404"
  },
  "contractName": "Node",
  "language": "Solidity",
  "natspec": {
    "kind": "dev",
    "methods": {
      "acceptOwnership()": {
        "notice": "Allows an ownership transfer to be completed by the recipient."
      },
      "ccipReceive((bytes32,uint64,bytes,bytes,(address,uint256)[]))": {
        "details": "Note ensure you check the msg.sender is the OffRampRouter",
        "notice": "Called by the Router to deliver a message. If this reverts, any token transfers also revert. The message will move to a FAILED state and become available for manual execution.",
        "params": {
          "message": "CCIP Message"
        }
      },
      "constructor": {
        "notice": "Constructor initializes the contract with the router address.",
        "params": {
          "_link": "The address of the link contract.",
          "_router": "The address of the router contract."
        }
      },
      "getRouter()": {
        "notice": "Return the current router",
        "returns": {
          "_0": "CCIP router address"
        }
      },
      "owner()": {
        "notice": "Get the current owner"
      },
      "supportsInterface(bytes4)": {
        "details": "Should indicate whether the contract implements IAny2EVMMessageReceiver e.g. return interfaceId == type(IAny2EVMMessageReceiver).interfaceId || interfaceId == type(IERC165).interfaceId This allows CCIP to check if ccipReceive is available before calling it. If this returns false or reverts, only tokens are transferred to the receiver. If this returns true, tokens are transferred and ccipReceive is called atomically. Additionally, if the receiver address does not have code associated with it at the time of execution (EXTCODESIZE returns 0), only tokens will be transferred.",
        "notice": "IERC165 supports an interfaceId",
        "params": {
          "interfaceId": "The interfaceId to check"
        },
        "returns": {
          "_0": "true if the interfaceId is supported"
        }
      },
      "transferOwnership(address)": {
        "notice": "Allows an owner to begin transferring ownership to a new address."
      }
    },
    "version": 1
  },
  "opcodes": "PUSH1 0x80 DUP1 PUSH1 0x40 MSTORE PUSH1 0x4 CALLDATASIZE LT ISZERO PUSH2 0x1D JUMPI JUMPDEST POP CALLDATASIZE ISZERO PUSH2 0x1B JUMPI PUSH1 0x0 DUP1 REVERT JUMPDEST STOP JUMPDEST PUSH1 0x0 SWAP1 DUP2 CALLDATALOAD PUSH1 0xE0 SHR SWAP1 DUP2 PUSH4 0x1FFC9A7 EQ PUSH2 0x2588 JUMPI POP DUP1 PUSH4 0x40141E5 EQ PUSH2 0x2543 JUMPI DUP1 PUSH4 0xE508FFF EQ PUSH2 0x2504 JUMPI DUP1 PUSH4 0x15D03DFD EQ PUSH2 0x24DB JUMPI DUP1 PUSH4 0x168010ED EQ PUSH2 0x2448 JUMPI DUP1 PUSH4 0x1D34B4FF EQ PUSH2 0x2425 JUMPI DUP1 PUSH4 0x32D3AD5E EQ PUSH2 0x23E0 JUMPI DUP1 PUSH4 0x36161EB9 EQ PUSH2 0x23C2 JUMPI DUP1 PUSH4 0x4C8719F3 EQ PUSH2 0x23A4 JUMPI DUP1 PUSH4 0x544B1709 EQ PUSH2 0x2269 JUMPI DUP1 PUSH4 0x67062580 EQ PUSH2 0x2224 JUMPI DUP1 PUSH4 0x7058A5E7 EQ PUSH2 0x21E0 JUMPI DUP1 PUSH4 0x79BA5097 EQ PUSH2 0x213C JUMPI DUP1 PUSH4 0x85572FFB EQ PUSH2 0x13EB JUMPI DUP1 PUSH4 0x8CF19D19 EQ PUSH2 0x13A7 JUMPI DUP1 PUSH4 0x8DA5CB5B EQ PUSH2 0x1380 JUMPI DUP1 PUSH4 0x97652FFE EQ PUSH2 0xBFA JUMPI DUP1 PUSH4 0x982D1F18 EQ PUSH2 0x133B JUMPI DUP1 PUSH4 0x98B3C1F8 EQ PUSH2 0x1251 JUMPI DUP1 PUSH4 0xA19B24B5 EQ PUSH2 0x1051 JUMPI DUP1 PUSH4 0xA63CA076 EQ PUSH2 0x100D JUMPI DUP1 PUSH4 0xAF002DB8 EQ PUSH2 0xC89 JUMPI DUP1 PUSH4 0xAF256173 EQ PUSH2 0xC44 JUMPI DUP1 PUSH4 0xB0F479A1 EQ PUSH2 0xBFF JUMPI DUP1 PUSH4 0xB2AAE5C7 EQ PUSH2 0xBFA JUMPI DUP1 PUSH4 0xB6B55F25 EQ PUSH2 0x72C JUMPI DUP1 PUSH4 0xBB09D9B7 EQ PUSH2 0x6E7 JUMPI DUP1 PUSH4 0xC330A2ED EQ PUSH2 0x53B JUMPI DUP1 PUSH4 0xD8BBA68F EQ PUSH2 0x26C JUMPI DUP1 PUSH4 0xE227A140 EQ PUSH2 0x233 JUMPI PUSH4 0xF2FDE38B SUB PUSH2 0xF JUMPI CALLVALUE PUSH2 0x230 JUMPI PUSH1 0x20 CALLDATASIZE PUSH1 0x3 NOT ADD SLT PUSH2 0x230 JUMPI PUSH2 0x194 PUSH2 0x25DD JUMP JUMPDEST PUSH2 0x19C PUSH2 0x3B33 JUMP JUMPDEST PUSH1 0x1 PUSH1 0x1 PUSH1 0xA0 SHL SUB SWAP1 DUP2 AND SWAP1 CALLER DUP3 EQ PUSH2 0x1EB JUMPI PUSH1 0x1 DUP1 SLOAD PUSH1 0x1 PUSH1 0x1 PUSH1 0xA0 SHL SUB NOT AND DUP4 OR SWAP1 SSTORE DUP3 SLOAD AND PUSH32 0xED8889F560326EB138920D842192F0EB3DD22B4F139C87A2C57538E05BAE1278 DUP4 DUP1 LOG3 DUP1 RETURN JUMPDEST PUSH1 0x40 MLOAD PUSH3 0x461BCD PUSH1 0xE5 SHL DUP2 MSTORE PUSH1 0x20 PUSH1 0x4 DUP3 ADD MSTORE PUSH1 0x17 PUSH1 0x24 DUP3 ADD MSTORE PUSH32 0x43616E6E6F74207472616E7366657220746F2073656C66000000000000000000 PUSH1 0x44 DUP3 ADD MSTORE PUSH1 0x64 SWAP1 REVERT JUMPDEST DUP1 REVERT JUMPDEST POP CALLVALUE PUSH2 0x230 JUMPI PUSH1 0x20 CALLDATASIZE PUSH1 0x3 NOT ADD SLT PUSH2 0x230 JUMPI PUSH1 0x20 SWAP1 PUSH1 0x40 SWAP1 PUSH1 0x1 PUSH1 0x1 PUSH1 0xA0 SHL SUB PUSH2 0x25B PUSH2 0x25DD JUMP JUMPDEST AND DUP2 MSTORE PUSH1 0x8 DUP4 MSTORE KECCAK256 SLOAD PUSH1 0x40 MLOAD SWAP1 DUP2 MSTORE RETURN JUMPDEST POP CALLVALUE PUSH2 0x230 JUMPI DUP1 PUSH1 0x3 NOT CALLDATASIZE ADD SLT PUSH2 0x230 JUMPI PUSH1 0x40 MLOAD PUSH4 0x35EA6A75 PUSH1 0xE0 SHL DUP2 MSTORE PUSH1 0x1 PUSH1 0x1 PUSH1 0xA0 SHL SUB PUSH32 0x0 DUP2 AND PUSH1 0x4 DUP4 ADD MSTORE SWAP1 PUSH2 0x180 DUP1 DUP3 PUSH1 0x24 DUP2 PUSH32 0x0 DUP8 AND GAS STATICCALL SWAP2 DUP3 ISZERO PUSH2 0x530 JUMPI DUP5 SWAP2 DUP6 SWAP4 PUSH2 0x4F3 JUMPI JUMPDEST POP POP PUSH1 0x40 MLOAD PUSH4 0x70A08231 PUSH1 0xE0 SHL DUP2 MSTORE ADDRESS PUSH1 0x4 DUP3 ADD MSTORE SWAP2 PUSH1 0x20 DUP4 PUSH1 0x24 DUP2 PUSH32 0x0 DUP9 AND GAS STATICCALL SWAP3 DUP4 ISZERO PUSH2 0x4E8 JUMPI DUP6 SWAP4 PUSH2 0x4B0 JUMPI JUMPDEST POP PUSH1 0x40 MLOAD SWAP4 PUSH1 0x2 PUSH1 0x20 DUP7 ADD MSTORE DUP3 PUSH1 0x40 DUP7 ADD MSTORE DUP2 PUSH1 0x60 DUP7 ADD MSTORE DUP2 PUSH1 0x80 DUP7 ADD MSTORE DUP4 PUSH1 0xA0 DUP7 ADD MSTORE PUSH1 0xA0 DUP6 MSTORE PUSH1 0xC0 DUP6 ADD SWAP5 PUSH1 0x1 PUSH1 0x1 PUSH1 0x40 SHL SUB DUP2 DUP8 LT DUP2 DUP9 GT OR PUSH2 0x49A JUMPI DUP8 SWAP7 PUSH1 0x40 MSTORE PUSH32 0x0 SWAP1 DUP1 DUP3 AND SWAP1 PUSH32 0x0 AND EQ PUSH1 0x0 EQ PUSH2 0x464 JUMPI POP POP PUSH32 0x0 AND DUP1 EXTCODESIZE ISZERO PUSH2 0x460 JUMPI DUP5 SWAP3 DUP4 PUSH1 0x84 SWAP3 PUSH1 0x40 MLOAD SWAP7 DUP8 SWAP6 DUP7 SWAP5 PUSH4 0x453B3FF PUSH1 0xE1 SHL DUP7 MSTORE PUSH1 0x4 DUP7 ADD MSTORE DUP1 PUSH1 0x24 DUP7 ADD MSTORE PUSH1 0x44 DUP6 ADD MSTORE PUSH1 0x64 DUP5 ADD MSTORE GAS CALL DUP1 ISZERO PUSH2 0x455 JUMPI PUSH2 0x445 JUMPI POP POP DUP1 RETURN JUMPDEST PUSH2 0x44E SWAP1 PUSH2 0x2684 JUMP JUMPDEST PUSH2 0x230 JUMPI DUP1 RETURN JUMPDEST PUSH1 0x40 MLOAD RETURNDATASIZE DUP5 DUP3 RETURNDATACOPY RETURNDATASIZE SWAP1 REVERT JUMPDEST DUP5 DUP1 REVERT JUMPDEST SWAP4 POP SWAP4 POP POP POP PUSH2 0x496 SWAP3 POP PUSH32 0x0 SWAP1 PUSH2 0x2FF3 JUMP JUMPDEST POP DUP1 RETURN JUMPDEST PUSH4 0x4E487B71 PUSH1 0xE0 SHL PUSH1 0x0 MSTORE PUSH1 0x41 PUSH1 0x4 MSTORE PUSH1 0x24 PUSH1 0x0 REVERT JUMPDEST SWAP1 SWAP3 POP PUSH1 0x20 DUP2 RETURNDATASIZE DUP3 GT PUSH2 0x4E0 JUMPI JUMPDEST DUP2 PUSH2 0x4CB PUSH1 0x20 SWAP4 DUP4 PUSH2 0x26CD JUMP JUMPDEST DUP2 ADD SUB SLT PUSH2 0x4DB JUMPI MLOAD SWAP2 CODESIZE PUSH2 0x347 JUMP JUMPDEST PUSH1 0x0 DUP1 REVERT JUMPDEST RETURNDATASIZE SWAP2 POP PUSH2 0x4BE JUMP JUMPDEST PUSH1 0x40 MLOAD RETURNDATASIZE DUP8 DUP3 RETURNDATACOPY RETURNDATASIZE SWAP1 REVERT JUMPDEST PUSH2 0x516 SWAP4 POP DUP1 SWAP2 SWAP3 POP SWAP1 RETURNDATASIZE LT PUSH2 0x529 JUMPI JUMPDEST PUSH2 0x50E DUP2 DUP4 PUSH2 0x26CD JUMP JUMPDEST DUP2 ADD SWAP1 PUSH2 0x3768 JUMP JUMPDEST POP POP POP POP POP POP POP SWAP4 POP POP SWAP1 POP CODESIZE DUP1 PUSH2 0x2F8 JUMP JUMPDEST POP RETURNDATASIZE PUSH2 0x504 JUMP JUMPDEST PUSH1 0x40 MLOAD RETURNDATASIZE DUP7 DUP3 RETURNDATACOPY RETURNDATASIZE SWAP1 REVERT JUMPDEST POP CALLVALUE PUSH2 0x230 JUMPI DUP1 PUSH1 0x3 NOT CALLDATASIZE ADD SLT PUSH2 0x230 JUMPI CALLER DUP2 MSTORE PUSH1 0x8 PUSH1 0x20 MSTORE PUSH1 0x40 DUP2 KECCAK256 SLOAD ISZERO PUSH2 0x6A2 JUMPI CALLER DUP2 MSTORE PUSH1 0x8 PUSH1 0x20 MSTORE DUP1 PUSH1 0x40 DUP2 KECCAK256 SLOAD PUSH1 0x40 MLOAD PUSH2 0x5AB DUP2 PUSH2 0x59D DUP5 CALLER PUSH1 0x20 DUP5 ADD PUSH1 0x40 SWAP1 SWAP4 SWAP3 SWAP2 SWAP4 PUSH1 0x60 DUP2 ADD SWAP5 PUSH1 0x0 DUP3 MSTORE PUSH1 0x1 DUP1 PUSH1 0xA0 SHL SUB AND PUSH1 0x20 DUP3 ADD MSTORE ADD MSTORE JUMP JUMPDEST SUB PUSH1 0x1F NOT DUP2 ADD DUP4 MSTORE DUP3 PUSH2 0x26CD JUMP JUMPDEST PUSH32 0x0 PUSH1 0x1 PUSH1 0x1 PUSH1 0x40 SHL SUB DUP1 DUP3 AND SWAP1 PUSH32 0x0 AND EQ PUSH1 0x0 EQ PUSH2 0x673 JUMPI POP POP PUSH32 0x0 PUSH1 0x1 PUSH1 0x1 PUSH1 0xA0 SHL SUB AND DUP1 EXTCODESIZE ISZERO PUSH2 0x66F JUMPI PUSH1 0x40 MLOAD PUSH4 0x11E0FA9 PUSH1 0xE2 SHL DUP2 MSTORE CALLER PUSH1 0x4 DUP3 ADD MSTORE PUSH1 0x24 DUP2 ADD SWAP3 SWAP1 SWAP3 MSTORE DUP3 SWAP1 DUP3 SWAP1 DUP2 DUP4 DUP2 PUSH1 0x44 DUP2 ADD JUMPDEST SUB SWAP3 GAS CALL DUP1 ISZERO PUSH2 0x455 JUMPI PUSH2 0x445 JUMPI POP POP DUP1 RETURN JUMPDEST POP POP REVERT JUMPDEST SWAP1 SWAP2 POP PUSH2 0x496 SWAP3 POP PUSH32 0x0 SWAP1 PUSH2 0x2FF3 JUMP JUMPDEST PUSH1 0x40 MLOAD PUSH3 0x461BCD PUSH1 0xE5 SHL DUP2 MSTORE PUSH1 0x20 PUSH1 0x4 DUP3 ADD MSTORE PUSH1 0x18 PUSH1 0x24 DUP3 ADD MSTORE PUSH32 0x4E6F206157525020746F6B656E7320746F20726566756E640000000000000000 PUSH1 0x44 DUP3 ADD MSTORE PUSH1 0x64 SWAP1 REVERT JUMPDEST POP CALLVALUE PUSH2 0x230 JUMPI DUP1 PUSH1 0x3 NOT CALLDATASIZE ADD SLT PUSH2 0x230 JUMPI PUSH1 0x40 MLOAD PUSH32 0x0 PUSH1 0x1 PUSH1 0x1 PUSH1 0xA0 SHL SUB AND DUP2 MSTORE PUSH1 0x20 SWAP1 RETURN JUMPDEST POP CALLVALUE PUSH2 0x230 JUMPI PUSH1 0x20 SWAP1 DUP2 PUSH1 0x3 NOT CALLDATASIZE ADD SLT PUSH2 0x230 JUMPI PUSH1 0x40 MLOAD PUSH4 0x23B872DD PUSH1 0xE0 SHL DUP2 MSTORE CALLER PUSH1 0x4 DUP1 DUP4 ADD SWAP2 SWAP1 SWAP2 MSTORE ADDRESS PUSH1 0x24 DUP4 ADD MSTORE CALLDATALOAD PUSH1 0x44 DUP3 ADD DUP2 SWAP1 MSTORE PUSH1 0x1 PUSH1 0x1 PUSH1 0xA0 SHL SUB PUSH32 0x0 DUP2 DUP2 AND SWAP6 SWAP3 SWAP4 SWAP2 SWAP3 SWAP2 DUP3 DUP2 PUSH1 0x64 DUP2 DUP10 DUP12 GAS CALL SWAP1 DUP2 ISZERO PUSH2 0xB2E JUMPI DUP7 SWAP2 PUSH2 0xBDD JUMPI JUMPDEST POP ISZERO PUSH2 0xB98 JUMPI PUSH1 0xFF PUSH1 0x3 SLOAD AND ISZERO PUSH2 0xB39 JUMPI PUSH1 0x40 MLOAD PUSH4 0x70A08231 PUSH1 0xE0 SHL DUP2 MSTORE ADDRESS PUSH1 0x4 DUP3 ADD MSTORE SWAP4 DUP3 DUP6 PUSH1 0x24 DUP2 PUSH32 0x0 DUP9 AND GAS STATICCALL SWAP5 DUP6 ISZERO PUSH2 0xB2E JUMPI DUP7 SWAP6 PUSH2 0xAFF JUMPI JUMPDEST POP PUSH2 0x816 DUP2 DUP7 PUSH2 0x28A8 JUMP JUMPDEST PUSH1 0x2 SLOAD GT ISZERO PUSH2 0xAAB JUMPI PUSH1 0x7 SLOAD SWAP5 DUP6 PUSH2 0xA8C JUMPI POP PUSH5 0xE8D4A51000 SWAP7 DUP8 DUP3 MUL SWAP8 DUP3 DUP10 DIV EQ DUP3 ISZERO OR ISZERO PUSH2 0xA78 JUMPI PUSH2 0x84C DUP8 SWAP9 DUP1 SWAP8 PUSH2 0x28A8 JUMP JUMPDEST PUSH1 0x7 SSTORE PUSH1 0x40 DUP1 MLOAD PUSH1 0x0 DUP7 DUP3 ADD SWAP1 DUP2 MSTORE CALLER PUSH1 0x20 DUP3 ADD MSTORE DUP1 DUP4 ADD DUP10 SWAP1 MSTORE DUP2 SWAP1 SUB SWAP2 DUP3 ADD DUP2 MSTORE SWAP5 SWAP1 PUSH2 0x87E SWAP1 PUSH1 0x60 ADD DUP7 PUSH2 0x26CD JUMP JUMPDEST PUSH2 0x8A7 PUSH32 0x0 PUSH2 0x3826 JUMP JUMPDEST PUSH1 0x40 MLOAD PUSH4 0x95EA7B3 PUSH1 0xE0 SHL DUP2 MSTORE PUSH1 0x1 PUSH1 0x1 PUSH1 0xA0 SHL SUB DUP3 AND PUSH1 0x4 DUP3 ADD MSTORE PUSH1 0x24 DUP2 ADD DUP6 SWAP1 MSTORE SWAP3 SWAP1 SWAP2 SWAP1 DUP2 SWAP1 DUP5 SWAP1 PUSH1 0x44 SWAP1 DUP3 SWAP1 DUP14 SWAP1 GAS CALL SWAP3 DUP4 ISZERO PUSH2 0xA6D JUMPI DUP8 SWAP4 PUSH2 0xA3F JUMPI JUMPDEST POP POP AND SWAP2 DUP3 EXTCODESIZE ISZERO PUSH2 0xA3B JUMPI PUSH1 0x40 MLOAD PUSH4 0xE8EDA9DF PUSH1 0xE0 SHL DUP2 MSTORE PUSH1 0x1 PUSH1 0x1 PUSH1 0xA0 SHL SUB SWAP2 SWAP1 SWAP2 AND PUSH1 0x4 DUP3 ADD MSTORE PUSH1 0x24 DUP2 ADD SWAP2 SWAP1 SWAP2 MSTORE ADDRESS PUSH1 0x44 DUP3 ADD MSTORE PUSH1 0x0 PUSH1 0x64 DUP3 ADD MSTORE SWAP1 DUP6 SWAP1 DUP3 SWAP1 PUSH1 0x84 SWAP1 DUP3 SWAP1 DUP5 SWAP1 GAS CALL SWAP1 DUP2 ISZERO PUSH2 0x4E8 JUMPI DUP6 SWAP2 PUSH2 0xA22 JUMPI JUMPDEST POP POP PUSH32 0x0 PUSH1 0x1 PUSH1 0x1 PUSH1 0x40 SHL SUB DUP1 DUP3 AND SWAP1 PUSH32 0x0 AND EQ PUSH1 0x0 EQ PUSH2 0x9F2 JUMPI POP POP PUSH32 0x0 AND DUP1 EXTCODESIZE ISZERO PUSH2 0x66F JUMPI PUSH1 0x40 MLOAD PUSH4 0x11E0FA9 PUSH1 0xE2 SHL DUP2 MSTORE CALLER PUSH1 0x4 DUP3 ADD MSTORE PUSH1 0x24 DUP2 ADD SWAP3 SWAP1 SWAP3 MSTORE DUP3 SWAP1 DUP3 SWAP1 DUP2 DUP4 DUP2 PUSH1 0x44 DUP2 ADD PUSH2 0x65C JUMP JUMPDEST SWAP2 POP SWAP2 POP PUSH2 0x496 SWAP3 POP PUSH32 0x0 SWAP1 PUSH2 0x2FF3 JUMP JUMPDEST PUSH2 0xA2B SWAP1 PUSH2 0x2684 JUMP JUMPDEST PUSH2 0xA36 JUMPI DUP4 CODESIZE PUSH2 0x943 JUMP JUMPDEST POP POP POP REVERT JUMPDEST DUP7 DUP1 REVERT JUMPDEST DUP2 PUSH2 0xA5E SWAP3 SWAP1 RETURNDATASIZE LT PUSH2 0xA66 JUMPI JUMPDEST PUSH2 0xA56 DUP2 DUP4 PUSH2 0x26CD JUMP JUMPDEST DUP2 ADD SWAP1 PUSH2 0x2890 JUMP JUMPDEST POP CODESIZE DUP1 PUSH2 0x8E9 JUMP JUMPDEST POP RETURNDATASIZE PUSH2 0xA4C JUMP JUMPDEST PUSH1 0x40 MLOAD RETURNDATASIZE DUP12 DUP3 RETURNDATACOPY RETURNDATASIZE SWAP1 REVERT JUMPDEST PUSH4 0x4E487B71 PUSH1 0xE0 SHL DUP8 MSTORE PUSH1 0x11 PUSH1 0x4 MSTORE PUSH1 0x24 DUP8 REVERT JUMPDEST SWAP7 PUSH2 0x84C PUSH2 0xAA4 DUP9 SWAP10 PUSH2 0xA9F DUP10 DUP7 PUSH2 0x283A JUMP JUMPDEST PUSH2 0x2863 JUMP JUMPDEST DUP1 SWAP8 PUSH2 0x28A8 JUMP JUMPDEST PUSH1 0x40 MLOAD PUSH3 0x461BCD PUSH1 0xE5 SHL DUP2 MSTORE PUSH1 0x4 DUP2 ADD DUP5 SWAP1 MSTORE PUSH1 0x26 PUSH1 0x24 DUP3 ADD MSTORE PUSH32 0x4E6F64652066757266696C6C6564206E6F206D6F726520646570736974732061 PUSH1 0x44 DUP3 ADD MSTORE PUSH6 0x1B1B1BDDD959 PUSH1 0xD2 SHL PUSH1 0x64 DUP3 ADD MSTORE PUSH1 0x84 SWAP1 REVERT JUMPDEST SWAP1 SWAP5 POP DUP3 DUP2 DUP2 RETURNDATASIZE DUP4 GT PUSH2 0xB27 JUMPI JUMPDEST PUSH2 0xB17 DUP2 DUP4 PUSH2 0x26CD JUMP JUMPDEST DUP2 ADD SUB SLT PUSH2 0x4DB JUMPI MLOAD SWAP4 CODESIZE PUSH2 0x80B JUMP JUMPDEST POP RETURNDATASIZE PUSH2 0xB0D JUMP JUMPDEST PUSH1 0x40 MLOAD RETURNDATASIZE DUP9 DUP3 RETURNDATACOPY RETURNDATASIZE SWAP1 REVERT JUMPDEST PUSH1 0x40 MLOAD PUSH3 0x461BCD PUSH1 0xE5 SHL DUP2 MSTORE PUSH1 0x4 DUP2 ADD DUP4 SWAP1 MSTORE PUSH1 0x31 PUSH1 0x24 DUP3 ADD MSTORE PUSH32 0x4173657473206172652057617270696E67204E6F772C206465706F7369747320 PUSH1 0x44 DUP3 ADD MSTORE PUSH17 0x37B7103732BB90313637B1B5B1B430B4B7 PUSH1 0x79 SHL PUSH1 0x64 DUP3 ADD MSTORE PUSH1 0x84 SWAP1 REVERT JUMPDEST PUSH1 0x40 MLOAD PUSH3 0x461BCD PUSH1 0xE5 SHL DUP2 MSTORE PUSH1 0x4 DUP2 ADD DUP4 SWAP1 MSTORE PUSH1 0x19 PUSH1 0x24 DUP3 ADD MSTORE PUSH32 0x4661696C656420746F207472616E7366657220616D6F756E7400000000000000 PUSH1 0x44 DUP3 ADD MSTORE PUSH1 0x64 SWAP1 REVERT JUMPDEST PUSH2 0xBF4 SWAP2 POP DUP4 RETURNDATASIZE DUP6 GT PUSH2 0xA66 JUMPI PUSH2 0xA56 DUP2 DUP4 PUSH2 0x26CD JUMP JUMPDEST CODESIZE PUSH2 0x7AE JUMP JUMPDEST PUSH2 0x2744 JUMP JUMPDEST POP CALLVALUE PUSH2 0x230 JUMPI DUP1 PUSH1 0x3 NOT CALLDATASIZE ADD SLT PUSH2 0x230 JUMPI PUSH1 0x40 MLOAD PUSH32 0x0 PUSH1 0x1 PUSH1 0x1 PUSH1 0xA0 SHL SUB AND DUP2 MSTORE PUSH1 0x20 SWAP1 RETURN JUMPDEST POP CALLVALUE PUSH2 0x230 JUMPI DUP1 PUSH1 0x3 NOT CALLDATASIZE ADD SLT PUSH2 0x230 JUMPI PUSH1 0x40 MLOAD PUSH32 0x0 PUSH1 0x1 PUSH1 0x1 PUSH1 0xA0 SHL SUB AND DUP2 MSTORE PUSH1 0x20 SWAP1 RETURN JUMPDEST POP CALLVALUE PUSH2 0x230 JUMPI PUSH1 0x40 CALLDATASIZE PUSH1 0x3 NOT ADD SLT PUSH2 0x230 JUMPI PUSH2 0xCA3 PUSH2 0x25DD JUMP JUMPDEST PUSH1 0x24 CALLDATALOAD SWAP1 PUSH1 0x1 PUSH1 0x1 PUSH1 0x40 SHL SUB DUP1 PUSH32 0x0 AND SWAP1 PUSH32 0x0 AND SUB PUSH2 0xFBA JUMPI PUSH1 0x1 PUSH1 0x1 PUSH1 0xA0 SHL SUB PUSH32 0x0 DUP2 AND CALLER SUB PUSH2 0xF75 JUMPI PUSH2 0xD54 PUSH32 0x0 PUSH2 0x3826 JUMP JUMPDEST PUSH1 0x40 MLOAD PUSH4 0x70A08231 PUSH1 0xE0 SHL DUP2 MSTORE ADDRESS PUSH1 0x4 DUP3 ADD MSTORE PUSH1 0x20 SWAP4 SWAP2 PUSH32 0x0 DUP5 AND SWAP2 DUP6 DUP2 PUSH1 0x24 DUP2 DUP7 GAS STATICCALL SWAP1 DUP2 ISZERO PUSH2 0xF6A JUMPI DUP9 SWAP2 PUSH2 0xF3D JUMPI JUMPDEST POP PUSH8 0xDE0B6B3A7640000 SWAP1 DUP2 DUP9 MUL DUP9 DUP2 DIV DUP4 EQ DUP10 ISZERO OR ISZERO PUSH2 0xF29 JUMPI SWAP1 PUSH2 0xDCA SWAP2 PUSH2 0x283A JUMP JUMPDEST PUSH2 0xDE1 DUP9 PUSH2 0xDDB PUSH1 0x7 SLOAD DUP1 SWAP5 PUSH2 0x2863 JUMP JUMPDEST SWAP3 PUSH2 0x2883 JUMP JUMPDEST PUSH1 0x7 SSTORE PUSH1 0x3 SLOAD PUSH1 0xFF AND PUSH2 0xE0F JUMPI POP POP POP POP SWAP1 PUSH1 0x8 SWAP3 SWAP2 AND DUP5 MSTORE MSTORE PUSH2 0xE0A PUSH1 0x40 DUP4 KECCAK256 SWAP2 DUP3 SLOAD PUSH2 0x28A8 JUMP JUMPDEST SWAP1 SSTORE DUP1 RETURN JUMPDEST PUSH1 0x40 MLOAD PUSH4 0x95EA7B3 PUSH1 0xE0 SHL DUP2 MSTORE PUSH1 0x1 PUSH1 0x1 PUSH1 0xA0 SHL SUB DUP5 AND PUSH1 0x4 DUP3 ADD MSTORE SWAP2 SWAP1 DIV PUSH1 0x24 DUP3 ADD DUP2 SWAP1 MSTORE SWAP6 SWAP7 POP SWAP5 SWAP1 SWAP2 DUP8 SWAP1 DUP8 SWAP1 DUP8 SWAP1 PUSH1 0x44 SWAP1 DUP3 SWAP1 DUP6 SWAP1 GAS CALL SWAP5 DUP6 ISZERO PUSH2 0xF1C JUMPI PUSH2 0xEBB SWAP7 DUP9 SWAP7 PUSH2 0xEFF JUMPI JUMPDEST POP PUSH1 0x40 MLOAD PUSH4 0x1A4CA37B PUSH1 0xE2 SHL DUP2 MSTORE PUSH1 0x1 PUSH1 0x1 PUSH1 0xA0 SHL SUB PUSH32 0x0 DUP2 AND PUSH1 0x4 DUP4 ADD MSTORE PUSH1 0x24 DUP3 ADD SWAP5 SWAP1 SWAP5 MSTORE SWAP3 SWAP1 SWAP5 AND PUSH1 0x44 DUP4 ADD MSTORE SWAP1 SWAP5 DUP6 SWAP4 DUP5 SWAP3 SWAP2 DUP4 SWAP1 PUSH1 0x64 DUP3 ADD SWAP1 JUMP JUMPDEST SUB SWAP4 AND GAS CALL DUP1 ISZERO PUSH2 0xEF4 JUMPI PUSH2 0xECF JUMPI POP POP DUP1 RETURN JUMPDEST DUP2 RETURNDATASIZE DUP4 GT PUSH2 0xEED JUMPI JUMPDEST PUSH2 0xEE2 DUP2 DUP4 PUSH2 0x26CD JUMP JUMPDEST DUP2 ADD SUB SLT PUSH2 0x4DB JUMPI DUP1 RETURN JUMPDEST POP RETURNDATASIZE PUSH2 0xED8 JUMP JUMPDEST PUSH1 0x40 MLOAD RETURNDATASIZE DUP6 DUP3 RETURNDATACOPY RETURNDATASIZE SWAP1 REVERT JUMPDEST PUSH2 0xF15 SWAP1 DUP8 RETURNDATASIZE DUP10 GT PUSH2 0xA66 JUMPI PUSH2 0xA56 DUP2 DUP4 PUSH2 0x26CD JUMP JUMPDEST POP CODESIZE PUSH2 0xE5C JUMP JUMPDEST POP PUSH1 0x40 MLOAD SWAP1 RETURNDATASIZE SWAP1 DUP3 RETURNDATACOPY RETURNDATASIZE SWAP1 REVERT JUMPDEST PUSH4 0x4E487B71 PUSH1 0xE0 SHL DUP11 MSTORE PUSH1 0x11 PUSH1 0x4 MSTORE PUSH1 0x24 DUP11 REVERT JUMPDEST SWAP1 POP DUP6 DUP2 DUP2 RETURNDATASIZE DUP4 GT PUSH2 0xF63 JUMPI JUMPDEST PUSH2 0xF54 DUP2 DUP4 PUSH2 0x26CD JUMP JUMPDEST DUP2 ADD SUB SLT PUSH2 0x4DB JUMPI MLOAD CODESIZE PUSH2 0xDA5 JUMP JUMPDEST POP RETURNDATASIZE PUSH2 0xF4A JUMP JUMPDEST PUSH1 0x40 MLOAD RETURNDATASIZE DUP11 DUP3 RETURNDATACOPY RETURNDATASIZE SWAP1 REVERT JUMPDEST PUSH1 0x40 MLOAD PUSH3 0x461BCD PUSH1 0xE5 SHL DUP2 MSTORE PUSH1 0x20 PUSH1 0x4 DUP3 ADD MSTORE PUSH1 0x1C PUSH1 0x24 DUP3 ADD MSTORE PUSH32 0x4F6E6C79204D617374657220436F6E747261637420616C6C6F77656400000000 PUSH1 0x44 DUP3 ADD MSTORE PUSH1 0x64 SWAP1 REVERT JUMPDEST PUSH1 0x40 MLOAD PUSH3 0x461BCD PUSH1 0xE5 SHL DUP2 MSTORE PUSH1 0x20 PUSH1 0x4 DUP3 ADD MSTORE PUSH1 0x25 PUSH1 0x24 DUP3 ADD MSTORE PUSH32 0x52657175697265206D617374657220616E64206E6F646520696E2073616D6520 PUSH1 0x44 DUP3 ADD MSTORE PUSH5 0x31B430B4B7 PUSH1 0xD9 SHL PUSH1 0x64 DUP3 ADD MSTORE PUSH1 0x84 SWAP1 REVERT JUMPDEST POP CALLVALUE PUSH2 0x230 JUMPI PUSH1 0x20 CALLDATASIZE PUSH1 0x3 NOT ADD SLT PUSH2 0x230 JUMPI PUSH1 0x4 CALLDATALOAD SWAP1 PUSH1 0x4 SLOAD DUP3 LT ISZERO PUSH2 0x230 JUMPI PUSH1 0x20 PUSH2 0x1038 DUP4 PUSH2 0x27ED JUMP JUMPDEST SWAP1 SLOAD PUSH1 0x40 MLOAD PUSH1 0x3 SWAP3 SWAP1 SWAP3 SHL SHR PUSH1 0x1 PUSH1 0x1 PUSH1 0xA0 SHL SUB AND DUP2 MSTORE RETURN JUMPDEST POP CALLVALUE PUSH2 0x230 JUMPI PUSH1 0x20 DUP1 PUSH1 0x3 NOT CALLDATASIZE ADD SLT PUSH2 0x124D JUMPI PUSH1 0x1 PUSH1 0x1 PUSH1 0x40 SHL SUB SWAP1 PUSH1 0x4 CALLDATALOAD DUP3 DUP2 GT PUSH2 0x1249 JUMPI CALLDATASIZE PUSH1 0x23 DUP3 ADD SLT ISZERO PUSH2 0x1249 JUMPI DUP1 PUSH1 0x4 ADD CALLDATALOAD PUSH2 0x1090 DUP2 PUSH2 0x27D6 JUMP JUMPDEST SWAP1 PUSH2 0x109E PUSH1 0x40 MLOAD SWAP3 DUP4 PUSH2 0x26CD JUMP JUMPDEST DUP1 DUP3 MSTORE DUP4 DUP3 ADD SWAP3 DUP4 PUSH1 0x24 DUP1 SWAP4 PUSH1 0x5 SHL DUP4 ADD ADD SWAP2 CALLDATASIZE DUP4 GT PUSH2 0x1245 JUMPI DUP4 DUP8 SWAP2 ADD SWAP2 JUMPDEST DUP4 DUP4 LT PUSH2 0x122D JUMPI POP POP POP POP PUSH2 0x10D1 PUSH2 0x3B33 JUMP JUMPDEST DUP2 MLOAD ISZERO PUSH2 0x11EA JUMPI PUSH1 0x4 SLOAD SWAP2 DUP3 PUSH2 0x11A6 JUMPI MLOAD SWAP5 DUP6 GT PUSH2 0x1194 JUMPI PUSH9 0x10000000000000000 DUP6 GT PUSH2 0x1194 JUMPI POP DUP4 PUSH1 0x4 SSTORE DUP1 DUP5 LT PUSH2 0x1154 JUMPI JUMPDEST POP SWAP1 PUSH1 0x4 DUP5 MSTORE DUP4 JUMPDEST DUP4 DUP2 LT PUSH2 0x1119 JUMPI DUP5 DUP1 RETURN JUMPDEST DUP3 MLOAD PUSH1 0x1 PUSH1 0x1 PUSH1 0xA0 SHL SUB AND PUSH32 0x8A35ACFBC15FF81A39AE7D344FD709F28E8600B4AA8C65C6B64BFE7FE36BD19B DUP3 ADD SSTORE SWAP2 DUP2 ADD SWAP2 PUSH1 0x1 ADD PUSH2 0x110E JUMP JUMPDEST DUP4 PUSH32 0x8A35ACFBC15FF81A39AE7D344FD709F28E8600B4AA8C65C6B64BFE7FE36BD19B SWAP2 DUP3 ADD SWAP2 ADD JUMPDEST DUP2 DUP2 LT PUSH2 0x1189 JUMPI POP PUSH2 0x1106 JUMP JUMPDEST DUP6 DUP2 SSTORE PUSH1 0x1 ADD PUSH2 0x117C JUMP JUMPDEST PUSH4 0x4E487B71 PUSH1 0xE0 SHL DUP7 MSTORE PUSH1 0x41 PUSH1 0x4 MSTORE DUP6 REVERT JUMPDEST PUSH1 0x40 MLOAD PUSH3 0x461BCD PUSH1 0xE5 SHL DUP2 MSTORE PUSH1 0x4 DUP2 ADD DUP7 SWAP1 MSTORE PUSH1 0x1A DUP2 DUP5 ADD MSTORE PUSH32 0x616C6C6F7765644E6F646573206D75737420626520656D707479000000000000 PUSH1 0x44 DUP3 ADD MSTORE PUSH1 0x64 SWAP1 REVERT JUMPDEST DUP4 PUSH1 0x17 PUSH1 0x64 SWAP3 PUSH1 0x40 MLOAD SWAP3 PUSH3 0x461BCD PUSH1 0xE5 SHL DUP5 MSTORE PUSH1 0x4 DUP5 ADD MSTORE DUP3 ADD MSTORE PUSH32 0x596F752073656E7420616E20656D707479206172726179000000000000000000 PUSH1 0x44 DUP3 ADD MSTORE REVERT JUMPDEST DUP2 SWAP1 PUSH2 0x1238 DUP5 PUSH2 0x2609 JUMP JUMPDEST DUP2 MSTORE ADD SWAP2 ADD SWAP1 DUP7 SWAP1 PUSH2 0x10BE JUMP JUMPDEST DUP9 DUP1 REVERT JUMPDEST DUP4 DUP1 REVERT JUMPDEST POP DUP1 REVERT JUMPDEST POP CALLVALUE PUSH2 0x230 JUMPI PUSH1 0x20 SWAP1 DUP2 PUSH1 0x3 NOT CALLDATASIZE ADD SLT PUSH2 0x230 JUMPI PUSH1 0x40 MLOAD PUSH4 0x70A08231 PUSH1 0xE0 SHL DUP2 MSTORE ADDRESS PUSH1 0x4 DUP3 DUP2 ADD SWAP2 SWAP1 SWAP2 MSTORE CALLDATALOAD DUP4 DUP3 PUSH1 0x24 DUP2 PUSH32 0x0 PUSH1 0x1 PUSH1 0x1 PUSH1 0xA0 SHL SUB AND GAS STATICCALL SWAP2 DUP3 ISZERO PUSH2 0xEF4 JUMPI DUP4 SWAP3 PUSH2 0x130C JUMPI JUMPDEST POP PUSH8 0xDE0B6B3A7640000 SWAP3 DUP4 DUP3 MUL SWAP2 DUP1 DUP4 DIV DUP6 EQ SWAP1 ISZERO OR ISZERO PUSH2 0x12F8 JUMPI POP PUSH2 0x12EF SWAP2 PUSH2 0x12E6 SWAP2 PUSH2 0x283A JUMP JUMPDEST PUSH1 0x7 SLOAD SWAP1 PUSH2 0x2863 JUMP JUMPDEST DIV PUSH1 0x40 MLOAD SWAP1 DUP2 MSTORE RETURN JUMPDEST PUSH4 0x4E487B71 PUSH1 0xE0 SHL DUP2 MSTORE PUSH1 0x11 PUSH1 0x4 MSTORE PUSH1 0x24 SWAP1 REVERT JUMPDEST SWAP1 SWAP2 POP DUP4 DUP2 DUP2 RETURNDATASIZE DUP4 GT PUSH2 0x1334 JUMPI JUMPDEST PUSH2 0x1324 DUP2 DUP4 PUSH2 0x26CD JUMP JUMPDEST DUP2 ADD SUB SLT PUSH2 0x4DB JUMPI MLOAD SWAP1 CODESIZE PUSH2 0x12BC JUMP JUMPDEST POP RETURNDATASIZE PUSH2 0x131A JUMP JUMPDEST POP CALLVALUE PUSH2 0x230 JUMPI DUP1 PUSH1 0x3 NOT CALLDATASIZE ADD SLT PUSH2 0x230 JUMPI PUSH1 0x40 MLOAD PUSH32 0x0 PUSH1 0x1 PUSH1 0x1 PUSH1 0xA0 SHL SUB AND DUP2 MSTORE PUSH1 0x20 SWAP1 RETURN JUMPDEST POP CALLVALUE PUSH2 0x230 JUMPI DUP1 PUSH1 0x3 NOT CALLDATASIZE ADD SLT PUSH2 0x230 JUMPI SLOAD PUSH1 0x40 MLOAD PUSH1 0x1 PUSH1 0x1 PUSH1 0xA0 SHL SUB SWAP1 SWAP2 AND DUP2 MSTORE PUSH1 0x20 SWAP1 RETURN JUMPDEST POP CALLVALUE PUSH2 0x230 JUMPI DUP1 PUSH1 0x3 NOT CALLDATASIZE ADD SLT PUSH2 0x230 JUMPI PUSH1 0x20 PUSH1 0x40 MLOAD PUSH1 0x1 PUSH1 0x1 PUSH1 0x40 SHL SUB PUSH32 0x0 AND DUP2 MSTORE RETURN JUMPDEST POP CALLVALUE PUSH2 0x230 JUMPI PUSH1 0x3 NOT PUSH1 0x20 CALLDATASIZE DUP3 ADD SLT PUSH2 0x124D JUMPI PUSH1 0x4 CALLDATALOAD PUSH1 0x1 PUSH1 0x1 PUSH1 0x40 SHL SUB SWAP2 DUP3 DUP3 GT PUSH2 0x1249 JUMPI PUSH1 0xA0 SWAP1 DUP3 CALLDATASIZE SUB ADD SLT PUSH2 0x18B4 JUMPI PUSH32 0x0 PUSH1 0x1 PUSH1 0x1 PUSH1 0xA0 SHL SUB AND CALLER SUB PUSH2 0x2124 JUMPI PUSH1 0x40 MLOAD PUSH2 0x1459 DUP2 PUSH2 0x264E JUMP JUMPDEST DUP2 PUSH1 0x4 ADD CALLDATALOAD DUP2 MSTORE PUSH1 0x24 DUP3 ADD CALLDATALOAD DUP4 DUP2 AND DUP2 SUB PUSH2 0x460 JUMPI PUSH1 0x20 DUP3 ADD MSTORE PUSH1 0x44 DUP3 ADD CALLDATALOAD DUP4 DUP2 GT PUSH2 0x460 JUMPI PUSH2 0x148F SWAP1 PUSH1 0x4 CALLDATASIZE SWAP2 DUP6 ADD ADD PUSH2 0x26EE JUMP JUMPDEST SWAP1 PUSH1 0x40 DUP2 ADD SWAP2 DUP3 MSTORE PUSH1 0x64 DUP4 ADD CALLDATALOAD DUP5 DUP2 GT PUSH2 0x2120 JUMPI PUSH2 0x14B3 SWAP1 PUSH1 0x4 CALLDATASIZE SWAP2 DUP7 ADD ADD PUSH2 0x26EE JUMP JUMPDEST SWAP3 PUSH1 0x60 DUP3 ADD SWAP4 DUP5 MSTORE PUSH1 0x84 DUP2 ADD CALLDATALOAD SWAP1 DUP6 DUP3 GT PUSH2 0xA3B JUMPI ADD SWAP1 CALLDATASIZE PUSH1 0x23 DUP4 ADD SLT ISZERO PUSH2 0x2120 JUMPI PUSH1 0x4 DUP3 ADD CALLDATALOAD PUSH2 0x14E3 DUP2 PUSH2 0x27D6 JUMP JUMPDEST SWAP3 PUSH2 0x14F1 PUSH1 0x40 MLOAD SWAP5 DUP6 PUSH2 0x26CD JUMP JUMPDEST DUP2 DUP5 MSTORE PUSH1 0x24 PUSH1 0x20 DUP6 ADD SWAP3 PUSH1 0x6 SHL DUP3 ADD ADD SWAP1 CALLDATASIZE DUP3 GT PUSH2 0x1245 JUMPI PUSH1 0x24 ADD SWAP2 JUMPDEST DUP2 DUP4 LT PUSH2 0x20E8 JUMPI POP POP POP PUSH1 0x80 ADD MSTORE MLOAD PUSH1 0x20 DUP2 DUP1 MLOAD DUP2 ADD SUB SLT PUSH2 0x1249 JUMPI PUSH2 0x1552 SWAP1 PUSH2 0x154D SWAP1 PUSH1 0x1 PUSH1 0x1 PUSH1 0xA0 SHL SUB SWAP1 PUSH2 0x1547 SWAP1 PUSH1 0x20 ADD PUSH2 0x37CD JUMP JUMPDEST AND PUSH2 0x359D JUMP JUMPDEST PUSH2 0x28B5 JUMP JUMPDEST DUP1 MLOAD PUSH1 0x20 DUP2 DUP1 MLOAD DUP2 ADD SUB SLT PUSH2 0x1249 JUMPI PUSH2 0x156F PUSH1 0x20 PUSH1 0xFF SWAP3 ADD PUSH2 0x37E1 JUMP JUMPDEST AND DUP1 PUSH2 0x17C8 JUMPI POP SWAP1 POP MLOAD PUSH1 0x60 DUP2 DUP1 MLOAD DUP2 ADD SUB SLT PUSH2 0x124D JUMPI PUSH2 0x1592 PUSH1 0x20 DUP3 ADD PUSH2 0x37E1 JUMP JUMPDEST POP PUSH1 0x60 PUSH2 0x15A1 PUSH1 0x40 DUP4 ADD PUSH2 0x37CD JUMP JUMPDEST SWAP2 ADD MLOAD SWAP1 PUSH1 0x1 PUSH1 0x1 PUSH1 0xA0 SHL SUB AND PUSH2 0x15D7 PUSH32 0x0 PUSH2 0x3826 JUMP JUMPDEST PUSH1 0x40 MLOAD PUSH4 0x70A08231 PUSH1 0xE0 SHL DUP2 MSTORE ADDRESS PUSH1 0x4 DUP3 ADD MSTORE PUSH32 0x0 PUSH1 0x1 PUSH1 0x1 PUSH1 0xA0 SHL SUB AND SWAP2 SWAP1 PUSH1 0x20 DUP2 PUSH1 0x24 DUP2 DUP7 GAS STATICCALL SWAP1 DUP2 ISZERO PUSH2 0xB2E JUMPI DUP7 SWAP2 PUSH2 0x1796 JUMPI JUMPDEST POP PUSH8 0xDE0B6B3A7640000 SWAP1 DUP2 DUP7 MUL DUP7 DUP2 DIV DUP4 EQ DUP8 ISZERO OR ISZERO PUSH2 0x1782 JUMPI SWAP1 PUSH2 0x1652 SWAP2 PUSH2 0x283A JUMP JUMPDEST PUSH2 0x1663 DUP7 PUSH2 0xDDB PUSH1 0x7 SLOAD DUP1 SWAP5 PUSH2 0x2863 JUMP JUMPDEST PUSH1 0x7 SSTORE PUSH1 0x3 SLOAD PUSH1 0xFF AND PUSH2 0x168A JUMPI POP POP POP POP DUP3 MSTORE PUSH1 0x8 PUSH1 0x20 MSTORE PUSH2 0xE0A PUSH1 0x40 DUP4 KECCAK256 SWAP2 DUP3 SLOAD PUSH2 0x28A8 JUMP JUMPDEST PUSH1 0x40 MLOAD PUSH4 0x95EA7B3 PUSH1 0xE0 SHL DUP2 MSTORE PUSH1 0x1 PUSH1 0x1 PUSH1 0xA0 SHL SUB DUP5 AND PUSH1 0x4 DUP3 ADD MSTORE SWAP2 SWAP1 DIV PUSH1 0x24 DUP3 ADD DUP2 SWAP1 MSTORE SWAP1 SWAP5 POP SWAP3 SWAP2 PUSH1 0x20 SWAP1 DUP6 SWAP1 PUSH1 0x44 SWAP1 DUP3 SWAP1 DUP10 SWAP1 GAS CALL SWAP3 DUP4 ISZERO PUSH2 0x4E8 JUMPI PUSH2 0x1735 SWAP5 PUSH1 0x20 SWAP5 PUSH2 0x1765 JUMPI JUMPDEST POP PUSH1 0x40 MLOAD PUSH4 0x1A4CA37B PUSH1 0xE2 SHL DUP2 MSTORE PUSH1 0x1 PUSH1 0x1 PUSH1 0xA0 SHL SUB PUSH32 0x0 DUP2 AND PUSH1 0x4 DUP4 ADD MSTORE PUSH1 0x24 DUP3 ADD SWAP3 SWAP1 SWAP3 MSTORE SWAP3 AND PUSH1 0x44 DUP4 ADD MSTORE SWAP1 SWAP3 DUP4 SWAP2 SWAP1 DUP3 SWAP1 DUP7 SWAP1 DUP3 SWAP1 PUSH1 0x64 DUP3 ADD SWAP1 JUMP JUMPDEST SUB SWAP3 PUSH1 0x1 PUSH1 0x1 PUSH1 0xA0 SHL SUB AND GAS CALL DUP1 ISZERO PUSH2 0x455 JUMPI PUSH2 0x1750 JUMPI POP DUP1 RETURN JUMPDEST PUSH1 0x20 SWAP1 DUP2 RETURNDATASIZE DUP4 GT PUSH2 0xEED JUMPI PUSH2 0xEE2 DUP2 DUP4 PUSH2 0x26CD JUMP JUMPDEST PUSH2 0x177B SWAP1 DUP6 RETURNDATASIZE DUP8 GT PUSH2 0xA66 JUMPI PUSH2 0xA56 DUP2 DUP4 PUSH2 0x26CD JUMP JUMPDEST POP CODESIZE PUSH2 0x16D6 JUMP JUMPDEST PUSH4 0x4E487B71 PUSH1 0xE0 SHL DUP9 MSTORE PUSH1 0x11 PUSH1 0x4 MSTORE PUSH1 0x24 DUP9 REVERT JUMPDEST SWAP1 POP PUSH1 0x20 DUP2 RETURNDATASIZE PUSH1 0x20 GT PUSH2 0x17C0 JUMPI JUMPDEST DUP2 PUSH2 0x17B1 PUSH1 0x20 SWAP4 DUP4 PUSH2 0x26CD JUMP JUMPDEST DUP2 ADD SUB SLT PUSH2 0x4DB JUMPI MLOAD CODESIZE PUSH2 0x162D JUMP JUMPDEST RETURNDATASIZE SWAP2 POP PUSH2 0x17A4 JUMP JUMPDEST PUSH1 0x1 DUP2 SUB PUSH2 0x18B8 JUMPI POP MLOAD SWAP1 PUSH1 0x60 DUP3 DUP1 MLOAD DUP2 ADD SUB SLT PUSH2 0x18B4 JUMPI PUSH2 0x17EC PUSH1 0x20 DUP4 ADD PUSH2 0x37E1 JUMP JUMPDEST POP PUSH1 0x40 DUP3 ADD MLOAD SWAP1 DUP2 AND DUP2 SUB PUSH2 0x18B4 JUMPI PUSH2 0x496 SWAP2 PUSH1 0x1 PUSH1 0x1 PUSH1 0xA0 SHL SUB SWAP1 PUSH2 0x1814 SWAP1 PUSH1 0x60 ADD PUSH2 0x37CD JUMP JUMPDEST AND SWAP1 PUSH32 0x0 SWAP1 PUSH2 0x1883 DUP3 PUSH32 0x0 PUSH32 0x0 PUSH2 0x387F JUMP JUMPDEST SWAP3 PUSH1 0x7 SLOAD SWAP2 PUSH1 0x40 MLOAD SWAP3 PUSH1 0x2 PUSH1 0x20 DUP6 ADD MSTORE PUSH1 0x40 DUP5 ADD MSTORE PUSH1 0x40 DUP4 MSTORE PUSH2 0x18A5 DUP4 PUSH2 0x26B2 JUMP JUMPDEST PUSH1 0xFF NOT PUSH1 0x3 SLOAD AND PUSH1 0x3 SSTORE PUSH2 0x2901 JUMP JUMPDEST DUP3 DUP1 REVERT JUMPDEST PUSH1 0x2 SUB PUSH2 0x20B1 JUMPI MLOAD PUSH1 0x40 DUP2 DUP1 MLOAD DUP2 ADD SUB SLT PUSH2 0x18B4 JUMPI DUP1 PUSH2 0x18DC PUSH1 0x20 PUSH1 0x40 SWAP4 ADD PUSH2 0x37E1 JUMP JUMPDEST POP ADD MLOAD PUSH1 0x7 SSTORE PUSH1 0x1 PUSH1 0xFF NOT PUSH1 0x3 SLOAD AND OR PUSH1 0x3 SSTORE PUSH1 0x40 MLOAD SWAP1 PUSH1 0x1 PUSH1 0x20 DUP4 ADD MSTORE PUSH1 0x20 DUP3 MSTORE PUSH2 0x1907 DUP3 PUSH2 0x2669 JUMP JUMPDEST DUP1 PUSH32 0x0 AND SWAP1 PUSH32 0x0 AND EQ PUSH1 0x0 EQ PUSH2 0x1A06 JUMPI POP PUSH2 0x19A0 PUSH32 0x0 PUSH32 0x0 PUSH2 0x39FA JUMP JUMPDEST DUP1 PUSH32 0x0 PUSH1 0x1 PUSH1 0x1 PUSH1 0xA0 SHL SUB AND DUP1 EXTCODESIZE ISZERO PUSH2 0x1A03 JUMPI DUP2 SWAP1 PUSH1 0x4 PUSH1 0x40 MLOAD DUP1 SWAP5 DUP2 SWAP4 PUSH4 0x4CAB8A57 PUSH1 0xE1 SHL DUP4 MSTORE GAS CALL DUP1 ISZERO PUSH2 0x455 JUMPI PUSH2 0x19F7 JUMPI POP DUP1 RETURN JUMPDEST PUSH2 0x1A00 SWAP1 PUSH2 0x2684 JUMP JUMPDEST DUP1 RETURN JUMPDEST POP REVERT JUMPDEST PUSH32 0x0 SWAP1 DUP3 SWAP1 PUSH2 0x1A36 PUSH2 0x154D DUP5 PUSH2 0x359D JUMP JUMPDEST PUSH1 0x60 PUSH1 0x80 PUSH1 0x40 MLOAD PUSH2 0x1A46 DUP2 PUSH2 0x264E JUMP JUMPDEST DUP3 DUP2 MSTORE DUP3 PUSH1 0x20 DUP3 ADD MSTORE DUP3 PUSH1 0x40 DUP3 ADD MSTORE DUP7 DUP4 DUP3 ADD MSTORE ADD MSTORE PUSH1 0x40 MLOAD PUSH2 0x1A68 DUP2 PUSH2 0x2633 JUMP JUMPDEST DUP5 DUP2 MSTORE PUSH1 0x40 MLOAD SWAP4 PUSH1 0x1 DUP1 PUSH1 0xA0 SHL SUB AND PUSH1 0x20 DUP6 ADD MSTORE PUSH1 0x20 DUP5 MSTORE PUSH2 0x1A89 DUP5 PUSH2 0x2669 JUMP JUMPDEST PUSH2 0x1AA3 PUSH1 0x40 MLOAD PUSH2 0x1A98 DUP2 PUSH2 0x2633 JUMP JUMPDEST PUSH3 0x1E8480 DUP2 MSTORE PUSH2 0x37EF JUMP JUMPDEST SWAP2 PUSH1 0x40 MLOAD SWAP5 PUSH2 0x1AB1 DUP7 PUSH2 0x264E JUMP JUMPDEST DUP6 MSTORE PUSH1 0x20 DUP6 ADD MSTORE PUSH1 0x40 DUP5 ADD MSTORE DUP4 PUSH1 0x60 DUP5 ADD MSTORE PUSH1 0x80 DUP4 ADD MSTORE PUSH1 0x40 MLOAD PUSH4 0xB0F479A1 PUSH1 0xE0 SHL DUP2 MSTORE PUSH1 0x20 DUP2 PUSH1 0x4 DUP2 ADDRESS GAS STATICCALL SWAP1 DUP2 ISZERO PUSH2 0x530 JUMPI DUP5 SWAP2 PUSH2 0x2082 JUMPI JUMPDEST POP PUSH1 0x40 MLOAD PUSH4 0x20487DED PUSH1 0xE0 SHL DUP2 MSTORE SWAP1 PUSH1 0x20 DUP3 DUP1 PUSH2 0x1B2D DUP8 PUSH32 0x0 PUSH1 0x4 DUP5 ADD PUSH2 0x34D4 JUMP JUMPDEST SUB DUP2 PUSH1 0x1 PUSH1 0x1 PUSH1 0xA0 SHL SUB DUP6 AND GAS STATICCALL SWAP2 DUP3 ISZERO PUSH2 0x4E8 JUMPI DUP6 SWAP3 PUSH2 0x204E JUMPI JUMPDEST POP PUSH1 0x40 MLOAD PUSH4 0x70A08231 PUSH1 0xE0 SHL DUP2 MSTORE ADDRESS PUSH1 0x4 DUP3 ADD MSTORE PUSH32 0x0 SWAP1 PUSH1 0x20 DUP2 PUSH1 0x24 DUP2 PUSH1 0x1 PUSH1 0x1 PUSH1 0xA0 SHL SUB DUP7 AND GAS STATICCALL SWAP1 DUP2 ISZERO PUSH2 0x1F42 JUMPI DUP8 SWAP2 PUSH2 0x201C JUMPI JUMPDEST POP PUSH2 0x1FC9 JUMPI JUMPDEST POP PUSH1 0x40 MLOAD PUSH4 0x70A08231 PUSH1 0xE0 SHL DUP2 MSTORE ADDRESS PUSH1 0x4 DUP3 ADD MSTORE PUSH32 0x0 SWAP5 SWAP1 DUP7 SWAP1 PUSH1 0x20 DUP2 PUSH1 0x24 DUP2 PUSH1 0x1 PUSH1 0x1 PUSH1 0xA0 SHL SUB DUP12 AND GAS STATICCALL SWAP1 DUP2 ISZERO PUSH2 0x455 JUMPI DUP3 SWAP2 PUSH2 0x1F97 JUMPI JUMPDEST POP PUSH1 0x6 SLOAD PUSH1 0x40 MLOAD PUSH4 0x95EA7B3 PUSH1 0xE0 SHL DUP2 MSTORE PUSH1 0x1 PUSH1 0x1 PUSH1 0xA0 SHL SUB SWAP1 SWAP2 AND PUSH1 0x4 DUP3 ADD MSTORE PUSH1 0x24 DUP2 ADD DUP3 SWAP1 MSTORE PUSH1 0x20 DUP2 DUP1 PUSH1 0x44 DUP2 ADD SUB DUP2 DUP7 PUSH1 0x1 PUSH1 0x1 PUSH1 0xA0 SHL SUB DUP14 AND GAS CALL DUP1 ISZERO PUSH2 0xEF4 JUMPI PUSH2 0x1F78 JUMPI JUMPDEST POP PUSH1 0x40 MLOAD SWAP1 PUSH2 0x1C56 DUP3 PUSH2 0x2697 JUMP JUMPDEST PUSH1 0x1 PUSH1 0x1 PUSH1 0xA0 SHL SUB DUP9 DUP2 AND DUP4 MSTORE PUSH32 0x0 DUP2 AND PUSH1 0x20 DUP1 DUP6 ADD DUP3 DUP2 MSTORE PUSH32 0x0 PUSH2 0xFFFF AND PUSH1 0x40 DUP1 DUP9 ADD SWAP2 DUP3 MSTORE ADDRESS PUSH1 0x60 DUP10 ADD SWAP1 DUP2 MSTORE PUSH1 0x80 DUP10 ADD DUP14 DUP2 MSTORE PUSH1 0xA0 DUP11 ADD SWAP9 DUP10 MSTORE PUSH1 0xC0 DUP11 ADD DUP12 DUP2 MSTORE PUSH1 0x6 SLOAD SWAP4 MLOAD PUSH4 0x5023B4DF PUSH1 0xE0 SHL DUP2 MSTORE SWAP11 MLOAD DUP10 AND PUSH1 0x4 DUP13 ADD MSTORE SWAP5 MLOAD DUP9 AND PUSH1 0x24 DUP12 ADD MSTORE SWAP3 MLOAD PUSH3 0xFFFFFF AND PUSH1 0x44 DUP11 ADD MSTORE MLOAD DUP7 AND PUSH1 0x64 DUP10 ADD MSTORE SWAP1 MLOAD PUSH1 0x84 DUP9 ADD MSTORE SWAP5 MLOAD PUSH1 0xA4 DUP8 ADD MSTORE MLOAD DUP4 AND PUSH1 0xC4 DUP7 ADD MSTORE SWAP1 SWAP4 SWAP3 SWAP1 SWAP2 DUP4 SWAP2 PUSH1 0xE4 SWAP2 DUP4 SWAP2 DUP9 SWAP2 AND GAS CALL DUP1 ISZERO PUSH2 0xEF4 JUMPI PUSH2 0x1F4D JUMPI JUMPDEST POP DUP1 EXTCODESIZE ISZERO PUSH2 0x124D JUMPI DUP2 SWAP1 PUSH1 0x24 PUSH1 0x40 MLOAD DUP1 SWAP5 DUP2 SWAP4 PUSH4 0x2E1A7D4D PUSH1 0xE0 SHL DUP4 MSTORE DUP10 PUSH1 0x4 DUP5 ADD MSTORE GAS CALL DUP1 ISZERO PUSH2 0x1F42 JUMPI PUSH2 0x1F2F JUMPI JUMPDEST POP SELFBALANCE DUP4 GT PUSH2 0x1F10 JUMPI DUP4 PUSH2 0x1EA8 JUMPI JUMPDEST PUSH1 0x20 SWAP2 PUSH2 0x1DC1 SWAP2 PUSH1 0x40 MLOAD SWAP5 DUP6 DUP1 SWAP5 DUP2 SWAP4 PUSH4 0x96F4E9F9 PUSH1 0xE0 SHL DUP4 MSTORE PUSH32 0x0 PUSH1 0x4 DUP5 ADD PUSH2 0x34D4 JUMP JUMPDEST SUB SWAP3 PUSH1 0x1 PUSH1 0x1 PUSH1 0xA0 SHL SUB AND GAS CALL DUP1 ISZERO PUSH2 0x455 JUMPI PUSH2 0x1E7D JUMPI JUMPDEST POP PUSH1 0x40 MLOAD PUSH4 0x70A08231 PUSH1 0xE0 SHL DUP2 MSTORE ADDRESS PUSH1 0x4 DUP3 ADD MSTORE PUSH1 0x20 DUP2 PUSH1 0x24 DUP2 PUSH1 0x1 PUSH1 0x1 PUSH1 0xA0 SHL SUB DUP8 AND GAS STATICCALL SWAP2 DUP3 ISZERO PUSH2 0x1E71 JUMPI SWAP2 PUSH2 0x1E3F JUMPI JUMPDEST POP PUSH2 0x1E15 JUMPI POP DUP1 RETURN JUMPDEST PUSH2 0x1A00 SWAP1 PUSH32 0x0 PUSH2 0x39FA JUMP JUMPDEST SWAP1 POP PUSH1 0x20 DUP2 RETURNDATASIZE PUSH1 0x20 GT PUSH2 0x1E69 JUMPI JUMPDEST DUP2 PUSH2 0x1E5A PUSH1 0x20 SWAP4 DUP4 PUSH2 0x26CD JUMP JUMPDEST DUP2 ADD SUB SLT PUSH2 0x18B4 JUMPI MLOAD CODESIZE PUSH2 0x1E0C JUMP JUMPDEST RETURNDATASIZE SWAP2 POP PUSH2 0x1E4D JUMP JUMPDEST PUSH1 0x40 MLOAD SWAP1 RETURNDATASIZE SWAP1 DUP3 RETURNDATACOPY RETURNDATASIZE SWAP1 REVERT JUMPDEST PUSH1 0x20 SWAP1 DUP2 RETURNDATASIZE DUP4 GT PUSH2 0x1EA1 JUMPI JUMPDEST PUSH2 0x1E93 DUP2 DUP4 PUSH2 0x26CD JUMP JUMPDEST DUP2 ADD SUB SLT PUSH2 0x18B4 JUMPI CODESIZE PUSH2 0x1DD9 JUMP JUMPDEST POP RETURNDATASIZE PUSH2 0x1E89 JUMP JUMPDEST PUSH1 0x40 MLOAD PUSH4 0x95EA7B3 PUSH1 0xE0 SHL DUP2 MSTORE PUSH1 0x1 PUSH1 0x1 PUSH1 0xA0 SHL SUB DUP4 AND PUSH1 0x4 DUP3 ADD MSTORE PUSH1 0x24 DUP2 ADD DUP8 SWAP1 MSTORE PUSH1 0x20 DUP2 PUSH1 0x44 DUP2 DUP9 DUP1 GAS CALL DUP1 ISZERO PUSH2 0x4E8 JUMPI SWAP2 PUSH1 0x20 SWAP4 SWAP2 PUSH2 0x1DC1 SWAP4 PUSH2 0x1EF3 JUMPI JUMPDEST POP SWAP2 POP SWAP2 POP PUSH2 0x1D7D JUMP JUMPDEST PUSH2 0x1F09 SWAP1 DUP6 RETURNDATASIZE DUP8 GT PUSH2 0xA66 JUMPI PUSH2 0xA56 DUP2 DUP4 PUSH2 0x26CD JUMP JUMPDEST POP CODESIZE PUSH2 0x1EE9 JUMP JUMPDEST PUSH1 0x40 MLOAD PUSH4 0x4787A103 PUSH1 0xE1 SHL DUP2 MSTORE SELFBALANCE PUSH1 0x4 DUP3 ADD MSTORE PUSH1 0x24 DUP2 ADD DUP5 SWAP1 MSTORE PUSH1 0x44 SWAP1 REVERT JUMPDEST PUSH2 0x1F3A SWAP2 SWAP5 POP PUSH2 0x2684 JUMP JUMPDEST DUP5 SWAP3 CODESIZE PUSH2 0x1D6F JUMP JUMPDEST PUSH1 0x40 MLOAD RETURNDATASIZE DUP10 DUP3 RETURNDATACOPY RETURNDATASIZE SWAP1 REVERT JUMPDEST PUSH1 0x20 SWAP1 DUP2 RETURNDATASIZE DUP4 GT PUSH2 0x1F71 JUMPI JUMPDEST PUSH2 0x1F63 DUP2 DUP4 PUSH2 0x26CD JUMP JUMPDEST DUP2 ADD SUB SLT PUSH2 0x124D JUMPI CODESIZE PUSH2 0x1D3F JUMP JUMPDEST POP RETURNDATASIZE PUSH2 0x1F59 JUMP JUMPDEST PUSH2 0x1F90 SWAP1 PUSH1 0x20 RETURNDATASIZE PUSH1 0x20 GT PUSH2 0xA66 JUMPI PUSH2 0xA56 DUP2 DUP4 PUSH2 0x26CD JUMP JUMPDEST POP CODESIZE PUSH2 0x1C48 JUMP JUMPDEST SWAP1 POP PUSH1 0x20 DUP2 RETURNDATASIZE PUSH1 0x20 GT PUSH2 0x1FC1 JUMPI JUMPDEST DUP2 PUSH2 0x1FB2 PUSH1 0x20 SWAP4 DUP4 PUSH2 0x26CD JUMP JUMPDEST DUP2 ADD SUB SLT PUSH2 0x124D JUMPI MLOAD CODESIZE PUSH2 0x1BFE JUMP JUMPDEST RETURNDATASIZE SWAP2 POP PUSH2 0x1FA5 JUMP JUMPDEST PUSH2 0x2015 SWAP1 PUSH32 0x0 SWAP1 PUSH32 0x0 PUSH2 0x387F JUMP JUMPDEST POP CODESIZE PUSH2 0x1BA5 JUMP JUMPDEST SWAP1 POP PUSH1 0x20 DUP2 RETURNDATASIZE PUSH1 0x20 GT PUSH2 0x2046 JUMPI JUMPDEST DUP2 PUSH2 0x2037 PUSH1 0x20 SWAP4 DUP4 PUSH2 0x26CD JUMP JUMPDEST DUP2 ADD SUB SLT PUSH2 0xA3B JUMPI MLOAD CODESIZE PUSH2 0x1B9F JUMP JUMPDEST RETURNDATASIZE SWAP2 POP PUSH2 0x202A JUMP JUMPDEST SWAP1 SWAP2 POP PUSH1 0x20 DUP2 RETURNDATASIZE PUSH1 0x20 GT PUSH2 0x207A JUMPI JUMPDEST DUP2 PUSH2 0x206A PUSH1 0x20 SWAP4 DUP4 PUSH2 0x26CD JUMP JUMPDEST DUP2 ADD SUB SLT PUSH2 0x460 JUMPI MLOAD SWAP1 CODESIZE PUSH2 0x1B49 JUMP JUMPDEST RETURNDATASIZE SWAP2 POP PUSH2 0x205D JUMP JUMPDEST PUSH2 0x20A4 SWAP2 POP PUSH1 0x20 RETURNDATASIZE PUSH1 0x20 GT PUSH2 0x20AA JUMPI JUMPDEST PUSH2 0x209C DUP2 DUP4 PUSH2 0x26CD JUMP JUMPDEST DUP2 ADD SWAP1 PUSH2 0x3475 JUMP JUMPDEST CODESIZE PUSH2 0x1AEC JUMP JUMPDEST POP RETURNDATASIZE PUSH2 0x2092 JUMP JUMPDEST PUSH1 0x40 MLOAD PUSH3 0x461BCD PUSH1 0xE5 SHL DUP2 MSTORE PUSH1 0x20 PUSH1 0x4 DUP3 ADD MSTORE PUSH1 0xF PUSH1 0x24 DUP3 ADD MSTORE PUSH15 0x1A5B9D985B1A590818DBDB5B585B99 PUSH1 0x8A SHL PUSH1 0x44 DUP3 ADD MSTORE PUSH1 0x64 SWAP1 REVERT JUMPDEST PUSH1 0x40 DUP4 CALLDATASIZE SUB SLT PUSH2 0x1245 JUMPI PUSH1 0x20 PUSH1 0x40 SWAP2 DUP3 MLOAD PUSH2 0x2102 DUP2 PUSH2 0x2669 JUMP JUMPDEST PUSH2 0x210B DUP7 PUSH2 0x2609 JUMP JUMPDEST DUP2 MSTORE DUP3 DUP7 ADD CALLDATALOAD DUP4 DUP3 ADD MSTORE DUP2 MSTORE ADD SWAP3 ADD SWAP2 PUSH2 0x150E JUMP JUMPDEST DUP6 DUP1 REVERT JUMPDEST PUSH1 0x40 MLOAD PUSH4 0x35FDCCCD PUSH1 0xE2 SHL DUP2 MSTORE CALLER PUSH1 0x4 DUP3 ADD MSTORE PUSH1 0x24 SWAP1 REVERT JUMPDEST POP CALLVALUE PUSH2 0x230 JUMPI DUP1 PUSH1 0x3 NOT CALLDATASIZE ADD SLT PUSH2 0x230 JUMPI PUSH1 0x1 SLOAD PUSH1 0x1 PUSH1 0x1 PUSH1 0xA0 SHL SUB DUP1 DUP3 AND CALLER SUB PUSH2 0x21A2 JUMPI DUP3 SLOAD PUSH1 0x1 PUSH1 0x1 PUSH1 0xA0 SHL SUB NOT DUP1 DUP3 AND CALLER SWAP1 DUP2 OR DUP7 SSTORE SWAP4 AND PUSH1 0x1 SSTORE AND PUSH32 0x8BE0079C531659141344CD1FD0A4F28419497F9722A3DAAFE3B4186F6B6457E0 DUP4 DUP1 LOG3 DUP1 RETURN JUMPDEST PUSH1 0x40 MLOAD PUSH3 0x461BCD PUSH1 0xE5 SHL DUP2 MSTORE PUSH1 0x20 PUSH1 0x4 DUP3 ADD MSTORE PUSH1 0x16 PUSH1 0x24 DUP3 ADD MSTORE PUSH22 0x26BAB9BA10313290383937B837B9B2B21037BBB732B9 PUSH1 0x51 SHL PUSH1 0x44 DUP3 ADD MSTORE PUSH1 0x64 SWAP1 REVERT JUMPDEST POP CALLVALUE PUSH2 0x230 JUMPI DUP1 PUSH1 0x3 NOT CALLDATASIZE ADD SLT PUSH2 0x230 JUMPI PUSH1 0x20 PUSH1 0x40 MLOAD PUSH1 0x1 PUSH1 0x1 PUSH1 0x40 SHL SUB PUSH32 0x0 AND DUP2 MSTORE RETURN JUMPDEST POP CALLVALUE PUSH2 0x230 JUMPI DUP1 PUSH1 0x3 NOT CALLDATASIZE ADD SLT PUSH2 0x230 JUMPI PUSH1 0x40 MLOAD PUSH32 0x0 PUSH1 0x1 PUSH1 0x1 PUSH1 0xA0 SHL SUB AND DUP2 MSTORE PUSH1 0x20 SWAP1 RETURN JUMPDEST POP CALLVALUE PUSH2 0x230 JUMPI PUSH1 0xA0 CALLDATASIZE PUSH1 0x3 NOT ADD SLT PUSH2 0x230 JUMPI PUSH2 0x2283 PUSH2 0x261D JUMP JUMPDEST SWAP1 PUSH2 0x228C PUSH2 0x25F3 JUMP JUMPDEST PUSH1 0x1 PUSH1 0x1 PUSH1 0xA0 SHL SUB SWAP2 SWAP1 PUSH1 0x44 CALLDATALOAD DUP4 DUP2 AND SWAP1 DUP2 SWAP1 SUB PUSH2 0x18B4 JUMPI PUSH1 0x64 CALLDATALOAD DUP5 DUP2 AND DUP1 SWAP2 SUB PUSH2 0x1249 JUMPI PUSH1 0x84 CALLDATALOAD SWAP6 PUSH1 0x1 PUSH1 0x1 PUSH1 0x40 SHL SUB DUP8 GT PUSH2 0x460 JUMPI PUSH2 0x22D6 PUSH2 0x2358 SWAP6 SWAP7 SWAP8 CALLDATASIZE SWAP1 PUSH1 0x4 ADD PUSH2 0x26EE JUMP JUMPDEST PUSH1 0x40 MLOAD SWAP4 PUSH1 0x20 SWAP9 DUP10 SWAP7 AND DUP7 DUP7 ADD MSTORE DUP6 DUP6 MSTORE PUSH2 0x22F0 DUP6 PUSH2 0x2669 JUMP JUMPDEST PUSH1 0x40 MLOAD PUSH2 0x22FC DUP2 PUSH2 0x2633 JUMP JUMPDEST DUP9 DUP2 MSTORE PUSH2 0x2319 PUSH1 0x40 MLOAD PUSH2 0x230E DUP2 PUSH2 0x2633 JUMP JUMPDEST PUSH3 0xF4240 DUP2 MSTORE PUSH2 0x37EF JUMP JUMPDEST SWAP3 PUSH1 0x40 MLOAD SWAP7 PUSH2 0x2327 DUP9 PUSH2 0x264E JUMP JUMPDEST DUP8 MSTORE DUP8 DUP8 ADD MSTORE PUSH1 0x40 DUP7 ADD MSTORE PUSH1 0x60 DUP6 ADD MSTORE PUSH1 0x80 DUP5 ADD MSTORE PUSH1 0x40 MLOAD DUP1 SWAP6 DUP2 SWAP5 DUP3 SWAP4 PUSH4 0x20487DED PUSH1 0xE0 SHL DUP5 MSTORE PUSH1 0x4 DUP5 ADD PUSH2 0x34D4 JUMP JUMPDEST SUB SWAP2 GAS STATICCALL SWAP2 DUP3 ISZERO PUSH2 0x1E71 JUMPI DUP1 SWAP3 PUSH2 0x2374 JUMPI JUMPDEST POP POP PUSH1 0x40 MLOAD SWAP1 DUP2 MSTORE RETURN JUMPDEST SWAP1 SWAP2 POP DUP3 DUP3 DUP2 RETURNDATASIZE DUP4 GT PUSH2 0x239D JUMPI JUMPDEST PUSH2 0x238C DUP2 DUP4 PUSH2 0x26CD JUMP JUMPDEST DUP2 ADD SUB SLT PUSH2 0x230 JUMPI POP MLOAD CODESIZE DUP1 PUSH2 0x236A JUMP JUMPDEST POP RETURNDATASIZE PUSH2 0x2382 JUMP JUMPDEST POP CALLVALUE PUSH2 0x230 JUMPI DUP1 PUSH1 0x3 NOT CALLDATASIZE ADD SLT PUSH2 0x230 JUMPI PUSH1 0x20 PUSH1 0x7 SLOAD PUSH1 0x40 MLOAD SWAP1 DUP2 MSTORE RETURN JUMPDEST POP CALLVALUE PUSH2 0x230 JUMPI DUP1 PUSH1 0x3 NOT CALLDATASIZE ADD SLT PUSH2 0x230 JUMPI PUSH1 0x20 PUSH1 0x2 SLOAD PUSH1 0x40 MLOAD SWAP1 DUP2 MSTORE RETURN JUMPDEST POP CALLVALUE PUSH2 0x230 JUMPI DUP1 PUSH1 0x3 NOT CALLDATASIZE ADD SLT PUSH2 0x230 JUMPI PUSH1 0x40 MLOAD PUSH32 0x0 PUSH1 0x1 PUSH1 0x1 PUSH1 0xA0 SHL SUB AND DUP2 MSTORE PUSH1 0x20 SWAP1 RETURN JUMPDEST POP CALLVALUE PUSH2 0x230 JUMPI DUP1 PUSH1 0x3 NOT CALLDATASIZE ADD SLT PUSH2 0x230 JUMPI PUSH1 0x20 PUSH1 0xFF PUSH1 0x3 SLOAD AND PUSH1 0x40 MLOAD SWAP1 ISZERO ISZERO DUP2 MSTORE RETURN JUMPDEST POP CALLVALUE PUSH2 0x230 JUMPI PUSH1 0x40 CALLDATASIZE PUSH1 0x3 NOT ADD SLT PUSH2 0x230 JUMPI PUSH2 0x2462 PUSH2 0x25DD JUMP JUMPDEST PUSH2 0x246A PUSH2 0x25F3 JUMP JUMPDEST PUSH1 0x40 MLOAD PUSH4 0x35EA6A75 PUSH1 0xE0 SHL DUP2 MSTORE PUSH1 0x1 PUSH1 0x1 PUSH1 0xA0 SHL SUB SWAP2 DUP3 AND PUSH1 0x4 DUP3 ADD MSTORE PUSH2 0x180 SWAP3 SWAP1 SWAP2 DUP4 SWAP2 DUP4 SWAP2 PUSH1 0x24 SWAP2 DUP4 SWAP2 AND GAS STATICCALL SWAP2 DUP3 ISZERO PUSH2 0xEF4 JUMPI PUSH1 0x20 SWAP4 SWAP3 PUSH2 0x24B2 JUMPI POP POP PUSH1 0x40 MLOAD SWAP1 DUP2 MSTORE RETURN JUMPDEST PUSH2 0x24C8 SWAP3 POP DUP1 RETURNDATASIZE LT PUSH2 0x529 JUMPI PUSH2 0x50E DUP2 DUP4 PUSH2 0x26CD JUMP JUMPDEST POP POP POP POP POP POP SWAP5 POP POP POP POP POP CODESIZE DUP1 PUSH2 0x236A JUMP JUMPDEST POP CALLVALUE PUSH2 0x230 JUMPI DUP1 PUSH1 0x3 NOT CALLDATASIZE ADD SLT PUSH2 0x230 JUMPI PUSH1 0x6 SLOAD PUSH1 0x40 MLOAD PUSH1 0x1 PUSH1 0x1 PUSH1 0xA0 SHL SUB SWAP1 SWAP2 AND DUP2 MSTORE PUSH1 0x20 SWAP1 RETURN JUMPDEST POP CALLVALUE PUSH2 0x230 JUMPI DUP1 PUSH1 0x3 NOT CALLDATASIZE ADD SLT PUSH2 0x230 JUMPI PUSH1 0x20 PUSH1 0x40 MLOAD PUSH2 0xFFFF PUSH32 0x0 AND DUP2 MSTORE RETURN JUMPDEST POP CALLVALUE PUSH2 0x230 JUMPI DUP1 PUSH1 0x3 NOT CALLDATASIZE ADD SLT PUSH2 0x230 JUMPI PUSH1 0x40 MLOAD PUSH32 0x0 PUSH1 0x1 PUSH1 0x1 PUSH1 0xA0 SHL SUB AND DUP2 MSTORE PUSH1 0x20 SWAP1 RETURN JUMPDEST SWAP1 POP CALLVALUE PUSH2 0x124D JUMPI PUSH1 0x20 CALLDATASIZE PUSH1 0x3 NOT ADD SLT PUSH2 0x124D JUMPI PUSH1 0x4 CALLDATALOAD PUSH4 0xFFFFFFFF PUSH1 0xE0 SHL DUP2 AND DUP1 SWAP2 SUB PUSH2 0x18B4 JUMPI PUSH1 0x20 SWAP3 POP PUSH4 0x85572FFB PUSH1 0xE0 SHL DUP2 EQ SWAP1 DUP2 ISZERO PUSH2 0x25CC JUMPI JUMPDEST POP ISZERO ISZERO DUP2 MSTORE RETURN JUMPDEST PUSH4 0x1FFC9A7 PUSH1 0xE0 SHL EQ SWAP1 POP CODESIZE PUSH2 0x25C5 JUMP JUMPDEST PUSH1 0x4 CALLDATALOAD SWAP1 PUSH1 0x1 PUSH1 0x1 PUSH1 0xA0 SHL SUB DUP3 AND DUP3 SUB PUSH2 0x4DB JUMPI JUMP JUMPDEST PUSH1 0x24 CALLDATALOAD SWAP1 PUSH1 0x1 PUSH1 0x1 PUSH1 0xA0 SHL SUB DUP3 AND DUP3 SUB PUSH2 0x4DB JUMPI JUMP JUMPDEST CALLDATALOAD SWAP1 PUSH1 0x1 PUSH1 0x1 PUSH1 0xA0 SHL SUB DUP3 AND DUP3 SUB PUSH2 0x4DB JUMPI JUMP JUMPDEST PUSH1 0x4 CALLDATALOAD SWAP1 PUSH1 0x1 PUSH1 0x1 PUSH1 0x40 SHL SUB DUP3 AND DUP3 SUB PUSH2 0x4DB JUMPI JUMP JUMPDEST PUSH1 0x20 DUP2 ADD SWAP1 DUP2 LT PUSH1 0x1 PUSH1 0x1 PUSH1 0x40 SHL SUB DUP3 GT OR PUSH2 0x49A JUMPI PUSH1 0x40 MSTORE JUMP JUMPDEST PUSH1 0xA0 DUP2 ADD SWAP1 DUP2 LT PUSH1 0x1 PUSH1 0x1 PUSH1 0x40 SHL SUB DUP3 GT OR PUSH2 0x49A JUMPI PUSH1 0x40 MSTORE JUMP JUMPDEST PUSH1 0x40 DUP2 ADD SWAP1 DUP2 LT PUSH1 0x1 PUSH1 0x1 PUSH1 0x40 SHL SUB DUP3 GT OR PUSH2 0x49A JUMPI PUSH1 0x40 MSTORE JUMP JUMPDEST PUSH1 0x1 PUSH1 0x1 PUSH1 0x40 SHL SUB DUP2 GT PUSH2 0x49A JUMPI PUSH1 0x40 MSTORE JUMP JUMPDEST PUSH1 0xE0 DUP2 ADD SWAP1 DUP2 LT PUSH1 0x1 PUSH1 0x1 PUSH1 0x40 SHL SUB DUP3 GT OR PUSH2 0x49A JUMPI PUSH1 0x40 MSTORE JUMP JUMPDEST PUSH1 0x60 DUP2 ADD SWAP1 DUP2 LT PUSH1 0x1 PUSH1 0x1 PUSH1 0x40 SHL SUB DUP3 GT OR PUSH2 0x49A JUMPI PUSH1 0x40 MSTORE JUMP JUMPDEST SWAP1 PUSH1 0x1F DUP1 NOT SWAP2 ADD AND DUP2 ADD SWAP1 DUP2 LT PUSH1 0x1 PUSH1 0x1 PUSH1 0x40 SHL SUB DUP3 GT OR PUSH2 0x49A JUMPI PUSH1 0x40 MSTORE JUMP JUMPDEST DUP2 PUSH1 0x1F DUP3 ADD SLT ISZERO PUSH2 0x4DB JUMPI DUP1 CALLDATALOAD SWAP1 PUSH1 0x1 PUSH1 0x1 PUSH1 0x40 SHL SUB DUP3 GT PUSH2 0x49A JUMPI PUSH1 0x40 MLOAD SWAP3 PUSH2 0x2722 PUSH1 0x1F DUP5 ADD PUSH1 0x1F NOT AND PUSH1 0x20 ADD DUP6 PUSH2 0x26CD JUMP JUMPDEST DUP3 DUP5 MSTORE PUSH1 0x20 DUP4 DUP4 ADD ADD GT PUSH2 0x4DB JUMPI DUP2 PUSH1 0x0 SWAP3 PUSH1 0x20 DUP1 SWAP4 ADD DUP4 DUP7 ADD CALLDATACOPY DUP4 ADD ADD MSTORE SWAP1 JUMP JUMPDEST CALLVALUE PUSH2 0x4DB JUMPI PUSH1 0x40 CALLDATASIZE PUSH1 0x3 NOT ADD SLT PUSH2 0x4DB JUMPI PUSH2 0x1B PUSH2 0x2760 PUSH2 0x261D JUMP JUMPDEST PUSH2 0x2768 PUSH2 0x25F3 JUMP JUMPDEST SWAP1 PUSH32 0x0 SWAP1 PUSH2 0x1883 DUP3 PUSH32 0x0 PUSH32 0x0 PUSH2 0x387F JUMP JUMPDEST PUSH1 0x1 PUSH1 0x1 PUSH1 0x40 SHL SUB DUP2 GT PUSH2 0x49A JUMPI PUSH1 0x5 SHL PUSH1 0x20 ADD SWAP1 JUMP JUMPDEST PUSH1 0x4 SLOAD DUP2 LT ISZERO PUSH2 0x2824 JUMPI PUSH1 0x4 PUSH1 0x0 MSTORE PUSH32 0x8A35ACFBC15FF81A39AE7D344FD709F28E8600B4AA8C65C6B64BFE7FE36BD19B ADD SWAP1 PUSH1 0x0 SWAP1 JUMP JUMPDEST PUSH4 0x4E487B71 PUSH1 0xE0 SHL PUSH1 0x0 MSTORE PUSH1 0x32 PUSH1 0x4 MSTORE PUSH1 0x24 PUSH1 0x0 REVERT JUMPDEST DUP2 DUP2 MUL SWAP3 SWAP2 DUP2 ISZERO SWAP2 DUP5 DIV EQ OR ISZERO PUSH2 0x284D JUMPI JUMP JUMPDEST PUSH4 0x4E487B71 PUSH1 0xE0 SHL PUSH1 0x0 MSTORE PUSH1 0x11 PUSH1 0x4 MSTORE PUSH1 0x24 PUSH1 0x0 REVERT JUMPDEST DUP2 ISZERO PUSH2 0x286D JUMPI DIV SWAP1 JUMP JUMPDEST PUSH4 0x4E487B71 PUSH1 0xE0 SHL PUSH1 0x0 MSTORE PUSH1 0x12 PUSH1 0x4 MSTORE PUSH1 0x24 PUSH1 0x0 REVERT JUMPDEST SWAP2 SWAP1 DUP3 SUB SWAP2 DUP3 GT PUSH2 0x284D JUMPI JUMP JUMPDEST SWAP1 DUP2 PUSH1 0x20 SWAP2 SUB SLT PUSH2 0x4DB JUMPI MLOAD DUP1 ISZERO ISZERO DUP2 SUB PUSH2 0x4DB JUMPI SWAP1 JUMP JUMPDEST SWAP2 SWAP1 DUP3 ADD DUP1 SWAP3 GT PUSH2 0x284D JUMPI JUMP JUMPDEST ISZERO PUSH2 0x28BC JUMPI JUMP JUMPDEST PUSH1 0x40 MLOAD PUSH3 0x461BCD PUSH1 0xE5 SHL DUP2 MSTORE PUSH1 0x20 PUSH1 0x4 DUP3 ADD MSTORE PUSH1 0x1D PUSH1 0x24 DUP3 ADD MSTORE PUSH32 0x43616C6C6572206973206E6F7420616E20616C6C6F776564206E6F6465000000 PUSH1 0x44 DUP3 ADD MSTORE PUSH1 0x64 SWAP1 REVERT JUMPDEST SWAP1 SWAP2 PUSH1 0x0 SWAP5 PUSH2 0x2912 PUSH2 0x154D DUP6 PUSH2 0x359D JUMP JUMPDEST DUP6 SWAP1 DUP1 PUSH2 0x2FEB JUMPI JUMPDEST POP PUSH2 0x2927 DUP2 DUP7 DUP5 DUP8 PUSH2 0x3655 JUMP JUMPDEST SWAP5 PUSH1 0x40 MLOAD SWAP5 PUSH4 0xB0F479A1 PUSH1 0xE0 SHL DUP7 MSTORE PUSH1 0x20 DUP7 PUSH1 0x4 DUP2 ADDRESS GAS STATICCALL SWAP6 DUP7 ISZERO PUSH2 0xF6A JUMPI DUP9 SWAP7 PUSH2 0x2FCA JUMPI JUMPDEST POP PUSH1 0x40 MLOAD PUSH4 0x20487DED PUSH1 0xE0 SHL DUP2 MSTORE SWAP4 PUSH1 0x20 DUP6 DUP1 PUSH2 0x296E DUP12 DUP11 PUSH1 0x4 DUP5 ADD PUSH2 0x34D4 JUMP JUMPDEST SUB DUP2 PUSH1 0x1 PUSH1 0x1 PUSH1 0xA0 SHL SUB DUP12 AND GAS STATICCALL SWAP5 DUP6 ISZERO PUSH2 0xA6D JUMPI DUP10 SWAP6 PUSH2 0x2F96 JUMPI JUMPDEST POP PUSH1 0x40 MLOAD PUSH4 0x70A08231 PUSH1 0xE0 SHL DUP2 MSTORE ADDRESS PUSH1 0x4 DUP3 ADD MSTORE PUSH1 0x20 DUP2 PUSH1 0x24 DUP2 PUSH32 0x0 PUSH1 0x1 PUSH1 0x1 PUSH1 0xA0 SHL SUB AND GAS STATICCALL SWAP1 DUP2 ISZERO PUSH2 0x2E99 JUMPI DUP11 SWAP2 PUSH2 0x2F64 JUMPI JUMPDEST POP PUSH2 0x2EF3 JUMPI JUMPDEST PUSH1 0x40 MLOAD PUSH4 0x70A08231 PUSH1 0xE0 SHL DUP2 MSTORE ADDRESS PUSH1 0x4 DUP3 ADD MSTORE PUSH1 0x20 DUP2 PUSH1 0x24 DUP2 PUSH32 0x0 PUSH1 0x1 PUSH1 0x1 PUSH1 0xA0 SHL SUB AND GAS STATICCALL SWAP1 DUP2 ISZERO PUSH2 0x2E99 JUMPI DUP11 SWAP2 PUSH2 0x2EC1 JUMPI JUMPDEST POP PUSH1 0x6 SLOAD PUSH1 0x40 MLOAD PUSH4 0x95EA7B3 PUSH1 0xE0 SHL DUP2 MSTORE PUSH1 0x1 PUSH1 0x1 PUSH1 0xA0 SHL SUB SWAP1 SWAP2 AND PUSH1 0x4 DUP3 ADD MSTORE PUSH1 0x24 DUP2 ADD DUP3 SWAP1 MSTORE PUSH1 0x20 DUP2 DUP13 DUP2 DUP1 PUSH1 0x44 DUP2 ADD SUB SWAP2 PUSH32 0x0 PUSH1 0x1 PUSH1 0x1 PUSH1 0xA0 SHL SUB AND GAS CALL DUP1 ISZERO PUSH2 0x2E58 JUMPI SWAP2 PUSH1 0x20 SWAP2 DUP13 SWAP4 PUSH2 0x2EA4 JUMPI JUMPDEST POP PUSH1 0x40 MLOAD SWAP1 PUSH2 0x2AB6 DUP3 PUSH2 0x2697 JUMP JUMPDEST PUSH1 0x1 PUSH1 0x1 PUSH1 0xA0 SHL SUB PUSH32 0x0 DUP2 AND DUP4 MSTORE PUSH32 0x0 DUP2 AND DUP5 DUP5 ADD SWAP1 DUP2 MSTORE PUSH2 0xFFFF PUSH32 0x0 AND PUSH1 0x40 DUP1 DUP7 ADD SWAP2 DUP3 MSTORE ADDRESS PUSH1 0x60 DUP8 ADD SWAP1 DUP2 MSTORE PUSH1 0x80 DUP8 ADD DUP15 DUP2 MSTORE PUSH1 0xA0 DUP9 ADD SWAP7 DUP8 MSTORE PUSH1 0xC0 DUP9 ADD DUP11 DUP2 MSTORE PUSH1 0x6 SLOAD SWAP4 MLOAD PUSH4 0x5023B4DF PUSH1 0xE0 SHL DUP2 MSTORE SWAP9 MLOAD DUP8 AND PUSH1 0x4 DUP11 ADD MSTORE SWAP5 MLOAD DUP7 AND PUSH1 0x24 DUP10 ADD MSTORE SWAP3 MLOAD PUSH3 0xFFFFFF AND PUSH1 0x44 DUP9 ADD MSTORE MLOAD DUP5 AND PUSH1 0x64 DUP8 ADD MSTORE SWAP1 MLOAD PUSH1 0x84 DUP7 ADD MSTORE SWAP3 MLOAD PUSH1 0xA4 DUP6 ADD MSTORE MLOAD DUP2 AND PUSH1 0xC4 DUP5 ADD MSTORE SWAP2 SWAP4 DUP5 SWAP3 PUSH1 0xE4 SWAP3 DUP5 SWAP3 SWAP2 AND GAS CALL SWAP1 DUP2 ISZERO PUSH2 0x2E99 JUMPI DUP11 SWAP2 PUSH2 0x2E67 JUMPI JUMPDEST POP PUSH32 0x0 PUSH1 0x1 PUSH1 0x1 PUSH1 0xA0 SHL SUB AND EXTCODESIZE ISZERO PUSH2 0x2E63 JUMPI PUSH1 0x40 MLOAD PUSH4 0x2E1A7D4D PUSH1 0xE0 SHL DUP2 MSTORE PUSH1 0x4 DUP2 ADD DUP8 SWAP1 MSTORE DUP11 DUP2 PUSH1 0x24 DUP2 DUP4 PUSH32 0x0 PUSH1 0x1 PUSH1 0x1 PUSH1 0xA0 SHL SUB AND GAS CALL DUP1 ISZERO PUSH2 0x2E58 JUMPI PUSH2 0x2E45 JUMPI JUMPDEST POP DUP5 PUSH2 0x2E24 JUMPI JUMPDEST POP POP POP SELFBALANCE DUP4 GT PUSH2 0x1F10 JUMPI PUSH1 0x1 PUSH1 0x1 PUSH1 0xA0 SHL SUB AND SWAP1 DUP2 PUSH2 0x2DB0 JUMPI JUMPDEST POP POP SWAP2 PUSH2 0x2C87 SWAP5 SWAP4 SWAP2 PUSH1 0x20 SWAP4 PUSH1 0x40 MLOAD DUP1 SWAP8 DUP2 SWAP6 DUP3 SWAP5 PUSH4 0x96F4E9F9 PUSH1 0xE0 SHL DUP5 MSTORE PUSH1 0x4 DUP5 ADD PUSH2 0x34D4 JUMP JUMPDEST SUB SWAP3 PUSH1 0x1 PUSH1 0x1 PUSH1 0xA0 SHL SUB AND GAS CALL SWAP2 DUP3 ISZERO PUSH2 0xF1C JUMPI DUP2 SWAP3 PUSH2 0x2D7C JUMPI JUMPDEST POP PUSH1 0x40 MLOAD PUSH4 0x70A08231 PUSH1 0xE0 SHL DUP2 MSTORE ADDRESS PUSH1 0x4 DUP3 ADD MSTORE PUSH1 0x20 DUP2 PUSH1 0x24 DUP2 PUSH32 0x0 PUSH1 0x1 PUSH1 0x1 PUSH1 0xA0 SHL SUB AND GAS STATICCALL SWAP2 DUP3 ISZERO PUSH2 0x1E71 JUMPI SWAP2 PUSH2 0x2D4A JUMPI JUMPDEST POP PUSH2 0x2CFD JUMPI SWAP1 JUMP JUMPDEST PUSH2 0x2D47 PUSH32 0x0 PUSH32 0x0 PUSH2 0x39FA JUMP JUMPDEST SWAP1 JUMP JUMPDEST SWAP1 POP PUSH1 0x20 DUP2 RETURNDATASIZE PUSH1 0x20 GT PUSH2 0x2D74 JUMPI JUMPDEST DUP2 PUSH2 0x2D65 PUSH1 0x20 SWAP4 DUP4 PUSH2 0x26CD JUMP JUMPDEST DUP2 ADD SUB SLT PUSH2 0x4DB JUMPI MLOAD CODESIZE PUSH2 0x2CF5 JUMP JUMPDEST RETURNDATASIZE SWAP2 POP PUSH2 0x2D58 JUMP JUMPDEST SWAP1 SWAP2 POP PUSH1 0x20 DUP2 RETURNDATASIZE PUSH1 0x20 GT PUSH2 0x2DA8 JUMPI JUMPDEST DUP2 PUSH2 0x2D98 PUSH1 0x20 SWAP4 DUP4 PUSH2 0x26CD JUMP JUMPDEST DUP2 ADD SUB SLT PUSH2 0x4DB JUMPI MLOAD SWAP1 CODESIZE PUSH2 0x2CA2 JUMP JUMPDEST RETURNDATASIZE SWAP2 POP PUSH2 0x2D8B JUMP JUMPDEST PUSH1 0x40 MLOAD PUSH4 0x95EA7B3 PUSH1 0xE0 SHL DUP2 MSTORE PUSH1 0x1 PUSH1 0x1 PUSH1 0xA0 SHL SUB DUP7 AND PUSH1 0x4 DUP3 ADD MSTORE PUSH1 0x24 DUP2 ADD SWAP2 SWAP1 SWAP2 MSTORE SWAP1 PUSH1 0x20 SWAP1 DUP3 SWAP1 PUSH1 0x44 SWAP1 DUP3 SWAP1 DUP11 SWAP1 GAS CALL DUP1 ISZERO PUSH2 0xB2E JUMPI SWAP2 PUSH2 0x2C87 SWAP7 SWAP6 SWAP4 SWAP2 PUSH1 0x20 SWAP6 SWAP4 PUSH2 0x2E07 JUMPI JUMPDEST POP SWAP2 SWAP4 DUP2 SWAP4 SWAP6 SWAP7 POP PUSH2 0x2C5F JUMP JUMPDEST PUSH2 0x2E1D SWAP1 DUP7 RETURNDATASIZE DUP9 GT PUSH2 0xA66 JUMPI PUSH2 0xA56 DUP2 DUP4 PUSH2 0x26CD JUMP JUMPDEST POP CODESIZE PUSH2 0x2DFA JUMP JUMPDEST DUP4 SWAP9 POP SWAP1 PUSH2 0x2E36 PUSH2 0x2E3C SWAP5 SWAP3 DUP7 PUSH2 0x2883 JUMP JUMPDEST SWAP3 PUSH2 0x3655 JUMP JUMPDEST SWAP5 CODESIZE DUP1 DUP1 PUSH2 0x2C45 JUMP JUMPDEST PUSH2 0x2E51 SWAP1 SWAP11 SWAP2 SWAP11 PUSH2 0x2684 JUMP JUMPDEST SWAP9 CODESIZE PUSH2 0x2C3E JUMP JUMPDEST PUSH1 0x40 MLOAD RETURNDATASIZE DUP14 DUP3 RETURNDATACOPY RETURNDATASIZE SWAP1 REVERT JUMPDEST DUP10 DUP1 REVERT JUMPDEST SWAP1 POP PUSH1 0x20 DUP2 RETURNDATASIZE PUSH1 0x20 GT PUSH2 0x2E91 JUMPI JUMPDEST DUP2 PUSH2 0x2E82 PUSH1 0x20 SWAP4 DUP4 PUSH2 0x26CD JUMP JUMPDEST DUP2 ADD SUB SLT PUSH2 0x2E63 JUMPI MLOAD CODESIZE PUSH2 0x2BBC JUMP JUMPDEST RETURNDATASIZE SWAP2 POP PUSH2 0x2E75 JUMP JUMPDEST PUSH1 0x40 MLOAD RETURNDATASIZE DUP13 DUP3 RETURNDATACOPY RETURNDATASIZE SWAP1 REVERT JUMPDEST PUSH2 0x2EBA SWAP1 DUP4 RETURNDATASIZE DUP6 GT PUSH2 0xA66 JUMPI PUSH2 0xA56 DUP2 DUP4 PUSH2 0x26CD JUMP JUMPDEST POP CODESIZE PUSH2 0x2AA8 JUMP JUMPDEST SWAP1 POP PUSH1 0x20 DUP2 RETURNDATASIZE PUSH1 0x20 GT PUSH2 0x2EEB JUMPI JUMPDEST DUP2 PUSH2 0x2EDC PUSH1 0x20 SWAP4 DUP4 PUSH2 0x26CD JUMP JUMPDEST DUP2 ADD SUB SLT PUSH2 0x2E63 JUMPI MLOAD CODESIZE PUSH2 0x2A37 JUMP JUMPDEST RETURNDATASIZE SWAP2 POP PUSH2 0x2ECF JUMP JUMPDEST PUSH2 0x2F5E PUSH32 0x0 PUSH32 0x0 PUSH32 0x0 PUSH2 0x387F JUMP JUMPDEST POP PUSH2 0x29E4 JUMP JUMPDEST SWAP1 POP PUSH1 0x20 DUP2 RETURNDATASIZE PUSH1 0x20 GT PUSH2 0x2F8E JUMPI JUMPDEST DUP2 PUSH2 0x2F7F PUSH1 0x20 SWAP4 DUP4 PUSH2 0x26CD JUMP JUMPDEST DUP2 ADD SUB SLT PUSH2 0x2E63 JUMPI MLOAD CODESIZE PUSH2 0x29DE JUMP JUMPDEST RETURNDATASIZE SWAP2 POP PUSH2 0x2F72 JUMP JUMPDEST SWAP1 SWAP5 POP PUSH1 0x20 DUP2 RETURNDATASIZE PUSH1 0x20 GT PUSH2 0x2FC2 JUMPI JUMPDEST DUP2 PUSH2 0x2FB2 PUSH1 0x20 SWAP4 DUP4 PUSH2 0x26CD JUMP JUMPDEST DUP2 ADD SUB SLT PUSH2 0x1245 JUMPI MLOAD SWAP4 CODESIZE PUSH2 0x298A JUMP JUMPDEST RETURNDATASIZE SWAP2 POP PUSH2 0x2FA5 JUMP JUMPDEST PUSH2 0x2FE4 SWAP2 SWAP7 POP PUSH1 0x20 RETURNDATASIZE PUSH1 0x20 GT PUSH2 0x20AA JUMPI PUSH2 0x209C DUP2 DUP4 PUSH2 0x26CD JUMP JUMPDEST SWAP5 CODESIZE PUSH2 0x294D JUMP JUMPDEST SWAP1 POP CODESIZE PUSH2 0x291A JUMP JUMPDEST SWAP3 SWAP1 SWAP2 PUSH2 0x3002 PUSH2 0x154D DUP5 PUSH2 0x359D JUMP JUMPDEST PUSH1 0x5 SLOAD PUSH1 0x40 DUP1 MLOAD PUSH1 0x1 PUSH1 0x1 PUSH1 0xA0 SHL SUB SWAP3 DUP4 AND SWAP7 SWAP2 SWAP4 SWAP1 SWAP2 PUSH2 0x3022 DUP4 PUSH2 0x264E JUMP JUMPDEST PUSH1 0x60 SWAP2 DUP3 DUP5 MSTORE DUP9 PUSH1 0x20 SWAP4 DUP1 DUP6 DUP8 ADD MSTORE DUP1 DUP9 DUP8 ADD MSTORE DUP1 PUSH1 0x80 PUSH1 0x0 SWAP8 DUP9 DUP4 DUP3 ADD MSTORE ADD MSTORE DUP8 MLOAD PUSH2 0x304E DUP2 PUSH2 0x2633 JUMP JUMPDEST DUP7 DUP2 MSTORE DUP8 DUP10 MLOAD SWAP12 AND DUP7 DUP13 ADD MSTORE DUP6 DUP12 MSTORE PUSH2 0x3066 DUP12 PUSH2 0x2669 JUMP JUMPDEST PUSH2 0x3074 DUP10 MLOAD PUSH2 0x1A98 DUP2 PUSH2 0x2633 JUMP JUMPDEST SWAP4 DUP10 MLOAD SWAP12 PUSH2 0x3081 DUP14 PUSH2 0x264E JUMP JUMPDEST DUP13 MSTORE DUP7 DUP13 ADD MSTORE DUP9 DUP12 ADD MSTORE DUP10 ADD MSTORE PUSH1 0x80 DUP9 ADD MSTORE DUP5 MLOAD PUSH4 0xB0F479A1 PUSH1 0xE0 SHL DUP2 MSTORE SWAP8 PUSH1 0x4 SWAP2 DUP4 DUP11 DUP5 DUP2 ADDRESS GAS STATICCALL SWAP10 DUP11 ISZERO PUSH2 0x346B JUMPI PUSH2 0x30DE SWAP9 SWAP10 SWAP11 DUP8 SWAP2 DUP8 SWAP2 PUSH2 0x344E JUMPI JUMPDEST POP AND SWAP2 DUP5 DUP12 DUP10 MLOAD DUP1 SWAP12 DUP2 SWAP3 PUSH4 0x20487DED PUSH1 0xE0 SHL DUP4 MSTORE DUP7 DUP10 DUP5 ADD PUSH2 0x34D4 JUMP JUMPDEST SUB DUP2 DUP7 GAS STATICCALL SWAP9 DUP10 ISZERO PUSH2 0x32F9 JUMPI DUP7 SWAP10 PUSH2 0x341F JUMPI JUMPDEST POP DUP8 MLOAD PUSH4 0x23B872DD PUSH1 0xE0 SHL DUP2 MSTORE CALLER DUP6 DUP3 ADD SWAP1 DUP2 MSTORE ADDRESS PUSH1 0x20 DUP3 ADD MSTORE PUSH1 0x40 DUP2 ADD DUP12 SWAP1 MSTORE SWAP1 SWAP2 DUP7 SWAP2 DUP4 SWAP2 SWAP1 DUP3 SWAP1 DUP11 SWAP1 DUP3 SWAP1 PUSH1 0x60 ADD SUB SWAP3 GAS CALL SWAP1 DUP2 ISZERO PUSH2 0x32F9 JUMPI DUP7 SWAP2 PUSH2 0x3402 JUMPI JUMPDEST POP ISZERO PUSH2 0x33BF JUMPI DUP6 PUSH1 0x5 SLOAD AND DUP8 MLOAD SWAP9 PUSH4 0x70A08231 PUSH1 0xE0 SHL SWAP10 DUP11 DUP2 MSTORE ADDRESS DUP7 DUP3 ADD MSTORE DUP7 DUP2 PUSH1 0x24 DUP2 DUP7 GAS STATICCALL SWAP1 DUP2 ISZERO PUSH2 0x33B5 JUMPI DUP9 SWAP2 PUSH2 0x3384 JUMPI JUMPDEST POP DUP2 GT PUSH2 0x3303 JUMPI DUP9 MLOAD PUSH4 0x95EA7B3 PUSH1 0xE0 SHL DUP2 MSTORE PUSH1 0x1 PUSH1 0x1 PUSH1 0xA0 SHL SUB DUP6 AND DUP7 DUP3 ADD SWAP1 DUP2 MSTORE PUSH1 0x20 DUP2 ADD SWAP3 SWAP1 SWAP3 MSTORE SWAP2 DUP7 SWAP2 DUP4 SWAP2 SWAP1 DUP3 SWAP1 DUP11 SWAP1 DUP3 SWAP1 PUSH1 0x40 ADD SUB SWAP3 GAS CALL DUP1 ISZERO PUSH2 0x32F9 JUMPI SWAP2 DUP6 SWAP4 SWAP2 PUSH2 0x31D8 SWAP12 SWAP13 SWAP4 PUSH2 0x32DC JUMPI JUMPDEST POP DUP7 DUP10 MLOAD DUP1 SWAP13 DUP2 SWAP6 DUP3 SWAP5 PUSH4 0x96F4E9F9 PUSH1 0xE0 SHL DUP5 MSTORE DUP10 DUP5 ADD PUSH2 0x34D4 JUMP JUMPDEST SUB SWAP3 GAS CALL SWAP7 DUP8 ISZERO PUSH2 0x32D2 JUMPI DUP4 SWAP8 PUSH2 0x32A3 JUMPI JUMPDEST POP DUP2 SWAP1 PUSH1 0x24 PUSH32 0x0 SWAP8 DUP8 MLOAD SWAP7 DUP8 SWAP4 DUP5 SWAP3 DUP4 MSTORE ADDRESS SWAP1 DUP4 ADD MSTORE DUP10 AND GAS STATICCALL SWAP4 DUP5 ISZERO PUSH2 0x3298 JUMPI POP DUP2 SWAP4 PUSH2 0x3267 JUMPI JUMPDEST POP POP POP PUSH2 0x323D JUMPI POP SWAP1 JUMP JUMPDEST PUSH2 0x2D47 SWAP1 PUSH32 0x0 PUSH2 0x39FA JUMP JUMPDEST SWAP1 SWAP2 DUP1 SWAP4 POP DUP2 RETURNDATASIZE DUP4 GT PUSH2 0x3291 JUMPI JUMPDEST PUSH2 0x327F DUP2 DUP4 PUSH2 0x26CD JUMP JUMPDEST DUP2 ADD SUB SLT PUSH2 0x230 JUMPI POP MLOAD CODESIZE DUP1 DUP1 PUSH2 0x3232 JUMP JUMPDEST POP RETURNDATASIZE PUSH2 0x3275 JUMP JUMPDEST MLOAD SWAP2 RETURNDATASIZE SWAP2 POP DUP3 RETURNDATACOPY RETURNDATASIZE SWAP1 REVERT JUMPDEST SWAP1 SWAP7 POP DUP2 DUP2 DUP2 RETURNDATASIZE DUP4 GT PUSH2 0x32CB JUMPI JUMPDEST PUSH2 0x32BB DUP2 DUP4 PUSH2 0x26CD JUMP JUMPDEST DUP2 ADD SUB SLT PUSH2 0x18B4 JUMPI MLOAD SWAP6 DUP2 PUSH2 0x31EA JUMP JUMPDEST POP RETURNDATASIZE PUSH2 0x32B1 JUMP JUMPDEST DUP6 MLOAD RETURNDATASIZE DUP6 DUP3 RETURNDATACOPY RETURNDATASIZE SWAP1 REVERT JUMPDEST PUSH2 0x32F2 SWAP1 DUP6 RETURNDATASIZE DUP8 GT PUSH2 0xA66 JUMPI PUSH2 0xA56 DUP2 DUP4 PUSH2 0x26CD JUMP JUMPDEST POP CODESIZE PUSH2 0x31BC JUMP JUMPDEST DUP9 MLOAD RETURNDATASIZE DUP9 DUP3 RETURNDATACOPY RETURNDATASIZE SWAP1 REVERT JUMPDEST DUP5 SWAP1 DUP7 DUP11 DUP10 SWAP5 DUP3 DUP15 PUSH1 0x24 DUP5 MLOAD DUP1 SWAP5 DUP2 SWAP4 DUP3 MSTORE ADDRESS DUP11 DUP4 ADD MSTORE GAS STATICCALL SWAP3 DUP4 ISZERO PUSH2 0x337A JUMPI DUP7 SWAP4 PUSH2 0x3346 JUMPI JUMPDEST POP POP MLOAD PUSH4 0x4787A103 PUSH1 0xE1 SHL DUP2 MSTORE SWAP3 DUP4 ADD MSTORE PUSH1 0x24 DUP3 ADD MSTORE PUSH1 0x44 SWAP2 POP REVERT JUMPDEST SWAP1 DUP1 SWAP3 SWAP4 POP DUP2 RETURNDATASIZE DUP4 GT PUSH2 0x3373 JUMPI JUMPDEST PUSH2 0x335E DUP2 DUP4 PUSH2 0x26CD JUMP JUMPDEST DUP2 ADD SUB SLT PUSH2 0x460 JUMPI PUSH1 0x44 SWAP5 POP MLOAD SWAP1 DUP6 DUP1 PUSH2 0x332A JUMP JUMPDEST POP RETURNDATASIZE PUSH2 0x3354 JUMP JUMPDEST DUP3 MLOAD RETURNDATASIZE DUP9 DUP3 RETURNDATACOPY RETURNDATASIZE SWAP1 REVERT JUMPDEST SWAP1 POP DUP7 DUP2 DUP2 RETURNDATASIZE DUP4 GT PUSH2 0x33AE JUMPI JUMPDEST PUSH2 0x339B DUP2 DUP4 PUSH2 0x26CD JUMP JUMPDEST DUP2 ADD SUB SLT PUSH2 0x33AA JUMPI MLOAD CODESIZE PUSH2 0x3169 JUMP JUMPDEST DUP8 DUP1 REVERT JUMPDEST POP RETURNDATASIZE PUSH2 0x3391 JUMP JUMPDEST DUP11 MLOAD RETURNDATASIZE DUP11 DUP3 RETURNDATACOPY RETURNDATASIZE SWAP1 REVERT JUMPDEST DUP7 MLOAD PUSH3 0x461BCD PUSH1 0xE5 SHL DUP2 MSTORE DUP1 DUP5 ADD DUP6 SWAP1 MSTORE PUSH1 0x1A PUSH1 0x24 DUP3 ADD MSTORE PUSH32 0x4E6F742070726F7669646564204C696E6B20666F722066656573000000000000 PUSH1 0x44 DUP3 ADD MSTORE PUSH1 0x64 SWAP1 REVERT JUMPDEST PUSH2 0x3419 SWAP2 POP DUP6 RETURNDATASIZE DUP8 GT PUSH2 0xA66 JUMPI PUSH2 0xA56 DUP2 DUP4 PUSH2 0x26CD JUMP JUMPDEST CODESIZE PUSH2 0x3134 JUMP JUMPDEST SWAP1 SWAP9 POP DUP5 DUP2 DUP2 RETURNDATASIZE DUP4 GT PUSH2 0x3447 JUMPI JUMPDEST PUSH2 0x3437 DUP2 DUP4 PUSH2 0x26CD JUMP JUMPDEST DUP2 ADD SUB SLT PUSH2 0x2120 JUMPI MLOAD SWAP8 DUP5 PUSH2 0x30F1 JUMP JUMPDEST POP RETURNDATASIZE PUSH2 0x342D JUMP JUMPDEST PUSH2 0x3465 SWAP2 POP DUP7 RETURNDATASIZE DUP9 GT PUSH2 0x20AA JUMPI PUSH2 0x209C DUP2 DUP4 PUSH2 0x26CD JUMP JUMPDEST CODESIZE PUSH2 0x30C0 JUMP JUMPDEST DUP8 MLOAD RETURNDATASIZE DUP8 DUP3 RETURNDATACOPY RETURNDATASIZE SWAP1 REVERT JUMPDEST SWAP1 DUP2 PUSH1 0x20 SWAP2 SUB SLT PUSH2 0x4DB JUMPI MLOAD PUSH1 0x1 PUSH1 0x1 PUSH1 0xA0 SHL SUB DUP2 AND DUP2 SUB PUSH2 0x4DB JUMPI SWAP1 JUMP JUMPDEST SWAP2 SWAP1 DUP3 MLOAD SWAP3 DUP4 DUP3 MSTORE PUSH1 0x0 JUMPDEST DUP5 DUP2 LT PUSH2 0x34C0 JUMPI POP POP DUP3 PUSH1 0x0 PUSH1 0x20 DUP1 SWAP5 SWAP6 DUP5 ADD ADD MSTORE PUSH1 0x1F DUP1 NOT SWAP2 ADD AND ADD ADD SWAP1 JUMP JUMPDEST PUSH1 0x20 DUP2 DUP4 ADD DUP2 ADD MLOAD DUP5 DUP4 ADD DUP3 ADD MSTORE ADD PUSH2 0x349F JUMP JUMPDEST SWAP1 PUSH1 0x1 PUSH1 0x1 PUSH1 0x40 SHL SUB SWAP1 SWAP4 SWAP3 SWAP4 AND DUP2 MSTORE PUSH1 0x40 PUSH1 0x20 SWAP2 DUP2 DUP4 DUP3 ADD MSTORE PUSH2 0x3503 DUP6 MLOAD PUSH1 0xA0 DUP5 DUP5 ADD MSTORE PUSH1 0xE0 DUP4 ADD SWAP1 PUSH2 0x3494 JUMP JUMPDEST SWAP2 PUSH2 0x351F DUP5 DUP8 ADD MLOAD SWAP4 PUSH1 0x3F NOT SWAP5 DUP6 DUP6 DUP4 SUB ADD PUSH1 0x60 DUP7 ADD MSTORE PUSH2 0x3494 JUMP JUMPDEST DUP2 DUP8 ADD MLOAD SWAP5 DUP5 DUP5 DUP4 SUB ADD PUSH1 0x80 DUP6 ADD MSTORE DUP1 DUP1 DUP8 MLOAD SWAP4 DUP5 DUP2 MSTORE ADD SWAP7 ADD SWAP3 PUSH1 0x0 SWAP1 JUMPDEST DUP4 DUP3 LT PUSH2 0x3574 JUMPI POP POP POP POP POP PUSH1 0xC0 PUSH1 0x80 PUSH2 0x2D47 SWAP6 SWAP7 PUSH1 0x1 DUP1 PUSH1 0xA0 SHL SUB PUSH1 0x60 DUP3 ADD MLOAD AND PUSH1 0xA0 DUP6 ADD MSTORE ADD MLOAD SWAP3 DUP3 DUP6 SUB ADD SWAP2 ADD MSTORE PUSH2 0x3494 JUMP JUMPDEST DUP5 MLOAD DUP1 MLOAD PUSH1 0x1 PUSH1 0x1 PUSH1 0xA0 SHL SUB AND DUP10 MSTORE DUP4 ADD MLOAD DUP9 DUP5 ADD MSTORE SWAP7 DUP8 ADD SWAP7 SWAP4 DUP3 ADD SWAP4 PUSH1 0x1 SWAP1 SWAP2 ADD SWAP1 PUSH2 0x353E JUMP JUMPDEST PUSH1 0x0 PUSH1 0x4 DUP1 SLOAD SWAP2 JUMPDEST DUP3 PUSH2 0xFFFF DUP3 AND LT PUSH2 0x35F0 JUMPI POP POP POP PUSH32 0x0 PUSH1 0x1 PUSH1 0x1 PUSH1 0xA0 SHL SUB SWAP1 DUP2 AND SWAP2 AND EQ PUSH2 0x35EB JUMPI PUSH1 0x0 SWAP1 JUMP JUMPDEST PUSH1 0x1 SWAP1 JUMP JUMPDEST PUSH2 0x35F9 DUP2 PUSH2 0x27ED JUMP JUMPDEST SWAP1 SLOAD PUSH1 0x3 SWAP2 SWAP1 SWAP2 SHL SHR PUSH1 0x1 PUSH1 0x1 PUSH1 0xA0 SHL SUB SWAP1 DUP2 AND SWAP1 DUP6 AND EQ PUSH2 0x363F JUMPI PUSH2 0xFFFF DUP1 SWAP2 AND SWAP1 DUP2 EQ PUSH2 0x362A JUMPI PUSH1 0x1 ADD PUSH2 0x35A5 JUMP JUMPDEST PUSH1 0x11 DUP3 PUSH4 0x4E487B71 PUSH1 0xE0 SHL PUSH1 0x0 MSTORE MSTORE PUSH1 0x24 PUSH1 0x0 REVERT JUMPDEST POP POP POP POP PUSH1 0x1 SWAP1 JUMP JUMPDEST DUP1 MLOAD ISZERO PUSH2 0x2824 JUMPI PUSH1 0x20 ADD SWAP1 JUMP JUMPDEST SWAP3 SWAP2 SWAP1 PUSH1 0x40 SWAP2 DUP3 MLOAD SWAP3 PUSH2 0x3667 DUP5 PUSH2 0x264E JUMP JUMPDEST PUSH1 0x60 SWAP3 DUP4 DUP6 MSTORE PUSH1 0x20 SWAP6 DUP5 DUP8 DUP8 ADD MSTORE DUP5 DUP4 DUP8 ADD MSTORE DUP5 PUSH1 0x80 PUSH1 0x0 SWAP8 DUP9 DUP4 DUP3 ADD MSTORE ADD MSTORE PUSH1 0x1 DUP1 PUSH1 0xA0 SHL SUB DUP1 SWAP5 AND DUP1 ISZERO DUP1 PUSH2 0x3760 JUMPI JUMPDEST ISZERO PUSH2 0x36F2 JUMPI POP POP DUP2 MLOAD PUSH2 0x36AB DUP2 PUSH2 0x2633 JUMP JUMPDEST DUP6 DUP2 MSTORE SWAP3 JUMPDEST DUP3 MLOAD SWAP8 AND DUP7 DUP9 ADD MSTORE DUP6 DUP8 MSTORE PUSH2 0x36C4 DUP8 PUSH2 0x2669 JUMP JUMPDEST PUSH2 0x36D2 DUP3 MLOAD PUSH2 0x1A98 DUP2 PUSH2 0x2633 JUMP JUMPDEST SWAP6 DUP3 MLOAD SWAP8 PUSH2 0x36DF DUP10 PUSH2 0x264E JUMP JUMPDEST DUP9 MSTORE DUP8 ADD MSTORE DUP6 ADD MSTORE DUP4 ADD MSTORE PUSH1 0x80 DUP3 ADD MSTORE SWAP1 JUMP JUMPDEST DUP4 SWAP5 SWAP2 SWAP5 MLOAD SWAP1 PUSH2 0x3701 DUP3 PUSH2 0x2669 JUMP JUMPDEST PUSH1 0x1 DUP3 MSTORE DUP9 DUP9 JUMPDEST DUP2 DUP2 LT PUSH2 0x373F JUMPI POP POP SWAP1 PUSH2 0x3739 SWAP2 DUP2 SWAP7 DUP7 MLOAD SWAP2 PUSH2 0x3724 DUP4 PUSH2 0x2669 JUMP JUMPDEST DUP3 MSTORE DUP11 DUP3 ADD MSTORE PUSH2 0x3733 DUP3 PUSH2 0x3648 JUMP JUMPDEST MSTORE PUSH2 0x3648 JUMP JUMPDEST POP PUSH2 0x36B0 JUMP JUMPDEST DUP7 MLOAD PUSH2 0x374A DUP2 PUSH2 0x2669 JUMP JUMPDEST DUP11 DUP2 MSTORE DUP11 DUP4 DUP3 ADD MSTORE DUP3 DUP3 DUP7 ADD ADD MSTORE ADD DUP10 SWAP1 PUSH2 0x3708 JUMP JUMPDEST POP DUP2 ISZERO PUSH2 0x3699 JUMP JUMPDEST SWAP2 SWAP1 DUP3 PUSH2 0x180 SWAP2 SUB SLT PUSH2 0x4DB JUMPI DUP2 MLOAD SWAP2 PUSH1 0x20 DUP2 ADD MLOAD SWAP2 PUSH1 0x40 DUP3 ADD MLOAD SWAP2 PUSH1 0x60 DUP2 ADD MLOAD SWAP2 PUSH1 0x80 DUP3 ADD MLOAD SWAP2 PUSH1 0xA0 DUP2 ADD MLOAD SWAP2 PUSH1 0xC0 DUP3 ADD MLOAD SWAP2 PUSH1 0xE0 DUP2 ADD MLOAD SWAP2 PUSH2 0x100 DUP3 ADD MLOAD SWAP2 PUSH2 0x120 DUP2 ADD MLOAD SWAP2 PUSH2 0x160 PUSH2 0x140 DUP4 ADD MLOAD SWAP3 ADD MLOAD PUSH5 0xFFFFFFFFFF DUP2 AND DUP2 SUB PUSH2 0x4DB JUMPI SWAP1 JUMP JUMPDEST MLOAD SWAP1 PUSH1 0x1 PUSH1 0x1 PUSH1 0xA0 SHL SUB DUP3 AND DUP3 SUB PUSH2 0x4DB JUMPI JUMP JUMPDEST MLOAD SWAP1 PUSH1 0xFF DUP3 AND DUP3 SUB PUSH2 0x4DB JUMPI JUMP JUMPDEST PUSH1 0x40 MLOAD SWAP1 PUSH4 0x97A657C9 PUSH1 0xE0 SHL PUSH1 0x20 DUP4 ADD MSTORE MLOAD PUSH1 0x24 DUP3 ADD MSTORE PUSH1 0x24 DUP2 MSTORE PUSH1 0x60 DUP2 ADD DUP2 DUP2 LT PUSH1 0x1 PUSH1 0x1 PUSH1 0x40 SHL SUB DUP3 GT OR PUSH2 0x49A JUMPI PUSH1 0x40 MSTORE SWAP1 JUMP JUMPDEST PUSH1 0x40 MLOAD PUSH4 0x26B1D5F PUSH1 0xE0 SHL DUP2 MSTORE SWAP1 PUSH1 0x20 SWAP1 DUP3 SWAP1 PUSH1 0x4 SWAP1 DUP3 SWAP1 PUSH1 0x1 PUSH1 0x1 PUSH1 0xA0 SHL SUB AND GAS STATICCALL SWAP1 DUP2 ISZERO PUSH2 0x3873 JUMPI PUSH1 0x0 SWAP2 PUSH2 0x385B JUMPI POP SWAP1 JUMP JUMPDEST PUSH2 0x2D47 SWAP2 POP PUSH1 0x20 RETURNDATASIZE DUP2 GT PUSH2 0x20AA JUMPI PUSH2 0x209C DUP2 DUP4 PUSH2 0x26CD JUMP JUMPDEST PUSH1 0x40 MLOAD RETURNDATASIZE PUSH1 0x0 DUP3 RETURNDATACOPY RETURNDATASIZE SWAP1 REVERT JUMPDEST PUSH1 0x40 DUP1 MLOAD PUSH4 0x70A08231 PUSH1 0xE0 SHL DUP2 MSTORE ADDRESS PUSH1 0x4 DUP3 ADD MSTORE SWAP4 SWAP5 SWAP4 SWAP1 SWAP3 PUSH1 0x20 SWAP3 PUSH1 0x1 PUSH1 0x1 PUSH1 0xA0 SHL SUB SWAP2 DUP3 AND SWAP3 SWAP2 SWAP1 DUP5 DUP4 PUSH1 0x24 DUP2 DUP8 GAS STATICCALL SWAP3 DUP4 ISZERO PUSH2 0x39BE JUMPI PUSH1 0x0 SWAP4 PUSH2 0x39C9 JUMPI JUMPDEST POP PUSH2 0x38CA SWAP1 PUSH2 0x3826 JUMP JUMPDEST DUP6 MLOAD PUSH4 0x95EA7B3 PUSH1 0xE0 SHL DUP2 MSTORE PUSH1 0x1 PUSH1 0x1 PUSH1 0xA0 SHL SUB DUP3 AND PUSH1 0x4 DUP3 ADD MSTORE PUSH1 0x24 DUP2 ADD DUP5 SWAP1 MSTORE SWAP1 SWAP4 DUP6 SWAP1 DUP3 SWAP1 PUSH1 0x44 SWAP1 DUP3 SWAP1 PUSH1 0x0 SWAP1 GAS CALL DUP1 ISZERO PUSH2 0x39BE JUMPI DUP6 SWAP5 SWAP3 PUSH2 0x3950 SWAP9 SWAP10 SWAP5 SWAP3 PUSH1 0x0 SWAP3 PUSH2 0x39A1 JUMPI JUMPDEST POP DUP8 MLOAD PUSH4 0x1A4CA37B PUSH1 0xE2 SHL DUP2 MSTORE PUSH1 0x1 PUSH1 0x1 PUSH1 0xA0 SHL SUB SWAP1 SWAP6 AND PUSH1 0x4 DUP7 ADD MSTORE PUSH1 0x24 DUP6 ADD SWAP3 SWAP1 SWAP3 MSTORE ADDRESS PUSH1 0x44 DUP6 ADD MSTORE SWAP3 SWAP7 DUP8 SWAP4 DUP5 SWAP3 SWAP1 SWAP2 DUP4 SWAP1 PUSH1 0x64 DUP3 ADD SWAP1 JUMP JUMPDEST SUB SWAP4 AND GAS CALL SWAP2 DUP3 ISZERO PUSH2 0x3997 JUMPI POP PUSH1 0x0 SWAP2 PUSH2 0x396B JUMPI JUMPDEST POP SWAP1 POP SWAP1 JUMP JUMPDEST DUP3 DUP2 RETURNDATASIZE DUP4 GT PUSH2 0x3990 JUMPI JUMPDEST PUSH2 0x397F DUP2 DUP4 PUSH2 0x26CD JUMP JUMPDEST DUP2 ADD SUB SLT PUSH2 0x230 JUMPI POP MLOAD DUP1 CODESIZE PUSH2 0x3965 JUMP JUMPDEST POP RETURNDATASIZE PUSH2 0x3975 JUMP JUMPDEST MLOAD RETURNDATASIZE PUSH1 0x0 DUP3 RETURNDATACOPY RETURNDATASIZE SWAP1 REVERT JUMPDEST PUSH2 0x39B7 SWAP1 DUP8 RETURNDATASIZE DUP10 GT PUSH2 0xA66 JUMPI PUSH2 0xA56 DUP2 DUP4 PUSH2 0x26CD JUMP JUMPDEST POP CODESIZE PUSH2 0x3914 JUMP JUMPDEST DUP7 MLOAD RETURNDATASIZE PUSH1 0x0 DUP3 RETURNDATACOPY RETURNDATASIZE SWAP1 REVERT JUMPDEST SWAP1 SWAP3 DUP6 DUP3 DUP2 RETURNDATASIZE DUP4 GT PUSH2 0x39F3 JUMPI JUMPDEST PUSH2 0x39E0 DUP2 DUP4 PUSH2 0x26CD JUMP JUMPDEST DUP2 ADD SUB SLT PUSH2 0x230 JUMPI POP MLOAD SWAP2 PUSH2 0x38CA PUSH2 0x38C0 JUMP JUMPDEST POP RETURNDATASIZE PUSH2 0x39D6 JUMP JUMPDEST PUSH1 0x40 DUP1 MLOAD PUSH4 0x70A08231 PUSH1 0xE0 SHL DUP2 MSTORE ADDRESS PUSH1 0x4 DUP3 ADD MSTORE SWAP1 SWAP2 PUSH1 0x1 PUSH1 0x1 PUSH1 0xA0 SHL SUB SWAP1 DUP5 DUP3 AND SWAP1 PUSH1 0x20 SWAP1 DUP2 DUP6 PUSH1 0x24 DUP2 DUP7 GAS STATICCALL SWAP5 DUP6 ISZERO PUSH2 0x39BE JUMPI PUSH1 0x0 SWAP6 PUSH2 0x3B02 JUMPI JUMPDEST POP PUSH2 0x3A41 SWAP1 PUSH2 0x3826 JUMP JUMPDEST DUP6 MLOAD PUSH4 0x95EA7B3 PUSH1 0xE0 SHL DUP2 MSTORE PUSH1 0x1 PUSH1 0x1 PUSH1 0xA0 SHL SUB DUP3 AND PUSH1 0x4 DUP3 ADD MSTORE PUSH1 0x24 DUP2 ADD DUP7 SWAP1 MSTORE SWAP1 SWAP3 DUP3 SWAP1 DUP3 SWAP1 PUSH1 0x44 SWAP1 DUP3 SWAP1 PUSH1 0x0 SWAP1 GAS CALL DUP1 ISZERO PUSH2 0x39BE JUMPI PUSH2 0x3AE4 JUMPI JUMPDEST POP POP AND SWAP3 DUP4 EXTCODESIZE ISZERO PUSH2 0x4DB JUMPI DUP3 MLOAD PUSH4 0xE8EDA9DF PUSH1 0xE0 SHL DUP2 MSTORE PUSH1 0x1 PUSH1 0x1 PUSH1 0xA0 SHL SUB SWAP2 SWAP1 SWAP2 AND PUSH1 0x4 DUP3 ADD MSTORE PUSH1 0x24 DUP2 ADD SWAP2 SWAP1 SWAP2 MSTORE ADDRESS PUSH1 0x44 DUP3 ADD MSTORE PUSH1 0x0 PUSH1 0x64 DUP3 ADD DUP2 SWAP1 MSTORE SWAP1 SWAP3 DUP4 SWAP1 PUSH1 0x84 SWAP1 DUP3 SWAP1 DUP5 SWAP1 GAS CALL SWAP1 DUP2 ISZERO PUSH2 0x3997 JUMPI POP PUSH2 0x3AD9 JUMPI POP JUMP JUMPDEST PUSH2 0x3AE2 SWAP1 PUSH2 0x2684 JUMP JUMPDEST JUMP JUMPDEST DUP2 PUSH2 0x3AFA SWAP3 SWAP1 RETURNDATASIZE LT PUSH2 0xA66 JUMPI PUSH2 0xA56 DUP2 DUP4 PUSH2 0x26CD JUMP JUMPDEST POP CODESIZE DUP1 PUSH2 0x3A7E JUMP JUMPDEST SWAP1 SWAP5 DUP3 DUP3 DUP2 RETURNDATASIZE DUP4 GT PUSH2 0x3B2C JUMPI JUMPDEST PUSH2 0x3B19 DUP2 DUP4 PUSH2 0x26CD JUMP JUMPDEST DUP2 ADD SUB SLT PUSH2 0x230 JUMPI POP MLOAD SWAP4 PUSH2 0x3A41 PUSH2 0x3A37 JUMP JUMPDEST POP RETURNDATASIZE PUSH2 0x3B0F JUMP JUMPDEST PUSH1 0x0 SLOAD PUSH1 0x1 PUSH1 0x1 PUSH1 0xA0 SHL SUB AND CALLER SUB PUSH2 0x3B47 JUMPI JUMP JUMPDEST PUSH1 0x40 MLOAD PUSH3 0x461BCD PUSH1 0xE5 SHL DUP2 MSTORE PUSH1 0x20 PUSH1 0x4 DUP3 ADD MSTORE PUSH1 0x16 PUSH1 0x24 DUP3 ADD MSTORE PUSH22 0x27B7363C9031B0B63630B1363290313C9037BBB732B9 PUSH1 0x51 SHL PUSH1 0x44 DUP3 ADD MSTORE PUSH1 0x64 SWAP1 REVERT INVALID LOG2 PUSH5 0x6970667358 0x22 SLT KECCAK256 0xEB PUSH17 0x541847B2C74468195CAA6B4F430E2FE293 0xA6 BASEFEE 0xFB 0xD4 0xD7 0xBD SWAP8 CALLER PUSH27 0x6D53AECE64736F6C63430008130033000000000000000000000000 ",
  "sha1": "cb0ab0a5db94c7c3df08f0e8293f398b913fe8db",
  "source": "// SPDX-License-Identifier: MIT\npragma solidity 0.8.19;\n\nimport {IRouterClient} from \"@chainlink/contracts/src/v0.8/ccip/interfaces/IRouterClient.sol\";\nimport {OwnerIsCreator} from \"@chainlink/contracts/src/v0.8/shared/access/OwnerIsCreator.sol\";\nimport {Client} from \"@chainlink/contracts/src/v0.8/ccip/libraries/Client.sol\";\nimport {CCIPReceiver} from \"@chainlink/contracts/src/v0.8/ccip/applications/CCIPReceiver.sol\";\nimport {IERC20} from \"@chainlink/contracts/src/v0.8/vendor/openzeppelin-solidity/v4.8.3/contracts/token/ERC20/IERC20.sol\";\nimport {SafeERC20} from \"@chainlink/contracts/src/v0.8/vendor/openzeppelin-solidity/v4.8.3/contracts/token/ERC20/utils/SafeERC20.sol\";\nimport \"./utils_node/UtilsNode.sol\";\nimport \"../interfaces/IWETH9.sol\";\n\n//uniswap V3\nimport \"../interfaces/uniswap_V3/swap/ISwapRouter02.sol\";\n//AAVE interfaces\nimport \"../interfaces/IPool.sol\";\nimport \"../interfaces/IPoolDataProvider.sol\";\n//master contract interface\nimport \"../interfaces/IMasterNode.sol\";\n\ncontract Node is CCIPReceiver, OwnerIsCreator, UtilsNode {\n    using SafeERC20 for IERC20;\n\n    error NotEnoughBalance(uint256 currentBalance, uint256 calculatedFees); // Used to make sure contract has enough balance to cover the fees.\n\n    uint256 public maxVaultAmount = 2000000 * 10 ** 6;\n    bool public isNodeActive;\n    address[] public allowedNodes;\n\n    uint64 public immutable MASTER_CONTRACT_CHAIN_ID;\n    address public immutable MASTER_CONTRACT_ADDRESS;\n    uint64 public immutable NODE_CONTRACT_CHAIN_ID;\n    address public immutable POOL_ADDRESS_PROVIDER_ADDRESS;\n    address public immutable POOL_DATA_PROVIDER_ADDRESS;\n    address public immutable USDC_ADDRESS;\n    address public immutable aUSDC_ADDRESS;\n    address public immutable WETH_ADDRESS;\n    uint16 public immutable uinswapFeePool;\n\n    IERC20 private s_linkToken;\n    ISwapRouter02 public iSwapRouter02;\n\n    uint256 public aWrpTotalSupplyNodeSide;\n\n    mapping(address => uint256) public avaliableForRefund;\n\n    ////////////////////////////////////////////////////////////////////////\n    ///////////////////////  TESTING  ///////////////////////////////////////\n    ////////////////////////////////////////////////////////////////////////\n\n    ////////////////////////////////////////////////////////////////////////\n    ////////////////////////////////////////////////////////////////////////\n\n    /// @notice Constructor initializes the contract with the router address.\n    /// @param _router The address of the router contract.\n    /// @param _link The address of the link contract.\n    constructor(\n        address _router,\n        address _link,\n        address _USDC_ADDRESS,\n        address _aUSDC_ADDRESS,\n        address _WETH_ADDRESS,\n        uint64 _MASTER_CONTRACT_CHAIN_ID,\n        address _MASTER_CONTRACT_ADDRESS,\n        uint64 _NODE_CONTRACT_CHAIN_ID,\n        address _POOL_ADDRESS_PROVIDER_ADDRESS,\n        address _POOL_DATA_PROVIDER_ADDRESS,\n        address _UNISWAP_V3_ROUTER02,\n        bool _isNodeActive,\n        uint16 _uinswapFeePool\n    ) CCIPReceiver(_router) {\n        s_linkToken = IERC20(_link);\n        USDC_ADDRESS = _USDC_ADDRESS;\n        aUSDC_ADDRESS = _aUSDC_ADDRESS;\n        WETH_ADDRESS = _WETH_ADDRESS;\n        MASTER_CONTRACT_CHAIN_ID = _MASTER_CONTRACT_CHAIN_ID;\n        MASTER_CONTRACT_ADDRESS = _MASTER_CONTRACT_ADDRESS;\n        NODE_CONTRACT_CHAIN_ID = _NODE_CONTRACT_CHAIN_ID;\n        POOL_ADDRESS_PROVIDER_ADDRESS = _POOL_ADDRESS_PROVIDER_ADDRESS;\n        POOL_DATA_PROVIDER_ADDRESS = _POOL_DATA_PROVIDER_ADDRESS;\n\n        // uniswap interfaces\n        iSwapRouter02 = ISwapRouter02(_UNISWAP_V3_ROUTER02);\n\n        isNodeActive = _isNodeActive;\n        uinswapFeePool = _uinswapFeePool;\n    }\n\n    // set Allowed Nodes, can only be called once!\n    function setAllowedNodes(\n        address[] memory _allowedNodes\n    ) external onlyOwner {\n        require(_allowedNodes.length > 0, \"You sent an empty array\");\n        require(allowedNodes.length == 0, \"allowedNodes must be empty\");\n        allowedNodes = _allowedNodes;\n    }\n\n    // Internal function to check if an address is in the allowedNodes array\n    function isAllowedAddress(\n        address _nodeOrMaster\n    ) internal view returns (bool) {\n        for (uint16 i = 0; i < allowedNodes.length; i++) {\n            if (allowedNodes[i] == _nodeOrMaster) {\n                return true;\n            }\n        }\n        if (_nodeOrMaster == MASTER_CONTRACT_ADDRESS) {\n            return true;\n        }\n        return false;\n    }\n\n    // Modifier to check if msg.sender is in the allowedNodes array\n    modifier onlyAllowedAddresses(address senderAddress) {\n        require(\n            isAllowedAddress(senderAddress),\n            \"Caller is not an allowed node\"\n        );\n        _;\n    }\n\n    modifier masterAndNodeInSameChain() {\n        require(\n            NODE_CONTRACT_CHAIN_ID == MASTER_CONTRACT_CHAIN_ID,\n            \"Require master and node in same chain\"\n        );\n        _;\n    }\n\n    /////////////////////////////////////////////////////////////////////////\n    ////////////////////////////////////////////////////////////////////////\n    //////////////////////////  RECEIVING MESSAGES  ///////////////////////\n    //////////////////////////////////////////////////////////////////////\n    /////////////////////////////////////////////////////////////////////\n\n    /////////////////////////////////////////////////////////////////////////\n    //////////////////////////  HANDLE WITHDRAW  ///////////////////////////\n    ///////////////////////////  COMMAND = 0  /////////////////////////////\n    //////////////////////////////////////////////////////////////////////\n\n    function _withdraw(Client.Any2EVMMessage memory _any2EvmMessage) internal {\n        (, address transferToUser, uint256 shares) = abi.decode(\n            _any2EvmMessage.data,\n            (uint8, address, uint256)\n        );\n\n        address pool = _getPool(POOL_ADDRESS_PROVIDER_ADDRESS);\n        uint256 totalAusdc = IERC20(aUSDC_ADDRESS).balanceOf(address(this));\n\n        uint256 amount = ((shares * 10 ** 18) * totalAusdc) /\n            aWrpTotalSupplyNodeSide;\n\n        aWrpTotalSupplyNodeSide -= shares;\n\n        if (!isNodeActive) {\n            avaliableForRefund[transferToUser] += shares;\n        } else {\n            IERC20(aUSDC_ADDRESS).approve(pool, amount / 10 ** 18);\n            IPool(pool).withdraw(\n                USDC_ADDRESS,\n                amount / 10 ** 18,\n                transferToUser\n            );\n        }\n    }\n\n    /////////////////////  WITHDRAW MASTER AND NODE IN SAME CHAIN  ///////////////////////\n\n    function withdrawFromSameChain(\n        address transferToUser,\n        uint256 shares\n    ) external masterAndNodeInSameChain {\n        require(\n            msg.sender == MASTER_CONTRACT_ADDRESS,\n            \"Only Master Contract allowed\"\n        );\n\n        address pool = _getPool(POOL_ADDRESS_PROVIDER_ADDRESS);\n        uint256 totalAusdc = IERC20(aUSDC_ADDRESS).balanceOf(address(this));\n\n        uint256 amount = ((shares * 10 ** 18) * totalAusdc) /\n            aWrpTotalSupplyNodeSide;\n\n        aWrpTotalSupplyNodeSide -= shares;\n\n        if (!isNodeActive) {\n            avaliableForRefund[transferToUser] += shares;\n        } else {\n            IERC20(aUSDC_ADDRESS).approve(pool, amount / 10 ** 18);\n            IPool(pool).withdraw(\n                USDC_ADDRESS,\n                amount / 10 ** 18,\n                transferToUser\n            );\n        }\n    }\n\n    /////////////////////////////////////////////////////////////////////////\n    ////////////////////////  HANDLE WARP ASSETS  //////////////////////////\n    ///////////////////////////  COMMAND = 1  //////////////////////////////\n    ///////////////////////////////////////////////////////////////////////\n\n    function _warpAssets(\n        Client.Any2EVMMessage memory _any2EvmMessage\n    ) internal {\n        (, uint64 _destinationChainSelector, address _receiver) = abi.decode(\n            _any2EvmMessage.data,\n            (uint8, uint64, address)\n        );\n        uint256 usdcwithdrawn = _assetsAllocationWithdraw(\n            POOL_ADDRESS_PROVIDER_ADDRESS,\n            aUSDC_ADDRESS,\n            USDC_ADDRESS\n        );\n\n        uint8 commandAWRPSupply = 2;\n        bytes memory data = abi.encode(\n            commandAWRPSupply,\n            aWrpTotalSupplyNodeSide\n        );\n\n        isNodeActive = false;\n        _sendMessage(\n            _destinationChainSelector,\n            _receiver,\n            data,\n            USDC_ADDRESS,\n            usdcwithdrawn,\n            true\n        );\n    }\n\n    /////////////  WARP ASSETS MASTER AND NODE IN SAME CHAIN  //////////////\n    function warpAssetsFromSameChain(\n        uint64 _destinationChainSelector,\n        address _receiver\n    ) external {\n        uint256 usdcwithdrawn = _assetsAllocationWithdraw(\n            POOL_ADDRESS_PROVIDER_ADDRESS,\n            aUSDC_ADDRESS,\n            USDC_ADDRESS\n        );\n\n        uint8 commandAWRPSupply = 2;\n        bytes memory data = abi.encode(\n            commandAWRPSupply,\n            aWrpTotalSupplyNodeSide\n        );\n\n        isNodeActive = false;\n        _sendMessage(\n            _destinationChainSelector,\n            _receiver,\n            data,\n            USDC_ADDRESS,\n            usdcwithdrawn,\n            true\n        );\n    }\n\n    /////////////// ONLY FOR TESTING ////////////////////////\n    function warpAssetsTester(\n        uint64 _destinationChainSelector,\n        address _receiver\n    ) public {\n        uint256 usdcwithdrawn = _assetsAllocationWithdraw(\n            POOL_ADDRESS_PROVIDER_ADDRESS,\n            aUSDC_ADDRESS,\n            USDC_ADDRESS\n        );\n\n        uint8 commandAWRPSupply = 2;\n        bytes memory data = abi.encode(\n            commandAWRPSupply,\n            aWrpTotalSupplyNodeSide\n        );\n\n        isNodeActive = false;\n        _sendMessage(\n            _destinationChainSelector,\n            _receiver,\n            data,\n            USDC_ADDRESS,\n            usdcwithdrawn,\n            true\n        );\n    }\n\n    /////////////////////////////////////////////////////////////////////////\n    /////////////////////  HANDLE RESUME OPERATIONS  ///////////////////////\n    ///////////////////////////  COMMAND = 2  //////////////////////////////\n    ///////////////////////////////////////////////////////////////////////\n\n    function _allocateAssetsAndSetAWRPSupply(\n        Client.Any2EVMMessage memory _any2EvmMessage\n    ) internal {\n        (, uint256 _aWrpSupplyFromOldNode) = abi.decode(\n            _any2EvmMessage.data,\n            (uint8, uint256)\n        );\n\n        // dont need this here because _assetAllocationDeposit is called in _sendMessage\n        // I left this line commented and not deleted to understand why is not called here\n        //_assetsAllocationDeposit(POOL_ADDRESS_PROVIDER_ADDRESS, USDC_ADDRESS);\n\n        aWrpTotalSupplyNodeSide = _aWrpSupplyFromOldNode;\n\n        uint8 commandResumeOperations = 1;\n        isNodeActive = true;\n\n        bytes memory data = abi.encode(commandResumeOperations);\n\n        if (NODE_CONTRACT_CHAIN_ID == MASTER_CONTRACT_CHAIN_ID) {\n            // here is needed cuz no message is sent\n            _assetsAllocationDeposit(\n                POOL_ADDRESS_PROVIDER_ADDRESS,\n                USDC_ADDRESS\n            );\n            IMasterNode(MASTER_CONTRACT_ADDRESS)\n                ._resmumeOperationsFromSameChain();\n        } else {\n            _sendMessage(\n                MASTER_CONTRACT_CHAIN_ID,\n                MASTER_CONTRACT_ADDRESS,\n                data,\n                address(0),\n                0,\n                true\n            );\n        }\n    }\n    //////////////////////////////////////////////////////////////////////////\n    /////////////////////////////////////////////////////////////////////////\n    ////////////////////////  INCOMING MESAGE HANDLER  /////////////////////\n    /////////////////  THIS FUNC IS CALLED BY CHAINLINK  //////////////////\n    //////////////////////////////////////////////////////////////////////\n    /////////////////////////////////////////////////////////////////////\n\n    function _ccipReceive(\n        Client.Any2EVMMessage memory _any2EvmMessage\n    )\n        internal\n        override\n        onlyAllowedAddresses(abi.decode(_any2EvmMessage.sender, (address)))\n    {\n        uint8 command = _internalCommandRouter(_any2EvmMessage);\n\n        if (command == 0) {\n            _withdraw(_any2EvmMessage);\n        } else if (command == 1) {\n            _warpAssets(_any2EvmMessage);\n        } else if (command == 2) {\n            _allocateAssetsAndSetAWRPSupply(_any2EvmMessage);\n        } else {\n            revert(\"invalid command\");\n        }\n    }\n    /////////////////////////////////////////////////////////////////////////\n    ////////////////////////////////////////////////////////////////////////\n    ///////////////////////  OUTGOING MESSAGES HANDLER  ///////////////////\n    //////////////////////////////////////////////////////////////////////\n    /////////////////////////////////////////////////////////////////////\n\n    function _sendMessage(\n        uint64 _destinationChainSelector,\n        address _receiver,\n        bytes memory _data,\n        address _token,\n        uint256 _amount,\n        bool isPayingNative\n    ) internal onlyAllowedAddresses(_receiver) returns (bytes32 messageId) {\n        // Create an EVM2AnyMessage struct in memory with necessary information for sending a cross-chain message\n        // address(s_linkToken) means fees are paid in LINK\n        uint256 newAmount;\n        if (_amount > 0) {\n            newAmount = _amount;\n        }\n\n        address tokenFee;\n        if (isPayingNative) {\n            tokenFee = address(0);\n        } else {\n            tokenFee = address(s_linkToken);\n        }\n\n        Client.EVM2AnyMessage memory evm2AnyMessage = _buildCCIPMessage(\n            _receiver,\n            _data,\n            _token,\n            newAmount,\n            tokenFee\n        );\n\n        // Initialize a router client instance to interact with cross-chain router\n        IRouterClient routerCCIP = IRouterClient(this.getRouter());\n\n        // Get the fee required to send the CCIP message\n        uint256 fees = routerCCIP.getFee(\n            _destinationChainSelector,\n            evm2AnyMessage\n        );\n\n        // When an incoming message requires to pay the fees on native token\n        // This will sell some USDC from the vault to get the eth needed to pay the fees\n        uint256 amountInUsdc;\n        if (isPayingNative) {\n            amountInUsdc = _getNativeFees(fees);\n            if (newAmount > 0) {\n                evm2AnyMessage = _buildCCIPMessage(\n                    _receiver,\n                    _data,\n                    _token,\n                    newAmount - amountInUsdc,\n                    tokenFee\n                );\n            }\n        }\n\n        if (isPayingNative) {\n            if (fees > address(this).balance) {\n                revert NotEnoughBalance(address(this).balance, fees);\n            }\n        } else {\n            require(\n                s_linkToken.transferFrom(msg.sender, address(this), fees),\n                \"Not provided Link for fees\"\n            );\n            if (fees > s_linkToken.balanceOf(address(this)))\n                revert NotEnoughBalance(\n                    s_linkToken.balanceOf(address(this)),\n                    fees\n                );\n            s_linkToken.approve(address(routerCCIP), fees);\n        }\n\n        // approve the Router to spend tokens on contract's behalf. It will spend the amount of the given token\n        if (_token != address(0)) {\n            IERC20(_token).approve(address(routerCCIP), newAmount);\n        }\n\n        // Send the message through the router and store the returned message ID\n        if (isPayingNative) {\n            messageId = routerCCIP.ccipSend{value: fees}(\n                _destinationChainSelector,\n                evm2AnyMessage\n            );\n        } else {\n            messageId = routerCCIP.ccipSend(\n                _destinationChainSelector,\n                evm2AnyMessage\n            );\n        }\n\n        uint256 usdcBalance = IERC20(USDC_ADDRESS).balanceOf(address(this));\n        if (usdcBalance > 0) {\n            _assetsAllocationDeposit(\n                POOL_ADDRESS_PROVIDER_ADDRESS,\n                USDC_ADDRESS\n            );\n        }\n\n        // Return the message ID\n        return messageId;\n    }\n\n    /// @notice Construct a CCIP message.\n    /// @dev This function will create an EVM2AnyMessage struct with all the necessary information for programmable tokens transfer.\n    /// @param _receiver The address of the receiver.\n    /// @param _data The bytes data to be sent.\n    /// @param _token The token to be transferred.\n    /// @param _amount The amount of the token to be transferred.\n    /// @param _feeTokenAddress The address of the token used for fees. Set address(0) for native gas.\n    /// @return Client.EVM2AnyMessage Returns an EVM2AnyMessage struct which contains information for sending a CCIP message.\n    function _buildCCIPMessage(\n        address _receiver,\n        bytes memory _data,\n        address _token,\n        uint256 _amount,\n        address _feeTokenAddress\n    ) private returns (Client.EVM2AnyMessage memory) {\n        // Set the token amounts\n        Client.EVMTokenAmount[] memory tokenAmounts;\n\n        if (_token == address(0) && _amount == 0) {\n            tokenAmounts = new Client.EVMTokenAmount[](0);\n        } else {\n            tokenAmounts = new Client.EVMTokenAmount[](1);\n            tokenAmounts[0] = Client.EVMTokenAmount({\n                token: _token,\n                amount: _amount\n            });\n        }\n        // Create an EVM2AnyMessage struct in memory with necessary information for sending a cross-chain message\n        return\n            Client.EVM2AnyMessage({\n                receiver: abi.encode(_receiver), // ABI-encoded receiver address\n                data: _data, // ABI-encoded string\n                tokenAmounts: tokenAmounts, // The amount and type of token being transferred\n                extraArgs: Client._argsToBytes(\n                    // Additional arguments, setting gas limit\n                    Client.EVMExtraArgsV1({gasLimit: 2_000_000})\n                ),\n                // Set the feeToken to a feeTokenAddress, indicating specific asset will be used for fees\n                feeToken: _feeTokenAddress\n            });\n    }\n\n    /////////////////////////////////////////////////////////////////////////\n    /////////////////////////////////////////////////////////////////////////\n    //////////////////////////  SENDING MESSAGES  //////////////////////////\n    ///////////////////////////////////////////////////////////////////////\n    //////////////////////////////////////////////////////////////////////\n\n    /////////////////////////////////////////////////////////////////////////\n    ///////////////////////////////   DEPOSIT   ////////////////////////////\n    ///////////////////////////////////////////////////////////////////////\n\n    function deposit(uint256 amount) external {\n        require(\n            IERC20(USDC_ADDRESS).transferFrom(\n                msg.sender,\n                address(this),\n                amount\n            ),\n            \"Failed to transfer amount\"\n        );\n        require(\n            isNodeActive,\n            \"Asets are Warping Now, deposits on new blockchain\"\n        );\n\n        uint256 totalAusdcNode = IERC20(aUSDC_ADDRESS).balanceOf(address(this));\n        require(\n            totalAusdcNode + amount < maxVaultAmount,\n            \"Node furfilled no more depsits allowed\"\n        );\n        uint256 shares;\n        if (aWrpTotalSupplyNodeSide == 0) {\n            shares = amount * 10 ** 12;\n        } else {\n            shares = (amount * aWrpTotalSupplyNodeSide) / totalAusdcNode;\n        }\n\n        aWrpTotalSupplyNodeSide += shares;\n\n        uint8 command = 0;\n        bytes memory data = abi.encode(command, msg.sender, shares);\n\n        address pool = _getPool(POOL_ADDRESS_PROVIDER_ADDRESS);\n        IERC20(USDC_ADDRESS).approve(pool, amount);\n        IPool(pool).deposit(USDC_ADDRESS, amount, address(this), 0);\n\n        if (NODE_CONTRACT_CHAIN_ID == MASTER_CONTRACT_CHAIN_ID) {\n            IMasterNode(MASTER_CONTRACT_ADDRESS).aWarpTokenMinterFromSameChain(\n                msg.sender,\n                shares\n            );\n        } else {\n            _sendMessage(\n                MASTER_CONTRACT_CHAIN_ID,\n                MASTER_CONTRACT_ADDRESS,\n                data,\n                address(0),\n                0,\n                false\n            );\n        }\n    }\n\n    /////////////////////////////////////////////////////////////////////////\n    ///////////////   RECOVER aWRP FROM A FAILED WITHDRAW   ////////////////\n    ///////////////////////////////////////////////////////////////////////\n\n    function recoverAWRPFromFailedWithdraw() external {\n        require(avaliableForRefund[msg.sender] > 0, \"No aWRP tokens to refund\");\n        uint256 sharesToRefund = avaliableForRefund[msg.sender];\n\n        uint8 commandRefundAWRP = 0; // Same command than deposit\n        bytes memory data = abi.encode(\n            commandRefundAWRP,\n            msg.sender,\n            sharesToRefund\n        );\n\n        if (NODE_CONTRACT_CHAIN_ID == MASTER_CONTRACT_CHAIN_ID) {\n            IMasterNode(MASTER_CONTRACT_ADDRESS).aWarpTokenMinterFromSameChain(\n                msg.sender,\n                sharesToRefund\n            );\n        } else {\n            _sendMessage(\n                MASTER_CONTRACT_CHAIN_ID,\n                MASTER_CONTRACT_ADDRESS,\n                data,\n                address(0),\n                0,\n                false\n            );\n        }\n    }\n\n    /////////////////////////////////////////////////////////////////////////\n    /////////////////////   SEND DATA NODE TO MASTER   /////////////////////\n    ///////////////////////////////////////////////////////////////////////\n\n    function sendAaveData() external {\n        (\n            ,\n            ,\n            uint256 totalAToken,\n            ,\n            uint256 totalVariableDebt,\n            uint256 liquidityRate,\n            ,\n            ,\n            ,\n            ,\n            ,\n\n        ) = IPoolDataProvider(POOL_DATA_PROVIDER_ADDRESS).getReserveData(\n                USDC_ADDRESS\n            );\n\n        uint256 totalAusdcNode = IERC20(aUSDC_ADDRESS).balanceOf(address(this));\n\n        uint8 commandSendAaveData = 2;\n        bytes memory data = abi.encode(\n            commandSendAaveData,\n            totalAToken,\n            totalVariableDebt,\n            totalVariableDebt,\n            totalAusdcNode\n        );\n        if (NODE_CONTRACT_CHAIN_ID == MASTER_CONTRACT_CHAIN_ID) {\n            IMasterNode(MASTER_CONTRACT_ADDRESS).nodeAaveFeedFromSameChain(\n                totalAToken,\n                totalVariableDebt,\n                totalVariableDebt,\n                totalAusdcNode\n            );\n        } else {\n            _sendMessage(\n                MASTER_CONTRACT_CHAIN_ID,\n                MASTER_CONTRACT_ADDRESS,\n                data,\n                address(0),\n                0,\n                false\n            );\n        }\n    }\n\n    /// @notice Fallback function to allow the contract to receive Ether.\n    /// @dev This function has no function body, making it a default function for receiving Ether.\n    /// It is automatically called when Ether is sent to the contract without any data.\n    receive() external payable {}\n\n    /////////////////////////////////////////////////////////////////////////\n    /////////////////////////////   UTILS   ////////////////////////////////\n    ///////////////////////////////////////////////////////////////////////\n\n    function _getNativeFees(uint256 fees) internal returns (uint256) {\n        // Approve the router to spend USDC.\n        uint256 ausdcBalance = IERC20(aUSDC_ADDRESS).balanceOf(address(this));\n        if (ausdcBalance > 0) {\n            _assetsAllocationWithdraw(\n                POOL_ADDRESS_PROVIDER_ADDRESS,\n                aUSDC_ADDRESS,\n                USDC_ADDRESS\n            );\n        }\n\n        uint256 usdcBalance = IERC20(USDC_ADDRESS).balanceOf(address(this));\n        IERC20(USDC_ADDRESS).approve(address(iSwapRouter02), usdcBalance);\n\n        // Set up the parameters for the swap.\n        ISwapRouter02.ExactOutputSingleParams memory params = ISwapRouter02\n            .ExactOutputSingleParams({\n                tokenIn: USDC_ADDRESS,\n                tokenOut: WETH_ADDRESS,\n                fee: uinswapFeePool,\n                recipient: address(this),\n                amountOut: fees,\n                amountInMaximum: usdcBalance, // for testing dont mind slipperage\n                sqrtPriceLimitX96: 0\n            });\n\n        // Execute the swap.\n        uint256 amountIn = iSwapRouter02.exactOutputSingle(params);\n        IWETH9(WETH_ADDRESS).withdraw(fees);\n        return amountIn;\n    }\n\n    //frontend stuff, no impcat in contract\n    function calculateSharesValue(\n        uint256 shares\n    ) external view returns (uint256) {\n        uint256 totalAusdc = IERC20(aUSDC_ADDRESS).balanceOf(address(this));\n\n        uint256 amount = ((shares * 10 ** 18) * totalAusdc) /\n            aWrpTotalSupplyNodeSide;\n\n        return amount / 10 ** 18;\n    }\n}\n",
  "sourcePath": "contracts/Node.sol",
  "type": "contract"
}