{
  "abi": [
    {
      "inputs": [
        {
          "internalType": "address",
          "name": "_router",
          "type": "address"
        },
        {
          "internalType": "address",
          "name": "_link",
          "type": "address"
        },
        {
          "internalType": "address",
          "name": "_USDC_ADDRESS",
          "type": "address"
        },
        {
          "internalType": "address",
          "name": "_aUSDC_ADDRESS",
          "type": "address"
        },
        {
          "internalType": "address",
          "name": "_WETH_ADDRESS",
          "type": "address"
        },
        {
          "internalType": "uint64",
          "name": "_MASTER_CONTRACT_CHAIN_ID",
          "type": "uint64"
        },
        {
          "internalType": "address",
          "name": "_MASTER_CONTRACT_ADDRESS",
          "type": "address"
        },
        {
          "internalType": "uint64",
          "name": "_NODE_CONTRACT_CHAIN_ID",
          "type": "uint64"
        },
        {
          "internalType": "address",
          "name": "_POOL_ADDRESS_PROVIDER_ADDRESS",
          "type": "address"
        },
        {
          "internalType": "address",
          "name": "_POOL_DATA_PROVIDER_ADDRESS",
          "type": "address"
        },
        {
          "internalType": "address",
          "name": "_UNISWAP_V3_ROUTER02",
          "type": "address"
        },
        {
          "internalType": "bool",
          "name": "_isNodeActive",
          "type": "bool"
        },
        {
          "internalType": "uint16",
          "name": "_uinswapFeePool",
          "type": "uint16"
        }
      ],
      "stateMutability": "nonpayable",
      "type": "constructor"
    },
    {
      "inputs": [
        {
          "internalType": "address",
          "name": "router",
          "type": "address"
        }
      ],
      "name": "InvalidRouter",
      "type": "error"
    },
    {
      "inputs": [
        {
          "internalType": "uint256",
          "name": "currentBalance",
          "type": "uint256"
        },
        {
          "internalType": "uint256",
          "name": "calculatedFees",
          "type": "uint256"
        }
      ],
      "name": "NotEnoughBalance",
      "type": "error"
    },
    {
      "anonymous": false,
      "inputs": [
        {
          "indexed": true,
          "internalType": "address",
          "name": "userAddress",
          "type": "address"
        },
        {
          "indexed": true,
          "internalType": "uint256",
          "name": "amountUsdc",
          "type": "uint256"
        },
        {
          "indexed": true,
          "internalType": "uint256",
          "name": "amountAwrp",
          "type": "uint256"
        }
      ],
      "name": "DepositAssets",
      "type": "event"
    },
    {
      "anonymous": false,
      "inputs": [
        {
          "indexed": true,
          "internalType": "address",
          "name": "from",
          "type": "address"
        },
        {
          "indexed": true,
          "internalType": "address",
          "name": "to",
          "type": "address"
        }
      ],
      "name": "OwnershipTransferRequested",
      "type": "event"
    },
    {
      "anonymous": false,
      "inputs": [
        {
          "indexed": true,
          "internalType": "address",
          "name": "from",
          "type": "address"
        },
        {
          "indexed": true,
          "internalType": "address",
          "name": "to",
          "type": "address"
        }
      ],
      "name": "OwnershipTransferred",
      "type": "event"
    },
    {
      "anonymous": false,
      "inputs": [
        {
          "indexed": true,
          "internalType": "uint64",
          "name": "detinationCCIPid",
          "type": "uint64"
        },
        {
          "indexed": true,
          "internalType": "address",
          "name": "destinationNodeAddress",
          "type": "address"
        },
        {
          "indexed": true,
          "internalType": "uint256",
          "name": "amount",
          "type": "uint256"
        }
      ],
      "name": "WarpAssets",
      "type": "event"
    },
    {
      "anonymous": false,
      "inputs": [
        {
          "indexed": true,
          "internalType": "uint8",
          "name": "commandResmueOperations",
          "type": "uint8"
        }
      ],
      "name": "WarpCompletedNodeReady",
      "type": "event"
    },
    {
      "inputs": [],
      "name": "MASTER_CONTRACT_ADDRESS",
      "outputs": [
        {
          "internalType": "address",
          "name": "",
          "type": "address"
        }
      ],
      "stateMutability": "view",
      "type": "function"
    },
    {
      "inputs": [],
      "name": "MASTER_CONTRACT_CHAIN_ID",
      "outputs": [
        {
          "internalType": "uint64",
          "name": "",
          "type": "uint64"
        }
      ],
      "stateMutability": "view",
      "type": "function"
    },
    {
      "inputs": [],
      "name": "NODE_CONTRACT_CHAIN_ID",
      "outputs": [
        {
          "internalType": "uint64",
          "name": "",
          "type": "uint64"
        }
      ],
      "stateMutability": "view",
      "type": "function"
    },
    {
      "inputs": [],
      "name": "POOL_ADDRESS_PROVIDER_ADDRESS",
      "outputs": [
        {
          "internalType": "address",
          "name": "",
          "type": "address"
        }
      ],
      "stateMutability": "view",
      "type": "function"
    },
    {
      "inputs": [],
      "name": "POOL_DATA_PROVIDER_ADDRESS",
      "outputs": [
        {
          "internalType": "address",
          "name": "",
          "type": "address"
        }
      ],
      "stateMutability": "view",
      "type": "function"
    },
    {
      "inputs": [],
      "name": "USDC_ADDRESS",
      "outputs": [
        {
          "internalType": "address",
          "name": "",
          "type": "address"
        }
      ],
      "stateMutability": "view",
      "type": "function"
    },
    {
      "inputs": [],
      "name": "WETH_ADDRESS",
      "outputs": [
        {
          "internalType": "address",
          "name": "",
          "type": "address"
        }
      ],
      "stateMutability": "view",
      "type": "function"
    },
    {
      "inputs": [],
      "name": "aUSDC_ADDRESS",
      "outputs": [
        {
          "internalType": "address",
          "name": "",
          "type": "address"
        }
      ],
      "stateMutability": "view",
      "type": "function"
    },
    {
      "inputs": [],
      "name": "aWrpTotalSupplyNodeSide",
      "outputs": [
        {
          "internalType": "uint256",
          "name": "",
          "type": "uint256"
        }
      ],
      "stateMutability": "view",
      "type": "function"
    },
    {
      "inputs": [],
      "name": "acceptOwnership",
      "outputs": [],
      "stateMutability": "nonpayable",
      "type": "function"
    },
    {
      "inputs": [
        {
          "internalType": "uint256",
          "name": "",
          "type": "uint256"
        }
      ],
      "name": "allowedNodes",
      "outputs": [
        {
          "internalType": "address",
          "name": "",
          "type": "address"
        }
      ],
      "stateMutability": "view",
      "type": "function"
    },
    {
      "inputs": [
        {
          "internalType": "address",
          "name": "",
          "type": "address"
        }
      ],
      "name": "avaliableForRefund",
      "outputs": [
        {
          "internalType": "uint256",
          "name": "",
          "type": "uint256"
        }
      ],
      "stateMutability": "view",
      "type": "function"
    },
    {
      "inputs": [
        {
          "internalType": "uint256",
          "name": "shares",
          "type": "uint256"
        }
      ],
      "name": "calculateSharesValue",
      "outputs": [
        {
          "internalType": "uint256",
          "name": "",
          "type": "uint256"
        }
      ],
      "stateMutability": "view",
      "type": "function"
    },
    {
      "inputs": [
        {
          "components": [
            {
              "internalType": "bytes32",
              "name": "messageId",
              "type": "bytes32"
            },
            {
              "internalType": "uint64",
              "name": "sourceChainSelector",
              "type": "uint64"
            },
            {
              "internalType": "bytes",
              "name": "sender",
              "type": "bytes"
            },
            {
              "internalType": "bytes",
              "name": "data",
              "type": "bytes"
            },
            {
              "components": [
                {
                  "internalType": "address",
                  "name": "token",
                  "type": "address"
                },
                {
                  "internalType": "uint256",
                  "name": "amount",
                  "type": "uint256"
                }
              ],
              "internalType": "struct Client.EVMTokenAmount[]",
              "name": "destTokenAmounts",
              "type": "tuple[]"
            }
          ],
          "internalType": "struct Client.Any2EVMMessage",
          "name": "message",
          "type": "tuple"
        }
      ],
      "name": "ccipReceive",
      "outputs": [],
      "stateMutability": "nonpayable",
      "type": "function"
    },
    {
      "inputs": [
        {
          "internalType": "uint256",
          "name": "amount",
          "type": "uint256"
        }
      ],
      "name": "deposit",
      "outputs": [],
      "stateMutability": "nonpayable",
      "type": "function"
    },
    {
      "inputs": [
        {
          "internalType": "address",
          "name": "poolDAtaProvider",
          "type": "address"
        },
        {
          "internalType": "address",
          "name": "usdcAddress",
          "type": "address"
        }
      ],
      "name": "getAaveSupplyRate",
      "outputs": [
        {
          "internalType": "uint256",
          "name": "",
          "type": "uint256"
        }
      ],
      "stateMutability": "view",
      "type": "function"
    },
    {
      "inputs": [
        {
          "internalType": "uint64",
          "name": "destinationCCIPid",
          "type": "uint64"
        },
        {
          "internalType": "address",
          "name": "receiver",
          "type": "address"
        },
        {
          "internalType": "address",
          "name": "s_linkTokenAddress",
          "type": "address"
        },
        {
          "internalType": "address",
          "name": "routerAddress",
          "type": "address"
        },
        {
          "internalType": "bytes",
          "name": "_data",
          "type": "bytes"
        }
      ],
      "name": "getLinkFees",
      "outputs": [
        {
          "internalType": "uint256",
          "name": "",
          "type": "uint256"
        }
      ],
      "stateMutability": "view",
      "type": "function"
    },
    {
      "inputs": [],
      "name": "getRouter",
      "outputs": [
        {
          "internalType": "address",
          "name": "",
          "type": "address"
        }
      ],
      "stateMutability": "view",
      "type": "function"
    },
    {
      "inputs": [],
      "name": "iSwapRouter02",
      "outputs": [
        {
          "internalType": "contract ISwapRouter02",
          "name": "",
          "type": "address"
        }
      ],
      "stateMutability": "view",
      "type": "function"
    },
    {
      "inputs": [],
      "name": "isNodeActive",
      "outputs": [
        {
          "internalType": "bool",
          "name": "",
          "type": "bool"
        }
      ],
      "stateMutability": "view",
      "type": "function"
    },
    {
      "inputs": [],
      "name": "maxVaultAmount",
      "outputs": [
        {
          "internalType": "uint256",
          "name": "",
          "type": "uint256"
        }
      ],
      "stateMutability": "view",
      "type": "function"
    },
    {
      "inputs": [],
      "name": "owner",
      "outputs": [
        {
          "internalType": "address",
          "name": "",
          "type": "address"
        }
      ],
      "stateMutability": "view",
      "type": "function"
    },
    {
      "inputs": [],
      "name": "recoverAWRPFromFailedWithdraw",
      "outputs": [],
      "stateMutability": "nonpayable",
      "type": "function"
    },
    {
      "inputs": [],
      "name": "sendAaveData",
      "outputs": [],
      "stateMutability": "nonpayable",
      "type": "function"
    },
    {
      "inputs": [
        {
          "internalType": "address[]",
          "name": "_allowedNodes",
          "type": "address[]"
        }
      ],
      "name": "setAllowedNodes",
      "outputs": [],
      "stateMutability": "nonpayable",
      "type": "function"
    },
    {
      "inputs": [
        {
          "internalType": "bytes4",
          "name": "interfaceId",
          "type": "bytes4"
        }
      ],
      "name": "supportsInterface",
      "outputs": [
        {
          "internalType": "bool",
          "name": "",
          "type": "bool"
        }
      ],
      "stateMutability": "pure",
      "type": "function"
    },
    {
      "inputs": [
        {
          "internalType": "address",
          "name": "to",
          "type": "address"
        }
      ],
      "name": "transferOwnership",
      "outputs": [],
      "stateMutability": "nonpayable",
      "type": "function"
    },
    {
      "inputs": [],
      "name": "uinswapFeePool",
      "outputs": [
        {
          "internalType": "uint16",
          "name": "",
          "type": "uint16"
        }
      ],
      "stateMutability": "view",
      "type": "function"
    },
    {
      "inputs": [
        {
          "internalType": "uint64",
          "name": "_destinationChainSelector",
          "type": "uint64"
        },
        {
          "internalType": "address",
          "name": "_receiver",
          "type": "address"
        }
      ],
      "name": "warpAssetsFromSameChain",
      "outputs": [],
      "stateMutability": "nonpayable",
      "type": "function"
    },
    {
      "inputs": [
        {
          "internalType": "address",
          "name": "transferToUser",
          "type": "address"
        },
        {
          "internalType": "uint256",
          "name": "shares",
          "type": "uint256"
        }
      ],
      "name": "withdrawFromSameChain",
      "outputs": [],
      "stateMutability": "nonpayable",
      "type": "function"
    },
    {
      "stateMutability": "payable",
      "type": "receive"
    }
  ],
  "bytecode": "6101c0346200042f57620041c738819003601f8101601f191683016001600160401b0381118482101762000434578392829160405283396101a0928391810103126200042f5762000050816200044a565b916200005f602083016200044a565b91806200006f604082016200044a565b936200007e606083016200044a565b946200008d608084016200044a565b956200009c60a085016200045f565b92620000ab60c086016200044a565b98620000ba60e087016200045f565b986101009a620000cc8c89016200044a565b6101209b620000dd8d8b016200044a565b9261014099620000ef8b8d016200044a565b95610160809d0151998a1515809b036200042f576101809e8f01519b61ffff8d168d036200042f576001600160a01b0399808b161562000416576080523315620003d1578960018060a01b03199b338d60005416176000556501d1a94a2000600255168b60055416176005558d528d528d5260a05260c05260e0528c528a521690600654161760065560ff801960035416911617600355845260405194613d529687620004758839608051878181610c5d0152611550015260a051878181610386015281816105a60152818161094c01528181610cfd01528181611365015281816114f801528181611a5901528181611c7f0152611f13015260c0518781816103d80152818161046a015281816105ff01528181610673015281816109a501528181610a5001528181610d54015281816113bc01528181611af201528181611b820152818161256e015261374c015260e0518781816103ac015281816105d30152818161097901528181610d200152818161138801528181611a7c015261237801525186818161088601528181610d800152818161142f015281816116e40152818161198701528181611acb01528181611f9801528181612169015281816123b201528181612eaf015281816130c601526133da0152518581816102bb0152611305015251848181610289015281816106f30152818161076401528181610ec4015281816113e50152818161181f0152818161194001528181611aaa01528181611d350152818161214701528181612b8b01528181612bf901528181612c4c01528181612e4a01528181612e8e01528181613084015261338801525183818161030e015281816107cf01528181610ca201528181610dbd015281816112380152818161140e0152818161171d0152818161196601528181611cd901528181612b3201526130a5015251828181611ddf015281816126d101528181612c7101528181612d4b0152612d95015251818181611e0a015281816126970152612c9d0152f35b60405162461bcd60e51b815260206004820152601860248201527f43616e6e6f7420736574206f776e657220746f207a65726f00000000000000006044820152606490fd5b6040516335fdcccd60e21b815260006004820152602490fd5b600080fd5b634e487b7160e01b600052604160045260246000fd5b51906001600160a01b03821682036200042f57565b51906001600160401b03821682036200042f5756fe608080604052600436101561001d575b50361561001b57600080fd5b005b600090813560e01c90816301ffc9a71461270057508063040141e5146126bb5780630e508fff1461267c57806315d03dfd14612653578063168010ed146125c05780631d34b4ff1461259d57806332d3ad5e1461255857806336161eb91461253a5780634c8719f31461251c578063544b1709146123e1578063670625801461239c5780637058a5e71461235857806379ba5097146122b457806385572ffb1461151c5780638cf19d19146114d85780638da5cb5b146114b157806397652ffe14611334578063982d1f18146112ef57806398b3c1f814611205578063a19b24b514611009578063a63ca07614610fc5578063af002db814610cd1578063af25617314610c8c578063b0f479a114610c47578063b6b55f2514610722578063bb09d9b7146106dd578063c330a2ed14610534578063d8bba68f14610261578063e227a140146102285763f2fde38b0361000f573461022557602036600319011261022557610189612755565b610191613cca565b6001600160a01b03908116903382146101e057600180546001600160a01b031916831790558254167fed8889f560326eb138920d842192f0eb3dd22b4f139c87a2c57538e05bae12788380a380f35b60405162461bcd60e51b815260206004820152601760248201527f43616e6e6f74207472616e7366657220746f2073656c660000000000000000006044820152606490fd5b80fd5b5034610225576020366003190112610225576020906040906001600160a01b03610250612755565b168152600883522054604051908152f35b50346102255780600319360112610225576040516335ea6a7560e01b81526001600160a01b037f000000000000000000000000000000000000000000000000000000000000000081166004830152906101809081816024817f000000000000000000000000000000000000000000000000000000000000000087165afa918215610529578491859186946104ec575b50506040516370a0823160e01b8152306004820152916020836024817f000000000000000000000000000000000000000000000000000000000000000089165afa9283156104e15786936104a9575b5060405194600260208701528160408701528260608701528460808701528360a087015260a0865260c08601956001600160401b03818810818911176104935788976040527f000000000000000000000000000000000000000000000000000000000000000090808216907f0000000000000000000000000000000000000000000000000000000000000000161460001461045c5750507f00000000000000000000000000000000000000000000000000000000000000001690813b15610458578560849281956040519788968795630453b3ff60e11b875260048701526024860152604485015260648401525af1801561044d5761043d57505080f35b610446906127fc565b6102255780f35b6040513d84823e3d90fd5b8580fd5b9450945050505061048f92507f00000000000000000000000000000000000000000000000000000000000000009061318a565b5080f35b634e487b7160e01b600052604160045260246000fd5b9092506020813d82116104d9575b816104c460209383612845565b810103126104d45751913861033f565b600080fd5b3d91506104b7565b6040513d88823e3d90fd5b9150915061050f9250803d10610522575b6105078183612845565b8101906138ff565b50505050505094509250509038806102f0565b503d6104fd565b6040513d86823e3d90fd5b503461022557806003193601126102255733815260086020526040812054156106985733815260086020528060408120546040516105a4816105968433602084016040909392919360608101946000825260018060a01b031660208201520152565b03601f198101835282612845565b7f00000000000000000000000000000000000000000000000000000000000000006001600160401b03808216907f000000000000000000000000000000000000000000000000000000000000000016146000146106695750507f00000000000000000000000000000000000000000000000000000000000000006001600160a01b0316803b156106655760405163011e0fa960e21b8152336004820152602481019290925282908290604490829084905af1801561044d5761043d57505080f35b5050fd5b90915061048f92507f00000000000000000000000000000000000000000000000000000000000000009061318a565b60405162461bcd60e51b815260206004820152601860248201527f4e6f206157525020746f6b656e7320746f20726566756e6400000000000000006044820152606490fd5b50346102255780600319360112610225576040517f00000000000000000000000000000000000000000000000000000000000000006001600160a01b03168152602090f35b503461022557602080600319360112610a42576040516323b872dd60e01b81523360048083019190915230602483015235604482018190526001600160a01b037f000000000000000000000000000000000000000000000000000000000000000081811694929391929182816064818a8a5af1908115610ac1578791610c2a575b5015610be55760ff6003541615610b86576040516370a0823160e01b81523060048201529482866024817f000000000000000000000000000000000000000000000000000000000000000088165afa958615610ac1578796610b57575b5061080b8587612a34565b6002541115610b025786600754968715600014610ae057505064e8d4a51000808602908682041486151715610acc57879493929161084b86928099612a34565b6007556040805160008682019081523360208201528083018b90528190039182018152949061087d9060600186612845565b806108df6108aa7f00000000000000000000000000000000000000000000000000000000000000006139bd565b60405163095ea7b360e01b81526001600160a01b0382166004820152602481018c905295909486929091839182906044820190565b03925af1928315610ac1578693610a93575b505016803b15610a8f5760405163e8eda9df60e01b81526001600160a01b03929092166004830152602482018690523060448301526000606483015284908290608490829084905af1908115610529578491610a7b575b50507f00000000000000000000000000000000000000000000000000000000000000006001600160401b03808216907f00000000000000000000000000000000000000000000000000000000000000001614600014610a465750507f000000000000000000000000000000000000000000000000000000000000000016803b15610a425760405163011e0fa960e21b8152336004820152602481018590529082908290604490829084905af1801561044d57610a2a575b50505b337fecce874b8763e37231b6791dc5866441104332ef19f5de5516a7dc20c041b1ca8480a480f35b610a33906127fc565b610a3e5782386109ff565b8280fd5b5080fd5b909150610a7592507f00000000000000000000000000000000000000000000000000000000000000009061318a565b50610a02565b610a84906127fc565b610a3e578238610948565b8480fd5b81610ab292903d10610aba575b610aaa8183612845565b810190612a1c565b5038806108f1565b503d610aa0565b6040513d89823e3d90fd5b634e487b7160e01b88526011600452602488fd5b9161084b610afb8397969594610af68b8b612920565b6129ef565b8099612a34565b60405162461bcd60e51b815260048101849052602760248201527f4e6f64652066757266696c6c6564206e6f206d6f7265206465706f7369747320604482015266185b1b1bddd95960ca1b6064820152608490fd5b9095508281813d8311610b7f575b610b6f8183612845565b810103126104d457519438610800565b503d610b65565b60405162461bcd60e51b815260048101839052603160248201527f4173657473206172652057617270696e67204e6f772c206465706f736974732060448201527037b7103732bb90313637b1b5b1b430b4b760791b6064820152608490fd5b60405162461bcd60e51b815260048101839052601960248201527f4661696c656420746f207472616e7366657220616d6f756e74000000000000006044820152606490fd5b610c419150833d8511610aba57610aaa8183612845565b386107a3565b50346102255780600319360112610225576040517f00000000000000000000000000000000000000000000000000000000000000006001600160a01b03168152602090f35b50346102255780600319360112610225576040517f00000000000000000000000000000000000000000000000000000000000000006001600160a01b03168152602090f35b503461022557604036600319011261022557610ceb612755565b60243590610d466001600160401b03807f000000000000000000000000000000000000000000000000000000000000000016907f00000000000000000000000000000000000000000000000000000000000000001614612949565b6001600160a01b03610d7b337f00000000000000000000000000000000000000000000000000000000000000008316146129a3565b610da47f00000000000000000000000000000000000000000000000000000000000000006139bd565b6040516370a0823160e01b8152306004820152602093917f00000000000000000000000000000000000000000000000000000000000000008416918581602481865afa908115610fba578891610f8d575b50670de0b6b3a764000090818802888104831489151715610f795790610e1a91612920565b610e3188610e2b60075480946129ef565b92612a0f565b60075560035460ff16610e5f5750505050906008929116845252610e5a60408320918254612a34565b905580f35b60405163095ea7b360e01b81526001600160a01b038416600482015291900460248201819052959650949091879087908790604490829085905af1948515610f6c57610f0b968896610f4f575b50604051631a4ca37b60e21b81526001600160a01b037f00000000000000000000000000000000000000000000000000000000000000008116600483015260248201949094529290941660448301529094859384929183906064820190565b0393165af18015610f4457610f1f57505080f35b813d8311610f3d575b610f328183612845565b810103126104d45780f35b503d610f28565b6040513d85823e3d90fd5b610f6590873d8911610aba57610aaa8183612845565b5038610eac565b50604051903d90823e3d90fd5b634e487b7160e01b8a52601160045260248afd5b90508581813d8311610fb3575b610fa48183612845565b810103126104d4575138610df5565b503d610f9a565b6040513d8a823e3d90fd5b50346102255760203660031901126102255760043590600454821015610225576020610ff0836128d3565b905460405160039290921b1c6001600160a01b03168152f35b503461022557602080600319360112610a42576001600160401b03906004358281116112015736602382011215611201578060040135611048816128bc565b906110566040519283612845565b80825283820192836024809360051b830101913683116111fd5783879101915b8383106111e55750505050611089613cca565b8151156111a257600454918261115e575194851161114c5768010000000000000000851161114c57508360045580841061110c575b509060048452835b8381106110d1578480f35b82516001600160a01b03167f8a35acfbc15ff81a39ae7d344fd709f28e8600b4aa8c65c6b64bfe7fe36bd19b820155918101916001016110c6565b837f8a35acfbc15ff81a39ae7d344fd709f28e8600b4aa8c65c6b64bfe7fe36bd19b91820191015b81811061114157506110be565b858155600101611134565b634e487b7160e01b8652604160045285fd5b60405162461bcd60e51b815260048101869052601a818401527f616c6c6f7765644e6f646573206d75737420626520656d7074790000000000006044820152606490fd5b8360176064926040519262461bcd60e51b845260048401528201527f596f752073656e7420616e20656d7074792061727261790000000000000000006044820152fd5b81906111f084612781565b8152019101908690611076565b8880fd5b8380fd5b50346102255760209081600319360112610225576040516370a0823160e01b8152306004828101919091523583826024817f00000000000000000000000000000000000000000000000000000000000000006001600160a01b03165afa918215610f445783926112c0575b50670de0b6b3a764000092838202918083048514901517156112ac57506112a39161129a91612920565b600754906129ef565b04604051908152f35b634e487b7160e01b81526011600452602490fd5b9091508381813d83116112e8575b6112d88183612845565b810103126104d457519038611270565b503d6112ce565b50346102255780600319360112610225576040517f00000000000000000000000000000000000000000000000000000000000000006001600160a01b03168152602090f35b50346102255760403660031901126102255761134e612795565b61135661276b565b906001600160401b036113ae817f000000000000000000000000000000000000000000000000000000000000000016827f00000000000000000000000000000000000000000000000000000000000000001614612949565b6001600160a01b036113e3337f00000000000000000000000000000000000000000000000000000000000000008316146129a3565b7f000000000000000000000000000000000000000000000000000000000000000093611486611453867f00000000000000000000000000000000000000000000000000000000000000007f0000000000000000000000000000000000000000000000000000000000000000613a16565b809660075460405190600260208301526040820152604081526114758161282a565b60ff19600354166003558488612a8d565b501691167f4ee48ab43d52be2082a80761272f218fe0871f5b8dba97d174ec2db28b3b22188480a480f35b5034610225578060031936011261022557546040516001600160a01b039091168152602090f35b503461022557806003193601126102255760206040516001600160401b037f0000000000000000000000000000000000000000000000000000000000000000168152f35b503461022557600319602036820112610a42576004356001600160401b03918282116112015760a0908236030112610a3e577f00000000000000000000000000000000000000000000000000000000000000006001600160a01b0316330361229c5760405161158a816127c6565b8160040135815260248201358381168103610a8f5760208201526044820135838111610a8f576115c09060043691850101612866565b90604081019182526064830135848111610458576115e49060043691860101612866565b92606082019384526084810135908582116121be57019036602383011215610458576004820135611614816128bc565b926116226040519485612845565b8184526024602085019260061b820101903682116111fd57602401915b818310612264575050506080015251602081805181010312611201576116839061167e906001600160a01b039061167890602001613964565b16613734565b612a41565b8051602081805181010312611201576116a0602060ff9201613978565b16806118f05750905051606081805181010312610a42576116c360208201613978565b5060606116d260408301613964565b910151906001600160a01b03166117087f00000000000000000000000000000000000000000000000000000000000000006139bd565b6040516370a0823160e01b81523060048201527f00000000000000000000000000000000000000000000000000000000000000006001600160a01b03169190602081602481865afa9081156104e15786916118be575b50670de0b6b3a764000090818602868104831487151715610acc579061178391612920565b61179486610e2b60075480946129ef565b60075560035460ff166117bb575050505082526008602052610e5a60408320918254612a34565b60405163095ea7b360e01b81526001600160a01b03841660048201529190046024820181905290945092916020908590604490829089905af19283156118b35761186694602094611896575b50604051631a4ca37b60e21b81526001600160a01b037f00000000000000000000000000000000000000000000000000000000000000008116600483015260248201929092529216604483015290928391908290869082906064820190565b03926001600160a01b03165af1801561044d57611881575080f35b602090813d8311610f3d57610f328183612845565b6118ac90853d8711610aba57610aaa8183612845565b5038611807565b6040513d87823e3d90fd5b90506020813d6020116118e8575b816118d960209383612845565b810103126104d457513861175e565b3d91506118cc565b60018103611a07575051606081805181010312610a3e5761191360208201613978565b50604081015191821690818303611201576001600160a01b039061193990606001613964565b16906119df7f0000000000000000000000000000000000000000000000000000000000000000936119ab857f00000000000000000000000000000000000000000000000000000000000000007f0000000000000000000000000000000000000000000000000000000000000000613a16565b948591856007549160405192600260208501526040840152604083526119d08361282a565b60ff1960035416600355612a8d565b507f4ee48ab43d52be2082a80761272f218fe0871f5b8dba97d174ec2db28b3b22188480a480f35b60020361222d5751604081805181010312610a3e5780611a2b602060409301613978565b500151600755600160ff196003541617600355604051906001602083015260208252611a56826127e1565b807f000000000000000000000000000000000000000000000000000000000000000016907f00000000000000000000000000000000000000000000000000000000000000001614600014611b805750611aef7f00000000000000000000000000000000000000000000000000000000000000007f0000000000000000000000000000000000000000000000000000000000000000613b91565b807f00000000000000000000000000000000000000000000000000000000000000006001600160a01b0316803b15611b7d578190600460405180948193634cab8a5760e11b83525af1801561044d57611b6e575b505b60017fd8fb8e7c260c25e52d8b9c9f1e795c6a98eb972e58c44e482c8f0158f656a04b8280a280f35b611b77906127fc565b38611b43565b50fd5b7f0000000000000000000000000000000000000000000000000000000000000000908290611bb061167e84613734565b60606080604051611bc0816127c6565b82815282602082015282604082015286838201520152604051611be2816127ab565b8481526040519360018060a01b0316602085015260208452611c03846127e1565b611c1d604051611c12816127ab565b621e84808152613986565b9160405194611c2b866127c6565b855260208501526040840152836060840152608083015260405163b0f479a160e01b8152602081600481305afa9081156105295784916121fe575b506040516320487ded60e01b81529060208280611ca7877f00000000000000000000000000000000000000000000000000000000000000006004840161366b565b03816001600160a01b0385165afa9182156118b35785926121ca575b506040516370a0823160e01b81523060048201527f0000000000000000000000000000000000000000000000000000000000000000906020816024816001600160a01b0386165afa908115610ac1578791612194575b50612141575b506040516370a0823160e01b81523060048201527f0000000000000000000000000000000000000000000000000000000000000000949086906020816024816001600160a01b038b165afa90811561044d57829161210f575b5060065460405163095ea7b360e01b81526001600160a01b0390911660048201526024810182905260208180604481010381866001600160a01b038d165af18015610f44576120f0575b5060405190611dd08261280f565b6001600160a01b0388811683527f0000000000000000000000000000000000000000000000000000000000000000811660208085018281527f000000000000000000000000000000000000000000000000000000000000000061ffff1660408088019182523060608901908152608089018d815260a08a0198895260c08a018b81526006549351635023b4df60e01b81529a51891660048c01529451881660248b0152925162ffffff1660448a0152518616606489015290516084880152945160a487015251831660c48601529093929091839160e49183918891165af18015610f44576120c5575b50803b15610a42578190602460405180948193632e1a7d4d60e01b83528960048401525af18015610ac1576120b2575b50478311612093578361202b575b602091611f3b916040519485809481936396f4e9f960e01b83527f00000000000000000000000000000000000000000000000000000000000000006004840161366b565b03926001600160a01b03165af1801561044d57612000575b506040516370a0823160e01b81523060048201526020816024816001600160a01b0387165afa918215611ff45791611fc2575b50611f92575b50611b45565b611fbc907f0000000000000000000000000000000000000000000000000000000000000000613b91565b38611f8c565b90506020813d602011611fec575b81611fdd60209383612845565b81010312610a3e575138611f86565b3d9150611fd0565b604051903d90823e3d90fd5b602090813d8311612024575b6120168183612845565b81010312610a3e5738611f53565b503d61200c565b60405163095ea7b360e01b81526001600160a01b03831660048201526024810187905260208160448188805af180156118b3579160209391611f3b93612076575b5091509150611ef7565b61208c90853d8711610aba57610aaa8183612845565b503861206c565b604051634787a10360e11b815247600482015260248101849052604490fd5b6120bd9194506127fc565b849238611ee9565b602090813d83116120e9575b6120db8183612845565b81010312610a425738611eb9565b503d6120d1565b6121089060203d602011610aba57610aaa8183612845565b5038611dc2565b90506020813d602011612139575b8161212a60209383612845565b81010312610a42575138611d78565b3d915061211d565b61218d907f0000000000000000000000000000000000000000000000000000000000000000907f0000000000000000000000000000000000000000000000000000000000000000613a16565b5038611d1f565b90506020813d6020116121c2575b816121af60209383612845565b810103126121be575138611d19565b8680fd5b3d91506121a2565b9091506020813d6020116121f6575b816121e660209383612845565b81010312610a8f57519038611cc3565b3d91506121d9565b612220915060203d602011612226575b6122188183612845565b81019061360c565b38611c66565b503d61220e565b60405162461bcd60e51b815260206004820152600f60248201526e1a5b9d985b1a590818dbdb5b585b99608a1b6044820152606490fd5b6040833603126111fd576020604091825161227e816127e1565b61228786612781565b8152828601358382015281520192019161163f565b6040516335fdcccd60e21b8152336004820152602490fd5b50346102255780600319360112610225576001546001600160a01b03808216330361231a5782546001600160a01b03198082163390811786559316600155167f8be0079c531659141344cd1fd0a4f28419497f9722a3daafe3b4186f6b6457e08380a380f35b60405162461bcd60e51b815260206004820152601660248201527526bab9ba10313290383937b837b9b2b21037bbb732b960511b6044820152606490fd5b503461022557806003193601126102255760206040516001600160401b037f0000000000000000000000000000000000000000000000000000000000000000168152f35b50346102255780600319360112610225576040517f00000000000000000000000000000000000000000000000000000000000000006001600160a01b03168152602090f35b50346102255760a0366003190112610225576123fb612795565b9061240461276b565b6001600160a01b03919060443583811690819003610a3e5760643584811680910361120157608435956001600160401b038711610a8f5761244e6124d09596973690600401612866565b6040519360209889961686860152858552612468856127e1565b604051612474816127ab565b888152612491604051612486816127ab565b620f42408152613986565b926040519661249f886127c6565b8752878701526040860152606085015260808401526040518095819482936320487ded60e01b84526004840161366b565b03915afa918215611ff45780926124ec575b5050604051908152f35b9091508282813d8311612515575b6125048183612845565b8101031261022557505138806124e2565b503d6124fa565b50346102255780600319360112610225576020600754604051908152f35b50346102255780600319360112610225576020600254604051908152f35b50346102255780600319360112610225576040517f00000000000000000000000000000000000000000000000000000000000000006001600160a01b03168152602090f35b5034610225578060031936011261022557602060ff600354166040519015158152f35b5034610225576040366003190112610225576125da612755565b6125e261276b565b6040516335ea6a7560e01b81526001600160a01b039182166004820152610180929091839183916024918391165afa918215610f44576020939261262a575050604051908152f35b6126409250803d10610522576105078183612845565b50505050505094505050505038806124e2565b50346102255780600319360112610225576006546040516001600160a01b039091168152602090f35b5034610225578060031936011261022557602060405161ffff7f0000000000000000000000000000000000000000000000000000000000000000168152f35b50346102255780600319360112610225576040517f00000000000000000000000000000000000000000000000000000000000000006001600160a01b03168152602090f35b905034610a42576020366003190112610a425760043563ffffffff60e01b8116809103610a3e57602092506385572ffb60e01b8114908115612744575b5015158152f35b6301ffc9a760e01b1490503861273d565b600435906001600160a01b03821682036104d457565b602435906001600160a01b03821682036104d457565b35906001600160a01b03821682036104d457565b600435906001600160401b03821682036104d457565b602081019081106001600160401b0382111761049357604052565b60a081019081106001600160401b0382111761049357604052565b604081019081106001600160401b0382111761049357604052565b6001600160401b03811161049357604052565b60e081019081106001600160401b0382111761049357604052565b606081019081106001600160401b0382111761049357604052565b90601f801991011681019081106001600160401b0382111761049357604052565b81601f820112156104d4578035906001600160401b038211610493576040519261289a601f8401601f191660200185612845565b828452602083830101116104d457816000926020809301838601378301015290565b6001600160401b0381116104935760051b60200190565b60045481101561290a5760046000527f8a35acfbc15ff81a39ae7d344fd709f28e8600b4aa8c65c6b64bfe7fe36bd19b0190600090565b634e487b7160e01b600052603260045260246000fd5b8181029291811591840414171561293357565b634e487b7160e01b600052601160045260246000fd5b1561295057565b60405162461bcd60e51b815260206004820152602560248201527f52657175697265206d617374657220616e64206e6f646520696e2073616d652060448201526431b430b4b760d91b6064820152608490fd5b156129aa57565b60405162461bcd60e51b815260206004820152601c60248201527f4f6e6c79204d617374657220436f6e747261637420616c6c6f776564000000006044820152606490fd5b81156129f9570490565b634e487b7160e01b600052601260045260246000fd5b9190820391821161293357565b908160209103126104d4575180151581036104d45790565b9190820180921161293357565b15612a4857565b60405162461bcd60e51b815260206004820152601d60248201527f43616c6c6572206973206e6f7420616e20616c6c6f776564206e6f64650000006044820152606490fd5b9091600094612a9e61167e85613734565b859080613182575b50612ab3818684876137ec565b946040519463b0f479a160e01b8652602086600481305afa958615610fba578896613161575b506040516320487ded60e01b81529360208580612afa8b8a6004840161366b565b03816001600160a01b038b165afa948515613156578995613122575b506040516370a0823160e01b81523060048201526020816024817f00000000000000000000000000000000000000000000000000000000000000006001600160a01b03165afa908115613025578a916130f0575b5061307f575b6040516370a0823160e01b81523060048201526020816024817f00000000000000000000000000000000000000000000000000000000000000006001600160a01b03165afa908115613025578a9161304d575b5060065460405163095ea7b360e01b81526001600160a01b039091166004820152602481018290526020818c81806044810103917f00000000000000000000000000000000000000000000000000000000000000006001600160a01b03165af18015612fe457916020918c93613030575b5060405190612c428261280f565b6001600160a01b037f0000000000000000000000000000000000000000000000000000000000000000811683527f0000000000000000000000000000000000000000000000000000000000000000811684840190815261ffff7f00000000000000000000000000000000000000000000000000000000000000001660408086019182523060608701908152608087018e815260a0880196875260c088018a81526006549351635023b4df60e01b81529851871660048a0152945186166024890152925162ffffff166044880152518416606487015290516084860152925160a485015251811660c48401529193849260e492849291165af1908115613025578a91612ff3575b507f00000000000000000000000000000000000000000000000000000000000000006001600160a01b03163b15612fef57604051632e1a7d4d60e01b8152600481018790528a81602481837f00000000000000000000000000000000000000000000000000000000000000006001600160a01b03165af18015612fe457612fd1575b5084612fb0575b505050478311612093576001600160a01b03169081612f3c575b505091612e139493916020936040518097819582946396f4e9f960e01b84526004840161366b565b03926001600160a01b03165af1918215610f6c578192612f08575b506040516370a0823160e01b81523060048201526020816024817f00000000000000000000000000000000000000000000000000000000000000006001600160a01b03165afa918215611ff45791612ed6575b50612e895790565b612ed37f00000000000000000000000000000000000000000000000000000000000000007f0000000000000000000000000000000000000000000000000000000000000000613b91565b90565b90506020813d602011612f00575b81612ef160209383612845565b810103126104d4575138612e81565b3d9150612ee4565b9091506020813d602011612f34575b81612f2460209383612845565b810103126104d457519038612e2e565b3d9150612f17565b60405163095ea7b360e01b81526001600160a01b0386166004820152602481019190915290602090829060449082908a905af180156104e15791612e139695939160209593612f93575b5091938193959650612deb565b612fa990863d8811610aba57610aaa8183612845565b5038612f86565b83985090612fc2612fc8949286612a0f565b926137ec565b94388080612dd1565b612fdd909a919a6127fc565b9838612dca565b6040513d8d823e3d90fd5b8980fd5b90506020813d60201161301d575b8161300e60209383612845565b81010312612fef575138612d48565b3d9150613001565b6040513d8c823e3d90fd5b61304690833d8511610aba57610aaa8183612845565b5038612c34565b90506020813d602011613077575b8161306860209383612845565b81010312612fef575138612bc3565b3d915061305b565b6130ea7f00000000000000000000000000000000000000000000000000000000000000007f00000000000000000000000000000000000000000000000000000000000000007f0000000000000000000000000000000000000000000000000000000000000000613a16565b50612b70565b90506020813d60201161311a575b8161310b60209383612845565b81010312612fef575138612b6a565b3d91506130fe565b9094506020813d60201161314e575b8161313e60209383612845565b810103126111fd57519338612b16565b3d9150613131565b6040513d8b823e3d90fd5b61317b91965060203d602011612226576122188183612845565b9438612ad9565b905038612aa6565b92909161319961167e84613734565b600554604080516001600160a01b0392831696919390916131b9836127c6565b60609182845288602093808587015280888701528060806000978883820152015287516131e5816127ab565b8681528789519b16868c0152858b526131fd8b6127e1565b61320b8951611c12816127ab565b9389519b6132188d6127c6565b8c52868c0152888b01528901526080880152845163b0f479a160e01b815297600491838a8481305afa998a156136025761327598999a879187916135e5575b501691848b8951809b81926320487ded60e01b83528689840161366b565b0381865afa9889156134905786996135b6575b5087516323b872dd60e01b815233858201908152306020820152604081018b90529091869183919082908a90829060600103925af1908115613490578691613599575b50156135565785600554168751986370a0823160e01b998a815230868201528681602481865afa90811561354c57889161351b575b50811161349a57885163095ea7b360e01b81526001600160a01b038516868201908152602081019290925291869183919082908a90829060400103925af18015613490579185939161336f9b9c93613473575b50868951809c819582946396f4e9f960e01b845289840161366b565b03925af196871561346957839761343a575b50819060247f000000000000000000000000000000000000000000000000000000000000000097875196879384928352309083015289165afa93841561342f575081936133fe575b5050506133d4575090565b612ed3907f0000000000000000000000000000000000000000000000000000000000000000613b91565b9091809350813d8311613428575b6134168183612845565b810103126102255750513880806133c9565b503d61340c565b51913d9150823e3d90fd5b9096508181813d8311613462575b6134528183612845565b81010312610a3e57519581613381565b503d613448565b85513d85823e3d90fd5b61348990853d8711610aba57610aaa8183612845565b5038613353565b88513d88823e3d90fd5b8490868a8994828e60248451809481938252308a8301525afa9283156135115786936134dd575b505051634787a10360e11b815292830152602482015260449150fd5b9080929350813d831161350a575b6134f58183612845565b81010312610a8f5760449450519085806134c1565b503d6134eb565b82513d88823e3d90fd5b90508681813d8311613545575b6135328183612845565b81010312613541575138613300565b8780fd5b503d613528565b8a513d8a823e3d90fd5b865162461bcd60e51b8152808401859052601a60248201527f4e6f742070726f7669646564204c696e6b20666f7220666565730000000000006044820152606490fd5b6135b09150853d8711610aba57610aaa8183612845565b386132cb565b9098508481813d83116135de575b6135ce8183612845565b8101031261045857519784613288565b503d6135c4565b6135fc9150863d8811612226576122188183612845565b38613257565b87513d87823e3d90fd5b908160209103126104d457516001600160a01b03811681036104d45790565b919082519283825260005b848110613657575050826000602080949584010152601f8019910116010190565b602081830181015184830182015201613636565b906001600160401b03909392931681526040602091818382015261369a855160a08484015260e083019061362b565b916136b68487015193603f19948585830301606086015261362b565b8187015194848483030160808501528080875193848152019601926000905b83821061370b57505050505060c06080612ed3959660018060a01b0360608201511660a08501520151928285030191015261362b565b845180516001600160a01b031689528301518884015296870196938201936001909101906136d5565b600060048054915b8261ffff821610613787575050507f00000000000000000000000000000000000000000000000000000000000000006001600160a01b0390811691161461378257600090565b600190565b613790816128d3565b905460039190911b1c6001600160a01b03908116908516146137d65761ffff8091169081146137c15760010161373c565b601182634e487b7160e01b6000525260246000fd5b50505050600190565b80511561290a5760200190565b9291906040918251926137fe846127c6565b606092838552602095848787015284838701528460806000978883820152015260018060a01b038094168015806138f7575b156138895750508151613842816127ab565b858152925b825197168688015285875261385b876127e1565b6138698251611c12816127ab565b95825197613876896127c6565b8852870152850152830152608082015290565b839491945190613898826127e1565b6001825288885b8181106138d6575050906138d09181968651916138bb836127e1565b82528a8201526138ca826137df565b526137df565b50613847565b86516138e1816127e1565b8a81528a8382015282828601015201899061389f565b508115613830565b9190826101809103126104d45781519160208101519160408201519160608101519160808201519160a08101519160c08201519160e081015191610100820151916101208101519161016061014083015192015164ffffffffff811681036104d45790565b51906001600160a01b03821682036104d457565b519060ff821682036104d457565b604051906397a657c960e01b602083015251602482015260248152606081018181106001600160401b038211176104935760405290565b60405163026b1d5f60e01b815290602090829060049082906001600160a01b03165afa908115613a0a576000916139f2575090565b612ed3915060203d8111612226576122188183612845565b6040513d6000823e3d90fd5b604080516370a0823160e01b815230600482015293949390926020926001600160a01b039182169291908483602481875afa928315613b5557600093613b60575b50613a61906139bd565b855163095ea7b360e01b81526001600160a01b03821660048201526024810184905290938590829060449082906000905af18015613b5557859492613ae798999492600092613b38575b508751631a4ca37b60e21b81526001600160a01b0390951660048601526024850192909252306044850152929687938492909183906064820190565b0393165af1918215613b2e5750600091613b02575b50905090565b82813d8311613b27575b613b168183612845565b810103126102255750518038613afc565b503d613b0c565b513d6000823e3d90fd5b613b4e90873d8911610aba57610aaa8183612845565b5038613aab565b86513d6000823e3d90fd5b90928582813d8311613b8a575b613b778183612845565b8101031261022557505191613a61613a57565b503d613b6d565b604080516370a0823160e01b815230600482015290916001600160a01b0390848216906020908185602481865afa948515613b5557600095613c99575b50613bd8906139bd565b855163095ea7b360e01b81526001600160a01b03821660048201526024810186905290928290829060449082906000905af18015613b5557613c7b575b50501692833b156104d457825163e8eda9df60e01b81526001600160a01b03919091166004820152602481019190915230604482015260006064820181905290928390608490829084905af1908115613b2e5750613c705750565b613c79906127fc565b565b81613c9192903d10610aba57610aaa8183612845565b503880613c15565b90948282813d8311613cc3575b613cb08183612845565b8101031261022557505193613bd8613bce565b503d613ca6565b6000546001600160a01b03163303613cde57565b60405162461bcd60e51b815260206004820152601660248201527527b7363c9031b0b63630b1363290313c9037bbb732b960511b6044820152606490fdfea2646970667358221220ac85fc5464d2cd7b9425be09298ea3ae2c0e7b3a7c8dfadd7918b78627c2756264736f6c63430008130033",
  "bytecodeSha1": "954c5732d855595d4e0724de12af32e3e18f8d8d",
  "compiler": {
    "evm_version": "istanbul",
    "optimizer": {
      "enabled": true,
      "runs": 200
    },
    "version": "0.8.19+commit.7dd6d404"
  },
  "contractName": "Node",
  "language": "Solidity",
  "natspec": {
    "kind": "dev",
    "methods": {
      "acceptOwnership()": {
        "notice": "Allows an ownership transfer to be completed by the recipient."
      },
      "ccipReceive((bytes32,uint64,bytes,bytes,(address,uint256)[]))": {
        "details": "Note ensure you check the msg.sender is the OffRampRouter",
        "notice": "Called by the Router to deliver a message. If this reverts, any token transfers also revert. The message will move to a FAILED state and become available for manual execution.",
        "params": {
          "message": "CCIP Message"
        }
      },
      "getRouter()": {
        "notice": "Return the current router",
        "returns": {
          "_0": "CCIP router address"
        }
      },
      "owner()": {
        "notice": "Get the current owner"
      },
      "supportsInterface(bytes4)": {
        "details": "Should indicate whether the contract implements IAny2EVMMessageReceiver e.g. return interfaceId == type(IAny2EVMMessageReceiver).interfaceId || interfaceId == type(IERC165).interfaceId This allows CCIP to check if ccipReceive is available before calling it. If this returns false or reverts, only tokens are transferred to the receiver. If this returns true, tokens are transferred and ccipReceive is called atomically. Additionally, if the receiver address does not have code associated with it at the time of execution (EXTCODESIZE returns 0), only tokens will be transferred.",
        "notice": "IERC165 supports an interfaceId",
        "params": {
          "interfaceId": "The interfaceId to check"
        },
        "returns": {
          "_0": "true if the interfaceId is supported"
        }
      },
      "transferOwnership(address)": {
        "notice": "Allows an owner to begin transferring ownership to a new address."
      }
    },
    "version": 1
  },
  "opcodes": "PUSH1 0x80 DUP1 PUSH1 0x40 MSTORE PUSH1 0x4 CALLDATASIZE LT ISZERO PUSH2 0x1D JUMPI JUMPDEST POP CALLDATASIZE ISZERO PUSH2 0x1B JUMPI PUSH1 0x0 DUP1 REVERT JUMPDEST STOP JUMPDEST PUSH1 0x0 SWAP1 DUP2 CALLDATALOAD PUSH1 0xE0 SHR SWAP1 DUP2 PUSH4 0x1FFC9A7 EQ PUSH2 0x2700 JUMPI POP DUP1 PUSH4 0x40141E5 EQ PUSH2 0x26BB JUMPI DUP1 PUSH4 0xE508FFF EQ PUSH2 0x267C JUMPI DUP1 PUSH4 0x15D03DFD EQ PUSH2 0x2653 JUMPI DUP1 PUSH4 0x168010ED EQ PUSH2 0x25C0 JUMPI DUP1 PUSH4 0x1D34B4FF EQ PUSH2 0x259D JUMPI DUP1 PUSH4 0x32D3AD5E EQ PUSH2 0x2558 JUMPI DUP1 PUSH4 0x36161EB9 EQ PUSH2 0x253A JUMPI DUP1 PUSH4 0x4C8719F3 EQ PUSH2 0x251C JUMPI DUP1 PUSH4 0x544B1709 EQ PUSH2 0x23E1 JUMPI DUP1 PUSH4 0x67062580 EQ PUSH2 0x239C JUMPI DUP1 PUSH4 0x7058A5E7 EQ PUSH2 0x2358 JUMPI DUP1 PUSH4 0x79BA5097 EQ PUSH2 0x22B4 JUMPI DUP1 PUSH4 0x85572FFB EQ PUSH2 0x151C JUMPI DUP1 PUSH4 0x8CF19D19 EQ PUSH2 0x14D8 JUMPI DUP1 PUSH4 0x8DA5CB5B EQ PUSH2 0x14B1 JUMPI DUP1 PUSH4 0x97652FFE EQ PUSH2 0x1334 JUMPI DUP1 PUSH4 0x982D1F18 EQ PUSH2 0x12EF JUMPI DUP1 PUSH4 0x98B3C1F8 EQ PUSH2 0x1205 JUMPI DUP1 PUSH4 0xA19B24B5 EQ PUSH2 0x1009 JUMPI DUP1 PUSH4 0xA63CA076 EQ PUSH2 0xFC5 JUMPI DUP1 PUSH4 0xAF002DB8 EQ PUSH2 0xCD1 JUMPI DUP1 PUSH4 0xAF256173 EQ PUSH2 0xC8C JUMPI DUP1 PUSH4 0xB0F479A1 EQ PUSH2 0xC47 JUMPI DUP1 PUSH4 0xB6B55F25 EQ PUSH2 0x722 JUMPI DUP1 PUSH4 0xBB09D9B7 EQ PUSH2 0x6DD JUMPI DUP1 PUSH4 0xC330A2ED EQ PUSH2 0x534 JUMPI DUP1 PUSH4 0xD8BBA68F EQ PUSH2 0x261 JUMPI DUP1 PUSH4 0xE227A140 EQ PUSH2 0x228 JUMPI PUSH4 0xF2FDE38B SUB PUSH2 0xF JUMPI CALLVALUE PUSH2 0x225 JUMPI PUSH1 0x20 CALLDATASIZE PUSH1 0x3 NOT ADD SLT PUSH2 0x225 JUMPI PUSH2 0x189 PUSH2 0x2755 JUMP JUMPDEST PUSH2 0x191 PUSH2 0x3CCA JUMP JUMPDEST PUSH1 0x1 PUSH1 0x1 PUSH1 0xA0 SHL SUB SWAP1 DUP2 AND SWAP1 CALLER DUP3 EQ PUSH2 0x1E0 JUMPI PUSH1 0x1 DUP1 SLOAD PUSH1 0x1 PUSH1 0x1 PUSH1 0xA0 SHL SUB NOT AND DUP4 OR SWAP1 SSTORE DUP3 SLOAD AND PUSH32 0xED8889F560326EB138920D842192F0EB3DD22B4F139C87A2C57538E05BAE1278 DUP4 DUP1 LOG3 DUP1 RETURN JUMPDEST PUSH1 0x40 MLOAD PUSH3 0x461BCD PUSH1 0xE5 SHL DUP2 MSTORE PUSH1 0x20 PUSH1 0x4 DUP3 ADD MSTORE PUSH1 0x17 PUSH1 0x24 DUP3 ADD MSTORE PUSH32 0x43616E6E6F74207472616E7366657220746F2073656C66000000000000000000 PUSH1 0x44 DUP3 ADD MSTORE PUSH1 0x64 SWAP1 REVERT JUMPDEST DUP1 REVERT JUMPDEST POP CALLVALUE PUSH2 0x225 JUMPI PUSH1 0x20 CALLDATASIZE PUSH1 0x3 NOT ADD SLT PUSH2 0x225 JUMPI PUSH1 0x20 SWAP1 PUSH1 0x40 SWAP1 PUSH1 0x1 PUSH1 0x1 PUSH1 0xA0 SHL SUB PUSH2 0x250 PUSH2 0x2755 JUMP JUMPDEST AND DUP2 MSTORE PUSH1 0x8 DUP4 MSTORE KECCAK256 SLOAD PUSH1 0x40 MLOAD SWAP1 DUP2 MSTORE RETURN JUMPDEST POP CALLVALUE PUSH2 0x225 JUMPI DUP1 PUSH1 0x3 NOT CALLDATASIZE ADD SLT PUSH2 0x225 JUMPI PUSH1 0x40 MLOAD PUSH4 0x35EA6A75 PUSH1 0xE0 SHL DUP2 MSTORE PUSH1 0x1 PUSH1 0x1 PUSH1 0xA0 SHL SUB PUSH32 0x0 DUP2 AND PUSH1 0x4 DUP4 ADD MSTORE SWAP1 PUSH2 0x180 SWAP1 DUP2 DUP2 PUSH1 0x24 DUP2 PUSH32 0x0 DUP8 AND GAS STATICCALL SWAP2 DUP3 ISZERO PUSH2 0x529 JUMPI DUP5 SWAP2 DUP6 SWAP2 DUP7 SWAP5 PUSH2 0x4EC JUMPI JUMPDEST POP POP PUSH1 0x40 MLOAD PUSH4 0x70A08231 PUSH1 0xE0 SHL DUP2 MSTORE ADDRESS PUSH1 0x4 DUP3 ADD MSTORE SWAP2 PUSH1 0x20 DUP4 PUSH1 0x24 DUP2 PUSH32 0x0 DUP10 AND GAS STATICCALL SWAP3 DUP4 ISZERO PUSH2 0x4E1 JUMPI DUP7 SWAP4 PUSH2 0x4A9 JUMPI JUMPDEST POP PUSH1 0x40 MLOAD SWAP5 PUSH1 0x2 PUSH1 0x20 DUP8 ADD MSTORE DUP2 PUSH1 0x40 DUP8 ADD MSTORE DUP3 PUSH1 0x60 DUP8 ADD MSTORE DUP5 PUSH1 0x80 DUP8 ADD MSTORE DUP4 PUSH1 0xA0 DUP8 ADD MSTORE PUSH1 0xA0 DUP7 MSTORE PUSH1 0xC0 DUP7 ADD SWAP6 PUSH1 0x1 PUSH1 0x1 PUSH1 0x40 SHL SUB DUP2 DUP9 LT DUP2 DUP10 GT OR PUSH2 0x493 JUMPI DUP9 SWAP8 PUSH1 0x40 MSTORE PUSH32 0x0 SWAP1 DUP1 DUP3 AND SWAP1 PUSH32 0x0 AND EQ PUSH1 0x0 EQ PUSH2 0x45C JUMPI POP POP PUSH32 0x0 AND SWAP1 DUP2 EXTCODESIZE ISZERO PUSH2 0x458 JUMPI DUP6 PUSH1 0x84 SWAP3 DUP2 SWAP6 PUSH1 0x40 MLOAD SWAP8 DUP9 SWAP7 DUP8 SWAP6 PUSH4 0x453B3FF PUSH1 0xE1 SHL DUP8 MSTORE PUSH1 0x4 DUP8 ADD MSTORE PUSH1 0x24 DUP7 ADD MSTORE PUSH1 0x44 DUP6 ADD MSTORE PUSH1 0x64 DUP5 ADD MSTORE GAS CALL DUP1 ISZERO PUSH2 0x44D JUMPI PUSH2 0x43D JUMPI POP POP DUP1 RETURN JUMPDEST PUSH2 0x446 SWAP1 PUSH2 0x27FC JUMP JUMPDEST PUSH2 0x225 JUMPI DUP1 RETURN JUMPDEST PUSH1 0x40 MLOAD RETURNDATASIZE DUP5 DUP3 RETURNDATACOPY RETURNDATASIZE SWAP1 REVERT JUMPDEST DUP6 DUP1 REVERT JUMPDEST SWAP5 POP SWAP5 POP POP POP POP PUSH2 0x48F SWAP3 POP PUSH32 0x0 SWAP1 PUSH2 0x318A JUMP JUMPDEST POP DUP1 RETURN JUMPDEST PUSH4 0x4E487B71 PUSH1 0xE0 SHL PUSH1 0x0 MSTORE PUSH1 0x41 PUSH1 0x4 MSTORE PUSH1 0x24 PUSH1 0x0 REVERT JUMPDEST SWAP1 SWAP3 POP PUSH1 0x20 DUP2 RETURNDATASIZE DUP3 GT PUSH2 0x4D9 JUMPI JUMPDEST DUP2 PUSH2 0x4C4 PUSH1 0x20 SWAP4 DUP4 PUSH2 0x2845 JUMP JUMPDEST DUP2 ADD SUB SLT PUSH2 0x4D4 JUMPI MLOAD SWAP2 CODESIZE PUSH2 0x33F JUMP JUMPDEST PUSH1 0x0 DUP1 REVERT JUMPDEST RETURNDATASIZE SWAP2 POP PUSH2 0x4B7 JUMP JUMPDEST PUSH1 0x40 MLOAD RETURNDATASIZE DUP9 DUP3 RETURNDATACOPY RETURNDATASIZE SWAP1 REVERT JUMPDEST SWAP2 POP SWAP2 POP PUSH2 0x50F SWAP3 POP DUP1 RETURNDATASIZE LT PUSH2 0x522 JUMPI JUMPDEST PUSH2 0x507 DUP2 DUP4 PUSH2 0x2845 JUMP JUMPDEST DUP2 ADD SWAP1 PUSH2 0x38FF JUMP JUMPDEST POP POP POP POP POP POP SWAP5 POP SWAP3 POP POP SWAP1 CODESIZE DUP1 PUSH2 0x2F0 JUMP JUMPDEST POP RETURNDATASIZE PUSH2 0x4FD JUMP JUMPDEST PUSH1 0x40 MLOAD RETURNDATASIZE DUP7 DUP3 RETURNDATACOPY RETURNDATASIZE SWAP1 REVERT JUMPDEST POP CALLVALUE PUSH2 0x225 JUMPI DUP1 PUSH1 0x3 NOT CALLDATASIZE ADD SLT PUSH2 0x225 JUMPI CALLER DUP2 MSTORE PUSH1 0x8 PUSH1 0x20 MSTORE PUSH1 0x40 DUP2 KECCAK256 SLOAD ISZERO PUSH2 0x698 JUMPI CALLER DUP2 MSTORE PUSH1 0x8 PUSH1 0x20 MSTORE DUP1 PUSH1 0x40 DUP2 KECCAK256 SLOAD PUSH1 0x40 MLOAD PUSH2 0x5A4 DUP2 PUSH2 0x596 DUP5 CALLER PUSH1 0x20 DUP5 ADD PUSH1 0x40 SWAP1 SWAP4 SWAP3 SWAP2 SWAP4 PUSH1 0x60 DUP2 ADD SWAP5 PUSH1 0x0 DUP3 MSTORE PUSH1 0x1 DUP1 PUSH1 0xA0 SHL SUB AND PUSH1 0x20 DUP3 ADD MSTORE ADD MSTORE JUMP JUMPDEST SUB PUSH1 0x1F NOT DUP2 ADD DUP4 MSTORE DUP3 PUSH2 0x2845 JUMP JUMPDEST PUSH32 0x0 PUSH1 0x1 PUSH1 0x1 PUSH1 0x40 SHL SUB DUP1 DUP3 AND SWAP1 PUSH32 0x0 AND EQ PUSH1 0x0 EQ PUSH2 0x669 JUMPI POP POP PUSH32 0x0 PUSH1 0x1 PUSH1 0x1 PUSH1 0xA0 SHL SUB AND DUP1 EXTCODESIZE ISZERO PUSH2 0x665 JUMPI PUSH1 0x40 MLOAD PUSH4 0x11E0FA9 PUSH1 0xE2 SHL DUP2 MSTORE CALLER PUSH1 0x4 DUP3 ADD MSTORE PUSH1 0x24 DUP2 ADD SWAP3 SWAP1 SWAP3 MSTORE DUP3 SWAP1 DUP3 SWAP1 PUSH1 0x44 SWAP1 DUP3 SWAP1 DUP5 SWAP1 GAS CALL DUP1 ISZERO PUSH2 0x44D JUMPI PUSH2 0x43D JUMPI POP POP DUP1 RETURN JUMPDEST POP POP REVERT JUMPDEST SWAP1 SWAP2 POP PUSH2 0x48F SWAP3 POP PUSH32 0x0 SWAP1 PUSH2 0x318A JUMP JUMPDEST PUSH1 0x40 MLOAD PUSH3 0x461BCD PUSH1 0xE5 SHL DUP2 MSTORE PUSH1 0x20 PUSH1 0x4 DUP3 ADD MSTORE PUSH1 0x18 PUSH1 0x24 DUP3 ADD MSTORE PUSH32 0x4E6F206157525020746F6B656E7320746F20726566756E640000000000000000 PUSH1 0x44 DUP3 ADD MSTORE PUSH1 0x64 SWAP1 REVERT JUMPDEST POP CALLVALUE PUSH2 0x225 JUMPI DUP1 PUSH1 0x3 NOT CALLDATASIZE ADD SLT PUSH2 0x225 JUMPI PUSH1 0x40 MLOAD PUSH32 0x0 PUSH1 0x1 PUSH1 0x1 PUSH1 0xA0 SHL SUB AND DUP2 MSTORE PUSH1 0x20 SWAP1 RETURN JUMPDEST POP CALLVALUE PUSH2 0x225 JUMPI PUSH1 0x20 DUP1 PUSH1 0x3 NOT CALLDATASIZE ADD SLT PUSH2 0xA42 JUMPI PUSH1 0x40 MLOAD PUSH4 0x23B872DD PUSH1 0xE0 SHL DUP2 MSTORE CALLER PUSH1 0x4 DUP1 DUP4 ADD SWAP2 SWAP1 SWAP2 MSTORE ADDRESS PUSH1 0x24 DUP4 ADD MSTORE CALLDATALOAD PUSH1 0x44 DUP3 ADD DUP2 SWAP1 MSTORE PUSH1 0x1 PUSH1 0x1 PUSH1 0xA0 SHL SUB PUSH32 0x0 DUP2 DUP2 AND SWAP5 SWAP3 SWAP4 SWAP2 SWAP3 SWAP2 DUP3 DUP2 PUSH1 0x64 DUP2 DUP11 DUP11 GAS CALL SWAP1 DUP2 ISZERO PUSH2 0xAC1 JUMPI DUP8 SWAP2 PUSH2 0xC2A JUMPI JUMPDEST POP ISZERO PUSH2 0xBE5 JUMPI PUSH1 0xFF PUSH1 0x3 SLOAD AND ISZERO PUSH2 0xB86 JUMPI PUSH1 0x40 MLOAD PUSH4 0x70A08231 PUSH1 0xE0 SHL DUP2 MSTORE ADDRESS PUSH1 0x4 DUP3 ADD MSTORE SWAP5 DUP3 DUP7 PUSH1 0x24 DUP2 PUSH32 0x0 DUP9 AND GAS STATICCALL SWAP6 DUP7 ISZERO PUSH2 0xAC1 JUMPI DUP8 SWAP7 PUSH2 0xB57 JUMPI JUMPDEST POP PUSH2 0x80B DUP6 DUP8 PUSH2 0x2A34 JUMP JUMPDEST PUSH1 0x2 SLOAD GT ISZERO PUSH2 0xB02 JUMPI DUP7 PUSH1 0x7 SLOAD SWAP7 DUP8 ISZERO PUSH1 0x0 EQ PUSH2 0xAE0 JUMPI POP POP PUSH5 0xE8D4A51000 DUP1 DUP7 MUL SWAP1 DUP7 DUP3 DIV EQ DUP7 ISZERO OR ISZERO PUSH2 0xACC JUMPI DUP8 SWAP5 SWAP4 SWAP3 SWAP2 PUSH2 0x84B DUP7 SWAP3 DUP1 SWAP10 PUSH2 0x2A34 JUMP JUMPDEST PUSH1 0x7 SSTORE PUSH1 0x40 DUP1 MLOAD PUSH1 0x0 DUP7 DUP3 ADD SWAP1 DUP2 MSTORE CALLER PUSH1 0x20 DUP3 ADD MSTORE DUP1 DUP4 ADD DUP12 SWAP1 MSTORE DUP2 SWAP1 SUB SWAP2 DUP3 ADD DUP2 MSTORE SWAP5 SWAP1 PUSH2 0x87D SWAP1 PUSH1 0x60 ADD DUP7 PUSH2 0x2845 JUMP JUMPDEST DUP1 PUSH2 0x8DF PUSH2 0x8AA PUSH32 0x0 PUSH2 0x39BD JUMP JUMPDEST PUSH1 0x40 MLOAD PUSH4 0x95EA7B3 PUSH1 0xE0 SHL DUP2 MSTORE PUSH1 0x1 PUSH1 0x1 PUSH1 0xA0 SHL SUB DUP3 AND PUSH1 0x4 DUP3 ADD MSTORE PUSH1 0x24 DUP2 ADD DUP13 SWAP1 MSTORE SWAP6 SWAP1 SWAP5 DUP7 SWAP3 SWAP1 SWAP2 DUP4 SWAP2 DUP3 SWAP1 PUSH1 0x44 DUP3 ADD SWAP1 JUMP JUMPDEST SUB SWAP3 GAS CALL SWAP3 DUP4 ISZERO PUSH2 0xAC1 JUMPI DUP7 SWAP4 PUSH2 0xA93 JUMPI JUMPDEST POP POP AND DUP1 EXTCODESIZE ISZERO PUSH2 0xA8F JUMPI PUSH1 0x40 MLOAD PUSH4 0xE8EDA9DF PUSH1 0xE0 SHL DUP2 MSTORE PUSH1 0x1 PUSH1 0x1 PUSH1 0xA0 SHL SUB SWAP3 SWAP1 SWAP3 AND PUSH1 0x4 DUP4 ADD MSTORE PUSH1 0x24 DUP3 ADD DUP7 SWAP1 MSTORE ADDRESS PUSH1 0x44 DUP4 ADD MSTORE PUSH1 0x0 PUSH1 0x64 DUP4 ADD MSTORE DUP5 SWAP1 DUP3 SWAP1 PUSH1 0x84 SWAP1 DUP3 SWAP1 DUP5 SWAP1 GAS CALL SWAP1 DUP2 ISZERO PUSH2 0x529 JUMPI DUP5 SWAP2 PUSH2 0xA7B JUMPI JUMPDEST POP POP PUSH32 0x0 PUSH1 0x1 PUSH1 0x1 PUSH1 0x40 SHL SUB DUP1 DUP3 AND SWAP1 PUSH32 0x0 AND EQ PUSH1 0x0 EQ PUSH2 0xA46 JUMPI POP POP PUSH32 0x0 AND DUP1 EXTCODESIZE ISZERO PUSH2 0xA42 JUMPI PUSH1 0x40 MLOAD PUSH4 0x11E0FA9 PUSH1 0xE2 SHL DUP2 MSTORE CALLER PUSH1 0x4 DUP3 ADD MSTORE PUSH1 0x24 DUP2 ADD DUP6 SWAP1 MSTORE SWAP1 DUP3 SWAP1 DUP3 SWAP1 PUSH1 0x44 SWAP1 DUP3 SWAP1 DUP5 SWAP1 GAS CALL DUP1 ISZERO PUSH2 0x44D JUMPI PUSH2 0xA2A JUMPI JUMPDEST POP POP JUMPDEST CALLER PUSH32 0xECCE874B8763E37231B6791DC5866441104332EF19F5DE5516A7DC20C041B1CA DUP5 DUP1 LOG4 DUP1 RETURN JUMPDEST PUSH2 0xA33 SWAP1 PUSH2 0x27FC JUMP JUMPDEST PUSH2 0xA3E JUMPI DUP3 CODESIZE PUSH2 0x9FF JUMP JUMPDEST DUP3 DUP1 REVERT JUMPDEST POP DUP1 REVERT JUMPDEST SWAP1 SWAP2 POP PUSH2 0xA75 SWAP3 POP PUSH32 0x0 SWAP1 PUSH2 0x318A JUMP JUMPDEST POP PUSH2 0xA02 JUMP JUMPDEST PUSH2 0xA84 SWAP1 PUSH2 0x27FC JUMP JUMPDEST PUSH2 0xA3E JUMPI DUP3 CODESIZE PUSH2 0x948 JUMP JUMPDEST DUP5 DUP1 REVERT JUMPDEST DUP2 PUSH2 0xAB2 SWAP3 SWAP1 RETURNDATASIZE LT PUSH2 0xABA JUMPI JUMPDEST PUSH2 0xAAA DUP2 DUP4 PUSH2 0x2845 JUMP JUMPDEST DUP2 ADD SWAP1 PUSH2 0x2A1C JUMP JUMPDEST POP CODESIZE DUP1 PUSH2 0x8F1 JUMP JUMPDEST POP RETURNDATASIZE PUSH2 0xAA0 JUMP JUMPDEST PUSH1 0x40 MLOAD RETURNDATASIZE DUP10 DUP3 RETURNDATACOPY RETURNDATASIZE SWAP1 REVERT JUMPDEST PUSH4 0x4E487B71 PUSH1 0xE0 SHL DUP9 MSTORE PUSH1 0x11 PUSH1 0x4 MSTORE PUSH1 0x24 DUP9 REVERT JUMPDEST SWAP2 PUSH2 0x84B PUSH2 0xAFB DUP4 SWAP8 SWAP7 SWAP6 SWAP5 PUSH2 0xAF6 DUP12 DUP12 PUSH2 0x2920 JUMP JUMPDEST PUSH2 0x29EF JUMP JUMPDEST DUP1 SWAP10 PUSH2 0x2A34 JUMP JUMPDEST PUSH1 0x40 MLOAD PUSH3 0x461BCD PUSH1 0xE5 SHL DUP2 MSTORE PUSH1 0x4 DUP2 ADD DUP5 SWAP1 MSTORE PUSH1 0x27 PUSH1 0x24 DUP3 ADD MSTORE PUSH32 0x4E6F64652066757266696C6C6564206E6F206D6F7265206465706F7369747320 PUSH1 0x44 DUP3 ADD MSTORE PUSH7 0x185B1B1BDDD959 PUSH1 0xCA SHL PUSH1 0x64 DUP3 ADD MSTORE PUSH1 0x84 SWAP1 REVERT JUMPDEST SWAP1 SWAP6 POP DUP3 DUP2 DUP2 RETURNDATASIZE DUP4 GT PUSH2 0xB7F JUMPI JUMPDEST PUSH2 0xB6F DUP2 DUP4 PUSH2 0x2845 JUMP JUMPDEST DUP2 ADD SUB SLT PUSH2 0x4D4 JUMPI MLOAD SWAP5 CODESIZE PUSH2 0x800 JUMP JUMPDEST POP RETURNDATASIZE PUSH2 0xB65 JUMP JUMPDEST PUSH1 0x40 MLOAD PUSH3 0x461BCD PUSH1 0xE5 SHL DUP2 MSTORE PUSH1 0x4 DUP2 ADD DUP4 SWAP1 MSTORE PUSH1 0x31 PUSH1 0x24 DUP3 ADD MSTORE PUSH32 0x4173657473206172652057617270696E67204E6F772C206465706F7369747320 PUSH1 0x44 DUP3 ADD MSTORE PUSH17 0x37B7103732BB90313637B1B5B1B430B4B7 PUSH1 0x79 SHL PUSH1 0x64 DUP3 ADD MSTORE PUSH1 0x84 SWAP1 REVERT JUMPDEST PUSH1 0x40 MLOAD PUSH3 0x461BCD PUSH1 0xE5 SHL DUP2 MSTORE PUSH1 0x4 DUP2 ADD DUP4 SWAP1 MSTORE PUSH1 0x19 PUSH1 0x24 DUP3 ADD MSTORE PUSH32 0x4661696C656420746F207472616E7366657220616D6F756E7400000000000000 PUSH1 0x44 DUP3 ADD MSTORE PUSH1 0x64 SWAP1 REVERT JUMPDEST PUSH2 0xC41 SWAP2 POP DUP4 RETURNDATASIZE DUP6 GT PUSH2 0xABA JUMPI PUSH2 0xAAA DUP2 DUP4 PUSH2 0x2845 JUMP JUMPDEST CODESIZE PUSH2 0x7A3 JUMP JUMPDEST POP CALLVALUE PUSH2 0x225 JUMPI DUP1 PUSH1 0x3 NOT CALLDATASIZE ADD SLT PUSH2 0x225 JUMPI PUSH1 0x40 MLOAD PUSH32 0x0 PUSH1 0x1 PUSH1 0x1 PUSH1 0xA0 SHL SUB AND DUP2 MSTORE PUSH1 0x20 SWAP1 RETURN JUMPDEST POP CALLVALUE PUSH2 0x225 JUMPI DUP1 PUSH1 0x3 NOT CALLDATASIZE ADD SLT PUSH2 0x225 JUMPI PUSH1 0x40 MLOAD PUSH32 0x0 PUSH1 0x1 PUSH1 0x1 PUSH1 0xA0 SHL SUB AND DUP2 MSTORE PUSH1 0x20 SWAP1 RETURN JUMPDEST POP CALLVALUE PUSH2 0x225 JUMPI PUSH1 0x40 CALLDATASIZE PUSH1 0x3 NOT ADD SLT PUSH2 0x225 JUMPI PUSH2 0xCEB PUSH2 0x2755 JUMP JUMPDEST PUSH1 0x24 CALLDATALOAD SWAP1 PUSH2 0xD46 PUSH1 0x1 PUSH1 0x1 PUSH1 0x40 SHL SUB DUP1 PUSH32 0x0 AND SWAP1 PUSH32 0x0 AND EQ PUSH2 0x2949 JUMP JUMPDEST PUSH1 0x1 PUSH1 0x1 PUSH1 0xA0 SHL SUB PUSH2 0xD7B CALLER PUSH32 0x0 DUP4 AND EQ PUSH2 0x29A3 JUMP JUMPDEST PUSH2 0xDA4 PUSH32 0x0 PUSH2 0x39BD JUMP JUMPDEST PUSH1 0x40 MLOAD PUSH4 0x70A08231 PUSH1 0xE0 SHL DUP2 MSTORE ADDRESS PUSH1 0x4 DUP3 ADD MSTORE PUSH1 0x20 SWAP4 SWAP2 PUSH32 0x0 DUP5 AND SWAP2 DUP6 DUP2 PUSH1 0x24 DUP2 DUP7 GAS STATICCALL SWAP1 DUP2 ISZERO PUSH2 0xFBA JUMPI DUP9 SWAP2 PUSH2 0xF8D JUMPI JUMPDEST POP PUSH8 0xDE0B6B3A7640000 SWAP1 DUP2 DUP9 MUL DUP9 DUP2 DIV DUP4 EQ DUP10 ISZERO OR ISZERO PUSH2 0xF79 JUMPI SWAP1 PUSH2 0xE1A SWAP2 PUSH2 0x2920 JUMP JUMPDEST PUSH2 0xE31 DUP9 PUSH2 0xE2B PUSH1 0x7 SLOAD DUP1 SWAP5 PUSH2 0x29EF JUMP JUMPDEST SWAP3 PUSH2 0x2A0F JUMP JUMPDEST PUSH1 0x7 SSTORE PUSH1 0x3 SLOAD PUSH1 0xFF AND PUSH2 0xE5F JUMPI POP POP POP POP SWAP1 PUSH1 0x8 SWAP3 SWAP2 AND DUP5 MSTORE MSTORE PUSH2 0xE5A PUSH1 0x40 DUP4 KECCAK256 SWAP2 DUP3 SLOAD PUSH2 0x2A34 JUMP JUMPDEST SWAP1 SSTORE DUP1 RETURN JUMPDEST PUSH1 0x40 MLOAD PUSH4 0x95EA7B3 PUSH1 0xE0 SHL DUP2 MSTORE PUSH1 0x1 PUSH1 0x1 PUSH1 0xA0 SHL SUB DUP5 AND PUSH1 0x4 DUP3 ADD MSTORE SWAP2 SWAP1 DIV PUSH1 0x24 DUP3 ADD DUP2 SWAP1 MSTORE SWAP6 SWAP7 POP SWAP5 SWAP1 SWAP2 DUP8 SWAP1 DUP8 SWAP1 DUP8 SWAP1 PUSH1 0x44 SWAP1 DUP3 SWAP1 DUP6 SWAP1 GAS CALL SWAP5 DUP6 ISZERO PUSH2 0xF6C JUMPI PUSH2 0xF0B SWAP7 DUP9 SWAP7 PUSH2 0xF4F JUMPI JUMPDEST POP PUSH1 0x40 MLOAD PUSH4 0x1A4CA37B PUSH1 0xE2 SHL DUP2 MSTORE PUSH1 0x1 PUSH1 0x1 PUSH1 0xA0 SHL SUB PUSH32 0x0 DUP2 AND PUSH1 0x4 DUP4 ADD MSTORE PUSH1 0x24 DUP3 ADD SWAP5 SWAP1 SWAP5 MSTORE SWAP3 SWAP1 SWAP5 AND PUSH1 0x44 DUP4 ADD MSTORE SWAP1 SWAP5 DUP6 SWAP4 DUP5 SWAP3 SWAP2 DUP4 SWAP1 PUSH1 0x64 DUP3 ADD SWAP1 JUMP JUMPDEST SUB SWAP4 AND GAS CALL DUP1 ISZERO PUSH2 0xF44 JUMPI PUSH2 0xF1F JUMPI POP POP DUP1 RETURN JUMPDEST DUP2 RETURNDATASIZE DUP4 GT PUSH2 0xF3D JUMPI JUMPDEST PUSH2 0xF32 DUP2 DUP4 PUSH2 0x2845 JUMP JUMPDEST DUP2 ADD SUB SLT PUSH2 0x4D4 JUMPI DUP1 RETURN JUMPDEST POP RETURNDATASIZE PUSH2 0xF28 JUMP JUMPDEST PUSH1 0x40 MLOAD RETURNDATASIZE DUP6 DUP3 RETURNDATACOPY RETURNDATASIZE SWAP1 REVERT JUMPDEST PUSH2 0xF65 SWAP1 DUP8 RETURNDATASIZE DUP10 GT PUSH2 0xABA JUMPI PUSH2 0xAAA DUP2 DUP4 PUSH2 0x2845 JUMP JUMPDEST POP CODESIZE PUSH2 0xEAC JUMP JUMPDEST POP PUSH1 0x40 MLOAD SWAP1 RETURNDATASIZE SWAP1 DUP3 RETURNDATACOPY RETURNDATASIZE SWAP1 REVERT JUMPDEST PUSH4 0x4E487B71 PUSH1 0xE0 SHL DUP11 MSTORE PUSH1 0x11 PUSH1 0x4 MSTORE PUSH1 0x24 DUP11 REVERT JUMPDEST SWAP1 POP DUP6 DUP2 DUP2 RETURNDATASIZE DUP4 GT PUSH2 0xFB3 JUMPI JUMPDEST PUSH2 0xFA4 DUP2 DUP4 PUSH2 0x2845 JUMP JUMPDEST DUP2 ADD SUB SLT PUSH2 0x4D4 JUMPI MLOAD CODESIZE PUSH2 0xDF5 JUMP JUMPDEST POP RETURNDATASIZE PUSH2 0xF9A JUMP JUMPDEST PUSH1 0x40 MLOAD RETURNDATASIZE DUP11 DUP3 RETURNDATACOPY RETURNDATASIZE SWAP1 REVERT JUMPDEST POP CALLVALUE PUSH2 0x225 JUMPI PUSH1 0x20 CALLDATASIZE PUSH1 0x3 NOT ADD SLT PUSH2 0x225 JUMPI PUSH1 0x4 CALLDATALOAD SWAP1 PUSH1 0x4 SLOAD DUP3 LT ISZERO PUSH2 0x225 JUMPI PUSH1 0x20 PUSH2 0xFF0 DUP4 PUSH2 0x28D3 JUMP JUMPDEST SWAP1 SLOAD PUSH1 0x40 MLOAD PUSH1 0x3 SWAP3 SWAP1 SWAP3 SHL SHR PUSH1 0x1 PUSH1 0x1 PUSH1 0xA0 SHL SUB AND DUP2 MSTORE RETURN JUMPDEST POP CALLVALUE PUSH2 0x225 JUMPI PUSH1 0x20 DUP1 PUSH1 0x3 NOT CALLDATASIZE ADD SLT PUSH2 0xA42 JUMPI PUSH1 0x1 PUSH1 0x1 PUSH1 0x40 SHL SUB SWAP1 PUSH1 0x4 CALLDATALOAD DUP3 DUP2 GT PUSH2 0x1201 JUMPI CALLDATASIZE PUSH1 0x23 DUP3 ADD SLT ISZERO PUSH2 0x1201 JUMPI DUP1 PUSH1 0x4 ADD CALLDATALOAD PUSH2 0x1048 DUP2 PUSH2 0x28BC JUMP JUMPDEST SWAP1 PUSH2 0x1056 PUSH1 0x40 MLOAD SWAP3 DUP4 PUSH2 0x2845 JUMP JUMPDEST DUP1 DUP3 MSTORE DUP4 DUP3 ADD SWAP3 DUP4 PUSH1 0x24 DUP1 SWAP4 PUSH1 0x5 SHL DUP4 ADD ADD SWAP2 CALLDATASIZE DUP4 GT PUSH2 0x11FD JUMPI DUP4 DUP8 SWAP2 ADD SWAP2 JUMPDEST DUP4 DUP4 LT PUSH2 0x11E5 JUMPI POP POP POP POP PUSH2 0x1089 PUSH2 0x3CCA JUMP JUMPDEST DUP2 MLOAD ISZERO PUSH2 0x11A2 JUMPI PUSH1 0x4 SLOAD SWAP2 DUP3 PUSH2 0x115E JUMPI MLOAD SWAP5 DUP6 GT PUSH2 0x114C JUMPI PUSH9 0x10000000000000000 DUP6 GT PUSH2 0x114C JUMPI POP DUP4 PUSH1 0x4 SSTORE DUP1 DUP5 LT PUSH2 0x110C JUMPI JUMPDEST POP SWAP1 PUSH1 0x4 DUP5 MSTORE DUP4 JUMPDEST DUP4 DUP2 LT PUSH2 0x10D1 JUMPI DUP5 DUP1 RETURN JUMPDEST DUP3 MLOAD PUSH1 0x1 PUSH1 0x1 PUSH1 0xA0 SHL SUB AND PUSH32 0x8A35ACFBC15FF81A39AE7D344FD709F28E8600B4AA8C65C6B64BFE7FE36BD19B DUP3 ADD SSTORE SWAP2 DUP2 ADD SWAP2 PUSH1 0x1 ADD PUSH2 0x10C6 JUMP JUMPDEST DUP4 PUSH32 0x8A35ACFBC15FF81A39AE7D344FD709F28E8600B4AA8C65C6B64BFE7FE36BD19B SWAP2 DUP3 ADD SWAP2 ADD JUMPDEST DUP2 DUP2 LT PUSH2 0x1141 JUMPI POP PUSH2 0x10BE JUMP JUMPDEST DUP6 DUP2 SSTORE PUSH1 0x1 ADD PUSH2 0x1134 JUMP JUMPDEST PUSH4 0x4E487B71 PUSH1 0xE0 SHL DUP7 MSTORE PUSH1 0x41 PUSH1 0x4 MSTORE DUP6 REVERT JUMPDEST PUSH1 0x40 MLOAD PUSH3 0x461BCD PUSH1 0xE5 SHL DUP2 MSTORE PUSH1 0x4 DUP2 ADD DUP7 SWAP1 MSTORE PUSH1 0x1A DUP2 DUP5 ADD MSTORE PUSH32 0x616C6C6F7765644E6F646573206D75737420626520656D707479000000000000 PUSH1 0x44 DUP3 ADD MSTORE PUSH1 0x64 SWAP1 REVERT JUMPDEST DUP4 PUSH1 0x17 PUSH1 0x64 SWAP3 PUSH1 0x40 MLOAD SWAP3 PUSH3 0x461BCD PUSH1 0xE5 SHL DUP5 MSTORE PUSH1 0x4 DUP5 ADD MSTORE DUP3 ADD MSTORE PUSH32 0x596F752073656E7420616E20656D707479206172726179000000000000000000 PUSH1 0x44 DUP3 ADD MSTORE REVERT JUMPDEST DUP2 SWAP1 PUSH2 0x11F0 DUP5 PUSH2 0x2781 JUMP JUMPDEST DUP2 MSTORE ADD SWAP2 ADD SWAP1 DUP7 SWAP1 PUSH2 0x1076 JUMP JUMPDEST DUP9 DUP1 REVERT JUMPDEST DUP4 DUP1 REVERT JUMPDEST POP CALLVALUE PUSH2 0x225 JUMPI PUSH1 0x20 SWAP1 DUP2 PUSH1 0x3 NOT CALLDATASIZE ADD SLT PUSH2 0x225 JUMPI PUSH1 0x40 MLOAD PUSH4 0x70A08231 PUSH1 0xE0 SHL DUP2 MSTORE ADDRESS PUSH1 0x4 DUP3 DUP2 ADD SWAP2 SWAP1 SWAP2 MSTORE CALLDATALOAD DUP4 DUP3 PUSH1 0x24 DUP2 PUSH32 0x0 PUSH1 0x1 PUSH1 0x1 PUSH1 0xA0 SHL SUB AND GAS STATICCALL SWAP2 DUP3 ISZERO PUSH2 0xF44 JUMPI DUP4 SWAP3 PUSH2 0x12C0 JUMPI JUMPDEST POP PUSH8 0xDE0B6B3A7640000 SWAP3 DUP4 DUP3 MUL SWAP2 DUP1 DUP4 DIV DUP6 EQ SWAP1 ISZERO OR ISZERO PUSH2 0x12AC JUMPI POP PUSH2 0x12A3 SWAP2 PUSH2 0x129A SWAP2 PUSH2 0x2920 JUMP JUMPDEST PUSH1 0x7 SLOAD SWAP1 PUSH2 0x29EF JUMP JUMPDEST DIV PUSH1 0x40 MLOAD SWAP1 DUP2 MSTORE RETURN JUMPDEST PUSH4 0x4E487B71 PUSH1 0xE0 SHL DUP2 MSTORE PUSH1 0x11 PUSH1 0x4 MSTORE PUSH1 0x24 SWAP1 REVERT JUMPDEST SWAP1 SWAP2 POP DUP4 DUP2 DUP2 RETURNDATASIZE DUP4 GT PUSH2 0x12E8 JUMPI JUMPDEST PUSH2 0x12D8 DUP2 DUP4 PUSH2 0x2845 JUMP JUMPDEST DUP2 ADD SUB SLT PUSH2 0x4D4 JUMPI MLOAD SWAP1 CODESIZE PUSH2 0x1270 JUMP JUMPDEST POP RETURNDATASIZE PUSH2 0x12CE JUMP JUMPDEST POP CALLVALUE PUSH2 0x225 JUMPI DUP1 PUSH1 0x3 NOT CALLDATASIZE ADD SLT PUSH2 0x225 JUMPI PUSH1 0x40 MLOAD PUSH32 0x0 PUSH1 0x1 PUSH1 0x1 PUSH1 0xA0 SHL SUB AND DUP2 MSTORE PUSH1 0x20 SWAP1 RETURN JUMPDEST POP CALLVALUE PUSH2 0x225 JUMPI PUSH1 0x40 CALLDATASIZE PUSH1 0x3 NOT ADD SLT PUSH2 0x225 JUMPI PUSH2 0x134E PUSH2 0x2795 JUMP JUMPDEST PUSH2 0x1356 PUSH2 0x276B JUMP JUMPDEST SWAP1 PUSH1 0x1 PUSH1 0x1 PUSH1 0x40 SHL SUB PUSH2 0x13AE DUP2 PUSH32 0x0 AND DUP3 PUSH32 0x0 AND EQ PUSH2 0x2949 JUMP JUMPDEST PUSH1 0x1 PUSH1 0x1 PUSH1 0xA0 SHL SUB PUSH2 0x13E3 CALLER PUSH32 0x0 DUP4 AND EQ PUSH2 0x29A3 JUMP JUMPDEST PUSH32 0x0 SWAP4 PUSH2 0x1486 PUSH2 0x1453 DUP7 PUSH32 0x0 PUSH32 0x0 PUSH2 0x3A16 JUMP JUMPDEST DUP1 SWAP7 PUSH1 0x7 SLOAD PUSH1 0x40 MLOAD SWAP1 PUSH1 0x2 PUSH1 0x20 DUP4 ADD MSTORE PUSH1 0x40 DUP3 ADD MSTORE PUSH1 0x40 DUP2 MSTORE PUSH2 0x1475 DUP2 PUSH2 0x282A JUMP JUMPDEST PUSH1 0xFF NOT PUSH1 0x3 SLOAD AND PUSH1 0x3 SSTORE DUP5 DUP9 PUSH2 0x2A8D JUMP JUMPDEST POP AND SWAP2 AND PUSH32 0x4EE48AB43D52BE2082A80761272F218FE0871F5B8DBA97D174EC2DB28B3B2218 DUP5 DUP1 LOG4 DUP1 RETURN JUMPDEST POP CALLVALUE PUSH2 0x225 JUMPI DUP1 PUSH1 0x3 NOT CALLDATASIZE ADD SLT PUSH2 0x225 JUMPI SLOAD PUSH1 0x40 MLOAD PUSH1 0x1 PUSH1 0x1 PUSH1 0xA0 SHL SUB SWAP1 SWAP2 AND DUP2 MSTORE PUSH1 0x20 SWAP1 RETURN JUMPDEST POP CALLVALUE PUSH2 0x225 JUMPI DUP1 PUSH1 0x3 NOT CALLDATASIZE ADD SLT PUSH2 0x225 JUMPI PUSH1 0x20 PUSH1 0x40 MLOAD PUSH1 0x1 PUSH1 0x1 PUSH1 0x40 SHL SUB PUSH32 0x0 AND DUP2 MSTORE RETURN JUMPDEST POP CALLVALUE PUSH2 0x225 JUMPI PUSH1 0x3 NOT PUSH1 0x20 CALLDATASIZE DUP3 ADD SLT PUSH2 0xA42 JUMPI PUSH1 0x4 CALLDATALOAD PUSH1 0x1 PUSH1 0x1 PUSH1 0x40 SHL SUB SWAP2 DUP3 DUP3 GT PUSH2 0x1201 JUMPI PUSH1 0xA0 SWAP1 DUP3 CALLDATASIZE SUB ADD SLT PUSH2 0xA3E JUMPI PUSH32 0x0 PUSH1 0x1 PUSH1 0x1 PUSH1 0xA0 SHL SUB AND CALLER SUB PUSH2 0x229C JUMPI PUSH1 0x40 MLOAD PUSH2 0x158A DUP2 PUSH2 0x27C6 JUMP JUMPDEST DUP2 PUSH1 0x4 ADD CALLDATALOAD DUP2 MSTORE PUSH1 0x24 DUP3 ADD CALLDATALOAD DUP4 DUP2 AND DUP2 SUB PUSH2 0xA8F JUMPI PUSH1 0x20 DUP3 ADD MSTORE PUSH1 0x44 DUP3 ADD CALLDATALOAD DUP4 DUP2 GT PUSH2 0xA8F JUMPI PUSH2 0x15C0 SWAP1 PUSH1 0x4 CALLDATASIZE SWAP2 DUP6 ADD ADD PUSH2 0x2866 JUMP JUMPDEST SWAP1 PUSH1 0x40 DUP2 ADD SWAP2 DUP3 MSTORE PUSH1 0x64 DUP4 ADD CALLDATALOAD DUP5 DUP2 GT PUSH2 0x458 JUMPI PUSH2 0x15E4 SWAP1 PUSH1 0x4 CALLDATASIZE SWAP2 DUP7 ADD ADD PUSH2 0x2866 JUMP JUMPDEST SWAP3 PUSH1 0x60 DUP3 ADD SWAP4 DUP5 MSTORE PUSH1 0x84 DUP2 ADD CALLDATALOAD SWAP1 DUP6 DUP3 GT PUSH2 0x21BE JUMPI ADD SWAP1 CALLDATASIZE PUSH1 0x23 DUP4 ADD SLT ISZERO PUSH2 0x458 JUMPI PUSH1 0x4 DUP3 ADD CALLDATALOAD PUSH2 0x1614 DUP2 PUSH2 0x28BC JUMP JUMPDEST SWAP3 PUSH2 0x1622 PUSH1 0x40 MLOAD SWAP5 DUP6 PUSH2 0x2845 JUMP JUMPDEST DUP2 DUP5 MSTORE PUSH1 0x24 PUSH1 0x20 DUP6 ADD SWAP3 PUSH1 0x6 SHL DUP3 ADD ADD SWAP1 CALLDATASIZE DUP3 GT PUSH2 0x11FD JUMPI PUSH1 0x24 ADD SWAP2 JUMPDEST DUP2 DUP4 LT PUSH2 0x2264 JUMPI POP POP POP PUSH1 0x80 ADD MSTORE MLOAD PUSH1 0x20 DUP2 DUP1 MLOAD DUP2 ADD SUB SLT PUSH2 0x1201 JUMPI PUSH2 0x1683 SWAP1 PUSH2 0x167E SWAP1 PUSH1 0x1 PUSH1 0x1 PUSH1 0xA0 SHL SUB SWAP1 PUSH2 0x1678 SWAP1 PUSH1 0x20 ADD PUSH2 0x3964 JUMP JUMPDEST AND PUSH2 0x3734 JUMP JUMPDEST PUSH2 0x2A41 JUMP JUMPDEST DUP1 MLOAD PUSH1 0x20 DUP2 DUP1 MLOAD DUP2 ADD SUB SLT PUSH2 0x1201 JUMPI PUSH2 0x16A0 PUSH1 0x20 PUSH1 0xFF SWAP3 ADD PUSH2 0x3978 JUMP JUMPDEST AND DUP1 PUSH2 0x18F0 JUMPI POP SWAP1 POP MLOAD PUSH1 0x60 DUP2 DUP1 MLOAD DUP2 ADD SUB SLT PUSH2 0xA42 JUMPI PUSH2 0x16C3 PUSH1 0x20 DUP3 ADD PUSH2 0x3978 JUMP JUMPDEST POP PUSH1 0x60 PUSH2 0x16D2 PUSH1 0x40 DUP4 ADD PUSH2 0x3964 JUMP JUMPDEST SWAP2 ADD MLOAD SWAP1 PUSH1 0x1 PUSH1 0x1 PUSH1 0xA0 SHL SUB AND PUSH2 0x1708 PUSH32 0x0 PUSH2 0x39BD JUMP JUMPDEST PUSH1 0x40 MLOAD PUSH4 0x70A08231 PUSH1 0xE0 SHL DUP2 MSTORE ADDRESS PUSH1 0x4 DUP3 ADD MSTORE PUSH32 0x0 PUSH1 0x1 PUSH1 0x1 PUSH1 0xA0 SHL SUB AND SWAP2 SWAP1 PUSH1 0x20 DUP2 PUSH1 0x24 DUP2 DUP7 GAS STATICCALL SWAP1 DUP2 ISZERO PUSH2 0x4E1 JUMPI DUP7 SWAP2 PUSH2 0x18BE JUMPI JUMPDEST POP PUSH8 0xDE0B6B3A7640000 SWAP1 DUP2 DUP7 MUL DUP7 DUP2 DIV DUP4 EQ DUP8 ISZERO OR ISZERO PUSH2 0xACC JUMPI SWAP1 PUSH2 0x1783 SWAP2 PUSH2 0x2920 JUMP JUMPDEST PUSH2 0x1794 DUP7 PUSH2 0xE2B PUSH1 0x7 SLOAD DUP1 SWAP5 PUSH2 0x29EF JUMP JUMPDEST PUSH1 0x7 SSTORE PUSH1 0x3 SLOAD PUSH1 0xFF AND PUSH2 0x17BB JUMPI POP POP POP POP DUP3 MSTORE PUSH1 0x8 PUSH1 0x20 MSTORE PUSH2 0xE5A PUSH1 0x40 DUP4 KECCAK256 SWAP2 DUP3 SLOAD PUSH2 0x2A34 JUMP JUMPDEST PUSH1 0x40 MLOAD PUSH4 0x95EA7B3 PUSH1 0xE0 SHL DUP2 MSTORE PUSH1 0x1 PUSH1 0x1 PUSH1 0xA0 SHL SUB DUP5 AND PUSH1 0x4 DUP3 ADD MSTORE SWAP2 SWAP1 DIV PUSH1 0x24 DUP3 ADD DUP2 SWAP1 MSTORE SWAP1 SWAP5 POP SWAP3 SWAP2 PUSH1 0x20 SWAP1 DUP6 SWAP1 PUSH1 0x44 SWAP1 DUP3 SWAP1 DUP10 SWAP1 GAS CALL SWAP3 DUP4 ISZERO PUSH2 0x18B3 JUMPI PUSH2 0x1866 SWAP5 PUSH1 0x20 SWAP5 PUSH2 0x1896 JUMPI JUMPDEST POP PUSH1 0x40 MLOAD PUSH4 0x1A4CA37B PUSH1 0xE2 SHL DUP2 MSTORE PUSH1 0x1 PUSH1 0x1 PUSH1 0xA0 SHL SUB PUSH32 0x0 DUP2 AND PUSH1 0x4 DUP4 ADD MSTORE PUSH1 0x24 DUP3 ADD SWAP3 SWAP1 SWAP3 MSTORE SWAP3 AND PUSH1 0x44 DUP4 ADD MSTORE SWAP1 SWAP3 DUP4 SWAP2 SWAP1 DUP3 SWAP1 DUP7 SWAP1 DUP3 SWAP1 PUSH1 0x64 DUP3 ADD SWAP1 JUMP JUMPDEST SUB SWAP3 PUSH1 0x1 PUSH1 0x1 PUSH1 0xA0 SHL SUB AND GAS CALL DUP1 ISZERO PUSH2 0x44D JUMPI PUSH2 0x1881 JUMPI POP DUP1 RETURN JUMPDEST PUSH1 0x20 SWAP1 DUP2 RETURNDATASIZE DUP4 GT PUSH2 0xF3D JUMPI PUSH2 0xF32 DUP2 DUP4 PUSH2 0x2845 JUMP JUMPDEST PUSH2 0x18AC SWAP1 DUP6 RETURNDATASIZE DUP8 GT PUSH2 0xABA JUMPI PUSH2 0xAAA DUP2 DUP4 PUSH2 0x2845 JUMP JUMPDEST POP CODESIZE PUSH2 0x1807 JUMP JUMPDEST PUSH1 0x40 MLOAD RETURNDATASIZE DUP8 DUP3 RETURNDATACOPY RETURNDATASIZE SWAP1 REVERT JUMPDEST SWAP1 POP PUSH1 0x20 DUP2 RETURNDATASIZE PUSH1 0x20 GT PUSH2 0x18E8 JUMPI JUMPDEST DUP2 PUSH2 0x18D9 PUSH1 0x20 SWAP4 DUP4 PUSH2 0x2845 JUMP JUMPDEST DUP2 ADD SUB SLT PUSH2 0x4D4 JUMPI MLOAD CODESIZE PUSH2 0x175E JUMP JUMPDEST RETURNDATASIZE SWAP2 POP PUSH2 0x18CC JUMP JUMPDEST PUSH1 0x1 DUP2 SUB PUSH2 0x1A07 JUMPI POP MLOAD PUSH1 0x60 DUP2 DUP1 MLOAD DUP2 ADD SUB SLT PUSH2 0xA3E JUMPI PUSH2 0x1913 PUSH1 0x20 DUP3 ADD PUSH2 0x3978 JUMP JUMPDEST POP PUSH1 0x40 DUP2 ADD MLOAD SWAP2 DUP3 AND SWAP1 DUP2 DUP4 SUB PUSH2 0x1201 JUMPI PUSH1 0x1 PUSH1 0x1 PUSH1 0xA0 SHL SUB SWAP1 PUSH2 0x1939 SWAP1 PUSH1 0x60 ADD PUSH2 0x3964 JUMP JUMPDEST AND SWAP1 PUSH2 0x19DF PUSH32 0x0 SWAP4 PUSH2 0x19AB DUP6 PUSH32 0x0 PUSH32 0x0 PUSH2 0x3A16 JUMP JUMPDEST SWAP5 DUP6 SWAP2 DUP6 PUSH1 0x7 SLOAD SWAP2 PUSH1 0x40 MLOAD SWAP3 PUSH1 0x2 PUSH1 0x20 DUP6 ADD MSTORE PUSH1 0x40 DUP5 ADD MSTORE PUSH1 0x40 DUP4 MSTORE PUSH2 0x19D0 DUP4 PUSH2 0x282A JUMP JUMPDEST PUSH1 0xFF NOT PUSH1 0x3 SLOAD AND PUSH1 0x3 SSTORE PUSH2 0x2A8D JUMP JUMPDEST POP PUSH32 0x4EE48AB43D52BE2082A80761272F218FE0871F5B8DBA97D174EC2DB28B3B2218 DUP5 DUP1 LOG4 DUP1 RETURN JUMPDEST PUSH1 0x2 SUB PUSH2 0x222D JUMPI MLOAD PUSH1 0x40 DUP2 DUP1 MLOAD DUP2 ADD SUB SLT PUSH2 0xA3E JUMPI DUP1 PUSH2 0x1A2B PUSH1 0x20 PUSH1 0x40 SWAP4 ADD PUSH2 0x3978 JUMP JUMPDEST POP ADD MLOAD PUSH1 0x7 SSTORE PUSH1 0x1 PUSH1 0xFF NOT PUSH1 0x3 SLOAD AND OR PUSH1 0x3 SSTORE PUSH1 0x40 MLOAD SWAP1 PUSH1 0x1 PUSH1 0x20 DUP4 ADD MSTORE PUSH1 0x20 DUP3 MSTORE PUSH2 0x1A56 DUP3 PUSH2 0x27E1 JUMP JUMPDEST DUP1 PUSH32 0x0 AND SWAP1 PUSH32 0x0 AND EQ PUSH1 0x0 EQ PUSH2 0x1B80 JUMPI POP PUSH2 0x1AEF PUSH32 0x0 PUSH32 0x0 PUSH2 0x3B91 JUMP JUMPDEST DUP1 PUSH32 0x0 PUSH1 0x1 PUSH1 0x1 PUSH1 0xA0 SHL SUB AND DUP1 EXTCODESIZE ISZERO PUSH2 0x1B7D JUMPI DUP2 SWAP1 PUSH1 0x4 PUSH1 0x40 MLOAD DUP1 SWAP5 DUP2 SWAP4 PUSH4 0x4CAB8A57 PUSH1 0xE1 SHL DUP4 MSTORE GAS CALL DUP1 ISZERO PUSH2 0x44D JUMPI PUSH2 0x1B6E JUMPI JUMPDEST POP JUMPDEST PUSH1 0x1 PUSH32 0xD8FB8E7C260C25E52D8B9C9F1E795C6A98EB972E58C44E482C8F0158F656A04B DUP3 DUP1 LOG2 DUP1 RETURN JUMPDEST PUSH2 0x1B77 SWAP1 PUSH2 0x27FC JUMP JUMPDEST CODESIZE PUSH2 0x1B43 JUMP JUMPDEST POP REVERT JUMPDEST PUSH32 0x0 SWAP1 DUP3 SWAP1 PUSH2 0x1BB0 PUSH2 0x167E DUP5 PUSH2 0x3734 JUMP JUMPDEST PUSH1 0x60 PUSH1 0x80 PUSH1 0x40 MLOAD PUSH2 0x1BC0 DUP2 PUSH2 0x27C6 JUMP JUMPDEST DUP3 DUP2 MSTORE DUP3 PUSH1 0x20 DUP3 ADD MSTORE DUP3 PUSH1 0x40 DUP3 ADD MSTORE DUP7 DUP4 DUP3 ADD MSTORE ADD MSTORE PUSH1 0x40 MLOAD PUSH2 0x1BE2 DUP2 PUSH2 0x27AB JUMP JUMPDEST DUP5 DUP2 MSTORE PUSH1 0x40 MLOAD SWAP4 PUSH1 0x1 DUP1 PUSH1 0xA0 SHL SUB AND PUSH1 0x20 DUP6 ADD MSTORE PUSH1 0x20 DUP5 MSTORE PUSH2 0x1C03 DUP5 PUSH2 0x27E1 JUMP JUMPDEST PUSH2 0x1C1D PUSH1 0x40 MLOAD PUSH2 0x1C12 DUP2 PUSH2 0x27AB JUMP JUMPDEST PUSH3 0x1E8480 DUP2 MSTORE PUSH2 0x3986 JUMP JUMPDEST SWAP2 PUSH1 0x40 MLOAD SWAP5 PUSH2 0x1C2B DUP7 PUSH2 0x27C6 JUMP JUMPDEST DUP6 MSTORE PUSH1 0x20 DUP6 ADD MSTORE PUSH1 0x40 DUP5 ADD MSTORE DUP4 PUSH1 0x60 DUP5 ADD MSTORE PUSH1 0x80 DUP4 ADD MSTORE PUSH1 0x40 MLOAD PUSH4 0xB0F479A1 PUSH1 0xE0 SHL DUP2 MSTORE PUSH1 0x20 DUP2 PUSH1 0x4 DUP2 ADDRESS GAS STATICCALL SWAP1 DUP2 ISZERO PUSH2 0x529 JUMPI DUP5 SWAP2 PUSH2 0x21FE JUMPI JUMPDEST POP PUSH1 0x40 MLOAD PUSH4 0x20487DED PUSH1 0xE0 SHL DUP2 MSTORE SWAP1 PUSH1 0x20 DUP3 DUP1 PUSH2 0x1CA7 DUP8 PUSH32 0x0 PUSH1 0x4 DUP5 ADD PUSH2 0x366B JUMP JUMPDEST SUB DUP2 PUSH1 0x1 PUSH1 0x1 PUSH1 0xA0 SHL SUB DUP6 AND GAS STATICCALL SWAP2 DUP3 ISZERO PUSH2 0x18B3 JUMPI DUP6 SWAP3 PUSH2 0x21CA JUMPI JUMPDEST POP PUSH1 0x40 MLOAD PUSH4 0x70A08231 PUSH1 0xE0 SHL DUP2 MSTORE ADDRESS PUSH1 0x4 DUP3 ADD MSTORE PUSH32 0x0 SWAP1 PUSH1 0x20 DUP2 PUSH1 0x24 DUP2 PUSH1 0x1 PUSH1 0x1 PUSH1 0xA0 SHL SUB DUP7 AND GAS STATICCALL SWAP1 DUP2 ISZERO PUSH2 0xAC1 JUMPI DUP8 SWAP2 PUSH2 0x2194 JUMPI JUMPDEST POP PUSH2 0x2141 JUMPI JUMPDEST POP PUSH1 0x40 MLOAD PUSH4 0x70A08231 PUSH1 0xE0 SHL DUP2 MSTORE ADDRESS PUSH1 0x4 DUP3 ADD MSTORE PUSH32 0x0 SWAP5 SWAP1 DUP7 SWAP1 PUSH1 0x20 DUP2 PUSH1 0x24 DUP2 PUSH1 0x1 PUSH1 0x1 PUSH1 0xA0 SHL SUB DUP12 AND GAS STATICCALL SWAP1 DUP2 ISZERO PUSH2 0x44D JUMPI DUP3 SWAP2 PUSH2 0x210F JUMPI JUMPDEST POP PUSH1 0x6 SLOAD PUSH1 0x40 MLOAD PUSH4 0x95EA7B3 PUSH1 0xE0 SHL DUP2 MSTORE PUSH1 0x1 PUSH1 0x1 PUSH1 0xA0 SHL SUB SWAP1 SWAP2 AND PUSH1 0x4 DUP3 ADD MSTORE PUSH1 0x24 DUP2 ADD DUP3 SWAP1 MSTORE PUSH1 0x20 DUP2 DUP1 PUSH1 0x44 DUP2 ADD SUB DUP2 DUP7 PUSH1 0x1 PUSH1 0x1 PUSH1 0xA0 SHL SUB DUP14 AND GAS CALL DUP1 ISZERO PUSH2 0xF44 JUMPI PUSH2 0x20F0 JUMPI JUMPDEST POP PUSH1 0x40 MLOAD SWAP1 PUSH2 0x1DD0 DUP3 PUSH2 0x280F JUMP JUMPDEST PUSH1 0x1 PUSH1 0x1 PUSH1 0xA0 SHL SUB DUP9 DUP2 AND DUP4 MSTORE PUSH32 0x0 DUP2 AND PUSH1 0x20 DUP1 DUP6 ADD DUP3 DUP2 MSTORE PUSH32 0x0 PUSH2 0xFFFF AND PUSH1 0x40 DUP1 DUP9 ADD SWAP2 DUP3 MSTORE ADDRESS PUSH1 0x60 DUP10 ADD SWAP1 DUP2 MSTORE PUSH1 0x80 DUP10 ADD DUP14 DUP2 MSTORE PUSH1 0xA0 DUP11 ADD SWAP9 DUP10 MSTORE PUSH1 0xC0 DUP11 ADD DUP12 DUP2 MSTORE PUSH1 0x6 SLOAD SWAP4 MLOAD PUSH4 0x5023B4DF PUSH1 0xE0 SHL DUP2 MSTORE SWAP11 MLOAD DUP10 AND PUSH1 0x4 DUP13 ADD MSTORE SWAP5 MLOAD DUP9 AND PUSH1 0x24 DUP12 ADD MSTORE SWAP3 MLOAD PUSH3 0xFFFFFF AND PUSH1 0x44 DUP11 ADD MSTORE MLOAD DUP7 AND PUSH1 0x64 DUP10 ADD MSTORE SWAP1 MLOAD PUSH1 0x84 DUP9 ADD MSTORE SWAP5 MLOAD PUSH1 0xA4 DUP8 ADD MSTORE MLOAD DUP4 AND PUSH1 0xC4 DUP7 ADD MSTORE SWAP1 SWAP4 SWAP3 SWAP1 SWAP2 DUP4 SWAP2 PUSH1 0xE4 SWAP2 DUP4 SWAP2 DUP9 SWAP2 AND GAS CALL DUP1 ISZERO PUSH2 0xF44 JUMPI PUSH2 0x20C5 JUMPI JUMPDEST POP DUP1 EXTCODESIZE ISZERO PUSH2 0xA42 JUMPI DUP2 SWAP1 PUSH1 0x24 PUSH1 0x40 MLOAD DUP1 SWAP5 DUP2 SWAP4 PUSH4 0x2E1A7D4D PUSH1 0xE0 SHL DUP4 MSTORE DUP10 PUSH1 0x4 DUP5 ADD MSTORE GAS CALL DUP1 ISZERO PUSH2 0xAC1 JUMPI PUSH2 0x20B2 JUMPI JUMPDEST POP SELFBALANCE DUP4 GT PUSH2 0x2093 JUMPI DUP4 PUSH2 0x202B JUMPI JUMPDEST PUSH1 0x20 SWAP2 PUSH2 0x1F3B SWAP2 PUSH1 0x40 MLOAD SWAP5 DUP6 DUP1 SWAP5 DUP2 SWAP4 PUSH4 0x96F4E9F9 PUSH1 0xE0 SHL DUP4 MSTORE PUSH32 0x0 PUSH1 0x4 DUP5 ADD PUSH2 0x366B JUMP JUMPDEST SUB SWAP3 PUSH1 0x1 PUSH1 0x1 PUSH1 0xA0 SHL SUB AND GAS CALL DUP1 ISZERO PUSH2 0x44D JUMPI PUSH2 0x2000 JUMPI JUMPDEST POP PUSH1 0x40 MLOAD PUSH4 0x70A08231 PUSH1 0xE0 SHL DUP2 MSTORE ADDRESS PUSH1 0x4 DUP3 ADD MSTORE PUSH1 0x20 DUP2 PUSH1 0x24 DUP2 PUSH1 0x1 PUSH1 0x1 PUSH1 0xA0 SHL SUB DUP8 AND GAS STATICCALL SWAP2 DUP3 ISZERO PUSH2 0x1FF4 JUMPI SWAP2 PUSH2 0x1FC2 JUMPI JUMPDEST POP PUSH2 0x1F92 JUMPI JUMPDEST POP PUSH2 0x1B45 JUMP JUMPDEST PUSH2 0x1FBC SWAP1 PUSH32 0x0 PUSH2 0x3B91 JUMP JUMPDEST CODESIZE PUSH2 0x1F8C JUMP JUMPDEST SWAP1 POP PUSH1 0x20 DUP2 RETURNDATASIZE PUSH1 0x20 GT PUSH2 0x1FEC JUMPI JUMPDEST DUP2 PUSH2 0x1FDD PUSH1 0x20 SWAP4 DUP4 PUSH2 0x2845 JUMP JUMPDEST DUP2 ADD SUB SLT PUSH2 0xA3E JUMPI MLOAD CODESIZE PUSH2 0x1F86 JUMP JUMPDEST RETURNDATASIZE SWAP2 POP PUSH2 0x1FD0 JUMP JUMPDEST PUSH1 0x40 MLOAD SWAP1 RETURNDATASIZE SWAP1 DUP3 RETURNDATACOPY RETURNDATASIZE SWAP1 REVERT JUMPDEST PUSH1 0x20 SWAP1 DUP2 RETURNDATASIZE DUP4 GT PUSH2 0x2024 JUMPI JUMPDEST PUSH2 0x2016 DUP2 DUP4 PUSH2 0x2845 JUMP JUMPDEST DUP2 ADD SUB SLT PUSH2 0xA3E JUMPI CODESIZE PUSH2 0x1F53 JUMP JUMPDEST POP RETURNDATASIZE PUSH2 0x200C JUMP JUMPDEST PUSH1 0x40 MLOAD PUSH4 0x95EA7B3 PUSH1 0xE0 SHL DUP2 MSTORE PUSH1 0x1 PUSH1 0x1 PUSH1 0xA0 SHL SUB DUP4 AND PUSH1 0x4 DUP3 ADD MSTORE PUSH1 0x24 DUP2 ADD DUP8 SWAP1 MSTORE PUSH1 0x20 DUP2 PUSH1 0x44 DUP2 DUP9 DUP1 GAS CALL DUP1 ISZERO PUSH2 0x18B3 JUMPI SWAP2 PUSH1 0x20 SWAP4 SWAP2 PUSH2 0x1F3B SWAP4 PUSH2 0x2076 JUMPI JUMPDEST POP SWAP2 POP SWAP2 POP PUSH2 0x1EF7 JUMP JUMPDEST PUSH2 0x208C SWAP1 DUP6 RETURNDATASIZE DUP8 GT PUSH2 0xABA JUMPI PUSH2 0xAAA DUP2 DUP4 PUSH2 0x2845 JUMP JUMPDEST POP CODESIZE PUSH2 0x206C JUMP JUMPDEST PUSH1 0x40 MLOAD PUSH4 0x4787A103 PUSH1 0xE1 SHL DUP2 MSTORE SELFBALANCE PUSH1 0x4 DUP3 ADD MSTORE PUSH1 0x24 DUP2 ADD DUP5 SWAP1 MSTORE PUSH1 0x44 SWAP1 REVERT JUMPDEST PUSH2 0x20BD SWAP2 SWAP5 POP PUSH2 0x27FC JUMP JUMPDEST DUP5 SWAP3 CODESIZE PUSH2 0x1EE9 JUMP JUMPDEST PUSH1 0x20 SWAP1 DUP2 RETURNDATASIZE DUP4 GT PUSH2 0x20E9 JUMPI JUMPDEST PUSH2 0x20DB DUP2 DUP4 PUSH2 0x2845 JUMP JUMPDEST DUP2 ADD SUB SLT PUSH2 0xA42 JUMPI CODESIZE PUSH2 0x1EB9 JUMP JUMPDEST POP RETURNDATASIZE PUSH2 0x20D1 JUMP JUMPDEST PUSH2 0x2108 SWAP1 PUSH1 0x20 RETURNDATASIZE PUSH1 0x20 GT PUSH2 0xABA JUMPI PUSH2 0xAAA DUP2 DUP4 PUSH2 0x2845 JUMP JUMPDEST POP CODESIZE PUSH2 0x1DC2 JUMP JUMPDEST SWAP1 POP PUSH1 0x20 DUP2 RETURNDATASIZE PUSH1 0x20 GT PUSH2 0x2139 JUMPI JUMPDEST DUP2 PUSH2 0x212A PUSH1 0x20 SWAP4 DUP4 PUSH2 0x2845 JUMP JUMPDEST DUP2 ADD SUB SLT PUSH2 0xA42 JUMPI MLOAD CODESIZE PUSH2 0x1D78 JUMP JUMPDEST RETURNDATASIZE SWAP2 POP PUSH2 0x211D JUMP JUMPDEST PUSH2 0x218D SWAP1 PUSH32 0x0 SWAP1 PUSH32 0x0 PUSH2 0x3A16 JUMP JUMPDEST POP CODESIZE PUSH2 0x1D1F JUMP JUMPDEST SWAP1 POP PUSH1 0x20 DUP2 RETURNDATASIZE PUSH1 0x20 GT PUSH2 0x21C2 JUMPI JUMPDEST DUP2 PUSH2 0x21AF PUSH1 0x20 SWAP4 DUP4 PUSH2 0x2845 JUMP JUMPDEST DUP2 ADD SUB SLT PUSH2 0x21BE JUMPI MLOAD CODESIZE PUSH2 0x1D19 JUMP JUMPDEST DUP7 DUP1 REVERT JUMPDEST RETURNDATASIZE SWAP2 POP PUSH2 0x21A2 JUMP JUMPDEST SWAP1 SWAP2 POP PUSH1 0x20 DUP2 RETURNDATASIZE PUSH1 0x20 GT PUSH2 0x21F6 JUMPI JUMPDEST DUP2 PUSH2 0x21E6 PUSH1 0x20 SWAP4 DUP4 PUSH2 0x2845 JUMP JUMPDEST DUP2 ADD SUB SLT PUSH2 0xA8F JUMPI MLOAD SWAP1 CODESIZE PUSH2 0x1CC3 JUMP JUMPDEST RETURNDATASIZE SWAP2 POP PUSH2 0x21D9 JUMP JUMPDEST PUSH2 0x2220 SWAP2 POP PUSH1 0x20 RETURNDATASIZE PUSH1 0x20 GT PUSH2 0x2226 JUMPI JUMPDEST PUSH2 0x2218 DUP2 DUP4 PUSH2 0x2845 JUMP JUMPDEST DUP2 ADD SWAP1 PUSH2 0x360C JUMP JUMPDEST CODESIZE PUSH2 0x1C66 JUMP JUMPDEST POP RETURNDATASIZE PUSH2 0x220E JUMP JUMPDEST PUSH1 0x40 MLOAD PUSH3 0x461BCD PUSH1 0xE5 SHL DUP2 MSTORE PUSH1 0x20 PUSH1 0x4 DUP3 ADD MSTORE PUSH1 0xF PUSH1 0x24 DUP3 ADD MSTORE PUSH15 0x1A5B9D985B1A590818DBDB5B585B99 PUSH1 0x8A SHL PUSH1 0x44 DUP3 ADD MSTORE PUSH1 0x64 SWAP1 REVERT JUMPDEST PUSH1 0x40 DUP4 CALLDATASIZE SUB SLT PUSH2 0x11FD JUMPI PUSH1 0x20 PUSH1 0x40 SWAP2 DUP3 MLOAD PUSH2 0x227E DUP2 PUSH2 0x27E1 JUMP JUMPDEST PUSH2 0x2287 DUP7 PUSH2 0x2781 JUMP JUMPDEST DUP2 MSTORE DUP3 DUP7 ADD CALLDATALOAD DUP4 DUP3 ADD MSTORE DUP2 MSTORE ADD SWAP3 ADD SWAP2 PUSH2 0x163F JUMP JUMPDEST PUSH1 0x40 MLOAD PUSH4 0x35FDCCCD PUSH1 0xE2 SHL DUP2 MSTORE CALLER PUSH1 0x4 DUP3 ADD MSTORE PUSH1 0x24 SWAP1 REVERT JUMPDEST POP CALLVALUE PUSH2 0x225 JUMPI DUP1 PUSH1 0x3 NOT CALLDATASIZE ADD SLT PUSH2 0x225 JUMPI PUSH1 0x1 SLOAD PUSH1 0x1 PUSH1 0x1 PUSH1 0xA0 SHL SUB DUP1 DUP3 AND CALLER SUB PUSH2 0x231A JUMPI DUP3 SLOAD PUSH1 0x1 PUSH1 0x1 PUSH1 0xA0 SHL SUB NOT DUP1 DUP3 AND CALLER SWAP1 DUP2 OR DUP7 SSTORE SWAP4 AND PUSH1 0x1 SSTORE AND PUSH32 0x8BE0079C531659141344CD1FD0A4F28419497F9722A3DAAFE3B4186F6B6457E0 DUP4 DUP1 LOG3 DUP1 RETURN JUMPDEST PUSH1 0x40 MLOAD PUSH3 0x461BCD PUSH1 0xE5 SHL DUP2 MSTORE PUSH1 0x20 PUSH1 0x4 DUP3 ADD MSTORE PUSH1 0x16 PUSH1 0x24 DUP3 ADD MSTORE PUSH22 0x26BAB9BA10313290383937B837B9B2B21037BBB732B9 PUSH1 0x51 SHL PUSH1 0x44 DUP3 ADD MSTORE PUSH1 0x64 SWAP1 REVERT JUMPDEST POP CALLVALUE PUSH2 0x225 JUMPI DUP1 PUSH1 0x3 NOT CALLDATASIZE ADD SLT PUSH2 0x225 JUMPI PUSH1 0x20 PUSH1 0x40 MLOAD PUSH1 0x1 PUSH1 0x1 PUSH1 0x40 SHL SUB PUSH32 0x0 AND DUP2 MSTORE RETURN JUMPDEST POP CALLVALUE PUSH2 0x225 JUMPI DUP1 PUSH1 0x3 NOT CALLDATASIZE ADD SLT PUSH2 0x225 JUMPI PUSH1 0x40 MLOAD PUSH32 0x0 PUSH1 0x1 PUSH1 0x1 PUSH1 0xA0 SHL SUB AND DUP2 MSTORE PUSH1 0x20 SWAP1 RETURN JUMPDEST POP CALLVALUE PUSH2 0x225 JUMPI PUSH1 0xA0 CALLDATASIZE PUSH1 0x3 NOT ADD SLT PUSH2 0x225 JUMPI PUSH2 0x23FB PUSH2 0x2795 JUMP JUMPDEST SWAP1 PUSH2 0x2404 PUSH2 0x276B JUMP JUMPDEST PUSH1 0x1 PUSH1 0x1 PUSH1 0xA0 SHL SUB SWAP2 SWAP1 PUSH1 0x44 CALLDATALOAD DUP4 DUP2 AND SWAP1 DUP2 SWAP1 SUB PUSH2 0xA3E JUMPI PUSH1 0x64 CALLDATALOAD DUP5 DUP2 AND DUP1 SWAP2 SUB PUSH2 0x1201 JUMPI PUSH1 0x84 CALLDATALOAD SWAP6 PUSH1 0x1 PUSH1 0x1 PUSH1 0x40 SHL SUB DUP8 GT PUSH2 0xA8F JUMPI PUSH2 0x244E PUSH2 0x24D0 SWAP6 SWAP7 SWAP8 CALLDATASIZE SWAP1 PUSH1 0x4 ADD PUSH2 0x2866 JUMP JUMPDEST PUSH1 0x40 MLOAD SWAP4 PUSH1 0x20 SWAP9 DUP10 SWAP7 AND DUP7 DUP7 ADD MSTORE DUP6 DUP6 MSTORE PUSH2 0x2468 DUP6 PUSH2 0x27E1 JUMP JUMPDEST PUSH1 0x40 MLOAD PUSH2 0x2474 DUP2 PUSH2 0x27AB JUMP JUMPDEST DUP9 DUP2 MSTORE PUSH2 0x2491 PUSH1 0x40 MLOAD PUSH2 0x2486 DUP2 PUSH2 0x27AB JUMP JUMPDEST PUSH3 0xF4240 DUP2 MSTORE PUSH2 0x3986 JUMP JUMPDEST SWAP3 PUSH1 0x40 MLOAD SWAP7 PUSH2 0x249F DUP9 PUSH2 0x27C6 JUMP JUMPDEST DUP8 MSTORE DUP8 DUP8 ADD MSTORE PUSH1 0x40 DUP7 ADD MSTORE PUSH1 0x60 DUP6 ADD MSTORE PUSH1 0x80 DUP5 ADD MSTORE PUSH1 0x40 MLOAD DUP1 SWAP6 DUP2 SWAP5 DUP3 SWAP4 PUSH4 0x20487DED PUSH1 0xE0 SHL DUP5 MSTORE PUSH1 0x4 DUP5 ADD PUSH2 0x366B JUMP JUMPDEST SUB SWAP2 GAS STATICCALL SWAP2 DUP3 ISZERO PUSH2 0x1FF4 JUMPI DUP1 SWAP3 PUSH2 0x24EC JUMPI JUMPDEST POP POP PUSH1 0x40 MLOAD SWAP1 DUP2 MSTORE RETURN JUMPDEST SWAP1 SWAP2 POP DUP3 DUP3 DUP2 RETURNDATASIZE DUP4 GT PUSH2 0x2515 JUMPI JUMPDEST PUSH2 0x2504 DUP2 DUP4 PUSH2 0x2845 JUMP JUMPDEST DUP2 ADD SUB SLT PUSH2 0x225 JUMPI POP MLOAD CODESIZE DUP1 PUSH2 0x24E2 JUMP JUMPDEST POP RETURNDATASIZE PUSH2 0x24FA JUMP JUMPDEST POP CALLVALUE PUSH2 0x225 JUMPI DUP1 PUSH1 0x3 NOT CALLDATASIZE ADD SLT PUSH2 0x225 JUMPI PUSH1 0x20 PUSH1 0x7 SLOAD PUSH1 0x40 MLOAD SWAP1 DUP2 MSTORE RETURN JUMPDEST POP CALLVALUE PUSH2 0x225 JUMPI DUP1 PUSH1 0x3 NOT CALLDATASIZE ADD SLT PUSH2 0x225 JUMPI PUSH1 0x20 PUSH1 0x2 SLOAD PUSH1 0x40 MLOAD SWAP1 DUP2 MSTORE RETURN JUMPDEST POP CALLVALUE PUSH2 0x225 JUMPI DUP1 PUSH1 0x3 NOT CALLDATASIZE ADD SLT PUSH2 0x225 JUMPI PUSH1 0x40 MLOAD PUSH32 0x0 PUSH1 0x1 PUSH1 0x1 PUSH1 0xA0 SHL SUB AND DUP2 MSTORE PUSH1 0x20 SWAP1 RETURN JUMPDEST POP CALLVALUE PUSH2 0x225 JUMPI DUP1 PUSH1 0x3 NOT CALLDATASIZE ADD SLT PUSH2 0x225 JUMPI PUSH1 0x20 PUSH1 0xFF PUSH1 0x3 SLOAD AND PUSH1 0x40 MLOAD SWAP1 ISZERO ISZERO DUP2 MSTORE RETURN JUMPDEST POP CALLVALUE PUSH2 0x225 JUMPI PUSH1 0x40 CALLDATASIZE PUSH1 0x3 NOT ADD SLT PUSH2 0x225 JUMPI PUSH2 0x25DA PUSH2 0x2755 JUMP JUMPDEST PUSH2 0x25E2 PUSH2 0x276B JUMP JUMPDEST PUSH1 0x40 MLOAD PUSH4 0x35EA6A75 PUSH1 0xE0 SHL DUP2 MSTORE PUSH1 0x1 PUSH1 0x1 PUSH1 0xA0 SHL SUB SWAP2 DUP3 AND PUSH1 0x4 DUP3 ADD MSTORE PUSH2 0x180 SWAP3 SWAP1 SWAP2 DUP4 SWAP2 DUP4 SWAP2 PUSH1 0x24 SWAP2 DUP4 SWAP2 AND GAS STATICCALL SWAP2 DUP3 ISZERO PUSH2 0xF44 JUMPI PUSH1 0x20 SWAP4 SWAP3 PUSH2 0x262A JUMPI POP POP PUSH1 0x40 MLOAD SWAP1 DUP2 MSTORE RETURN JUMPDEST PUSH2 0x2640 SWAP3 POP DUP1 RETURNDATASIZE LT PUSH2 0x522 JUMPI PUSH2 0x507 DUP2 DUP4 PUSH2 0x2845 JUMP JUMPDEST POP POP POP POP POP POP SWAP5 POP POP POP POP POP CODESIZE DUP1 PUSH2 0x24E2 JUMP JUMPDEST POP CALLVALUE PUSH2 0x225 JUMPI DUP1 PUSH1 0x3 NOT CALLDATASIZE ADD SLT PUSH2 0x225 JUMPI PUSH1 0x6 SLOAD PUSH1 0x40 MLOAD PUSH1 0x1 PUSH1 0x1 PUSH1 0xA0 SHL SUB SWAP1 SWAP2 AND DUP2 MSTORE PUSH1 0x20 SWAP1 RETURN JUMPDEST POP CALLVALUE PUSH2 0x225 JUMPI DUP1 PUSH1 0x3 NOT CALLDATASIZE ADD SLT PUSH2 0x225 JUMPI PUSH1 0x20 PUSH1 0x40 MLOAD PUSH2 0xFFFF PUSH32 0x0 AND DUP2 MSTORE RETURN JUMPDEST POP CALLVALUE PUSH2 0x225 JUMPI DUP1 PUSH1 0x3 NOT CALLDATASIZE ADD SLT PUSH2 0x225 JUMPI PUSH1 0x40 MLOAD PUSH32 0x0 PUSH1 0x1 PUSH1 0x1 PUSH1 0xA0 SHL SUB AND DUP2 MSTORE PUSH1 0x20 SWAP1 RETURN JUMPDEST SWAP1 POP CALLVALUE PUSH2 0xA42 JUMPI PUSH1 0x20 CALLDATASIZE PUSH1 0x3 NOT ADD SLT PUSH2 0xA42 JUMPI PUSH1 0x4 CALLDATALOAD PUSH4 0xFFFFFFFF PUSH1 0xE0 SHL DUP2 AND DUP1 SWAP2 SUB PUSH2 0xA3E JUMPI PUSH1 0x20 SWAP3 POP PUSH4 0x85572FFB PUSH1 0xE0 SHL DUP2 EQ SWAP1 DUP2 ISZERO PUSH2 0x2744 JUMPI JUMPDEST POP ISZERO ISZERO DUP2 MSTORE RETURN JUMPDEST PUSH4 0x1FFC9A7 PUSH1 0xE0 SHL EQ SWAP1 POP CODESIZE PUSH2 0x273D JUMP JUMPDEST PUSH1 0x4 CALLDATALOAD SWAP1 PUSH1 0x1 PUSH1 0x1 PUSH1 0xA0 SHL SUB DUP3 AND DUP3 SUB PUSH2 0x4D4 JUMPI JUMP JUMPDEST PUSH1 0x24 CALLDATALOAD SWAP1 PUSH1 0x1 PUSH1 0x1 PUSH1 0xA0 SHL SUB DUP3 AND DUP3 SUB PUSH2 0x4D4 JUMPI JUMP JUMPDEST CALLDATALOAD SWAP1 PUSH1 0x1 PUSH1 0x1 PUSH1 0xA0 SHL SUB DUP3 AND DUP3 SUB PUSH2 0x4D4 JUMPI JUMP JUMPDEST PUSH1 0x4 CALLDATALOAD SWAP1 PUSH1 0x1 PUSH1 0x1 PUSH1 0x40 SHL SUB DUP3 AND DUP3 SUB PUSH2 0x4D4 JUMPI JUMP JUMPDEST PUSH1 0x20 DUP2 ADD SWAP1 DUP2 LT PUSH1 0x1 PUSH1 0x1 PUSH1 0x40 SHL SUB DUP3 GT OR PUSH2 0x493 JUMPI PUSH1 0x40 MSTORE JUMP JUMPDEST PUSH1 0xA0 DUP2 ADD SWAP1 DUP2 LT PUSH1 0x1 PUSH1 0x1 PUSH1 0x40 SHL SUB DUP3 GT OR PUSH2 0x493 JUMPI PUSH1 0x40 MSTORE JUMP JUMPDEST PUSH1 0x40 DUP2 ADD SWAP1 DUP2 LT PUSH1 0x1 PUSH1 0x1 PUSH1 0x40 SHL SUB DUP3 GT OR PUSH2 0x493 JUMPI PUSH1 0x40 MSTORE JUMP JUMPDEST PUSH1 0x1 PUSH1 0x1 PUSH1 0x40 SHL SUB DUP2 GT PUSH2 0x493 JUMPI PUSH1 0x40 MSTORE JUMP JUMPDEST PUSH1 0xE0 DUP2 ADD SWAP1 DUP2 LT PUSH1 0x1 PUSH1 0x1 PUSH1 0x40 SHL SUB DUP3 GT OR PUSH2 0x493 JUMPI PUSH1 0x40 MSTORE JUMP JUMPDEST PUSH1 0x60 DUP2 ADD SWAP1 DUP2 LT PUSH1 0x1 PUSH1 0x1 PUSH1 0x40 SHL SUB DUP3 GT OR PUSH2 0x493 JUMPI PUSH1 0x40 MSTORE JUMP JUMPDEST SWAP1 PUSH1 0x1F DUP1 NOT SWAP2 ADD AND DUP2 ADD SWAP1 DUP2 LT PUSH1 0x1 PUSH1 0x1 PUSH1 0x40 SHL SUB DUP3 GT OR PUSH2 0x493 JUMPI PUSH1 0x40 MSTORE JUMP JUMPDEST DUP2 PUSH1 0x1F DUP3 ADD SLT ISZERO PUSH2 0x4D4 JUMPI DUP1 CALLDATALOAD SWAP1 PUSH1 0x1 PUSH1 0x1 PUSH1 0x40 SHL SUB DUP3 GT PUSH2 0x493 JUMPI PUSH1 0x40 MLOAD SWAP3 PUSH2 0x289A PUSH1 0x1F DUP5 ADD PUSH1 0x1F NOT AND PUSH1 0x20 ADD DUP6 PUSH2 0x2845 JUMP JUMPDEST DUP3 DUP5 MSTORE PUSH1 0x20 DUP4 DUP4 ADD ADD GT PUSH2 0x4D4 JUMPI DUP2 PUSH1 0x0 SWAP3 PUSH1 0x20 DUP1 SWAP4 ADD DUP4 DUP7 ADD CALLDATACOPY DUP4 ADD ADD MSTORE SWAP1 JUMP JUMPDEST PUSH1 0x1 PUSH1 0x1 PUSH1 0x40 SHL SUB DUP2 GT PUSH2 0x493 JUMPI PUSH1 0x5 SHL PUSH1 0x20 ADD SWAP1 JUMP JUMPDEST PUSH1 0x4 SLOAD DUP2 LT ISZERO PUSH2 0x290A JUMPI PUSH1 0x4 PUSH1 0x0 MSTORE PUSH32 0x8A35ACFBC15FF81A39AE7D344FD709F28E8600B4AA8C65C6B64BFE7FE36BD19B ADD SWAP1 PUSH1 0x0 SWAP1 JUMP JUMPDEST PUSH4 0x4E487B71 PUSH1 0xE0 SHL PUSH1 0x0 MSTORE PUSH1 0x32 PUSH1 0x4 MSTORE PUSH1 0x24 PUSH1 0x0 REVERT JUMPDEST DUP2 DUP2 MUL SWAP3 SWAP2 DUP2 ISZERO SWAP2 DUP5 DIV EQ OR ISZERO PUSH2 0x2933 JUMPI JUMP JUMPDEST PUSH4 0x4E487B71 PUSH1 0xE0 SHL PUSH1 0x0 MSTORE PUSH1 0x11 PUSH1 0x4 MSTORE PUSH1 0x24 PUSH1 0x0 REVERT JUMPDEST ISZERO PUSH2 0x2950 JUMPI JUMP JUMPDEST PUSH1 0x40 MLOAD PUSH3 0x461BCD PUSH1 0xE5 SHL DUP2 MSTORE PUSH1 0x20 PUSH1 0x4 DUP3 ADD MSTORE PUSH1 0x25 PUSH1 0x24 DUP3 ADD MSTORE PUSH32 0x52657175697265206D617374657220616E64206E6F646520696E2073616D6520 PUSH1 0x44 DUP3 ADD MSTORE PUSH5 0x31B430B4B7 PUSH1 0xD9 SHL PUSH1 0x64 DUP3 ADD MSTORE PUSH1 0x84 SWAP1 REVERT JUMPDEST ISZERO PUSH2 0x29AA JUMPI JUMP JUMPDEST PUSH1 0x40 MLOAD PUSH3 0x461BCD PUSH1 0xE5 SHL DUP2 MSTORE PUSH1 0x20 PUSH1 0x4 DUP3 ADD MSTORE PUSH1 0x1C PUSH1 0x24 DUP3 ADD MSTORE PUSH32 0x4F6E6C79204D617374657220436F6E747261637420616C6C6F77656400000000 PUSH1 0x44 DUP3 ADD MSTORE PUSH1 0x64 SWAP1 REVERT JUMPDEST DUP2 ISZERO PUSH2 0x29F9 JUMPI DIV SWAP1 JUMP JUMPDEST PUSH4 0x4E487B71 PUSH1 0xE0 SHL PUSH1 0x0 MSTORE PUSH1 0x12 PUSH1 0x4 MSTORE PUSH1 0x24 PUSH1 0x0 REVERT JUMPDEST SWAP2 SWAP1 DUP3 SUB SWAP2 DUP3 GT PUSH2 0x2933 JUMPI JUMP JUMPDEST SWAP1 DUP2 PUSH1 0x20 SWAP2 SUB SLT PUSH2 0x4D4 JUMPI MLOAD DUP1 ISZERO ISZERO DUP2 SUB PUSH2 0x4D4 JUMPI SWAP1 JUMP JUMPDEST SWAP2 SWAP1 DUP3 ADD DUP1 SWAP3 GT PUSH2 0x2933 JUMPI JUMP JUMPDEST ISZERO PUSH2 0x2A48 JUMPI JUMP JUMPDEST PUSH1 0x40 MLOAD PUSH3 0x461BCD PUSH1 0xE5 SHL DUP2 MSTORE PUSH1 0x20 PUSH1 0x4 DUP3 ADD MSTORE PUSH1 0x1D PUSH1 0x24 DUP3 ADD MSTORE PUSH32 0x43616C6C6572206973206E6F7420616E20616C6C6F776564206E6F6465000000 PUSH1 0x44 DUP3 ADD MSTORE PUSH1 0x64 SWAP1 REVERT JUMPDEST SWAP1 SWAP2 PUSH1 0x0 SWAP5 PUSH2 0x2A9E PUSH2 0x167E DUP6 PUSH2 0x3734 JUMP JUMPDEST DUP6 SWAP1 DUP1 PUSH2 0x3182 JUMPI JUMPDEST POP PUSH2 0x2AB3 DUP2 DUP7 DUP5 DUP8 PUSH2 0x37EC JUMP JUMPDEST SWAP5 PUSH1 0x40 MLOAD SWAP5 PUSH4 0xB0F479A1 PUSH1 0xE0 SHL DUP7 MSTORE PUSH1 0x20 DUP7 PUSH1 0x4 DUP2 ADDRESS GAS STATICCALL SWAP6 DUP7 ISZERO PUSH2 0xFBA JUMPI DUP9 SWAP7 PUSH2 0x3161 JUMPI JUMPDEST POP PUSH1 0x40 MLOAD PUSH4 0x20487DED PUSH1 0xE0 SHL DUP2 MSTORE SWAP4 PUSH1 0x20 DUP6 DUP1 PUSH2 0x2AFA DUP12 DUP11 PUSH1 0x4 DUP5 ADD PUSH2 0x366B JUMP JUMPDEST SUB DUP2 PUSH1 0x1 PUSH1 0x1 PUSH1 0xA0 SHL SUB DUP12 AND GAS STATICCALL SWAP5 DUP6 ISZERO PUSH2 0x3156 JUMPI DUP10 SWAP6 PUSH2 0x3122 JUMPI JUMPDEST POP PUSH1 0x40 MLOAD PUSH4 0x70A08231 PUSH1 0xE0 SHL DUP2 MSTORE ADDRESS PUSH1 0x4 DUP3 ADD MSTORE PUSH1 0x20 DUP2 PUSH1 0x24 DUP2 PUSH32 0x0 PUSH1 0x1 PUSH1 0x1 PUSH1 0xA0 SHL SUB AND GAS STATICCALL SWAP1 DUP2 ISZERO PUSH2 0x3025 JUMPI DUP11 SWAP2 PUSH2 0x30F0 JUMPI JUMPDEST POP PUSH2 0x307F JUMPI JUMPDEST PUSH1 0x40 MLOAD PUSH4 0x70A08231 PUSH1 0xE0 SHL DUP2 MSTORE ADDRESS PUSH1 0x4 DUP3 ADD MSTORE PUSH1 0x20 DUP2 PUSH1 0x24 DUP2 PUSH32 0x0 PUSH1 0x1 PUSH1 0x1 PUSH1 0xA0 SHL SUB AND GAS STATICCALL SWAP1 DUP2 ISZERO PUSH2 0x3025 JUMPI DUP11 SWAP2 PUSH2 0x304D JUMPI JUMPDEST POP PUSH1 0x6 SLOAD PUSH1 0x40 MLOAD PUSH4 0x95EA7B3 PUSH1 0xE0 SHL DUP2 MSTORE PUSH1 0x1 PUSH1 0x1 PUSH1 0xA0 SHL SUB SWAP1 SWAP2 AND PUSH1 0x4 DUP3 ADD MSTORE PUSH1 0x24 DUP2 ADD DUP3 SWAP1 MSTORE PUSH1 0x20 DUP2 DUP13 DUP2 DUP1 PUSH1 0x44 DUP2 ADD SUB SWAP2 PUSH32 0x0 PUSH1 0x1 PUSH1 0x1 PUSH1 0xA0 SHL SUB AND GAS CALL DUP1 ISZERO PUSH2 0x2FE4 JUMPI SWAP2 PUSH1 0x20 SWAP2 DUP13 SWAP4 PUSH2 0x3030 JUMPI JUMPDEST POP PUSH1 0x40 MLOAD SWAP1 PUSH2 0x2C42 DUP3 PUSH2 0x280F JUMP JUMPDEST PUSH1 0x1 PUSH1 0x1 PUSH1 0xA0 SHL SUB PUSH32 0x0 DUP2 AND DUP4 MSTORE PUSH32 0x0 DUP2 AND DUP5 DUP5 ADD SWAP1 DUP2 MSTORE PUSH2 0xFFFF PUSH32 0x0 AND PUSH1 0x40 DUP1 DUP7 ADD SWAP2 DUP3 MSTORE ADDRESS PUSH1 0x60 DUP8 ADD SWAP1 DUP2 MSTORE PUSH1 0x80 DUP8 ADD DUP15 DUP2 MSTORE PUSH1 0xA0 DUP9 ADD SWAP7 DUP8 MSTORE PUSH1 0xC0 DUP9 ADD DUP11 DUP2 MSTORE PUSH1 0x6 SLOAD SWAP4 MLOAD PUSH4 0x5023B4DF PUSH1 0xE0 SHL DUP2 MSTORE SWAP9 MLOAD DUP8 AND PUSH1 0x4 DUP11 ADD MSTORE SWAP5 MLOAD DUP7 AND PUSH1 0x24 DUP10 ADD MSTORE SWAP3 MLOAD PUSH3 0xFFFFFF AND PUSH1 0x44 DUP9 ADD MSTORE MLOAD DUP5 AND PUSH1 0x64 DUP8 ADD MSTORE SWAP1 MLOAD PUSH1 0x84 DUP7 ADD MSTORE SWAP3 MLOAD PUSH1 0xA4 DUP6 ADD MSTORE MLOAD DUP2 AND PUSH1 0xC4 DUP5 ADD MSTORE SWAP2 SWAP4 DUP5 SWAP3 PUSH1 0xE4 SWAP3 DUP5 SWAP3 SWAP2 AND GAS CALL SWAP1 DUP2 ISZERO PUSH2 0x3025 JUMPI DUP11 SWAP2 PUSH2 0x2FF3 JUMPI JUMPDEST POP PUSH32 0x0 PUSH1 0x1 PUSH1 0x1 PUSH1 0xA0 SHL SUB AND EXTCODESIZE ISZERO PUSH2 0x2FEF JUMPI PUSH1 0x40 MLOAD PUSH4 0x2E1A7D4D PUSH1 0xE0 SHL DUP2 MSTORE PUSH1 0x4 DUP2 ADD DUP8 SWAP1 MSTORE DUP11 DUP2 PUSH1 0x24 DUP2 DUP4 PUSH32 0x0 PUSH1 0x1 PUSH1 0x1 PUSH1 0xA0 SHL SUB AND GAS CALL DUP1 ISZERO PUSH2 0x2FE4 JUMPI PUSH2 0x2FD1 JUMPI JUMPDEST POP DUP5 PUSH2 0x2FB0 JUMPI JUMPDEST POP POP POP SELFBALANCE DUP4 GT PUSH2 0x2093 JUMPI PUSH1 0x1 PUSH1 0x1 PUSH1 0xA0 SHL SUB AND SWAP1 DUP2 PUSH2 0x2F3C JUMPI JUMPDEST POP POP SWAP2 PUSH2 0x2E13 SWAP5 SWAP4 SWAP2 PUSH1 0x20 SWAP4 PUSH1 0x40 MLOAD DUP1 SWAP8 DUP2 SWAP6 DUP3 SWAP5 PUSH4 0x96F4E9F9 PUSH1 0xE0 SHL DUP5 MSTORE PUSH1 0x4 DUP5 ADD PUSH2 0x366B JUMP JUMPDEST SUB SWAP3 PUSH1 0x1 PUSH1 0x1 PUSH1 0xA0 SHL SUB AND GAS CALL SWAP2 DUP3 ISZERO PUSH2 0xF6C JUMPI DUP2 SWAP3 PUSH2 0x2F08 JUMPI JUMPDEST POP PUSH1 0x40 MLOAD PUSH4 0x70A08231 PUSH1 0xE0 SHL DUP2 MSTORE ADDRESS PUSH1 0x4 DUP3 ADD MSTORE PUSH1 0x20 DUP2 PUSH1 0x24 DUP2 PUSH32 0x0 PUSH1 0x1 PUSH1 0x1 PUSH1 0xA0 SHL SUB AND GAS STATICCALL SWAP2 DUP3 ISZERO PUSH2 0x1FF4 JUMPI SWAP2 PUSH2 0x2ED6 JUMPI JUMPDEST POP PUSH2 0x2E89 JUMPI SWAP1 JUMP JUMPDEST PUSH2 0x2ED3 PUSH32 0x0 PUSH32 0x0 PUSH2 0x3B91 JUMP JUMPDEST SWAP1 JUMP JUMPDEST SWAP1 POP PUSH1 0x20 DUP2 RETURNDATASIZE PUSH1 0x20 GT PUSH2 0x2F00 JUMPI JUMPDEST DUP2 PUSH2 0x2EF1 PUSH1 0x20 SWAP4 DUP4 PUSH2 0x2845 JUMP JUMPDEST DUP2 ADD SUB SLT PUSH2 0x4D4 JUMPI MLOAD CODESIZE PUSH2 0x2E81 JUMP JUMPDEST RETURNDATASIZE SWAP2 POP PUSH2 0x2EE4 JUMP JUMPDEST SWAP1 SWAP2 POP PUSH1 0x20 DUP2 RETURNDATASIZE PUSH1 0x20 GT PUSH2 0x2F34 JUMPI JUMPDEST DUP2 PUSH2 0x2F24 PUSH1 0x20 SWAP4 DUP4 PUSH2 0x2845 JUMP JUMPDEST DUP2 ADD SUB SLT PUSH2 0x4D4 JUMPI MLOAD SWAP1 CODESIZE PUSH2 0x2E2E JUMP JUMPDEST RETURNDATASIZE SWAP2 POP PUSH2 0x2F17 JUMP JUMPDEST PUSH1 0x40 MLOAD PUSH4 0x95EA7B3 PUSH1 0xE0 SHL DUP2 MSTORE PUSH1 0x1 PUSH1 0x1 PUSH1 0xA0 SHL SUB DUP7 AND PUSH1 0x4 DUP3 ADD MSTORE PUSH1 0x24 DUP2 ADD SWAP2 SWAP1 SWAP2 MSTORE SWAP1 PUSH1 0x20 SWAP1 DUP3 SWAP1 PUSH1 0x44 SWAP1 DUP3 SWAP1 DUP11 SWAP1 GAS CALL DUP1 ISZERO PUSH2 0x4E1 JUMPI SWAP2 PUSH2 0x2E13 SWAP7 SWAP6 SWAP4 SWAP2 PUSH1 0x20 SWAP6 SWAP4 PUSH2 0x2F93 JUMPI JUMPDEST POP SWAP2 SWAP4 DUP2 SWAP4 SWAP6 SWAP7 POP PUSH2 0x2DEB JUMP JUMPDEST PUSH2 0x2FA9 SWAP1 DUP7 RETURNDATASIZE DUP9 GT PUSH2 0xABA JUMPI PUSH2 0xAAA DUP2 DUP4 PUSH2 0x2845 JUMP JUMPDEST POP CODESIZE PUSH2 0x2F86 JUMP JUMPDEST DUP4 SWAP9 POP SWAP1 PUSH2 0x2FC2 PUSH2 0x2FC8 SWAP5 SWAP3 DUP7 PUSH2 0x2A0F JUMP JUMPDEST SWAP3 PUSH2 0x37EC JUMP JUMPDEST SWAP5 CODESIZE DUP1 DUP1 PUSH2 0x2DD1 JUMP JUMPDEST PUSH2 0x2FDD SWAP1 SWAP11 SWAP2 SWAP11 PUSH2 0x27FC JUMP JUMPDEST SWAP9 CODESIZE PUSH2 0x2DCA JUMP JUMPDEST PUSH1 0x40 MLOAD RETURNDATASIZE DUP14 DUP3 RETURNDATACOPY RETURNDATASIZE SWAP1 REVERT JUMPDEST DUP10 DUP1 REVERT JUMPDEST SWAP1 POP PUSH1 0x20 DUP2 RETURNDATASIZE PUSH1 0x20 GT PUSH2 0x301D JUMPI JUMPDEST DUP2 PUSH2 0x300E PUSH1 0x20 SWAP4 DUP4 PUSH2 0x2845 JUMP JUMPDEST DUP2 ADD SUB SLT PUSH2 0x2FEF JUMPI MLOAD CODESIZE PUSH2 0x2D48 JUMP JUMPDEST RETURNDATASIZE SWAP2 POP PUSH2 0x3001 JUMP JUMPDEST PUSH1 0x40 MLOAD RETURNDATASIZE DUP13 DUP3 RETURNDATACOPY RETURNDATASIZE SWAP1 REVERT JUMPDEST PUSH2 0x3046 SWAP1 DUP4 RETURNDATASIZE DUP6 GT PUSH2 0xABA JUMPI PUSH2 0xAAA DUP2 DUP4 PUSH2 0x2845 JUMP JUMPDEST POP CODESIZE PUSH2 0x2C34 JUMP JUMPDEST SWAP1 POP PUSH1 0x20 DUP2 RETURNDATASIZE PUSH1 0x20 GT PUSH2 0x3077 JUMPI JUMPDEST DUP2 PUSH2 0x3068 PUSH1 0x20 SWAP4 DUP4 PUSH2 0x2845 JUMP JUMPDEST DUP2 ADD SUB SLT PUSH2 0x2FEF JUMPI MLOAD CODESIZE PUSH2 0x2BC3 JUMP JUMPDEST RETURNDATASIZE SWAP2 POP PUSH2 0x305B JUMP JUMPDEST PUSH2 0x30EA PUSH32 0x0 PUSH32 0x0 PUSH32 0x0 PUSH2 0x3A16 JUMP JUMPDEST POP PUSH2 0x2B70 JUMP JUMPDEST SWAP1 POP PUSH1 0x20 DUP2 RETURNDATASIZE PUSH1 0x20 GT PUSH2 0x311A JUMPI JUMPDEST DUP2 PUSH2 0x310B PUSH1 0x20 SWAP4 DUP4 PUSH2 0x2845 JUMP JUMPDEST DUP2 ADD SUB SLT PUSH2 0x2FEF JUMPI MLOAD CODESIZE PUSH2 0x2B6A JUMP JUMPDEST RETURNDATASIZE SWAP2 POP PUSH2 0x30FE JUMP JUMPDEST SWAP1 SWAP5 POP PUSH1 0x20 DUP2 RETURNDATASIZE PUSH1 0x20 GT PUSH2 0x314E JUMPI JUMPDEST DUP2 PUSH2 0x313E PUSH1 0x20 SWAP4 DUP4 PUSH2 0x2845 JUMP JUMPDEST DUP2 ADD SUB SLT PUSH2 0x11FD JUMPI MLOAD SWAP4 CODESIZE PUSH2 0x2B16 JUMP JUMPDEST RETURNDATASIZE SWAP2 POP PUSH2 0x3131 JUMP JUMPDEST PUSH1 0x40 MLOAD RETURNDATASIZE DUP12 DUP3 RETURNDATACOPY RETURNDATASIZE SWAP1 REVERT JUMPDEST PUSH2 0x317B SWAP2 SWAP7 POP PUSH1 0x20 RETURNDATASIZE PUSH1 0x20 GT PUSH2 0x2226 JUMPI PUSH2 0x2218 DUP2 DUP4 PUSH2 0x2845 JUMP JUMPDEST SWAP5 CODESIZE PUSH2 0x2AD9 JUMP JUMPDEST SWAP1 POP CODESIZE PUSH2 0x2AA6 JUMP JUMPDEST SWAP3 SWAP1 SWAP2 PUSH2 0x3199 PUSH2 0x167E DUP5 PUSH2 0x3734 JUMP JUMPDEST PUSH1 0x5 SLOAD PUSH1 0x40 DUP1 MLOAD PUSH1 0x1 PUSH1 0x1 PUSH1 0xA0 SHL SUB SWAP3 DUP4 AND SWAP7 SWAP2 SWAP4 SWAP1 SWAP2 PUSH2 0x31B9 DUP4 PUSH2 0x27C6 JUMP JUMPDEST PUSH1 0x60 SWAP2 DUP3 DUP5 MSTORE DUP9 PUSH1 0x20 SWAP4 DUP1 DUP6 DUP8 ADD MSTORE DUP1 DUP9 DUP8 ADD MSTORE DUP1 PUSH1 0x80 PUSH1 0x0 SWAP8 DUP9 DUP4 DUP3 ADD MSTORE ADD MSTORE DUP8 MLOAD PUSH2 0x31E5 DUP2 PUSH2 0x27AB JUMP JUMPDEST DUP7 DUP2 MSTORE DUP8 DUP10 MLOAD SWAP12 AND DUP7 DUP13 ADD MSTORE DUP6 DUP12 MSTORE PUSH2 0x31FD DUP12 PUSH2 0x27E1 JUMP JUMPDEST PUSH2 0x320B DUP10 MLOAD PUSH2 0x1C12 DUP2 PUSH2 0x27AB JUMP JUMPDEST SWAP4 DUP10 MLOAD SWAP12 PUSH2 0x3218 DUP14 PUSH2 0x27C6 JUMP JUMPDEST DUP13 MSTORE DUP7 DUP13 ADD MSTORE DUP9 DUP12 ADD MSTORE DUP10 ADD MSTORE PUSH1 0x80 DUP9 ADD MSTORE DUP5 MLOAD PUSH4 0xB0F479A1 PUSH1 0xE0 SHL DUP2 MSTORE SWAP8 PUSH1 0x4 SWAP2 DUP4 DUP11 DUP5 DUP2 ADDRESS GAS STATICCALL SWAP10 DUP11 ISZERO PUSH2 0x3602 JUMPI PUSH2 0x3275 SWAP9 SWAP10 SWAP11 DUP8 SWAP2 DUP8 SWAP2 PUSH2 0x35E5 JUMPI JUMPDEST POP AND SWAP2 DUP5 DUP12 DUP10 MLOAD DUP1 SWAP12 DUP2 SWAP3 PUSH4 0x20487DED PUSH1 0xE0 SHL DUP4 MSTORE DUP7 DUP10 DUP5 ADD PUSH2 0x366B JUMP JUMPDEST SUB DUP2 DUP7 GAS STATICCALL SWAP9 DUP10 ISZERO PUSH2 0x3490 JUMPI DUP7 SWAP10 PUSH2 0x35B6 JUMPI JUMPDEST POP DUP8 MLOAD PUSH4 0x23B872DD PUSH1 0xE0 SHL DUP2 MSTORE CALLER DUP6 DUP3 ADD SWAP1 DUP2 MSTORE ADDRESS PUSH1 0x20 DUP3 ADD MSTORE PUSH1 0x40 DUP2 ADD DUP12 SWAP1 MSTORE SWAP1 SWAP2 DUP7 SWAP2 DUP4 SWAP2 SWAP1 DUP3 SWAP1 DUP11 SWAP1 DUP3 SWAP1 PUSH1 0x60 ADD SUB SWAP3 GAS CALL SWAP1 DUP2 ISZERO PUSH2 0x3490 JUMPI DUP7 SWAP2 PUSH2 0x3599 JUMPI JUMPDEST POP ISZERO PUSH2 0x3556 JUMPI DUP6 PUSH1 0x5 SLOAD AND DUP8 MLOAD SWAP9 PUSH4 0x70A08231 PUSH1 0xE0 SHL SWAP10 DUP11 DUP2 MSTORE ADDRESS DUP7 DUP3 ADD MSTORE DUP7 DUP2 PUSH1 0x24 DUP2 DUP7 GAS STATICCALL SWAP1 DUP2 ISZERO PUSH2 0x354C JUMPI DUP9 SWAP2 PUSH2 0x351B JUMPI JUMPDEST POP DUP2 GT PUSH2 0x349A JUMPI DUP9 MLOAD PUSH4 0x95EA7B3 PUSH1 0xE0 SHL DUP2 MSTORE PUSH1 0x1 PUSH1 0x1 PUSH1 0xA0 SHL SUB DUP6 AND DUP7 DUP3 ADD SWAP1 DUP2 MSTORE PUSH1 0x20 DUP2 ADD SWAP3 SWAP1 SWAP3 MSTORE SWAP2 DUP7 SWAP2 DUP4 SWAP2 SWAP1 DUP3 SWAP1 DUP11 SWAP1 DUP3 SWAP1 PUSH1 0x40 ADD SUB SWAP3 GAS CALL DUP1 ISZERO PUSH2 0x3490 JUMPI SWAP2 DUP6 SWAP4 SWAP2 PUSH2 0x336F SWAP12 SWAP13 SWAP4 PUSH2 0x3473 JUMPI JUMPDEST POP DUP7 DUP10 MLOAD DUP1 SWAP13 DUP2 SWAP6 DUP3 SWAP5 PUSH4 0x96F4E9F9 PUSH1 0xE0 SHL DUP5 MSTORE DUP10 DUP5 ADD PUSH2 0x366B JUMP JUMPDEST SUB SWAP3 GAS CALL SWAP7 DUP8 ISZERO PUSH2 0x3469 JUMPI DUP4 SWAP8 PUSH2 0x343A JUMPI JUMPDEST POP DUP2 SWAP1 PUSH1 0x24 PUSH32 0x0 SWAP8 DUP8 MLOAD SWAP7 DUP8 SWAP4 DUP5 SWAP3 DUP4 MSTORE ADDRESS SWAP1 DUP4 ADD MSTORE DUP10 AND GAS STATICCALL SWAP4 DUP5 ISZERO PUSH2 0x342F JUMPI POP DUP2 SWAP4 PUSH2 0x33FE JUMPI JUMPDEST POP POP POP PUSH2 0x33D4 JUMPI POP SWAP1 JUMP JUMPDEST PUSH2 0x2ED3 SWAP1 PUSH32 0x0 PUSH2 0x3B91 JUMP JUMPDEST SWAP1 SWAP2 DUP1 SWAP4 POP DUP2 RETURNDATASIZE DUP4 GT PUSH2 0x3428 JUMPI JUMPDEST PUSH2 0x3416 DUP2 DUP4 PUSH2 0x2845 JUMP JUMPDEST DUP2 ADD SUB SLT PUSH2 0x225 JUMPI POP MLOAD CODESIZE DUP1 DUP1 PUSH2 0x33C9 JUMP JUMPDEST POP RETURNDATASIZE PUSH2 0x340C JUMP JUMPDEST MLOAD SWAP2 RETURNDATASIZE SWAP2 POP DUP3 RETURNDATACOPY RETURNDATASIZE SWAP1 REVERT JUMPDEST SWAP1 SWAP7 POP DUP2 DUP2 DUP2 RETURNDATASIZE DUP4 GT PUSH2 0x3462 JUMPI JUMPDEST PUSH2 0x3452 DUP2 DUP4 PUSH2 0x2845 JUMP JUMPDEST DUP2 ADD SUB SLT PUSH2 0xA3E JUMPI MLOAD SWAP6 DUP2 PUSH2 0x3381 JUMP JUMPDEST POP RETURNDATASIZE PUSH2 0x3448 JUMP JUMPDEST DUP6 MLOAD RETURNDATASIZE DUP6 DUP3 RETURNDATACOPY RETURNDATASIZE SWAP1 REVERT JUMPDEST PUSH2 0x3489 SWAP1 DUP6 RETURNDATASIZE DUP8 GT PUSH2 0xABA JUMPI PUSH2 0xAAA DUP2 DUP4 PUSH2 0x2845 JUMP JUMPDEST POP CODESIZE PUSH2 0x3353 JUMP JUMPDEST DUP9 MLOAD RETURNDATASIZE DUP9 DUP3 RETURNDATACOPY RETURNDATASIZE SWAP1 REVERT JUMPDEST DUP5 SWAP1 DUP7 DUP11 DUP10 SWAP5 DUP3 DUP15 PUSH1 0x24 DUP5 MLOAD DUP1 SWAP5 DUP2 SWAP4 DUP3 MSTORE ADDRESS DUP11 DUP4 ADD MSTORE GAS STATICCALL SWAP3 DUP4 ISZERO PUSH2 0x3511 JUMPI DUP7 SWAP4 PUSH2 0x34DD JUMPI JUMPDEST POP POP MLOAD PUSH4 0x4787A103 PUSH1 0xE1 SHL DUP2 MSTORE SWAP3 DUP4 ADD MSTORE PUSH1 0x24 DUP3 ADD MSTORE PUSH1 0x44 SWAP2 POP REVERT JUMPDEST SWAP1 DUP1 SWAP3 SWAP4 POP DUP2 RETURNDATASIZE DUP4 GT PUSH2 0x350A JUMPI JUMPDEST PUSH2 0x34F5 DUP2 DUP4 PUSH2 0x2845 JUMP JUMPDEST DUP2 ADD SUB SLT PUSH2 0xA8F JUMPI PUSH1 0x44 SWAP5 POP MLOAD SWAP1 DUP6 DUP1 PUSH2 0x34C1 JUMP JUMPDEST POP RETURNDATASIZE PUSH2 0x34EB JUMP JUMPDEST DUP3 MLOAD RETURNDATASIZE DUP9 DUP3 RETURNDATACOPY RETURNDATASIZE SWAP1 REVERT JUMPDEST SWAP1 POP DUP7 DUP2 DUP2 RETURNDATASIZE DUP4 GT PUSH2 0x3545 JUMPI JUMPDEST PUSH2 0x3532 DUP2 DUP4 PUSH2 0x2845 JUMP JUMPDEST DUP2 ADD SUB SLT PUSH2 0x3541 JUMPI MLOAD CODESIZE PUSH2 0x3300 JUMP JUMPDEST DUP8 DUP1 REVERT JUMPDEST POP RETURNDATASIZE PUSH2 0x3528 JUMP JUMPDEST DUP11 MLOAD RETURNDATASIZE DUP11 DUP3 RETURNDATACOPY RETURNDATASIZE SWAP1 REVERT JUMPDEST DUP7 MLOAD PUSH3 0x461BCD PUSH1 0xE5 SHL DUP2 MSTORE DUP1 DUP5 ADD DUP6 SWAP1 MSTORE PUSH1 0x1A PUSH1 0x24 DUP3 ADD MSTORE PUSH32 0x4E6F742070726F7669646564204C696E6B20666F722066656573000000000000 PUSH1 0x44 DUP3 ADD MSTORE PUSH1 0x64 SWAP1 REVERT JUMPDEST PUSH2 0x35B0 SWAP2 POP DUP6 RETURNDATASIZE DUP8 GT PUSH2 0xABA JUMPI PUSH2 0xAAA DUP2 DUP4 PUSH2 0x2845 JUMP JUMPDEST CODESIZE PUSH2 0x32CB JUMP JUMPDEST SWAP1 SWAP9 POP DUP5 DUP2 DUP2 RETURNDATASIZE DUP4 GT PUSH2 0x35DE JUMPI JUMPDEST PUSH2 0x35CE DUP2 DUP4 PUSH2 0x2845 JUMP JUMPDEST DUP2 ADD SUB SLT PUSH2 0x458 JUMPI MLOAD SWAP8 DUP5 PUSH2 0x3288 JUMP JUMPDEST POP RETURNDATASIZE PUSH2 0x35C4 JUMP JUMPDEST PUSH2 0x35FC SWAP2 POP DUP7 RETURNDATASIZE DUP9 GT PUSH2 0x2226 JUMPI PUSH2 0x2218 DUP2 DUP4 PUSH2 0x2845 JUMP JUMPDEST CODESIZE PUSH2 0x3257 JUMP JUMPDEST DUP8 MLOAD RETURNDATASIZE DUP8 DUP3 RETURNDATACOPY RETURNDATASIZE SWAP1 REVERT JUMPDEST SWAP1 DUP2 PUSH1 0x20 SWAP2 SUB SLT PUSH2 0x4D4 JUMPI MLOAD PUSH1 0x1 PUSH1 0x1 PUSH1 0xA0 SHL SUB DUP2 AND DUP2 SUB PUSH2 0x4D4 JUMPI SWAP1 JUMP JUMPDEST SWAP2 SWAP1 DUP3 MLOAD SWAP3 DUP4 DUP3 MSTORE PUSH1 0x0 JUMPDEST DUP5 DUP2 LT PUSH2 0x3657 JUMPI POP POP DUP3 PUSH1 0x0 PUSH1 0x20 DUP1 SWAP5 SWAP6 DUP5 ADD ADD MSTORE PUSH1 0x1F DUP1 NOT SWAP2 ADD AND ADD ADD SWAP1 JUMP JUMPDEST PUSH1 0x20 DUP2 DUP4 ADD DUP2 ADD MLOAD DUP5 DUP4 ADD DUP3 ADD MSTORE ADD PUSH2 0x3636 JUMP JUMPDEST SWAP1 PUSH1 0x1 PUSH1 0x1 PUSH1 0x40 SHL SUB SWAP1 SWAP4 SWAP3 SWAP4 AND DUP2 MSTORE PUSH1 0x40 PUSH1 0x20 SWAP2 DUP2 DUP4 DUP3 ADD MSTORE PUSH2 0x369A DUP6 MLOAD PUSH1 0xA0 DUP5 DUP5 ADD MSTORE PUSH1 0xE0 DUP4 ADD SWAP1 PUSH2 0x362B JUMP JUMPDEST SWAP2 PUSH2 0x36B6 DUP5 DUP8 ADD MLOAD SWAP4 PUSH1 0x3F NOT SWAP5 DUP6 DUP6 DUP4 SUB ADD PUSH1 0x60 DUP7 ADD MSTORE PUSH2 0x362B JUMP JUMPDEST DUP2 DUP8 ADD MLOAD SWAP5 DUP5 DUP5 DUP4 SUB ADD PUSH1 0x80 DUP6 ADD MSTORE DUP1 DUP1 DUP8 MLOAD SWAP4 DUP5 DUP2 MSTORE ADD SWAP7 ADD SWAP3 PUSH1 0x0 SWAP1 JUMPDEST DUP4 DUP3 LT PUSH2 0x370B JUMPI POP POP POP POP POP PUSH1 0xC0 PUSH1 0x80 PUSH2 0x2ED3 SWAP6 SWAP7 PUSH1 0x1 DUP1 PUSH1 0xA0 SHL SUB PUSH1 0x60 DUP3 ADD MLOAD AND PUSH1 0xA0 DUP6 ADD MSTORE ADD MLOAD SWAP3 DUP3 DUP6 SUB ADD SWAP2 ADD MSTORE PUSH2 0x362B JUMP JUMPDEST DUP5 MLOAD DUP1 MLOAD PUSH1 0x1 PUSH1 0x1 PUSH1 0xA0 SHL SUB AND DUP10 MSTORE DUP4 ADD MLOAD DUP9 DUP5 ADD MSTORE SWAP7 DUP8 ADD SWAP7 SWAP4 DUP3 ADD SWAP4 PUSH1 0x1 SWAP1 SWAP2 ADD SWAP1 PUSH2 0x36D5 JUMP JUMPDEST PUSH1 0x0 PUSH1 0x4 DUP1 SLOAD SWAP2 JUMPDEST DUP3 PUSH2 0xFFFF DUP3 AND LT PUSH2 0x3787 JUMPI POP POP POP PUSH32 0x0 PUSH1 0x1 PUSH1 0x1 PUSH1 0xA0 SHL SUB SWAP1 DUP2 AND SWAP2 AND EQ PUSH2 0x3782 JUMPI PUSH1 0x0 SWAP1 JUMP JUMPDEST PUSH1 0x1 SWAP1 JUMP JUMPDEST PUSH2 0x3790 DUP2 PUSH2 0x28D3 JUMP JUMPDEST SWAP1 SLOAD PUSH1 0x3 SWAP2 SWAP1 SWAP2 SHL SHR PUSH1 0x1 PUSH1 0x1 PUSH1 0xA0 SHL SUB SWAP1 DUP2 AND SWAP1 DUP6 AND EQ PUSH2 0x37D6 JUMPI PUSH2 0xFFFF DUP1 SWAP2 AND SWAP1 DUP2 EQ PUSH2 0x37C1 JUMPI PUSH1 0x1 ADD PUSH2 0x373C JUMP JUMPDEST PUSH1 0x11 DUP3 PUSH4 0x4E487B71 PUSH1 0xE0 SHL PUSH1 0x0 MSTORE MSTORE PUSH1 0x24 PUSH1 0x0 REVERT JUMPDEST POP POP POP POP PUSH1 0x1 SWAP1 JUMP JUMPDEST DUP1 MLOAD ISZERO PUSH2 0x290A JUMPI PUSH1 0x20 ADD SWAP1 JUMP JUMPDEST SWAP3 SWAP2 SWAP1 PUSH1 0x40 SWAP2 DUP3 MLOAD SWAP3 PUSH2 0x37FE DUP5 PUSH2 0x27C6 JUMP JUMPDEST PUSH1 0x60 SWAP3 DUP4 DUP6 MSTORE PUSH1 0x20 SWAP6 DUP5 DUP8 DUP8 ADD MSTORE DUP5 DUP4 DUP8 ADD MSTORE DUP5 PUSH1 0x80 PUSH1 0x0 SWAP8 DUP9 DUP4 DUP3 ADD MSTORE ADD MSTORE PUSH1 0x1 DUP1 PUSH1 0xA0 SHL SUB DUP1 SWAP5 AND DUP1 ISZERO DUP1 PUSH2 0x38F7 JUMPI JUMPDEST ISZERO PUSH2 0x3889 JUMPI POP POP DUP2 MLOAD PUSH2 0x3842 DUP2 PUSH2 0x27AB JUMP JUMPDEST DUP6 DUP2 MSTORE SWAP3 JUMPDEST DUP3 MLOAD SWAP8 AND DUP7 DUP9 ADD MSTORE DUP6 DUP8 MSTORE PUSH2 0x385B DUP8 PUSH2 0x27E1 JUMP JUMPDEST PUSH2 0x3869 DUP3 MLOAD PUSH2 0x1C12 DUP2 PUSH2 0x27AB JUMP JUMPDEST SWAP6 DUP3 MLOAD SWAP8 PUSH2 0x3876 DUP10 PUSH2 0x27C6 JUMP JUMPDEST DUP9 MSTORE DUP8 ADD MSTORE DUP6 ADD MSTORE DUP4 ADD MSTORE PUSH1 0x80 DUP3 ADD MSTORE SWAP1 JUMP JUMPDEST DUP4 SWAP5 SWAP2 SWAP5 MLOAD SWAP1 PUSH2 0x3898 DUP3 PUSH2 0x27E1 JUMP JUMPDEST PUSH1 0x1 DUP3 MSTORE DUP9 DUP9 JUMPDEST DUP2 DUP2 LT PUSH2 0x38D6 JUMPI POP POP SWAP1 PUSH2 0x38D0 SWAP2 DUP2 SWAP7 DUP7 MLOAD SWAP2 PUSH2 0x38BB DUP4 PUSH2 0x27E1 JUMP JUMPDEST DUP3 MSTORE DUP11 DUP3 ADD MSTORE PUSH2 0x38CA DUP3 PUSH2 0x37DF JUMP JUMPDEST MSTORE PUSH2 0x37DF JUMP JUMPDEST POP PUSH2 0x3847 JUMP JUMPDEST DUP7 MLOAD PUSH2 0x38E1 DUP2 PUSH2 0x27E1 JUMP JUMPDEST DUP11 DUP2 MSTORE DUP11 DUP4 DUP3 ADD MSTORE DUP3 DUP3 DUP7 ADD ADD MSTORE ADD DUP10 SWAP1 PUSH2 0x389F JUMP JUMPDEST POP DUP2 ISZERO PUSH2 0x3830 JUMP JUMPDEST SWAP2 SWAP1 DUP3 PUSH2 0x180 SWAP2 SUB SLT PUSH2 0x4D4 JUMPI DUP2 MLOAD SWAP2 PUSH1 0x20 DUP2 ADD MLOAD SWAP2 PUSH1 0x40 DUP3 ADD MLOAD SWAP2 PUSH1 0x60 DUP2 ADD MLOAD SWAP2 PUSH1 0x80 DUP3 ADD MLOAD SWAP2 PUSH1 0xA0 DUP2 ADD MLOAD SWAP2 PUSH1 0xC0 DUP3 ADD MLOAD SWAP2 PUSH1 0xE0 DUP2 ADD MLOAD SWAP2 PUSH2 0x100 DUP3 ADD MLOAD SWAP2 PUSH2 0x120 DUP2 ADD MLOAD SWAP2 PUSH2 0x160 PUSH2 0x140 DUP4 ADD MLOAD SWAP3 ADD MLOAD PUSH5 0xFFFFFFFFFF DUP2 AND DUP2 SUB PUSH2 0x4D4 JUMPI SWAP1 JUMP JUMPDEST MLOAD SWAP1 PUSH1 0x1 PUSH1 0x1 PUSH1 0xA0 SHL SUB DUP3 AND DUP3 SUB PUSH2 0x4D4 JUMPI JUMP JUMPDEST MLOAD SWAP1 PUSH1 0xFF DUP3 AND DUP3 SUB PUSH2 0x4D4 JUMPI JUMP JUMPDEST PUSH1 0x40 MLOAD SWAP1 PUSH4 0x97A657C9 PUSH1 0xE0 SHL PUSH1 0x20 DUP4 ADD MSTORE MLOAD PUSH1 0x24 DUP3 ADD MSTORE PUSH1 0x24 DUP2 MSTORE PUSH1 0x60 DUP2 ADD DUP2 DUP2 LT PUSH1 0x1 PUSH1 0x1 PUSH1 0x40 SHL SUB DUP3 GT OR PUSH2 0x493 JUMPI PUSH1 0x40 MSTORE SWAP1 JUMP JUMPDEST PUSH1 0x40 MLOAD PUSH4 0x26B1D5F PUSH1 0xE0 SHL DUP2 MSTORE SWAP1 PUSH1 0x20 SWAP1 DUP3 SWAP1 PUSH1 0x4 SWAP1 DUP3 SWAP1 PUSH1 0x1 PUSH1 0x1 PUSH1 0xA0 SHL SUB AND GAS STATICCALL SWAP1 DUP2 ISZERO PUSH2 0x3A0A JUMPI PUSH1 0x0 SWAP2 PUSH2 0x39F2 JUMPI POP SWAP1 JUMP JUMPDEST PUSH2 0x2ED3 SWAP2 POP PUSH1 0x20 RETURNDATASIZE DUP2 GT PUSH2 0x2226 JUMPI PUSH2 0x2218 DUP2 DUP4 PUSH2 0x2845 JUMP JUMPDEST PUSH1 0x40 MLOAD RETURNDATASIZE PUSH1 0x0 DUP3 RETURNDATACOPY RETURNDATASIZE SWAP1 REVERT JUMPDEST PUSH1 0x40 DUP1 MLOAD PUSH4 0x70A08231 PUSH1 0xE0 SHL DUP2 MSTORE ADDRESS PUSH1 0x4 DUP3 ADD MSTORE SWAP4 SWAP5 SWAP4 SWAP1 SWAP3 PUSH1 0x20 SWAP3 PUSH1 0x1 PUSH1 0x1 PUSH1 0xA0 SHL SUB SWAP2 DUP3 AND SWAP3 SWAP2 SWAP1 DUP5 DUP4 PUSH1 0x24 DUP2 DUP8 GAS STATICCALL SWAP3 DUP4 ISZERO PUSH2 0x3B55 JUMPI PUSH1 0x0 SWAP4 PUSH2 0x3B60 JUMPI JUMPDEST POP PUSH2 0x3A61 SWAP1 PUSH2 0x39BD JUMP JUMPDEST DUP6 MLOAD PUSH4 0x95EA7B3 PUSH1 0xE0 SHL DUP2 MSTORE PUSH1 0x1 PUSH1 0x1 PUSH1 0xA0 SHL SUB DUP3 AND PUSH1 0x4 DUP3 ADD MSTORE PUSH1 0x24 DUP2 ADD DUP5 SWAP1 MSTORE SWAP1 SWAP4 DUP6 SWAP1 DUP3 SWAP1 PUSH1 0x44 SWAP1 DUP3 SWAP1 PUSH1 0x0 SWAP1 GAS CALL DUP1 ISZERO PUSH2 0x3B55 JUMPI DUP6 SWAP5 SWAP3 PUSH2 0x3AE7 SWAP9 SWAP10 SWAP5 SWAP3 PUSH1 0x0 SWAP3 PUSH2 0x3B38 JUMPI JUMPDEST POP DUP8 MLOAD PUSH4 0x1A4CA37B PUSH1 0xE2 SHL DUP2 MSTORE PUSH1 0x1 PUSH1 0x1 PUSH1 0xA0 SHL SUB SWAP1 SWAP6 AND PUSH1 0x4 DUP7 ADD MSTORE PUSH1 0x24 DUP6 ADD SWAP3 SWAP1 SWAP3 MSTORE ADDRESS PUSH1 0x44 DUP6 ADD MSTORE SWAP3 SWAP7 DUP8 SWAP4 DUP5 SWAP3 SWAP1 SWAP2 DUP4 SWAP1 PUSH1 0x64 DUP3 ADD SWAP1 JUMP JUMPDEST SUB SWAP4 AND GAS CALL SWAP2 DUP3 ISZERO PUSH2 0x3B2E JUMPI POP PUSH1 0x0 SWAP2 PUSH2 0x3B02 JUMPI JUMPDEST POP SWAP1 POP SWAP1 JUMP JUMPDEST DUP3 DUP2 RETURNDATASIZE DUP4 GT PUSH2 0x3B27 JUMPI JUMPDEST PUSH2 0x3B16 DUP2 DUP4 PUSH2 0x2845 JUMP JUMPDEST DUP2 ADD SUB SLT PUSH2 0x225 JUMPI POP MLOAD DUP1 CODESIZE PUSH2 0x3AFC JUMP JUMPDEST POP RETURNDATASIZE PUSH2 0x3B0C JUMP JUMPDEST MLOAD RETURNDATASIZE PUSH1 0x0 DUP3 RETURNDATACOPY RETURNDATASIZE SWAP1 REVERT JUMPDEST PUSH2 0x3B4E SWAP1 DUP8 RETURNDATASIZE DUP10 GT PUSH2 0xABA JUMPI PUSH2 0xAAA DUP2 DUP4 PUSH2 0x2845 JUMP JUMPDEST POP CODESIZE PUSH2 0x3AAB JUMP JUMPDEST DUP7 MLOAD RETURNDATASIZE PUSH1 0x0 DUP3 RETURNDATACOPY RETURNDATASIZE SWAP1 REVERT JUMPDEST SWAP1 SWAP3 DUP6 DUP3 DUP2 RETURNDATASIZE DUP4 GT PUSH2 0x3B8A JUMPI JUMPDEST PUSH2 0x3B77 DUP2 DUP4 PUSH2 0x2845 JUMP JUMPDEST DUP2 ADD SUB SLT PUSH2 0x225 JUMPI POP MLOAD SWAP2 PUSH2 0x3A61 PUSH2 0x3A57 JUMP JUMPDEST POP RETURNDATASIZE PUSH2 0x3B6D JUMP JUMPDEST PUSH1 0x40 DUP1 MLOAD PUSH4 0x70A08231 PUSH1 0xE0 SHL DUP2 MSTORE ADDRESS PUSH1 0x4 DUP3 ADD MSTORE SWAP1 SWAP2 PUSH1 0x1 PUSH1 0x1 PUSH1 0xA0 SHL SUB SWAP1 DUP5 DUP3 AND SWAP1 PUSH1 0x20 SWAP1 DUP2 DUP6 PUSH1 0x24 DUP2 DUP7 GAS STATICCALL SWAP5 DUP6 ISZERO PUSH2 0x3B55 JUMPI PUSH1 0x0 SWAP6 PUSH2 0x3C99 JUMPI JUMPDEST POP PUSH2 0x3BD8 SWAP1 PUSH2 0x39BD JUMP JUMPDEST DUP6 MLOAD PUSH4 0x95EA7B3 PUSH1 0xE0 SHL DUP2 MSTORE PUSH1 0x1 PUSH1 0x1 PUSH1 0xA0 SHL SUB DUP3 AND PUSH1 0x4 DUP3 ADD MSTORE PUSH1 0x24 DUP2 ADD DUP7 SWAP1 MSTORE SWAP1 SWAP3 DUP3 SWAP1 DUP3 SWAP1 PUSH1 0x44 SWAP1 DUP3 SWAP1 PUSH1 0x0 SWAP1 GAS CALL DUP1 ISZERO PUSH2 0x3B55 JUMPI PUSH2 0x3C7B JUMPI JUMPDEST POP POP AND SWAP3 DUP4 EXTCODESIZE ISZERO PUSH2 0x4D4 JUMPI DUP3 MLOAD PUSH4 0xE8EDA9DF PUSH1 0xE0 SHL DUP2 MSTORE PUSH1 0x1 PUSH1 0x1 PUSH1 0xA0 SHL SUB SWAP2 SWAP1 SWAP2 AND PUSH1 0x4 DUP3 ADD MSTORE PUSH1 0x24 DUP2 ADD SWAP2 SWAP1 SWAP2 MSTORE ADDRESS PUSH1 0x44 DUP3 ADD MSTORE PUSH1 0x0 PUSH1 0x64 DUP3 ADD DUP2 SWAP1 MSTORE SWAP1 SWAP3 DUP4 SWAP1 PUSH1 0x84 SWAP1 DUP3 SWAP1 DUP5 SWAP1 GAS CALL SWAP1 DUP2 ISZERO PUSH2 0x3B2E JUMPI POP PUSH2 0x3C70 JUMPI POP JUMP JUMPDEST PUSH2 0x3C79 SWAP1 PUSH2 0x27FC JUMP JUMPDEST JUMP JUMPDEST DUP2 PUSH2 0x3C91 SWAP3 SWAP1 RETURNDATASIZE LT PUSH2 0xABA JUMPI PUSH2 0xAAA DUP2 DUP4 PUSH2 0x2845 JUMP JUMPDEST POP CODESIZE DUP1 PUSH2 0x3C15 JUMP JUMPDEST SWAP1 SWAP5 DUP3 DUP3 DUP2 RETURNDATASIZE DUP4 GT PUSH2 0x3CC3 JUMPI JUMPDEST PUSH2 0x3CB0 DUP2 DUP4 PUSH2 0x2845 JUMP JUMPDEST DUP2 ADD SUB SLT PUSH2 0x225 JUMPI POP MLOAD SWAP4 PUSH2 0x3BD8 PUSH2 0x3BCE JUMP JUMPDEST POP RETURNDATASIZE PUSH2 0x3CA6 JUMP JUMPDEST PUSH1 0x0 SLOAD PUSH1 0x1 PUSH1 0x1 PUSH1 0xA0 SHL SUB AND CALLER SUB PUSH2 0x3CDE JUMPI JUMP JUMPDEST PUSH1 0x40 MLOAD PUSH3 0x461BCD PUSH1 0xE5 SHL DUP2 MSTORE PUSH1 0x20 PUSH1 0x4 DUP3 ADD MSTORE PUSH1 0x16 PUSH1 0x24 DUP3 ADD MSTORE PUSH22 0x27B7363C9031B0B63630B1363290313C9037BBB732B9 PUSH1 0x51 SHL PUSH1 0x44 DUP3 ADD MSTORE PUSH1 0x64 SWAP1 REVERT INVALID LOG2 PUSH5 0x6970667358 0x22 SLT KECCAK256 0xAC DUP6 0xFC SLOAD PUSH5 0xD2CD7B9425 0xBE MULMOD 0x29 DUP15 LOG3 0xAE 0x2C 0xE PUSH28 0x3A7C8DFADD7918B78627C2756264736F6C6343000813003300000000 ",
  "sha1": "feec3a51e6b41eb48e73127a43f11dc1e50fa1db",
  "source": "// SPDX-License-Identifier: MIT\npragma solidity 0.8.19;\n\nimport {IRouterClient} from \"@chainlink/contracts/src/v0.8/ccip/interfaces/IRouterClient.sol\";\nimport {OwnerIsCreator} from \"@chainlink/contracts/src/v0.8/shared/access/OwnerIsCreator.sol\";\nimport {Client} from \"@chainlink/contracts/src/v0.8/ccip/libraries/Client.sol\";\nimport {CCIPReceiver} from \"@chainlink/contracts/src/v0.8/ccip/applications/CCIPReceiver.sol\";\nimport {IERC20} from \"@chainlink/contracts/src/v0.8/vendor/openzeppelin-solidity/v4.8.3/contracts/token/ERC20/IERC20.sol\";\nimport {SafeERC20} from \"@chainlink/contracts/src/v0.8/vendor/openzeppelin-solidity/v4.8.3/contracts/token/ERC20/utils/SafeERC20.sol\";\nimport \"./utils_node/UtilsNode.sol\";\nimport \"../interfaces/IWETH9.sol\";\n\n//uniswap V3\nimport \"../interfaces/uniswap_V3/swap/ISwapRouter02.sol\";\n//AAVE interfaces\nimport \"../interfaces/IPool.sol\";\nimport \"../interfaces/IPoolDataProvider.sol\";\n//master contract interface\nimport \"../interfaces/IMasterNode.sol\";\n\ncontract Node is CCIPReceiver, OwnerIsCreator, UtilsNode {\n    using SafeERC20 for IERC20;\n\n    error NotEnoughBalance(uint256 currentBalance, uint256 calculatedFees); // Used to make sure contract has enough balance to cover the fees.\n\n    event WarpAssets(\n        uint64 indexed detinationCCIPid,\n        address indexed destinationNodeAddress,\n        uint256 indexed amount\n    );\n    event WarpCompletedNodeReady(uint8 indexed commandResmueOperations);\n    event DepositAssets(\n        address indexed userAddress,\n        uint256 indexed amountUsdc,\n        uint256 indexed amountAwrp\n    );\n\n    uint256 public maxVaultAmount = 2000000 * 10 ** 6;\n    bool public isNodeActive;\n    address[] public allowedNodes;\n\n    uint64 public immutable MASTER_CONTRACT_CHAIN_ID;\n    address public immutable MASTER_CONTRACT_ADDRESS;\n    uint64 public immutable NODE_CONTRACT_CHAIN_ID;\n    address public immutable POOL_ADDRESS_PROVIDER_ADDRESS;\n    address public immutable POOL_DATA_PROVIDER_ADDRESS;\n    address public immutable USDC_ADDRESS;\n    address public immutable aUSDC_ADDRESS;\n    address public immutable WETH_ADDRESS;\n    uint16 public immutable uinswapFeePool;\n\n    IERC20 private s_linkToken;\n    ISwapRouter02 public iSwapRouter02;\n\n    uint256 public aWrpTotalSupplyNodeSide;\n\n    mapping(address => uint256) public avaliableForRefund;\n\n    constructor(\n        address _router,\n        address _link,\n        address _USDC_ADDRESS,\n        address _aUSDC_ADDRESS,\n        address _WETH_ADDRESS,\n        uint64 _MASTER_CONTRACT_CHAIN_ID,\n        address _MASTER_CONTRACT_ADDRESS,\n        uint64 _NODE_CONTRACT_CHAIN_ID,\n        address _POOL_ADDRESS_PROVIDER_ADDRESS,\n        address _POOL_DATA_PROVIDER_ADDRESS,\n        address _UNISWAP_V3_ROUTER02,\n        bool _isNodeActive,\n        uint16 _uinswapFeePool\n    ) CCIPReceiver(_router) {\n        s_linkToken = IERC20(_link);\n        USDC_ADDRESS = _USDC_ADDRESS;\n        aUSDC_ADDRESS = _aUSDC_ADDRESS;\n        WETH_ADDRESS = _WETH_ADDRESS;\n        MASTER_CONTRACT_CHAIN_ID = _MASTER_CONTRACT_CHAIN_ID;\n        MASTER_CONTRACT_ADDRESS = _MASTER_CONTRACT_ADDRESS;\n        NODE_CONTRACT_CHAIN_ID = _NODE_CONTRACT_CHAIN_ID;\n        POOL_ADDRESS_PROVIDER_ADDRESS = _POOL_ADDRESS_PROVIDER_ADDRESS;\n        POOL_DATA_PROVIDER_ADDRESS = _POOL_DATA_PROVIDER_ADDRESS;\n\n        // uniswap interfaces\n        iSwapRouter02 = ISwapRouter02(_UNISWAP_V3_ROUTER02);\n\n        isNodeActive = _isNodeActive;\n        uinswapFeePool = _uinswapFeePool;\n    }\n\n    // set Allowed Nodes, can only be called once!\n    function setAllowedNodes(\n        address[] memory _allowedNodes\n    ) external onlyOwner {\n        require(_allowedNodes.length > 0, \"You sent an empty array\");\n        require(allowedNodes.length == 0, \"allowedNodes must be empty\");\n        allowedNodes = _allowedNodes;\n    }\n\n    // Internal function to check if an address is in the allowedNodes array\n    function isAllowedAddress(\n        address _nodeOrMaster\n    ) internal view returns (bool) {\n        for (uint16 i = 0; i < allowedNodes.length; i++) {\n            if (allowedNodes[i] == _nodeOrMaster) {\n                return true;\n            }\n        }\n        if (_nodeOrMaster == MASTER_CONTRACT_ADDRESS) {\n            return true;\n        }\n        return false;\n    }\n\n    // Modifier to check if msg.sender is in the allowedNodes array\n    modifier onlyAllowedAddresses(address senderAddress) {\n        require(\n            isAllowedAddress(senderAddress),\n            \"Caller is not an allowed node\"\n        );\n        _;\n    }\n\n    modifier masterAndNodeInSameChain() {\n        require(\n            NODE_CONTRACT_CHAIN_ID == MASTER_CONTRACT_CHAIN_ID,\n            \"Require master and node in same chain\"\n        );\n        _;\n    }\n\n    /////////////////////////////////////////////////////////////////////////\n    ////////////////////////////////////////////////////////////////////////\n    //////////////////////////  RECEIVING MESSAGES  ///////////////////////\n    //////////////////////////////////////////////////////////////////////\n    /////////////////////////////////////////////////////////////////////\n\n    /////////////////////////////////////////////////////////////////////////\n    //////////////////////////  HANDLE WITHDRAW  ///////////////////////////\n    ///////////////////////////  COMMAND = 0  /////////////////////////////\n    //////////////////////////////////////////////////////////////////////\n\n    function _withdraw(Client.Any2EVMMessage memory _any2EvmMessage) internal {\n        (, address transferToUser, uint256 shares) = abi.decode(\n            _any2EvmMessage.data,\n            (uint8, address, uint256)\n        );\n\n        address pool = _getPool(POOL_ADDRESS_PROVIDER_ADDRESS);\n        uint256 totalAusdc = IERC20(aUSDC_ADDRESS).balanceOf(address(this));\n\n        uint256 amount = ((shares * 10 ** 18) * totalAusdc) /\n            aWrpTotalSupplyNodeSide;\n\n        aWrpTotalSupplyNodeSide -= shares;\n\n        if (!isNodeActive) {\n            avaliableForRefund[transferToUser] += shares;\n        } else {\n            IERC20(aUSDC_ADDRESS).approve(pool, amount / 10 ** 18);\n            IPool(pool).withdraw(\n                USDC_ADDRESS,\n                amount / 10 ** 18,\n                transferToUser\n            );\n        }\n    }\n\n    /////////////////////  WITHDRAW MASTER AND NODE IN SAME CHAIN  ///////////////////////\n\n    function withdrawFromSameChain(\n        address transferToUser,\n        uint256 shares\n    ) external masterAndNodeInSameChain {\n        require(\n            msg.sender == MASTER_CONTRACT_ADDRESS,\n            \"Only Master Contract allowed\"\n        );\n\n        address pool = _getPool(POOL_ADDRESS_PROVIDER_ADDRESS);\n        uint256 totalAusdc = IERC20(aUSDC_ADDRESS).balanceOf(address(this));\n\n        uint256 amount = ((shares * 10 ** 18) * totalAusdc) /\n            aWrpTotalSupplyNodeSide;\n\n        aWrpTotalSupplyNodeSide -= shares;\n\n        if (!isNodeActive) {\n            avaliableForRefund[transferToUser] += shares;\n        } else {\n            IERC20(aUSDC_ADDRESS).approve(pool, amount / 10 ** 18);\n            IPool(pool).withdraw(\n                USDC_ADDRESS,\n                amount / 10 ** 18,\n                transferToUser\n            );\n        }\n    }\n\n    /////////////////////////////////////////////////////////////////////////\n    ////////////////////////  HANDLE WARP ASSETS  //////////////////////////\n    ///////////////////////////  COMMAND = 1  //////////////////////////////\n    ///////////////////////////////////////////////////////////////////////\n\n    function _warpAssets(\n        Client.Any2EVMMessage memory _any2EvmMessage\n    ) internal {\n        (, uint64 _destinationChainSelector, address _receiver) = abi.decode(\n            _any2EvmMessage.data,\n            (uint8, uint64, address)\n        );\n        uint256 usdcwithdrawn = _assetsAllocationWithdraw(\n            POOL_ADDRESS_PROVIDER_ADDRESS,\n            aUSDC_ADDRESS,\n            USDC_ADDRESS\n        );\n\n        uint8 commandAWRPSupply = 2;\n        bytes memory data = abi.encode(\n            commandAWRPSupply,\n            aWrpTotalSupplyNodeSide\n        );\n\n        isNodeActive = false;\n        _sendMessage(\n            _destinationChainSelector,\n            _receiver,\n            data,\n            USDC_ADDRESS,\n            usdcwithdrawn,\n            true\n        );\n\n        emit WarpAssets(_destinationChainSelector, _receiver, usdcwithdrawn);\n    }\n\n    /////////////  WARP ASSETS, MASTER AND NODE IN SAME CHAIN  //////////////\n    function warpAssetsFromSameChain(\n        uint64 _destinationChainSelector,\n        address _receiver\n    ) external masterAndNodeInSameChain {\n        require(\n            msg.sender == MASTER_CONTRACT_ADDRESS,\n            \"Only Master Contract allowed\"\n        );\n        uint256 usdcwithdrawn = _assetsAllocationWithdraw(\n            POOL_ADDRESS_PROVIDER_ADDRESS,\n            aUSDC_ADDRESS,\n            USDC_ADDRESS\n        );\n\n        uint8 commandAWRPSupply = 2;\n        bytes memory data = abi.encode(\n            commandAWRPSupply,\n            aWrpTotalSupplyNodeSide\n        );\n\n        isNodeActive = false;\n        _sendMessage(\n            _destinationChainSelector,\n            _receiver,\n            data,\n            USDC_ADDRESS,\n            usdcwithdrawn,\n            true\n        );\n\n        emit WarpAssets(_destinationChainSelector, _receiver, usdcwithdrawn);\n    }\n\n    /////////////////////////////////////////////////////////////////////////\n    /////////////////////  HANDLE RESUME OPERATIONS  ///////////////////////\n    ///////////////////////////  COMMAND = 2  //////////////////////////////\n    ///////////////////////////////////////////////////////////////////////\n\n    function _allocateAssetsAndSetAWRPSupply(\n        Client.Any2EVMMessage memory _any2EvmMessage\n    ) internal {\n        (, uint256 _aWrpSupplyFromOldNode) = abi.decode(\n            _any2EvmMessage.data,\n            (uint8, uint256)\n        );\n\n        // dont need this here because _assetAllocationDeposit is called in _sendMessage\n        // I left this line commented and not deleted to understand why is not called here\n        //_assetsAllocationDeposit(POOL_ADDRESS_PROVIDER_ADDRESS, USDC_ADDRESS);\n\n        aWrpTotalSupplyNodeSide = _aWrpSupplyFromOldNode;\n\n        uint8 commandResumeOperations = 1;\n        isNodeActive = true;\n\n        bytes memory data = abi.encode(commandResumeOperations);\n\n        if (NODE_CONTRACT_CHAIN_ID == MASTER_CONTRACT_CHAIN_ID) {\n            // here is needed cuz no message is sent\n            _assetsAllocationDeposit(\n                POOL_ADDRESS_PROVIDER_ADDRESS,\n                USDC_ADDRESS\n            );\n            IMasterNode(MASTER_CONTRACT_ADDRESS)\n                ._resmumeOperationsFromSameChain();\n        } else {\n            _sendMessage(\n                MASTER_CONTRACT_CHAIN_ID,\n                MASTER_CONTRACT_ADDRESS,\n                data,\n                address(0),\n                0,\n                true\n            );\n        }\n\n        emit WarpCompletedNodeReady(commandResumeOperations);\n    }\n    //////////////////////////////////////////////////////////////////////////\n    /////////////////////////////////////////////////////////////////////////\n    ////////////////////////  INCOMING MESAGE HANDLER  /////////////////////\n    /////////////////  THIS FUNC IS CALLED BY CHAINLINK  //////////////////\n    //////////////////////////////////////////////////////////////////////\n    /////////////////////////////////////////////////////////////////////\n\n    function _ccipReceive(\n        Client.Any2EVMMessage memory _any2EvmMessage\n    )\n        internal\n        override\n        onlyAllowedAddresses(abi.decode(_any2EvmMessage.sender, (address)))\n    {\n        uint8 command = _internalCommandRouter(_any2EvmMessage);\n\n        if (command == 0) {\n            _withdraw(_any2EvmMessage);\n        } else if (command == 1) {\n            _warpAssets(_any2EvmMessage);\n        } else if (command == 2) {\n            _allocateAssetsAndSetAWRPSupply(_any2EvmMessage);\n        } else {\n            revert(\"invalid command\");\n        }\n    }\n    /////////////////////////////////////////////////////////////////////////\n    ////////////////////////////////////////////////////////////////////////\n    ///////////////////////  OUTGOING MESSAGES HANDLER  ///////////////////\n    //////////////////////////////////////////////////////////////////////\n    /////////////////////////////////////////////////////////////////////\n\n    function _sendMessage(\n        uint64 _destinationChainSelector,\n        address _receiver,\n        bytes memory _data,\n        address _token,\n        uint256 _amount,\n        bool isPayingNative\n    ) internal onlyAllowedAddresses(_receiver) returns (bytes32 messageId) {\n        // Create an EVM2AnyMessage struct in memory with necessary information for sending a cross-chain message\n        // address(s_linkToken) means fees are paid in LINK\n        uint256 newAmount;\n        if (_amount > 0) {\n            newAmount = _amount;\n        }\n\n        address tokenFee;\n        if (isPayingNative) {\n            tokenFee = address(0);\n        } else {\n            tokenFee = address(s_linkToken);\n        }\n\n        Client.EVM2AnyMessage memory evm2AnyMessage = _buildCCIPMessage(\n            _receiver,\n            _data,\n            _token,\n            newAmount,\n            tokenFee\n        );\n\n        // Initialize a router client instance to interact with cross-chain router\n        IRouterClient routerCCIP = IRouterClient(this.getRouter());\n\n        // Get the fee required to send the CCIP message\n        uint256 fees = routerCCIP.getFee(\n            _destinationChainSelector,\n            evm2AnyMessage\n        );\n\n        // When an incoming message requires to pay the fees on native token\n        // This will sell some USDC from the vault to get the eth needed to pay the fees\n        uint256 amountInUsdc;\n        if (isPayingNative) {\n            amountInUsdc = _getNativeFees(fees);\n            if (newAmount > 0) {\n                evm2AnyMessage = _buildCCIPMessage(\n                    _receiver,\n                    _data,\n                    _token,\n                    newAmount - amountInUsdc,\n                    tokenFee\n                );\n            }\n        }\n\n        if (isPayingNative) {\n            if (fees > address(this).balance) {\n                revert NotEnoughBalance(address(this).balance, fees);\n            }\n        } else {\n            require(\n                s_linkToken.transferFrom(msg.sender, address(this), fees),\n                \"Not provided Link for fees\"\n            );\n            if (fees > s_linkToken.balanceOf(address(this)))\n                revert NotEnoughBalance(\n                    s_linkToken.balanceOf(address(this)),\n                    fees\n                );\n            s_linkToken.approve(address(routerCCIP), fees);\n        }\n\n        // approve the Router to spend tokens on contract's behalf. It will spend the amount of the given token\n        if (_token != address(0)) {\n            IERC20(_token).approve(address(routerCCIP), newAmount);\n        }\n\n        // Send the message through the router and store the returned message ID\n        if (isPayingNative) {\n            messageId = routerCCIP.ccipSend{value: fees}(\n                _destinationChainSelector,\n                evm2AnyMessage\n            );\n        } else {\n            messageId = routerCCIP.ccipSend(\n                _destinationChainSelector,\n                evm2AnyMessage\n            );\n        }\n\n        uint256 usdcBalance = IERC20(USDC_ADDRESS).balanceOf(address(this));\n        if (usdcBalance > 0) {\n            _assetsAllocationDeposit(\n                POOL_ADDRESS_PROVIDER_ADDRESS,\n                USDC_ADDRESS\n            );\n        }\n\n        // Return the message ID\n        return messageId;\n    }\n\n    function _buildCCIPMessage(\n        address _receiver,\n        bytes memory _data,\n        address _token,\n        uint256 _amount,\n        address _feeTokenAddress\n    ) private returns (Client.EVM2AnyMessage memory) {\n        // Set the token amounts\n        Client.EVMTokenAmount[] memory tokenAmounts;\n\n        if (_token == address(0) && _amount == 0) {\n            tokenAmounts = new Client.EVMTokenAmount[](0);\n        } else {\n            tokenAmounts = new Client.EVMTokenAmount[](1);\n            tokenAmounts[0] = Client.EVMTokenAmount({\n                token: _token,\n                amount: _amount\n            });\n        }\n        // Create an EVM2AnyMessage struct in memory with necessary information for sending a cross-chain message\n        return\n            Client.EVM2AnyMessage({\n                receiver: abi.encode(_receiver), // ABI-encoded receiver address\n                data: _data, // ABI-encoded string\n                tokenAmounts: tokenAmounts, // The amount and type of token being transferred\n                extraArgs: Client._argsToBytes(\n                    // Additional arguments, setting gas limit\n                    Client.EVMExtraArgsV1({gasLimit: 2_000_000})\n                ),\n                // Set the feeToken to a feeTokenAddress, indicating specific asset will be used for fees\n                feeToken: _feeTokenAddress\n            });\n    }\n\n    /////////////////////////////////////////////////////////////////////////\n    /////////////////////////////////////////////////////////////////////////\n    //////////////////////////  SENDING MESSAGES  //////////////////////////\n    ///////////////////////////////////////////////////////////////////////\n    //////////////////////////////////////////////////////////////////////\n\n    /////////////////////////////////////////////////////////////////////////\n    ///////////////////////////////   DEPOSIT   ////////////////////////////\n    ///////////////////////////////////////////////////////////////////////\n\n    function deposit(uint256 amount) external {\n        require(\n            IERC20(USDC_ADDRESS).transferFrom(\n                msg.sender,\n                address(this),\n                amount\n            ),\n            \"Failed to transfer amount\"\n        );\n        require(\n            isNodeActive,\n            \"Asets are Warping Now, deposits on new blockchain\"\n        );\n\n        uint256 totalAusdcNode = IERC20(aUSDC_ADDRESS).balanceOf(address(this));\n        require(\n            totalAusdcNode + amount < maxVaultAmount,\n            \"Node furfilled no more deposits allowed\"\n        );\n        uint256 shares;\n        if (aWrpTotalSupplyNodeSide == 0) {\n            shares = amount * 10 ** 12;\n        } else {\n            shares = (amount * aWrpTotalSupplyNodeSide) / totalAusdcNode;\n        }\n\n        aWrpTotalSupplyNodeSide += shares;\n\n        uint8 command = 0;\n        bytes memory data = abi.encode(command, msg.sender, shares);\n\n        address pool = _getPool(POOL_ADDRESS_PROVIDER_ADDRESS);\n        IERC20(USDC_ADDRESS).approve(pool, amount);\n        IPool(pool).deposit(USDC_ADDRESS, amount, address(this), 0);\n\n        if (NODE_CONTRACT_CHAIN_ID == MASTER_CONTRACT_CHAIN_ID) {\n            IMasterNode(MASTER_CONTRACT_ADDRESS).aWarpTokenMinterFromSameChain(\n                msg.sender,\n                shares\n            );\n        } else {\n            _sendMessage(\n                MASTER_CONTRACT_CHAIN_ID,\n                MASTER_CONTRACT_ADDRESS,\n                data,\n                address(0),\n                0,\n                false\n            );\n        }\n\n        emit DepositAssets(msg.sender, amount, shares);\n    }\n\n    /////////////////////////////////////////////////////////////////////////\n    ///////////////   RECOVER aWRP FROM A FAILED WITHDRAW   ////////////////\n    ///////////////////////////////////////////////////////////////////////\n\n    function recoverAWRPFromFailedWithdraw() external {\n        require(avaliableForRefund[msg.sender] > 0, \"No aWRP tokens to refund\");\n        uint256 sharesToRefund = avaliableForRefund[msg.sender];\n\n        uint8 commandRefundAWRP = 0; // Same command than deposit\n        bytes memory data = abi.encode(\n            commandRefundAWRP,\n            msg.sender,\n            sharesToRefund\n        );\n\n        if (NODE_CONTRACT_CHAIN_ID == MASTER_CONTRACT_CHAIN_ID) {\n            IMasterNode(MASTER_CONTRACT_ADDRESS).aWarpTokenMinterFromSameChain(\n                msg.sender,\n                sharesToRefund\n            );\n        } else {\n            _sendMessage(\n                MASTER_CONTRACT_CHAIN_ID,\n                MASTER_CONTRACT_ADDRESS,\n                data,\n                address(0),\n                0,\n                false\n            );\n        }\n    }\n\n    /////////////////////////////////////////////////////////////////////////\n    /////////////////////   SEND DATA NODE TO MASTER   /////////////////////\n    ///////////////////////////////////////////////////////////////////////\n\n    function sendAaveData() external {\n        (\n            ,\n            ,\n            uint256 totalUsdcSupply,\n            ,\n            uint256 totalUsdcBorrow,\n            uint256 supplyRate,\n            ,\n            ,\n            ,\n            ,\n            ,\n\n        ) = IPoolDataProvider(POOL_DATA_PROVIDER_ADDRESS).getReserveData(\n                USDC_ADDRESS\n            );\n\n        uint256 totalAusdcNode = IERC20(aUSDC_ADDRESS).balanceOf(address(this));\n\n        uint8 commandSendAaveData = 2;\n        bytes memory data = abi.encode(\n            commandSendAaveData,\n            totalUsdcSupply,\n            totalUsdcBorrow,\n            supplyRate,\n            totalAusdcNode\n        );\n        if (NODE_CONTRACT_CHAIN_ID == MASTER_CONTRACT_CHAIN_ID) {\n            IMasterNode(MASTER_CONTRACT_ADDRESS).nodeAaveFeedFromSameChain(\n                totalUsdcSupply,\n                totalUsdcBorrow,\n                supplyRate,\n                totalAusdcNode\n            );\n        } else {\n            _sendMessage(\n                MASTER_CONTRACT_CHAIN_ID,\n                MASTER_CONTRACT_ADDRESS,\n                data,\n                address(0),\n                0,\n                false\n            );\n        }\n    }\n\n    /// @notice Fallback function to allow the contract to receive Ether.\n    /// @dev This function has no function body, making it a default function for receiving Ether.\n    /// It is automatically called when Ether is sent to the contract without any data.\n    receive() external payable {}\n\n    /////////////////////////////////////////////////////////////////////////\n    /////////////////////////////   UTILS   ////////////////////////////////\n    ///////////////////////////////////////////////////////////////////////\n\n    function _getNativeFees(uint256 fees) internal returns (uint256) {\n        // withdraw the usdc from aave for paying the fees\n        uint256 ausdcBalance = IERC20(aUSDC_ADDRESS).balanceOf(address(this));\n        if (ausdcBalance > 0) {\n            _assetsAllocationWithdraw(\n                POOL_ADDRESS_PROVIDER_ADDRESS,\n                aUSDC_ADDRESS,\n                USDC_ADDRESS\n            );\n        }\n\n        // Approve the router to spend USDC.\n        uint256 usdcBalance = IERC20(USDC_ADDRESS).balanceOf(address(this));\n        IERC20(USDC_ADDRESS).approve(address(iSwapRouter02), usdcBalance);\n\n        // Set up the parameters for the swap.\n        ISwapRouter02.ExactOutputSingleParams memory params = ISwapRouter02\n            .ExactOutputSingleParams({\n                tokenIn: USDC_ADDRESS,\n                tokenOut: WETH_ADDRESS,\n                fee: uinswapFeePool,\n                recipient: address(this),\n                amountOut: fees,\n                amountInMaximum: usdcBalance, // for testing dont mind slipperage\n                sqrtPriceLimitX96: 0\n            });\n\n        // Execute the swap.\n        uint256 amountIn = iSwapRouter02.exactOutputSingle(params);\n        IWETH9(WETH_ADDRESS).withdraw(fees);\n        return amountIn;\n    }\n\n    //frontend stuff, no impcat in contract\n    function calculateSharesValue(\n        uint256 shares\n    ) external view returns (uint256) {\n        uint256 totalAusdc = IERC20(aUSDC_ADDRESS).balanceOf(address(this));\n\n        uint256 amount = ((shares * 10 ** 18) * totalAusdc) /\n            aWrpTotalSupplyNodeSide;\n\n        return amount / 10 ** 18;\n    }\n    //END\n}\n",
  "sourcePath": "contracts/Node.sol",
  "type": "contract"
}